{
	"compilerInput": "{\"language\":\"Solidity\",\"sources\":{\"loyalty.sol\":{\"content\":\"// SPDX-License-Identifier: GPL-3.0\\r\\npragma solidity >=0.4.20 <0.9.0;\\r\\n\\r\\ncontract cryptoDorea {\\r\\n\\r\\n    string private sample = \\\"0x5f001effa0aa36e44c185b4d111ef217af320d06f75d54c95588a2b61d2769f4\\\";\\r\\n    bytes32 private _secretHash;\\r\\n    bytes32 private _initKey;\\r\\n\\r\\n    mapping(address=>bytes32) private _usersAuthToken;\\r\\n    mapping(address=>bytes32) private _usersAuthKey;\\r\\n    mapping (address=>uint256) private _purchaseIds;\\r\\n\\r\\n    struct encryptionResult{\\r\\n        bytes32 key;\\r\\n        bytes32 token;\\r\\n    }\\r\\n\\r\\n    // define constructor to get fund on deploy stage\\r\\n    constructor(bytes32 secret, bytes32 initKey) payable {\\r\\n\\r\\n        _secretHash = secret;\\r\\n        _initKey = initKey;\\r\\n\\r\\n    }\\r\\n\\r\\n    // Transfer Ether to Loyal Customers\\r\\n    function pay(address recipient, uint256  amount, uint256 campaignCount, uint256 shoppingCount, bytes32 secret, bytes32 token) public payable returns(encryptionResult memory){\\r\\n    \\r\\n        userAuthorized(recipient, secret, token);\\r\\n        \\r\\n        require(amount <= address(this).balance, \\\"Insufficient balance\\\");\\r\\n\\r\\n        if(shoppingCount >= campaignCount){    \\r\\n\\r\\n            // Transfer Ether to the receipnt address\\r\\n            bool success = payable(recipient).send(amount);\\r\\n            require(success, \\\"Transfer failed\\\");\\r\\n\\r\\n           return encrypt(recipient);\\r\\n\\r\\n        }else{\\r\\n\\r\\n            revert(\\\"User not Eligible!\\\");\\r\\n\\r\\n        }\\r\\n\\r\\n        \\r\\n    }\\r\\n\\r\\n    function userAuthorized(address recipient, bytes32 secret, bytes32 token) private view {\\r\\n      \\r\\n        bytes32 secretHash = secret ^ _initKey;\\r\\n        require(secretHash == _secretHash, \\\"User not Authorized: secret hash is wrong!\\\");\\r\\n\\r\\n        bytes32 _token = decrypt(recipient, token);\\r\\n\\r\\n        if (_usersAuthKey[recipient] != 0x0) {\\r\\n\\r\\n            require(_token == _usersAuthToken[recipient], \\\"User not Authorized: auth token is wrong!\\\");\\r\\n\\r\\n        }\\r\\n      \\r\\n    }\\r\\n\\r\\n\\r\\n    function encrypt(address recipient) private returns (encryptionResult memory) {\\r\\n        \\r\\n        if (_usersAuthKey[recipient] == 0x0) {\\r\\n\\r\\n            _usersAuthKey[recipient] = keccak256(abi.encodePacked(blockhash(block.number - 1), block.timestamp,msg.sender, \\\"key\\\"));\\r\\n            _usersAuthToken[recipient] = keccak256(abi.encodePacked(blockhash(block.number - 1), block.timestamp,msg.sender, \\\"token\\\"));\\r\\n        \\r\\n            bytes32 encKey = _usersAuthKey[recipient]  ^ _initKey;\\r\\n            bytes32 encToken = _usersAuthToken[recipient]  ^ _initKey;\\r\\n\\r\\n            return encryptionResult({ key: encKey, token: encToken });\\r\\n\\r\\n        }else{\\r\\n\\r\\n            _usersAuthKey[recipient] = keccak256(abi.encodePacked(blockhash(block.number - 1), block.timestamp,msg.sender, \\\"key\\\"));\\r\\n            _usersAuthToken[recipient] = keccak256(abi.encodePacked(blockhash(block.number - 1), block.timestamp,msg.sender, \\\"token\\\"));\\r\\n        \\r\\n            bytes32 encKey = _usersAuthKey[recipient]  ^ _usersAuthKey[recipient] ;\\r\\n            bytes32 encToken = _usersAuthToken[recipient]  ^ _usersAuthKey[recipient] ;\\r\\n\\r\\n            return encryptionResult({ key: encKey, token: encToken });\\r\\n\\r\\n        }\\r\\n    }\\r\\n\\r\\n    function decrypt(address recipient, bytes32 data) private view returns (bytes32) {\\r\\n\\r\\n        bytes32 decryptedValue;\\r\\n\\r\\n        // issue here\\r\\n        if (_usersAuthKey[recipient] != 0x0) {\\r\\n            decryptedValue = data ^ _usersAuthKey[recipient];\\r\\n        }else{\\r\\n            decryptedValue = data ^ _initKey;\\r\\n        }\\r\\n\\r\\n        return decryptedValue;\\r\\n\\r\\n    }\\r\\n\\r\\n\\r\\n    // get balance of contract address\\r\\n    function getBalance() public view returns(uint256){\\r\\n\\r\\n        return address(this).balance;\\r\\n\\r\\n    }\\r\\n\\r\\n    \\r\\n    \\r\\n    function test1(address recipient)public view returns(bytes32){\\r\\n\\r\\n        return _usersAuthKey[recipient];\\r\\n    }\\r\\n    \\r\\n    function test2(address recipient)public view returns(bytes32){\\r\\n\\r\\n        return  _usersAuthToken[recipient];\\r\\n    }\\r\\n\\r\\n    function test3()public view returns(bytes32){\\r\\n\\r\\n        return  _initKey;\\r\\n    }\\r\\n\\r\\n     function test4()public view returns(bytes32){\\r\\n\\r\\n        return  _secretHash;\\r\\n    }\\r\\n\\r\\n\\r\\n    function test5(address recipient, bytes32 key)public view returns(bytes32){\\r\\n\\r\\n        return decrypt(recipient, key);\\r\\n    }\\r\\n\\r\\n}\"}},\"settings\":{\"optimizer\":{\"enabled\":false,\"runs\":200},\"outputSelection\":{\"*\":{\"\":[\"ast\"],\"*\":[\"abi\",\"metadata\",\"devdoc\",\"userdoc\",\"storageLayout\",\"evm.legacyAssembly\",\"evm.bytecode\",\"evm.deployedBytecode\",\"evm.methodIdentifiers\",\"evm.gasEstimates\",\"evm.assembly\"]}},\"remappings\":[]}}",
	"name": "cryptoDorea",
	"bytecode": {
		"linkReferences": {},
		"object": "6080604052604051806080016040528060428152602001620014db604291395f90816200002d9190620002cd565b506040516200151d3803806200151d8339818101604052810190620000539190620003ed565b8160018190555080600281905550505062000432565b5f81519050919050565b7f4e487b71000000000000000000000000000000000000000000000000000000005f52604160045260245ffd5b7f4e487b71000000000000000000000000000000000000000000000000000000005f52602260045260245ffd5b5f6002820490506001821680620000e557607f821691505b602082108103620000fb57620000fa620000a0565b5b50919050565b5f819050815f5260205f209050919050565b5f6020601f8301049050919050565b5f82821b905092915050565b5f600883026200015f7fffffffffffffffffffffffffffffffffffffffffffffffffffffffffffffffff8262000122565b6200016b868362000122565b95508019841693508086168417925050509392505050565b5f819050919050565b5f819050919050565b5f620001b5620001af620001a98462000183565b6200018c565b62000183565b9050919050565b5f819050919050565b620001d08362000195565b620001e8620001df82620001bc565b8484546200012e565b825550505050565b5f90565b620001fe620001f0565b6200020b818484620001c5565b505050565b5b818110156200023257620002265f82620001f4565b60018101905062000211565b5050565b601f82111562000281576200024b8162000101565b620002568462000113565b8101602085101562000266578190505b6200027e620002758562000113565b83018262000210565b50505b505050565b5f82821c905092915050565b5f620002a35f198460080262000286565b1980831691505092915050565b5f620002bd838362000292565b9150826002028217905092915050565b620002d88262000069565b67ffffffffffffffff811115620002f457620002f362000073565b5b620003008254620000cd565b6200030d82828562000236565b5f60209050601f83116001811462000343575f84156200032e578287015190505b6200033a8582620002b0565b865550620003a9565b601f198416620003538662000101565b5f5b828110156200037c5784890151825560018201915060208501945060208101905062000355565b868310156200039c578489015162000398601f89168262000292565b8355505b6001600288020188555050505b505050505050565b5f80fd5b5f819050919050565b620003c981620003b5565b8114620003d4575f80fd5b50565b5f81519050620003e781620003be565b92915050565b5f8060408385031215620004065762000405620003b1565b5b5f6200041585828601620003d7565b92505060206200042885828601620003d7565b9150509250929050565b61109b80620004405f395ff3fe60806040526004361061006f575f3560e01c8063565992ad1161004d578063565992ad146100f75780638f0d282d14610133578063a408b1f51461015d578063b11bead4146101995761006f565b80630a8e8e011461007357806312065fe01461009d5780634e8e863b146100c7575b5f80fd5b34801561007e575f80fd5b506100876101d5565b60405161009491906109ad565b60405180910390f35b3480156100a8575f80fd5b506100b16101de565b6040516100be91906109de565b60405180910390f35b6100e160048036038101906100dc9190610aa9565b6101e5565b6040516100ee9190610b6e565b60405180910390f35b348015610102575f80fd5b5061011d60048036038101906101189190610b87565b61030f565b60405161012a91906109ad565b60405180910390f35b34801561013e575f80fd5b50610147610322565b60405161015491906109ad565b60405180910390f35b348015610168575f80fd5b50610183600480360381019061017e9190610bc5565b61032b565b60405161019091906109ad565b60405180910390f35b3480156101a4575f80fd5b506101bf60048036038101906101ba9190610bc5565b610371565b6040516101cc91906109ad565b60405180910390f35b5f600254905090565b5f47905090565b6101ed610977565b6101f88784846103b7565b4786111561023b576040517f08c379a000000000000000000000000000000000000000000000000000000000815260040161023290610c4a565b60405180910390fd5b8484106102ca575f8773ffffffffffffffffffffffffffffffffffffffff166108fc8890811502906040515f60405180830381858888f193505050509050806102b9576040517f08c379a00000000000000000000000000000000000000000000000000000000081526004016102b090610cb2565b60405180910390fd5b6102c2886104dd565b915050610305565b6040517f08c379a00000000000000000000000000000000000000000000000000000000081526004016102fc90610d1a565b60405180910390fd5b9695505050505050565b5f61031a83836108d6565b905092915050565b5f600154905090565b5f60045f8373ffffffffffffffffffffffffffffffffffffffff1673ffffffffffffffffffffffffffffffffffffffff1681526020019081526020015f20549050919050565b5f60035f8373ffffffffffffffffffffffffffffffffffffffff1673ffffffffffffffffffffffffffffffffffffffff1681526020019081526020015f20549050919050565b5f600254831890506001548114610403576040517f08c379a00000000000000000000000000000000000000000000000000000000081526004016103fa90610da8565b60405180910390fd5b5f61040e85846108d6565b90505f801b60045f8773ffffffffffffffffffffffffffffffffffffffff1673ffffffffffffffffffffffffffffffffffffffff1681526020019081526020015f2054146104d65760035f8673ffffffffffffffffffffffffffffffffffffffff1673ffffffffffffffffffffffffffffffffffffffff1681526020019081526020015f205481146104d5576040517f08c379a00000000000000000000000000000000000000000000000000000000081526004016104cc90610e36565b60405180910390fd5b5b5050505050565b6104e5610977565b5f801b60045f8473ffffffffffffffffffffffffffffffffffffffff1673ffffffffffffffffffffffffffffffffffffffff1681526020019081526020015f2054036106c5576001436105389190610e81565b40423360405160200161054d93929190610f8d565b6040516020818303038152906040528051906020012060045f8473ffffffffffffffffffffffffffffffffffffffff1673ffffffffffffffffffffffffffffffffffffffff1681526020019081526020015f20819055506001436105b19190610e81565b4042336040516020016105c69392919061101e565b6040516020818303038152906040528051906020012060035f8473ffffffffffffffffffffffffffffffffffffffff1673ffffffffffffffffffffffffffffffffffffffff1681526020019081526020015f20819055505f60025460045f8573ffffffffffffffffffffffffffffffffffffffff1673ffffffffffffffffffffffffffffffffffffffff1681526020019081526020015f20541890505f60025460035f8673ffffffffffffffffffffffffffffffffffffffff1673ffffffffffffffffffffffffffffffffffffffff1681526020019081526020015f2054189050604051806040016040528083815260200182815250925050506108d1565b6001436106d29190610e81565b4042336040516020016106e793929190610f8d565b6040516020818303038152906040528051906020012060045f8473ffffffffffffffffffffffffffffffffffffffff1673ffffffffffffffffffffffffffffffffffffffff1681526020019081526020015f208190555060014361074b9190610e81565b4042336040516020016107609392919061101e565b6040516020818303038152906040528051906020012060035f8473ffffffffffffffffffffffffffffffffffffffff1673ffffffffffffffffffffffffffffffffffffffff1681526020019081526020015f20819055505f60045f8473ffffffffffffffffffffffffffffffffffffffff1673ffffffffffffffffffffffffffffffffffffffff1681526020019081526020015f205460045f8573ffffffffffffffffffffffffffffffffffffffff1673ffffffffffffffffffffffffffffffffffffffff1681526020019081526020015f20541890505f60045f8573ffffffffffffffffffffffffffffffffffffffff1673ffffffffffffffffffffffffffffffffffffffff1681526020019081526020015f205460035f8673ffffffffffffffffffffffffffffffffffffffff1673ffffffffffffffffffffffffffffffffffffffff1681526020019081526020015f2054189050604051806040016040528083815260200182815250925050505b919050565b5f805f801b60045f8673ffffffffffffffffffffffffffffffffffffffff1673ffffffffffffffffffffffffffffffffffffffff1681526020019081526020015f2054146109655760045f8573ffffffffffffffffffffffffffffffffffffffff1673ffffffffffffffffffffffffffffffffffffffff1681526020019081526020015f20548318905061096d565b600254831890505b8091505092915050565b60405180604001604052805f80191681526020015f80191681525090565b5f819050919050565b6109a781610995565b82525050565b5f6020820190506109c05f83018461099e565b92915050565b5f819050919050565b6109d8816109c6565b82525050565b5f6020820190506109f15f8301846109cf565b92915050565b5f80fd5b5f73ffffffffffffffffffffffffffffffffffffffff82169050919050565b5f610a24826109fb565b9050919050565b610a3481610a1a565b8114610a3e575f80fd5b50565b5f81359050610a4f81610a2b565b92915050565b610a5e816109c6565b8114610a68575f80fd5b50565b5f81359050610a7981610a55565b92915050565b610a8881610995565b8114610a92575f80fd5b50565b5f81359050610aa381610a7f565b92915050565b5f805f805f8060c08789031215610ac357610ac26109f7565b5b5f610ad089828a01610a41565b9650506020610ae189828a01610a6b565b9550506040610af289828a01610a6b565b9450506060610b0389828a01610a6b565b9350506080610b1489828a01610a95565b92505060a0610b2589828a01610a95565b9150509295509295509295565b610b3b81610995565b82525050565b604082015f820151610b555f850182610b32565b506020820151610b686020850182610b32565b50505050565b5f604082019050610b815f830184610b41565b92915050565b5f8060408385031215610b9d57610b9c6109f7565b5b5f610baa85828601610a41565b9250506020610bbb85828601610a95565b9150509250929050565b5f60208284031215610bda57610bd96109f7565b5b5f610be784828501610a41565b91505092915050565b5f82825260208201905092915050565b7f496e73756666696369656e742062616c616e63650000000000000000000000005f82015250565b5f610c34601483610bf0565b9150610c3f82610c00565b602082019050919050565b5f6020820190508181035f830152610c6181610c28565b9050919050565b7f5472616e73666572206661696c656400000000000000000000000000000000005f82015250565b5f610c9c600f83610bf0565b9150610ca782610c68565b602082019050919050565b5f6020820190508181035f830152610cc981610c90565b9050919050565b7f55736572206e6f7420456c696769626c652100000000000000000000000000005f82015250565b5f610d04601283610bf0565b9150610d0f82610cd0565b602082019050919050565b5f6020820190508181035f830152610d3181610cf8565b9050919050565b7f55736572206e6f7420417574686f72697a65643a2073656372657420686173685f8201527f2069732077726f6e672100000000000000000000000000000000000000000000602082015250565b5f610d92602a83610bf0565b9150610d9d82610d38565b604082019050919050565b5f6020820190508181035f830152610dbf81610d86565b9050919050565b7f55736572206e6f7420417574686f72697a65643a206175746820746f6b656e205f8201527f69732077726f6e67210000000000000000000000000000000000000000000000602082015250565b5f610e20602983610bf0565b9150610e2b82610dc6565b604082019050919050565b5f6020820190508181035f830152610e4d81610e14565b9050919050565b7f4e487b71000000000000000000000000000000000000000000000000000000005f52601160045260245ffd5b5f610e8b826109c6565b9150610e96836109c6565b9250828203905081811115610eae57610ead610e54565b5b92915050565b5f819050919050565b610ece610ec982610995565b610eb4565b82525050565b5f819050919050565b610eee610ee9826109c6565b610ed4565b82525050565b5f8160601b9050919050565b5f610f0a82610ef4565b9050919050565b5f610f1b82610f00565b9050919050565b610f33610f2e82610a1a565b610f11565b82525050565b5f81905092915050565b7f6b657900000000000000000000000000000000000000000000000000000000005f82015250565b5f610f77600383610f39565b9150610f8282610f43565b600382019050919050565b5f610f988286610ebd565b602082019150610fa88285610edd565b602082019150610fb88284610f22565b601482019150610fc782610f6b565b9150819050949350505050565b7f746f6b656e0000000000000000000000000000000000000000000000000000005f82015250565b5f611008600583610f39565b915061101382610fd4565b600582019050919050565b5f6110298286610ebd565b6020820191506110398285610edd565b6020820191506110498284610f22565b60148201915061105882610ffc565b915081905094935050505056fea2646970667358221220524f4a4564a433ce9ce290fb0483d5fea0432418e311d5529fda422da96c35c764736f6c63430008160033307835663030316566666130616133366534346331383562346431313165663231376166333230643036663735643534633935353838613262363164323736396634",
		"opcodes": "PUSH1 0x80 PUSH1 0x40 MSTORE PUSH1 0x40 MLOAD DUP1 PUSH1 0x80 ADD PUSH1 0x40 MSTORE DUP1 PUSH1 0x42 DUP2 MSTORE PUSH1 0x20 ADD PUSH3 0x14DB PUSH1 0x42 SWAP2 CODECOPY PUSH0 SWAP1 DUP2 PUSH3 0x2D SWAP2 SWAP1 PUSH3 0x2CD JUMP JUMPDEST POP PUSH1 0x40 MLOAD PUSH3 0x151D CODESIZE SUB DUP1 PUSH3 0x151D DUP4 CODECOPY DUP2 DUP2 ADD PUSH1 0x40 MSTORE DUP2 ADD SWAP1 PUSH3 0x53 SWAP2 SWAP1 PUSH3 0x3ED JUMP JUMPDEST DUP2 PUSH1 0x1 DUP2 SWAP1 SSTORE POP DUP1 PUSH1 0x2 DUP2 SWAP1 SSTORE POP POP POP PUSH3 0x432 JUMP JUMPDEST PUSH0 DUP2 MLOAD SWAP1 POP SWAP2 SWAP1 POP JUMP JUMPDEST PUSH32 0x4E487B7100000000000000000000000000000000000000000000000000000000 PUSH0 MSTORE PUSH1 0x41 PUSH1 0x4 MSTORE PUSH1 0x24 PUSH0 REVERT JUMPDEST PUSH32 0x4E487B7100000000000000000000000000000000000000000000000000000000 PUSH0 MSTORE PUSH1 0x22 PUSH1 0x4 MSTORE PUSH1 0x24 PUSH0 REVERT JUMPDEST PUSH0 PUSH1 0x2 DUP3 DIV SWAP1 POP PUSH1 0x1 DUP3 AND DUP1 PUSH3 0xE5 JUMPI PUSH1 0x7F DUP3 AND SWAP2 POP JUMPDEST PUSH1 0x20 DUP3 LT DUP2 SUB PUSH3 0xFB JUMPI PUSH3 0xFA PUSH3 0xA0 JUMP JUMPDEST JUMPDEST POP SWAP2 SWAP1 POP JUMP JUMPDEST PUSH0 DUP2 SWAP1 POP DUP2 PUSH0 MSTORE PUSH1 0x20 PUSH0 KECCAK256 SWAP1 POP SWAP2 SWAP1 POP JUMP JUMPDEST PUSH0 PUSH1 0x20 PUSH1 0x1F DUP4 ADD DIV SWAP1 POP SWAP2 SWAP1 POP JUMP JUMPDEST PUSH0 DUP3 DUP3 SHL SWAP1 POP SWAP3 SWAP2 POP POP JUMP JUMPDEST PUSH0 PUSH1 0x8 DUP4 MUL PUSH3 0x15F PUSH32 0xFFFFFFFFFFFFFFFFFFFFFFFFFFFFFFFFFFFFFFFFFFFFFFFFFFFFFFFFFFFFFFFF DUP3 PUSH3 0x122 JUMP JUMPDEST PUSH3 0x16B DUP7 DUP4 PUSH3 0x122 JUMP JUMPDEST SWAP6 POP DUP1 NOT DUP5 AND SWAP4 POP DUP1 DUP7 AND DUP5 OR SWAP3 POP POP POP SWAP4 SWAP3 POP POP POP JUMP JUMPDEST PUSH0 DUP2 SWAP1 POP SWAP2 SWAP1 POP JUMP JUMPDEST PUSH0 DUP2 SWAP1 POP SWAP2 SWAP1 POP JUMP JUMPDEST PUSH0 PUSH3 0x1B5 PUSH3 0x1AF PUSH3 0x1A9 DUP5 PUSH3 0x183 JUMP JUMPDEST PUSH3 0x18C JUMP JUMPDEST PUSH3 0x183 JUMP JUMPDEST SWAP1 POP SWAP2 SWAP1 POP JUMP JUMPDEST PUSH0 DUP2 SWAP1 POP SWAP2 SWAP1 POP JUMP JUMPDEST PUSH3 0x1D0 DUP4 PUSH3 0x195 JUMP JUMPDEST PUSH3 0x1E8 PUSH3 0x1DF DUP3 PUSH3 0x1BC JUMP JUMPDEST DUP5 DUP5 SLOAD PUSH3 0x12E JUMP JUMPDEST DUP3 SSTORE POP POP POP POP JUMP JUMPDEST PUSH0 SWAP1 JUMP JUMPDEST PUSH3 0x1FE PUSH3 0x1F0 JUMP JUMPDEST PUSH3 0x20B DUP2 DUP5 DUP5 PUSH3 0x1C5 JUMP JUMPDEST POP POP POP JUMP JUMPDEST JUMPDEST DUP2 DUP2 LT ISZERO PUSH3 0x232 JUMPI PUSH3 0x226 PUSH0 DUP3 PUSH3 0x1F4 JUMP JUMPDEST PUSH1 0x1 DUP2 ADD SWAP1 POP PUSH3 0x211 JUMP JUMPDEST POP POP JUMP JUMPDEST PUSH1 0x1F DUP3 GT ISZERO PUSH3 0x281 JUMPI PUSH3 0x24B DUP2 PUSH3 0x101 JUMP JUMPDEST PUSH3 0x256 DUP5 PUSH3 0x113 JUMP JUMPDEST DUP2 ADD PUSH1 0x20 DUP6 LT ISZERO PUSH3 0x266 JUMPI DUP2 SWAP1 POP JUMPDEST PUSH3 0x27E PUSH3 0x275 DUP6 PUSH3 0x113 JUMP JUMPDEST DUP4 ADD DUP3 PUSH3 0x210 JUMP JUMPDEST POP POP JUMPDEST POP POP POP JUMP JUMPDEST PUSH0 DUP3 DUP3 SHR SWAP1 POP SWAP3 SWAP2 POP POP JUMP JUMPDEST PUSH0 PUSH3 0x2A3 PUSH0 NOT DUP5 PUSH1 0x8 MUL PUSH3 0x286 JUMP JUMPDEST NOT DUP1 DUP4 AND SWAP2 POP POP SWAP3 SWAP2 POP POP JUMP JUMPDEST PUSH0 PUSH3 0x2BD DUP4 DUP4 PUSH3 0x292 JUMP JUMPDEST SWAP2 POP DUP3 PUSH1 0x2 MUL DUP3 OR SWAP1 POP SWAP3 SWAP2 POP POP JUMP JUMPDEST PUSH3 0x2D8 DUP3 PUSH3 0x69 JUMP JUMPDEST PUSH8 0xFFFFFFFFFFFFFFFF DUP2 GT ISZERO PUSH3 0x2F4 JUMPI PUSH3 0x2F3 PUSH3 0x73 JUMP JUMPDEST JUMPDEST PUSH3 0x300 DUP3 SLOAD PUSH3 0xCD JUMP JUMPDEST PUSH3 0x30D DUP3 DUP3 DUP6 PUSH3 0x236 JUMP JUMPDEST PUSH0 PUSH1 0x20 SWAP1 POP PUSH1 0x1F DUP4 GT PUSH1 0x1 DUP2 EQ PUSH3 0x343 JUMPI PUSH0 DUP5 ISZERO PUSH3 0x32E JUMPI DUP3 DUP8 ADD MLOAD SWAP1 POP JUMPDEST PUSH3 0x33A DUP6 DUP3 PUSH3 0x2B0 JUMP JUMPDEST DUP7 SSTORE POP PUSH3 0x3A9 JUMP JUMPDEST PUSH1 0x1F NOT DUP5 AND PUSH3 0x353 DUP7 PUSH3 0x101 JUMP JUMPDEST PUSH0 JUMPDEST DUP3 DUP2 LT ISZERO PUSH3 0x37C JUMPI DUP5 DUP10 ADD MLOAD DUP3 SSTORE PUSH1 0x1 DUP3 ADD SWAP2 POP PUSH1 0x20 DUP6 ADD SWAP5 POP PUSH1 0x20 DUP2 ADD SWAP1 POP PUSH3 0x355 JUMP JUMPDEST DUP7 DUP4 LT ISZERO PUSH3 0x39C JUMPI DUP5 DUP10 ADD MLOAD PUSH3 0x398 PUSH1 0x1F DUP10 AND DUP3 PUSH3 0x292 JUMP JUMPDEST DUP4 SSTORE POP JUMPDEST PUSH1 0x1 PUSH1 0x2 DUP9 MUL ADD DUP9 SSTORE POP POP POP JUMPDEST POP POP POP POP POP POP JUMP JUMPDEST PUSH0 DUP1 REVERT JUMPDEST PUSH0 DUP2 SWAP1 POP SWAP2 SWAP1 POP JUMP JUMPDEST PUSH3 0x3C9 DUP2 PUSH3 0x3B5 JUMP JUMPDEST DUP2 EQ PUSH3 0x3D4 JUMPI PUSH0 DUP1 REVERT JUMPDEST POP JUMP JUMPDEST PUSH0 DUP2 MLOAD SWAP1 POP PUSH3 0x3E7 DUP2 PUSH3 0x3BE JUMP JUMPDEST SWAP3 SWAP2 POP POP JUMP JUMPDEST PUSH0 DUP1 PUSH1 0x40 DUP4 DUP6 SUB SLT ISZERO PUSH3 0x406 JUMPI PUSH3 0x405 PUSH3 0x3B1 JUMP JUMPDEST JUMPDEST PUSH0 PUSH3 0x415 DUP6 DUP3 DUP7 ADD PUSH3 0x3D7 JUMP JUMPDEST SWAP3 POP POP PUSH1 0x20 PUSH3 0x428 DUP6 DUP3 DUP7 ADD PUSH3 0x3D7 JUMP JUMPDEST SWAP2 POP POP SWAP3 POP SWAP3 SWAP1 POP JUMP JUMPDEST PUSH2 0x109B DUP1 PUSH3 0x440 PUSH0 CODECOPY PUSH0 RETURN INVALID PUSH1 0x80 PUSH1 0x40 MSTORE PUSH1 0x4 CALLDATASIZE LT PUSH2 0x6F JUMPI PUSH0 CALLDATALOAD PUSH1 0xE0 SHR DUP1 PUSH4 0x565992AD GT PUSH2 0x4D JUMPI DUP1 PUSH4 0x565992AD EQ PUSH2 0xF7 JUMPI DUP1 PUSH4 0x8F0D282D EQ PUSH2 0x133 JUMPI DUP1 PUSH4 0xA408B1F5 EQ PUSH2 0x15D JUMPI DUP1 PUSH4 0xB11BEAD4 EQ PUSH2 0x199 JUMPI PUSH2 0x6F JUMP JUMPDEST DUP1 PUSH4 0xA8E8E01 EQ PUSH2 0x73 JUMPI DUP1 PUSH4 0x12065FE0 EQ PUSH2 0x9D JUMPI DUP1 PUSH4 0x4E8E863B EQ PUSH2 0xC7 JUMPI JUMPDEST PUSH0 DUP1 REVERT JUMPDEST CALLVALUE DUP1 ISZERO PUSH2 0x7E JUMPI PUSH0 DUP1 REVERT JUMPDEST POP PUSH2 0x87 PUSH2 0x1D5 JUMP JUMPDEST PUSH1 0x40 MLOAD PUSH2 0x94 SWAP2 SWAP1 PUSH2 0x9AD JUMP JUMPDEST PUSH1 0x40 MLOAD DUP1 SWAP2 SUB SWAP1 RETURN JUMPDEST CALLVALUE DUP1 ISZERO PUSH2 0xA8 JUMPI PUSH0 DUP1 REVERT JUMPDEST POP PUSH2 0xB1 PUSH2 0x1DE JUMP JUMPDEST PUSH1 0x40 MLOAD PUSH2 0xBE SWAP2 SWAP1 PUSH2 0x9DE JUMP JUMPDEST PUSH1 0x40 MLOAD DUP1 SWAP2 SUB SWAP1 RETURN JUMPDEST PUSH2 0xE1 PUSH1 0x4 DUP1 CALLDATASIZE SUB DUP2 ADD SWAP1 PUSH2 0xDC SWAP2 SWAP1 PUSH2 0xAA9 JUMP JUMPDEST PUSH2 0x1E5 JUMP JUMPDEST PUSH1 0x40 MLOAD PUSH2 0xEE SWAP2 SWAP1 PUSH2 0xB6E JUMP JUMPDEST PUSH1 0x40 MLOAD DUP1 SWAP2 SUB SWAP1 RETURN JUMPDEST CALLVALUE DUP1 ISZERO PUSH2 0x102 JUMPI PUSH0 DUP1 REVERT JUMPDEST POP PUSH2 0x11D PUSH1 0x4 DUP1 CALLDATASIZE SUB DUP2 ADD SWAP1 PUSH2 0x118 SWAP2 SWAP1 PUSH2 0xB87 JUMP JUMPDEST PUSH2 0x30F JUMP JUMPDEST PUSH1 0x40 MLOAD PUSH2 0x12A SWAP2 SWAP1 PUSH2 0x9AD JUMP JUMPDEST PUSH1 0x40 MLOAD DUP1 SWAP2 SUB SWAP1 RETURN JUMPDEST CALLVALUE DUP1 ISZERO PUSH2 0x13E JUMPI PUSH0 DUP1 REVERT JUMPDEST POP PUSH2 0x147 PUSH2 0x322 JUMP JUMPDEST PUSH1 0x40 MLOAD PUSH2 0x154 SWAP2 SWAP1 PUSH2 0x9AD JUMP JUMPDEST PUSH1 0x40 MLOAD DUP1 SWAP2 SUB SWAP1 RETURN JUMPDEST CALLVALUE DUP1 ISZERO PUSH2 0x168 JUMPI PUSH0 DUP1 REVERT JUMPDEST POP PUSH2 0x183 PUSH1 0x4 DUP1 CALLDATASIZE SUB DUP2 ADD SWAP1 PUSH2 0x17E SWAP2 SWAP1 PUSH2 0xBC5 JUMP JUMPDEST PUSH2 0x32B JUMP JUMPDEST PUSH1 0x40 MLOAD PUSH2 0x190 SWAP2 SWAP1 PUSH2 0x9AD JUMP JUMPDEST PUSH1 0x40 MLOAD DUP1 SWAP2 SUB SWAP1 RETURN JUMPDEST CALLVALUE DUP1 ISZERO PUSH2 0x1A4 JUMPI PUSH0 DUP1 REVERT JUMPDEST POP PUSH2 0x1BF PUSH1 0x4 DUP1 CALLDATASIZE SUB DUP2 ADD SWAP1 PUSH2 0x1BA SWAP2 SWAP1 PUSH2 0xBC5 JUMP JUMPDEST PUSH2 0x371 JUMP JUMPDEST PUSH1 0x40 MLOAD PUSH2 0x1CC SWAP2 SWAP1 PUSH2 0x9AD JUMP JUMPDEST PUSH1 0x40 MLOAD DUP1 SWAP2 SUB SWAP1 RETURN JUMPDEST PUSH0 PUSH1 0x2 SLOAD SWAP1 POP SWAP1 JUMP JUMPDEST PUSH0 SELFBALANCE SWAP1 POP SWAP1 JUMP JUMPDEST PUSH2 0x1ED PUSH2 0x977 JUMP JUMPDEST PUSH2 0x1F8 DUP8 DUP5 DUP5 PUSH2 0x3B7 JUMP JUMPDEST SELFBALANCE DUP7 GT ISZERO PUSH2 0x23B JUMPI PUSH1 0x40 MLOAD PUSH32 0x8C379A000000000000000000000000000000000000000000000000000000000 DUP2 MSTORE PUSH1 0x4 ADD PUSH2 0x232 SWAP1 PUSH2 0xC4A JUMP JUMPDEST PUSH1 0x40 MLOAD DUP1 SWAP2 SUB SWAP1 REVERT JUMPDEST DUP5 DUP5 LT PUSH2 0x2CA JUMPI PUSH0 DUP8 PUSH20 0xFFFFFFFFFFFFFFFFFFFFFFFFFFFFFFFFFFFFFFFF AND PUSH2 0x8FC DUP9 SWAP1 DUP2 ISZERO MUL SWAP1 PUSH1 0x40 MLOAD PUSH0 PUSH1 0x40 MLOAD DUP1 DUP4 SUB DUP2 DUP6 DUP9 DUP9 CALL SWAP4 POP POP POP POP SWAP1 POP DUP1 PUSH2 0x2B9 JUMPI PUSH1 0x40 MLOAD PUSH32 0x8C379A000000000000000000000000000000000000000000000000000000000 DUP2 MSTORE PUSH1 0x4 ADD PUSH2 0x2B0 SWAP1 PUSH2 0xCB2 JUMP JUMPDEST PUSH1 0x40 MLOAD DUP1 SWAP2 SUB SWAP1 REVERT JUMPDEST PUSH2 0x2C2 DUP9 PUSH2 0x4DD JUMP JUMPDEST SWAP2 POP POP PUSH2 0x305 JUMP JUMPDEST PUSH1 0x40 MLOAD PUSH32 0x8C379A000000000000000000000000000000000000000000000000000000000 DUP2 MSTORE PUSH1 0x4 ADD PUSH2 0x2FC SWAP1 PUSH2 0xD1A JUMP JUMPDEST PUSH1 0x40 MLOAD DUP1 SWAP2 SUB SWAP1 REVERT JUMPDEST SWAP7 SWAP6 POP POP POP POP POP POP JUMP JUMPDEST PUSH0 PUSH2 0x31A DUP4 DUP4 PUSH2 0x8D6 JUMP JUMPDEST SWAP1 POP SWAP3 SWAP2 POP POP JUMP JUMPDEST PUSH0 PUSH1 0x1 SLOAD SWAP1 POP SWAP1 JUMP JUMPDEST PUSH0 PUSH1 0x4 PUSH0 DUP4 PUSH20 0xFFFFFFFFFFFFFFFFFFFFFFFFFFFFFFFFFFFFFFFF AND PUSH20 0xFFFFFFFFFFFFFFFFFFFFFFFFFFFFFFFFFFFFFFFF AND DUP2 MSTORE PUSH1 0x20 ADD SWAP1 DUP2 MSTORE PUSH1 0x20 ADD PUSH0 KECCAK256 SLOAD SWAP1 POP SWAP2 SWAP1 POP JUMP JUMPDEST PUSH0 PUSH1 0x3 PUSH0 DUP4 PUSH20 0xFFFFFFFFFFFFFFFFFFFFFFFFFFFFFFFFFFFFFFFF AND PUSH20 0xFFFFFFFFFFFFFFFFFFFFFFFFFFFFFFFFFFFFFFFF AND DUP2 MSTORE PUSH1 0x20 ADD SWAP1 DUP2 MSTORE PUSH1 0x20 ADD PUSH0 KECCAK256 SLOAD SWAP1 POP SWAP2 SWAP1 POP JUMP JUMPDEST PUSH0 PUSH1 0x2 SLOAD DUP4 XOR SWAP1 POP PUSH1 0x1 SLOAD DUP2 EQ PUSH2 0x403 JUMPI PUSH1 0x40 MLOAD PUSH32 0x8C379A000000000000000000000000000000000000000000000000000000000 DUP2 MSTORE PUSH1 0x4 ADD PUSH2 0x3FA SWAP1 PUSH2 0xDA8 JUMP JUMPDEST PUSH1 0x40 MLOAD DUP1 SWAP2 SUB SWAP1 REVERT JUMPDEST PUSH0 PUSH2 0x40E DUP6 DUP5 PUSH2 0x8D6 JUMP JUMPDEST SWAP1 POP PUSH0 DUP1 SHL PUSH1 0x4 PUSH0 DUP8 PUSH20 0xFFFFFFFFFFFFFFFFFFFFFFFFFFFFFFFFFFFFFFFF AND PUSH20 0xFFFFFFFFFFFFFFFFFFFFFFFFFFFFFFFFFFFFFFFF AND DUP2 MSTORE PUSH1 0x20 ADD SWAP1 DUP2 MSTORE PUSH1 0x20 ADD PUSH0 KECCAK256 SLOAD EQ PUSH2 0x4D6 JUMPI PUSH1 0x3 PUSH0 DUP7 PUSH20 0xFFFFFFFFFFFFFFFFFFFFFFFFFFFFFFFFFFFFFFFF AND PUSH20 0xFFFFFFFFFFFFFFFFFFFFFFFFFFFFFFFFFFFFFFFF AND DUP2 MSTORE PUSH1 0x20 ADD SWAP1 DUP2 MSTORE PUSH1 0x20 ADD PUSH0 KECCAK256 SLOAD DUP2 EQ PUSH2 0x4D5 JUMPI PUSH1 0x40 MLOAD PUSH32 0x8C379A000000000000000000000000000000000000000000000000000000000 DUP2 MSTORE PUSH1 0x4 ADD PUSH2 0x4CC SWAP1 PUSH2 0xE36 JUMP JUMPDEST PUSH1 0x40 MLOAD DUP1 SWAP2 SUB SWAP1 REVERT JUMPDEST JUMPDEST POP POP POP POP POP JUMP JUMPDEST PUSH2 0x4E5 PUSH2 0x977 JUMP JUMPDEST PUSH0 DUP1 SHL PUSH1 0x4 PUSH0 DUP5 PUSH20 0xFFFFFFFFFFFFFFFFFFFFFFFFFFFFFFFFFFFFFFFF AND PUSH20 0xFFFFFFFFFFFFFFFFFFFFFFFFFFFFFFFFFFFFFFFF AND DUP2 MSTORE PUSH1 0x20 ADD SWAP1 DUP2 MSTORE PUSH1 0x20 ADD PUSH0 KECCAK256 SLOAD SUB PUSH2 0x6C5 JUMPI PUSH1 0x1 NUMBER PUSH2 0x538 SWAP2 SWAP1 PUSH2 0xE81 JUMP JUMPDEST BLOCKHASH TIMESTAMP CALLER PUSH1 0x40 MLOAD PUSH1 0x20 ADD PUSH2 0x54D SWAP4 SWAP3 SWAP2 SWAP1 PUSH2 0xF8D JUMP JUMPDEST PUSH1 0x40 MLOAD PUSH1 0x20 DUP2 DUP4 SUB SUB DUP2 MSTORE SWAP1 PUSH1 0x40 MSTORE DUP1 MLOAD SWAP1 PUSH1 0x20 ADD KECCAK256 PUSH1 0x4 PUSH0 DUP5 PUSH20 0xFFFFFFFFFFFFFFFFFFFFFFFFFFFFFFFFFFFFFFFF AND PUSH20 0xFFFFFFFFFFFFFFFFFFFFFFFFFFFFFFFFFFFFFFFF AND DUP2 MSTORE PUSH1 0x20 ADD SWAP1 DUP2 MSTORE PUSH1 0x20 ADD PUSH0 KECCAK256 DUP2 SWAP1 SSTORE POP PUSH1 0x1 NUMBER PUSH2 0x5B1 SWAP2 SWAP1 PUSH2 0xE81 JUMP JUMPDEST BLOCKHASH TIMESTAMP CALLER PUSH1 0x40 MLOAD PUSH1 0x20 ADD PUSH2 0x5C6 SWAP4 SWAP3 SWAP2 SWAP1 PUSH2 0x101E JUMP JUMPDEST PUSH1 0x40 MLOAD PUSH1 0x20 DUP2 DUP4 SUB SUB DUP2 MSTORE SWAP1 PUSH1 0x40 MSTORE DUP1 MLOAD SWAP1 PUSH1 0x20 ADD KECCAK256 PUSH1 0x3 PUSH0 DUP5 PUSH20 0xFFFFFFFFFFFFFFFFFFFFFFFFFFFFFFFFFFFFFFFF AND PUSH20 0xFFFFFFFFFFFFFFFFFFFFFFFFFFFFFFFFFFFFFFFF AND DUP2 MSTORE PUSH1 0x20 ADD SWAP1 DUP2 MSTORE PUSH1 0x20 ADD PUSH0 KECCAK256 DUP2 SWAP1 SSTORE POP PUSH0 PUSH1 0x2 SLOAD PUSH1 0x4 PUSH0 DUP6 PUSH20 0xFFFFFFFFFFFFFFFFFFFFFFFFFFFFFFFFFFFFFFFF AND PUSH20 0xFFFFFFFFFFFFFFFFFFFFFFFFFFFFFFFFFFFFFFFF AND DUP2 MSTORE PUSH1 0x20 ADD SWAP1 DUP2 MSTORE PUSH1 0x20 ADD PUSH0 KECCAK256 SLOAD XOR SWAP1 POP PUSH0 PUSH1 0x2 SLOAD PUSH1 0x3 PUSH0 DUP7 PUSH20 0xFFFFFFFFFFFFFFFFFFFFFFFFFFFFFFFFFFFFFFFF AND PUSH20 0xFFFFFFFFFFFFFFFFFFFFFFFFFFFFFFFFFFFFFFFF AND DUP2 MSTORE PUSH1 0x20 ADD SWAP1 DUP2 MSTORE PUSH1 0x20 ADD PUSH0 KECCAK256 SLOAD XOR SWAP1 POP PUSH1 0x40 MLOAD DUP1 PUSH1 0x40 ADD PUSH1 0x40 MSTORE DUP1 DUP4 DUP2 MSTORE PUSH1 0x20 ADD DUP3 DUP2 MSTORE POP SWAP3 POP POP POP PUSH2 0x8D1 JUMP JUMPDEST PUSH1 0x1 NUMBER PUSH2 0x6D2 SWAP2 SWAP1 PUSH2 0xE81 JUMP JUMPDEST BLOCKHASH TIMESTAMP CALLER PUSH1 0x40 MLOAD PUSH1 0x20 ADD PUSH2 0x6E7 SWAP4 SWAP3 SWAP2 SWAP1 PUSH2 0xF8D JUMP JUMPDEST PUSH1 0x40 MLOAD PUSH1 0x20 DUP2 DUP4 SUB SUB DUP2 MSTORE SWAP1 PUSH1 0x40 MSTORE DUP1 MLOAD SWAP1 PUSH1 0x20 ADD KECCAK256 PUSH1 0x4 PUSH0 DUP5 PUSH20 0xFFFFFFFFFFFFFFFFFFFFFFFFFFFFFFFFFFFFFFFF AND PUSH20 0xFFFFFFFFFFFFFFFFFFFFFFFFFFFFFFFFFFFFFFFF AND DUP2 MSTORE PUSH1 0x20 ADD SWAP1 DUP2 MSTORE PUSH1 0x20 ADD PUSH0 KECCAK256 DUP2 SWAP1 SSTORE POP PUSH1 0x1 NUMBER PUSH2 0x74B SWAP2 SWAP1 PUSH2 0xE81 JUMP JUMPDEST BLOCKHASH TIMESTAMP CALLER PUSH1 0x40 MLOAD PUSH1 0x20 ADD PUSH2 0x760 SWAP4 SWAP3 SWAP2 SWAP1 PUSH2 0x101E JUMP JUMPDEST PUSH1 0x40 MLOAD PUSH1 0x20 DUP2 DUP4 SUB SUB DUP2 MSTORE SWAP1 PUSH1 0x40 MSTORE DUP1 MLOAD SWAP1 PUSH1 0x20 ADD KECCAK256 PUSH1 0x3 PUSH0 DUP5 PUSH20 0xFFFFFFFFFFFFFFFFFFFFFFFFFFFFFFFFFFFFFFFF AND PUSH20 0xFFFFFFFFFFFFFFFFFFFFFFFFFFFFFFFFFFFFFFFF AND DUP2 MSTORE PUSH1 0x20 ADD SWAP1 DUP2 MSTORE PUSH1 0x20 ADD PUSH0 KECCAK256 DUP2 SWAP1 SSTORE POP PUSH0 PUSH1 0x4 PUSH0 DUP5 PUSH20 0xFFFFFFFFFFFFFFFFFFFFFFFFFFFFFFFFFFFFFFFF AND PUSH20 0xFFFFFFFFFFFFFFFFFFFFFFFFFFFFFFFFFFFFFFFF AND DUP2 MSTORE PUSH1 0x20 ADD SWAP1 DUP2 MSTORE PUSH1 0x20 ADD PUSH0 KECCAK256 SLOAD PUSH1 0x4 PUSH0 DUP6 PUSH20 0xFFFFFFFFFFFFFFFFFFFFFFFFFFFFFFFFFFFFFFFF AND PUSH20 0xFFFFFFFFFFFFFFFFFFFFFFFFFFFFFFFFFFFFFFFF AND DUP2 MSTORE PUSH1 0x20 ADD SWAP1 DUP2 MSTORE PUSH1 0x20 ADD PUSH0 KECCAK256 SLOAD XOR SWAP1 POP PUSH0 PUSH1 0x4 PUSH0 DUP6 PUSH20 0xFFFFFFFFFFFFFFFFFFFFFFFFFFFFFFFFFFFFFFFF AND PUSH20 0xFFFFFFFFFFFFFFFFFFFFFFFFFFFFFFFFFFFFFFFF AND DUP2 MSTORE PUSH1 0x20 ADD SWAP1 DUP2 MSTORE PUSH1 0x20 ADD PUSH0 KECCAK256 SLOAD PUSH1 0x3 PUSH0 DUP7 PUSH20 0xFFFFFFFFFFFFFFFFFFFFFFFFFFFFFFFFFFFFFFFF AND PUSH20 0xFFFFFFFFFFFFFFFFFFFFFFFFFFFFFFFFFFFFFFFF AND DUP2 MSTORE PUSH1 0x20 ADD SWAP1 DUP2 MSTORE PUSH1 0x20 ADD PUSH0 KECCAK256 SLOAD XOR SWAP1 POP PUSH1 0x40 MLOAD DUP1 PUSH1 0x40 ADD PUSH1 0x40 MSTORE DUP1 DUP4 DUP2 MSTORE PUSH1 0x20 ADD DUP3 DUP2 MSTORE POP SWAP3 POP POP POP JUMPDEST SWAP2 SWAP1 POP JUMP JUMPDEST PUSH0 DUP1 PUSH0 DUP1 SHL PUSH1 0x4 PUSH0 DUP7 PUSH20 0xFFFFFFFFFFFFFFFFFFFFFFFFFFFFFFFFFFFFFFFF AND PUSH20 0xFFFFFFFFFFFFFFFFFFFFFFFFFFFFFFFFFFFFFFFF AND DUP2 MSTORE PUSH1 0x20 ADD SWAP1 DUP2 MSTORE PUSH1 0x20 ADD PUSH0 KECCAK256 SLOAD EQ PUSH2 0x965 JUMPI PUSH1 0x4 PUSH0 DUP6 PUSH20 0xFFFFFFFFFFFFFFFFFFFFFFFFFFFFFFFFFFFFFFFF AND PUSH20 0xFFFFFFFFFFFFFFFFFFFFFFFFFFFFFFFFFFFFFFFF AND DUP2 MSTORE PUSH1 0x20 ADD SWAP1 DUP2 MSTORE PUSH1 0x20 ADD PUSH0 KECCAK256 SLOAD DUP4 XOR SWAP1 POP PUSH2 0x96D JUMP JUMPDEST PUSH1 0x2 SLOAD DUP4 XOR SWAP1 POP JUMPDEST DUP1 SWAP2 POP POP SWAP3 SWAP2 POP POP JUMP JUMPDEST PUSH1 0x40 MLOAD DUP1 PUSH1 0x40 ADD PUSH1 0x40 MSTORE DUP1 PUSH0 DUP1 NOT AND DUP2 MSTORE PUSH1 0x20 ADD PUSH0 DUP1 NOT AND DUP2 MSTORE POP SWAP1 JUMP JUMPDEST PUSH0 DUP2 SWAP1 POP SWAP2 SWAP1 POP JUMP JUMPDEST PUSH2 0x9A7 DUP2 PUSH2 0x995 JUMP JUMPDEST DUP3 MSTORE POP POP JUMP JUMPDEST PUSH0 PUSH1 0x20 DUP3 ADD SWAP1 POP PUSH2 0x9C0 PUSH0 DUP4 ADD DUP5 PUSH2 0x99E JUMP JUMPDEST SWAP3 SWAP2 POP POP JUMP JUMPDEST PUSH0 DUP2 SWAP1 POP SWAP2 SWAP1 POP JUMP JUMPDEST PUSH2 0x9D8 DUP2 PUSH2 0x9C6 JUMP JUMPDEST DUP3 MSTORE POP POP JUMP JUMPDEST PUSH0 PUSH1 0x20 DUP3 ADD SWAP1 POP PUSH2 0x9F1 PUSH0 DUP4 ADD DUP5 PUSH2 0x9CF JUMP JUMPDEST SWAP3 SWAP2 POP POP JUMP JUMPDEST PUSH0 DUP1 REVERT JUMPDEST PUSH0 PUSH20 0xFFFFFFFFFFFFFFFFFFFFFFFFFFFFFFFFFFFFFFFF DUP3 AND SWAP1 POP SWAP2 SWAP1 POP JUMP JUMPDEST PUSH0 PUSH2 0xA24 DUP3 PUSH2 0x9FB JUMP JUMPDEST SWAP1 POP SWAP2 SWAP1 POP JUMP JUMPDEST PUSH2 0xA34 DUP2 PUSH2 0xA1A JUMP JUMPDEST DUP2 EQ PUSH2 0xA3E JUMPI PUSH0 DUP1 REVERT JUMPDEST POP JUMP JUMPDEST PUSH0 DUP2 CALLDATALOAD SWAP1 POP PUSH2 0xA4F DUP2 PUSH2 0xA2B JUMP JUMPDEST SWAP3 SWAP2 POP POP JUMP JUMPDEST PUSH2 0xA5E DUP2 PUSH2 0x9C6 JUMP JUMPDEST DUP2 EQ PUSH2 0xA68 JUMPI PUSH0 DUP1 REVERT JUMPDEST POP JUMP JUMPDEST PUSH0 DUP2 CALLDATALOAD SWAP1 POP PUSH2 0xA79 DUP2 PUSH2 0xA55 JUMP JUMPDEST SWAP3 SWAP2 POP POP JUMP JUMPDEST PUSH2 0xA88 DUP2 PUSH2 0x995 JUMP JUMPDEST DUP2 EQ PUSH2 0xA92 JUMPI PUSH0 DUP1 REVERT JUMPDEST POP JUMP JUMPDEST PUSH0 DUP2 CALLDATALOAD SWAP1 POP PUSH2 0xAA3 DUP2 PUSH2 0xA7F JUMP JUMPDEST SWAP3 SWAP2 POP POP JUMP JUMPDEST PUSH0 DUP1 PUSH0 DUP1 PUSH0 DUP1 PUSH1 0xC0 DUP8 DUP10 SUB SLT ISZERO PUSH2 0xAC3 JUMPI PUSH2 0xAC2 PUSH2 0x9F7 JUMP JUMPDEST JUMPDEST PUSH0 PUSH2 0xAD0 DUP10 DUP3 DUP11 ADD PUSH2 0xA41 JUMP JUMPDEST SWAP7 POP POP PUSH1 0x20 PUSH2 0xAE1 DUP10 DUP3 DUP11 ADD PUSH2 0xA6B JUMP JUMPDEST SWAP6 POP POP PUSH1 0x40 PUSH2 0xAF2 DUP10 DUP3 DUP11 ADD PUSH2 0xA6B JUMP JUMPDEST SWAP5 POP POP PUSH1 0x60 PUSH2 0xB03 DUP10 DUP3 DUP11 ADD PUSH2 0xA6B JUMP JUMPDEST SWAP4 POP POP PUSH1 0x80 PUSH2 0xB14 DUP10 DUP3 DUP11 ADD PUSH2 0xA95 JUMP JUMPDEST SWAP3 POP POP PUSH1 0xA0 PUSH2 0xB25 DUP10 DUP3 DUP11 ADD PUSH2 0xA95 JUMP JUMPDEST SWAP2 POP POP SWAP3 SWAP6 POP SWAP3 SWAP6 POP SWAP3 SWAP6 JUMP JUMPDEST PUSH2 0xB3B DUP2 PUSH2 0x995 JUMP JUMPDEST DUP3 MSTORE POP POP JUMP JUMPDEST PUSH1 0x40 DUP3 ADD PUSH0 DUP3 ADD MLOAD PUSH2 0xB55 PUSH0 DUP6 ADD DUP3 PUSH2 0xB32 JUMP JUMPDEST POP PUSH1 0x20 DUP3 ADD MLOAD PUSH2 0xB68 PUSH1 0x20 DUP6 ADD DUP3 PUSH2 0xB32 JUMP JUMPDEST POP POP POP POP JUMP JUMPDEST PUSH0 PUSH1 0x40 DUP3 ADD SWAP1 POP PUSH2 0xB81 PUSH0 DUP4 ADD DUP5 PUSH2 0xB41 JUMP JUMPDEST SWAP3 SWAP2 POP POP JUMP JUMPDEST PUSH0 DUP1 PUSH1 0x40 DUP4 DUP6 SUB SLT ISZERO PUSH2 0xB9D JUMPI PUSH2 0xB9C PUSH2 0x9F7 JUMP JUMPDEST JUMPDEST PUSH0 PUSH2 0xBAA DUP6 DUP3 DUP7 ADD PUSH2 0xA41 JUMP JUMPDEST SWAP3 POP POP PUSH1 0x20 PUSH2 0xBBB DUP6 DUP3 DUP7 ADD PUSH2 0xA95 JUMP JUMPDEST SWAP2 POP POP SWAP3 POP SWAP3 SWAP1 POP JUMP JUMPDEST PUSH0 PUSH1 0x20 DUP3 DUP5 SUB SLT ISZERO PUSH2 0xBDA JUMPI PUSH2 0xBD9 PUSH2 0x9F7 JUMP JUMPDEST JUMPDEST PUSH0 PUSH2 0xBE7 DUP5 DUP3 DUP6 ADD PUSH2 0xA41 JUMP JUMPDEST SWAP2 POP POP SWAP3 SWAP2 POP POP JUMP JUMPDEST PUSH0 DUP3 DUP3 MSTORE PUSH1 0x20 DUP3 ADD SWAP1 POP SWAP3 SWAP2 POP POP JUMP JUMPDEST PUSH32 0x496E73756666696369656E742062616C616E6365000000000000000000000000 PUSH0 DUP3 ADD MSTORE POP JUMP JUMPDEST PUSH0 PUSH2 0xC34 PUSH1 0x14 DUP4 PUSH2 0xBF0 JUMP JUMPDEST SWAP2 POP PUSH2 0xC3F DUP3 PUSH2 0xC00 JUMP JUMPDEST PUSH1 0x20 DUP3 ADD SWAP1 POP SWAP2 SWAP1 POP JUMP JUMPDEST PUSH0 PUSH1 0x20 DUP3 ADD SWAP1 POP DUP2 DUP2 SUB PUSH0 DUP4 ADD MSTORE PUSH2 0xC61 DUP2 PUSH2 0xC28 JUMP JUMPDEST SWAP1 POP SWAP2 SWAP1 POP JUMP JUMPDEST PUSH32 0x5472616E73666572206661696C65640000000000000000000000000000000000 PUSH0 DUP3 ADD MSTORE POP JUMP JUMPDEST PUSH0 PUSH2 0xC9C PUSH1 0xF DUP4 PUSH2 0xBF0 JUMP JUMPDEST SWAP2 POP PUSH2 0xCA7 DUP3 PUSH2 0xC68 JUMP JUMPDEST PUSH1 0x20 DUP3 ADD SWAP1 POP SWAP2 SWAP1 POP JUMP JUMPDEST PUSH0 PUSH1 0x20 DUP3 ADD SWAP1 POP DUP2 DUP2 SUB PUSH0 DUP4 ADD MSTORE PUSH2 0xCC9 DUP2 PUSH2 0xC90 JUMP JUMPDEST SWAP1 POP SWAP2 SWAP1 POP JUMP JUMPDEST PUSH32 0x55736572206E6F7420456C696769626C65210000000000000000000000000000 PUSH0 DUP3 ADD MSTORE POP JUMP JUMPDEST PUSH0 PUSH2 0xD04 PUSH1 0x12 DUP4 PUSH2 0xBF0 JUMP JUMPDEST SWAP2 POP PUSH2 0xD0F DUP3 PUSH2 0xCD0 JUMP JUMPDEST PUSH1 0x20 DUP3 ADD SWAP1 POP SWAP2 SWAP1 POP JUMP JUMPDEST PUSH0 PUSH1 0x20 DUP3 ADD SWAP1 POP DUP2 DUP2 SUB PUSH0 DUP4 ADD MSTORE PUSH2 0xD31 DUP2 PUSH2 0xCF8 JUMP JUMPDEST SWAP1 POP SWAP2 SWAP1 POP JUMP JUMPDEST PUSH32 0x55736572206E6F7420417574686F72697A65643A207365637265742068617368 PUSH0 DUP3 ADD MSTORE PUSH32 0x2069732077726F6E672100000000000000000000000000000000000000000000 PUSH1 0x20 DUP3 ADD MSTORE POP JUMP JUMPDEST PUSH0 PUSH2 0xD92 PUSH1 0x2A DUP4 PUSH2 0xBF0 JUMP JUMPDEST SWAP2 POP PUSH2 0xD9D DUP3 PUSH2 0xD38 JUMP JUMPDEST PUSH1 0x40 DUP3 ADD SWAP1 POP SWAP2 SWAP1 POP JUMP JUMPDEST PUSH0 PUSH1 0x20 DUP3 ADD SWAP1 POP DUP2 DUP2 SUB PUSH0 DUP4 ADD MSTORE PUSH2 0xDBF DUP2 PUSH2 0xD86 JUMP JUMPDEST SWAP1 POP SWAP2 SWAP1 POP JUMP JUMPDEST PUSH32 0x55736572206E6F7420417574686F72697A65643A206175746820746F6B656E20 PUSH0 DUP3 ADD MSTORE PUSH32 0x69732077726F6E67210000000000000000000000000000000000000000000000 PUSH1 0x20 DUP3 ADD MSTORE POP JUMP JUMPDEST PUSH0 PUSH2 0xE20 PUSH1 0x29 DUP4 PUSH2 0xBF0 JUMP JUMPDEST SWAP2 POP PUSH2 0xE2B DUP3 PUSH2 0xDC6 JUMP JUMPDEST PUSH1 0x40 DUP3 ADD SWAP1 POP SWAP2 SWAP1 POP JUMP JUMPDEST PUSH0 PUSH1 0x20 DUP3 ADD SWAP1 POP DUP2 DUP2 SUB PUSH0 DUP4 ADD MSTORE PUSH2 0xE4D DUP2 PUSH2 0xE14 JUMP JUMPDEST SWAP1 POP SWAP2 SWAP1 POP JUMP JUMPDEST PUSH32 0x4E487B7100000000000000000000000000000000000000000000000000000000 PUSH0 MSTORE PUSH1 0x11 PUSH1 0x4 MSTORE PUSH1 0x24 PUSH0 REVERT JUMPDEST PUSH0 PUSH2 0xE8B DUP3 PUSH2 0x9C6 JUMP JUMPDEST SWAP2 POP PUSH2 0xE96 DUP4 PUSH2 0x9C6 JUMP JUMPDEST SWAP3 POP DUP3 DUP3 SUB SWAP1 POP DUP2 DUP2 GT ISZERO PUSH2 0xEAE JUMPI PUSH2 0xEAD PUSH2 0xE54 JUMP JUMPDEST JUMPDEST SWAP3 SWAP2 POP POP JUMP JUMPDEST PUSH0 DUP2 SWAP1 POP SWAP2 SWAP1 POP JUMP JUMPDEST PUSH2 0xECE PUSH2 0xEC9 DUP3 PUSH2 0x995 JUMP JUMPDEST PUSH2 0xEB4 JUMP JUMPDEST DUP3 MSTORE POP POP JUMP JUMPDEST PUSH0 DUP2 SWAP1 POP SWAP2 SWAP1 POP JUMP JUMPDEST PUSH2 0xEEE PUSH2 0xEE9 DUP3 PUSH2 0x9C6 JUMP JUMPDEST PUSH2 0xED4 JUMP JUMPDEST DUP3 MSTORE POP POP JUMP JUMPDEST PUSH0 DUP2 PUSH1 0x60 SHL SWAP1 POP SWAP2 SWAP1 POP JUMP JUMPDEST PUSH0 PUSH2 0xF0A DUP3 PUSH2 0xEF4 JUMP JUMPDEST SWAP1 POP SWAP2 SWAP1 POP JUMP JUMPDEST PUSH0 PUSH2 0xF1B DUP3 PUSH2 0xF00 JUMP JUMPDEST SWAP1 POP SWAP2 SWAP1 POP JUMP JUMPDEST PUSH2 0xF33 PUSH2 0xF2E DUP3 PUSH2 0xA1A JUMP JUMPDEST PUSH2 0xF11 JUMP JUMPDEST DUP3 MSTORE POP POP JUMP JUMPDEST PUSH0 DUP2 SWAP1 POP SWAP3 SWAP2 POP POP JUMP JUMPDEST PUSH32 0x6B65790000000000000000000000000000000000000000000000000000000000 PUSH0 DUP3 ADD MSTORE POP JUMP JUMPDEST PUSH0 PUSH2 0xF77 PUSH1 0x3 DUP4 PUSH2 0xF39 JUMP JUMPDEST SWAP2 POP PUSH2 0xF82 DUP3 PUSH2 0xF43 JUMP JUMPDEST PUSH1 0x3 DUP3 ADD SWAP1 POP SWAP2 SWAP1 POP JUMP JUMPDEST PUSH0 PUSH2 0xF98 DUP3 DUP7 PUSH2 0xEBD JUMP JUMPDEST PUSH1 0x20 DUP3 ADD SWAP2 POP PUSH2 0xFA8 DUP3 DUP6 PUSH2 0xEDD JUMP JUMPDEST PUSH1 0x20 DUP3 ADD SWAP2 POP PUSH2 0xFB8 DUP3 DUP5 PUSH2 0xF22 JUMP JUMPDEST PUSH1 0x14 DUP3 ADD SWAP2 POP PUSH2 0xFC7 DUP3 PUSH2 0xF6B JUMP JUMPDEST SWAP2 POP DUP2 SWAP1 POP SWAP5 SWAP4 POP POP POP POP JUMP JUMPDEST PUSH32 0x746F6B656E000000000000000000000000000000000000000000000000000000 PUSH0 DUP3 ADD MSTORE POP JUMP JUMPDEST PUSH0 PUSH2 0x1008 PUSH1 0x5 DUP4 PUSH2 0xF39 JUMP JUMPDEST SWAP2 POP PUSH2 0x1013 DUP3 PUSH2 0xFD4 JUMP JUMPDEST PUSH1 0x5 DUP3 ADD SWAP1 POP SWAP2 SWAP1 POP JUMP JUMPDEST PUSH0 PUSH2 0x1029 DUP3 DUP7 PUSH2 0xEBD JUMP JUMPDEST PUSH1 0x20 DUP3 ADD SWAP2 POP PUSH2 0x1039 DUP3 DUP6 PUSH2 0xEDD JUMP JUMPDEST PUSH1 0x20 DUP3 ADD SWAP2 POP PUSH2 0x1049 DUP3 DUP5 PUSH2 0xF22 JUMP JUMPDEST PUSH1 0x14 DUP3 ADD SWAP2 POP PUSH2 0x1058 DUP3 PUSH2 0xFFC JUMP JUMPDEST SWAP2 POP DUP2 SWAP1 POP SWAP5 SWAP4 POP POP POP POP JUMP INVALID LOG2 PUSH5 0x6970667358 0x22 SLT KECCAK256 MSTORE 0x4F 0x4A GASLIMIT PUSH5 0xA433CE9CE2 SWAP1 0xFB DIV DUP4 0xD5 INVALID LOG0 NUMBER 0x24 XOR 0xE3 GT 0xD5 MSTORE SWAP16 0xDA TIMESTAMP 0x2D 0xA9 PUSH13 0x35C764736F6C63430008160033 ADDRESS PUSH25 0x35663030316566666130616133366534346331383562346431 BALANCE BALANCE PUSH6 0x663231376166 CALLER ORIGIN ADDRESS PUSH5 0x3036663735 PUSH5 0x3534633935 CALLDATALOAD CODESIZE CODESIZE PUSH2 0x3262 CALLDATASIZE BALANCE PUSH5 0x3237363966 CALLVALUE "
	},
	"abi": [
		{
			"inputs": [
				{
					"internalType": "bytes32",
					"name": "secret",
					"type": "bytes32"
				},
				{
					"internalType": "bytes32",
					"name": "initKey",
					"type": "bytes32"
				}
			],
			"stateMutability": "payable",
			"type": "constructor"
		},
		{
			"inputs": [],
			"name": "getBalance",
			"outputs": [
				{
					"internalType": "uint256",
					"name": "",
					"type": "uint256"
				}
			],
			"stateMutability": "view",
			"type": "function"
		},
		{
			"inputs": [
				{
					"internalType": "address",
					"name": "recipient",
					"type": "address"
				},
				{
					"internalType": "uint256",
					"name": "amount",
					"type": "uint256"
				},
				{
					"internalType": "uint256",
					"name": "campaignCount",
					"type": "uint256"
				},
				{
					"internalType": "uint256",
					"name": "shoppingCount",
					"type": "uint256"
				},
				{
					"internalType": "bytes32",
					"name": "secret",
					"type": "bytes32"
				},
				{
					"internalType": "bytes32",
					"name": "token",
					"type": "bytes32"
				}
			],
			"name": "pay",
			"outputs": [
				{
					"components": [
						{
							"internalType": "bytes32",
							"name": "key",
							"type": "bytes32"
						},
						{
							"internalType": "bytes32",
							"name": "token",
							"type": "bytes32"
						}
					],
					"internalType": "struct cryptoDorea.encryptionResult",
					"name": "",
					"type": "tuple"
				}
			],
			"stateMutability": "payable",
			"type": "function"
		},
		{
			"inputs": [
				{
					"internalType": "address",
					"name": "recipient",
					"type": "address"
				}
			],
			"name": "test1",
			"outputs": [
				{
					"internalType": "bytes32",
					"name": "",
					"type": "bytes32"
				}
			],
			"stateMutability": "view",
			"type": "function"
		},
		{
			"inputs": [
				{
					"internalType": "address",
					"name": "recipient",
					"type": "address"
				}
			],
			"name": "test2",
			"outputs": [
				{
					"internalType": "bytes32",
					"name": "",
					"type": "bytes32"
				}
			],
			"stateMutability": "view",
			"type": "function"
		},
		{
			"inputs": [],
			"name": "test3",
			"outputs": [
				{
					"internalType": "bytes32",
					"name": "",
					"type": "bytes32"
				}
			],
			"stateMutability": "view",
			"type": "function"
		},
		{
			"inputs": [],
			"name": "test4",
			"outputs": [
				{
					"internalType": "bytes32",
					"name": "",
					"type": "bytes32"
				}
			],
			"stateMutability": "view",
			"type": "function"
		},
		{
			"inputs": [
				{
					"internalType": "address",
					"name": "recipient",
					"type": "address"
				},
				{
					"internalType": "bytes32",
					"name": "key",
					"type": "bytes32"
				}
			],
			"name": "test5",
			"outputs": [
				{
					"internalType": "bytes32",
					"name": "",
					"type": "bytes32"
				}
			],
			"stateMutability": "view",
			"type": "function"
		}
	],
	"storageLayout": {
		"storage": [
			{
				"astId": 4,
				"contract": "loyalty.sol:cryptoDorea",
				"label": "sample",
				"offset": 0,
				"slot": "0",
				"type": "t_string_storage"
			},
			{
				"astId": 6,
				"contract": "loyalty.sol:cryptoDorea",
				"label": "_secretHash",
				"offset": 0,
				"slot": "1",
				"type": "t_bytes32"
			},
			{
				"astId": 8,
				"contract": "loyalty.sol:cryptoDorea",
				"label": "_initKey",
				"offset": 0,
				"slot": "2",
				"type": "t_bytes32"
			},
			{
				"astId": 12,
				"contract": "loyalty.sol:cryptoDorea",
				"label": "_usersAuthToken",
				"offset": 0,
				"slot": "3",
				"type": "t_mapping(t_address,t_bytes32)"
			},
			{
				"astId": 16,
				"contract": "loyalty.sol:cryptoDorea",
				"label": "_usersAuthKey",
				"offset": 0,
				"slot": "4",
				"type": "t_mapping(t_address,t_bytes32)"
			},
			{
				"astId": 20,
				"contract": "loyalty.sol:cryptoDorea",
				"label": "_purchaseIds",
				"offset": 0,
				"slot": "5",
				"type": "t_mapping(t_address,t_uint256)"
			}
		],
		"types": {
			"t_address": {
				"encoding": "inplace",
				"label": "address",
				"numberOfBytes": "20"
			},
			"t_bytes32": {
				"encoding": "inplace",
				"label": "bytes32",
				"numberOfBytes": "32"
			},
			"t_mapping(t_address,t_bytes32)": {
				"encoding": "mapping",
				"key": "t_address",
				"label": "mapping(address => bytes32)",
				"numberOfBytes": "32",
				"value": "t_bytes32"
			},
			"t_mapping(t_address,t_uint256)": {
				"encoding": "mapping",
				"key": "t_address",
				"label": "mapping(address => uint256)",
				"numberOfBytes": "32",
				"value": "t_uint256"
			},
			"t_string_storage": {
				"encoding": "bytes",
				"label": "string",
				"numberOfBytes": "32"
			},
			"t_uint256": {
				"encoding": "inplace",
				"label": "uint256",
				"numberOfBytes": "32"
			}
		}
	},
	"web3Deploy": "var secret = /* var of type bytes32 here */ ;\nvar initKey = /* var of type bytes32 here */ ;\nvar cryptodoreaContract = new web3.eth.Contract([{\"inputs\":[{\"internalType\":\"bytes32\",\"name\":\"secret\",\"type\":\"bytes32\"},{\"internalType\":\"bytes32\",\"name\":\"initKey\",\"type\":\"bytes32\"}],\"stateMutability\":\"payable\",\"type\":\"constructor\"},{\"inputs\":[],\"name\":\"getBalance\",\"outputs\":[{\"internalType\":\"uint256\",\"name\":\"\",\"type\":\"uint256\"}],\"stateMutability\":\"view\",\"type\":\"function\"},{\"inputs\":[{\"internalType\":\"address\",\"name\":\"recipient\",\"type\":\"address\"},{\"internalType\":\"uint256\",\"name\":\"amount\",\"type\":\"uint256\"},{\"internalType\":\"uint256\",\"name\":\"campaignCount\",\"type\":\"uint256\"},{\"internalType\":\"uint256\",\"name\":\"shoppingCount\",\"type\":\"uint256\"},{\"internalType\":\"bytes32\",\"name\":\"secret\",\"type\":\"bytes32\"},{\"internalType\":\"bytes32\",\"name\":\"token\",\"type\":\"bytes32\"}],\"name\":\"pay\",\"outputs\":[{\"components\":[{\"internalType\":\"bytes32\",\"name\":\"key\",\"type\":\"bytes32\"},{\"internalType\":\"bytes32\",\"name\":\"token\",\"type\":\"bytes32\"}],\"internalType\":\"struct cryptoDorea.encryptionResult\",\"name\":\"\",\"type\":\"tuple\"}],\"stateMutability\":\"payable\",\"type\":\"function\"},{\"inputs\":[{\"internalType\":\"address\",\"name\":\"recipient\",\"type\":\"address\"}],\"name\":\"test1\",\"outputs\":[{\"internalType\":\"bytes32\",\"name\":\"\",\"type\":\"bytes32\"}],\"stateMutability\":\"view\",\"type\":\"function\"},{\"inputs\":[{\"internalType\":\"address\",\"name\":\"recipient\",\"type\":\"address\"}],\"name\":\"test2\",\"outputs\":[{\"internalType\":\"bytes32\",\"name\":\"\",\"type\":\"bytes32\"}],\"stateMutability\":\"view\",\"type\":\"function\"},{\"inputs\":[],\"name\":\"test3\",\"outputs\":[{\"internalType\":\"bytes32\",\"name\":\"\",\"type\":\"bytes32\"}],\"stateMutability\":\"view\",\"type\":\"function\"},{\"inputs\":[],\"name\":\"test4\",\"outputs\":[{\"internalType\":\"bytes32\",\"name\":\"\",\"type\":\"bytes32\"}],\"stateMutability\":\"view\",\"type\":\"function\"},{\"inputs\":[{\"internalType\":\"address\",\"name\":\"recipient\",\"type\":\"address\"},{\"internalType\":\"bytes32\",\"name\":\"key\",\"type\":\"bytes32\"}],\"name\":\"test5\",\"outputs\":[{\"internalType\":\"bytes32\",\"name\":\"\",\"type\":\"bytes32\"}],\"stateMutability\":\"view\",\"type\":\"function\"}]);\nvar cryptodorea = cryptodoreaContract.deploy({\n     data: '0x6080604052604051806080016040528060428152602001620014db604291395f90816200002d9190620002cd565b506040516200151d3803806200151d8339818101604052810190620000539190620003ed565b8160018190555080600281905550505062000432565b5f81519050919050565b7f4e487b71000000000000000000000000000000000000000000000000000000005f52604160045260245ffd5b7f4e487b71000000000000000000000000000000000000000000000000000000005f52602260045260245ffd5b5f6002820490506001821680620000e557607f821691505b602082108103620000fb57620000fa620000a0565b5b50919050565b5f819050815f5260205f209050919050565b5f6020601f8301049050919050565b5f82821b905092915050565b5f600883026200015f7fffffffffffffffffffffffffffffffffffffffffffffffffffffffffffffffff8262000122565b6200016b868362000122565b95508019841693508086168417925050509392505050565b5f819050919050565b5f819050919050565b5f620001b5620001af620001a98462000183565b6200018c565b62000183565b9050919050565b5f819050919050565b620001d08362000195565b620001e8620001df82620001bc565b8484546200012e565b825550505050565b5f90565b620001fe620001f0565b6200020b818484620001c5565b505050565b5b818110156200023257620002265f82620001f4565b60018101905062000211565b5050565b601f82111562000281576200024b8162000101565b620002568462000113565b8101602085101562000266578190505b6200027e620002758562000113565b83018262000210565b50505b505050565b5f82821c905092915050565b5f620002a35f198460080262000286565b1980831691505092915050565b5f620002bd838362000292565b9150826002028217905092915050565b620002d88262000069565b67ffffffffffffffff811115620002f457620002f362000073565b5b620003008254620000cd565b6200030d82828562000236565b5f60209050601f83116001811462000343575f84156200032e578287015190505b6200033a8582620002b0565b865550620003a9565b601f198416620003538662000101565b5f5b828110156200037c5784890151825560018201915060208501945060208101905062000355565b868310156200039c578489015162000398601f89168262000292565b8355505b6001600288020188555050505b505050505050565b5f80fd5b5f819050919050565b620003c981620003b5565b8114620003d4575f80fd5b50565b5f81519050620003e781620003be565b92915050565b5f8060408385031215620004065762000405620003b1565b5b5f6200041585828601620003d7565b92505060206200042885828601620003d7565b9150509250929050565b61109b80620004405f395ff3fe60806040526004361061006f575f3560e01c8063565992ad1161004d578063565992ad146100f75780638f0d282d14610133578063a408b1f51461015d578063b11bead4146101995761006f565b80630a8e8e011461007357806312065fe01461009d5780634e8e863b146100c7575b5f80fd5b34801561007e575f80fd5b506100876101d5565b60405161009491906109ad565b60405180910390f35b3480156100a8575f80fd5b506100b16101de565b6040516100be91906109de565b60405180910390f35b6100e160048036038101906100dc9190610aa9565b6101e5565b6040516100ee9190610b6e565b60405180910390f35b348015610102575f80fd5b5061011d60048036038101906101189190610b87565b61030f565b60405161012a91906109ad565b60405180910390f35b34801561013e575f80fd5b50610147610322565b60405161015491906109ad565b60405180910390f35b348015610168575f80fd5b50610183600480360381019061017e9190610bc5565b61032b565b60405161019091906109ad565b60405180910390f35b3480156101a4575f80fd5b506101bf60048036038101906101ba9190610bc5565b610371565b6040516101cc91906109ad565b60405180910390f35b5f600254905090565b5f47905090565b6101ed610977565b6101f88784846103b7565b4786111561023b576040517f08c379a000000000000000000000000000000000000000000000000000000000815260040161023290610c4a565b60405180910390fd5b8484106102ca575f8773ffffffffffffffffffffffffffffffffffffffff166108fc8890811502906040515f60405180830381858888f193505050509050806102b9576040517f08c379a00000000000000000000000000000000000000000000000000000000081526004016102b090610cb2565b60405180910390fd5b6102c2886104dd565b915050610305565b6040517f08c379a00000000000000000000000000000000000000000000000000000000081526004016102fc90610d1a565b60405180910390fd5b9695505050505050565b5f61031a83836108d6565b905092915050565b5f600154905090565b5f60045f8373ffffffffffffffffffffffffffffffffffffffff1673ffffffffffffffffffffffffffffffffffffffff1681526020019081526020015f20549050919050565b5f60035f8373ffffffffffffffffffffffffffffffffffffffff1673ffffffffffffffffffffffffffffffffffffffff1681526020019081526020015f20549050919050565b5f600254831890506001548114610403576040517f08c379a00000000000000000000000000000000000000000000000000000000081526004016103fa90610da8565b60405180910390fd5b5f61040e85846108d6565b90505f801b60045f8773ffffffffffffffffffffffffffffffffffffffff1673ffffffffffffffffffffffffffffffffffffffff1681526020019081526020015f2054146104d65760035f8673ffffffffffffffffffffffffffffffffffffffff1673ffffffffffffffffffffffffffffffffffffffff1681526020019081526020015f205481146104d5576040517f08c379a00000000000000000000000000000000000000000000000000000000081526004016104cc90610e36565b60405180910390fd5b5b5050505050565b6104e5610977565b5f801b60045f8473ffffffffffffffffffffffffffffffffffffffff1673ffffffffffffffffffffffffffffffffffffffff1681526020019081526020015f2054036106c5576001436105389190610e81565b40423360405160200161054d93929190610f8d565b6040516020818303038152906040528051906020012060045f8473ffffffffffffffffffffffffffffffffffffffff1673ffffffffffffffffffffffffffffffffffffffff1681526020019081526020015f20819055506001436105b19190610e81565b4042336040516020016105c69392919061101e565b6040516020818303038152906040528051906020012060035f8473ffffffffffffffffffffffffffffffffffffffff1673ffffffffffffffffffffffffffffffffffffffff1681526020019081526020015f20819055505f60025460045f8573ffffffffffffffffffffffffffffffffffffffff1673ffffffffffffffffffffffffffffffffffffffff1681526020019081526020015f20541890505f60025460035f8673ffffffffffffffffffffffffffffffffffffffff1673ffffffffffffffffffffffffffffffffffffffff1681526020019081526020015f2054189050604051806040016040528083815260200182815250925050506108d1565b6001436106d29190610e81565b4042336040516020016106e793929190610f8d565b6040516020818303038152906040528051906020012060045f8473ffffffffffffffffffffffffffffffffffffffff1673ffffffffffffffffffffffffffffffffffffffff1681526020019081526020015f208190555060014361074b9190610e81565b4042336040516020016107609392919061101e565b6040516020818303038152906040528051906020012060035f8473ffffffffffffffffffffffffffffffffffffffff1673ffffffffffffffffffffffffffffffffffffffff1681526020019081526020015f20819055505f60045f8473ffffffffffffffffffffffffffffffffffffffff1673ffffffffffffffffffffffffffffffffffffffff1681526020019081526020015f205460045f8573ffffffffffffffffffffffffffffffffffffffff1673ffffffffffffffffffffffffffffffffffffffff1681526020019081526020015f20541890505f60045f8573ffffffffffffffffffffffffffffffffffffffff1673ffffffffffffffffffffffffffffffffffffffff1681526020019081526020015f205460035f8673ffffffffffffffffffffffffffffffffffffffff1673ffffffffffffffffffffffffffffffffffffffff1681526020019081526020015f2054189050604051806040016040528083815260200182815250925050505b919050565b5f805f801b60045f8673ffffffffffffffffffffffffffffffffffffffff1673ffffffffffffffffffffffffffffffffffffffff1681526020019081526020015f2054146109655760045f8573ffffffffffffffffffffffffffffffffffffffff1673ffffffffffffffffffffffffffffffffffffffff1681526020019081526020015f20548318905061096d565b600254831890505b8091505092915050565b60405180604001604052805f80191681526020015f80191681525090565b5f819050919050565b6109a781610995565b82525050565b5f6020820190506109c05f83018461099e565b92915050565b5f819050919050565b6109d8816109c6565b82525050565b5f6020820190506109f15f8301846109cf565b92915050565b5f80fd5b5f73ffffffffffffffffffffffffffffffffffffffff82169050919050565b5f610a24826109fb565b9050919050565b610a3481610a1a565b8114610a3e575f80fd5b50565b5f81359050610a4f81610a2b565b92915050565b610a5e816109c6565b8114610a68575f80fd5b50565b5f81359050610a7981610a55565b92915050565b610a8881610995565b8114610a92575f80fd5b50565b5f81359050610aa381610a7f565b92915050565b5f805f805f8060c08789031215610ac357610ac26109f7565b5b5f610ad089828a01610a41565b9650506020610ae189828a01610a6b565b9550506040610af289828a01610a6b565b9450506060610b0389828a01610a6b565b9350506080610b1489828a01610a95565b92505060a0610b2589828a01610a95565b9150509295509295509295565b610b3b81610995565b82525050565b604082015f820151610b555f850182610b32565b506020820151610b686020850182610b32565b50505050565b5f604082019050610b815f830184610b41565b92915050565b5f8060408385031215610b9d57610b9c6109f7565b5b5f610baa85828601610a41565b9250506020610bbb85828601610a95565b9150509250929050565b5f60208284031215610bda57610bd96109f7565b5b5f610be784828501610a41565b91505092915050565b5f82825260208201905092915050565b7f496e73756666696369656e742062616c616e63650000000000000000000000005f82015250565b5f610c34601483610bf0565b9150610c3f82610c00565b602082019050919050565b5f6020820190508181035f830152610c6181610c28565b9050919050565b7f5472616e73666572206661696c656400000000000000000000000000000000005f82015250565b5f610c9c600f83610bf0565b9150610ca782610c68565b602082019050919050565b5f6020820190508181035f830152610cc981610c90565b9050919050565b7f55736572206e6f7420456c696769626c652100000000000000000000000000005f82015250565b5f610d04601283610bf0565b9150610d0f82610cd0565b602082019050919050565b5f6020820190508181035f830152610d3181610cf8565b9050919050565b7f55736572206e6f7420417574686f72697a65643a2073656372657420686173685f8201527f2069732077726f6e672100000000000000000000000000000000000000000000602082015250565b5f610d92602a83610bf0565b9150610d9d82610d38565b604082019050919050565b5f6020820190508181035f830152610dbf81610d86565b9050919050565b7f55736572206e6f7420417574686f72697a65643a206175746820746f6b656e205f8201527f69732077726f6e67210000000000000000000000000000000000000000000000602082015250565b5f610e20602983610bf0565b9150610e2b82610dc6565b604082019050919050565b5f6020820190508181035f830152610e4d81610e14565b9050919050565b7f4e487b71000000000000000000000000000000000000000000000000000000005f52601160045260245ffd5b5f610e8b826109c6565b9150610e96836109c6565b9250828203905081811115610eae57610ead610e54565b5b92915050565b5f819050919050565b610ece610ec982610995565b610eb4565b82525050565b5f819050919050565b610eee610ee9826109c6565b610ed4565b82525050565b5f8160601b9050919050565b5f610f0a82610ef4565b9050919050565b5f610f1b82610f00565b9050919050565b610f33610f2e82610a1a565b610f11565b82525050565b5f81905092915050565b7f6b657900000000000000000000000000000000000000000000000000000000005f82015250565b5f610f77600383610f39565b9150610f8282610f43565b600382019050919050565b5f610f988286610ebd565b602082019150610fa88285610edd565b602082019150610fb88284610f22565b601482019150610fc782610f6b565b9150819050949350505050565b7f746f6b656e0000000000000000000000000000000000000000000000000000005f82015250565b5f611008600583610f39565b915061101382610fd4565b600582019050919050565b5f6110298286610ebd565b6020820191506110398285610edd565b6020820191506110498284610f22565b60148201915061105882610ffc565b915081905094935050505056fea2646970667358221220524f4a4564a433ce9ce290fb0483d5fea0432418e311d5529fda422da96c35c764736f6c63430008160033307835663030316566666130616133366534346331383562346431313165663231376166333230643036663735643534633935353838613262363164323736396634', \n     arguments: [\n          secret,\n          initKey,\n     ]\n}).send({\n     from: web3.eth.accounts[0], \n     gas: '4700000'\n   }, function (e, contract){\n    console.log(e, contract);\n    if (typeof contract.address !== 'undefined') {\n         console.log('Contract mined! address: ' + contract.address + ' transactionHash: ' + contract.transactionHash);\n    }\n })",
	"functionHashes": {
		"12065fe0": "getBalance()",
		"4e8e863b": "pay(address,uint256,uint256,uint256,bytes32,bytes32)",
		"a408b1f5": "test1(address)",
		"b11bead4": "test2(address)",
		"0a8e8e01": "test3()",
		"8f0d282d": "test4()",
		"565992ad": "test5(address,bytes32)"
	},
	"gasEstimates": {
		"Creation": {
			"codeDepositCost": "850200",
			"executionCost": "infinite",
			"totalCost": "infinite"
		},
		"External": {
			"getBalance()": "357",
			"pay(address,uint256,uint256,uint256,bytes32,bytes32)": "infinite",
			"test1(address)": "2873",
			"test2(address)": "2895",
			"test3()": "2433",
			"test4()": "2454",
			"test5(address,bytes32)": "infinite"
		},
		"Internal": {
			"decrypt(address,bytes32)": "4469",
			"encrypt(address)": "infinite",
			"userAuthorized(address,bytes32,bytes32)": "infinite"
		}
	},
	"devdoc": {
		"kind": "dev",
		"methods": {},
		"version": 1
	},
	"userdoc": {
		"kind": "user",
		"methods": {},
		"version": 1
	},
	"Runtime Bytecode": {
		"immutableReferences": {},
		"linkReferences": {},
		"object": "60806040526004361061006f575f3560e01c8063565992ad1161004d578063565992ad146100f75780638f0d282d14610133578063a408b1f51461015d578063b11bead4146101995761006f565b80630a8e8e011461007357806312065fe01461009d5780634e8e863b146100c7575b5f80fd5b34801561007e575f80fd5b506100876101d5565b60405161009491906109ad565b60405180910390f35b3480156100a8575f80fd5b506100b16101de565b6040516100be91906109de565b60405180910390f35b6100e160048036038101906100dc9190610aa9565b6101e5565b6040516100ee9190610b6e565b60405180910390f35b348015610102575f80fd5b5061011d60048036038101906101189190610b87565b61030f565b60405161012a91906109ad565b60405180910390f35b34801561013e575f80fd5b50610147610322565b60405161015491906109ad565b60405180910390f35b348015610168575f80fd5b50610183600480360381019061017e9190610bc5565b61032b565b60405161019091906109ad565b60405180910390f35b3480156101a4575f80fd5b506101bf60048036038101906101ba9190610bc5565b610371565b6040516101cc91906109ad565b60405180910390f35b5f600254905090565b5f47905090565b6101ed610977565b6101f88784846103b7565b4786111561023b576040517f08c379a000000000000000000000000000000000000000000000000000000000815260040161023290610c4a565b60405180910390fd5b8484106102ca575f8773ffffffffffffffffffffffffffffffffffffffff166108fc8890811502906040515f60405180830381858888f193505050509050806102b9576040517f08c379a00000000000000000000000000000000000000000000000000000000081526004016102b090610cb2565b60405180910390fd5b6102c2886104dd565b915050610305565b6040517f08c379a00000000000000000000000000000000000000000000000000000000081526004016102fc90610d1a565b60405180910390fd5b9695505050505050565b5f61031a83836108d6565b905092915050565b5f600154905090565b5f60045f8373ffffffffffffffffffffffffffffffffffffffff1673ffffffffffffffffffffffffffffffffffffffff1681526020019081526020015f20549050919050565b5f60035f8373ffffffffffffffffffffffffffffffffffffffff1673ffffffffffffffffffffffffffffffffffffffff1681526020019081526020015f20549050919050565b5f600254831890506001548114610403576040517f08c379a00000000000000000000000000000000000000000000000000000000081526004016103fa90610da8565b60405180910390fd5b5f61040e85846108d6565b90505f801b60045f8773ffffffffffffffffffffffffffffffffffffffff1673ffffffffffffffffffffffffffffffffffffffff1681526020019081526020015f2054146104d65760035f8673ffffffffffffffffffffffffffffffffffffffff1673ffffffffffffffffffffffffffffffffffffffff1681526020019081526020015f205481146104d5576040517f08c379a00000000000000000000000000000000000000000000000000000000081526004016104cc90610e36565b60405180910390fd5b5b5050505050565b6104e5610977565b5f801b60045f8473ffffffffffffffffffffffffffffffffffffffff1673ffffffffffffffffffffffffffffffffffffffff1681526020019081526020015f2054036106c5576001436105389190610e81565b40423360405160200161054d93929190610f8d565b6040516020818303038152906040528051906020012060045f8473ffffffffffffffffffffffffffffffffffffffff1673ffffffffffffffffffffffffffffffffffffffff1681526020019081526020015f20819055506001436105b19190610e81565b4042336040516020016105c69392919061101e565b6040516020818303038152906040528051906020012060035f8473ffffffffffffffffffffffffffffffffffffffff1673ffffffffffffffffffffffffffffffffffffffff1681526020019081526020015f20819055505f60025460045f8573ffffffffffffffffffffffffffffffffffffffff1673ffffffffffffffffffffffffffffffffffffffff1681526020019081526020015f20541890505f60025460035f8673ffffffffffffffffffffffffffffffffffffffff1673ffffffffffffffffffffffffffffffffffffffff1681526020019081526020015f2054189050604051806040016040528083815260200182815250925050506108d1565b6001436106d29190610e81565b4042336040516020016106e793929190610f8d565b6040516020818303038152906040528051906020012060045f8473ffffffffffffffffffffffffffffffffffffffff1673ffffffffffffffffffffffffffffffffffffffff1681526020019081526020015f208190555060014361074b9190610e81565b4042336040516020016107609392919061101e565b6040516020818303038152906040528051906020012060035f8473ffffffffffffffffffffffffffffffffffffffff1673ffffffffffffffffffffffffffffffffffffffff1681526020019081526020015f20819055505f60045f8473ffffffffffffffffffffffffffffffffffffffff1673ffffffffffffffffffffffffffffffffffffffff1681526020019081526020015f205460045f8573ffffffffffffffffffffffffffffffffffffffff1673ffffffffffffffffffffffffffffffffffffffff1681526020019081526020015f20541890505f60045f8573ffffffffffffffffffffffffffffffffffffffff1673ffffffffffffffffffffffffffffffffffffffff1681526020019081526020015f205460035f8673ffffffffffffffffffffffffffffffffffffffff1673ffffffffffffffffffffffffffffffffffffffff1681526020019081526020015f2054189050604051806040016040528083815260200182815250925050505b919050565b5f805f801b60045f8673ffffffffffffffffffffffffffffffffffffffff1673ffffffffffffffffffffffffffffffffffffffff1681526020019081526020015f2054146109655760045f8573ffffffffffffffffffffffffffffffffffffffff1673ffffffffffffffffffffffffffffffffffffffff1681526020019081526020015f20548318905061096d565b600254831890505b8091505092915050565b60405180604001604052805f80191681526020015f80191681525090565b5f819050919050565b6109a781610995565b82525050565b5f6020820190506109c05f83018461099e565b92915050565b5f819050919050565b6109d8816109c6565b82525050565b5f6020820190506109f15f8301846109cf565b92915050565b5f80fd5b5f73ffffffffffffffffffffffffffffffffffffffff82169050919050565b5f610a24826109fb565b9050919050565b610a3481610a1a565b8114610a3e575f80fd5b50565b5f81359050610a4f81610a2b565b92915050565b610a5e816109c6565b8114610a68575f80fd5b50565b5f81359050610a7981610a55565b92915050565b610a8881610995565b8114610a92575f80fd5b50565b5f81359050610aa381610a7f565b92915050565b5f805f805f8060c08789031215610ac357610ac26109f7565b5b5f610ad089828a01610a41565b9650506020610ae189828a01610a6b565b9550506040610af289828a01610a6b565b9450506060610b0389828a01610a6b565b9350506080610b1489828a01610a95565b92505060a0610b2589828a01610a95565b9150509295509295509295565b610b3b81610995565b82525050565b604082015f820151610b555f850182610b32565b506020820151610b686020850182610b32565b50505050565b5f604082019050610b815f830184610b41565b92915050565b5f8060408385031215610b9d57610b9c6109f7565b5b5f610baa85828601610a41565b9250506020610bbb85828601610a95565b9150509250929050565b5f60208284031215610bda57610bd96109f7565b5b5f610be784828501610a41565b91505092915050565b5f82825260208201905092915050565b7f496e73756666696369656e742062616c616e63650000000000000000000000005f82015250565b5f610c34601483610bf0565b9150610c3f82610c00565b602082019050919050565b5f6020820190508181035f830152610c6181610c28565b9050919050565b7f5472616e73666572206661696c656400000000000000000000000000000000005f82015250565b5f610c9c600f83610bf0565b9150610ca782610c68565b602082019050919050565b5f6020820190508181035f830152610cc981610c90565b9050919050565b7f55736572206e6f7420456c696769626c652100000000000000000000000000005f82015250565b5f610d04601283610bf0565b9150610d0f82610cd0565b602082019050919050565b5f6020820190508181035f830152610d3181610cf8565b9050919050565b7f55736572206e6f7420417574686f72697a65643a2073656372657420686173685f8201527f2069732077726f6e672100000000000000000000000000000000000000000000602082015250565b5f610d92602a83610bf0565b9150610d9d82610d38565b604082019050919050565b5f6020820190508181035f830152610dbf81610d86565b9050919050565b7f55736572206e6f7420417574686f72697a65643a206175746820746f6b656e205f8201527f69732077726f6e67210000000000000000000000000000000000000000000000602082015250565b5f610e20602983610bf0565b9150610e2b82610dc6565b604082019050919050565b5f6020820190508181035f830152610e4d81610e14565b9050919050565b7f4e487b71000000000000000000000000000000000000000000000000000000005f52601160045260245ffd5b5f610e8b826109c6565b9150610e96836109c6565b9250828203905081811115610eae57610ead610e54565b5b92915050565b5f819050919050565b610ece610ec982610995565b610eb4565b82525050565b5f819050919050565b610eee610ee9826109c6565b610ed4565b82525050565b5f8160601b9050919050565b5f610f0a82610ef4565b9050919050565b5f610f1b82610f00565b9050919050565b610f33610f2e82610a1a565b610f11565b82525050565b5f81905092915050565b7f6b657900000000000000000000000000000000000000000000000000000000005f82015250565b5f610f77600383610f39565b9150610f8282610f43565b600382019050919050565b5f610f988286610ebd565b602082019150610fa88285610edd565b602082019150610fb88284610f22565b601482019150610fc782610f6b565b9150819050949350505050565b7f746f6b656e0000000000000000000000000000000000000000000000000000005f82015250565b5f611008600583610f39565b915061101382610fd4565b600582019050919050565b5f6110298286610ebd565b6020820191506110398285610edd565b6020820191506110498284610f22565b60148201915061105882610ffc565b915081905094935050505056fea2646970667358221220524f4a4564a433ce9ce290fb0483d5fea0432418e311d5529fda422da96c35c764736f6c63430008160033",
		"opcodes": "PUSH1 0x80 PUSH1 0x40 MSTORE PUSH1 0x4 CALLDATASIZE LT PUSH2 0x6F JUMPI PUSH0 CALLDATALOAD PUSH1 0xE0 SHR DUP1 PUSH4 0x565992AD GT PUSH2 0x4D JUMPI DUP1 PUSH4 0x565992AD EQ PUSH2 0xF7 JUMPI DUP1 PUSH4 0x8F0D282D EQ PUSH2 0x133 JUMPI DUP1 PUSH4 0xA408B1F5 EQ PUSH2 0x15D JUMPI DUP1 PUSH4 0xB11BEAD4 EQ PUSH2 0x199 JUMPI PUSH2 0x6F JUMP JUMPDEST DUP1 PUSH4 0xA8E8E01 EQ PUSH2 0x73 JUMPI DUP1 PUSH4 0x12065FE0 EQ PUSH2 0x9D JUMPI DUP1 PUSH4 0x4E8E863B EQ PUSH2 0xC7 JUMPI JUMPDEST PUSH0 DUP1 REVERT JUMPDEST CALLVALUE DUP1 ISZERO PUSH2 0x7E JUMPI PUSH0 DUP1 REVERT JUMPDEST POP PUSH2 0x87 PUSH2 0x1D5 JUMP JUMPDEST PUSH1 0x40 MLOAD PUSH2 0x94 SWAP2 SWAP1 PUSH2 0x9AD JUMP JUMPDEST PUSH1 0x40 MLOAD DUP1 SWAP2 SUB SWAP1 RETURN JUMPDEST CALLVALUE DUP1 ISZERO PUSH2 0xA8 JUMPI PUSH0 DUP1 REVERT JUMPDEST POP PUSH2 0xB1 PUSH2 0x1DE JUMP JUMPDEST PUSH1 0x40 MLOAD PUSH2 0xBE SWAP2 SWAP1 PUSH2 0x9DE JUMP JUMPDEST PUSH1 0x40 MLOAD DUP1 SWAP2 SUB SWAP1 RETURN JUMPDEST PUSH2 0xE1 PUSH1 0x4 DUP1 CALLDATASIZE SUB DUP2 ADD SWAP1 PUSH2 0xDC SWAP2 SWAP1 PUSH2 0xAA9 JUMP JUMPDEST PUSH2 0x1E5 JUMP JUMPDEST PUSH1 0x40 MLOAD PUSH2 0xEE SWAP2 SWAP1 PUSH2 0xB6E JUMP JUMPDEST PUSH1 0x40 MLOAD DUP1 SWAP2 SUB SWAP1 RETURN JUMPDEST CALLVALUE DUP1 ISZERO PUSH2 0x102 JUMPI PUSH0 DUP1 REVERT JUMPDEST POP PUSH2 0x11D PUSH1 0x4 DUP1 CALLDATASIZE SUB DUP2 ADD SWAP1 PUSH2 0x118 SWAP2 SWAP1 PUSH2 0xB87 JUMP JUMPDEST PUSH2 0x30F JUMP JUMPDEST PUSH1 0x40 MLOAD PUSH2 0x12A SWAP2 SWAP1 PUSH2 0x9AD JUMP JUMPDEST PUSH1 0x40 MLOAD DUP1 SWAP2 SUB SWAP1 RETURN JUMPDEST CALLVALUE DUP1 ISZERO PUSH2 0x13E JUMPI PUSH0 DUP1 REVERT JUMPDEST POP PUSH2 0x147 PUSH2 0x322 JUMP JUMPDEST PUSH1 0x40 MLOAD PUSH2 0x154 SWAP2 SWAP1 PUSH2 0x9AD JUMP JUMPDEST PUSH1 0x40 MLOAD DUP1 SWAP2 SUB SWAP1 RETURN JUMPDEST CALLVALUE DUP1 ISZERO PUSH2 0x168 JUMPI PUSH0 DUP1 REVERT JUMPDEST POP PUSH2 0x183 PUSH1 0x4 DUP1 CALLDATASIZE SUB DUP2 ADD SWAP1 PUSH2 0x17E SWAP2 SWAP1 PUSH2 0xBC5 JUMP JUMPDEST PUSH2 0x32B JUMP JUMPDEST PUSH1 0x40 MLOAD PUSH2 0x190 SWAP2 SWAP1 PUSH2 0x9AD JUMP JUMPDEST PUSH1 0x40 MLOAD DUP1 SWAP2 SUB SWAP1 RETURN JUMPDEST CALLVALUE DUP1 ISZERO PUSH2 0x1A4 JUMPI PUSH0 DUP1 REVERT JUMPDEST POP PUSH2 0x1BF PUSH1 0x4 DUP1 CALLDATASIZE SUB DUP2 ADD SWAP1 PUSH2 0x1BA SWAP2 SWAP1 PUSH2 0xBC5 JUMP JUMPDEST PUSH2 0x371 JUMP JUMPDEST PUSH1 0x40 MLOAD PUSH2 0x1CC SWAP2 SWAP1 PUSH2 0x9AD JUMP JUMPDEST PUSH1 0x40 MLOAD DUP1 SWAP2 SUB SWAP1 RETURN JUMPDEST PUSH0 PUSH1 0x2 SLOAD SWAP1 POP SWAP1 JUMP JUMPDEST PUSH0 SELFBALANCE SWAP1 POP SWAP1 JUMP JUMPDEST PUSH2 0x1ED PUSH2 0x977 JUMP JUMPDEST PUSH2 0x1F8 DUP8 DUP5 DUP5 PUSH2 0x3B7 JUMP JUMPDEST SELFBALANCE DUP7 GT ISZERO PUSH2 0x23B JUMPI PUSH1 0x40 MLOAD PUSH32 0x8C379A000000000000000000000000000000000000000000000000000000000 DUP2 MSTORE PUSH1 0x4 ADD PUSH2 0x232 SWAP1 PUSH2 0xC4A JUMP JUMPDEST PUSH1 0x40 MLOAD DUP1 SWAP2 SUB SWAP1 REVERT JUMPDEST DUP5 DUP5 LT PUSH2 0x2CA JUMPI PUSH0 DUP8 PUSH20 0xFFFFFFFFFFFFFFFFFFFFFFFFFFFFFFFFFFFFFFFF AND PUSH2 0x8FC DUP9 SWAP1 DUP2 ISZERO MUL SWAP1 PUSH1 0x40 MLOAD PUSH0 PUSH1 0x40 MLOAD DUP1 DUP4 SUB DUP2 DUP6 DUP9 DUP9 CALL SWAP4 POP POP POP POP SWAP1 POP DUP1 PUSH2 0x2B9 JUMPI PUSH1 0x40 MLOAD PUSH32 0x8C379A000000000000000000000000000000000000000000000000000000000 DUP2 MSTORE PUSH1 0x4 ADD PUSH2 0x2B0 SWAP1 PUSH2 0xCB2 JUMP JUMPDEST PUSH1 0x40 MLOAD DUP1 SWAP2 SUB SWAP1 REVERT JUMPDEST PUSH2 0x2C2 DUP9 PUSH2 0x4DD JUMP JUMPDEST SWAP2 POP POP PUSH2 0x305 JUMP JUMPDEST PUSH1 0x40 MLOAD PUSH32 0x8C379A000000000000000000000000000000000000000000000000000000000 DUP2 MSTORE PUSH1 0x4 ADD PUSH2 0x2FC SWAP1 PUSH2 0xD1A JUMP JUMPDEST PUSH1 0x40 MLOAD DUP1 SWAP2 SUB SWAP1 REVERT JUMPDEST SWAP7 SWAP6 POP POP POP POP POP POP JUMP JUMPDEST PUSH0 PUSH2 0x31A DUP4 DUP4 PUSH2 0x8D6 JUMP JUMPDEST SWAP1 POP SWAP3 SWAP2 POP POP JUMP JUMPDEST PUSH0 PUSH1 0x1 SLOAD SWAP1 POP SWAP1 JUMP JUMPDEST PUSH0 PUSH1 0x4 PUSH0 DUP4 PUSH20 0xFFFFFFFFFFFFFFFFFFFFFFFFFFFFFFFFFFFFFFFF AND PUSH20 0xFFFFFFFFFFFFFFFFFFFFFFFFFFFFFFFFFFFFFFFF AND DUP2 MSTORE PUSH1 0x20 ADD SWAP1 DUP2 MSTORE PUSH1 0x20 ADD PUSH0 KECCAK256 SLOAD SWAP1 POP SWAP2 SWAP1 POP JUMP JUMPDEST PUSH0 PUSH1 0x3 PUSH0 DUP4 PUSH20 0xFFFFFFFFFFFFFFFFFFFFFFFFFFFFFFFFFFFFFFFF AND PUSH20 0xFFFFFFFFFFFFFFFFFFFFFFFFFFFFFFFFFFFFFFFF AND DUP2 MSTORE PUSH1 0x20 ADD SWAP1 DUP2 MSTORE PUSH1 0x20 ADD PUSH0 KECCAK256 SLOAD SWAP1 POP SWAP2 SWAP1 POP JUMP JUMPDEST PUSH0 PUSH1 0x2 SLOAD DUP4 XOR SWAP1 POP PUSH1 0x1 SLOAD DUP2 EQ PUSH2 0x403 JUMPI PUSH1 0x40 MLOAD PUSH32 0x8C379A000000000000000000000000000000000000000000000000000000000 DUP2 MSTORE PUSH1 0x4 ADD PUSH2 0x3FA SWAP1 PUSH2 0xDA8 JUMP JUMPDEST PUSH1 0x40 MLOAD DUP1 SWAP2 SUB SWAP1 REVERT JUMPDEST PUSH0 PUSH2 0x40E DUP6 DUP5 PUSH2 0x8D6 JUMP JUMPDEST SWAP1 POP PUSH0 DUP1 SHL PUSH1 0x4 PUSH0 DUP8 PUSH20 0xFFFFFFFFFFFFFFFFFFFFFFFFFFFFFFFFFFFFFFFF AND PUSH20 0xFFFFFFFFFFFFFFFFFFFFFFFFFFFFFFFFFFFFFFFF AND DUP2 MSTORE PUSH1 0x20 ADD SWAP1 DUP2 MSTORE PUSH1 0x20 ADD PUSH0 KECCAK256 SLOAD EQ PUSH2 0x4D6 JUMPI PUSH1 0x3 PUSH0 DUP7 PUSH20 0xFFFFFFFFFFFFFFFFFFFFFFFFFFFFFFFFFFFFFFFF AND PUSH20 0xFFFFFFFFFFFFFFFFFFFFFFFFFFFFFFFFFFFFFFFF AND DUP2 MSTORE PUSH1 0x20 ADD SWAP1 DUP2 MSTORE PUSH1 0x20 ADD PUSH0 KECCAK256 SLOAD DUP2 EQ PUSH2 0x4D5 JUMPI PUSH1 0x40 MLOAD PUSH32 0x8C379A000000000000000000000000000000000000000000000000000000000 DUP2 MSTORE PUSH1 0x4 ADD PUSH2 0x4CC SWAP1 PUSH2 0xE36 JUMP JUMPDEST PUSH1 0x40 MLOAD DUP1 SWAP2 SUB SWAP1 REVERT JUMPDEST JUMPDEST POP POP POP POP POP JUMP JUMPDEST PUSH2 0x4E5 PUSH2 0x977 JUMP JUMPDEST PUSH0 DUP1 SHL PUSH1 0x4 PUSH0 DUP5 PUSH20 0xFFFFFFFFFFFFFFFFFFFFFFFFFFFFFFFFFFFFFFFF AND PUSH20 0xFFFFFFFFFFFFFFFFFFFFFFFFFFFFFFFFFFFFFFFF AND DUP2 MSTORE PUSH1 0x20 ADD SWAP1 DUP2 MSTORE PUSH1 0x20 ADD PUSH0 KECCAK256 SLOAD SUB PUSH2 0x6C5 JUMPI PUSH1 0x1 NUMBER PUSH2 0x538 SWAP2 SWAP1 PUSH2 0xE81 JUMP JUMPDEST BLOCKHASH TIMESTAMP CALLER PUSH1 0x40 MLOAD PUSH1 0x20 ADD PUSH2 0x54D SWAP4 SWAP3 SWAP2 SWAP1 PUSH2 0xF8D JUMP JUMPDEST PUSH1 0x40 MLOAD PUSH1 0x20 DUP2 DUP4 SUB SUB DUP2 MSTORE SWAP1 PUSH1 0x40 MSTORE DUP1 MLOAD SWAP1 PUSH1 0x20 ADD KECCAK256 PUSH1 0x4 PUSH0 DUP5 PUSH20 0xFFFFFFFFFFFFFFFFFFFFFFFFFFFFFFFFFFFFFFFF AND PUSH20 0xFFFFFFFFFFFFFFFFFFFFFFFFFFFFFFFFFFFFFFFF AND DUP2 MSTORE PUSH1 0x20 ADD SWAP1 DUP2 MSTORE PUSH1 0x20 ADD PUSH0 KECCAK256 DUP2 SWAP1 SSTORE POP PUSH1 0x1 NUMBER PUSH2 0x5B1 SWAP2 SWAP1 PUSH2 0xE81 JUMP JUMPDEST BLOCKHASH TIMESTAMP CALLER PUSH1 0x40 MLOAD PUSH1 0x20 ADD PUSH2 0x5C6 SWAP4 SWAP3 SWAP2 SWAP1 PUSH2 0x101E JUMP JUMPDEST PUSH1 0x40 MLOAD PUSH1 0x20 DUP2 DUP4 SUB SUB DUP2 MSTORE SWAP1 PUSH1 0x40 MSTORE DUP1 MLOAD SWAP1 PUSH1 0x20 ADD KECCAK256 PUSH1 0x3 PUSH0 DUP5 PUSH20 0xFFFFFFFFFFFFFFFFFFFFFFFFFFFFFFFFFFFFFFFF AND PUSH20 0xFFFFFFFFFFFFFFFFFFFFFFFFFFFFFFFFFFFFFFFF AND DUP2 MSTORE PUSH1 0x20 ADD SWAP1 DUP2 MSTORE PUSH1 0x20 ADD PUSH0 KECCAK256 DUP2 SWAP1 SSTORE POP PUSH0 PUSH1 0x2 SLOAD PUSH1 0x4 PUSH0 DUP6 PUSH20 0xFFFFFFFFFFFFFFFFFFFFFFFFFFFFFFFFFFFFFFFF AND PUSH20 0xFFFFFFFFFFFFFFFFFFFFFFFFFFFFFFFFFFFFFFFF AND DUP2 MSTORE PUSH1 0x20 ADD SWAP1 DUP2 MSTORE PUSH1 0x20 ADD PUSH0 KECCAK256 SLOAD XOR SWAP1 POP PUSH0 PUSH1 0x2 SLOAD PUSH1 0x3 PUSH0 DUP7 PUSH20 0xFFFFFFFFFFFFFFFFFFFFFFFFFFFFFFFFFFFFFFFF AND PUSH20 0xFFFFFFFFFFFFFFFFFFFFFFFFFFFFFFFFFFFFFFFF AND DUP2 MSTORE PUSH1 0x20 ADD SWAP1 DUP2 MSTORE PUSH1 0x20 ADD PUSH0 KECCAK256 SLOAD XOR SWAP1 POP PUSH1 0x40 MLOAD DUP1 PUSH1 0x40 ADD PUSH1 0x40 MSTORE DUP1 DUP4 DUP2 MSTORE PUSH1 0x20 ADD DUP3 DUP2 MSTORE POP SWAP3 POP POP POP PUSH2 0x8D1 JUMP JUMPDEST PUSH1 0x1 NUMBER PUSH2 0x6D2 SWAP2 SWAP1 PUSH2 0xE81 JUMP JUMPDEST BLOCKHASH TIMESTAMP CALLER PUSH1 0x40 MLOAD PUSH1 0x20 ADD PUSH2 0x6E7 SWAP4 SWAP3 SWAP2 SWAP1 PUSH2 0xF8D JUMP JUMPDEST PUSH1 0x40 MLOAD PUSH1 0x20 DUP2 DUP4 SUB SUB DUP2 MSTORE SWAP1 PUSH1 0x40 MSTORE DUP1 MLOAD SWAP1 PUSH1 0x20 ADD KECCAK256 PUSH1 0x4 PUSH0 DUP5 PUSH20 0xFFFFFFFFFFFFFFFFFFFFFFFFFFFFFFFFFFFFFFFF AND PUSH20 0xFFFFFFFFFFFFFFFFFFFFFFFFFFFFFFFFFFFFFFFF AND DUP2 MSTORE PUSH1 0x20 ADD SWAP1 DUP2 MSTORE PUSH1 0x20 ADD PUSH0 KECCAK256 DUP2 SWAP1 SSTORE POP PUSH1 0x1 NUMBER PUSH2 0x74B SWAP2 SWAP1 PUSH2 0xE81 JUMP JUMPDEST BLOCKHASH TIMESTAMP CALLER PUSH1 0x40 MLOAD PUSH1 0x20 ADD PUSH2 0x760 SWAP4 SWAP3 SWAP2 SWAP1 PUSH2 0x101E JUMP JUMPDEST PUSH1 0x40 MLOAD PUSH1 0x20 DUP2 DUP4 SUB SUB DUP2 MSTORE SWAP1 PUSH1 0x40 MSTORE DUP1 MLOAD SWAP1 PUSH1 0x20 ADD KECCAK256 PUSH1 0x3 PUSH0 DUP5 PUSH20 0xFFFFFFFFFFFFFFFFFFFFFFFFFFFFFFFFFFFFFFFF AND PUSH20 0xFFFFFFFFFFFFFFFFFFFFFFFFFFFFFFFFFFFFFFFF AND DUP2 MSTORE PUSH1 0x20 ADD SWAP1 DUP2 MSTORE PUSH1 0x20 ADD PUSH0 KECCAK256 DUP2 SWAP1 SSTORE POP PUSH0 PUSH1 0x4 PUSH0 DUP5 PUSH20 0xFFFFFFFFFFFFFFFFFFFFFFFFFFFFFFFFFFFFFFFF AND PUSH20 0xFFFFFFFFFFFFFFFFFFFFFFFFFFFFFFFFFFFFFFFF AND DUP2 MSTORE PUSH1 0x20 ADD SWAP1 DUP2 MSTORE PUSH1 0x20 ADD PUSH0 KECCAK256 SLOAD PUSH1 0x4 PUSH0 DUP6 PUSH20 0xFFFFFFFFFFFFFFFFFFFFFFFFFFFFFFFFFFFFFFFF AND PUSH20 0xFFFFFFFFFFFFFFFFFFFFFFFFFFFFFFFFFFFFFFFF AND DUP2 MSTORE PUSH1 0x20 ADD SWAP1 DUP2 MSTORE PUSH1 0x20 ADD PUSH0 KECCAK256 SLOAD XOR SWAP1 POP PUSH0 PUSH1 0x4 PUSH0 DUP6 PUSH20 0xFFFFFFFFFFFFFFFFFFFFFFFFFFFFFFFFFFFFFFFF AND PUSH20 0xFFFFFFFFFFFFFFFFFFFFFFFFFFFFFFFFFFFFFFFF AND DUP2 MSTORE PUSH1 0x20 ADD SWAP1 DUP2 MSTORE PUSH1 0x20 ADD PUSH0 KECCAK256 SLOAD PUSH1 0x3 PUSH0 DUP7 PUSH20 0xFFFFFFFFFFFFFFFFFFFFFFFFFFFFFFFFFFFFFFFF AND PUSH20 0xFFFFFFFFFFFFFFFFFFFFFFFFFFFFFFFFFFFFFFFF AND DUP2 MSTORE PUSH1 0x20 ADD SWAP1 DUP2 MSTORE PUSH1 0x20 ADD PUSH0 KECCAK256 SLOAD XOR SWAP1 POP PUSH1 0x40 MLOAD DUP1 PUSH1 0x40 ADD PUSH1 0x40 MSTORE DUP1 DUP4 DUP2 MSTORE PUSH1 0x20 ADD DUP3 DUP2 MSTORE POP SWAP3 POP POP POP JUMPDEST SWAP2 SWAP1 POP JUMP JUMPDEST PUSH0 DUP1 PUSH0 DUP1 SHL PUSH1 0x4 PUSH0 DUP7 PUSH20 0xFFFFFFFFFFFFFFFFFFFFFFFFFFFFFFFFFFFFFFFF AND PUSH20 0xFFFFFFFFFFFFFFFFFFFFFFFFFFFFFFFFFFFFFFFF AND DUP2 MSTORE PUSH1 0x20 ADD SWAP1 DUP2 MSTORE PUSH1 0x20 ADD PUSH0 KECCAK256 SLOAD EQ PUSH2 0x965 JUMPI PUSH1 0x4 PUSH0 DUP6 PUSH20 0xFFFFFFFFFFFFFFFFFFFFFFFFFFFFFFFFFFFFFFFF AND PUSH20 0xFFFFFFFFFFFFFFFFFFFFFFFFFFFFFFFFFFFFFFFF AND DUP2 MSTORE PUSH1 0x20 ADD SWAP1 DUP2 MSTORE PUSH1 0x20 ADD PUSH0 KECCAK256 SLOAD DUP4 XOR SWAP1 POP PUSH2 0x96D JUMP JUMPDEST PUSH1 0x2 SLOAD DUP4 XOR SWAP1 POP JUMPDEST DUP1 SWAP2 POP POP SWAP3 SWAP2 POP POP JUMP JUMPDEST PUSH1 0x40 MLOAD DUP1 PUSH1 0x40 ADD PUSH1 0x40 MSTORE DUP1 PUSH0 DUP1 NOT AND DUP2 MSTORE PUSH1 0x20 ADD PUSH0 DUP1 NOT AND DUP2 MSTORE POP SWAP1 JUMP JUMPDEST PUSH0 DUP2 SWAP1 POP SWAP2 SWAP1 POP JUMP JUMPDEST PUSH2 0x9A7 DUP2 PUSH2 0x995 JUMP JUMPDEST DUP3 MSTORE POP POP JUMP JUMPDEST PUSH0 PUSH1 0x20 DUP3 ADD SWAP1 POP PUSH2 0x9C0 PUSH0 DUP4 ADD DUP5 PUSH2 0x99E JUMP JUMPDEST SWAP3 SWAP2 POP POP JUMP JUMPDEST PUSH0 DUP2 SWAP1 POP SWAP2 SWAP1 POP JUMP JUMPDEST PUSH2 0x9D8 DUP2 PUSH2 0x9C6 JUMP JUMPDEST DUP3 MSTORE POP POP JUMP JUMPDEST PUSH0 PUSH1 0x20 DUP3 ADD SWAP1 POP PUSH2 0x9F1 PUSH0 DUP4 ADD DUP5 PUSH2 0x9CF JUMP JUMPDEST SWAP3 SWAP2 POP POP JUMP JUMPDEST PUSH0 DUP1 REVERT JUMPDEST PUSH0 PUSH20 0xFFFFFFFFFFFFFFFFFFFFFFFFFFFFFFFFFFFFFFFF DUP3 AND SWAP1 POP SWAP2 SWAP1 POP JUMP JUMPDEST PUSH0 PUSH2 0xA24 DUP3 PUSH2 0x9FB JUMP JUMPDEST SWAP1 POP SWAP2 SWAP1 POP JUMP JUMPDEST PUSH2 0xA34 DUP2 PUSH2 0xA1A JUMP JUMPDEST DUP2 EQ PUSH2 0xA3E JUMPI PUSH0 DUP1 REVERT JUMPDEST POP JUMP JUMPDEST PUSH0 DUP2 CALLDATALOAD SWAP1 POP PUSH2 0xA4F DUP2 PUSH2 0xA2B JUMP JUMPDEST SWAP3 SWAP2 POP POP JUMP JUMPDEST PUSH2 0xA5E DUP2 PUSH2 0x9C6 JUMP JUMPDEST DUP2 EQ PUSH2 0xA68 JUMPI PUSH0 DUP1 REVERT JUMPDEST POP JUMP JUMPDEST PUSH0 DUP2 CALLDATALOAD SWAP1 POP PUSH2 0xA79 DUP2 PUSH2 0xA55 JUMP JUMPDEST SWAP3 SWAP2 POP POP JUMP JUMPDEST PUSH2 0xA88 DUP2 PUSH2 0x995 JUMP JUMPDEST DUP2 EQ PUSH2 0xA92 JUMPI PUSH0 DUP1 REVERT JUMPDEST POP JUMP JUMPDEST PUSH0 DUP2 CALLDATALOAD SWAP1 POP PUSH2 0xAA3 DUP2 PUSH2 0xA7F JUMP JUMPDEST SWAP3 SWAP2 POP POP JUMP JUMPDEST PUSH0 DUP1 PUSH0 DUP1 PUSH0 DUP1 PUSH1 0xC0 DUP8 DUP10 SUB SLT ISZERO PUSH2 0xAC3 JUMPI PUSH2 0xAC2 PUSH2 0x9F7 JUMP JUMPDEST JUMPDEST PUSH0 PUSH2 0xAD0 DUP10 DUP3 DUP11 ADD PUSH2 0xA41 JUMP JUMPDEST SWAP7 POP POP PUSH1 0x20 PUSH2 0xAE1 DUP10 DUP3 DUP11 ADD PUSH2 0xA6B JUMP JUMPDEST SWAP6 POP POP PUSH1 0x40 PUSH2 0xAF2 DUP10 DUP3 DUP11 ADD PUSH2 0xA6B JUMP JUMPDEST SWAP5 POP POP PUSH1 0x60 PUSH2 0xB03 DUP10 DUP3 DUP11 ADD PUSH2 0xA6B JUMP JUMPDEST SWAP4 POP POP PUSH1 0x80 PUSH2 0xB14 DUP10 DUP3 DUP11 ADD PUSH2 0xA95 JUMP JUMPDEST SWAP3 POP POP PUSH1 0xA0 PUSH2 0xB25 DUP10 DUP3 DUP11 ADD PUSH2 0xA95 JUMP JUMPDEST SWAP2 POP POP SWAP3 SWAP6 POP SWAP3 SWAP6 POP SWAP3 SWAP6 JUMP JUMPDEST PUSH2 0xB3B DUP2 PUSH2 0x995 JUMP JUMPDEST DUP3 MSTORE POP POP JUMP JUMPDEST PUSH1 0x40 DUP3 ADD PUSH0 DUP3 ADD MLOAD PUSH2 0xB55 PUSH0 DUP6 ADD DUP3 PUSH2 0xB32 JUMP JUMPDEST POP PUSH1 0x20 DUP3 ADD MLOAD PUSH2 0xB68 PUSH1 0x20 DUP6 ADD DUP3 PUSH2 0xB32 JUMP JUMPDEST POP POP POP POP JUMP JUMPDEST PUSH0 PUSH1 0x40 DUP3 ADD SWAP1 POP PUSH2 0xB81 PUSH0 DUP4 ADD DUP5 PUSH2 0xB41 JUMP JUMPDEST SWAP3 SWAP2 POP POP JUMP JUMPDEST PUSH0 DUP1 PUSH1 0x40 DUP4 DUP6 SUB SLT ISZERO PUSH2 0xB9D JUMPI PUSH2 0xB9C PUSH2 0x9F7 JUMP JUMPDEST JUMPDEST PUSH0 PUSH2 0xBAA DUP6 DUP3 DUP7 ADD PUSH2 0xA41 JUMP JUMPDEST SWAP3 POP POP PUSH1 0x20 PUSH2 0xBBB DUP6 DUP3 DUP7 ADD PUSH2 0xA95 JUMP JUMPDEST SWAP2 POP POP SWAP3 POP SWAP3 SWAP1 POP JUMP JUMPDEST PUSH0 PUSH1 0x20 DUP3 DUP5 SUB SLT ISZERO PUSH2 0xBDA JUMPI PUSH2 0xBD9 PUSH2 0x9F7 JUMP JUMPDEST JUMPDEST PUSH0 PUSH2 0xBE7 DUP5 DUP3 DUP6 ADD PUSH2 0xA41 JUMP JUMPDEST SWAP2 POP POP SWAP3 SWAP2 POP POP JUMP JUMPDEST PUSH0 DUP3 DUP3 MSTORE PUSH1 0x20 DUP3 ADD SWAP1 POP SWAP3 SWAP2 POP POP JUMP JUMPDEST PUSH32 0x496E73756666696369656E742062616C616E6365000000000000000000000000 PUSH0 DUP3 ADD MSTORE POP JUMP JUMPDEST PUSH0 PUSH2 0xC34 PUSH1 0x14 DUP4 PUSH2 0xBF0 JUMP JUMPDEST SWAP2 POP PUSH2 0xC3F DUP3 PUSH2 0xC00 JUMP JUMPDEST PUSH1 0x20 DUP3 ADD SWAP1 POP SWAP2 SWAP1 POP JUMP JUMPDEST PUSH0 PUSH1 0x20 DUP3 ADD SWAP1 POP DUP2 DUP2 SUB PUSH0 DUP4 ADD MSTORE PUSH2 0xC61 DUP2 PUSH2 0xC28 JUMP JUMPDEST SWAP1 POP SWAP2 SWAP1 POP JUMP JUMPDEST PUSH32 0x5472616E73666572206661696C65640000000000000000000000000000000000 PUSH0 DUP3 ADD MSTORE POP JUMP JUMPDEST PUSH0 PUSH2 0xC9C PUSH1 0xF DUP4 PUSH2 0xBF0 JUMP JUMPDEST SWAP2 POP PUSH2 0xCA7 DUP3 PUSH2 0xC68 JUMP JUMPDEST PUSH1 0x20 DUP3 ADD SWAP1 POP SWAP2 SWAP1 POP JUMP JUMPDEST PUSH0 PUSH1 0x20 DUP3 ADD SWAP1 POP DUP2 DUP2 SUB PUSH0 DUP4 ADD MSTORE PUSH2 0xCC9 DUP2 PUSH2 0xC90 JUMP JUMPDEST SWAP1 POP SWAP2 SWAP1 POP JUMP JUMPDEST PUSH32 0x55736572206E6F7420456C696769626C65210000000000000000000000000000 PUSH0 DUP3 ADD MSTORE POP JUMP JUMPDEST PUSH0 PUSH2 0xD04 PUSH1 0x12 DUP4 PUSH2 0xBF0 JUMP JUMPDEST SWAP2 POP PUSH2 0xD0F DUP3 PUSH2 0xCD0 JUMP JUMPDEST PUSH1 0x20 DUP3 ADD SWAP1 POP SWAP2 SWAP1 POP JUMP JUMPDEST PUSH0 PUSH1 0x20 DUP3 ADD SWAP1 POP DUP2 DUP2 SUB PUSH0 DUP4 ADD MSTORE PUSH2 0xD31 DUP2 PUSH2 0xCF8 JUMP JUMPDEST SWAP1 POP SWAP2 SWAP1 POP JUMP JUMPDEST PUSH32 0x55736572206E6F7420417574686F72697A65643A207365637265742068617368 PUSH0 DUP3 ADD MSTORE PUSH32 0x2069732077726F6E672100000000000000000000000000000000000000000000 PUSH1 0x20 DUP3 ADD MSTORE POP JUMP JUMPDEST PUSH0 PUSH2 0xD92 PUSH1 0x2A DUP4 PUSH2 0xBF0 JUMP JUMPDEST SWAP2 POP PUSH2 0xD9D DUP3 PUSH2 0xD38 JUMP JUMPDEST PUSH1 0x40 DUP3 ADD SWAP1 POP SWAP2 SWAP1 POP JUMP JUMPDEST PUSH0 PUSH1 0x20 DUP3 ADD SWAP1 POP DUP2 DUP2 SUB PUSH0 DUP4 ADD MSTORE PUSH2 0xDBF DUP2 PUSH2 0xD86 JUMP JUMPDEST SWAP1 POP SWAP2 SWAP1 POP JUMP JUMPDEST PUSH32 0x55736572206E6F7420417574686F72697A65643A206175746820746F6B656E20 PUSH0 DUP3 ADD MSTORE PUSH32 0x69732077726F6E67210000000000000000000000000000000000000000000000 PUSH1 0x20 DUP3 ADD MSTORE POP JUMP JUMPDEST PUSH0 PUSH2 0xE20 PUSH1 0x29 DUP4 PUSH2 0xBF0 JUMP JUMPDEST SWAP2 POP PUSH2 0xE2B DUP3 PUSH2 0xDC6 JUMP JUMPDEST PUSH1 0x40 DUP3 ADD SWAP1 POP SWAP2 SWAP1 POP JUMP JUMPDEST PUSH0 PUSH1 0x20 DUP3 ADD SWAP1 POP DUP2 DUP2 SUB PUSH0 DUP4 ADD MSTORE PUSH2 0xE4D DUP2 PUSH2 0xE14 JUMP JUMPDEST SWAP1 POP SWAP2 SWAP1 POP JUMP JUMPDEST PUSH32 0x4E487B7100000000000000000000000000000000000000000000000000000000 PUSH0 MSTORE PUSH1 0x11 PUSH1 0x4 MSTORE PUSH1 0x24 PUSH0 REVERT JUMPDEST PUSH0 PUSH2 0xE8B DUP3 PUSH2 0x9C6 JUMP JUMPDEST SWAP2 POP PUSH2 0xE96 DUP4 PUSH2 0x9C6 JUMP JUMPDEST SWAP3 POP DUP3 DUP3 SUB SWAP1 POP DUP2 DUP2 GT ISZERO PUSH2 0xEAE JUMPI PUSH2 0xEAD PUSH2 0xE54 JUMP JUMPDEST JUMPDEST SWAP3 SWAP2 POP POP JUMP JUMPDEST PUSH0 DUP2 SWAP1 POP SWAP2 SWAP1 POP JUMP JUMPDEST PUSH2 0xECE PUSH2 0xEC9 DUP3 PUSH2 0x995 JUMP JUMPDEST PUSH2 0xEB4 JUMP JUMPDEST DUP3 MSTORE POP POP JUMP JUMPDEST PUSH0 DUP2 SWAP1 POP SWAP2 SWAP1 POP JUMP JUMPDEST PUSH2 0xEEE PUSH2 0xEE9 DUP3 PUSH2 0x9C6 JUMP JUMPDEST PUSH2 0xED4 JUMP JUMPDEST DUP3 MSTORE POP POP JUMP JUMPDEST PUSH0 DUP2 PUSH1 0x60 SHL SWAP1 POP SWAP2 SWAP1 POP JUMP JUMPDEST PUSH0 PUSH2 0xF0A DUP3 PUSH2 0xEF4 JUMP JUMPDEST SWAP1 POP SWAP2 SWAP1 POP JUMP JUMPDEST PUSH0 PUSH2 0xF1B DUP3 PUSH2 0xF00 JUMP JUMPDEST SWAP1 POP SWAP2 SWAP1 POP JUMP JUMPDEST PUSH2 0xF33 PUSH2 0xF2E DUP3 PUSH2 0xA1A JUMP JUMPDEST PUSH2 0xF11 JUMP JUMPDEST DUP3 MSTORE POP POP JUMP JUMPDEST PUSH0 DUP2 SWAP1 POP SWAP3 SWAP2 POP POP JUMP JUMPDEST PUSH32 0x6B65790000000000000000000000000000000000000000000000000000000000 PUSH0 DUP3 ADD MSTORE POP JUMP JUMPDEST PUSH0 PUSH2 0xF77 PUSH1 0x3 DUP4 PUSH2 0xF39 JUMP JUMPDEST SWAP2 POP PUSH2 0xF82 DUP3 PUSH2 0xF43 JUMP JUMPDEST PUSH1 0x3 DUP3 ADD SWAP1 POP SWAP2 SWAP1 POP JUMP JUMPDEST PUSH0 PUSH2 0xF98 DUP3 DUP7 PUSH2 0xEBD JUMP JUMPDEST PUSH1 0x20 DUP3 ADD SWAP2 POP PUSH2 0xFA8 DUP3 DUP6 PUSH2 0xEDD JUMP JUMPDEST PUSH1 0x20 DUP3 ADD SWAP2 POP PUSH2 0xFB8 DUP3 DUP5 PUSH2 0xF22 JUMP JUMPDEST PUSH1 0x14 DUP3 ADD SWAP2 POP PUSH2 0xFC7 DUP3 PUSH2 0xF6B JUMP JUMPDEST SWAP2 POP DUP2 SWAP1 POP SWAP5 SWAP4 POP POP POP POP JUMP JUMPDEST PUSH32 0x746F6B656E000000000000000000000000000000000000000000000000000000 PUSH0 DUP3 ADD MSTORE POP JUMP JUMPDEST PUSH0 PUSH2 0x1008 PUSH1 0x5 DUP4 PUSH2 0xF39 JUMP JUMPDEST SWAP2 POP PUSH2 0x1013 DUP3 PUSH2 0xFD4 JUMP JUMPDEST PUSH1 0x5 DUP3 ADD SWAP1 POP SWAP2 SWAP1 POP JUMP JUMPDEST PUSH0 PUSH2 0x1029 DUP3 DUP7 PUSH2 0xEBD JUMP JUMPDEST PUSH1 0x20 DUP3 ADD SWAP2 POP PUSH2 0x1039 DUP3 DUP6 PUSH2 0xEDD JUMP JUMPDEST PUSH1 0x20 DUP3 ADD SWAP2 POP PUSH2 0x1049 DUP3 DUP5 PUSH2 0xF22 JUMP JUMPDEST PUSH1 0x14 DUP3 ADD SWAP2 POP PUSH2 0x1058 DUP3 PUSH2 0xFFC JUMP JUMPDEST SWAP2 POP DUP2 SWAP1 POP SWAP5 SWAP4 POP POP POP POP JUMP INVALID LOG2 PUSH5 0x6970667358 0x22 SLT KECCAK256 MSTORE 0x4F 0x4A GASLIMIT PUSH5 0xA433CE9CE2 SWAP1 0xFB DIV DUP4 0xD5 INVALID LOG0 NUMBER 0x24 XOR 0xE3 GT 0xD5 MSTORE SWAP16 0xDA TIMESTAMP 0x2D 0xA9 PUSH13 0x35C764736F6C63430008160033 "
	},
	"Assembly": ".code\n  PUSH 80\t\t\tcontract cryptoDorea {\\r\\n\\r\\n...\n  PUSH 40\t\t\tcontract cryptoDorea {\\r\\n\\r\\n...\n  MSTORE \t\t\tcontract cryptoDorea {\\r\\n\\r\\n...\n  PUSH 40\t\t\tstring private sample = \"0x5f0...\n  MLOAD \t\t\tstring private sample = \"0x5f0...\n  DUP1 \t\t\tstring private sample = \"0x5f0...\n  PUSH 80\t\t\tstring private sample = \"0x5f0...\n  ADD \t\t\tstring private sample = \"0x5f0...\n  PUSH 40\t\t\tstring private sample = \"0x5f0...\n  MSTORE \t\t\tstring private sample = \"0x5f0...\n  DUP1 \t\t\tstring private sample = \"0x5f0...\n  PUSH 42\t\t\tstring private sample = \"0x5f0...\n  DUP2 \t\t\tstring private sample = \"0x5f0...\n  MSTORE \t\t\tstring private sample = \"0x5f0...\n  PUSH 20\t\t\tstring private sample = \"0x5f0...\n  ADD \t\t\tstring private sample = \"0x5f0...\n  PUSH data FAFEF2A5274AA1A80DB928E0EF713D634DACD5333E96D9E3311ACB98FF2A8244\t\t\tstring private sample = \"0x5f0...\n  PUSH 42\t\t\tstring private sample = \"0x5f0...\n  SWAP2 \t\t\tstring private sample = \"0x5f0...\n  CODECOPY \t\t\tstring private sample = \"0x5f0...\n  PUSH 0\t\t\tstring private sample = \"0x5f0...\n  SWAP1 \t\t\tstring private sample = \"0x5f0...\n  DUP2 \t\t\tstring private sample = \"0x5f0...\n  PUSH [tag] 1\t\t\tstring private sample = \"0x5f0...\n  SWAP2 \t\t\tstring private sample = \"0x5f0...\n  SWAP1 \t\t\tstring private sample = \"0x5f0...\n  PUSH [tag] 2\t\t\tstring private sample = \"0x5f0...\n  JUMP \t\t\tstring private sample = \"0x5f0...\ntag 1\t\t\tstring private sample = \"0x5f0...\n  JUMPDEST \t\t\tstring private sample = \"0x5f0...\n  POP \t\t\tstring private sample = \"0x5f0...\n  PUSH 40\t\t\tconstructor(bytes32 secret, by...\n  MLOAD \t\t\tconstructor(bytes32 secret, by...\n  PUSHSIZE \t\t\tconstructor(bytes32 secret, by...\n  CODESIZE \t\t\tconstructor(bytes32 secret, by...\n  SUB \t\t\tconstructor(bytes32 secret, by...\n  DUP1 \t\t\tconstructor(bytes32 secret, by...\n  PUSHSIZE \t\t\tconstructor(bytes32 secret, by...\n  DUP4 \t\t\tconstructor(bytes32 secret, by...\n  CODECOPY \t\t\tconstructor(bytes32 secret, by...\n  DUP2 \t\t\tconstructor(bytes32 secret, by...\n  DUP2 \t\t\tconstructor(bytes32 secret, by...\n  ADD \t\t\tconstructor(bytes32 secret, by...\n  PUSH 40\t\t\tconstructor(bytes32 secret, by...\n  MSTORE \t\t\tconstructor(bytes32 secret, by...\n  DUP2 \t\t\tconstructor(bytes32 secret, by...\n  ADD \t\t\tconstructor(bytes32 secret, by...\n  SWAP1 \t\t\tconstructor(bytes32 secret, by...\n  PUSH [tag] 3\t\t\tconstructor(bytes32 secret, by...\n  SWAP2 \t\t\tconstructor(bytes32 secret, by...\n  SWAP1 \t\t\tconstructor(bytes32 secret, by...\n  PUSH [tag] 4\t\t\tconstructor(bytes32 secret, by...\n  JUMP \t\t\tconstructor(bytes32 secret, by...\ntag 3\t\t\tconstructor(bytes32 secret, by...\n  JUMPDEST \t\t\tconstructor(bytes32 secret, by...\n  DUP2 \t\t\tsecret\n  PUSH 1\t\t\t_secretHash\n  DUP2 \t\t\t_secretHash = secret\n  SWAP1 \t\t\t_secretHash = secret\n  SSTORE \t\t\t_secretHash = secret\n  POP \t\t\t_secretHash = secret\n  DUP1 \t\t\tinitKey\n  PUSH 2\t\t\t_initKey\n  DUP2 \t\t\t_initKey = initKey\n  SWAP1 \t\t\t_initKey = initKey\n  SSTORE \t\t\t_initKey = initKey\n  POP \t\t\t_initKey = initKey\n  POP \t\t\tconstructor(bytes32 secret, by...\n  POP \t\t\tconstructor(bytes32 secret, by...\n  PUSH [tag] 7\t\t\tcontract cryptoDorea {\\r\\n\\r\\n...\n  JUMP \t\t\tcontract cryptoDorea {\\r\\n\\r\\n...\ntag 8\t\t\t-License-Identifier: GPL-3.0\\r...\n  JUMPDEST \t\t\t-License-Identifier: GPL-3.0\\r...\n  PUSH 0\t\t\t20 <0.\n  DUP2 \t\t\t {\\r\\n\\r\n  MLOAD \t\t\toDorea {\\r\\n\\r\\n\n  SWAP1 \t\t\tract cryptoDorea {\\r\\n\\r\\n\n  POP \t\t\tract cryptoDorea {\\r\\n\\r\\n\n  SWAP2 \t\t\t-License-Identifier: GPL-3.0\\r...\n  SWAP1 \t\t\t-License-Identifier: GPL-3.0\\r...\n  POP \t\t\t-License-Identifier: GPL-3.0\\r...\n  JUMP \t\t\t-License-Identifier: GPL-3.0\\r...\ntag 9\t\t\tivate sample = \"0x5f001effa0aa...\n  JUMPDEST \t\t\tivate sample = \"0x5f001effa0aa...\n  PUSH 4E487B7100000000000000000000000000000000000000000000000000000000\t\t\t17af320d06f75d54c95588a2b61d27...\n  PUSH 0\t\t\te\n  MSTORE \t\t\t5b4d111ef217af320d06f75d54c955...\n  PUSH 41\t\t\tKey;\n  PUSH 4\t\t\tn\n  MSTORE \t\t\tvate _initKey;\\r\n  PUSH 24\t\t\tess=\n  PUSH 0\t\t\td\n  REVERT \t\t\tpping(address=>\ntag 10\t\t\tvate _usersAuthToken;\\r\\n    m...\n  JUMPDEST \t\t\tvate _usersAuthToken;\\r\\n    m...\n  PUSH 4E487B7100000000000000000000000000000000000000000000000000000000\t\t\ts32) private _usersAuthKey;\\r\\...\n  PUSH 0\t\t\ty\n  MSTORE \t\t\tress=>bytes32) private _usersA...\n  PUSH 22\t\t\tncry\n  PUSH 4\t\t\tt\n  MSTORE \t\t\t  struct encryp\n  PUSH 24\t\t\t  by\n  PUSH 0\t\t\t \n  REVERT \t\t\tt{\\r\\n        byt\ntag 11\t\t\t       bytes32 token;\\r\\n    }...\n  JUMPDEST \t\t\t       bytes32 token;\\r\\n    }...\n  PUSH 0\t\t\te cons\n  PUSH 2\t\t\tt\n  DUP3 \t\t\tploy\n  DIV \t\t\tn deploy sta\n  SWAP1 \t\t\tget fund on deploy sta\n  POP \t\t\tget fund on deploy sta\n  PUSH 1\t\t\tn\n  DUP3 \t\t\tes32\n  AND \t\t\t bytes32 ini\n  DUP1 \t\t\t        _secretHas\n  PUSH [tag] 39\t\t\table {\\r\\n\\r\\n        _secretH...\n  JUMPI \t\t\table {\\r\\n\\r\\n        _secretH...\n  PUSH 7F\t\t\ty;\\r\\n\n  DUP3 \t\t\t= init\n  AND \t\t\tKey = initKey;\\r\\n\\r\n  SWAP2 \t\t\t     _initKey = initKey;\\r\\n\\r\n  POP \t\t\t     _initKey = initKey;\\r\\n\\r\ntag 39\t\t\table {\\r\\n\\r\\n        _secretH...\n  JUMPDEST \t\t\table {\\r\\n\\r\\n        _secretH...\n  PUSH 20\t\t\tun\n  DUP3 \t\t\ts\\r\\n   \n  LT \t\t\tmers\\r\\n    func\n  DUP2 \t\t\tEther to Loyal Cus\n  SUB \t\t\ter Ether to Loyal Customers\\r\\...\n  PUSH [tag] 40\t\t\tnsfer Ether to Loyal Customers...\n  JUMPI \t\t\tnsfer Ether to Loyal Customers...\n  PUSH [tag] 41\t\t\t recipient, uint25\n  PUSH [tag] 10\t\t\t recipient, uint25\n  JUMP \t\t\t recipient, uint25\ntag 41\t\t\t recipient, uint25\n  JUMPDEST \t\t\t recipient, uint25\ntag 40\t\t\tnsfer Ether to Loyal Customers...\n  JUMPDEST \t\t\tnsfer Ether to Loyal Customers...\n  POP \t\t\tructor to get fund on deploy s...\n  SWAP2 \t\t\t       bytes32 token;\\r\\n    }...\n  SWAP1 \t\t\t       bytes32 token;\\r\\n    }...\n  POP \t\t\t       bytes32 token;\\r\\n    }...\n  JUMP \t\t\t       bytes32 token;\\r\\n    }...\ntag 12\t\t\tpaignCount, uint256 shoppingCo...\n  JUMPDEST \t\t\tpaignCount, uint256 shoppingCo...\n  PUSH 0\t\t\t, by\n  DUP2 \t\t\t pa\n  SWAP1 \t\t\t) public pa\n  POP \t\t\t) public pa\n  DUP2 \t\t\ttio\n  PUSH 0\t\t\tr\n  MSTORE \t\t\trns(encryption\n  PUSH 20\t\t\t use\n  PUSH 0\t\t\t \n  KECCAK256 \t\t\t    \\r\\n        user\n  SWAP1 \t\t\tmory){\\r\\n    \\r\\n        user\n  POP \t\t\tmory){\\r\\n    \\r\\n        user\n  SWAP2 \t\t\tpaignCount, uint256 shoppingCo...\n  SWAP1 \t\t\tpaignCount, uint256 shoppingCo...\n  POP \t\t\tpaignCount, uint256 shoppingCo...\n  JUMP \t\t\tpaignCount, uint256 shoppingCo...\ntag 13\t\t\tcipient, secret, token);\\r\\n  ...\n  JUMPDEST \t\t\tcipient, secret, token);\\r\\n  ...\n  PUSH 0\t\t\t      \n  PUSH 20\t\t\t \"\n  PUSH 1F\t\t\tan\n  DUP4 \t\t\tis).b\n  ADD \t\t\ts(this).balanc\n  DIV \t\t\tdress(this).balance, \"I\n  SWAP1 \t\t\tount <= address(this).balance,...\n  POP \t\t\tount <= address(this).balance,...\n  SWAP2 \t\t\tcipient, secret, token);\\r\\n  ...\n  SWAP1 \t\t\tcipient, secret, token);\\r\\n  ...\n  POP \t\t\tcipient, secret, token);\\r\\n  ...\n  JUMP \t\t\tcipient, secret, token);\\r\\n  ...\ntag 14\t\t\tbalance\");\\r\\n\\r\\n        if(s...\n  JUMPDEST \t\t\tbalance\");\\r\\n\\r\\n        if(s...\n  PUSH 0\t\t\tmpaignCo\n  DUP3 \t\t\t to t\n  DUP3 \t\t\t Eth\n  SHL \t\t\tsfer Ether to th\n  SWAP1 \t\t\t\\r\\n            // Transfer Et...\n  POP \t\t\t\\r\\n            // Transfer Et...\n  SWAP3 \t\t\tbalance\");\\r\\n\\r\\n        if(s...\n  SWAP2 \t\t\tbalance\");\\r\\n\\r\\n        if(s...\n  POP \t\t\tbalance\");\\r\\n\\r\\n        if(s...\n  POP \t\t\tbalance\");\\r\\n\\r\\n        if(s...\n  JUMP \t\t\tbalance\");\\r\\n\\r\\n        if(s...\ntag 15\t\t\tdress\\r\\n            bool succ...\n  JUMPDEST \t\t\tdress\\r\\n            bool succ...\n  PUSH 0\t\t\t      \n  PUSH 8\t\t\t\\n\n  DUP4 \t\t\tfailed\");\\r\n  MUL \t\t\tfer failed\");\\r\\n\\r\\n \n  PUSH [tag] 46\t\t\typt(recipient);\\r\\n\\r\\n       ...\n  PUSH FFFFFFFFFFFFFFFFFFFFFFFFFFFFFFFFFFFFFFFFFFFFFFFFFFFFFFFFFFFFFFFF\t\t\tse{\\r\\n\\r\\n            revert(...\n  DUP3 \t\t\t        }\n  PUSH [tag] 14\t\t\typt(recipient);\\r\\n\\r\\n       ...\n  JUMP \t\t\typt(recipient);\\r\\n\\r\\n       ...\ntag 46\t\t\typt(recipient);\\r\\n\\r\\n       ...\n  JUMPDEST \t\t\typt(recipient);\\r\\n\\r\\n       ...\n  PUSH [tag] 47\t\t\tfunction userAuthorized(addres...\n  DUP7 \t\t\ts recipi\n  DUP4 \t\t\tized(addr\n  PUSH [tag] 14\t\t\tfunction userAuthorized(addres...\n  JUMP \t\t\tfunction userAuthorized(addres...\ntag 47\t\t\tfunction userAuthorized(addres...\n  JUMPDEST \t\t\tfunction userAuthorized(addres...\n  SWAP6 \t\t\t   }\\r\\n\\r\\n    function userA...\n  POP \t\t\t   }\\r\\n\\r\\n    function userA...\n  DUP1 \t\t\t) pr\n  NOT \t\t\token) pri\n  DUP5 \t\t\ttes32\n  AND \t\t\t, bytes32 token) priv\n  SWAP4 \t\t\t32 secret, bytes32 token) priv\n  POP \t\t\t32 secret, bytes32 token) priv\n  DUP1 \t\t\tash \n  DUP7 \t\t\t32 secre\n  AND \t\t\tytes32 secretHash =\n  DUP5 \t\t\t     \n  OR \t\t\t\\n        bytes32 secretHash =...\n  SWAP3 \t\t\t{\\r\\n      \\r\\n        bytes32...\n  POP \t\t\t{\\r\\n      \\r\\n        bytes32...\n  POP \t\t\t    require(success, \"Transfer...\n  POP \t\t\t    require(success, \"Transfer...\n  SWAP4 \t\t\tdress\\r\\n            bool succ...\n  SWAP3 \t\t\tdress\\r\\n            bool succ...\n  POP \t\t\tdress\\r\\n            bool succ...\n  POP \t\t\tdress\\r\\n            bool succ...\n  POP \t\t\tdress\\r\\n            bool succ...\n  JUMP \t\t\tdress\\r\\n            bool succ...\ntag 16\t\t\titKey;\\r\\n        require(secr...\n  JUMPDEST \t\t\titKey;\\r\\n        require(secr...\n  PUSH 0\t\t\t _secre\n  DUP2 \t\t\trized\n  SWAP1 \t\t\tr not Authorized\n  POP \t\t\tr not Authorized\n  SWAP2 \t\t\titKey;\\r\\n        require(secr...\n  SWAP1 \t\t\titKey;\\r\\n        require(secr...\n  POP \t\t\titKey;\\r\\n        require(secr...\n  JUMP \t\t\titKey;\\r\\n        require(secr...\ntag 17\t\t\th is wrong!\");\\r\\n\\r\\n        ...\n  JUMPDEST \t\t\th is wrong!\");\\r\\n\\r\\n        ...\n  PUSH 0\t\t\ttes\n  DUP2 \t\t\tt(rec\n  SWAP1 \t\t\t decrypt(rec\n  POP \t\t\t decrypt(rec\n  SWAP2 \t\t\th is wrong!\");\\r\\n\\r\\n        ...\n  SWAP1 \t\t\th is wrong!\");\\r\\n\\r\\n        ...\n  POP \t\t\th is wrong!\");\\r\\n\\r\\n        ...\n  JUMP \t\t\th is wrong!\");\\r\\n\\r\\n        ...\ntag 18\t\t\tn);\\r\\n\\r\\n        if (_usersA...\n  JUMPDEST \t\t\tn);\\r\\n\\r\\n        if (_usersA...\n  PUSH 0\t\t\t) {\\r\\n\\r\\n  \n  PUSH [tag] 51\t\t\t == _usersAuthToken[recipient]...\n  PUSH [tag] 52\t\t\tn[recipient], \"User not Author...\n  PUSH [tag] 53\t\t\tnt], \"User not Authorize\n  DUP5 \t\t\thoriz\n  PUSH [tag] 16\t\t\tnt], \"User not Authorize\n  JUMP \t\t\tnt], \"User not Authorize\ntag 53\t\t\tnt], \"User not Authorize\n  JUMPDEST \t\t\tnt], \"User not Authorize\n  PUSH [tag] 17\t\t\tn[recipient], \"User not Author...\n  JUMP \t\t\tn[recipient], \"User not Author...\ntag 52\t\t\tn[recipient], \"User not Author...\n  JUMPDEST \t\t\tn[recipient], \"User not Author...\n  PUSH [tag] 16\t\t\t == _usersAuthToken[recipient]...\n  JUMP \t\t\t == _usersAuthToken[recipient]...\ntag 51\t\t\t == _usersAuthToken[recipient]...\n  JUMPDEST \t\t\t == _usersAuthToken[recipient]...\n  SWAP1 \t\t\tequire(_token == _usersAuthTok...\n  POP \t\t\tequire(_token == _usersAuthTok...\n  SWAP2 \t\t\tn);\\r\\n\\r\\n        if (_usersA...\n  SWAP1 \t\t\tn);\\r\\n\\r\\n        if (_usersA...\n  POP \t\t\tn);\\r\\n\\r\\n        if (_usersA...\n  JUMP \t\t\tn);\\r\\n\\r\\n        if (_usersA...\ntag 19\t\t\tis wrong!\");\\r\\n\\r\\n        }\\...\n  JUMPDEST \t\t\tis wrong!\");\\r\\n\\r\\n        }\\...\n  PUSH 0\t\t\t\\n\\r\\n\n  DUP2 \t\t\tpt(ad\n  SWAP1 \t\t\tn encrypt(ad\n  POP \t\t\tn encrypt(ad\n  SWAP2 \t\t\tis wrong!\");\\r\\n\\r\\n        }\\...\n  SWAP1 \t\t\tis wrong!\");\\r\\n\\r\\n        }\\...\n  POP \t\t\tis wrong!\");\\r\\n\\r\\n        }\\...\n  JUMP \t\t\tis wrong!\");\\r\\n\\r\\n        }\\...\ntag 20\t\t\tent) private returns (encrypti...\n  JUMPDEST \t\t\tent) private returns (encrypti...\n  PUSH [tag] 56\t\t\t            _usersAuthKey[reci...\n  DUP4 \t\t\tient] =\n  PUSH [tag] 18\t\t\t            _usersAuthKey[reci...\n  JUMP \t\t\t            _usersAuthKey[reci...\ntag 56\t\t\t            _usersAuthKey[reci...\n  JUMPDEST \t\t\t            _usersAuthKey[reci...\n  PUSH [tag] 57\t\t\tcked(blockhash(block.number - ...\n  PUSH [tag] 58\t\t\t,msg.sender, \"key\"));\\r\\n     ...\n  DUP3 \t\t\t           _user\n  PUSH [tag] 19\t\t\t,msg.sender, \"key\"));\\r\\n     ...\n  JUMP \t\t\t,msg.sender, \"key\"));\\r\\n     ...\ntag 58\t\t\t,msg.sender, \"key\"));\\r\\n     ...\n  JUMPDEST \t\t\t,msg.sender, \"key\"));\\r\\n     ...\n  DUP5 \t\t\timesta\n  DUP5 \t\t\tbloc\n  SLOAD \t\t\t- 1), block\n  PUSH [tag] 15\t\t\tcked(blockhash(block.number - ...\n  JUMP \t\t\tcked(blockhash(block.number - ...\ntag 57\t\t\tcked(blockhash(block.number - ...\n  JUMPDEST \t\t\tcked(blockhash(block.number - ...\n  DUP3 \t\t\tcode\n  SSTORE \t\t\t(abi.encodePacked(blockhash(bl...\n  POP \t\t\trsAuthKey[recipient] == 0x0) {...\n  POP \t\t\tent) private returns (encrypti...\n  POP \t\t\tent) private returns (encrypti...\n  POP \t\t\tent) private returns (encrypti...\n  JUMP \t\t\tent) private returns (encrypti...\ntag 21\t\t\tpient] = keccak256(abi.encodeP...\n  JUMPDEST \t\t\tpient] = keccak256(abi.encodeP...\n  PUSH 0\t\t\t(bl\n  SWAP1 \t\t\tpient] = keccak256(abi.encodeP...\n  JUMP \t\t\tpient] = keccak256(abi.encodeP...\ntag 22\t\t\tp,msg.sender, \"token\"));\\r\\n  ...\n  JUMPDEST \t\t\tp,msg.sender, \"token\"));\\r\\n  ...\n  PUSH [tag] 61\t\t\ty[recipient]  ^ _initKey;\\r\\n ...\n  PUSH [tag] 21\t\t\ty[recipient]  ^ _initKey;\\r\\n ...\n  JUMP \t\t\ty[recipient]  ^ _initKey;\\r\\n ...\ntag 61\t\t\ty[recipient]  ^ _initKey;\\r\\n ...\n  JUMPDEST \t\t\ty[recipient]  ^ _initKey;\\r\\n ...\n  PUSH [tag] 62\t\t\ttes32 encToken = _usersAuthTok...\n  DUP2 \t\t\t\\r\\n    \n  DUP5 \t\t\titKey;\n  DUP5 \t\t\t ^ _\n  PUSH [tag] 20\t\t\ttes32 encToken = _usersAuthTok...\n  JUMP \t\t\ttes32 encToken = _usersAuthTok...\ntag 62\t\t\ttes32 encToken = _usersAuthTok...\n  JUMPDEST \t\t\ttes32 encToken = _usersAuthTok...\n  POP \t\t\t32 encKey = _usersAuthKey[reci...\n  POP \t\t\tp,msg.sender, \"token\"));\\r\\n  ...\n  POP \t\t\tp,msg.sender, \"token\"));\\r\\n  ...\n  JUMP \t\t\tp,msg.sender, \"token\"));\\r\\n  ...\ntag 23\t\t\tn encryptionResult({ key: encK...\n  JUMPDEST \t\t\tn encryptionResult({ key: encK...\ntag 64\t\t\t     }else{\\r\\n\\r\\n           ...\n  JUMPDEST \t\t\t     }else{\\r\\n\\r\\n           ...\n  DUP2 \t\t\t   \n  DUP2 \t\t\t{\\r\\n\\r\\n\n  LT \t\t\tlse{\\r\\n\\r\\n      \n  ISZERO \t\t\t     }else{\\r\\n\\r\\n           ...\n  PUSH [tag] 66\t\t\t     }else{\\r\\n\\r\\n           ...\n  JUMPI \t\t\t     }else{\\r\\n\\r\\n           ...\n  PUSH [tag] 67\t\t\todePacked(blockhash(block.numb...\n  PUSH 0\t\t\t,\n  DUP3 \t\t\ter - \n  PUSH [tag] 22\t\t\todePacked(blockhash(block.numb...\n  JUMP \t\t\todePacked(blockhash(block.numb...\ntag 67\t\t\todePacked(blockhash(block.numb...\n  JUMPDEST \t\t\todePacked(blockhash(block.numb...\n  PUSH 1\t\t\ti\n  DUP2 \t\t\tKey[r\n  ADD \t\t\tAuthKey[recip\n  SWAP1 \t\t\t   _usersAuthKey[recip\n  POP \t\t\t   _usersAuthKey[recip\n  PUSH [tag] 64\t\t\t     }else{\\r\\n\\r\\n           ...\n  JUMP \t\t\t     }else{\\r\\n\\r\\n           ...\ntag 66\t\t\t     }else{\\r\\n\\r\\n           ...\n  JUMPDEST \t\t\t     }else{\\r\\n\\r\\n           ...\n  POP \t\t\tn encryptionResult({ key: encK...\n  POP \t\t\tn encryptionResult({ key: encK...\n  JUMP \t\t\tn encryptionResult({ key: encK...\ntag 24\t\t\tnder, \"key\"));\\r\\n            ...\n  JUMPDEST \t\t\tnder, \"key\"));\\r\\n            ...\n  PUSH 1F\t\t\tum\n  DUP3 \t\t\tock\n  GT \t\t\t(block.numb\n  ISZERO \t\t\tash(block.number - 1), block.t...\n  PUSH [tag] 69\t\t\tash(block.number - 1), block.t...\n  JUMPI \t\t\tash(block.number - 1), block.t...\n  PUSH [tag] 70\t\t\tnder, \"token\"));\\r\\n        \\r...\n  DUP2 \t\t\t     \n  PUSH [tag] 12\t\t\tnder, \"token\"));\\r\\n        \\r...\n  JUMP \t\t\tnder, \"token\"));\\r\\n        \\r...\ntag 70\t\t\tnder, \"token\"));\\r\\n        \\r...\n  JUMPDEST \t\t\tnder, \"token\"));\\r\\n        \\r...\n  PUSH [tag] 71\t\t\t _usersAuthKey[recipient] ;\\r\\...\n  DUP5 \t\t\tipient] ;\\r\n  PUSH [tag] 13\t\t\t _usersAuthKey[recipient] ;\\r\\...\n  JUMP \t\t\t _usersAuthKey[recipient] ;\\r\\...\ntag 71\t\t\t _usersAuthKey[recipient] ;\\r\\...\n  JUMPDEST \t\t\t _usersAuthKey[recipient] ;\\r\\...\n  DUP2 \t\t\tipient] \n  ADD \t\t\t[recipient]  ^ _usersAuthKey[r...\n  PUSH 20\t\t\tke\n  DUP6 \t\t\ttoken: enc\n  LT \t\t\ty, token: encToken\n  ISZERO \t\t\tcKey, token: encToken });\\r\\n\\...\n  PUSH [tag] 72\t\t\tcKey, token: encToken });\\r\\n\\...\n  JUMPI \t\t\tcKey, token: encToken });\\r\\n\\...\n  DUP2 \t\t\t\\n    }\\r\\n\n  SWAP1 \t\t\t;\\r\\n\\r\\n        }\\r\\n    }\\r\\...\n  POP \t\t\t;\\r\\n\\r\\n        }\\r\\n    }\\r\\...\ntag 72\t\t\tcKey, token: encToken });\\r\\n\\...\n  JUMPDEST \t\t\tcKey, token: encToken });\\r\\n\\...\n  PUSH [tag] 73\t\t\tdecrypt(address recipient, byt...\n  PUSH [tag] 74\t\t\tturns (bytes32) {\\r\\n\\r\\n \n  DUP6 \t\t\t\\n\\r\\n\n  PUSH [tag] 13\t\t\tturns (bytes32) {\\r\\n\\r\\n \n  JUMP \t\t\tturns (bytes32) {\\r\\n\\r\\n \ntag 74\t\t\tturns (bytes32) {\\r\\n\\r\\n \n  JUMPDEST \t\t\tturns (bytes32) {\\r\\n\\r\\n \n  DUP4 \t\t\tte view \n  ADD \t\t\trivate view returns (bytes32) ...\n  DUP3 \t\t\ttes32 data)\n  PUSH [tag] 23\t\t\tdecrypt(address recipient, byt...\n  JUMP \t\t\tdecrypt(address recipient, byt...\ntag 73\t\t\tdecrypt(address recipient, byt...\n  JUMPDEST \t\t\tdecrypt(address recipient, byt...\n  POP \t\t\tr - 1), block.timestamp,msg.se...\n  POP \t\t\tr - 1), block.timestamp,msg.se...\ntag 69\t\t\tash(block.number - 1), block.t...\n  JUMPDEST \t\t\tash(block.number - 1), block.t...\n  POP \t\t\tnder, \"key\"));\\r\\n            ...\n  POP \t\t\tnder, \"key\"));\\r\\n            ...\n  POP \t\t\tnder, \"key\"));\\r\\n            ...\n  JUMP \t\t\tnder, \"key\"));\\r\\n            ...\ntag 25\t\t\talue;\\r\\n\\r\\n        // issue ...\n  JUMPDEST \t\t\talue;\\r\\n\\r\\n        // issue ...\n  PUSH 0\t\t\tKey[reci\n  DUP3 \t\t\tue = \n  DUP3 \t\t\ttedV\n  SHR \t\t\tcryptedValue = d\n  SWAP1 \t\t\tx0) {\\r\\n            decrypted...\n  POP \t\t\tx0) {\\r\\n            decrypted...\n  SWAP3 \t\t\talue;\\r\\n\\r\\n        // issue ...\n  SWAP2 \t\t\talue;\\r\\n\\r\\n        // issue ...\n  POP \t\t\talue;\\r\\n\\r\\n        // issue ...\n  POP \t\t\talue;\\r\\n\\r\\n        // issue ...\n  JUMP \t\t\talue;\\r\\n\\r\\n        // issue ...\ntag 26\t\t\tuthKey[recipient];\\r\\n        ...\n  JUMPDEST \t\t\tuthKey[recipient];\\r\\n        ...\n  PUSH 0\t\t\t    de\n  PUSH [tag] 77\t\t\tKey;\\r\\n        }\\r\\n\\r\\n     ...\n  PUSH 0\t\t\t;\n  NOT \t\t\talue;\\r\n  DUP5 \t\t\tcrypt\n  PUSH 8\t\t\t \n  MUL \t\t\tturn decrypte\n  PUSH [tag] 25\t\t\tKey;\\r\\n        }\\r\\n\\r\\n     ...\n  JUMP \t\t\tKey;\\r\\n        }\\r\\n\\r\\n     ...\ntag 77\t\t\tKey;\\r\\n        }\\r\\n\\r\\n     ...\n  JUMPDEST \t\t\tKey;\\r\\n        }\\r\\n\\r\\n     ...\n  NOT \t\t\tinitKey;\\r\\n        }\\r\\n\\r\\n ...\n  DUP1 \t\t\te of\n  DUP4 \t\t\tbala\n  AND \t\t\tget balance of \n  SWAP2 \t\t\t\\n\\r\\n    // get balance of \n  POP \t\t\t\\n\\r\\n    // get balance of \n  POP \t\t\tryptedValue = data ^ _initKey;...\n  SWAP3 \t\t\tuthKey[recipient];\\r\\n        ...\n  SWAP2 \t\t\tuthKey[recipient];\\r\\n        ...\n  POP \t\t\tuthKey[recipient];\\r\\n        ...\n  POP \t\t\tuthKey[recipient];\\r\\n        ...\n  JUMP \t\t\tuthKey[recipient];\\r\\n        ...\ntag 27\t\t\tdress\\r\\n    function getBalan...\n  JUMPDEST \t\t\tdress\\r\\n    function getBalan...\n  PUSH 0\t\t\tturn\n  PUSH [tag] 79\t\t\thKey[recipient];\\r\\n    }\\r\\n ...\n  DUP4 \t\t\t   \n  DUP4 \t\t\t   }\n  PUSH [tag] 26\t\t\thKey[recipient];\\r\\n    }\\r\\n ...\n  JUMP \t\t\thKey[recipient];\\r\\n    }\\r\\n ...\ntag 79\t\t\thKey[recipient];\\r\\n    }\\r\\n ...\n  JUMPDEST \t\t\thKey[recipient];\\r\\n    }\\r\\n ...\n  SWAP2 \t\t\tusersAuthKey[recipient];\\r\\n  ...\n  POP \t\t\tusersAuthKey[recipient];\\r\\n  ...\n  DUP3 \t\t\tpie\n  PUSH 2\t\t\te\n  MUL \t\t\tss recipien\n  DUP3 \t\t\t(add\n  OR \t\t\tst2(address recipient\n  SWAP1 \t\t\tction test2(address recipient\n  POP \t\t\tction test2(address recipient\n  SWAP3 \t\t\tdress\\r\\n    function getBalan...\n  SWAP2 \t\t\tdress\\r\\n    function getBalan...\n  POP \t\t\tdress\\r\\n    function getBalan...\n  POP \t\t\tdress\\r\\n    function getBalan...\n  JUMP \t\t\tdress\\r\\n    function getBalan...\ntag 2\t\t\tw returns(bytes32){\\r\\n\\r\\n   ...\n  JUMPDEST \t\t\tw returns(bytes32){\\r\\n\\r\\n   ...\n  PUSH [tag] 81\t\t\tbytes32){\\r\\n\\r\\n        retur...\n  DUP3 \t\t\ttKe\n  PUSH [tag] 8\t\t\tbytes32){\\r\\n\\r\\n        retur...\n  JUMP \t\t\tbytes32){\\r\\n\\r\\n        retur...\ntag 81\t\t\tbytes32){\\r\\n\\r\\n        retur...\n  JUMPDEST \t\t\tbytes32){\\r\\n\\r\\n        retur...\n  PUSH FFFFFFFFFFFFFFFF\t\t\t\\n        return  _\n  DUP2 \t\t\ts32){\\r\n  GT \t\t\tytes32){\\r\\n\\r\\n        return...\n  ISZERO \t\t\ts(bytes32){\\r\\n\\r\\n        ret...\n  PUSH [tag] 82\t\t\ts(bytes32){\\r\\n\\r\\n        ret...\n  JUMPI \t\t\ts(bytes32){\\r\\n\\r\\n        ret...\n  PUSH [tag] 83\t\t\tetHash;\\r\\n    }\\r\\n\\r\\n\n  PUSH [tag] 9\t\t\tetHash;\\r\\n    }\\r\\n\\r\\n\n  JUMP \t\t\tetHash;\\r\\n    }\\r\\n\\r\\n\ntag 83\t\t\tetHash;\\r\\n    }\\r\\n\\r\\n\n  JUMPDEST \t\t\tetHash;\\r\\n    }\\r\\n\\r\\n\ntag 82\t\t\ts(bytes32){\\r\\n\\r\\n        ret...\n  JUMPDEST \t\t\ts(bytes32){\\r\\n\\r\\n        ret...\n  PUSH [tag] 84\t\t\tss recipient, bytes32 key)publ...\n  DUP3 \t\t\t vie\n  SLOAD \t\t\tpublic view\n  PUSH [tag] 11\t\t\tss recipient, bytes32 key)publ...\n  JUMP \t\t\tss recipient, bytes32 key)publ...\ntag 84\t\t\tss recipient, bytes32 key)publ...\n  JUMPDEST \t\t\tss recipient, bytes32 key)publ...\n  PUSH [tag] 85\t\t\tipient, key);\\r\\n    }\\r\\n\\r\\n...\n  DUP3 \t\t\t\n  DUP3 \t\t\t\n  DUP6 \t\t\t\n  PUSH [tag] 24\t\t\tipient, key);\\r\\n    }\\r\\n\\r\\n...\n  JUMP \t\t\tipient, key);\\r\\n    }\\r\\n\\r\\n...\ntag 85\t\t\tipient, key);\\r\\n    }\\r\\n\\r\\n...\n  JUMPDEST \t\t\tipient, key);\\r\\n    }\\r\\n\\r\\n...\n  PUSH 0\t\t\t\n  PUSH 20\t\t\t\n  SWAP1 \t\t\t\n  POP \t\t\t\n  PUSH 1F\t\t\t\n  DUP4 \t\t\t\n  GT \t\t\t\n  PUSH 1\t\t\t\n  DUP2 \t\t\t\n  EQ \t\t\t\n  PUSH [tag] 87\t\t\t\n  JUMPI \t\t\t\n  PUSH 0\t\t\t\n  DUP5 \t\t\t\n  ISZERO \t\t\t\n  PUSH [tag] 88\t\t\t\n  JUMPI \t\t\t\n  DUP3 \t\t\t\n  DUP8 \t\t\t\n  ADD \t\t\t\n  MLOAD \t\t\t\n  SWAP1 \t\t\t\n  POP \t\t\t\ntag 88\t\t\t\n  JUMPDEST \t\t\t\n  PUSH [tag] 89\t\t\t\n  DUP6 \t\t\t\n  DUP3 \t\t\t\n  PUSH [tag] 27\t\t\t\n  JUMP \t\t\t\ntag 89\t\t\t\n  JUMPDEST \t\t\t\n  DUP7 \t\t\t\n  SSTORE \t\t\t\n  POP \t\t\t\n  PUSH [tag] 86\t\t\t\n  JUMP \t\t\t\ntag 87\t\t\t\n  JUMPDEST \t\t\t\n  PUSH 1F\t\t\t\n  NOT \t\t\t\n  DUP5 \t\t\t\n  AND \t\t\t\n  PUSH [tag] 90\t\t\t\n  DUP7 \t\t\t\n  PUSH [tag] 12\t\t\t\n  JUMP \t\t\t\ntag 90\t\t\t\n  JUMPDEST \t\t\t\n  PUSH 0\t\t\t\ntag 91\t\t\t\n  JUMPDEST \t\t\t\n  DUP3 \t\t\t\n  DUP2 \t\t\t\n  LT \t\t\t\n  ISZERO \t\t\t\n  PUSH [tag] 93\t\t\t\n  JUMPI \t\t\t\n  DUP5 \t\t\t\n  DUP10 \t\t\t\n  ADD \t\t\t\n  MLOAD \t\t\t\n  DUP3 \t\t\t\n  SSTORE \t\t\t\n  PUSH 1\t\t\t\n  DUP3 \t\t\t\n  ADD \t\t\t\n  SWAP2 \t\t\t\n  POP \t\t\t\n  PUSH 20\t\t\t\n  DUP6 \t\t\t\n  ADD \t\t\t\n  SWAP5 \t\t\t\n  POP \t\t\t\n  PUSH 20\t\t\t\n  DUP2 \t\t\t\n  ADD \t\t\t\n  SWAP1 \t\t\t\n  POP \t\t\t\n  PUSH [tag] 91\t\t\t\n  JUMP \t\t\t\ntag 93\t\t\t\n  JUMPDEST \t\t\t\n  DUP7 \t\t\t\n  DUP4 \t\t\t\n  LT \t\t\t\n  ISZERO \t\t\t\n  PUSH [tag] 94\t\t\t\n  JUMPI \t\t\t\n  DUP5 \t\t\t\n  DUP10 \t\t\t\n  ADD \t\t\t\n  MLOAD \t\t\t\n  PUSH [tag] 95\t\t\t\n  PUSH 1F\t\t\t\n  DUP10 \t\t\t\n  AND \t\t\t\n  DUP3 \t\t\t\n  PUSH [tag] 26\t\t\t\n  JUMP \t\t\t\ntag 95\t\t\t\n  JUMPDEST \t\t\t\n  DUP4 \t\t\t\n  SSTORE \t\t\t\n  POP \t\t\t\ntag 94\t\t\t\n  JUMPDEST \t\t\t\n  PUSH 1\t\t\t\n  PUSH 2\t\t\t\n  DUP9 \t\t\t\n  MUL \t\t\t\n  ADD \t\t\t\n  DUP9 \t\t\t\n  SSTORE \t\t\t\n  POP \t\t\t\n  POP \t\t\t\n  POP \t\t\t\ntag 86\t\t\t\n  JUMPDEST \t\t\t\n  POP \t\t\t\n  POP \t\t\tst3()public view returns(bytes...\n  POP \t\t\tst3()public view returns(bytes...\n  POP \t\t\tst3()public view returns(bytes...\n  POP \t\t\tw returns(bytes32){\\r\\n\\r\\n   ...\n  POP \t\t\tw returns(bytes32){\\r\\n\\r\\n   ...\n  JUMP \t\t\tw returns(bytes32){\\r\\n\\r\\n   ...\ntag 29\t\t\t\n  JUMPDEST \t\t\t\n  PUSH 0\t\t\t\n  DUP1 \t\t\t\n  REVERT \t\t\t\ntag 31\t\t\t\n  JUMPDEST \t\t\t\n  PUSH 0\t\t\t\n  DUP2 \t\t\t\n  SWAP1 \t\t\t\n  POP \t\t\t\n  SWAP2 \t\t\t\n  SWAP1 \t\t\t\n  POP \t\t\t\n  JUMP \t\t\t\ntag 32\t\t\t\n  JUMPDEST \t\t\t\n  PUSH [tag] 101\t\t\t\n  DUP2 \t\t\t\n  PUSH [tag] 31\t\t\t\n  JUMP \t\t\t\ntag 101\t\t\t\n  JUMPDEST \t\t\t\n  DUP2 \t\t\t\n  EQ \t\t\t\n  PUSH [tag] 102\t\t\t\n  JUMPI \t\t\t\n  PUSH 0\t\t\t\n  DUP1 \t\t\t\n  REVERT \t\t\t\ntag 102\t\t\t\n  JUMPDEST \t\t\t\n  POP \t\t\t\n  JUMP \t\t\t\ntag 33\t\t\t\n  JUMPDEST \t\t\t\n  PUSH 0\t\t\t\n  DUP2 \t\t\t\n  MLOAD \t\t\t\n  SWAP1 \t\t\t\n  POP \t\t\t\n  PUSH [tag] 104\t\t\t\n  DUP2 \t\t\t\n  PUSH [tag] 32\t\t\t\n  JUMP \t\t\t\ntag 104\t\t\t\n  JUMPDEST \t\t\t\n  SWAP3 \t\t\t\n  SWAP2 \t\t\t\n  POP \t\t\t\n  POP \t\t\t\n  JUMP \t\t\t\ntag 4\t\t\t\n  JUMPDEST \t\t\t\n  PUSH 0\t\t\t\n  DUP1 \t\t\t\n  PUSH 40\t\t\t\n  DUP4 \t\t\t\n  DUP6 \t\t\t\n  SUB \t\t\t\n  SLT \t\t\t\n  ISZERO \t\t\t\n  PUSH [tag] 106\t\t\t\n  JUMPI \t\t\t\n  PUSH [tag] 107\t\t\t\n  PUSH [tag] 29\t\t\t\n  JUMP \t\t\t\ntag 107\t\t\t\n  JUMPDEST \t\t\t\ntag 106\t\t\t\n  JUMPDEST \t\t\t\n  PUSH 0\t\t\t\n  PUSH [tag] 108\t\t\t\n  DUP6 \t\t\t\n  DUP3 \t\t\t\n  DUP7 \t\t\t\n  ADD \t\t\t\n  PUSH [tag] 33\t\t\t\n  JUMP \t\t\t\ntag 108\t\t\t\n  JUMPDEST \t\t\t\n  SWAP3 \t\t\t\n  POP \t\t\t\n  POP \t\t\t\n  PUSH 20\t\t\t\n  PUSH [tag] 109\t\t\t\n  DUP6 \t\t\t\n  DUP3 \t\t\t\n  DUP7 \t\t\t\n  ADD \t\t\t\n  PUSH [tag] 33\t\t\t\n  JUMP \t\t\t\ntag 109\t\t\t\n  JUMPDEST \t\t\t\n  SWAP2 \t\t\t\n  POP \t\t\t\n  POP \t\t\t\n  SWAP3 \t\t\t\n  POP \t\t\t\n  SWAP3 \t\t\t\n  SWAP1 \t\t\t\n  POP \t\t\t\n  JUMP \t\t\t\ntag 7\t\t\tcontract cryptoDorea {\\r\\n\\r\\n...\n  JUMPDEST \t\t\tcontract cryptoDorea {\\r\\n\\r\\n...\n  PUSH #[$] 0000000000000000000000000000000000000000000000000000000000000000\t\t\tcontract cryptoDorea {\\r\\n\\r\\n...\n  DUP1 \t\t\tcontract cryptoDorea {\\r\\n\\r\\n...\n  PUSH [$] 0000000000000000000000000000000000000000000000000000000000000000\t\t\tcontract cryptoDorea {\\r\\n\\r\\n...\n  PUSH 0\t\t\tcontract cryptoDorea {\\r\\n\\r\\n...\n  CODECOPY \t\t\tcontract cryptoDorea {\\r\\n\\r\\n...\n  PUSH 0\t\t\tcontract cryptoDorea {\\r\\n\\r\\n...\n  RETURN \t\t\tcontract cryptoDorea {\\r\\n\\r\\n...\n.data\n  0:\n    .code\n      PUSH 80\t\t\tcontract cryptoDorea {\\r\\n\\r\\n...\n      PUSH 40\t\t\tcontract cryptoDorea {\\r\\n\\r\\n...\n      MSTORE \t\t\tcontract cryptoDorea {\\r\\n\\r\\n...\n      PUSH 4\t\t\tcontract cryptoDorea {\\r\\n\\r\\n...\n      CALLDATASIZE \t\t\tcontract cryptoDorea {\\r\\n\\r\\n...\n      LT \t\t\tcontract cryptoDorea {\\r\\n\\r\\n...\n      PUSH [tag] 1\t\t\tcontract cryptoDorea {\\r\\n\\r\\n...\n      JUMPI \t\t\tcontract cryptoDorea {\\r\\n\\r\\n...\n      PUSH 0\t\t\tcontract cryptoDorea {\\r\\n\\r\\n...\n      CALLDATALOAD \t\t\tcontract cryptoDorea {\\r\\n\\r\\n...\n      PUSH E0\t\t\tcontract cryptoDorea {\\r\\n\\r\\n...\n      SHR \t\t\tcontract cryptoDorea {\\r\\n\\r\\n...\n      DUP1 \t\t\tcontract cryptoDorea {\\r\\n\\r\\n...\n      PUSH 565992AD\t\t\tcontract cryptoDorea {\\r\\n\\r\\n...\n      GT \t\t\tcontract cryptoDorea {\\r\\n\\r\\n...\n      PUSH [tag] 9\t\t\tcontract cryptoDorea {\\r\\n\\r\\n...\n      JUMPI \t\t\tcontract cryptoDorea {\\r\\n\\r\\n...\n      DUP1 \t\t\tcontract cryptoDorea {\\r\\n\\r\\n...\n      PUSH 565992AD\t\t\tcontract cryptoDorea {\\r\\n\\r\\n...\n      EQ \t\t\tcontract cryptoDorea {\\r\\n\\r\\n...\n      PUSH [tag] 5\t\t\tcontract cryptoDorea {\\r\\n\\r\\n...\n      JUMPI \t\t\tcontract cryptoDorea {\\r\\n\\r\\n...\n      DUP1 \t\t\tcontract cryptoDorea {\\r\\n\\r\\n...\n      PUSH 8F0D282D\t\t\tcontract cryptoDorea {\\r\\n\\r\\n...\n      EQ \t\t\tcontract cryptoDorea {\\r\\n\\r\\n...\n      PUSH [tag] 6\t\t\tcontract cryptoDorea {\\r\\n\\r\\n...\n      JUMPI \t\t\tcontract cryptoDorea {\\r\\n\\r\\n...\n      DUP1 \t\t\tcontract cryptoDorea {\\r\\n\\r\\n...\n      PUSH A408B1F5\t\t\tcontract cryptoDorea {\\r\\n\\r\\n...\n      EQ \t\t\tcontract cryptoDorea {\\r\\n\\r\\n...\n      PUSH [tag] 7\t\t\tcontract cryptoDorea {\\r\\n\\r\\n...\n      JUMPI \t\t\tcontract cryptoDorea {\\r\\n\\r\\n...\n      DUP1 \t\t\tcontract cryptoDorea {\\r\\n\\r\\n...\n      PUSH B11BEAD4\t\t\tcontract cryptoDorea {\\r\\n\\r\\n...\n      EQ \t\t\tcontract cryptoDorea {\\r\\n\\r\\n...\n      PUSH [tag] 8\t\t\tcontract cryptoDorea {\\r\\n\\r\\n...\n      JUMPI \t\t\tcontract cryptoDorea {\\r\\n\\r\\n...\n      PUSH [tag] 1\t\t\tcontract cryptoDorea {\\r\\n\\r\\n...\n      JUMP \t\t\tcontract cryptoDorea {\\r\\n\\r\\n...\n    tag 9\t\t\tcontract cryptoDorea {\\r\\n\\r\\n...\n      JUMPDEST \t\t\tcontract cryptoDorea {\\r\\n\\r\\n...\n      DUP1 \t\t\tcontract cryptoDorea {\\r\\n\\r\\n...\n      PUSH A8E8E01\t\t\tcontract cryptoDorea {\\r\\n\\r\\n...\n      EQ \t\t\tcontract cryptoDorea {\\r\\n\\r\\n...\n      PUSH [tag] 2\t\t\tcontract cryptoDorea {\\r\\n\\r\\n...\n      JUMPI \t\t\tcontract cryptoDorea {\\r\\n\\r\\n...\n      DUP1 \t\t\tcontract cryptoDorea {\\r\\n\\r\\n...\n      PUSH 12065FE0\t\t\tcontract cryptoDorea {\\r\\n\\r\\n...\n      EQ \t\t\tcontract cryptoDorea {\\r\\n\\r\\n...\n      PUSH [tag] 3\t\t\tcontract cryptoDorea {\\r\\n\\r\\n...\n      JUMPI \t\t\tcontract cryptoDorea {\\r\\n\\r\\n...\n      DUP1 \t\t\tcontract cryptoDorea {\\r\\n\\r\\n...\n      PUSH 4E8E863B\t\t\tcontract cryptoDorea {\\r\\n\\r\\n...\n      EQ \t\t\tcontract cryptoDorea {\\r\\n\\r\\n...\n      PUSH [tag] 4\t\t\tcontract cryptoDorea {\\r\\n\\r\\n...\n      JUMPI \t\t\tcontract cryptoDorea {\\r\\n\\r\\n...\n    tag 1\t\t\tcontract cryptoDorea {\\r\\n\\r\\n...\n      JUMPDEST \t\t\tcontract cryptoDorea {\\r\\n\\r\\n...\n      PUSH 0\t\t\tcontract cryptoDorea {\\r\\n\\r\\n...\n      DUP1 \t\t\tcontract cryptoDorea {\\r\\n\\r\\n...\n      REVERT \t\t\tcontract cryptoDorea {\\r\\n\\r\\n...\n    tag 2\t\t\tfunction test3()public view re...\n      JUMPDEST \t\t\tfunction test3()public view re...\n      CALLVALUE \t\t\tfunction test3()public view re...\n      DUP1 \t\t\tfunction test3()public view re...\n      ISZERO \t\t\tfunction test3()public view re...\n      PUSH [tag] 10\t\t\tfunction test3()public view re...\n      JUMPI \t\t\tfunction test3()public view re...\n      PUSH 0\t\t\tfunction test3()public view re...\n      DUP1 \t\t\tfunction test3()public view re...\n      REVERT \t\t\tfunction test3()public view re...\n    tag 10\t\t\tfunction test3()public view re...\n      JUMPDEST \t\t\tfunction test3()public view re...\n      POP \t\t\tfunction test3()public view re...\n      PUSH [tag] 11\t\t\tfunction test3()public view re...\n      PUSH [tag] 12\t\t\tfunction test3()public view re...\n      JUMP \t\t\tfunction test3()public view re...\n    tag 11\t\t\tfunction test3()public view re...\n      JUMPDEST \t\t\tfunction test3()public view re...\n      PUSH 40\t\t\tfunction test3()public view re...\n      MLOAD \t\t\tfunction test3()public view re...\n      PUSH [tag] 13\t\t\tfunction test3()public view re...\n      SWAP2 \t\t\tfunction test3()public view re...\n      SWAP1 \t\t\tfunction test3()public view re...\n      PUSH [tag] 14\t\t\tfunction test3()public view re...\n      JUMP \t\t\tfunction test3()public view re...\n    tag 13\t\t\tfunction test3()public view re...\n      JUMPDEST \t\t\tfunction test3()public view re...\n      PUSH 40\t\t\tfunction test3()public view re...\n      MLOAD \t\t\tfunction test3()public view re...\n      DUP1 \t\t\tfunction test3()public view re...\n      SWAP2 \t\t\tfunction test3()public view re...\n      SUB \t\t\tfunction test3()public view re...\n      SWAP1 \t\t\tfunction test3()public view re...\n      RETURN \t\t\tfunction test3()public view re...\n    tag 3\t\t\tfunction getBalance() public v...\n      JUMPDEST \t\t\tfunction getBalance() public v...\n      CALLVALUE \t\t\tfunction getBalance() public v...\n      DUP1 \t\t\tfunction getBalance() public v...\n      ISZERO \t\t\tfunction getBalance() public v...\n      PUSH [tag] 15\t\t\tfunction getBalance() public v...\n      JUMPI \t\t\tfunction getBalance() public v...\n      PUSH 0\t\t\tfunction getBalance() public v...\n      DUP1 \t\t\tfunction getBalance() public v...\n      REVERT \t\t\tfunction getBalance() public v...\n    tag 15\t\t\tfunction getBalance() public v...\n      JUMPDEST \t\t\tfunction getBalance() public v...\n      POP \t\t\tfunction getBalance() public v...\n      PUSH [tag] 16\t\t\tfunction getBalance() public v...\n      PUSH [tag] 17\t\t\tfunction getBalance() public v...\n      JUMP \t\t\tfunction getBalance() public v...\n    tag 16\t\t\tfunction getBalance() public v...\n      JUMPDEST \t\t\tfunction getBalance() public v...\n      PUSH 40\t\t\tfunction getBalance() public v...\n      MLOAD \t\t\tfunction getBalance() public v...\n      PUSH [tag] 18\t\t\tfunction getBalance() public v...\n      SWAP2 \t\t\tfunction getBalance() public v...\n      SWAP1 \t\t\tfunction getBalance() public v...\n      PUSH [tag] 19\t\t\tfunction getBalance() public v...\n      JUMP \t\t\tfunction getBalance() public v...\n    tag 18\t\t\tfunction getBalance() public v...\n      JUMPDEST \t\t\tfunction getBalance() public v...\n      PUSH 40\t\t\tfunction getBalance() public v...\n      MLOAD \t\t\tfunction getBalance() public v...\n      DUP1 \t\t\tfunction getBalance() public v...\n      SWAP2 \t\t\tfunction getBalance() public v...\n      SUB \t\t\tfunction getBalance() public v...\n      SWAP1 \t\t\tfunction getBalance() public v...\n      RETURN \t\t\tfunction getBalance() public v...\n    tag 4\t\t\tfunction pay(address recipient...\n      JUMPDEST \t\t\tfunction pay(address recipient...\n      PUSH [tag] 20\t\t\tfunction pay(address recipient...\n      PUSH 4\t\t\tfunction pay(address recipient...\n      DUP1 \t\t\tfunction pay(address recipient...\n      CALLDATASIZE \t\t\tfunction pay(address recipient...\n      SUB \t\t\tfunction pay(address recipient...\n      DUP2 \t\t\tfunction pay(address recipient...\n      ADD \t\t\tfunction pay(address recipient...\n      SWAP1 \t\t\tfunction pay(address recipient...\n      PUSH [tag] 21\t\t\tfunction pay(address recipient...\n      SWAP2 \t\t\tfunction pay(address recipient...\n      SWAP1 \t\t\tfunction pay(address recipient...\n      PUSH [tag] 22\t\t\tfunction pay(address recipient...\n      JUMP \t\t\tfunction pay(address recipient...\n    tag 21\t\t\tfunction pay(address recipient...\n      JUMPDEST \t\t\tfunction pay(address recipient...\n      PUSH [tag] 23\t\t\tfunction pay(address recipient...\n      JUMP \t\t\tfunction pay(address recipient...\n    tag 20\t\t\tfunction pay(address recipient...\n      JUMPDEST \t\t\tfunction pay(address recipient...\n      PUSH 40\t\t\tfunction pay(address recipient...\n      MLOAD \t\t\tfunction pay(address recipient...\n      PUSH [tag] 24\t\t\tfunction pay(address recipient...\n      SWAP2 \t\t\tfunction pay(address recipient...\n      SWAP1 \t\t\tfunction pay(address recipient...\n      PUSH [tag] 25\t\t\tfunction pay(address recipient...\n      JUMP \t\t\tfunction pay(address recipient...\n    tag 24\t\t\tfunction pay(address recipient...\n      JUMPDEST \t\t\tfunction pay(address recipient...\n      PUSH 40\t\t\tfunction pay(address recipient...\n      MLOAD \t\t\tfunction pay(address recipient...\n      DUP1 \t\t\tfunction pay(address recipient...\n      SWAP2 \t\t\tfunction pay(address recipient...\n      SUB \t\t\tfunction pay(address recipient...\n      SWAP1 \t\t\tfunction pay(address recipient...\n      RETURN \t\t\tfunction pay(address recipient...\n    tag 5\t\t\tfunction test5(address recipie...\n      JUMPDEST \t\t\tfunction test5(address recipie...\n      CALLVALUE \t\t\tfunction test5(address recipie...\n      DUP1 \t\t\tfunction test5(address recipie...\n      ISZERO \t\t\tfunction test5(address recipie...\n      PUSH [tag] 26\t\t\tfunction test5(address recipie...\n      JUMPI \t\t\tfunction test5(address recipie...\n      PUSH 0\t\t\tfunction test5(address recipie...\n      DUP1 \t\t\tfunction test5(address recipie...\n      REVERT \t\t\tfunction test5(address recipie...\n    tag 26\t\t\tfunction test5(address recipie...\n      JUMPDEST \t\t\tfunction test5(address recipie...\n      POP \t\t\tfunction test5(address recipie...\n      PUSH [tag] 27\t\t\tfunction test5(address recipie...\n      PUSH 4\t\t\tfunction test5(address recipie...\n      DUP1 \t\t\tfunction test5(address recipie...\n      CALLDATASIZE \t\t\tfunction test5(address recipie...\n      SUB \t\t\tfunction test5(address recipie...\n      DUP2 \t\t\tfunction test5(address recipie...\n      ADD \t\t\tfunction test5(address recipie...\n      SWAP1 \t\t\tfunction test5(address recipie...\n      PUSH [tag] 28\t\t\tfunction test5(address recipie...\n      SWAP2 \t\t\tfunction test5(address recipie...\n      SWAP1 \t\t\tfunction test5(address recipie...\n      PUSH [tag] 29\t\t\tfunction test5(address recipie...\n      JUMP \t\t\tfunction test5(address recipie...\n    tag 28\t\t\tfunction test5(address recipie...\n      JUMPDEST \t\t\tfunction test5(address recipie...\n      PUSH [tag] 30\t\t\tfunction test5(address recipie...\n      JUMP \t\t\tfunction test5(address recipie...\n    tag 27\t\t\tfunction test5(address recipie...\n      JUMPDEST \t\t\tfunction test5(address recipie...\n      PUSH 40\t\t\tfunction test5(address recipie...\n      MLOAD \t\t\tfunction test5(address recipie...\n      PUSH [tag] 31\t\t\tfunction test5(address recipie...\n      SWAP2 \t\t\tfunction test5(address recipie...\n      SWAP1 \t\t\tfunction test5(address recipie...\n      PUSH [tag] 14\t\t\tfunction test5(address recipie...\n      JUMP \t\t\tfunction test5(address recipie...\n    tag 31\t\t\tfunction test5(address recipie...\n      JUMPDEST \t\t\tfunction test5(address recipie...\n      PUSH 40\t\t\tfunction test5(address recipie...\n      MLOAD \t\t\tfunction test5(address recipie...\n      DUP1 \t\t\tfunction test5(address recipie...\n      SWAP2 \t\t\tfunction test5(address recipie...\n      SUB \t\t\tfunction test5(address recipie...\n      SWAP1 \t\t\tfunction test5(address recipie...\n      RETURN \t\t\tfunction test5(address recipie...\n    tag 6\t\t\tfunction test4()public view re...\n      JUMPDEST \t\t\tfunction test4()public view re...\n      CALLVALUE \t\t\tfunction test4()public view re...\n      DUP1 \t\t\tfunction test4()public view re...\n      ISZERO \t\t\tfunction test4()public view re...\n      PUSH [tag] 32\t\t\tfunction test4()public view re...\n      JUMPI \t\t\tfunction test4()public view re...\n      PUSH 0\t\t\tfunction test4()public view re...\n      DUP1 \t\t\tfunction test4()public view re...\n      REVERT \t\t\tfunction test4()public view re...\n    tag 32\t\t\tfunction test4()public view re...\n      JUMPDEST \t\t\tfunction test4()public view re...\n      POP \t\t\tfunction test4()public view re...\n      PUSH [tag] 33\t\t\tfunction test4()public view re...\n      PUSH [tag] 34\t\t\tfunction test4()public view re...\n      JUMP \t\t\tfunction test4()public view re...\n    tag 33\t\t\tfunction test4()public view re...\n      JUMPDEST \t\t\tfunction test4()public view re...\n      PUSH 40\t\t\tfunction test4()public view re...\n      MLOAD \t\t\tfunction test4()public view re...\n      PUSH [tag] 35\t\t\tfunction test4()public view re...\n      SWAP2 \t\t\tfunction test4()public view re...\n      SWAP1 \t\t\tfunction test4()public view re...\n      PUSH [tag] 14\t\t\tfunction test4()public view re...\n      JUMP \t\t\tfunction test4()public view re...\n    tag 35\t\t\tfunction test4()public view re...\n      JUMPDEST \t\t\tfunction test4()public view re...\n      PUSH 40\t\t\tfunction test4()public view re...\n      MLOAD \t\t\tfunction test4()public view re...\n      DUP1 \t\t\tfunction test4()public view re...\n      SWAP2 \t\t\tfunction test4()public view re...\n      SUB \t\t\tfunction test4()public view re...\n      SWAP1 \t\t\tfunction test4()public view re...\n      RETURN \t\t\tfunction test4()public view re...\n    tag 7\t\t\tfunction test1(address recipie...\n      JUMPDEST \t\t\tfunction test1(address recipie...\n      CALLVALUE \t\t\tfunction test1(address recipie...\n      DUP1 \t\t\tfunction test1(address recipie...\n      ISZERO \t\t\tfunction test1(address recipie...\n      PUSH [tag] 36\t\t\tfunction test1(address recipie...\n      JUMPI \t\t\tfunction test1(address recipie...\n      PUSH 0\t\t\tfunction test1(address recipie...\n      DUP1 \t\t\tfunction test1(address recipie...\n      REVERT \t\t\tfunction test1(address recipie...\n    tag 36\t\t\tfunction test1(address recipie...\n      JUMPDEST \t\t\tfunction test1(address recipie...\n      POP \t\t\tfunction test1(address recipie...\n      PUSH [tag] 37\t\t\tfunction test1(address recipie...\n      PUSH 4\t\t\tfunction test1(address recipie...\n      DUP1 \t\t\tfunction test1(address recipie...\n      CALLDATASIZE \t\t\tfunction test1(address recipie...\n      SUB \t\t\tfunction test1(address recipie...\n      DUP2 \t\t\tfunction test1(address recipie...\n      ADD \t\t\tfunction test1(address recipie...\n      SWAP1 \t\t\tfunction test1(address recipie...\n      PUSH [tag] 38\t\t\tfunction test1(address recipie...\n      SWAP2 \t\t\tfunction test1(address recipie...\n      SWAP1 \t\t\tfunction test1(address recipie...\n      PUSH [tag] 39\t\t\tfunction test1(address recipie...\n      JUMP \t\t\tfunction test1(address recipie...\n    tag 38\t\t\tfunction test1(address recipie...\n      JUMPDEST \t\t\tfunction test1(address recipie...\n      PUSH [tag] 40\t\t\tfunction test1(address recipie...\n      JUMP \t\t\tfunction test1(address recipie...\n    tag 37\t\t\tfunction test1(address recipie...\n      JUMPDEST \t\t\tfunction test1(address recipie...\n      PUSH 40\t\t\tfunction test1(address recipie...\n      MLOAD \t\t\tfunction test1(address recipie...\n      PUSH [tag] 41\t\t\tfunction test1(address recipie...\n      SWAP2 \t\t\tfunction test1(address recipie...\n      SWAP1 \t\t\tfunction test1(address recipie...\n      PUSH [tag] 14\t\t\tfunction test1(address recipie...\n      JUMP \t\t\tfunction test1(address recipie...\n    tag 41\t\t\tfunction test1(address recipie...\n      JUMPDEST \t\t\tfunction test1(address recipie...\n      PUSH 40\t\t\tfunction test1(address recipie...\n      MLOAD \t\t\tfunction test1(address recipie...\n      DUP1 \t\t\tfunction test1(address recipie...\n      SWAP2 \t\t\tfunction test1(address recipie...\n      SUB \t\t\tfunction test1(address recipie...\n      SWAP1 \t\t\tfunction test1(address recipie...\n      RETURN \t\t\tfunction test1(address recipie...\n    tag 8\t\t\tfunction test2(address recipie...\n      JUMPDEST \t\t\tfunction test2(address recipie...\n      CALLVALUE \t\t\tfunction test2(address recipie...\n      DUP1 \t\t\tfunction test2(address recipie...\n      ISZERO \t\t\tfunction test2(address recipie...\n      PUSH [tag] 42\t\t\tfunction test2(address recipie...\n      JUMPI \t\t\tfunction test2(address recipie...\n      PUSH 0\t\t\tfunction test2(address recipie...\n      DUP1 \t\t\tfunction test2(address recipie...\n      REVERT \t\t\tfunction test2(address recipie...\n    tag 42\t\t\tfunction test2(address recipie...\n      JUMPDEST \t\t\tfunction test2(address recipie...\n      POP \t\t\tfunction test2(address recipie...\n      PUSH [tag] 43\t\t\tfunction test2(address recipie...\n      PUSH 4\t\t\tfunction test2(address recipie...\n      DUP1 \t\t\tfunction test2(address recipie...\n      CALLDATASIZE \t\t\tfunction test2(address recipie...\n      SUB \t\t\tfunction test2(address recipie...\n      DUP2 \t\t\tfunction test2(address recipie...\n      ADD \t\t\tfunction test2(address recipie...\n      SWAP1 \t\t\tfunction test2(address recipie...\n      PUSH [tag] 44\t\t\tfunction test2(address recipie...\n      SWAP2 \t\t\tfunction test2(address recipie...\n      SWAP1 \t\t\tfunction test2(address recipie...\n      PUSH [tag] 39\t\t\tfunction test2(address recipie...\n      JUMP \t\t\tfunction test2(address recipie...\n    tag 44\t\t\tfunction test2(address recipie...\n      JUMPDEST \t\t\tfunction test2(address recipie...\n      PUSH [tag] 45\t\t\tfunction test2(address recipie...\n      JUMP \t\t\tfunction test2(address recipie...\n    tag 43\t\t\tfunction test2(address recipie...\n      JUMPDEST \t\t\tfunction test2(address recipie...\n      PUSH 40\t\t\tfunction test2(address recipie...\n      MLOAD \t\t\tfunction test2(address recipie...\n      PUSH [tag] 46\t\t\tfunction test2(address recipie...\n      SWAP2 \t\t\tfunction test2(address recipie...\n      SWAP1 \t\t\tfunction test2(address recipie...\n      PUSH [tag] 14\t\t\tfunction test2(address recipie...\n      JUMP \t\t\tfunction test2(address recipie...\n    tag 46\t\t\tfunction test2(address recipie...\n      JUMPDEST \t\t\tfunction test2(address recipie...\n      PUSH 40\t\t\tfunction test2(address recipie...\n      MLOAD \t\t\tfunction test2(address recipie...\n      DUP1 \t\t\tfunction test2(address recipie...\n      SWAP2 \t\t\tfunction test2(address recipie...\n      SUB \t\t\tfunction test2(address recipie...\n      SWAP1 \t\t\tfunction test2(address recipie...\n      RETURN \t\t\tfunction test2(address recipie...\n    tag 12\t\t\tfunction test3()public view re...\n      JUMPDEST \t\t\tfunction test3()public view re...\n      PUSH 0\t\t\tbytes32\n      PUSH 2\t\t\t_initKey\n      SLOAD \t\t\t_initKey\n      SWAP1 \t\t\treturn  _initKey\n      POP \t\t\treturn  _initKey\n      SWAP1 \t\t\tfunction test3()public view re...\n      JUMP \t\t\tfunction test3()public view re...\n    tag 17\t\t\tfunction getBalance() public v...\n      JUMPDEST \t\t\tfunction getBalance() public v...\n      PUSH 0\t\t\tuint256\n      SELFBALANCE \t\t\taddress(this).balance\n      SWAP1 \t\t\treturn address(this).balance\n      POP \t\t\treturn address(this).balance\n      SWAP1 \t\t\tfunction getBalance() public v...\n      JUMP \t\t\tfunction getBalance() public v...\n    tag 23\t\t\tfunction pay(address recipient...\n      JUMPDEST \t\t\tfunction pay(address recipient...\n      PUSH [tag] 49\t\t\tencryptionResult memory\n      PUSH [tag] 50\t\t\tencryptionResult memory\n      JUMP \t\t\tencryptionResult memory\n    tag 49\t\t\tencryptionResult memory\n      JUMPDEST \t\t\tencryptionResult memory\n      PUSH [tag] 52\t\t\tuserAuthorized(recipient, secr...\n      DUP8 \t\t\trecipient\n      DUP5 \t\t\tsecret\n      DUP5 \t\t\ttoken\n      PUSH [tag] 53\t\t\tuserAuthorized\n      JUMP \t\t\tuserAuthorized(recipient, secr...\n    tag 52\t\t\tuserAuthorized(recipient, secr...\n      JUMPDEST \t\t\tuserAuthorized(recipient, secr...\n      SELFBALANCE \t\t\taddress(this).balance\n      DUP7 \t\t\tamount\n      GT \t\t\tamount <= address(this).balanc...\n      ISZERO \t\t\tamount <= address(this).balanc...\n      PUSH [tag] 54\t\t\trequire(amount <= address(this...\n      JUMPI \t\t\trequire(amount <= address(this...\n      PUSH 40\t\t\trequire(amount <= address(this...\n      MLOAD \t\t\trequire(amount <= address(this...\n      PUSH 8C379A000000000000000000000000000000000000000000000000000000000\t\t\trequire(amount <= address(this...\n      DUP2 \t\t\trequire(amount <= address(this...\n      MSTORE \t\t\trequire(amount <= address(this...\n      PUSH 4\t\t\trequire(amount <= address(this...\n      ADD \t\t\trequire(amount <= address(this...\n      PUSH [tag] 55\t\t\trequire(amount <= address(this...\n      SWAP1 \t\t\trequire(amount <= address(this...\n      PUSH [tag] 56\t\t\trequire(amount <= address(this...\n      JUMP \t\t\trequire(amount <= address(this...\n    tag 55\t\t\trequire(amount <= address(this...\n      JUMPDEST \t\t\trequire(amount <= address(this...\n      PUSH 40\t\t\trequire(amount <= address(this...\n      MLOAD \t\t\trequire(amount <= address(this...\n      DUP1 \t\t\trequire(amount <= address(this...\n      SWAP2 \t\t\trequire(amount <= address(this...\n      SUB \t\t\trequire(amount <= address(this...\n      SWAP1 \t\t\trequire(amount <= address(this...\n      REVERT \t\t\trequire(amount <= address(this...\n    tag 54\t\t\trequire(amount <= address(this...\n      JUMPDEST \t\t\trequire(amount <= address(this...\n      DUP5 \t\t\tcampaignCount\n      DUP5 \t\t\tshoppingCount\n      LT \t\t\tshoppingCount >= campaignCount\n      PUSH [tag] 57\t\t\tif(shoppingCount >= campaignCo...\n      JUMPI \t\t\tif(shoppingCount >= campaignCo...\n      PUSH 0\t\t\tbool success\n      DUP8 \t\t\trecipient\n      PUSH FFFFFFFFFFFFFFFFFFFFFFFFFFFFFFFFFFFFFFFF\t\t\tpayable(recipient).send\n      AND \t\t\tpayable(recipient).send\n      PUSH 8FC\t\t\tpayable(recipient).send(amount...\n      DUP9 \t\t\tamount\n      SWAP1 \t\t\tpayable(recipient).send(amount...\n      DUP2 \t\t\tpayable(recipient).send(amount...\n      ISZERO \t\t\tpayable(recipient).send(amount...\n      MUL \t\t\tpayable(recipient).send(amount...\n      SWAP1 \t\t\tpayable(recipient).send(amount...\n      PUSH 40\t\t\tpayable(recipient).send(amount...\n      MLOAD \t\t\tpayable(recipient).send(amount...\n      PUSH 0\t\t\tpayable(recipient).send(amount...\n      PUSH 40\t\t\tpayable(recipient).send(amount...\n      MLOAD \t\t\tpayable(recipient).send(amount...\n      DUP1 \t\t\tpayable(recipient).send(amount...\n      DUP4 \t\t\tpayable(recipient).send(amount...\n      SUB \t\t\tpayable(recipient).send(amount...\n      DUP2 \t\t\tpayable(recipient).send(amount...\n      DUP6 \t\t\tpayable(recipient).send(amount...\n      DUP9 \t\t\tpayable(recipient).send(amount...\n      DUP9 \t\t\tpayable(recipient).send(amount...\n      CALL \t\t\tpayable(recipient).send(amount...\n      SWAP4 \t\t\tpayable(recipient).send(amount...\n      POP \t\t\tpayable(recipient).send(amount...\n      POP \t\t\tpayable(recipient).send(amount...\n      POP \t\t\tpayable(recipient).send(amount...\n      POP \t\t\tpayable(recipient).send(amount...\n      SWAP1 \t\t\tbool success = payable(recipie...\n      POP \t\t\tbool success = payable(recipie...\n      DUP1 \t\t\tsuccess\n      PUSH [tag] 59\t\t\trequire(success, \"Transfer fai...\n      JUMPI \t\t\trequire(success, \"Transfer fai...\n      PUSH 40\t\t\trequire(success, \"Transfer fai...\n      MLOAD \t\t\trequire(success, \"Transfer fai...\n      PUSH 8C379A000000000000000000000000000000000000000000000000000000000\t\t\trequire(success, \"Transfer fai...\n      DUP2 \t\t\trequire(success, \"Transfer fai...\n      MSTORE \t\t\trequire(success, \"Transfer fai...\n      PUSH 4\t\t\trequire(success, \"Transfer fai...\n      ADD \t\t\trequire(success, \"Transfer fai...\n      PUSH [tag] 60\t\t\trequire(success, \"Transfer fai...\n      SWAP1 \t\t\trequire(success, \"Transfer fai...\n      PUSH [tag] 61\t\t\trequire(success, \"Transfer fai...\n      JUMP \t\t\trequire(success, \"Transfer fai...\n    tag 60\t\t\trequire(success, \"Transfer fai...\n      JUMPDEST \t\t\trequire(success, \"Transfer fai...\n      PUSH 40\t\t\trequire(success, \"Transfer fai...\n      MLOAD \t\t\trequire(success, \"Transfer fai...\n      DUP1 \t\t\trequire(success, \"Transfer fai...\n      SWAP2 \t\t\trequire(success, \"Transfer fai...\n      SUB \t\t\trequire(success, \"Transfer fai...\n      SWAP1 \t\t\trequire(success, \"Transfer fai...\n      REVERT \t\t\trequire(success, \"Transfer fai...\n    tag 59\t\t\trequire(success, \"Transfer fai...\n      JUMPDEST \t\t\trequire(success, \"Transfer fai...\n      PUSH [tag] 62\t\t\tencrypt(recipient)\n      DUP9 \t\t\trecipient\n      PUSH [tag] 63\t\t\tencrypt\n      JUMP \t\t\tencrypt(recipient)\n    tag 62\t\t\tencrypt(recipient)\n      JUMPDEST \t\t\tencrypt(recipient)\n      SWAP2 \t\t\treturn encrypt(recipient)\n      POP \t\t\treturn encrypt(recipient)\n      POP \t\t\treturn encrypt(recipient)\n      PUSH [tag] 51\t\t\treturn encrypt(recipient)\n      JUMP \t\t\treturn encrypt(recipient)\n    tag 57\t\t\tif(shoppingCount >= campaignCo...\n      JUMPDEST \t\t\tif(shoppingCount >= campaignCo...\n      PUSH 40\t\t\trevert(\"User not Eligible!\")\n      MLOAD \t\t\trevert(\"User not Eligible!\")\n      PUSH 8C379A000000000000000000000000000000000000000000000000000000000\t\t\trevert(\"User not Eligible!\")\n      DUP2 \t\t\trevert(\"User not Eligible!\")\n      MSTORE \t\t\trevert(\"User not Eligible!\")\n      PUSH 4\t\t\trevert(\"User not Eligible!\")\n      ADD \t\t\trevert(\"User not Eligible!\")\n      PUSH [tag] 65\t\t\trevert(\"User not Eligible!\")\n      SWAP1 \t\t\trevert(\"User not Eligible!\")\n      PUSH [tag] 66\t\t\trevert(\"User not Eligible!\")\n      JUMP \t\t\trevert(\"User not Eligible!\")\n    tag 65\t\t\trevert(\"User not Eligible!\")\n      JUMPDEST \t\t\trevert(\"User not Eligible!\")\n      PUSH 40\t\t\trevert(\"User not Eligible!\")\n      MLOAD \t\t\trevert(\"User not Eligible!\")\n      DUP1 \t\t\trevert(\"User not Eligible!\")\n      SWAP2 \t\t\trevert(\"User not Eligible!\")\n      SUB \t\t\trevert(\"User not Eligible!\")\n      SWAP1 \t\t\trevert(\"User not Eligible!\")\n      REVERT \t\t\trevert(\"User not Eligible!\")\n    tag 51\t\t\tfunction pay(address recipient...\n      JUMPDEST \t\t\tfunction pay(address recipient...\n      SWAP7 \t\t\tfunction pay(address recipient...\n      SWAP6 \t\t\tfunction pay(address recipient...\n      POP \t\t\tfunction pay(address recipient...\n      POP \t\t\tfunction pay(address recipient...\n      POP \t\t\tfunction pay(address recipient...\n      POP \t\t\tfunction pay(address recipient...\n      POP \t\t\tfunction pay(address recipient...\n      POP \t\t\tfunction pay(address recipient...\n      JUMP \t\t\tfunction pay(address recipient...\n    tag 30\t\t\tfunction test5(address recipie...\n      JUMPDEST \t\t\tfunction test5(address recipie...\n      PUSH 0\t\t\tbytes32\n      PUSH [tag] 68\t\t\tdecrypt(recipient, key)\n      DUP4 \t\t\trecipient\n      DUP4 \t\t\tkey\n      PUSH [tag] 69\t\t\tdecrypt\n      JUMP \t\t\tdecrypt(recipient, key)\n    tag 68\t\t\tdecrypt(recipient, key)\n      JUMPDEST \t\t\tdecrypt(recipient, key)\n      SWAP1 \t\t\treturn decrypt(recipient, key)\n      POP \t\t\treturn decrypt(recipient, key)\n      SWAP3 \t\t\tfunction test5(address recipie...\n      SWAP2 \t\t\tfunction test5(address recipie...\n      POP \t\t\tfunction test5(address recipie...\n      POP \t\t\tfunction test5(address recipie...\n      JUMP \t\t\tfunction test5(address recipie...\n    tag 34\t\t\tfunction test4()public view re...\n      JUMPDEST \t\t\tfunction test4()public view re...\n      PUSH 0\t\t\tbytes32\n      PUSH 1\t\t\t_secretHash\n      SLOAD \t\t\t_secretHash\n      SWAP1 \t\t\treturn  _secretHash\n      POP \t\t\treturn  _secretHash\n      SWAP1 \t\t\tfunction test4()public view re...\n      JUMP \t\t\tfunction test4()public view re...\n    tag 40\t\t\tfunction test1(address recipie...\n      JUMPDEST \t\t\tfunction test1(address recipie...\n      PUSH 0\t\t\tbytes32\n      PUSH 4\t\t\t_usersAuthKey\n      PUSH 0\t\t\t_usersAuthKey[recipient]\n      DUP4 \t\t\trecipient\n      PUSH FFFFFFFFFFFFFFFFFFFFFFFFFFFFFFFFFFFFFFFF\t\t\t_usersAuthKey[recipient]\n      AND \t\t\t_usersAuthKey[recipient]\n      PUSH FFFFFFFFFFFFFFFFFFFFFFFFFFFFFFFFFFFFFFFF\t\t\t_usersAuthKey[recipient]\n      AND \t\t\t_usersAuthKey[recipient]\n      DUP2 \t\t\t_usersAuthKey[recipient]\n      MSTORE \t\t\t_usersAuthKey[recipient]\n      PUSH 20\t\t\t_usersAuthKey[recipient]\n      ADD \t\t\t_usersAuthKey[recipient]\n      SWAP1 \t\t\t_usersAuthKey[recipient]\n      DUP2 \t\t\t_usersAuthKey[recipient]\n      MSTORE \t\t\t_usersAuthKey[recipient]\n      PUSH 20\t\t\t_usersAuthKey[recipient]\n      ADD \t\t\t_usersAuthKey[recipient]\n      PUSH 0\t\t\t_usersAuthKey[recipient]\n      KECCAK256 \t\t\t_usersAuthKey[recipient]\n      SLOAD \t\t\t_usersAuthKey[recipient]\n      SWAP1 \t\t\treturn _usersAuthKey[recipient...\n      POP \t\t\treturn _usersAuthKey[recipient...\n      SWAP2 \t\t\tfunction test1(address recipie...\n      SWAP1 \t\t\tfunction test1(address recipie...\n      POP \t\t\tfunction test1(address recipie...\n      JUMP \t\t\tfunction test1(address recipie...\n    tag 45\t\t\tfunction test2(address recipie...\n      JUMPDEST \t\t\tfunction test2(address recipie...\n      PUSH 0\t\t\tbytes32\n      PUSH 3\t\t\t_usersAuthToken\n      PUSH 0\t\t\t_usersAuthToken[recipient]\n      DUP4 \t\t\trecipient\n      PUSH FFFFFFFFFFFFFFFFFFFFFFFFFFFFFFFFFFFFFFFF\t\t\t_usersAuthToken[recipient]\n      AND \t\t\t_usersAuthToken[recipient]\n      PUSH FFFFFFFFFFFFFFFFFFFFFFFFFFFFFFFFFFFFFFFF\t\t\t_usersAuthToken[recipient]\n      AND \t\t\t_usersAuthToken[recipient]\n      DUP2 \t\t\t_usersAuthToken[recipient]\n      MSTORE \t\t\t_usersAuthToken[recipient]\n      PUSH 20\t\t\t_usersAuthToken[recipient]\n      ADD \t\t\t_usersAuthToken[recipient]\n      SWAP1 \t\t\t_usersAuthToken[recipient]\n      DUP2 \t\t\t_usersAuthToken[recipient]\n      MSTORE \t\t\t_usersAuthToken[recipient]\n      PUSH 20\t\t\t_usersAuthToken[recipient]\n      ADD \t\t\t_usersAuthToken[recipient]\n      PUSH 0\t\t\t_usersAuthToken[recipient]\n      KECCAK256 \t\t\t_usersAuthToken[recipient]\n      SLOAD \t\t\t_usersAuthToken[recipient]\n      SWAP1 \t\t\treturn  _usersAuthToken[recipi...\n      POP \t\t\treturn  _usersAuthToken[recipi...\n      SWAP2 \t\t\tfunction test2(address recipie...\n      SWAP1 \t\t\tfunction test2(address recipie...\n      POP \t\t\tfunction test2(address recipie...\n      JUMP \t\t\tfunction test2(address recipie...\n    tag 53\t\t\tfunction userAuthorized(addres...\n      JUMPDEST \t\t\tfunction userAuthorized(addres...\n      PUSH 0\t\t\tbytes32 secretHash\n      PUSH 2\t\t\t_initKey\n      SLOAD \t\t\t_initKey\n      DUP4 \t\t\tsecret\n      XOR \t\t\tsecret ^ _initKey\n      SWAP1 \t\t\tbytes32 secretHash = secret ^ ...\n      POP \t\t\tbytes32 secretHash = secret ^ ...\n      PUSH 1\t\t\t_secretHash\n      SLOAD \t\t\t_secretHash\n      DUP2 \t\t\tsecretHash\n      EQ \t\t\tsecretHash == _secretHash\n      PUSH [tag] 74\t\t\trequire(secretHash == _secretH...\n      JUMPI \t\t\trequire(secretHash == _secretH...\n      PUSH 40\t\t\trequire(secretHash == _secretH...\n      MLOAD \t\t\trequire(secretHash == _secretH...\n      PUSH 8C379A000000000000000000000000000000000000000000000000000000000\t\t\trequire(secretHash == _secretH...\n      DUP2 \t\t\trequire(secretHash == _secretH...\n      MSTORE \t\t\trequire(secretHash == _secretH...\n      PUSH 4\t\t\trequire(secretHash == _secretH...\n      ADD \t\t\trequire(secretHash == _secretH...\n      PUSH [tag] 75\t\t\trequire(secretHash == _secretH...\n      SWAP1 \t\t\trequire(secretHash == _secretH...\n      PUSH [tag] 76\t\t\trequire(secretHash == _secretH...\n      JUMP \t\t\trequire(secretHash == _secretH...\n    tag 75\t\t\trequire(secretHash == _secretH...\n      JUMPDEST \t\t\trequire(secretHash == _secretH...\n      PUSH 40\t\t\trequire(secretHash == _secretH...\n      MLOAD \t\t\trequire(secretHash == _secretH...\n      DUP1 \t\t\trequire(secretHash == _secretH...\n      SWAP2 \t\t\trequire(secretHash == _secretH...\n      SUB \t\t\trequire(secretHash == _secretH...\n      SWAP1 \t\t\trequire(secretHash == _secretH...\n      REVERT \t\t\trequire(secretHash == _secretH...\n    tag 74\t\t\trequire(secretHash == _secretH...\n      JUMPDEST \t\t\trequire(secretHash == _secretH...\n      PUSH 0\t\t\tbytes32 _token\n      PUSH [tag] 77\t\t\tdecrypt(recipient, token)\n      DUP6 \t\t\trecipient\n      DUP5 \t\t\ttoken\n      PUSH [tag] 69\t\t\tdecrypt\n      JUMP \t\t\tdecrypt(recipient, token)\n    tag 77\t\t\tdecrypt(recipient, token)\n      JUMPDEST \t\t\tdecrypt(recipient, token)\n      SWAP1 \t\t\tbytes32 _token = decrypt(recip...\n      POP \t\t\tbytes32 _token = decrypt(recip...\n      PUSH 0\t\t\t0x0\n      DUP1 \t\t\t_usersAuthKey[recipient] != 0x...\n      SHL \t\t\t_usersAuthKey[recipient] != 0x...\n      PUSH 4\t\t\t_usersAuthKey\n      PUSH 0\t\t\t_usersAuthKey[recipient]\n      DUP8 \t\t\trecipient\n      PUSH FFFFFFFFFFFFFFFFFFFFFFFFFFFFFFFFFFFFFFFF\t\t\t_usersAuthKey[recipient]\n      AND \t\t\t_usersAuthKey[recipient]\n      PUSH FFFFFFFFFFFFFFFFFFFFFFFFFFFFFFFFFFFFFFFF\t\t\t_usersAuthKey[recipient]\n      AND \t\t\t_usersAuthKey[recipient]\n      DUP2 \t\t\t_usersAuthKey[recipient]\n      MSTORE \t\t\t_usersAuthKey[recipient]\n      PUSH 20\t\t\t_usersAuthKey[recipient]\n      ADD \t\t\t_usersAuthKey[recipient]\n      SWAP1 \t\t\t_usersAuthKey[recipient]\n      DUP2 \t\t\t_usersAuthKey[recipient]\n      MSTORE \t\t\t_usersAuthKey[recipient]\n      PUSH 20\t\t\t_usersAuthKey[recipient]\n      ADD \t\t\t_usersAuthKey[recipient]\n      PUSH 0\t\t\t_usersAuthKey[recipient]\n      KECCAK256 \t\t\t_usersAuthKey[recipient]\n      SLOAD \t\t\t_usersAuthKey[recipient]\n      EQ \t\t\t_usersAuthKey[recipient] != 0x...\n      PUSH [tag] 78\t\t\tif (_usersAuthKey[recipient] !...\n      JUMPI \t\t\tif (_usersAuthKey[recipient] !...\n      PUSH 3\t\t\t_usersAuthToken\n      PUSH 0\t\t\t_usersAuthToken[recipient]\n      DUP7 \t\t\trecipient\n      PUSH FFFFFFFFFFFFFFFFFFFFFFFFFFFFFFFFFFFFFFFF\t\t\t_usersAuthToken[recipient]\n      AND \t\t\t_usersAuthToken[recipient]\n      PUSH FFFFFFFFFFFFFFFFFFFFFFFFFFFFFFFFFFFFFFFF\t\t\t_usersAuthToken[recipient]\n      AND \t\t\t_usersAuthToken[recipient]\n      DUP2 \t\t\t_usersAuthToken[recipient]\n      MSTORE \t\t\t_usersAuthToken[recipient]\n      PUSH 20\t\t\t_usersAuthToken[recipient]\n      ADD \t\t\t_usersAuthToken[recipient]\n      SWAP1 \t\t\t_usersAuthToken[recipient]\n      DUP2 \t\t\t_usersAuthToken[recipient]\n      MSTORE \t\t\t_usersAuthToken[recipient]\n      PUSH 20\t\t\t_usersAuthToken[recipient]\n      ADD \t\t\t_usersAuthToken[recipient]\n      PUSH 0\t\t\t_usersAuthToken[recipient]\n      KECCAK256 \t\t\t_usersAuthToken[recipient]\n      SLOAD \t\t\t_usersAuthToken[recipient]\n      DUP2 \t\t\t_token\n      EQ \t\t\t_token == _usersAuthToken[reci...\n      PUSH [tag] 79\t\t\trequire(_token == _usersAuthTo...\n      JUMPI \t\t\trequire(_token == _usersAuthTo...\n      PUSH 40\t\t\trequire(_token == _usersAuthTo...\n      MLOAD \t\t\trequire(_token == _usersAuthTo...\n      PUSH 8C379A000000000000000000000000000000000000000000000000000000000\t\t\trequire(_token == _usersAuthTo...\n      DUP2 \t\t\trequire(_token == _usersAuthTo...\n      MSTORE \t\t\trequire(_token == _usersAuthTo...\n      PUSH 4\t\t\trequire(_token == _usersAuthTo...\n      ADD \t\t\trequire(_token == _usersAuthTo...\n      PUSH [tag] 80\t\t\trequire(_token == _usersAuthTo...\n      SWAP1 \t\t\trequire(_token == _usersAuthTo...\n      PUSH [tag] 81\t\t\trequire(_token == _usersAuthTo...\n      JUMP \t\t\trequire(_token == _usersAuthTo...\n    tag 80\t\t\trequire(_token == _usersAuthTo...\n      JUMPDEST \t\t\trequire(_token == _usersAuthTo...\n      PUSH 40\t\t\trequire(_token == _usersAuthTo...\n      MLOAD \t\t\trequire(_token == _usersAuthTo...\n      DUP1 \t\t\trequire(_token == _usersAuthTo...\n      SWAP2 \t\t\trequire(_token == _usersAuthTo...\n      SUB \t\t\trequire(_token == _usersAuthTo...\n      SWAP1 \t\t\trequire(_token == _usersAuthTo...\n      REVERT \t\t\trequire(_token == _usersAuthTo...\n    tag 79\t\t\trequire(_token == _usersAuthTo...\n      JUMPDEST \t\t\trequire(_token == _usersAuthTo...\n    tag 78\t\t\tif (_usersAuthKey[recipient] !...\n      JUMPDEST \t\t\tif (_usersAuthKey[recipient] !...\n      POP \t\t\t{\\r\\n      \\r\\n        bytes32...\n      POP \t\t\t{\\r\\n      \\r\\n        bytes32...\n      POP \t\t\tfunction userAuthorized(addres...\n      POP \t\t\tfunction userAuthorized(addres...\n      POP \t\t\tfunction userAuthorized(addres...\n      JUMP \t\t\tfunction userAuthorized(addres...\n    tag 63\t\t\tfunction encrypt(address recip...\n      JUMPDEST \t\t\tfunction encrypt(address recip...\n      PUSH [tag] 82\t\t\tencryptionResult memory\n      PUSH [tag] 50\t\t\tencryptionResult memory\n      JUMP \t\t\tencryptionResult memory\n    tag 82\t\t\tencryptionResult memory\n      JUMPDEST \t\t\tencryptionResult memory\n      PUSH 0\t\t\t0x0\n      DUP1 \t\t\t_usersAuthKey[recipient] == 0x...\n      SHL \t\t\t_usersAuthKey[recipient] == 0x...\n      PUSH 4\t\t\t_usersAuthKey\n      PUSH 0\t\t\t_usersAuthKey[recipient]\n      DUP5 \t\t\trecipient\n      PUSH FFFFFFFFFFFFFFFFFFFFFFFFFFFFFFFFFFFFFFFF\t\t\t_usersAuthKey[recipient]\n      AND \t\t\t_usersAuthKey[recipient]\n      PUSH FFFFFFFFFFFFFFFFFFFFFFFFFFFFFFFFFFFFFFFF\t\t\t_usersAuthKey[recipient]\n      AND \t\t\t_usersAuthKey[recipient]\n      DUP2 \t\t\t_usersAuthKey[recipient]\n      MSTORE \t\t\t_usersAuthKey[recipient]\n      PUSH 20\t\t\t_usersAuthKey[recipient]\n      ADD \t\t\t_usersAuthKey[recipient]\n      SWAP1 \t\t\t_usersAuthKey[recipient]\n      DUP2 \t\t\t_usersAuthKey[recipient]\n      MSTORE \t\t\t_usersAuthKey[recipient]\n      PUSH 20\t\t\t_usersAuthKey[recipient]\n      ADD \t\t\t_usersAuthKey[recipient]\n      PUSH 0\t\t\t_usersAuthKey[recipient]\n      KECCAK256 \t\t\t_usersAuthKey[recipient]\n      SLOAD \t\t\t_usersAuthKey[recipient]\n      SUB \t\t\t_usersAuthKey[recipient] == 0x...\n      PUSH [tag] 84\t\t\tif (_usersAuthKey[recipient] =...\n      JUMPI \t\t\tif (_usersAuthKey[recipient] =...\n      PUSH 1\t\t\t1\n      NUMBER \t\t\tblock.number\n      PUSH [tag] 85\t\t\tblock.number - 1\n      SWAP2 \t\t\tblock.number - 1\n      SWAP1 \t\t\tblock.number - 1\n      PUSH [tag] 86\t\t\tblock.number - 1\n      JUMP \t\t\tblock.number - 1\n    tag 85\t\t\tblock.number - 1\n      JUMPDEST \t\t\tblock.number - 1\n      BLOCKHASH \t\t\tblockhash(block.number - 1)\n      TIMESTAMP \t\t\tblock.timestamp\n      CALLER \t\t\tmsg.sender\n      PUSH 40\t\t\tabi.encodePacked(blockhash(blo...\n      MLOAD \t\t\tabi.encodePacked(blockhash(blo...\n      PUSH 20\t\t\tabi.encodePacked(blockhash(blo...\n      ADD \t\t\tabi.encodePacked(blockhash(blo...\n      PUSH [tag] 87\t\t\tabi.encodePacked(blockhash(blo...\n      SWAP4 \t\t\tabi.encodePacked(blockhash(blo...\n      SWAP3 \t\t\tabi.encodePacked(blockhash(blo...\n      SWAP2 \t\t\tabi.encodePacked(blockhash(blo...\n      SWAP1 \t\t\tabi.encodePacked(blockhash(blo...\n      PUSH [tag] 88\t\t\tabi.encodePacked(blockhash(blo...\n      JUMP \t\t\tabi.encodePacked(blockhash(blo...\n    tag 87\t\t\tabi.encodePacked(blockhash(blo...\n      JUMPDEST \t\t\tabi.encodePacked(blockhash(blo...\n      PUSH 40\t\t\tabi.encodePacked(blockhash(blo...\n      MLOAD \t\t\tabi.encodePacked(blockhash(blo...\n      PUSH 20\t\t\tabi.encodePacked(blockhash(blo...\n      DUP2 \t\t\tabi.encodePacked(blockhash(blo...\n      DUP4 \t\t\tabi.encodePacked(blockhash(blo...\n      SUB \t\t\tabi.encodePacked(blockhash(blo...\n      SUB \t\t\tabi.encodePacked(blockhash(blo...\n      DUP2 \t\t\tabi.encodePacked(blockhash(blo...\n      MSTORE \t\t\tabi.encodePacked(blockhash(blo...\n      SWAP1 \t\t\tabi.encodePacked(blockhash(blo...\n      PUSH 40\t\t\tabi.encodePacked(blockhash(blo...\n      MSTORE \t\t\tabi.encodePacked(blockhash(blo...\n      DUP1 \t\t\tkeccak256(abi.encodePacked(blo...\n      MLOAD \t\t\tkeccak256(abi.encodePacked(blo...\n      SWAP1 \t\t\tkeccak256(abi.encodePacked(blo...\n      PUSH 20\t\t\tkeccak256(abi.encodePacked(blo...\n      ADD \t\t\tkeccak256(abi.encodePacked(blo...\n      KECCAK256 \t\t\tkeccak256(abi.encodePacked(blo...\n      PUSH 4\t\t\t_usersAuthKey\n      PUSH 0\t\t\t_usersAuthKey[recipient]\n      DUP5 \t\t\trecipient\n      PUSH FFFFFFFFFFFFFFFFFFFFFFFFFFFFFFFFFFFFFFFF\t\t\t_usersAuthKey[recipient]\n      AND \t\t\t_usersAuthKey[recipient]\n      PUSH FFFFFFFFFFFFFFFFFFFFFFFFFFFFFFFFFFFFFFFF\t\t\t_usersAuthKey[recipient]\n      AND \t\t\t_usersAuthKey[recipient]\n      DUP2 \t\t\t_usersAuthKey[recipient]\n      MSTORE \t\t\t_usersAuthKey[recipient]\n      PUSH 20\t\t\t_usersAuthKey[recipient]\n      ADD \t\t\t_usersAuthKey[recipient]\n      SWAP1 \t\t\t_usersAuthKey[recipient]\n      DUP2 \t\t\t_usersAuthKey[recipient]\n      MSTORE \t\t\t_usersAuthKey[recipient]\n      PUSH 20\t\t\t_usersAuthKey[recipient]\n      ADD \t\t\t_usersAuthKey[recipient]\n      PUSH 0\t\t\t_usersAuthKey[recipient]\n      KECCAK256 \t\t\t_usersAuthKey[recipient]\n      DUP2 \t\t\t_usersAuthKey[recipient] = kec...\n      SWAP1 \t\t\t_usersAuthKey[recipient] = kec...\n      SSTORE \t\t\t_usersAuthKey[recipient] = kec...\n      POP \t\t\t_usersAuthKey[recipient] = kec...\n      PUSH 1\t\t\t1\n      NUMBER \t\t\tblock.number\n      PUSH [tag] 89\t\t\tblock.number - 1\n      SWAP2 \t\t\tblock.number - 1\n      SWAP1 \t\t\tblock.number - 1\n      PUSH [tag] 86\t\t\tblock.number - 1\n      JUMP \t\t\tblock.number - 1\n    tag 89\t\t\tblock.number - 1\n      JUMPDEST \t\t\tblock.number - 1\n      BLOCKHASH \t\t\tblockhash(block.number - 1)\n      TIMESTAMP \t\t\tblock.timestamp\n      CALLER \t\t\tmsg.sender\n      PUSH 40\t\t\tabi.encodePacked(blockhash(blo...\n      MLOAD \t\t\tabi.encodePacked(blockhash(blo...\n      PUSH 20\t\t\tabi.encodePacked(blockhash(blo...\n      ADD \t\t\tabi.encodePacked(blockhash(blo...\n      PUSH [tag] 90\t\t\tabi.encodePacked(blockhash(blo...\n      SWAP4 \t\t\tabi.encodePacked(blockhash(blo...\n      SWAP3 \t\t\tabi.encodePacked(blockhash(blo...\n      SWAP2 \t\t\tabi.encodePacked(blockhash(blo...\n      SWAP1 \t\t\tabi.encodePacked(blockhash(blo...\n      PUSH [tag] 91\t\t\tabi.encodePacked(blockhash(blo...\n      JUMP \t\t\tabi.encodePacked(blockhash(blo...\n    tag 90\t\t\tabi.encodePacked(blockhash(blo...\n      JUMPDEST \t\t\tabi.encodePacked(blockhash(blo...\n      PUSH 40\t\t\tabi.encodePacked(blockhash(blo...\n      MLOAD \t\t\tabi.encodePacked(blockhash(blo...\n      PUSH 20\t\t\tabi.encodePacked(blockhash(blo...\n      DUP2 \t\t\tabi.encodePacked(blockhash(blo...\n      DUP4 \t\t\tabi.encodePacked(blockhash(blo...\n      SUB \t\t\tabi.encodePacked(blockhash(blo...\n      SUB \t\t\tabi.encodePacked(blockhash(blo...\n      DUP2 \t\t\tabi.encodePacked(blockhash(blo...\n      MSTORE \t\t\tabi.encodePacked(blockhash(blo...\n      SWAP1 \t\t\tabi.encodePacked(blockhash(blo...\n      PUSH 40\t\t\tabi.encodePacked(blockhash(blo...\n      MSTORE \t\t\tabi.encodePacked(blockhash(blo...\n      DUP1 \t\t\tkeccak256(abi.encodePacked(blo...\n      MLOAD \t\t\tkeccak256(abi.encodePacked(blo...\n      SWAP1 \t\t\tkeccak256(abi.encodePacked(blo...\n      PUSH 20\t\t\tkeccak256(abi.encodePacked(blo...\n      ADD \t\t\tkeccak256(abi.encodePacked(blo...\n      KECCAK256 \t\t\tkeccak256(abi.encodePacked(blo...\n      PUSH 3\t\t\t_usersAuthToken\n      PUSH 0\t\t\t_usersAuthToken[recipient]\n      DUP5 \t\t\trecipient\n      PUSH FFFFFFFFFFFFFFFFFFFFFFFFFFFFFFFFFFFFFFFF\t\t\t_usersAuthToken[recipient]\n      AND \t\t\t_usersAuthToken[recipient]\n      PUSH FFFFFFFFFFFFFFFFFFFFFFFFFFFFFFFFFFFFFFFF\t\t\t_usersAuthToken[recipient]\n      AND \t\t\t_usersAuthToken[recipient]\n      DUP2 \t\t\t_usersAuthToken[recipient]\n      MSTORE \t\t\t_usersAuthToken[recipient]\n      PUSH 20\t\t\t_usersAuthToken[recipient]\n      ADD \t\t\t_usersAuthToken[recipient]\n      SWAP1 \t\t\t_usersAuthToken[recipient]\n      DUP2 \t\t\t_usersAuthToken[recipient]\n      MSTORE \t\t\t_usersAuthToken[recipient]\n      PUSH 20\t\t\t_usersAuthToken[recipient]\n      ADD \t\t\t_usersAuthToken[recipient]\n      PUSH 0\t\t\t_usersAuthToken[recipient]\n      KECCAK256 \t\t\t_usersAuthToken[recipient]\n      DUP2 \t\t\t_usersAuthToken[recipient] = k...\n      SWAP1 \t\t\t_usersAuthToken[recipient] = k...\n      SSTORE \t\t\t_usersAuthToken[recipient] = k...\n      POP \t\t\t_usersAuthToken[recipient] = k...\n      PUSH 0\t\t\tbytes32 encKey\n      PUSH 2\t\t\t_initKey\n      SLOAD \t\t\t_initKey\n      PUSH 4\t\t\t_usersAuthKey\n      PUSH 0\t\t\t_usersAuthKey[recipient]\n      DUP6 \t\t\trecipient\n      PUSH FFFFFFFFFFFFFFFFFFFFFFFFFFFFFFFFFFFFFFFF\t\t\t_usersAuthKey[recipient]\n      AND \t\t\t_usersAuthKey[recipient]\n      PUSH FFFFFFFFFFFFFFFFFFFFFFFFFFFFFFFFFFFFFFFF\t\t\t_usersAuthKey[recipient]\n      AND \t\t\t_usersAuthKey[recipient]\n      DUP2 \t\t\t_usersAuthKey[recipient]\n      MSTORE \t\t\t_usersAuthKey[recipient]\n      PUSH 20\t\t\t_usersAuthKey[recipient]\n      ADD \t\t\t_usersAuthKey[recipient]\n      SWAP1 \t\t\t_usersAuthKey[recipient]\n      DUP2 \t\t\t_usersAuthKey[recipient]\n      MSTORE \t\t\t_usersAuthKey[recipient]\n      PUSH 20\t\t\t_usersAuthKey[recipient]\n      ADD \t\t\t_usersAuthKey[recipient]\n      PUSH 0\t\t\t_usersAuthKey[recipient]\n      KECCAK256 \t\t\t_usersAuthKey[recipient]\n      SLOAD \t\t\t_usersAuthKey[recipient]\n      XOR \t\t\t_usersAuthKey[recipient]  ^ _i...\n      SWAP1 \t\t\tbytes32 encKey = _usersAuthKey...\n      POP \t\t\tbytes32 encKey = _usersAuthKey...\n      PUSH 0\t\t\tbytes32 encToken\n      PUSH 2\t\t\t_initKey\n      SLOAD \t\t\t_initKey\n      PUSH 3\t\t\t_usersAuthToken\n      PUSH 0\t\t\t_usersAuthToken[recipient]\n      DUP7 \t\t\trecipient\n      PUSH FFFFFFFFFFFFFFFFFFFFFFFFFFFFFFFFFFFFFFFF\t\t\t_usersAuthToken[recipient]\n      AND \t\t\t_usersAuthToken[recipient]\n      PUSH FFFFFFFFFFFFFFFFFFFFFFFFFFFFFFFFFFFFFFFF\t\t\t_usersAuthToken[recipient]\n      AND \t\t\t_usersAuthToken[recipient]\n      DUP2 \t\t\t_usersAuthToken[recipient]\n      MSTORE \t\t\t_usersAuthToken[recipient]\n      PUSH 20\t\t\t_usersAuthToken[recipient]\n      ADD \t\t\t_usersAuthToken[recipient]\n      SWAP1 \t\t\t_usersAuthToken[recipient]\n      DUP2 \t\t\t_usersAuthToken[recipient]\n      MSTORE \t\t\t_usersAuthToken[recipient]\n      PUSH 20\t\t\t_usersAuthToken[recipient]\n      ADD \t\t\t_usersAuthToken[recipient]\n      PUSH 0\t\t\t_usersAuthToken[recipient]\n      KECCAK256 \t\t\t_usersAuthToken[recipient]\n      SLOAD \t\t\t_usersAuthToken[recipient]\n      XOR \t\t\t_usersAuthToken[recipient]  ^ ...\n      SWAP1 \t\t\tbytes32 encToken = _usersAuthT...\n      POP \t\t\tbytes32 encToken = _usersAuthT...\n      PUSH 40\t\t\tencryptionResult({ key: encKey...\n      MLOAD \t\t\tencryptionResult({ key: encKey...\n      DUP1 \t\t\tencryptionResult({ key: encKey...\n      PUSH 40\t\t\tencryptionResult({ key: encKey...\n      ADD \t\t\tencryptionResult({ key: encKey...\n      PUSH 40\t\t\tencryptionResult({ key: encKey...\n      MSTORE \t\t\tencryptionResult({ key: encKey...\n      DUP1 \t\t\tencryptionResult({ key: encKey...\n      DUP4 \t\t\tencKey\n      DUP2 \t\t\tencryptionResult({ key: encKey...\n      MSTORE \t\t\tencryptionResult({ key: encKey...\n      PUSH 20\t\t\tencryptionResult({ key: encKey...\n      ADD \t\t\tencryptionResult({ key: encKey...\n      DUP3 \t\t\tencToken\n      DUP2 \t\t\tencryptionResult({ key: encKey...\n      MSTORE \t\t\tencryptionResult({ key: encKey...\n      POP \t\t\tencryptionResult({ key: encKey...\n      SWAP3 \t\t\treturn encryptionResult({ key:...\n      POP \t\t\treturn encryptionResult({ key:...\n      POP \t\t\treturn encryptionResult({ key:...\n      POP \t\t\treturn encryptionResult({ key:...\n      PUSH [tag] 83\t\t\treturn encryptionResult({ key:...\n      JUMP \t\t\treturn encryptionResult({ key:...\n    tag 84\t\t\tif (_usersAuthKey[recipient] =...\n      JUMPDEST \t\t\tif (_usersAuthKey[recipient] =...\n      PUSH 1\t\t\t1\n      NUMBER \t\t\tblock.number\n      PUSH [tag] 93\t\t\tblock.number - 1\n      SWAP2 \t\t\tblock.number - 1\n      SWAP1 \t\t\tblock.number - 1\n      PUSH [tag] 86\t\t\tblock.number - 1\n      JUMP \t\t\tblock.number - 1\n    tag 93\t\t\tblock.number - 1\n      JUMPDEST \t\t\tblock.number - 1\n      BLOCKHASH \t\t\tblockhash(block.number - 1)\n      TIMESTAMP \t\t\tblock.timestamp\n      CALLER \t\t\tmsg.sender\n      PUSH 40\t\t\tabi.encodePacked(blockhash(blo...\n      MLOAD \t\t\tabi.encodePacked(blockhash(blo...\n      PUSH 20\t\t\tabi.encodePacked(blockhash(blo...\n      ADD \t\t\tabi.encodePacked(blockhash(blo...\n      PUSH [tag] 94\t\t\tabi.encodePacked(blockhash(blo...\n      SWAP4 \t\t\tabi.encodePacked(blockhash(blo...\n      SWAP3 \t\t\tabi.encodePacked(blockhash(blo...\n      SWAP2 \t\t\tabi.encodePacked(blockhash(blo...\n      SWAP1 \t\t\tabi.encodePacked(blockhash(blo...\n      PUSH [tag] 88\t\t\tabi.encodePacked(blockhash(blo...\n      JUMP \t\t\tabi.encodePacked(blockhash(blo...\n    tag 94\t\t\tabi.encodePacked(blockhash(blo...\n      JUMPDEST \t\t\tabi.encodePacked(blockhash(blo...\n      PUSH 40\t\t\tabi.encodePacked(blockhash(blo...\n      MLOAD \t\t\tabi.encodePacked(blockhash(blo...\n      PUSH 20\t\t\tabi.encodePacked(blockhash(blo...\n      DUP2 \t\t\tabi.encodePacked(blockhash(blo...\n      DUP4 \t\t\tabi.encodePacked(blockhash(blo...\n      SUB \t\t\tabi.encodePacked(blockhash(blo...\n      SUB \t\t\tabi.encodePacked(blockhash(blo...\n      DUP2 \t\t\tabi.encodePacked(blockhash(blo...\n      MSTORE \t\t\tabi.encodePacked(blockhash(blo...\n      SWAP1 \t\t\tabi.encodePacked(blockhash(blo...\n      PUSH 40\t\t\tabi.encodePacked(blockhash(blo...\n      MSTORE \t\t\tabi.encodePacked(blockhash(blo...\n      DUP1 \t\t\tkeccak256(abi.encodePacked(blo...\n      MLOAD \t\t\tkeccak256(abi.encodePacked(blo...\n      SWAP1 \t\t\tkeccak256(abi.encodePacked(blo...\n      PUSH 20\t\t\tkeccak256(abi.encodePacked(blo...\n      ADD \t\t\tkeccak256(abi.encodePacked(blo...\n      KECCAK256 \t\t\tkeccak256(abi.encodePacked(blo...\n      PUSH 4\t\t\t_usersAuthKey\n      PUSH 0\t\t\t_usersAuthKey[recipient]\n      DUP5 \t\t\trecipient\n      PUSH FFFFFFFFFFFFFFFFFFFFFFFFFFFFFFFFFFFFFFFF\t\t\t_usersAuthKey[recipient]\n      AND \t\t\t_usersAuthKey[recipient]\n      PUSH FFFFFFFFFFFFFFFFFFFFFFFFFFFFFFFFFFFFFFFF\t\t\t_usersAuthKey[recipient]\n      AND \t\t\t_usersAuthKey[recipient]\n      DUP2 \t\t\t_usersAuthKey[recipient]\n      MSTORE \t\t\t_usersAuthKey[recipient]\n      PUSH 20\t\t\t_usersAuthKey[recipient]\n      ADD \t\t\t_usersAuthKey[recipient]\n      SWAP1 \t\t\t_usersAuthKey[recipient]\n      DUP2 \t\t\t_usersAuthKey[recipient]\n      MSTORE \t\t\t_usersAuthKey[recipient]\n      PUSH 20\t\t\t_usersAuthKey[recipient]\n      ADD \t\t\t_usersAuthKey[recipient]\n      PUSH 0\t\t\t_usersAuthKey[recipient]\n      KECCAK256 \t\t\t_usersAuthKey[recipient]\n      DUP2 \t\t\t_usersAuthKey[recipient] = kec...\n      SWAP1 \t\t\t_usersAuthKey[recipient] = kec...\n      SSTORE \t\t\t_usersAuthKey[recipient] = kec...\n      POP \t\t\t_usersAuthKey[recipient] = kec...\n      PUSH 1\t\t\t1\n      NUMBER \t\t\tblock.number\n      PUSH [tag] 95\t\t\tblock.number - 1\n      SWAP2 \t\t\tblock.number - 1\n      SWAP1 \t\t\tblock.number - 1\n      PUSH [tag] 86\t\t\tblock.number - 1\n      JUMP \t\t\tblock.number - 1\n    tag 95\t\t\tblock.number - 1\n      JUMPDEST \t\t\tblock.number - 1\n      BLOCKHASH \t\t\tblockhash(block.number - 1)\n      TIMESTAMP \t\t\tblock.timestamp\n      CALLER \t\t\tmsg.sender\n      PUSH 40\t\t\tabi.encodePacked(blockhash(blo...\n      MLOAD \t\t\tabi.encodePacked(blockhash(blo...\n      PUSH 20\t\t\tabi.encodePacked(blockhash(blo...\n      ADD \t\t\tabi.encodePacked(blockhash(blo...\n      PUSH [tag] 96\t\t\tabi.encodePacked(blockhash(blo...\n      SWAP4 \t\t\tabi.encodePacked(blockhash(blo...\n      SWAP3 \t\t\tabi.encodePacked(blockhash(blo...\n      SWAP2 \t\t\tabi.encodePacked(blockhash(blo...\n      SWAP1 \t\t\tabi.encodePacked(blockhash(blo...\n      PUSH [tag] 91\t\t\tabi.encodePacked(blockhash(blo...\n      JUMP \t\t\tabi.encodePacked(blockhash(blo...\n    tag 96\t\t\tabi.encodePacked(blockhash(blo...\n      JUMPDEST \t\t\tabi.encodePacked(blockhash(blo...\n      PUSH 40\t\t\tabi.encodePacked(blockhash(blo...\n      MLOAD \t\t\tabi.encodePacked(blockhash(blo...\n      PUSH 20\t\t\tabi.encodePacked(blockhash(blo...\n      DUP2 \t\t\tabi.encodePacked(blockhash(blo...\n      DUP4 \t\t\tabi.encodePacked(blockhash(blo...\n      SUB \t\t\tabi.encodePacked(blockhash(blo...\n      SUB \t\t\tabi.encodePacked(blockhash(blo...\n      DUP2 \t\t\tabi.encodePacked(blockhash(blo...\n      MSTORE \t\t\tabi.encodePacked(blockhash(blo...\n      SWAP1 \t\t\tabi.encodePacked(blockhash(blo...\n      PUSH 40\t\t\tabi.encodePacked(blockhash(blo...\n      MSTORE \t\t\tabi.encodePacked(blockhash(blo...\n      DUP1 \t\t\tkeccak256(abi.encodePacked(blo...\n      MLOAD \t\t\tkeccak256(abi.encodePacked(blo...\n      SWAP1 \t\t\tkeccak256(abi.encodePacked(blo...\n      PUSH 20\t\t\tkeccak256(abi.encodePacked(blo...\n      ADD \t\t\tkeccak256(abi.encodePacked(blo...\n      KECCAK256 \t\t\tkeccak256(abi.encodePacked(blo...\n      PUSH 3\t\t\t_usersAuthToken\n      PUSH 0\t\t\t_usersAuthToken[recipient]\n      DUP5 \t\t\trecipient\n      PUSH FFFFFFFFFFFFFFFFFFFFFFFFFFFFFFFFFFFFFFFF\t\t\t_usersAuthToken[recipient]\n      AND \t\t\t_usersAuthToken[recipient]\n      PUSH FFFFFFFFFFFFFFFFFFFFFFFFFFFFFFFFFFFFFFFF\t\t\t_usersAuthToken[recipient]\n      AND \t\t\t_usersAuthToken[recipient]\n      DUP2 \t\t\t_usersAuthToken[recipient]\n      MSTORE \t\t\t_usersAuthToken[recipient]\n      PUSH 20\t\t\t_usersAuthToken[recipient]\n      ADD \t\t\t_usersAuthToken[recipient]\n      SWAP1 \t\t\t_usersAuthToken[recipient]\n      DUP2 \t\t\t_usersAuthToken[recipient]\n      MSTORE \t\t\t_usersAuthToken[recipient]\n      PUSH 20\t\t\t_usersAuthToken[recipient]\n      ADD \t\t\t_usersAuthToken[recipient]\n      PUSH 0\t\t\t_usersAuthToken[recipient]\n      KECCAK256 \t\t\t_usersAuthToken[recipient]\n      DUP2 \t\t\t_usersAuthToken[recipient] = k...\n      SWAP1 \t\t\t_usersAuthToken[recipient] = k...\n      SSTORE \t\t\t_usersAuthToken[recipient] = k...\n      POP \t\t\t_usersAuthToken[recipient] = k...\n      PUSH 0\t\t\tbytes32 encKey\n      PUSH 4\t\t\t_usersAuthKey\n      PUSH 0\t\t\t_usersAuthKey[recipient]\n      DUP5 \t\t\trecipient\n      PUSH FFFFFFFFFFFFFFFFFFFFFFFFFFFFFFFFFFFFFFFF\t\t\t_usersAuthKey[recipient]\n      AND \t\t\t_usersAuthKey[recipient]\n      PUSH FFFFFFFFFFFFFFFFFFFFFFFFFFFFFFFFFFFFFFFF\t\t\t_usersAuthKey[recipient]\n      AND \t\t\t_usersAuthKey[recipient]\n      DUP2 \t\t\t_usersAuthKey[recipient]\n      MSTORE \t\t\t_usersAuthKey[recipient]\n      PUSH 20\t\t\t_usersAuthKey[recipient]\n      ADD \t\t\t_usersAuthKey[recipient]\n      SWAP1 \t\t\t_usersAuthKey[recipient]\n      DUP2 \t\t\t_usersAuthKey[recipient]\n      MSTORE \t\t\t_usersAuthKey[recipient]\n      PUSH 20\t\t\t_usersAuthKey[recipient]\n      ADD \t\t\t_usersAuthKey[recipient]\n      PUSH 0\t\t\t_usersAuthKey[recipient]\n      KECCAK256 \t\t\t_usersAuthKey[recipient]\n      SLOAD \t\t\t_usersAuthKey[recipient]\n      PUSH 4\t\t\t_usersAuthKey\n      PUSH 0\t\t\t_usersAuthKey[recipient]\n      DUP6 \t\t\trecipient\n      PUSH FFFFFFFFFFFFFFFFFFFFFFFFFFFFFFFFFFFFFFFF\t\t\t_usersAuthKey[recipient]\n      AND \t\t\t_usersAuthKey[recipient]\n      PUSH FFFFFFFFFFFFFFFFFFFFFFFFFFFFFFFFFFFFFFFF\t\t\t_usersAuthKey[recipient]\n      AND \t\t\t_usersAuthKey[recipient]\n      DUP2 \t\t\t_usersAuthKey[recipient]\n      MSTORE \t\t\t_usersAuthKey[recipient]\n      PUSH 20\t\t\t_usersAuthKey[recipient]\n      ADD \t\t\t_usersAuthKey[recipient]\n      SWAP1 \t\t\t_usersAuthKey[recipient]\n      DUP2 \t\t\t_usersAuthKey[recipient]\n      MSTORE \t\t\t_usersAuthKey[recipient]\n      PUSH 20\t\t\t_usersAuthKey[recipient]\n      ADD \t\t\t_usersAuthKey[recipient]\n      PUSH 0\t\t\t_usersAuthKey[recipient]\n      KECCAK256 \t\t\t_usersAuthKey[recipient]\n      SLOAD \t\t\t_usersAuthKey[recipient]\n      XOR \t\t\t_usersAuthKey[recipient]  ^ _u...\n      SWAP1 \t\t\tbytes32 encKey = _usersAuthKey...\n      POP \t\t\tbytes32 encKey = _usersAuthKey...\n      PUSH 0\t\t\tbytes32 encToken\n      PUSH 4\t\t\t_usersAuthKey\n      PUSH 0\t\t\t_usersAuthKey[recipient]\n      DUP6 \t\t\trecipient\n      PUSH FFFFFFFFFFFFFFFFFFFFFFFFFFFFFFFFFFFFFFFF\t\t\t_usersAuthKey[recipient]\n      AND \t\t\t_usersAuthKey[recipient]\n      PUSH FFFFFFFFFFFFFFFFFFFFFFFFFFFFFFFFFFFFFFFF\t\t\t_usersAuthKey[recipient]\n      AND \t\t\t_usersAuthKey[recipient]\n      DUP2 \t\t\t_usersAuthKey[recipient]\n      MSTORE \t\t\t_usersAuthKey[recipient]\n      PUSH 20\t\t\t_usersAuthKey[recipient]\n      ADD \t\t\t_usersAuthKey[recipient]\n      SWAP1 \t\t\t_usersAuthKey[recipient]\n      DUP2 \t\t\t_usersAuthKey[recipient]\n      MSTORE \t\t\t_usersAuthKey[recipient]\n      PUSH 20\t\t\t_usersAuthKey[recipient]\n      ADD \t\t\t_usersAuthKey[recipient]\n      PUSH 0\t\t\t_usersAuthKey[recipient]\n      KECCAK256 \t\t\t_usersAuthKey[recipient]\n      SLOAD \t\t\t_usersAuthKey[recipient]\n      PUSH 3\t\t\t_usersAuthToken\n      PUSH 0\t\t\t_usersAuthToken[recipient]\n      DUP7 \t\t\trecipient\n      PUSH FFFFFFFFFFFFFFFFFFFFFFFFFFFFFFFFFFFFFFFF\t\t\t_usersAuthToken[recipient]\n      AND \t\t\t_usersAuthToken[recipient]\n      PUSH FFFFFFFFFFFFFFFFFFFFFFFFFFFFFFFFFFFFFFFF\t\t\t_usersAuthToken[recipient]\n      AND \t\t\t_usersAuthToken[recipient]\n      DUP2 \t\t\t_usersAuthToken[recipient]\n      MSTORE \t\t\t_usersAuthToken[recipient]\n      PUSH 20\t\t\t_usersAuthToken[recipient]\n      ADD \t\t\t_usersAuthToken[recipient]\n      SWAP1 \t\t\t_usersAuthToken[recipient]\n      DUP2 \t\t\t_usersAuthToken[recipient]\n      MSTORE \t\t\t_usersAuthToken[recipient]\n      PUSH 20\t\t\t_usersAuthToken[recipient]\n      ADD \t\t\t_usersAuthToken[recipient]\n      PUSH 0\t\t\t_usersAuthToken[recipient]\n      KECCAK256 \t\t\t_usersAuthToken[recipient]\n      SLOAD \t\t\t_usersAuthToken[recipient]\n      XOR \t\t\t_usersAuthToken[recipient]  ^ ...\n      SWAP1 \t\t\tbytes32 encToken = _usersAuthT...\n      POP \t\t\tbytes32 encToken = _usersAuthT...\n      PUSH 40\t\t\tencryptionResult({ key: encKey...\n      MLOAD \t\t\tencryptionResult({ key: encKey...\n      DUP1 \t\t\tencryptionResult({ key: encKey...\n      PUSH 40\t\t\tencryptionResult({ key: encKey...\n      ADD \t\t\tencryptionResult({ key: encKey...\n      PUSH 40\t\t\tencryptionResult({ key: encKey...\n      MSTORE \t\t\tencryptionResult({ key: encKey...\n      DUP1 \t\t\tencryptionResult({ key: encKey...\n      DUP4 \t\t\tencKey\n      DUP2 \t\t\tencryptionResult({ key: encKey...\n      MSTORE \t\t\tencryptionResult({ key: encKey...\n      PUSH 20\t\t\tencryptionResult({ key: encKey...\n      ADD \t\t\tencryptionResult({ key: encKey...\n      DUP3 \t\t\tencToken\n      DUP2 \t\t\tencryptionResult({ key: encKey...\n      MSTORE \t\t\tencryptionResult({ key: encKey...\n      POP \t\t\tencryptionResult({ key: encKey...\n      SWAP3 \t\t\treturn encryptionResult({ key:...\n      POP \t\t\treturn encryptionResult({ key:...\n      POP \t\t\treturn encryptionResult({ key:...\n      POP \t\t\treturn encryptionResult({ key:...\n    tag 83\t\t\tfunction encrypt(address recip...\n      JUMPDEST \t\t\tfunction encrypt(address recip...\n      SWAP2 \t\t\tfunction encrypt(address recip...\n      SWAP1 \t\t\tfunction encrypt(address recip...\n      POP \t\t\tfunction encrypt(address recip...\n      JUMP \t\t\tfunction encrypt(address recip...\n    tag 69\t\t\tfunction decrypt(address recip...\n      JUMPDEST \t\t\tfunction decrypt(address recip...\n      PUSH 0\t\t\tbytes32\n      DUP1 \t\t\tbytes32 decryptedValue\n      PUSH 0\t\t\t0x0\n      DUP1 \t\t\t_usersAuthKey[recipient] != 0x...\n      SHL \t\t\t_usersAuthKey[recipient] != 0x...\n      PUSH 4\t\t\t_usersAuthKey\n      PUSH 0\t\t\t_usersAuthKey[recipient]\n      DUP7 \t\t\trecipient\n      PUSH FFFFFFFFFFFFFFFFFFFFFFFFFFFFFFFFFFFFFFFF\t\t\t_usersAuthKey[recipient]\n      AND \t\t\t_usersAuthKey[recipient]\n      PUSH FFFFFFFFFFFFFFFFFFFFFFFFFFFFFFFFFFFFFFFF\t\t\t_usersAuthKey[recipient]\n      AND \t\t\t_usersAuthKey[recipient]\n      DUP2 \t\t\t_usersAuthKey[recipient]\n      MSTORE \t\t\t_usersAuthKey[recipient]\n      PUSH 20\t\t\t_usersAuthKey[recipient]\n      ADD \t\t\t_usersAuthKey[recipient]\n      SWAP1 \t\t\t_usersAuthKey[recipient]\n      DUP2 \t\t\t_usersAuthKey[recipient]\n      MSTORE \t\t\t_usersAuthKey[recipient]\n      PUSH 20\t\t\t_usersAuthKey[recipient]\n      ADD \t\t\t_usersAuthKey[recipient]\n      PUSH 0\t\t\t_usersAuthKey[recipient]\n      KECCAK256 \t\t\t_usersAuthKey[recipient]\n      SLOAD \t\t\t_usersAuthKey[recipient]\n      EQ \t\t\t_usersAuthKey[recipient] != 0x...\n      PUSH [tag] 98\t\t\tif (_usersAuthKey[recipient] !...\n      JUMPI \t\t\tif (_usersAuthKey[recipient] !...\n      PUSH 4\t\t\t_usersAuthKey\n      PUSH 0\t\t\t_usersAuthKey[recipient]\n      DUP6 \t\t\trecipient\n      PUSH FFFFFFFFFFFFFFFFFFFFFFFFFFFFFFFFFFFFFFFF\t\t\t_usersAuthKey[recipient]\n      AND \t\t\t_usersAuthKey[recipient]\n      PUSH FFFFFFFFFFFFFFFFFFFFFFFFFFFFFFFFFFFFFFFF\t\t\t_usersAuthKey[recipient]\n      AND \t\t\t_usersAuthKey[recipient]\n      DUP2 \t\t\t_usersAuthKey[recipient]\n      MSTORE \t\t\t_usersAuthKey[recipient]\n      PUSH 20\t\t\t_usersAuthKey[recipient]\n      ADD \t\t\t_usersAuthKey[recipient]\n      SWAP1 \t\t\t_usersAuthKey[recipient]\n      DUP2 \t\t\t_usersAuthKey[recipient]\n      MSTORE \t\t\t_usersAuthKey[recipient]\n      PUSH 20\t\t\t_usersAuthKey[recipient]\n      ADD \t\t\t_usersAuthKey[recipient]\n      PUSH 0\t\t\t_usersAuthKey[recipient]\n      KECCAK256 \t\t\t_usersAuthKey[recipient]\n      SLOAD \t\t\t_usersAuthKey[recipient]\n      DUP4 \t\t\tdata\n      XOR \t\t\tdata ^ _usersAuthKey[recipient...\n      SWAP1 \t\t\tdecryptedValue = data ^ _users...\n      POP \t\t\tdecryptedValue = data ^ _users...\n      PUSH [tag] 99\t\t\tif (_usersAuthKey[recipient] !...\n      JUMP \t\t\tif (_usersAuthKey[recipient] !...\n    tag 98\t\t\tif (_usersAuthKey[recipient] !...\n      JUMPDEST \t\t\tif (_usersAuthKey[recipient] !...\n      PUSH 2\t\t\t_initKey\n      SLOAD \t\t\t_initKey\n      DUP4 \t\t\tdata\n      XOR \t\t\tdata ^ _initKey\n      SWAP1 \t\t\tdecryptedValue = data ^ _initK...\n      POP \t\t\tdecryptedValue = data ^ _initK...\n    tag 99\t\t\tif (_usersAuthKey[recipient] !...\n      JUMPDEST \t\t\tif (_usersAuthKey[recipient] !...\n      DUP1 \t\t\tdecryptedValue\n      SWAP2 \t\t\treturn decryptedValue\n      POP \t\t\treturn decryptedValue\n      POP \t\t\treturn decryptedValue\n      SWAP3 \t\t\tfunction decrypt(address recip...\n      SWAP2 \t\t\tfunction decrypt(address recip...\n      POP \t\t\tfunction decrypt(address recip...\n      POP \t\t\tfunction decrypt(address recip...\n      JUMP \t\t\tfunction decrypt(address recip...\n    tag 50\t\t\t\n      JUMPDEST \t\t\t\n      PUSH 40\t\t\t\n      MLOAD \t\t\t\n      DUP1 \t\t\t\n      PUSH 40\t\t\t\n      ADD \t\t\t\n      PUSH 40\t\t\t\n      MSTORE \t\t\t\n      DUP1 \t\t\t\n      PUSH 0\t\t\t\n      DUP1 \t\t\t\n      NOT \t\t\t\n      AND \t\t\t\n      DUP2 \t\t\t\n      MSTORE \t\t\t\n      PUSH 20\t\t\t\n      ADD \t\t\t\n      PUSH 0\t\t\t\n      DUP1 \t\t\t\n      NOT \t\t\t\n      AND \t\t\t\n      DUP2 \t\t\t\n      MSTORE \t\t\t\n      POP \t\t\t\n      SWAP1 \t\t\t\n      JUMP \t\t\t\n    tag 100\t\t\t-License-Identifier: GPL-3.0\\r...\n      JUMPDEST \t\t\t-License-Identifier: GPL-3.0\\r...\n      PUSH 0\t\t\tsolidit\n      DUP2 \t\t\tcontr\n      SWAP1 \t\t\t<0.9.0;\\r\\n\\r\\ncontr\n      POP \t\t\t<0.9.0;\\r\\n\\r\\ncontr\n      SWAP2 \t\t\t-License-Identifier: GPL-3.0\\r...\n      SWAP1 \t\t\t-License-Identifier: GPL-3.0\\r...\n      POP \t\t\t-License-Identifier: GPL-3.0\\r...\n      JUMP \t\t\t-License-Identifier: GPL-3.0\\r...\n    tag 101\t\t\trea {\\r\\n\\r\\n    string privat...\n      JUMPDEST \t\t\trea {\\r\\n\\r\\n    string privat...\n      PUSH [tag] 145\t\t\t95588a2b61d2769f4\";\\r\\n   \n      DUP2 \t\t\t;\\r\\n  \n      PUSH [tag] 100\t\t\t95588a2b61d2769f4\";\\r\\n   \n      JUMP \t\t\t95588a2b61d2769f4\";\\r\\n   \n    tag 145\t\t\t95588a2b61d2769f4\";\\r\\n   \n      JUMPDEST \t\t\t95588a2b61d2769f4\";\\r\\n   \n      DUP3 \t\t\t5d5\n      MSTORE \t\t\t20d06f75d54c95588a2b61d2769f4\"...\n      POP \t\t\trea {\\r\\n\\r\\n    string privat...\n      POP \t\t\trea {\\r\\n\\r\\n    string privat...\n      JUMP \t\t\trea {\\r\\n\\r\\n    string privat...\n    tag 14\t\t\tate _secretHash;\\r\\n    bytes3...\n      JUMPDEST \t\t\tate _secretHash;\\r\\n    bytes3...\n      PUSH 0\t\t\trsAu\n      PUSH 20\t\t\tes\n      DUP3 \t\t\tddress=>b\n      ADD \t\t\tng(address=>bytes3\n      SWAP1 \t\t\t   mapping(address=>bytes3\n      POP \t\t\t   mapping(address=>bytes3\n      PUSH [tag] 147\t\t\t _usersAuthKey;\\r\\n    mapping...\n      PUSH 0\t\t\t;\n      DUP4 \t\t\tpurchaseI\n      ADD \t\t\tte _purchaseIds;\\r\n      DUP5 \t\t\t56) pr\n      PUSH [tag] 101\t\t\t _usersAuthKey;\\r\\n    mapping...\n      JUMP \t\t\t _usersAuthKey;\\r\\n    mapping...\n    tag 147\t\t\t _usersAuthKey;\\r\\n    mapping...\n      JUMPDEST \t\t\t _usersAuthKey;\\r\\n    mapping...\n      SWAP3 \t\t\tate _secretHash;\\r\\n    bytes3...\n      SWAP2 \t\t\tate _secretHash;\\r\\n    bytes3...\n      POP \t\t\tate _secretHash;\\r\\n    bytes3...\n      POP \t\t\tate _secretHash;\\r\\n    bytes3...\n      JUMP \t\t\tate _secretHash;\\r\\n    bytes3...\n    tag 102\t\t\tencryptionResult{\\r\\n        b...\n      JUMPDEST \t\t\tencryptionResult{\\r\\n        b...\n      PUSH 0\t\t\ty;\\r\\n   \n      DUP2 \t\t\t   }\\r\n      SWAP1 \t\t\t2 token;\\r\\n    }\\r\n      POP \t\t\t2 token;\\r\\n    }\\r\n      SWAP2 \t\t\tencryptionResult{\\r\\n        b...\n      SWAP1 \t\t\tencryptionResult{\\r\\n        b...\n      POP \t\t\tencryptionResult{\\r\\n        b...\n      JUMP \t\t\tencryptionResult{\\r\\n        b...\n    tag 103\t\t\tfine constructor to get fund o...\n      JUMPDEST \t\t\tfine constructor to get fund o...\n      PUSH [tag] 150\t\t\tnitKey) payable {\\r\\n\\r\\n   \n      DUP2 \t\t\t\\n\\r\\n  \n      PUSH [tag] 102\t\t\tnitKey) payable {\\r\\n\\r\\n   \n      JUMP \t\t\tnitKey) payable {\\r\\n\\r\\n   \n    tag 150\t\t\tnitKey) payable {\\r\\n\\r\\n   \n      JUMPDEST \t\t\tnitKey) payable {\\r\\n\\r\\n   \n      DUP3 \t\t\ts32\n      MSTORE \t\t\tt, bytes32 initKey) payable {\\...\n      POP \t\t\tfine constructor to get fund o...\n      POP \t\t\tfine constructor to get fund o...\n      JUMP \t\t\tfine constructor to get fund o...\n    tag 19\t\t\tash = secret;\\r\\n        _init...\n      JUMPDEST \t\t\tash = secret;\\r\\n        _init...\n      PUSH 0\t\t\trs\\r\\n\n      PUSH 20\t\t\t, \n      DUP3 \t\t\ts recipie\n      ADD \t\t\tdress recipient, u\n      SWAP1 \t\t\tn pay(address recipient, u\n      POP \t\t\tn pay(address recipient, u\n      PUSH [tag] 152\t\t\tount, uint256 campaignCount, u...\n      PUSH 0\t\t\tb\n      DUP4 \t\t\t32 secret\n      ADD \t\t\tytes32 secret, by\n      DUP5 \t\t\tgCount\n      PUSH [tag] 103\t\t\tount, uint256 campaignCount, u...\n      JUMP \t\t\tount, uint256 campaignCount, u...\n    tag 152\t\t\tount, uint256 campaignCount, u...\n      JUMPDEST \t\t\tount, uint256 campaignCount, u...\n      SWAP3 \t\t\tash = secret;\\r\\n        _init...\n      SWAP2 \t\t\tash = secret;\\r\\n        _init...\n      POP \t\t\tash = secret;\\r\\n        _init...\n      POP \t\t\tash = secret;\\r\\n        _init...\n      JUMP \t\t\tash = secret;\\r\\n        _init...\n    tag 105\t\t\tipient, secret, token);\\r\\n   ...\n      JUMPDEST \t\t\tipient, secret, token);\\r\\n   ...\n      PUSH 0\t\t\t\\n\n      DUP1 \t\t\t)\n      REVERT \t\t\talance\");\\r\\n\\r\n    tag 107\t\t\tayable(recipient).send(amount)...\n      JUMPDEST \t\t\tayable(recipient).send(amount)...\n      PUSH 0\t\t\t       \n      PUSH FFFFFFFFFFFFFFFFFFFFFFFFFFFFFFFFFFFFFFFF\t\t\td\");\\r\\n\\r\\n           return ...\n      DUP3 \t\t\tr fai\n      AND \t\t\tnsfer failed\");\\r\\n\\r\\n       ...\n      SWAP1 \t\t\tccess, \"Transfer failed\");\\r\\n...\n      POP \t\t\tccess, \"Transfer failed\");\\r\\n...\n      SWAP2 \t\t\tayable(recipient).send(amount)...\n      SWAP1 \t\t\tayable(recipient).send(amount)...\n      POP \t\t\tayable(recipient).send(amount)...\n      JUMP \t\t\tayable(recipient).send(amount)...\n    tag 108\t\t\t  }else{\\r\\n\\r\\n            re...\n      JUMPDEST \t\t\t  }else{\\r\\n\\r\\n            re...\n      PUSH 0\t\t\tnot Eli\n      PUSH [tag] 158\t\t\t\\r\\n\\r\\n        \\r\\n    }\\r\\n\\...\n      DUP3 \t\t\t}\\r\\n\\r\\n\n      PUSH [tag] 107\t\t\t\\r\\n\\r\\n        \\r\\n    }\\r\\n\\...\n      JUMP \t\t\t\\r\\n\\r\\n        \\r\\n    }\\r\\n\\...\n    tag 158\t\t\t\\r\\n\\r\\n        \\r\\n    }\\r\\n\\...\n      JUMPDEST \t\t\t\\r\\n\\r\\n        \\r\\n    }\\r\\n\\...\n      SWAP1 \t\t\t\\r\\n        }\\r\\n\\r\\n        \\...\n      POP \t\t\t\\r\\n        }\\r\\n\\r\\n        \\...\n      SWAP2 \t\t\t  }else{\\r\\n\\r\\n            re...\n      SWAP1 \t\t\t  }else{\\r\\n\\r\\n            re...\n      POP \t\t\t  }else{\\r\\n\\r\\n            re...\n      JUMP \t\t\t  }else{\\r\\n\\r\\n            re...\n    tag 109\t\t\tuserAuthorized(address recipie...\n      JUMPDEST \t\t\tuserAuthorized(address recipie...\n      PUSH [tag] 160\t\t\tview {\\r\\n      \\r\\n        \n      DUP2 \t\t\t     \n      PUSH [tag] 108\t\t\tview {\\r\\n      \\r\\n        \n      JUMP \t\t\tview {\\r\\n      \\r\\n        \n    tag 160\t\t\tview {\\r\\n      \\r\\n        \n      JUMPDEST \t\t\tview {\\r\\n      \\r\\n        \n      DUP2 \t\t\trivat\n      EQ \t\t\t) private view {\\r\\n      \\r\\n...\n      PUSH [tag] 161\t\t\tes32 token) private view {\\r\\n...\n      JUMPI \t\t\tes32 token) private view {\\r\\n...\n      PUSH 0\t\t\ta\n      DUP1 \t\t\te\n      REVERT \t\t\t32 secretHas\n    tag 161\t\t\tes32 token) private view {\\r\\n...\n      JUMPDEST \t\t\tes32 token) private view {\\r\\n...\n      POP \t\t\tuserAuthorized(address recipie...\n      JUMP \t\t\tuserAuthorized(address recipie...\n    tag 110\t\t\tinitKey;\\r\\n        require(se...\n      JUMPDEST \t\t\tinitKey;\\r\\n        require(se...\n      PUSH 0\t\t\ttHash\n      DUP2 \t\t\tsh is \n      CALLDATALOAD \t\t\ted: secret hash is w\n      SWAP1 \t\t\t Authorized: secret hash is w\n      POP \t\t\t Authorized: secret hash is w\n      PUSH [tag] 163\t\t\t\\n\\r\\n        bytes32 _token =...\n      DUP2 \t\t\t decr\n      PUSH [tag] 109\t\t\t\\n\\r\\n        bytes32 _token =...\n      JUMP \t\t\t\\n\\r\\n        bytes32 _token =...\n    tag 163\t\t\t\\n\\r\\n        bytes32 _token =...\n      JUMPDEST \t\t\t\\n\\r\\n        bytes32 _token =...\n      SWAP3 \t\t\tinitKey;\\r\\n        require(se...\n      SWAP2 \t\t\tinitKey;\\r\\n        require(se...\n      POP \t\t\tinitKey;\\r\\n        require(se...\n      POP \t\t\tinitKey;\\r\\n        require(se...\n      JUMP \t\t\tinitKey;\\r\\n        require(se...\n    tag 111\t\t\t, token);\\r\\n\\r\\n        if (_...\n      JUMPDEST \t\t\t, token);\\r\\n\\r\\n        if (_...\n      PUSH [tag] 165\t\t\t  require(_token == _use\n      DUP2 \t\t\t= _us\n      PUSH [tag] 102\t\t\t  require(_token == _use\n      JUMP \t\t\t  require(_token == _use\n    tag 165\t\t\t  require(_token == _use\n      JUMPDEST \t\t\t  require(_token == _use\n      DUP2 \t\t\t     \n      EQ \t\t\t            require(_token == ...\n      PUSH [tag] 166\t\t\t0x0) {\\r\\n\\r\\n            requ...\n      JUMPI \t\t\t0x0) {\\r\\n\\r\\n            requ...\n      PUSH 0\t\t\ti\n      DUP1 \t\t\tr\n      REVERT \t\t\thToken[recip\n    tag 166\t\t\t0x0) {\\r\\n\\r\\n            requ...\n      JUMPDEST \t\t\t0x0) {\\r\\n\\r\\n            requ...\n      POP \t\t\t, token);\\r\\n\\r\\n        if (_...\n      JUMP \t\t\t, token);\\r\\n\\r\\n        if (_...\n    tag 112\t\t\tot Authorized: auth token is w...\n      JUMPDEST \t\t\tot Authorized: auth token is w...\n      PUSH 0\t\t\t    }\n      DUP2 \t\t\t encry\n      CALLDATALOAD \t\t\t\\n    function encryp\n      SWAP1 \t\t\t   }\\r\\n\\r\\n\\r\\n    function e...\n      POP \t\t\t   }\\r\\n\\r\\n\\r\\n    function e...\n      PUSH [tag] 168\t\t\t recipient) private returns (e...\n      DUP2 \t\t\t (enc\n      PUSH [tag] 111\t\t\t recipient) private returns (e...\n      JUMP \t\t\t recipient) private returns (e...\n    tag 168\t\t\t recipient) private returns (e...\n      JUMPDEST \t\t\t recipient) private returns (e...\n      SWAP3 \t\t\tot Authorized: auth token is w...\n      SWAP2 \t\t\tot Authorized: auth token is w...\n      POP \t\t\tot Authorized: auth token is w...\n      POP \t\t\tot Authorized: auth token is w...\n      JUMP \t\t\tot Authorized: auth token is w...\n    tag 113\t\t\t memory) {\\r\\n        \\r\\n    ...\n      JUMPDEST \t\t\t memory) {\\r\\n        \\r\\n    ...\n      PUSH [tag] 170\t\t\t           _usersAuthKey\n      DUP2 \t\t\tuthKe\n      PUSH [tag] 100\t\t\t           _usersAuthKey\n      JUMP \t\t\t           _usersAuthKey\n    tag 170\t\t\t           _usersAuthKey\n      JUMPDEST \t\t\t           _usersAuthKey\n      DUP2 \t\t\t {\\r\\n\\r\n      EQ \t\t\tx0) {\\r\\n\\r\\n            _user...\n      PUSH [tag] 171\t\t\tient] == 0x0) {\\r\\n\\r\\n       ...\n      JUMPI \t\t\tient] == 0x0) {\\r\\n\\r\\n       ...\n      PUSH 0\t\t\te\n      DUP1 \t\t\t=\n      REVERT \t\t\tpient] = kec\n    tag 171\t\t\tient] == 0x0) {\\r\\n\\r\\n       ...\n      JUMPDEST \t\t\tient] == 0x0) {\\r\\n\\r\\n       ...\n      POP \t\t\t memory) {\\r\\n        \\r\\n    ...\n      JUMP \t\t\t memory) {\\r\\n        \\r\\n    ...\n    tag 114\t\t\todePacked(blockhash(block.numb...\n      JUMPDEST \t\t\todePacked(blockhash(block.numb...\n      PUSH 0\t\t\timest\n      DUP2 \t\t\t     _\n      CALLDATALOAD \t\t\t\"));\\r\\n            _u\n      SWAP1 \t\t\tder, \"key\"));\\r\\n            _...\n      POP \t\t\tder, \"key\"));\\r\\n            _...\n      PUSH [tag] 173\t\t\token[recipient] = keccak256(ab...\n      DUP2 \t\t\t(abi.\n      PUSH [tag] 113\t\t\token[recipient] = keccak256(ab...\n      JUMP \t\t\token[recipient] = keccak256(ab...\n    tag 173\t\t\token[recipient] = keccak256(ab...\n      JUMPDEST \t\t\token[recipient] = keccak256(ab...\n      SWAP3 \t\t\todePacked(blockhash(block.numb...\n      SWAP2 \t\t\todePacked(blockhash(block.numb...\n      POP \t\t\todePacked(blockhash(block.numb...\n      POP \t\t\todePacked(blockhash(block.numb...\n      JUMP \t\t\todePacked(blockhash(block.numb...\n    tag 22\t\t\tblockhash(block.number - 1), b...\n      JUMPDEST \t\t\tblockhash(block.number - 1), b...\n      PUSH 0\t\t\ty = _u\n      DUP1 \t\t\trsAuth\n      PUSH 0\t\t\ty[reci\n      DUP1 \t\t\tent]  \n      PUSH 0\t\t\t_initK\n      DUP1 \t\t\t;\\r\\n   \n      PUSH C0\t\t\t[re\n      DUP8 \t\t\tersAuthTo\n      DUP10 \t\t\tken = _\n      SUB \t\t\tncToken = _usersAuthTok\n      SLT \t\t\t32 encToken = _usersAuthToken[...\n      ISZERO \t\t\ttes32 encToken = _usersAuthTok...\n      PUSH [tag] 175\t\t\ttes32 encToken = _usersAuthTok...\n      JUMPI \t\t\ttes32 encToken = _usersAuthTok...\n      PUSH [tag] 176\t\t\tent]  ^ _initKey;\\r\\n\\r\\n     ...\n      PUSH [tag] 105\t\t\tent]  ^ _initKey;\\r\\n\\r\\n     ...\n      JUMP \t\t\tent]  ^ _initKey;\\r\\n\\r\\n     ...\n    tag 176\t\t\tent]  ^ _initKey;\\r\\n\\r\\n     ...\n      JUMPDEST \t\t\tent]  ^ _initKey;\\r\\n\\r\\n     ...\n    tag 175\t\t\ttes32 encToken = _usersAuthTok...\n      JUMPDEST \t\t\ttes32 encToken = _usersAuthTok...\n      PUSH 0\t\t\t \n      PUSH [tag] 177\t\t\tent] = keccak256(abi.encodePac...\n      DUP10 \t\t\tlock.nu\n      DUP3 \t\t\tockhas\n      DUP11 \t\t\tdePacked(\n      ADD \t\t\tencodePacked(blockhash\n      PUSH [tag] 110\t\t\tent] = keccak256(abi.encodePac...\n      JUMP \t\t\tent] = keccak256(abi.encodePac...\n    tag 177\t\t\tent] = keccak256(abi.encodePac...\n      JUMPDEST \t\t\tent] = keccak256(abi.encodePac...\n      SWAP7 \t\t\tKey[recipient] = keccak256(abi...\n      POP \t\t\tKey[recipient] = keccak256(abi...\n      POP \t\t\t\\r\\n\\r\\n        }else{\\r\\n\\r\\n...\n      PUSH 20\t\t\t  \n      PUSH [tag] 178\t\t\t[recipient] = keccak256(abi.en...\n      DUP10 \t\t\tkhash(b\n      DUP3 \t\t\tcked(b\n      DUP11 \t\t\tbi.encode\n      ADD \t\t\t56(abi.encodePacked(bl\n      PUSH [tag] 112\t\t\t[recipient] = keccak256(abi.en...\n      JUMP \t\t\t[recipient] = keccak256(abi.en...\n    tag 178\t\t\t[recipient] = keccak256(abi.en...\n      JUMPDEST \t\t\t[recipient] = keccak256(abi.en...\n      SWAP6 \t\t\tsAuthToken[recipient] = keccak...\n      POP \t\t\tsAuthToken[recipient] = keccak...\n      POP \t\t\tstamp,msg.sender, \"key\"));\\r\\n...\n      PUSH 40\t\t\ten\n      PUSH [tag] 179\t\t\t    bytes32 encKey = _usersAut...\n      DUP10 \t\t\t  ^ _us\n      DUP3 \t\t\tecipie\n      DUP11 \t\t\trsAuthKey\n      ADD \t\t\t_usersAuthKey[recipien\n      PUSH [tag] 112\t\t\t    bytes32 encKey = _usersAut...\n      JUMP \t\t\t    bytes32 encKey = _usersAut...\n    tag 179\t\t\t    bytes32 encKey = _usersAut...\n      JUMPDEST \t\t\t    bytes32 encKey = _usersAut...\n      SWAP5 \t\t\t\\r\\n            bytes32 encKey...\n      POP \t\t\t\\r\\n            bytes32 encKey...\n      POP \t\t\tck.timestamp,msg.sender, \"toke...\n      PUSH 60\t\t\tke\n      PUSH [tag] 180\t\t\tpient]  ^ _usersAuthKey[recipi...\n      DUP10 \t\t\t       \n      DUP3 \t\t\t\\r\\n\\r\\n  \n      DUP11 \t\t\tecipient]\n      ADD \t\t\tey[recipient] ;\\r\\n\\r\\n   \n      PUSH [tag] 112\t\t\tpient]  ^ _usersAuthKey[recipi...\n      JUMP \t\t\tpient]  ^ _usersAuthKey[recipi...\n    tag 180\t\t\tpient]  ^ _usersAuthKey[recipi...\n      JUMPDEST \t\t\tpient]  ^ _usersAuthKey[recipi...\n      SWAP4 \t\t\tToken[recipient]  ^ _usersAuth...\n      POP \t\t\tToken[recipient]  ^ _usersAuth...\n      POP \t\t\t ;\\r\\n            bytes32 encT...\n      PUSH 80\t\t\toke\n      PUSH [tag] 181\t\t\t}\\r\\n\\r\\n    function decrypt(...\n      DUP10 \t\t\tbytes32\n      DUP3 \t\t\tcipien\n      DUP11 \t\t\t(address \n      ADD \t\t\trypt(address recipient\n      PUSH [tag] 114\t\t\t}\\r\\n\\r\\n    function decrypt(...\n      JUMP \t\t\t}\\r\\n\\r\\n    function decrypt(...\n    tag 181\t\t\t}\\r\\n\\r\\n    function decrypt(...\n      JUMPDEST \t\t\t}\\r\\n\\r\\n    function decrypt(...\n      SWAP3 \t\t\t   }\\r\\n    }\\r\\n\\r\\n    funct...\n      POP \t\t\t   }\\r\\n    }\\r\\n\\r\\n    funct...\n      POP \t\t\tlt({ key: encKey, token: encTo...\n      PUSH A0\t\t\t by\n      PUSH [tag] 182\t\t\t\\n        // issue here\\r\\n   ...\n      DUP10 \t\t\thKey[re\n      DUP3 \t\t\t_users\n      DUP11 \t\t\t       if\n      ADD \t\t\te\\r\\n        if (_usersA\n      PUSH [tag] 114\t\t\t\\n        // issue here\\r\\n   ...\n      JUMP \t\t\t\\n        // issue here\\r\\n   ...\n    tag 182\t\t\t\\n        // issue here\\r\\n   ...\n      JUMPDEST \t\t\t\\n        // issue here\\r\\n   ...\n      SWAP2 \t\t\tdValue;\\r\\n\\r\\n        // issu...\n      POP \t\t\tdValue;\\r\\n\\r\\n        // issu...\n      POP \t\t\teturns (bytes32) {\\r\\n\\r\\n    ...\n      SWAP3 \t\t\tblockhash(block.number - 1), b...\n      SWAP6 \t\t\tblockhash(block.number - 1), b...\n      POP \t\t\tblockhash(block.number - 1), b...\n      SWAP3 \t\t\tblockhash(block.number - 1), b...\n      SWAP6 \t\t\tblockhash(block.number - 1), b...\n      POP \t\t\tblockhash(block.number - 1), b...\n      SWAP3 \t\t\tblockhash(block.number - 1), b...\n      SWAP6 \t\t\tblockhash(block.number - 1), b...\n      JUMP \t\t\tblockhash(block.number - 1), b...\n    tag 115\t\t\t        decryptedValue = data ...\n      JUMPDEST \t\t\t        decryptedValue = data ...\n      PUSH [tag] 184\t\t\t          decryptedValue\n      DUP2 \t\t\tdValu\n      PUSH [tag] 100\t\t\t          decryptedValue\n      JUMP \t\t\t          decryptedValue\n    tag 184\t\t\t          decryptedValue\n      JUMPDEST \t\t\t          decryptedValue\n      DUP3 \t\t\t{\\r\\n\n      MSTORE \t\t\t  }else{\\r\\n            decryp...\n      POP \t\t\t        decryptedValue = data ...\n      POP \t\t\t        decryptedValue = data ...\n      JUMP \t\t\t        decryptedValue = data ...\n    tag 116\t\t\tce of contract address\\r\\n    ...\n      JUMPDEST \t\t\tce of contract address\\r\\n    ...\n      PUSH 40\t\t\tt1(a\n      DUP3 \t\t\tn t\n      ADD \t\t\tction test1(ad\n      PUSH 0\t\t\tipie\n      DUP3 \t\t\tKey[r\n      ADD \t\t\tAuthKey[recipien\n      MLOAD \t\t\t_usersAuthKey[recipient\n      PUSH [tag] 186\t\t\t  \\r\\n    function test2(addre...\n      PUSH 0\t\t\trns(\n      DUP6 \t\t\t re\n      ADD \t\t\tview returns(b\n      DUP3 \t\t\tipient)publi\n      PUSH [tag] 115\t\t\t  \\r\\n    function test2(addre...\n      JUMP \t\t\t  \\r\\n    function test2(addre...\n    tag 186\t\t\t  \\r\\n    function test2(addre...\n      JUMPDEST \t\t\t  \\r\\n    function test2(addre...\n      POP \t\t\tpient)public view returns(byte...\n      PUSH 20\t\t\tiew \n      DUP3 \t\t\tublic\n      ADD \t\t\t3()public view r\n      MLOAD \t\t\tn test3()public view re\n      PUSH [tag] 187\t\t\t){\\r\\n\\r\\n        return  _ini...\n      PUSH 20\t\t\test4\n      DUP6 \t\t\tion\n      ADD \t\t\tunction test4(\n      DUP3 \t\t\t   }\\r\\n\\r\\n    \n      PUSH [tag] 115\t\t\t){\\r\\n\\r\\n        return  _ini...\n      JUMP \t\t\t){\\r\\n\\r\\n        return  _ini...\n    tag 187\t\t\t){\\r\\n\\r\\n        return  _ini...\n      JUMPDEST \t\t\t){\\r\\n\\r\\n        return  _ini...\n      POP \t\t\teturn  _usersAuthToken[recipie...\n      POP \t\t\t\\n\\r\\n    \\r\\n    \\r\\n    func...\n      POP \t\t\tce of contract address\\r\\n    ...\n      POP \t\t\tce of contract address\\r\\n    ...\n      JUMP \t\t\tce of contract address\\r\\n    ...\n    tag 25\t\t\tes32){\\r\\n\\r\\n        return  ...\n      JUMPDEST \t\t\tes32){\\r\\n\\r\\n        return  ...\n      PUSH 0\t\t\treci\n      PUSH 40\t\t\t\n      DUP3 \t\t\t}\n      ADD \t\t\t\\r\\n\\r\\n}\n      SWAP1 \t\t\t;\\r\\n    }\\r\\n\\r\\n}\n      POP \t\t\t;\\r\\n    }\\r\\n\\r\\n}\n      PUSH [tag] 189\t\t\t\n      PUSH 0\t\t\t\n      DUP4 \t\t\t\n      ADD \t\t\t\n      DUP5 \t\t\t\n      PUSH [tag] 116\t\t\t\n      JUMP \t\t\t\n    tag 189\t\t\t\n      JUMPDEST \t\t\t\n      SWAP3 \t\t\tes32){\\r\\n\\r\\n        return  ...\n      SWAP2 \t\t\tes32){\\r\\n\\r\\n        return  ...\n      POP \t\t\tes32){\\r\\n\\r\\n        return  ...\n      POP \t\t\tes32){\\r\\n\\r\\n        return  ...\n      JUMP \t\t\tes32){\\r\\n\\r\\n        return  ...\n    tag 29\t\t\t\n      JUMPDEST \t\t\t\n      PUSH 0\t\t\t\n      DUP1 \t\t\t\n      PUSH 40\t\t\t\n      DUP4 \t\t\t\n      DUP6 \t\t\t\n      SUB \t\t\t\n      SLT \t\t\t\n      ISZERO \t\t\t\n      PUSH [tag] 191\t\t\t\n      JUMPI \t\t\t\n      PUSH [tag] 192\t\t\t\n      PUSH [tag] 105\t\t\t\n      JUMP \t\t\t\n    tag 192\t\t\t\n      JUMPDEST \t\t\t\n    tag 191\t\t\t\n      JUMPDEST \t\t\t\n      PUSH 0\t\t\t\n      PUSH [tag] 193\t\t\t\n      DUP6 \t\t\t\n      DUP3 \t\t\t\n      DUP7 \t\t\t\n      ADD \t\t\t\n      PUSH [tag] 110\t\t\t\n      JUMP \t\t\t\n    tag 193\t\t\t\n      JUMPDEST \t\t\t\n      SWAP3 \t\t\t\n      POP \t\t\t\n      POP \t\t\t\n      PUSH 20\t\t\t\n      PUSH [tag] 194\t\t\t\n      DUP6 \t\t\t\n      DUP3 \t\t\t\n      DUP7 \t\t\t\n      ADD \t\t\t\n      PUSH [tag] 114\t\t\t\n      JUMP \t\t\t\n    tag 194\t\t\t\n      JUMPDEST \t\t\t\n      SWAP2 \t\t\t\n      POP \t\t\t\n      POP \t\t\t\n      SWAP3 \t\t\t\n      POP \t\t\t\n      SWAP3 \t\t\t\n      SWAP1 \t\t\t\n      POP \t\t\t\n      JUMP \t\t\t\n    tag 39\t\t\t\n      JUMPDEST \t\t\t\n      PUSH 0\t\t\t\n      PUSH 20\t\t\t\n      DUP3 \t\t\t\n      DUP5 \t\t\t\n      SUB \t\t\t\n      SLT \t\t\t\n      ISZERO \t\t\t\n      PUSH [tag] 196\t\t\t\n      JUMPI \t\t\t\n      PUSH [tag] 197\t\t\t\n      PUSH [tag] 105\t\t\t\n      JUMP \t\t\t\n    tag 197\t\t\t\n      JUMPDEST \t\t\t\n    tag 196\t\t\t\n      JUMPDEST \t\t\t\n      PUSH 0\t\t\t\n      PUSH [tag] 198\t\t\t\n      DUP5 \t\t\t\n      DUP3 \t\t\t\n      DUP6 \t\t\t\n      ADD \t\t\t\n      PUSH [tag] 110\t\t\t\n      JUMP \t\t\t\n    tag 198\t\t\t\n      JUMPDEST \t\t\t\n      SWAP2 \t\t\t\n      POP \t\t\t\n      POP \t\t\t\n      SWAP3 \t\t\t\n      SWAP2 \t\t\t\n      POP \t\t\t\n      POP \t\t\t\n      JUMP \t\t\t\n    tag 117\t\t\t\n      JUMPDEST \t\t\t\n      PUSH 0\t\t\t\n      DUP3 \t\t\t\n      DUP3 \t\t\t\n      MSTORE \t\t\t\n      PUSH 20\t\t\t\n      DUP3 \t\t\t\n      ADD \t\t\t\n      SWAP1 \t\t\t\n      POP \t\t\t\n      SWAP3 \t\t\t\n      SWAP2 \t\t\t\n      POP \t\t\t\n      POP \t\t\t\n      JUMP \t\t\t\n    tag 118\t\t\t\n      JUMPDEST \t\t\t\n      PUSH 496E73756666696369656E742062616C616E6365000000000000000000000000\t\t\t\n      PUSH 0\t\t\t\n      DUP3 \t\t\t\n      ADD \t\t\t\n      MSTORE \t\t\t\n      POP \t\t\t\n      JUMP \t\t\t\n    tag 119\t\t\t\n      JUMPDEST \t\t\t\n      PUSH 0\t\t\t\n      PUSH [tag] 202\t\t\t\n      PUSH 14\t\t\t\n      DUP4 \t\t\t\n      PUSH [tag] 117\t\t\t\n      JUMP \t\t\t\n    tag 202\t\t\t\n      JUMPDEST \t\t\t\n      SWAP2 \t\t\t\n      POP \t\t\t\n      PUSH [tag] 203\t\t\t\n      DUP3 \t\t\t\n      PUSH [tag] 118\t\t\t\n      JUMP \t\t\t\n    tag 203\t\t\t\n      JUMPDEST \t\t\t\n      PUSH 20\t\t\t\n      DUP3 \t\t\t\n      ADD \t\t\t\n      SWAP1 \t\t\t\n      POP \t\t\t\n      SWAP2 \t\t\t\n      SWAP1 \t\t\t\n      POP \t\t\t\n      JUMP \t\t\t\n    tag 56\t\t\t\n      JUMPDEST \t\t\t\n      PUSH 0\t\t\t\n      PUSH 20\t\t\t\n      DUP3 \t\t\t\n      ADD \t\t\t\n      SWAP1 \t\t\t\n      POP \t\t\t\n      DUP2 \t\t\t\n      DUP2 \t\t\t\n      SUB \t\t\t\n      PUSH 0\t\t\t\n      DUP4 \t\t\t\n      ADD \t\t\t\n      MSTORE \t\t\t\n      PUSH [tag] 205\t\t\t\n      DUP2 \t\t\t\n      PUSH [tag] 119\t\t\t\n      JUMP \t\t\t\n    tag 205\t\t\t\n      JUMPDEST \t\t\t\n      SWAP1 \t\t\t\n      POP \t\t\t\n      SWAP2 \t\t\t\n      SWAP1 \t\t\t\n      POP \t\t\t\n      JUMP \t\t\t\n    tag 120\t\t\t\n      JUMPDEST \t\t\t\n      PUSH 5472616E73666572206661696C65640000000000000000000000000000000000\t\t\t\n      PUSH 0\t\t\t\n      DUP3 \t\t\t\n      ADD \t\t\t\n      MSTORE \t\t\t\n      POP \t\t\t\n      JUMP \t\t\t\n    tag 121\t\t\t\n      JUMPDEST \t\t\t\n      PUSH 0\t\t\t\n      PUSH [tag] 208\t\t\t\n      PUSH F\t\t\t\n      DUP4 \t\t\t\n      PUSH [tag] 117\t\t\t\n      JUMP \t\t\t\n    tag 208\t\t\t\n      JUMPDEST \t\t\t\n      SWAP2 \t\t\t\n      POP \t\t\t\n      PUSH [tag] 209\t\t\t\n      DUP3 \t\t\t\n      PUSH [tag] 120\t\t\t\n      JUMP \t\t\t\n    tag 209\t\t\t\n      JUMPDEST \t\t\t\n      PUSH 20\t\t\t\n      DUP3 \t\t\t\n      ADD \t\t\t\n      SWAP1 \t\t\t\n      POP \t\t\t\n      SWAP2 \t\t\t\n      SWAP1 \t\t\t\n      POP \t\t\t\n      JUMP \t\t\t\n    tag 61\t\t\t\n      JUMPDEST \t\t\t\n      PUSH 0\t\t\t\n      PUSH 20\t\t\t\n      DUP3 \t\t\t\n      ADD \t\t\t\n      SWAP1 \t\t\t\n      POP \t\t\t\n      DUP2 \t\t\t\n      DUP2 \t\t\t\n      SUB \t\t\t\n      PUSH 0\t\t\t\n      DUP4 \t\t\t\n      ADD \t\t\t\n      MSTORE \t\t\t\n      PUSH [tag] 211\t\t\t\n      DUP2 \t\t\t\n      PUSH [tag] 121\t\t\t\n      JUMP \t\t\t\n    tag 211\t\t\t\n      JUMPDEST \t\t\t\n      SWAP1 \t\t\t\n      POP \t\t\t\n      SWAP2 \t\t\t\n      SWAP1 \t\t\t\n      POP \t\t\t\n      JUMP \t\t\t\n    tag 122\t\t\t\n      JUMPDEST \t\t\t\n      PUSH 55736572206E6F7420456C696769626C65210000000000000000000000000000\t\t\t\n      PUSH 0\t\t\t\n      DUP3 \t\t\t\n      ADD \t\t\t\n      MSTORE \t\t\t\n      POP \t\t\t\n      JUMP \t\t\t\n    tag 123\t\t\t\n      JUMPDEST \t\t\t\n      PUSH 0\t\t\t\n      PUSH [tag] 214\t\t\t\n      PUSH 12\t\t\t\n      DUP4 \t\t\t\n      PUSH [tag] 117\t\t\t\n      JUMP \t\t\t\n    tag 214\t\t\t\n      JUMPDEST \t\t\t\n      SWAP2 \t\t\t\n      POP \t\t\t\n      PUSH [tag] 215\t\t\t\n      DUP3 \t\t\t\n      PUSH [tag] 122\t\t\t\n      JUMP \t\t\t\n    tag 215\t\t\t\n      JUMPDEST \t\t\t\n      PUSH 20\t\t\t\n      DUP3 \t\t\t\n      ADD \t\t\t\n      SWAP1 \t\t\t\n      POP \t\t\t\n      SWAP2 \t\t\t\n      SWAP1 \t\t\t\n      POP \t\t\t\n      JUMP \t\t\t\n    tag 66\t\t\t\n      JUMPDEST \t\t\t\n      PUSH 0\t\t\t\n      PUSH 20\t\t\t\n      DUP3 \t\t\t\n      ADD \t\t\t\n      SWAP1 \t\t\t\n      POP \t\t\t\n      DUP2 \t\t\t\n      DUP2 \t\t\t\n      SUB \t\t\t\n      PUSH 0\t\t\t\n      DUP4 \t\t\t\n      ADD \t\t\t\n      MSTORE \t\t\t\n      PUSH [tag] 217\t\t\t\n      DUP2 \t\t\t\n      PUSH [tag] 123\t\t\t\n      JUMP \t\t\t\n    tag 217\t\t\t\n      JUMPDEST \t\t\t\n      SWAP1 \t\t\t\n      POP \t\t\t\n      SWAP2 \t\t\t\n      SWAP1 \t\t\t\n      POP \t\t\t\n      JUMP \t\t\t\n    tag 124\t\t\t\n      JUMPDEST \t\t\t\n      PUSH 55736572206E6F7420417574686F72697A65643A207365637265742068617368\t\t\t\n      PUSH 0\t\t\t\n      DUP3 \t\t\t\n      ADD \t\t\t\n      MSTORE \t\t\t\n      PUSH 2069732077726F6E672100000000000000000000000000000000000000000000\t\t\t\n      PUSH 20\t\t\t\n      DUP3 \t\t\t\n      ADD \t\t\t\n      MSTORE \t\t\t\n      POP \t\t\t\n      JUMP \t\t\t\n    tag 125\t\t\t\n      JUMPDEST \t\t\t\n      PUSH 0\t\t\t\n      PUSH [tag] 220\t\t\t\n      PUSH 2A\t\t\t\n      DUP4 \t\t\t\n      PUSH [tag] 117\t\t\t\n      JUMP \t\t\t\n    tag 220\t\t\t\n      JUMPDEST \t\t\t\n      SWAP2 \t\t\t\n      POP \t\t\t\n      PUSH [tag] 221\t\t\t\n      DUP3 \t\t\t\n      PUSH [tag] 124\t\t\t\n      JUMP \t\t\t\n    tag 221\t\t\t\n      JUMPDEST \t\t\t\n      PUSH 40\t\t\t\n      DUP3 \t\t\t\n      ADD \t\t\t\n      SWAP1 \t\t\t\n      POP \t\t\t\n      SWAP2 \t\t\t\n      SWAP1 \t\t\t\n      POP \t\t\t\n      JUMP \t\t\t\n    tag 76\t\t\t\n      JUMPDEST \t\t\t\n      PUSH 0\t\t\t\n      PUSH 20\t\t\t\n      DUP3 \t\t\t\n      ADD \t\t\t\n      SWAP1 \t\t\t\n      POP \t\t\t\n      DUP2 \t\t\t\n      DUP2 \t\t\t\n      SUB \t\t\t\n      PUSH 0\t\t\t\n      DUP4 \t\t\t\n      ADD \t\t\t\n      MSTORE \t\t\t\n      PUSH [tag] 223\t\t\t\n      DUP2 \t\t\t\n      PUSH [tag] 125\t\t\t\n      JUMP \t\t\t\n    tag 223\t\t\t\n      JUMPDEST \t\t\t\n      SWAP1 \t\t\t\n      POP \t\t\t\n      SWAP2 \t\t\t\n      SWAP1 \t\t\t\n      POP \t\t\t\n      JUMP \t\t\t\n    tag 126\t\t\t\n      JUMPDEST \t\t\t\n      PUSH 55736572206E6F7420417574686F72697A65643A206175746820746F6B656E20\t\t\t\n      PUSH 0\t\t\t\n      DUP3 \t\t\t\n      ADD \t\t\t\n      MSTORE \t\t\t\n      PUSH 69732077726F6E67210000000000000000000000000000000000000000000000\t\t\t\n      PUSH 20\t\t\t\n      DUP3 \t\t\t\n      ADD \t\t\t\n      MSTORE \t\t\t\n      POP \t\t\t\n      JUMP \t\t\t\n    tag 127\t\t\t\n      JUMPDEST \t\t\t\n      PUSH 0\t\t\t\n      PUSH [tag] 226\t\t\t\n      PUSH 29\t\t\t\n      DUP4 \t\t\t\n      PUSH [tag] 117\t\t\t\n      JUMP \t\t\t\n    tag 226\t\t\t\n      JUMPDEST \t\t\t\n      SWAP2 \t\t\t\n      POP \t\t\t\n      PUSH [tag] 227\t\t\t\n      DUP3 \t\t\t\n      PUSH [tag] 126\t\t\t\n      JUMP \t\t\t\n    tag 227\t\t\t\n      JUMPDEST \t\t\t\n      PUSH 40\t\t\t\n      DUP3 \t\t\t\n      ADD \t\t\t\n      SWAP1 \t\t\t\n      POP \t\t\t\n      SWAP2 \t\t\t\n      SWAP1 \t\t\t\n      POP \t\t\t\n      JUMP \t\t\t\n    tag 81\t\t\t\n      JUMPDEST \t\t\t\n      PUSH 0\t\t\t\n      PUSH 20\t\t\t\n      DUP3 \t\t\t\n      ADD \t\t\t\n      SWAP1 \t\t\t\n      POP \t\t\t\n      DUP2 \t\t\t\n      DUP2 \t\t\t\n      SUB \t\t\t\n      PUSH 0\t\t\t\n      DUP4 \t\t\t\n      ADD \t\t\t\n      MSTORE \t\t\t\n      PUSH [tag] 229\t\t\t\n      DUP2 \t\t\t\n      PUSH [tag] 127\t\t\t\n      JUMP \t\t\t\n    tag 229\t\t\t\n      JUMPDEST \t\t\t\n      SWAP1 \t\t\t\n      POP \t\t\t\n      SWAP2 \t\t\t\n      SWAP1 \t\t\t\n      POP \t\t\t\n      JUMP \t\t\t\n    tag 128\t\t\t\n      JUMPDEST \t\t\t\n      PUSH 4E487B7100000000000000000000000000000000000000000000000000000000\t\t\t\n      PUSH 0\t\t\t\n      MSTORE \t\t\t\n      PUSH 11\t\t\t\n      PUSH 4\t\t\t\n      MSTORE \t\t\t\n      PUSH 24\t\t\t\n      PUSH 0\t\t\t\n      REVERT \t\t\t\n    tag 86\t\t\t\n      JUMPDEST \t\t\t\n      PUSH 0\t\t\t\n      PUSH [tag] 232\t\t\t\n      DUP3 \t\t\t\n      PUSH [tag] 102\t\t\t\n      JUMP \t\t\t\n    tag 232\t\t\t\n      JUMPDEST \t\t\t\n      SWAP2 \t\t\t\n      POP \t\t\t\n      PUSH [tag] 233\t\t\t\n      DUP4 \t\t\t\n      PUSH [tag] 102\t\t\t\n      JUMP \t\t\t\n    tag 233\t\t\t\n      JUMPDEST \t\t\t\n      SWAP3 \t\t\t\n      POP \t\t\t\n      DUP3 \t\t\t\n      DUP3 \t\t\t\n      SUB \t\t\t\n      SWAP1 \t\t\t\n      POP \t\t\t\n      DUP2 \t\t\t\n      DUP2 \t\t\t\n      GT \t\t\t\n      ISZERO \t\t\t\n      PUSH [tag] 234\t\t\t\n      JUMPI \t\t\t\n      PUSH [tag] 235\t\t\t\n      PUSH [tag] 128\t\t\t\n      JUMP \t\t\t\n    tag 235\t\t\t\n      JUMPDEST \t\t\t\n    tag 234\t\t\t\n      JUMPDEST \t\t\t\n      SWAP3 \t\t\t\n      SWAP2 \t\t\t\n      POP \t\t\t\n      POP \t\t\t\n      JUMP \t\t\t\n    tag 129\t\t\t\n      JUMPDEST \t\t\t\n      PUSH 0\t\t\t\n      DUP2 \t\t\t\n      SWAP1 \t\t\t\n      POP \t\t\t\n      SWAP2 \t\t\t\n      SWAP1 \t\t\t\n      POP \t\t\t\n      JUMP \t\t\t\n    tag 130\t\t\t\n      JUMPDEST \t\t\t\n      PUSH [tag] 238\t\t\t\n      PUSH [tag] 239\t\t\t\n      DUP3 \t\t\t\n      PUSH [tag] 100\t\t\t\n      JUMP \t\t\t\n    tag 239\t\t\t\n      JUMPDEST \t\t\t\n      PUSH [tag] 129\t\t\t\n      JUMP \t\t\t\n    tag 238\t\t\t\n      JUMPDEST \t\t\t\n      DUP3 \t\t\t\n      MSTORE \t\t\t\n      POP \t\t\t\n      POP \t\t\t\n      JUMP \t\t\t\n    tag 131\t\t\t\n      JUMPDEST \t\t\t\n      PUSH 0\t\t\t\n      DUP2 \t\t\t\n      SWAP1 \t\t\t\n      POP \t\t\t\n      SWAP2 \t\t\t\n      SWAP1 \t\t\t\n      POP \t\t\t\n      JUMP \t\t\t\n    tag 132\t\t\t\n      JUMPDEST \t\t\t\n      PUSH [tag] 242\t\t\t\n      PUSH [tag] 243\t\t\t\n      DUP3 \t\t\t\n      PUSH [tag] 102\t\t\t\n      JUMP \t\t\t\n    tag 243\t\t\t\n      JUMPDEST \t\t\t\n      PUSH [tag] 131\t\t\t\n      JUMP \t\t\t\n    tag 242\t\t\t\n      JUMPDEST \t\t\t\n      DUP3 \t\t\t\n      MSTORE \t\t\t\n      POP \t\t\t\n      POP \t\t\t\n      JUMP \t\t\t\n    tag 133\t\t\t\n      JUMPDEST \t\t\t\n      PUSH 0\t\t\t\n      DUP2 \t\t\t\n      PUSH 60\t\t\t\n      SHL \t\t\t\n      SWAP1 \t\t\t\n      POP \t\t\t\n      SWAP2 \t\t\t\n      SWAP1 \t\t\t\n      POP \t\t\t\n      JUMP \t\t\t\n    tag 134\t\t\t\n      JUMPDEST \t\t\t\n      PUSH 0\t\t\t\n      PUSH [tag] 246\t\t\t\n      DUP3 \t\t\t\n      PUSH [tag] 133\t\t\t\n      JUMP \t\t\t\n    tag 246\t\t\t\n      JUMPDEST \t\t\t\n      SWAP1 \t\t\t\n      POP \t\t\t\n      SWAP2 \t\t\t\n      SWAP1 \t\t\t\n      POP \t\t\t\n      JUMP \t\t\t\n    tag 135\t\t\t\n      JUMPDEST \t\t\t\n      PUSH 0\t\t\t\n      PUSH [tag] 248\t\t\t\n      DUP3 \t\t\t\n      PUSH [tag] 134\t\t\t\n      JUMP \t\t\t\n    tag 248\t\t\t\n      JUMPDEST \t\t\t\n      SWAP1 \t\t\t\n      POP \t\t\t\n      SWAP2 \t\t\t\n      SWAP1 \t\t\t\n      POP \t\t\t\n      JUMP \t\t\t\n    tag 136\t\t\t\n      JUMPDEST \t\t\t\n      PUSH [tag] 250\t\t\t\n      PUSH [tag] 251\t\t\t\n      DUP3 \t\t\t\n      PUSH [tag] 108\t\t\t\n      JUMP \t\t\t\n    tag 251\t\t\t\n      JUMPDEST \t\t\t\n      PUSH [tag] 135\t\t\t\n      JUMP \t\t\t\n    tag 250\t\t\t\n      JUMPDEST \t\t\t\n      DUP3 \t\t\t\n      MSTORE \t\t\t\n      POP \t\t\t\n      POP \t\t\t\n      JUMP \t\t\t\n    tag 137\t\t\t\n      JUMPDEST \t\t\t\n      PUSH 0\t\t\t\n      DUP2 \t\t\t\n      SWAP1 \t\t\t\n      POP \t\t\t\n      SWAP3 \t\t\t\n      SWAP2 \t\t\t\n      POP \t\t\t\n      POP \t\t\t\n      JUMP \t\t\t\n    tag 138\t\t\t\n      JUMPDEST \t\t\t\n      PUSH 6B65790000000000000000000000000000000000000000000000000000000000\t\t\t\n      PUSH 0\t\t\t\n      DUP3 \t\t\t\n      ADD \t\t\t\n      MSTORE \t\t\t\n      POP \t\t\t\n      JUMP \t\t\t\n    tag 139\t\t\t\n      JUMPDEST \t\t\t\n      PUSH 0\t\t\t\n      PUSH [tag] 255\t\t\t\n      PUSH 3\t\t\t\n      DUP4 \t\t\t\n      PUSH [tag] 137\t\t\t\n      JUMP \t\t\t\n    tag 255\t\t\t\n      JUMPDEST \t\t\t\n      SWAP2 \t\t\t\n      POP \t\t\t\n      PUSH [tag] 256\t\t\t\n      DUP3 \t\t\t\n      PUSH [tag] 138\t\t\t\n      JUMP \t\t\t\n    tag 256\t\t\t\n      JUMPDEST \t\t\t\n      PUSH 3\t\t\t\n      DUP3 \t\t\t\n      ADD \t\t\t\n      SWAP1 \t\t\t\n      POP \t\t\t\n      SWAP2 \t\t\t\n      SWAP1 \t\t\t\n      POP \t\t\t\n      JUMP \t\t\t\n    tag 88\t\t\t\n      JUMPDEST \t\t\t\n      PUSH 0\t\t\t\n      PUSH [tag] 258\t\t\t\n      DUP3 \t\t\t\n      DUP7 \t\t\t\n      PUSH [tag] 130\t\t\t\n      JUMP \t\t\t\n    tag 258\t\t\t\n      JUMPDEST \t\t\t\n      PUSH 20\t\t\t\n      DUP3 \t\t\t\n      ADD \t\t\t\n      SWAP2 \t\t\t\n      POP \t\t\t\n      PUSH [tag] 259\t\t\t\n      DUP3 \t\t\t\n      DUP6 \t\t\t\n      PUSH [tag] 132\t\t\t\n      JUMP \t\t\t\n    tag 259\t\t\t\n      JUMPDEST \t\t\t\n      PUSH 20\t\t\t\n      DUP3 \t\t\t\n      ADD \t\t\t\n      SWAP2 \t\t\t\n      POP \t\t\t\n      PUSH [tag] 260\t\t\t\n      DUP3 \t\t\t\n      DUP5 \t\t\t\n      PUSH [tag] 136\t\t\t\n      JUMP \t\t\t\n    tag 260\t\t\t\n      JUMPDEST \t\t\t\n      PUSH 14\t\t\t\n      DUP3 \t\t\t\n      ADD \t\t\t\n      SWAP2 \t\t\t\n      POP \t\t\t\n      PUSH [tag] 261\t\t\t\n      DUP3 \t\t\t\n      PUSH [tag] 139\t\t\t\n      JUMP \t\t\t\n    tag 261\t\t\t\n      JUMPDEST \t\t\t\n      SWAP2 \t\t\t\n      POP \t\t\t\n      DUP2 \t\t\t\n      SWAP1 \t\t\t\n      POP \t\t\t\n      SWAP5 \t\t\t\n      SWAP4 \t\t\t\n      POP \t\t\t\n      POP \t\t\t\n      POP \t\t\t\n      POP \t\t\t\n      JUMP \t\t\t\n    tag 140\t\t\t\n      JUMPDEST \t\t\t\n      PUSH 746F6B656E000000000000000000000000000000000000000000000000000000\t\t\t\n      PUSH 0\t\t\t\n      DUP3 \t\t\t\n      ADD \t\t\t\n      MSTORE \t\t\t\n      POP \t\t\t\n      JUMP \t\t\t\n    tag 141\t\t\t\n      JUMPDEST \t\t\t\n      PUSH 0\t\t\t\n      PUSH [tag] 264\t\t\t\n      PUSH 5\t\t\t\n      DUP4 \t\t\t\n      PUSH [tag] 137\t\t\t\n      JUMP \t\t\t\n    tag 264\t\t\t\n      JUMPDEST \t\t\t\n      SWAP2 \t\t\t\n      POP \t\t\t\n      PUSH [tag] 265\t\t\t\n      DUP3 \t\t\t\n      PUSH [tag] 140\t\t\t\n      JUMP \t\t\t\n    tag 265\t\t\t\n      JUMPDEST \t\t\t\n      PUSH 5\t\t\t\n      DUP3 \t\t\t\n      ADD \t\t\t\n      SWAP1 \t\t\t\n      POP \t\t\t\n      SWAP2 \t\t\t\n      SWAP1 \t\t\t\n      POP \t\t\t\n      JUMP \t\t\t\n    tag 91\t\t\t\n      JUMPDEST \t\t\t\n      PUSH 0\t\t\t\n      PUSH [tag] 267\t\t\t\n      DUP3 \t\t\t\n      DUP7 \t\t\t\n      PUSH [tag] 130\t\t\t\n      JUMP \t\t\t\n    tag 267\t\t\t\n      JUMPDEST \t\t\t\n      PUSH 20\t\t\t\n      DUP3 \t\t\t\n      ADD \t\t\t\n      SWAP2 \t\t\t\n      POP \t\t\t\n      PUSH [tag] 268\t\t\t\n      DUP3 \t\t\t\n      DUP6 \t\t\t\n      PUSH [tag] 132\t\t\t\n      JUMP \t\t\t\n    tag 268\t\t\t\n      JUMPDEST \t\t\t\n      PUSH 20\t\t\t\n      DUP3 \t\t\t\n      ADD \t\t\t\n      SWAP2 \t\t\t\n      POP \t\t\t\n      PUSH [tag] 269\t\t\t\n      DUP3 \t\t\t\n      DUP5 \t\t\t\n      PUSH [tag] 136\t\t\t\n      JUMP \t\t\t\n    tag 269\t\t\t\n      JUMPDEST \t\t\t\n      PUSH 14\t\t\t\n      DUP3 \t\t\t\n      ADD \t\t\t\n      SWAP2 \t\t\t\n      POP \t\t\t\n      PUSH [tag] 270\t\t\t\n      DUP3 \t\t\t\n      PUSH [tag] 141\t\t\t\n      JUMP \t\t\t\n    tag 270\t\t\t\n      JUMPDEST \t\t\t\n      SWAP2 \t\t\t\n      POP \t\t\t\n      DUP2 \t\t\t\n      SWAP1 \t\t\t\n      POP \t\t\t\n      SWAP5 \t\t\t\n      SWAP4 \t\t\t\n      POP \t\t\t\n      POP \t\t\t\n      POP \t\t\t\n      POP \t\t\t\n      JUMP \t\t\t\n    .data\n  FAFEF2A5274AA1A80DB928E0EF713D634DACD5333E96D9E3311ACB98FF2A8244:\n    307835663030316566666130616133366534346331383562346431313165663231376166333230643036663735643534633935353838613262363164323736396634\n"
}