{
	"compilerInput": "{\"language\":\"Solidity\",\"sources\":{\"loyalty.sol\":{\"content\":\"// SPDX-License-Identifier: GPL-3.0\\r\\npragma solidity >=0.4.20 <0.9.0;\\r\\n\\r\\ncontract cryptoDorea {\\r\\n\\r\\n    bytes32 private _secretHash;\\r\\n\\r\\n    // define constructor to get fund on deploy stage\\r\\n    constructor() payable {\\r\\n\\r\\n        _secretHash = keccak256(abi.encodePacked(\\\"dorea\\\"));\\r\\n\\r\\n    }\\r\\n\\r\\n    // get balance of contract address\\r\\n    function getBalance() public view returns(uint256){\\r\\n        return address(this).balance;\\r\\n    }\\r\\n\\r\\n    // Transfer Ether to Loyal Customers\\r\\n    function pay(address recipient, uint256  amount, uint256 campaignCount, uint256 shoppingCount, string memory _secret) public payable{\\r\\n        \\r\\n        userAuthorized(_secret);\\r\\n\\r\\n        require(amount <= address(this).balance, \\\"Insufficient balance\\\");\\r\\n\\r\\n        if(shoppingCount >= campaignCount){       \\r\\n            // Transfer Ether to the receipnt address\\r\\n            bool success = payable(recipient).send(amount);\\r\\n            require(success, \\\"Transfer failed\\\");\\r\\n        }\\r\\n        \\r\\n    }\\r\\n\\r\\n    function userAuthorized(string memory _secret) private view {\\r\\n        \\r\\n        require(keccak256(abi.encodePacked(_secret)) == _secretHash, \\\"not Authorized!\\\");\\r\\n      \\r\\n    }\\r\\n\\r\\n    // for test: remove after production\\r\\n    function test() public view returns (bytes32){\\r\\n        return _secretHash;\\r\\n    }\\r\\n    \\r\\n}\"}},\"settings\":{\"optimizer\":{\"enabled\":false,\"runs\":200},\"outputSelection\":{\"*\":{\"\":[\"ast\"],\"*\":[\"abi\",\"metadata\",\"devdoc\",\"userdoc\",\"storageLayout\",\"evm.legacyAssembly\",\"evm.bytecode\",\"evm.deployedBytecode\",\"evm.methodIdentifiers\",\"evm.gasEstimates\",\"evm.assembly\"]}},\"remappings\":[]}}",
	"name": "cryptoDorea",
	"bytecode": {
		"linkReferences": {},
		"object": "608060405260405160200161001390610087565b604051602081830303815290604052805190602001205f8190555061009b565b5f81905092915050565b7f646f7265610000000000000000000000000000000000000000000000000000005f82015250565b5f610071600583610033565b915061007c8261003d565b600582019050919050565b5f61009182610065565b9150819050919050565b6106bb806100a85f395ff3fe608060405260043610610033575f3560e01c806312065fe014610037578063d14d7ae814610061578063f8a8fd6d1461007d575b5f80fd5b348015610042575f80fd5b5061004b6100a7565b604051610058919061020d565b60405180910390f35b61007b600480360381019061007691906103f7565b6100ae565b005b348015610088575f80fd5b50610091610181565b60405161009e91906104a2565b60405180910390f35b5f47905090565b6100b781610189565b478411156100fa576040517f08c379a00000000000000000000000000000000000000000000000000000000081526004016100f190610515565b60405180910390fd5b82821061017a575f8573ffffffffffffffffffffffffffffffffffffffff166108fc8690811502906040515f60405180830381858888f19350505050905080610178576040517f08c379a000000000000000000000000000000000000000000000000000000000815260040161016f9061057d565b60405180910390fd5b505b5050505050565b5f8054905090565b5f548160405160200161019c9190610607565b60405160208183030381529060405280519060200120146101f2576040517f08c379a00000000000000000000000000000000000000000000000000000000081526004016101e990610667565b60405180910390fd5b50565b5f819050919050565b610207816101f5565b82525050565b5f6020820190506102205f8301846101fe565b92915050565b5f604051905090565b5f80fd5b5f80fd5b5f73ffffffffffffffffffffffffffffffffffffffff82169050919050565b5f61026082610237565b9050919050565b61027081610256565b811461027a575f80fd5b50565b5f8135905061028b81610267565b92915050565b61029a816101f5565b81146102a4575f80fd5b50565b5f813590506102b581610291565b92915050565b5f80fd5b5f80fd5b5f601f19601f8301169050919050565b7f4e487b71000000000000000000000000000000000000000000000000000000005f52604160045260245ffd5b610309826102c3565b810181811067ffffffffffffffff82111715610328576103276102d3565b5b80604052505050565b5f61033a610226565b90506103468282610300565b919050565b5f67ffffffffffffffff821115610365576103646102d3565b5b61036e826102c3565b9050602081019050919050565b828183375f83830152505050565b5f61039b6103968461034b565b610331565b9050828152602081018484840111156103b7576103b66102bf565b5b6103c284828561037b565b509392505050565b5f82601f8301126103de576103dd6102bb565b5b81356103ee848260208601610389565b91505092915050565b5f805f805f60a086880312156104105761040f61022f565b5b5f61041d8882890161027d565b955050602061042e888289016102a7565b945050604061043f888289016102a7565b9350506060610450888289016102a7565b925050608086013567ffffffffffffffff81111561047157610470610233565b5b61047d888289016103ca565b9150509295509295909350565b5f819050919050565b61049c8161048a565b82525050565b5f6020820190506104b55f830184610493565b92915050565b5f82825260208201905092915050565b7f496e73756666696369656e742062616c616e63650000000000000000000000005f82015250565b5f6104ff6014836104bb565b915061050a826104cb565b602082019050919050565b5f6020820190508181035f83015261052c816104f3565b9050919050565b7f5472616e73666572206661696c656400000000000000000000000000000000005f82015250565b5f610567600f836104bb565b915061057282610533565b602082019050919050565b5f6020820190508181035f8301526105948161055b565b9050919050565b5f81519050919050565b5f81905092915050565b5f5b838110156105cc5780820151818401526020810190506105b1565b5f8484015250505050565b5f6105e18261059b565b6105eb81856105a5565b93506105fb8185602086016105af565b80840191505092915050565b5f61061282846105d7565b915081905092915050565b7f6e6f7420417574686f72697a65642100000000000000000000000000000000005f82015250565b5f610651600f836104bb565b915061065c8261061d565b602082019050919050565b5f6020820190508181035f83015261067e81610645565b905091905056fea26469706673582212201eef51b2cc637617f00e0a88a3e0b655754ce6247dc881aa184f6e9c03e5b2f864736f6c63430008160033",
		"opcodes": "PUSH1 0x80 PUSH1 0x40 MSTORE PUSH1 0x40 MLOAD PUSH1 0x20 ADD PUSH2 0x13 SWAP1 PUSH2 0x87 JUMP JUMPDEST PUSH1 0x40 MLOAD PUSH1 0x20 DUP2 DUP4 SUB SUB DUP2 MSTORE SWAP1 PUSH1 0x40 MSTORE DUP1 MLOAD SWAP1 PUSH1 0x20 ADD KECCAK256 PUSH0 DUP2 SWAP1 SSTORE POP PUSH2 0x9B JUMP JUMPDEST PUSH0 DUP2 SWAP1 POP SWAP3 SWAP2 POP POP JUMP JUMPDEST PUSH32 0x646F726561000000000000000000000000000000000000000000000000000000 PUSH0 DUP3 ADD MSTORE POP JUMP JUMPDEST PUSH0 PUSH2 0x71 PUSH1 0x5 DUP4 PUSH2 0x33 JUMP JUMPDEST SWAP2 POP PUSH2 0x7C DUP3 PUSH2 0x3D JUMP JUMPDEST PUSH1 0x5 DUP3 ADD SWAP1 POP SWAP2 SWAP1 POP JUMP JUMPDEST PUSH0 PUSH2 0x91 DUP3 PUSH2 0x65 JUMP JUMPDEST SWAP2 POP DUP2 SWAP1 POP SWAP2 SWAP1 POP JUMP JUMPDEST PUSH2 0x6BB DUP1 PUSH2 0xA8 PUSH0 CODECOPY PUSH0 RETURN INVALID PUSH1 0x80 PUSH1 0x40 MSTORE PUSH1 0x4 CALLDATASIZE LT PUSH2 0x33 JUMPI PUSH0 CALLDATALOAD PUSH1 0xE0 SHR DUP1 PUSH4 0x12065FE0 EQ PUSH2 0x37 JUMPI DUP1 PUSH4 0xD14D7AE8 EQ PUSH2 0x61 JUMPI DUP1 PUSH4 0xF8A8FD6D EQ PUSH2 0x7D JUMPI JUMPDEST PUSH0 DUP1 REVERT JUMPDEST CALLVALUE DUP1 ISZERO PUSH2 0x42 JUMPI PUSH0 DUP1 REVERT JUMPDEST POP PUSH2 0x4B PUSH2 0xA7 JUMP JUMPDEST PUSH1 0x40 MLOAD PUSH2 0x58 SWAP2 SWAP1 PUSH2 0x20D JUMP JUMPDEST PUSH1 0x40 MLOAD DUP1 SWAP2 SUB SWAP1 RETURN JUMPDEST PUSH2 0x7B PUSH1 0x4 DUP1 CALLDATASIZE SUB DUP2 ADD SWAP1 PUSH2 0x76 SWAP2 SWAP1 PUSH2 0x3F7 JUMP JUMPDEST PUSH2 0xAE JUMP JUMPDEST STOP JUMPDEST CALLVALUE DUP1 ISZERO PUSH2 0x88 JUMPI PUSH0 DUP1 REVERT JUMPDEST POP PUSH2 0x91 PUSH2 0x181 JUMP JUMPDEST PUSH1 0x40 MLOAD PUSH2 0x9E SWAP2 SWAP1 PUSH2 0x4A2 JUMP JUMPDEST PUSH1 0x40 MLOAD DUP1 SWAP2 SUB SWAP1 RETURN JUMPDEST PUSH0 SELFBALANCE SWAP1 POP SWAP1 JUMP JUMPDEST PUSH2 0xB7 DUP2 PUSH2 0x189 JUMP JUMPDEST SELFBALANCE DUP5 GT ISZERO PUSH2 0xFA JUMPI PUSH1 0x40 MLOAD PUSH32 0x8C379A000000000000000000000000000000000000000000000000000000000 DUP2 MSTORE PUSH1 0x4 ADD PUSH2 0xF1 SWAP1 PUSH2 0x515 JUMP JUMPDEST PUSH1 0x40 MLOAD DUP1 SWAP2 SUB SWAP1 REVERT JUMPDEST DUP3 DUP3 LT PUSH2 0x17A JUMPI PUSH0 DUP6 PUSH20 0xFFFFFFFFFFFFFFFFFFFFFFFFFFFFFFFFFFFFFFFF AND PUSH2 0x8FC DUP7 SWAP1 DUP2 ISZERO MUL SWAP1 PUSH1 0x40 MLOAD PUSH0 PUSH1 0x40 MLOAD DUP1 DUP4 SUB DUP2 DUP6 DUP9 DUP9 CALL SWAP4 POP POP POP POP SWAP1 POP DUP1 PUSH2 0x178 JUMPI PUSH1 0x40 MLOAD PUSH32 0x8C379A000000000000000000000000000000000000000000000000000000000 DUP2 MSTORE PUSH1 0x4 ADD PUSH2 0x16F SWAP1 PUSH2 0x57D JUMP JUMPDEST PUSH1 0x40 MLOAD DUP1 SWAP2 SUB SWAP1 REVERT JUMPDEST POP JUMPDEST POP POP POP POP POP JUMP JUMPDEST PUSH0 DUP1 SLOAD SWAP1 POP SWAP1 JUMP JUMPDEST PUSH0 SLOAD DUP2 PUSH1 0x40 MLOAD PUSH1 0x20 ADD PUSH2 0x19C SWAP2 SWAP1 PUSH2 0x607 JUMP JUMPDEST PUSH1 0x40 MLOAD PUSH1 0x20 DUP2 DUP4 SUB SUB DUP2 MSTORE SWAP1 PUSH1 0x40 MSTORE DUP1 MLOAD SWAP1 PUSH1 0x20 ADD KECCAK256 EQ PUSH2 0x1F2 JUMPI PUSH1 0x40 MLOAD PUSH32 0x8C379A000000000000000000000000000000000000000000000000000000000 DUP2 MSTORE PUSH1 0x4 ADD PUSH2 0x1E9 SWAP1 PUSH2 0x667 JUMP JUMPDEST PUSH1 0x40 MLOAD DUP1 SWAP2 SUB SWAP1 REVERT JUMPDEST POP JUMP JUMPDEST PUSH0 DUP2 SWAP1 POP SWAP2 SWAP1 POP JUMP JUMPDEST PUSH2 0x207 DUP2 PUSH2 0x1F5 JUMP JUMPDEST DUP3 MSTORE POP POP JUMP JUMPDEST PUSH0 PUSH1 0x20 DUP3 ADD SWAP1 POP PUSH2 0x220 PUSH0 DUP4 ADD DUP5 PUSH2 0x1FE JUMP JUMPDEST SWAP3 SWAP2 POP POP JUMP JUMPDEST PUSH0 PUSH1 0x40 MLOAD SWAP1 POP SWAP1 JUMP JUMPDEST PUSH0 DUP1 REVERT JUMPDEST PUSH0 DUP1 REVERT JUMPDEST PUSH0 PUSH20 0xFFFFFFFFFFFFFFFFFFFFFFFFFFFFFFFFFFFFFFFF DUP3 AND SWAP1 POP SWAP2 SWAP1 POP JUMP JUMPDEST PUSH0 PUSH2 0x260 DUP3 PUSH2 0x237 JUMP JUMPDEST SWAP1 POP SWAP2 SWAP1 POP JUMP JUMPDEST PUSH2 0x270 DUP2 PUSH2 0x256 JUMP JUMPDEST DUP2 EQ PUSH2 0x27A JUMPI PUSH0 DUP1 REVERT JUMPDEST POP JUMP JUMPDEST PUSH0 DUP2 CALLDATALOAD SWAP1 POP PUSH2 0x28B DUP2 PUSH2 0x267 JUMP JUMPDEST SWAP3 SWAP2 POP POP JUMP JUMPDEST PUSH2 0x29A DUP2 PUSH2 0x1F5 JUMP JUMPDEST DUP2 EQ PUSH2 0x2A4 JUMPI PUSH0 DUP1 REVERT JUMPDEST POP JUMP JUMPDEST PUSH0 DUP2 CALLDATALOAD SWAP1 POP PUSH2 0x2B5 DUP2 PUSH2 0x291 JUMP JUMPDEST SWAP3 SWAP2 POP POP JUMP JUMPDEST PUSH0 DUP1 REVERT JUMPDEST PUSH0 DUP1 REVERT JUMPDEST PUSH0 PUSH1 0x1F NOT PUSH1 0x1F DUP4 ADD AND SWAP1 POP SWAP2 SWAP1 POP JUMP JUMPDEST PUSH32 0x4E487B7100000000000000000000000000000000000000000000000000000000 PUSH0 MSTORE PUSH1 0x41 PUSH1 0x4 MSTORE PUSH1 0x24 PUSH0 REVERT JUMPDEST PUSH2 0x309 DUP3 PUSH2 0x2C3 JUMP JUMPDEST DUP2 ADD DUP2 DUP2 LT PUSH8 0xFFFFFFFFFFFFFFFF DUP3 GT OR ISZERO PUSH2 0x328 JUMPI PUSH2 0x327 PUSH2 0x2D3 JUMP JUMPDEST JUMPDEST DUP1 PUSH1 0x40 MSTORE POP POP POP JUMP JUMPDEST PUSH0 PUSH2 0x33A PUSH2 0x226 JUMP JUMPDEST SWAP1 POP PUSH2 0x346 DUP3 DUP3 PUSH2 0x300 JUMP JUMPDEST SWAP2 SWAP1 POP JUMP JUMPDEST PUSH0 PUSH8 0xFFFFFFFFFFFFFFFF DUP3 GT ISZERO PUSH2 0x365 JUMPI PUSH2 0x364 PUSH2 0x2D3 JUMP JUMPDEST JUMPDEST PUSH2 0x36E DUP3 PUSH2 0x2C3 JUMP JUMPDEST SWAP1 POP PUSH1 0x20 DUP2 ADD SWAP1 POP SWAP2 SWAP1 POP JUMP JUMPDEST DUP3 DUP2 DUP4 CALLDATACOPY PUSH0 DUP4 DUP4 ADD MSTORE POP POP POP JUMP JUMPDEST PUSH0 PUSH2 0x39B PUSH2 0x396 DUP5 PUSH2 0x34B JUMP JUMPDEST PUSH2 0x331 JUMP JUMPDEST SWAP1 POP DUP3 DUP2 MSTORE PUSH1 0x20 DUP2 ADD DUP5 DUP5 DUP5 ADD GT ISZERO PUSH2 0x3B7 JUMPI PUSH2 0x3B6 PUSH2 0x2BF JUMP JUMPDEST JUMPDEST PUSH2 0x3C2 DUP5 DUP3 DUP6 PUSH2 0x37B JUMP JUMPDEST POP SWAP4 SWAP3 POP POP POP JUMP JUMPDEST PUSH0 DUP3 PUSH1 0x1F DUP4 ADD SLT PUSH2 0x3DE JUMPI PUSH2 0x3DD PUSH2 0x2BB JUMP JUMPDEST JUMPDEST DUP2 CALLDATALOAD PUSH2 0x3EE DUP5 DUP3 PUSH1 0x20 DUP7 ADD PUSH2 0x389 JUMP JUMPDEST SWAP2 POP POP SWAP3 SWAP2 POP POP JUMP JUMPDEST PUSH0 DUP1 PUSH0 DUP1 PUSH0 PUSH1 0xA0 DUP7 DUP9 SUB SLT ISZERO PUSH2 0x410 JUMPI PUSH2 0x40F PUSH2 0x22F JUMP JUMPDEST JUMPDEST PUSH0 PUSH2 0x41D DUP9 DUP3 DUP10 ADD PUSH2 0x27D JUMP JUMPDEST SWAP6 POP POP PUSH1 0x20 PUSH2 0x42E DUP9 DUP3 DUP10 ADD PUSH2 0x2A7 JUMP JUMPDEST SWAP5 POP POP PUSH1 0x40 PUSH2 0x43F DUP9 DUP3 DUP10 ADD PUSH2 0x2A7 JUMP JUMPDEST SWAP4 POP POP PUSH1 0x60 PUSH2 0x450 DUP9 DUP3 DUP10 ADD PUSH2 0x2A7 JUMP JUMPDEST SWAP3 POP POP PUSH1 0x80 DUP7 ADD CALLDATALOAD PUSH8 0xFFFFFFFFFFFFFFFF DUP2 GT ISZERO PUSH2 0x471 JUMPI PUSH2 0x470 PUSH2 0x233 JUMP JUMPDEST JUMPDEST PUSH2 0x47D DUP9 DUP3 DUP10 ADD PUSH2 0x3CA JUMP JUMPDEST SWAP2 POP POP SWAP3 SWAP6 POP SWAP3 SWAP6 SWAP1 SWAP4 POP JUMP JUMPDEST PUSH0 DUP2 SWAP1 POP SWAP2 SWAP1 POP JUMP JUMPDEST PUSH2 0x49C DUP2 PUSH2 0x48A JUMP JUMPDEST DUP3 MSTORE POP POP JUMP JUMPDEST PUSH0 PUSH1 0x20 DUP3 ADD SWAP1 POP PUSH2 0x4B5 PUSH0 DUP4 ADD DUP5 PUSH2 0x493 JUMP JUMPDEST SWAP3 SWAP2 POP POP JUMP JUMPDEST PUSH0 DUP3 DUP3 MSTORE PUSH1 0x20 DUP3 ADD SWAP1 POP SWAP3 SWAP2 POP POP JUMP JUMPDEST PUSH32 0x496E73756666696369656E742062616C616E6365000000000000000000000000 PUSH0 DUP3 ADD MSTORE POP JUMP JUMPDEST PUSH0 PUSH2 0x4FF PUSH1 0x14 DUP4 PUSH2 0x4BB JUMP JUMPDEST SWAP2 POP PUSH2 0x50A DUP3 PUSH2 0x4CB JUMP JUMPDEST PUSH1 0x20 DUP3 ADD SWAP1 POP SWAP2 SWAP1 POP JUMP JUMPDEST PUSH0 PUSH1 0x20 DUP3 ADD SWAP1 POP DUP2 DUP2 SUB PUSH0 DUP4 ADD MSTORE PUSH2 0x52C DUP2 PUSH2 0x4F3 JUMP JUMPDEST SWAP1 POP SWAP2 SWAP1 POP JUMP JUMPDEST PUSH32 0x5472616E73666572206661696C65640000000000000000000000000000000000 PUSH0 DUP3 ADD MSTORE POP JUMP JUMPDEST PUSH0 PUSH2 0x567 PUSH1 0xF DUP4 PUSH2 0x4BB JUMP JUMPDEST SWAP2 POP PUSH2 0x572 DUP3 PUSH2 0x533 JUMP JUMPDEST PUSH1 0x20 DUP3 ADD SWAP1 POP SWAP2 SWAP1 POP JUMP JUMPDEST PUSH0 PUSH1 0x20 DUP3 ADD SWAP1 POP DUP2 DUP2 SUB PUSH0 DUP4 ADD MSTORE PUSH2 0x594 DUP2 PUSH2 0x55B JUMP JUMPDEST SWAP1 POP SWAP2 SWAP1 POP JUMP JUMPDEST PUSH0 DUP2 MLOAD SWAP1 POP SWAP2 SWAP1 POP JUMP JUMPDEST PUSH0 DUP2 SWAP1 POP SWAP3 SWAP2 POP POP JUMP JUMPDEST PUSH0 JUMPDEST DUP4 DUP2 LT ISZERO PUSH2 0x5CC JUMPI DUP1 DUP3 ADD MLOAD DUP2 DUP5 ADD MSTORE PUSH1 0x20 DUP2 ADD SWAP1 POP PUSH2 0x5B1 JUMP JUMPDEST PUSH0 DUP5 DUP5 ADD MSTORE POP POP POP POP JUMP JUMPDEST PUSH0 PUSH2 0x5E1 DUP3 PUSH2 0x59B JUMP JUMPDEST PUSH2 0x5EB DUP2 DUP6 PUSH2 0x5A5 JUMP JUMPDEST SWAP4 POP PUSH2 0x5FB DUP2 DUP6 PUSH1 0x20 DUP7 ADD PUSH2 0x5AF JUMP JUMPDEST DUP1 DUP5 ADD SWAP2 POP POP SWAP3 SWAP2 POP POP JUMP JUMPDEST PUSH0 PUSH2 0x612 DUP3 DUP5 PUSH2 0x5D7 JUMP JUMPDEST SWAP2 POP DUP2 SWAP1 POP SWAP3 SWAP2 POP POP JUMP JUMPDEST PUSH32 0x6E6F7420417574686F72697A6564210000000000000000000000000000000000 PUSH0 DUP3 ADD MSTORE POP JUMP JUMPDEST PUSH0 PUSH2 0x651 PUSH1 0xF DUP4 PUSH2 0x4BB JUMP JUMPDEST SWAP2 POP PUSH2 0x65C DUP3 PUSH2 0x61D JUMP JUMPDEST PUSH1 0x20 DUP3 ADD SWAP1 POP SWAP2 SWAP1 POP JUMP JUMPDEST PUSH0 PUSH1 0x20 DUP3 ADD SWAP1 POP DUP2 DUP2 SUB PUSH0 DUP4 ADD MSTORE PUSH2 0x67E DUP2 PUSH2 0x645 JUMP JUMPDEST SWAP1 POP SWAP2 SWAP1 POP JUMP INVALID LOG2 PUSH5 0x6970667358 0x22 SLT KECCAK256 0x1E 0xEF MLOAD 0xB2 0xCC PUSH4 0x7617F00E EXP DUP9 LOG3 0xE0 0xB6 SSTORE PUSH22 0x4CE6247DC881AA184F6E9C03E5B2F864736F6C634300 ADDMOD AND STOP CALLER "
	},
	"abi": [
		{
			"inputs": [],
			"stateMutability": "payable",
			"type": "constructor"
		},
		{
			"inputs": [],
			"name": "getBalance",
			"outputs": [
				{
					"internalType": "uint256",
					"name": "",
					"type": "uint256"
				}
			],
			"stateMutability": "view",
			"type": "function"
		},
		{
			"inputs": [
				{
					"internalType": "address",
					"name": "recipient",
					"type": "address"
				},
				{
					"internalType": "uint256",
					"name": "amount",
					"type": "uint256"
				},
				{
					"internalType": "uint256",
					"name": "campaignCount",
					"type": "uint256"
				},
				{
					"internalType": "uint256",
					"name": "shoppingCount",
					"type": "uint256"
				},
				{
					"internalType": "string",
					"name": "_secret",
					"type": "string"
				}
			],
			"name": "pay",
			"outputs": [],
			"stateMutability": "payable",
			"type": "function"
		},
		{
			"inputs": [],
			"name": "test",
			"outputs": [
				{
					"internalType": "bytes32",
					"name": "",
					"type": "bytes32"
				}
			],
			"stateMutability": "view",
			"type": "function"
		}
	],
	"storageLayout": {
		"storage": [
			{
				"astId": 3,
				"contract": "loyalty.sol:cryptoDorea",
				"label": "_secretHash",
				"offset": 0,
				"slot": "0",
				"type": "t_bytes32"
			}
		],
		"types": {
			"t_bytes32": {
				"encoding": "inplace",
				"label": "bytes32",
				"numberOfBytes": "32"
			}
		}
	},
	"web3Deploy": "var cryptodoreaContract = new web3.eth.Contract([{\"inputs\":[],\"stateMutability\":\"payable\",\"type\":\"constructor\"},{\"inputs\":[],\"name\":\"getBalance\",\"outputs\":[{\"internalType\":\"uint256\",\"name\":\"\",\"type\":\"uint256\"}],\"stateMutability\":\"view\",\"type\":\"function\"},{\"inputs\":[{\"internalType\":\"address\",\"name\":\"recipient\",\"type\":\"address\"},{\"internalType\":\"uint256\",\"name\":\"amount\",\"type\":\"uint256\"},{\"internalType\":\"uint256\",\"name\":\"campaignCount\",\"type\":\"uint256\"},{\"internalType\":\"uint256\",\"name\":\"shoppingCount\",\"type\":\"uint256\"},{\"internalType\":\"string\",\"name\":\"_secret\",\"type\":\"string\"}],\"name\":\"pay\",\"outputs\":[],\"stateMutability\":\"payable\",\"type\":\"function\"},{\"inputs\":[],\"name\":\"test\",\"outputs\":[{\"internalType\":\"bytes32\",\"name\":\"\",\"type\":\"bytes32\"}],\"stateMutability\":\"view\",\"type\":\"function\"}]);\nvar cryptodorea = cryptodoreaContract.deploy({\n     data: '0x608060405260405160200161001390610087565b604051602081830303815290604052805190602001205f8190555061009b565b5f81905092915050565b7f646f7265610000000000000000000000000000000000000000000000000000005f82015250565b5f610071600583610033565b915061007c8261003d565b600582019050919050565b5f61009182610065565b9150819050919050565b6106bb806100a85f395ff3fe608060405260043610610033575f3560e01c806312065fe014610037578063d14d7ae814610061578063f8a8fd6d1461007d575b5f80fd5b348015610042575f80fd5b5061004b6100a7565b604051610058919061020d565b60405180910390f35b61007b600480360381019061007691906103f7565b6100ae565b005b348015610088575f80fd5b50610091610181565b60405161009e91906104a2565b60405180910390f35b5f47905090565b6100b781610189565b478411156100fa576040517f08c379a00000000000000000000000000000000000000000000000000000000081526004016100f190610515565b60405180910390fd5b82821061017a575f8573ffffffffffffffffffffffffffffffffffffffff166108fc8690811502906040515f60405180830381858888f19350505050905080610178576040517f08c379a000000000000000000000000000000000000000000000000000000000815260040161016f9061057d565b60405180910390fd5b505b5050505050565b5f8054905090565b5f548160405160200161019c9190610607565b60405160208183030381529060405280519060200120146101f2576040517f08c379a00000000000000000000000000000000000000000000000000000000081526004016101e990610667565b60405180910390fd5b50565b5f819050919050565b610207816101f5565b82525050565b5f6020820190506102205f8301846101fe565b92915050565b5f604051905090565b5f80fd5b5f80fd5b5f73ffffffffffffffffffffffffffffffffffffffff82169050919050565b5f61026082610237565b9050919050565b61027081610256565b811461027a575f80fd5b50565b5f8135905061028b81610267565b92915050565b61029a816101f5565b81146102a4575f80fd5b50565b5f813590506102b581610291565b92915050565b5f80fd5b5f80fd5b5f601f19601f8301169050919050565b7f4e487b71000000000000000000000000000000000000000000000000000000005f52604160045260245ffd5b610309826102c3565b810181811067ffffffffffffffff82111715610328576103276102d3565b5b80604052505050565b5f61033a610226565b90506103468282610300565b919050565b5f67ffffffffffffffff821115610365576103646102d3565b5b61036e826102c3565b9050602081019050919050565b828183375f83830152505050565b5f61039b6103968461034b565b610331565b9050828152602081018484840111156103b7576103b66102bf565b5b6103c284828561037b565b509392505050565b5f82601f8301126103de576103dd6102bb565b5b81356103ee848260208601610389565b91505092915050565b5f805f805f60a086880312156104105761040f61022f565b5b5f61041d8882890161027d565b955050602061042e888289016102a7565b945050604061043f888289016102a7565b9350506060610450888289016102a7565b925050608086013567ffffffffffffffff81111561047157610470610233565b5b61047d888289016103ca565b9150509295509295909350565b5f819050919050565b61049c8161048a565b82525050565b5f6020820190506104b55f830184610493565b92915050565b5f82825260208201905092915050565b7f496e73756666696369656e742062616c616e63650000000000000000000000005f82015250565b5f6104ff6014836104bb565b915061050a826104cb565b602082019050919050565b5f6020820190508181035f83015261052c816104f3565b9050919050565b7f5472616e73666572206661696c656400000000000000000000000000000000005f82015250565b5f610567600f836104bb565b915061057282610533565b602082019050919050565b5f6020820190508181035f8301526105948161055b565b9050919050565b5f81519050919050565b5f81905092915050565b5f5b838110156105cc5780820151818401526020810190506105b1565b5f8484015250505050565b5f6105e18261059b565b6105eb81856105a5565b93506105fb8185602086016105af565b80840191505092915050565b5f61061282846105d7565b915081905092915050565b7f6e6f7420417574686f72697a65642100000000000000000000000000000000005f82015250565b5f610651600f836104bb565b915061065c8261061d565b602082019050919050565b5f6020820190508181035f83015261067e81610645565b905091905056fea26469706673582212201eef51b2cc637617f00e0a88a3e0b655754ce6247dc881aa184f6e9c03e5b2f864736f6c63430008160033', \n     arguments: [\n     ]\n}).send({\n     from: web3.eth.accounts[0], \n     gas: '4700000'\n   }, function (e, contract){\n    console.log(e, contract);\n    if (typeof contract.address !== 'undefined') {\n         console.log('Contract mined! address: ' + contract.address + ' transactionHash: ' + contract.transactionHash);\n    }\n })",
	"functionHashes": {
		"12065fe0": "getBalance()",
		"d14d7ae8": "pay(address,uint256,uint256,uint256,string)",
		"f8a8fd6d": "test()"
	},
	"gasEstimates": {
		"Creation": {
			"codeDepositCost": "344600",
			"executionCost": "22774",
			"totalCost": "367374"
		},
		"External": {
			"getBalance()": "312",
			"pay(address,uint256,uint256,uint256,string)": "infinite",
			"test()": "2454"
		},
		"Internal": {
			"userAuthorized(string memory)": "infinite"
		}
	},
	"devdoc": {
		"kind": "dev",
		"methods": {},
		"version": 1
	},
	"userdoc": {
		"kind": "user",
		"methods": {},
		"version": 1
	},
	"Runtime Bytecode": {
		"immutableReferences": {},
		"linkReferences": {},
		"object": "608060405260043610610033575f3560e01c806312065fe014610037578063d14d7ae814610061578063f8a8fd6d1461007d575b5f80fd5b348015610042575f80fd5b5061004b6100a7565b604051610058919061020d565b60405180910390f35b61007b600480360381019061007691906103f7565b6100ae565b005b348015610088575f80fd5b50610091610181565b60405161009e91906104a2565b60405180910390f35b5f47905090565b6100b781610189565b478411156100fa576040517f08c379a00000000000000000000000000000000000000000000000000000000081526004016100f190610515565b60405180910390fd5b82821061017a575f8573ffffffffffffffffffffffffffffffffffffffff166108fc8690811502906040515f60405180830381858888f19350505050905080610178576040517f08c379a000000000000000000000000000000000000000000000000000000000815260040161016f9061057d565b60405180910390fd5b505b5050505050565b5f8054905090565b5f548160405160200161019c9190610607565b60405160208183030381529060405280519060200120146101f2576040517f08c379a00000000000000000000000000000000000000000000000000000000081526004016101e990610667565b60405180910390fd5b50565b5f819050919050565b610207816101f5565b82525050565b5f6020820190506102205f8301846101fe565b92915050565b5f604051905090565b5f80fd5b5f80fd5b5f73ffffffffffffffffffffffffffffffffffffffff82169050919050565b5f61026082610237565b9050919050565b61027081610256565b811461027a575f80fd5b50565b5f8135905061028b81610267565b92915050565b61029a816101f5565b81146102a4575f80fd5b50565b5f813590506102b581610291565b92915050565b5f80fd5b5f80fd5b5f601f19601f8301169050919050565b7f4e487b71000000000000000000000000000000000000000000000000000000005f52604160045260245ffd5b610309826102c3565b810181811067ffffffffffffffff82111715610328576103276102d3565b5b80604052505050565b5f61033a610226565b90506103468282610300565b919050565b5f67ffffffffffffffff821115610365576103646102d3565b5b61036e826102c3565b9050602081019050919050565b828183375f83830152505050565b5f61039b6103968461034b565b610331565b9050828152602081018484840111156103b7576103b66102bf565b5b6103c284828561037b565b509392505050565b5f82601f8301126103de576103dd6102bb565b5b81356103ee848260208601610389565b91505092915050565b5f805f805f60a086880312156104105761040f61022f565b5b5f61041d8882890161027d565b955050602061042e888289016102a7565b945050604061043f888289016102a7565b9350506060610450888289016102a7565b925050608086013567ffffffffffffffff81111561047157610470610233565b5b61047d888289016103ca565b9150509295509295909350565b5f819050919050565b61049c8161048a565b82525050565b5f6020820190506104b55f830184610493565b92915050565b5f82825260208201905092915050565b7f496e73756666696369656e742062616c616e63650000000000000000000000005f82015250565b5f6104ff6014836104bb565b915061050a826104cb565b602082019050919050565b5f6020820190508181035f83015261052c816104f3565b9050919050565b7f5472616e73666572206661696c656400000000000000000000000000000000005f82015250565b5f610567600f836104bb565b915061057282610533565b602082019050919050565b5f6020820190508181035f8301526105948161055b565b9050919050565b5f81519050919050565b5f81905092915050565b5f5b838110156105cc5780820151818401526020810190506105b1565b5f8484015250505050565b5f6105e18261059b565b6105eb81856105a5565b93506105fb8185602086016105af565b80840191505092915050565b5f61061282846105d7565b915081905092915050565b7f6e6f7420417574686f72697a65642100000000000000000000000000000000005f82015250565b5f610651600f836104bb565b915061065c8261061d565b602082019050919050565b5f6020820190508181035f83015261067e81610645565b905091905056fea26469706673582212201eef51b2cc637617f00e0a88a3e0b655754ce6247dc881aa184f6e9c03e5b2f864736f6c63430008160033",
		"opcodes": "PUSH1 0x80 PUSH1 0x40 MSTORE PUSH1 0x4 CALLDATASIZE LT PUSH2 0x33 JUMPI PUSH0 CALLDATALOAD PUSH1 0xE0 SHR DUP1 PUSH4 0x12065FE0 EQ PUSH2 0x37 JUMPI DUP1 PUSH4 0xD14D7AE8 EQ PUSH2 0x61 JUMPI DUP1 PUSH4 0xF8A8FD6D EQ PUSH2 0x7D JUMPI JUMPDEST PUSH0 DUP1 REVERT JUMPDEST CALLVALUE DUP1 ISZERO PUSH2 0x42 JUMPI PUSH0 DUP1 REVERT JUMPDEST POP PUSH2 0x4B PUSH2 0xA7 JUMP JUMPDEST PUSH1 0x40 MLOAD PUSH2 0x58 SWAP2 SWAP1 PUSH2 0x20D JUMP JUMPDEST PUSH1 0x40 MLOAD DUP1 SWAP2 SUB SWAP1 RETURN JUMPDEST PUSH2 0x7B PUSH1 0x4 DUP1 CALLDATASIZE SUB DUP2 ADD SWAP1 PUSH2 0x76 SWAP2 SWAP1 PUSH2 0x3F7 JUMP JUMPDEST PUSH2 0xAE JUMP JUMPDEST STOP JUMPDEST CALLVALUE DUP1 ISZERO PUSH2 0x88 JUMPI PUSH0 DUP1 REVERT JUMPDEST POP PUSH2 0x91 PUSH2 0x181 JUMP JUMPDEST PUSH1 0x40 MLOAD PUSH2 0x9E SWAP2 SWAP1 PUSH2 0x4A2 JUMP JUMPDEST PUSH1 0x40 MLOAD DUP1 SWAP2 SUB SWAP1 RETURN JUMPDEST PUSH0 SELFBALANCE SWAP1 POP SWAP1 JUMP JUMPDEST PUSH2 0xB7 DUP2 PUSH2 0x189 JUMP JUMPDEST SELFBALANCE DUP5 GT ISZERO PUSH2 0xFA JUMPI PUSH1 0x40 MLOAD PUSH32 0x8C379A000000000000000000000000000000000000000000000000000000000 DUP2 MSTORE PUSH1 0x4 ADD PUSH2 0xF1 SWAP1 PUSH2 0x515 JUMP JUMPDEST PUSH1 0x40 MLOAD DUP1 SWAP2 SUB SWAP1 REVERT JUMPDEST DUP3 DUP3 LT PUSH2 0x17A JUMPI PUSH0 DUP6 PUSH20 0xFFFFFFFFFFFFFFFFFFFFFFFFFFFFFFFFFFFFFFFF AND PUSH2 0x8FC DUP7 SWAP1 DUP2 ISZERO MUL SWAP1 PUSH1 0x40 MLOAD PUSH0 PUSH1 0x40 MLOAD DUP1 DUP4 SUB DUP2 DUP6 DUP9 DUP9 CALL SWAP4 POP POP POP POP SWAP1 POP DUP1 PUSH2 0x178 JUMPI PUSH1 0x40 MLOAD PUSH32 0x8C379A000000000000000000000000000000000000000000000000000000000 DUP2 MSTORE PUSH1 0x4 ADD PUSH2 0x16F SWAP1 PUSH2 0x57D JUMP JUMPDEST PUSH1 0x40 MLOAD DUP1 SWAP2 SUB SWAP1 REVERT JUMPDEST POP JUMPDEST POP POP POP POP POP JUMP JUMPDEST PUSH0 DUP1 SLOAD SWAP1 POP SWAP1 JUMP JUMPDEST PUSH0 SLOAD DUP2 PUSH1 0x40 MLOAD PUSH1 0x20 ADD PUSH2 0x19C SWAP2 SWAP1 PUSH2 0x607 JUMP JUMPDEST PUSH1 0x40 MLOAD PUSH1 0x20 DUP2 DUP4 SUB SUB DUP2 MSTORE SWAP1 PUSH1 0x40 MSTORE DUP1 MLOAD SWAP1 PUSH1 0x20 ADD KECCAK256 EQ PUSH2 0x1F2 JUMPI PUSH1 0x40 MLOAD PUSH32 0x8C379A000000000000000000000000000000000000000000000000000000000 DUP2 MSTORE PUSH1 0x4 ADD PUSH2 0x1E9 SWAP1 PUSH2 0x667 JUMP JUMPDEST PUSH1 0x40 MLOAD DUP1 SWAP2 SUB SWAP1 REVERT JUMPDEST POP JUMP JUMPDEST PUSH0 DUP2 SWAP1 POP SWAP2 SWAP1 POP JUMP JUMPDEST PUSH2 0x207 DUP2 PUSH2 0x1F5 JUMP JUMPDEST DUP3 MSTORE POP POP JUMP JUMPDEST PUSH0 PUSH1 0x20 DUP3 ADD SWAP1 POP PUSH2 0x220 PUSH0 DUP4 ADD DUP5 PUSH2 0x1FE JUMP JUMPDEST SWAP3 SWAP2 POP POP JUMP JUMPDEST PUSH0 PUSH1 0x40 MLOAD SWAP1 POP SWAP1 JUMP JUMPDEST PUSH0 DUP1 REVERT JUMPDEST PUSH0 DUP1 REVERT JUMPDEST PUSH0 PUSH20 0xFFFFFFFFFFFFFFFFFFFFFFFFFFFFFFFFFFFFFFFF DUP3 AND SWAP1 POP SWAP2 SWAP1 POP JUMP JUMPDEST PUSH0 PUSH2 0x260 DUP3 PUSH2 0x237 JUMP JUMPDEST SWAP1 POP SWAP2 SWAP1 POP JUMP JUMPDEST PUSH2 0x270 DUP2 PUSH2 0x256 JUMP JUMPDEST DUP2 EQ PUSH2 0x27A JUMPI PUSH0 DUP1 REVERT JUMPDEST POP JUMP JUMPDEST PUSH0 DUP2 CALLDATALOAD SWAP1 POP PUSH2 0x28B DUP2 PUSH2 0x267 JUMP JUMPDEST SWAP3 SWAP2 POP POP JUMP JUMPDEST PUSH2 0x29A DUP2 PUSH2 0x1F5 JUMP JUMPDEST DUP2 EQ PUSH2 0x2A4 JUMPI PUSH0 DUP1 REVERT JUMPDEST POP JUMP JUMPDEST PUSH0 DUP2 CALLDATALOAD SWAP1 POP PUSH2 0x2B5 DUP2 PUSH2 0x291 JUMP JUMPDEST SWAP3 SWAP2 POP POP JUMP JUMPDEST PUSH0 DUP1 REVERT JUMPDEST PUSH0 DUP1 REVERT JUMPDEST PUSH0 PUSH1 0x1F NOT PUSH1 0x1F DUP4 ADD AND SWAP1 POP SWAP2 SWAP1 POP JUMP JUMPDEST PUSH32 0x4E487B7100000000000000000000000000000000000000000000000000000000 PUSH0 MSTORE PUSH1 0x41 PUSH1 0x4 MSTORE PUSH1 0x24 PUSH0 REVERT JUMPDEST PUSH2 0x309 DUP3 PUSH2 0x2C3 JUMP JUMPDEST DUP2 ADD DUP2 DUP2 LT PUSH8 0xFFFFFFFFFFFFFFFF DUP3 GT OR ISZERO PUSH2 0x328 JUMPI PUSH2 0x327 PUSH2 0x2D3 JUMP JUMPDEST JUMPDEST DUP1 PUSH1 0x40 MSTORE POP POP POP JUMP JUMPDEST PUSH0 PUSH2 0x33A PUSH2 0x226 JUMP JUMPDEST SWAP1 POP PUSH2 0x346 DUP3 DUP3 PUSH2 0x300 JUMP JUMPDEST SWAP2 SWAP1 POP JUMP JUMPDEST PUSH0 PUSH8 0xFFFFFFFFFFFFFFFF DUP3 GT ISZERO PUSH2 0x365 JUMPI PUSH2 0x364 PUSH2 0x2D3 JUMP JUMPDEST JUMPDEST PUSH2 0x36E DUP3 PUSH2 0x2C3 JUMP JUMPDEST SWAP1 POP PUSH1 0x20 DUP2 ADD SWAP1 POP SWAP2 SWAP1 POP JUMP JUMPDEST DUP3 DUP2 DUP4 CALLDATACOPY PUSH0 DUP4 DUP4 ADD MSTORE POP POP POP JUMP JUMPDEST PUSH0 PUSH2 0x39B PUSH2 0x396 DUP5 PUSH2 0x34B JUMP JUMPDEST PUSH2 0x331 JUMP JUMPDEST SWAP1 POP DUP3 DUP2 MSTORE PUSH1 0x20 DUP2 ADD DUP5 DUP5 DUP5 ADD GT ISZERO PUSH2 0x3B7 JUMPI PUSH2 0x3B6 PUSH2 0x2BF JUMP JUMPDEST JUMPDEST PUSH2 0x3C2 DUP5 DUP3 DUP6 PUSH2 0x37B JUMP JUMPDEST POP SWAP4 SWAP3 POP POP POP JUMP JUMPDEST PUSH0 DUP3 PUSH1 0x1F DUP4 ADD SLT PUSH2 0x3DE JUMPI PUSH2 0x3DD PUSH2 0x2BB JUMP JUMPDEST JUMPDEST DUP2 CALLDATALOAD PUSH2 0x3EE DUP5 DUP3 PUSH1 0x20 DUP7 ADD PUSH2 0x389 JUMP JUMPDEST SWAP2 POP POP SWAP3 SWAP2 POP POP JUMP JUMPDEST PUSH0 DUP1 PUSH0 DUP1 PUSH0 PUSH1 0xA0 DUP7 DUP9 SUB SLT ISZERO PUSH2 0x410 JUMPI PUSH2 0x40F PUSH2 0x22F JUMP JUMPDEST JUMPDEST PUSH0 PUSH2 0x41D DUP9 DUP3 DUP10 ADD PUSH2 0x27D JUMP JUMPDEST SWAP6 POP POP PUSH1 0x20 PUSH2 0x42E DUP9 DUP3 DUP10 ADD PUSH2 0x2A7 JUMP JUMPDEST SWAP5 POP POP PUSH1 0x40 PUSH2 0x43F DUP9 DUP3 DUP10 ADD PUSH2 0x2A7 JUMP JUMPDEST SWAP4 POP POP PUSH1 0x60 PUSH2 0x450 DUP9 DUP3 DUP10 ADD PUSH2 0x2A7 JUMP JUMPDEST SWAP3 POP POP PUSH1 0x80 DUP7 ADD CALLDATALOAD PUSH8 0xFFFFFFFFFFFFFFFF DUP2 GT ISZERO PUSH2 0x471 JUMPI PUSH2 0x470 PUSH2 0x233 JUMP JUMPDEST JUMPDEST PUSH2 0x47D DUP9 DUP3 DUP10 ADD PUSH2 0x3CA JUMP JUMPDEST SWAP2 POP POP SWAP3 SWAP6 POP SWAP3 SWAP6 SWAP1 SWAP4 POP JUMP JUMPDEST PUSH0 DUP2 SWAP1 POP SWAP2 SWAP1 POP JUMP JUMPDEST PUSH2 0x49C DUP2 PUSH2 0x48A JUMP JUMPDEST DUP3 MSTORE POP POP JUMP JUMPDEST PUSH0 PUSH1 0x20 DUP3 ADD SWAP1 POP PUSH2 0x4B5 PUSH0 DUP4 ADD DUP5 PUSH2 0x493 JUMP JUMPDEST SWAP3 SWAP2 POP POP JUMP JUMPDEST PUSH0 DUP3 DUP3 MSTORE PUSH1 0x20 DUP3 ADD SWAP1 POP SWAP3 SWAP2 POP POP JUMP JUMPDEST PUSH32 0x496E73756666696369656E742062616C616E6365000000000000000000000000 PUSH0 DUP3 ADD MSTORE POP JUMP JUMPDEST PUSH0 PUSH2 0x4FF PUSH1 0x14 DUP4 PUSH2 0x4BB JUMP JUMPDEST SWAP2 POP PUSH2 0x50A DUP3 PUSH2 0x4CB JUMP JUMPDEST PUSH1 0x20 DUP3 ADD SWAP1 POP SWAP2 SWAP1 POP JUMP JUMPDEST PUSH0 PUSH1 0x20 DUP3 ADD SWAP1 POP DUP2 DUP2 SUB PUSH0 DUP4 ADD MSTORE PUSH2 0x52C DUP2 PUSH2 0x4F3 JUMP JUMPDEST SWAP1 POP SWAP2 SWAP1 POP JUMP JUMPDEST PUSH32 0x5472616E73666572206661696C65640000000000000000000000000000000000 PUSH0 DUP3 ADD MSTORE POP JUMP JUMPDEST PUSH0 PUSH2 0x567 PUSH1 0xF DUP4 PUSH2 0x4BB JUMP JUMPDEST SWAP2 POP PUSH2 0x572 DUP3 PUSH2 0x533 JUMP JUMPDEST PUSH1 0x20 DUP3 ADD SWAP1 POP SWAP2 SWAP1 POP JUMP JUMPDEST PUSH0 PUSH1 0x20 DUP3 ADD SWAP1 POP DUP2 DUP2 SUB PUSH0 DUP4 ADD MSTORE PUSH2 0x594 DUP2 PUSH2 0x55B JUMP JUMPDEST SWAP1 POP SWAP2 SWAP1 POP JUMP JUMPDEST PUSH0 DUP2 MLOAD SWAP1 POP SWAP2 SWAP1 POP JUMP JUMPDEST PUSH0 DUP2 SWAP1 POP SWAP3 SWAP2 POP POP JUMP JUMPDEST PUSH0 JUMPDEST DUP4 DUP2 LT ISZERO PUSH2 0x5CC JUMPI DUP1 DUP3 ADD MLOAD DUP2 DUP5 ADD MSTORE PUSH1 0x20 DUP2 ADD SWAP1 POP PUSH2 0x5B1 JUMP JUMPDEST PUSH0 DUP5 DUP5 ADD MSTORE POP POP POP POP JUMP JUMPDEST PUSH0 PUSH2 0x5E1 DUP3 PUSH2 0x59B JUMP JUMPDEST PUSH2 0x5EB DUP2 DUP6 PUSH2 0x5A5 JUMP JUMPDEST SWAP4 POP PUSH2 0x5FB DUP2 DUP6 PUSH1 0x20 DUP7 ADD PUSH2 0x5AF JUMP JUMPDEST DUP1 DUP5 ADD SWAP2 POP POP SWAP3 SWAP2 POP POP JUMP JUMPDEST PUSH0 PUSH2 0x612 DUP3 DUP5 PUSH2 0x5D7 JUMP JUMPDEST SWAP2 POP DUP2 SWAP1 POP SWAP3 SWAP2 POP POP JUMP JUMPDEST PUSH32 0x6E6F7420417574686F72697A6564210000000000000000000000000000000000 PUSH0 DUP3 ADD MSTORE POP JUMP JUMPDEST PUSH0 PUSH2 0x651 PUSH1 0xF DUP4 PUSH2 0x4BB JUMP JUMPDEST SWAP2 POP PUSH2 0x65C DUP3 PUSH2 0x61D JUMP JUMPDEST PUSH1 0x20 DUP3 ADD SWAP1 POP SWAP2 SWAP1 POP JUMP JUMPDEST PUSH0 PUSH1 0x20 DUP3 ADD SWAP1 POP DUP2 DUP2 SUB PUSH0 DUP4 ADD MSTORE PUSH2 0x67E DUP2 PUSH2 0x645 JUMP JUMPDEST SWAP1 POP SWAP2 SWAP1 POP JUMP INVALID LOG2 PUSH5 0x6970667358 0x22 SLT KECCAK256 0x1E 0xEF MLOAD 0xB2 0xCC PUSH4 0x7617F00E EXP DUP9 LOG3 0xE0 0xB6 SSTORE PUSH22 0x4CE6247DC881AA184F6E9C03E5B2F864736F6C634300 ADDMOD AND STOP CALLER "
	},
	"Assembly": ".code\n  PUSH 80\t\t\tcontract cryptoDorea {\\r\\n\\r\\n...\n  PUSH 40\t\t\tcontract cryptoDorea {\\r\\n\\r\\n...\n  MSTORE \t\t\tcontract cryptoDorea {\\r\\n\\r\\n...\n  PUSH 40\t\t\tabi.encodePacked(\"dorea\")\n  MLOAD \t\t\tabi.encodePacked(\"dorea\")\n  PUSH 20\t\t\tabi.encodePacked(\"dorea\")\n  ADD \t\t\tabi.encodePacked(\"dorea\")\n  PUSH [tag] 3\t\t\tabi.encodePacked(\"dorea\")\n  SWAP1 \t\t\tabi.encodePacked(\"dorea\")\n  PUSH [tag] 4\t\t\tabi.encodePacked(\"dorea\")\n  JUMP \t\t\tabi.encodePacked(\"dorea\")\ntag 3\t\t\tabi.encodePacked(\"dorea\")\n  JUMPDEST \t\t\tabi.encodePacked(\"dorea\")\n  PUSH 40\t\t\tabi.encodePacked(\"dorea\")\n  MLOAD \t\t\tabi.encodePacked(\"dorea\")\n  PUSH 20\t\t\tabi.encodePacked(\"dorea\")\n  DUP2 \t\t\tabi.encodePacked(\"dorea\")\n  DUP4 \t\t\tabi.encodePacked(\"dorea\")\n  SUB \t\t\tabi.encodePacked(\"dorea\")\n  SUB \t\t\tabi.encodePacked(\"dorea\")\n  DUP2 \t\t\tabi.encodePacked(\"dorea\")\n  MSTORE \t\t\tabi.encodePacked(\"dorea\")\n  SWAP1 \t\t\tabi.encodePacked(\"dorea\")\n  PUSH 40\t\t\tabi.encodePacked(\"dorea\")\n  MSTORE \t\t\tabi.encodePacked(\"dorea\")\n  DUP1 \t\t\tkeccak256(abi.encodePacked(\"do...\n  MLOAD \t\t\tkeccak256(abi.encodePacked(\"do...\n  SWAP1 \t\t\tkeccak256(abi.encodePacked(\"do...\n  PUSH 20\t\t\tkeccak256(abi.encodePacked(\"do...\n  ADD \t\t\tkeccak256(abi.encodePacked(\"do...\n  KECCAK256 \t\t\tkeccak256(abi.encodePacked(\"do...\n  PUSH 0\t\t\t_secretHash\n  DUP2 \t\t\t_secretHash = keccak256(abi.en...\n  SWAP1 \t\t\t_secretHash = keccak256(abi.en...\n  SSTORE \t\t\t_secretHash = keccak256(abi.en...\n  POP \t\t\t_secretHash = keccak256(abi.en...\n  PUSH [tag] 5\t\t\tcontract cryptoDorea {\\r\\n\\r\\n...\n  JUMP \t\t\tcontract cryptoDorea {\\r\\n\\r\\n...\ntag 6\t\t\t-License-Identifier: GPL-3.0\\r...\n  JUMPDEST \t\t\t-License-Identifier: GPL-3.0\\r...\n  PUSH 0\t\t\t2 private _\n  DUP2 \t\t\tne \n  SWAP1 \t\t\t\\r\\n\\r\\n    // define \n  POP \t\t\t\\r\\n\\r\\n    // define \n  SWAP3 \t\t\t-License-Identifier: GPL-3.0\\r...\n  SWAP2 \t\t\t-License-Identifier: GPL-3.0\\r...\n  POP \t\t\t-License-Identifier: GPL-3.0\\r...\n  POP \t\t\t-License-Identifier: GPL-3.0\\r...\n  JUMP \t\t\t-License-Identifier: GPL-3.0\\r...\ntag 7\t\t\tto get fund on deploy stage\\r\\...\n  JUMPDEST \t\t\tto get fund on deploy stage\\r\\...\n  PUSH 646F726561000000000000000000000000000000000000000000000000000000\t\t\tet bala\n  PUSH 0\t\t\t/\n  DUP3 \t\t\t\\r\\n\\r\\n  \n  ADD \t\t\t   }\\r\\n\\r\\n    //\n  MSTORE \t\t\t);\\r\\n\\r\\n    }\\r\\n\\r\\n    // ...\n  POP \t\t\tto get fund on deploy stage\\r\\...\n  JUMP \t\t\tto get fund on deploy stage\\r\\...\ntag 8\t\t\tt address\\r\\n    function getB...\n  JUMPDEST \t\t\tt address\\r\\n    function getB...\n  PUSH 0\t\t\t  f\n  PUSH [tag] 13\t\t\ts recipient, uint256  amount, ...\n  PUSH 5\t\t\t \n  DUP4 \t\t\ttri\n  PUSH [tag] 6\t\t\ts recipient, uint256  amount, ...\n  JUMP \t\t\ts recipient, uint256  amount, ...\ntag 13\t\t\ts recipient, uint256  amount, ...\n  JUMPDEST \t\t\ts recipient, uint256  amount, ...\n  SWAP2 \t\t\t(address recipient, uint256  a...\n  POP \t\t\t(address recipient, uint256  a...\n  PUSH [tag] 14\t\t\tcret) public payable{\\r\\n     ...\n  DUP3 \t\t\tnt \n  PUSH [tag] 7\t\t\tcret) public payable{\\r\\n     ...\n  JUMP \t\t\tcret) public payable{\\r\\n     ...\ntag 14\t\t\tcret) public payable{\\r\\n     ...\n  JUMPDEST \t\t\tcret) public payable{\\r\\n     ...\n  PUSH 5\t\t\t\"\n  DUP3 \t\t\tnce\n  ADD \t\t\tbalance, \"I\n  SWAP1 \t\t\t(this).balance, \"I\n  POP \t\t\t(this).balance, \"I\n  SWAP2 \t\t\tt address\\r\\n    function getB...\n  SWAP1 \t\t\tt address\\r\\n    function getB...\n  POP \t\t\tt address\\r\\n    function getB...\n  JUMP \t\t\tt address\\r\\n    function getB...\ntag 4\t\t\tbalance\");\\r\\n\\r\\n        if(s...\n  JUMPDEST \t\t\tbalance\");\\r\\n\\r\\n        if(s...\n  PUSH 0\t\t\t   \n  PUSH [tag] 16\t\t\tss, \"Transfer failed\");\\r\\n   ...\n  DUP3 \t\t\tire\n  PUSH [tag] 8\t\t\tss, \"Transfer failed\");\\r\\n   ...\n  JUMP \t\t\tss, \"Transfer failed\");\\r\\n   ...\ntag 16\t\t\tss, \"Transfer failed\");\\r\\n   ...\n  JUMPDEST \t\t\tss, \"Transfer failed\");\\r\\n   ...\n  SWAP2 \t\t\te(success, \"Transfer failed\");...\n  POP \t\t\te(success, \"Transfer failed\");...\n  DUP2 \t\t\tode\n  SWAP1 \t\t\tabi.encode\n  POP \t\t\tabi.encode\n  SWAP2 \t\t\tbalance\");\\r\\n\\r\\n        if(s...\n  SWAP1 \t\t\tbalance\");\\r\\n\\r\\n        if(s...\n  POP \t\t\tbalance\");\\r\\n\\r\\n        if(s...\n  JUMP \t\t\tbalance\");\\r\\n\\r\\n        if(s...\ntag 5\t\t\tcontract cryptoDorea {\\r\\n\\r\\n...\n  JUMPDEST \t\t\tcontract cryptoDorea {\\r\\n\\r\\n...\n  PUSH #[$] 0000000000000000000000000000000000000000000000000000000000000000\t\t\tcontract cryptoDorea {\\r\\n\\r\\n...\n  DUP1 \t\t\tcontract cryptoDorea {\\r\\n\\r\\n...\n  PUSH [$] 0000000000000000000000000000000000000000000000000000000000000000\t\t\tcontract cryptoDorea {\\r\\n\\r\\n...\n  PUSH 0\t\t\tcontract cryptoDorea {\\r\\n\\r\\n...\n  CODECOPY \t\t\tcontract cryptoDorea {\\r\\n\\r\\n...\n  PUSH 0\t\t\tcontract cryptoDorea {\\r\\n\\r\\n...\n  RETURN \t\t\tcontract cryptoDorea {\\r\\n\\r\\n...\n.data\n  0:\n    .code\n      PUSH 80\t\t\tcontract cryptoDorea {\\r\\n\\r\\n...\n      PUSH 40\t\t\tcontract cryptoDorea {\\r\\n\\r\\n...\n      MSTORE \t\t\tcontract cryptoDorea {\\r\\n\\r\\n...\n      PUSH 4\t\t\tcontract cryptoDorea {\\r\\n\\r\\n...\n      CALLDATASIZE \t\t\tcontract cryptoDorea {\\r\\n\\r\\n...\n      LT \t\t\tcontract cryptoDorea {\\r\\n\\r\\n...\n      PUSH [tag] 1\t\t\tcontract cryptoDorea {\\r\\n\\r\\n...\n      JUMPI \t\t\tcontract cryptoDorea {\\r\\n\\r\\n...\n      PUSH 0\t\t\tcontract cryptoDorea {\\r\\n\\r\\n...\n      CALLDATALOAD \t\t\tcontract cryptoDorea {\\r\\n\\r\\n...\n      PUSH E0\t\t\tcontract cryptoDorea {\\r\\n\\r\\n...\n      SHR \t\t\tcontract cryptoDorea {\\r\\n\\r\\n...\n      DUP1 \t\t\tcontract cryptoDorea {\\r\\n\\r\\n...\n      PUSH 12065FE0\t\t\tcontract cryptoDorea {\\r\\n\\r\\n...\n      EQ \t\t\tcontract cryptoDorea {\\r\\n\\r\\n...\n      PUSH [tag] 2\t\t\tcontract cryptoDorea {\\r\\n\\r\\n...\n      JUMPI \t\t\tcontract cryptoDorea {\\r\\n\\r\\n...\n      DUP1 \t\t\tcontract cryptoDorea {\\r\\n\\r\\n...\n      PUSH D14D7AE8\t\t\tcontract cryptoDorea {\\r\\n\\r\\n...\n      EQ \t\t\tcontract cryptoDorea {\\r\\n\\r\\n...\n      PUSH [tag] 3\t\t\tcontract cryptoDorea {\\r\\n\\r\\n...\n      JUMPI \t\t\tcontract cryptoDorea {\\r\\n\\r\\n...\n      DUP1 \t\t\tcontract cryptoDorea {\\r\\n\\r\\n...\n      PUSH F8A8FD6D\t\t\tcontract cryptoDorea {\\r\\n\\r\\n...\n      EQ \t\t\tcontract cryptoDorea {\\r\\n\\r\\n...\n      PUSH [tag] 4\t\t\tcontract cryptoDorea {\\r\\n\\r\\n...\n      JUMPI \t\t\tcontract cryptoDorea {\\r\\n\\r\\n...\n    tag 1\t\t\tcontract cryptoDorea {\\r\\n\\r\\n...\n      JUMPDEST \t\t\tcontract cryptoDorea {\\r\\n\\r\\n...\n      PUSH 0\t\t\tcontract cryptoDorea {\\r\\n\\r\\n...\n      DUP1 \t\t\tcontract cryptoDorea {\\r\\n\\r\\n...\n      REVERT \t\t\tcontract cryptoDorea {\\r\\n\\r\\n...\n    tag 2\t\t\tfunction getBalance() public v...\n      JUMPDEST \t\t\tfunction getBalance() public v...\n      CALLVALUE \t\t\tfunction getBalance() public v...\n      DUP1 \t\t\tfunction getBalance() public v...\n      ISZERO \t\t\tfunction getBalance() public v...\n      PUSH [tag] 5\t\t\tfunction getBalance() public v...\n      JUMPI \t\t\tfunction getBalance() public v...\n      PUSH 0\t\t\tfunction getBalance() public v...\n      DUP1 \t\t\tfunction getBalance() public v...\n      REVERT \t\t\tfunction getBalance() public v...\n    tag 5\t\t\tfunction getBalance() public v...\n      JUMPDEST \t\t\tfunction getBalance() public v...\n      POP \t\t\tfunction getBalance() public v...\n      PUSH [tag] 6\t\t\tfunction getBalance() public v...\n      PUSH [tag] 7\t\t\tfunction getBalance() public v...\n      JUMP \t\t\tfunction getBalance() public v...\n    tag 6\t\t\tfunction getBalance() public v...\n      JUMPDEST \t\t\tfunction getBalance() public v...\n      PUSH 40\t\t\tfunction getBalance() public v...\n      MLOAD \t\t\tfunction getBalance() public v...\n      PUSH [tag] 8\t\t\tfunction getBalance() public v...\n      SWAP2 \t\t\tfunction getBalance() public v...\n      SWAP1 \t\t\tfunction getBalance() public v...\n      PUSH [tag] 9\t\t\tfunction getBalance() public v...\n      JUMP \t\t\tfunction getBalance() public v...\n    tag 8\t\t\tfunction getBalance() public v...\n      JUMPDEST \t\t\tfunction getBalance() public v...\n      PUSH 40\t\t\tfunction getBalance() public v...\n      MLOAD \t\t\tfunction getBalance() public v...\n      DUP1 \t\t\tfunction getBalance() public v...\n      SWAP2 \t\t\tfunction getBalance() public v...\n      SUB \t\t\tfunction getBalance() public v...\n      SWAP1 \t\t\tfunction getBalance() public v...\n      RETURN \t\t\tfunction getBalance() public v...\n    tag 3\t\t\tfunction pay(address recipient...\n      JUMPDEST \t\t\tfunction pay(address recipient...\n      PUSH [tag] 10\t\t\tfunction pay(address recipient...\n      PUSH 4\t\t\tfunction pay(address recipient...\n      DUP1 \t\t\tfunction pay(address recipient...\n      CALLDATASIZE \t\t\tfunction pay(address recipient...\n      SUB \t\t\tfunction pay(address recipient...\n      DUP2 \t\t\tfunction pay(address recipient...\n      ADD \t\t\tfunction pay(address recipient...\n      SWAP1 \t\t\tfunction pay(address recipient...\n      PUSH [tag] 11\t\t\tfunction pay(address recipient...\n      SWAP2 \t\t\tfunction pay(address recipient...\n      SWAP1 \t\t\tfunction pay(address recipient...\n      PUSH [tag] 12\t\t\tfunction pay(address recipient...\n      JUMP \t\t\tfunction pay(address recipient...\n    tag 11\t\t\tfunction pay(address recipient...\n      JUMPDEST \t\t\tfunction pay(address recipient...\n      PUSH [tag] 13\t\t\tfunction pay(address recipient...\n      JUMP \t\t\tfunction pay(address recipient...\n    tag 10\t\t\tfunction pay(address recipient...\n      JUMPDEST \t\t\tfunction pay(address recipient...\n      STOP \t\t\tfunction pay(address recipient...\n    tag 4\t\t\tfunction test() public view re...\n      JUMPDEST \t\t\tfunction test() public view re...\n      CALLVALUE \t\t\tfunction test() public view re...\n      DUP1 \t\t\tfunction test() public view re...\n      ISZERO \t\t\tfunction test() public view re...\n      PUSH [tag] 14\t\t\tfunction test() public view re...\n      JUMPI \t\t\tfunction test() public view re...\n      PUSH 0\t\t\tfunction test() public view re...\n      DUP1 \t\t\tfunction test() public view re...\n      REVERT \t\t\tfunction test() public view re...\n    tag 14\t\t\tfunction test() public view re...\n      JUMPDEST \t\t\tfunction test() public view re...\n      POP \t\t\tfunction test() public view re...\n      PUSH [tag] 15\t\t\tfunction test() public view re...\n      PUSH [tag] 16\t\t\tfunction test() public view re...\n      JUMP \t\t\tfunction test() public view re...\n    tag 15\t\t\tfunction test() public view re...\n      JUMPDEST \t\t\tfunction test() public view re...\n      PUSH 40\t\t\tfunction test() public view re...\n      MLOAD \t\t\tfunction test() public view re...\n      PUSH [tag] 17\t\t\tfunction test() public view re...\n      SWAP2 \t\t\tfunction test() public view re...\n      SWAP1 \t\t\tfunction test() public view re...\n      PUSH [tag] 18\t\t\tfunction test() public view re...\n      JUMP \t\t\tfunction test() public view re...\n    tag 17\t\t\tfunction test() public view re...\n      JUMPDEST \t\t\tfunction test() public view re...\n      PUSH 40\t\t\tfunction test() public view re...\n      MLOAD \t\t\tfunction test() public view re...\n      DUP1 \t\t\tfunction test() public view re...\n      SWAP2 \t\t\tfunction test() public view re...\n      SUB \t\t\tfunction test() public view re...\n      SWAP1 \t\t\tfunction test() public view re...\n      RETURN \t\t\tfunction test() public view re...\n    tag 7\t\t\tfunction getBalance() public v...\n      JUMPDEST \t\t\tfunction getBalance() public v...\n      PUSH 0\t\t\tuint256\n      SELFBALANCE \t\t\taddress(this).balance\n      SWAP1 \t\t\treturn address(this).balance\n      POP \t\t\treturn address(this).balance\n      SWAP1 \t\t\tfunction getBalance() public v...\n      JUMP \t\t\tfunction getBalance() public v...\n    tag 13\t\t\tfunction pay(address recipient...\n      JUMPDEST \t\t\tfunction pay(address recipient...\n      PUSH [tag] 21\t\t\tuserAuthorized(_secret)\n      DUP2 \t\t\t_secret\n      PUSH [tag] 22\t\t\tuserAuthorized\n      JUMP \t\t\tuserAuthorized(_secret)\n    tag 21\t\t\tuserAuthorized(_secret)\n      JUMPDEST \t\t\tuserAuthorized(_secret)\n      SELFBALANCE \t\t\taddress(this).balance\n      DUP5 \t\t\tamount\n      GT \t\t\tamount <= address(this).balanc...\n      ISZERO \t\t\tamount <= address(this).balanc...\n      PUSH [tag] 23\t\t\trequire(amount <= address(this...\n      JUMPI \t\t\trequire(amount <= address(this...\n      PUSH 40\t\t\trequire(amount <= address(this...\n      MLOAD \t\t\trequire(amount <= address(this...\n      PUSH 8C379A000000000000000000000000000000000000000000000000000000000\t\t\trequire(amount <= address(this...\n      DUP2 \t\t\trequire(amount <= address(this...\n      MSTORE \t\t\trequire(amount <= address(this...\n      PUSH 4\t\t\trequire(amount <= address(this...\n      ADD \t\t\trequire(amount <= address(this...\n      PUSH [tag] 24\t\t\trequire(amount <= address(this...\n      SWAP1 \t\t\trequire(amount <= address(this...\n      PUSH [tag] 25\t\t\trequire(amount <= address(this...\n      JUMP \t\t\trequire(amount <= address(this...\n    tag 24\t\t\trequire(amount <= address(this...\n      JUMPDEST \t\t\trequire(amount <= address(this...\n      PUSH 40\t\t\trequire(amount <= address(this...\n      MLOAD \t\t\trequire(amount <= address(this...\n      DUP1 \t\t\trequire(amount <= address(this...\n      SWAP2 \t\t\trequire(amount <= address(this...\n      SUB \t\t\trequire(amount <= address(this...\n      SWAP1 \t\t\trequire(amount <= address(this...\n      REVERT \t\t\trequire(amount <= address(this...\n    tag 23\t\t\trequire(amount <= address(this...\n      JUMPDEST \t\t\trequire(amount <= address(this...\n      DUP3 \t\t\tcampaignCount\n      DUP3 \t\t\tshoppingCount\n      LT \t\t\tshoppingCount >= campaignCount\n      PUSH [tag] 26\t\t\tif(shoppingCount >= campaignCo...\n      JUMPI \t\t\tif(shoppingCount >= campaignCo...\n      PUSH 0\t\t\tbool success\n      DUP6 \t\t\trecipient\n      PUSH FFFFFFFFFFFFFFFFFFFFFFFFFFFFFFFFFFFFFFFF\t\t\tpayable(recipient).send\n      AND \t\t\tpayable(recipient).send\n      PUSH 8FC\t\t\tpayable(recipient).send(amount...\n      DUP7 \t\t\tamount\n      SWAP1 \t\t\tpayable(recipient).send(amount...\n      DUP2 \t\t\tpayable(recipient).send(amount...\n      ISZERO \t\t\tpayable(recipient).send(amount...\n      MUL \t\t\tpayable(recipient).send(amount...\n      SWAP1 \t\t\tpayable(recipient).send(amount...\n      PUSH 40\t\t\tpayable(recipient).send(amount...\n      MLOAD \t\t\tpayable(recipient).send(amount...\n      PUSH 0\t\t\tpayable(recipient).send(amount...\n      PUSH 40\t\t\tpayable(recipient).send(amount...\n      MLOAD \t\t\tpayable(recipient).send(amount...\n      DUP1 \t\t\tpayable(recipient).send(amount...\n      DUP4 \t\t\tpayable(recipient).send(amount...\n      SUB \t\t\tpayable(recipient).send(amount...\n      DUP2 \t\t\tpayable(recipient).send(amount...\n      DUP6 \t\t\tpayable(recipient).send(amount...\n      DUP9 \t\t\tpayable(recipient).send(amount...\n      DUP9 \t\t\tpayable(recipient).send(amount...\n      CALL \t\t\tpayable(recipient).send(amount...\n      SWAP4 \t\t\tpayable(recipient).send(amount...\n      POP \t\t\tpayable(recipient).send(amount...\n      POP \t\t\tpayable(recipient).send(amount...\n      POP \t\t\tpayable(recipient).send(amount...\n      POP \t\t\tpayable(recipient).send(amount...\n      SWAP1 \t\t\tbool success = payable(recipie...\n      POP \t\t\tbool success = payable(recipie...\n      DUP1 \t\t\tsuccess\n      PUSH [tag] 28\t\t\trequire(success, \"Transfer fai...\n      JUMPI \t\t\trequire(success, \"Transfer fai...\n      PUSH 40\t\t\trequire(success, \"Transfer fai...\n      MLOAD \t\t\trequire(success, \"Transfer fai...\n      PUSH 8C379A000000000000000000000000000000000000000000000000000000000\t\t\trequire(success, \"Transfer fai...\n      DUP2 \t\t\trequire(success, \"Transfer fai...\n      MSTORE \t\t\trequire(success, \"Transfer fai...\n      PUSH 4\t\t\trequire(success, \"Transfer fai...\n      ADD \t\t\trequire(success, \"Transfer fai...\n      PUSH [tag] 29\t\t\trequire(success, \"Transfer fai...\n      SWAP1 \t\t\trequire(success, \"Transfer fai...\n      PUSH [tag] 30\t\t\trequire(success, \"Transfer fai...\n      JUMP \t\t\trequire(success, \"Transfer fai...\n    tag 29\t\t\trequire(success, \"Transfer fai...\n      JUMPDEST \t\t\trequire(success, \"Transfer fai...\n      PUSH 40\t\t\trequire(success, \"Transfer fai...\n      MLOAD \t\t\trequire(success, \"Transfer fai...\n      DUP1 \t\t\trequire(success, \"Transfer fai...\n      SWAP2 \t\t\trequire(success, \"Transfer fai...\n      SUB \t\t\trequire(success, \"Transfer fai...\n      SWAP1 \t\t\trequire(success, \"Transfer fai...\n      REVERT \t\t\trequire(success, \"Transfer fai...\n    tag 28\t\t\trequire(success, \"Transfer fai...\n      JUMPDEST \t\t\trequire(success, \"Transfer fai...\n      POP \t\t\t{       \\r\\n            // Tra...\n    tag 26\t\t\tif(shoppingCount >= campaignCo...\n      JUMPDEST \t\t\tif(shoppingCount >= campaignCo...\n      POP \t\t\tfunction pay(address recipient...\n      POP \t\t\tfunction pay(address recipient...\n      POP \t\t\tfunction pay(address recipient...\n      POP \t\t\tfunction pay(address recipient...\n      POP \t\t\tfunction pay(address recipient...\n      JUMP \t\t\tfunction pay(address recipient...\n    tag 16\t\t\tfunction test() public view re...\n      JUMPDEST \t\t\tfunction test() public view re...\n      PUSH 0\t\t\tbytes32\n      DUP1 \t\t\t_secretHash\n      SLOAD \t\t\t_secretHash\n      SWAP1 \t\t\treturn _secretHash\n      POP \t\t\treturn _secretHash\n      SWAP1 \t\t\tfunction test() public view re...\n      JUMP \t\t\tfunction test() public view re...\n    tag 22\t\t\tfunction userAuthorized(string...\n      JUMPDEST \t\t\tfunction userAuthorized(string...\n      PUSH 0\t\t\t_secretHash\n      SLOAD \t\t\t_secretHash\n      DUP2 \t\t\t_secret\n      PUSH 40\t\t\tabi.encodePacked(_secret)\n      MLOAD \t\t\tabi.encodePacked(_secret)\n      PUSH 20\t\t\tabi.encodePacked(_secret)\n      ADD \t\t\tabi.encodePacked(_secret)\n      PUSH [tag] 33\t\t\tabi.encodePacked(_secret)\n      SWAP2 \t\t\tabi.encodePacked(_secret)\n      SWAP1 \t\t\tabi.encodePacked(_secret)\n      PUSH [tag] 34\t\t\tabi.encodePacked(_secret)\n      JUMP \t\t\tabi.encodePacked(_secret)\n    tag 33\t\t\tabi.encodePacked(_secret)\n      JUMPDEST \t\t\tabi.encodePacked(_secret)\n      PUSH 40\t\t\tabi.encodePacked(_secret)\n      MLOAD \t\t\tabi.encodePacked(_secret)\n      PUSH 20\t\t\tabi.encodePacked(_secret)\n      DUP2 \t\t\tabi.encodePacked(_secret)\n      DUP4 \t\t\tabi.encodePacked(_secret)\n      SUB \t\t\tabi.encodePacked(_secret)\n      SUB \t\t\tabi.encodePacked(_secret)\n      DUP2 \t\t\tabi.encodePacked(_secret)\n      MSTORE \t\t\tabi.encodePacked(_secret)\n      SWAP1 \t\t\tabi.encodePacked(_secret)\n      PUSH 40\t\t\tabi.encodePacked(_secret)\n      MSTORE \t\t\tabi.encodePacked(_secret)\n      DUP1 \t\t\tkeccak256(abi.encodePacked(_se...\n      MLOAD \t\t\tkeccak256(abi.encodePacked(_se...\n      SWAP1 \t\t\tkeccak256(abi.encodePacked(_se...\n      PUSH 20\t\t\tkeccak256(abi.encodePacked(_se...\n      ADD \t\t\tkeccak256(abi.encodePacked(_se...\n      KECCAK256 \t\t\tkeccak256(abi.encodePacked(_se...\n      EQ \t\t\tkeccak256(abi.encodePacked(_se...\n      PUSH [tag] 35\t\t\trequire(keccak256(abi.encodePa...\n      JUMPI \t\t\trequire(keccak256(abi.encodePa...\n      PUSH 40\t\t\trequire(keccak256(abi.encodePa...\n      MLOAD \t\t\trequire(keccak256(abi.encodePa...\n      PUSH 8C379A000000000000000000000000000000000000000000000000000000000\t\t\trequire(keccak256(abi.encodePa...\n      DUP2 \t\t\trequire(keccak256(abi.encodePa...\n      MSTORE \t\t\trequire(keccak256(abi.encodePa...\n      PUSH 4\t\t\trequire(keccak256(abi.encodePa...\n      ADD \t\t\trequire(keccak256(abi.encodePa...\n      PUSH [tag] 36\t\t\trequire(keccak256(abi.encodePa...\n      SWAP1 \t\t\trequire(keccak256(abi.encodePa...\n      PUSH [tag] 37\t\t\trequire(keccak256(abi.encodePa...\n      JUMP \t\t\trequire(keccak256(abi.encodePa...\n    tag 36\t\t\trequire(keccak256(abi.encodePa...\n      JUMPDEST \t\t\trequire(keccak256(abi.encodePa...\n      PUSH 40\t\t\trequire(keccak256(abi.encodePa...\n      MLOAD \t\t\trequire(keccak256(abi.encodePa...\n      DUP1 \t\t\trequire(keccak256(abi.encodePa...\n      SWAP2 \t\t\trequire(keccak256(abi.encodePa...\n      SUB \t\t\trequire(keccak256(abi.encodePa...\n      SWAP1 \t\t\trequire(keccak256(abi.encodePa...\n      REVERT \t\t\trequire(keccak256(abi.encodePa...\n    tag 35\t\t\trequire(keccak256(abi.encodePa...\n      JUMPDEST \t\t\trequire(keccak256(abi.encodePa...\n      POP \t\t\tfunction userAuthorized(string...\n      JUMP \t\t\tfunction userAuthorized(string...\n    tag 38\t\t\t-License-Identifier: GPL-3.0\\r...\n      JUMPDEST \t\t\t-License-Identifier: GPL-3.0\\r...\n      PUSH 0\t\t\tsolidit\n      DUP2 \t\t\tcontr\n      SWAP1 \t\t\t<0.9.0;\\r\\n\\r\\ncontr\n      POP \t\t\t<0.9.0;\\r\\n\\r\\ncontr\n      SWAP2 \t\t\t-License-Identifier: GPL-3.0\\r...\n      SWAP1 \t\t\t-License-Identifier: GPL-3.0\\r...\n      POP \t\t\t-License-Identifier: GPL-3.0\\r...\n      JUMP \t\t\t-License-Identifier: GPL-3.0\\r...\n    tag 39\t\t\trea {\\r\\n\\r\\n    bytes32 priva...\n      JUMPDEST \t\t\trea {\\r\\n\\r\\n    bytes32 priva...\n      PUSH [tag] 75\t\t\teploy stage\\r\\n    constru\n      DUP2 \t\t\tonstr\n      PUSH [tag] 38\t\t\teploy stage\\r\\n    constru\n      JUMP \t\t\teploy stage\\r\\n    constru\n    tag 75\t\t\teploy stage\\r\\n    constru\n      JUMPDEST \t\t\teploy stage\\r\\n    constru\n      DUP3 \t\t\t on\n      MSTORE \t\t\tet fund on deploy stage\\r\\n   ...\n      POP \t\t\trea {\\r\\n\\r\\n    bytes32 priva...\n      POP \t\t\trea {\\r\\n\\r\\n    bytes32 priva...\n      JUMP \t\t\trea {\\r\\n\\r\\n    bytes32 priva...\n    tag 9\t\t\te {\\r\\n\\r\\n        _secretHash...\n      JUMPDEST \t\t\te {\\r\\n\\r\\n        _secretHash...\n      PUSH 0\t\t\tance\n      PUSH 20\t\t\t g\n      DUP3 \t\t\t   functi\n      ADD \t\t\ts\\r\\n    function ge\n      SWAP1 \t\t\tt address\\r\\n    function ge\n      POP \t\t\tt address\\r\\n    function ge\n      PUSH [tag] 77\t\t\t public view returns(uint256){...\n      PUSH 0\t\t\t;\n      DUP4 \t\t\tis).balan\n      ADD \t\t\ts(this).balance;\\r\n      DUP5 \t\t\trn add\n      PUSH [tag] 39\t\t\t public view returns(uint256){...\n      JUMP \t\t\t public view returns(uint256){...\n    tag 77\t\t\t public view returns(uint256){...\n      JUMPDEST \t\t\t public view returns(uint256){...\n      SWAP3 \t\t\te {\\r\\n\\r\\n        _secretHash...\n      SWAP2 \t\t\te {\\r\\n\\r\\n        _secretHash...\n      POP \t\t\te {\\r\\n\\r\\n        _secretHash...\n      POP \t\t\te {\\r\\n\\r\\n        _secretHash...\n      JUMP \t\t\te {\\r\\n\\r\\n        _secretHash...\n    tag 40\t\t\t// Transfer Ether to Loyal Cus...\n      JUMPDEST \t\t\t// Transfer Ether to Loyal Cus...\n      PUSH 0\t\t\ters\\r\\n \n      PUSH 40\t\t\tip\n      MLOAD \t\t\tss recipi\n      SWAP1 \t\t\t pay(address recipi\n      POP \t\t\t pay(address recipi\n      SWAP1 \t\t\t// Transfer Ether to Loyal Cus...\n      JUMP \t\t\t// Transfer Ether to Loyal Cus...\n    tag 41\t\t\t  amount, uint256 campaignCoun...\n      JUMPDEST \t\t\t  amount, uint256 campaignCoun...\n      PUSH 0\t\t\t \n      DUP1 \t\t\t \n      REVERT \t\t\t     \\r\\n     \n    tag 42\t\t\trized(_secret);\\r\\n\\r\\n       ...\n      JUMPDEST \t\t\trized(_secret);\\r\\n\\r\\n       ...\n      PUSH 0\t\t\to\n      DUP1 \t\t\t(\n      REVERT \t\t\t     if(shop\n    tag 43\t\t\t campaignCount){       \\r\\n   ...\n      JUMPDEST \t\t\t campaignCount){       \\r\\n   ...\n      PUSH 0\t\t\t// Tran\n      PUSH FFFFFFFFFFFFFFFFFFFFFFFFFFFFFFFFFFFFFFFF\t\t\ts\\r\\n            bool success ...\n      DUP3 \t\t\t addr\n      AND \t\t\tipnt address\\r\\n            bo...\n      SWAP1 \t\t\tto the receipnt address\\r\\n   ...\n      POP \t\t\tto the receipnt address\\r\\n   ...\n      SWAP2 \t\t\t campaignCount){       \\r\\n   ...\n      SWAP1 \t\t\t campaignCount){       \\r\\n   ...\n      POP \t\t\t campaignCount){       \\r\\n   ...\n      JUMP \t\t\t campaignCount){       \\r\\n   ...\n    tag 44\t\t\tmount);\\r\\n            require...\n      JUMPDEST \t\t\tmount);\\r\\n            require...\n      PUSH 0\t\t\t \"Trans\n      PUSH [tag] 83\t\t\t }\\r\\n        \\r\\n    }\\r\\n\\r\\...\n      DUP3 \t\t\t}\\r\\n\\r\\n\n      PUSH [tag] 43\t\t\t }\\r\\n        \\r\\n    }\\r\\n\\r\\...\n      JUMP \t\t\t }\\r\\n        \\r\\n    }\\r\\n\\r\\...\n    tag 83\t\t\t }\\r\\n        \\r\\n    }\\r\\n\\r\\...\n      JUMPDEST \t\t\t }\\r\\n        \\r\\n    }\\r\\n\\r\\...\n      SWAP1 \t\t\t);\\r\\n        }\\r\\n        \\r\\...\n      POP \t\t\t);\\r\\n        }\\r\\n        \\r\\...\n      SWAP2 \t\t\tmount);\\r\\n            require...\n      SWAP1 \t\t\tmount);\\r\\n            require...\n      POP \t\t\tmount);\\r\\n            require...\n      JUMP \t\t\tmount);\\r\\n            require...\n    tag 45\t\t\tuserAuthorized(string memory _...\n      JUMPDEST \t\t\tuserAuthorized(string memory _...\n      PUSH [tag] 85\t\t\tequire(keccak256(abi.enc\n      DUP2 \t\t\tbi.en\n      PUSH [tag] 44\t\t\tequire(keccak256(abi.enc\n      JUMP \t\t\tequire(keccak256(abi.enc\n    tag 85\t\t\tequire(keccak256(abi.enc\n      JUMPDEST \t\t\tequire(keccak256(abi.enc\n      DUP2 \t\t\t     \n      EQ \t\t\t\\n        require(keccak256(ab...\n      PUSH [tag] 86\t\t\t\\n        \\r\\n        require(...\n      JUMPI \t\t\t\\n        \\r\\n        require(...\n      PUSH 0\t\t\te\n      DUP1 \t\t\te\n      REVERT \t\t\tcked(_secret\n    tag 86\t\t\t\\n        \\r\\n        require(...\n      JUMPDEST \t\t\t\\n        \\r\\n        require(...\n      POP \t\t\tuserAuthorized(string memory _...\n      JUMP \t\t\tuserAuthorized(string memory _...\n    tag 46\t\t\tash, \"not Authorized!\");\\r\\n  ...\n      JUMPDEST \t\t\tash, \"not Authorized!\");\\r\\n  ...\n      PUSH 0\t\t\t // f\n      DUP2 \t\t\t\\n    f\n      CALLDATALOAD \t\t\tr production\\r\\n    fu\n      SWAP1 \t\t\tmove after production\\r\\n    f...\n      POP \t\t\tmove after production\\r\\n    f...\n      PUSH [tag] 88\t\t\tst() public view returns (byte...\n      DUP2 \t\t\tytes3\n      PUSH [tag] 45\t\t\tst() public view returns (byte...\n      JUMP \t\t\tst() public view returns (byte...\n    tag 88\t\t\tst() public view returns (byte...\n      JUMPDEST \t\t\tst() public view returns (byte...\n      SWAP3 \t\t\tash, \"not Authorized!\");\\r\\n  ...\n      SWAP2 \t\t\tash, \"not Authorized!\");\\r\\n  ...\n      POP \t\t\tash, \"not Authorized!\");\\r\\n  ...\n      POP \t\t\tash, \"not Authorized!\");\\r\\n  ...\n      JUMP \t\t\tash, \"not Authorized!\");\\r\\n  ...\n    tag 47\t\t\treturn _secretHash;\\r\\n    }\\r...\n      JUMPDEST \t\t\treturn _secretHash;\\r\\n    }\\r...\n      PUSH [tag] 90\t\t\t\n      DUP2 \t\t\t\n      PUSH [tag] 38\t\t\t\n      JUMP \t\t\t\n    tag 90\t\t\t\n      JUMPDEST \t\t\t\n      DUP2 \t\t\t\n      EQ \t\t\t\n      PUSH [tag] 91\t\t\t\n      JUMPI \t\t\t\n      PUSH 0\t\t\t\n      DUP1 \t\t\t\n      REVERT \t\t\t\n    tag 91\t\t\t\n      JUMPDEST \t\t\t\n      POP \t\t\treturn _secretHash;\\r\\n    }\\r...\n      JUMP \t\t\treturn _secretHash;\\r\\n    }\\r...\n    tag 48\t\t\t\n      JUMPDEST \t\t\t\n      PUSH 0\t\t\t\n      DUP2 \t\t\t\n      CALLDATALOAD \t\t\t\n      SWAP1 \t\t\t\n      POP \t\t\t\n      PUSH [tag] 93\t\t\t\n      DUP2 \t\t\t\n      PUSH [tag] 47\t\t\t\n      JUMP \t\t\t\n    tag 93\t\t\t\n      JUMPDEST \t\t\t\n      SWAP3 \t\t\t\n      SWAP2 \t\t\t\n      POP \t\t\t\n      POP \t\t\t\n      JUMP \t\t\t\n    tag 49\t\t\t\n      JUMPDEST \t\t\t\n      PUSH 0\t\t\t\n      DUP1 \t\t\t\n      REVERT \t\t\t\n    tag 50\t\t\t\n      JUMPDEST \t\t\t\n      PUSH 0\t\t\t\n      DUP1 \t\t\t\n      REVERT \t\t\t\n    tag 51\t\t\t\n      JUMPDEST \t\t\t\n      PUSH 0\t\t\t\n      PUSH 1F\t\t\t\n      NOT \t\t\t\n      PUSH 1F\t\t\t\n      DUP4 \t\t\t\n      ADD \t\t\t\n      AND \t\t\t\n      SWAP1 \t\t\t\n      POP \t\t\t\n      SWAP2 \t\t\t\n      SWAP1 \t\t\t\n      POP \t\t\t\n      JUMP \t\t\t\n    tag 52\t\t\t\n      JUMPDEST \t\t\t\n      PUSH 4E487B7100000000000000000000000000000000000000000000000000000000\t\t\t\n      PUSH 0\t\t\t\n      MSTORE \t\t\t\n      PUSH 41\t\t\t\n      PUSH 4\t\t\t\n      MSTORE \t\t\t\n      PUSH 24\t\t\t\n      PUSH 0\t\t\t\n      REVERT \t\t\t\n    tag 53\t\t\t\n      JUMPDEST \t\t\t\n      PUSH [tag] 99\t\t\t\n      DUP3 \t\t\t\n      PUSH [tag] 51\t\t\t\n      JUMP \t\t\t\n    tag 99\t\t\t\n      JUMPDEST \t\t\t\n      DUP2 \t\t\t\n      ADD \t\t\t\n      DUP2 \t\t\t\n      DUP2 \t\t\t\n      LT \t\t\t\n      PUSH FFFFFFFFFFFFFFFF\t\t\t\n      DUP3 \t\t\t\n      GT \t\t\t\n      OR \t\t\t\n      ISZERO \t\t\t\n      PUSH [tag] 100\t\t\t\n      JUMPI \t\t\t\n      PUSH [tag] 101\t\t\t\n      PUSH [tag] 52\t\t\t\n      JUMP \t\t\t\n    tag 101\t\t\t\n      JUMPDEST \t\t\t\n    tag 100\t\t\t\n      JUMPDEST \t\t\t\n      DUP1 \t\t\t\n      PUSH 40\t\t\t\n      MSTORE \t\t\t\n      POP \t\t\t\n      POP \t\t\t\n      POP \t\t\t\n      JUMP \t\t\t\n    tag 54\t\t\t\n      JUMPDEST \t\t\t\n      PUSH 0\t\t\t\n      PUSH [tag] 103\t\t\t\n      PUSH [tag] 40\t\t\t\n      JUMP \t\t\t\n    tag 103\t\t\t\n      JUMPDEST \t\t\t\n      SWAP1 \t\t\t\n      POP \t\t\t\n      PUSH [tag] 104\t\t\t\n      DUP3 \t\t\t\n      DUP3 \t\t\t\n      PUSH [tag] 53\t\t\t\n      JUMP \t\t\t\n    tag 104\t\t\t\n      JUMPDEST \t\t\t\n      SWAP2 \t\t\t\n      SWAP1 \t\t\t\n      POP \t\t\t\n      JUMP \t\t\t\n    tag 55\t\t\t\n      JUMPDEST \t\t\t\n      PUSH 0\t\t\t\n      PUSH FFFFFFFFFFFFFFFF\t\t\t\n      DUP3 \t\t\t\n      GT \t\t\t\n      ISZERO \t\t\t\n      PUSH [tag] 106\t\t\t\n      JUMPI \t\t\t\n      PUSH [tag] 107\t\t\t\n      PUSH [tag] 52\t\t\t\n      JUMP \t\t\t\n    tag 107\t\t\t\n      JUMPDEST \t\t\t\n    tag 106\t\t\t\n      JUMPDEST \t\t\t\n      PUSH [tag] 108\t\t\t\n      DUP3 \t\t\t\n      PUSH [tag] 51\t\t\t\n      JUMP \t\t\t\n    tag 108\t\t\t\n      JUMPDEST \t\t\t\n      SWAP1 \t\t\t\n      POP \t\t\t\n      PUSH 20\t\t\t\n      DUP2 \t\t\t\n      ADD \t\t\t\n      SWAP1 \t\t\t\n      POP \t\t\t\n      SWAP2 \t\t\t\n      SWAP1 \t\t\t\n      POP \t\t\t\n      JUMP \t\t\t\n    tag 56\t\t\t\n      JUMPDEST \t\t\t\n      DUP3 \t\t\t\n      DUP2 \t\t\t\n      DUP4 \t\t\t\n      CALLDATACOPY \t\t\t\n      PUSH 0\t\t\t\n      DUP4 \t\t\t\n      DUP4 \t\t\t\n      ADD \t\t\t\n      MSTORE \t\t\t\n      POP \t\t\t\n      POP \t\t\t\n      POP \t\t\t\n      JUMP \t\t\t\n    tag 57\t\t\t\n      JUMPDEST \t\t\t\n      PUSH 0\t\t\t\n      PUSH [tag] 111\t\t\t\n      PUSH [tag] 112\t\t\t\n      DUP5 \t\t\t\n      PUSH [tag] 55\t\t\t\n      JUMP \t\t\t\n    tag 112\t\t\t\n      JUMPDEST \t\t\t\n      PUSH [tag] 54\t\t\t\n      JUMP \t\t\t\n    tag 111\t\t\t\n      JUMPDEST \t\t\t\n      SWAP1 \t\t\t\n      POP \t\t\t\n      DUP3 \t\t\t\n      DUP2 \t\t\t\n      MSTORE \t\t\t\n      PUSH 20\t\t\t\n      DUP2 \t\t\t\n      ADD \t\t\t\n      DUP5 \t\t\t\n      DUP5 \t\t\t\n      DUP5 \t\t\t\n      ADD \t\t\t\n      GT \t\t\t\n      ISZERO \t\t\t\n      PUSH [tag] 113\t\t\t\n      JUMPI \t\t\t\n      PUSH [tag] 114\t\t\t\n      PUSH [tag] 50\t\t\t\n      JUMP \t\t\t\n    tag 114\t\t\t\n      JUMPDEST \t\t\t\n    tag 113\t\t\t\n      JUMPDEST \t\t\t\n      PUSH [tag] 115\t\t\t\n      DUP5 \t\t\t\n      DUP3 \t\t\t\n      DUP6 \t\t\t\n      PUSH [tag] 56\t\t\t\n      JUMP \t\t\t\n    tag 115\t\t\t\n      JUMPDEST \t\t\t\n      POP \t\t\t\n      SWAP4 \t\t\t\n      SWAP3 \t\t\t\n      POP \t\t\t\n      POP \t\t\t\n      POP \t\t\t\n      JUMP \t\t\t\n    tag 58\t\t\t\n      JUMPDEST \t\t\t\n      PUSH 0\t\t\t\n      DUP3 \t\t\t\n      PUSH 1F\t\t\t\n      DUP4 \t\t\t\n      ADD \t\t\t\n      SLT \t\t\t\n      PUSH [tag] 117\t\t\t\n      JUMPI \t\t\t\n      PUSH [tag] 118\t\t\t\n      PUSH [tag] 49\t\t\t\n      JUMP \t\t\t\n    tag 118\t\t\t\n      JUMPDEST \t\t\t\n    tag 117\t\t\t\n      JUMPDEST \t\t\t\n      DUP2 \t\t\t\n      CALLDATALOAD \t\t\t\n      PUSH [tag] 119\t\t\t\n      DUP5 \t\t\t\n      DUP3 \t\t\t\n      PUSH 20\t\t\t\n      DUP7 \t\t\t\n      ADD \t\t\t\n      PUSH [tag] 57\t\t\t\n      JUMP \t\t\t\n    tag 119\t\t\t\n      JUMPDEST \t\t\t\n      SWAP2 \t\t\t\n      POP \t\t\t\n      POP \t\t\t\n      SWAP3 \t\t\t\n      SWAP2 \t\t\t\n      POP \t\t\t\n      POP \t\t\t\n      JUMP \t\t\t\n    tag 12\t\t\t\n      JUMPDEST \t\t\t\n      PUSH 0\t\t\t\n      DUP1 \t\t\t\n      PUSH 0\t\t\t\n      DUP1 \t\t\t\n      PUSH 0\t\t\t\n      PUSH A0\t\t\t\n      DUP7 \t\t\t\n      DUP9 \t\t\t\n      SUB \t\t\t\n      SLT \t\t\t\n      ISZERO \t\t\t\n      PUSH [tag] 121\t\t\t\n      JUMPI \t\t\t\n      PUSH [tag] 122\t\t\t\n      PUSH [tag] 41\t\t\t\n      JUMP \t\t\t\n    tag 122\t\t\t\n      JUMPDEST \t\t\t\n    tag 121\t\t\t\n      JUMPDEST \t\t\t\n      PUSH 0\t\t\t\n      PUSH [tag] 123\t\t\t\n      DUP9 \t\t\t\n      DUP3 \t\t\t\n      DUP10 \t\t\t\n      ADD \t\t\t\n      PUSH [tag] 46\t\t\t\n      JUMP \t\t\t\n    tag 123\t\t\t\n      JUMPDEST \t\t\t\n      SWAP6 \t\t\t\n      POP \t\t\t\n      POP \t\t\t\n      PUSH 20\t\t\t\n      PUSH [tag] 124\t\t\t\n      DUP9 \t\t\t\n      DUP3 \t\t\t\n      DUP10 \t\t\t\n      ADD \t\t\t\n      PUSH [tag] 48\t\t\t\n      JUMP \t\t\t\n    tag 124\t\t\t\n      JUMPDEST \t\t\t\n      SWAP5 \t\t\t\n      POP \t\t\t\n      POP \t\t\t\n      PUSH 40\t\t\t\n      PUSH [tag] 125\t\t\t\n      DUP9 \t\t\t\n      DUP3 \t\t\t\n      DUP10 \t\t\t\n      ADD \t\t\t\n      PUSH [tag] 48\t\t\t\n      JUMP \t\t\t\n    tag 125\t\t\t\n      JUMPDEST \t\t\t\n      SWAP4 \t\t\t\n      POP \t\t\t\n      POP \t\t\t\n      PUSH 60\t\t\t\n      PUSH [tag] 126\t\t\t\n      DUP9 \t\t\t\n      DUP3 \t\t\t\n      DUP10 \t\t\t\n      ADD \t\t\t\n      PUSH [tag] 48\t\t\t\n      JUMP \t\t\t\n    tag 126\t\t\t\n      JUMPDEST \t\t\t\n      SWAP3 \t\t\t\n      POP \t\t\t\n      POP \t\t\t\n      PUSH 80\t\t\t\n      DUP7 \t\t\t\n      ADD \t\t\t\n      CALLDATALOAD \t\t\t\n      PUSH FFFFFFFFFFFFFFFF\t\t\t\n      DUP2 \t\t\t\n      GT \t\t\t\n      ISZERO \t\t\t\n      PUSH [tag] 127\t\t\t\n      JUMPI \t\t\t\n      PUSH [tag] 128\t\t\t\n      PUSH [tag] 42\t\t\t\n      JUMP \t\t\t\n    tag 128\t\t\t\n      JUMPDEST \t\t\t\n    tag 127\t\t\t\n      JUMPDEST \t\t\t\n      PUSH [tag] 129\t\t\t\n      DUP9 \t\t\t\n      DUP3 \t\t\t\n      DUP10 \t\t\t\n      ADD \t\t\t\n      PUSH [tag] 58\t\t\t\n      JUMP \t\t\t\n    tag 129\t\t\t\n      JUMPDEST \t\t\t\n      SWAP2 \t\t\t\n      POP \t\t\t\n      POP \t\t\t\n      SWAP3 \t\t\t\n      SWAP6 \t\t\t\n      POP \t\t\t\n      SWAP3 \t\t\t\n      SWAP6 \t\t\t\n      SWAP1 \t\t\t\n      SWAP4 \t\t\t\n      POP \t\t\t\n      JUMP \t\t\t\n    tag 59\t\t\t\n      JUMPDEST \t\t\t\n      PUSH 0\t\t\t\n      DUP2 \t\t\t\n      SWAP1 \t\t\t\n      POP \t\t\t\n      SWAP2 \t\t\t\n      SWAP1 \t\t\t\n      POP \t\t\t\n      JUMP \t\t\t\n    tag 60\t\t\t\n      JUMPDEST \t\t\t\n      PUSH [tag] 132\t\t\t\n      DUP2 \t\t\t\n      PUSH [tag] 59\t\t\t\n      JUMP \t\t\t\n    tag 132\t\t\t\n      JUMPDEST \t\t\t\n      DUP3 \t\t\t\n      MSTORE \t\t\t\n      POP \t\t\t\n      POP \t\t\t\n      JUMP \t\t\t\n    tag 18\t\t\t\n      JUMPDEST \t\t\t\n      PUSH 0\t\t\t\n      PUSH 20\t\t\t\n      DUP3 \t\t\t\n      ADD \t\t\t\n      SWAP1 \t\t\t\n      POP \t\t\t\n      PUSH [tag] 134\t\t\t\n      PUSH 0\t\t\t\n      DUP4 \t\t\t\n      ADD \t\t\t\n      DUP5 \t\t\t\n      PUSH [tag] 60\t\t\t\n      JUMP \t\t\t\n    tag 134\t\t\t\n      JUMPDEST \t\t\t\n      SWAP3 \t\t\t\n      SWAP2 \t\t\t\n      POP \t\t\t\n      POP \t\t\t\n      JUMP \t\t\t\n    tag 61\t\t\t\n      JUMPDEST \t\t\t\n      PUSH 0\t\t\t\n      DUP3 \t\t\t\n      DUP3 \t\t\t\n      MSTORE \t\t\t\n      PUSH 20\t\t\t\n      DUP3 \t\t\t\n      ADD \t\t\t\n      SWAP1 \t\t\t\n      POP \t\t\t\n      SWAP3 \t\t\t\n      SWAP2 \t\t\t\n      POP \t\t\t\n      POP \t\t\t\n      JUMP \t\t\t\n    tag 62\t\t\t\n      JUMPDEST \t\t\t\n      PUSH 496E73756666696369656E742062616C616E6365000000000000000000000000\t\t\t\n      PUSH 0\t\t\t\n      DUP3 \t\t\t\n      ADD \t\t\t\n      MSTORE \t\t\t\n      POP \t\t\t\n      JUMP \t\t\t\n    tag 63\t\t\t\n      JUMPDEST \t\t\t\n      PUSH 0\t\t\t\n      PUSH [tag] 138\t\t\t\n      PUSH 14\t\t\t\n      DUP4 \t\t\t\n      PUSH [tag] 61\t\t\t\n      JUMP \t\t\t\n    tag 138\t\t\t\n      JUMPDEST \t\t\t\n      SWAP2 \t\t\t\n      POP \t\t\t\n      PUSH [tag] 139\t\t\t\n      DUP3 \t\t\t\n      PUSH [tag] 62\t\t\t\n      JUMP \t\t\t\n    tag 139\t\t\t\n      JUMPDEST \t\t\t\n      PUSH 20\t\t\t\n      DUP3 \t\t\t\n      ADD \t\t\t\n      SWAP1 \t\t\t\n      POP \t\t\t\n      SWAP2 \t\t\t\n      SWAP1 \t\t\t\n      POP \t\t\t\n      JUMP \t\t\t\n    tag 25\t\t\t\n      JUMPDEST \t\t\t\n      PUSH 0\t\t\t\n      PUSH 20\t\t\t\n      DUP3 \t\t\t\n      ADD \t\t\t\n      SWAP1 \t\t\t\n      POP \t\t\t\n      DUP2 \t\t\t\n      DUP2 \t\t\t\n      SUB \t\t\t\n      PUSH 0\t\t\t\n      DUP4 \t\t\t\n      ADD \t\t\t\n      MSTORE \t\t\t\n      PUSH [tag] 141\t\t\t\n      DUP2 \t\t\t\n      PUSH [tag] 63\t\t\t\n      JUMP \t\t\t\n    tag 141\t\t\t\n      JUMPDEST \t\t\t\n      SWAP1 \t\t\t\n      POP \t\t\t\n      SWAP2 \t\t\t\n      SWAP1 \t\t\t\n      POP \t\t\t\n      JUMP \t\t\t\n    tag 64\t\t\t\n      JUMPDEST \t\t\t\n      PUSH 5472616E73666572206661696C65640000000000000000000000000000000000\t\t\t\n      PUSH 0\t\t\t\n      DUP3 \t\t\t\n      ADD \t\t\t\n      MSTORE \t\t\t\n      POP \t\t\t\n      JUMP \t\t\t\n    tag 65\t\t\t\n      JUMPDEST \t\t\t\n      PUSH 0\t\t\t\n      PUSH [tag] 144\t\t\t\n      PUSH F\t\t\t\n      DUP4 \t\t\t\n      PUSH [tag] 61\t\t\t\n      JUMP \t\t\t\n    tag 144\t\t\t\n      JUMPDEST \t\t\t\n      SWAP2 \t\t\t\n      POP \t\t\t\n      PUSH [tag] 145\t\t\t\n      DUP3 \t\t\t\n      PUSH [tag] 64\t\t\t\n      JUMP \t\t\t\n    tag 145\t\t\t\n      JUMPDEST \t\t\t\n      PUSH 20\t\t\t\n      DUP3 \t\t\t\n      ADD \t\t\t\n      SWAP1 \t\t\t\n      POP \t\t\t\n      SWAP2 \t\t\t\n      SWAP1 \t\t\t\n      POP \t\t\t\n      JUMP \t\t\t\n    tag 30\t\t\t\n      JUMPDEST \t\t\t\n      PUSH 0\t\t\t\n      PUSH 20\t\t\t\n      DUP3 \t\t\t\n      ADD \t\t\t\n      SWAP1 \t\t\t\n      POP \t\t\t\n      DUP2 \t\t\t\n      DUP2 \t\t\t\n      SUB \t\t\t\n      PUSH 0\t\t\t\n      DUP4 \t\t\t\n      ADD \t\t\t\n      MSTORE \t\t\t\n      PUSH [tag] 147\t\t\t\n      DUP2 \t\t\t\n      PUSH [tag] 65\t\t\t\n      JUMP \t\t\t\n    tag 147\t\t\t\n      JUMPDEST \t\t\t\n      SWAP1 \t\t\t\n      POP \t\t\t\n      SWAP2 \t\t\t\n      SWAP1 \t\t\t\n      POP \t\t\t\n      JUMP \t\t\t\n    tag 66\t\t\t\n      JUMPDEST \t\t\t\n      PUSH 0\t\t\t\n      DUP2 \t\t\t\n      MLOAD \t\t\t\n      SWAP1 \t\t\t\n      POP \t\t\t\n      SWAP2 \t\t\t\n      SWAP1 \t\t\t\n      POP \t\t\t\n      JUMP \t\t\t\n    tag 67\t\t\t\n      JUMPDEST \t\t\t\n      PUSH 0\t\t\t\n      DUP2 \t\t\t\n      SWAP1 \t\t\t\n      POP \t\t\t\n      SWAP3 \t\t\t\n      SWAP2 \t\t\t\n      POP \t\t\t\n      POP \t\t\t\n      JUMP \t\t\t\n    tag 68\t\t\t\n      JUMPDEST \t\t\t\n      PUSH 0\t\t\t\n    tag 151\t\t\t\n      JUMPDEST \t\t\t\n      DUP4 \t\t\t\n      DUP2 \t\t\t\n      LT \t\t\t\n      ISZERO \t\t\t\n      PUSH [tag] 153\t\t\t\n      JUMPI \t\t\t\n      DUP1 \t\t\t\n      DUP3 \t\t\t\n      ADD \t\t\t\n      MLOAD \t\t\t\n      DUP2 \t\t\t\n      DUP5 \t\t\t\n      ADD \t\t\t\n      MSTORE \t\t\t\n      PUSH 20\t\t\t\n      DUP2 \t\t\t\n      ADD \t\t\t\n      SWAP1 \t\t\t\n      POP \t\t\t\n      PUSH [tag] 151\t\t\t\n      JUMP \t\t\t\n    tag 153\t\t\t\n      JUMPDEST \t\t\t\n      PUSH 0\t\t\t\n      DUP5 \t\t\t\n      DUP5 \t\t\t\n      ADD \t\t\t\n      MSTORE \t\t\t\n      POP \t\t\t\n      POP \t\t\t\n      POP \t\t\t\n      POP \t\t\t\n      JUMP \t\t\t\n    tag 69\t\t\t\n      JUMPDEST \t\t\t\n      PUSH 0\t\t\t\n      PUSH [tag] 155\t\t\t\n      DUP3 \t\t\t\n      PUSH [tag] 66\t\t\t\n      JUMP \t\t\t\n    tag 155\t\t\t\n      JUMPDEST \t\t\t\n      PUSH [tag] 156\t\t\t\n      DUP2 \t\t\t\n      DUP6 \t\t\t\n      PUSH [tag] 67\t\t\t\n      JUMP \t\t\t\n    tag 156\t\t\t\n      JUMPDEST \t\t\t\n      SWAP4 \t\t\t\n      POP \t\t\t\n      PUSH [tag] 157\t\t\t\n      DUP2 \t\t\t\n      DUP6 \t\t\t\n      PUSH 20\t\t\t\n      DUP7 \t\t\t\n      ADD \t\t\t\n      PUSH [tag] 68\t\t\t\n      JUMP \t\t\t\n    tag 157\t\t\t\n      JUMPDEST \t\t\t\n      DUP1 \t\t\t\n      DUP5 \t\t\t\n      ADD \t\t\t\n      SWAP2 \t\t\t\n      POP \t\t\t\n      POP \t\t\t\n      SWAP3 \t\t\t\n      SWAP2 \t\t\t\n      POP \t\t\t\n      POP \t\t\t\n      JUMP \t\t\t\n    tag 34\t\t\t\n      JUMPDEST \t\t\t\n      PUSH 0\t\t\t\n      PUSH [tag] 159\t\t\t\n      DUP3 \t\t\t\n      DUP5 \t\t\t\n      PUSH [tag] 69\t\t\t\n      JUMP \t\t\t\n    tag 159\t\t\t\n      JUMPDEST \t\t\t\n      SWAP2 \t\t\t\n      POP \t\t\t\n      DUP2 \t\t\t\n      SWAP1 \t\t\t\n      POP \t\t\t\n      SWAP3 \t\t\t\n      SWAP2 \t\t\t\n      POP \t\t\t\n      POP \t\t\t\n      JUMP \t\t\t\n    tag 70\t\t\t\n      JUMPDEST \t\t\t\n      PUSH 6E6F7420417574686F72697A6564210000000000000000000000000000000000\t\t\t\n      PUSH 0\t\t\t\n      DUP3 \t\t\t\n      ADD \t\t\t\n      MSTORE \t\t\t\n      POP \t\t\t\n      JUMP \t\t\t\n    tag 71\t\t\t\n      JUMPDEST \t\t\t\n      PUSH 0\t\t\t\n      PUSH [tag] 162\t\t\t\n      PUSH F\t\t\t\n      DUP4 \t\t\t\n      PUSH [tag] 61\t\t\t\n      JUMP \t\t\t\n    tag 162\t\t\t\n      JUMPDEST \t\t\t\n      SWAP2 \t\t\t\n      POP \t\t\t\n      PUSH [tag] 163\t\t\t\n      DUP3 \t\t\t\n      PUSH [tag] 70\t\t\t\n      JUMP \t\t\t\n    tag 163\t\t\t\n      JUMPDEST \t\t\t\n      PUSH 20\t\t\t\n      DUP3 \t\t\t\n      ADD \t\t\t\n      SWAP1 \t\t\t\n      POP \t\t\t\n      SWAP2 \t\t\t\n      SWAP1 \t\t\t\n      POP \t\t\t\n      JUMP \t\t\t\n    tag 37\t\t\t\n      JUMPDEST \t\t\t\n      PUSH 0\t\t\t\n      PUSH 20\t\t\t\n      DUP3 \t\t\t\n      ADD \t\t\t\n      SWAP1 \t\t\t\n      POP \t\t\t\n      DUP2 \t\t\t\n      DUP2 \t\t\t\n      SUB \t\t\t\n      PUSH 0\t\t\t\n      DUP4 \t\t\t\n      ADD \t\t\t\n      MSTORE \t\t\t\n      PUSH [tag] 165\t\t\t\n      DUP2 \t\t\t\n      PUSH [tag] 71\t\t\t\n      JUMP \t\t\t\n    tag 165\t\t\t\n      JUMPDEST \t\t\t\n      SWAP1 \t\t\t\n      POP \t\t\t\n      SWAP2 \t\t\t\n      SWAP1 \t\t\t\n      POP \t\t\t\n      JUMP \t\t\t\n    .data\n"
}