{
	"compilerInput": "{\"language\":\"Solidity\",\"sources\":{\"loyalty.sol\":{\"content\":\"// SPDX-License-Identifier: GPL-3.0\\r\\npragma solidity >=0.4.20 <0.9.0;\\r\\n\\r\\ncontract cryptoDorea {\\r\\n\\r\\n    address _signer;\\r\\n    bytes  _signatur;\\r\\n\\r\\n    // define constructor to get fund on deploy stage\\r\\n    constructor() payable {\\r\\n\\r\\n\\r\\n    }\\r\\n\\r\\n    // Transfer Ether to Loyal Customers\\r\\n    function pay(address recipient, uint256  amount, uint256 campaignCount, uint256 shoppingCount, bytes32 _hashedMessage, uint8 _v, bytes32 _r, bytes32 _s) public payable{\\r\\n    \\r\\n        userAuthorized(_hashedMessage, _v, _r, _s);\\r\\n        \\r\\n        require(amount <= address(this).balance, \\\"Insufficient balance\\\");\\r\\n\\r\\n        if(shoppingCount >= campaignCount){    \\r\\n\\r\\n            // Transfer Ether to the receipnt address\\r\\n            bool success = payable(recipient).send(amount);\\r\\n            require(success, \\\"Transfer failed\\\");\\r\\n\\r\\n        }else{\\r\\n\\r\\n            revert(\\\"User not Eligible!\\\");\\r\\n\\r\\n        }\\r\\n\\r\\n        \\r\\n    }\\r\\n\\r\\n   function userAuthorized(bytes32 _hashedMessage, uint8 _v, bytes32 _r, bytes32 _s) public pure returns (address) {\\r\\n        \\r\\n        bytes memory prefix = \\\"\\\\x19Ethereum Signed Message:\\\\n32\\\";\\r\\n\\r\\n        bytes32 prefixedHashMessage = keccak256(abi.encodePacked(prefix, _hashedMessage));\\r\\n        address signer = ecrecover(prefixedHashMessage, _v, _r, _s);\\r\\n\\r\\n        return signer;\\r\\n\\r\\n    }\\r\\n\\r\\n\\r\\n    // get balance of contract address\\r\\n    function getBalance() public view returns(uint256){\\r\\n\\r\\n        return address(this).balance;\\r\\n\\r\\n    }\\r\\n\\r\\n        // get balance of contract address\\r\\n    function addr() public view returns(address){\\r\\n\\r\\n        return address(this);\\r\\n\\r\\n    }\\r\\n\\r\\n}\"}},\"settings\":{\"optimizer\":{\"enabled\":false,\"runs\":200},\"outputSelection\":{\"*\":{\"\":[\"ast\"],\"*\":[\"abi\",\"metadata\",\"devdoc\",\"userdoc\",\"storageLayout\",\"evm.legacyAssembly\",\"evm.bytecode\",\"evm.deployedBytecode\",\"evm.methodIdentifiers\",\"evm.gasEstimates\",\"evm.assembly\"]}},\"remappings\":[]}}",
	"name": "cryptoDorea",
	"bytecode": {
		"linkReferences": {},
		"object": "60806040526107c9806100115f395ff3fe60806040526004361061003e575f3560e01c806312065fe01461004257806338165f701461006c578063767800de146100a8578063c718b168146100d2575b5f80fd5b34801561004d575f80fd5b506100566100ee565b60405161006391906102f0565b60405180910390f35b348015610077575f80fd5b50610092600480360381019061008d9190610376565b6100f5565b60405161009f9190610419565b60405180910390f35b3480156100b3575f80fd5b506100bc6101b8565b6040516100c99190610419565b60405180910390f35b6100ec60048036038101906100e79190610486565b6101bf565b005b5f47905090565b5f806040518060400160405280601c81526020017f19457468657265756d205369676e6564204d6573736167653a0a33320000000081525090505f81876040516020016101439291906105c3565b6040516020818303038152906040528051906020012090505f6001828888886040515f815260200160405260405161017e9493929190610608565b6020604051602081039080840390855afa15801561019e573d5f803e3d5ffd5b505050602060405103519050809350505050949350505050565b5f30905090565b6101cb848484846100f5565b504787111561020f576040517f08c379a0000000000000000000000000000000000000000000000000000000008152600401610206906106a5565b60405180910390fd5b858510610293575f8873ffffffffffffffffffffffffffffffffffffffff166108fc8990811502906040515f60405180830381858888f1935050505090508061028d576040517f08c379a00000000000000000000000000000000000000000000000000000000081526004016102849061070d565b60405180910390fd5b506102ce565b6040517f08c379a00000000000000000000000000000000000000000000000000000000081526004016102c590610775565b60405180910390fd5b5050505050505050565b5f819050919050565b6102ea816102d8565b82525050565b5f6020820190506103035f8301846102e1565b92915050565b5f80fd5b5f819050919050565b61031f8161030d565b8114610329575f80fd5b50565b5f8135905061033a81610316565b92915050565b5f60ff82169050919050565b61035581610340565b811461035f575f80fd5b50565b5f813590506103708161034c565b92915050565b5f805f806080858703121561038e5761038d610309565b5b5f61039b8782880161032c565b94505060206103ac87828801610362565b93505060406103bd8782880161032c565b92505060606103ce8782880161032c565b91505092959194509250565b5f73ffffffffffffffffffffffffffffffffffffffff82169050919050565b5f610403826103da565b9050919050565b610413816103f9565b82525050565b5f60208201905061042c5f83018461040a565b92915050565b61043b816103f9565b8114610445575f80fd5b50565b5f8135905061045681610432565b92915050565b610465816102d8565b811461046f575f80fd5b50565b5f813590506104808161045c565b92915050565b5f805f805f805f80610100898b0312156104a3576104a2610309565b5b5f6104b08b828c01610448565b98505060206104c18b828c01610472565b97505060406104d28b828c01610472565b96505060606104e38b828c01610472565b95505060806104f48b828c0161032c565b94505060a06105058b828c01610362565b93505060c06105168b828c0161032c565b92505060e06105278b828c0161032c565b9150509295985092959890939650565b5f81519050919050565b5f81905092915050565b5f5b8381101561056857808201518184015260208101905061054d565b5f8484015250505050565b5f61057d82610537565b6105878185610541565b935061059781856020860161054b565b80840191505092915050565b5f819050919050565b6105bd6105b88261030d565b6105a3565b82525050565b5f6105ce8285610573565b91506105da82846105ac565b6020820191508190509392505050565b6105f38161030d565b82525050565b61060281610340565b82525050565b5f60808201905061061b5f8301876105ea565b61062860208301866105f9565b61063560408301856105ea565b61064260608301846105ea565b95945050505050565b5f82825260208201905092915050565b7f496e73756666696369656e742062616c616e63650000000000000000000000005f82015250565b5f61068f60148361064b565b915061069a8261065b565b602082019050919050565b5f6020820190508181035f8301526106bc81610683565b9050919050565b7f5472616e73666572206661696c656400000000000000000000000000000000005f82015250565b5f6106f7600f8361064b565b9150610702826106c3565b602082019050919050565b5f6020820190508181035f830152610724816106eb565b9050919050565b7f55736572206e6f7420456c696769626c652100000000000000000000000000005f82015250565b5f61075f60128361064b565b915061076a8261072b565b602082019050919050565b5f6020820190508181035f83015261078c81610753565b905091905056fea264697066735822122067d0bc0683ab9d4e5a912149c0f0b23406f9e4fde1775502bbe6a9defc399d3664736f6c63430008160033",
		"opcodes": "PUSH1 0x80 PUSH1 0x40 MSTORE PUSH2 0x7C9 DUP1 PUSH2 0x11 PUSH0 CODECOPY PUSH0 RETURN INVALID PUSH1 0x80 PUSH1 0x40 MSTORE PUSH1 0x4 CALLDATASIZE LT PUSH2 0x3E JUMPI PUSH0 CALLDATALOAD PUSH1 0xE0 SHR DUP1 PUSH4 0x12065FE0 EQ PUSH2 0x42 JUMPI DUP1 PUSH4 0x38165F70 EQ PUSH2 0x6C JUMPI DUP1 PUSH4 0x767800DE EQ PUSH2 0xA8 JUMPI DUP1 PUSH4 0xC718B168 EQ PUSH2 0xD2 JUMPI JUMPDEST PUSH0 DUP1 REVERT JUMPDEST CALLVALUE DUP1 ISZERO PUSH2 0x4D JUMPI PUSH0 DUP1 REVERT JUMPDEST POP PUSH2 0x56 PUSH2 0xEE JUMP JUMPDEST PUSH1 0x40 MLOAD PUSH2 0x63 SWAP2 SWAP1 PUSH2 0x2F0 JUMP JUMPDEST PUSH1 0x40 MLOAD DUP1 SWAP2 SUB SWAP1 RETURN JUMPDEST CALLVALUE DUP1 ISZERO PUSH2 0x77 JUMPI PUSH0 DUP1 REVERT JUMPDEST POP PUSH2 0x92 PUSH1 0x4 DUP1 CALLDATASIZE SUB DUP2 ADD SWAP1 PUSH2 0x8D SWAP2 SWAP1 PUSH2 0x376 JUMP JUMPDEST PUSH2 0xF5 JUMP JUMPDEST PUSH1 0x40 MLOAD PUSH2 0x9F SWAP2 SWAP1 PUSH2 0x419 JUMP JUMPDEST PUSH1 0x40 MLOAD DUP1 SWAP2 SUB SWAP1 RETURN JUMPDEST CALLVALUE DUP1 ISZERO PUSH2 0xB3 JUMPI PUSH0 DUP1 REVERT JUMPDEST POP PUSH2 0xBC PUSH2 0x1B8 JUMP JUMPDEST PUSH1 0x40 MLOAD PUSH2 0xC9 SWAP2 SWAP1 PUSH2 0x419 JUMP JUMPDEST PUSH1 0x40 MLOAD DUP1 SWAP2 SUB SWAP1 RETURN JUMPDEST PUSH2 0xEC PUSH1 0x4 DUP1 CALLDATASIZE SUB DUP2 ADD SWAP1 PUSH2 0xE7 SWAP2 SWAP1 PUSH2 0x486 JUMP JUMPDEST PUSH2 0x1BF JUMP JUMPDEST STOP JUMPDEST PUSH0 SELFBALANCE SWAP1 POP SWAP1 JUMP JUMPDEST PUSH0 DUP1 PUSH1 0x40 MLOAD DUP1 PUSH1 0x40 ADD PUSH1 0x40 MSTORE DUP1 PUSH1 0x1C DUP2 MSTORE PUSH1 0x20 ADD PUSH32 0x19457468657265756D205369676E6564204D6573736167653A0A333200000000 DUP2 MSTORE POP SWAP1 POP PUSH0 DUP2 DUP8 PUSH1 0x40 MLOAD PUSH1 0x20 ADD PUSH2 0x143 SWAP3 SWAP2 SWAP1 PUSH2 0x5C3 JUMP JUMPDEST PUSH1 0x40 MLOAD PUSH1 0x20 DUP2 DUP4 SUB SUB DUP2 MSTORE SWAP1 PUSH1 0x40 MSTORE DUP1 MLOAD SWAP1 PUSH1 0x20 ADD KECCAK256 SWAP1 POP PUSH0 PUSH1 0x1 DUP3 DUP9 DUP9 DUP9 PUSH1 0x40 MLOAD PUSH0 DUP2 MSTORE PUSH1 0x20 ADD PUSH1 0x40 MSTORE PUSH1 0x40 MLOAD PUSH2 0x17E SWAP5 SWAP4 SWAP3 SWAP2 SWAP1 PUSH2 0x608 JUMP JUMPDEST PUSH1 0x20 PUSH1 0x40 MLOAD PUSH1 0x20 DUP2 SUB SWAP1 DUP1 DUP5 SUB SWAP1 DUP6 GAS STATICCALL ISZERO DUP1 ISZERO PUSH2 0x19E JUMPI RETURNDATASIZE PUSH0 DUP1 RETURNDATACOPY RETURNDATASIZE PUSH0 REVERT JUMPDEST POP POP POP PUSH1 0x20 PUSH1 0x40 MLOAD SUB MLOAD SWAP1 POP DUP1 SWAP4 POP POP POP POP SWAP5 SWAP4 POP POP POP POP JUMP JUMPDEST PUSH0 ADDRESS SWAP1 POP SWAP1 JUMP JUMPDEST PUSH2 0x1CB DUP5 DUP5 DUP5 DUP5 PUSH2 0xF5 JUMP JUMPDEST POP SELFBALANCE DUP8 GT ISZERO PUSH2 0x20F JUMPI PUSH1 0x40 MLOAD PUSH32 0x8C379A000000000000000000000000000000000000000000000000000000000 DUP2 MSTORE PUSH1 0x4 ADD PUSH2 0x206 SWAP1 PUSH2 0x6A5 JUMP JUMPDEST PUSH1 0x40 MLOAD DUP1 SWAP2 SUB SWAP1 REVERT JUMPDEST DUP6 DUP6 LT PUSH2 0x293 JUMPI PUSH0 DUP9 PUSH20 0xFFFFFFFFFFFFFFFFFFFFFFFFFFFFFFFFFFFFFFFF AND PUSH2 0x8FC DUP10 SWAP1 DUP2 ISZERO MUL SWAP1 PUSH1 0x40 MLOAD PUSH0 PUSH1 0x40 MLOAD DUP1 DUP4 SUB DUP2 DUP6 DUP9 DUP9 CALL SWAP4 POP POP POP POP SWAP1 POP DUP1 PUSH2 0x28D JUMPI PUSH1 0x40 MLOAD PUSH32 0x8C379A000000000000000000000000000000000000000000000000000000000 DUP2 MSTORE PUSH1 0x4 ADD PUSH2 0x284 SWAP1 PUSH2 0x70D JUMP JUMPDEST PUSH1 0x40 MLOAD DUP1 SWAP2 SUB SWAP1 REVERT JUMPDEST POP PUSH2 0x2CE JUMP JUMPDEST PUSH1 0x40 MLOAD PUSH32 0x8C379A000000000000000000000000000000000000000000000000000000000 DUP2 MSTORE PUSH1 0x4 ADD PUSH2 0x2C5 SWAP1 PUSH2 0x775 JUMP JUMPDEST PUSH1 0x40 MLOAD DUP1 SWAP2 SUB SWAP1 REVERT JUMPDEST POP POP POP POP POP POP POP POP JUMP JUMPDEST PUSH0 DUP2 SWAP1 POP SWAP2 SWAP1 POP JUMP JUMPDEST PUSH2 0x2EA DUP2 PUSH2 0x2D8 JUMP JUMPDEST DUP3 MSTORE POP POP JUMP JUMPDEST PUSH0 PUSH1 0x20 DUP3 ADD SWAP1 POP PUSH2 0x303 PUSH0 DUP4 ADD DUP5 PUSH2 0x2E1 JUMP JUMPDEST SWAP3 SWAP2 POP POP JUMP JUMPDEST PUSH0 DUP1 REVERT JUMPDEST PUSH0 DUP2 SWAP1 POP SWAP2 SWAP1 POP JUMP JUMPDEST PUSH2 0x31F DUP2 PUSH2 0x30D JUMP JUMPDEST DUP2 EQ PUSH2 0x329 JUMPI PUSH0 DUP1 REVERT JUMPDEST POP JUMP JUMPDEST PUSH0 DUP2 CALLDATALOAD SWAP1 POP PUSH2 0x33A DUP2 PUSH2 0x316 JUMP JUMPDEST SWAP3 SWAP2 POP POP JUMP JUMPDEST PUSH0 PUSH1 0xFF DUP3 AND SWAP1 POP SWAP2 SWAP1 POP JUMP JUMPDEST PUSH2 0x355 DUP2 PUSH2 0x340 JUMP JUMPDEST DUP2 EQ PUSH2 0x35F JUMPI PUSH0 DUP1 REVERT JUMPDEST POP JUMP JUMPDEST PUSH0 DUP2 CALLDATALOAD SWAP1 POP PUSH2 0x370 DUP2 PUSH2 0x34C JUMP JUMPDEST SWAP3 SWAP2 POP POP JUMP JUMPDEST PUSH0 DUP1 PUSH0 DUP1 PUSH1 0x80 DUP6 DUP8 SUB SLT ISZERO PUSH2 0x38E JUMPI PUSH2 0x38D PUSH2 0x309 JUMP JUMPDEST JUMPDEST PUSH0 PUSH2 0x39B DUP8 DUP3 DUP9 ADD PUSH2 0x32C JUMP JUMPDEST SWAP5 POP POP PUSH1 0x20 PUSH2 0x3AC DUP8 DUP3 DUP9 ADD PUSH2 0x362 JUMP JUMPDEST SWAP4 POP POP PUSH1 0x40 PUSH2 0x3BD DUP8 DUP3 DUP9 ADD PUSH2 0x32C JUMP JUMPDEST SWAP3 POP POP PUSH1 0x60 PUSH2 0x3CE DUP8 DUP3 DUP9 ADD PUSH2 0x32C JUMP JUMPDEST SWAP2 POP POP SWAP3 SWAP6 SWAP2 SWAP5 POP SWAP3 POP JUMP JUMPDEST PUSH0 PUSH20 0xFFFFFFFFFFFFFFFFFFFFFFFFFFFFFFFFFFFFFFFF DUP3 AND SWAP1 POP SWAP2 SWAP1 POP JUMP JUMPDEST PUSH0 PUSH2 0x403 DUP3 PUSH2 0x3DA JUMP JUMPDEST SWAP1 POP SWAP2 SWAP1 POP JUMP JUMPDEST PUSH2 0x413 DUP2 PUSH2 0x3F9 JUMP JUMPDEST DUP3 MSTORE POP POP JUMP JUMPDEST PUSH0 PUSH1 0x20 DUP3 ADD SWAP1 POP PUSH2 0x42C PUSH0 DUP4 ADD DUP5 PUSH2 0x40A JUMP JUMPDEST SWAP3 SWAP2 POP POP JUMP JUMPDEST PUSH2 0x43B DUP2 PUSH2 0x3F9 JUMP JUMPDEST DUP2 EQ PUSH2 0x445 JUMPI PUSH0 DUP1 REVERT JUMPDEST POP JUMP JUMPDEST PUSH0 DUP2 CALLDATALOAD SWAP1 POP PUSH2 0x456 DUP2 PUSH2 0x432 JUMP JUMPDEST SWAP3 SWAP2 POP POP JUMP JUMPDEST PUSH2 0x465 DUP2 PUSH2 0x2D8 JUMP JUMPDEST DUP2 EQ PUSH2 0x46F JUMPI PUSH0 DUP1 REVERT JUMPDEST POP JUMP JUMPDEST PUSH0 DUP2 CALLDATALOAD SWAP1 POP PUSH2 0x480 DUP2 PUSH2 0x45C JUMP JUMPDEST SWAP3 SWAP2 POP POP JUMP JUMPDEST PUSH0 DUP1 PUSH0 DUP1 PUSH0 DUP1 PUSH0 DUP1 PUSH2 0x100 DUP10 DUP12 SUB SLT ISZERO PUSH2 0x4A3 JUMPI PUSH2 0x4A2 PUSH2 0x309 JUMP JUMPDEST JUMPDEST PUSH0 PUSH2 0x4B0 DUP12 DUP3 DUP13 ADD PUSH2 0x448 JUMP JUMPDEST SWAP9 POP POP PUSH1 0x20 PUSH2 0x4C1 DUP12 DUP3 DUP13 ADD PUSH2 0x472 JUMP JUMPDEST SWAP8 POP POP PUSH1 0x40 PUSH2 0x4D2 DUP12 DUP3 DUP13 ADD PUSH2 0x472 JUMP JUMPDEST SWAP7 POP POP PUSH1 0x60 PUSH2 0x4E3 DUP12 DUP3 DUP13 ADD PUSH2 0x472 JUMP JUMPDEST SWAP6 POP POP PUSH1 0x80 PUSH2 0x4F4 DUP12 DUP3 DUP13 ADD PUSH2 0x32C JUMP JUMPDEST SWAP5 POP POP PUSH1 0xA0 PUSH2 0x505 DUP12 DUP3 DUP13 ADD PUSH2 0x362 JUMP JUMPDEST SWAP4 POP POP PUSH1 0xC0 PUSH2 0x516 DUP12 DUP3 DUP13 ADD PUSH2 0x32C JUMP JUMPDEST SWAP3 POP POP PUSH1 0xE0 PUSH2 0x527 DUP12 DUP3 DUP13 ADD PUSH2 0x32C JUMP JUMPDEST SWAP2 POP POP SWAP3 SWAP6 SWAP9 POP SWAP3 SWAP6 SWAP9 SWAP1 SWAP4 SWAP7 POP JUMP JUMPDEST PUSH0 DUP2 MLOAD SWAP1 POP SWAP2 SWAP1 POP JUMP JUMPDEST PUSH0 DUP2 SWAP1 POP SWAP3 SWAP2 POP POP JUMP JUMPDEST PUSH0 JUMPDEST DUP4 DUP2 LT ISZERO PUSH2 0x568 JUMPI DUP1 DUP3 ADD MLOAD DUP2 DUP5 ADD MSTORE PUSH1 0x20 DUP2 ADD SWAP1 POP PUSH2 0x54D JUMP JUMPDEST PUSH0 DUP5 DUP5 ADD MSTORE POP POP POP POP JUMP JUMPDEST PUSH0 PUSH2 0x57D DUP3 PUSH2 0x537 JUMP JUMPDEST PUSH2 0x587 DUP2 DUP6 PUSH2 0x541 JUMP JUMPDEST SWAP4 POP PUSH2 0x597 DUP2 DUP6 PUSH1 0x20 DUP7 ADD PUSH2 0x54B JUMP JUMPDEST DUP1 DUP5 ADD SWAP2 POP POP SWAP3 SWAP2 POP POP JUMP JUMPDEST PUSH0 DUP2 SWAP1 POP SWAP2 SWAP1 POP JUMP JUMPDEST PUSH2 0x5BD PUSH2 0x5B8 DUP3 PUSH2 0x30D JUMP JUMPDEST PUSH2 0x5A3 JUMP JUMPDEST DUP3 MSTORE POP POP JUMP JUMPDEST PUSH0 PUSH2 0x5CE DUP3 DUP6 PUSH2 0x573 JUMP JUMPDEST SWAP2 POP PUSH2 0x5DA DUP3 DUP5 PUSH2 0x5AC JUMP JUMPDEST PUSH1 0x20 DUP3 ADD SWAP2 POP DUP2 SWAP1 POP SWAP4 SWAP3 POP POP POP JUMP JUMPDEST PUSH2 0x5F3 DUP2 PUSH2 0x30D JUMP JUMPDEST DUP3 MSTORE POP POP JUMP JUMPDEST PUSH2 0x602 DUP2 PUSH2 0x340 JUMP JUMPDEST DUP3 MSTORE POP POP JUMP JUMPDEST PUSH0 PUSH1 0x80 DUP3 ADD SWAP1 POP PUSH2 0x61B PUSH0 DUP4 ADD DUP8 PUSH2 0x5EA JUMP JUMPDEST PUSH2 0x628 PUSH1 0x20 DUP4 ADD DUP7 PUSH2 0x5F9 JUMP JUMPDEST PUSH2 0x635 PUSH1 0x40 DUP4 ADD DUP6 PUSH2 0x5EA JUMP JUMPDEST PUSH2 0x642 PUSH1 0x60 DUP4 ADD DUP5 PUSH2 0x5EA JUMP JUMPDEST SWAP6 SWAP5 POP POP POP POP POP JUMP JUMPDEST PUSH0 DUP3 DUP3 MSTORE PUSH1 0x20 DUP3 ADD SWAP1 POP SWAP3 SWAP2 POP POP JUMP JUMPDEST PUSH32 0x496E73756666696369656E742062616C616E6365000000000000000000000000 PUSH0 DUP3 ADD MSTORE POP JUMP JUMPDEST PUSH0 PUSH2 0x68F PUSH1 0x14 DUP4 PUSH2 0x64B JUMP JUMPDEST SWAP2 POP PUSH2 0x69A DUP3 PUSH2 0x65B JUMP JUMPDEST PUSH1 0x20 DUP3 ADD SWAP1 POP SWAP2 SWAP1 POP JUMP JUMPDEST PUSH0 PUSH1 0x20 DUP3 ADD SWAP1 POP DUP2 DUP2 SUB PUSH0 DUP4 ADD MSTORE PUSH2 0x6BC DUP2 PUSH2 0x683 JUMP JUMPDEST SWAP1 POP SWAP2 SWAP1 POP JUMP JUMPDEST PUSH32 0x5472616E73666572206661696C65640000000000000000000000000000000000 PUSH0 DUP3 ADD MSTORE POP JUMP JUMPDEST PUSH0 PUSH2 0x6F7 PUSH1 0xF DUP4 PUSH2 0x64B JUMP JUMPDEST SWAP2 POP PUSH2 0x702 DUP3 PUSH2 0x6C3 JUMP JUMPDEST PUSH1 0x20 DUP3 ADD SWAP1 POP SWAP2 SWAP1 POP JUMP JUMPDEST PUSH0 PUSH1 0x20 DUP3 ADD SWAP1 POP DUP2 DUP2 SUB PUSH0 DUP4 ADD MSTORE PUSH2 0x724 DUP2 PUSH2 0x6EB JUMP JUMPDEST SWAP1 POP SWAP2 SWAP1 POP JUMP JUMPDEST PUSH32 0x55736572206E6F7420456C696769626C65210000000000000000000000000000 PUSH0 DUP3 ADD MSTORE POP JUMP JUMPDEST PUSH0 PUSH2 0x75F PUSH1 0x12 DUP4 PUSH2 0x64B JUMP JUMPDEST SWAP2 POP PUSH2 0x76A DUP3 PUSH2 0x72B JUMP JUMPDEST PUSH1 0x20 DUP3 ADD SWAP1 POP SWAP2 SWAP1 POP JUMP JUMPDEST PUSH0 PUSH1 0x20 DUP3 ADD SWAP1 POP DUP2 DUP2 SUB PUSH0 DUP4 ADD MSTORE PUSH2 0x78C DUP2 PUSH2 0x753 JUMP JUMPDEST SWAP1 POP SWAP2 SWAP1 POP JUMP INVALID LOG2 PUSH5 0x6970667358 0x22 SLT KECCAK256 PUSH8 0xD0BC0683AB9D4E5A SWAP2 0x21 0x49 0xC0 CREATE 0xB2 CALLVALUE MOD 0xF9 0xE4 REVERT 0xE1 PUSH24 0x5502BBE6A9DEFC399D3664736F6C63430008160033000000 "
	},
	"abi": [
		{
			"inputs": [],
			"stateMutability": "payable",
			"type": "constructor"
		},
		{
			"inputs": [],
			"name": "addr",
			"outputs": [
				{
					"internalType": "address",
					"name": "",
					"type": "address"
				}
			],
			"stateMutability": "view",
			"type": "function"
		},
		{
			"inputs": [],
			"name": "getBalance",
			"outputs": [
				{
					"internalType": "uint256",
					"name": "",
					"type": "uint256"
				}
			],
			"stateMutability": "view",
			"type": "function"
		},
		{
			"inputs": [
				{
					"internalType": "address",
					"name": "recipient",
					"type": "address"
				},
				{
					"internalType": "uint256",
					"name": "amount",
					"type": "uint256"
				},
				{
					"internalType": "uint256",
					"name": "campaignCount",
					"type": "uint256"
				},
				{
					"internalType": "uint256",
					"name": "shoppingCount",
					"type": "uint256"
				},
				{
					"internalType": "bytes32",
					"name": "_hashedMessage",
					"type": "bytes32"
				},
				{
					"internalType": "uint8",
					"name": "_v",
					"type": "uint8"
				},
				{
					"internalType": "bytes32",
					"name": "_r",
					"type": "bytes32"
				},
				{
					"internalType": "bytes32",
					"name": "_s",
					"type": "bytes32"
				}
			],
			"name": "pay",
			"outputs": [],
			"stateMutability": "payable",
			"type": "function"
		},
		{
			"inputs": [
				{
					"internalType": "bytes32",
					"name": "_hashedMessage",
					"type": "bytes32"
				},
				{
					"internalType": "uint8",
					"name": "_v",
					"type": "uint8"
				},
				{
					"internalType": "bytes32",
					"name": "_r",
					"type": "bytes32"
				},
				{
					"internalType": "bytes32",
					"name": "_s",
					"type": "bytes32"
				}
			],
			"name": "userAuthorized",
			"outputs": [
				{
					"internalType": "address",
					"name": "",
					"type": "address"
				}
			],
			"stateMutability": "pure",
			"type": "function"
		}
	],
	"storageLayout": {
		"storage": [
			{
				"astId": 3,
				"contract": "loyalty.sol:cryptoDorea",
				"label": "_signer",
				"offset": 0,
				"slot": "0",
				"type": "t_address"
			},
			{
				"astId": 5,
				"contract": "loyalty.sol:cryptoDorea",
				"label": "_signatur",
				"offset": 0,
				"slot": "1",
				"type": "t_bytes_storage"
			}
		],
		"types": {
			"t_address": {
				"encoding": "inplace",
				"label": "address",
				"numberOfBytes": "20"
			},
			"t_bytes_storage": {
				"encoding": "bytes",
				"label": "bytes",
				"numberOfBytes": "32"
			}
		}
	},
	"web3Deploy": "var cryptodoreaContract = new web3.eth.Contract([{\"inputs\":[],\"stateMutability\":\"payable\",\"type\":\"constructor\"},{\"inputs\":[],\"name\":\"addr\",\"outputs\":[{\"internalType\":\"address\",\"name\":\"\",\"type\":\"address\"}],\"stateMutability\":\"view\",\"type\":\"function\"},{\"inputs\":[],\"name\":\"getBalance\",\"outputs\":[{\"internalType\":\"uint256\",\"name\":\"\",\"type\":\"uint256\"}],\"stateMutability\":\"view\",\"type\":\"function\"},{\"inputs\":[{\"internalType\":\"address\",\"name\":\"recipient\",\"type\":\"address\"},{\"internalType\":\"uint256\",\"name\":\"amount\",\"type\":\"uint256\"},{\"internalType\":\"uint256\",\"name\":\"campaignCount\",\"type\":\"uint256\"},{\"internalType\":\"uint256\",\"name\":\"shoppingCount\",\"type\":\"uint256\"},{\"internalType\":\"bytes32\",\"name\":\"_hashedMessage\",\"type\":\"bytes32\"},{\"internalType\":\"uint8\",\"name\":\"_v\",\"type\":\"uint8\"},{\"internalType\":\"bytes32\",\"name\":\"_r\",\"type\":\"bytes32\"},{\"internalType\":\"bytes32\",\"name\":\"_s\",\"type\":\"bytes32\"}],\"name\":\"pay\",\"outputs\":[],\"stateMutability\":\"payable\",\"type\":\"function\"},{\"inputs\":[{\"internalType\":\"bytes32\",\"name\":\"_hashedMessage\",\"type\":\"bytes32\"},{\"internalType\":\"uint8\",\"name\":\"_v\",\"type\":\"uint8\"},{\"internalType\":\"bytes32\",\"name\":\"_r\",\"type\":\"bytes32\"},{\"internalType\":\"bytes32\",\"name\":\"_s\",\"type\":\"bytes32\"}],\"name\":\"userAuthorized\",\"outputs\":[{\"internalType\":\"address\",\"name\":\"\",\"type\":\"address\"}],\"stateMutability\":\"pure\",\"type\":\"function\"}]);\nvar cryptodorea = cryptodoreaContract.deploy({\n     data: '0x60806040526107c9806100115f395ff3fe60806040526004361061003e575f3560e01c806312065fe01461004257806338165f701461006c578063767800de146100a8578063c718b168146100d2575b5f80fd5b34801561004d575f80fd5b506100566100ee565b60405161006391906102f0565b60405180910390f35b348015610077575f80fd5b50610092600480360381019061008d9190610376565b6100f5565b60405161009f9190610419565b60405180910390f35b3480156100b3575f80fd5b506100bc6101b8565b6040516100c99190610419565b60405180910390f35b6100ec60048036038101906100e79190610486565b6101bf565b005b5f47905090565b5f806040518060400160405280601c81526020017f19457468657265756d205369676e6564204d6573736167653a0a33320000000081525090505f81876040516020016101439291906105c3565b6040516020818303038152906040528051906020012090505f6001828888886040515f815260200160405260405161017e9493929190610608565b6020604051602081039080840390855afa15801561019e573d5f803e3d5ffd5b505050602060405103519050809350505050949350505050565b5f30905090565b6101cb848484846100f5565b504787111561020f576040517f08c379a0000000000000000000000000000000000000000000000000000000008152600401610206906106a5565b60405180910390fd5b858510610293575f8873ffffffffffffffffffffffffffffffffffffffff166108fc8990811502906040515f60405180830381858888f1935050505090508061028d576040517f08c379a00000000000000000000000000000000000000000000000000000000081526004016102849061070d565b60405180910390fd5b506102ce565b6040517f08c379a00000000000000000000000000000000000000000000000000000000081526004016102c590610775565b60405180910390fd5b5050505050505050565b5f819050919050565b6102ea816102d8565b82525050565b5f6020820190506103035f8301846102e1565b92915050565b5f80fd5b5f819050919050565b61031f8161030d565b8114610329575f80fd5b50565b5f8135905061033a81610316565b92915050565b5f60ff82169050919050565b61035581610340565b811461035f575f80fd5b50565b5f813590506103708161034c565b92915050565b5f805f806080858703121561038e5761038d610309565b5b5f61039b8782880161032c565b94505060206103ac87828801610362565b93505060406103bd8782880161032c565b92505060606103ce8782880161032c565b91505092959194509250565b5f73ffffffffffffffffffffffffffffffffffffffff82169050919050565b5f610403826103da565b9050919050565b610413816103f9565b82525050565b5f60208201905061042c5f83018461040a565b92915050565b61043b816103f9565b8114610445575f80fd5b50565b5f8135905061045681610432565b92915050565b610465816102d8565b811461046f575f80fd5b50565b5f813590506104808161045c565b92915050565b5f805f805f805f80610100898b0312156104a3576104a2610309565b5b5f6104b08b828c01610448565b98505060206104c18b828c01610472565b97505060406104d28b828c01610472565b96505060606104e38b828c01610472565b95505060806104f48b828c0161032c565b94505060a06105058b828c01610362565b93505060c06105168b828c0161032c565b92505060e06105278b828c0161032c565b9150509295985092959890939650565b5f81519050919050565b5f81905092915050565b5f5b8381101561056857808201518184015260208101905061054d565b5f8484015250505050565b5f61057d82610537565b6105878185610541565b935061059781856020860161054b565b80840191505092915050565b5f819050919050565b6105bd6105b88261030d565b6105a3565b82525050565b5f6105ce8285610573565b91506105da82846105ac565b6020820191508190509392505050565b6105f38161030d565b82525050565b61060281610340565b82525050565b5f60808201905061061b5f8301876105ea565b61062860208301866105f9565b61063560408301856105ea565b61064260608301846105ea565b95945050505050565b5f82825260208201905092915050565b7f496e73756666696369656e742062616c616e63650000000000000000000000005f82015250565b5f61068f60148361064b565b915061069a8261065b565b602082019050919050565b5f6020820190508181035f8301526106bc81610683565b9050919050565b7f5472616e73666572206661696c656400000000000000000000000000000000005f82015250565b5f6106f7600f8361064b565b9150610702826106c3565b602082019050919050565b5f6020820190508181035f830152610724816106eb565b9050919050565b7f55736572206e6f7420456c696769626c652100000000000000000000000000005f82015250565b5f61075f60128361064b565b915061076a8261072b565b602082019050919050565b5f6020820190508181035f83015261078c81610753565b905091905056fea264697066735822122067d0bc0683ab9d4e5a912149c0f0b23406f9e4fde1775502bbe6a9defc399d3664736f6c63430008160033', \n     arguments: [\n     ]\n}).send({\n     from: web3.eth.accounts[0], \n     gas: '4700000'\n   }, function (e, contract){\n    console.log(e, contract);\n    if (typeof contract.address !== 'undefined') {\n         console.log('Contract mined! address: ' + contract.address + ' transactionHash: ' + contract.transactionHash);\n    }\n })",
	"functionHashes": {
		"767800de": "addr()",
		"12065fe0": "getBalance()",
		"c718b168": "pay(address,uint256,uint256,uint256,bytes32,uint8,bytes32,bytes32)",
		"38165f70": "userAuthorized(bytes32,uint8,bytes32,bytes32)"
	},
	"gasEstimates": {
		"Creation": {
			"codeDepositCost": "398600",
			"executionCost": "410",
			"totalCost": "399010"
		},
		"External": {
			"addr()": "401",
			"getBalance()": "312",
			"pay(address,uint256,uint256,uint256,bytes32,uint8,bytes32,bytes32)": "infinite",
			"userAuthorized(bytes32,uint8,bytes32,bytes32)": "infinite"
		}
	},
	"devdoc": {
		"kind": "dev",
		"methods": {},
		"version": 1
	},
	"userdoc": {
		"kind": "user",
		"methods": {},
		"version": 1
	},
	"Runtime Bytecode": {
		"immutableReferences": {},
		"linkReferences": {},
		"object": "60806040526004361061003e575f3560e01c806312065fe01461004257806338165f701461006c578063767800de146100a8578063c718b168146100d2575b5f80fd5b34801561004d575f80fd5b506100566100ee565b60405161006391906102f0565b60405180910390f35b348015610077575f80fd5b50610092600480360381019061008d9190610376565b6100f5565b60405161009f9190610419565b60405180910390f35b3480156100b3575f80fd5b506100bc6101b8565b6040516100c99190610419565b60405180910390f35b6100ec60048036038101906100e79190610486565b6101bf565b005b5f47905090565b5f806040518060400160405280601c81526020017f19457468657265756d205369676e6564204d6573736167653a0a33320000000081525090505f81876040516020016101439291906105c3565b6040516020818303038152906040528051906020012090505f6001828888886040515f815260200160405260405161017e9493929190610608565b6020604051602081039080840390855afa15801561019e573d5f803e3d5ffd5b505050602060405103519050809350505050949350505050565b5f30905090565b6101cb848484846100f5565b504787111561020f576040517f08c379a0000000000000000000000000000000000000000000000000000000008152600401610206906106a5565b60405180910390fd5b858510610293575f8873ffffffffffffffffffffffffffffffffffffffff166108fc8990811502906040515f60405180830381858888f1935050505090508061028d576040517f08c379a00000000000000000000000000000000000000000000000000000000081526004016102849061070d565b60405180910390fd5b506102ce565b6040517f08c379a00000000000000000000000000000000000000000000000000000000081526004016102c590610775565b60405180910390fd5b5050505050505050565b5f819050919050565b6102ea816102d8565b82525050565b5f6020820190506103035f8301846102e1565b92915050565b5f80fd5b5f819050919050565b61031f8161030d565b8114610329575f80fd5b50565b5f8135905061033a81610316565b92915050565b5f60ff82169050919050565b61035581610340565b811461035f575f80fd5b50565b5f813590506103708161034c565b92915050565b5f805f806080858703121561038e5761038d610309565b5b5f61039b8782880161032c565b94505060206103ac87828801610362565b93505060406103bd8782880161032c565b92505060606103ce8782880161032c565b91505092959194509250565b5f73ffffffffffffffffffffffffffffffffffffffff82169050919050565b5f610403826103da565b9050919050565b610413816103f9565b82525050565b5f60208201905061042c5f83018461040a565b92915050565b61043b816103f9565b8114610445575f80fd5b50565b5f8135905061045681610432565b92915050565b610465816102d8565b811461046f575f80fd5b50565b5f813590506104808161045c565b92915050565b5f805f805f805f80610100898b0312156104a3576104a2610309565b5b5f6104b08b828c01610448565b98505060206104c18b828c01610472565b97505060406104d28b828c01610472565b96505060606104e38b828c01610472565b95505060806104f48b828c0161032c565b94505060a06105058b828c01610362565b93505060c06105168b828c0161032c565b92505060e06105278b828c0161032c565b9150509295985092959890939650565b5f81519050919050565b5f81905092915050565b5f5b8381101561056857808201518184015260208101905061054d565b5f8484015250505050565b5f61057d82610537565b6105878185610541565b935061059781856020860161054b565b80840191505092915050565b5f819050919050565b6105bd6105b88261030d565b6105a3565b82525050565b5f6105ce8285610573565b91506105da82846105ac565b6020820191508190509392505050565b6105f38161030d565b82525050565b61060281610340565b82525050565b5f60808201905061061b5f8301876105ea565b61062860208301866105f9565b61063560408301856105ea565b61064260608301846105ea565b95945050505050565b5f82825260208201905092915050565b7f496e73756666696369656e742062616c616e63650000000000000000000000005f82015250565b5f61068f60148361064b565b915061069a8261065b565b602082019050919050565b5f6020820190508181035f8301526106bc81610683565b9050919050565b7f5472616e73666572206661696c656400000000000000000000000000000000005f82015250565b5f6106f7600f8361064b565b9150610702826106c3565b602082019050919050565b5f6020820190508181035f830152610724816106eb565b9050919050565b7f55736572206e6f7420456c696769626c652100000000000000000000000000005f82015250565b5f61075f60128361064b565b915061076a8261072b565b602082019050919050565b5f6020820190508181035f83015261078c81610753565b905091905056fea264697066735822122067d0bc0683ab9d4e5a912149c0f0b23406f9e4fde1775502bbe6a9defc399d3664736f6c63430008160033",
		"opcodes": "PUSH1 0x80 PUSH1 0x40 MSTORE PUSH1 0x4 CALLDATASIZE LT PUSH2 0x3E JUMPI PUSH0 CALLDATALOAD PUSH1 0xE0 SHR DUP1 PUSH4 0x12065FE0 EQ PUSH2 0x42 JUMPI DUP1 PUSH4 0x38165F70 EQ PUSH2 0x6C JUMPI DUP1 PUSH4 0x767800DE EQ PUSH2 0xA8 JUMPI DUP1 PUSH4 0xC718B168 EQ PUSH2 0xD2 JUMPI JUMPDEST PUSH0 DUP1 REVERT JUMPDEST CALLVALUE DUP1 ISZERO PUSH2 0x4D JUMPI PUSH0 DUP1 REVERT JUMPDEST POP PUSH2 0x56 PUSH2 0xEE JUMP JUMPDEST PUSH1 0x40 MLOAD PUSH2 0x63 SWAP2 SWAP1 PUSH2 0x2F0 JUMP JUMPDEST PUSH1 0x40 MLOAD DUP1 SWAP2 SUB SWAP1 RETURN JUMPDEST CALLVALUE DUP1 ISZERO PUSH2 0x77 JUMPI PUSH0 DUP1 REVERT JUMPDEST POP PUSH2 0x92 PUSH1 0x4 DUP1 CALLDATASIZE SUB DUP2 ADD SWAP1 PUSH2 0x8D SWAP2 SWAP1 PUSH2 0x376 JUMP JUMPDEST PUSH2 0xF5 JUMP JUMPDEST PUSH1 0x40 MLOAD PUSH2 0x9F SWAP2 SWAP1 PUSH2 0x419 JUMP JUMPDEST PUSH1 0x40 MLOAD DUP1 SWAP2 SUB SWAP1 RETURN JUMPDEST CALLVALUE DUP1 ISZERO PUSH2 0xB3 JUMPI PUSH0 DUP1 REVERT JUMPDEST POP PUSH2 0xBC PUSH2 0x1B8 JUMP JUMPDEST PUSH1 0x40 MLOAD PUSH2 0xC9 SWAP2 SWAP1 PUSH2 0x419 JUMP JUMPDEST PUSH1 0x40 MLOAD DUP1 SWAP2 SUB SWAP1 RETURN JUMPDEST PUSH2 0xEC PUSH1 0x4 DUP1 CALLDATASIZE SUB DUP2 ADD SWAP1 PUSH2 0xE7 SWAP2 SWAP1 PUSH2 0x486 JUMP JUMPDEST PUSH2 0x1BF JUMP JUMPDEST STOP JUMPDEST PUSH0 SELFBALANCE SWAP1 POP SWAP1 JUMP JUMPDEST PUSH0 DUP1 PUSH1 0x40 MLOAD DUP1 PUSH1 0x40 ADD PUSH1 0x40 MSTORE DUP1 PUSH1 0x1C DUP2 MSTORE PUSH1 0x20 ADD PUSH32 0x19457468657265756D205369676E6564204D6573736167653A0A333200000000 DUP2 MSTORE POP SWAP1 POP PUSH0 DUP2 DUP8 PUSH1 0x40 MLOAD PUSH1 0x20 ADD PUSH2 0x143 SWAP3 SWAP2 SWAP1 PUSH2 0x5C3 JUMP JUMPDEST PUSH1 0x40 MLOAD PUSH1 0x20 DUP2 DUP4 SUB SUB DUP2 MSTORE SWAP1 PUSH1 0x40 MSTORE DUP1 MLOAD SWAP1 PUSH1 0x20 ADD KECCAK256 SWAP1 POP PUSH0 PUSH1 0x1 DUP3 DUP9 DUP9 DUP9 PUSH1 0x40 MLOAD PUSH0 DUP2 MSTORE PUSH1 0x20 ADD PUSH1 0x40 MSTORE PUSH1 0x40 MLOAD PUSH2 0x17E SWAP5 SWAP4 SWAP3 SWAP2 SWAP1 PUSH2 0x608 JUMP JUMPDEST PUSH1 0x20 PUSH1 0x40 MLOAD PUSH1 0x20 DUP2 SUB SWAP1 DUP1 DUP5 SUB SWAP1 DUP6 GAS STATICCALL ISZERO DUP1 ISZERO PUSH2 0x19E JUMPI RETURNDATASIZE PUSH0 DUP1 RETURNDATACOPY RETURNDATASIZE PUSH0 REVERT JUMPDEST POP POP POP PUSH1 0x20 PUSH1 0x40 MLOAD SUB MLOAD SWAP1 POP DUP1 SWAP4 POP POP POP POP SWAP5 SWAP4 POP POP POP POP JUMP JUMPDEST PUSH0 ADDRESS SWAP1 POP SWAP1 JUMP JUMPDEST PUSH2 0x1CB DUP5 DUP5 DUP5 DUP5 PUSH2 0xF5 JUMP JUMPDEST POP SELFBALANCE DUP8 GT ISZERO PUSH2 0x20F JUMPI PUSH1 0x40 MLOAD PUSH32 0x8C379A000000000000000000000000000000000000000000000000000000000 DUP2 MSTORE PUSH1 0x4 ADD PUSH2 0x206 SWAP1 PUSH2 0x6A5 JUMP JUMPDEST PUSH1 0x40 MLOAD DUP1 SWAP2 SUB SWAP1 REVERT JUMPDEST DUP6 DUP6 LT PUSH2 0x293 JUMPI PUSH0 DUP9 PUSH20 0xFFFFFFFFFFFFFFFFFFFFFFFFFFFFFFFFFFFFFFFF AND PUSH2 0x8FC DUP10 SWAP1 DUP2 ISZERO MUL SWAP1 PUSH1 0x40 MLOAD PUSH0 PUSH1 0x40 MLOAD DUP1 DUP4 SUB DUP2 DUP6 DUP9 DUP9 CALL SWAP4 POP POP POP POP SWAP1 POP DUP1 PUSH2 0x28D JUMPI PUSH1 0x40 MLOAD PUSH32 0x8C379A000000000000000000000000000000000000000000000000000000000 DUP2 MSTORE PUSH1 0x4 ADD PUSH2 0x284 SWAP1 PUSH2 0x70D JUMP JUMPDEST PUSH1 0x40 MLOAD DUP1 SWAP2 SUB SWAP1 REVERT JUMPDEST POP PUSH2 0x2CE JUMP JUMPDEST PUSH1 0x40 MLOAD PUSH32 0x8C379A000000000000000000000000000000000000000000000000000000000 DUP2 MSTORE PUSH1 0x4 ADD PUSH2 0x2C5 SWAP1 PUSH2 0x775 JUMP JUMPDEST PUSH1 0x40 MLOAD DUP1 SWAP2 SUB SWAP1 REVERT JUMPDEST POP POP POP POP POP POP POP POP JUMP JUMPDEST PUSH0 DUP2 SWAP1 POP SWAP2 SWAP1 POP JUMP JUMPDEST PUSH2 0x2EA DUP2 PUSH2 0x2D8 JUMP JUMPDEST DUP3 MSTORE POP POP JUMP JUMPDEST PUSH0 PUSH1 0x20 DUP3 ADD SWAP1 POP PUSH2 0x303 PUSH0 DUP4 ADD DUP5 PUSH2 0x2E1 JUMP JUMPDEST SWAP3 SWAP2 POP POP JUMP JUMPDEST PUSH0 DUP1 REVERT JUMPDEST PUSH0 DUP2 SWAP1 POP SWAP2 SWAP1 POP JUMP JUMPDEST PUSH2 0x31F DUP2 PUSH2 0x30D JUMP JUMPDEST DUP2 EQ PUSH2 0x329 JUMPI PUSH0 DUP1 REVERT JUMPDEST POP JUMP JUMPDEST PUSH0 DUP2 CALLDATALOAD SWAP1 POP PUSH2 0x33A DUP2 PUSH2 0x316 JUMP JUMPDEST SWAP3 SWAP2 POP POP JUMP JUMPDEST PUSH0 PUSH1 0xFF DUP3 AND SWAP1 POP SWAP2 SWAP1 POP JUMP JUMPDEST PUSH2 0x355 DUP2 PUSH2 0x340 JUMP JUMPDEST DUP2 EQ PUSH2 0x35F JUMPI PUSH0 DUP1 REVERT JUMPDEST POP JUMP JUMPDEST PUSH0 DUP2 CALLDATALOAD SWAP1 POP PUSH2 0x370 DUP2 PUSH2 0x34C JUMP JUMPDEST SWAP3 SWAP2 POP POP JUMP JUMPDEST PUSH0 DUP1 PUSH0 DUP1 PUSH1 0x80 DUP6 DUP8 SUB SLT ISZERO PUSH2 0x38E JUMPI PUSH2 0x38D PUSH2 0x309 JUMP JUMPDEST JUMPDEST PUSH0 PUSH2 0x39B DUP8 DUP3 DUP9 ADD PUSH2 0x32C JUMP JUMPDEST SWAP5 POP POP PUSH1 0x20 PUSH2 0x3AC DUP8 DUP3 DUP9 ADD PUSH2 0x362 JUMP JUMPDEST SWAP4 POP POP PUSH1 0x40 PUSH2 0x3BD DUP8 DUP3 DUP9 ADD PUSH2 0x32C JUMP JUMPDEST SWAP3 POP POP PUSH1 0x60 PUSH2 0x3CE DUP8 DUP3 DUP9 ADD PUSH2 0x32C JUMP JUMPDEST SWAP2 POP POP SWAP3 SWAP6 SWAP2 SWAP5 POP SWAP3 POP JUMP JUMPDEST PUSH0 PUSH20 0xFFFFFFFFFFFFFFFFFFFFFFFFFFFFFFFFFFFFFFFF DUP3 AND SWAP1 POP SWAP2 SWAP1 POP JUMP JUMPDEST PUSH0 PUSH2 0x403 DUP3 PUSH2 0x3DA JUMP JUMPDEST SWAP1 POP SWAP2 SWAP1 POP JUMP JUMPDEST PUSH2 0x413 DUP2 PUSH2 0x3F9 JUMP JUMPDEST DUP3 MSTORE POP POP JUMP JUMPDEST PUSH0 PUSH1 0x20 DUP3 ADD SWAP1 POP PUSH2 0x42C PUSH0 DUP4 ADD DUP5 PUSH2 0x40A JUMP JUMPDEST SWAP3 SWAP2 POP POP JUMP JUMPDEST PUSH2 0x43B DUP2 PUSH2 0x3F9 JUMP JUMPDEST DUP2 EQ PUSH2 0x445 JUMPI PUSH0 DUP1 REVERT JUMPDEST POP JUMP JUMPDEST PUSH0 DUP2 CALLDATALOAD SWAP1 POP PUSH2 0x456 DUP2 PUSH2 0x432 JUMP JUMPDEST SWAP3 SWAP2 POP POP JUMP JUMPDEST PUSH2 0x465 DUP2 PUSH2 0x2D8 JUMP JUMPDEST DUP2 EQ PUSH2 0x46F JUMPI PUSH0 DUP1 REVERT JUMPDEST POP JUMP JUMPDEST PUSH0 DUP2 CALLDATALOAD SWAP1 POP PUSH2 0x480 DUP2 PUSH2 0x45C JUMP JUMPDEST SWAP3 SWAP2 POP POP JUMP JUMPDEST PUSH0 DUP1 PUSH0 DUP1 PUSH0 DUP1 PUSH0 DUP1 PUSH2 0x100 DUP10 DUP12 SUB SLT ISZERO PUSH2 0x4A3 JUMPI PUSH2 0x4A2 PUSH2 0x309 JUMP JUMPDEST JUMPDEST PUSH0 PUSH2 0x4B0 DUP12 DUP3 DUP13 ADD PUSH2 0x448 JUMP JUMPDEST SWAP9 POP POP PUSH1 0x20 PUSH2 0x4C1 DUP12 DUP3 DUP13 ADD PUSH2 0x472 JUMP JUMPDEST SWAP8 POP POP PUSH1 0x40 PUSH2 0x4D2 DUP12 DUP3 DUP13 ADD PUSH2 0x472 JUMP JUMPDEST SWAP7 POP POP PUSH1 0x60 PUSH2 0x4E3 DUP12 DUP3 DUP13 ADD PUSH2 0x472 JUMP JUMPDEST SWAP6 POP POP PUSH1 0x80 PUSH2 0x4F4 DUP12 DUP3 DUP13 ADD PUSH2 0x32C JUMP JUMPDEST SWAP5 POP POP PUSH1 0xA0 PUSH2 0x505 DUP12 DUP3 DUP13 ADD PUSH2 0x362 JUMP JUMPDEST SWAP4 POP POP PUSH1 0xC0 PUSH2 0x516 DUP12 DUP3 DUP13 ADD PUSH2 0x32C JUMP JUMPDEST SWAP3 POP POP PUSH1 0xE0 PUSH2 0x527 DUP12 DUP3 DUP13 ADD PUSH2 0x32C JUMP JUMPDEST SWAP2 POP POP SWAP3 SWAP6 SWAP9 POP SWAP3 SWAP6 SWAP9 SWAP1 SWAP4 SWAP7 POP JUMP JUMPDEST PUSH0 DUP2 MLOAD SWAP1 POP SWAP2 SWAP1 POP JUMP JUMPDEST PUSH0 DUP2 SWAP1 POP SWAP3 SWAP2 POP POP JUMP JUMPDEST PUSH0 JUMPDEST DUP4 DUP2 LT ISZERO PUSH2 0x568 JUMPI DUP1 DUP3 ADD MLOAD DUP2 DUP5 ADD MSTORE PUSH1 0x20 DUP2 ADD SWAP1 POP PUSH2 0x54D JUMP JUMPDEST PUSH0 DUP5 DUP5 ADD MSTORE POP POP POP POP JUMP JUMPDEST PUSH0 PUSH2 0x57D DUP3 PUSH2 0x537 JUMP JUMPDEST PUSH2 0x587 DUP2 DUP6 PUSH2 0x541 JUMP JUMPDEST SWAP4 POP PUSH2 0x597 DUP2 DUP6 PUSH1 0x20 DUP7 ADD PUSH2 0x54B JUMP JUMPDEST DUP1 DUP5 ADD SWAP2 POP POP SWAP3 SWAP2 POP POP JUMP JUMPDEST PUSH0 DUP2 SWAP1 POP SWAP2 SWAP1 POP JUMP JUMPDEST PUSH2 0x5BD PUSH2 0x5B8 DUP3 PUSH2 0x30D JUMP JUMPDEST PUSH2 0x5A3 JUMP JUMPDEST DUP3 MSTORE POP POP JUMP JUMPDEST PUSH0 PUSH2 0x5CE DUP3 DUP6 PUSH2 0x573 JUMP JUMPDEST SWAP2 POP PUSH2 0x5DA DUP3 DUP5 PUSH2 0x5AC JUMP JUMPDEST PUSH1 0x20 DUP3 ADD SWAP2 POP DUP2 SWAP1 POP SWAP4 SWAP3 POP POP POP JUMP JUMPDEST PUSH2 0x5F3 DUP2 PUSH2 0x30D JUMP JUMPDEST DUP3 MSTORE POP POP JUMP JUMPDEST PUSH2 0x602 DUP2 PUSH2 0x340 JUMP JUMPDEST DUP3 MSTORE POP POP JUMP JUMPDEST PUSH0 PUSH1 0x80 DUP3 ADD SWAP1 POP PUSH2 0x61B PUSH0 DUP4 ADD DUP8 PUSH2 0x5EA JUMP JUMPDEST PUSH2 0x628 PUSH1 0x20 DUP4 ADD DUP7 PUSH2 0x5F9 JUMP JUMPDEST PUSH2 0x635 PUSH1 0x40 DUP4 ADD DUP6 PUSH2 0x5EA JUMP JUMPDEST PUSH2 0x642 PUSH1 0x60 DUP4 ADD DUP5 PUSH2 0x5EA JUMP JUMPDEST SWAP6 SWAP5 POP POP POP POP POP JUMP JUMPDEST PUSH0 DUP3 DUP3 MSTORE PUSH1 0x20 DUP3 ADD SWAP1 POP SWAP3 SWAP2 POP POP JUMP JUMPDEST PUSH32 0x496E73756666696369656E742062616C616E6365000000000000000000000000 PUSH0 DUP3 ADD MSTORE POP JUMP JUMPDEST PUSH0 PUSH2 0x68F PUSH1 0x14 DUP4 PUSH2 0x64B JUMP JUMPDEST SWAP2 POP PUSH2 0x69A DUP3 PUSH2 0x65B JUMP JUMPDEST PUSH1 0x20 DUP3 ADD SWAP1 POP SWAP2 SWAP1 POP JUMP JUMPDEST PUSH0 PUSH1 0x20 DUP3 ADD SWAP1 POP DUP2 DUP2 SUB PUSH0 DUP4 ADD MSTORE PUSH2 0x6BC DUP2 PUSH2 0x683 JUMP JUMPDEST SWAP1 POP SWAP2 SWAP1 POP JUMP JUMPDEST PUSH32 0x5472616E73666572206661696C65640000000000000000000000000000000000 PUSH0 DUP3 ADD MSTORE POP JUMP JUMPDEST PUSH0 PUSH2 0x6F7 PUSH1 0xF DUP4 PUSH2 0x64B JUMP JUMPDEST SWAP2 POP PUSH2 0x702 DUP3 PUSH2 0x6C3 JUMP JUMPDEST PUSH1 0x20 DUP3 ADD SWAP1 POP SWAP2 SWAP1 POP JUMP JUMPDEST PUSH0 PUSH1 0x20 DUP3 ADD SWAP1 POP DUP2 DUP2 SUB PUSH0 DUP4 ADD MSTORE PUSH2 0x724 DUP2 PUSH2 0x6EB JUMP JUMPDEST SWAP1 POP SWAP2 SWAP1 POP JUMP JUMPDEST PUSH32 0x55736572206E6F7420456C696769626C65210000000000000000000000000000 PUSH0 DUP3 ADD MSTORE POP JUMP JUMPDEST PUSH0 PUSH2 0x75F PUSH1 0x12 DUP4 PUSH2 0x64B JUMP JUMPDEST SWAP2 POP PUSH2 0x76A DUP3 PUSH2 0x72B JUMP JUMPDEST PUSH1 0x20 DUP3 ADD SWAP1 POP SWAP2 SWAP1 POP JUMP JUMPDEST PUSH0 PUSH1 0x20 DUP3 ADD SWAP1 POP DUP2 DUP2 SUB PUSH0 DUP4 ADD MSTORE PUSH2 0x78C DUP2 PUSH2 0x753 JUMP JUMPDEST SWAP1 POP SWAP2 SWAP1 POP JUMP INVALID LOG2 PUSH5 0x6970667358 0x22 SLT KECCAK256 PUSH8 0xD0BC0683AB9D4E5A SWAP2 0x21 0x49 0xC0 CREATE 0xB2 CALLVALUE MOD 0xF9 0xE4 REVERT 0xE1 PUSH24 0x5502BBE6A9DEFC399D3664736F6C63430008160033000000 "
	},
	"Assembly": ".code\n  PUSH 80\t\t\tcontract cryptoDorea {\\r\\n\\r\\n...\n  PUSH 40\t\t\tcontract cryptoDorea {\\r\\n\\r\\n...\n  MSTORE \t\t\tcontract cryptoDorea {\\r\\n\\r\\n...\n  PUSH #[$] 0000000000000000000000000000000000000000000000000000000000000000\t\t\tcontract cryptoDorea {\\r\\n\\r\\n...\n  DUP1 \t\t\tcontract cryptoDorea {\\r\\n\\r\\n...\n  PUSH [$] 0000000000000000000000000000000000000000000000000000000000000000\t\t\tcontract cryptoDorea {\\r\\n\\r\\n...\n  PUSH 0\t\t\tcontract cryptoDorea {\\r\\n\\r\\n...\n  CODECOPY \t\t\tcontract cryptoDorea {\\r\\n\\r\\n...\n  PUSH 0\t\t\tcontract cryptoDorea {\\r\\n\\r\\n...\n  RETURN \t\t\tcontract cryptoDorea {\\r\\n\\r\\n...\n.data\n  0:\n    .code\n      PUSH 80\t\t\tcontract cryptoDorea {\\r\\n\\r\\n...\n      PUSH 40\t\t\tcontract cryptoDorea {\\r\\n\\r\\n...\n      MSTORE \t\t\tcontract cryptoDorea {\\r\\n\\r\\n...\n      PUSH 4\t\t\tcontract cryptoDorea {\\r\\n\\r\\n...\n      CALLDATASIZE \t\t\tcontract cryptoDorea {\\r\\n\\r\\n...\n      LT \t\t\tcontract cryptoDorea {\\r\\n\\r\\n...\n      PUSH [tag] 1\t\t\tcontract cryptoDorea {\\r\\n\\r\\n...\n      JUMPI \t\t\tcontract cryptoDorea {\\r\\n\\r\\n...\n      PUSH 0\t\t\tcontract cryptoDorea {\\r\\n\\r\\n...\n      CALLDATALOAD \t\t\tcontract cryptoDorea {\\r\\n\\r\\n...\n      PUSH E0\t\t\tcontract cryptoDorea {\\r\\n\\r\\n...\n      SHR \t\t\tcontract cryptoDorea {\\r\\n\\r\\n...\n      DUP1 \t\t\tcontract cryptoDorea {\\r\\n\\r\\n...\n      PUSH 12065FE0\t\t\tcontract cryptoDorea {\\r\\n\\r\\n...\n      EQ \t\t\tcontract cryptoDorea {\\r\\n\\r\\n...\n      PUSH [tag] 2\t\t\tcontract cryptoDorea {\\r\\n\\r\\n...\n      JUMPI \t\t\tcontract cryptoDorea {\\r\\n\\r\\n...\n      DUP1 \t\t\tcontract cryptoDorea {\\r\\n\\r\\n...\n      PUSH 38165F70\t\t\tcontract cryptoDorea {\\r\\n\\r\\n...\n      EQ \t\t\tcontract cryptoDorea {\\r\\n\\r\\n...\n      PUSH [tag] 3\t\t\tcontract cryptoDorea {\\r\\n\\r\\n...\n      JUMPI \t\t\tcontract cryptoDorea {\\r\\n\\r\\n...\n      DUP1 \t\t\tcontract cryptoDorea {\\r\\n\\r\\n...\n      PUSH 767800DE\t\t\tcontract cryptoDorea {\\r\\n\\r\\n...\n      EQ \t\t\tcontract cryptoDorea {\\r\\n\\r\\n...\n      PUSH [tag] 4\t\t\tcontract cryptoDorea {\\r\\n\\r\\n...\n      JUMPI \t\t\tcontract cryptoDorea {\\r\\n\\r\\n...\n      DUP1 \t\t\tcontract cryptoDorea {\\r\\n\\r\\n...\n      PUSH C718B168\t\t\tcontract cryptoDorea {\\r\\n\\r\\n...\n      EQ \t\t\tcontract cryptoDorea {\\r\\n\\r\\n...\n      PUSH [tag] 5\t\t\tcontract cryptoDorea {\\r\\n\\r\\n...\n      JUMPI \t\t\tcontract cryptoDorea {\\r\\n\\r\\n...\n    tag 1\t\t\tcontract cryptoDorea {\\r\\n\\r\\n...\n      JUMPDEST \t\t\tcontract cryptoDorea {\\r\\n\\r\\n...\n      PUSH 0\t\t\tcontract cryptoDorea {\\r\\n\\r\\n...\n      DUP1 \t\t\tcontract cryptoDorea {\\r\\n\\r\\n...\n      REVERT \t\t\tcontract cryptoDorea {\\r\\n\\r\\n...\n    tag 2\t\t\tfunction getBalance() public v...\n      JUMPDEST \t\t\tfunction getBalance() public v...\n      CALLVALUE \t\t\tfunction getBalance() public v...\n      DUP1 \t\t\tfunction getBalance() public v...\n      ISZERO \t\t\tfunction getBalance() public v...\n      PUSH [tag] 6\t\t\tfunction getBalance() public v...\n      JUMPI \t\t\tfunction getBalance() public v...\n      PUSH 0\t\t\tfunction getBalance() public v...\n      DUP1 \t\t\tfunction getBalance() public v...\n      REVERT \t\t\tfunction getBalance() public v...\n    tag 6\t\t\tfunction getBalance() public v...\n      JUMPDEST \t\t\tfunction getBalance() public v...\n      POP \t\t\tfunction getBalance() public v...\n      PUSH [tag] 7\t\t\tfunction getBalance() public v...\n      PUSH [tag] 8\t\t\tfunction getBalance() public v...\n      JUMP \t\t\tfunction getBalance() public v...\n    tag 7\t\t\tfunction getBalance() public v...\n      JUMPDEST \t\t\tfunction getBalance() public v...\n      PUSH 40\t\t\tfunction getBalance() public v...\n      MLOAD \t\t\tfunction getBalance() public v...\n      PUSH [tag] 9\t\t\tfunction getBalance() public v...\n      SWAP2 \t\t\tfunction getBalance() public v...\n      SWAP1 \t\t\tfunction getBalance() public v...\n      PUSH [tag] 10\t\t\tfunction getBalance() public v...\n      JUMP \t\t\tfunction getBalance() public v...\n    tag 9\t\t\tfunction getBalance() public v...\n      JUMPDEST \t\t\tfunction getBalance() public v...\n      PUSH 40\t\t\tfunction getBalance() public v...\n      MLOAD \t\t\tfunction getBalance() public v...\n      DUP1 \t\t\tfunction getBalance() public v...\n      SWAP2 \t\t\tfunction getBalance() public v...\n      SUB \t\t\tfunction getBalance() public v...\n      SWAP1 \t\t\tfunction getBalance() public v...\n      RETURN \t\t\tfunction getBalance() public v...\n    tag 3\t\t\tfunction userAuthorized(bytes3...\n      JUMPDEST \t\t\tfunction userAuthorized(bytes3...\n      CALLVALUE \t\t\tfunction userAuthorized(bytes3...\n      DUP1 \t\t\tfunction userAuthorized(bytes3...\n      ISZERO \t\t\tfunction userAuthorized(bytes3...\n      PUSH [tag] 11\t\t\tfunction userAuthorized(bytes3...\n      JUMPI \t\t\tfunction userAuthorized(bytes3...\n      PUSH 0\t\t\tfunction userAuthorized(bytes3...\n      DUP1 \t\t\tfunction userAuthorized(bytes3...\n      REVERT \t\t\tfunction userAuthorized(bytes3...\n    tag 11\t\t\tfunction userAuthorized(bytes3...\n      JUMPDEST \t\t\tfunction userAuthorized(bytes3...\n      POP \t\t\tfunction userAuthorized(bytes3...\n      PUSH [tag] 12\t\t\tfunction userAuthorized(bytes3...\n      PUSH 4\t\t\tfunction userAuthorized(bytes3...\n      DUP1 \t\t\tfunction userAuthorized(bytes3...\n      CALLDATASIZE \t\t\tfunction userAuthorized(bytes3...\n      SUB \t\t\tfunction userAuthorized(bytes3...\n      DUP2 \t\t\tfunction userAuthorized(bytes3...\n      ADD \t\t\tfunction userAuthorized(bytes3...\n      SWAP1 \t\t\tfunction userAuthorized(bytes3...\n      PUSH [tag] 13\t\t\tfunction userAuthorized(bytes3...\n      SWAP2 \t\t\tfunction userAuthorized(bytes3...\n      SWAP1 \t\t\tfunction userAuthorized(bytes3...\n      PUSH [tag] 14\t\t\tfunction userAuthorized(bytes3...\n      JUMP \t\t\tfunction userAuthorized(bytes3...\n    tag 13\t\t\tfunction userAuthorized(bytes3...\n      JUMPDEST \t\t\tfunction userAuthorized(bytes3...\n      PUSH [tag] 15\t\t\tfunction userAuthorized(bytes3...\n      JUMP \t\t\tfunction userAuthorized(bytes3...\n    tag 12\t\t\tfunction userAuthorized(bytes3...\n      JUMPDEST \t\t\tfunction userAuthorized(bytes3...\n      PUSH 40\t\t\tfunction userAuthorized(bytes3...\n      MLOAD \t\t\tfunction userAuthorized(bytes3...\n      PUSH [tag] 16\t\t\tfunction userAuthorized(bytes3...\n      SWAP2 \t\t\tfunction userAuthorized(bytes3...\n      SWAP1 \t\t\tfunction userAuthorized(bytes3...\n      PUSH [tag] 17\t\t\tfunction userAuthorized(bytes3...\n      JUMP \t\t\tfunction userAuthorized(bytes3...\n    tag 16\t\t\tfunction userAuthorized(bytes3...\n      JUMPDEST \t\t\tfunction userAuthorized(bytes3...\n      PUSH 40\t\t\tfunction userAuthorized(bytes3...\n      MLOAD \t\t\tfunction userAuthorized(bytes3...\n      DUP1 \t\t\tfunction userAuthorized(bytes3...\n      SWAP2 \t\t\tfunction userAuthorized(bytes3...\n      SUB \t\t\tfunction userAuthorized(bytes3...\n      SWAP1 \t\t\tfunction userAuthorized(bytes3...\n      RETURN \t\t\tfunction userAuthorized(bytes3...\n    tag 4\t\t\tfunction addr() public view re...\n      JUMPDEST \t\t\tfunction addr() public view re...\n      CALLVALUE \t\t\tfunction addr() public view re...\n      DUP1 \t\t\tfunction addr() public view re...\n      ISZERO \t\t\tfunction addr() public view re...\n      PUSH [tag] 18\t\t\tfunction addr() public view re...\n      JUMPI \t\t\tfunction addr() public view re...\n      PUSH 0\t\t\tfunction addr() public view re...\n      DUP1 \t\t\tfunction addr() public view re...\n      REVERT \t\t\tfunction addr() public view re...\n    tag 18\t\t\tfunction addr() public view re...\n      JUMPDEST \t\t\tfunction addr() public view re...\n      POP \t\t\tfunction addr() public view re...\n      PUSH [tag] 19\t\t\tfunction addr() public view re...\n      PUSH [tag] 20\t\t\tfunction addr() public view re...\n      JUMP \t\t\tfunction addr() public view re...\n    tag 19\t\t\tfunction addr() public view re...\n      JUMPDEST \t\t\tfunction addr() public view re...\n      PUSH 40\t\t\tfunction addr() public view re...\n      MLOAD \t\t\tfunction addr() public view re...\n      PUSH [tag] 21\t\t\tfunction addr() public view re...\n      SWAP2 \t\t\tfunction addr() public view re...\n      SWAP1 \t\t\tfunction addr() public view re...\n      PUSH [tag] 17\t\t\tfunction addr() public view re...\n      JUMP \t\t\tfunction addr() public view re...\n    tag 21\t\t\tfunction addr() public view re...\n      JUMPDEST \t\t\tfunction addr() public view re...\n      PUSH 40\t\t\tfunction addr() public view re...\n      MLOAD \t\t\tfunction addr() public view re...\n      DUP1 \t\t\tfunction addr() public view re...\n      SWAP2 \t\t\tfunction addr() public view re...\n      SUB \t\t\tfunction addr() public view re...\n      SWAP1 \t\t\tfunction addr() public view re...\n      RETURN \t\t\tfunction addr() public view re...\n    tag 5\t\t\tfunction pay(address recipient...\n      JUMPDEST \t\t\tfunction pay(address recipient...\n      PUSH [tag] 22\t\t\tfunction pay(address recipient...\n      PUSH 4\t\t\tfunction pay(address recipient...\n      DUP1 \t\t\tfunction pay(address recipient...\n      CALLDATASIZE \t\t\tfunction pay(address recipient...\n      SUB \t\t\tfunction pay(address recipient...\n      DUP2 \t\t\tfunction pay(address recipient...\n      ADD \t\t\tfunction pay(address recipient...\n      SWAP1 \t\t\tfunction pay(address recipient...\n      PUSH [tag] 23\t\t\tfunction pay(address recipient...\n      SWAP2 \t\t\tfunction pay(address recipient...\n      SWAP1 \t\t\tfunction pay(address recipient...\n      PUSH [tag] 24\t\t\tfunction pay(address recipient...\n      JUMP \t\t\tfunction pay(address recipient...\n    tag 23\t\t\tfunction pay(address recipient...\n      JUMPDEST \t\t\tfunction pay(address recipient...\n      PUSH [tag] 25\t\t\tfunction pay(address recipient...\n      JUMP \t\t\tfunction pay(address recipient...\n    tag 22\t\t\tfunction pay(address recipient...\n      JUMPDEST \t\t\tfunction pay(address recipient...\n      STOP \t\t\tfunction pay(address recipient...\n    tag 8\t\t\tfunction getBalance() public v...\n      JUMPDEST \t\t\tfunction getBalance() public v...\n      PUSH 0\t\t\tuint256\n      SELFBALANCE \t\t\taddress(this).balance\n      SWAP1 \t\t\treturn address(this).balance\n      POP \t\t\treturn address(this).balance\n      SWAP1 \t\t\tfunction getBalance() public v...\n      JUMP \t\t\tfunction getBalance() public v...\n    tag 15\t\t\tfunction userAuthorized(bytes3...\n      JUMPDEST \t\t\tfunction userAuthorized(bytes3...\n      PUSH 0\t\t\taddress\n      DUP1 \t\t\tbytes memory prefix\n      PUSH 40\t\t\tbytes memory prefix = \"\\x19Eth...\n      MLOAD \t\t\tbytes memory prefix = \"\\x19Eth...\n      DUP1 \t\t\tbytes memory prefix = \"\\x19Eth...\n      PUSH 40\t\t\tbytes memory prefix = \"\\x19Eth...\n      ADD \t\t\tbytes memory prefix = \"\\x19Eth...\n      PUSH 40\t\t\tbytes memory prefix = \"\\x19Eth...\n      MSTORE \t\t\tbytes memory prefix = \"\\x19Eth...\n      DUP1 \t\t\tbytes memory prefix = \"\\x19Eth...\n      PUSH 1C\t\t\tbytes memory prefix = \"\\x19Eth...\n      DUP2 \t\t\tbytes memory prefix = \"\\x19Eth...\n      MSTORE \t\t\tbytes memory prefix = \"\\x19Eth...\n      PUSH 20\t\t\tbytes memory prefix = \"\\x19Eth...\n      ADD \t\t\tbytes memory prefix = \"\\x19Eth...\n      PUSH 19457468657265756D205369676E6564204D6573736167653A0A333200000000\t\t\tbytes memory prefix = \"\\x19Eth...\n      DUP2 \t\t\tbytes memory prefix = \"\\x19Eth...\n      MSTORE \t\t\tbytes memory prefix = \"\\x19Eth...\n      POP \t\t\tbytes memory prefix = \"\\x19Eth...\n      SWAP1 \t\t\tbytes memory prefix = \"\\x19Eth...\n      POP \t\t\tbytes memory prefix = \"\\x19Eth...\n      PUSH 0\t\t\tbytes32 prefixedHashMessage\n      DUP2 \t\t\tprefix\n      DUP8 \t\t\t_hashedMessage\n      PUSH 40\t\t\tabi.encodePacked(prefix, _hash...\n      MLOAD \t\t\tabi.encodePacked(prefix, _hash...\n      PUSH 20\t\t\tabi.encodePacked(prefix, _hash...\n      ADD \t\t\tabi.encodePacked(prefix, _hash...\n      PUSH [tag] 28\t\t\tabi.encodePacked(prefix, _hash...\n      SWAP3 \t\t\tabi.encodePacked(prefix, _hash...\n      SWAP2 \t\t\tabi.encodePacked(prefix, _hash...\n      SWAP1 \t\t\tabi.encodePacked(prefix, _hash...\n      PUSH [tag] 29\t\t\tabi.encodePacked(prefix, _hash...\n      JUMP \t\t\tabi.encodePacked(prefix, _hash...\n    tag 28\t\t\tabi.encodePacked(prefix, _hash...\n      JUMPDEST \t\t\tabi.encodePacked(prefix, _hash...\n      PUSH 40\t\t\tabi.encodePacked(prefix, _hash...\n      MLOAD \t\t\tabi.encodePacked(prefix, _hash...\n      PUSH 20\t\t\tabi.encodePacked(prefix, _hash...\n      DUP2 \t\t\tabi.encodePacked(prefix, _hash...\n      DUP4 \t\t\tabi.encodePacked(prefix, _hash...\n      SUB \t\t\tabi.encodePacked(prefix, _hash...\n      SUB \t\t\tabi.encodePacked(prefix, _hash...\n      DUP2 \t\t\tabi.encodePacked(prefix, _hash...\n      MSTORE \t\t\tabi.encodePacked(prefix, _hash...\n      SWAP1 \t\t\tabi.encodePacked(prefix, _hash...\n      PUSH 40\t\t\tabi.encodePacked(prefix, _hash...\n      MSTORE \t\t\tabi.encodePacked(prefix, _hash...\n      DUP1 \t\t\tkeccak256(abi.encodePacked(pre...\n      MLOAD \t\t\tkeccak256(abi.encodePacked(pre...\n      SWAP1 \t\t\tkeccak256(abi.encodePacked(pre...\n      PUSH 20\t\t\tkeccak256(abi.encodePacked(pre...\n      ADD \t\t\tkeccak256(abi.encodePacked(pre...\n      KECCAK256 \t\t\tkeccak256(abi.encodePacked(pre...\n      SWAP1 \t\t\tbytes32 prefixedHashMessage = ...\n      POP \t\t\tbytes32 prefixedHashMessage = ...\n      PUSH 0\t\t\taddress signer\n      PUSH 1\t\t\tecrecover(prefixedHashMessage,...\n      DUP3 \t\t\tprefixedHashMessage\n      DUP9 \t\t\t_v\n      DUP9 \t\t\t_r\n      DUP9 \t\t\t_s\n      PUSH 40\t\t\tecrecover(prefixedHashMessage,...\n      MLOAD \t\t\tecrecover(prefixedHashMessage,...\n      PUSH 0\t\t\tecrecover(prefixedHashMessage,...\n      DUP2 \t\t\tecrecover(prefixedHashMessage,...\n      MSTORE \t\t\tecrecover(prefixedHashMessage,...\n      PUSH 20\t\t\tecrecover(prefixedHashMessage,...\n      ADD \t\t\tecrecover(prefixedHashMessage,...\n      PUSH 40\t\t\tecrecover(prefixedHashMessage,...\n      MSTORE \t\t\tecrecover(prefixedHashMessage,...\n      PUSH 40\t\t\tecrecover(prefixedHashMessage,...\n      MLOAD \t\t\tecrecover(prefixedHashMessage,...\n      PUSH [tag] 30\t\t\tecrecover(prefixedHashMessage,...\n      SWAP5 \t\t\tecrecover(prefixedHashMessage,...\n      SWAP4 \t\t\tecrecover(prefixedHashMessage,...\n      SWAP3 \t\t\tecrecover(prefixedHashMessage,...\n      SWAP2 \t\t\tecrecover(prefixedHashMessage,...\n      SWAP1 \t\t\tecrecover(prefixedHashMessage,...\n      PUSH [tag] 31\t\t\tecrecover(prefixedHashMessage,...\n      JUMP \t\t\tecrecover(prefixedHashMessage,...\n    tag 30\t\t\tecrecover(prefixedHashMessage,...\n      JUMPDEST \t\t\tecrecover(prefixedHashMessage,...\n      PUSH 20\t\t\tecrecover(prefixedHashMessage,...\n      PUSH 40\t\t\tecrecover(prefixedHashMessage,...\n      MLOAD \t\t\tecrecover(prefixedHashMessage,...\n      PUSH 20\t\t\tecrecover(prefixedHashMessage,...\n      DUP2 \t\t\tecrecover(prefixedHashMessage,...\n      SUB \t\t\tecrecover(prefixedHashMessage,...\n      SWAP1 \t\t\tecrecover(prefixedHashMessage,...\n      DUP1 \t\t\tecrecover(prefixedHashMessage,...\n      DUP5 \t\t\tecrecover(prefixedHashMessage,...\n      SUB \t\t\tecrecover(prefixedHashMessage,...\n      SWAP1 \t\t\tecrecover(prefixedHashMessage,...\n      DUP6 \t\t\tecrecover(prefixedHashMessage,...\n      GAS \t\t\tecrecover(prefixedHashMessage,...\n      STATICCALL \t\t\tecrecover(prefixedHashMessage,...\n      ISZERO \t\t\tecrecover(prefixedHashMessage,...\n      DUP1 \t\t\tecrecover(prefixedHashMessage,...\n      ISZERO \t\t\tecrecover(prefixedHashMessage,...\n      PUSH [tag] 33\t\t\tecrecover(prefixedHashMessage,...\n      JUMPI \t\t\tecrecover(prefixedHashMessage,...\n      RETURNDATASIZE \t\t\tecrecover(prefixedHashMessage,...\n      PUSH 0\t\t\tecrecover(prefixedHashMessage,...\n      DUP1 \t\t\tecrecover(prefixedHashMessage,...\n      RETURNDATACOPY \t\t\tecrecover(prefixedHashMessage,...\n      RETURNDATASIZE \t\t\tecrecover(prefixedHashMessage,...\n      PUSH 0\t\t\tecrecover(prefixedHashMessage,...\n      REVERT \t\t\tecrecover(prefixedHashMessage,...\n    tag 33\t\t\tecrecover(prefixedHashMessage,...\n      JUMPDEST \t\t\tecrecover(prefixedHashMessage,...\n      POP \t\t\tecrecover(prefixedHashMessage,...\n      POP \t\t\tecrecover(prefixedHashMessage,...\n      POP \t\t\tecrecover(prefixedHashMessage,...\n      PUSH 20\t\t\tecrecover(prefixedHashMessage,...\n      PUSH 40\t\t\tecrecover(prefixedHashMessage,...\n      MLOAD \t\t\tecrecover(prefixedHashMessage,...\n      SUB \t\t\tecrecover(prefixedHashMessage,...\n      MLOAD \t\t\tecrecover(prefixedHashMessage,...\n      SWAP1 \t\t\taddress signer = ecrecover(pre...\n      POP \t\t\taddress signer = ecrecover(pre...\n      DUP1 \t\t\tsigner\n      SWAP4 \t\t\treturn signer\n      POP \t\t\treturn signer\n      POP \t\t\treturn signer\n      POP \t\t\treturn signer\n      POP \t\t\treturn signer\n      SWAP5 \t\t\tfunction userAuthorized(bytes3...\n      SWAP4 \t\t\tfunction userAuthorized(bytes3...\n      POP \t\t\tfunction userAuthorized(bytes3...\n      POP \t\t\tfunction userAuthorized(bytes3...\n      POP \t\t\tfunction userAuthorized(bytes3...\n      POP \t\t\tfunction userAuthorized(bytes3...\n      JUMP \t\t\tfunction userAuthorized(bytes3...\n    tag 20\t\t\tfunction addr() public view re...\n      JUMPDEST \t\t\tfunction addr() public view re...\n      PUSH 0\t\t\taddress\n      ADDRESS \t\t\tthis\n      SWAP1 \t\t\treturn address(this)\n      POP \t\t\treturn address(this)\n      SWAP1 \t\t\tfunction addr() public view re...\n      JUMP \t\t\tfunction addr() public view re...\n    tag 25\t\t\tfunction pay(address recipient...\n      JUMPDEST \t\t\tfunction pay(address recipient...\n      PUSH [tag] 36\t\t\tuserAuthorized(_hashedMessage,...\n      DUP5 \t\t\t_hashedMessage\n      DUP5 \t\t\t_v\n      DUP5 \t\t\t_r\n      DUP5 \t\t\t_s\n      PUSH [tag] 15\t\t\tuserAuthorized\n      JUMP \t\t\tuserAuthorized(_hashedMessage,...\n    tag 36\t\t\tuserAuthorized(_hashedMessage,...\n      JUMPDEST \t\t\tuserAuthorized(_hashedMessage,...\n      POP \t\t\tuserAuthorized(_hashedMessage,...\n      SELFBALANCE \t\t\taddress(this).balance\n      DUP8 \t\t\tamount\n      GT \t\t\tamount <= address(this).balanc...\n      ISZERO \t\t\tamount <= address(this).balanc...\n      PUSH [tag] 37\t\t\trequire(amount <= address(this...\n      JUMPI \t\t\trequire(amount <= address(this...\n      PUSH 40\t\t\trequire(amount <= address(this...\n      MLOAD \t\t\trequire(amount <= address(this...\n      PUSH 8C379A000000000000000000000000000000000000000000000000000000000\t\t\trequire(amount <= address(this...\n      DUP2 \t\t\trequire(amount <= address(this...\n      MSTORE \t\t\trequire(amount <= address(this...\n      PUSH 4\t\t\trequire(amount <= address(this...\n      ADD \t\t\trequire(amount <= address(this...\n      PUSH [tag] 38\t\t\trequire(amount <= address(this...\n      SWAP1 \t\t\trequire(amount <= address(this...\n      PUSH [tag] 39\t\t\trequire(amount <= address(this...\n      JUMP \t\t\trequire(amount <= address(this...\n    tag 38\t\t\trequire(amount <= address(this...\n      JUMPDEST \t\t\trequire(amount <= address(this...\n      PUSH 40\t\t\trequire(amount <= address(this...\n      MLOAD \t\t\trequire(amount <= address(this...\n      DUP1 \t\t\trequire(amount <= address(this...\n      SWAP2 \t\t\trequire(amount <= address(this...\n      SUB \t\t\trequire(amount <= address(this...\n      SWAP1 \t\t\trequire(amount <= address(this...\n      REVERT \t\t\trequire(amount <= address(this...\n    tag 37\t\t\trequire(amount <= address(this...\n      JUMPDEST \t\t\trequire(amount <= address(this...\n      DUP6 \t\t\tcampaignCount\n      DUP6 \t\t\tshoppingCount\n      LT \t\t\tshoppingCount >= campaignCount\n      PUSH [tag] 40\t\t\tif(shoppingCount >= campaignCo...\n      JUMPI \t\t\tif(shoppingCount >= campaignCo...\n      PUSH 0\t\t\tbool success\n      DUP9 \t\t\trecipient\n      PUSH FFFFFFFFFFFFFFFFFFFFFFFFFFFFFFFFFFFFFFFF\t\t\tpayable(recipient).send\n      AND \t\t\tpayable(recipient).send\n      PUSH 8FC\t\t\tpayable(recipient).send(amount...\n      DUP10 \t\t\tamount\n      SWAP1 \t\t\tpayable(recipient).send(amount...\n      DUP2 \t\t\tpayable(recipient).send(amount...\n      ISZERO \t\t\tpayable(recipient).send(amount...\n      MUL \t\t\tpayable(recipient).send(amount...\n      SWAP1 \t\t\tpayable(recipient).send(amount...\n      PUSH 40\t\t\tpayable(recipient).send(amount...\n      MLOAD \t\t\tpayable(recipient).send(amount...\n      PUSH 0\t\t\tpayable(recipient).send(amount...\n      PUSH 40\t\t\tpayable(recipient).send(amount...\n      MLOAD \t\t\tpayable(recipient).send(amount...\n      DUP1 \t\t\tpayable(recipient).send(amount...\n      DUP4 \t\t\tpayable(recipient).send(amount...\n      SUB \t\t\tpayable(recipient).send(amount...\n      DUP2 \t\t\tpayable(recipient).send(amount...\n      DUP6 \t\t\tpayable(recipient).send(amount...\n      DUP9 \t\t\tpayable(recipient).send(amount...\n      DUP9 \t\t\tpayable(recipient).send(amount...\n      CALL \t\t\tpayable(recipient).send(amount...\n      SWAP4 \t\t\tpayable(recipient).send(amount...\n      POP \t\t\tpayable(recipient).send(amount...\n      POP \t\t\tpayable(recipient).send(amount...\n      POP \t\t\tpayable(recipient).send(amount...\n      POP \t\t\tpayable(recipient).send(amount...\n      SWAP1 \t\t\tbool success = payable(recipie...\n      POP \t\t\tbool success = payable(recipie...\n      DUP1 \t\t\tsuccess\n      PUSH [tag] 42\t\t\trequire(success, \"Transfer fai...\n      JUMPI \t\t\trequire(success, \"Transfer fai...\n      PUSH 40\t\t\trequire(success, \"Transfer fai...\n      MLOAD \t\t\trequire(success, \"Transfer fai...\n      PUSH 8C379A000000000000000000000000000000000000000000000000000000000\t\t\trequire(success, \"Transfer fai...\n      DUP2 \t\t\trequire(success, \"Transfer fai...\n      MSTORE \t\t\trequire(success, \"Transfer fai...\n      PUSH 4\t\t\trequire(success, \"Transfer fai...\n      ADD \t\t\trequire(success, \"Transfer fai...\n      PUSH [tag] 43\t\t\trequire(success, \"Transfer fai...\n      SWAP1 \t\t\trequire(success, \"Transfer fai...\n      PUSH [tag] 44\t\t\trequire(success, \"Transfer fai...\n      JUMP \t\t\trequire(success, \"Transfer fai...\n    tag 43\t\t\trequire(success, \"Transfer fai...\n      JUMPDEST \t\t\trequire(success, \"Transfer fai...\n      PUSH 40\t\t\trequire(success, \"Transfer fai...\n      MLOAD \t\t\trequire(success, \"Transfer fai...\n      DUP1 \t\t\trequire(success, \"Transfer fai...\n      SWAP2 \t\t\trequire(success, \"Transfer fai...\n      SUB \t\t\trequire(success, \"Transfer fai...\n      SWAP1 \t\t\trequire(success, \"Transfer fai...\n      REVERT \t\t\trequire(success, \"Transfer fai...\n    tag 42\t\t\trequire(success, \"Transfer fai...\n      JUMPDEST \t\t\trequire(success, \"Transfer fai...\n      POP \t\t\t{    \\r\\n\\r\\n            // Tr...\n      PUSH [tag] 45\t\t\tif(shoppingCount >= campaignCo...\n      JUMP \t\t\tif(shoppingCount >= campaignCo...\n    tag 40\t\t\tif(shoppingCount >= campaignCo...\n      JUMPDEST \t\t\tif(shoppingCount >= campaignCo...\n      PUSH 40\t\t\trevert(\"User not Eligible!\")\n      MLOAD \t\t\trevert(\"User not Eligible!\")\n      PUSH 8C379A000000000000000000000000000000000000000000000000000000000\t\t\trevert(\"User not Eligible!\")\n      DUP2 \t\t\trevert(\"User not Eligible!\")\n      MSTORE \t\t\trevert(\"User not Eligible!\")\n      PUSH 4\t\t\trevert(\"User not Eligible!\")\n      ADD \t\t\trevert(\"User not Eligible!\")\n      PUSH [tag] 46\t\t\trevert(\"User not Eligible!\")\n      SWAP1 \t\t\trevert(\"User not Eligible!\")\n      PUSH [tag] 47\t\t\trevert(\"User not Eligible!\")\n      JUMP \t\t\trevert(\"User not Eligible!\")\n    tag 46\t\t\trevert(\"User not Eligible!\")\n      JUMPDEST \t\t\trevert(\"User not Eligible!\")\n      PUSH 40\t\t\trevert(\"User not Eligible!\")\n      MLOAD \t\t\trevert(\"User not Eligible!\")\n      DUP1 \t\t\trevert(\"User not Eligible!\")\n      SWAP2 \t\t\trevert(\"User not Eligible!\")\n      SUB \t\t\trevert(\"User not Eligible!\")\n      SWAP1 \t\t\trevert(\"User not Eligible!\")\n      REVERT \t\t\trevert(\"User not Eligible!\")\n    tag 45\t\t\tif(shoppingCount >= campaignCo...\n      JUMPDEST \t\t\tif(shoppingCount >= campaignCo...\n      POP \t\t\tfunction pay(address recipient...\n      POP \t\t\tfunction pay(address recipient...\n      POP \t\t\tfunction pay(address recipient...\n      POP \t\t\tfunction pay(address recipient...\n      POP \t\t\tfunction pay(address recipient...\n      POP \t\t\tfunction pay(address recipient...\n      POP \t\t\tfunction pay(address recipient...\n      POP \t\t\tfunction pay(address recipient...\n      JUMP \t\t\tfunction pay(address recipient...\n    tag 48\t\t\t-License-Identifier: GPL-3.0\\r...\n      JUMPDEST \t\t\t-License-Identifier: GPL-3.0\\r...\n      PUSH 0\t\t\tsolidit\n      DUP2 \t\t\tcontr\n      SWAP1 \t\t\t<0.9.0;\\r\\n\\r\\ncontr\n      POP \t\t\t<0.9.0;\\r\\n\\r\\ncontr\n      SWAP2 \t\t\t-License-Identifier: GPL-3.0\\r...\n      SWAP1 \t\t\t-License-Identifier: GPL-3.0\\r...\n      POP \t\t\t-License-Identifier: GPL-3.0\\r...\n      JUMP \t\t\t-License-Identifier: GPL-3.0\\r...\n    tag 49\t\t\trea {\\r\\n\\r\\n    address _sign...\n      JUMPDEST \t\t\trea {\\r\\n\\r\\n    address _sign...\n      PUSH [tag] 84\t\t\tt fund on deploy stage\\r\\n\n      DUP2 \t\t\ttage\\r\n      PUSH [tag] 48\t\t\tt fund on deploy stage\\r\\n\n      JUMP \t\t\tt fund on deploy stage\\r\\n\n    tag 84\t\t\tt fund on deploy stage\\r\\n\n      JUMPDEST \t\t\tt fund on deploy stage\\r\\n\n      DUP3 \t\t\tto \n      MSTORE \t\t\tructor to get fund on deploy s...\n      POP \t\t\trea {\\r\\n\\r\\n    address _sign...\n      POP \t\t\trea {\\r\\n\\r\\n    address _sign...\n      JUMP \t\t\trea {\\r\\n\\r\\n    address _sign...\n    tag 10\t\t\tor() payable {\\r\\n\\r\\n\\r\\n    ...\n      JUMPDEST \t\t\tor() payable {\\r\\n\\r\\n\\r\\n    ...\n      PUSH 0\t\t\tss r\n      PUSH 20\t\t\t c\n      DUP3 \t\t\tnt, uint2\n      ADD \t\t\tamount, uint256 ca\n      SWAP1 \t\t\tint256  amount, uint256 ca\n      POP \t\t\tint256  amount, uint256 ca\n      PUSH [tag] 86\t\t\tt, uint256 shoppingCount, byte...\n      PUSH 0\t\t\t_\n      DUP4 \t\t\tv, bytes3\n      ADD \t\t\tt8 _v, bytes32 _r\n      DUP5 \t\t\tsage, \n      PUSH [tag] 49\t\t\tt, uint256 shoppingCount, byte...\n      JUMP \t\t\tt, uint256 shoppingCount, byte...\n    tag 86\t\t\tt, uint256 shoppingCount, byte...\n      JUMPDEST \t\t\tt, uint256 shoppingCount, byte...\n      SWAP3 \t\t\tor() payable {\\r\\n\\r\\n\\r\\n    ...\n      SWAP2 \t\t\tor() payable {\\r\\n\\r\\n\\r\\n    ...\n      POP \t\t\tor() payable {\\r\\n\\r\\n\\r\\n    ...\n      POP \t\t\tor() payable {\\r\\n\\r\\n\\r\\n    ...\n      JUMP \t\t\tor() payable {\\r\\n\\r\\n\\r\\n    ...\n    tag 51\t\t\t   \\r\\n        require(amount ...\n      JUMPDEST \t\t\t   \\r\\n        require(amount ...\n      PUSH 0\t\t\t \n      DUP1 \t\t\t \n      REVERT \t\t\tngCount >= c\n    tag 53\t\t\t;\\r\\n            require(succe...\n      JUMPDEST \t\t\t;\\r\\n            require(succe...\n      PUSH 0\t\t\tsfer fa\n      DUP2 \t\t\tse{\\r\\n\n      SWAP1 \t\t\t        }else{\\r\\n\n      POP \t\t\t        }else{\\r\\n\n      SWAP2 \t\t\t;\\r\\n            require(succe...\n      SWAP1 \t\t\t;\\r\\n            require(succe...\n      POP \t\t\t;\\r\\n            require(succe...\n      JUMP \t\t\t;\\r\\n            require(succe...\n    tag 54\t\t\t  revert(\"User not Eligible!\")...\n      JUMPDEST \t\t\t  revert(\"User not Eligible!\")...\n      PUSH [tag] 92\t\t\tction userAuthorized(byt\n      DUP2 \t\t\ted(by\n      PUSH [tag] 53\t\t\tction userAuthorized(byt\n      JUMP \t\t\tction userAuthorized(byt\n    tag 92\t\t\tction userAuthorized(byt\n      JUMPDEST \t\t\tction userAuthorized(byt\n      DUP2 \t\t\t\\n   f\n      EQ \t\t\t\\r\\n\\r\\n   function userAuthor...\n      PUSH [tag] 93\t\t\t   \\r\\n    }\\r\\n\\r\\n   functio...\n      JUMPI \t\t\t   \\r\\n    }\\r\\n\\r\\n   functio...\n      PUSH 0\t\t\ts\n      DUP1 \t\t\tM\n      REVERT \t\t\t_hashedMessa\n    tag 93\t\t\t   \\r\\n    }\\r\\n\\r\\n   functio...\n      JUMPDEST \t\t\t   \\r\\n    }\\r\\n\\r\\n   functio...\n      POP \t\t\t  revert(\"User not Eligible!\")...\n      JUMP \t\t\t  revert(\"User not Eligible!\")...\n    tag 55\t\t\tbytes32 _r, bytes32 _s) public...\n      JUMPDEST \t\t\tbytes32 _r, bytes32 _s) public...\n      PUSH 0\t\t\tddres\n      DUP2 \t\t\tory pr\n      CALLDATALOAD \t\t\t    bytes memory pre\n      SWAP1 \t\t\t   \\r\\n        bytes memory pr...\n      POP \t\t\t   \\r\\n        bytes memory pr...\n      PUSH [tag] 95\t\t\t19Ethereum Signed Message:\\n32...\n      DUP2 \t\t\tn32\";\n      PUSH [tag] 54\t\t\t19Ethereum Signed Message:\\n32...\n      JUMP \t\t\t19Ethereum Signed Message:\\n32...\n    tag 95\t\t\t19Ethereum Signed Message:\\n32...\n      JUMPDEST \t\t\t19Ethereum Signed Message:\\n32...\n      SWAP3 \t\t\tbytes32 _r, bytes32 _s) public...\n      SWAP2 \t\t\tbytes32 _r, bytes32 _s) public...\n      POP \t\t\tbytes32 _r, bytes32 _s) public...\n      POP \t\t\tbytes32 _r, bytes32 _s) public...\n      JUMP \t\t\tbytes32 _r, bytes32 _s) public...\n    tag 56\t\t\tytes32 prefixedHashMessage = k...\n      JUMPDEST \t\t\tytes32 prefixedHashMessage = k...\n      PUSH 0\t\t\t256(abi\n      PUSH FF\t\t\tage)\n      DUP3 \t\t\thedMe\n      AND \t\t\t_hashedMessage))\n      SWAP1 \t\t\ted(prefix, _hashedMessage))\n      POP \t\t\ted(prefix, _hashedMessage))\n      SWAP2 \t\t\tytes32 prefixedHashMessage = k...\n      SWAP1 \t\t\tytes32 prefixedHashMessage = k...\n      POP \t\t\tytes32 prefixedHashMessage = k...\n      JUMP \t\t\tytes32 prefixedHashMessage = k...\n    tag 57\t\t\tddress signer = ecrecover(pref...\n      JUMPDEST \t\t\tddress signer = ecrecover(pref...\n      PUSH [tag] 98\t\t\treturn signer;\\r\\n\\r\\n    \n      DUP2 \t\t\t\\r\\n   \n      PUSH [tag] 56\t\t\treturn signer;\\r\\n\\r\\n    \n      JUMP \t\t\treturn signer;\\r\\n\\r\\n    \n    tag 98\t\t\treturn signer;\\r\\n\\r\\n    \n      JUMPDEST \t\t\treturn signer;\\r\\n\\r\\n    \n      DUP2 \t\t\t     \n      EQ \t\t\t\\r\\n        return signer;\\r\\n...\n      PUSH [tag] 99\t\t\t_r, _s);\\r\\n\\r\\n        return...\n      JUMPI \t\t\t_r, _s);\\r\\n\\r\\n        return...\n      PUSH 0\t\t\te\n      DUP1 \t\t\t/\n      REVERT \t\t\t\\r\\n    // get\n    tag 99\t\t\t_r, _s);\\r\\n\\r\\n        return...\n      JUMPDEST \t\t\t_r, _s);\\r\\n\\r\\n        return...\n      POP \t\t\tddress signer = ecrecover(pref...\n      JUMP \t\t\tddress signer = ecrecover(pref...\n    tag 58\t\t\tntract address\\r\\n    function...\n      JUMPDEST \t\t\tntract address\\r\\n    function...\n      PUSH 0\t\t\tblic \n      DUP2 \t\t\t retur\n      CALLDATALOAD \t\t\t){\\r\\n\\r\\n        return\n      SWAP1 \t\t\ts(uint256){\\r\\n\\r\\n        ret...\n      POP \t\t\ts(uint256){\\r\\n\\r\\n        ret...\n      PUSH [tag] 101\t\t\tthis).balance;\\r\\n\\r\\n    }\\r\\...\n      DUP2 \t\t\t\\r\\n   \n      PUSH [tag] 57\t\t\tthis).balance;\\r\\n\\r\\n    }\\r\\...\n      JUMP \t\t\tthis).balance;\\r\\n\\r\\n    }\\r\\...\n    tag 101\t\t\tthis).balance;\\r\\n\\r\\n    }\\r\\...\n      JUMPDEST \t\t\tthis).balance;\\r\\n\\r\\n    }\\r\\...\n      SWAP3 \t\t\tntract address\\r\\n    function...\n      SWAP2 \t\t\tntract address\\r\\n    function...\n      POP \t\t\tntract address\\r\\n    function...\n      POP \t\t\tntract address\\r\\n    function...\n      JUMP \t\t\tntract address\\r\\n    function...\n    tag 14\t\t\talance of contract address\\r\\n...\n      JUMPDEST \t\t\talance of contract address\\r\\n...\n      PUSH 0\t\t\t     r\n      DUP1 \t\t\turn ad\n      PUSH 0\t\t\tess(th\n      DUP1 \t\t\t);\\r\\n\\r\\n\n      PUSH 80\t\t\t\n      DUP6 \t\t\t\n      DUP8 \t\t\t\n      SUB \t\t\t\n      SLT \t\t\t\n      ISZERO \t\t\t\n      PUSH [tag] 103\t\t\t\n      JUMPI \t\t\t\n      PUSH [tag] 104\t\t\t\n      PUSH [tag] 51\t\t\t\n      JUMP \t\t\t\n    tag 104\t\t\t\n      JUMPDEST \t\t\t\n    tag 103\t\t\t\n      JUMPDEST \t\t\t\n      PUSH 0\t\t\t\n      PUSH [tag] 105\t\t\t\n      DUP8 \t\t\t\n      DUP3 \t\t\t\n      DUP9 \t\t\t\n      ADD \t\t\t\n      PUSH [tag] 55\t\t\t\n      JUMP \t\t\t\n    tag 105\t\t\t\n      JUMPDEST \t\t\t\n      SWAP5 \t\t\t\n      POP \t\t\t\n      POP \t\t\t\n      PUSH 20\t\t\t\n      PUSH [tag] 106\t\t\t\n      DUP8 \t\t\t\n      DUP3 \t\t\t\n      DUP9 \t\t\t\n      ADD \t\t\t\n      PUSH [tag] 58\t\t\t\n      JUMP \t\t\t\n    tag 106\t\t\t\n      JUMPDEST \t\t\t\n      SWAP4 \t\t\t\n      POP \t\t\t\n      POP \t\t\t\n      PUSH 40\t\t\t\n      PUSH [tag] 107\t\t\t\n      DUP8 \t\t\t\n      DUP3 \t\t\t\n      DUP9 \t\t\t\n      ADD \t\t\t\n      PUSH [tag] 55\t\t\t\n      JUMP \t\t\t\n    tag 107\t\t\t\n      JUMPDEST \t\t\t\n      SWAP3 \t\t\t\n      POP \t\t\t\n      POP \t\t\t\n      PUSH 60\t\t\t\n      PUSH [tag] 108\t\t\t\n      DUP8 \t\t\t\n      DUP3 \t\t\t\n      DUP9 \t\t\t\n      ADD \t\t\t\n      PUSH [tag] 55\t\t\t\n      JUMP \t\t\t\n    tag 108\t\t\t\n      JUMPDEST \t\t\t\n      SWAP2 \t\t\t\n      POP \t\t\t\n      POP \t\t\t\n      SWAP3 \t\t\talance of contract address\\r\\n...\n      SWAP6 \t\t\talance of contract address\\r\\n...\n      SWAP2 \t\t\talance of contract address\\r\\n...\n      SWAP5 \t\t\talance of contract address\\r\\n...\n      POP \t\t\talance of contract address\\r\\n...\n      SWAP3 \t\t\talance of contract address\\r\\n...\n      POP \t\t\talance of contract address\\r\\n...\n      JUMP \t\t\talance of contract address\\r\\n...\n    tag 59\t\t\t\n      JUMPDEST \t\t\t\n      PUSH 0\t\t\t\n      PUSH FFFFFFFFFFFFFFFFFFFFFFFFFFFFFFFFFFFFFFFF\t\t\t\n      DUP3 \t\t\t\n      AND \t\t\t\n      SWAP1 \t\t\t\n      POP \t\t\t\n      SWAP2 \t\t\t\n      SWAP1 \t\t\t\n      POP \t\t\t\n      JUMP \t\t\t\n    tag 60\t\t\t\n      JUMPDEST \t\t\t\n      PUSH 0\t\t\t\n      PUSH [tag] 111\t\t\t\n      DUP3 \t\t\t\n      PUSH [tag] 59\t\t\t\n      JUMP \t\t\t\n    tag 111\t\t\t\n      JUMPDEST \t\t\t\n      SWAP1 \t\t\t\n      POP \t\t\t\n      SWAP2 \t\t\t\n      SWAP1 \t\t\t\n      POP \t\t\t\n      JUMP \t\t\t\n    tag 61\t\t\t\n      JUMPDEST \t\t\t\n      PUSH [tag] 113\t\t\t\n      DUP2 \t\t\t\n      PUSH [tag] 60\t\t\t\n      JUMP \t\t\t\n    tag 113\t\t\t\n      JUMPDEST \t\t\t\n      DUP3 \t\t\t\n      MSTORE \t\t\t\n      POP \t\t\t\n      POP \t\t\t\n      JUMP \t\t\t\n    tag 17\t\t\t\n      JUMPDEST \t\t\t\n      PUSH 0\t\t\t\n      PUSH 20\t\t\t\n      DUP3 \t\t\t\n      ADD \t\t\t\n      SWAP1 \t\t\t\n      POP \t\t\t\n      PUSH [tag] 115\t\t\t\n      PUSH 0\t\t\t\n      DUP4 \t\t\t\n      ADD \t\t\t\n      DUP5 \t\t\t\n      PUSH [tag] 61\t\t\t\n      JUMP \t\t\t\n    tag 115\t\t\t\n      JUMPDEST \t\t\t\n      SWAP3 \t\t\t\n      SWAP2 \t\t\t\n      POP \t\t\t\n      POP \t\t\t\n      JUMP \t\t\t\n    tag 62\t\t\t\n      JUMPDEST \t\t\t\n      PUSH [tag] 117\t\t\t\n      DUP2 \t\t\t\n      PUSH [tag] 60\t\t\t\n      JUMP \t\t\t\n    tag 117\t\t\t\n      JUMPDEST \t\t\t\n      DUP2 \t\t\t\n      EQ \t\t\t\n      PUSH [tag] 118\t\t\t\n      JUMPI \t\t\t\n      PUSH 0\t\t\t\n      DUP1 \t\t\t\n      REVERT \t\t\t\n    tag 118\t\t\t\n      JUMPDEST \t\t\t\n      POP \t\t\t\n      JUMP \t\t\t\n    tag 63\t\t\t\n      JUMPDEST \t\t\t\n      PUSH 0\t\t\t\n      DUP2 \t\t\t\n      CALLDATALOAD \t\t\t\n      SWAP1 \t\t\t\n      POP \t\t\t\n      PUSH [tag] 120\t\t\t\n      DUP2 \t\t\t\n      PUSH [tag] 62\t\t\t\n      JUMP \t\t\t\n    tag 120\t\t\t\n      JUMPDEST \t\t\t\n      SWAP3 \t\t\t\n      SWAP2 \t\t\t\n      POP \t\t\t\n      POP \t\t\t\n      JUMP \t\t\t\n    tag 64\t\t\t\n      JUMPDEST \t\t\t\n      PUSH [tag] 122\t\t\t\n      DUP2 \t\t\t\n      PUSH [tag] 48\t\t\t\n      JUMP \t\t\t\n    tag 122\t\t\t\n      JUMPDEST \t\t\t\n      DUP2 \t\t\t\n      EQ \t\t\t\n      PUSH [tag] 123\t\t\t\n      JUMPI \t\t\t\n      PUSH 0\t\t\t\n      DUP1 \t\t\t\n      REVERT \t\t\t\n    tag 123\t\t\t\n      JUMPDEST \t\t\t\n      POP \t\t\t\n      JUMP \t\t\t\n    tag 65\t\t\t\n      JUMPDEST \t\t\t\n      PUSH 0\t\t\t\n      DUP2 \t\t\t\n      CALLDATALOAD \t\t\t\n      SWAP1 \t\t\t\n      POP \t\t\t\n      PUSH [tag] 125\t\t\t\n      DUP2 \t\t\t\n      PUSH [tag] 64\t\t\t\n      JUMP \t\t\t\n    tag 125\t\t\t\n      JUMPDEST \t\t\t\n      SWAP3 \t\t\t\n      SWAP2 \t\t\t\n      POP \t\t\t\n      POP \t\t\t\n      JUMP \t\t\t\n    tag 24\t\t\t\n      JUMPDEST \t\t\t\n      PUSH 0\t\t\t\n      DUP1 \t\t\t\n      PUSH 0\t\t\t\n      DUP1 \t\t\t\n      PUSH 0\t\t\t\n      DUP1 \t\t\t\n      PUSH 0\t\t\t\n      DUP1 \t\t\t\n      PUSH 100\t\t\t\n      DUP10 \t\t\t\n      DUP12 \t\t\t\n      SUB \t\t\t\n      SLT \t\t\t\n      ISZERO \t\t\t\n      PUSH [tag] 127\t\t\t\n      JUMPI \t\t\t\n      PUSH [tag] 128\t\t\t\n      PUSH [tag] 51\t\t\t\n      JUMP \t\t\t\n    tag 128\t\t\t\n      JUMPDEST \t\t\t\n    tag 127\t\t\t\n      JUMPDEST \t\t\t\n      PUSH 0\t\t\t\n      PUSH [tag] 129\t\t\t\n      DUP12 \t\t\t\n      DUP3 \t\t\t\n      DUP13 \t\t\t\n      ADD \t\t\t\n      PUSH [tag] 63\t\t\t\n      JUMP \t\t\t\n    tag 129\t\t\t\n      JUMPDEST \t\t\t\n      SWAP9 \t\t\t\n      POP \t\t\t\n      POP \t\t\t\n      PUSH 20\t\t\t\n      PUSH [tag] 130\t\t\t\n      DUP12 \t\t\t\n      DUP3 \t\t\t\n      DUP13 \t\t\t\n      ADD \t\t\t\n      PUSH [tag] 65\t\t\t\n      JUMP \t\t\t\n    tag 130\t\t\t\n      JUMPDEST \t\t\t\n      SWAP8 \t\t\t\n      POP \t\t\t\n      POP \t\t\t\n      PUSH 40\t\t\t\n      PUSH [tag] 131\t\t\t\n      DUP12 \t\t\t\n      DUP3 \t\t\t\n      DUP13 \t\t\t\n      ADD \t\t\t\n      PUSH [tag] 65\t\t\t\n      JUMP \t\t\t\n    tag 131\t\t\t\n      JUMPDEST \t\t\t\n      SWAP7 \t\t\t\n      POP \t\t\t\n      POP \t\t\t\n      PUSH 60\t\t\t\n      PUSH [tag] 132\t\t\t\n      DUP12 \t\t\t\n      DUP3 \t\t\t\n      DUP13 \t\t\t\n      ADD \t\t\t\n      PUSH [tag] 65\t\t\t\n      JUMP \t\t\t\n    tag 132\t\t\t\n      JUMPDEST \t\t\t\n      SWAP6 \t\t\t\n      POP \t\t\t\n      POP \t\t\t\n      PUSH 80\t\t\t\n      PUSH [tag] 133\t\t\t\n      DUP12 \t\t\t\n      DUP3 \t\t\t\n      DUP13 \t\t\t\n      ADD \t\t\t\n      PUSH [tag] 55\t\t\t\n      JUMP \t\t\t\n    tag 133\t\t\t\n      JUMPDEST \t\t\t\n      SWAP5 \t\t\t\n      POP \t\t\t\n      POP \t\t\t\n      PUSH A0\t\t\t\n      PUSH [tag] 134\t\t\t\n      DUP12 \t\t\t\n      DUP3 \t\t\t\n      DUP13 \t\t\t\n      ADD \t\t\t\n      PUSH [tag] 58\t\t\t\n      JUMP \t\t\t\n    tag 134\t\t\t\n      JUMPDEST \t\t\t\n      SWAP4 \t\t\t\n      POP \t\t\t\n      POP \t\t\t\n      PUSH C0\t\t\t\n      PUSH [tag] 135\t\t\t\n      DUP12 \t\t\t\n      DUP3 \t\t\t\n      DUP13 \t\t\t\n      ADD \t\t\t\n      PUSH [tag] 55\t\t\t\n      JUMP \t\t\t\n    tag 135\t\t\t\n      JUMPDEST \t\t\t\n      SWAP3 \t\t\t\n      POP \t\t\t\n      POP \t\t\t\n      PUSH E0\t\t\t\n      PUSH [tag] 136\t\t\t\n      DUP12 \t\t\t\n      DUP3 \t\t\t\n      DUP13 \t\t\t\n      ADD \t\t\t\n      PUSH [tag] 55\t\t\t\n      JUMP \t\t\t\n    tag 136\t\t\t\n      JUMPDEST \t\t\t\n      SWAP2 \t\t\t\n      POP \t\t\t\n      POP \t\t\t\n      SWAP3 \t\t\t\n      SWAP6 \t\t\t\n      SWAP9 \t\t\t\n      POP \t\t\t\n      SWAP3 \t\t\t\n      SWAP6 \t\t\t\n      SWAP9 \t\t\t\n      SWAP1 \t\t\t\n      SWAP4 \t\t\t\n      SWAP7 \t\t\t\n      POP \t\t\t\n      JUMP \t\t\t\n    tag 66\t\t\t\n      JUMPDEST \t\t\t\n      PUSH 0\t\t\t\n      DUP2 \t\t\t\n      MLOAD \t\t\t\n      SWAP1 \t\t\t\n      POP \t\t\t\n      SWAP2 \t\t\t\n      SWAP1 \t\t\t\n      POP \t\t\t\n      JUMP \t\t\t\n    tag 67\t\t\t\n      JUMPDEST \t\t\t\n      PUSH 0\t\t\t\n      DUP2 \t\t\t\n      SWAP1 \t\t\t\n      POP \t\t\t\n      SWAP3 \t\t\t\n      SWAP2 \t\t\t\n      POP \t\t\t\n      POP \t\t\t\n      JUMP \t\t\t\n    tag 68\t\t\t\n      JUMPDEST \t\t\t\n      PUSH 0\t\t\t\n    tag 140\t\t\t\n      JUMPDEST \t\t\t\n      DUP4 \t\t\t\n      DUP2 \t\t\t\n      LT \t\t\t\n      ISZERO \t\t\t\n      PUSH [tag] 142\t\t\t\n      JUMPI \t\t\t\n      DUP1 \t\t\t\n      DUP3 \t\t\t\n      ADD \t\t\t\n      MLOAD \t\t\t\n      DUP2 \t\t\t\n      DUP5 \t\t\t\n      ADD \t\t\t\n      MSTORE \t\t\t\n      PUSH 20\t\t\t\n      DUP2 \t\t\t\n      ADD \t\t\t\n      SWAP1 \t\t\t\n      POP \t\t\t\n      PUSH [tag] 140\t\t\t\n      JUMP \t\t\t\n    tag 142\t\t\t\n      JUMPDEST \t\t\t\n      PUSH 0\t\t\t\n      DUP5 \t\t\t\n      DUP5 \t\t\t\n      ADD \t\t\t\n      MSTORE \t\t\t\n      POP \t\t\t\n      POP \t\t\t\n      POP \t\t\t\n      POP \t\t\t\n      JUMP \t\t\t\n    tag 69\t\t\t\n      JUMPDEST \t\t\t\n      PUSH 0\t\t\t\n      PUSH [tag] 144\t\t\t\n      DUP3 \t\t\t\n      PUSH [tag] 66\t\t\t\n      JUMP \t\t\t\n    tag 144\t\t\t\n      JUMPDEST \t\t\t\n      PUSH [tag] 145\t\t\t\n      DUP2 \t\t\t\n      DUP6 \t\t\t\n      PUSH [tag] 67\t\t\t\n      JUMP \t\t\t\n    tag 145\t\t\t\n      JUMPDEST \t\t\t\n      SWAP4 \t\t\t\n      POP \t\t\t\n      PUSH [tag] 146\t\t\t\n      DUP2 \t\t\t\n      DUP6 \t\t\t\n      PUSH 20\t\t\t\n      DUP7 \t\t\t\n      ADD \t\t\t\n      PUSH [tag] 68\t\t\t\n      JUMP \t\t\t\n    tag 146\t\t\t\n      JUMPDEST \t\t\t\n      DUP1 \t\t\t\n      DUP5 \t\t\t\n      ADD \t\t\t\n      SWAP2 \t\t\t\n      POP \t\t\t\n      POP \t\t\t\n      SWAP3 \t\t\t\n      SWAP2 \t\t\t\n      POP \t\t\t\n      POP \t\t\t\n      JUMP \t\t\t\n    tag 70\t\t\t\n      JUMPDEST \t\t\t\n      PUSH 0\t\t\t\n      DUP2 \t\t\t\n      SWAP1 \t\t\t\n      POP \t\t\t\n      SWAP2 \t\t\t\n      SWAP1 \t\t\t\n      POP \t\t\t\n      JUMP \t\t\t\n    tag 71\t\t\t\n      JUMPDEST \t\t\t\n      PUSH [tag] 149\t\t\t\n      PUSH [tag] 150\t\t\t\n      DUP3 \t\t\t\n      PUSH [tag] 53\t\t\t\n      JUMP \t\t\t\n    tag 150\t\t\t\n      JUMPDEST \t\t\t\n      PUSH [tag] 70\t\t\t\n      JUMP \t\t\t\n    tag 149\t\t\t\n      JUMPDEST \t\t\t\n      DUP3 \t\t\t\n      MSTORE \t\t\t\n      POP \t\t\t\n      POP \t\t\t\n      JUMP \t\t\t\n    tag 29\t\t\t\n      JUMPDEST \t\t\t\n      PUSH 0\t\t\t\n      PUSH [tag] 152\t\t\t\n      DUP3 \t\t\t\n      DUP6 \t\t\t\n      PUSH [tag] 69\t\t\t\n      JUMP \t\t\t\n    tag 152\t\t\t\n      JUMPDEST \t\t\t\n      SWAP2 \t\t\t\n      POP \t\t\t\n      PUSH [tag] 153\t\t\t\n      DUP3 \t\t\t\n      DUP5 \t\t\t\n      PUSH [tag] 71\t\t\t\n      JUMP \t\t\t\n    tag 153\t\t\t\n      JUMPDEST \t\t\t\n      PUSH 20\t\t\t\n      DUP3 \t\t\t\n      ADD \t\t\t\n      SWAP2 \t\t\t\n      POP \t\t\t\n      DUP2 \t\t\t\n      SWAP1 \t\t\t\n      POP \t\t\t\n      SWAP4 \t\t\t\n      SWAP3 \t\t\t\n      POP \t\t\t\n      POP \t\t\t\n      POP \t\t\t\n      JUMP \t\t\t\n    tag 72\t\t\t\n      JUMPDEST \t\t\t\n      PUSH [tag] 155\t\t\t\n      DUP2 \t\t\t\n      PUSH [tag] 53\t\t\t\n      JUMP \t\t\t\n    tag 155\t\t\t\n      JUMPDEST \t\t\t\n      DUP3 \t\t\t\n      MSTORE \t\t\t\n      POP \t\t\t\n      POP \t\t\t\n      JUMP \t\t\t\n    tag 73\t\t\t\n      JUMPDEST \t\t\t\n      PUSH [tag] 157\t\t\t\n      DUP2 \t\t\t\n      PUSH [tag] 56\t\t\t\n      JUMP \t\t\t\n    tag 157\t\t\t\n      JUMPDEST \t\t\t\n      DUP3 \t\t\t\n      MSTORE \t\t\t\n      POP \t\t\t\n      POP \t\t\t\n      JUMP \t\t\t\n    tag 31\t\t\t\n      JUMPDEST \t\t\t\n      PUSH 0\t\t\t\n      PUSH 80\t\t\t\n      DUP3 \t\t\t\n      ADD \t\t\t\n      SWAP1 \t\t\t\n      POP \t\t\t\n      PUSH [tag] 159\t\t\t\n      PUSH 0\t\t\t\n      DUP4 \t\t\t\n      ADD \t\t\t\n      DUP8 \t\t\t\n      PUSH [tag] 72\t\t\t\n      JUMP \t\t\t\n    tag 159\t\t\t\n      JUMPDEST \t\t\t\n      PUSH [tag] 160\t\t\t\n      PUSH 20\t\t\t\n      DUP4 \t\t\t\n      ADD \t\t\t\n      DUP7 \t\t\t\n      PUSH [tag] 73\t\t\t\n      JUMP \t\t\t\n    tag 160\t\t\t\n      JUMPDEST \t\t\t\n      PUSH [tag] 161\t\t\t\n      PUSH 40\t\t\t\n      DUP4 \t\t\t\n      ADD \t\t\t\n      DUP6 \t\t\t\n      PUSH [tag] 72\t\t\t\n      JUMP \t\t\t\n    tag 161\t\t\t\n      JUMPDEST \t\t\t\n      PUSH [tag] 162\t\t\t\n      PUSH 60\t\t\t\n      DUP4 \t\t\t\n      ADD \t\t\t\n      DUP5 \t\t\t\n      PUSH [tag] 72\t\t\t\n      JUMP \t\t\t\n    tag 162\t\t\t\n      JUMPDEST \t\t\t\n      SWAP6 \t\t\t\n      SWAP5 \t\t\t\n      POP \t\t\t\n      POP \t\t\t\n      POP \t\t\t\n      POP \t\t\t\n      POP \t\t\t\n      JUMP \t\t\t\n    tag 74\t\t\t\n      JUMPDEST \t\t\t\n      PUSH 0\t\t\t\n      DUP3 \t\t\t\n      DUP3 \t\t\t\n      MSTORE \t\t\t\n      PUSH 20\t\t\t\n      DUP3 \t\t\t\n      ADD \t\t\t\n      SWAP1 \t\t\t\n      POP \t\t\t\n      SWAP3 \t\t\t\n      SWAP2 \t\t\t\n      POP \t\t\t\n      POP \t\t\t\n      JUMP \t\t\t\n    tag 75\t\t\t\n      JUMPDEST \t\t\t\n      PUSH 496E73756666696369656E742062616C616E6365000000000000000000000000\t\t\t\n      PUSH 0\t\t\t\n      DUP3 \t\t\t\n      ADD \t\t\t\n      MSTORE \t\t\t\n      POP \t\t\t\n      JUMP \t\t\t\n    tag 76\t\t\t\n      JUMPDEST \t\t\t\n      PUSH 0\t\t\t\n      PUSH [tag] 166\t\t\t\n      PUSH 14\t\t\t\n      DUP4 \t\t\t\n      PUSH [tag] 74\t\t\t\n      JUMP \t\t\t\n    tag 166\t\t\t\n      JUMPDEST \t\t\t\n      SWAP2 \t\t\t\n      POP \t\t\t\n      PUSH [tag] 167\t\t\t\n      DUP3 \t\t\t\n      PUSH [tag] 75\t\t\t\n      JUMP \t\t\t\n    tag 167\t\t\t\n      JUMPDEST \t\t\t\n      PUSH 20\t\t\t\n      DUP3 \t\t\t\n      ADD \t\t\t\n      SWAP1 \t\t\t\n      POP \t\t\t\n      SWAP2 \t\t\t\n      SWAP1 \t\t\t\n      POP \t\t\t\n      JUMP \t\t\t\n    tag 39\t\t\t\n      JUMPDEST \t\t\t\n      PUSH 0\t\t\t\n      PUSH 20\t\t\t\n      DUP3 \t\t\t\n      ADD \t\t\t\n      SWAP1 \t\t\t\n      POP \t\t\t\n      DUP2 \t\t\t\n      DUP2 \t\t\t\n      SUB \t\t\t\n      PUSH 0\t\t\t\n      DUP4 \t\t\t\n      ADD \t\t\t\n      MSTORE \t\t\t\n      PUSH [tag] 169\t\t\t\n      DUP2 \t\t\t\n      PUSH [tag] 76\t\t\t\n      JUMP \t\t\t\n    tag 169\t\t\t\n      JUMPDEST \t\t\t\n      SWAP1 \t\t\t\n      POP \t\t\t\n      SWAP2 \t\t\t\n      SWAP1 \t\t\t\n      POP \t\t\t\n      JUMP \t\t\t\n    tag 77\t\t\t\n      JUMPDEST \t\t\t\n      PUSH 5472616E73666572206661696C65640000000000000000000000000000000000\t\t\t\n      PUSH 0\t\t\t\n      DUP3 \t\t\t\n      ADD \t\t\t\n      MSTORE \t\t\t\n      POP \t\t\t\n      JUMP \t\t\t\n    tag 78\t\t\t\n      JUMPDEST \t\t\t\n      PUSH 0\t\t\t\n      PUSH [tag] 172\t\t\t\n      PUSH F\t\t\t\n      DUP4 \t\t\t\n      PUSH [tag] 74\t\t\t\n      JUMP \t\t\t\n    tag 172\t\t\t\n      JUMPDEST \t\t\t\n      SWAP2 \t\t\t\n      POP \t\t\t\n      PUSH [tag] 173\t\t\t\n      DUP3 \t\t\t\n      PUSH [tag] 77\t\t\t\n      JUMP \t\t\t\n    tag 173\t\t\t\n      JUMPDEST \t\t\t\n      PUSH 20\t\t\t\n      DUP3 \t\t\t\n      ADD \t\t\t\n      SWAP1 \t\t\t\n      POP \t\t\t\n      SWAP2 \t\t\t\n      SWAP1 \t\t\t\n      POP \t\t\t\n      JUMP \t\t\t\n    tag 44\t\t\t\n      JUMPDEST \t\t\t\n      PUSH 0\t\t\t\n      PUSH 20\t\t\t\n      DUP3 \t\t\t\n      ADD \t\t\t\n      SWAP1 \t\t\t\n      POP \t\t\t\n      DUP2 \t\t\t\n      DUP2 \t\t\t\n      SUB \t\t\t\n      PUSH 0\t\t\t\n      DUP4 \t\t\t\n      ADD \t\t\t\n      MSTORE \t\t\t\n      PUSH [tag] 175\t\t\t\n      DUP2 \t\t\t\n      PUSH [tag] 78\t\t\t\n      JUMP \t\t\t\n    tag 175\t\t\t\n      JUMPDEST \t\t\t\n      SWAP1 \t\t\t\n      POP \t\t\t\n      SWAP2 \t\t\t\n      SWAP1 \t\t\t\n      POP \t\t\t\n      JUMP \t\t\t\n    tag 79\t\t\t\n      JUMPDEST \t\t\t\n      PUSH 55736572206E6F7420456C696769626C65210000000000000000000000000000\t\t\t\n      PUSH 0\t\t\t\n      DUP3 \t\t\t\n      ADD \t\t\t\n      MSTORE \t\t\t\n      POP \t\t\t\n      JUMP \t\t\t\n    tag 80\t\t\t\n      JUMPDEST \t\t\t\n      PUSH 0\t\t\t\n      PUSH [tag] 178\t\t\t\n      PUSH 12\t\t\t\n      DUP4 \t\t\t\n      PUSH [tag] 74\t\t\t\n      JUMP \t\t\t\n    tag 178\t\t\t\n      JUMPDEST \t\t\t\n      SWAP2 \t\t\t\n      POP \t\t\t\n      PUSH [tag] 179\t\t\t\n      DUP3 \t\t\t\n      PUSH [tag] 79\t\t\t\n      JUMP \t\t\t\n    tag 179\t\t\t\n      JUMPDEST \t\t\t\n      PUSH 20\t\t\t\n      DUP3 \t\t\t\n      ADD \t\t\t\n      SWAP1 \t\t\t\n      POP \t\t\t\n      SWAP2 \t\t\t\n      SWAP1 \t\t\t\n      POP \t\t\t\n      JUMP \t\t\t\n    tag 47\t\t\t\n      JUMPDEST \t\t\t\n      PUSH 0\t\t\t\n      PUSH 20\t\t\t\n      DUP3 \t\t\t\n      ADD \t\t\t\n      SWAP1 \t\t\t\n      POP \t\t\t\n      DUP2 \t\t\t\n      DUP2 \t\t\t\n      SUB \t\t\t\n      PUSH 0\t\t\t\n      DUP4 \t\t\t\n      ADD \t\t\t\n      MSTORE \t\t\t\n      PUSH [tag] 181\t\t\t\n      DUP2 \t\t\t\n      PUSH [tag] 80\t\t\t\n      JUMP \t\t\t\n    tag 181\t\t\t\n      JUMPDEST \t\t\t\n      SWAP1 \t\t\t\n      POP \t\t\t\n      SWAP2 \t\t\t\n      SWAP1 \t\t\t\n      POP \t\t\t\n      JUMP \t\t\t\n    .data\n"
}