{
	"compilerInput": "{\"language\":\"Solidity\",\"sources\":{\"loyalty.sol\":{\"content\":\"// SPDX-License-Identifier: GPL-3.0\\r\\npragma solidity >=0.4.20 <0.9.0;\\r\\n\\r\\ncontract cryptoDorea {\\r\\n\\r\\n    bytes32 private _secretHash;\\r\\n    bytes32 private _initKey;\\r\\n\\r\\n    mapping(address=>bytes32) private _usersAuthToken;\\r\\n    mapping(address=>bytes32) private _usersAuthKey;\\r\\n    mapping (address=>uint256) private _purchaseIds;\\r\\n\\r\\n    struct encryptionResult{\\r\\n        bytes32 key;\\r\\n        bytes32 token;\\r\\n    }\\r\\n\\r\\n    // define constructor to get fund on deploy stage\\r\\n    constructor(bytes32 secret, bytes32 initKey) payable {\\r\\n\\r\\n        _secretHash = secret;\\r\\n        _initKey = initKey;\\r\\n\\r\\n    }\\r\\n\\r\\n    // Transfer Ether to Loyal Customers\\r\\n    function pay(address recipient, uint256  amount, uint256 campaignCount, uint256 shoppingCount, bytes32 secret, bytes32 key,  bytes32 token) public payable{\\r\\n    \\r\\n        userAuthorized(recipient, secret, key, token);\\r\\n        \\r\\n        require(amount <= address(this).balance, \\\"Insufficient balance\\\");\\r\\n\\r\\n        if(shoppingCount >= campaignCount){    \\r\\n\\r\\n            // Transfer Ether to the receipnt address\\r\\n            bool success = payable(recipient).send(amount);\\r\\n            require(success, \\\"Transfer failed\\\");\\r\\n\\r\\n            _usersAuthToken[recipient] = \\\"new token\\\";\\r\\n            _usersAuthKey[recipient] = \\\"new key\\\";\\r\\n\\r\\n            encrypt(recipient);\\r\\n\\r\\n        }else{\\r\\n\\r\\n            revert(\\\"User not Eligible!\\\");\\r\\n\\r\\n        }\\r\\n\\r\\n        \\r\\n    }\\r\\n\\r\\n    function userAuthorized(address recipient, bytes32 secret, bytes32 key, bytes32 token) private view {\\r\\n      \\r\\n        require(secret == _secretHash, \\\"User not Authorized: secret hash is wrong!\\\");\\r\\n\\r\\n        bytes32 _key = decrypt(recipient, key);\\r\\n        bytes32 _token = decrypt(recipient, token);\\r\\n\\r\\n        if (_usersAuthKey[recipient] != 0x0) {\\r\\n\\r\\n            require(_key == _usersAuthKey[recipient], \\\"User not Authorized: auth key is wrong!\\\");\\r\\n            require(_token == _usersAuthToken[recipient], \\\"User not Authorized: auth token is wrong!\\\");\\r\\n\\r\\n        }else{\\r\\n\\r\\n           require(_key == _initKey, \\\"User not Authorized: auth key is wrong!\\\");\\r\\n\\r\\n        }\\r\\n      \\r\\n    }\\r\\n\\r\\n\\r\\n    function encrypt(address recipient) public returns (encryptionResult memory) {\\r\\n        \\r\\n        if (_usersAuthKey[recipient] == 0x0) {\\r\\n\\r\\n            _usersAuthKey[recipient] = keccak256(abi.encodePacked(blockhash(block.number - 1), block.timestamp,msg.sender, \\\"key\\\"));\\r\\n            _usersAuthToken[recipient] = keccak256(abi.encodePacked(blockhash(block.number - 1), block.timestamp,msg.sender, \\\"token\\\"));\\r\\n        \\r\\n            bytes32 encKey = _usersAuthKey[recipient]  ^ _initKey;\\r\\n            bytes32 encToken = _usersAuthToken[recipient]  ^ _initKey;\\r\\n\\r\\n            return encryptionResult({ key: encKey, token: encToken });\\r\\n\\r\\n        }else{\\r\\n\\r\\n            _usersAuthKey[recipient] = keccak256(abi.encodePacked(blockhash(block.number - 1), block.timestamp,msg.sender, \\\"key\\\"));\\r\\n            _usersAuthToken[recipient] = keccak256(abi.encodePacked(blockhash(block.number - 1), block.timestamp,msg.sender, \\\"token\\\"));\\r\\n        \\r\\n            bytes32 encKey = _usersAuthKey[recipient]  ^ _usersAuthKey[recipient] ;\\r\\n            bytes32 encToken = _usersAuthToken[recipient]  ^ _usersAuthKey[recipient] ;\\r\\n\\r\\n            return encryptionResult({ key: encKey, token: encToken });\\r\\n\\r\\n        }\\r\\n    }\\r\\n\\r\\n    function decrypt(address recipient, bytes32 data) public view returns (bytes32) {\\r\\n\\r\\n        bytes32 decryptedValue;\\r\\n\\r\\n        if (_usersAuthKey[recipient] != 0x0) {\\r\\n            decryptedValue = data ^ _usersAuthKey[recipient];\\r\\n        }else{\\r\\n            decryptedValue = data ^ _initKey;\\r\\n        }\\r\\n\\r\\n        return decryptedValue;\\r\\n\\r\\n    }\\r\\n\\r\\n\\r\\n    // get balance of contract address\\r\\n    function getBalance() public view returns(uint256){\\r\\n\\r\\n        return address(this).balance;\\r\\n\\r\\n    }\\r\\n\\r\\n    \\r\\n    \\r\\n    function test1(address recipient)public view returns(bytes32){\\r\\n\\r\\n        return _usersAuthKey[recipient];\\r\\n    }\\r\\n    \\r\\n    function test2(address recipient)public view returns(bytes32){\\r\\n\\r\\n        return  _usersAuthToken[recipient];\\r\\n    }\\r\\n\\r\\n    function test3()public view returns(bytes32){\\r\\n\\r\\n        return  _initKey;\\r\\n    }\\r\\n\\r\\n     function test2()public view returns(bytes32){\\r\\n\\r\\n        return  _secretHash;\\r\\n    }\\r\\n\\r\\n}\"}},\"settings\":{\"optimizer\":{\"enabled\":false,\"runs\":200},\"outputSelection\":{\"*\":{\"\":[\"ast\"],\"*\":[\"abi\",\"metadata\",\"devdoc\",\"userdoc\",\"storageLayout\",\"evm.legacyAssembly\",\"evm.bytecode\",\"evm.deployedBytecode\",\"evm.methodIdentifiers\",\"evm.gasEstimates\",\"evm.assembly\"]}},\"remappings\":[]}}",
	"name": "cryptoDorea",
	"bytecode": {
		"linkReferences": {},
		"object": "6080604052604051620013b1380380620013b183398181016040528101906200002991906200007a565b815f81905550806001819055505050620000bf565b5f80fd5b5f819050919050565b620000568162000042565b811462000061575f80fd5b50565b5f8151905062000074816200004b565b92915050565b5f80604083850312156200009357620000926200003e565b5b5f620000a28582860162000064565b9250506020620000b58582860162000064565b9150509250929050565b6112e480620000cd5f395ff3fe60806040526004361061007a575f3560e01c80639a9ff5301161004d5780639a9ff53014610118578063a408b1f514610154578063b11bead414610190578063b14f014f146101cc5761007a565b80630a8e8e011461007e57806312065fe0146100a857806366e41cb7146100d257806394413614146100fc575b5f80fd5b348015610089575f80fd5b50610092610208565b60405161009f9190610b54565b60405180910390f35b3480156100b3575f80fd5b506100bc610211565b6040516100c99190610b85565b60405180910390f35b3480156100dd575f80fd5b506100e6610218565b6040516100f39190610b54565b60405180910390f35b61011660048036038101906101119190610c50565b610220565b005b348015610123575f80fd5b5061013e60048036038101906101399190610ced565b610405565b60405161014b9190610b54565b60405180910390f35b34801561015f575f80fd5b5061017a60048036038101906101759190610d2b565b6104a6565b6040516101879190610b54565b60405180910390f35b34801561019b575f80fd5b506101b660048036038101906101b19190610d2b565b6104ec565b6040516101c39190610b54565b60405180910390f35b3480156101d7575f80fd5b506101f260048036038101906101ed9190610d2b565b610532565b6040516101ff9190610d92565b60405180910390f35b5f600154905090565b5f47905090565b5f8054905090565b61022c8784848461092b565b4786111561026f576040517f08c379a000000000000000000000000000000000000000000000000000000000815260040161026690610e05565b60405180910390fd5b8484106103c1575f8773ffffffffffffffffffffffffffffffffffffffff166108fc8890811502906040515f60405180830381858888f193505050509050806102ed576040517f08c379a00000000000000000000000000000000000000000000000000000000081526004016102e490610e6d565b60405180910390fd5b7f6e657720746f6b656e000000000000000000000000000000000000000000000060025f8a73ffffffffffffffffffffffffffffffffffffffff1673ffffffffffffffffffffffffffffffffffffffff1681526020019081526020015f20819055507f6e6577206b65790000000000000000000000000000000000000000000000000060035f8a73ffffffffffffffffffffffffffffffffffffffff1673ffffffffffffffffffffffffffffffffffffffff1681526020019081526020015f20819055506103ba88610532565b50506103fc565b6040517f08c379a00000000000000000000000000000000000000000000000000000000081526004016103f390610ed5565b60405180910390fd5b50505050505050565b5f805f801b60035f8673ffffffffffffffffffffffffffffffffffffffff1673ffffffffffffffffffffffffffffffffffffffff1681526020019081526020015f2054146104945760035f8573ffffffffffffffffffffffffffffffffffffffff1673ffffffffffffffffffffffffffffffffffffffff1681526020019081526020015f20548318905061049c565b600154831890505b8091505092915050565b5f60035f8373ffffffffffffffffffffffffffffffffffffffff1673ffffffffffffffffffffffffffffffffffffffff1681526020019081526020015f20549050919050565b5f60025f8373ffffffffffffffffffffffffffffffffffffffff1673ffffffffffffffffffffffffffffffffffffffff1681526020019081526020015f20549050919050565b61053a610b1e565b5f801b60035f8473ffffffffffffffffffffffffffffffffffffffff1673ffffffffffffffffffffffffffffffffffffffff1681526020019081526020015f20540361071a5760014361058d9190610f20565b4042336040516020016105a29392919061102c565b6040516020818303038152906040528051906020012060035f8473ffffffffffffffffffffffffffffffffffffffff1673ffffffffffffffffffffffffffffffffffffffff1681526020019081526020015f20819055506001436106069190610f20565b40423360405160200161061b939291906110bd565b6040516020818303038152906040528051906020012060025f8473ffffffffffffffffffffffffffffffffffffffff1673ffffffffffffffffffffffffffffffffffffffff1681526020019081526020015f20819055505f60015460035f8573ffffffffffffffffffffffffffffffffffffffff1673ffffffffffffffffffffffffffffffffffffffff1681526020019081526020015f20541890505f60015460025f8673ffffffffffffffffffffffffffffffffffffffff1673ffffffffffffffffffffffffffffffffffffffff1681526020019081526020015f205418905060405180604001604052808381526020018281525092505050610926565b6001436107279190610f20565b40423360405160200161073c9392919061102c565b6040516020818303038152906040528051906020012060035f8473ffffffffffffffffffffffffffffffffffffffff1673ffffffffffffffffffffffffffffffffffffffff1681526020019081526020015f20819055506001436107a09190610f20565b4042336040516020016107b5939291906110bd565b6040516020818303038152906040528051906020012060025f8473ffffffffffffffffffffffffffffffffffffffff1673ffffffffffffffffffffffffffffffffffffffff1681526020019081526020015f20819055505f60035f8473ffffffffffffffffffffffffffffffffffffffff1673ffffffffffffffffffffffffffffffffffffffff1681526020019081526020015f205460035f8573ffffffffffffffffffffffffffffffffffffffff1673ffffffffffffffffffffffffffffffffffffffff1681526020019081526020015f20541890505f60035f8573ffffffffffffffffffffffffffffffffffffffff1673ffffffffffffffffffffffffffffffffffffffff1681526020019081526020015f205460025f8673ffffffffffffffffffffffffffffffffffffffff1673ffffffffffffffffffffffffffffffffffffffff1681526020019081526020015f2054189050604051806040016040528083815260200182815250925050505b919050565b5f54831461096e576040517f08c379a000000000000000000000000000000000000000000000000000000000815260040161096590611174565b60405180910390fd5b5f6109798584610405565b90505f6109868684610405565b90505f801b60035f8873ffffffffffffffffffffffffffffffffffffffff1673ffffffffffffffffffffffffffffffffffffffff1681526020019081526020015f205414610ad15760035f8773ffffffffffffffffffffffffffffffffffffffff1673ffffffffffffffffffffffffffffffffffffffff1681526020019081526020015f20548214610a4d576040517f08c379a0000000000000000000000000000000000000000000000000000000008152600401610a4490611202565b60405180910390fd5b60025f8773ffffffffffffffffffffffffffffffffffffffff1673ffffffffffffffffffffffffffffffffffffffff1681526020019081526020015f20548114610acc576040517f08c379a0000000000000000000000000000000000000000000000000000000008152600401610ac390611290565b60405180910390fd5b610b16565b6001548214610b15576040517f08c379a0000000000000000000000000000000000000000000000000000000008152600401610b0c90611202565b60405180910390fd5b5b505050505050565b60405180604001604052805f80191681526020015f80191681525090565b5f819050919050565b610b4e81610b3c565b82525050565b5f602082019050610b675f830184610b45565b92915050565b5f819050919050565b610b7f81610b6d565b82525050565b5f602082019050610b985f830184610b76565b92915050565b5f80fd5b5f73ffffffffffffffffffffffffffffffffffffffff82169050919050565b5f610bcb82610ba2565b9050919050565b610bdb81610bc1565b8114610be5575f80fd5b50565b5f81359050610bf681610bd2565b92915050565b610c0581610b6d565b8114610c0f575f80fd5b50565b5f81359050610c2081610bfc565b92915050565b610c2f81610b3c565b8114610c39575f80fd5b50565b5f81359050610c4a81610c26565b92915050565b5f805f805f805f60e0888a031215610c6b57610c6a610b9e565b5b5f610c788a828b01610be8565b9750506020610c898a828b01610c12565b9650506040610c9a8a828b01610c12565b9550506060610cab8a828b01610c12565b9450506080610cbc8a828b01610c3c565b93505060a0610ccd8a828b01610c3c565b92505060c0610cde8a828b01610c3c565b91505092959891949750929550565b5f8060408385031215610d0357610d02610b9e565b5b5f610d1085828601610be8565b9250506020610d2185828601610c3c565b9150509250929050565b5f60208284031215610d4057610d3f610b9e565b5b5f610d4d84828501610be8565b91505092915050565b610d5f81610b3c565b82525050565b604082015f820151610d795f850182610d56565b506020820151610d8c6020850182610d56565b50505050565b5f604082019050610da55f830184610d65565b92915050565b5f82825260208201905092915050565b7f496e73756666696369656e742062616c616e63650000000000000000000000005f82015250565b5f610def601483610dab565b9150610dfa82610dbb565b602082019050919050565b5f6020820190508181035f830152610e1c81610de3565b9050919050565b7f5472616e73666572206661696c656400000000000000000000000000000000005f82015250565b5f610e57600f83610dab565b9150610e6282610e23565b602082019050919050565b5f6020820190508181035f830152610e8481610e4b565b9050919050565b7f55736572206e6f7420456c696769626c652100000000000000000000000000005f82015250565b5f610ebf601283610dab565b9150610eca82610e8b565b602082019050919050565b5f6020820190508181035f830152610eec81610eb3565b9050919050565b7f4e487b71000000000000000000000000000000000000000000000000000000005f52601160045260245ffd5b5f610f2a82610b6d565b9150610f3583610b6d565b9250828203905081811115610f4d57610f4c610ef3565b5b92915050565b5f819050919050565b610f6d610f6882610b3c565b610f53565b82525050565b5f819050919050565b610f8d610f8882610b6d565b610f73565b82525050565b5f8160601b9050919050565b5f610fa982610f93565b9050919050565b5f610fba82610f9f565b9050919050565b610fd2610fcd82610bc1565b610fb0565b82525050565b5f81905092915050565b7f6b657900000000000000000000000000000000000000000000000000000000005f82015250565b5f611016600383610fd8565b915061102182610fe2565b600382019050919050565b5f6110378286610f5c565b6020820191506110478285610f7c565b6020820191506110578284610fc1565b6014820191506110668261100a565b9150819050949350505050565b7f746f6b656e0000000000000000000000000000000000000000000000000000005f82015250565b5f6110a7600583610fd8565b91506110b282611073565b600582019050919050565b5f6110c88286610f5c565b6020820191506110d88285610f7c565b6020820191506110e88284610fc1565b6014820191506110f78261109b565b9150819050949350505050565b7f55736572206e6f7420417574686f72697a65643a2073656372657420686173685f8201527f2069732077726f6e672100000000000000000000000000000000000000000000602082015250565b5f61115e602a83610dab565b915061116982611104565b604082019050919050565b5f6020820190508181035f83015261118b81611152565b9050919050565b7f55736572206e6f7420417574686f72697a65643a2061757468206b65792069735f8201527f2077726f6e672100000000000000000000000000000000000000000000000000602082015250565b5f6111ec602783610dab565b91506111f782611192565b604082019050919050565b5f6020820190508181035f830152611219816111e0565b9050919050565b7f55736572206e6f7420417574686f72697a65643a206175746820746f6b656e205f8201527f69732077726f6e67210000000000000000000000000000000000000000000000602082015250565b5f61127a602983610dab565b915061128582611220565b604082019050919050565b5f6020820190508181035f8301526112a78161126e565b905091905056fea2646970667358221220b0bcf1d8f7edab1ee5003f2d8c377009228b7d018723915150da625affbff9d164736f6c63430008160033",
		"opcodes": "PUSH1 0x80 PUSH1 0x40 MSTORE PUSH1 0x40 MLOAD PUSH3 0x13B1 CODESIZE SUB DUP1 PUSH3 0x13B1 DUP4 CODECOPY DUP2 DUP2 ADD PUSH1 0x40 MSTORE DUP2 ADD SWAP1 PUSH3 0x29 SWAP2 SWAP1 PUSH3 0x7A JUMP JUMPDEST DUP2 PUSH0 DUP2 SWAP1 SSTORE POP DUP1 PUSH1 0x1 DUP2 SWAP1 SSTORE POP POP POP PUSH3 0xBF JUMP JUMPDEST PUSH0 DUP1 REVERT JUMPDEST PUSH0 DUP2 SWAP1 POP SWAP2 SWAP1 POP JUMP JUMPDEST PUSH3 0x56 DUP2 PUSH3 0x42 JUMP JUMPDEST DUP2 EQ PUSH3 0x61 JUMPI PUSH0 DUP1 REVERT JUMPDEST POP JUMP JUMPDEST PUSH0 DUP2 MLOAD SWAP1 POP PUSH3 0x74 DUP2 PUSH3 0x4B JUMP JUMPDEST SWAP3 SWAP2 POP POP JUMP JUMPDEST PUSH0 DUP1 PUSH1 0x40 DUP4 DUP6 SUB SLT ISZERO PUSH3 0x93 JUMPI PUSH3 0x92 PUSH3 0x3E JUMP JUMPDEST JUMPDEST PUSH0 PUSH3 0xA2 DUP6 DUP3 DUP7 ADD PUSH3 0x64 JUMP JUMPDEST SWAP3 POP POP PUSH1 0x20 PUSH3 0xB5 DUP6 DUP3 DUP7 ADD PUSH3 0x64 JUMP JUMPDEST SWAP2 POP POP SWAP3 POP SWAP3 SWAP1 POP JUMP JUMPDEST PUSH2 0x12E4 DUP1 PUSH3 0xCD PUSH0 CODECOPY PUSH0 RETURN INVALID PUSH1 0x80 PUSH1 0x40 MSTORE PUSH1 0x4 CALLDATASIZE LT PUSH2 0x7A JUMPI PUSH0 CALLDATALOAD PUSH1 0xE0 SHR DUP1 PUSH4 0x9A9FF530 GT PUSH2 0x4D JUMPI DUP1 PUSH4 0x9A9FF530 EQ PUSH2 0x118 JUMPI DUP1 PUSH4 0xA408B1F5 EQ PUSH2 0x154 JUMPI DUP1 PUSH4 0xB11BEAD4 EQ PUSH2 0x190 JUMPI DUP1 PUSH4 0xB14F014F EQ PUSH2 0x1CC JUMPI PUSH2 0x7A JUMP JUMPDEST DUP1 PUSH4 0xA8E8E01 EQ PUSH2 0x7E JUMPI DUP1 PUSH4 0x12065FE0 EQ PUSH2 0xA8 JUMPI DUP1 PUSH4 0x66E41CB7 EQ PUSH2 0xD2 JUMPI DUP1 PUSH4 0x94413614 EQ PUSH2 0xFC JUMPI JUMPDEST PUSH0 DUP1 REVERT JUMPDEST CALLVALUE DUP1 ISZERO PUSH2 0x89 JUMPI PUSH0 DUP1 REVERT JUMPDEST POP PUSH2 0x92 PUSH2 0x208 JUMP JUMPDEST PUSH1 0x40 MLOAD PUSH2 0x9F SWAP2 SWAP1 PUSH2 0xB54 JUMP JUMPDEST PUSH1 0x40 MLOAD DUP1 SWAP2 SUB SWAP1 RETURN JUMPDEST CALLVALUE DUP1 ISZERO PUSH2 0xB3 JUMPI PUSH0 DUP1 REVERT JUMPDEST POP PUSH2 0xBC PUSH2 0x211 JUMP JUMPDEST PUSH1 0x40 MLOAD PUSH2 0xC9 SWAP2 SWAP1 PUSH2 0xB85 JUMP JUMPDEST PUSH1 0x40 MLOAD DUP1 SWAP2 SUB SWAP1 RETURN JUMPDEST CALLVALUE DUP1 ISZERO PUSH2 0xDD JUMPI PUSH0 DUP1 REVERT JUMPDEST POP PUSH2 0xE6 PUSH2 0x218 JUMP JUMPDEST PUSH1 0x40 MLOAD PUSH2 0xF3 SWAP2 SWAP1 PUSH2 0xB54 JUMP JUMPDEST PUSH1 0x40 MLOAD DUP1 SWAP2 SUB SWAP1 RETURN JUMPDEST PUSH2 0x116 PUSH1 0x4 DUP1 CALLDATASIZE SUB DUP2 ADD SWAP1 PUSH2 0x111 SWAP2 SWAP1 PUSH2 0xC50 JUMP JUMPDEST PUSH2 0x220 JUMP JUMPDEST STOP JUMPDEST CALLVALUE DUP1 ISZERO PUSH2 0x123 JUMPI PUSH0 DUP1 REVERT JUMPDEST POP PUSH2 0x13E PUSH1 0x4 DUP1 CALLDATASIZE SUB DUP2 ADD SWAP1 PUSH2 0x139 SWAP2 SWAP1 PUSH2 0xCED JUMP JUMPDEST PUSH2 0x405 JUMP JUMPDEST PUSH1 0x40 MLOAD PUSH2 0x14B SWAP2 SWAP1 PUSH2 0xB54 JUMP JUMPDEST PUSH1 0x40 MLOAD DUP1 SWAP2 SUB SWAP1 RETURN JUMPDEST CALLVALUE DUP1 ISZERO PUSH2 0x15F JUMPI PUSH0 DUP1 REVERT JUMPDEST POP PUSH2 0x17A PUSH1 0x4 DUP1 CALLDATASIZE SUB DUP2 ADD SWAP1 PUSH2 0x175 SWAP2 SWAP1 PUSH2 0xD2B JUMP JUMPDEST PUSH2 0x4A6 JUMP JUMPDEST PUSH1 0x40 MLOAD PUSH2 0x187 SWAP2 SWAP1 PUSH2 0xB54 JUMP JUMPDEST PUSH1 0x40 MLOAD DUP1 SWAP2 SUB SWAP1 RETURN JUMPDEST CALLVALUE DUP1 ISZERO PUSH2 0x19B JUMPI PUSH0 DUP1 REVERT JUMPDEST POP PUSH2 0x1B6 PUSH1 0x4 DUP1 CALLDATASIZE SUB DUP2 ADD SWAP1 PUSH2 0x1B1 SWAP2 SWAP1 PUSH2 0xD2B JUMP JUMPDEST PUSH2 0x4EC JUMP JUMPDEST PUSH1 0x40 MLOAD PUSH2 0x1C3 SWAP2 SWAP1 PUSH2 0xB54 JUMP JUMPDEST PUSH1 0x40 MLOAD DUP1 SWAP2 SUB SWAP1 RETURN JUMPDEST CALLVALUE DUP1 ISZERO PUSH2 0x1D7 JUMPI PUSH0 DUP1 REVERT JUMPDEST POP PUSH2 0x1F2 PUSH1 0x4 DUP1 CALLDATASIZE SUB DUP2 ADD SWAP1 PUSH2 0x1ED SWAP2 SWAP1 PUSH2 0xD2B JUMP JUMPDEST PUSH2 0x532 JUMP JUMPDEST PUSH1 0x40 MLOAD PUSH2 0x1FF SWAP2 SWAP1 PUSH2 0xD92 JUMP JUMPDEST PUSH1 0x40 MLOAD DUP1 SWAP2 SUB SWAP1 RETURN JUMPDEST PUSH0 PUSH1 0x1 SLOAD SWAP1 POP SWAP1 JUMP JUMPDEST PUSH0 SELFBALANCE SWAP1 POP SWAP1 JUMP JUMPDEST PUSH0 DUP1 SLOAD SWAP1 POP SWAP1 JUMP JUMPDEST PUSH2 0x22C DUP8 DUP5 DUP5 DUP5 PUSH2 0x92B JUMP JUMPDEST SELFBALANCE DUP7 GT ISZERO PUSH2 0x26F JUMPI PUSH1 0x40 MLOAD PUSH32 0x8C379A000000000000000000000000000000000000000000000000000000000 DUP2 MSTORE PUSH1 0x4 ADD PUSH2 0x266 SWAP1 PUSH2 0xE05 JUMP JUMPDEST PUSH1 0x40 MLOAD DUP1 SWAP2 SUB SWAP1 REVERT JUMPDEST DUP5 DUP5 LT PUSH2 0x3C1 JUMPI PUSH0 DUP8 PUSH20 0xFFFFFFFFFFFFFFFFFFFFFFFFFFFFFFFFFFFFFFFF AND PUSH2 0x8FC DUP9 SWAP1 DUP2 ISZERO MUL SWAP1 PUSH1 0x40 MLOAD PUSH0 PUSH1 0x40 MLOAD DUP1 DUP4 SUB DUP2 DUP6 DUP9 DUP9 CALL SWAP4 POP POP POP POP SWAP1 POP DUP1 PUSH2 0x2ED JUMPI PUSH1 0x40 MLOAD PUSH32 0x8C379A000000000000000000000000000000000000000000000000000000000 DUP2 MSTORE PUSH1 0x4 ADD PUSH2 0x2E4 SWAP1 PUSH2 0xE6D JUMP JUMPDEST PUSH1 0x40 MLOAD DUP1 SWAP2 SUB SWAP1 REVERT JUMPDEST PUSH32 0x6E657720746F6B656E0000000000000000000000000000000000000000000000 PUSH1 0x2 PUSH0 DUP11 PUSH20 0xFFFFFFFFFFFFFFFFFFFFFFFFFFFFFFFFFFFFFFFF AND PUSH20 0xFFFFFFFFFFFFFFFFFFFFFFFFFFFFFFFFFFFFFFFF AND DUP2 MSTORE PUSH1 0x20 ADD SWAP1 DUP2 MSTORE PUSH1 0x20 ADD PUSH0 KECCAK256 DUP2 SWAP1 SSTORE POP PUSH32 0x6E6577206B657900000000000000000000000000000000000000000000000000 PUSH1 0x3 PUSH0 DUP11 PUSH20 0xFFFFFFFFFFFFFFFFFFFFFFFFFFFFFFFFFFFFFFFF AND PUSH20 0xFFFFFFFFFFFFFFFFFFFFFFFFFFFFFFFFFFFFFFFF AND DUP2 MSTORE PUSH1 0x20 ADD SWAP1 DUP2 MSTORE PUSH1 0x20 ADD PUSH0 KECCAK256 DUP2 SWAP1 SSTORE POP PUSH2 0x3BA DUP9 PUSH2 0x532 JUMP JUMPDEST POP POP PUSH2 0x3FC JUMP JUMPDEST PUSH1 0x40 MLOAD PUSH32 0x8C379A000000000000000000000000000000000000000000000000000000000 DUP2 MSTORE PUSH1 0x4 ADD PUSH2 0x3F3 SWAP1 PUSH2 0xED5 JUMP JUMPDEST PUSH1 0x40 MLOAD DUP1 SWAP2 SUB SWAP1 REVERT JUMPDEST POP POP POP POP POP POP POP JUMP JUMPDEST PUSH0 DUP1 PUSH0 DUP1 SHL PUSH1 0x3 PUSH0 DUP7 PUSH20 0xFFFFFFFFFFFFFFFFFFFFFFFFFFFFFFFFFFFFFFFF AND PUSH20 0xFFFFFFFFFFFFFFFFFFFFFFFFFFFFFFFFFFFFFFFF AND DUP2 MSTORE PUSH1 0x20 ADD SWAP1 DUP2 MSTORE PUSH1 0x20 ADD PUSH0 KECCAK256 SLOAD EQ PUSH2 0x494 JUMPI PUSH1 0x3 PUSH0 DUP6 PUSH20 0xFFFFFFFFFFFFFFFFFFFFFFFFFFFFFFFFFFFFFFFF AND PUSH20 0xFFFFFFFFFFFFFFFFFFFFFFFFFFFFFFFFFFFFFFFF AND DUP2 MSTORE PUSH1 0x20 ADD SWAP1 DUP2 MSTORE PUSH1 0x20 ADD PUSH0 KECCAK256 SLOAD DUP4 XOR SWAP1 POP PUSH2 0x49C JUMP JUMPDEST PUSH1 0x1 SLOAD DUP4 XOR SWAP1 POP JUMPDEST DUP1 SWAP2 POP POP SWAP3 SWAP2 POP POP JUMP JUMPDEST PUSH0 PUSH1 0x3 PUSH0 DUP4 PUSH20 0xFFFFFFFFFFFFFFFFFFFFFFFFFFFFFFFFFFFFFFFF AND PUSH20 0xFFFFFFFFFFFFFFFFFFFFFFFFFFFFFFFFFFFFFFFF AND DUP2 MSTORE PUSH1 0x20 ADD SWAP1 DUP2 MSTORE PUSH1 0x20 ADD PUSH0 KECCAK256 SLOAD SWAP1 POP SWAP2 SWAP1 POP JUMP JUMPDEST PUSH0 PUSH1 0x2 PUSH0 DUP4 PUSH20 0xFFFFFFFFFFFFFFFFFFFFFFFFFFFFFFFFFFFFFFFF AND PUSH20 0xFFFFFFFFFFFFFFFFFFFFFFFFFFFFFFFFFFFFFFFF AND DUP2 MSTORE PUSH1 0x20 ADD SWAP1 DUP2 MSTORE PUSH1 0x20 ADD PUSH0 KECCAK256 SLOAD SWAP1 POP SWAP2 SWAP1 POP JUMP JUMPDEST PUSH2 0x53A PUSH2 0xB1E JUMP JUMPDEST PUSH0 DUP1 SHL PUSH1 0x3 PUSH0 DUP5 PUSH20 0xFFFFFFFFFFFFFFFFFFFFFFFFFFFFFFFFFFFFFFFF AND PUSH20 0xFFFFFFFFFFFFFFFFFFFFFFFFFFFFFFFFFFFFFFFF AND DUP2 MSTORE PUSH1 0x20 ADD SWAP1 DUP2 MSTORE PUSH1 0x20 ADD PUSH0 KECCAK256 SLOAD SUB PUSH2 0x71A JUMPI PUSH1 0x1 NUMBER PUSH2 0x58D SWAP2 SWAP1 PUSH2 0xF20 JUMP JUMPDEST BLOCKHASH TIMESTAMP CALLER PUSH1 0x40 MLOAD PUSH1 0x20 ADD PUSH2 0x5A2 SWAP4 SWAP3 SWAP2 SWAP1 PUSH2 0x102C JUMP JUMPDEST PUSH1 0x40 MLOAD PUSH1 0x20 DUP2 DUP4 SUB SUB DUP2 MSTORE SWAP1 PUSH1 0x40 MSTORE DUP1 MLOAD SWAP1 PUSH1 0x20 ADD KECCAK256 PUSH1 0x3 PUSH0 DUP5 PUSH20 0xFFFFFFFFFFFFFFFFFFFFFFFFFFFFFFFFFFFFFFFF AND PUSH20 0xFFFFFFFFFFFFFFFFFFFFFFFFFFFFFFFFFFFFFFFF AND DUP2 MSTORE PUSH1 0x20 ADD SWAP1 DUP2 MSTORE PUSH1 0x20 ADD PUSH0 KECCAK256 DUP2 SWAP1 SSTORE POP PUSH1 0x1 NUMBER PUSH2 0x606 SWAP2 SWAP1 PUSH2 0xF20 JUMP JUMPDEST BLOCKHASH TIMESTAMP CALLER PUSH1 0x40 MLOAD PUSH1 0x20 ADD PUSH2 0x61B SWAP4 SWAP3 SWAP2 SWAP1 PUSH2 0x10BD JUMP JUMPDEST PUSH1 0x40 MLOAD PUSH1 0x20 DUP2 DUP4 SUB SUB DUP2 MSTORE SWAP1 PUSH1 0x40 MSTORE DUP1 MLOAD SWAP1 PUSH1 0x20 ADD KECCAK256 PUSH1 0x2 PUSH0 DUP5 PUSH20 0xFFFFFFFFFFFFFFFFFFFFFFFFFFFFFFFFFFFFFFFF AND PUSH20 0xFFFFFFFFFFFFFFFFFFFFFFFFFFFFFFFFFFFFFFFF AND DUP2 MSTORE PUSH1 0x20 ADD SWAP1 DUP2 MSTORE PUSH1 0x20 ADD PUSH0 KECCAK256 DUP2 SWAP1 SSTORE POP PUSH0 PUSH1 0x1 SLOAD PUSH1 0x3 PUSH0 DUP6 PUSH20 0xFFFFFFFFFFFFFFFFFFFFFFFFFFFFFFFFFFFFFFFF AND PUSH20 0xFFFFFFFFFFFFFFFFFFFFFFFFFFFFFFFFFFFFFFFF AND DUP2 MSTORE PUSH1 0x20 ADD SWAP1 DUP2 MSTORE PUSH1 0x20 ADD PUSH0 KECCAK256 SLOAD XOR SWAP1 POP PUSH0 PUSH1 0x1 SLOAD PUSH1 0x2 PUSH0 DUP7 PUSH20 0xFFFFFFFFFFFFFFFFFFFFFFFFFFFFFFFFFFFFFFFF AND PUSH20 0xFFFFFFFFFFFFFFFFFFFFFFFFFFFFFFFFFFFFFFFF AND DUP2 MSTORE PUSH1 0x20 ADD SWAP1 DUP2 MSTORE PUSH1 0x20 ADD PUSH0 KECCAK256 SLOAD XOR SWAP1 POP PUSH1 0x40 MLOAD DUP1 PUSH1 0x40 ADD PUSH1 0x40 MSTORE DUP1 DUP4 DUP2 MSTORE PUSH1 0x20 ADD DUP3 DUP2 MSTORE POP SWAP3 POP POP POP PUSH2 0x926 JUMP JUMPDEST PUSH1 0x1 NUMBER PUSH2 0x727 SWAP2 SWAP1 PUSH2 0xF20 JUMP JUMPDEST BLOCKHASH TIMESTAMP CALLER PUSH1 0x40 MLOAD PUSH1 0x20 ADD PUSH2 0x73C SWAP4 SWAP3 SWAP2 SWAP1 PUSH2 0x102C JUMP JUMPDEST PUSH1 0x40 MLOAD PUSH1 0x20 DUP2 DUP4 SUB SUB DUP2 MSTORE SWAP1 PUSH1 0x40 MSTORE DUP1 MLOAD SWAP1 PUSH1 0x20 ADD KECCAK256 PUSH1 0x3 PUSH0 DUP5 PUSH20 0xFFFFFFFFFFFFFFFFFFFFFFFFFFFFFFFFFFFFFFFF AND PUSH20 0xFFFFFFFFFFFFFFFFFFFFFFFFFFFFFFFFFFFFFFFF AND DUP2 MSTORE PUSH1 0x20 ADD SWAP1 DUP2 MSTORE PUSH1 0x20 ADD PUSH0 KECCAK256 DUP2 SWAP1 SSTORE POP PUSH1 0x1 NUMBER PUSH2 0x7A0 SWAP2 SWAP1 PUSH2 0xF20 JUMP JUMPDEST BLOCKHASH TIMESTAMP CALLER PUSH1 0x40 MLOAD PUSH1 0x20 ADD PUSH2 0x7B5 SWAP4 SWAP3 SWAP2 SWAP1 PUSH2 0x10BD JUMP JUMPDEST PUSH1 0x40 MLOAD PUSH1 0x20 DUP2 DUP4 SUB SUB DUP2 MSTORE SWAP1 PUSH1 0x40 MSTORE DUP1 MLOAD SWAP1 PUSH1 0x20 ADD KECCAK256 PUSH1 0x2 PUSH0 DUP5 PUSH20 0xFFFFFFFFFFFFFFFFFFFFFFFFFFFFFFFFFFFFFFFF AND PUSH20 0xFFFFFFFFFFFFFFFFFFFFFFFFFFFFFFFFFFFFFFFF AND DUP2 MSTORE PUSH1 0x20 ADD SWAP1 DUP2 MSTORE PUSH1 0x20 ADD PUSH0 KECCAK256 DUP2 SWAP1 SSTORE POP PUSH0 PUSH1 0x3 PUSH0 DUP5 PUSH20 0xFFFFFFFFFFFFFFFFFFFFFFFFFFFFFFFFFFFFFFFF AND PUSH20 0xFFFFFFFFFFFFFFFFFFFFFFFFFFFFFFFFFFFFFFFF AND DUP2 MSTORE PUSH1 0x20 ADD SWAP1 DUP2 MSTORE PUSH1 0x20 ADD PUSH0 KECCAK256 SLOAD PUSH1 0x3 PUSH0 DUP6 PUSH20 0xFFFFFFFFFFFFFFFFFFFFFFFFFFFFFFFFFFFFFFFF AND PUSH20 0xFFFFFFFFFFFFFFFFFFFFFFFFFFFFFFFFFFFFFFFF AND DUP2 MSTORE PUSH1 0x20 ADD SWAP1 DUP2 MSTORE PUSH1 0x20 ADD PUSH0 KECCAK256 SLOAD XOR SWAP1 POP PUSH0 PUSH1 0x3 PUSH0 DUP6 PUSH20 0xFFFFFFFFFFFFFFFFFFFFFFFFFFFFFFFFFFFFFFFF AND PUSH20 0xFFFFFFFFFFFFFFFFFFFFFFFFFFFFFFFFFFFFFFFF AND DUP2 MSTORE PUSH1 0x20 ADD SWAP1 DUP2 MSTORE PUSH1 0x20 ADD PUSH0 KECCAK256 SLOAD PUSH1 0x2 PUSH0 DUP7 PUSH20 0xFFFFFFFFFFFFFFFFFFFFFFFFFFFFFFFFFFFFFFFF AND PUSH20 0xFFFFFFFFFFFFFFFFFFFFFFFFFFFFFFFFFFFFFFFF AND DUP2 MSTORE PUSH1 0x20 ADD SWAP1 DUP2 MSTORE PUSH1 0x20 ADD PUSH0 KECCAK256 SLOAD XOR SWAP1 POP PUSH1 0x40 MLOAD DUP1 PUSH1 0x40 ADD PUSH1 0x40 MSTORE DUP1 DUP4 DUP2 MSTORE PUSH1 0x20 ADD DUP3 DUP2 MSTORE POP SWAP3 POP POP POP JUMPDEST SWAP2 SWAP1 POP JUMP JUMPDEST PUSH0 SLOAD DUP4 EQ PUSH2 0x96E JUMPI PUSH1 0x40 MLOAD PUSH32 0x8C379A000000000000000000000000000000000000000000000000000000000 DUP2 MSTORE PUSH1 0x4 ADD PUSH2 0x965 SWAP1 PUSH2 0x1174 JUMP JUMPDEST PUSH1 0x40 MLOAD DUP1 SWAP2 SUB SWAP1 REVERT JUMPDEST PUSH0 PUSH2 0x979 DUP6 DUP5 PUSH2 0x405 JUMP JUMPDEST SWAP1 POP PUSH0 PUSH2 0x986 DUP7 DUP5 PUSH2 0x405 JUMP JUMPDEST SWAP1 POP PUSH0 DUP1 SHL PUSH1 0x3 PUSH0 DUP9 PUSH20 0xFFFFFFFFFFFFFFFFFFFFFFFFFFFFFFFFFFFFFFFF AND PUSH20 0xFFFFFFFFFFFFFFFFFFFFFFFFFFFFFFFFFFFFFFFF AND DUP2 MSTORE PUSH1 0x20 ADD SWAP1 DUP2 MSTORE PUSH1 0x20 ADD PUSH0 KECCAK256 SLOAD EQ PUSH2 0xAD1 JUMPI PUSH1 0x3 PUSH0 DUP8 PUSH20 0xFFFFFFFFFFFFFFFFFFFFFFFFFFFFFFFFFFFFFFFF AND PUSH20 0xFFFFFFFFFFFFFFFFFFFFFFFFFFFFFFFFFFFFFFFF AND DUP2 MSTORE PUSH1 0x20 ADD SWAP1 DUP2 MSTORE PUSH1 0x20 ADD PUSH0 KECCAK256 SLOAD DUP3 EQ PUSH2 0xA4D JUMPI PUSH1 0x40 MLOAD PUSH32 0x8C379A000000000000000000000000000000000000000000000000000000000 DUP2 MSTORE PUSH1 0x4 ADD PUSH2 0xA44 SWAP1 PUSH2 0x1202 JUMP JUMPDEST PUSH1 0x40 MLOAD DUP1 SWAP2 SUB SWAP1 REVERT JUMPDEST PUSH1 0x2 PUSH0 DUP8 PUSH20 0xFFFFFFFFFFFFFFFFFFFFFFFFFFFFFFFFFFFFFFFF AND PUSH20 0xFFFFFFFFFFFFFFFFFFFFFFFFFFFFFFFFFFFFFFFF AND DUP2 MSTORE PUSH1 0x20 ADD SWAP1 DUP2 MSTORE PUSH1 0x20 ADD PUSH0 KECCAK256 SLOAD DUP2 EQ PUSH2 0xACC JUMPI PUSH1 0x40 MLOAD PUSH32 0x8C379A000000000000000000000000000000000000000000000000000000000 DUP2 MSTORE PUSH1 0x4 ADD PUSH2 0xAC3 SWAP1 PUSH2 0x1290 JUMP JUMPDEST PUSH1 0x40 MLOAD DUP1 SWAP2 SUB SWAP1 REVERT JUMPDEST PUSH2 0xB16 JUMP JUMPDEST PUSH1 0x1 SLOAD DUP3 EQ PUSH2 0xB15 JUMPI PUSH1 0x40 MLOAD PUSH32 0x8C379A000000000000000000000000000000000000000000000000000000000 DUP2 MSTORE PUSH1 0x4 ADD PUSH2 0xB0C SWAP1 PUSH2 0x1202 JUMP JUMPDEST PUSH1 0x40 MLOAD DUP1 SWAP2 SUB SWAP1 REVERT JUMPDEST JUMPDEST POP POP POP POP POP POP JUMP JUMPDEST PUSH1 0x40 MLOAD DUP1 PUSH1 0x40 ADD PUSH1 0x40 MSTORE DUP1 PUSH0 DUP1 NOT AND DUP2 MSTORE PUSH1 0x20 ADD PUSH0 DUP1 NOT AND DUP2 MSTORE POP SWAP1 JUMP JUMPDEST PUSH0 DUP2 SWAP1 POP SWAP2 SWAP1 POP JUMP JUMPDEST PUSH2 0xB4E DUP2 PUSH2 0xB3C JUMP JUMPDEST DUP3 MSTORE POP POP JUMP JUMPDEST PUSH0 PUSH1 0x20 DUP3 ADD SWAP1 POP PUSH2 0xB67 PUSH0 DUP4 ADD DUP5 PUSH2 0xB45 JUMP JUMPDEST SWAP3 SWAP2 POP POP JUMP JUMPDEST PUSH0 DUP2 SWAP1 POP SWAP2 SWAP1 POP JUMP JUMPDEST PUSH2 0xB7F DUP2 PUSH2 0xB6D JUMP JUMPDEST DUP3 MSTORE POP POP JUMP JUMPDEST PUSH0 PUSH1 0x20 DUP3 ADD SWAP1 POP PUSH2 0xB98 PUSH0 DUP4 ADD DUP5 PUSH2 0xB76 JUMP JUMPDEST SWAP3 SWAP2 POP POP JUMP JUMPDEST PUSH0 DUP1 REVERT JUMPDEST PUSH0 PUSH20 0xFFFFFFFFFFFFFFFFFFFFFFFFFFFFFFFFFFFFFFFF DUP3 AND SWAP1 POP SWAP2 SWAP1 POP JUMP JUMPDEST PUSH0 PUSH2 0xBCB DUP3 PUSH2 0xBA2 JUMP JUMPDEST SWAP1 POP SWAP2 SWAP1 POP JUMP JUMPDEST PUSH2 0xBDB DUP2 PUSH2 0xBC1 JUMP JUMPDEST DUP2 EQ PUSH2 0xBE5 JUMPI PUSH0 DUP1 REVERT JUMPDEST POP JUMP JUMPDEST PUSH0 DUP2 CALLDATALOAD SWAP1 POP PUSH2 0xBF6 DUP2 PUSH2 0xBD2 JUMP JUMPDEST SWAP3 SWAP2 POP POP JUMP JUMPDEST PUSH2 0xC05 DUP2 PUSH2 0xB6D JUMP JUMPDEST DUP2 EQ PUSH2 0xC0F JUMPI PUSH0 DUP1 REVERT JUMPDEST POP JUMP JUMPDEST PUSH0 DUP2 CALLDATALOAD SWAP1 POP PUSH2 0xC20 DUP2 PUSH2 0xBFC JUMP JUMPDEST SWAP3 SWAP2 POP POP JUMP JUMPDEST PUSH2 0xC2F DUP2 PUSH2 0xB3C JUMP JUMPDEST DUP2 EQ PUSH2 0xC39 JUMPI PUSH0 DUP1 REVERT JUMPDEST POP JUMP JUMPDEST PUSH0 DUP2 CALLDATALOAD SWAP1 POP PUSH2 0xC4A DUP2 PUSH2 0xC26 JUMP JUMPDEST SWAP3 SWAP2 POP POP JUMP JUMPDEST PUSH0 DUP1 PUSH0 DUP1 PUSH0 DUP1 PUSH0 PUSH1 0xE0 DUP9 DUP11 SUB SLT ISZERO PUSH2 0xC6B JUMPI PUSH2 0xC6A PUSH2 0xB9E JUMP JUMPDEST JUMPDEST PUSH0 PUSH2 0xC78 DUP11 DUP3 DUP12 ADD PUSH2 0xBE8 JUMP JUMPDEST SWAP8 POP POP PUSH1 0x20 PUSH2 0xC89 DUP11 DUP3 DUP12 ADD PUSH2 0xC12 JUMP JUMPDEST SWAP7 POP POP PUSH1 0x40 PUSH2 0xC9A DUP11 DUP3 DUP12 ADD PUSH2 0xC12 JUMP JUMPDEST SWAP6 POP POP PUSH1 0x60 PUSH2 0xCAB DUP11 DUP3 DUP12 ADD PUSH2 0xC12 JUMP JUMPDEST SWAP5 POP POP PUSH1 0x80 PUSH2 0xCBC DUP11 DUP3 DUP12 ADD PUSH2 0xC3C JUMP JUMPDEST SWAP4 POP POP PUSH1 0xA0 PUSH2 0xCCD DUP11 DUP3 DUP12 ADD PUSH2 0xC3C JUMP JUMPDEST SWAP3 POP POP PUSH1 0xC0 PUSH2 0xCDE DUP11 DUP3 DUP12 ADD PUSH2 0xC3C JUMP JUMPDEST SWAP2 POP POP SWAP3 SWAP6 SWAP9 SWAP2 SWAP5 SWAP8 POP SWAP3 SWAP6 POP JUMP JUMPDEST PUSH0 DUP1 PUSH1 0x40 DUP4 DUP6 SUB SLT ISZERO PUSH2 0xD03 JUMPI PUSH2 0xD02 PUSH2 0xB9E JUMP JUMPDEST JUMPDEST PUSH0 PUSH2 0xD10 DUP6 DUP3 DUP7 ADD PUSH2 0xBE8 JUMP JUMPDEST SWAP3 POP POP PUSH1 0x20 PUSH2 0xD21 DUP6 DUP3 DUP7 ADD PUSH2 0xC3C JUMP JUMPDEST SWAP2 POP POP SWAP3 POP SWAP3 SWAP1 POP JUMP JUMPDEST PUSH0 PUSH1 0x20 DUP3 DUP5 SUB SLT ISZERO PUSH2 0xD40 JUMPI PUSH2 0xD3F PUSH2 0xB9E JUMP JUMPDEST JUMPDEST PUSH0 PUSH2 0xD4D DUP5 DUP3 DUP6 ADD PUSH2 0xBE8 JUMP JUMPDEST SWAP2 POP POP SWAP3 SWAP2 POP POP JUMP JUMPDEST PUSH2 0xD5F DUP2 PUSH2 0xB3C JUMP JUMPDEST DUP3 MSTORE POP POP JUMP JUMPDEST PUSH1 0x40 DUP3 ADD PUSH0 DUP3 ADD MLOAD PUSH2 0xD79 PUSH0 DUP6 ADD DUP3 PUSH2 0xD56 JUMP JUMPDEST POP PUSH1 0x20 DUP3 ADD MLOAD PUSH2 0xD8C PUSH1 0x20 DUP6 ADD DUP3 PUSH2 0xD56 JUMP JUMPDEST POP POP POP POP JUMP JUMPDEST PUSH0 PUSH1 0x40 DUP3 ADD SWAP1 POP PUSH2 0xDA5 PUSH0 DUP4 ADD DUP5 PUSH2 0xD65 JUMP JUMPDEST SWAP3 SWAP2 POP POP JUMP JUMPDEST PUSH0 DUP3 DUP3 MSTORE PUSH1 0x20 DUP3 ADD SWAP1 POP SWAP3 SWAP2 POP POP JUMP JUMPDEST PUSH32 0x496E73756666696369656E742062616C616E6365000000000000000000000000 PUSH0 DUP3 ADD MSTORE POP JUMP JUMPDEST PUSH0 PUSH2 0xDEF PUSH1 0x14 DUP4 PUSH2 0xDAB JUMP JUMPDEST SWAP2 POP PUSH2 0xDFA DUP3 PUSH2 0xDBB JUMP JUMPDEST PUSH1 0x20 DUP3 ADD SWAP1 POP SWAP2 SWAP1 POP JUMP JUMPDEST PUSH0 PUSH1 0x20 DUP3 ADD SWAP1 POP DUP2 DUP2 SUB PUSH0 DUP4 ADD MSTORE PUSH2 0xE1C DUP2 PUSH2 0xDE3 JUMP JUMPDEST SWAP1 POP SWAP2 SWAP1 POP JUMP JUMPDEST PUSH32 0x5472616E73666572206661696C65640000000000000000000000000000000000 PUSH0 DUP3 ADD MSTORE POP JUMP JUMPDEST PUSH0 PUSH2 0xE57 PUSH1 0xF DUP4 PUSH2 0xDAB JUMP JUMPDEST SWAP2 POP PUSH2 0xE62 DUP3 PUSH2 0xE23 JUMP JUMPDEST PUSH1 0x20 DUP3 ADD SWAP1 POP SWAP2 SWAP1 POP JUMP JUMPDEST PUSH0 PUSH1 0x20 DUP3 ADD SWAP1 POP DUP2 DUP2 SUB PUSH0 DUP4 ADD MSTORE PUSH2 0xE84 DUP2 PUSH2 0xE4B JUMP JUMPDEST SWAP1 POP SWAP2 SWAP1 POP JUMP JUMPDEST PUSH32 0x55736572206E6F7420456C696769626C65210000000000000000000000000000 PUSH0 DUP3 ADD MSTORE POP JUMP JUMPDEST PUSH0 PUSH2 0xEBF PUSH1 0x12 DUP4 PUSH2 0xDAB JUMP JUMPDEST SWAP2 POP PUSH2 0xECA DUP3 PUSH2 0xE8B JUMP JUMPDEST PUSH1 0x20 DUP3 ADD SWAP1 POP SWAP2 SWAP1 POP JUMP JUMPDEST PUSH0 PUSH1 0x20 DUP3 ADD SWAP1 POP DUP2 DUP2 SUB PUSH0 DUP4 ADD MSTORE PUSH2 0xEEC DUP2 PUSH2 0xEB3 JUMP JUMPDEST SWAP1 POP SWAP2 SWAP1 POP JUMP JUMPDEST PUSH32 0x4E487B7100000000000000000000000000000000000000000000000000000000 PUSH0 MSTORE PUSH1 0x11 PUSH1 0x4 MSTORE PUSH1 0x24 PUSH0 REVERT JUMPDEST PUSH0 PUSH2 0xF2A DUP3 PUSH2 0xB6D JUMP JUMPDEST SWAP2 POP PUSH2 0xF35 DUP4 PUSH2 0xB6D JUMP JUMPDEST SWAP3 POP DUP3 DUP3 SUB SWAP1 POP DUP2 DUP2 GT ISZERO PUSH2 0xF4D JUMPI PUSH2 0xF4C PUSH2 0xEF3 JUMP JUMPDEST JUMPDEST SWAP3 SWAP2 POP POP JUMP JUMPDEST PUSH0 DUP2 SWAP1 POP SWAP2 SWAP1 POP JUMP JUMPDEST PUSH2 0xF6D PUSH2 0xF68 DUP3 PUSH2 0xB3C JUMP JUMPDEST PUSH2 0xF53 JUMP JUMPDEST DUP3 MSTORE POP POP JUMP JUMPDEST PUSH0 DUP2 SWAP1 POP SWAP2 SWAP1 POP JUMP JUMPDEST PUSH2 0xF8D PUSH2 0xF88 DUP3 PUSH2 0xB6D JUMP JUMPDEST PUSH2 0xF73 JUMP JUMPDEST DUP3 MSTORE POP POP JUMP JUMPDEST PUSH0 DUP2 PUSH1 0x60 SHL SWAP1 POP SWAP2 SWAP1 POP JUMP JUMPDEST PUSH0 PUSH2 0xFA9 DUP3 PUSH2 0xF93 JUMP JUMPDEST SWAP1 POP SWAP2 SWAP1 POP JUMP JUMPDEST PUSH0 PUSH2 0xFBA DUP3 PUSH2 0xF9F JUMP JUMPDEST SWAP1 POP SWAP2 SWAP1 POP JUMP JUMPDEST PUSH2 0xFD2 PUSH2 0xFCD DUP3 PUSH2 0xBC1 JUMP JUMPDEST PUSH2 0xFB0 JUMP JUMPDEST DUP3 MSTORE POP POP JUMP JUMPDEST PUSH0 DUP2 SWAP1 POP SWAP3 SWAP2 POP POP JUMP JUMPDEST PUSH32 0x6B65790000000000000000000000000000000000000000000000000000000000 PUSH0 DUP3 ADD MSTORE POP JUMP JUMPDEST PUSH0 PUSH2 0x1016 PUSH1 0x3 DUP4 PUSH2 0xFD8 JUMP JUMPDEST SWAP2 POP PUSH2 0x1021 DUP3 PUSH2 0xFE2 JUMP JUMPDEST PUSH1 0x3 DUP3 ADD SWAP1 POP SWAP2 SWAP1 POP JUMP JUMPDEST PUSH0 PUSH2 0x1037 DUP3 DUP7 PUSH2 0xF5C JUMP JUMPDEST PUSH1 0x20 DUP3 ADD SWAP2 POP PUSH2 0x1047 DUP3 DUP6 PUSH2 0xF7C JUMP JUMPDEST PUSH1 0x20 DUP3 ADD SWAP2 POP PUSH2 0x1057 DUP3 DUP5 PUSH2 0xFC1 JUMP JUMPDEST PUSH1 0x14 DUP3 ADD SWAP2 POP PUSH2 0x1066 DUP3 PUSH2 0x100A JUMP JUMPDEST SWAP2 POP DUP2 SWAP1 POP SWAP5 SWAP4 POP POP POP POP JUMP JUMPDEST PUSH32 0x746F6B656E000000000000000000000000000000000000000000000000000000 PUSH0 DUP3 ADD MSTORE POP JUMP JUMPDEST PUSH0 PUSH2 0x10A7 PUSH1 0x5 DUP4 PUSH2 0xFD8 JUMP JUMPDEST SWAP2 POP PUSH2 0x10B2 DUP3 PUSH2 0x1073 JUMP JUMPDEST PUSH1 0x5 DUP3 ADD SWAP1 POP SWAP2 SWAP1 POP JUMP JUMPDEST PUSH0 PUSH2 0x10C8 DUP3 DUP7 PUSH2 0xF5C JUMP JUMPDEST PUSH1 0x20 DUP3 ADD SWAP2 POP PUSH2 0x10D8 DUP3 DUP6 PUSH2 0xF7C JUMP JUMPDEST PUSH1 0x20 DUP3 ADD SWAP2 POP PUSH2 0x10E8 DUP3 DUP5 PUSH2 0xFC1 JUMP JUMPDEST PUSH1 0x14 DUP3 ADD SWAP2 POP PUSH2 0x10F7 DUP3 PUSH2 0x109B JUMP JUMPDEST SWAP2 POP DUP2 SWAP1 POP SWAP5 SWAP4 POP POP POP POP JUMP JUMPDEST PUSH32 0x55736572206E6F7420417574686F72697A65643A207365637265742068617368 PUSH0 DUP3 ADD MSTORE PUSH32 0x2069732077726F6E672100000000000000000000000000000000000000000000 PUSH1 0x20 DUP3 ADD MSTORE POP JUMP JUMPDEST PUSH0 PUSH2 0x115E PUSH1 0x2A DUP4 PUSH2 0xDAB JUMP JUMPDEST SWAP2 POP PUSH2 0x1169 DUP3 PUSH2 0x1104 JUMP JUMPDEST PUSH1 0x40 DUP3 ADD SWAP1 POP SWAP2 SWAP1 POP JUMP JUMPDEST PUSH0 PUSH1 0x20 DUP3 ADD SWAP1 POP DUP2 DUP2 SUB PUSH0 DUP4 ADD MSTORE PUSH2 0x118B DUP2 PUSH2 0x1152 JUMP JUMPDEST SWAP1 POP SWAP2 SWAP1 POP JUMP JUMPDEST PUSH32 0x55736572206E6F7420417574686F72697A65643A2061757468206B6579206973 PUSH0 DUP3 ADD MSTORE PUSH32 0x2077726F6E672100000000000000000000000000000000000000000000000000 PUSH1 0x20 DUP3 ADD MSTORE POP JUMP JUMPDEST PUSH0 PUSH2 0x11EC PUSH1 0x27 DUP4 PUSH2 0xDAB JUMP JUMPDEST SWAP2 POP PUSH2 0x11F7 DUP3 PUSH2 0x1192 JUMP JUMPDEST PUSH1 0x40 DUP3 ADD SWAP1 POP SWAP2 SWAP1 POP JUMP JUMPDEST PUSH0 PUSH1 0x20 DUP3 ADD SWAP1 POP DUP2 DUP2 SUB PUSH0 DUP4 ADD MSTORE PUSH2 0x1219 DUP2 PUSH2 0x11E0 JUMP JUMPDEST SWAP1 POP SWAP2 SWAP1 POP JUMP JUMPDEST PUSH32 0x55736572206E6F7420417574686F72697A65643A206175746820746F6B656E20 PUSH0 DUP3 ADD MSTORE PUSH32 0x69732077726F6E67210000000000000000000000000000000000000000000000 PUSH1 0x20 DUP3 ADD MSTORE POP JUMP JUMPDEST PUSH0 PUSH2 0x127A PUSH1 0x29 DUP4 PUSH2 0xDAB JUMP JUMPDEST SWAP2 POP PUSH2 0x1285 DUP3 PUSH2 0x1220 JUMP JUMPDEST PUSH1 0x40 DUP3 ADD SWAP1 POP SWAP2 SWAP1 POP JUMP JUMPDEST PUSH0 PUSH1 0x20 DUP3 ADD SWAP1 POP DUP2 DUP2 SUB PUSH0 DUP4 ADD MSTORE PUSH2 0x12A7 DUP2 PUSH2 0x126E JUMP JUMPDEST SWAP1 POP SWAP2 SWAP1 POP JUMP INVALID LOG2 PUSH5 0x6970667358 0x22 SLT KECCAK256 0xB0 0xBC CALL 0xD8 0xF7 0xED 0xAB 0x1E 0xE5 STOP EXTCODEHASH 0x2D DUP13 CALLDATACOPY PUSH17 0x9228B7D018723915150DA625AFFBFF9D1 PUSH5 0x736F6C6343 STOP ADDMOD AND STOP CALLER "
	},
	"abi": [
		{
			"inputs": [
				{
					"internalType": "bytes32",
					"name": "secret",
					"type": "bytes32"
				},
				{
					"internalType": "bytes32",
					"name": "initKey",
					"type": "bytes32"
				}
			],
			"stateMutability": "payable",
			"type": "constructor"
		},
		{
			"inputs": [
				{
					"internalType": "address",
					"name": "recipient",
					"type": "address"
				},
				{
					"internalType": "bytes32",
					"name": "data",
					"type": "bytes32"
				}
			],
			"name": "decrypt",
			"outputs": [
				{
					"internalType": "bytes32",
					"name": "",
					"type": "bytes32"
				}
			],
			"stateMutability": "view",
			"type": "function"
		},
		{
			"inputs": [
				{
					"internalType": "address",
					"name": "recipient",
					"type": "address"
				}
			],
			"name": "encrypt",
			"outputs": [
				{
					"components": [
						{
							"internalType": "bytes32",
							"name": "key",
							"type": "bytes32"
						},
						{
							"internalType": "bytes32",
							"name": "token",
							"type": "bytes32"
						}
					],
					"internalType": "struct cryptoDorea.encryptionResult",
					"name": "",
					"type": "tuple"
				}
			],
			"stateMutability": "nonpayable",
			"type": "function"
		},
		{
			"inputs": [],
			"name": "getBalance",
			"outputs": [
				{
					"internalType": "uint256",
					"name": "",
					"type": "uint256"
				}
			],
			"stateMutability": "view",
			"type": "function"
		},
		{
			"inputs": [
				{
					"internalType": "address",
					"name": "recipient",
					"type": "address"
				},
				{
					"internalType": "uint256",
					"name": "amount",
					"type": "uint256"
				},
				{
					"internalType": "uint256",
					"name": "campaignCount",
					"type": "uint256"
				},
				{
					"internalType": "uint256",
					"name": "shoppingCount",
					"type": "uint256"
				},
				{
					"internalType": "bytes32",
					"name": "secret",
					"type": "bytes32"
				},
				{
					"internalType": "bytes32",
					"name": "key",
					"type": "bytes32"
				},
				{
					"internalType": "bytes32",
					"name": "token",
					"type": "bytes32"
				}
			],
			"name": "pay",
			"outputs": [],
			"stateMutability": "payable",
			"type": "function"
		},
		{
			"inputs": [
				{
					"internalType": "address",
					"name": "recipient",
					"type": "address"
				}
			],
			"name": "test1",
			"outputs": [
				{
					"internalType": "bytes32",
					"name": "",
					"type": "bytes32"
				}
			],
			"stateMutability": "view",
			"type": "function"
		},
		{
			"inputs": [],
			"name": "test2",
			"outputs": [
				{
					"internalType": "bytes32",
					"name": "",
					"type": "bytes32"
				}
			],
			"stateMutability": "view",
			"type": "function"
		},
		{
			"inputs": [
				{
					"internalType": "address",
					"name": "recipient",
					"type": "address"
				}
			],
			"name": "test2",
			"outputs": [
				{
					"internalType": "bytes32",
					"name": "",
					"type": "bytes32"
				}
			],
			"stateMutability": "view",
			"type": "function"
		},
		{
			"inputs": [],
			"name": "test3",
			"outputs": [
				{
					"internalType": "bytes32",
					"name": "",
					"type": "bytes32"
				}
			],
			"stateMutability": "view",
			"type": "function"
		}
	],
	"storageLayout": {
		"storage": [
			{
				"astId": 3,
				"contract": "loyalty.sol:cryptoDorea",
				"label": "_secretHash",
				"offset": 0,
				"slot": "0",
				"type": "t_bytes32"
			},
			{
				"astId": 5,
				"contract": "loyalty.sol:cryptoDorea",
				"label": "_initKey",
				"offset": 0,
				"slot": "1",
				"type": "t_bytes32"
			},
			{
				"astId": 9,
				"contract": "loyalty.sol:cryptoDorea",
				"label": "_usersAuthToken",
				"offset": 0,
				"slot": "2",
				"type": "t_mapping(t_address,t_bytes32)"
			},
			{
				"astId": 13,
				"contract": "loyalty.sol:cryptoDorea",
				"label": "_usersAuthKey",
				"offset": 0,
				"slot": "3",
				"type": "t_mapping(t_address,t_bytes32)"
			},
			{
				"astId": 17,
				"contract": "loyalty.sol:cryptoDorea",
				"label": "_purchaseIds",
				"offset": 0,
				"slot": "4",
				"type": "t_mapping(t_address,t_uint256)"
			}
		],
		"types": {
			"t_address": {
				"encoding": "inplace",
				"label": "address",
				"numberOfBytes": "20"
			},
			"t_bytes32": {
				"encoding": "inplace",
				"label": "bytes32",
				"numberOfBytes": "32"
			},
			"t_mapping(t_address,t_bytes32)": {
				"encoding": "mapping",
				"key": "t_address",
				"label": "mapping(address => bytes32)",
				"numberOfBytes": "32",
				"value": "t_bytes32"
			},
			"t_mapping(t_address,t_uint256)": {
				"encoding": "mapping",
				"key": "t_address",
				"label": "mapping(address => uint256)",
				"numberOfBytes": "32",
				"value": "t_uint256"
			},
			"t_uint256": {
				"encoding": "inplace",
				"label": "uint256",
				"numberOfBytes": "32"
			}
		}
	},
	"web3Deploy": "var secret = /* var of type bytes32 here */ ;\nvar initKey = /* var of type bytes32 here */ ;\nvar cryptodoreaContract = new web3.eth.Contract([{\"inputs\":[{\"internalType\":\"bytes32\",\"name\":\"secret\",\"type\":\"bytes32\"},{\"internalType\":\"bytes32\",\"name\":\"initKey\",\"type\":\"bytes32\"}],\"stateMutability\":\"payable\",\"type\":\"constructor\"},{\"inputs\":[{\"internalType\":\"address\",\"name\":\"recipient\",\"type\":\"address\"},{\"internalType\":\"bytes32\",\"name\":\"data\",\"type\":\"bytes32\"}],\"name\":\"decrypt\",\"outputs\":[{\"internalType\":\"bytes32\",\"name\":\"\",\"type\":\"bytes32\"}],\"stateMutability\":\"view\",\"type\":\"function\"},{\"inputs\":[{\"internalType\":\"address\",\"name\":\"recipient\",\"type\":\"address\"}],\"name\":\"encrypt\",\"outputs\":[{\"components\":[{\"internalType\":\"bytes32\",\"name\":\"key\",\"type\":\"bytes32\"},{\"internalType\":\"bytes32\",\"name\":\"token\",\"type\":\"bytes32\"}],\"internalType\":\"struct cryptoDorea.encryptionResult\",\"name\":\"\",\"type\":\"tuple\"}],\"stateMutability\":\"nonpayable\",\"type\":\"function\"},{\"inputs\":[],\"name\":\"getBalance\",\"outputs\":[{\"internalType\":\"uint256\",\"name\":\"\",\"type\":\"uint256\"}],\"stateMutability\":\"view\",\"type\":\"function\"},{\"inputs\":[{\"internalType\":\"address\",\"name\":\"recipient\",\"type\":\"address\"},{\"internalType\":\"uint256\",\"name\":\"amount\",\"type\":\"uint256\"},{\"internalType\":\"uint256\",\"name\":\"campaignCount\",\"type\":\"uint256\"},{\"internalType\":\"uint256\",\"name\":\"shoppingCount\",\"type\":\"uint256\"},{\"internalType\":\"bytes32\",\"name\":\"secret\",\"type\":\"bytes32\"},{\"internalType\":\"bytes32\",\"name\":\"key\",\"type\":\"bytes32\"},{\"internalType\":\"bytes32\",\"name\":\"token\",\"type\":\"bytes32\"}],\"name\":\"pay\",\"outputs\":[],\"stateMutability\":\"payable\",\"type\":\"function\"},{\"inputs\":[{\"internalType\":\"address\",\"name\":\"recipient\",\"type\":\"address\"}],\"name\":\"test1\",\"outputs\":[{\"internalType\":\"bytes32\",\"name\":\"\",\"type\":\"bytes32\"}],\"stateMutability\":\"view\",\"type\":\"function\"},{\"inputs\":[],\"name\":\"test2\",\"outputs\":[{\"internalType\":\"bytes32\",\"name\":\"\",\"type\":\"bytes32\"}],\"stateMutability\":\"view\",\"type\":\"function\"},{\"inputs\":[{\"internalType\":\"address\",\"name\":\"recipient\",\"type\":\"address\"}],\"name\":\"test2\",\"outputs\":[{\"internalType\":\"bytes32\",\"name\":\"\",\"type\":\"bytes32\"}],\"stateMutability\":\"view\",\"type\":\"function\"},{\"inputs\":[],\"name\":\"test3\",\"outputs\":[{\"internalType\":\"bytes32\",\"name\":\"\",\"type\":\"bytes32\"}],\"stateMutability\":\"view\",\"type\":\"function\"}]);\nvar cryptodorea = cryptodoreaContract.deploy({\n     data: '0x6080604052604051620013b1380380620013b183398181016040528101906200002991906200007a565b815f81905550806001819055505050620000bf565b5f80fd5b5f819050919050565b620000568162000042565b811462000061575f80fd5b50565b5f8151905062000074816200004b565b92915050565b5f80604083850312156200009357620000926200003e565b5b5f620000a28582860162000064565b9250506020620000b58582860162000064565b9150509250929050565b6112e480620000cd5f395ff3fe60806040526004361061007a575f3560e01c80639a9ff5301161004d5780639a9ff53014610118578063a408b1f514610154578063b11bead414610190578063b14f014f146101cc5761007a565b80630a8e8e011461007e57806312065fe0146100a857806366e41cb7146100d257806394413614146100fc575b5f80fd5b348015610089575f80fd5b50610092610208565b60405161009f9190610b54565b60405180910390f35b3480156100b3575f80fd5b506100bc610211565b6040516100c99190610b85565b60405180910390f35b3480156100dd575f80fd5b506100e6610218565b6040516100f39190610b54565b60405180910390f35b61011660048036038101906101119190610c50565b610220565b005b348015610123575f80fd5b5061013e60048036038101906101399190610ced565b610405565b60405161014b9190610b54565b60405180910390f35b34801561015f575f80fd5b5061017a60048036038101906101759190610d2b565b6104a6565b6040516101879190610b54565b60405180910390f35b34801561019b575f80fd5b506101b660048036038101906101b19190610d2b565b6104ec565b6040516101c39190610b54565b60405180910390f35b3480156101d7575f80fd5b506101f260048036038101906101ed9190610d2b565b610532565b6040516101ff9190610d92565b60405180910390f35b5f600154905090565b5f47905090565b5f8054905090565b61022c8784848461092b565b4786111561026f576040517f08c379a000000000000000000000000000000000000000000000000000000000815260040161026690610e05565b60405180910390fd5b8484106103c1575f8773ffffffffffffffffffffffffffffffffffffffff166108fc8890811502906040515f60405180830381858888f193505050509050806102ed576040517f08c379a00000000000000000000000000000000000000000000000000000000081526004016102e490610e6d565b60405180910390fd5b7f6e657720746f6b656e000000000000000000000000000000000000000000000060025f8a73ffffffffffffffffffffffffffffffffffffffff1673ffffffffffffffffffffffffffffffffffffffff1681526020019081526020015f20819055507f6e6577206b65790000000000000000000000000000000000000000000000000060035f8a73ffffffffffffffffffffffffffffffffffffffff1673ffffffffffffffffffffffffffffffffffffffff1681526020019081526020015f20819055506103ba88610532565b50506103fc565b6040517f08c379a00000000000000000000000000000000000000000000000000000000081526004016103f390610ed5565b60405180910390fd5b50505050505050565b5f805f801b60035f8673ffffffffffffffffffffffffffffffffffffffff1673ffffffffffffffffffffffffffffffffffffffff1681526020019081526020015f2054146104945760035f8573ffffffffffffffffffffffffffffffffffffffff1673ffffffffffffffffffffffffffffffffffffffff1681526020019081526020015f20548318905061049c565b600154831890505b8091505092915050565b5f60035f8373ffffffffffffffffffffffffffffffffffffffff1673ffffffffffffffffffffffffffffffffffffffff1681526020019081526020015f20549050919050565b5f60025f8373ffffffffffffffffffffffffffffffffffffffff1673ffffffffffffffffffffffffffffffffffffffff1681526020019081526020015f20549050919050565b61053a610b1e565b5f801b60035f8473ffffffffffffffffffffffffffffffffffffffff1673ffffffffffffffffffffffffffffffffffffffff1681526020019081526020015f20540361071a5760014361058d9190610f20565b4042336040516020016105a29392919061102c565b6040516020818303038152906040528051906020012060035f8473ffffffffffffffffffffffffffffffffffffffff1673ffffffffffffffffffffffffffffffffffffffff1681526020019081526020015f20819055506001436106069190610f20565b40423360405160200161061b939291906110bd565b6040516020818303038152906040528051906020012060025f8473ffffffffffffffffffffffffffffffffffffffff1673ffffffffffffffffffffffffffffffffffffffff1681526020019081526020015f20819055505f60015460035f8573ffffffffffffffffffffffffffffffffffffffff1673ffffffffffffffffffffffffffffffffffffffff1681526020019081526020015f20541890505f60015460025f8673ffffffffffffffffffffffffffffffffffffffff1673ffffffffffffffffffffffffffffffffffffffff1681526020019081526020015f205418905060405180604001604052808381526020018281525092505050610926565b6001436107279190610f20565b40423360405160200161073c9392919061102c565b6040516020818303038152906040528051906020012060035f8473ffffffffffffffffffffffffffffffffffffffff1673ffffffffffffffffffffffffffffffffffffffff1681526020019081526020015f20819055506001436107a09190610f20565b4042336040516020016107b5939291906110bd565b6040516020818303038152906040528051906020012060025f8473ffffffffffffffffffffffffffffffffffffffff1673ffffffffffffffffffffffffffffffffffffffff1681526020019081526020015f20819055505f60035f8473ffffffffffffffffffffffffffffffffffffffff1673ffffffffffffffffffffffffffffffffffffffff1681526020019081526020015f205460035f8573ffffffffffffffffffffffffffffffffffffffff1673ffffffffffffffffffffffffffffffffffffffff1681526020019081526020015f20541890505f60035f8573ffffffffffffffffffffffffffffffffffffffff1673ffffffffffffffffffffffffffffffffffffffff1681526020019081526020015f205460025f8673ffffffffffffffffffffffffffffffffffffffff1673ffffffffffffffffffffffffffffffffffffffff1681526020019081526020015f2054189050604051806040016040528083815260200182815250925050505b919050565b5f54831461096e576040517f08c379a000000000000000000000000000000000000000000000000000000000815260040161096590611174565b60405180910390fd5b5f6109798584610405565b90505f6109868684610405565b90505f801b60035f8873ffffffffffffffffffffffffffffffffffffffff1673ffffffffffffffffffffffffffffffffffffffff1681526020019081526020015f205414610ad15760035f8773ffffffffffffffffffffffffffffffffffffffff1673ffffffffffffffffffffffffffffffffffffffff1681526020019081526020015f20548214610a4d576040517f08c379a0000000000000000000000000000000000000000000000000000000008152600401610a4490611202565b60405180910390fd5b60025f8773ffffffffffffffffffffffffffffffffffffffff1673ffffffffffffffffffffffffffffffffffffffff1681526020019081526020015f20548114610acc576040517f08c379a0000000000000000000000000000000000000000000000000000000008152600401610ac390611290565b60405180910390fd5b610b16565b6001548214610b15576040517f08c379a0000000000000000000000000000000000000000000000000000000008152600401610b0c90611202565b60405180910390fd5b5b505050505050565b60405180604001604052805f80191681526020015f80191681525090565b5f819050919050565b610b4e81610b3c565b82525050565b5f602082019050610b675f830184610b45565b92915050565b5f819050919050565b610b7f81610b6d565b82525050565b5f602082019050610b985f830184610b76565b92915050565b5f80fd5b5f73ffffffffffffffffffffffffffffffffffffffff82169050919050565b5f610bcb82610ba2565b9050919050565b610bdb81610bc1565b8114610be5575f80fd5b50565b5f81359050610bf681610bd2565b92915050565b610c0581610b6d565b8114610c0f575f80fd5b50565b5f81359050610c2081610bfc565b92915050565b610c2f81610b3c565b8114610c39575f80fd5b50565b5f81359050610c4a81610c26565b92915050565b5f805f805f805f60e0888a031215610c6b57610c6a610b9e565b5b5f610c788a828b01610be8565b9750506020610c898a828b01610c12565b9650506040610c9a8a828b01610c12565b9550506060610cab8a828b01610c12565b9450506080610cbc8a828b01610c3c565b93505060a0610ccd8a828b01610c3c565b92505060c0610cde8a828b01610c3c565b91505092959891949750929550565b5f8060408385031215610d0357610d02610b9e565b5b5f610d1085828601610be8565b9250506020610d2185828601610c3c565b9150509250929050565b5f60208284031215610d4057610d3f610b9e565b5b5f610d4d84828501610be8565b91505092915050565b610d5f81610b3c565b82525050565b604082015f820151610d795f850182610d56565b506020820151610d8c6020850182610d56565b50505050565b5f604082019050610da55f830184610d65565b92915050565b5f82825260208201905092915050565b7f496e73756666696369656e742062616c616e63650000000000000000000000005f82015250565b5f610def601483610dab565b9150610dfa82610dbb565b602082019050919050565b5f6020820190508181035f830152610e1c81610de3565b9050919050565b7f5472616e73666572206661696c656400000000000000000000000000000000005f82015250565b5f610e57600f83610dab565b9150610e6282610e23565b602082019050919050565b5f6020820190508181035f830152610e8481610e4b565b9050919050565b7f55736572206e6f7420456c696769626c652100000000000000000000000000005f82015250565b5f610ebf601283610dab565b9150610eca82610e8b565b602082019050919050565b5f6020820190508181035f830152610eec81610eb3565b9050919050565b7f4e487b71000000000000000000000000000000000000000000000000000000005f52601160045260245ffd5b5f610f2a82610b6d565b9150610f3583610b6d565b9250828203905081811115610f4d57610f4c610ef3565b5b92915050565b5f819050919050565b610f6d610f6882610b3c565b610f53565b82525050565b5f819050919050565b610f8d610f8882610b6d565b610f73565b82525050565b5f8160601b9050919050565b5f610fa982610f93565b9050919050565b5f610fba82610f9f565b9050919050565b610fd2610fcd82610bc1565b610fb0565b82525050565b5f81905092915050565b7f6b657900000000000000000000000000000000000000000000000000000000005f82015250565b5f611016600383610fd8565b915061102182610fe2565b600382019050919050565b5f6110378286610f5c565b6020820191506110478285610f7c565b6020820191506110578284610fc1565b6014820191506110668261100a565b9150819050949350505050565b7f746f6b656e0000000000000000000000000000000000000000000000000000005f82015250565b5f6110a7600583610fd8565b91506110b282611073565b600582019050919050565b5f6110c88286610f5c565b6020820191506110d88285610f7c565b6020820191506110e88284610fc1565b6014820191506110f78261109b565b9150819050949350505050565b7f55736572206e6f7420417574686f72697a65643a2073656372657420686173685f8201527f2069732077726f6e672100000000000000000000000000000000000000000000602082015250565b5f61115e602a83610dab565b915061116982611104565b604082019050919050565b5f6020820190508181035f83015261118b81611152565b9050919050565b7f55736572206e6f7420417574686f72697a65643a2061757468206b65792069735f8201527f2077726f6e672100000000000000000000000000000000000000000000000000602082015250565b5f6111ec602783610dab565b91506111f782611192565b604082019050919050565b5f6020820190508181035f830152611219816111e0565b9050919050565b7f55736572206e6f7420417574686f72697a65643a206175746820746f6b656e205f8201527f69732077726f6e67210000000000000000000000000000000000000000000000602082015250565b5f61127a602983610dab565b915061128582611220565b604082019050919050565b5f6020820190508181035f8301526112a78161126e565b905091905056fea2646970667358221220b0bcf1d8f7edab1ee5003f2d8c377009228b7d018723915150da625affbff9d164736f6c63430008160033', \n     arguments: [\n          secret,\n          initKey,\n     ]\n}).send({\n     from: web3.eth.accounts[0], \n     gas: '4700000'\n   }, function (e, contract){\n    console.log(e, contract);\n    if (typeof contract.address !== 'undefined') {\n         console.log('Contract mined! address: ' + contract.address + ' transactionHash: ' + contract.transactionHash);\n    }\n })",
	"functionHashes": {
		"94413614": "pay(address,uint256,uint256,uint256,bytes32,bytes32,bytes32)",
		"9a9ff530": "decrypt(address,bytes32)",
		"b14f014f": "encrypt(address)",
		"12065fe0": "getBalance()",
		"a408b1f5": "test1(address)",
		"66e41cb7": "test2()",
		"b11bead4": "test2(address)",
		"0a8e8e01": "test3()"
	},
	"gasEstimates": {
		"Creation": {
			"codeDepositCost": "967200",
			"executionCost": "infinite",
			"totalCost": "infinite"
		},
		"External": {
			"decrypt(address,bytes32)": "infinite",
			"encrypt(address)": "infinite",
			"getBalance()": "357",
			"pay(address,uint256,uint256,uint256,bytes32,bytes32,bytes32)": "infinite",
			"test1(address)": "2851",
			"test2()": "2477",
			"test2(address)": "2873",
			"test3()": "2433"
		},
		"Internal": {
			"userAuthorized(address,bytes32,bytes32,bytes32)": "infinite"
		}
	},
	"devdoc": {
		"kind": "dev",
		"methods": {},
		"version": 1
	},
	"userdoc": {
		"kind": "user",
		"methods": {},
		"version": 1
	},
	"Runtime Bytecode": {
		"immutableReferences": {},
		"linkReferences": {},
		"object": "60806040526004361061007a575f3560e01c80639a9ff5301161004d5780639a9ff53014610118578063a408b1f514610154578063b11bead414610190578063b14f014f146101cc5761007a565b80630a8e8e011461007e57806312065fe0146100a857806366e41cb7146100d257806394413614146100fc575b5f80fd5b348015610089575f80fd5b50610092610208565b60405161009f9190610b54565b60405180910390f35b3480156100b3575f80fd5b506100bc610211565b6040516100c99190610b85565b60405180910390f35b3480156100dd575f80fd5b506100e6610218565b6040516100f39190610b54565b60405180910390f35b61011660048036038101906101119190610c50565b610220565b005b348015610123575f80fd5b5061013e60048036038101906101399190610ced565b610405565b60405161014b9190610b54565b60405180910390f35b34801561015f575f80fd5b5061017a60048036038101906101759190610d2b565b6104a6565b6040516101879190610b54565b60405180910390f35b34801561019b575f80fd5b506101b660048036038101906101b19190610d2b565b6104ec565b6040516101c39190610b54565b60405180910390f35b3480156101d7575f80fd5b506101f260048036038101906101ed9190610d2b565b610532565b6040516101ff9190610d92565b60405180910390f35b5f600154905090565b5f47905090565b5f8054905090565b61022c8784848461092b565b4786111561026f576040517f08c379a000000000000000000000000000000000000000000000000000000000815260040161026690610e05565b60405180910390fd5b8484106103c1575f8773ffffffffffffffffffffffffffffffffffffffff166108fc8890811502906040515f60405180830381858888f193505050509050806102ed576040517f08c379a00000000000000000000000000000000000000000000000000000000081526004016102e490610e6d565b60405180910390fd5b7f6e657720746f6b656e000000000000000000000000000000000000000000000060025f8a73ffffffffffffffffffffffffffffffffffffffff1673ffffffffffffffffffffffffffffffffffffffff1681526020019081526020015f20819055507f6e6577206b65790000000000000000000000000000000000000000000000000060035f8a73ffffffffffffffffffffffffffffffffffffffff1673ffffffffffffffffffffffffffffffffffffffff1681526020019081526020015f20819055506103ba88610532565b50506103fc565b6040517f08c379a00000000000000000000000000000000000000000000000000000000081526004016103f390610ed5565b60405180910390fd5b50505050505050565b5f805f801b60035f8673ffffffffffffffffffffffffffffffffffffffff1673ffffffffffffffffffffffffffffffffffffffff1681526020019081526020015f2054146104945760035f8573ffffffffffffffffffffffffffffffffffffffff1673ffffffffffffffffffffffffffffffffffffffff1681526020019081526020015f20548318905061049c565b600154831890505b8091505092915050565b5f60035f8373ffffffffffffffffffffffffffffffffffffffff1673ffffffffffffffffffffffffffffffffffffffff1681526020019081526020015f20549050919050565b5f60025f8373ffffffffffffffffffffffffffffffffffffffff1673ffffffffffffffffffffffffffffffffffffffff1681526020019081526020015f20549050919050565b61053a610b1e565b5f801b60035f8473ffffffffffffffffffffffffffffffffffffffff1673ffffffffffffffffffffffffffffffffffffffff1681526020019081526020015f20540361071a5760014361058d9190610f20565b4042336040516020016105a29392919061102c565b6040516020818303038152906040528051906020012060035f8473ffffffffffffffffffffffffffffffffffffffff1673ffffffffffffffffffffffffffffffffffffffff1681526020019081526020015f20819055506001436106069190610f20565b40423360405160200161061b939291906110bd565b6040516020818303038152906040528051906020012060025f8473ffffffffffffffffffffffffffffffffffffffff1673ffffffffffffffffffffffffffffffffffffffff1681526020019081526020015f20819055505f60015460035f8573ffffffffffffffffffffffffffffffffffffffff1673ffffffffffffffffffffffffffffffffffffffff1681526020019081526020015f20541890505f60015460025f8673ffffffffffffffffffffffffffffffffffffffff1673ffffffffffffffffffffffffffffffffffffffff1681526020019081526020015f205418905060405180604001604052808381526020018281525092505050610926565b6001436107279190610f20565b40423360405160200161073c9392919061102c565b6040516020818303038152906040528051906020012060035f8473ffffffffffffffffffffffffffffffffffffffff1673ffffffffffffffffffffffffffffffffffffffff1681526020019081526020015f20819055506001436107a09190610f20565b4042336040516020016107b5939291906110bd565b6040516020818303038152906040528051906020012060025f8473ffffffffffffffffffffffffffffffffffffffff1673ffffffffffffffffffffffffffffffffffffffff1681526020019081526020015f20819055505f60035f8473ffffffffffffffffffffffffffffffffffffffff1673ffffffffffffffffffffffffffffffffffffffff1681526020019081526020015f205460035f8573ffffffffffffffffffffffffffffffffffffffff1673ffffffffffffffffffffffffffffffffffffffff1681526020019081526020015f20541890505f60035f8573ffffffffffffffffffffffffffffffffffffffff1673ffffffffffffffffffffffffffffffffffffffff1681526020019081526020015f205460025f8673ffffffffffffffffffffffffffffffffffffffff1673ffffffffffffffffffffffffffffffffffffffff1681526020019081526020015f2054189050604051806040016040528083815260200182815250925050505b919050565b5f54831461096e576040517f08c379a000000000000000000000000000000000000000000000000000000000815260040161096590611174565b60405180910390fd5b5f6109798584610405565b90505f6109868684610405565b90505f801b60035f8873ffffffffffffffffffffffffffffffffffffffff1673ffffffffffffffffffffffffffffffffffffffff1681526020019081526020015f205414610ad15760035f8773ffffffffffffffffffffffffffffffffffffffff1673ffffffffffffffffffffffffffffffffffffffff1681526020019081526020015f20548214610a4d576040517f08c379a0000000000000000000000000000000000000000000000000000000008152600401610a4490611202565b60405180910390fd5b60025f8773ffffffffffffffffffffffffffffffffffffffff1673ffffffffffffffffffffffffffffffffffffffff1681526020019081526020015f20548114610acc576040517f08c379a0000000000000000000000000000000000000000000000000000000008152600401610ac390611290565b60405180910390fd5b610b16565b6001548214610b15576040517f08c379a0000000000000000000000000000000000000000000000000000000008152600401610b0c90611202565b60405180910390fd5b5b505050505050565b60405180604001604052805f80191681526020015f80191681525090565b5f819050919050565b610b4e81610b3c565b82525050565b5f602082019050610b675f830184610b45565b92915050565b5f819050919050565b610b7f81610b6d565b82525050565b5f602082019050610b985f830184610b76565b92915050565b5f80fd5b5f73ffffffffffffffffffffffffffffffffffffffff82169050919050565b5f610bcb82610ba2565b9050919050565b610bdb81610bc1565b8114610be5575f80fd5b50565b5f81359050610bf681610bd2565b92915050565b610c0581610b6d565b8114610c0f575f80fd5b50565b5f81359050610c2081610bfc565b92915050565b610c2f81610b3c565b8114610c39575f80fd5b50565b5f81359050610c4a81610c26565b92915050565b5f805f805f805f60e0888a031215610c6b57610c6a610b9e565b5b5f610c788a828b01610be8565b9750506020610c898a828b01610c12565b9650506040610c9a8a828b01610c12565b9550506060610cab8a828b01610c12565b9450506080610cbc8a828b01610c3c565b93505060a0610ccd8a828b01610c3c565b92505060c0610cde8a828b01610c3c565b91505092959891949750929550565b5f8060408385031215610d0357610d02610b9e565b5b5f610d1085828601610be8565b9250506020610d2185828601610c3c565b9150509250929050565b5f60208284031215610d4057610d3f610b9e565b5b5f610d4d84828501610be8565b91505092915050565b610d5f81610b3c565b82525050565b604082015f820151610d795f850182610d56565b506020820151610d8c6020850182610d56565b50505050565b5f604082019050610da55f830184610d65565b92915050565b5f82825260208201905092915050565b7f496e73756666696369656e742062616c616e63650000000000000000000000005f82015250565b5f610def601483610dab565b9150610dfa82610dbb565b602082019050919050565b5f6020820190508181035f830152610e1c81610de3565b9050919050565b7f5472616e73666572206661696c656400000000000000000000000000000000005f82015250565b5f610e57600f83610dab565b9150610e6282610e23565b602082019050919050565b5f6020820190508181035f830152610e8481610e4b565b9050919050565b7f55736572206e6f7420456c696769626c652100000000000000000000000000005f82015250565b5f610ebf601283610dab565b9150610eca82610e8b565b602082019050919050565b5f6020820190508181035f830152610eec81610eb3565b9050919050565b7f4e487b71000000000000000000000000000000000000000000000000000000005f52601160045260245ffd5b5f610f2a82610b6d565b9150610f3583610b6d565b9250828203905081811115610f4d57610f4c610ef3565b5b92915050565b5f819050919050565b610f6d610f6882610b3c565b610f53565b82525050565b5f819050919050565b610f8d610f8882610b6d565b610f73565b82525050565b5f8160601b9050919050565b5f610fa982610f93565b9050919050565b5f610fba82610f9f565b9050919050565b610fd2610fcd82610bc1565b610fb0565b82525050565b5f81905092915050565b7f6b657900000000000000000000000000000000000000000000000000000000005f82015250565b5f611016600383610fd8565b915061102182610fe2565b600382019050919050565b5f6110378286610f5c565b6020820191506110478285610f7c565b6020820191506110578284610fc1565b6014820191506110668261100a565b9150819050949350505050565b7f746f6b656e0000000000000000000000000000000000000000000000000000005f82015250565b5f6110a7600583610fd8565b91506110b282611073565b600582019050919050565b5f6110c88286610f5c565b6020820191506110d88285610f7c565b6020820191506110e88284610fc1565b6014820191506110f78261109b565b9150819050949350505050565b7f55736572206e6f7420417574686f72697a65643a2073656372657420686173685f8201527f2069732077726f6e672100000000000000000000000000000000000000000000602082015250565b5f61115e602a83610dab565b915061116982611104565b604082019050919050565b5f6020820190508181035f83015261118b81611152565b9050919050565b7f55736572206e6f7420417574686f72697a65643a2061757468206b65792069735f8201527f2077726f6e672100000000000000000000000000000000000000000000000000602082015250565b5f6111ec602783610dab565b91506111f782611192565b604082019050919050565b5f6020820190508181035f830152611219816111e0565b9050919050565b7f55736572206e6f7420417574686f72697a65643a206175746820746f6b656e205f8201527f69732077726f6e67210000000000000000000000000000000000000000000000602082015250565b5f61127a602983610dab565b915061128582611220565b604082019050919050565b5f6020820190508181035f8301526112a78161126e565b905091905056fea2646970667358221220b0bcf1d8f7edab1ee5003f2d8c377009228b7d018723915150da625affbff9d164736f6c63430008160033",
		"opcodes": "PUSH1 0x80 PUSH1 0x40 MSTORE PUSH1 0x4 CALLDATASIZE LT PUSH2 0x7A JUMPI PUSH0 CALLDATALOAD PUSH1 0xE0 SHR DUP1 PUSH4 0x9A9FF530 GT PUSH2 0x4D JUMPI DUP1 PUSH4 0x9A9FF530 EQ PUSH2 0x118 JUMPI DUP1 PUSH4 0xA408B1F5 EQ PUSH2 0x154 JUMPI DUP1 PUSH4 0xB11BEAD4 EQ PUSH2 0x190 JUMPI DUP1 PUSH4 0xB14F014F EQ PUSH2 0x1CC JUMPI PUSH2 0x7A JUMP JUMPDEST DUP1 PUSH4 0xA8E8E01 EQ PUSH2 0x7E JUMPI DUP1 PUSH4 0x12065FE0 EQ PUSH2 0xA8 JUMPI DUP1 PUSH4 0x66E41CB7 EQ PUSH2 0xD2 JUMPI DUP1 PUSH4 0x94413614 EQ PUSH2 0xFC JUMPI JUMPDEST PUSH0 DUP1 REVERT JUMPDEST CALLVALUE DUP1 ISZERO PUSH2 0x89 JUMPI PUSH0 DUP1 REVERT JUMPDEST POP PUSH2 0x92 PUSH2 0x208 JUMP JUMPDEST PUSH1 0x40 MLOAD PUSH2 0x9F SWAP2 SWAP1 PUSH2 0xB54 JUMP JUMPDEST PUSH1 0x40 MLOAD DUP1 SWAP2 SUB SWAP1 RETURN JUMPDEST CALLVALUE DUP1 ISZERO PUSH2 0xB3 JUMPI PUSH0 DUP1 REVERT JUMPDEST POP PUSH2 0xBC PUSH2 0x211 JUMP JUMPDEST PUSH1 0x40 MLOAD PUSH2 0xC9 SWAP2 SWAP1 PUSH2 0xB85 JUMP JUMPDEST PUSH1 0x40 MLOAD DUP1 SWAP2 SUB SWAP1 RETURN JUMPDEST CALLVALUE DUP1 ISZERO PUSH2 0xDD JUMPI PUSH0 DUP1 REVERT JUMPDEST POP PUSH2 0xE6 PUSH2 0x218 JUMP JUMPDEST PUSH1 0x40 MLOAD PUSH2 0xF3 SWAP2 SWAP1 PUSH2 0xB54 JUMP JUMPDEST PUSH1 0x40 MLOAD DUP1 SWAP2 SUB SWAP1 RETURN JUMPDEST PUSH2 0x116 PUSH1 0x4 DUP1 CALLDATASIZE SUB DUP2 ADD SWAP1 PUSH2 0x111 SWAP2 SWAP1 PUSH2 0xC50 JUMP JUMPDEST PUSH2 0x220 JUMP JUMPDEST STOP JUMPDEST CALLVALUE DUP1 ISZERO PUSH2 0x123 JUMPI PUSH0 DUP1 REVERT JUMPDEST POP PUSH2 0x13E PUSH1 0x4 DUP1 CALLDATASIZE SUB DUP2 ADD SWAP1 PUSH2 0x139 SWAP2 SWAP1 PUSH2 0xCED JUMP JUMPDEST PUSH2 0x405 JUMP JUMPDEST PUSH1 0x40 MLOAD PUSH2 0x14B SWAP2 SWAP1 PUSH2 0xB54 JUMP JUMPDEST PUSH1 0x40 MLOAD DUP1 SWAP2 SUB SWAP1 RETURN JUMPDEST CALLVALUE DUP1 ISZERO PUSH2 0x15F JUMPI PUSH0 DUP1 REVERT JUMPDEST POP PUSH2 0x17A PUSH1 0x4 DUP1 CALLDATASIZE SUB DUP2 ADD SWAP1 PUSH2 0x175 SWAP2 SWAP1 PUSH2 0xD2B JUMP JUMPDEST PUSH2 0x4A6 JUMP JUMPDEST PUSH1 0x40 MLOAD PUSH2 0x187 SWAP2 SWAP1 PUSH2 0xB54 JUMP JUMPDEST PUSH1 0x40 MLOAD DUP1 SWAP2 SUB SWAP1 RETURN JUMPDEST CALLVALUE DUP1 ISZERO PUSH2 0x19B JUMPI PUSH0 DUP1 REVERT JUMPDEST POP PUSH2 0x1B6 PUSH1 0x4 DUP1 CALLDATASIZE SUB DUP2 ADD SWAP1 PUSH2 0x1B1 SWAP2 SWAP1 PUSH2 0xD2B JUMP JUMPDEST PUSH2 0x4EC JUMP JUMPDEST PUSH1 0x40 MLOAD PUSH2 0x1C3 SWAP2 SWAP1 PUSH2 0xB54 JUMP JUMPDEST PUSH1 0x40 MLOAD DUP1 SWAP2 SUB SWAP1 RETURN JUMPDEST CALLVALUE DUP1 ISZERO PUSH2 0x1D7 JUMPI PUSH0 DUP1 REVERT JUMPDEST POP PUSH2 0x1F2 PUSH1 0x4 DUP1 CALLDATASIZE SUB DUP2 ADD SWAP1 PUSH2 0x1ED SWAP2 SWAP1 PUSH2 0xD2B JUMP JUMPDEST PUSH2 0x532 JUMP JUMPDEST PUSH1 0x40 MLOAD PUSH2 0x1FF SWAP2 SWAP1 PUSH2 0xD92 JUMP JUMPDEST PUSH1 0x40 MLOAD DUP1 SWAP2 SUB SWAP1 RETURN JUMPDEST PUSH0 PUSH1 0x1 SLOAD SWAP1 POP SWAP1 JUMP JUMPDEST PUSH0 SELFBALANCE SWAP1 POP SWAP1 JUMP JUMPDEST PUSH0 DUP1 SLOAD SWAP1 POP SWAP1 JUMP JUMPDEST PUSH2 0x22C DUP8 DUP5 DUP5 DUP5 PUSH2 0x92B JUMP JUMPDEST SELFBALANCE DUP7 GT ISZERO PUSH2 0x26F JUMPI PUSH1 0x40 MLOAD PUSH32 0x8C379A000000000000000000000000000000000000000000000000000000000 DUP2 MSTORE PUSH1 0x4 ADD PUSH2 0x266 SWAP1 PUSH2 0xE05 JUMP JUMPDEST PUSH1 0x40 MLOAD DUP1 SWAP2 SUB SWAP1 REVERT JUMPDEST DUP5 DUP5 LT PUSH2 0x3C1 JUMPI PUSH0 DUP8 PUSH20 0xFFFFFFFFFFFFFFFFFFFFFFFFFFFFFFFFFFFFFFFF AND PUSH2 0x8FC DUP9 SWAP1 DUP2 ISZERO MUL SWAP1 PUSH1 0x40 MLOAD PUSH0 PUSH1 0x40 MLOAD DUP1 DUP4 SUB DUP2 DUP6 DUP9 DUP9 CALL SWAP4 POP POP POP POP SWAP1 POP DUP1 PUSH2 0x2ED JUMPI PUSH1 0x40 MLOAD PUSH32 0x8C379A000000000000000000000000000000000000000000000000000000000 DUP2 MSTORE PUSH1 0x4 ADD PUSH2 0x2E4 SWAP1 PUSH2 0xE6D JUMP JUMPDEST PUSH1 0x40 MLOAD DUP1 SWAP2 SUB SWAP1 REVERT JUMPDEST PUSH32 0x6E657720746F6B656E0000000000000000000000000000000000000000000000 PUSH1 0x2 PUSH0 DUP11 PUSH20 0xFFFFFFFFFFFFFFFFFFFFFFFFFFFFFFFFFFFFFFFF AND PUSH20 0xFFFFFFFFFFFFFFFFFFFFFFFFFFFFFFFFFFFFFFFF AND DUP2 MSTORE PUSH1 0x20 ADD SWAP1 DUP2 MSTORE PUSH1 0x20 ADD PUSH0 KECCAK256 DUP2 SWAP1 SSTORE POP PUSH32 0x6E6577206B657900000000000000000000000000000000000000000000000000 PUSH1 0x3 PUSH0 DUP11 PUSH20 0xFFFFFFFFFFFFFFFFFFFFFFFFFFFFFFFFFFFFFFFF AND PUSH20 0xFFFFFFFFFFFFFFFFFFFFFFFFFFFFFFFFFFFFFFFF AND DUP2 MSTORE PUSH1 0x20 ADD SWAP1 DUP2 MSTORE PUSH1 0x20 ADD PUSH0 KECCAK256 DUP2 SWAP1 SSTORE POP PUSH2 0x3BA DUP9 PUSH2 0x532 JUMP JUMPDEST POP POP PUSH2 0x3FC JUMP JUMPDEST PUSH1 0x40 MLOAD PUSH32 0x8C379A000000000000000000000000000000000000000000000000000000000 DUP2 MSTORE PUSH1 0x4 ADD PUSH2 0x3F3 SWAP1 PUSH2 0xED5 JUMP JUMPDEST PUSH1 0x40 MLOAD DUP1 SWAP2 SUB SWAP1 REVERT JUMPDEST POP POP POP POP POP POP POP JUMP JUMPDEST PUSH0 DUP1 PUSH0 DUP1 SHL PUSH1 0x3 PUSH0 DUP7 PUSH20 0xFFFFFFFFFFFFFFFFFFFFFFFFFFFFFFFFFFFFFFFF AND PUSH20 0xFFFFFFFFFFFFFFFFFFFFFFFFFFFFFFFFFFFFFFFF AND DUP2 MSTORE PUSH1 0x20 ADD SWAP1 DUP2 MSTORE PUSH1 0x20 ADD PUSH0 KECCAK256 SLOAD EQ PUSH2 0x494 JUMPI PUSH1 0x3 PUSH0 DUP6 PUSH20 0xFFFFFFFFFFFFFFFFFFFFFFFFFFFFFFFFFFFFFFFF AND PUSH20 0xFFFFFFFFFFFFFFFFFFFFFFFFFFFFFFFFFFFFFFFF AND DUP2 MSTORE PUSH1 0x20 ADD SWAP1 DUP2 MSTORE PUSH1 0x20 ADD PUSH0 KECCAK256 SLOAD DUP4 XOR SWAP1 POP PUSH2 0x49C JUMP JUMPDEST PUSH1 0x1 SLOAD DUP4 XOR SWAP1 POP JUMPDEST DUP1 SWAP2 POP POP SWAP3 SWAP2 POP POP JUMP JUMPDEST PUSH0 PUSH1 0x3 PUSH0 DUP4 PUSH20 0xFFFFFFFFFFFFFFFFFFFFFFFFFFFFFFFFFFFFFFFF AND PUSH20 0xFFFFFFFFFFFFFFFFFFFFFFFFFFFFFFFFFFFFFFFF AND DUP2 MSTORE PUSH1 0x20 ADD SWAP1 DUP2 MSTORE PUSH1 0x20 ADD PUSH0 KECCAK256 SLOAD SWAP1 POP SWAP2 SWAP1 POP JUMP JUMPDEST PUSH0 PUSH1 0x2 PUSH0 DUP4 PUSH20 0xFFFFFFFFFFFFFFFFFFFFFFFFFFFFFFFFFFFFFFFF AND PUSH20 0xFFFFFFFFFFFFFFFFFFFFFFFFFFFFFFFFFFFFFFFF AND DUP2 MSTORE PUSH1 0x20 ADD SWAP1 DUP2 MSTORE PUSH1 0x20 ADD PUSH0 KECCAK256 SLOAD SWAP1 POP SWAP2 SWAP1 POP JUMP JUMPDEST PUSH2 0x53A PUSH2 0xB1E JUMP JUMPDEST PUSH0 DUP1 SHL PUSH1 0x3 PUSH0 DUP5 PUSH20 0xFFFFFFFFFFFFFFFFFFFFFFFFFFFFFFFFFFFFFFFF AND PUSH20 0xFFFFFFFFFFFFFFFFFFFFFFFFFFFFFFFFFFFFFFFF AND DUP2 MSTORE PUSH1 0x20 ADD SWAP1 DUP2 MSTORE PUSH1 0x20 ADD PUSH0 KECCAK256 SLOAD SUB PUSH2 0x71A JUMPI PUSH1 0x1 NUMBER PUSH2 0x58D SWAP2 SWAP1 PUSH2 0xF20 JUMP JUMPDEST BLOCKHASH TIMESTAMP CALLER PUSH1 0x40 MLOAD PUSH1 0x20 ADD PUSH2 0x5A2 SWAP4 SWAP3 SWAP2 SWAP1 PUSH2 0x102C JUMP JUMPDEST PUSH1 0x40 MLOAD PUSH1 0x20 DUP2 DUP4 SUB SUB DUP2 MSTORE SWAP1 PUSH1 0x40 MSTORE DUP1 MLOAD SWAP1 PUSH1 0x20 ADD KECCAK256 PUSH1 0x3 PUSH0 DUP5 PUSH20 0xFFFFFFFFFFFFFFFFFFFFFFFFFFFFFFFFFFFFFFFF AND PUSH20 0xFFFFFFFFFFFFFFFFFFFFFFFFFFFFFFFFFFFFFFFF AND DUP2 MSTORE PUSH1 0x20 ADD SWAP1 DUP2 MSTORE PUSH1 0x20 ADD PUSH0 KECCAK256 DUP2 SWAP1 SSTORE POP PUSH1 0x1 NUMBER PUSH2 0x606 SWAP2 SWAP1 PUSH2 0xF20 JUMP JUMPDEST BLOCKHASH TIMESTAMP CALLER PUSH1 0x40 MLOAD PUSH1 0x20 ADD PUSH2 0x61B SWAP4 SWAP3 SWAP2 SWAP1 PUSH2 0x10BD JUMP JUMPDEST PUSH1 0x40 MLOAD PUSH1 0x20 DUP2 DUP4 SUB SUB DUP2 MSTORE SWAP1 PUSH1 0x40 MSTORE DUP1 MLOAD SWAP1 PUSH1 0x20 ADD KECCAK256 PUSH1 0x2 PUSH0 DUP5 PUSH20 0xFFFFFFFFFFFFFFFFFFFFFFFFFFFFFFFFFFFFFFFF AND PUSH20 0xFFFFFFFFFFFFFFFFFFFFFFFFFFFFFFFFFFFFFFFF AND DUP2 MSTORE PUSH1 0x20 ADD SWAP1 DUP2 MSTORE PUSH1 0x20 ADD PUSH0 KECCAK256 DUP2 SWAP1 SSTORE POP PUSH0 PUSH1 0x1 SLOAD PUSH1 0x3 PUSH0 DUP6 PUSH20 0xFFFFFFFFFFFFFFFFFFFFFFFFFFFFFFFFFFFFFFFF AND PUSH20 0xFFFFFFFFFFFFFFFFFFFFFFFFFFFFFFFFFFFFFFFF AND DUP2 MSTORE PUSH1 0x20 ADD SWAP1 DUP2 MSTORE PUSH1 0x20 ADD PUSH0 KECCAK256 SLOAD XOR SWAP1 POP PUSH0 PUSH1 0x1 SLOAD PUSH1 0x2 PUSH0 DUP7 PUSH20 0xFFFFFFFFFFFFFFFFFFFFFFFFFFFFFFFFFFFFFFFF AND PUSH20 0xFFFFFFFFFFFFFFFFFFFFFFFFFFFFFFFFFFFFFFFF AND DUP2 MSTORE PUSH1 0x20 ADD SWAP1 DUP2 MSTORE PUSH1 0x20 ADD PUSH0 KECCAK256 SLOAD XOR SWAP1 POP PUSH1 0x40 MLOAD DUP1 PUSH1 0x40 ADD PUSH1 0x40 MSTORE DUP1 DUP4 DUP2 MSTORE PUSH1 0x20 ADD DUP3 DUP2 MSTORE POP SWAP3 POP POP POP PUSH2 0x926 JUMP JUMPDEST PUSH1 0x1 NUMBER PUSH2 0x727 SWAP2 SWAP1 PUSH2 0xF20 JUMP JUMPDEST BLOCKHASH TIMESTAMP CALLER PUSH1 0x40 MLOAD PUSH1 0x20 ADD PUSH2 0x73C SWAP4 SWAP3 SWAP2 SWAP1 PUSH2 0x102C JUMP JUMPDEST PUSH1 0x40 MLOAD PUSH1 0x20 DUP2 DUP4 SUB SUB DUP2 MSTORE SWAP1 PUSH1 0x40 MSTORE DUP1 MLOAD SWAP1 PUSH1 0x20 ADD KECCAK256 PUSH1 0x3 PUSH0 DUP5 PUSH20 0xFFFFFFFFFFFFFFFFFFFFFFFFFFFFFFFFFFFFFFFF AND PUSH20 0xFFFFFFFFFFFFFFFFFFFFFFFFFFFFFFFFFFFFFFFF AND DUP2 MSTORE PUSH1 0x20 ADD SWAP1 DUP2 MSTORE PUSH1 0x20 ADD PUSH0 KECCAK256 DUP2 SWAP1 SSTORE POP PUSH1 0x1 NUMBER PUSH2 0x7A0 SWAP2 SWAP1 PUSH2 0xF20 JUMP JUMPDEST BLOCKHASH TIMESTAMP CALLER PUSH1 0x40 MLOAD PUSH1 0x20 ADD PUSH2 0x7B5 SWAP4 SWAP3 SWAP2 SWAP1 PUSH2 0x10BD JUMP JUMPDEST PUSH1 0x40 MLOAD PUSH1 0x20 DUP2 DUP4 SUB SUB DUP2 MSTORE SWAP1 PUSH1 0x40 MSTORE DUP1 MLOAD SWAP1 PUSH1 0x20 ADD KECCAK256 PUSH1 0x2 PUSH0 DUP5 PUSH20 0xFFFFFFFFFFFFFFFFFFFFFFFFFFFFFFFFFFFFFFFF AND PUSH20 0xFFFFFFFFFFFFFFFFFFFFFFFFFFFFFFFFFFFFFFFF AND DUP2 MSTORE PUSH1 0x20 ADD SWAP1 DUP2 MSTORE PUSH1 0x20 ADD PUSH0 KECCAK256 DUP2 SWAP1 SSTORE POP PUSH0 PUSH1 0x3 PUSH0 DUP5 PUSH20 0xFFFFFFFFFFFFFFFFFFFFFFFFFFFFFFFFFFFFFFFF AND PUSH20 0xFFFFFFFFFFFFFFFFFFFFFFFFFFFFFFFFFFFFFFFF AND DUP2 MSTORE PUSH1 0x20 ADD SWAP1 DUP2 MSTORE PUSH1 0x20 ADD PUSH0 KECCAK256 SLOAD PUSH1 0x3 PUSH0 DUP6 PUSH20 0xFFFFFFFFFFFFFFFFFFFFFFFFFFFFFFFFFFFFFFFF AND PUSH20 0xFFFFFFFFFFFFFFFFFFFFFFFFFFFFFFFFFFFFFFFF AND DUP2 MSTORE PUSH1 0x20 ADD SWAP1 DUP2 MSTORE PUSH1 0x20 ADD PUSH0 KECCAK256 SLOAD XOR SWAP1 POP PUSH0 PUSH1 0x3 PUSH0 DUP6 PUSH20 0xFFFFFFFFFFFFFFFFFFFFFFFFFFFFFFFFFFFFFFFF AND PUSH20 0xFFFFFFFFFFFFFFFFFFFFFFFFFFFFFFFFFFFFFFFF AND DUP2 MSTORE PUSH1 0x20 ADD SWAP1 DUP2 MSTORE PUSH1 0x20 ADD PUSH0 KECCAK256 SLOAD PUSH1 0x2 PUSH0 DUP7 PUSH20 0xFFFFFFFFFFFFFFFFFFFFFFFFFFFFFFFFFFFFFFFF AND PUSH20 0xFFFFFFFFFFFFFFFFFFFFFFFFFFFFFFFFFFFFFFFF AND DUP2 MSTORE PUSH1 0x20 ADD SWAP1 DUP2 MSTORE PUSH1 0x20 ADD PUSH0 KECCAK256 SLOAD XOR SWAP1 POP PUSH1 0x40 MLOAD DUP1 PUSH1 0x40 ADD PUSH1 0x40 MSTORE DUP1 DUP4 DUP2 MSTORE PUSH1 0x20 ADD DUP3 DUP2 MSTORE POP SWAP3 POP POP POP JUMPDEST SWAP2 SWAP1 POP JUMP JUMPDEST PUSH0 SLOAD DUP4 EQ PUSH2 0x96E JUMPI PUSH1 0x40 MLOAD PUSH32 0x8C379A000000000000000000000000000000000000000000000000000000000 DUP2 MSTORE PUSH1 0x4 ADD PUSH2 0x965 SWAP1 PUSH2 0x1174 JUMP JUMPDEST PUSH1 0x40 MLOAD DUP1 SWAP2 SUB SWAP1 REVERT JUMPDEST PUSH0 PUSH2 0x979 DUP6 DUP5 PUSH2 0x405 JUMP JUMPDEST SWAP1 POP PUSH0 PUSH2 0x986 DUP7 DUP5 PUSH2 0x405 JUMP JUMPDEST SWAP1 POP PUSH0 DUP1 SHL PUSH1 0x3 PUSH0 DUP9 PUSH20 0xFFFFFFFFFFFFFFFFFFFFFFFFFFFFFFFFFFFFFFFF AND PUSH20 0xFFFFFFFFFFFFFFFFFFFFFFFFFFFFFFFFFFFFFFFF AND DUP2 MSTORE PUSH1 0x20 ADD SWAP1 DUP2 MSTORE PUSH1 0x20 ADD PUSH0 KECCAK256 SLOAD EQ PUSH2 0xAD1 JUMPI PUSH1 0x3 PUSH0 DUP8 PUSH20 0xFFFFFFFFFFFFFFFFFFFFFFFFFFFFFFFFFFFFFFFF AND PUSH20 0xFFFFFFFFFFFFFFFFFFFFFFFFFFFFFFFFFFFFFFFF AND DUP2 MSTORE PUSH1 0x20 ADD SWAP1 DUP2 MSTORE PUSH1 0x20 ADD PUSH0 KECCAK256 SLOAD DUP3 EQ PUSH2 0xA4D JUMPI PUSH1 0x40 MLOAD PUSH32 0x8C379A000000000000000000000000000000000000000000000000000000000 DUP2 MSTORE PUSH1 0x4 ADD PUSH2 0xA44 SWAP1 PUSH2 0x1202 JUMP JUMPDEST PUSH1 0x40 MLOAD DUP1 SWAP2 SUB SWAP1 REVERT JUMPDEST PUSH1 0x2 PUSH0 DUP8 PUSH20 0xFFFFFFFFFFFFFFFFFFFFFFFFFFFFFFFFFFFFFFFF AND PUSH20 0xFFFFFFFFFFFFFFFFFFFFFFFFFFFFFFFFFFFFFFFF AND DUP2 MSTORE PUSH1 0x20 ADD SWAP1 DUP2 MSTORE PUSH1 0x20 ADD PUSH0 KECCAK256 SLOAD DUP2 EQ PUSH2 0xACC JUMPI PUSH1 0x40 MLOAD PUSH32 0x8C379A000000000000000000000000000000000000000000000000000000000 DUP2 MSTORE PUSH1 0x4 ADD PUSH2 0xAC3 SWAP1 PUSH2 0x1290 JUMP JUMPDEST PUSH1 0x40 MLOAD DUP1 SWAP2 SUB SWAP1 REVERT JUMPDEST PUSH2 0xB16 JUMP JUMPDEST PUSH1 0x1 SLOAD DUP3 EQ PUSH2 0xB15 JUMPI PUSH1 0x40 MLOAD PUSH32 0x8C379A000000000000000000000000000000000000000000000000000000000 DUP2 MSTORE PUSH1 0x4 ADD PUSH2 0xB0C SWAP1 PUSH2 0x1202 JUMP JUMPDEST PUSH1 0x40 MLOAD DUP1 SWAP2 SUB SWAP1 REVERT JUMPDEST JUMPDEST POP POP POP POP POP POP JUMP JUMPDEST PUSH1 0x40 MLOAD DUP1 PUSH1 0x40 ADD PUSH1 0x40 MSTORE DUP1 PUSH0 DUP1 NOT AND DUP2 MSTORE PUSH1 0x20 ADD PUSH0 DUP1 NOT AND DUP2 MSTORE POP SWAP1 JUMP JUMPDEST PUSH0 DUP2 SWAP1 POP SWAP2 SWAP1 POP JUMP JUMPDEST PUSH2 0xB4E DUP2 PUSH2 0xB3C JUMP JUMPDEST DUP3 MSTORE POP POP JUMP JUMPDEST PUSH0 PUSH1 0x20 DUP3 ADD SWAP1 POP PUSH2 0xB67 PUSH0 DUP4 ADD DUP5 PUSH2 0xB45 JUMP JUMPDEST SWAP3 SWAP2 POP POP JUMP JUMPDEST PUSH0 DUP2 SWAP1 POP SWAP2 SWAP1 POP JUMP JUMPDEST PUSH2 0xB7F DUP2 PUSH2 0xB6D JUMP JUMPDEST DUP3 MSTORE POP POP JUMP JUMPDEST PUSH0 PUSH1 0x20 DUP3 ADD SWAP1 POP PUSH2 0xB98 PUSH0 DUP4 ADD DUP5 PUSH2 0xB76 JUMP JUMPDEST SWAP3 SWAP2 POP POP JUMP JUMPDEST PUSH0 DUP1 REVERT JUMPDEST PUSH0 PUSH20 0xFFFFFFFFFFFFFFFFFFFFFFFFFFFFFFFFFFFFFFFF DUP3 AND SWAP1 POP SWAP2 SWAP1 POP JUMP JUMPDEST PUSH0 PUSH2 0xBCB DUP3 PUSH2 0xBA2 JUMP JUMPDEST SWAP1 POP SWAP2 SWAP1 POP JUMP JUMPDEST PUSH2 0xBDB DUP2 PUSH2 0xBC1 JUMP JUMPDEST DUP2 EQ PUSH2 0xBE5 JUMPI PUSH0 DUP1 REVERT JUMPDEST POP JUMP JUMPDEST PUSH0 DUP2 CALLDATALOAD SWAP1 POP PUSH2 0xBF6 DUP2 PUSH2 0xBD2 JUMP JUMPDEST SWAP3 SWAP2 POP POP JUMP JUMPDEST PUSH2 0xC05 DUP2 PUSH2 0xB6D JUMP JUMPDEST DUP2 EQ PUSH2 0xC0F JUMPI PUSH0 DUP1 REVERT JUMPDEST POP JUMP JUMPDEST PUSH0 DUP2 CALLDATALOAD SWAP1 POP PUSH2 0xC20 DUP2 PUSH2 0xBFC JUMP JUMPDEST SWAP3 SWAP2 POP POP JUMP JUMPDEST PUSH2 0xC2F DUP2 PUSH2 0xB3C JUMP JUMPDEST DUP2 EQ PUSH2 0xC39 JUMPI PUSH0 DUP1 REVERT JUMPDEST POP JUMP JUMPDEST PUSH0 DUP2 CALLDATALOAD SWAP1 POP PUSH2 0xC4A DUP2 PUSH2 0xC26 JUMP JUMPDEST SWAP3 SWAP2 POP POP JUMP JUMPDEST PUSH0 DUP1 PUSH0 DUP1 PUSH0 DUP1 PUSH0 PUSH1 0xE0 DUP9 DUP11 SUB SLT ISZERO PUSH2 0xC6B JUMPI PUSH2 0xC6A PUSH2 0xB9E JUMP JUMPDEST JUMPDEST PUSH0 PUSH2 0xC78 DUP11 DUP3 DUP12 ADD PUSH2 0xBE8 JUMP JUMPDEST SWAP8 POP POP PUSH1 0x20 PUSH2 0xC89 DUP11 DUP3 DUP12 ADD PUSH2 0xC12 JUMP JUMPDEST SWAP7 POP POP PUSH1 0x40 PUSH2 0xC9A DUP11 DUP3 DUP12 ADD PUSH2 0xC12 JUMP JUMPDEST SWAP6 POP POP PUSH1 0x60 PUSH2 0xCAB DUP11 DUP3 DUP12 ADD PUSH2 0xC12 JUMP JUMPDEST SWAP5 POP POP PUSH1 0x80 PUSH2 0xCBC DUP11 DUP3 DUP12 ADD PUSH2 0xC3C JUMP JUMPDEST SWAP4 POP POP PUSH1 0xA0 PUSH2 0xCCD DUP11 DUP3 DUP12 ADD PUSH2 0xC3C JUMP JUMPDEST SWAP3 POP POP PUSH1 0xC0 PUSH2 0xCDE DUP11 DUP3 DUP12 ADD PUSH2 0xC3C JUMP JUMPDEST SWAP2 POP POP SWAP3 SWAP6 SWAP9 SWAP2 SWAP5 SWAP8 POP SWAP3 SWAP6 POP JUMP JUMPDEST PUSH0 DUP1 PUSH1 0x40 DUP4 DUP6 SUB SLT ISZERO PUSH2 0xD03 JUMPI PUSH2 0xD02 PUSH2 0xB9E JUMP JUMPDEST JUMPDEST PUSH0 PUSH2 0xD10 DUP6 DUP3 DUP7 ADD PUSH2 0xBE8 JUMP JUMPDEST SWAP3 POP POP PUSH1 0x20 PUSH2 0xD21 DUP6 DUP3 DUP7 ADD PUSH2 0xC3C JUMP JUMPDEST SWAP2 POP POP SWAP3 POP SWAP3 SWAP1 POP JUMP JUMPDEST PUSH0 PUSH1 0x20 DUP3 DUP5 SUB SLT ISZERO PUSH2 0xD40 JUMPI PUSH2 0xD3F PUSH2 0xB9E JUMP JUMPDEST JUMPDEST PUSH0 PUSH2 0xD4D DUP5 DUP3 DUP6 ADD PUSH2 0xBE8 JUMP JUMPDEST SWAP2 POP POP SWAP3 SWAP2 POP POP JUMP JUMPDEST PUSH2 0xD5F DUP2 PUSH2 0xB3C JUMP JUMPDEST DUP3 MSTORE POP POP JUMP JUMPDEST PUSH1 0x40 DUP3 ADD PUSH0 DUP3 ADD MLOAD PUSH2 0xD79 PUSH0 DUP6 ADD DUP3 PUSH2 0xD56 JUMP JUMPDEST POP PUSH1 0x20 DUP3 ADD MLOAD PUSH2 0xD8C PUSH1 0x20 DUP6 ADD DUP3 PUSH2 0xD56 JUMP JUMPDEST POP POP POP POP JUMP JUMPDEST PUSH0 PUSH1 0x40 DUP3 ADD SWAP1 POP PUSH2 0xDA5 PUSH0 DUP4 ADD DUP5 PUSH2 0xD65 JUMP JUMPDEST SWAP3 SWAP2 POP POP JUMP JUMPDEST PUSH0 DUP3 DUP3 MSTORE PUSH1 0x20 DUP3 ADD SWAP1 POP SWAP3 SWAP2 POP POP JUMP JUMPDEST PUSH32 0x496E73756666696369656E742062616C616E6365000000000000000000000000 PUSH0 DUP3 ADD MSTORE POP JUMP JUMPDEST PUSH0 PUSH2 0xDEF PUSH1 0x14 DUP4 PUSH2 0xDAB JUMP JUMPDEST SWAP2 POP PUSH2 0xDFA DUP3 PUSH2 0xDBB JUMP JUMPDEST PUSH1 0x20 DUP3 ADD SWAP1 POP SWAP2 SWAP1 POP JUMP JUMPDEST PUSH0 PUSH1 0x20 DUP3 ADD SWAP1 POP DUP2 DUP2 SUB PUSH0 DUP4 ADD MSTORE PUSH2 0xE1C DUP2 PUSH2 0xDE3 JUMP JUMPDEST SWAP1 POP SWAP2 SWAP1 POP JUMP JUMPDEST PUSH32 0x5472616E73666572206661696C65640000000000000000000000000000000000 PUSH0 DUP3 ADD MSTORE POP JUMP JUMPDEST PUSH0 PUSH2 0xE57 PUSH1 0xF DUP4 PUSH2 0xDAB JUMP JUMPDEST SWAP2 POP PUSH2 0xE62 DUP3 PUSH2 0xE23 JUMP JUMPDEST PUSH1 0x20 DUP3 ADD SWAP1 POP SWAP2 SWAP1 POP JUMP JUMPDEST PUSH0 PUSH1 0x20 DUP3 ADD SWAP1 POP DUP2 DUP2 SUB PUSH0 DUP4 ADD MSTORE PUSH2 0xE84 DUP2 PUSH2 0xE4B JUMP JUMPDEST SWAP1 POP SWAP2 SWAP1 POP JUMP JUMPDEST PUSH32 0x55736572206E6F7420456C696769626C65210000000000000000000000000000 PUSH0 DUP3 ADD MSTORE POP JUMP JUMPDEST PUSH0 PUSH2 0xEBF PUSH1 0x12 DUP4 PUSH2 0xDAB JUMP JUMPDEST SWAP2 POP PUSH2 0xECA DUP3 PUSH2 0xE8B JUMP JUMPDEST PUSH1 0x20 DUP3 ADD SWAP1 POP SWAP2 SWAP1 POP JUMP JUMPDEST PUSH0 PUSH1 0x20 DUP3 ADD SWAP1 POP DUP2 DUP2 SUB PUSH0 DUP4 ADD MSTORE PUSH2 0xEEC DUP2 PUSH2 0xEB3 JUMP JUMPDEST SWAP1 POP SWAP2 SWAP1 POP JUMP JUMPDEST PUSH32 0x4E487B7100000000000000000000000000000000000000000000000000000000 PUSH0 MSTORE PUSH1 0x11 PUSH1 0x4 MSTORE PUSH1 0x24 PUSH0 REVERT JUMPDEST PUSH0 PUSH2 0xF2A DUP3 PUSH2 0xB6D JUMP JUMPDEST SWAP2 POP PUSH2 0xF35 DUP4 PUSH2 0xB6D JUMP JUMPDEST SWAP3 POP DUP3 DUP3 SUB SWAP1 POP DUP2 DUP2 GT ISZERO PUSH2 0xF4D JUMPI PUSH2 0xF4C PUSH2 0xEF3 JUMP JUMPDEST JUMPDEST SWAP3 SWAP2 POP POP JUMP JUMPDEST PUSH0 DUP2 SWAP1 POP SWAP2 SWAP1 POP JUMP JUMPDEST PUSH2 0xF6D PUSH2 0xF68 DUP3 PUSH2 0xB3C JUMP JUMPDEST PUSH2 0xF53 JUMP JUMPDEST DUP3 MSTORE POP POP JUMP JUMPDEST PUSH0 DUP2 SWAP1 POP SWAP2 SWAP1 POP JUMP JUMPDEST PUSH2 0xF8D PUSH2 0xF88 DUP3 PUSH2 0xB6D JUMP JUMPDEST PUSH2 0xF73 JUMP JUMPDEST DUP3 MSTORE POP POP JUMP JUMPDEST PUSH0 DUP2 PUSH1 0x60 SHL SWAP1 POP SWAP2 SWAP1 POP JUMP JUMPDEST PUSH0 PUSH2 0xFA9 DUP3 PUSH2 0xF93 JUMP JUMPDEST SWAP1 POP SWAP2 SWAP1 POP JUMP JUMPDEST PUSH0 PUSH2 0xFBA DUP3 PUSH2 0xF9F JUMP JUMPDEST SWAP1 POP SWAP2 SWAP1 POP JUMP JUMPDEST PUSH2 0xFD2 PUSH2 0xFCD DUP3 PUSH2 0xBC1 JUMP JUMPDEST PUSH2 0xFB0 JUMP JUMPDEST DUP3 MSTORE POP POP JUMP JUMPDEST PUSH0 DUP2 SWAP1 POP SWAP3 SWAP2 POP POP JUMP JUMPDEST PUSH32 0x6B65790000000000000000000000000000000000000000000000000000000000 PUSH0 DUP3 ADD MSTORE POP JUMP JUMPDEST PUSH0 PUSH2 0x1016 PUSH1 0x3 DUP4 PUSH2 0xFD8 JUMP JUMPDEST SWAP2 POP PUSH2 0x1021 DUP3 PUSH2 0xFE2 JUMP JUMPDEST PUSH1 0x3 DUP3 ADD SWAP1 POP SWAP2 SWAP1 POP JUMP JUMPDEST PUSH0 PUSH2 0x1037 DUP3 DUP7 PUSH2 0xF5C JUMP JUMPDEST PUSH1 0x20 DUP3 ADD SWAP2 POP PUSH2 0x1047 DUP3 DUP6 PUSH2 0xF7C JUMP JUMPDEST PUSH1 0x20 DUP3 ADD SWAP2 POP PUSH2 0x1057 DUP3 DUP5 PUSH2 0xFC1 JUMP JUMPDEST PUSH1 0x14 DUP3 ADD SWAP2 POP PUSH2 0x1066 DUP3 PUSH2 0x100A JUMP JUMPDEST SWAP2 POP DUP2 SWAP1 POP SWAP5 SWAP4 POP POP POP POP JUMP JUMPDEST PUSH32 0x746F6B656E000000000000000000000000000000000000000000000000000000 PUSH0 DUP3 ADD MSTORE POP JUMP JUMPDEST PUSH0 PUSH2 0x10A7 PUSH1 0x5 DUP4 PUSH2 0xFD8 JUMP JUMPDEST SWAP2 POP PUSH2 0x10B2 DUP3 PUSH2 0x1073 JUMP JUMPDEST PUSH1 0x5 DUP3 ADD SWAP1 POP SWAP2 SWAP1 POP JUMP JUMPDEST PUSH0 PUSH2 0x10C8 DUP3 DUP7 PUSH2 0xF5C JUMP JUMPDEST PUSH1 0x20 DUP3 ADD SWAP2 POP PUSH2 0x10D8 DUP3 DUP6 PUSH2 0xF7C JUMP JUMPDEST PUSH1 0x20 DUP3 ADD SWAP2 POP PUSH2 0x10E8 DUP3 DUP5 PUSH2 0xFC1 JUMP JUMPDEST PUSH1 0x14 DUP3 ADD SWAP2 POP PUSH2 0x10F7 DUP3 PUSH2 0x109B JUMP JUMPDEST SWAP2 POP DUP2 SWAP1 POP SWAP5 SWAP4 POP POP POP POP JUMP JUMPDEST PUSH32 0x55736572206E6F7420417574686F72697A65643A207365637265742068617368 PUSH0 DUP3 ADD MSTORE PUSH32 0x2069732077726F6E672100000000000000000000000000000000000000000000 PUSH1 0x20 DUP3 ADD MSTORE POP JUMP JUMPDEST PUSH0 PUSH2 0x115E PUSH1 0x2A DUP4 PUSH2 0xDAB JUMP JUMPDEST SWAP2 POP PUSH2 0x1169 DUP3 PUSH2 0x1104 JUMP JUMPDEST PUSH1 0x40 DUP3 ADD SWAP1 POP SWAP2 SWAP1 POP JUMP JUMPDEST PUSH0 PUSH1 0x20 DUP3 ADD SWAP1 POP DUP2 DUP2 SUB PUSH0 DUP4 ADD MSTORE PUSH2 0x118B DUP2 PUSH2 0x1152 JUMP JUMPDEST SWAP1 POP SWAP2 SWAP1 POP JUMP JUMPDEST PUSH32 0x55736572206E6F7420417574686F72697A65643A2061757468206B6579206973 PUSH0 DUP3 ADD MSTORE PUSH32 0x2077726F6E672100000000000000000000000000000000000000000000000000 PUSH1 0x20 DUP3 ADD MSTORE POP JUMP JUMPDEST PUSH0 PUSH2 0x11EC PUSH1 0x27 DUP4 PUSH2 0xDAB JUMP JUMPDEST SWAP2 POP PUSH2 0x11F7 DUP3 PUSH2 0x1192 JUMP JUMPDEST PUSH1 0x40 DUP3 ADD SWAP1 POP SWAP2 SWAP1 POP JUMP JUMPDEST PUSH0 PUSH1 0x20 DUP3 ADD SWAP1 POP DUP2 DUP2 SUB PUSH0 DUP4 ADD MSTORE PUSH2 0x1219 DUP2 PUSH2 0x11E0 JUMP JUMPDEST SWAP1 POP SWAP2 SWAP1 POP JUMP JUMPDEST PUSH32 0x55736572206E6F7420417574686F72697A65643A206175746820746F6B656E20 PUSH0 DUP3 ADD MSTORE PUSH32 0x69732077726F6E67210000000000000000000000000000000000000000000000 PUSH1 0x20 DUP3 ADD MSTORE POP JUMP JUMPDEST PUSH0 PUSH2 0x127A PUSH1 0x29 DUP4 PUSH2 0xDAB JUMP JUMPDEST SWAP2 POP PUSH2 0x1285 DUP3 PUSH2 0x1220 JUMP JUMPDEST PUSH1 0x40 DUP3 ADD SWAP1 POP SWAP2 SWAP1 POP JUMP JUMPDEST PUSH0 PUSH1 0x20 DUP3 ADD SWAP1 POP DUP2 DUP2 SUB PUSH0 DUP4 ADD MSTORE PUSH2 0x12A7 DUP2 PUSH2 0x126E JUMP JUMPDEST SWAP1 POP SWAP2 SWAP1 POP JUMP INVALID LOG2 PUSH5 0x6970667358 0x22 SLT KECCAK256 0xB0 0xBC CALL 0xD8 0xF7 0xED 0xAB 0x1E 0xE5 STOP EXTCODEHASH 0x2D DUP13 CALLDATACOPY PUSH17 0x9228B7D018723915150DA625AFFBFF9D1 PUSH5 0x736F6C6343 STOP ADDMOD AND STOP CALLER "
	},
	"Assembly": ".code\n  PUSH 80\t\t\tcontract cryptoDorea {\\r\\n\\r\\n...\n  PUSH 40\t\t\tcontract cryptoDorea {\\r\\n\\r\\n...\n  MSTORE \t\t\tcontract cryptoDorea {\\r\\n\\r\\n...\n  PUSH 40\t\t\tconstructor(bytes32 secret, by...\n  MLOAD \t\t\tconstructor(bytes32 secret, by...\n  PUSHSIZE \t\t\tconstructor(bytes32 secret, by...\n  CODESIZE \t\t\tconstructor(bytes32 secret, by...\n  SUB \t\t\tconstructor(bytes32 secret, by...\n  DUP1 \t\t\tconstructor(bytes32 secret, by...\n  PUSHSIZE \t\t\tconstructor(bytes32 secret, by...\n  DUP4 \t\t\tconstructor(bytes32 secret, by...\n  CODECOPY \t\t\tconstructor(bytes32 secret, by...\n  DUP2 \t\t\tconstructor(bytes32 secret, by...\n  DUP2 \t\t\tconstructor(bytes32 secret, by...\n  ADD \t\t\tconstructor(bytes32 secret, by...\n  PUSH 40\t\t\tconstructor(bytes32 secret, by...\n  MSTORE \t\t\tconstructor(bytes32 secret, by...\n  DUP2 \t\t\tconstructor(bytes32 secret, by...\n  ADD \t\t\tconstructor(bytes32 secret, by...\n  SWAP1 \t\t\tconstructor(bytes32 secret, by...\n  PUSH [tag] 1\t\t\tconstructor(bytes32 secret, by...\n  SWAP2 \t\t\tconstructor(bytes32 secret, by...\n  SWAP1 \t\t\tconstructor(bytes32 secret, by...\n  PUSH [tag] 2\t\t\tconstructor(bytes32 secret, by...\n  JUMP \t\t\tconstructor(bytes32 secret, by...\ntag 1\t\t\tconstructor(bytes32 secret, by...\n  JUMPDEST \t\t\tconstructor(bytes32 secret, by...\n  DUP2 \t\t\tsecret\n  PUSH 0\t\t\t_secretHash\n  DUP2 \t\t\t_secretHash = secret\n  SWAP1 \t\t\t_secretHash = secret\n  SSTORE \t\t\t_secretHash = secret\n  POP \t\t\t_secretHash = secret\n  DUP1 \t\t\tinitKey\n  PUSH 1\t\t\t_initKey\n  DUP2 \t\t\t_initKey = initKey\n  SWAP1 \t\t\t_initKey = initKey\n  SSTORE \t\t\t_initKey = initKey\n  POP \t\t\t_initKey = initKey\n  POP \t\t\tconstructor(bytes32 secret, by...\n  POP \t\t\tconstructor(bytes32 secret, by...\n  PUSH [tag] 5\t\t\tcontract cryptoDorea {\\r\\n\\r\\n...\n  JUMP \t\t\tcontract cryptoDorea {\\r\\n\\r\\n...\ntag 7\t\t\tDorea {\\r\\n\\r\\n    bytes32 pri...\n  JUMPDEST \t\t\tDorea {\\r\\n\\r\\n    bytes32 pri...\n  PUSH 0\t\t\tr\n  DUP1 \t\t\t)\n  REVERT \t\t\tbytes32) pri\ntag 9\t\t\t  struct encryptionResult{\\r\\n...\n  JUMPDEST \t\t\t  struct encryptionResult{\\r\\n...\n  PUSH 0\t\t\tytes32 \n  DUP2 \t\t\ttoken\n  SWAP1 \t\t\t   bytes32 token\n  POP \t\t\t   bytes32 token\n  SWAP2 \t\t\t  struct encryptionResult{\\r\\n...\n  SWAP1 \t\t\t  struct encryptionResult{\\r\\n...\n  POP \t\t\t  struct encryptionResult{\\r\\n...\n  JUMP \t\t\t  struct encryptionResult{\\r\\n...\ntag 10\t\t\t    // define constructor to g...\n  JUMPDEST \t\t\t    // define constructor to g...\n  PUSH [tag] 18\t\t\ttes32 secret, bytes32 in\n  DUP2 \t\t\ts32 i\n  PUSH [tag] 9\t\t\ttes32 secret, bytes32 in\n  JUMP \t\t\ttes32 secret, bytes32 in\ntag 18\t\t\ttes32 secret, bytes32 in\n  JUMPDEST \t\t\ttes32 secret, bytes32 in\n  DUP2 \t\t\tctor(\n  EQ \t\t\ttructor(bytes32 secret, bytes3...\n  PUSH [tag] 19\t\t\t\\r\\n    constructor(bytes32 se...\n  JUMPI \t\t\t\\r\\n    constructor(bytes32 se...\n  PUSH 0\t\t\t{\n  DUP1 \t\t\tl\n  REVERT \t\t\t) payable {\\r\ntag 19\t\t\t\\r\\n    constructor(bytes32 se...\n  JUMPDEST \t\t\t\\r\\n    constructor(bytes32 se...\n  POP \t\t\t    // define constructor to g...\n  JUMP \t\t\t    // define constructor to g...\ntag 11\t\t\tcretHash = secret;\\r\\n        ...\n  JUMPDEST \t\t\tcretHash = secret;\\r\\n        ...\n  PUSH 0\t\t\t\\n\\r\\n  \n  DUP2 \t\t\tal Cus\n  MLOAD \t\t\tto Loyal Cust\n  SWAP1 \t\t\ter Ether to Loyal Cust\n  POP \t\t\ter Ether to Loyal Cust\n  PUSH [tag] 21\t\t\t  function pay(address recipie...\n  DUP2 \t\t\tpient\n  PUSH [tag] 10\t\t\t  function pay(address recipie...\n  JUMP \t\t\t  function pay(address recipie...\ntag 21\t\t\t  function pay(address recipie...\n  JUMPDEST \t\t\t  function pay(address recipie...\n  SWAP3 \t\t\tcretHash = secret;\\r\\n        ...\n  SWAP2 \t\t\tcretHash = secret;\\r\\n        ...\n  POP \t\t\tcretHash = secret;\\r\\n        ...\n  POP \t\t\tcretHash = secret;\\r\\n        ...\n  JUMP \t\t\tcretHash = secret;\\r\\n        ...\ntag 2\t\t\tount, uint256 campaignCount, u...\n  JUMPDEST \t\t\tount, uint256 campaignCount, u...\n  PUSH 0\t\t\t,  byt\n  DUP1 \t\t\t32 tok\n  PUSH 40\t\t\tor\n  DUP4 \t\t\t    userA\n  DUP6 \t\t\t   \\r\\n  \n  SUB \t\t\t{\\r\\n    \\r\\n        userAu\n  SLT \t\t\table{\\r\\n    \\r\\n        userA...\n  ISZERO \t\t\tpayable{\\r\\n    \\r\\n        us...\n  PUSH [tag] 23\t\t\tpayable{\\r\\n    \\r\\n        us...\n  JUMPI \t\t\tpayable{\\r\\n    \\r\\n        us...\n  PUSH [tag] 24\t\t\t(recipient, secret, key, token...\n  PUSH [tag] 7\t\t\t(recipient, secret, key, token...\n  JUMP \t\t\t(recipient, secret, key, token...\ntag 24\t\t\t(recipient, secret, key, token...\n  JUMPDEST \t\t\t(recipient, secret, key, token...\ntag 23\t\t\tpayable{\\r\\n    \\r\\n        us...\n  JUMPDEST \t\t\tpayable{\\r\\n    \\r\\n        us...\n  PUSH 0\t\t\t\\n\n  PUSH [tag] 25\t\t\t >= campaignCount){    \\r\\n\\r\\...\n  DUP6 \t\t\t to the\n  DUP3 \t\t\tfer Et\n  DUP7 \t\t\t   // Tra\n  ADD \t\t\t       // Transfer Eth\n  PUSH [tag] 11\t\t\t >= campaignCount){    \\r\\n\\r\\...\n  JUMP \t\t\t >= campaignCount){    \\r\\n\\r\\...\ntag 25\t\t\t >= campaignCount){    \\r\\n\\r\\...\n  JUMPDEST \t\t\t >= campaignCount){    \\r\\n\\r\\...\n  SWAP3 \t\t\tppingCount >= campaignCount){ ...\n  POP \t\t\tppingCount >= campaignCount){ ...\n  POP \t\t\t, \"Insufficient balance\");\\r\\n...\n  PUSH 20\t\t\tbl\n  PUSH [tag] 26\t\t\t);\\r\\n            require(succ...\n  DUP6 \t\t\t       \n  DUP3 \t\t\ted\");\\r\n  DUP7 \t\t\tansfer fa\n  ADD \t\t\t \"Transfer failed\");\\r\\n\n  PUSH [tag] 11\t\t\t);\\r\\n            require(succ...\n  JUMP \t\t\t);\\r\\n            require(succ...\ntag 26\t\t\t);\\r\\n            require(succ...\n  JUMPDEST \t\t\t);\\r\\n            require(succ...\n  SWAP2 \t\t\tend(amount);\\r\\n            re...\n  POP \t\t\tend(amount);\\r\\n            re...\n  POP \t\t\t          bool success = payab...\n  SWAP3 \t\t\tount, uint256 campaignCount, u...\n  POP \t\t\tount, uint256 campaignCount, u...\n  SWAP3 \t\t\tount, uint256 campaignCount, u...\n  SWAP1 \t\t\tount, uint256 campaignCount, u...\n  POP \t\t\tount, uint256 campaignCount, u...\n  JUMP \t\t\tount, uint256 campaignCount, u...\ntag 5\t\t\tcontract cryptoDorea {\\r\\n\\r\\n...\n  JUMPDEST \t\t\tcontract cryptoDorea {\\r\\n\\r\\n...\n  PUSH #[$] 0000000000000000000000000000000000000000000000000000000000000000\t\t\tcontract cryptoDorea {\\r\\n\\r\\n...\n  DUP1 \t\t\tcontract cryptoDorea {\\r\\n\\r\\n...\n  PUSH [$] 0000000000000000000000000000000000000000000000000000000000000000\t\t\tcontract cryptoDorea {\\r\\n\\r\\n...\n  PUSH 0\t\t\tcontract cryptoDorea {\\r\\n\\r\\n...\n  CODECOPY \t\t\tcontract cryptoDorea {\\r\\n\\r\\n...\n  PUSH 0\t\t\tcontract cryptoDorea {\\r\\n\\r\\n...\n  RETURN \t\t\tcontract cryptoDorea {\\r\\n\\r\\n...\n.data\n  0:\n    .code\n      PUSH 80\t\t\tcontract cryptoDorea {\\r\\n\\r\\n...\n      PUSH 40\t\t\tcontract cryptoDorea {\\r\\n\\r\\n...\n      MSTORE \t\t\tcontract cryptoDorea {\\r\\n\\r\\n...\n      PUSH 4\t\t\tcontract cryptoDorea {\\r\\n\\r\\n...\n      CALLDATASIZE \t\t\tcontract cryptoDorea {\\r\\n\\r\\n...\n      LT \t\t\tcontract cryptoDorea {\\r\\n\\r\\n...\n      PUSH [tag] 1\t\t\tcontract cryptoDorea {\\r\\n\\r\\n...\n      JUMPI \t\t\tcontract cryptoDorea {\\r\\n\\r\\n...\n      PUSH 0\t\t\tcontract cryptoDorea {\\r\\n\\r\\n...\n      CALLDATALOAD \t\t\tcontract cryptoDorea {\\r\\n\\r\\n...\n      PUSH E0\t\t\tcontract cryptoDorea {\\r\\n\\r\\n...\n      SHR \t\t\tcontract cryptoDorea {\\r\\n\\r\\n...\n      DUP1 \t\t\tcontract cryptoDorea {\\r\\n\\r\\n...\n      PUSH 9A9FF530\t\t\tcontract cryptoDorea {\\r\\n\\r\\n...\n      GT \t\t\tcontract cryptoDorea {\\r\\n\\r\\n...\n      PUSH [tag] 10\t\t\tcontract cryptoDorea {\\r\\n\\r\\n...\n      JUMPI \t\t\tcontract cryptoDorea {\\r\\n\\r\\n...\n      DUP1 \t\t\tcontract cryptoDorea {\\r\\n\\r\\n...\n      PUSH 9A9FF530\t\t\tcontract cryptoDorea {\\r\\n\\r\\n...\n      EQ \t\t\tcontract cryptoDorea {\\r\\n\\r\\n...\n      PUSH [tag] 6\t\t\tcontract cryptoDorea {\\r\\n\\r\\n...\n      JUMPI \t\t\tcontract cryptoDorea {\\r\\n\\r\\n...\n      DUP1 \t\t\tcontract cryptoDorea {\\r\\n\\r\\n...\n      PUSH A408B1F5\t\t\tcontract cryptoDorea {\\r\\n\\r\\n...\n      EQ \t\t\tcontract cryptoDorea {\\r\\n\\r\\n...\n      PUSH [tag] 7\t\t\tcontract cryptoDorea {\\r\\n\\r\\n...\n      JUMPI \t\t\tcontract cryptoDorea {\\r\\n\\r\\n...\n      DUP1 \t\t\tcontract cryptoDorea {\\r\\n\\r\\n...\n      PUSH B11BEAD4\t\t\tcontract cryptoDorea {\\r\\n\\r\\n...\n      EQ \t\t\tcontract cryptoDorea {\\r\\n\\r\\n...\n      PUSH [tag] 8\t\t\tcontract cryptoDorea {\\r\\n\\r\\n...\n      JUMPI \t\t\tcontract cryptoDorea {\\r\\n\\r\\n...\n      DUP1 \t\t\tcontract cryptoDorea {\\r\\n\\r\\n...\n      PUSH B14F014F\t\t\tcontract cryptoDorea {\\r\\n\\r\\n...\n      EQ \t\t\tcontract cryptoDorea {\\r\\n\\r\\n...\n      PUSH [tag] 9\t\t\tcontract cryptoDorea {\\r\\n\\r\\n...\n      JUMPI \t\t\tcontract cryptoDorea {\\r\\n\\r\\n...\n      PUSH [tag] 1\t\t\tcontract cryptoDorea {\\r\\n\\r\\n...\n      JUMP \t\t\tcontract cryptoDorea {\\r\\n\\r\\n...\n    tag 10\t\t\tcontract cryptoDorea {\\r\\n\\r\\n...\n      JUMPDEST \t\t\tcontract cryptoDorea {\\r\\n\\r\\n...\n      DUP1 \t\t\tcontract cryptoDorea {\\r\\n\\r\\n...\n      PUSH A8E8E01\t\t\tcontract cryptoDorea {\\r\\n\\r\\n...\n      EQ \t\t\tcontract cryptoDorea {\\r\\n\\r\\n...\n      PUSH [tag] 2\t\t\tcontract cryptoDorea {\\r\\n\\r\\n...\n      JUMPI \t\t\tcontract cryptoDorea {\\r\\n\\r\\n...\n      DUP1 \t\t\tcontract cryptoDorea {\\r\\n\\r\\n...\n      PUSH 12065FE0\t\t\tcontract cryptoDorea {\\r\\n\\r\\n...\n      EQ \t\t\tcontract cryptoDorea {\\r\\n\\r\\n...\n      PUSH [tag] 3\t\t\tcontract cryptoDorea {\\r\\n\\r\\n...\n      JUMPI \t\t\tcontract cryptoDorea {\\r\\n\\r\\n...\n      DUP1 \t\t\tcontract cryptoDorea {\\r\\n\\r\\n...\n      PUSH 66E41CB7\t\t\tcontract cryptoDorea {\\r\\n\\r\\n...\n      EQ \t\t\tcontract cryptoDorea {\\r\\n\\r\\n...\n      PUSH [tag] 4\t\t\tcontract cryptoDorea {\\r\\n\\r\\n...\n      JUMPI \t\t\tcontract cryptoDorea {\\r\\n\\r\\n...\n      DUP1 \t\t\tcontract cryptoDorea {\\r\\n\\r\\n...\n      PUSH 94413614\t\t\tcontract cryptoDorea {\\r\\n\\r\\n...\n      EQ \t\t\tcontract cryptoDorea {\\r\\n\\r\\n...\n      PUSH [tag] 5\t\t\tcontract cryptoDorea {\\r\\n\\r\\n...\n      JUMPI \t\t\tcontract cryptoDorea {\\r\\n\\r\\n...\n    tag 1\t\t\tcontract cryptoDorea {\\r\\n\\r\\n...\n      JUMPDEST \t\t\tcontract cryptoDorea {\\r\\n\\r\\n...\n      PUSH 0\t\t\tcontract cryptoDorea {\\r\\n\\r\\n...\n      DUP1 \t\t\tcontract cryptoDorea {\\r\\n\\r\\n...\n      REVERT \t\t\tcontract cryptoDorea {\\r\\n\\r\\n...\n    tag 2\t\t\tfunction test3()public view re...\n      JUMPDEST \t\t\tfunction test3()public view re...\n      CALLVALUE \t\t\tfunction test3()public view re...\n      DUP1 \t\t\tfunction test3()public view re...\n      ISZERO \t\t\tfunction test3()public view re...\n      PUSH [tag] 11\t\t\tfunction test3()public view re...\n      JUMPI \t\t\tfunction test3()public view re...\n      PUSH 0\t\t\tfunction test3()public view re...\n      DUP1 \t\t\tfunction test3()public view re...\n      REVERT \t\t\tfunction test3()public view re...\n    tag 11\t\t\tfunction test3()public view re...\n      JUMPDEST \t\t\tfunction test3()public view re...\n      POP \t\t\tfunction test3()public view re...\n      PUSH [tag] 12\t\t\tfunction test3()public view re...\n      PUSH [tag] 13\t\t\tfunction test3()public view re...\n      JUMP \t\t\tfunction test3()public view re...\n    tag 12\t\t\tfunction test3()public view re...\n      JUMPDEST \t\t\tfunction test3()public view re...\n      PUSH 40\t\t\tfunction test3()public view re...\n      MLOAD \t\t\tfunction test3()public view re...\n      PUSH [tag] 14\t\t\tfunction test3()public view re...\n      SWAP2 \t\t\tfunction test3()public view re...\n      SWAP1 \t\t\tfunction test3()public view re...\n      PUSH [tag] 15\t\t\tfunction test3()public view re...\n      JUMP \t\t\tfunction test3()public view re...\n    tag 14\t\t\tfunction test3()public view re...\n      JUMPDEST \t\t\tfunction test3()public view re...\n      PUSH 40\t\t\tfunction test3()public view re...\n      MLOAD \t\t\tfunction test3()public view re...\n      DUP1 \t\t\tfunction test3()public view re...\n      SWAP2 \t\t\tfunction test3()public view re...\n      SUB \t\t\tfunction test3()public view re...\n      SWAP1 \t\t\tfunction test3()public view re...\n      RETURN \t\t\tfunction test3()public view re...\n    tag 3\t\t\tfunction getBalance() public v...\n      JUMPDEST \t\t\tfunction getBalance() public v...\n      CALLVALUE \t\t\tfunction getBalance() public v...\n      DUP1 \t\t\tfunction getBalance() public v...\n      ISZERO \t\t\tfunction getBalance() public v...\n      PUSH [tag] 16\t\t\tfunction getBalance() public v...\n      JUMPI \t\t\tfunction getBalance() public v...\n      PUSH 0\t\t\tfunction getBalance() public v...\n      DUP1 \t\t\tfunction getBalance() public v...\n      REVERT \t\t\tfunction getBalance() public v...\n    tag 16\t\t\tfunction getBalance() public v...\n      JUMPDEST \t\t\tfunction getBalance() public v...\n      POP \t\t\tfunction getBalance() public v...\n      PUSH [tag] 17\t\t\tfunction getBalance() public v...\n      PUSH [tag] 18\t\t\tfunction getBalance() public v...\n      JUMP \t\t\tfunction getBalance() public v...\n    tag 17\t\t\tfunction getBalance() public v...\n      JUMPDEST \t\t\tfunction getBalance() public v...\n      PUSH 40\t\t\tfunction getBalance() public v...\n      MLOAD \t\t\tfunction getBalance() public v...\n      PUSH [tag] 19\t\t\tfunction getBalance() public v...\n      SWAP2 \t\t\tfunction getBalance() public v...\n      SWAP1 \t\t\tfunction getBalance() public v...\n      PUSH [tag] 20\t\t\tfunction getBalance() public v...\n      JUMP \t\t\tfunction getBalance() public v...\n    tag 19\t\t\tfunction getBalance() public v...\n      JUMPDEST \t\t\tfunction getBalance() public v...\n      PUSH 40\t\t\tfunction getBalance() public v...\n      MLOAD \t\t\tfunction getBalance() public v...\n      DUP1 \t\t\tfunction getBalance() public v...\n      SWAP2 \t\t\tfunction getBalance() public v...\n      SUB \t\t\tfunction getBalance() public v...\n      SWAP1 \t\t\tfunction getBalance() public v...\n      RETURN \t\t\tfunction getBalance() public v...\n    tag 4\t\t\tfunction test2()public view re...\n      JUMPDEST \t\t\tfunction test2()public view re...\n      CALLVALUE \t\t\tfunction test2()public view re...\n      DUP1 \t\t\tfunction test2()public view re...\n      ISZERO \t\t\tfunction test2()public view re...\n      PUSH [tag] 21\t\t\tfunction test2()public view re...\n      JUMPI \t\t\tfunction test2()public view re...\n      PUSH 0\t\t\tfunction test2()public view re...\n      DUP1 \t\t\tfunction test2()public view re...\n      REVERT \t\t\tfunction test2()public view re...\n    tag 21\t\t\tfunction test2()public view re...\n      JUMPDEST \t\t\tfunction test2()public view re...\n      POP \t\t\tfunction test2()public view re...\n      PUSH [tag] 22\t\t\tfunction test2()public view re...\n      PUSH [tag] 23\t\t\tfunction test2()public view re...\n      JUMP \t\t\tfunction test2()public view re...\n    tag 22\t\t\tfunction test2()public view re...\n      JUMPDEST \t\t\tfunction test2()public view re...\n      PUSH 40\t\t\tfunction test2()public view re...\n      MLOAD \t\t\tfunction test2()public view re...\n      PUSH [tag] 24\t\t\tfunction test2()public view re...\n      SWAP2 \t\t\tfunction test2()public view re...\n      SWAP1 \t\t\tfunction test2()public view re...\n      PUSH [tag] 15\t\t\tfunction test2()public view re...\n      JUMP \t\t\tfunction test2()public view re...\n    tag 24\t\t\tfunction test2()public view re...\n      JUMPDEST \t\t\tfunction test2()public view re...\n      PUSH 40\t\t\tfunction test2()public view re...\n      MLOAD \t\t\tfunction test2()public view re...\n      DUP1 \t\t\tfunction test2()public view re...\n      SWAP2 \t\t\tfunction test2()public view re...\n      SUB \t\t\tfunction test2()public view re...\n      SWAP1 \t\t\tfunction test2()public view re...\n      RETURN \t\t\tfunction test2()public view re...\n    tag 5\t\t\tfunction pay(address recipient...\n      JUMPDEST \t\t\tfunction pay(address recipient...\n      PUSH [tag] 25\t\t\tfunction pay(address recipient...\n      PUSH 4\t\t\tfunction pay(address recipient...\n      DUP1 \t\t\tfunction pay(address recipient...\n      CALLDATASIZE \t\t\tfunction pay(address recipient...\n      SUB \t\t\tfunction pay(address recipient...\n      DUP2 \t\t\tfunction pay(address recipient...\n      ADD \t\t\tfunction pay(address recipient...\n      SWAP1 \t\t\tfunction pay(address recipient...\n      PUSH [tag] 26\t\t\tfunction pay(address recipient...\n      SWAP2 \t\t\tfunction pay(address recipient...\n      SWAP1 \t\t\tfunction pay(address recipient...\n      PUSH [tag] 27\t\t\tfunction pay(address recipient...\n      JUMP \t\t\tfunction pay(address recipient...\n    tag 26\t\t\tfunction pay(address recipient...\n      JUMPDEST \t\t\tfunction pay(address recipient...\n      PUSH [tag] 28\t\t\tfunction pay(address recipient...\n      JUMP \t\t\tfunction pay(address recipient...\n    tag 25\t\t\tfunction pay(address recipient...\n      JUMPDEST \t\t\tfunction pay(address recipient...\n      STOP \t\t\tfunction pay(address recipient...\n    tag 6\t\t\tfunction decrypt(address recip...\n      JUMPDEST \t\t\tfunction decrypt(address recip...\n      CALLVALUE \t\t\tfunction decrypt(address recip...\n      DUP1 \t\t\tfunction decrypt(address recip...\n      ISZERO \t\t\tfunction decrypt(address recip...\n      PUSH [tag] 29\t\t\tfunction decrypt(address recip...\n      JUMPI \t\t\tfunction decrypt(address recip...\n      PUSH 0\t\t\tfunction decrypt(address recip...\n      DUP1 \t\t\tfunction decrypt(address recip...\n      REVERT \t\t\tfunction decrypt(address recip...\n    tag 29\t\t\tfunction decrypt(address recip...\n      JUMPDEST \t\t\tfunction decrypt(address recip...\n      POP \t\t\tfunction decrypt(address recip...\n      PUSH [tag] 30\t\t\tfunction decrypt(address recip...\n      PUSH 4\t\t\tfunction decrypt(address recip...\n      DUP1 \t\t\tfunction decrypt(address recip...\n      CALLDATASIZE \t\t\tfunction decrypt(address recip...\n      SUB \t\t\tfunction decrypt(address recip...\n      DUP2 \t\t\tfunction decrypt(address recip...\n      ADD \t\t\tfunction decrypt(address recip...\n      SWAP1 \t\t\tfunction decrypt(address recip...\n      PUSH [tag] 31\t\t\tfunction decrypt(address recip...\n      SWAP2 \t\t\tfunction decrypt(address recip...\n      SWAP1 \t\t\tfunction decrypt(address recip...\n      PUSH [tag] 32\t\t\tfunction decrypt(address recip...\n      JUMP \t\t\tfunction decrypt(address recip...\n    tag 31\t\t\tfunction decrypt(address recip...\n      JUMPDEST \t\t\tfunction decrypt(address recip...\n      PUSH [tag] 33\t\t\tfunction decrypt(address recip...\n      JUMP \t\t\tfunction decrypt(address recip...\n    tag 30\t\t\tfunction decrypt(address recip...\n      JUMPDEST \t\t\tfunction decrypt(address recip...\n      PUSH 40\t\t\tfunction decrypt(address recip...\n      MLOAD \t\t\tfunction decrypt(address recip...\n      PUSH [tag] 34\t\t\tfunction decrypt(address recip...\n      SWAP2 \t\t\tfunction decrypt(address recip...\n      SWAP1 \t\t\tfunction decrypt(address recip...\n      PUSH [tag] 15\t\t\tfunction decrypt(address recip...\n      JUMP \t\t\tfunction decrypt(address recip...\n    tag 34\t\t\tfunction decrypt(address recip...\n      JUMPDEST \t\t\tfunction decrypt(address recip...\n      PUSH 40\t\t\tfunction decrypt(address recip...\n      MLOAD \t\t\tfunction decrypt(address recip...\n      DUP1 \t\t\tfunction decrypt(address recip...\n      SWAP2 \t\t\tfunction decrypt(address recip...\n      SUB \t\t\tfunction decrypt(address recip...\n      SWAP1 \t\t\tfunction decrypt(address recip...\n      RETURN \t\t\tfunction decrypt(address recip...\n    tag 7\t\t\tfunction test1(address recipie...\n      JUMPDEST \t\t\tfunction test1(address recipie...\n      CALLVALUE \t\t\tfunction test1(address recipie...\n      DUP1 \t\t\tfunction test1(address recipie...\n      ISZERO \t\t\tfunction test1(address recipie...\n      PUSH [tag] 35\t\t\tfunction test1(address recipie...\n      JUMPI \t\t\tfunction test1(address recipie...\n      PUSH 0\t\t\tfunction test1(address recipie...\n      DUP1 \t\t\tfunction test1(address recipie...\n      REVERT \t\t\tfunction test1(address recipie...\n    tag 35\t\t\tfunction test1(address recipie...\n      JUMPDEST \t\t\tfunction test1(address recipie...\n      POP \t\t\tfunction test1(address recipie...\n      PUSH [tag] 36\t\t\tfunction test1(address recipie...\n      PUSH 4\t\t\tfunction test1(address recipie...\n      DUP1 \t\t\tfunction test1(address recipie...\n      CALLDATASIZE \t\t\tfunction test1(address recipie...\n      SUB \t\t\tfunction test1(address recipie...\n      DUP2 \t\t\tfunction test1(address recipie...\n      ADD \t\t\tfunction test1(address recipie...\n      SWAP1 \t\t\tfunction test1(address recipie...\n      PUSH [tag] 37\t\t\tfunction test1(address recipie...\n      SWAP2 \t\t\tfunction test1(address recipie...\n      SWAP1 \t\t\tfunction test1(address recipie...\n      PUSH [tag] 38\t\t\tfunction test1(address recipie...\n      JUMP \t\t\tfunction test1(address recipie...\n    tag 37\t\t\tfunction test1(address recipie...\n      JUMPDEST \t\t\tfunction test1(address recipie...\n      PUSH [tag] 39\t\t\tfunction test1(address recipie...\n      JUMP \t\t\tfunction test1(address recipie...\n    tag 36\t\t\tfunction test1(address recipie...\n      JUMPDEST \t\t\tfunction test1(address recipie...\n      PUSH 40\t\t\tfunction test1(address recipie...\n      MLOAD \t\t\tfunction test1(address recipie...\n      PUSH [tag] 40\t\t\tfunction test1(address recipie...\n      SWAP2 \t\t\tfunction test1(address recipie...\n      SWAP1 \t\t\tfunction test1(address recipie...\n      PUSH [tag] 15\t\t\tfunction test1(address recipie...\n      JUMP \t\t\tfunction test1(address recipie...\n    tag 40\t\t\tfunction test1(address recipie...\n      JUMPDEST \t\t\tfunction test1(address recipie...\n      PUSH 40\t\t\tfunction test1(address recipie...\n      MLOAD \t\t\tfunction test1(address recipie...\n      DUP1 \t\t\tfunction test1(address recipie...\n      SWAP2 \t\t\tfunction test1(address recipie...\n      SUB \t\t\tfunction test1(address recipie...\n      SWAP1 \t\t\tfunction test1(address recipie...\n      RETURN \t\t\tfunction test1(address recipie...\n    tag 8\t\t\tfunction test2(address recipie...\n      JUMPDEST \t\t\tfunction test2(address recipie...\n      CALLVALUE \t\t\tfunction test2(address recipie...\n      DUP1 \t\t\tfunction test2(address recipie...\n      ISZERO \t\t\tfunction test2(address recipie...\n      PUSH [tag] 41\t\t\tfunction test2(address recipie...\n      JUMPI \t\t\tfunction test2(address recipie...\n      PUSH 0\t\t\tfunction test2(address recipie...\n      DUP1 \t\t\tfunction test2(address recipie...\n      REVERT \t\t\tfunction test2(address recipie...\n    tag 41\t\t\tfunction test2(address recipie...\n      JUMPDEST \t\t\tfunction test2(address recipie...\n      POP \t\t\tfunction test2(address recipie...\n      PUSH [tag] 42\t\t\tfunction test2(address recipie...\n      PUSH 4\t\t\tfunction test2(address recipie...\n      DUP1 \t\t\tfunction test2(address recipie...\n      CALLDATASIZE \t\t\tfunction test2(address recipie...\n      SUB \t\t\tfunction test2(address recipie...\n      DUP2 \t\t\tfunction test2(address recipie...\n      ADD \t\t\tfunction test2(address recipie...\n      SWAP1 \t\t\tfunction test2(address recipie...\n      PUSH [tag] 43\t\t\tfunction test2(address recipie...\n      SWAP2 \t\t\tfunction test2(address recipie...\n      SWAP1 \t\t\tfunction test2(address recipie...\n      PUSH [tag] 38\t\t\tfunction test2(address recipie...\n      JUMP \t\t\tfunction test2(address recipie...\n    tag 43\t\t\tfunction test2(address recipie...\n      JUMPDEST \t\t\tfunction test2(address recipie...\n      PUSH [tag] 44\t\t\tfunction test2(address recipie...\n      JUMP \t\t\tfunction test2(address recipie...\n    tag 42\t\t\tfunction test2(address recipie...\n      JUMPDEST \t\t\tfunction test2(address recipie...\n      PUSH 40\t\t\tfunction test2(address recipie...\n      MLOAD \t\t\tfunction test2(address recipie...\n      PUSH [tag] 45\t\t\tfunction test2(address recipie...\n      SWAP2 \t\t\tfunction test2(address recipie...\n      SWAP1 \t\t\tfunction test2(address recipie...\n      PUSH [tag] 15\t\t\tfunction test2(address recipie...\n      JUMP \t\t\tfunction test2(address recipie...\n    tag 45\t\t\tfunction test2(address recipie...\n      JUMPDEST \t\t\tfunction test2(address recipie...\n      PUSH 40\t\t\tfunction test2(address recipie...\n      MLOAD \t\t\tfunction test2(address recipie...\n      DUP1 \t\t\tfunction test2(address recipie...\n      SWAP2 \t\t\tfunction test2(address recipie...\n      SUB \t\t\tfunction test2(address recipie...\n      SWAP1 \t\t\tfunction test2(address recipie...\n      RETURN \t\t\tfunction test2(address recipie...\n    tag 9\t\t\tfunction encrypt(address recip...\n      JUMPDEST \t\t\tfunction encrypt(address recip...\n      CALLVALUE \t\t\tfunction encrypt(address recip...\n      DUP1 \t\t\tfunction encrypt(address recip...\n      ISZERO \t\t\tfunction encrypt(address recip...\n      PUSH [tag] 46\t\t\tfunction encrypt(address recip...\n      JUMPI \t\t\tfunction encrypt(address recip...\n      PUSH 0\t\t\tfunction encrypt(address recip...\n      DUP1 \t\t\tfunction encrypt(address recip...\n      REVERT \t\t\tfunction encrypt(address recip...\n    tag 46\t\t\tfunction encrypt(address recip...\n      JUMPDEST \t\t\tfunction encrypt(address recip...\n      POP \t\t\tfunction encrypt(address recip...\n      PUSH [tag] 47\t\t\tfunction encrypt(address recip...\n      PUSH 4\t\t\tfunction encrypt(address recip...\n      DUP1 \t\t\tfunction encrypt(address recip...\n      CALLDATASIZE \t\t\tfunction encrypt(address recip...\n      SUB \t\t\tfunction encrypt(address recip...\n      DUP2 \t\t\tfunction encrypt(address recip...\n      ADD \t\t\tfunction encrypt(address recip...\n      SWAP1 \t\t\tfunction encrypt(address recip...\n      PUSH [tag] 48\t\t\tfunction encrypt(address recip...\n      SWAP2 \t\t\tfunction encrypt(address recip...\n      SWAP1 \t\t\tfunction encrypt(address recip...\n      PUSH [tag] 38\t\t\tfunction encrypt(address recip...\n      JUMP \t\t\tfunction encrypt(address recip...\n    tag 48\t\t\tfunction encrypt(address recip...\n      JUMPDEST \t\t\tfunction encrypt(address recip...\n      PUSH [tag] 49\t\t\tfunction encrypt(address recip...\n      JUMP \t\t\tfunction encrypt(address recip...\n    tag 47\t\t\tfunction encrypt(address recip...\n      JUMPDEST \t\t\tfunction encrypt(address recip...\n      PUSH 40\t\t\tfunction encrypt(address recip...\n      MLOAD \t\t\tfunction encrypt(address recip...\n      PUSH [tag] 50\t\t\tfunction encrypt(address recip...\n      SWAP2 \t\t\tfunction encrypt(address recip...\n      SWAP1 \t\t\tfunction encrypt(address recip...\n      PUSH [tag] 51\t\t\tfunction encrypt(address recip...\n      JUMP \t\t\tfunction encrypt(address recip...\n    tag 50\t\t\tfunction encrypt(address recip...\n      JUMPDEST \t\t\tfunction encrypt(address recip...\n      PUSH 40\t\t\tfunction encrypt(address recip...\n      MLOAD \t\t\tfunction encrypt(address recip...\n      DUP1 \t\t\tfunction encrypt(address recip...\n      SWAP2 \t\t\tfunction encrypt(address recip...\n      SUB \t\t\tfunction encrypt(address recip...\n      SWAP1 \t\t\tfunction encrypt(address recip...\n      RETURN \t\t\tfunction encrypt(address recip...\n    tag 13\t\t\tfunction test3()public view re...\n      JUMPDEST \t\t\tfunction test3()public view re...\n      PUSH 0\t\t\tbytes32\n      PUSH 1\t\t\t_initKey\n      SLOAD \t\t\t_initKey\n      SWAP1 \t\t\treturn  _initKey\n      POP \t\t\treturn  _initKey\n      SWAP1 \t\t\tfunction test3()public view re...\n      JUMP \t\t\tfunction test3()public view re...\n    tag 18\t\t\tfunction getBalance() public v...\n      JUMPDEST \t\t\tfunction getBalance() public v...\n      PUSH 0\t\t\tuint256\n      SELFBALANCE \t\t\taddress(this).balance\n      SWAP1 \t\t\treturn address(this).balance\n      POP \t\t\treturn address(this).balance\n      SWAP1 \t\t\tfunction getBalance() public v...\n      JUMP \t\t\tfunction getBalance() public v...\n    tag 23\t\t\tfunction test2()public view re...\n      JUMPDEST \t\t\tfunction test2()public view re...\n      PUSH 0\t\t\tbytes32\n      DUP1 \t\t\t_secretHash\n      SLOAD \t\t\t_secretHash\n      SWAP1 \t\t\treturn  _secretHash\n      POP \t\t\treturn  _secretHash\n      SWAP1 \t\t\tfunction test2()public view re...\n      JUMP \t\t\tfunction test2()public view re...\n    tag 28\t\t\tfunction pay(address recipient...\n      JUMPDEST \t\t\tfunction pay(address recipient...\n      PUSH [tag] 56\t\t\tuserAuthorized(recipient, secr...\n      DUP8 \t\t\trecipient\n      DUP5 \t\t\tsecret\n      DUP5 \t\t\tkey\n      DUP5 \t\t\ttoken\n      PUSH [tag] 57\t\t\tuserAuthorized\n      JUMP \t\t\tuserAuthorized(recipient, secr...\n    tag 56\t\t\tuserAuthorized(recipient, secr...\n      JUMPDEST \t\t\tuserAuthorized(recipient, secr...\n      SELFBALANCE \t\t\taddress(this).balance\n      DUP7 \t\t\tamount\n      GT \t\t\tamount <= address(this).balanc...\n      ISZERO \t\t\tamount <= address(this).balanc...\n      PUSH [tag] 58\t\t\trequire(amount <= address(this...\n      JUMPI \t\t\trequire(amount <= address(this...\n      PUSH 40\t\t\trequire(amount <= address(this...\n      MLOAD \t\t\trequire(amount <= address(this...\n      PUSH 8C379A000000000000000000000000000000000000000000000000000000000\t\t\trequire(amount <= address(this...\n      DUP2 \t\t\trequire(amount <= address(this...\n      MSTORE \t\t\trequire(amount <= address(this...\n      PUSH 4\t\t\trequire(amount <= address(this...\n      ADD \t\t\trequire(amount <= address(this...\n      PUSH [tag] 59\t\t\trequire(amount <= address(this...\n      SWAP1 \t\t\trequire(amount <= address(this...\n      PUSH [tag] 60\t\t\trequire(amount <= address(this...\n      JUMP \t\t\trequire(amount <= address(this...\n    tag 59\t\t\trequire(amount <= address(this...\n      JUMPDEST \t\t\trequire(amount <= address(this...\n      PUSH 40\t\t\trequire(amount <= address(this...\n      MLOAD \t\t\trequire(amount <= address(this...\n      DUP1 \t\t\trequire(amount <= address(this...\n      SWAP2 \t\t\trequire(amount <= address(this...\n      SUB \t\t\trequire(amount <= address(this...\n      SWAP1 \t\t\trequire(amount <= address(this...\n      REVERT \t\t\trequire(amount <= address(this...\n    tag 58\t\t\trequire(amount <= address(this...\n      JUMPDEST \t\t\trequire(amount <= address(this...\n      DUP5 \t\t\tcampaignCount\n      DUP5 \t\t\tshoppingCount\n      LT \t\t\tshoppingCount >= campaignCount\n      PUSH [tag] 61\t\t\tif(shoppingCount >= campaignCo...\n      JUMPI \t\t\tif(shoppingCount >= campaignCo...\n      PUSH 0\t\t\tbool success\n      DUP8 \t\t\trecipient\n      PUSH FFFFFFFFFFFFFFFFFFFFFFFFFFFFFFFFFFFFFFFF\t\t\tpayable(recipient).send\n      AND \t\t\tpayable(recipient).send\n      PUSH 8FC\t\t\tpayable(recipient).send(amount...\n      DUP9 \t\t\tamount\n      SWAP1 \t\t\tpayable(recipient).send(amount...\n      DUP2 \t\t\tpayable(recipient).send(amount...\n      ISZERO \t\t\tpayable(recipient).send(amount...\n      MUL \t\t\tpayable(recipient).send(amount...\n      SWAP1 \t\t\tpayable(recipient).send(amount...\n      PUSH 40\t\t\tpayable(recipient).send(amount...\n      MLOAD \t\t\tpayable(recipient).send(amount...\n      PUSH 0\t\t\tpayable(recipient).send(amount...\n      PUSH 40\t\t\tpayable(recipient).send(amount...\n      MLOAD \t\t\tpayable(recipient).send(amount...\n      DUP1 \t\t\tpayable(recipient).send(amount...\n      DUP4 \t\t\tpayable(recipient).send(amount...\n      SUB \t\t\tpayable(recipient).send(amount...\n      DUP2 \t\t\tpayable(recipient).send(amount...\n      DUP6 \t\t\tpayable(recipient).send(amount...\n      DUP9 \t\t\tpayable(recipient).send(amount...\n      DUP9 \t\t\tpayable(recipient).send(amount...\n      CALL \t\t\tpayable(recipient).send(amount...\n      SWAP4 \t\t\tpayable(recipient).send(amount...\n      POP \t\t\tpayable(recipient).send(amount...\n      POP \t\t\tpayable(recipient).send(amount...\n      POP \t\t\tpayable(recipient).send(amount...\n      POP \t\t\tpayable(recipient).send(amount...\n      SWAP1 \t\t\tbool success = payable(recipie...\n      POP \t\t\tbool success = payable(recipie...\n      DUP1 \t\t\tsuccess\n      PUSH [tag] 63\t\t\trequire(success, \"Transfer fai...\n      JUMPI \t\t\trequire(success, \"Transfer fai...\n      PUSH 40\t\t\trequire(success, \"Transfer fai...\n      MLOAD \t\t\trequire(success, \"Transfer fai...\n      PUSH 8C379A000000000000000000000000000000000000000000000000000000000\t\t\trequire(success, \"Transfer fai...\n      DUP2 \t\t\trequire(success, \"Transfer fai...\n      MSTORE \t\t\trequire(success, \"Transfer fai...\n      PUSH 4\t\t\trequire(success, \"Transfer fai...\n      ADD \t\t\trequire(success, \"Transfer fai...\n      PUSH [tag] 64\t\t\trequire(success, \"Transfer fai...\n      SWAP1 \t\t\trequire(success, \"Transfer fai...\n      PUSH [tag] 65\t\t\trequire(success, \"Transfer fai...\n      JUMP \t\t\trequire(success, \"Transfer fai...\n    tag 64\t\t\trequire(success, \"Transfer fai...\n      JUMPDEST \t\t\trequire(success, \"Transfer fai...\n      PUSH 40\t\t\trequire(success, \"Transfer fai...\n      MLOAD \t\t\trequire(success, \"Transfer fai...\n      DUP1 \t\t\trequire(success, \"Transfer fai...\n      SWAP2 \t\t\trequire(success, \"Transfer fai...\n      SUB \t\t\trequire(success, \"Transfer fai...\n      SWAP1 \t\t\trequire(success, \"Transfer fai...\n      REVERT \t\t\trequire(success, \"Transfer fai...\n    tag 63\t\t\trequire(success, \"Transfer fai...\n      JUMPDEST \t\t\trequire(success, \"Transfer fai...\n      PUSH 6E657720746F6B656E0000000000000000000000000000000000000000000000\t\t\t_usersAuthToken[recipient] = \"...\n      PUSH 2\t\t\t_usersAuthToken\n      PUSH 0\t\t\t_usersAuthToken[recipient]\n      DUP11 \t\t\trecipient\n      PUSH FFFFFFFFFFFFFFFFFFFFFFFFFFFFFFFFFFFFFFFF\t\t\t_usersAuthToken[recipient]\n      AND \t\t\t_usersAuthToken[recipient]\n      PUSH FFFFFFFFFFFFFFFFFFFFFFFFFFFFFFFFFFFFFFFF\t\t\t_usersAuthToken[recipient]\n      AND \t\t\t_usersAuthToken[recipient]\n      DUP2 \t\t\t_usersAuthToken[recipient]\n      MSTORE \t\t\t_usersAuthToken[recipient]\n      PUSH 20\t\t\t_usersAuthToken[recipient]\n      ADD \t\t\t_usersAuthToken[recipient]\n      SWAP1 \t\t\t_usersAuthToken[recipient]\n      DUP2 \t\t\t_usersAuthToken[recipient]\n      MSTORE \t\t\t_usersAuthToken[recipient]\n      PUSH 20\t\t\t_usersAuthToken[recipient]\n      ADD \t\t\t_usersAuthToken[recipient]\n      PUSH 0\t\t\t_usersAuthToken[recipient]\n      KECCAK256 \t\t\t_usersAuthToken[recipient]\n      DUP2 \t\t\t_usersAuthToken[recipient] = \"...\n      SWAP1 \t\t\t_usersAuthToken[recipient] = \"...\n      SSTORE \t\t\t_usersAuthToken[recipient] = \"...\n      POP \t\t\t_usersAuthToken[recipient] = \"...\n      PUSH 6E6577206B657900000000000000000000000000000000000000000000000000\t\t\t_usersAuthKey[recipient] = \"ne...\n      PUSH 3\t\t\t_usersAuthKey\n      PUSH 0\t\t\t_usersAuthKey[recipient]\n      DUP11 \t\t\trecipient\n      PUSH FFFFFFFFFFFFFFFFFFFFFFFFFFFFFFFFFFFFFFFF\t\t\t_usersAuthKey[recipient]\n      AND \t\t\t_usersAuthKey[recipient]\n      PUSH FFFFFFFFFFFFFFFFFFFFFFFFFFFFFFFFFFFFFFFF\t\t\t_usersAuthKey[recipient]\n      AND \t\t\t_usersAuthKey[recipient]\n      DUP2 \t\t\t_usersAuthKey[recipient]\n      MSTORE \t\t\t_usersAuthKey[recipient]\n      PUSH 20\t\t\t_usersAuthKey[recipient]\n      ADD \t\t\t_usersAuthKey[recipient]\n      SWAP1 \t\t\t_usersAuthKey[recipient]\n      DUP2 \t\t\t_usersAuthKey[recipient]\n      MSTORE \t\t\t_usersAuthKey[recipient]\n      PUSH 20\t\t\t_usersAuthKey[recipient]\n      ADD \t\t\t_usersAuthKey[recipient]\n      PUSH 0\t\t\t_usersAuthKey[recipient]\n      KECCAK256 \t\t\t_usersAuthKey[recipient]\n      DUP2 \t\t\t_usersAuthKey[recipient] = \"ne...\n      SWAP1 \t\t\t_usersAuthKey[recipient] = \"ne...\n      SSTORE \t\t\t_usersAuthKey[recipient] = \"ne...\n      POP \t\t\t_usersAuthKey[recipient] = \"ne...\n      PUSH [tag] 66\t\t\tencrypt(recipient)\n      DUP9 \t\t\trecipient\n      PUSH [tag] 49\t\t\tencrypt\n      JUMP \t\t\tencrypt(recipient)\n    tag 66\t\t\tencrypt(recipient)\n      JUMPDEST \t\t\tencrypt(recipient)\n      POP \t\t\tencrypt(recipient)\n      POP \t\t\t{    \\r\\n\\r\\n            // Tr...\n      PUSH [tag] 67\t\t\tif(shoppingCount >= campaignCo...\n      JUMP \t\t\tif(shoppingCount >= campaignCo...\n    tag 61\t\t\tif(shoppingCount >= campaignCo...\n      JUMPDEST \t\t\tif(shoppingCount >= campaignCo...\n      PUSH 40\t\t\trevert(\"User not Eligible!\")\n      MLOAD \t\t\trevert(\"User not Eligible!\")\n      PUSH 8C379A000000000000000000000000000000000000000000000000000000000\t\t\trevert(\"User not Eligible!\")\n      DUP2 \t\t\trevert(\"User not Eligible!\")\n      MSTORE \t\t\trevert(\"User not Eligible!\")\n      PUSH 4\t\t\trevert(\"User not Eligible!\")\n      ADD \t\t\trevert(\"User not Eligible!\")\n      PUSH [tag] 68\t\t\trevert(\"User not Eligible!\")\n      SWAP1 \t\t\trevert(\"User not Eligible!\")\n      PUSH [tag] 69\t\t\trevert(\"User not Eligible!\")\n      JUMP \t\t\trevert(\"User not Eligible!\")\n    tag 68\t\t\trevert(\"User not Eligible!\")\n      JUMPDEST \t\t\trevert(\"User not Eligible!\")\n      PUSH 40\t\t\trevert(\"User not Eligible!\")\n      MLOAD \t\t\trevert(\"User not Eligible!\")\n      DUP1 \t\t\trevert(\"User not Eligible!\")\n      SWAP2 \t\t\trevert(\"User not Eligible!\")\n      SUB \t\t\trevert(\"User not Eligible!\")\n      SWAP1 \t\t\trevert(\"User not Eligible!\")\n      REVERT \t\t\trevert(\"User not Eligible!\")\n    tag 67\t\t\tif(shoppingCount >= campaignCo...\n      JUMPDEST \t\t\tif(shoppingCount >= campaignCo...\n      POP \t\t\tfunction pay(address recipient...\n      POP \t\t\tfunction pay(address recipient...\n      POP \t\t\tfunction pay(address recipient...\n      POP \t\t\tfunction pay(address recipient...\n      POP \t\t\tfunction pay(address recipient...\n      POP \t\t\tfunction pay(address recipient...\n      POP \t\t\tfunction pay(address recipient...\n      JUMP \t\t\tfunction pay(address recipient...\n    tag 33\t\t\tfunction decrypt(address recip...\n      JUMPDEST \t\t\tfunction decrypt(address recip...\n      PUSH 0\t\t\tbytes32\n      DUP1 \t\t\tbytes32 decryptedValue\n      PUSH 0\t\t\t0x0\n      DUP1 \t\t\t_usersAuthKey[recipient] != 0x...\n      SHL \t\t\t_usersAuthKey[recipient] != 0x...\n      PUSH 3\t\t\t_usersAuthKey\n      PUSH 0\t\t\t_usersAuthKey[recipient]\n      DUP7 \t\t\trecipient\n      PUSH FFFFFFFFFFFFFFFFFFFFFFFFFFFFFFFFFFFFFFFF\t\t\t_usersAuthKey[recipient]\n      AND \t\t\t_usersAuthKey[recipient]\n      PUSH FFFFFFFFFFFFFFFFFFFFFFFFFFFFFFFFFFFFFFFF\t\t\t_usersAuthKey[recipient]\n      AND \t\t\t_usersAuthKey[recipient]\n      DUP2 \t\t\t_usersAuthKey[recipient]\n      MSTORE \t\t\t_usersAuthKey[recipient]\n      PUSH 20\t\t\t_usersAuthKey[recipient]\n      ADD \t\t\t_usersAuthKey[recipient]\n      SWAP1 \t\t\t_usersAuthKey[recipient]\n      DUP2 \t\t\t_usersAuthKey[recipient]\n      MSTORE \t\t\t_usersAuthKey[recipient]\n      PUSH 20\t\t\t_usersAuthKey[recipient]\n      ADD \t\t\t_usersAuthKey[recipient]\n      PUSH 0\t\t\t_usersAuthKey[recipient]\n      KECCAK256 \t\t\t_usersAuthKey[recipient]\n      SLOAD \t\t\t_usersAuthKey[recipient]\n      EQ \t\t\t_usersAuthKey[recipient] != 0x...\n      PUSH [tag] 71\t\t\tif (_usersAuthKey[recipient] !...\n      JUMPI \t\t\tif (_usersAuthKey[recipient] !...\n      PUSH 3\t\t\t_usersAuthKey\n      PUSH 0\t\t\t_usersAuthKey[recipient]\n      DUP6 \t\t\trecipient\n      PUSH FFFFFFFFFFFFFFFFFFFFFFFFFFFFFFFFFFFFFFFF\t\t\t_usersAuthKey[recipient]\n      AND \t\t\t_usersAuthKey[recipient]\n      PUSH FFFFFFFFFFFFFFFFFFFFFFFFFFFFFFFFFFFFFFFF\t\t\t_usersAuthKey[recipient]\n      AND \t\t\t_usersAuthKey[recipient]\n      DUP2 \t\t\t_usersAuthKey[recipient]\n      MSTORE \t\t\t_usersAuthKey[recipient]\n      PUSH 20\t\t\t_usersAuthKey[recipient]\n      ADD \t\t\t_usersAuthKey[recipient]\n      SWAP1 \t\t\t_usersAuthKey[recipient]\n      DUP2 \t\t\t_usersAuthKey[recipient]\n      MSTORE \t\t\t_usersAuthKey[recipient]\n      PUSH 20\t\t\t_usersAuthKey[recipient]\n      ADD \t\t\t_usersAuthKey[recipient]\n      PUSH 0\t\t\t_usersAuthKey[recipient]\n      KECCAK256 \t\t\t_usersAuthKey[recipient]\n      SLOAD \t\t\t_usersAuthKey[recipient]\n      DUP4 \t\t\tdata\n      XOR \t\t\tdata ^ _usersAuthKey[recipient...\n      SWAP1 \t\t\tdecryptedValue = data ^ _users...\n      POP \t\t\tdecryptedValue = data ^ _users...\n      PUSH [tag] 72\t\t\tif (_usersAuthKey[recipient] !...\n      JUMP \t\t\tif (_usersAuthKey[recipient] !...\n    tag 71\t\t\tif (_usersAuthKey[recipient] !...\n      JUMPDEST \t\t\tif (_usersAuthKey[recipient] !...\n      PUSH 1\t\t\t_initKey\n      SLOAD \t\t\t_initKey\n      DUP4 \t\t\tdata\n      XOR \t\t\tdata ^ _initKey\n      SWAP1 \t\t\tdecryptedValue = data ^ _initK...\n      POP \t\t\tdecryptedValue = data ^ _initK...\n    tag 72\t\t\tif (_usersAuthKey[recipient] !...\n      JUMPDEST \t\t\tif (_usersAuthKey[recipient] !...\n      DUP1 \t\t\tdecryptedValue\n      SWAP2 \t\t\treturn decryptedValue\n      POP \t\t\treturn decryptedValue\n      POP \t\t\treturn decryptedValue\n      SWAP3 \t\t\tfunction decrypt(address recip...\n      SWAP2 \t\t\tfunction decrypt(address recip...\n      POP \t\t\tfunction decrypt(address recip...\n      POP \t\t\tfunction decrypt(address recip...\n      JUMP \t\t\tfunction decrypt(address recip...\n    tag 39\t\t\tfunction test1(address recipie...\n      JUMPDEST \t\t\tfunction test1(address recipie...\n      PUSH 0\t\t\tbytes32\n      PUSH 3\t\t\t_usersAuthKey\n      PUSH 0\t\t\t_usersAuthKey[recipient]\n      DUP4 \t\t\trecipient\n      PUSH FFFFFFFFFFFFFFFFFFFFFFFFFFFFFFFFFFFFFFFF\t\t\t_usersAuthKey[recipient]\n      AND \t\t\t_usersAuthKey[recipient]\n      PUSH FFFFFFFFFFFFFFFFFFFFFFFFFFFFFFFFFFFFFFFF\t\t\t_usersAuthKey[recipient]\n      AND \t\t\t_usersAuthKey[recipient]\n      DUP2 \t\t\t_usersAuthKey[recipient]\n      MSTORE \t\t\t_usersAuthKey[recipient]\n      PUSH 20\t\t\t_usersAuthKey[recipient]\n      ADD \t\t\t_usersAuthKey[recipient]\n      SWAP1 \t\t\t_usersAuthKey[recipient]\n      DUP2 \t\t\t_usersAuthKey[recipient]\n      MSTORE \t\t\t_usersAuthKey[recipient]\n      PUSH 20\t\t\t_usersAuthKey[recipient]\n      ADD \t\t\t_usersAuthKey[recipient]\n      PUSH 0\t\t\t_usersAuthKey[recipient]\n      KECCAK256 \t\t\t_usersAuthKey[recipient]\n      SLOAD \t\t\t_usersAuthKey[recipient]\n      SWAP1 \t\t\treturn _usersAuthKey[recipient...\n      POP \t\t\treturn _usersAuthKey[recipient...\n      SWAP2 \t\t\tfunction test1(address recipie...\n      SWAP1 \t\t\tfunction test1(address recipie...\n      POP \t\t\tfunction test1(address recipie...\n      JUMP \t\t\tfunction test1(address recipie...\n    tag 44\t\t\tfunction test2(address recipie...\n      JUMPDEST \t\t\tfunction test2(address recipie...\n      PUSH 0\t\t\tbytes32\n      PUSH 2\t\t\t_usersAuthToken\n      PUSH 0\t\t\t_usersAuthToken[recipient]\n      DUP4 \t\t\trecipient\n      PUSH FFFFFFFFFFFFFFFFFFFFFFFFFFFFFFFFFFFFFFFF\t\t\t_usersAuthToken[recipient]\n      AND \t\t\t_usersAuthToken[recipient]\n      PUSH FFFFFFFFFFFFFFFFFFFFFFFFFFFFFFFFFFFFFFFF\t\t\t_usersAuthToken[recipient]\n      AND \t\t\t_usersAuthToken[recipient]\n      DUP2 \t\t\t_usersAuthToken[recipient]\n      MSTORE \t\t\t_usersAuthToken[recipient]\n      PUSH 20\t\t\t_usersAuthToken[recipient]\n      ADD \t\t\t_usersAuthToken[recipient]\n      SWAP1 \t\t\t_usersAuthToken[recipient]\n      DUP2 \t\t\t_usersAuthToken[recipient]\n      MSTORE \t\t\t_usersAuthToken[recipient]\n      PUSH 20\t\t\t_usersAuthToken[recipient]\n      ADD \t\t\t_usersAuthToken[recipient]\n      PUSH 0\t\t\t_usersAuthToken[recipient]\n      KECCAK256 \t\t\t_usersAuthToken[recipient]\n      SLOAD \t\t\t_usersAuthToken[recipient]\n      SWAP1 \t\t\treturn  _usersAuthToken[recipi...\n      POP \t\t\treturn  _usersAuthToken[recipi...\n      SWAP2 \t\t\tfunction test2(address recipie...\n      SWAP1 \t\t\tfunction test2(address recipie...\n      POP \t\t\tfunction test2(address recipie...\n      JUMP \t\t\tfunction test2(address recipie...\n    tag 49\t\t\tfunction encrypt(address recip...\n      JUMPDEST \t\t\tfunction encrypt(address recip...\n      PUSH [tag] 75\t\t\tencryptionResult memory\n      PUSH [tag] 76\t\t\tencryptionResult memory\n      JUMP \t\t\tencryptionResult memory\n    tag 75\t\t\tencryptionResult memory\n      JUMPDEST \t\t\tencryptionResult memory\n      PUSH 0\t\t\t0x0\n      DUP1 \t\t\t_usersAuthKey[recipient] == 0x...\n      SHL \t\t\t_usersAuthKey[recipient] == 0x...\n      PUSH 3\t\t\t_usersAuthKey\n      PUSH 0\t\t\t_usersAuthKey[recipient]\n      DUP5 \t\t\trecipient\n      PUSH FFFFFFFFFFFFFFFFFFFFFFFFFFFFFFFFFFFFFFFF\t\t\t_usersAuthKey[recipient]\n      AND \t\t\t_usersAuthKey[recipient]\n      PUSH FFFFFFFFFFFFFFFFFFFFFFFFFFFFFFFFFFFFFFFF\t\t\t_usersAuthKey[recipient]\n      AND \t\t\t_usersAuthKey[recipient]\n      DUP2 \t\t\t_usersAuthKey[recipient]\n      MSTORE \t\t\t_usersAuthKey[recipient]\n      PUSH 20\t\t\t_usersAuthKey[recipient]\n      ADD \t\t\t_usersAuthKey[recipient]\n      SWAP1 \t\t\t_usersAuthKey[recipient]\n      DUP2 \t\t\t_usersAuthKey[recipient]\n      MSTORE \t\t\t_usersAuthKey[recipient]\n      PUSH 20\t\t\t_usersAuthKey[recipient]\n      ADD \t\t\t_usersAuthKey[recipient]\n      PUSH 0\t\t\t_usersAuthKey[recipient]\n      KECCAK256 \t\t\t_usersAuthKey[recipient]\n      SLOAD \t\t\t_usersAuthKey[recipient]\n      SUB \t\t\t_usersAuthKey[recipient] == 0x...\n      PUSH [tag] 78\t\t\tif (_usersAuthKey[recipient] =...\n      JUMPI \t\t\tif (_usersAuthKey[recipient] =...\n      PUSH 1\t\t\t1\n      NUMBER \t\t\tblock.number\n      PUSH [tag] 79\t\t\tblock.number - 1\n      SWAP2 \t\t\tblock.number - 1\n      SWAP1 \t\t\tblock.number - 1\n      PUSH [tag] 80\t\t\tblock.number - 1\n      JUMP \t\t\tblock.number - 1\n    tag 79\t\t\tblock.number - 1\n      JUMPDEST \t\t\tblock.number - 1\n      BLOCKHASH \t\t\tblockhash(block.number - 1)\n      TIMESTAMP \t\t\tblock.timestamp\n      CALLER \t\t\tmsg.sender\n      PUSH 40\t\t\tabi.encodePacked(blockhash(blo...\n      MLOAD \t\t\tabi.encodePacked(blockhash(blo...\n      PUSH 20\t\t\tabi.encodePacked(blockhash(blo...\n      ADD \t\t\tabi.encodePacked(blockhash(blo...\n      PUSH [tag] 81\t\t\tabi.encodePacked(blockhash(blo...\n      SWAP4 \t\t\tabi.encodePacked(blockhash(blo...\n      SWAP3 \t\t\tabi.encodePacked(blockhash(blo...\n      SWAP2 \t\t\tabi.encodePacked(blockhash(blo...\n      SWAP1 \t\t\tabi.encodePacked(blockhash(blo...\n      PUSH [tag] 82\t\t\tabi.encodePacked(blockhash(blo...\n      JUMP \t\t\tabi.encodePacked(blockhash(blo...\n    tag 81\t\t\tabi.encodePacked(blockhash(blo...\n      JUMPDEST \t\t\tabi.encodePacked(blockhash(blo...\n      PUSH 40\t\t\tabi.encodePacked(blockhash(blo...\n      MLOAD \t\t\tabi.encodePacked(blockhash(blo...\n      PUSH 20\t\t\tabi.encodePacked(blockhash(blo...\n      DUP2 \t\t\tabi.encodePacked(blockhash(blo...\n      DUP4 \t\t\tabi.encodePacked(blockhash(blo...\n      SUB \t\t\tabi.encodePacked(blockhash(blo...\n      SUB \t\t\tabi.encodePacked(blockhash(blo...\n      DUP2 \t\t\tabi.encodePacked(blockhash(blo...\n      MSTORE \t\t\tabi.encodePacked(blockhash(blo...\n      SWAP1 \t\t\tabi.encodePacked(blockhash(blo...\n      PUSH 40\t\t\tabi.encodePacked(blockhash(blo...\n      MSTORE \t\t\tabi.encodePacked(blockhash(blo...\n      DUP1 \t\t\tkeccak256(abi.encodePacked(blo...\n      MLOAD \t\t\tkeccak256(abi.encodePacked(blo...\n      SWAP1 \t\t\tkeccak256(abi.encodePacked(blo...\n      PUSH 20\t\t\tkeccak256(abi.encodePacked(blo...\n      ADD \t\t\tkeccak256(abi.encodePacked(blo...\n      KECCAK256 \t\t\tkeccak256(abi.encodePacked(blo...\n      PUSH 3\t\t\t_usersAuthKey\n      PUSH 0\t\t\t_usersAuthKey[recipient]\n      DUP5 \t\t\trecipient\n      PUSH FFFFFFFFFFFFFFFFFFFFFFFFFFFFFFFFFFFFFFFF\t\t\t_usersAuthKey[recipient]\n      AND \t\t\t_usersAuthKey[recipient]\n      PUSH FFFFFFFFFFFFFFFFFFFFFFFFFFFFFFFFFFFFFFFF\t\t\t_usersAuthKey[recipient]\n      AND \t\t\t_usersAuthKey[recipient]\n      DUP2 \t\t\t_usersAuthKey[recipient]\n      MSTORE \t\t\t_usersAuthKey[recipient]\n      PUSH 20\t\t\t_usersAuthKey[recipient]\n      ADD \t\t\t_usersAuthKey[recipient]\n      SWAP1 \t\t\t_usersAuthKey[recipient]\n      DUP2 \t\t\t_usersAuthKey[recipient]\n      MSTORE \t\t\t_usersAuthKey[recipient]\n      PUSH 20\t\t\t_usersAuthKey[recipient]\n      ADD \t\t\t_usersAuthKey[recipient]\n      PUSH 0\t\t\t_usersAuthKey[recipient]\n      KECCAK256 \t\t\t_usersAuthKey[recipient]\n      DUP2 \t\t\t_usersAuthKey[recipient] = kec...\n      SWAP1 \t\t\t_usersAuthKey[recipient] = kec...\n      SSTORE \t\t\t_usersAuthKey[recipient] = kec...\n      POP \t\t\t_usersAuthKey[recipient] = kec...\n      PUSH 1\t\t\t1\n      NUMBER \t\t\tblock.number\n      PUSH [tag] 83\t\t\tblock.number - 1\n      SWAP2 \t\t\tblock.number - 1\n      SWAP1 \t\t\tblock.number - 1\n      PUSH [tag] 80\t\t\tblock.number - 1\n      JUMP \t\t\tblock.number - 1\n    tag 83\t\t\tblock.number - 1\n      JUMPDEST \t\t\tblock.number - 1\n      BLOCKHASH \t\t\tblockhash(block.number - 1)\n      TIMESTAMP \t\t\tblock.timestamp\n      CALLER \t\t\tmsg.sender\n      PUSH 40\t\t\tabi.encodePacked(blockhash(blo...\n      MLOAD \t\t\tabi.encodePacked(blockhash(blo...\n      PUSH 20\t\t\tabi.encodePacked(blockhash(blo...\n      ADD \t\t\tabi.encodePacked(blockhash(blo...\n      PUSH [tag] 84\t\t\tabi.encodePacked(blockhash(blo...\n      SWAP4 \t\t\tabi.encodePacked(blockhash(blo...\n      SWAP3 \t\t\tabi.encodePacked(blockhash(blo...\n      SWAP2 \t\t\tabi.encodePacked(blockhash(blo...\n      SWAP1 \t\t\tabi.encodePacked(blockhash(blo...\n      PUSH [tag] 85\t\t\tabi.encodePacked(blockhash(blo...\n      JUMP \t\t\tabi.encodePacked(blockhash(blo...\n    tag 84\t\t\tabi.encodePacked(blockhash(blo...\n      JUMPDEST \t\t\tabi.encodePacked(blockhash(blo...\n      PUSH 40\t\t\tabi.encodePacked(blockhash(blo...\n      MLOAD \t\t\tabi.encodePacked(blockhash(blo...\n      PUSH 20\t\t\tabi.encodePacked(blockhash(blo...\n      DUP2 \t\t\tabi.encodePacked(blockhash(blo...\n      DUP4 \t\t\tabi.encodePacked(blockhash(blo...\n      SUB \t\t\tabi.encodePacked(blockhash(blo...\n      SUB \t\t\tabi.encodePacked(blockhash(blo...\n      DUP2 \t\t\tabi.encodePacked(blockhash(blo...\n      MSTORE \t\t\tabi.encodePacked(blockhash(blo...\n      SWAP1 \t\t\tabi.encodePacked(blockhash(blo...\n      PUSH 40\t\t\tabi.encodePacked(blockhash(blo...\n      MSTORE \t\t\tabi.encodePacked(blockhash(blo...\n      DUP1 \t\t\tkeccak256(abi.encodePacked(blo...\n      MLOAD \t\t\tkeccak256(abi.encodePacked(blo...\n      SWAP1 \t\t\tkeccak256(abi.encodePacked(blo...\n      PUSH 20\t\t\tkeccak256(abi.encodePacked(blo...\n      ADD \t\t\tkeccak256(abi.encodePacked(blo...\n      KECCAK256 \t\t\tkeccak256(abi.encodePacked(blo...\n      PUSH 2\t\t\t_usersAuthToken\n      PUSH 0\t\t\t_usersAuthToken[recipient]\n      DUP5 \t\t\trecipient\n      PUSH FFFFFFFFFFFFFFFFFFFFFFFFFFFFFFFFFFFFFFFF\t\t\t_usersAuthToken[recipient]\n      AND \t\t\t_usersAuthToken[recipient]\n      PUSH FFFFFFFFFFFFFFFFFFFFFFFFFFFFFFFFFFFFFFFF\t\t\t_usersAuthToken[recipient]\n      AND \t\t\t_usersAuthToken[recipient]\n      DUP2 \t\t\t_usersAuthToken[recipient]\n      MSTORE \t\t\t_usersAuthToken[recipient]\n      PUSH 20\t\t\t_usersAuthToken[recipient]\n      ADD \t\t\t_usersAuthToken[recipient]\n      SWAP1 \t\t\t_usersAuthToken[recipient]\n      DUP2 \t\t\t_usersAuthToken[recipient]\n      MSTORE \t\t\t_usersAuthToken[recipient]\n      PUSH 20\t\t\t_usersAuthToken[recipient]\n      ADD \t\t\t_usersAuthToken[recipient]\n      PUSH 0\t\t\t_usersAuthToken[recipient]\n      KECCAK256 \t\t\t_usersAuthToken[recipient]\n      DUP2 \t\t\t_usersAuthToken[recipient] = k...\n      SWAP1 \t\t\t_usersAuthToken[recipient] = k...\n      SSTORE \t\t\t_usersAuthToken[recipient] = k...\n      POP \t\t\t_usersAuthToken[recipient] = k...\n      PUSH 0\t\t\tbytes32 encKey\n      PUSH 1\t\t\t_initKey\n      SLOAD \t\t\t_initKey\n      PUSH 3\t\t\t_usersAuthKey\n      PUSH 0\t\t\t_usersAuthKey[recipient]\n      DUP6 \t\t\trecipient\n      PUSH FFFFFFFFFFFFFFFFFFFFFFFFFFFFFFFFFFFFFFFF\t\t\t_usersAuthKey[recipient]\n      AND \t\t\t_usersAuthKey[recipient]\n      PUSH FFFFFFFFFFFFFFFFFFFFFFFFFFFFFFFFFFFFFFFF\t\t\t_usersAuthKey[recipient]\n      AND \t\t\t_usersAuthKey[recipient]\n      DUP2 \t\t\t_usersAuthKey[recipient]\n      MSTORE \t\t\t_usersAuthKey[recipient]\n      PUSH 20\t\t\t_usersAuthKey[recipient]\n      ADD \t\t\t_usersAuthKey[recipient]\n      SWAP1 \t\t\t_usersAuthKey[recipient]\n      DUP2 \t\t\t_usersAuthKey[recipient]\n      MSTORE \t\t\t_usersAuthKey[recipient]\n      PUSH 20\t\t\t_usersAuthKey[recipient]\n      ADD \t\t\t_usersAuthKey[recipient]\n      PUSH 0\t\t\t_usersAuthKey[recipient]\n      KECCAK256 \t\t\t_usersAuthKey[recipient]\n      SLOAD \t\t\t_usersAuthKey[recipient]\n      XOR \t\t\t_usersAuthKey[recipient]  ^ _i...\n      SWAP1 \t\t\tbytes32 encKey = _usersAuthKey...\n      POP \t\t\tbytes32 encKey = _usersAuthKey...\n      PUSH 0\t\t\tbytes32 encToken\n      PUSH 1\t\t\t_initKey\n      SLOAD \t\t\t_initKey\n      PUSH 2\t\t\t_usersAuthToken\n      PUSH 0\t\t\t_usersAuthToken[recipient]\n      DUP7 \t\t\trecipient\n      PUSH FFFFFFFFFFFFFFFFFFFFFFFFFFFFFFFFFFFFFFFF\t\t\t_usersAuthToken[recipient]\n      AND \t\t\t_usersAuthToken[recipient]\n      PUSH FFFFFFFFFFFFFFFFFFFFFFFFFFFFFFFFFFFFFFFF\t\t\t_usersAuthToken[recipient]\n      AND \t\t\t_usersAuthToken[recipient]\n      DUP2 \t\t\t_usersAuthToken[recipient]\n      MSTORE \t\t\t_usersAuthToken[recipient]\n      PUSH 20\t\t\t_usersAuthToken[recipient]\n      ADD \t\t\t_usersAuthToken[recipient]\n      SWAP1 \t\t\t_usersAuthToken[recipient]\n      DUP2 \t\t\t_usersAuthToken[recipient]\n      MSTORE \t\t\t_usersAuthToken[recipient]\n      PUSH 20\t\t\t_usersAuthToken[recipient]\n      ADD \t\t\t_usersAuthToken[recipient]\n      PUSH 0\t\t\t_usersAuthToken[recipient]\n      KECCAK256 \t\t\t_usersAuthToken[recipient]\n      SLOAD \t\t\t_usersAuthToken[recipient]\n      XOR \t\t\t_usersAuthToken[recipient]  ^ ...\n      SWAP1 \t\t\tbytes32 encToken = _usersAuthT...\n      POP \t\t\tbytes32 encToken = _usersAuthT...\n      PUSH 40\t\t\tencryptionResult({ key: encKey...\n      MLOAD \t\t\tencryptionResult({ key: encKey...\n      DUP1 \t\t\tencryptionResult({ key: encKey...\n      PUSH 40\t\t\tencryptionResult({ key: encKey...\n      ADD \t\t\tencryptionResult({ key: encKey...\n      PUSH 40\t\t\tencryptionResult({ key: encKey...\n      MSTORE \t\t\tencryptionResult({ key: encKey...\n      DUP1 \t\t\tencryptionResult({ key: encKey...\n      DUP4 \t\t\tencKey\n      DUP2 \t\t\tencryptionResult({ key: encKey...\n      MSTORE \t\t\tencryptionResult({ key: encKey...\n      PUSH 20\t\t\tencryptionResult({ key: encKey...\n      ADD \t\t\tencryptionResult({ key: encKey...\n      DUP3 \t\t\tencToken\n      DUP2 \t\t\tencryptionResult({ key: encKey...\n      MSTORE \t\t\tencryptionResult({ key: encKey...\n      POP \t\t\tencryptionResult({ key: encKey...\n      SWAP3 \t\t\treturn encryptionResult({ key:...\n      POP \t\t\treturn encryptionResult({ key:...\n      POP \t\t\treturn encryptionResult({ key:...\n      POP \t\t\treturn encryptionResult({ key:...\n      PUSH [tag] 77\t\t\treturn encryptionResult({ key:...\n      JUMP \t\t\treturn encryptionResult({ key:...\n    tag 78\t\t\tif (_usersAuthKey[recipient] =...\n      JUMPDEST \t\t\tif (_usersAuthKey[recipient] =...\n      PUSH 1\t\t\t1\n      NUMBER \t\t\tblock.number\n      PUSH [tag] 87\t\t\tblock.number - 1\n      SWAP2 \t\t\tblock.number - 1\n      SWAP1 \t\t\tblock.number - 1\n      PUSH [tag] 80\t\t\tblock.number - 1\n      JUMP \t\t\tblock.number - 1\n    tag 87\t\t\tblock.number - 1\n      JUMPDEST \t\t\tblock.number - 1\n      BLOCKHASH \t\t\tblockhash(block.number - 1)\n      TIMESTAMP \t\t\tblock.timestamp\n      CALLER \t\t\tmsg.sender\n      PUSH 40\t\t\tabi.encodePacked(blockhash(blo...\n      MLOAD \t\t\tabi.encodePacked(blockhash(blo...\n      PUSH 20\t\t\tabi.encodePacked(blockhash(blo...\n      ADD \t\t\tabi.encodePacked(blockhash(blo...\n      PUSH [tag] 88\t\t\tabi.encodePacked(blockhash(blo...\n      SWAP4 \t\t\tabi.encodePacked(blockhash(blo...\n      SWAP3 \t\t\tabi.encodePacked(blockhash(blo...\n      SWAP2 \t\t\tabi.encodePacked(blockhash(blo...\n      SWAP1 \t\t\tabi.encodePacked(blockhash(blo...\n      PUSH [tag] 82\t\t\tabi.encodePacked(blockhash(blo...\n      JUMP \t\t\tabi.encodePacked(blockhash(blo...\n    tag 88\t\t\tabi.encodePacked(blockhash(blo...\n      JUMPDEST \t\t\tabi.encodePacked(blockhash(blo...\n      PUSH 40\t\t\tabi.encodePacked(blockhash(blo...\n      MLOAD \t\t\tabi.encodePacked(blockhash(blo...\n      PUSH 20\t\t\tabi.encodePacked(blockhash(blo...\n      DUP2 \t\t\tabi.encodePacked(blockhash(blo...\n      DUP4 \t\t\tabi.encodePacked(blockhash(blo...\n      SUB \t\t\tabi.encodePacked(blockhash(blo...\n      SUB \t\t\tabi.encodePacked(blockhash(blo...\n      DUP2 \t\t\tabi.encodePacked(blockhash(blo...\n      MSTORE \t\t\tabi.encodePacked(blockhash(blo...\n      SWAP1 \t\t\tabi.encodePacked(blockhash(blo...\n      PUSH 40\t\t\tabi.encodePacked(blockhash(blo...\n      MSTORE \t\t\tabi.encodePacked(blockhash(blo...\n      DUP1 \t\t\tkeccak256(abi.encodePacked(blo...\n      MLOAD \t\t\tkeccak256(abi.encodePacked(blo...\n      SWAP1 \t\t\tkeccak256(abi.encodePacked(blo...\n      PUSH 20\t\t\tkeccak256(abi.encodePacked(blo...\n      ADD \t\t\tkeccak256(abi.encodePacked(blo...\n      KECCAK256 \t\t\tkeccak256(abi.encodePacked(blo...\n      PUSH 3\t\t\t_usersAuthKey\n      PUSH 0\t\t\t_usersAuthKey[recipient]\n      DUP5 \t\t\trecipient\n      PUSH FFFFFFFFFFFFFFFFFFFFFFFFFFFFFFFFFFFFFFFF\t\t\t_usersAuthKey[recipient]\n      AND \t\t\t_usersAuthKey[recipient]\n      PUSH FFFFFFFFFFFFFFFFFFFFFFFFFFFFFFFFFFFFFFFF\t\t\t_usersAuthKey[recipient]\n      AND \t\t\t_usersAuthKey[recipient]\n      DUP2 \t\t\t_usersAuthKey[recipient]\n      MSTORE \t\t\t_usersAuthKey[recipient]\n      PUSH 20\t\t\t_usersAuthKey[recipient]\n      ADD \t\t\t_usersAuthKey[recipient]\n      SWAP1 \t\t\t_usersAuthKey[recipient]\n      DUP2 \t\t\t_usersAuthKey[recipient]\n      MSTORE \t\t\t_usersAuthKey[recipient]\n      PUSH 20\t\t\t_usersAuthKey[recipient]\n      ADD \t\t\t_usersAuthKey[recipient]\n      PUSH 0\t\t\t_usersAuthKey[recipient]\n      KECCAK256 \t\t\t_usersAuthKey[recipient]\n      DUP2 \t\t\t_usersAuthKey[recipient] = kec...\n      SWAP1 \t\t\t_usersAuthKey[recipient] = kec...\n      SSTORE \t\t\t_usersAuthKey[recipient] = kec...\n      POP \t\t\t_usersAuthKey[recipient] = kec...\n      PUSH 1\t\t\t1\n      NUMBER \t\t\tblock.number\n      PUSH [tag] 89\t\t\tblock.number - 1\n      SWAP2 \t\t\tblock.number - 1\n      SWAP1 \t\t\tblock.number - 1\n      PUSH [tag] 80\t\t\tblock.number - 1\n      JUMP \t\t\tblock.number - 1\n    tag 89\t\t\tblock.number - 1\n      JUMPDEST \t\t\tblock.number - 1\n      BLOCKHASH \t\t\tblockhash(block.number - 1)\n      TIMESTAMP \t\t\tblock.timestamp\n      CALLER \t\t\tmsg.sender\n      PUSH 40\t\t\tabi.encodePacked(blockhash(blo...\n      MLOAD \t\t\tabi.encodePacked(blockhash(blo...\n      PUSH 20\t\t\tabi.encodePacked(blockhash(blo...\n      ADD \t\t\tabi.encodePacked(blockhash(blo...\n      PUSH [tag] 90\t\t\tabi.encodePacked(blockhash(blo...\n      SWAP4 \t\t\tabi.encodePacked(blockhash(blo...\n      SWAP3 \t\t\tabi.encodePacked(blockhash(blo...\n      SWAP2 \t\t\tabi.encodePacked(blockhash(blo...\n      SWAP1 \t\t\tabi.encodePacked(blockhash(blo...\n      PUSH [tag] 85\t\t\tabi.encodePacked(blockhash(blo...\n      JUMP \t\t\tabi.encodePacked(blockhash(blo...\n    tag 90\t\t\tabi.encodePacked(blockhash(blo...\n      JUMPDEST \t\t\tabi.encodePacked(blockhash(blo...\n      PUSH 40\t\t\tabi.encodePacked(blockhash(blo...\n      MLOAD \t\t\tabi.encodePacked(blockhash(blo...\n      PUSH 20\t\t\tabi.encodePacked(blockhash(blo...\n      DUP2 \t\t\tabi.encodePacked(blockhash(blo...\n      DUP4 \t\t\tabi.encodePacked(blockhash(blo...\n      SUB \t\t\tabi.encodePacked(blockhash(blo...\n      SUB \t\t\tabi.encodePacked(blockhash(blo...\n      DUP2 \t\t\tabi.encodePacked(blockhash(blo...\n      MSTORE \t\t\tabi.encodePacked(blockhash(blo...\n      SWAP1 \t\t\tabi.encodePacked(blockhash(blo...\n      PUSH 40\t\t\tabi.encodePacked(blockhash(blo...\n      MSTORE \t\t\tabi.encodePacked(blockhash(blo...\n      DUP1 \t\t\tkeccak256(abi.encodePacked(blo...\n      MLOAD \t\t\tkeccak256(abi.encodePacked(blo...\n      SWAP1 \t\t\tkeccak256(abi.encodePacked(blo...\n      PUSH 20\t\t\tkeccak256(abi.encodePacked(blo...\n      ADD \t\t\tkeccak256(abi.encodePacked(blo...\n      KECCAK256 \t\t\tkeccak256(abi.encodePacked(blo...\n      PUSH 2\t\t\t_usersAuthToken\n      PUSH 0\t\t\t_usersAuthToken[recipient]\n      DUP5 \t\t\trecipient\n      PUSH FFFFFFFFFFFFFFFFFFFFFFFFFFFFFFFFFFFFFFFF\t\t\t_usersAuthToken[recipient]\n      AND \t\t\t_usersAuthToken[recipient]\n      PUSH FFFFFFFFFFFFFFFFFFFFFFFFFFFFFFFFFFFFFFFF\t\t\t_usersAuthToken[recipient]\n      AND \t\t\t_usersAuthToken[recipient]\n      DUP2 \t\t\t_usersAuthToken[recipient]\n      MSTORE \t\t\t_usersAuthToken[recipient]\n      PUSH 20\t\t\t_usersAuthToken[recipient]\n      ADD \t\t\t_usersAuthToken[recipient]\n      SWAP1 \t\t\t_usersAuthToken[recipient]\n      DUP2 \t\t\t_usersAuthToken[recipient]\n      MSTORE \t\t\t_usersAuthToken[recipient]\n      PUSH 20\t\t\t_usersAuthToken[recipient]\n      ADD \t\t\t_usersAuthToken[recipient]\n      PUSH 0\t\t\t_usersAuthToken[recipient]\n      KECCAK256 \t\t\t_usersAuthToken[recipient]\n      DUP2 \t\t\t_usersAuthToken[recipient] = k...\n      SWAP1 \t\t\t_usersAuthToken[recipient] = k...\n      SSTORE \t\t\t_usersAuthToken[recipient] = k...\n      POP \t\t\t_usersAuthToken[recipient] = k...\n      PUSH 0\t\t\tbytes32 encKey\n      PUSH 3\t\t\t_usersAuthKey\n      PUSH 0\t\t\t_usersAuthKey[recipient]\n      DUP5 \t\t\trecipient\n      PUSH FFFFFFFFFFFFFFFFFFFFFFFFFFFFFFFFFFFFFFFF\t\t\t_usersAuthKey[recipient]\n      AND \t\t\t_usersAuthKey[recipient]\n      PUSH FFFFFFFFFFFFFFFFFFFFFFFFFFFFFFFFFFFFFFFF\t\t\t_usersAuthKey[recipient]\n      AND \t\t\t_usersAuthKey[recipient]\n      DUP2 \t\t\t_usersAuthKey[recipient]\n      MSTORE \t\t\t_usersAuthKey[recipient]\n      PUSH 20\t\t\t_usersAuthKey[recipient]\n      ADD \t\t\t_usersAuthKey[recipient]\n      SWAP1 \t\t\t_usersAuthKey[recipient]\n      DUP2 \t\t\t_usersAuthKey[recipient]\n      MSTORE \t\t\t_usersAuthKey[recipient]\n      PUSH 20\t\t\t_usersAuthKey[recipient]\n      ADD \t\t\t_usersAuthKey[recipient]\n      PUSH 0\t\t\t_usersAuthKey[recipient]\n      KECCAK256 \t\t\t_usersAuthKey[recipient]\n      SLOAD \t\t\t_usersAuthKey[recipient]\n      PUSH 3\t\t\t_usersAuthKey\n      PUSH 0\t\t\t_usersAuthKey[recipient]\n      DUP6 \t\t\trecipient\n      PUSH FFFFFFFFFFFFFFFFFFFFFFFFFFFFFFFFFFFFFFFF\t\t\t_usersAuthKey[recipient]\n      AND \t\t\t_usersAuthKey[recipient]\n      PUSH FFFFFFFFFFFFFFFFFFFFFFFFFFFFFFFFFFFFFFFF\t\t\t_usersAuthKey[recipient]\n      AND \t\t\t_usersAuthKey[recipient]\n      DUP2 \t\t\t_usersAuthKey[recipient]\n      MSTORE \t\t\t_usersAuthKey[recipient]\n      PUSH 20\t\t\t_usersAuthKey[recipient]\n      ADD \t\t\t_usersAuthKey[recipient]\n      SWAP1 \t\t\t_usersAuthKey[recipient]\n      DUP2 \t\t\t_usersAuthKey[recipient]\n      MSTORE \t\t\t_usersAuthKey[recipient]\n      PUSH 20\t\t\t_usersAuthKey[recipient]\n      ADD \t\t\t_usersAuthKey[recipient]\n      PUSH 0\t\t\t_usersAuthKey[recipient]\n      KECCAK256 \t\t\t_usersAuthKey[recipient]\n      SLOAD \t\t\t_usersAuthKey[recipient]\n      XOR \t\t\t_usersAuthKey[recipient]  ^ _u...\n      SWAP1 \t\t\tbytes32 encKey = _usersAuthKey...\n      POP \t\t\tbytes32 encKey = _usersAuthKey...\n      PUSH 0\t\t\tbytes32 encToken\n      PUSH 3\t\t\t_usersAuthKey\n      PUSH 0\t\t\t_usersAuthKey[recipient]\n      DUP6 \t\t\trecipient\n      PUSH FFFFFFFFFFFFFFFFFFFFFFFFFFFFFFFFFFFFFFFF\t\t\t_usersAuthKey[recipient]\n      AND \t\t\t_usersAuthKey[recipient]\n      PUSH FFFFFFFFFFFFFFFFFFFFFFFFFFFFFFFFFFFFFFFF\t\t\t_usersAuthKey[recipient]\n      AND \t\t\t_usersAuthKey[recipient]\n      DUP2 \t\t\t_usersAuthKey[recipient]\n      MSTORE \t\t\t_usersAuthKey[recipient]\n      PUSH 20\t\t\t_usersAuthKey[recipient]\n      ADD \t\t\t_usersAuthKey[recipient]\n      SWAP1 \t\t\t_usersAuthKey[recipient]\n      DUP2 \t\t\t_usersAuthKey[recipient]\n      MSTORE \t\t\t_usersAuthKey[recipient]\n      PUSH 20\t\t\t_usersAuthKey[recipient]\n      ADD \t\t\t_usersAuthKey[recipient]\n      PUSH 0\t\t\t_usersAuthKey[recipient]\n      KECCAK256 \t\t\t_usersAuthKey[recipient]\n      SLOAD \t\t\t_usersAuthKey[recipient]\n      PUSH 2\t\t\t_usersAuthToken\n      PUSH 0\t\t\t_usersAuthToken[recipient]\n      DUP7 \t\t\trecipient\n      PUSH FFFFFFFFFFFFFFFFFFFFFFFFFFFFFFFFFFFFFFFF\t\t\t_usersAuthToken[recipient]\n      AND \t\t\t_usersAuthToken[recipient]\n      PUSH FFFFFFFFFFFFFFFFFFFFFFFFFFFFFFFFFFFFFFFF\t\t\t_usersAuthToken[recipient]\n      AND \t\t\t_usersAuthToken[recipient]\n      DUP2 \t\t\t_usersAuthToken[recipient]\n      MSTORE \t\t\t_usersAuthToken[recipient]\n      PUSH 20\t\t\t_usersAuthToken[recipient]\n      ADD \t\t\t_usersAuthToken[recipient]\n      SWAP1 \t\t\t_usersAuthToken[recipient]\n      DUP2 \t\t\t_usersAuthToken[recipient]\n      MSTORE \t\t\t_usersAuthToken[recipient]\n      PUSH 20\t\t\t_usersAuthToken[recipient]\n      ADD \t\t\t_usersAuthToken[recipient]\n      PUSH 0\t\t\t_usersAuthToken[recipient]\n      KECCAK256 \t\t\t_usersAuthToken[recipient]\n      SLOAD \t\t\t_usersAuthToken[recipient]\n      XOR \t\t\t_usersAuthToken[recipient]  ^ ...\n      SWAP1 \t\t\tbytes32 encToken = _usersAuthT...\n      POP \t\t\tbytes32 encToken = _usersAuthT...\n      PUSH 40\t\t\tencryptionResult({ key: encKey...\n      MLOAD \t\t\tencryptionResult({ key: encKey...\n      DUP1 \t\t\tencryptionResult({ key: encKey...\n      PUSH 40\t\t\tencryptionResult({ key: encKey...\n      ADD \t\t\tencryptionResult({ key: encKey...\n      PUSH 40\t\t\tencryptionResult({ key: encKey...\n      MSTORE \t\t\tencryptionResult({ key: encKey...\n      DUP1 \t\t\tencryptionResult({ key: encKey...\n      DUP4 \t\t\tencKey\n      DUP2 \t\t\tencryptionResult({ key: encKey...\n      MSTORE \t\t\tencryptionResult({ key: encKey...\n      PUSH 20\t\t\tencryptionResult({ key: encKey...\n      ADD \t\t\tencryptionResult({ key: encKey...\n      DUP3 \t\t\tencToken\n      DUP2 \t\t\tencryptionResult({ key: encKey...\n      MSTORE \t\t\tencryptionResult({ key: encKey...\n      POP \t\t\tencryptionResult({ key: encKey...\n      SWAP3 \t\t\treturn encryptionResult({ key:...\n      POP \t\t\treturn encryptionResult({ key:...\n      POP \t\t\treturn encryptionResult({ key:...\n      POP \t\t\treturn encryptionResult({ key:...\n    tag 77\t\t\tfunction encrypt(address recip...\n      JUMPDEST \t\t\tfunction encrypt(address recip...\n      SWAP2 \t\t\tfunction encrypt(address recip...\n      SWAP1 \t\t\tfunction encrypt(address recip...\n      POP \t\t\tfunction encrypt(address recip...\n      JUMP \t\t\tfunction encrypt(address recip...\n    tag 57\t\t\tfunction userAuthorized(addres...\n      JUMPDEST \t\t\tfunction userAuthorized(addres...\n      PUSH 0\t\t\t_secretHash\n      SLOAD \t\t\t_secretHash\n      DUP4 \t\t\tsecret\n      EQ \t\t\tsecret == _secretHash\n      PUSH [tag] 92\t\t\trequire(secret == _secretHash,...\n      JUMPI \t\t\trequire(secret == _secretHash,...\n      PUSH 40\t\t\trequire(secret == _secretHash,...\n      MLOAD \t\t\trequire(secret == _secretHash,...\n      PUSH 8C379A000000000000000000000000000000000000000000000000000000000\t\t\trequire(secret == _secretHash,...\n      DUP2 \t\t\trequire(secret == _secretHash,...\n      MSTORE \t\t\trequire(secret == _secretHash,...\n      PUSH 4\t\t\trequire(secret == _secretHash,...\n      ADD \t\t\trequire(secret == _secretHash,...\n      PUSH [tag] 93\t\t\trequire(secret == _secretHash,...\n      SWAP1 \t\t\trequire(secret == _secretHash,...\n      PUSH [tag] 94\t\t\trequire(secret == _secretHash,...\n      JUMP \t\t\trequire(secret == _secretHash,...\n    tag 93\t\t\trequire(secret == _secretHash,...\n      JUMPDEST \t\t\trequire(secret == _secretHash,...\n      PUSH 40\t\t\trequire(secret == _secretHash,...\n      MLOAD \t\t\trequire(secret == _secretHash,...\n      DUP1 \t\t\trequire(secret == _secretHash,...\n      SWAP2 \t\t\trequire(secret == _secretHash,...\n      SUB \t\t\trequire(secret == _secretHash,...\n      SWAP1 \t\t\trequire(secret == _secretHash,...\n      REVERT \t\t\trequire(secret == _secretHash,...\n    tag 92\t\t\trequire(secret == _secretHash,...\n      JUMPDEST \t\t\trequire(secret == _secretHash,...\n      PUSH 0\t\t\tbytes32 _key\n      PUSH [tag] 95\t\t\tdecrypt(recipient, key)\n      DUP6 \t\t\trecipient\n      DUP5 \t\t\tkey\n      PUSH [tag] 33\t\t\tdecrypt\n      JUMP \t\t\tdecrypt(recipient, key)\n    tag 95\t\t\tdecrypt(recipient, key)\n      JUMPDEST \t\t\tdecrypt(recipient, key)\n      SWAP1 \t\t\tbytes32 _key = decrypt(recipie...\n      POP \t\t\tbytes32 _key = decrypt(recipie...\n      PUSH 0\t\t\tbytes32 _token\n      PUSH [tag] 96\t\t\tdecrypt(recipient, token)\n      DUP7 \t\t\trecipient\n      DUP5 \t\t\ttoken\n      PUSH [tag] 33\t\t\tdecrypt\n      JUMP \t\t\tdecrypt(recipient, token)\n    tag 96\t\t\tdecrypt(recipient, token)\n      JUMPDEST \t\t\tdecrypt(recipient, token)\n      SWAP1 \t\t\tbytes32 _token = decrypt(recip...\n      POP \t\t\tbytes32 _token = decrypt(recip...\n      PUSH 0\t\t\t0x0\n      DUP1 \t\t\t_usersAuthKey[recipient] != 0x...\n      SHL \t\t\t_usersAuthKey[recipient] != 0x...\n      PUSH 3\t\t\t_usersAuthKey\n      PUSH 0\t\t\t_usersAuthKey[recipient]\n      DUP9 \t\t\trecipient\n      PUSH FFFFFFFFFFFFFFFFFFFFFFFFFFFFFFFFFFFFFFFF\t\t\t_usersAuthKey[recipient]\n      AND \t\t\t_usersAuthKey[recipient]\n      PUSH FFFFFFFFFFFFFFFFFFFFFFFFFFFFFFFFFFFFFFFF\t\t\t_usersAuthKey[recipient]\n      AND \t\t\t_usersAuthKey[recipient]\n      DUP2 \t\t\t_usersAuthKey[recipient]\n      MSTORE \t\t\t_usersAuthKey[recipient]\n      PUSH 20\t\t\t_usersAuthKey[recipient]\n      ADD \t\t\t_usersAuthKey[recipient]\n      SWAP1 \t\t\t_usersAuthKey[recipient]\n      DUP2 \t\t\t_usersAuthKey[recipient]\n      MSTORE \t\t\t_usersAuthKey[recipient]\n      PUSH 20\t\t\t_usersAuthKey[recipient]\n      ADD \t\t\t_usersAuthKey[recipient]\n      PUSH 0\t\t\t_usersAuthKey[recipient]\n      KECCAK256 \t\t\t_usersAuthKey[recipient]\n      SLOAD \t\t\t_usersAuthKey[recipient]\n      EQ \t\t\t_usersAuthKey[recipient] != 0x...\n      PUSH [tag] 97\t\t\tif (_usersAuthKey[recipient] !...\n      JUMPI \t\t\tif (_usersAuthKey[recipient] !...\n      PUSH 3\t\t\t_usersAuthKey\n      PUSH 0\t\t\t_usersAuthKey[recipient]\n      DUP8 \t\t\trecipient\n      PUSH FFFFFFFFFFFFFFFFFFFFFFFFFFFFFFFFFFFFFFFF\t\t\t_usersAuthKey[recipient]\n      AND \t\t\t_usersAuthKey[recipient]\n      PUSH FFFFFFFFFFFFFFFFFFFFFFFFFFFFFFFFFFFFFFFF\t\t\t_usersAuthKey[recipient]\n      AND \t\t\t_usersAuthKey[recipient]\n      DUP2 \t\t\t_usersAuthKey[recipient]\n      MSTORE \t\t\t_usersAuthKey[recipient]\n      PUSH 20\t\t\t_usersAuthKey[recipient]\n      ADD \t\t\t_usersAuthKey[recipient]\n      SWAP1 \t\t\t_usersAuthKey[recipient]\n      DUP2 \t\t\t_usersAuthKey[recipient]\n      MSTORE \t\t\t_usersAuthKey[recipient]\n      PUSH 20\t\t\t_usersAuthKey[recipient]\n      ADD \t\t\t_usersAuthKey[recipient]\n      PUSH 0\t\t\t_usersAuthKey[recipient]\n      KECCAK256 \t\t\t_usersAuthKey[recipient]\n      SLOAD \t\t\t_usersAuthKey[recipient]\n      DUP3 \t\t\t_key\n      EQ \t\t\t_key == _usersAuthKey[recipien...\n      PUSH [tag] 98\t\t\trequire(_key == _usersAuthKey[...\n      JUMPI \t\t\trequire(_key == _usersAuthKey[...\n      PUSH 40\t\t\trequire(_key == _usersAuthKey[...\n      MLOAD \t\t\trequire(_key == _usersAuthKey[...\n      PUSH 8C379A000000000000000000000000000000000000000000000000000000000\t\t\trequire(_key == _usersAuthKey[...\n      DUP2 \t\t\trequire(_key == _usersAuthKey[...\n      MSTORE \t\t\trequire(_key == _usersAuthKey[...\n      PUSH 4\t\t\trequire(_key == _usersAuthKey[...\n      ADD \t\t\trequire(_key == _usersAuthKey[...\n      PUSH [tag] 99\t\t\trequire(_key == _usersAuthKey[...\n      SWAP1 \t\t\trequire(_key == _usersAuthKey[...\n      PUSH [tag] 100\t\t\trequire(_key == _usersAuthKey[...\n      JUMP \t\t\trequire(_key == _usersAuthKey[...\n    tag 99\t\t\trequire(_key == _usersAuthKey[...\n      JUMPDEST \t\t\trequire(_key == _usersAuthKey[...\n      PUSH 40\t\t\trequire(_key == _usersAuthKey[...\n      MLOAD \t\t\trequire(_key == _usersAuthKey[...\n      DUP1 \t\t\trequire(_key == _usersAuthKey[...\n      SWAP2 \t\t\trequire(_key == _usersAuthKey[...\n      SUB \t\t\trequire(_key == _usersAuthKey[...\n      SWAP1 \t\t\trequire(_key == _usersAuthKey[...\n      REVERT \t\t\trequire(_key == _usersAuthKey[...\n    tag 98\t\t\trequire(_key == _usersAuthKey[...\n      JUMPDEST \t\t\trequire(_key == _usersAuthKey[...\n      PUSH 2\t\t\t_usersAuthToken\n      PUSH 0\t\t\t_usersAuthToken[recipient]\n      DUP8 \t\t\trecipient\n      PUSH FFFFFFFFFFFFFFFFFFFFFFFFFFFFFFFFFFFFFFFF\t\t\t_usersAuthToken[recipient]\n      AND \t\t\t_usersAuthToken[recipient]\n      PUSH FFFFFFFFFFFFFFFFFFFFFFFFFFFFFFFFFFFFFFFF\t\t\t_usersAuthToken[recipient]\n      AND \t\t\t_usersAuthToken[recipient]\n      DUP2 \t\t\t_usersAuthToken[recipient]\n      MSTORE \t\t\t_usersAuthToken[recipient]\n      PUSH 20\t\t\t_usersAuthToken[recipient]\n      ADD \t\t\t_usersAuthToken[recipient]\n      SWAP1 \t\t\t_usersAuthToken[recipient]\n      DUP2 \t\t\t_usersAuthToken[recipient]\n      MSTORE \t\t\t_usersAuthToken[recipient]\n      PUSH 20\t\t\t_usersAuthToken[recipient]\n      ADD \t\t\t_usersAuthToken[recipient]\n      PUSH 0\t\t\t_usersAuthToken[recipient]\n      KECCAK256 \t\t\t_usersAuthToken[recipient]\n      SLOAD \t\t\t_usersAuthToken[recipient]\n      DUP2 \t\t\t_token\n      EQ \t\t\t_token == _usersAuthToken[reci...\n      PUSH [tag] 101\t\t\trequire(_token == _usersAuthTo...\n      JUMPI \t\t\trequire(_token == _usersAuthTo...\n      PUSH 40\t\t\trequire(_token == _usersAuthTo...\n      MLOAD \t\t\trequire(_token == _usersAuthTo...\n      PUSH 8C379A000000000000000000000000000000000000000000000000000000000\t\t\trequire(_token == _usersAuthTo...\n      DUP2 \t\t\trequire(_token == _usersAuthTo...\n      MSTORE \t\t\trequire(_token == _usersAuthTo...\n      PUSH 4\t\t\trequire(_token == _usersAuthTo...\n      ADD \t\t\trequire(_token == _usersAuthTo...\n      PUSH [tag] 102\t\t\trequire(_token == _usersAuthTo...\n      SWAP1 \t\t\trequire(_token == _usersAuthTo...\n      PUSH [tag] 103\t\t\trequire(_token == _usersAuthTo...\n      JUMP \t\t\trequire(_token == _usersAuthTo...\n    tag 102\t\t\trequire(_token == _usersAuthTo...\n      JUMPDEST \t\t\trequire(_token == _usersAuthTo...\n      PUSH 40\t\t\trequire(_token == _usersAuthTo...\n      MLOAD \t\t\trequire(_token == _usersAuthTo...\n      DUP1 \t\t\trequire(_token == _usersAuthTo...\n      SWAP2 \t\t\trequire(_token == _usersAuthTo...\n      SUB \t\t\trequire(_token == _usersAuthTo...\n      SWAP1 \t\t\trequire(_token == _usersAuthTo...\n      REVERT \t\t\trequire(_token == _usersAuthTo...\n    tag 101\t\t\trequire(_token == _usersAuthTo...\n      JUMPDEST \t\t\trequire(_token == _usersAuthTo...\n      PUSH [tag] 104\t\t\tif (_usersAuthKey[recipient] !...\n      JUMP \t\t\tif (_usersAuthKey[recipient] !...\n    tag 97\t\t\tif (_usersAuthKey[recipient] !...\n      JUMPDEST \t\t\tif (_usersAuthKey[recipient] !...\n      PUSH 1\t\t\t_initKey\n      SLOAD \t\t\t_initKey\n      DUP3 \t\t\t_key\n      EQ \t\t\t_key == _initKey\n      PUSH [tag] 105\t\t\trequire(_key == _initKey, \"Use...\n      JUMPI \t\t\trequire(_key == _initKey, \"Use...\n      PUSH 40\t\t\trequire(_key == _initKey, \"Use...\n      MLOAD \t\t\trequire(_key == _initKey, \"Use...\n      PUSH 8C379A000000000000000000000000000000000000000000000000000000000\t\t\trequire(_key == _initKey, \"Use...\n      DUP2 \t\t\trequire(_key == _initKey, \"Use...\n      MSTORE \t\t\trequire(_key == _initKey, \"Use...\n      PUSH 4\t\t\trequire(_key == _initKey, \"Use...\n      ADD \t\t\trequire(_key == _initKey, \"Use...\n      PUSH [tag] 106\t\t\trequire(_key == _initKey, \"Use...\n      SWAP1 \t\t\trequire(_key == _initKey, \"Use...\n      PUSH [tag] 100\t\t\trequire(_key == _initKey, \"Use...\n      JUMP \t\t\trequire(_key == _initKey, \"Use...\n    tag 106\t\t\trequire(_key == _initKey, \"Use...\n      JUMPDEST \t\t\trequire(_key == _initKey, \"Use...\n      PUSH 40\t\t\trequire(_key == _initKey, \"Use...\n      MLOAD \t\t\trequire(_key == _initKey, \"Use...\n      DUP1 \t\t\trequire(_key == _initKey, \"Use...\n      SWAP2 \t\t\trequire(_key == _initKey, \"Use...\n      SUB \t\t\trequire(_key == _initKey, \"Use...\n      SWAP1 \t\t\trequire(_key == _initKey, \"Use...\n      REVERT \t\t\trequire(_key == _initKey, \"Use...\n    tag 105\t\t\trequire(_key == _initKey, \"Use...\n      JUMPDEST \t\t\trequire(_key == _initKey, \"Use...\n    tag 104\t\t\tif (_usersAuthKey[recipient] !...\n      JUMPDEST \t\t\tif (_usersAuthKey[recipient] !...\n      POP \t\t\t{\\r\\n      \\r\\n        require...\n      POP \t\t\t{\\r\\n      \\r\\n        require...\n      POP \t\t\tfunction userAuthorized(addres...\n      POP \t\t\tfunction userAuthorized(addres...\n      POP \t\t\tfunction userAuthorized(addres...\n      POP \t\t\tfunction userAuthorized(addres...\n      JUMP \t\t\tfunction userAuthorized(addres...\n    tag 76\t\t\t\n      JUMPDEST \t\t\t\n      PUSH 40\t\t\t\n      MLOAD \t\t\t\n      DUP1 \t\t\t\n      PUSH 40\t\t\t\n      ADD \t\t\t\n      PUSH 40\t\t\t\n      MSTORE \t\t\t\n      DUP1 \t\t\t\n      PUSH 0\t\t\t\n      DUP1 \t\t\t\n      NOT \t\t\t\n      AND \t\t\t\n      DUP2 \t\t\t\n      MSTORE \t\t\t\n      PUSH 20\t\t\t\n      ADD \t\t\t\n      PUSH 0\t\t\t\n      DUP1 \t\t\t\n      NOT \t\t\t\n      AND \t\t\t\n      DUP2 \t\t\t\n      MSTORE \t\t\t\n      POP \t\t\t\n      SWAP1 \t\t\t\n      JUMP \t\t\t\n    tag 107\t\t\t-License-Identifier: GPL-3.0\\r...\n      JUMPDEST \t\t\t-License-Identifier: GPL-3.0\\r...\n      PUSH 0\t\t\tsolidit\n      DUP2 \t\t\tcontr\n      SWAP1 \t\t\t<0.9.0;\\r\\n\\r\\ncontr\n      POP \t\t\t<0.9.0;\\r\\n\\r\\ncontr\n      SWAP2 \t\t\t-License-Identifier: GPL-3.0\\r...\n      SWAP1 \t\t\t-License-Identifier: GPL-3.0\\r...\n      POP \t\t\t-License-Identifier: GPL-3.0\\r...\n      JUMP \t\t\t-License-Identifier: GPL-3.0\\r...\n    tag 108\t\t\trea {\\r\\n\\r\\n    bytes32 priva...\n      JUMPDEST \t\t\trea {\\r\\n\\r\\n    bytes32 priva...\n      PUSH [tag] 154\t\t\t(address=>bytes32) priva\n      DUP2 \t\t\t priv\n      PUSH [tag] 107\t\t\t(address=>bytes32) priva\n      JUMP \t\t\t(address=>bytes32) priva\n    tag 154\t\t\t(address=>bytes32) priva\n      JUMPDEST \t\t\t(address=>bytes32) priva\n      DUP3 \t\t\tppi\n      MSTORE \t\t\t\\n    mapping(address=>bytes32...\n      POP \t\t\trea {\\r\\n\\r\\n    bytes32 priva...\n      POP \t\t\trea {\\r\\n\\r\\n    bytes32 priva...\n      JUMP \t\t\trea {\\r\\n\\r\\n    bytes32 priva...\n    tag 15\t\t\tToken;\\r\\n    mapping(address=...\n      JUMPDEST \t\t\tToken;\\r\\n    mapping(address=...\n      PUSH 0\t\t\tpriv\n      PUSH 20\t\t\tcr\n      DUP3 \t\t\t  struct \n      ADD \t\t\t\\r\\n    struct encry\n      SWAP1 \t\t\tseIds;\\r\\n\\r\\n    struct encry\n      POP \t\t\tseIds;\\r\\n\\r\\n    struct encry\n      PUSH [tag] 156\t\t\tt{\\r\\n        bytes32 key;\\r\\n...\n      PUSH 0\t\t\tf\n      DUP4 \t\t\t\\r\\n    // \n      ADD \t\t\t }\\r\\n\\r\\n    // defi\n      DUP5 \t\t\tken;\\r\\n\n      PUSH [tag] 108\t\t\tt{\\r\\n        bytes32 key;\\r\\n...\n      JUMP \t\t\tt{\\r\\n        bytes32 key;\\r\\n...\n    tag 156\t\t\tt{\\r\\n        bytes32 key;\\r\\n...\n      JUMPDEST \t\t\tt{\\r\\n        bytes32 key;\\r\\n...\n      SWAP3 \t\t\tToken;\\r\\n    mapping(address=...\n      SWAP2 \t\t\tToken;\\r\\n    mapping(address=...\n      POP \t\t\tToken;\\r\\n    mapping(address=...\n      POP \t\t\tToken;\\r\\n    mapping(address=...\n      JUMP \t\t\tToken;\\r\\n    mapping(address=...\n    tag 109\t\t\t to get fund on deploy stage\\r...\n      JUMPDEST \t\t\t to get fund on deploy stage\\r...\n      PUSH 0\t\t\tstructo\n      DUP2 \t\t\ts32 i\n      SWAP1 \t\t\tecret, bytes32 i\n      POP \t\t\tecret, bytes32 i\n      SWAP2 \t\t\t to get fund on deploy stage\\r...\n      SWAP1 \t\t\t to get fund on deploy stage\\r...\n      POP \t\t\t to get fund on deploy stage\\r...\n      JUMP \t\t\t to get fund on deploy stage\\r...\n    tag 110\t\t\tble {\\r\\n\\r\\n        _secretHa...\n      JUMPDEST \t\t\tble {\\r\\n\\r\\n        _secretHa...\n      PUSH [tag] 159\t\t\tTransfer Ether to Loyal \n      DUP2 \t\t\tLoyal\n      PUSH [tag] 109\t\t\tTransfer Ether to Loyal \n      JUMP \t\t\tTransfer Ether to Loyal \n    tag 159\t\t\tTransfer Ether to Loyal \n      JUMPDEST \t\t\tTransfer Ether to Loyal \n      DUP3 \t\t\t  /\n      MSTORE \t\t\t}\\r\\n\\r\\n    // Transfer Ether...\n      POP \t\t\tble {\\r\\n\\r\\n        _secretHa...\n      POP \t\t\tble {\\r\\n\\r\\n        _secretHa...\n      JUMP \t\t\tble {\\r\\n\\r\\n        _secretHa...\n    tag 20\t\t\t  function pay(address recipie...\n      JUMPDEST \t\t\t  function pay(address recipie...\n      PUSH 0\t\t\tnt, \n      PUSH 20\t\t\ts3\n      DUP3 \t\t\t key,  by\n      ADD \t\t\tes32 key,  bytes32\n      SWAP1 \t\t\tret, bytes32 key,  bytes32\n      POP \t\t\tret, bytes32 key,  bytes32\n      PUSH [tag] 161\t\t\tblic payable{\\r\\n    \\r\\n     ...\n      PUSH 0\t\t\tt\n      DUP4 \t\t\tcret, key\n      ADD \t\t\t, secret, key, to\n      DUP5 \t\t\trecipi\n      PUSH [tag] 110\t\t\tblic payable{\\r\\n    \\r\\n     ...\n      JUMP \t\t\tblic payable{\\r\\n    \\r\\n     ...\n    tag 161\t\t\tblic payable{\\r\\n    \\r\\n     ...\n      JUMPDEST \t\t\tblic payable{\\r\\n    \\r\\n     ...\n      SWAP3 \t\t\t  function pay(address recipie...\n      SWAP2 \t\t\t  function pay(address recipie...\n      POP \t\t\t  function pay(address recipie...\n      POP \t\t\t  function pay(address recipie...\n      JUMP \t\t\t  function pay(address recipie...\n    tag 112\t\t\t       if(shoppingCount >= cam...\n      JUMPDEST \t\t\t       if(shoppingCount >= cam...\n      PUSH 0\t\t\t \n      DUP1 \t\t\t \n      REVERT \t\t\tress\\r\\n      \n    tag 114\t\t\trecipient] = \"new token\";\\r\\n ...\n      JUMPDEST \t\t\trecipient] = \"new token\";\\r\\n ...\n      PUSH 0\t\t\t  _user\n      PUSH FFFFFFFFFFFFFFFFFFFFFFFFFFFFFFFFFFFFFFFF\t\t\t\\n\\r\\n            encrypt(reci...\n      DUP3 \t\t\t key\"\n      AND \t\t\t\"new key\";\\r\\n\\r\\n            ...\n      SWAP1 \t\t\tcipient] = \"new key\";\\r\\n\\r\\n ...\n      POP \t\t\tcipient] = \"new key\";\\r\\n\\r\\n ...\n      SWAP2 \t\t\trecipient] = \"new token\";\\r\\n ...\n      SWAP1 \t\t\trecipient] = \"new token\";\\r\\n ...\n      POP \t\t\trecipient] = \"new token\";\\r\\n ...\n      JUMP \t\t\trecipient] = \"new token\";\\r\\n ...\n    tag 115\t\t\t\\n            revert(\"User not...\n      JUMPDEST \t\t\t\\n            revert(\"User not...\n      PUSH 0\t\t\te!\");\\r\\n\n      PUSH [tag] 167\t\t\t \\r\\n    }\\r\\n\\r\\n    function\n      DUP3 \t\t\tnctio\n      PUSH [tag] 114\t\t\t \\r\\n    }\\r\\n\\r\\n    function\n      JUMP \t\t\t \\r\\n    }\\r\\n\\r\\n    function\n    tag 167\t\t\t \\r\\n    }\\r\\n\\r\\n    function\n      JUMPDEST \t\t\t \\r\\n    }\\r\\n\\r\\n    function\n      SWAP1 \t\t\t\\r\\n\\r\\n        \\r\\n    }\\r\\n\\...\n      POP \t\t\t\\r\\n\\r\\n        \\r\\n    }\\r\\n\\...\n      SWAP2 \t\t\t\\n            revert(\"User not...\n      SWAP1 \t\t\t\\n            revert(\"User not...\n      POP \t\t\t\\n            revert(\"User not...\n      JUMP \t\t\t\\n            revert(\"User not...\n    tag 116\t\t\tzed(address recipient, bytes32...\n      JUMPDEST \t\t\tzed(address recipient, bytes32...\n      PUSH [tag] 169\t\t\te view {\\r\\n      \\r\\n      \n      DUP2 \t\t\t     \n      PUSH [tag] 115\t\t\te view {\\r\\n      \\r\\n      \n      JUMP \t\t\te view {\\r\\n      \\r\\n      \n    tag 169\t\t\te view {\\r\\n      \\r\\n      \n      JUMPDEST \t\t\te view {\\r\\n      \\r\\n      \n      DUP2 \t\t\t priv\n      EQ \t\t\ten) private view {\\r\\n      \\r...\n      PUSH [tag] 170\t\t\tytes32 token) private view {\\r...\n      JUMPI \t\t\tytes32 token) private view {\\r...\n      PUSH 0\t\t\tt\n      DUP1 \t\t\tc\n      REVERT \t\t\tuire(secret \n    tag 170\t\t\tytes32 token) private view {\\r...\n      JUMPDEST \t\t\tytes32 token) private view {\\r...\n      POP \t\t\tzed(address recipient, bytes32...\n      JUMP \t\t\tzed(address recipient, bytes32...\n    tag 117\t\t\t, \"User not Authorized: secret...\n      JUMPDEST \t\t\t, \"User not Authorized: secret...\n      PUSH 0\t\t\t);\\r\\n\\r\n      DUP2 \t\t\tecipie\n      CALLDATALOAD \t\t\ty = decrypt(recipien\n      SWAP1 \t\t\ttes32 _key = decrypt(recipien\n      POP \t\t\ttes32 _key = decrypt(recipien\n      PUSH [tag] 172\t\t\t\\n        bytes32 _token = dec...\n      DUP2 \t\t\tecryp\n      PUSH [tag] 116\t\t\t\\n        bytes32 _token = dec...\n      JUMP \t\t\t\\n        bytes32 _token = dec...\n    tag 172\t\t\t\\n        bytes32 _token = dec...\n      JUMPDEST \t\t\t\\n        bytes32 _token = dec...\n      SWAP3 \t\t\t, \"User not Authorized: secret...\n      SWAP2 \t\t\t, \"User not Authorized: secret...\n      POP \t\t\t, \"User not Authorized: secret...\n      POP \t\t\t, \"User not Authorized: secret...\n      JUMP \t\t\t, \"User not Authorized: secret...\n    tag 118\t\t\ttoken);\\r\\n\\r\\n        if (_us...\n      JUMPDEST \t\t\ttoken);\\r\\n\\r\\n        if (_us...\n      PUSH [tag] 174\t\t\trequire(_key == _usersAu\n      DUP2 \t\t\tsersA\n      PUSH [tag] 109\t\t\trequire(_key == _usersAu\n      JUMP \t\t\trequire(_key == _usersAu\n    tag 174\t\t\trequire(_key == _usersAu\n      JUMPDEST \t\t\trequire(_key == _usersAu\n      DUP2 \t\t\t     \n      EQ \t\t\t          require(_key == _use...\n      PUSH [tag] 175\t\t\t0) {\\r\\n\\r\\n            requir...\n      JUMPI \t\t\t0) {\\r\\n\\r\\n            requir...\n      PUSH 0\t\t\t]\n      DUP1 \t\t\te\n      REVERT \t\t\t[recipient],\n    tag 175\t\t\t0) {\\r\\n\\r\\n            requir...\n      JUMPDEST \t\t\t0) {\\r\\n\\r\\n            requir...\n      POP \t\t\ttoken);\\r\\n\\r\\n        if (_us...\n      JUMP \t\t\ttoken);\\r\\n\\r\\n        if (_us...\n    tag 119\t\t\thorized: auth key is wrong!\");...\n      JUMPDEST \t\t\thorized: auth key is wrong!\");...\n      PUSH 0\t\t\tquire\n      DUP2 \t\t\tent], \n      CALLDATALOAD \t\t\thToken[recipient], \"\n      SWAP1 \t\t\t_usersAuthToken[recipient], \"\n      POP \t\t\t_usersAuthToken[recipient], \"\n      PUSH [tag] 177\t\t\tAuthorized: auth token is wron...\n      DUP2 \t\t\trong!\n      PUSH [tag] 118\t\t\tAuthorized: auth token is wron...\n      JUMP \t\t\tAuthorized: auth token is wron...\n    tag 177\t\t\tAuthorized: auth token is wron...\n      JUMPDEST \t\t\tAuthorized: auth token is wron...\n      SWAP3 \t\t\thorized: auth key is wrong!\");...\n      SWAP2 \t\t\thorized: auth key is wrong!\");...\n      POP \t\t\thorized: auth key is wrong!\");...\n      POP \t\t\thorized: auth key is wrong!\");...\n      JUMP \t\t\thorized: auth key is wrong!\");...\n    tag 120\t\t\t  }else{\\r\\n\\r\\n           req...\n      JUMPDEST \t\t\t  }else{\\r\\n\\r\\n           req...\n      PUSH [tag] 179\t\t\tth key is wrong!\");\\r\\n\\r\\n \n      DUP2 \t\t\t;\\r\\n\\r\\n\n      PUSH [tag] 107\t\t\tth key is wrong!\");\\r\\n\\r\\n \n      JUMP \t\t\tth key is wrong!\");\\r\\n\\r\\n \n    tag 179\t\t\tth key is wrong!\");\\r\\n\\r\\n \n      JUMPDEST \t\t\tth key is wrong!\");\\r\\n\\r\\n \n      DUP2 \t\t\tzed: \n      EQ \t\t\torized: auth key is wrong!\");\\...\n      PUSH [tag] 180\t\t\tr not Authorized: auth key is ...\n      JUMPI \t\t\tr not Authorized: auth key is ...\n      PUSH 0\t\t\t \n      DUP1 \t\t\t \n      REVERT \t\t\t  }\\r\\n      \\r\n    tag 180\t\t\tr not Authorized: auth key is ...\n      JUMPDEST \t\t\tr not Authorized: auth key is ...\n      POP \t\t\t  }else{\\r\\n\\r\\n           req...\n      JUMP \t\t\t  }else{\\r\\n\\r\\n           req...\n    tag 121\t\t\t  function encrypt(address rec...\n      JUMPDEST \t\t\t  function encrypt(address rec...\n      PUSH 0\t\t\teturn\n      DUP2 \t\t\t      \n      CALLDATALOAD \t\t\tmemory) {\\r\\n        \\r\n      SWAP1 \t\t\tonResult memory) {\\r\\n        ...\n      POP \t\t\tonResult memory) {\\r\\n        ...\n      PUSH [tag] 182\t\t\tif (_usersAuthKey[recipient] =...\n      DUP2 \t\t\t] == \n      PUSH [tag] 120\t\t\tif (_usersAuthKey[recipient] =...\n      JUMP \t\t\tif (_usersAuthKey[recipient] =...\n    tag 182\t\t\tif (_usersAuthKey[recipient] =...\n      JUMPDEST \t\t\tif (_usersAuthKey[recipient] =...\n      SWAP3 \t\t\t  function encrypt(address rec...\n      SWAP2 \t\t\t  function encrypt(address rec...\n      POP \t\t\t  function encrypt(address rec...\n      POP \t\t\t  function encrypt(address rec...\n      JUMP \t\t\t  function encrypt(address rec...\n    tag 27\t\t\t         _usersAuthKey[recipie...\n      JUMPDEST \t\t\t         _usersAuthKey[recipie...\n      PUSH 0\t\t\tender,\n      DUP1 \t\t\tkey\"))\n      PUSH 0\t\t\t\\n     \n      DUP1 \t\t\t     _\n      PUSH 0\t\t\tersAut\n      DUP1 \t\t\token[r\n      PUSH 0\t\t\tipient\n      PUSH E0\t\t\tock\n      DUP9 \t\t\tblockhash\n      DUP11 \t\t\tdePacke\n      SUB \t\t\tencodePacked(blockhash(\n      SLT \t\t\tabi.encodePacked(blockhash(blo...\n      ISZERO \t\t\t56(abi.encodePacked(blockhash(...\n      PUSH [tag] 184\t\t\t56(abi.encodePacked(blockhash(...\n      JUMPI \t\t\t56(abi.encodePacked(blockhash(...\n      PUSH [tag] 185\t\t\tber - 1), block.timestamp,msg....\n      PUSH [tag] 112\t\t\tber - 1), block.timestamp,msg....\n      JUMP \t\t\tber - 1), block.timestamp,msg....\n    tag 185\t\t\tber - 1), block.timestamp,msg....\n      JUMPDEST \t\t\tber - 1), block.timestamp,msg....\n    tag 184\t\t\t56(abi.encodePacked(blockhash(...\n      JUMPDEST \t\t\t56(abi.encodePacked(blockhash(...\n      PUSH 0\t\t\ti\n      PUSH [tag] 186\t\t\t32 encToken = _usersAuthToken[...\n      DUP11 \t\t\tinitKey\n      DUP3 \t\t\tent]  \n      DUP12 \t\t\token[reci\n      ADD \t\t\tuthToken[recipient]  ^\n      PUSH [tag] 117\t\t\t32 encToken = _usersAuthToken[...\n      JUMP \t\t\t32 encToken = _usersAuthToken[...\n    tag 186\t\t\t32 encToken = _usersAuthToken[...\n      JUMPDEST \t\t\t32 encToken = _usersAuthToken[...\n      SWAP8 \t\t\t     bytes32 encToken = _users...\n      POP \t\t\t     bytes32 encToken = _users...\n      POP \t\t\tsersAuthKey[recipient]  ^ _ini...\n      PUSH 20\t\t\tcK\n      PUSH [tag] 187\t\t\t\\n\\r\\n        }else{\\r\\n\\r\\n  ...\n      DUP11 \t\t\ty[recip\n      DUP3 \t\t\tersAut\n      DUP12 \t\t\t        _\n      ADD \t\t\t            _usersAuth\n      PUSH [tag] 119\t\t\t\\n\\r\\n        }else{\\r\\n\\r\\n  ...\n      JUMP \t\t\t\\n\\r\\n        }else{\\r\\n\\r\\n  ...\n    tag 187\t\t\t\\n\\r\\n        }else{\\r\\n\\r\\n  ...\n      JUMPDEST \t\t\t\\n\\r\\n        }else{\\r\\n\\r\\n  ...\n      SWAP7 \t\t\tToken });\\r\\n\\r\\n        }else...\n      POP \t\t\tToken });\\r\\n\\r\\n        }else...\n      POP \t\t\trn encryptionResult({ key: enc...\n      PUSH 40\t\t\t.n\n      PUSH [tag] 188\t\t\tamp,msg.sender, \"key\"));\\r\\n  ...\n      DUP11 \t\t\tuthToke\n      DUP3 \t\t\t  _use\n      DUP12 \t\t\t\\n        \n      ADD \t\t\t));\\r\\n            _user\n      PUSH [tag] 119\t\t\tamp,msg.sender, \"key\"));\\r\\n  ...\n      JUMP \t\t\tamp,msg.sender, \"key\"));\\r\\n  ...\n    tag 188\t\t\tamp,msg.sender, \"key\"));\\r\\n  ...\n      JUMPDEST \t\t\tamp,msg.sender, \"key\"));\\r\\n  ...\n      SWAP6 \t\t\tock.timestamp,msg.sender, \"key...\n      POP \t\t\tock.timestamp,msg.sender, \"key...\n      POP \t\t\t.encodePacked(blockhash(block....\n      PUSH 60\t\t\th(\n      PUSH [tag] 189\t\t\t.timestamp,msg.sender, \"token\"...\n      DUP11 \t\t\t       \n      DUP3 \t\t\t      \n      DUP12 \t\t\token\"));\\r\n      ADD \t\t\t, \"token\"));\\r\\n        \n      PUSH [tag] 119\t\t\t.timestamp,msg.sender, \"token\"...\n      JUMP \t\t\t.timestamp,msg.sender, \"token\"...\n    tag 189\t\t\t.timestamp,msg.sender, \"token\"...\n      JUMPDEST \t\t\t.timestamp,msg.sender, \"token\"...\n      SWAP5 \t\t\t 1), block.timestamp,msg.sende...\n      POP \t\t\t 1), block.timestamp,msg.sende...\n      POP \t\t\t256(abi.encodePacked(blockhash...\n      PUSH 80\t\t\t_us\n      PUSH [tag] 190\t\t\t\\n            bytes32 encToken...\n      DUP11 \t\t\ten[reci\n      DUP3 \t\t\trsAuth\n      DUP12 \t\t\token = _u\n      ADD \t\t\tencToken = _usersAuthT\n      PUSH [tag] 121\t\t\t\\n            bytes32 encToken...\n      JUMP \t\t\t\\n            bytes32 encToken...\n    tag 190\t\t\t\\n            bytes32 encToken...\n      JUMPDEST \t\t\t\\n            bytes32 encToken...\n      SWAP4 \t\t\tipient] ;\\r\\n            bytes...\n      POP \t\t\tipient] ;\\r\\n            bytes...\n      POP \t\t\t _usersAuthKey[recipient]  ^ _...\n      PUSH A0\t\t\t  r\n      PUSH [tag] 191\t\t\t key: encKey, token: encToken ...\n      DUP11 \t\t\t}\\r\\n    \n      DUP3 \t\t\t\\n     \n      DUP12 \t\t\token });\\r\n      ADD \t\t\tencToken });\\r\\n\\r\\n      \n      PUSH [tag] 121\t\t\t key: encKey, token: encToken ...\n      JUMP \t\t\t key: encKey, token: encToken ...\n    tag 191\t\t\t key: encKey, token: encToken ...\n      JUMPDEST \t\t\t key: encKey, token: encToken ...\n      SWAP3 \t\t\tonResult({ key: encKey, token:...\n      POP \t\t\tonResult({ key: encKey, token:...\n      POP \t\t\tey[recipient] ;\\r\\n\\r\\n       ...\n      PUSH C0\t\t\t32 \n      PUSH [tag] 192\t\t\ts (bytes32) {\\r\\n\\r\\n        b...\n      DUP11 \t\t\tue;\\r\\n\\r\\n\n      DUP3 \t\t\trypted\n      DUP12 \t\t\tbytes32 d\n      ADD \t\t\t    bytes32 decryptedV\n      PUSH [tag] 121\t\t\ts (bytes32) {\\r\\n\\r\\n        b...\n      JUMP \t\t\ts (bytes32) {\\r\\n\\r\\n        b...\n    tag 192\t\t\ts (bytes32) {\\r\\n\\r\\n        b...\n      JUMPDEST \t\t\ts (bytes32) {\\r\\n\\r\\n        b...\n      SWAP2 \t\t\tiew returns (bytes32) {\\r\\n\\r\\...\n      POP \t\t\tiew returns (bytes32) {\\r\\n\\r\\...\n      POP \t\t\trypt(address recipient, bytes3...\n      SWAP3 \t\t\t         _usersAuthKey[recipie...\n      SWAP6 \t\t\t         _usersAuthKey[recipie...\n      SWAP9 \t\t\t         _usersAuthKey[recipie...\n      SWAP2 \t\t\t         _usersAuthKey[recipie...\n      SWAP5 \t\t\t         _usersAuthKey[recipie...\n      SWAP8 \t\t\t         _usersAuthKey[recipie...\n      POP \t\t\t         _usersAuthKey[recipie...\n      SWAP3 \t\t\t         _usersAuthKey[recipie...\n      SWAP6 \t\t\t         _usersAuthKey[recipie...\n      POP \t\t\t         _usersAuthKey[recipie...\n      JUMP \t\t\t         _usersAuthKey[recipie...\n    tag 32\t\t\ty[recipient] != 0x0) {\\r\\n    ...\n      JUMPDEST \t\t\ty[recipient] != 0x0) {\\r\\n    ...\n      PUSH 0\t\t\tthKey[\n      DUP1 \t\t\tcipien\n      PUSH 40\t\t\tal\n      DUP4 \t\t\t  decrypt\n      DUP6 \t\t\t       \n      SUB \t\t\t{\\r\\n            decrypte\n      SLT \t\t\telse{\\r\\n            decrypted...\n      ISZERO \t\t\t  }else{\\r\\n            decryp...\n      PUSH [tag] 194\t\t\t  }else{\\r\\n            decryp...\n      JUMPI \t\t\t  }else{\\r\\n            decryp...\n      PUSH [tag] 195\t\t\t data ^ _initKey;\\r\\n        }...\n      PUSH [tag] 112\t\t\t data ^ _initKey;\\r\\n        }...\n      JUMP \t\t\t data ^ _initKey;\\r\\n        }...\n    tag 195\t\t\t data ^ _initKey;\\r\\n        }...\n      JUMPDEST \t\t\t data ^ _initKey;\\r\\n        }...\n    tag 194\t\t\t  }else{\\r\\n            decryp...\n      JUMPDEST \t\t\t  }else{\\r\\n            decryp...\n      PUSH 0\t\t\t \n      PUSH [tag] 196\t\t\tblic view returns(uint256){\\r\\...\n      DUP6 \t\t\t addres\n      DUP3 \t\t\t   ret\n      DUP7 \t\t\t){\\r\\n\\r\\n   \n      ADD \t\t\tt256){\\r\\n\\r\\n        retu\n      PUSH [tag] 117\t\t\tblic view returns(uint256){\\r\\...\n      JUMP \t\t\tblic view returns(uint256){\\r\\...\n    tag 196\t\t\tblic view returns(uint256){\\r\\...\n      JUMPDEST \t\t\tblic view returns(uint256){\\r\\...\n      SWAP3 \t\t\tlance() public view returns(ui...\n      POP \t\t\tlance() public view returns(ui...\n      POP \t\t\tance of contract address\\r\\n  ...\n      PUSH 20\t\t\tio\n      PUSH [tag] 197\t\t\tt)public view returns(bytes32)...\n      DUP6 \t\t\tturn _u\n      DUP3 \t\t\t      \n      DUP7 \t\t\tes32){\\r\\n\\r\n      ADD \t\t\t(bytes32){\\r\\n\\r\\n        \n      PUSH [tag] 121\t\t\tt)public view returns(bytes32)...\n      JUMP \t\t\tt)public view returns(bytes32)...\n    tag 197\t\t\tt)public view returns(bytes32)...\n      JUMPDEST \t\t\tt)public view returns(bytes32)...\n      SWAP2 \t\t\ts recipient)public view return...\n      POP \t\t\ts recipient)public view return...\n      POP \t\t\t   }\\r\\n\\r\\n    \\r\\n    \\r\\n  ...\n      SWAP3 \t\t\ty[recipient] != 0x0) {\\r\\n    ...\n      POP \t\t\ty[recipient] != 0x0) {\\r\\n    ...\n      SWAP3 \t\t\ty[recipient] != 0x0) {\\r\\n    ...\n      SWAP1 \t\t\ty[recipient] != 0x0) {\\r\\n    ...\n      POP \t\t\ty[recipient] != 0x0) {\\r\\n    ...\n      JUMP \t\t\ty[recipient] != 0x0) {\\r\\n    ...\n    tag 38\t\t\t\\n    }\\r\\n    \\r\\n    functio...\n      JUMPDEST \t\t\t\\n    }\\r\\n    \\r\\n    functio...\n      PUSH 0\t\t\tiew re\n      PUSH 20\t\t\tth\n      DUP3 \t\t\trn  _user\n      DUP5 \t\t\t     re\n      SUB \t\t\t\\n        return  _users\n      SLT \t\t\t{\\r\\n\\r\\n        return  _user...\n      ISZERO \t\t\t32){\\r\\n\\r\\n        return  _u...\n      PUSH [tag] 199\t\t\t32){\\r\\n\\r\\n        return  _u...\n      JUMPI \t\t\t32){\\r\\n\\r\\n        return  _u...\n      PUSH [tag] 200\t\t\tn[recipient];\\r\\n    }\\r\\n\\r\\n...\n      PUSH [tag] 112\t\t\tn[recipient];\\r\\n    }\\r\\n\\r\\n...\n      JUMP \t\t\tn[recipient];\\r\\n    }\\r\\n\\r\\n...\n    tag 200\t\t\tn[recipient];\\r\\n    }\\r\\n\\r\\n...\n      JUMPDEST \t\t\tn[recipient];\\r\\n    }\\r\\n\\r\\n...\n    tag 199\t\t\t32){\\r\\n\\r\\n        return  _u...\n      JUMPDEST \t\t\t32){\\r\\n\\r\\n        return  _u...\n      PUSH 0\t\t\tn\n      PUSH [tag] 201\t\t\t returns(bytes32){\\r\\n\\r\\n    ...\n      DUP5 \t\t\tHash;\\r\\n\n      DUP3 \t\t\t  _sec\n      DUP6 \t\t\t     retu\n      ADD \t\t\t\\n        return  _secr\n      PUSH [tag] 117\t\t\t returns(bytes32){\\r\\n\\r\\n    ...\n      JUMP \t\t\t returns(bytes32){\\r\\n\\r\\n    ...\n    tag 201\t\t\t returns(bytes32){\\r\\n\\r\\n    ...\n      JUMPDEST \t\t\t returns(bytes32){\\r\\n\\r\\n    ...\n      SWAP2 \t\t\tublic view returns(bytes32){\\r...\n      POP \t\t\tublic view returns(bytes32){\\r...\n      POP \t\t\t  _initKey;\\r\\n    }\\r\\n\\r\\n  ...\n      SWAP3 \t\t\t\\n    }\\r\\n    \\r\\n    functio...\n      SWAP2 \t\t\t\\n    }\\r\\n    \\r\\n    functio...\n      POP \t\t\t\\n    }\\r\\n    \\r\\n    functio...\n      POP \t\t\t\\n    }\\r\\n    \\r\\n    functio...\n      JUMP \t\t\t\\n    }\\r\\n    \\r\\n    functio...\n    tag 122\t\t\t\n      JUMPDEST \t\t\t\n      PUSH [tag] 203\t\t\t\n      DUP2 \t\t\t\n      PUSH [tag] 107\t\t\t\n      JUMP \t\t\t\n    tag 203\t\t\t\n      JUMPDEST \t\t\t\n      DUP3 \t\t\t\n      MSTORE \t\t\t\n      POP \t\t\t\n      POP \t\t\t\n      JUMP \t\t\t\n    tag 123\t\t\t\n      JUMPDEST \t\t\t\n      PUSH 40\t\t\t\n      DUP3 \t\t\t\n      ADD \t\t\t\n      PUSH 0\t\t\t\n      DUP3 \t\t\t\n      ADD \t\t\t\n      MLOAD \t\t\t\n      PUSH [tag] 205\t\t\t\n      PUSH 0\t\t\t\n      DUP6 \t\t\t\n      ADD \t\t\t\n      DUP3 \t\t\t\n      PUSH [tag] 122\t\t\t\n      JUMP \t\t\t\n    tag 205\t\t\t\n      JUMPDEST \t\t\t\n      POP \t\t\t\n      PUSH 20\t\t\t\n      DUP3 \t\t\t\n      ADD \t\t\t\n      MLOAD \t\t\t\n      PUSH [tag] 206\t\t\t\n      PUSH 20\t\t\t\n      DUP6 \t\t\t\n      ADD \t\t\t\n      DUP3 \t\t\t\n      PUSH [tag] 122\t\t\t\n      JUMP \t\t\t\n    tag 206\t\t\t\n      JUMPDEST \t\t\t\n      POP \t\t\t\n      POP \t\t\t\n      POP \t\t\t\n      POP \t\t\t\n      JUMP \t\t\t\n    tag 51\t\t\t\n      JUMPDEST \t\t\t\n      PUSH 0\t\t\t\n      PUSH 40\t\t\t\n      DUP3 \t\t\t\n      ADD \t\t\t\n      SWAP1 \t\t\t\n      POP \t\t\t\n      PUSH [tag] 208\t\t\t\n      PUSH 0\t\t\t\n      DUP4 \t\t\t\n      ADD \t\t\t\n      DUP5 \t\t\t\n      PUSH [tag] 123\t\t\t\n      JUMP \t\t\t\n    tag 208\t\t\t\n      JUMPDEST \t\t\t\n      SWAP3 \t\t\t\n      SWAP2 \t\t\t\n      POP \t\t\t\n      POP \t\t\t\n      JUMP \t\t\t\n    tag 124\t\t\t\n      JUMPDEST \t\t\t\n      PUSH 0\t\t\t\n      DUP3 \t\t\t\n      DUP3 \t\t\t\n      MSTORE \t\t\t\n      PUSH 20\t\t\t\n      DUP3 \t\t\t\n      ADD \t\t\t\n      SWAP1 \t\t\t\n      POP \t\t\t\n      SWAP3 \t\t\t\n      SWAP2 \t\t\t\n      POP \t\t\t\n      POP \t\t\t\n      JUMP \t\t\t\n    tag 125\t\t\t\n      JUMPDEST \t\t\t\n      PUSH 496E73756666696369656E742062616C616E6365000000000000000000000000\t\t\t\n      PUSH 0\t\t\t\n      DUP3 \t\t\t\n      ADD \t\t\t\n      MSTORE \t\t\t\n      POP \t\t\t\n      JUMP \t\t\t\n    tag 126\t\t\t\n      JUMPDEST \t\t\t\n      PUSH 0\t\t\t\n      PUSH [tag] 212\t\t\t\n      PUSH 14\t\t\t\n      DUP4 \t\t\t\n      PUSH [tag] 124\t\t\t\n      JUMP \t\t\t\n    tag 212\t\t\t\n      JUMPDEST \t\t\t\n      SWAP2 \t\t\t\n      POP \t\t\t\n      PUSH [tag] 213\t\t\t\n      DUP3 \t\t\t\n      PUSH [tag] 125\t\t\t\n      JUMP \t\t\t\n    tag 213\t\t\t\n      JUMPDEST \t\t\t\n      PUSH 20\t\t\t\n      DUP3 \t\t\t\n      ADD \t\t\t\n      SWAP1 \t\t\t\n      POP \t\t\t\n      SWAP2 \t\t\t\n      SWAP1 \t\t\t\n      POP \t\t\t\n      JUMP \t\t\t\n    tag 60\t\t\t\n      JUMPDEST \t\t\t\n      PUSH 0\t\t\t\n      PUSH 20\t\t\t\n      DUP3 \t\t\t\n      ADD \t\t\t\n      SWAP1 \t\t\t\n      POP \t\t\t\n      DUP2 \t\t\t\n      DUP2 \t\t\t\n      SUB \t\t\t\n      PUSH 0\t\t\t\n      DUP4 \t\t\t\n      ADD \t\t\t\n      MSTORE \t\t\t\n      PUSH [tag] 215\t\t\t\n      DUP2 \t\t\t\n      PUSH [tag] 126\t\t\t\n      JUMP \t\t\t\n    tag 215\t\t\t\n      JUMPDEST \t\t\t\n      SWAP1 \t\t\t\n      POP \t\t\t\n      SWAP2 \t\t\t\n      SWAP1 \t\t\t\n      POP \t\t\t\n      JUMP \t\t\t\n    tag 127\t\t\t\n      JUMPDEST \t\t\t\n      PUSH 5472616E73666572206661696C65640000000000000000000000000000000000\t\t\t\n      PUSH 0\t\t\t\n      DUP3 \t\t\t\n      ADD \t\t\t\n      MSTORE \t\t\t\n      POP \t\t\t\n      JUMP \t\t\t\n    tag 128\t\t\t\n      JUMPDEST \t\t\t\n      PUSH 0\t\t\t\n      PUSH [tag] 218\t\t\t\n      PUSH F\t\t\t\n      DUP4 \t\t\t\n      PUSH [tag] 124\t\t\t\n      JUMP \t\t\t\n    tag 218\t\t\t\n      JUMPDEST \t\t\t\n      SWAP2 \t\t\t\n      POP \t\t\t\n      PUSH [tag] 219\t\t\t\n      DUP3 \t\t\t\n      PUSH [tag] 127\t\t\t\n      JUMP \t\t\t\n    tag 219\t\t\t\n      JUMPDEST \t\t\t\n      PUSH 20\t\t\t\n      DUP3 \t\t\t\n      ADD \t\t\t\n      SWAP1 \t\t\t\n      POP \t\t\t\n      SWAP2 \t\t\t\n      SWAP1 \t\t\t\n      POP \t\t\t\n      JUMP \t\t\t\n    tag 65\t\t\t\n      JUMPDEST \t\t\t\n      PUSH 0\t\t\t\n      PUSH 20\t\t\t\n      DUP3 \t\t\t\n      ADD \t\t\t\n      SWAP1 \t\t\t\n      POP \t\t\t\n      DUP2 \t\t\t\n      DUP2 \t\t\t\n      SUB \t\t\t\n      PUSH 0\t\t\t\n      DUP4 \t\t\t\n      ADD \t\t\t\n      MSTORE \t\t\t\n      PUSH [tag] 221\t\t\t\n      DUP2 \t\t\t\n      PUSH [tag] 128\t\t\t\n      JUMP \t\t\t\n    tag 221\t\t\t\n      JUMPDEST \t\t\t\n      SWAP1 \t\t\t\n      POP \t\t\t\n      SWAP2 \t\t\t\n      SWAP1 \t\t\t\n      POP \t\t\t\n      JUMP \t\t\t\n    tag 129\t\t\t\n      JUMPDEST \t\t\t\n      PUSH 55736572206E6F7420456C696769626C65210000000000000000000000000000\t\t\t\n      PUSH 0\t\t\t\n      DUP3 \t\t\t\n      ADD \t\t\t\n      MSTORE \t\t\t\n      POP \t\t\t\n      JUMP \t\t\t\n    tag 130\t\t\t\n      JUMPDEST \t\t\t\n      PUSH 0\t\t\t\n      PUSH [tag] 224\t\t\t\n      PUSH 12\t\t\t\n      DUP4 \t\t\t\n      PUSH [tag] 124\t\t\t\n      JUMP \t\t\t\n    tag 224\t\t\t\n      JUMPDEST \t\t\t\n      SWAP2 \t\t\t\n      POP \t\t\t\n      PUSH [tag] 225\t\t\t\n      DUP3 \t\t\t\n      PUSH [tag] 129\t\t\t\n      JUMP \t\t\t\n    tag 225\t\t\t\n      JUMPDEST \t\t\t\n      PUSH 20\t\t\t\n      DUP3 \t\t\t\n      ADD \t\t\t\n      SWAP1 \t\t\t\n      POP \t\t\t\n      SWAP2 \t\t\t\n      SWAP1 \t\t\t\n      POP \t\t\t\n      JUMP \t\t\t\n    tag 69\t\t\t\n      JUMPDEST \t\t\t\n      PUSH 0\t\t\t\n      PUSH 20\t\t\t\n      DUP3 \t\t\t\n      ADD \t\t\t\n      SWAP1 \t\t\t\n      POP \t\t\t\n      DUP2 \t\t\t\n      DUP2 \t\t\t\n      SUB \t\t\t\n      PUSH 0\t\t\t\n      DUP4 \t\t\t\n      ADD \t\t\t\n      MSTORE \t\t\t\n      PUSH [tag] 227\t\t\t\n      DUP2 \t\t\t\n      PUSH [tag] 130\t\t\t\n      JUMP \t\t\t\n    tag 227\t\t\t\n      JUMPDEST \t\t\t\n      SWAP1 \t\t\t\n      POP \t\t\t\n      SWAP2 \t\t\t\n      SWAP1 \t\t\t\n      POP \t\t\t\n      JUMP \t\t\t\n    tag 131\t\t\t\n      JUMPDEST \t\t\t\n      PUSH 4E487B7100000000000000000000000000000000000000000000000000000000\t\t\t\n      PUSH 0\t\t\t\n      MSTORE \t\t\t\n      PUSH 11\t\t\t\n      PUSH 4\t\t\t\n      MSTORE \t\t\t\n      PUSH 24\t\t\t\n      PUSH 0\t\t\t\n      REVERT \t\t\t\n    tag 80\t\t\t\n      JUMPDEST \t\t\t\n      PUSH 0\t\t\t\n      PUSH [tag] 230\t\t\t\n      DUP3 \t\t\t\n      PUSH [tag] 109\t\t\t\n      JUMP \t\t\t\n    tag 230\t\t\t\n      JUMPDEST \t\t\t\n      SWAP2 \t\t\t\n      POP \t\t\t\n      PUSH [tag] 231\t\t\t\n      DUP4 \t\t\t\n      PUSH [tag] 109\t\t\t\n      JUMP \t\t\t\n    tag 231\t\t\t\n      JUMPDEST \t\t\t\n      SWAP3 \t\t\t\n      POP \t\t\t\n      DUP3 \t\t\t\n      DUP3 \t\t\t\n      SUB \t\t\t\n      SWAP1 \t\t\t\n      POP \t\t\t\n      DUP2 \t\t\t\n      DUP2 \t\t\t\n      GT \t\t\t\n      ISZERO \t\t\t\n      PUSH [tag] 232\t\t\t\n      JUMPI \t\t\t\n      PUSH [tag] 233\t\t\t\n      PUSH [tag] 131\t\t\t\n      JUMP \t\t\t\n    tag 233\t\t\t\n      JUMPDEST \t\t\t\n    tag 232\t\t\t\n      JUMPDEST \t\t\t\n      SWAP3 \t\t\t\n      SWAP2 \t\t\t\n      POP \t\t\t\n      POP \t\t\t\n      JUMP \t\t\t\n    tag 132\t\t\t\n      JUMPDEST \t\t\t\n      PUSH 0\t\t\t\n      DUP2 \t\t\t\n      SWAP1 \t\t\t\n      POP \t\t\t\n      SWAP2 \t\t\t\n      SWAP1 \t\t\t\n      POP \t\t\t\n      JUMP \t\t\t\n    tag 133\t\t\t\n      JUMPDEST \t\t\t\n      PUSH [tag] 236\t\t\t\n      PUSH [tag] 237\t\t\t\n      DUP3 \t\t\t\n      PUSH [tag] 107\t\t\t\n      JUMP \t\t\t\n    tag 237\t\t\t\n      JUMPDEST \t\t\t\n      PUSH [tag] 132\t\t\t\n      JUMP \t\t\t\n    tag 236\t\t\t\n      JUMPDEST \t\t\t\n      DUP3 \t\t\t\n      MSTORE \t\t\t\n      POP \t\t\t\n      POP \t\t\t\n      JUMP \t\t\t\n    tag 134\t\t\t\n      JUMPDEST \t\t\t\n      PUSH 0\t\t\t\n      DUP2 \t\t\t\n      SWAP1 \t\t\t\n      POP \t\t\t\n      SWAP2 \t\t\t\n      SWAP1 \t\t\t\n      POP \t\t\t\n      JUMP \t\t\t\n    tag 135\t\t\t\n      JUMPDEST \t\t\t\n      PUSH [tag] 240\t\t\t\n      PUSH [tag] 241\t\t\t\n      DUP3 \t\t\t\n      PUSH [tag] 109\t\t\t\n      JUMP \t\t\t\n    tag 241\t\t\t\n      JUMPDEST \t\t\t\n      PUSH [tag] 134\t\t\t\n      JUMP \t\t\t\n    tag 240\t\t\t\n      JUMPDEST \t\t\t\n      DUP3 \t\t\t\n      MSTORE \t\t\t\n      POP \t\t\t\n      POP \t\t\t\n      JUMP \t\t\t\n    tag 136\t\t\t\n      JUMPDEST \t\t\t\n      PUSH 0\t\t\t\n      DUP2 \t\t\t\n      PUSH 60\t\t\t\n      SHL \t\t\t\n      SWAP1 \t\t\t\n      POP \t\t\t\n      SWAP2 \t\t\t\n      SWAP1 \t\t\t\n      POP \t\t\t\n      JUMP \t\t\t\n    tag 137\t\t\t\n      JUMPDEST \t\t\t\n      PUSH 0\t\t\t\n      PUSH [tag] 244\t\t\t\n      DUP3 \t\t\t\n      PUSH [tag] 136\t\t\t\n      JUMP \t\t\t\n    tag 244\t\t\t\n      JUMPDEST \t\t\t\n      SWAP1 \t\t\t\n      POP \t\t\t\n      SWAP2 \t\t\t\n      SWAP1 \t\t\t\n      POP \t\t\t\n      JUMP \t\t\t\n    tag 138\t\t\t\n      JUMPDEST \t\t\t\n      PUSH 0\t\t\t\n      PUSH [tag] 246\t\t\t\n      DUP3 \t\t\t\n      PUSH [tag] 137\t\t\t\n      JUMP \t\t\t\n    tag 246\t\t\t\n      JUMPDEST \t\t\t\n      SWAP1 \t\t\t\n      POP \t\t\t\n      SWAP2 \t\t\t\n      SWAP1 \t\t\t\n      POP \t\t\t\n      JUMP \t\t\t\n    tag 139\t\t\t\n      JUMPDEST \t\t\t\n      PUSH [tag] 248\t\t\t\n      PUSH [tag] 249\t\t\t\n      DUP3 \t\t\t\n      PUSH [tag] 115\t\t\t\n      JUMP \t\t\t\n    tag 249\t\t\t\n      JUMPDEST \t\t\t\n      PUSH [tag] 138\t\t\t\n      JUMP \t\t\t\n    tag 248\t\t\t\n      JUMPDEST \t\t\t\n      DUP3 \t\t\t\n      MSTORE \t\t\t\n      POP \t\t\t\n      POP \t\t\t\n      JUMP \t\t\t\n    tag 140\t\t\t\n      JUMPDEST \t\t\t\n      PUSH 0\t\t\t\n      DUP2 \t\t\t\n      SWAP1 \t\t\t\n      POP \t\t\t\n      SWAP3 \t\t\t\n      SWAP2 \t\t\t\n      POP \t\t\t\n      POP \t\t\t\n      JUMP \t\t\t\n    tag 141\t\t\t\n      JUMPDEST \t\t\t\n      PUSH 6B65790000000000000000000000000000000000000000000000000000000000\t\t\t\n      PUSH 0\t\t\t\n      DUP3 \t\t\t\n      ADD \t\t\t\n      MSTORE \t\t\t\n      POP \t\t\t\n      JUMP \t\t\t\n    tag 142\t\t\t\n      JUMPDEST \t\t\t\n      PUSH 0\t\t\t\n      PUSH [tag] 253\t\t\t\n      PUSH 3\t\t\t\n      DUP4 \t\t\t\n      PUSH [tag] 140\t\t\t\n      JUMP \t\t\t\n    tag 253\t\t\t\n      JUMPDEST \t\t\t\n      SWAP2 \t\t\t\n      POP \t\t\t\n      PUSH [tag] 254\t\t\t\n      DUP3 \t\t\t\n      PUSH [tag] 141\t\t\t\n      JUMP \t\t\t\n    tag 254\t\t\t\n      JUMPDEST \t\t\t\n      PUSH 3\t\t\t\n      DUP3 \t\t\t\n      ADD \t\t\t\n      SWAP1 \t\t\t\n      POP \t\t\t\n      SWAP2 \t\t\t\n      SWAP1 \t\t\t\n      POP \t\t\t\n      JUMP \t\t\t\n    tag 82\t\t\t\n      JUMPDEST \t\t\t\n      PUSH 0\t\t\t\n      PUSH [tag] 256\t\t\t\n      DUP3 \t\t\t\n      DUP7 \t\t\t\n      PUSH [tag] 133\t\t\t\n      JUMP \t\t\t\n    tag 256\t\t\t\n      JUMPDEST \t\t\t\n      PUSH 20\t\t\t\n      DUP3 \t\t\t\n      ADD \t\t\t\n      SWAP2 \t\t\t\n      POP \t\t\t\n      PUSH [tag] 257\t\t\t\n      DUP3 \t\t\t\n      DUP6 \t\t\t\n      PUSH [tag] 135\t\t\t\n      JUMP \t\t\t\n    tag 257\t\t\t\n      JUMPDEST \t\t\t\n      PUSH 20\t\t\t\n      DUP3 \t\t\t\n      ADD \t\t\t\n      SWAP2 \t\t\t\n      POP \t\t\t\n      PUSH [tag] 258\t\t\t\n      DUP3 \t\t\t\n      DUP5 \t\t\t\n      PUSH [tag] 139\t\t\t\n      JUMP \t\t\t\n    tag 258\t\t\t\n      JUMPDEST \t\t\t\n      PUSH 14\t\t\t\n      DUP3 \t\t\t\n      ADD \t\t\t\n      SWAP2 \t\t\t\n      POP \t\t\t\n      PUSH [tag] 259\t\t\t\n      DUP3 \t\t\t\n      PUSH [tag] 142\t\t\t\n      JUMP \t\t\t\n    tag 259\t\t\t\n      JUMPDEST \t\t\t\n      SWAP2 \t\t\t\n      POP \t\t\t\n      DUP2 \t\t\t\n      SWAP1 \t\t\t\n      POP \t\t\t\n      SWAP5 \t\t\t\n      SWAP4 \t\t\t\n      POP \t\t\t\n      POP \t\t\t\n      POP \t\t\t\n      POP \t\t\t\n      JUMP \t\t\t\n    tag 143\t\t\t\n      JUMPDEST \t\t\t\n      PUSH 746F6B656E000000000000000000000000000000000000000000000000000000\t\t\t\n      PUSH 0\t\t\t\n      DUP3 \t\t\t\n      ADD \t\t\t\n      MSTORE \t\t\t\n      POP \t\t\t\n      JUMP \t\t\t\n    tag 144\t\t\t\n      JUMPDEST \t\t\t\n      PUSH 0\t\t\t\n      PUSH [tag] 262\t\t\t\n      PUSH 5\t\t\t\n      DUP4 \t\t\t\n      PUSH [tag] 140\t\t\t\n      JUMP \t\t\t\n    tag 262\t\t\t\n      JUMPDEST \t\t\t\n      SWAP2 \t\t\t\n      POP \t\t\t\n      PUSH [tag] 263\t\t\t\n      DUP3 \t\t\t\n      PUSH [tag] 143\t\t\t\n      JUMP \t\t\t\n    tag 263\t\t\t\n      JUMPDEST \t\t\t\n      PUSH 5\t\t\t\n      DUP3 \t\t\t\n      ADD \t\t\t\n      SWAP1 \t\t\t\n      POP \t\t\t\n      SWAP2 \t\t\t\n      SWAP1 \t\t\t\n      POP \t\t\t\n      JUMP \t\t\t\n    tag 85\t\t\t\n      JUMPDEST \t\t\t\n      PUSH 0\t\t\t\n      PUSH [tag] 265\t\t\t\n      DUP3 \t\t\t\n      DUP7 \t\t\t\n      PUSH [tag] 133\t\t\t\n      JUMP \t\t\t\n    tag 265\t\t\t\n      JUMPDEST \t\t\t\n      PUSH 20\t\t\t\n      DUP3 \t\t\t\n      ADD \t\t\t\n      SWAP2 \t\t\t\n      POP \t\t\t\n      PUSH [tag] 266\t\t\t\n      DUP3 \t\t\t\n      DUP6 \t\t\t\n      PUSH [tag] 135\t\t\t\n      JUMP \t\t\t\n    tag 266\t\t\t\n      JUMPDEST \t\t\t\n      PUSH 20\t\t\t\n      DUP3 \t\t\t\n      ADD \t\t\t\n      SWAP2 \t\t\t\n      POP \t\t\t\n      PUSH [tag] 267\t\t\t\n      DUP3 \t\t\t\n      DUP5 \t\t\t\n      PUSH [tag] 139\t\t\t\n      JUMP \t\t\t\n    tag 267\t\t\t\n      JUMPDEST \t\t\t\n      PUSH 14\t\t\t\n      DUP3 \t\t\t\n      ADD \t\t\t\n      SWAP2 \t\t\t\n      POP \t\t\t\n      PUSH [tag] 268\t\t\t\n      DUP3 \t\t\t\n      PUSH [tag] 144\t\t\t\n      JUMP \t\t\t\n    tag 268\t\t\t\n      JUMPDEST \t\t\t\n      SWAP2 \t\t\t\n      POP \t\t\t\n      DUP2 \t\t\t\n      SWAP1 \t\t\t\n      POP \t\t\t\n      SWAP5 \t\t\t\n      SWAP4 \t\t\t\n      POP \t\t\t\n      POP \t\t\t\n      POP \t\t\t\n      POP \t\t\t\n      JUMP \t\t\t\n    tag 145\t\t\t\n      JUMPDEST \t\t\t\n      PUSH 55736572206E6F7420417574686F72697A65643A207365637265742068617368\t\t\t\n      PUSH 0\t\t\t\n      DUP3 \t\t\t\n      ADD \t\t\t\n      MSTORE \t\t\t\n      PUSH 2069732077726F6E672100000000000000000000000000000000000000000000\t\t\t\n      PUSH 20\t\t\t\n      DUP3 \t\t\t\n      ADD \t\t\t\n      MSTORE \t\t\t\n      POP \t\t\t\n      JUMP \t\t\t\n    tag 146\t\t\t\n      JUMPDEST \t\t\t\n      PUSH 0\t\t\t\n      PUSH [tag] 271\t\t\t\n      PUSH 2A\t\t\t\n      DUP4 \t\t\t\n      PUSH [tag] 124\t\t\t\n      JUMP \t\t\t\n    tag 271\t\t\t\n      JUMPDEST \t\t\t\n      SWAP2 \t\t\t\n      POP \t\t\t\n      PUSH [tag] 272\t\t\t\n      DUP3 \t\t\t\n      PUSH [tag] 145\t\t\t\n      JUMP \t\t\t\n    tag 272\t\t\t\n      JUMPDEST \t\t\t\n      PUSH 40\t\t\t\n      DUP3 \t\t\t\n      ADD \t\t\t\n      SWAP1 \t\t\t\n      POP \t\t\t\n      SWAP2 \t\t\t\n      SWAP1 \t\t\t\n      POP \t\t\t\n      JUMP \t\t\t\n    tag 94\t\t\t\n      JUMPDEST \t\t\t\n      PUSH 0\t\t\t\n      PUSH 20\t\t\t\n      DUP3 \t\t\t\n      ADD \t\t\t\n      SWAP1 \t\t\t\n      POP \t\t\t\n      DUP2 \t\t\t\n      DUP2 \t\t\t\n      SUB \t\t\t\n      PUSH 0\t\t\t\n      DUP4 \t\t\t\n      ADD \t\t\t\n      MSTORE \t\t\t\n      PUSH [tag] 274\t\t\t\n      DUP2 \t\t\t\n      PUSH [tag] 146\t\t\t\n      JUMP \t\t\t\n    tag 274\t\t\t\n      JUMPDEST \t\t\t\n      SWAP1 \t\t\t\n      POP \t\t\t\n      SWAP2 \t\t\t\n      SWAP1 \t\t\t\n      POP \t\t\t\n      JUMP \t\t\t\n    tag 147\t\t\t\n      JUMPDEST \t\t\t\n      PUSH 55736572206E6F7420417574686F72697A65643A2061757468206B6579206973\t\t\t\n      PUSH 0\t\t\t\n      DUP3 \t\t\t\n      ADD \t\t\t\n      MSTORE \t\t\t\n      PUSH 2077726F6E672100000000000000000000000000000000000000000000000000\t\t\t\n      PUSH 20\t\t\t\n      DUP3 \t\t\t\n      ADD \t\t\t\n      MSTORE \t\t\t\n      POP \t\t\t\n      JUMP \t\t\t\n    tag 148\t\t\t\n      JUMPDEST \t\t\t\n      PUSH 0\t\t\t\n      PUSH [tag] 277\t\t\t\n      PUSH 27\t\t\t\n      DUP4 \t\t\t\n      PUSH [tag] 124\t\t\t\n      JUMP \t\t\t\n    tag 277\t\t\t\n      JUMPDEST \t\t\t\n      SWAP2 \t\t\t\n      POP \t\t\t\n      PUSH [tag] 278\t\t\t\n      DUP3 \t\t\t\n      PUSH [tag] 147\t\t\t\n      JUMP \t\t\t\n    tag 278\t\t\t\n      JUMPDEST \t\t\t\n      PUSH 40\t\t\t\n      DUP3 \t\t\t\n      ADD \t\t\t\n      SWAP1 \t\t\t\n      POP \t\t\t\n      SWAP2 \t\t\t\n      SWAP1 \t\t\t\n      POP \t\t\t\n      JUMP \t\t\t\n    tag 100\t\t\t\n      JUMPDEST \t\t\t\n      PUSH 0\t\t\t\n      PUSH 20\t\t\t\n      DUP3 \t\t\t\n      ADD \t\t\t\n      SWAP1 \t\t\t\n      POP \t\t\t\n      DUP2 \t\t\t\n      DUP2 \t\t\t\n      SUB \t\t\t\n      PUSH 0\t\t\t\n      DUP4 \t\t\t\n      ADD \t\t\t\n      MSTORE \t\t\t\n      PUSH [tag] 280\t\t\t\n      DUP2 \t\t\t\n      PUSH [tag] 148\t\t\t\n      JUMP \t\t\t\n    tag 280\t\t\t\n      JUMPDEST \t\t\t\n      SWAP1 \t\t\t\n      POP \t\t\t\n      SWAP2 \t\t\t\n      SWAP1 \t\t\t\n      POP \t\t\t\n      JUMP \t\t\t\n    tag 149\t\t\t\n      JUMPDEST \t\t\t\n      PUSH 55736572206E6F7420417574686F72697A65643A206175746820746F6B656E20\t\t\t\n      PUSH 0\t\t\t\n      DUP3 \t\t\t\n      ADD \t\t\t\n      MSTORE \t\t\t\n      PUSH 69732077726F6E67210000000000000000000000000000000000000000000000\t\t\t\n      PUSH 20\t\t\t\n      DUP3 \t\t\t\n      ADD \t\t\t\n      MSTORE \t\t\t\n      POP \t\t\t\n      JUMP \t\t\t\n    tag 150\t\t\t\n      JUMPDEST \t\t\t\n      PUSH 0\t\t\t\n      PUSH [tag] 283\t\t\t\n      PUSH 29\t\t\t\n      DUP4 \t\t\t\n      PUSH [tag] 124\t\t\t\n      JUMP \t\t\t\n    tag 283\t\t\t\n      JUMPDEST \t\t\t\n      SWAP2 \t\t\t\n      POP \t\t\t\n      PUSH [tag] 284\t\t\t\n      DUP3 \t\t\t\n      PUSH [tag] 149\t\t\t\n      JUMP \t\t\t\n    tag 284\t\t\t\n      JUMPDEST \t\t\t\n      PUSH 40\t\t\t\n      DUP3 \t\t\t\n      ADD \t\t\t\n      SWAP1 \t\t\t\n      POP \t\t\t\n      SWAP2 \t\t\t\n      SWAP1 \t\t\t\n      POP \t\t\t\n      JUMP \t\t\t\n    tag 103\t\t\t\n      JUMPDEST \t\t\t\n      PUSH 0\t\t\t\n      PUSH 20\t\t\t\n      DUP3 \t\t\t\n      ADD \t\t\t\n      SWAP1 \t\t\t\n      POP \t\t\t\n      DUP2 \t\t\t\n      DUP2 \t\t\t\n      SUB \t\t\t\n      PUSH 0\t\t\t\n      DUP4 \t\t\t\n      ADD \t\t\t\n      MSTORE \t\t\t\n      PUSH [tag] 286\t\t\t\n      DUP2 \t\t\t\n      PUSH [tag] 150\t\t\t\n      JUMP \t\t\t\n    tag 286\t\t\t\n      JUMPDEST \t\t\t\n      SWAP1 \t\t\t\n      POP \t\t\t\n      SWAP2 \t\t\t\n      SWAP1 \t\t\t\n      POP \t\t\t\n      JUMP \t\t\t\n    .data\n"
}