{
	"compilerInput": "{\"language\":\"Solidity\",\"sources\":{\"loyalty.sol\":{\"content\":\"// SPDX-License-Identifier: GPL-3.0\\r\\npragma solidity >=0.4.20 <0.9.0;\\r\\n\\r\\ncontract cryptoDorea {\\r\\n\\r\\n    address _signer;\\r\\n    bytes  _signatur;\\r\\n\\r\\n    // define constructor to get fund on deploy stage\\r\\n    constructor() payable {\\r\\n\\r\\n\\r\\n    }\\r\\n\\r\\n    // Transfer Ether to Loyal Customers\\r\\n    function pay(address recipient, uint256  amount, uint256 campaignCount, uint256 shoppingCount, bytes memory signature, string memory messageHash) public payable{\\r\\n    \\r\\n        //userAuthorized(signature, messageHash);\\r\\n        \\r\\n        require(amount <= address(this).balance, \\\"Insufficient balance\\\");\\r\\n\\r\\n        if(shoppingCount >= campaignCount){    \\r\\n\\r\\n            // Transfer Ether to the receipnt address\\r\\n            bool success = payable(recipient).send(amount);\\r\\n            require(success, \\\"Transfer failed\\\");\\r\\n\\r\\n\\r\\n        }else{\\r\\n\\r\\n            revert(\\\"User not Eligible!\\\");\\r\\n\\r\\n        }\\r\\n\\r\\n        \\r\\n    }\\r\\n\\r\\n    function userAuthorized(bytes memory signature, bytes32 _messageHash) public pure returns(address) {\\r\\n        \\r\\n        bytes32 r;\\r\\n        bytes32 s;\\r\\n        uint8 v;\\r\\n\\r\\n        assembly {\\r\\n            r := mload(add(signature, 0x20))\\r\\n            s := mload(add(signature, 0x40))\\r\\n            v := byte(0, mload(add(signature, 0x60)))\\r\\n        }\\r\\n\\r\\n    \\r\\n        // ecrecover returns the address that signed the hashed message\\r\\n        address recoveredAddress = ecrecover(_messageHash, v, r, s);\\r\\n\\r\\n        // Check if the recovered address matches the provided signer address\\r\\n        return recoveredAddress;\\r\\n      \\r\\n    }\\r\\n\\r\\n\\r\\n    // get balance of contract address\\r\\n    function getBalance() public view returns(uint256){\\r\\n\\r\\n        return address(this).balance;\\r\\n\\r\\n    }\\r\\n\\r\\n\\r\\n    function test(bytes memory signature) public pure returns(bytes32){\\r\\n        \\r\\n        bytes32 r;\\r\\n        bytes32 s;\\r\\n        uint8 v;\\r\\n\\r\\n        assembly {\\r\\n            r := mload(add(signature, 0x20))\\r\\n            s := mload(add(signature, 0x40))\\r\\n            v := byte(0, mload(add(signature, 0x60)))\\r\\n        }\\r\\n        return s;\\r\\n    }\\r\\n\\r\\n    function test2(string memory hash) public pure returns(bytes32){\\r\\n\\r\\n        return keccak256(abi.encodePacked(hash));\\r\\n\\r\\n    }\\r\\n    \\r\\n     function claimPrize(bytes32 _hashedMessage, uint8 _v, bytes32 _r, bytes32 _s) public pure returns (address) {\\r\\n        bytes memory prefix = \\\"\\\\x19Ethereum Signed Message:\\\\n32\\\";\\r\\n        bytes32 prefixedHashMessage = keccak256(abi.encodePacked(prefix, _hashedMessage));\\r\\n        address signer = ecrecover(prefixedHashMessage, _v, _r, _s);\\r\\n\\r\\n        return signer;\\r\\n    }\\r\\n}\"}},\"settings\":{\"optimizer\":{\"enabled\":false,\"runs\":200},\"outputSelection\":{\"*\":{\"\":[\"ast\"],\"*\":[\"abi\",\"metadata\",\"devdoc\",\"userdoc\",\"storageLayout\",\"evm.legacyAssembly\",\"evm.bytecode\",\"evm.deployedBytecode\",\"evm.methodIdentifiers\",\"evm.gasEstimates\",\"evm.assembly\"]}},\"remappings\":[]}}",
	"name": "cryptoDorea",
	"bytecode": {
		"linkReferences": {},
		"object": "6080604052610c71806100115f395ff3fe608060405260043610610054575f3560e01c806312065fe0146100585780632f570a231461008257806330e738a7146100be578063b35631d8146100fa578063b9c3b1b914610116578063d496e9a114610152575b5f80fd5b348015610063575f80fd5b5061006c61018e565b6040516100799190610446565b60405180910390f35b34801561008d575f80fd5b506100a860048036038101906100a391906105ac565b610195565b6040516100b5919061060b565b60405180910390f35b3480156100c9575f80fd5b506100e460048036038101906100df91906106c2565b6101bb565b6040516100f1919061060b565b60405180910390f35b610114600480360381019061010f919061078d565b6101ea565b005b348015610121575f80fd5b5061013c600480360381019061013791906108ae565b6102f4565b6040516101499190610921565b60405180910390f35b34801561015d575f80fd5b506101786004803603810190610173919061093a565b6103b7565b6040516101859190610921565b60405180910390f35b5f47905090565b5f805f80602085015192506040850151915060608501515f1a9050819350505050919050565b5f816040516020016101cd9190610a00565b604051602081830303815290604052805190602001209050919050565b4785111561022d576040517f08c379a000000000000000000000000000000000000000000000000000000000815260040161022490610a70565b60405180910390fd5b8383106102b1575f8673ffffffffffffffffffffffffffffffffffffffff166108fc8790811502906040515f60405180830381858888f193505050509050806102ab576040517f08c379a00000000000000000000000000000000000000000000000000000000081526004016102a290610ad8565b60405180910390fd5b506102ec565b6040517f08c379a00000000000000000000000000000000000000000000000000000000081526004016102e390610b40565b60405180910390fd5b505050505050565b5f806040518060400160405280601c81526020017f19457468657265756d205369676e6564204d6573736167653a0a33320000000081525090505f8187604051602001610342929190610bc2565b6040516020818303038152906040528051906020012090505f6001828888886040515f815260200160405260405161037d9493929190610bf8565b6020604051602081039080840390855afa15801561039d573d5f803e3d5ffd5b505050602060405103519050809350505050949350505050565b5f805f80602086015192506040860151915060608601515f1a90505f6001868386866040515f81526020016040526040516103f59493929190610bf8565b6020604051602081039080840390855afa158015610415573d5f803e3d5ffd5b5050506020604051035190508094505050505092915050565b5f819050919050565b6104408161042e565b82525050565b5f6020820190506104595f830184610437565b92915050565b5f604051905090565b5f80fd5b5f80fd5b5f80fd5b5f80fd5b5f601f19601f8301169050919050565b7f4e487b71000000000000000000000000000000000000000000000000000000005f52604160045260245ffd5b6104be82610478565b810181811067ffffffffffffffff821117156104dd576104dc610488565b5b80604052505050565b5f6104ef61045f565b90506104fb82826104b5565b919050565b5f67ffffffffffffffff82111561051a57610519610488565b5b61052382610478565b9050602081019050919050565b828183375f83830152505050565b5f61055061054b84610500565b6104e6565b90508281526020810184848401111561056c5761056b610474565b5b610577848285610530565b509392505050565b5f82601f83011261059357610592610470565b5b81356105a384826020860161053e565b91505092915050565b5f602082840312156105c1576105c0610468565b5b5f82013567ffffffffffffffff8111156105de576105dd61046c565b5b6105ea8482850161057f565b91505092915050565b5f819050919050565b610605816105f3565b82525050565b5f60208201905061061e5f8301846105fc565b92915050565b5f67ffffffffffffffff82111561063e5761063d610488565b5b61064782610478565b9050602081019050919050565b5f61066661066184610624565b6104e6565b90508281526020810184848401111561068257610681610474565b5b61068d848285610530565b509392505050565b5f82601f8301126106a9576106a8610470565b5b81356106b9848260208601610654565b91505092915050565b5f602082840312156106d7576106d6610468565b5b5f82013567ffffffffffffffff8111156106f4576106f361046c565b5b61070084828501610695565b91505092915050565b5f73ffffffffffffffffffffffffffffffffffffffff82169050919050565b5f61073282610709565b9050919050565b61074281610728565b811461074c575f80fd5b50565b5f8135905061075d81610739565b92915050565b61076c8161042e565b8114610776575f80fd5b50565b5f8135905061078781610763565b92915050565b5f805f805f8060c087890312156107a7576107a6610468565b5b5f6107b489828a0161074f565b96505060206107c589828a01610779565b95505060406107d689828a01610779565b94505060606107e789828a01610779565b935050608087013567ffffffffffffffff8111156108085761080761046c565b5b61081489828a0161057f565b92505060a087013567ffffffffffffffff8111156108355761083461046c565b5b61084189828a01610695565b9150509295509295509295565b610857816105f3565b8114610861575f80fd5b50565b5f813590506108728161084e565b92915050565b5f60ff82169050919050565b61088d81610878565b8114610897575f80fd5b50565b5f813590506108a881610884565b92915050565b5f805f80608085870312156108c6576108c5610468565b5b5f6108d387828801610864565b94505060206108e48782880161089a565b93505060406108f587828801610864565b925050606061090687828801610864565b91505092959194509250565b61091b81610728565b82525050565b5f6020820190506109345f830184610912565b92915050565b5f80604083850312156109505761094f610468565b5b5f83013567ffffffffffffffff81111561096d5761096c61046c565b5b6109798582860161057f565b925050602061098a85828601610864565b9150509250929050565b5f81519050919050565b5f81905092915050565b5f5b838110156109c55780820151818401526020810190506109aa565b5f8484015250505050565b5f6109da82610994565b6109e4818561099e565b93506109f48185602086016109a8565b80840191505092915050565b5f610a0b82846109d0565b915081905092915050565b5f82825260208201905092915050565b7f496e73756666696369656e742062616c616e63650000000000000000000000005f82015250565b5f610a5a601483610a16565b9150610a6582610a26565b602082019050919050565b5f6020820190508181035f830152610a8781610a4e565b9050919050565b7f5472616e73666572206661696c656400000000000000000000000000000000005f82015250565b5f610ac2600f83610a16565b9150610acd82610a8e565b602082019050919050565b5f6020820190508181035f830152610aef81610ab6565b9050919050565b7f55736572206e6f7420456c696769626c652100000000000000000000000000005f82015250565b5f610b2a601283610a16565b9150610b3582610af6565b602082019050919050565b5f6020820190508181035f830152610b5781610b1e565b9050919050565b5f81519050919050565b5f81905092915050565b5f610b7c82610b5e565b610b868185610b68565b9350610b968185602086016109a8565b80840191505092915050565b5f819050919050565b610bbc610bb7826105f3565b610ba2565b82525050565b5f610bcd8285610b72565b9150610bd98284610bab565b6020820191508190509392505050565b610bf281610878565b82525050565b5f608082019050610c0b5f8301876105fc565b610c186020830186610be9565b610c2560408301856105fc565b610c3260608301846105fc565b9594505050505056fea264697066735822122095e923f106153eddc2111a0fe98017f0763b94f9cda3773f1bcd6029817cb3f564736f6c63430008160033",
		"opcodes": "PUSH1 0x80 PUSH1 0x40 MSTORE PUSH2 0xC71 DUP1 PUSH2 0x11 PUSH0 CODECOPY PUSH0 RETURN INVALID PUSH1 0x80 PUSH1 0x40 MSTORE PUSH1 0x4 CALLDATASIZE LT PUSH2 0x54 JUMPI PUSH0 CALLDATALOAD PUSH1 0xE0 SHR DUP1 PUSH4 0x12065FE0 EQ PUSH2 0x58 JUMPI DUP1 PUSH4 0x2F570A23 EQ PUSH2 0x82 JUMPI DUP1 PUSH4 0x30E738A7 EQ PUSH2 0xBE JUMPI DUP1 PUSH4 0xB35631D8 EQ PUSH2 0xFA JUMPI DUP1 PUSH4 0xB9C3B1B9 EQ PUSH2 0x116 JUMPI DUP1 PUSH4 0xD496E9A1 EQ PUSH2 0x152 JUMPI JUMPDEST PUSH0 DUP1 REVERT JUMPDEST CALLVALUE DUP1 ISZERO PUSH2 0x63 JUMPI PUSH0 DUP1 REVERT JUMPDEST POP PUSH2 0x6C PUSH2 0x18E JUMP JUMPDEST PUSH1 0x40 MLOAD PUSH2 0x79 SWAP2 SWAP1 PUSH2 0x446 JUMP JUMPDEST PUSH1 0x40 MLOAD DUP1 SWAP2 SUB SWAP1 RETURN JUMPDEST CALLVALUE DUP1 ISZERO PUSH2 0x8D JUMPI PUSH0 DUP1 REVERT JUMPDEST POP PUSH2 0xA8 PUSH1 0x4 DUP1 CALLDATASIZE SUB DUP2 ADD SWAP1 PUSH2 0xA3 SWAP2 SWAP1 PUSH2 0x5AC JUMP JUMPDEST PUSH2 0x195 JUMP JUMPDEST PUSH1 0x40 MLOAD PUSH2 0xB5 SWAP2 SWAP1 PUSH2 0x60B JUMP JUMPDEST PUSH1 0x40 MLOAD DUP1 SWAP2 SUB SWAP1 RETURN JUMPDEST CALLVALUE DUP1 ISZERO PUSH2 0xC9 JUMPI PUSH0 DUP1 REVERT JUMPDEST POP PUSH2 0xE4 PUSH1 0x4 DUP1 CALLDATASIZE SUB DUP2 ADD SWAP1 PUSH2 0xDF SWAP2 SWAP1 PUSH2 0x6C2 JUMP JUMPDEST PUSH2 0x1BB JUMP JUMPDEST PUSH1 0x40 MLOAD PUSH2 0xF1 SWAP2 SWAP1 PUSH2 0x60B JUMP JUMPDEST PUSH1 0x40 MLOAD DUP1 SWAP2 SUB SWAP1 RETURN JUMPDEST PUSH2 0x114 PUSH1 0x4 DUP1 CALLDATASIZE SUB DUP2 ADD SWAP1 PUSH2 0x10F SWAP2 SWAP1 PUSH2 0x78D JUMP JUMPDEST PUSH2 0x1EA JUMP JUMPDEST STOP JUMPDEST CALLVALUE DUP1 ISZERO PUSH2 0x121 JUMPI PUSH0 DUP1 REVERT JUMPDEST POP PUSH2 0x13C PUSH1 0x4 DUP1 CALLDATASIZE SUB DUP2 ADD SWAP1 PUSH2 0x137 SWAP2 SWAP1 PUSH2 0x8AE JUMP JUMPDEST PUSH2 0x2F4 JUMP JUMPDEST PUSH1 0x40 MLOAD PUSH2 0x149 SWAP2 SWAP1 PUSH2 0x921 JUMP JUMPDEST PUSH1 0x40 MLOAD DUP1 SWAP2 SUB SWAP1 RETURN JUMPDEST CALLVALUE DUP1 ISZERO PUSH2 0x15D JUMPI PUSH0 DUP1 REVERT JUMPDEST POP PUSH2 0x178 PUSH1 0x4 DUP1 CALLDATASIZE SUB DUP2 ADD SWAP1 PUSH2 0x173 SWAP2 SWAP1 PUSH2 0x93A JUMP JUMPDEST PUSH2 0x3B7 JUMP JUMPDEST PUSH1 0x40 MLOAD PUSH2 0x185 SWAP2 SWAP1 PUSH2 0x921 JUMP JUMPDEST PUSH1 0x40 MLOAD DUP1 SWAP2 SUB SWAP1 RETURN JUMPDEST PUSH0 SELFBALANCE SWAP1 POP SWAP1 JUMP JUMPDEST PUSH0 DUP1 PUSH0 DUP1 PUSH1 0x20 DUP6 ADD MLOAD SWAP3 POP PUSH1 0x40 DUP6 ADD MLOAD SWAP2 POP PUSH1 0x60 DUP6 ADD MLOAD PUSH0 BYTE SWAP1 POP DUP2 SWAP4 POP POP POP POP SWAP2 SWAP1 POP JUMP JUMPDEST PUSH0 DUP2 PUSH1 0x40 MLOAD PUSH1 0x20 ADD PUSH2 0x1CD SWAP2 SWAP1 PUSH2 0xA00 JUMP JUMPDEST PUSH1 0x40 MLOAD PUSH1 0x20 DUP2 DUP4 SUB SUB DUP2 MSTORE SWAP1 PUSH1 0x40 MSTORE DUP1 MLOAD SWAP1 PUSH1 0x20 ADD KECCAK256 SWAP1 POP SWAP2 SWAP1 POP JUMP JUMPDEST SELFBALANCE DUP6 GT ISZERO PUSH2 0x22D JUMPI PUSH1 0x40 MLOAD PUSH32 0x8C379A000000000000000000000000000000000000000000000000000000000 DUP2 MSTORE PUSH1 0x4 ADD PUSH2 0x224 SWAP1 PUSH2 0xA70 JUMP JUMPDEST PUSH1 0x40 MLOAD DUP1 SWAP2 SUB SWAP1 REVERT JUMPDEST DUP4 DUP4 LT PUSH2 0x2B1 JUMPI PUSH0 DUP7 PUSH20 0xFFFFFFFFFFFFFFFFFFFFFFFFFFFFFFFFFFFFFFFF AND PUSH2 0x8FC DUP8 SWAP1 DUP2 ISZERO MUL SWAP1 PUSH1 0x40 MLOAD PUSH0 PUSH1 0x40 MLOAD DUP1 DUP4 SUB DUP2 DUP6 DUP9 DUP9 CALL SWAP4 POP POP POP POP SWAP1 POP DUP1 PUSH2 0x2AB JUMPI PUSH1 0x40 MLOAD PUSH32 0x8C379A000000000000000000000000000000000000000000000000000000000 DUP2 MSTORE PUSH1 0x4 ADD PUSH2 0x2A2 SWAP1 PUSH2 0xAD8 JUMP JUMPDEST PUSH1 0x40 MLOAD DUP1 SWAP2 SUB SWAP1 REVERT JUMPDEST POP PUSH2 0x2EC JUMP JUMPDEST PUSH1 0x40 MLOAD PUSH32 0x8C379A000000000000000000000000000000000000000000000000000000000 DUP2 MSTORE PUSH1 0x4 ADD PUSH2 0x2E3 SWAP1 PUSH2 0xB40 JUMP JUMPDEST PUSH1 0x40 MLOAD DUP1 SWAP2 SUB SWAP1 REVERT JUMPDEST POP POP POP POP POP POP JUMP JUMPDEST PUSH0 DUP1 PUSH1 0x40 MLOAD DUP1 PUSH1 0x40 ADD PUSH1 0x40 MSTORE DUP1 PUSH1 0x1C DUP2 MSTORE PUSH1 0x20 ADD PUSH32 0x19457468657265756D205369676E6564204D6573736167653A0A333200000000 DUP2 MSTORE POP SWAP1 POP PUSH0 DUP2 DUP8 PUSH1 0x40 MLOAD PUSH1 0x20 ADD PUSH2 0x342 SWAP3 SWAP2 SWAP1 PUSH2 0xBC2 JUMP JUMPDEST PUSH1 0x40 MLOAD PUSH1 0x20 DUP2 DUP4 SUB SUB DUP2 MSTORE SWAP1 PUSH1 0x40 MSTORE DUP1 MLOAD SWAP1 PUSH1 0x20 ADD KECCAK256 SWAP1 POP PUSH0 PUSH1 0x1 DUP3 DUP9 DUP9 DUP9 PUSH1 0x40 MLOAD PUSH0 DUP2 MSTORE PUSH1 0x20 ADD PUSH1 0x40 MSTORE PUSH1 0x40 MLOAD PUSH2 0x37D SWAP5 SWAP4 SWAP3 SWAP2 SWAP1 PUSH2 0xBF8 JUMP JUMPDEST PUSH1 0x20 PUSH1 0x40 MLOAD PUSH1 0x20 DUP2 SUB SWAP1 DUP1 DUP5 SUB SWAP1 DUP6 GAS STATICCALL ISZERO DUP1 ISZERO PUSH2 0x39D JUMPI RETURNDATASIZE PUSH0 DUP1 RETURNDATACOPY RETURNDATASIZE PUSH0 REVERT JUMPDEST POP POP POP PUSH1 0x20 PUSH1 0x40 MLOAD SUB MLOAD SWAP1 POP DUP1 SWAP4 POP POP POP POP SWAP5 SWAP4 POP POP POP POP JUMP JUMPDEST PUSH0 DUP1 PUSH0 DUP1 PUSH1 0x20 DUP7 ADD MLOAD SWAP3 POP PUSH1 0x40 DUP7 ADD MLOAD SWAP2 POP PUSH1 0x60 DUP7 ADD MLOAD PUSH0 BYTE SWAP1 POP PUSH0 PUSH1 0x1 DUP7 DUP4 DUP7 DUP7 PUSH1 0x40 MLOAD PUSH0 DUP2 MSTORE PUSH1 0x20 ADD PUSH1 0x40 MSTORE PUSH1 0x40 MLOAD PUSH2 0x3F5 SWAP5 SWAP4 SWAP3 SWAP2 SWAP1 PUSH2 0xBF8 JUMP JUMPDEST PUSH1 0x20 PUSH1 0x40 MLOAD PUSH1 0x20 DUP2 SUB SWAP1 DUP1 DUP5 SUB SWAP1 DUP6 GAS STATICCALL ISZERO DUP1 ISZERO PUSH2 0x415 JUMPI RETURNDATASIZE PUSH0 DUP1 RETURNDATACOPY RETURNDATASIZE PUSH0 REVERT JUMPDEST POP POP POP PUSH1 0x20 PUSH1 0x40 MLOAD SUB MLOAD SWAP1 POP DUP1 SWAP5 POP POP POP POP POP SWAP3 SWAP2 POP POP JUMP JUMPDEST PUSH0 DUP2 SWAP1 POP SWAP2 SWAP1 POP JUMP JUMPDEST PUSH2 0x440 DUP2 PUSH2 0x42E JUMP JUMPDEST DUP3 MSTORE POP POP JUMP JUMPDEST PUSH0 PUSH1 0x20 DUP3 ADD SWAP1 POP PUSH2 0x459 PUSH0 DUP4 ADD DUP5 PUSH2 0x437 JUMP JUMPDEST SWAP3 SWAP2 POP POP JUMP JUMPDEST PUSH0 PUSH1 0x40 MLOAD SWAP1 POP SWAP1 JUMP JUMPDEST PUSH0 DUP1 REVERT JUMPDEST PUSH0 DUP1 REVERT JUMPDEST PUSH0 DUP1 REVERT JUMPDEST PUSH0 DUP1 REVERT JUMPDEST PUSH0 PUSH1 0x1F NOT PUSH1 0x1F DUP4 ADD AND SWAP1 POP SWAP2 SWAP1 POP JUMP JUMPDEST PUSH32 0x4E487B7100000000000000000000000000000000000000000000000000000000 PUSH0 MSTORE PUSH1 0x41 PUSH1 0x4 MSTORE PUSH1 0x24 PUSH0 REVERT JUMPDEST PUSH2 0x4BE DUP3 PUSH2 0x478 JUMP JUMPDEST DUP2 ADD DUP2 DUP2 LT PUSH8 0xFFFFFFFFFFFFFFFF DUP3 GT OR ISZERO PUSH2 0x4DD JUMPI PUSH2 0x4DC PUSH2 0x488 JUMP JUMPDEST JUMPDEST DUP1 PUSH1 0x40 MSTORE POP POP POP JUMP JUMPDEST PUSH0 PUSH2 0x4EF PUSH2 0x45F JUMP JUMPDEST SWAP1 POP PUSH2 0x4FB DUP3 DUP3 PUSH2 0x4B5 JUMP JUMPDEST SWAP2 SWAP1 POP JUMP JUMPDEST PUSH0 PUSH8 0xFFFFFFFFFFFFFFFF DUP3 GT ISZERO PUSH2 0x51A JUMPI PUSH2 0x519 PUSH2 0x488 JUMP JUMPDEST JUMPDEST PUSH2 0x523 DUP3 PUSH2 0x478 JUMP JUMPDEST SWAP1 POP PUSH1 0x20 DUP2 ADD SWAP1 POP SWAP2 SWAP1 POP JUMP JUMPDEST DUP3 DUP2 DUP4 CALLDATACOPY PUSH0 DUP4 DUP4 ADD MSTORE POP POP POP JUMP JUMPDEST PUSH0 PUSH2 0x550 PUSH2 0x54B DUP5 PUSH2 0x500 JUMP JUMPDEST PUSH2 0x4E6 JUMP JUMPDEST SWAP1 POP DUP3 DUP2 MSTORE PUSH1 0x20 DUP2 ADD DUP5 DUP5 DUP5 ADD GT ISZERO PUSH2 0x56C JUMPI PUSH2 0x56B PUSH2 0x474 JUMP JUMPDEST JUMPDEST PUSH2 0x577 DUP5 DUP3 DUP6 PUSH2 0x530 JUMP JUMPDEST POP SWAP4 SWAP3 POP POP POP JUMP JUMPDEST PUSH0 DUP3 PUSH1 0x1F DUP4 ADD SLT PUSH2 0x593 JUMPI PUSH2 0x592 PUSH2 0x470 JUMP JUMPDEST JUMPDEST DUP2 CALLDATALOAD PUSH2 0x5A3 DUP5 DUP3 PUSH1 0x20 DUP7 ADD PUSH2 0x53E JUMP JUMPDEST SWAP2 POP POP SWAP3 SWAP2 POP POP JUMP JUMPDEST PUSH0 PUSH1 0x20 DUP3 DUP5 SUB SLT ISZERO PUSH2 0x5C1 JUMPI PUSH2 0x5C0 PUSH2 0x468 JUMP JUMPDEST JUMPDEST PUSH0 DUP3 ADD CALLDATALOAD PUSH8 0xFFFFFFFFFFFFFFFF DUP2 GT ISZERO PUSH2 0x5DE JUMPI PUSH2 0x5DD PUSH2 0x46C JUMP JUMPDEST JUMPDEST PUSH2 0x5EA DUP5 DUP3 DUP6 ADD PUSH2 0x57F JUMP JUMPDEST SWAP2 POP POP SWAP3 SWAP2 POP POP JUMP JUMPDEST PUSH0 DUP2 SWAP1 POP SWAP2 SWAP1 POP JUMP JUMPDEST PUSH2 0x605 DUP2 PUSH2 0x5F3 JUMP JUMPDEST DUP3 MSTORE POP POP JUMP JUMPDEST PUSH0 PUSH1 0x20 DUP3 ADD SWAP1 POP PUSH2 0x61E PUSH0 DUP4 ADD DUP5 PUSH2 0x5FC JUMP JUMPDEST SWAP3 SWAP2 POP POP JUMP JUMPDEST PUSH0 PUSH8 0xFFFFFFFFFFFFFFFF DUP3 GT ISZERO PUSH2 0x63E JUMPI PUSH2 0x63D PUSH2 0x488 JUMP JUMPDEST JUMPDEST PUSH2 0x647 DUP3 PUSH2 0x478 JUMP JUMPDEST SWAP1 POP PUSH1 0x20 DUP2 ADD SWAP1 POP SWAP2 SWAP1 POP JUMP JUMPDEST PUSH0 PUSH2 0x666 PUSH2 0x661 DUP5 PUSH2 0x624 JUMP JUMPDEST PUSH2 0x4E6 JUMP JUMPDEST SWAP1 POP DUP3 DUP2 MSTORE PUSH1 0x20 DUP2 ADD DUP5 DUP5 DUP5 ADD GT ISZERO PUSH2 0x682 JUMPI PUSH2 0x681 PUSH2 0x474 JUMP JUMPDEST JUMPDEST PUSH2 0x68D DUP5 DUP3 DUP6 PUSH2 0x530 JUMP JUMPDEST POP SWAP4 SWAP3 POP POP POP JUMP JUMPDEST PUSH0 DUP3 PUSH1 0x1F DUP4 ADD SLT PUSH2 0x6A9 JUMPI PUSH2 0x6A8 PUSH2 0x470 JUMP JUMPDEST JUMPDEST DUP2 CALLDATALOAD PUSH2 0x6B9 DUP5 DUP3 PUSH1 0x20 DUP7 ADD PUSH2 0x654 JUMP JUMPDEST SWAP2 POP POP SWAP3 SWAP2 POP POP JUMP JUMPDEST PUSH0 PUSH1 0x20 DUP3 DUP5 SUB SLT ISZERO PUSH2 0x6D7 JUMPI PUSH2 0x6D6 PUSH2 0x468 JUMP JUMPDEST JUMPDEST PUSH0 DUP3 ADD CALLDATALOAD PUSH8 0xFFFFFFFFFFFFFFFF DUP2 GT ISZERO PUSH2 0x6F4 JUMPI PUSH2 0x6F3 PUSH2 0x46C JUMP JUMPDEST JUMPDEST PUSH2 0x700 DUP5 DUP3 DUP6 ADD PUSH2 0x695 JUMP JUMPDEST SWAP2 POP POP SWAP3 SWAP2 POP POP JUMP JUMPDEST PUSH0 PUSH20 0xFFFFFFFFFFFFFFFFFFFFFFFFFFFFFFFFFFFFFFFF DUP3 AND SWAP1 POP SWAP2 SWAP1 POP JUMP JUMPDEST PUSH0 PUSH2 0x732 DUP3 PUSH2 0x709 JUMP JUMPDEST SWAP1 POP SWAP2 SWAP1 POP JUMP JUMPDEST PUSH2 0x742 DUP2 PUSH2 0x728 JUMP JUMPDEST DUP2 EQ PUSH2 0x74C JUMPI PUSH0 DUP1 REVERT JUMPDEST POP JUMP JUMPDEST PUSH0 DUP2 CALLDATALOAD SWAP1 POP PUSH2 0x75D DUP2 PUSH2 0x739 JUMP JUMPDEST SWAP3 SWAP2 POP POP JUMP JUMPDEST PUSH2 0x76C DUP2 PUSH2 0x42E JUMP JUMPDEST DUP2 EQ PUSH2 0x776 JUMPI PUSH0 DUP1 REVERT JUMPDEST POP JUMP JUMPDEST PUSH0 DUP2 CALLDATALOAD SWAP1 POP PUSH2 0x787 DUP2 PUSH2 0x763 JUMP JUMPDEST SWAP3 SWAP2 POP POP JUMP JUMPDEST PUSH0 DUP1 PUSH0 DUP1 PUSH0 DUP1 PUSH1 0xC0 DUP8 DUP10 SUB SLT ISZERO PUSH2 0x7A7 JUMPI PUSH2 0x7A6 PUSH2 0x468 JUMP JUMPDEST JUMPDEST PUSH0 PUSH2 0x7B4 DUP10 DUP3 DUP11 ADD PUSH2 0x74F JUMP JUMPDEST SWAP7 POP POP PUSH1 0x20 PUSH2 0x7C5 DUP10 DUP3 DUP11 ADD PUSH2 0x779 JUMP JUMPDEST SWAP6 POP POP PUSH1 0x40 PUSH2 0x7D6 DUP10 DUP3 DUP11 ADD PUSH2 0x779 JUMP JUMPDEST SWAP5 POP POP PUSH1 0x60 PUSH2 0x7E7 DUP10 DUP3 DUP11 ADD PUSH2 0x779 JUMP JUMPDEST SWAP4 POP POP PUSH1 0x80 DUP8 ADD CALLDATALOAD PUSH8 0xFFFFFFFFFFFFFFFF DUP2 GT ISZERO PUSH2 0x808 JUMPI PUSH2 0x807 PUSH2 0x46C JUMP JUMPDEST JUMPDEST PUSH2 0x814 DUP10 DUP3 DUP11 ADD PUSH2 0x57F JUMP JUMPDEST SWAP3 POP POP PUSH1 0xA0 DUP8 ADD CALLDATALOAD PUSH8 0xFFFFFFFFFFFFFFFF DUP2 GT ISZERO PUSH2 0x835 JUMPI PUSH2 0x834 PUSH2 0x46C JUMP JUMPDEST JUMPDEST PUSH2 0x841 DUP10 DUP3 DUP11 ADD PUSH2 0x695 JUMP JUMPDEST SWAP2 POP POP SWAP3 SWAP6 POP SWAP3 SWAP6 POP SWAP3 SWAP6 JUMP JUMPDEST PUSH2 0x857 DUP2 PUSH2 0x5F3 JUMP JUMPDEST DUP2 EQ PUSH2 0x861 JUMPI PUSH0 DUP1 REVERT JUMPDEST POP JUMP JUMPDEST PUSH0 DUP2 CALLDATALOAD SWAP1 POP PUSH2 0x872 DUP2 PUSH2 0x84E JUMP JUMPDEST SWAP3 SWAP2 POP POP JUMP JUMPDEST PUSH0 PUSH1 0xFF DUP3 AND SWAP1 POP SWAP2 SWAP1 POP JUMP JUMPDEST PUSH2 0x88D DUP2 PUSH2 0x878 JUMP JUMPDEST DUP2 EQ PUSH2 0x897 JUMPI PUSH0 DUP1 REVERT JUMPDEST POP JUMP JUMPDEST PUSH0 DUP2 CALLDATALOAD SWAP1 POP PUSH2 0x8A8 DUP2 PUSH2 0x884 JUMP JUMPDEST SWAP3 SWAP2 POP POP JUMP JUMPDEST PUSH0 DUP1 PUSH0 DUP1 PUSH1 0x80 DUP6 DUP8 SUB SLT ISZERO PUSH2 0x8C6 JUMPI PUSH2 0x8C5 PUSH2 0x468 JUMP JUMPDEST JUMPDEST PUSH0 PUSH2 0x8D3 DUP8 DUP3 DUP9 ADD PUSH2 0x864 JUMP JUMPDEST SWAP5 POP POP PUSH1 0x20 PUSH2 0x8E4 DUP8 DUP3 DUP9 ADD PUSH2 0x89A JUMP JUMPDEST SWAP4 POP POP PUSH1 0x40 PUSH2 0x8F5 DUP8 DUP3 DUP9 ADD PUSH2 0x864 JUMP JUMPDEST SWAP3 POP POP PUSH1 0x60 PUSH2 0x906 DUP8 DUP3 DUP9 ADD PUSH2 0x864 JUMP JUMPDEST SWAP2 POP POP SWAP3 SWAP6 SWAP2 SWAP5 POP SWAP3 POP JUMP JUMPDEST PUSH2 0x91B DUP2 PUSH2 0x728 JUMP JUMPDEST DUP3 MSTORE POP POP JUMP JUMPDEST PUSH0 PUSH1 0x20 DUP3 ADD SWAP1 POP PUSH2 0x934 PUSH0 DUP4 ADD DUP5 PUSH2 0x912 JUMP JUMPDEST SWAP3 SWAP2 POP POP JUMP JUMPDEST PUSH0 DUP1 PUSH1 0x40 DUP4 DUP6 SUB SLT ISZERO PUSH2 0x950 JUMPI PUSH2 0x94F PUSH2 0x468 JUMP JUMPDEST JUMPDEST PUSH0 DUP4 ADD CALLDATALOAD PUSH8 0xFFFFFFFFFFFFFFFF DUP2 GT ISZERO PUSH2 0x96D JUMPI PUSH2 0x96C PUSH2 0x46C JUMP JUMPDEST JUMPDEST PUSH2 0x979 DUP6 DUP3 DUP7 ADD PUSH2 0x57F JUMP JUMPDEST SWAP3 POP POP PUSH1 0x20 PUSH2 0x98A DUP6 DUP3 DUP7 ADD PUSH2 0x864 JUMP JUMPDEST SWAP2 POP POP SWAP3 POP SWAP3 SWAP1 POP JUMP JUMPDEST PUSH0 DUP2 MLOAD SWAP1 POP SWAP2 SWAP1 POP JUMP JUMPDEST PUSH0 DUP2 SWAP1 POP SWAP3 SWAP2 POP POP JUMP JUMPDEST PUSH0 JUMPDEST DUP4 DUP2 LT ISZERO PUSH2 0x9C5 JUMPI DUP1 DUP3 ADD MLOAD DUP2 DUP5 ADD MSTORE PUSH1 0x20 DUP2 ADD SWAP1 POP PUSH2 0x9AA JUMP JUMPDEST PUSH0 DUP5 DUP5 ADD MSTORE POP POP POP POP JUMP JUMPDEST PUSH0 PUSH2 0x9DA DUP3 PUSH2 0x994 JUMP JUMPDEST PUSH2 0x9E4 DUP2 DUP6 PUSH2 0x99E JUMP JUMPDEST SWAP4 POP PUSH2 0x9F4 DUP2 DUP6 PUSH1 0x20 DUP7 ADD PUSH2 0x9A8 JUMP JUMPDEST DUP1 DUP5 ADD SWAP2 POP POP SWAP3 SWAP2 POP POP JUMP JUMPDEST PUSH0 PUSH2 0xA0B DUP3 DUP5 PUSH2 0x9D0 JUMP JUMPDEST SWAP2 POP DUP2 SWAP1 POP SWAP3 SWAP2 POP POP JUMP JUMPDEST PUSH0 DUP3 DUP3 MSTORE PUSH1 0x20 DUP3 ADD SWAP1 POP SWAP3 SWAP2 POP POP JUMP JUMPDEST PUSH32 0x496E73756666696369656E742062616C616E6365000000000000000000000000 PUSH0 DUP3 ADD MSTORE POP JUMP JUMPDEST PUSH0 PUSH2 0xA5A PUSH1 0x14 DUP4 PUSH2 0xA16 JUMP JUMPDEST SWAP2 POP PUSH2 0xA65 DUP3 PUSH2 0xA26 JUMP JUMPDEST PUSH1 0x20 DUP3 ADD SWAP1 POP SWAP2 SWAP1 POP JUMP JUMPDEST PUSH0 PUSH1 0x20 DUP3 ADD SWAP1 POP DUP2 DUP2 SUB PUSH0 DUP4 ADD MSTORE PUSH2 0xA87 DUP2 PUSH2 0xA4E JUMP JUMPDEST SWAP1 POP SWAP2 SWAP1 POP JUMP JUMPDEST PUSH32 0x5472616E73666572206661696C65640000000000000000000000000000000000 PUSH0 DUP3 ADD MSTORE POP JUMP JUMPDEST PUSH0 PUSH2 0xAC2 PUSH1 0xF DUP4 PUSH2 0xA16 JUMP JUMPDEST SWAP2 POP PUSH2 0xACD DUP3 PUSH2 0xA8E JUMP JUMPDEST PUSH1 0x20 DUP3 ADD SWAP1 POP SWAP2 SWAP1 POP JUMP JUMPDEST PUSH0 PUSH1 0x20 DUP3 ADD SWAP1 POP DUP2 DUP2 SUB PUSH0 DUP4 ADD MSTORE PUSH2 0xAEF DUP2 PUSH2 0xAB6 JUMP JUMPDEST SWAP1 POP SWAP2 SWAP1 POP JUMP JUMPDEST PUSH32 0x55736572206E6F7420456C696769626C65210000000000000000000000000000 PUSH0 DUP3 ADD MSTORE POP JUMP JUMPDEST PUSH0 PUSH2 0xB2A PUSH1 0x12 DUP4 PUSH2 0xA16 JUMP JUMPDEST SWAP2 POP PUSH2 0xB35 DUP3 PUSH2 0xAF6 JUMP JUMPDEST PUSH1 0x20 DUP3 ADD SWAP1 POP SWAP2 SWAP1 POP JUMP JUMPDEST PUSH0 PUSH1 0x20 DUP3 ADD SWAP1 POP DUP2 DUP2 SUB PUSH0 DUP4 ADD MSTORE PUSH2 0xB57 DUP2 PUSH2 0xB1E JUMP JUMPDEST SWAP1 POP SWAP2 SWAP1 POP JUMP JUMPDEST PUSH0 DUP2 MLOAD SWAP1 POP SWAP2 SWAP1 POP JUMP JUMPDEST PUSH0 DUP2 SWAP1 POP SWAP3 SWAP2 POP POP JUMP JUMPDEST PUSH0 PUSH2 0xB7C DUP3 PUSH2 0xB5E JUMP JUMPDEST PUSH2 0xB86 DUP2 DUP6 PUSH2 0xB68 JUMP JUMPDEST SWAP4 POP PUSH2 0xB96 DUP2 DUP6 PUSH1 0x20 DUP7 ADD PUSH2 0x9A8 JUMP JUMPDEST DUP1 DUP5 ADD SWAP2 POP POP SWAP3 SWAP2 POP POP JUMP JUMPDEST PUSH0 DUP2 SWAP1 POP SWAP2 SWAP1 POP JUMP JUMPDEST PUSH2 0xBBC PUSH2 0xBB7 DUP3 PUSH2 0x5F3 JUMP JUMPDEST PUSH2 0xBA2 JUMP JUMPDEST DUP3 MSTORE POP POP JUMP JUMPDEST PUSH0 PUSH2 0xBCD DUP3 DUP6 PUSH2 0xB72 JUMP JUMPDEST SWAP2 POP PUSH2 0xBD9 DUP3 DUP5 PUSH2 0xBAB JUMP JUMPDEST PUSH1 0x20 DUP3 ADD SWAP2 POP DUP2 SWAP1 POP SWAP4 SWAP3 POP POP POP JUMP JUMPDEST PUSH2 0xBF2 DUP2 PUSH2 0x878 JUMP JUMPDEST DUP3 MSTORE POP POP JUMP JUMPDEST PUSH0 PUSH1 0x80 DUP3 ADD SWAP1 POP PUSH2 0xC0B PUSH0 DUP4 ADD DUP8 PUSH2 0x5FC JUMP JUMPDEST PUSH2 0xC18 PUSH1 0x20 DUP4 ADD DUP7 PUSH2 0xBE9 JUMP JUMPDEST PUSH2 0xC25 PUSH1 0x40 DUP4 ADD DUP6 PUSH2 0x5FC JUMP JUMPDEST PUSH2 0xC32 PUSH1 0x60 DUP4 ADD DUP5 PUSH2 0x5FC JUMP JUMPDEST SWAP6 SWAP5 POP POP POP POP POP JUMP INVALID LOG2 PUSH5 0x6970667358 0x22 SLT KECCAK256 SWAP6 0xE9 0x23 CALL MOD ISZERO RETURNDATACOPY 0xDD 0xC2 GT BYTE 0xF 0xE9 DUP1 OR CREATE PUSH23 0x3B94F9CDA3773F1BCD6029817CB3F564736F6C63430008 AND STOP CALLER "
	},
	"abi": [
		{
			"inputs": [],
			"stateMutability": "payable",
			"type": "constructor"
		},
		{
			"inputs": [
				{
					"internalType": "bytes32",
					"name": "_hashedMessage",
					"type": "bytes32"
				},
				{
					"internalType": "uint8",
					"name": "_v",
					"type": "uint8"
				},
				{
					"internalType": "bytes32",
					"name": "_r",
					"type": "bytes32"
				},
				{
					"internalType": "bytes32",
					"name": "_s",
					"type": "bytes32"
				}
			],
			"name": "claimPrize",
			"outputs": [
				{
					"internalType": "address",
					"name": "",
					"type": "address"
				}
			],
			"stateMutability": "pure",
			"type": "function"
		},
		{
			"inputs": [],
			"name": "getBalance",
			"outputs": [
				{
					"internalType": "uint256",
					"name": "",
					"type": "uint256"
				}
			],
			"stateMutability": "view",
			"type": "function"
		},
		{
			"inputs": [
				{
					"internalType": "address",
					"name": "recipient",
					"type": "address"
				},
				{
					"internalType": "uint256",
					"name": "amount",
					"type": "uint256"
				},
				{
					"internalType": "uint256",
					"name": "campaignCount",
					"type": "uint256"
				},
				{
					"internalType": "uint256",
					"name": "shoppingCount",
					"type": "uint256"
				},
				{
					"internalType": "bytes",
					"name": "signature",
					"type": "bytes"
				},
				{
					"internalType": "string",
					"name": "messageHash",
					"type": "string"
				}
			],
			"name": "pay",
			"outputs": [],
			"stateMutability": "payable",
			"type": "function"
		},
		{
			"inputs": [
				{
					"internalType": "bytes",
					"name": "signature",
					"type": "bytes"
				}
			],
			"name": "test",
			"outputs": [
				{
					"internalType": "bytes32",
					"name": "",
					"type": "bytes32"
				}
			],
			"stateMutability": "pure",
			"type": "function"
		},
		{
			"inputs": [
				{
					"internalType": "string",
					"name": "hash",
					"type": "string"
				}
			],
			"name": "test2",
			"outputs": [
				{
					"internalType": "bytes32",
					"name": "",
					"type": "bytes32"
				}
			],
			"stateMutability": "pure",
			"type": "function"
		},
		{
			"inputs": [
				{
					"internalType": "bytes",
					"name": "signature",
					"type": "bytes"
				},
				{
					"internalType": "bytes32",
					"name": "_messageHash",
					"type": "bytes32"
				}
			],
			"name": "userAuthorized",
			"outputs": [
				{
					"internalType": "address",
					"name": "",
					"type": "address"
				}
			],
			"stateMutability": "pure",
			"type": "function"
		}
	],
	"storageLayout": {
		"storage": [
			{
				"astId": 3,
				"contract": "loyalty.sol:cryptoDorea",
				"label": "_signer",
				"offset": 0,
				"slot": "0",
				"type": "t_address"
			},
			{
				"astId": 5,
				"contract": "loyalty.sol:cryptoDorea",
				"label": "_signatur",
				"offset": 0,
				"slot": "1",
				"type": "t_bytes_storage"
			}
		],
		"types": {
			"t_address": {
				"encoding": "inplace",
				"label": "address",
				"numberOfBytes": "20"
			},
			"t_bytes_storage": {
				"encoding": "bytes",
				"label": "bytes",
				"numberOfBytes": "32"
			}
		}
	},
	"web3Deploy": "var cryptodoreaContract = new web3.eth.Contract([{\"inputs\":[],\"stateMutability\":\"payable\",\"type\":\"constructor\"},{\"inputs\":[{\"internalType\":\"bytes32\",\"name\":\"_hashedMessage\",\"type\":\"bytes32\"},{\"internalType\":\"uint8\",\"name\":\"_v\",\"type\":\"uint8\"},{\"internalType\":\"bytes32\",\"name\":\"_r\",\"type\":\"bytes32\"},{\"internalType\":\"bytes32\",\"name\":\"_s\",\"type\":\"bytes32\"}],\"name\":\"claimPrize\",\"outputs\":[{\"internalType\":\"address\",\"name\":\"\",\"type\":\"address\"}],\"stateMutability\":\"pure\",\"type\":\"function\"},{\"inputs\":[],\"name\":\"getBalance\",\"outputs\":[{\"internalType\":\"uint256\",\"name\":\"\",\"type\":\"uint256\"}],\"stateMutability\":\"view\",\"type\":\"function\"},{\"inputs\":[{\"internalType\":\"address\",\"name\":\"recipient\",\"type\":\"address\"},{\"internalType\":\"uint256\",\"name\":\"amount\",\"type\":\"uint256\"},{\"internalType\":\"uint256\",\"name\":\"campaignCount\",\"type\":\"uint256\"},{\"internalType\":\"uint256\",\"name\":\"shoppingCount\",\"type\":\"uint256\"},{\"internalType\":\"bytes\",\"name\":\"signature\",\"type\":\"bytes\"},{\"internalType\":\"string\",\"name\":\"messageHash\",\"type\":\"string\"}],\"name\":\"pay\",\"outputs\":[],\"stateMutability\":\"payable\",\"type\":\"function\"},{\"inputs\":[{\"internalType\":\"bytes\",\"name\":\"signature\",\"type\":\"bytes\"}],\"name\":\"test\",\"outputs\":[{\"internalType\":\"bytes32\",\"name\":\"\",\"type\":\"bytes32\"}],\"stateMutability\":\"pure\",\"type\":\"function\"},{\"inputs\":[{\"internalType\":\"string\",\"name\":\"hash\",\"type\":\"string\"}],\"name\":\"test2\",\"outputs\":[{\"internalType\":\"bytes32\",\"name\":\"\",\"type\":\"bytes32\"}],\"stateMutability\":\"pure\",\"type\":\"function\"},{\"inputs\":[{\"internalType\":\"bytes\",\"name\":\"signature\",\"type\":\"bytes\"},{\"internalType\":\"bytes32\",\"name\":\"_messageHash\",\"type\":\"bytes32\"}],\"name\":\"userAuthorized\",\"outputs\":[{\"internalType\":\"address\",\"name\":\"\",\"type\":\"address\"}],\"stateMutability\":\"pure\",\"type\":\"function\"}]);\nvar cryptodorea = cryptodoreaContract.deploy({\n     data: '0x6080604052610c71806100115f395ff3fe608060405260043610610054575f3560e01c806312065fe0146100585780632f570a231461008257806330e738a7146100be578063b35631d8146100fa578063b9c3b1b914610116578063d496e9a114610152575b5f80fd5b348015610063575f80fd5b5061006c61018e565b6040516100799190610446565b60405180910390f35b34801561008d575f80fd5b506100a860048036038101906100a391906105ac565b610195565b6040516100b5919061060b565b60405180910390f35b3480156100c9575f80fd5b506100e460048036038101906100df91906106c2565b6101bb565b6040516100f1919061060b565b60405180910390f35b610114600480360381019061010f919061078d565b6101ea565b005b348015610121575f80fd5b5061013c600480360381019061013791906108ae565b6102f4565b6040516101499190610921565b60405180910390f35b34801561015d575f80fd5b506101786004803603810190610173919061093a565b6103b7565b6040516101859190610921565b60405180910390f35b5f47905090565b5f805f80602085015192506040850151915060608501515f1a9050819350505050919050565b5f816040516020016101cd9190610a00565b604051602081830303815290604052805190602001209050919050565b4785111561022d576040517f08c379a000000000000000000000000000000000000000000000000000000000815260040161022490610a70565b60405180910390fd5b8383106102b1575f8673ffffffffffffffffffffffffffffffffffffffff166108fc8790811502906040515f60405180830381858888f193505050509050806102ab576040517f08c379a00000000000000000000000000000000000000000000000000000000081526004016102a290610ad8565b60405180910390fd5b506102ec565b6040517f08c379a00000000000000000000000000000000000000000000000000000000081526004016102e390610b40565b60405180910390fd5b505050505050565b5f806040518060400160405280601c81526020017f19457468657265756d205369676e6564204d6573736167653a0a33320000000081525090505f8187604051602001610342929190610bc2565b6040516020818303038152906040528051906020012090505f6001828888886040515f815260200160405260405161037d9493929190610bf8565b6020604051602081039080840390855afa15801561039d573d5f803e3d5ffd5b505050602060405103519050809350505050949350505050565b5f805f80602086015192506040860151915060608601515f1a90505f6001868386866040515f81526020016040526040516103f59493929190610bf8565b6020604051602081039080840390855afa158015610415573d5f803e3d5ffd5b5050506020604051035190508094505050505092915050565b5f819050919050565b6104408161042e565b82525050565b5f6020820190506104595f830184610437565b92915050565b5f604051905090565b5f80fd5b5f80fd5b5f80fd5b5f80fd5b5f601f19601f8301169050919050565b7f4e487b71000000000000000000000000000000000000000000000000000000005f52604160045260245ffd5b6104be82610478565b810181811067ffffffffffffffff821117156104dd576104dc610488565b5b80604052505050565b5f6104ef61045f565b90506104fb82826104b5565b919050565b5f67ffffffffffffffff82111561051a57610519610488565b5b61052382610478565b9050602081019050919050565b828183375f83830152505050565b5f61055061054b84610500565b6104e6565b90508281526020810184848401111561056c5761056b610474565b5b610577848285610530565b509392505050565b5f82601f83011261059357610592610470565b5b81356105a384826020860161053e565b91505092915050565b5f602082840312156105c1576105c0610468565b5b5f82013567ffffffffffffffff8111156105de576105dd61046c565b5b6105ea8482850161057f565b91505092915050565b5f819050919050565b610605816105f3565b82525050565b5f60208201905061061e5f8301846105fc565b92915050565b5f67ffffffffffffffff82111561063e5761063d610488565b5b61064782610478565b9050602081019050919050565b5f61066661066184610624565b6104e6565b90508281526020810184848401111561068257610681610474565b5b61068d848285610530565b509392505050565b5f82601f8301126106a9576106a8610470565b5b81356106b9848260208601610654565b91505092915050565b5f602082840312156106d7576106d6610468565b5b5f82013567ffffffffffffffff8111156106f4576106f361046c565b5b61070084828501610695565b91505092915050565b5f73ffffffffffffffffffffffffffffffffffffffff82169050919050565b5f61073282610709565b9050919050565b61074281610728565b811461074c575f80fd5b50565b5f8135905061075d81610739565b92915050565b61076c8161042e565b8114610776575f80fd5b50565b5f8135905061078781610763565b92915050565b5f805f805f8060c087890312156107a7576107a6610468565b5b5f6107b489828a0161074f565b96505060206107c589828a01610779565b95505060406107d689828a01610779565b94505060606107e789828a01610779565b935050608087013567ffffffffffffffff8111156108085761080761046c565b5b61081489828a0161057f565b92505060a087013567ffffffffffffffff8111156108355761083461046c565b5b61084189828a01610695565b9150509295509295509295565b610857816105f3565b8114610861575f80fd5b50565b5f813590506108728161084e565b92915050565b5f60ff82169050919050565b61088d81610878565b8114610897575f80fd5b50565b5f813590506108a881610884565b92915050565b5f805f80608085870312156108c6576108c5610468565b5b5f6108d387828801610864565b94505060206108e48782880161089a565b93505060406108f587828801610864565b925050606061090687828801610864565b91505092959194509250565b61091b81610728565b82525050565b5f6020820190506109345f830184610912565b92915050565b5f80604083850312156109505761094f610468565b5b5f83013567ffffffffffffffff81111561096d5761096c61046c565b5b6109798582860161057f565b925050602061098a85828601610864565b9150509250929050565b5f81519050919050565b5f81905092915050565b5f5b838110156109c55780820151818401526020810190506109aa565b5f8484015250505050565b5f6109da82610994565b6109e4818561099e565b93506109f48185602086016109a8565b80840191505092915050565b5f610a0b82846109d0565b915081905092915050565b5f82825260208201905092915050565b7f496e73756666696369656e742062616c616e63650000000000000000000000005f82015250565b5f610a5a601483610a16565b9150610a6582610a26565b602082019050919050565b5f6020820190508181035f830152610a8781610a4e565b9050919050565b7f5472616e73666572206661696c656400000000000000000000000000000000005f82015250565b5f610ac2600f83610a16565b9150610acd82610a8e565b602082019050919050565b5f6020820190508181035f830152610aef81610ab6565b9050919050565b7f55736572206e6f7420456c696769626c652100000000000000000000000000005f82015250565b5f610b2a601283610a16565b9150610b3582610af6565b602082019050919050565b5f6020820190508181035f830152610b5781610b1e565b9050919050565b5f81519050919050565b5f81905092915050565b5f610b7c82610b5e565b610b868185610b68565b9350610b968185602086016109a8565b80840191505092915050565b5f819050919050565b610bbc610bb7826105f3565b610ba2565b82525050565b5f610bcd8285610b72565b9150610bd98284610bab565b6020820191508190509392505050565b610bf281610878565b82525050565b5f608082019050610c0b5f8301876105fc565b610c186020830186610be9565b610c2560408301856105fc565b610c3260608301846105fc565b9594505050505056fea264697066735822122095e923f106153eddc2111a0fe98017f0763b94f9cda3773f1bcd6029817cb3f564736f6c63430008160033', \n     arguments: [\n     ]\n}).send({\n     from: web3.eth.accounts[0], \n     gas: '4700000'\n   }, function (e, contract){\n    console.log(e, contract);\n    if (typeof contract.address !== 'undefined') {\n         console.log('Contract mined! address: ' + contract.address + ' transactionHash: ' + contract.transactionHash);\n    }\n })",
	"functionHashes": {
		"b9c3b1b9": "claimPrize(bytes32,uint8,bytes32,bytes32)",
		"12065fe0": "getBalance()",
		"b35631d8": "pay(address,uint256,uint256,uint256,bytes,string)",
		"2f570a23": "test(bytes)",
		"30e738a7": "test2(string)",
		"d496e9a1": "userAuthorized(bytes,bytes32)"
	},
	"gasEstimates": {
		"Creation": {
			"codeDepositCost": "637000",
			"executionCost": "644",
			"totalCost": "637644"
		},
		"External": {
			"claimPrize(bytes32,uint8,bytes32,bytes32)": "infinite",
			"getBalance()": "312",
			"pay(address,uint256,uint256,uint256,bytes,string)": "infinite",
			"test(bytes)": "infinite",
			"test2(string)": "infinite",
			"userAuthorized(bytes,bytes32)": "infinite"
		}
	},
	"devdoc": {
		"kind": "dev",
		"methods": {},
		"version": 1
	},
	"userdoc": {
		"kind": "user",
		"methods": {},
		"version": 1
	},
	"Runtime Bytecode": {
		"immutableReferences": {},
		"linkReferences": {},
		"object": "608060405260043610610054575f3560e01c806312065fe0146100585780632f570a231461008257806330e738a7146100be578063b35631d8146100fa578063b9c3b1b914610116578063d496e9a114610152575b5f80fd5b348015610063575f80fd5b5061006c61018e565b6040516100799190610446565b60405180910390f35b34801561008d575f80fd5b506100a860048036038101906100a391906105ac565b610195565b6040516100b5919061060b565b60405180910390f35b3480156100c9575f80fd5b506100e460048036038101906100df91906106c2565b6101bb565b6040516100f1919061060b565b60405180910390f35b610114600480360381019061010f919061078d565b6101ea565b005b348015610121575f80fd5b5061013c600480360381019061013791906108ae565b6102f4565b6040516101499190610921565b60405180910390f35b34801561015d575f80fd5b506101786004803603810190610173919061093a565b6103b7565b6040516101859190610921565b60405180910390f35b5f47905090565b5f805f80602085015192506040850151915060608501515f1a9050819350505050919050565b5f816040516020016101cd9190610a00565b604051602081830303815290604052805190602001209050919050565b4785111561022d576040517f08c379a000000000000000000000000000000000000000000000000000000000815260040161022490610a70565b60405180910390fd5b8383106102b1575f8673ffffffffffffffffffffffffffffffffffffffff166108fc8790811502906040515f60405180830381858888f193505050509050806102ab576040517f08c379a00000000000000000000000000000000000000000000000000000000081526004016102a290610ad8565b60405180910390fd5b506102ec565b6040517f08c379a00000000000000000000000000000000000000000000000000000000081526004016102e390610b40565b60405180910390fd5b505050505050565b5f806040518060400160405280601c81526020017f19457468657265756d205369676e6564204d6573736167653a0a33320000000081525090505f8187604051602001610342929190610bc2565b6040516020818303038152906040528051906020012090505f6001828888886040515f815260200160405260405161037d9493929190610bf8565b6020604051602081039080840390855afa15801561039d573d5f803e3d5ffd5b505050602060405103519050809350505050949350505050565b5f805f80602086015192506040860151915060608601515f1a90505f6001868386866040515f81526020016040526040516103f59493929190610bf8565b6020604051602081039080840390855afa158015610415573d5f803e3d5ffd5b5050506020604051035190508094505050505092915050565b5f819050919050565b6104408161042e565b82525050565b5f6020820190506104595f830184610437565b92915050565b5f604051905090565b5f80fd5b5f80fd5b5f80fd5b5f80fd5b5f601f19601f8301169050919050565b7f4e487b71000000000000000000000000000000000000000000000000000000005f52604160045260245ffd5b6104be82610478565b810181811067ffffffffffffffff821117156104dd576104dc610488565b5b80604052505050565b5f6104ef61045f565b90506104fb82826104b5565b919050565b5f67ffffffffffffffff82111561051a57610519610488565b5b61052382610478565b9050602081019050919050565b828183375f83830152505050565b5f61055061054b84610500565b6104e6565b90508281526020810184848401111561056c5761056b610474565b5b610577848285610530565b509392505050565b5f82601f83011261059357610592610470565b5b81356105a384826020860161053e565b91505092915050565b5f602082840312156105c1576105c0610468565b5b5f82013567ffffffffffffffff8111156105de576105dd61046c565b5b6105ea8482850161057f565b91505092915050565b5f819050919050565b610605816105f3565b82525050565b5f60208201905061061e5f8301846105fc565b92915050565b5f67ffffffffffffffff82111561063e5761063d610488565b5b61064782610478565b9050602081019050919050565b5f61066661066184610624565b6104e6565b90508281526020810184848401111561068257610681610474565b5b61068d848285610530565b509392505050565b5f82601f8301126106a9576106a8610470565b5b81356106b9848260208601610654565b91505092915050565b5f602082840312156106d7576106d6610468565b5b5f82013567ffffffffffffffff8111156106f4576106f361046c565b5b61070084828501610695565b91505092915050565b5f73ffffffffffffffffffffffffffffffffffffffff82169050919050565b5f61073282610709565b9050919050565b61074281610728565b811461074c575f80fd5b50565b5f8135905061075d81610739565b92915050565b61076c8161042e565b8114610776575f80fd5b50565b5f8135905061078781610763565b92915050565b5f805f805f8060c087890312156107a7576107a6610468565b5b5f6107b489828a0161074f565b96505060206107c589828a01610779565b95505060406107d689828a01610779565b94505060606107e789828a01610779565b935050608087013567ffffffffffffffff8111156108085761080761046c565b5b61081489828a0161057f565b92505060a087013567ffffffffffffffff8111156108355761083461046c565b5b61084189828a01610695565b9150509295509295509295565b610857816105f3565b8114610861575f80fd5b50565b5f813590506108728161084e565b92915050565b5f60ff82169050919050565b61088d81610878565b8114610897575f80fd5b50565b5f813590506108a881610884565b92915050565b5f805f80608085870312156108c6576108c5610468565b5b5f6108d387828801610864565b94505060206108e48782880161089a565b93505060406108f587828801610864565b925050606061090687828801610864565b91505092959194509250565b61091b81610728565b82525050565b5f6020820190506109345f830184610912565b92915050565b5f80604083850312156109505761094f610468565b5b5f83013567ffffffffffffffff81111561096d5761096c61046c565b5b6109798582860161057f565b925050602061098a85828601610864565b9150509250929050565b5f81519050919050565b5f81905092915050565b5f5b838110156109c55780820151818401526020810190506109aa565b5f8484015250505050565b5f6109da82610994565b6109e4818561099e565b93506109f48185602086016109a8565b80840191505092915050565b5f610a0b82846109d0565b915081905092915050565b5f82825260208201905092915050565b7f496e73756666696369656e742062616c616e63650000000000000000000000005f82015250565b5f610a5a601483610a16565b9150610a6582610a26565b602082019050919050565b5f6020820190508181035f830152610a8781610a4e565b9050919050565b7f5472616e73666572206661696c656400000000000000000000000000000000005f82015250565b5f610ac2600f83610a16565b9150610acd82610a8e565b602082019050919050565b5f6020820190508181035f830152610aef81610ab6565b9050919050565b7f55736572206e6f7420456c696769626c652100000000000000000000000000005f82015250565b5f610b2a601283610a16565b9150610b3582610af6565b602082019050919050565b5f6020820190508181035f830152610b5781610b1e565b9050919050565b5f81519050919050565b5f81905092915050565b5f610b7c82610b5e565b610b868185610b68565b9350610b968185602086016109a8565b80840191505092915050565b5f819050919050565b610bbc610bb7826105f3565b610ba2565b82525050565b5f610bcd8285610b72565b9150610bd98284610bab565b6020820191508190509392505050565b610bf281610878565b82525050565b5f608082019050610c0b5f8301876105fc565b610c186020830186610be9565b610c2560408301856105fc565b610c3260608301846105fc565b9594505050505056fea264697066735822122095e923f106153eddc2111a0fe98017f0763b94f9cda3773f1bcd6029817cb3f564736f6c63430008160033",
		"opcodes": "PUSH1 0x80 PUSH1 0x40 MSTORE PUSH1 0x4 CALLDATASIZE LT PUSH2 0x54 JUMPI PUSH0 CALLDATALOAD PUSH1 0xE0 SHR DUP1 PUSH4 0x12065FE0 EQ PUSH2 0x58 JUMPI DUP1 PUSH4 0x2F570A23 EQ PUSH2 0x82 JUMPI DUP1 PUSH4 0x30E738A7 EQ PUSH2 0xBE JUMPI DUP1 PUSH4 0xB35631D8 EQ PUSH2 0xFA JUMPI DUP1 PUSH4 0xB9C3B1B9 EQ PUSH2 0x116 JUMPI DUP1 PUSH4 0xD496E9A1 EQ PUSH2 0x152 JUMPI JUMPDEST PUSH0 DUP1 REVERT JUMPDEST CALLVALUE DUP1 ISZERO PUSH2 0x63 JUMPI PUSH0 DUP1 REVERT JUMPDEST POP PUSH2 0x6C PUSH2 0x18E JUMP JUMPDEST PUSH1 0x40 MLOAD PUSH2 0x79 SWAP2 SWAP1 PUSH2 0x446 JUMP JUMPDEST PUSH1 0x40 MLOAD DUP1 SWAP2 SUB SWAP1 RETURN JUMPDEST CALLVALUE DUP1 ISZERO PUSH2 0x8D JUMPI PUSH0 DUP1 REVERT JUMPDEST POP PUSH2 0xA8 PUSH1 0x4 DUP1 CALLDATASIZE SUB DUP2 ADD SWAP1 PUSH2 0xA3 SWAP2 SWAP1 PUSH2 0x5AC JUMP JUMPDEST PUSH2 0x195 JUMP JUMPDEST PUSH1 0x40 MLOAD PUSH2 0xB5 SWAP2 SWAP1 PUSH2 0x60B JUMP JUMPDEST PUSH1 0x40 MLOAD DUP1 SWAP2 SUB SWAP1 RETURN JUMPDEST CALLVALUE DUP1 ISZERO PUSH2 0xC9 JUMPI PUSH0 DUP1 REVERT JUMPDEST POP PUSH2 0xE4 PUSH1 0x4 DUP1 CALLDATASIZE SUB DUP2 ADD SWAP1 PUSH2 0xDF SWAP2 SWAP1 PUSH2 0x6C2 JUMP JUMPDEST PUSH2 0x1BB JUMP JUMPDEST PUSH1 0x40 MLOAD PUSH2 0xF1 SWAP2 SWAP1 PUSH2 0x60B JUMP JUMPDEST PUSH1 0x40 MLOAD DUP1 SWAP2 SUB SWAP1 RETURN JUMPDEST PUSH2 0x114 PUSH1 0x4 DUP1 CALLDATASIZE SUB DUP2 ADD SWAP1 PUSH2 0x10F SWAP2 SWAP1 PUSH2 0x78D JUMP JUMPDEST PUSH2 0x1EA JUMP JUMPDEST STOP JUMPDEST CALLVALUE DUP1 ISZERO PUSH2 0x121 JUMPI PUSH0 DUP1 REVERT JUMPDEST POP PUSH2 0x13C PUSH1 0x4 DUP1 CALLDATASIZE SUB DUP2 ADD SWAP1 PUSH2 0x137 SWAP2 SWAP1 PUSH2 0x8AE JUMP JUMPDEST PUSH2 0x2F4 JUMP JUMPDEST PUSH1 0x40 MLOAD PUSH2 0x149 SWAP2 SWAP1 PUSH2 0x921 JUMP JUMPDEST PUSH1 0x40 MLOAD DUP1 SWAP2 SUB SWAP1 RETURN JUMPDEST CALLVALUE DUP1 ISZERO PUSH2 0x15D JUMPI PUSH0 DUP1 REVERT JUMPDEST POP PUSH2 0x178 PUSH1 0x4 DUP1 CALLDATASIZE SUB DUP2 ADD SWAP1 PUSH2 0x173 SWAP2 SWAP1 PUSH2 0x93A JUMP JUMPDEST PUSH2 0x3B7 JUMP JUMPDEST PUSH1 0x40 MLOAD PUSH2 0x185 SWAP2 SWAP1 PUSH2 0x921 JUMP JUMPDEST PUSH1 0x40 MLOAD DUP1 SWAP2 SUB SWAP1 RETURN JUMPDEST PUSH0 SELFBALANCE SWAP1 POP SWAP1 JUMP JUMPDEST PUSH0 DUP1 PUSH0 DUP1 PUSH1 0x20 DUP6 ADD MLOAD SWAP3 POP PUSH1 0x40 DUP6 ADD MLOAD SWAP2 POP PUSH1 0x60 DUP6 ADD MLOAD PUSH0 BYTE SWAP1 POP DUP2 SWAP4 POP POP POP POP SWAP2 SWAP1 POP JUMP JUMPDEST PUSH0 DUP2 PUSH1 0x40 MLOAD PUSH1 0x20 ADD PUSH2 0x1CD SWAP2 SWAP1 PUSH2 0xA00 JUMP JUMPDEST PUSH1 0x40 MLOAD PUSH1 0x20 DUP2 DUP4 SUB SUB DUP2 MSTORE SWAP1 PUSH1 0x40 MSTORE DUP1 MLOAD SWAP1 PUSH1 0x20 ADD KECCAK256 SWAP1 POP SWAP2 SWAP1 POP JUMP JUMPDEST SELFBALANCE DUP6 GT ISZERO PUSH2 0x22D JUMPI PUSH1 0x40 MLOAD PUSH32 0x8C379A000000000000000000000000000000000000000000000000000000000 DUP2 MSTORE PUSH1 0x4 ADD PUSH2 0x224 SWAP1 PUSH2 0xA70 JUMP JUMPDEST PUSH1 0x40 MLOAD DUP1 SWAP2 SUB SWAP1 REVERT JUMPDEST DUP4 DUP4 LT PUSH2 0x2B1 JUMPI PUSH0 DUP7 PUSH20 0xFFFFFFFFFFFFFFFFFFFFFFFFFFFFFFFFFFFFFFFF AND PUSH2 0x8FC DUP8 SWAP1 DUP2 ISZERO MUL SWAP1 PUSH1 0x40 MLOAD PUSH0 PUSH1 0x40 MLOAD DUP1 DUP4 SUB DUP2 DUP6 DUP9 DUP9 CALL SWAP4 POP POP POP POP SWAP1 POP DUP1 PUSH2 0x2AB JUMPI PUSH1 0x40 MLOAD PUSH32 0x8C379A000000000000000000000000000000000000000000000000000000000 DUP2 MSTORE PUSH1 0x4 ADD PUSH2 0x2A2 SWAP1 PUSH2 0xAD8 JUMP JUMPDEST PUSH1 0x40 MLOAD DUP1 SWAP2 SUB SWAP1 REVERT JUMPDEST POP PUSH2 0x2EC JUMP JUMPDEST PUSH1 0x40 MLOAD PUSH32 0x8C379A000000000000000000000000000000000000000000000000000000000 DUP2 MSTORE PUSH1 0x4 ADD PUSH2 0x2E3 SWAP1 PUSH2 0xB40 JUMP JUMPDEST PUSH1 0x40 MLOAD DUP1 SWAP2 SUB SWAP1 REVERT JUMPDEST POP POP POP POP POP POP JUMP JUMPDEST PUSH0 DUP1 PUSH1 0x40 MLOAD DUP1 PUSH1 0x40 ADD PUSH1 0x40 MSTORE DUP1 PUSH1 0x1C DUP2 MSTORE PUSH1 0x20 ADD PUSH32 0x19457468657265756D205369676E6564204D6573736167653A0A333200000000 DUP2 MSTORE POP SWAP1 POP PUSH0 DUP2 DUP8 PUSH1 0x40 MLOAD PUSH1 0x20 ADD PUSH2 0x342 SWAP3 SWAP2 SWAP1 PUSH2 0xBC2 JUMP JUMPDEST PUSH1 0x40 MLOAD PUSH1 0x20 DUP2 DUP4 SUB SUB DUP2 MSTORE SWAP1 PUSH1 0x40 MSTORE DUP1 MLOAD SWAP1 PUSH1 0x20 ADD KECCAK256 SWAP1 POP PUSH0 PUSH1 0x1 DUP3 DUP9 DUP9 DUP9 PUSH1 0x40 MLOAD PUSH0 DUP2 MSTORE PUSH1 0x20 ADD PUSH1 0x40 MSTORE PUSH1 0x40 MLOAD PUSH2 0x37D SWAP5 SWAP4 SWAP3 SWAP2 SWAP1 PUSH2 0xBF8 JUMP JUMPDEST PUSH1 0x20 PUSH1 0x40 MLOAD PUSH1 0x20 DUP2 SUB SWAP1 DUP1 DUP5 SUB SWAP1 DUP6 GAS STATICCALL ISZERO DUP1 ISZERO PUSH2 0x39D JUMPI RETURNDATASIZE PUSH0 DUP1 RETURNDATACOPY RETURNDATASIZE PUSH0 REVERT JUMPDEST POP POP POP PUSH1 0x20 PUSH1 0x40 MLOAD SUB MLOAD SWAP1 POP DUP1 SWAP4 POP POP POP POP SWAP5 SWAP4 POP POP POP POP JUMP JUMPDEST PUSH0 DUP1 PUSH0 DUP1 PUSH1 0x20 DUP7 ADD MLOAD SWAP3 POP PUSH1 0x40 DUP7 ADD MLOAD SWAP2 POP PUSH1 0x60 DUP7 ADD MLOAD PUSH0 BYTE SWAP1 POP PUSH0 PUSH1 0x1 DUP7 DUP4 DUP7 DUP7 PUSH1 0x40 MLOAD PUSH0 DUP2 MSTORE PUSH1 0x20 ADD PUSH1 0x40 MSTORE PUSH1 0x40 MLOAD PUSH2 0x3F5 SWAP5 SWAP4 SWAP3 SWAP2 SWAP1 PUSH2 0xBF8 JUMP JUMPDEST PUSH1 0x20 PUSH1 0x40 MLOAD PUSH1 0x20 DUP2 SUB SWAP1 DUP1 DUP5 SUB SWAP1 DUP6 GAS STATICCALL ISZERO DUP1 ISZERO PUSH2 0x415 JUMPI RETURNDATASIZE PUSH0 DUP1 RETURNDATACOPY RETURNDATASIZE PUSH0 REVERT JUMPDEST POP POP POP PUSH1 0x20 PUSH1 0x40 MLOAD SUB MLOAD SWAP1 POP DUP1 SWAP5 POP POP POP POP POP SWAP3 SWAP2 POP POP JUMP JUMPDEST PUSH0 DUP2 SWAP1 POP SWAP2 SWAP1 POP JUMP JUMPDEST PUSH2 0x440 DUP2 PUSH2 0x42E JUMP JUMPDEST DUP3 MSTORE POP POP JUMP JUMPDEST PUSH0 PUSH1 0x20 DUP3 ADD SWAP1 POP PUSH2 0x459 PUSH0 DUP4 ADD DUP5 PUSH2 0x437 JUMP JUMPDEST SWAP3 SWAP2 POP POP JUMP JUMPDEST PUSH0 PUSH1 0x40 MLOAD SWAP1 POP SWAP1 JUMP JUMPDEST PUSH0 DUP1 REVERT JUMPDEST PUSH0 DUP1 REVERT JUMPDEST PUSH0 DUP1 REVERT JUMPDEST PUSH0 DUP1 REVERT JUMPDEST PUSH0 PUSH1 0x1F NOT PUSH1 0x1F DUP4 ADD AND SWAP1 POP SWAP2 SWAP1 POP JUMP JUMPDEST PUSH32 0x4E487B7100000000000000000000000000000000000000000000000000000000 PUSH0 MSTORE PUSH1 0x41 PUSH1 0x4 MSTORE PUSH1 0x24 PUSH0 REVERT JUMPDEST PUSH2 0x4BE DUP3 PUSH2 0x478 JUMP JUMPDEST DUP2 ADD DUP2 DUP2 LT PUSH8 0xFFFFFFFFFFFFFFFF DUP3 GT OR ISZERO PUSH2 0x4DD JUMPI PUSH2 0x4DC PUSH2 0x488 JUMP JUMPDEST JUMPDEST DUP1 PUSH1 0x40 MSTORE POP POP POP JUMP JUMPDEST PUSH0 PUSH2 0x4EF PUSH2 0x45F JUMP JUMPDEST SWAP1 POP PUSH2 0x4FB DUP3 DUP3 PUSH2 0x4B5 JUMP JUMPDEST SWAP2 SWAP1 POP JUMP JUMPDEST PUSH0 PUSH8 0xFFFFFFFFFFFFFFFF DUP3 GT ISZERO PUSH2 0x51A JUMPI PUSH2 0x519 PUSH2 0x488 JUMP JUMPDEST JUMPDEST PUSH2 0x523 DUP3 PUSH2 0x478 JUMP JUMPDEST SWAP1 POP PUSH1 0x20 DUP2 ADD SWAP1 POP SWAP2 SWAP1 POP JUMP JUMPDEST DUP3 DUP2 DUP4 CALLDATACOPY PUSH0 DUP4 DUP4 ADD MSTORE POP POP POP JUMP JUMPDEST PUSH0 PUSH2 0x550 PUSH2 0x54B DUP5 PUSH2 0x500 JUMP JUMPDEST PUSH2 0x4E6 JUMP JUMPDEST SWAP1 POP DUP3 DUP2 MSTORE PUSH1 0x20 DUP2 ADD DUP5 DUP5 DUP5 ADD GT ISZERO PUSH2 0x56C JUMPI PUSH2 0x56B PUSH2 0x474 JUMP JUMPDEST JUMPDEST PUSH2 0x577 DUP5 DUP3 DUP6 PUSH2 0x530 JUMP JUMPDEST POP SWAP4 SWAP3 POP POP POP JUMP JUMPDEST PUSH0 DUP3 PUSH1 0x1F DUP4 ADD SLT PUSH2 0x593 JUMPI PUSH2 0x592 PUSH2 0x470 JUMP JUMPDEST JUMPDEST DUP2 CALLDATALOAD PUSH2 0x5A3 DUP5 DUP3 PUSH1 0x20 DUP7 ADD PUSH2 0x53E JUMP JUMPDEST SWAP2 POP POP SWAP3 SWAP2 POP POP JUMP JUMPDEST PUSH0 PUSH1 0x20 DUP3 DUP5 SUB SLT ISZERO PUSH2 0x5C1 JUMPI PUSH2 0x5C0 PUSH2 0x468 JUMP JUMPDEST JUMPDEST PUSH0 DUP3 ADD CALLDATALOAD PUSH8 0xFFFFFFFFFFFFFFFF DUP2 GT ISZERO PUSH2 0x5DE JUMPI PUSH2 0x5DD PUSH2 0x46C JUMP JUMPDEST JUMPDEST PUSH2 0x5EA DUP5 DUP3 DUP6 ADD PUSH2 0x57F JUMP JUMPDEST SWAP2 POP POP SWAP3 SWAP2 POP POP JUMP JUMPDEST PUSH0 DUP2 SWAP1 POP SWAP2 SWAP1 POP JUMP JUMPDEST PUSH2 0x605 DUP2 PUSH2 0x5F3 JUMP JUMPDEST DUP3 MSTORE POP POP JUMP JUMPDEST PUSH0 PUSH1 0x20 DUP3 ADD SWAP1 POP PUSH2 0x61E PUSH0 DUP4 ADD DUP5 PUSH2 0x5FC JUMP JUMPDEST SWAP3 SWAP2 POP POP JUMP JUMPDEST PUSH0 PUSH8 0xFFFFFFFFFFFFFFFF DUP3 GT ISZERO PUSH2 0x63E JUMPI PUSH2 0x63D PUSH2 0x488 JUMP JUMPDEST JUMPDEST PUSH2 0x647 DUP3 PUSH2 0x478 JUMP JUMPDEST SWAP1 POP PUSH1 0x20 DUP2 ADD SWAP1 POP SWAP2 SWAP1 POP JUMP JUMPDEST PUSH0 PUSH2 0x666 PUSH2 0x661 DUP5 PUSH2 0x624 JUMP JUMPDEST PUSH2 0x4E6 JUMP JUMPDEST SWAP1 POP DUP3 DUP2 MSTORE PUSH1 0x20 DUP2 ADD DUP5 DUP5 DUP5 ADD GT ISZERO PUSH2 0x682 JUMPI PUSH2 0x681 PUSH2 0x474 JUMP JUMPDEST JUMPDEST PUSH2 0x68D DUP5 DUP3 DUP6 PUSH2 0x530 JUMP JUMPDEST POP SWAP4 SWAP3 POP POP POP JUMP JUMPDEST PUSH0 DUP3 PUSH1 0x1F DUP4 ADD SLT PUSH2 0x6A9 JUMPI PUSH2 0x6A8 PUSH2 0x470 JUMP JUMPDEST JUMPDEST DUP2 CALLDATALOAD PUSH2 0x6B9 DUP5 DUP3 PUSH1 0x20 DUP7 ADD PUSH2 0x654 JUMP JUMPDEST SWAP2 POP POP SWAP3 SWAP2 POP POP JUMP JUMPDEST PUSH0 PUSH1 0x20 DUP3 DUP5 SUB SLT ISZERO PUSH2 0x6D7 JUMPI PUSH2 0x6D6 PUSH2 0x468 JUMP JUMPDEST JUMPDEST PUSH0 DUP3 ADD CALLDATALOAD PUSH8 0xFFFFFFFFFFFFFFFF DUP2 GT ISZERO PUSH2 0x6F4 JUMPI PUSH2 0x6F3 PUSH2 0x46C JUMP JUMPDEST JUMPDEST PUSH2 0x700 DUP5 DUP3 DUP6 ADD PUSH2 0x695 JUMP JUMPDEST SWAP2 POP POP SWAP3 SWAP2 POP POP JUMP JUMPDEST PUSH0 PUSH20 0xFFFFFFFFFFFFFFFFFFFFFFFFFFFFFFFFFFFFFFFF DUP3 AND SWAP1 POP SWAP2 SWAP1 POP JUMP JUMPDEST PUSH0 PUSH2 0x732 DUP3 PUSH2 0x709 JUMP JUMPDEST SWAP1 POP SWAP2 SWAP1 POP JUMP JUMPDEST PUSH2 0x742 DUP2 PUSH2 0x728 JUMP JUMPDEST DUP2 EQ PUSH2 0x74C JUMPI PUSH0 DUP1 REVERT JUMPDEST POP JUMP JUMPDEST PUSH0 DUP2 CALLDATALOAD SWAP1 POP PUSH2 0x75D DUP2 PUSH2 0x739 JUMP JUMPDEST SWAP3 SWAP2 POP POP JUMP JUMPDEST PUSH2 0x76C DUP2 PUSH2 0x42E JUMP JUMPDEST DUP2 EQ PUSH2 0x776 JUMPI PUSH0 DUP1 REVERT JUMPDEST POP JUMP JUMPDEST PUSH0 DUP2 CALLDATALOAD SWAP1 POP PUSH2 0x787 DUP2 PUSH2 0x763 JUMP JUMPDEST SWAP3 SWAP2 POP POP JUMP JUMPDEST PUSH0 DUP1 PUSH0 DUP1 PUSH0 DUP1 PUSH1 0xC0 DUP8 DUP10 SUB SLT ISZERO PUSH2 0x7A7 JUMPI PUSH2 0x7A6 PUSH2 0x468 JUMP JUMPDEST JUMPDEST PUSH0 PUSH2 0x7B4 DUP10 DUP3 DUP11 ADD PUSH2 0x74F JUMP JUMPDEST SWAP7 POP POP PUSH1 0x20 PUSH2 0x7C5 DUP10 DUP3 DUP11 ADD PUSH2 0x779 JUMP JUMPDEST SWAP6 POP POP PUSH1 0x40 PUSH2 0x7D6 DUP10 DUP3 DUP11 ADD PUSH2 0x779 JUMP JUMPDEST SWAP5 POP POP PUSH1 0x60 PUSH2 0x7E7 DUP10 DUP3 DUP11 ADD PUSH2 0x779 JUMP JUMPDEST SWAP4 POP POP PUSH1 0x80 DUP8 ADD CALLDATALOAD PUSH8 0xFFFFFFFFFFFFFFFF DUP2 GT ISZERO PUSH2 0x808 JUMPI PUSH2 0x807 PUSH2 0x46C JUMP JUMPDEST JUMPDEST PUSH2 0x814 DUP10 DUP3 DUP11 ADD PUSH2 0x57F JUMP JUMPDEST SWAP3 POP POP PUSH1 0xA0 DUP8 ADD CALLDATALOAD PUSH8 0xFFFFFFFFFFFFFFFF DUP2 GT ISZERO PUSH2 0x835 JUMPI PUSH2 0x834 PUSH2 0x46C JUMP JUMPDEST JUMPDEST PUSH2 0x841 DUP10 DUP3 DUP11 ADD PUSH2 0x695 JUMP JUMPDEST SWAP2 POP POP SWAP3 SWAP6 POP SWAP3 SWAP6 POP SWAP3 SWAP6 JUMP JUMPDEST PUSH2 0x857 DUP2 PUSH2 0x5F3 JUMP JUMPDEST DUP2 EQ PUSH2 0x861 JUMPI PUSH0 DUP1 REVERT JUMPDEST POP JUMP JUMPDEST PUSH0 DUP2 CALLDATALOAD SWAP1 POP PUSH2 0x872 DUP2 PUSH2 0x84E JUMP JUMPDEST SWAP3 SWAP2 POP POP JUMP JUMPDEST PUSH0 PUSH1 0xFF DUP3 AND SWAP1 POP SWAP2 SWAP1 POP JUMP JUMPDEST PUSH2 0x88D DUP2 PUSH2 0x878 JUMP JUMPDEST DUP2 EQ PUSH2 0x897 JUMPI PUSH0 DUP1 REVERT JUMPDEST POP JUMP JUMPDEST PUSH0 DUP2 CALLDATALOAD SWAP1 POP PUSH2 0x8A8 DUP2 PUSH2 0x884 JUMP JUMPDEST SWAP3 SWAP2 POP POP JUMP JUMPDEST PUSH0 DUP1 PUSH0 DUP1 PUSH1 0x80 DUP6 DUP8 SUB SLT ISZERO PUSH2 0x8C6 JUMPI PUSH2 0x8C5 PUSH2 0x468 JUMP JUMPDEST JUMPDEST PUSH0 PUSH2 0x8D3 DUP8 DUP3 DUP9 ADD PUSH2 0x864 JUMP JUMPDEST SWAP5 POP POP PUSH1 0x20 PUSH2 0x8E4 DUP8 DUP3 DUP9 ADD PUSH2 0x89A JUMP JUMPDEST SWAP4 POP POP PUSH1 0x40 PUSH2 0x8F5 DUP8 DUP3 DUP9 ADD PUSH2 0x864 JUMP JUMPDEST SWAP3 POP POP PUSH1 0x60 PUSH2 0x906 DUP8 DUP3 DUP9 ADD PUSH2 0x864 JUMP JUMPDEST SWAP2 POP POP SWAP3 SWAP6 SWAP2 SWAP5 POP SWAP3 POP JUMP JUMPDEST PUSH2 0x91B DUP2 PUSH2 0x728 JUMP JUMPDEST DUP3 MSTORE POP POP JUMP JUMPDEST PUSH0 PUSH1 0x20 DUP3 ADD SWAP1 POP PUSH2 0x934 PUSH0 DUP4 ADD DUP5 PUSH2 0x912 JUMP JUMPDEST SWAP3 SWAP2 POP POP JUMP JUMPDEST PUSH0 DUP1 PUSH1 0x40 DUP4 DUP6 SUB SLT ISZERO PUSH2 0x950 JUMPI PUSH2 0x94F PUSH2 0x468 JUMP JUMPDEST JUMPDEST PUSH0 DUP4 ADD CALLDATALOAD PUSH8 0xFFFFFFFFFFFFFFFF DUP2 GT ISZERO PUSH2 0x96D JUMPI PUSH2 0x96C PUSH2 0x46C JUMP JUMPDEST JUMPDEST PUSH2 0x979 DUP6 DUP3 DUP7 ADD PUSH2 0x57F JUMP JUMPDEST SWAP3 POP POP PUSH1 0x20 PUSH2 0x98A DUP6 DUP3 DUP7 ADD PUSH2 0x864 JUMP JUMPDEST SWAP2 POP POP SWAP3 POP SWAP3 SWAP1 POP JUMP JUMPDEST PUSH0 DUP2 MLOAD SWAP1 POP SWAP2 SWAP1 POP JUMP JUMPDEST PUSH0 DUP2 SWAP1 POP SWAP3 SWAP2 POP POP JUMP JUMPDEST PUSH0 JUMPDEST DUP4 DUP2 LT ISZERO PUSH2 0x9C5 JUMPI DUP1 DUP3 ADD MLOAD DUP2 DUP5 ADD MSTORE PUSH1 0x20 DUP2 ADD SWAP1 POP PUSH2 0x9AA JUMP JUMPDEST PUSH0 DUP5 DUP5 ADD MSTORE POP POP POP POP JUMP JUMPDEST PUSH0 PUSH2 0x9DA DUP3 PUSH2 0x994 JUMP JUMPDEST PUSH2 0x9E4 DUP2 DUP6 PUSH2 0x99E JUMP JUMPDEST SWAP4 POP PUSH2 0x9F4 DUP2 DUP6 PUSH1 0x20 DUP7 ADD PUSH2 0x9A8 JUMP JUMPDEST DUP1 DUP5 ADD SWAP2 POP POP SWAP3 SWAP2 POP POP JUMP JUMPDEST PUSH0 PUSH2 0xA0B DUP3 DUP5 PUSH2 0x9D0 JUMP JUMPDEST SWAP2 POP DUP2 SWAP1 POP SWAP3 SWAP2 POP POP JUMP JUMPDEST PUSH0 DUP3 DUP3 MSTORE PUSH1 0x20 DUP3 ADD SWAP1 POP SWAP3 SWAP2 POP POP JUMP JUMPDEST PUSH32 0x496E73756666696369656E742062616C616E6365000000000000000000000000 PUSH0 DUP3 ADD MSTORE POP JUMP JUMPDEST PUSH0 PUSH2 0xA5A PUSH1 0x14 DUP4 PUSH2 0xA16 JUMP JUMPDEST SWAP2 POP PUSH2 0xA65 DUP3 PUSH2 0xA26 JUMP JUMPDEST PUSH1 0x20 DUP3 ADD SWAP1 POP SWAP2 SWAP1 POP JUMP JUMPDEST PUSH0 PUSH1 0x20 DUP3 ADD SWAP1 POP DUP2 DUP2 SUB PUSH0 DUP4 ADD MSTORE PUSH2 0xA87 DUP2 PUSH2 0xA4E JUMP JUMPDEST SWAP1 POP SWAP2 SWAP1 POP JUMP JUMPDEST PUSH32 0x5472616E73666572206661696C65640000000000000000000000000000000000 PUSH0 DUP3 ADD MSTORE POP JUMP JUMPDEST PUSH0 PUSH2 0xAC2 PUSH1 0xF DUP4 PUSH2 0xA16 JUMP JUMPDEST SWAP2 POP PUSH2 0xACD DUP3 PUSH2 0xA8E JUMP JUMPDEST PUSH1 0x20 DUP3 ADD SWAP1 POP SWAP2 SWAP1 POP JUMP JUMPDEST PUSH0 PUSH1 0x20 DUP3 ADD SWAP1 POP DUP2 DUP2 SUB PUSH0 DUP4 ADD MSTORE PUSH2 0xAEF DUP2 PUSH2 0xAB6 JUMP JUMPDEST SWAP1 POP SWAP2 SWAP1 POP JUMP JUMPDEST PUSH32 0x55736572206E6F7420456C696769626C65210000000000000000000000000000 PUSH0 DUP3 ADD MSTORE POP JUMP JUMPDEST PUSH0 PUSH2 0xB2A PUSH1 0x12 DUP4 PUSH2 0xA16 JUMP JUMPDEST SWAP2 POP PUSH2 0xB35 DUP3 PUSH2 0xAF6 JUMP JUMPDEST PUSH1 0x20 DUP3 ADD SWAP1 POP SWAP2 SWAP1 POP JUMP JUMPDEST PUSH0 PUSH1 0x20 DUP3 ADD SWAP1 POP DUP2 DUP2 SUB PUSH0 DUP4 ADD MSTORE PUSH2 0xB57 DUP2 PUSH2 0xB1E JUMP JUMPDEST SWAP1 POP SWAP2 SWAP1 POP JUMP JUMPDEST PUSH0 DUP2 MLOAD SWAP1 POP SWAP2 SWAP1 POP JUMP JUMPDEST PUSH0 DUP2 SWAP1 POP SWAP3 SWAP2 POP POP JUMP JUMPDEST PUSH0 PUSH2 0xB7C DUP3 PUSH2 0xB5E JUMP JUMPDEST PUSH2 0xB86 DUP2 DUP6 PUSH2 0xB68 JUMP JUMPDEST SWAP4 POP PUSH2 0xB96 DUP2 DUP6 PUSH1 0x20 DUP7 ADD PUSH2 0x9A8 JUMP JUMPDEST DUP1 DUP5 ADD SWAP2 POP POP SWAP3 SWAP2 POP POP JUMP JUMPDEST PUSH0 DUP2 SWAP1 POP SWAP2 SWAP1 POP JUMP JUMPDEST PUSH2 0xBBC PUSH2 0xBB7 DUP3 PUSH2 0x5F3 JUMP JUMPDEST PUSH2 0xBA2 JUMP JUMPDEST DUP3 MSTORE POP POP JUMP JUMPDEST PUSH0 PUSH2 0xBCD DUP3 DUP6 PUSH2 0xB72 JUMP JUMPDEST SWAP2 POP PUSH2 0xBD9 DUP3 DUP5 PUSH2 0xBAB JUMP JUMPDEST PUSH1 0x20 DUP3 ADD SWAP2 POP DUP2 SWAP1 POP SWAP4 SWAP3 POP POP POP JUMP JUMPDEST PUSH2 0xBF2 DUP2 PUSH2 0x878 JUMP JUMPDEST DUP3 MSTORE POP POP JUMP JUMPDEST PUSH0 PUSH1 0x80 DUP3 ADD SWAP1 POP PUSH2 0xC0B PUSH0 DUP4 ADD DUP8 PUSH2 0x5FC JUMP JUMPDEST PUSH2 0xC18 PUSH1 0x20 DUP4 ADD DUP7 PUSH2 0xBE9 JUMP JUMPDEST PUSH2 0xC25 PUSH1 0x40 DUP4 ADD DUP6 PUSH2 0x5FC JUMP JUMPDEST PUSH2 0xC32 PUSH1 0x60 DUP4 ADD DUP5 PUSH2 0x5FC JUMP JUMPDEST SWAP6 SWAP5 POP POP POP POP POP JUMP INVALID LOG2 PUSH5 0x6970667358 0x22 SLT KECCAK256 SWAP6 0xE9 0x23 CALL MOD ISZERO RETURNDATACOPY 0xDD 0xC2 GT BYTE 0xF 0xE9 DUP1 OR CREATE PUSH23 0x3B94F9CDA3773F1BCD6029817CB3F564736F6C63430008 AND STOP CALLER "
	},
	"Assembly": ".code\n  PUSH 80\t\t\tcontract cryptoDorea {\\r\\n\\r\\n...\n  PUSH 40\t\t\tcontract cryptoDorea {\\r\\n\\r\\n...\n  MSTORE \t\t\tcontract cryptoDorea {\\r\\n\\r\\n...\n  PUSH #[$] 0000000000000000000000000000000000000000000000000000000000000000\t\t\tcontract cryptoDorea {\\r\\n\\r\\n...\n  DUP1 \t\t\tcontract cryptoDorea {\\r\\n\\r\\n...\n  PUSH [$] 0000000000000000000000000000000000000000000000000000000000000000\t\t\tcontract cryptoDorea {\\r\\n\\r\\n...\n  PUSH 0\t\t\tcontract cryptoDorea {\\r\\n\\r\\n...\n  CODECOPY \t\t\tcontract cryptoDorea {\\r\\n\\r\\n...\n  PUSH 0\t\t\tcontract cryptoDorea {\\r\\n\\r\\n...\n  RETURN \t\t\tcontract cryptoDorea {\\r\\n\\r\\n...\n.data\n  0:\n    .code\n      PUSH 80\t\t\tcontract cryptoDorea {\\r\\n\\r\\n...\n      PUSH 40\t\t\tcontract cryptoDorea {\\r\\n\\r\\n...\n      MSTORE \t\t\tcontract cryptoDorea {\\r\\n\\r\\n...\n      PUSH 4\t\t\tcontract cryptoDorea {\\r\\n\\r\\n...\n      CALLDATASIZE \t\t\tcontract cryptoDorea {\\r\\n\\r\\n...\n      LT \t\t\tcontract cryptoDorea {\\r\\n\\r\\n...\n      PUSH [tag] 1\t\t\tcontract cryptoDorea {\\r\\n\\r\\n...\n      JUMPI \t\t\tcontract cryptoDorea {\\r\\n\\r\\n...\n      PUSH 0\t\t\tcontract cryptoDorea {\\r\\n\\r\\n...\n      CALLDATALOAD \t\t\tcontract cryptoDorea {\\r\\n\\r\\n...\n      PUSH E0\t\t\tcontract cryptoDorea {\\r\\n\\r\\n...\n      SHR \t\t\tcontract cryptoDorea {\\r\\n\\r\\n...\n      DUP1 \t\t\tcontract cryptoDorea {\\r\\n\\r\\n...\n      PUSH 12065FE0\t\t\tcontract cryptoDorea {\\r\\n\\r\\n...\n      EQ \t\t\tcontract cryptoDorea {\\r\\n\\r\\n...\n      PUSH [tag] 2\t\t\tcontract cryptoDorea {\\r\\n\\r\\n...\n      JUMPI \t\t\tcontract cryptoDorea {\\r\\n\\r\\n...\n      DUP1 \t\t\tcontract cryptoDorea {\\r\\n\\r\\n...\n      PUSH 2F570A23\t\t\tcontract cryptoDorea {\\r\\n\\r\\n...\n      EQ \t\t\tcontract cryptoDorea {\\r\\n\\r\\n...\n      PUSH [tag] 3\t\t\tcontract cryptoDorea {\\r\\n\\r\\n...\n      JUMPI \t\t\tcontract cryptoDorea {\\r\\n\\r\\n...\n      DUP1 \t\t\tcontract cryptoDorea {\\r\\n\\r\\n...\n      PUSH 30E738A7\t\t\tcontract cryptoDorea {\\r\\n\\r\\n...\n      EQ \t\t\tcontract cryptoDorea {\\r\\n\\r\\n...\n      PUSH [tag] 4\t\t\tcontract cryptoDorea {\\r\\n\\r\\n...\n      JUMPI \t\t\tcontract cryptoDorea {\\r\\n\\r\\n...\n      DUP1 \t\t\tcontract cryptoDorea {\\r\\n\\r\\n...\n      PUSH B35631D8\t\t\tcontract cryptoDorea {\\r\\n\\r\\n...\n      EQ \t\t\tcontract cryptoDorea {\\r\\n\\r\\n...\n      PUSH [tag] 5\t\t\tcontract cryptoDorea {\\r\\n\\r\\n...\n      JUMPI \t\t\tcontract cryptoDorea {\\r\\n\\r\\n...\n      DUP1 \t\t\tcontract cryptoDorea {\\r\\n\\r\\n...\n      PUSH B9C3B1B9\t\t\tcontract cryptoDorea {\\r\\n\\r\\n...\n      EQ \t\t\tcontract cryptoDorea {\\r\\n\\r\\n...\n      PUSH [tag] 6\t\t\tcontract cryptoDorea {\\r\\n\\r\\n...\n      JUMPI \t\t\tcontract cryptoDorea {\\r\\n\\r\\n...\n      DUP1 \t\t\tcontract cryptoDorea {\\r\\n\\r\\n...\n      PUSH D496E9A1\t\t\tcontract cryptoDorea {\\r\\n\\r\\n...\n      EQ \t\t\tcontract cryptoDorea {\\r\\n\\r\\n...\n      PUSH [tag] 7\t\t\tcontract cryptoDorea {\\r\\n\\r\\n...\n      JUMPI \t\t\tcontract cryptoDorea {\\r\\n\\r\\n...\n    tag 1\t\t\tcontract cryptoDorea {\\r\\n\\r\\n...\n      JUMPDEST \t\t\tcontract cryptoDorea {\\r\\n\\r\\n...\n      PUSH 0\t\t\tcontract cryptoDorea {\\r\\n\\r\\n...\n      DUP1 \t\t\tcontract cryptoDorea {\\r\\n\\r\\n...\n      REVERT \t\t\tcontract cryptoDorea {\\r\\n\\r\\n...\n    tag 2\t\t\tfunction getBalance() public v...\n      JUMPDEST \t\t\tfunction getBalance() public v...\n      CALLVALUE \t\t\tfunction getBalance() public v...\n      DUP1 \t\t\tfunction getBalance() public v...\n      ISZERO \t\t\tfunction getBalance() public v...\n      PUSH [tag] 8\t\t\tfunction getBalance() public v...\n      JUMPI \t\t\tfunction getBalance() public v...\n      PUSH 0\t\t\tfunction getBalance() public v...\n      DUP1 \t\t\tfunction getBalance() public v...\n      REVERT \t\t\tfunction getBalance() public v...\n    tag 8\t\t\tfunction getBalance() public v...\n      JUMPDEST \t\t\tfunction getBalance() public v...\n      POP \t\t\tfunction getBalance() public v...\n      PUSH [tag] 9\t\t\tfunction getBalance() public v...\n      PUSH [tag] 10\t\t\tfunction getBalance() public v...\n      JUMP \t\t\tfunction getBalance() public v...\n    tag 9\t\t\tfunction getBalance() public v...\n      JUMPDEST \t\t\tfunction getBalance() public v...\n      PUSH 40\t\t\tfunction getBalance() public v...\n      MLOAD \t\t\tfunction getBalance() public v...\n      PUSH [tag] 11\t\t\tfunction getBalance() public v...\n      SWAP2 \t\t\tfunction getBalance() public v...\n      SWAP1 \t\t\tfunction getBalance() public v...\n      PUSH [tag] 12\t\t\tfunction getBalance() public v...\n      JUMP \t\t\tfunction getBalance() public v...\n    tag 11\t\t\tfunction getBalance() public v...\n      JUMPDEST \t\t\tfunction getBalance() public v...\n      PUSH 40\t\t\tfunction getBalance() public v...\n      MLOAD \t\t\tfunction getBalance() public v...\n      DUP1 \t\t\tfunction getBalance() public v...\n      SWAP2 \t\t\tfunction getBalance() public v...\n      SUB \t\t\tfunction getBalance() public v...\n      SWAP1 \t\t\tfunction getBalance() public v...\n      RETURN \t\t\tfunction getBalance() public v...\n    tag 3\t\t\tfunction test(bytes memory sig...\n      JUMPDEST \t\t\tfunction test(bytes memory sig...\n      CALLVALUE \t\t\tfunction test(bytes memory sig...\n      DUP1 \t\t\tfunction test(bytes memory sig...\n      ISZERO \t\t\tfunction test(bytes memory sig...\n      PUSH [tag] 13\t\t\tfunction test(bytes memory sig...\n      JUMPI \t\t\tfunction test(bytes memory sig...\n      PUSH 0\t\t\tfunction test(bytes memory sig...\n      DUP1 \t\t\tfunction test(bytes memory sig...\n      REVERT \t\t\tfunction test(bytes memory sig...\n    tag 13\t\t\tfunction test(bytes memory sig...\n      JUMPDEST \t\t\tfunction test(bytes memory sig...\n      POP \t\t\tfunction test(bytes memory sig...\n      PUSH [tag] 14\t\t\tfunction test(bytes memory sig...\n      PUSH 4\t\t\tfunction test(bytes memory sig...\n      DUP1 \t\t\tfunction test(bytes memory sig...\n      CALLDATASIZE \t\t\tfunction test(bytes memory sig...\n      SUB \t\t\tfunction test(bytes memory sig...\n      DUP2 \t\t\tfunction test(bytes memory sig...\n      ADD \t\t\tfunction test(bytes memory sig...\n      SWAP1 \t\t\tfunction test(bytes memory sig...\n      PUSH [tag] 15\t\t\tfunction test(bytes memory sig...\n      SWAP2 \t\t\tfunction test(bytes memory sig...\n      SWAP1 \t\t\tfunction test(bytes memory sig...\n      PUSH [tag] 16\t\t\tfunction test(bytes memory sig...\n      JUMP \t\t\tfunction test(bytes memory sig...\n    tag 15\t\t\tfunction test(bytes memory sig...\n      JUMPDEST \t\t\tfunction test(bytes memory sig...\n      PUSH [tag] 17\t\t\tfunction test(bytes memory sig...\n      JUMP \t\t\tfunction test(bytes memory sig...\n    tag 14\t\t\tfunction test(bytes memory sig...\n      JUMPDEST \t\t\tfunction test(bytes memory sig...\n      PUSH 40\t\t\tfunction test(bytes memory sig...\n      MLOAD \t\t\tfunction test(bytes memory sig...\n      PUSH [tag] 18\t\t\tfunction test(bytes memory sig...\n      SWAP2 \t\t\tfunction test(bytes memory sig...\n      SWAP1 \t\t\tfunction test(bytes memory sig...\n      PUSH [tag] 19\t\t\tfunction test(bytes memory sig...\n      JUMP \t\t\tfunction test(bytes memory sig...\n    tag 18\t\t\tfunction test(bytes memory sig...\n      JUMPDEST \t\t\tfunction test(bytes memory sig...\n      PUSH 40\t\t\tfunction test(bytes memory sig...\n      MLOAD \t\t\tfunction test(bytes memory sig...\n      DUP1 \t\t\tfunction test(bytes memory sig...\n      SWAP2 \t\t\tfunction test(bytes memory sig...\n      SUB \t\t\tfunction test(bytes memory sig...\n      SWAP1 \t\t\tfunction test(bytes memory sig...\n      RETURN \t\t\tfunction test(bytes memory sig...\n    tag 4\t\t\tfunction test2(string memory h...\n      JUMPDEST \t\t\tfunction test2(string memory h...\n      CALLVALUE \t\t\tfunction test2(string memory h...\n      DUP1 \t\t\tfunction test2(string memory h...\n      ISZERO \t\t\tfunction test2(string memory h...\n      PUSH [tag] 20\t\t\tfunction test2(string memory h...\n      JUMPI \t\t\tfunction test2(string memory h...\n      PUSH 0\t\t\tfunction test2(string memory h...\n      DUP1 \t\t\tfunction test2(string memory h...\n      REVERT \t\t\tfunction test2(string memory h...\n    tag 20\t\t\tfunction test2(string memory h...\n      JUMPDEST \t\t\tfunction test2(string memory h...\n      POP \t\t\tfunction test2(string memory h...\n      PUSH [tag] 21\t\t\tfunction test2(string memory h...\n      PUSH 4\t\t\tfunction test2(string memory h...\n      DUP1 \t\t\tfunction test2(string memory h...\n      CALLDATASIZE \t\t\tfunction test2(string memory h...\n      SUB \t\t\tfunction test2(string memory h...\n      DUP2 \t\t\tfunction test2(string memory h...\n      ADD \t\t\tfunction test2(string memory h...\n      SWAP1 \t\t\tfunction test2(string memory h...\n      PUSH [tag] 22\t\t\tfunction test2(string memory h...\n      SWAP2 \t\t\tfunction test2(string memory h...\n      SWAP1 \t\t\tfunction test2(string memory h...\n      PUSH [tag] 23\t\t\tfunction test2(string memory h...\n      JUMP \t\t\tfunction test2(string memory h...\n    tag 22\t\t\tfunction test2(string memory h...\n      JUMPDEST \t\t\tfunction test2(string memory h...\n      PUSH [tag] 24\t\t\tfunction test2(string memory h...\n      JUMP \t\t\tfunction test2(string memory h...\n    tag 21\t\t\tfunction test2(string memory h...\n      JUMPDEST \t\t\tfunction test2(string memory h...\n      PUSH 40\t\t\tfunction test2(string memory h...\n      MLOAD \t\t\tfunction test2(string memory h...\n      PUSH [tag] 25\t\t\tfunction test2(string memory h...\n      SWAP2 \t\t\tfunction test2(string memory h...\n      SWAP1 \t\t\tfunction test2(string memory h...\n      PUSH [tag] 19\t\t\tfunction test2(string memory h...\n      JUMP \t\t\tfunction test2(string memory h...\n    tag 25\t\t\tfunction test2(string memory h...\n      JUMPDEST \t\t\tfunction test2(string memory h...\n      PUSH 40\t\t\tfunction test2(string memory h...\n      MLOAD \t\t\tfunction test2(string memory h...\n      DUP1 \t\t\tfunction test2(string memory h...\n      SWAP2 \t\t\tfunction test2(string memory h...\n      SUB \t\t\tfunction test2(string memory h...\n      SWAP1 \t\t\tfunction test2(string memory h...\n      RETURN \t\t\tfunction test2(string memory h...\n    tag 5\t\t\tfunction pay(address recipient...\n      JUMPDEST \t\t\tfunction pay(address recipient...\n      PUSH [tag] 26\t\t\tfunction pay(address recipient...\n      PUSH 4\t\t\tfunction pay(address recipient...\n      DUP1 \t\t\tfunction pay(address recipient...\n      CALLDATASIZE \t\t\tfunction pay(address recipient...\n      SUB \t\t\tfunction pay(address recipient...\n      DUP2 \t\t\tfunction pay(address recipient...\n      ADD \t\t\tfunction pay(address recipient...\n      SWAP1 \t\t\tfunction pay(address recipient...\n      PUSH [tag] 27\t\t\tfunction pay(address recipient...\n      SWAP2 \t\t\tfunction pay(address recipient...\n      SWAP1 \t\t\tfunction pay(address recipient...\n      PUSH [tag] 28\t\t\tfunction pay(address recipient...\n      JUMP \t\t\tfunction pay(address recipient...\n    tag 27\t\t\tfunction pay(address recipient...\n      JUMPDEST \t\t\tfunction pay(address recipient...\n      PUSH [tag] 29\t\t\tfunction pay(address recipient...\n      JUMP \t\t\tfunction pay(address recipient...\n    tag 26\t\t\tfunction pay(address recipient...\n      JUMPDEST \t\t\tfunction pay(address recipient...\n      STOP \t\t\tfunction pay(address recipient...\n    tag 6\t\t\tfunction claimPrize(bytes32 _h...\n      JUMPDEST \t\t\tfunction claimPrize(bytes32 _h...\n      CALLVALUE \t\t\tfunction claimPrize(bytes32 _h...\n      DUP1 \t\t\tfunction claimPrize(bytes32 _h...\n      ISZERO \t\t\tfunction claimPrize(bytes32 _h...\n      PUSH [tag] 30\t\t\tfunction claimPrize(bytes32 _h...\n      JUMPI \t\t\tfunction claimPrize(bytes32 _h...\n      PUSH 0\t\t\tfunction claimPrize(bytes32 _h...\n      DUP1 \t\t\tfunction claimPrize(bytes32 _h...\n      REVERT \t\t\tfunction claimPrize(bytes32 _h...\n    tag 30\t\t\tfunction claimPrize(bytes32 _h...\n      JUMPDEST \t\t\tfunction claimPrize(bytes32 _h...\n      POP \t\t\tfunction claimPrize(bytes32 _h...\n      PUSH [tag] 31\t\t\tfunction claimPrize(bytes32 _h...\n      PUSH 4\t\t\tfunction claimPrize(bytes32 _h...\n      DUP1 \t\t\tfunction claimPrize(bytes32 _h...\n      CALLDATASIZE \t\t\tfunction claimPrize(bytes32 _h...\n      SUB \t\t\tfunction claimPrize(bytes32 _h...\n      DUP2 \t\t\tfunction claimPrize(bytes32 _h...\n      ADD \t\t\tfunction claimPrize(bytes32 _h...\n      SWAP1 \t\t\tfunction claimPrize(bytes32 _h...\n      PUSH [tag] 32\t\t\tfunction claimPrize(bytes32 _h...\n      SWAP2 \t\t\tfunction claimPrize(bytes32 _h...\n      SWAP1 \t\t\tfunction claimPrize(bytes32 _h...\n      PUSH [tag] 33\t\t\tfunction claimPrize(bytes32 _h...\n      JUMP \t\t\tfunction claimPrize(bytes32 _h...\n    tag 32\t\t\tfunction claimPrize(bytes32 _h...\n      JUMPDEST \t\t\tfunction claimPrize(bytes32 _h...\n      PUSH [tag] 34\t\t\tfunction claimPrize(bytes32 _h...\n      JUMP \t\t\tfunction claimPrize(bytes32 _h...\n    tag 31\t\t\tfunction claimPrize(bytes32 _h...\n      JUMPDEST \t\t\tfunction claimPrize(bytes32 _h...\n      PUSH 40\t\t\tfunction claimPrize(bytes32 _h...\n      MLOAD \t\t\tfunction claimPrize(bytes32 _h...\n      PUSH [tag] 35\t\t\tfunction claimPrize(bytes32 _h...\n      SWAP2 \t\t\tfunction claimPrize(bytes32 _h...\n      SWAP1 \t\t\tfunction claimPrize(bytes32 _h...\n      PUSH [tag] 36\t\t\tfunction claimPrize(bytes32 _h...\n      JUMP \t\t\tfunction claimPrize(bytes32 _h...\n    tag 35\t\t\tfunction claimPrize(bytes32 _h...\n      JUMPDEST \t\t\tfunction claimPrize(bytes32 _h...\n      PUSH 40\t\t\tfunction claimPrize(bytes32 _h...\n      MLOAD \t\t\tfunction claimPrize(bytes32 _h...\n      DUP1 \t\t\tfunction claimPrize(bytes32 _h...\n      SWAP2 \t\t\tfunction claimPrize(bytes32 _h...\n      SUB \t\t\tfunction claimPrize(bytes32 _h...\n      SWAP1 \t\t\tfunction claimPrize(bytes32 _h...\n      RETURN \t\t\tfunction claimPrize(bytes32 _h...\n    tag 7\t\t\tfunction userAuthorized(bytes ...\n      JUMPDEST \t\t\tfunction userAuthorized(bytes ...\n      CALLVALUE \t\t\tfunction userAuthorized(bytes ...\n      DUP1 \t\t\tfunction userAuthorized(bytes ...\n      ISZERO \t\t\tfunction userAuthorized(bytes ...\n      PUSH [tag] 37\t\t\tfunction userAuthorized(bytes ...\n      JUMPI \t\t\tfunction userAuthorized(bytes ...\n      PUSH 0\t\t\tfunction userAuthorized(bytes ...\n      DUP1 \t\t\tfunction userAuthorized(bytes ...\n      REVERT \t\t\tfunction userAuthorized(bytes ...\n    tag 37\t\t\tfunction userAuthorized(bytes ...\n      JUMPDEST \t\t\tfunction userAuthorized(bytes ...\n      POP \t\t\tfunction userAuthorized(bytes ...\n      PUSH [tag] 38\t\t\tfunction userAuthorized(bytes ...\n      PUSH 4\t\t\tfunction userAuthorized(bytes ...\n      DUP1 \t\t\tfunction userAuthorized(bytes ...\n      CALLDATASIZE \t\t\tfunction userAuthorized(bytes ...\n      SUB \t\t\tfunction userAuthorized(bytes ...\n      DUP2 \t\t\tfunction userAuthorized(bytes ...\n      ADD \t\t\tfunction userAuthorized(bytes ...\n      SWAP1 \t\t\tfunction userAuthorized(bytes ...\n      PUSH [tag] 39\t\t\tfunction userAuthorized(bytes ...\n      SWAP2 \t\t\tfunction userAuthorized(bytes ...\n      SWAP1 \t\t\tfunction userAuthorized(bytes ...\n      PUSH [tag] 40\t\t\tfunction userAuthorized(bytes ...\n      JUMP \t\t\tfunction userAuthorized(bytes ...\n    tag 39\t\t\tfunction userAuthorized(bytes ...\n      JUMPDEST \t\t\tfunction userAuthorized(bytes ...\n      PUSH [tag] 41\t\t\tfunction userAuthorized(bytes ...\n      JUMP \t\t\tfunction userAuthorized(bytes ...\n    tag 38\t\t\tfunction userAuthorized(bytes ...\n      JUMPDEST \t\t\tfunction userAuthorized(bytes ...\n      PUSH 40\t\t\tfunction userAuthorized(bytes ...\n      MLOAD \t\t\tfunction userAuthorized(bytes ...\n      PUSH [tag] 42\t\t\tfunction userAuthorized(bytes ...\n      SWAP2 \t\t\tfunction userAuthorized(bytes ...\n      SWAP1 \t\t\tfunction userAuthorized(bytes ...\n      PUSH [tag] 36\t\t\tfunction userAuthorized(bytes ...\n      JUMP \t\t\tfunction userAuthorized(bytes ...\n    tag 42\t\t\tfunction userAuthorized(bytes ...\n      JUMPDEST \t\t\tfunction userAuthorized(bytes ...\n      PUSH 40\t\t\tfunction userAuthorized(bytes ...\n      MLOAD \t\t\tfunction userAuthorized(bytes ...\n      DUP1 \t\t\tfunction userAuthorized(bytes ...\n      SWAP2 \t\t\tfunction userAuthorized(bytes ...\n      SUB \t\t\tfunction userAuthorized(bytes ...\n      SWAP1 \t\t\tfunction userAuthorized(bytes ...\n      RETURN \t\t\tfunction userAuthorized(bytes ...\n    tag 10\t\t\tfunction getBalance() public v...\n      JUMPDEST \t\t\tfunction getBalance() public v...\n      PUSH 0\t\t\tuint256\n      SELFBALANCE \t\t\taddress(this).balance\n      SWAP1 \t\t\treturn address(this).balance\n      POP \t\t\treturn address(this).balance\n      SWAP1 \t\t\tfunction getBalance() public v...\n      JUMP \t\t\tfunction getBalance() public v...\n    tag 17\t\t\tfunction test(bytes memory sig...\n      JUMPDEST \t\t\tfunction test(bytes memory sig...\n      PUSH 0\t\t\tbytes32\n      DUP1 \t\t\tbytes32 r\n      PUSH 0\t\t\tbytes32 s\n      DUP1 \t\t\tuint8 v\n      PUSH 20\t\t\t0x20\n      DUP6 \t\t\tsignature\n      ADD \t\t\tadd(signature, 0x20)\n      MLOAD \t\t\tmload(add(signature, 0x20))\n      SWAP3 \t\t\tr := mload(add(signature, 0x20...\n      POP \t\t\tr := mload(add(signature, 0x20...\n      PUSH 40\t\t\t0x40\n      DUP6 \t\t\tsignature\n      ADD \t\t\tadd(signature, 0x40)\n      MLOAD \t\t\tmload(add(signature, 0x40))\n      SWAP2 \t\t\ts := mload(add(signature, 0x40...\n      POP \t\t\ts := mload(add(signature, 0x40...\n      PUSH 60\t\t\t0x60\n      DUP6 \t\t\tsignature\n      ADD \t\t\tadd(signature, 0x60)\n      MLOAD \t\t\tmload(add(signature, 0x60))\n      PUSH 0\t\t\t0\n      BYTE \t\t\tbyte(0, mload(add(signature, 0...\n      SWAP1 \t\t\tv := byte(0, mload(add(signatu...\n      POP \t\t\tv := byte(0, mload(add(signatu...\n      DUP2 \t\t\ts\n      SWAP4 \t\t\treturn s\n      POP \t\t\treturn s\n      POP \t\t\treturn s\n      POP \t\t\treturn s\n      POP \t\t\treturn s\n      SWAP2 \t\t\tfunction test(bytes memory sig...\n      SWAP1 \t\t\tfunction test(bytes memory sig...\n      POP \t\t\tfunction test(bytes memory sig...\n      JUMP \t\t\tfunction test(bytes memory sig...\n    tag 24\t\t\tfunction test2(string memory h...\n      JUMPDEST \t\t\tfunction test2(string memory h...\n      PUSH 0\t\t\tbytes32\n      DUP2 \t\t\thash\n      PUSH 40\t\t\tabi.encodePacked(hash)\n      MLOAD \t\t\tabi.encodePacked(hash)\n      PUSH 20\t\t\tabi.encodePacked(hash)\n      ADD \t\t\tabi.encodePacked(hash)\n      PUSH [tag] 46\t\t\tabi.encodePacked(hash)\n      SWAP2 \t\t\tabi.encodePacked(hash)\n      SWAP1 \t\t\tabi.encodePacked(hash)\n      PUSH [tag] 47\t\t\tabi.encodePacked(hash)\n      JUMP \t\t\tabi.encodePacked(hash)\n    tag 46\t\t\tabi.encodePacked(hash)\n      JUMPDEST \t\t\tabi.encodePacked(hash)\n      PUSH 40\t\t\tabi.encodePacked(hash)\n      MLOAD \t\t\tabi.encodePacked(hash)\n      PUSH 20\t\t\tabi.encodePacked(hash)\n      DUP2 \t\t\tabi.encodePacked(hash)\n      DUP4 \t\t\tabi.encodePacked(hash)\n      SUB \t\t\tabi.encodePacked(hash)\n      SUB \t\t\tabi.encodePacked(hash)\n      DUP2 \t\t\tabi.encodePacked(hash)\n      MSTORE \t\t\tabi.encodePacked(hash)\n      SWAP1 \t\t\tabi.encodePacked(hash)\n      PUSH 40\t\t\tabi.encodePacked(hash)\n      MSTORE \t\t\tabi.encodePacked(hash)\n      DUP1 \t\t\tkeccak256(abi.encodePacked(has...\n      MLOAD \t\t\tkeccak256(abi.encodePacked(has...\n      SWAP1 \t\t\tkeccak256(abi.encodePacked(has...\n      PUSH 20\t\t\tkeccak256(abi.encodePacked(has...\n      ADD \t\t\tkeccak256(abi.encodePacked(has...\n      KECCAK256 \t\t\tkeccak256(abi.encodePacked(has...\n      SWAP1 \t\t\treturn keccak256(abi.encodePac...\n      POP \t\t\treturn keccak256(abi.encodePac...\n      SWAP2 \t\t\tfunction test2(string memory h...\n      SWAP1 \t\t\tfunction test2(string memory h...\n      POP \t\t\tfunction test2(string memory h...\n      JUMP \t\t\tfunction test2(string memory h...\n    tag 29\t\t\tfunction pay(address recipient...\n      JUMPDEST \t\t\tfunction pay(address recipient...\n      SELFBALANCE \t\t\taddress(this).balance\n      DUP6 \t\t\tamount\n      GT \t\t\tamount <= address(this).balanc...\n      ISZERO \t\t\tamount <= address(this).balanc...\n      PUSH [tag] 49\t\t\trequire(amount <= address(this...\n      JUMPI \t\t\trequire(amount <= address(this...\n      PUSH 40\t\t\trequire(amount <= address(this...\n      MLOAD \t\t\trequire(amount <= address(this...\n      PUSH 8C379A000000000000000000000000000000000000000000000000000000000\t\t\trequire(amount <= address(this...\n      DUP2 \t\t\trequire(amount <= address(this...\n      MSTORE \t\t\trequire(amount <= address(this...\n      PUSH 4\t\t\trequire(amount <= address(this...\n      ADD \t\t\trequire(amount <= address(this...\n      PUSH [tag] 50\t\t\trequire(amount <= address(this...\n      SWAP1 \t\t\trequire(amount <= address(this...\n      PUSH [tag] 51\t\t\trequire(amount <= address(this...\n      JUMP \t\t\trequire(amount <= address(this...\n    tag 50\t\t\trequire(amount <= address(this...\n      JUMPDEST \t\t\trequire(amount <= address(this...\n      PUSH 40\t\t\trequire(amount <= address(this...\n      MLOAD \t\t\trequire(amount <= address(this...\n      DUP1 \t\t\trequire(amount <= address(this...\n      SWAP2 \t\t\trequire(amount <= address(this...\n      SUB \t\t\trequire(amount <= address(this...\n      SWAP1 \t\t\trequire(amount <= address(this...\n      REVERT \t\t\trequire(amount <= address(this...\n    tag 49\t\t\trequire(amount <= address(this...\n      JUMPDEST \t\t\trequire(amount <= address(this...\n      DUP4 \t\t\tcampaignCount\n      DUP4 \t\t\tshoppingCount\n      LT \t\t\tshoppingCount >= campaignCount\n      PUSH [tag] 52\t\t\tif(shoppingCount >= campaignCo...\n      JUMPI \t\t\tif(shoppingCount >= campaignCo...\n      PUSH 0\t\t\tbool success\n      DUP7 \t\t\trecipient\n      PUSH FFFFFFFFFFFFFFFFFFFFFFFFFFFFFFFFFFFFFFFF\t\t\tpayable(recipient).send\n      AND \t\t\tpayable(recipient).send\n      PUSH 8FC\t\t\tpayable(recipient).send(amount...\n      DUP8 \t\t\tamount\n      SWAP1 \t\t\tpayable(recipient).send(amount...\n      DUP2 \t\t\tpayable(recipient).send(amount...\n      ISZERO \t\t\tpayable(recipient).send(amount...\n      MUL \t\t\tpayable(recipient).send(amount...\n      SWAP1 \t\t\tpayable(recipient).send(amount...\n      PUSH 40\t\t\tpayable(recipient).send(amount...\n      MLOAD \t\t\tpayable(recipient).send(amount...\n      PUSH 0\t\t\tpayable(recipient).send(amount...\n      PUSH 40\t\t\tpayable(recipient).send(amount...\n      MLOAD \t\t\tpayable(recipient).send(amount...\n      DUP1 \t\t\tpayable(recipient).send(amount...\n      DUP4 \t\t\tpayable(recipient).send(amount...\n      SUB \t\t\tpayable(recipient).send(amount...\n      DUP2 \t\t\tpayable(recipient).send(amount...\n      DUP6 \t\t\tpayable(recipient).send(amount...\n      DUP9 \t\t\tpayable(recipient).send(amount...\n      DUP9 \t\t\tpayable(recipient).send(amount...\n      CALL \t\t\tpayable(recipient).send(amount...\n      SWAP4 \t\t\tpayable(recipient).send(amount...\n      POP \t\t\tpayable(recipient).send(amount...\n      POP \t\t\tpayable(recipient).send(amount...\n      POP \t\t\tpayable(recipient).send(amount...\n      POP \t\t\tpayable(recipient).send(amount...\n      SWAP1 \t\t\tbool success = payable(recipie...\n      POP \t\t\tbool success = payable(recipie...\n      DUP1 \t\t\tsuccess\n      PUSH [tag] 54\t\t\trequire(success, \"Transfer fai...\n      JUMPI \t\t\trequire(success, \"Transfer fai...\n      PUSH 40\t\t\trequire(success, \"Transfer fai...\n      MLOAD \t\t\trequire(success, \"Transfer fai...\n      PUSH 8C379A000000000000000000000000000000000000000000000000000000000\t\t\trequire(success, \"Transfer fai...\n      DUP2 \t\t\trequire(success, \"Transfer fai...\n      MSTORE \t\t\trequire(success, \"Transfer fai...\n      PUSH 4\t\t\trequire(success, \"Transfer fai...\n      ADD \t\t\trequire(success, \"Transfer fai...\n      PUSH [tag] 55\t\t\trequire(success, \"Transfer fai...\n      SWAP1 \t\t\trequire(success, \"Transfer fai...\n      PUSH [tag] 56\t\t\trequire(success, \"Transfer fai...\n      JUMP \t\t\trequire(success, \"Transfer fai...\n    tag 55\t\t\trequire(success, \"Transfer fai...\n      JUMPDEST \t\t\trequire(success, \"Transfer fai...\n      PUSH 40\t\t\trequire(success, \"Transfer fai...\n      MLOAD \t\t\trequire(success, \"Transfer fai...\n      DUP1 \t\t\trequire(success, \"Transfer fai...\n      SWAP2 \t\t\trequire(success, \"Transfer fai...\n      SUB \t\t\trequire(success, \"Transfer fai...\n      SWAP1 \t\t\trequire(success, \"Transfer fai...\n      REVERT \t\t\trequire(success, \"Transfer fai...\n    tag 54\t\t\trequire(success, \"Transfer fai...\n      JUMPDEST \t\t\trequire(success, \"Transfer fai...\n      POP \t\t\t{    \\r\\n\\r\\n            // Tr...\n      PUSH [tag] 57\t\t\tif(shoppingCount >= campaignCo...\n      JUMP \t\t\tif(shoppingCount >= campaignCo...\n    tag 52\t\t\tif(shoppingCount >= campaignCo...\n      JUMPDEST \t\t\tif(shoppingCount >= campaignCo...\n      PUSH 40\t\t\trevert(\"User not Eligible!\")\n      MLOAD \t\t\trevert(\"User not Eligible!\")\n      PUSH 8C379A000000000000000000000000000000000000000000000000000000000\t\t\trevert(\"User not Eligible!\")\n      DUP2 \t\t\trevert(\"User not Eligible!\")\n      MSTORE \t\t\trevert(\"User not Eligible!\")\n      PUSH 4\t\t\trevert(\"User not Eligible!\")\n      ADD \t\t\trevert(\"User not Eligible!\")\n      PUSH [tag] 58\t\t\trevert(\"User not Eligible!\")\n      SWAP1 \t\t\trevert(\"User not Eligible!\")\n      PUSH [tag] 59\t\t\trevert(\"User not Eligible!\")\n      JUMP \t\t\trevert(\"User not Eligible!\")\n    tag 58\t\t\trevert(\"User not Eligible!\")\n      JUMPDEST \t\t\trevert(\"User not Eligible!\")\n      PUSH 40\t\t\trevert(\"User not Eligible!\")\n      MLOAD \t\t\trevert(\"User not Eligible!\")\n      DUP1 \t\t\trevert(\"User not Eligible!\")\n      SWAP2 \t\t\trevert(\"User not Eligible!\")\n      SUB \t\t\trevert(\"User not Eligible!\")\n      SWAP1 \t\t\trevert(\"User not Eligible!\")\n      REVERT \t\t\trevert(\"User not Eligible!\")\n    tag 57\t\t\tif(shoppingCount >= campaignCo...\n      JUMPDEST \t\t\tif(shoppingCount >= campaignCo...\n      POP \t\t\tfunction pay(address recipient...\n      POP \t\t\tfunction pay(address recipient...\n      POP \t\t\tfunction pay(address recipient...\n      POP \t\t\tfunction pay(address recipient...\n      POP \t\t\tfunction pay(address recipient...\n      POP \t\t\tfunction pay(address recipient...\n      JUMP \t\t\tfunction pay(address recipient...\n    tag 34\t\t\tfunction claimPrize(bytes32 _h...\n      JUMPDEST \t\t\tfunction claimPrize(bytes32 _h...\n      PUSH 0\t\t\taddress\n      DUP1 \t\t\tbytes memory prefix\n      PUSH 40\t\t\tbytes memory prefix = \"\\x19Eth...\n      MLOAD \t\t\tbytes memory prefix = \"\\x19Eth...\n      DUP1 \t\t\tbytes memory prefix = \"\\x19Eth...\n      PUSH 40\t\t\tbytes memory prefix = \"\\x19Eth...\n      ADD \t\t\tbytes memory prefix = \"\\x19Eth...\n      PUSH 40\t\t\tbytes memory prefix = \"\\x19Eth...\n      MSTORE \t\t\tbytes memory prefix = \"\\x19Eth...\n      DUP1 \t\t\tbytes memory prefix = \"\\x19Eth...\n      PUSH 1C\t\t\tbytes memory prefix = \"\\x19Eth...\n      DUP2 \t\t\tbytes memory prefix = \"\\x19Eth...\n      MSTORE \t\t\tbytes memory prefix = \"\\x19Eth...\n      PUSH 20\t\t\tbytes memory prefix = \"\\x19Eth...\n      ADD \t\t\tbytes memory prefix = \"\\x19Eth...\n      PUSH 19457468657265756D205369676E6564204D6573736167653A0A333200000000\t\t\tbytes memory prefix = \"\\x19Eth...\n      DUP2 \t\t\tbytes memory prefix = \"\\x19Eth...\n      MSTORE \t\t\tbytes memory prefix = \"\\x19Eth...\n      POP \t\t\tbytes memory prefix = \"\\x19Eth...\n      SWAP1 \t\t\tbytes memory prefix = \"\\x19Eth...\n      POP \t\t\tbytes memory prefix = \"\\x19Eth...\n      PUSH 0\t\t\tbytes32 prefixedHashMessage\n      DUP2 \t\t\tprefix\n      DUP8 \t\t\t_hashedMessage\n      PUSH 40\t\t\tabi.encodePacked(prefix, _hash...\n      MLOAD \t\t\tabi.encodePacked(prefix, _hash...\n      PUSH 20\t\t\tabi.encodePacked(prefix, _hash...\n      ADD \t\t\tabi.encodePacked(prefix, _hash...\n      PUSH [tag] 61\t\t\tabi.encodePacked(prefix, _hash...\n      SWAP3 \t\t\tabi.encodePacked(prefix, _hash...\n      SWAP2 \t\t\tabi.encodePacked(prefix, _hash...\n      SWAP1 \t\t\tabi.encodePacked(prefix, _hash...\n      PUSH [tag] 62\t\t\tabi.encodePacked(prefix, _hash...\n      JUMP \t\t\tabi.encodePacked(prefix, _hash...\n    tag 61\t\t\tabi.encodePacked(prefix, _hash...\n      JUMPDEST \t\t\tabi.encodePacked(prefix, _hash...\n      PUSH 40\t\t\tabi.encodePacked(prefix, _hash...\n      MLOAD \t\t\tabi.encodePacked(prefix, _hash...\n      PUSH 20\t\t\tabi.encodePacked(prefix, _hash...\n      DUP2 \t\t\tabi.encodePacked(prefix, _hash...\n      DUP4 \t\t\tabi.encodePacked(prefix, _hash...\n      SUB \t\t\tabi.encodePacked(prefix, _hash...\n      SUB \t\t\tabi.encodePacked(prefix, _hash...\n      DUP2 \t\t\tabi.encodePacked(prefix, _hash...\n      MSTORE \t\t\tabi.encodePacked(prefix, _hash...\n      SWAP1 \t\t\tabi.encodePacked(prefix, _hash...\n      PUSH 40\t\t\tabi.encodePacked(prefix, _hash...\n      MSTORE \t\t\tabi.encodePacked(prefix, _hash...\n      DUP1 \t\t\tkeccak256(abi.encodePacked(pre...\n      MLOAD \t\t\tkeccak256(abi.encodePacked(pre...\n      SWAP1 \t\t\tkeccak256(abi.encodePacked(pre...\n      PUSH 20\t\t\tkeccak256(abi.encodePacked(pre...\n      ADD \t\t\tkeccak256(abi.encodePacked(pre...\n      KECCAK256 \t\t\tkeccak256(abi.encodePacked(pre...\n      SWAP1 \t\t\tbytes32 prefixedHashMessage = ...\n      POP \t\t\tbytes32 prefixedHashMessage = ...\n      PUSH 0\t\t\taddress signer\n      PUSH 1\t\t\tecrecover(prefixedHashMessage,...\n      DUP3 \t\t\tprefixedHashMessage\n      DUP9 \t\t\t_v\n      DUP9 \t\t\t_r\n      DUP9 \t\t\t_s\n      PUSH 40\t\t\tecrecover(prefixedHashMessage,...\n      MLOAD \t\t\tecrecover(prefixedHashMessage,...\n      PUSH 0\t\t\tecrecover(prefixedHashMessage,...\n      DUP2 \t\t\tecrecover(prefixedHashMessage,...\n      MSTORE \t\t\tecrecover(prefixedHashMessage,...\n      PUSH 20\t\t\tecrecover(prefixedHashMessage,...\n      ADD \t\t\tecrecover(prefixedHashMessage,...\n      PUSH 40\t\t\tecrecover(prefixedHashMessage,...\n      MSTORE \t\t\tecrecover(prefixedHashMessage,...\n      PUSH 40\t\t\tecrecover(prefixedHashMessage,...\n      MLOAD \t\t\tecrecover(prefixedHashMessage,...\n      PUSH [tag] 63\t\t\tecrecover(prefixedHashMessage,...\n      SWAP5 \t\t\tecrecover(prefixedHashMessage,...\n      SWAP4 \t\t\tecrecover(prefixedHashMessage,...\n      SWAP3 \t\t\tecrecover(prefixedHashMessage,...\n      SWAP2 \t\t\tecrecover(prefixedHashMessage,...\n      SWAP1 \t\t\tecrecover(prefixedHashMessage,...\n      PUSH [tag] 64\t\t\tecrecover(prefixedHashMessage,...\n      JUMP \t\t\tecrecover(prefixedHashMessage,...\n    tag 63\t\t\tecrecover(prefixedHashMessage,...\n      JUMPDEST \t\t\tecrecover(prefixedHashMessage,...\n      PUSH 20\t\t\tecrecover(prefixedHashMessage,...\n      PUSH 40\t\t\tecrecover(prefixedHashMessage,...\n      MLOAD \t\t\tecrecover(prefixedHashMessage,...\n      PUSH 20\t\t\tecrecover(prefixedHashMessage,...\n      DUP2 \t\t\tecrecover(prefixedHashMessage,...\n      SUB \t\t\tecrecover(prefixedHashMessage,...\n      SWAP1 \t\t\tecrecover(prefixedHashMessage,...\n      DUP1 \t\t\tecrecover(prefixedHashMessage,...\n      DUP5 \t\t\tecrecover(prefixedHashMessage,...\n      SUB \t\t\tecrecover(prefixedHashMessage,...\n      SWAP1 \t\t\tecrecover(prefixedHashMessage,...\n      DUP6 \t\t\tecrecover(prefixedHashMessage,...\n      GAS \t\t\tecrecover(prefixedHashMessage,...\n      STATICCALL \t\t\tecrecover(prefixedHashMessage,...\n      ISZERO \t\t\tecrecover(prefixedHashMessage,...\n      DUP1 \t\t\tecrecover(prefixedHashMessage,...\n      ISZERO \t\t\tecrecover(prefixedHashMessage,...\n      PUSH [tag] 66\t\t\tecrecover(prefixedHashMessage,...\n      JUMPI \t\t\tecrecover(prefixedHashMessage,...\n      RETURNDATASIZE \t\t\tecrecover(prefixedHashMessage,...\n      PUSH 0\t\t\tecrecover(prefixedHashMessage,...\n      DUP1 \t\t\tecrecover(prefixedHashMessage,...\n      RETURNDATACOPY \t\t\tecrecover(prefixedHashMessage,...\n      RETURNDATASIZE \t\t\tecrecover(prefixedHashMessage,...\n      PUSH 0\t\t\tecrecover(prefixedHashMessage,...\n      REVERT \t\t\tecrecover(prefixedHashMessage,...\n    tag 66\t\t\tecrecover(prefixedHashMessage,...\n      JUMPDEST \t\t\tecrecover(prefixedHashMessage,...\n      POP \t\t\tecrecover(prefixedHashMessage,...\n      POP \t\t\tecrecover(prefixedHashMessage,...\n      POP \t\t\tecrecover(prefixedHashMessage,...\n      PUSH 20\t\t\tecrecover(prefixedHashMessage,...\n      PUSH 40\t\t\tecrecover(prefixedHashMessage,...\n      MLOAD \t\t\tecrecover(prefixedHashMessage,...\n      SUB \t\t\tecrecover(prefixedHashMessage,...\n      MLOAD \t\t\tecrecover(prefixedHashMessage,...\n      SWAP1 \t\t\taddress signer = ecrecover(pre...\n      POP \t\t\taddress signer = ecrecover(pre...\n      DUP1 \t\t\tsigner\n      SWAP4 \t\t\treturn signer\n      POP \t\t\treturn signer\n      POP \t\t\treturn signer\n      POP \t\t\treturn signer\n      POP \t\t\treturn signer\n      SWAP5 \t\t\tfunction claimPrize(bytes32 _h...\n      SWAP4 \t\t\tfunction claimPrize(bytes32 _h...\n      POP \t\t\tfunction claimPrize(bytes32 _h...\n      POP \t\t\tfunction claimPrize(bytes32 _h...\n      POP \t\t\tfunction claimPrize(bytes32 _h...\n      POP \t\t\tfunction claimPrize(bytes32 _h...\n      JUMP \t\t\tfunction claimPrize(bytes32 _h...\n    tag 41\t\t\tfunction userAuthorized(bytes ...\n      JUMPDEST \t\t\tfunction userAuthorized(bytes ...\n      PUSH 0\t\t\taddress\n      DUP1 \t\t\tbytes32 r\n      PUSH 0\t\t\tbytes32 s\n      DUP1 \t\t\tuint8 v\n      PUSH 20\t\t\t0x20\n      DUP7 \t\t\tsignature\n      ADD \t\t\tadd(signature, 0x20)\n      MLOAD \t\t\tmload(add(signature, 0x20))\n      SWAP3 \t\t\tr := mload(add(signature, 0x20...\n      POP \t\t\tr := mload(add(signature, 0x20...\n      PUSH 40\t\t\t0x40\n      DUP7 \t\t\tsignature\n      ADD \t\t\tadd(signature, 0x40)\n      MLOAD \t\t\tmload(add(signature, 0x40))\n      SWAP2 \t\t\ts := mload(add(signature, 0x40...\n      POP \t\t\ts := mload(add(signature, 0x40...\n      PUSH 60\t\t\t0x60\n      DUP7 \t\t\tsignature\n      ADD \t\t\tadd(signature, 0x60)\n      MLOAD \t\t\tmload(add(signature, 0x60))\n      PUSH 0\t\t\t0\n      BYTE \t\t\tbyte(0, mload(add(signature, 0...\n      SWAP1 \t\t\tv := byte(0, mload(add(signatu...\n      POP \t\t\tv := byte(0, mload(add(signatu...\n      PUSH 0\t\t\taddress recoveredAddress\n      PUSH 1\t\t\tecrecover(_messageHash, v, r, ...\n      DUP7 \t\t\t_messageHash\n      DUP4 \t\t\tv\n      DUP7 \t\t\tr\n      DUP7 \t\t\ts\n      PUSH 40\t\t\tecrecover(_messageHash, v, r, ...\n      MLOAD \t\t\tecrecover(_messageHash, v, r, ...\n      PUSH 0\t\t\tecrecover(_messageHash, v, r, ...\n      DUP2 \t\t\tecrecover(_messageHash, v, r, ...\n      MSTORE \t\t\tecrecover(_messageHash, v, r, ...\n      PUSH 20\t\t\tecrecover(_messageHash, v, r, ...\n      ADD \t\t\tecrecover(_messageHash, v, r, ...\n      PUSH 40\t\t\tecrecover(_messageHash, v, r, ...\n      MSTORE \t\t\tecrecover(_messageHash, v, r, ...\n      PUSH 40\t\t\tecrecover(_messageHash, v, r, ...\n      MLOAD \t\t\tecrecover(_messageHash, v, r, ...\n      PUSH [tag] 68\t\t\tecrecover(_messageHash, v, r, ...\n      SWAP5 \t\t\tecrecover(_messageHash, v, r, ...\n      SWAP4 \t\t\tecrecover(_messageHash, v, r, ...\n      SWAP3 \t\t\tecrecover(_messageHash, v, r, ...\n      SWAP2 \t\t\tecrecover(_messageHash, v, r, ...\n      SWAP1 \t\t\tecrecover(_messageHash, v, r, ...\n      PUSH [tag] 64\t\t\tecrecover(_messageHash, v, r, ...\n      JUMP \t\t\tecrecover(_messageHash, v, r, ...\n    tag 68\t\t\tecrecover(_messageHash, v, r, ...\n      JUMPDEST \t\t\tecrecover(_messageHash, v, r, ...\n      PUSH 20\t\t\tecrecover(_messageHash, v, r, ...\n      PUSH 40\t\t\tecrecover(_messageHash, v, r, ...\n      MLOAD \t\t\tecrecover(_messageHash, v, r, ...\n      PUSH 20\t\t\tecrecover(_messageHash, v, r, ...\n      DUP2 \t\t\tecrecover(_messageHash, v, r, ...\n      SUB \t\t\tecrecover(_messageHash, v, r, ...\n      SWAP1 \t\t\tecrecover(_messageHash, v, r, ...\n      DUP1 \t\t\tecrecover(_messageHash, v, r, ...\n      DUP5 \t\t\tecrecover(_messageHash, v, r, ...\n      SUB \t\t\tecrecover(_messageHash, v, r, ...\n      SWAP1 \t\t\tecrecover(_messageHash, v, r, ...\n      DUP6 \t\t\tecrecover(_messageHash, v, r, ...\n      GAS \t\t\tecrecover(_messageHash, v, r, ...\n      STATICCALL \t\t\tecrecover(_messageHash, v, r, ...\n      ISZERO \t\t\tecrecover(_messageHash, v, r, ...\n      DUP1 \t\t\tecrecover(_messageHash, v, r, ...\n      ISZERO \t\t\tecrecover(_messageHash, v, r, ...\n      PUSH [tag] 70\t\t\tecrecover(_messageHash, v, r, ...\n      JUMPI \t\t\tecrecover(_messageHash, v, r, ...\n      RETURNDATASIZE \t\t\tecrecover(_messageHash, v, r, ...\n      PUSH 0\t\t\tecrecover(_messageHash, v, r, ...\n      DUP1 \t\t\tecrecover(_messageHash, v, r, ...\n      RETURNDATACOPY \t\t\tecrecover(_messageHash, v, r, ...\n      RETURNDATASIZE \t\t\tecrecover(_messageHash, v, r, ...\n      PUSH 0\t\t\tecrecover(_messageHash, v, r, ...\n      REVERT \t\t\tecrecover(_messageHash, v, r, ...\n    tag 70\t\t\tecrecover(_messageHash, v, r, ...\n      JUMPDEST \t\t\tecrecover(_messageHash, v, r, ...\n      POP \t\t\tecrecover(_messageHash, v, r, ...\n      POP \t\t\tecrecover(_messageHash, v, r, ...\n      POP \t\t\tecrecover(_messageHash, v, r, ...\n      PUSH 20\t\t\tecrecover(_messageHash, v, r, ...\n      PUSH 40\t\t\tecrecover(_messageHash, v, r, ...\n      MLOAD \t\t\tecrecover(_messageHash, v, r, ...\n      SUB \t\t\tecrecover(_messageHash, v, r, ...\n      MLOAD \t\t\tecrecover(_messageHash, v, r, ...\n      SWAP1 \t\t\taddress recoveredAddress = ecr...\n      POP \t\t\taddress recoveredAddress = ecr...\n      DUP1 \t\t\trecoveredAddress\n      SWAP5 \t\t\treturn recoveredAddress\n      POP \t\t\treturn recoveredAddress\n      POP \t\t\treturn recoveredAddress\n      POP \t\t\treturn recoveredAddress\n      POP \t\t\treturn recoveredAddress\n      POP \t\t\treturn recoveredAddress\n      SWAP3 \t\t\tfunction userAuthorized(bytes ...\n      SWAP2 \t\t\tfunction userAuthorized(bytes ...\n      POP \t\t\tfunction userAuthorized(bytes ...\n      POP \t\t\tfunction userAuthorized(bytes ...\n      JUMP \t\t\tfunction userAuthorized(bytes ...\n    tag 71\t\t\t-License-Identifier: GPL-3.0\\r...\n      JUMPDEST \t\t\t-License-Identifier: GPL-3.0\\r...\n      PUSH 0\t\t\tsolidit\n      DUP2 \t\t\tcontr\n      SWAP1 \t\t\t<0.9.0;\\r\\n\\r\\ncontr\n      POP \t\t\t<0.9.0;\\r\\n\\r\\ncontr\n      SWAP2 \t\t\t-License-Identifier: GPL-3.0\\r...\n      SWAP1 \t\t\t-License-Identifier: GPL-3.0\\r...\n      POP \t\t\t-License-Identifier: GPL-3.0\\r...\n      JUMP \t\t\t-License-Identifier: GPL-3.0\\r...\n    tag 72\t\t\trea {\\r\\n\\r\\n    address _sign...\n      JUMPDEST \t\t\trea {\\r\\n\\r\\n    address _sign...\n      PUSH [tag] 123\t\t\tt fund on deploy stage\\r\\n\n      DUP2 \t\t\ttage\\r\n      PUSH [tag] 71\t\t\tt fund on deploy stage\\r\\n\n      JUMP \t\t\tt fund on deploy stage\\r\\n\n    tag 123\t\t\tt fund on deploy stage\\r\\n\n      JUMPDEST \t\t\tt fund on deploy stage\\r\\n\n      DUP3 \t\t\tto \n      MSTORE \t\t\tructor to get fund on deploy s...\n      POP \t\t\trea {\\r\\n\\r\\n    address _sign...\n      POP \t\t\trea {\\r\\n\\r\\n    address _sign...\n      JUMP \t\t\trea {\\r\\n\\r\\n    address _sign...\n    tag 12\t\t\tor() payable {\\r\\n\\r\\n\\r\\n    ...\n      JUMPDEST \t\t\tor() payable {\\r\\n\\r\\n\\r\\n    ...\n      PUSH 0\t\t\tss r\n      PUSH 20\t\t\t c\n      DUP3 \t\t\tnt, uint2\n      ADD \t\t\tamount, uint256 ca\n      SWAP1 \t\t\tint256  amount, uint256 ca\n      POP \t\t\tint256  amount, uint256 ca\n      PUSH [tag] 125\t\t\tt, uint256 shoppingCount, byte...\n      PUSH 0\t\t\ta\n      DUP4 \t\t\tmemory me\n      ADD \t\t\ting memory messag\n      DUP5 \t\t\tture, \n      PUSH [tag] 72\t\t\tt, uint256 shoppingCount, byte...\n      JUMP \t\t\tt, uint256 shoppingCount, byte...\n    tag 125\t\t\tt, uint256 shoppingCount, byte...\n      JUMPDEST \t\t\tt, uint256 shoppingCount, byte...\n      SWAP3 \t\t\tor() payable {\\r\\n\\r\\n\\r\\n    ...\n      SWAP2 \t\t\tor() payable {\\r\\n\\r\\n\\r\\n    ...\n      POP \t\t\tor() payable {\\r\\n\\r\\n\\r\\n    ...\n      POP \t\t\tor() payable {\\r\\n\\r\\n\\r\\n    ...\n      JUMP \t\t\tor() payable {\\r\\n\\r\\n\\r\\n    ...\n    tag 73\t\t\tpayable{\\r\\n    \\r\\n        //...\n      JUMPDEST \t\t\tpayable{\\r\\n    \\r\\n        //...\n      PUSH 0\t\t\thorize\n      PUSH 40\t\t\t\\n \n      MLOAD \t\t\tash);\\r\\n  \n      SWAP1 \t\t\t, messageHash);\\r\\n  \n      POP \t\t\t, messageHash);\\r\\n  \n      SWAP1 \t\t\tpayable{\\r\\n    \\r\\n        //...\n      JUMP \t\t\tpayable{\\r\\n    \\r\\n        //...\n    tag 74\t\t\t    require(amount <= address(...\n      JUMPDEST \t\t\t    require(amount <= address(...\n      PUSH 0\t\t\tC\n      DUP1 \t\t\ti\n      REVERT \t\t\t= campaignCo\n    tag 75\t\t\t\\n            // Transfer Ethe...\n      JUMPDEST \t\t\t\\n            // Transfer Ethe...\n      PUSH 0\t\t\to\n      DUP1 \t\t\t(\n      REVERT \t\t\tt).send(amou\n    tag 76\t\t\t      require(success, \"Transf...\n      JUMPDEST \t\t\t      require(success, \"Transf...\n      PUSH 0\t\t\t\\r\n      DUP1 \t\t\t;\n      REVERT \t\t\tible!\");\\r\\n\\r\\n\n    tag 77\t\t\t\\n        \\r\\n    }\\r\\n\\r\\n   ...\n      JUMPDEST \t\t\t\\n        \\r\\n    }\\r\\n\\r\\n   ...\n      PUSH 0\t\t\tu\n      DUP1 \t\t\tr\n      REVERT \t\t\tc pure retur\n    tag 78\t\t\t{\\r\\n        \\r\\n        bytes...\n      JUMPDEST \t\t\t{\\r\\n        \\r\\n        bytes...\n      PUSH 0\t\t\tbytes3\n      PUSH 1F\t\t\t\\n \n      NOT \t\t\ty {\\r\\n  \n      PUSH 1F\t\t\tse\n      DUP4 \t\t\t     \n      ADD \t\t\t\\n        assem\n      AND \t\t\t;\\r\\n\\r\\n        assembly {\\r\\...\n      SWAP1 \t\t\t   uint8 v;\\r\\n\\r\\n        ass...\n      POP \t\t\t   uint8 v;\\r\\n\\r\\n        ass...\n      SWAP2 \t\t\t{\\r\\n        \\r\\n        bytes...\n      SWAP1 \t\t\t{\\r\\n        \\r\\n        bytes...\n      POP \t\t\t{\\r\\n        \\r\\n        bytes...\n      JUMP \t\t\t{\\r\\n        \\r\\n        bytes...\n    tag 79\t\t\t= mload(add(signature, 0x20))\\...\n      JUMPDEST \t\t\t= mload(add(signature, 0x20))\\...\n      PUSH 4E487B7100000000000000000000000000000000000000000000000000000000\t\t\tmload(add(signature, 0x40))\\r\\...\n      PUSH 0\t\t\t:\n      MSTORE \t\t\t     s := mload(add(signature,...\n      PUSH 41\t\t\t    \n      PUSH 4\t\t\t\\n\n      MSTORE \t\t\t     }\\r\\n\\r\\n    \\r\n      PUSH 24\t\t\ter r\n      PUSH 0\t\t\tc\n      REVERT \t\t\t// ecrecover re\n    tag 80\t\t\tdress that signed the hashed m...\n      JUMPDEST \t\t\tdress that signed the hashed m...\n      PUSH [tag] 134\t\t\t_messageHash, v, r, s);\\r\\n\\r\\...\n      DUP3 \t\t\t;\\r\\n\\r\n      PUSH [tag] 78\t\t\t_messageHash, v, r, s);\\r\\n\\r\\...\n      JUMP \t\t\t_messageHash, v, r, s);\\r\\n\\r\\...\n    tag 134\t\t\t_messageHash, v, r, s);\\r\\n\\r\\...\n      JUMPDEST \t\t\t_messageHash, v, r, s);\\r\\n\\r\\...\n      DUP2 \t\t\trecove\n      ADD \t\t\t= ecrecover(_messageHash, v, r...\n      DUP2 \t\t\tAddres\n      DUP2 \t\t\trn recover\n      LT \t\t\teturn recoveredAddress\n      PUSH FFFFFFFFFFFFFFFF\t\t\ter address\\r\\n      \n      DUP3 \t\t\trovided si\n      GT \t\t\te provided signer address\\r\\n ...\n      OR \t\t\t the provided signer address\\r...\n      ISZERO \t\t\thes the provided signer addres...\n      PUSH [tag] 135\t\t\thes the provided signer addres...\n      JUMPI \t\t\thes the provided signer addres...\n      PUSH [tag] 136\t\t\t     \\r\\n    }\\r\\n\\r\\n\\r\\n\n      PUSH [tag] 79\t\t\t     \\r\\n    }\\r\\n\\r\\n\\r\\n\n      JUMP \t\t\t     \\r\\n    }\\r\\n\\r\\n\\r\\n\n    tag 136\t\t\t     \\r\\n    }\\r\\n\\r\\n\\r\\n\n      JUMPDEST \t\t\t     \\r\\n    }\\r\\n\\r\\n\\r\\n\n    tag 135\t\t\thes the provided signer addres...\n      JUMPDEST \t\t\thes the provided signer addres...\n      DUP1 \t\t\tcontract a\n      PUSH 40\t\t\t o\n      MSTORE \t\t\tbalance of contract ad\n      POP \t\t\t   address recoveredAddress = ...\n      POP \t\t\tdress that signed the hashed m...\n      POP \t\t\tdress that signed the hashed m...\n      JUMP \t\t\tdress that signed the hashed m...\n    tag 81\t\t\tunction getBalance() public vi...\n      JUMPDEST \t\t\tunction getBalance() public vi...\n      PUSH 0\t\t\teturns\n      PUSH [tag] 138\t\t\t return address(this\n      PUSH [tag] 73\t\t\t return address(this\n      JUMP \t\t\t return address(this\n    tag 138\t\t\t return address(this\n      JUMPDEST \t\t\t return address(this\n      SWAP1 \t\t\t\\n\\r\\n        return address(t...\n      POP \t\t\t\\n\\r\\n        return address(t...\n      PUSH [tag] 139\t\t\t;\\r\\n\\r\\n    }\\r\\n\\r\\n\\r\\n    ...\n      DUP3 \t\t\t tes\n      DUP3 \t\t\tfuncti\n      PUSH [tag] 80\t\t\t;\\r\\n\\r\\n    }\\r\\n\\r\\n\\r\\n    ...\n      JUMP \t\t\t;\\r\\n\\r\\n    }\\r\\n\\r\\n\\r\\n    ...\n    tag 139\t\t\t;\\r\\n\\r\\n    }\\r\\n\\r\\n\\r\\n    ...\n      JUMPDEST \t\t\t;\\r\\n\\r\\n    }\\r\\n\\r\\n\\r\\n    ...\n      SWAP2 \t\t\tunction getBalance() public vi...\n      SWAP1 \t\t\tunction getBalance() public vi...\n      POP \t\t\tunction getBalance() public vi...\n      JUMP \t\t\tunction getBalance() public vi...\n    tag 82\t\t\ty signature) public pure retur...\n      JUMPDEST \t\t\ty signature) public pure retur...\n      PUSH 0\t\t\t byt\n      PUSH FFFFFFFFFFFFFFFF\t\t\tmload(add(signatur\n      DUP3 \t\t\t   r :\n      GT \t\t\t      r := mload(add(signature\n      ISZERO \t\t\t         r := mload(add(signat...\n      PUSH [tag] 141\t\t\t         r := mload(add(signat...\n      JUMPI \t\t\t         r := mload(add(signat...\n      PUSH [tag] 142\t\t\tx20))\\r\\n           \n      PUSH [tag] 79\t\t\tx20))\\r\\n           \n      JUMP \t\t\tx20))\\r\\n           \n    tag 142\t\t\tx20))\\r\\n           \n      JUMPDEST \t\t\tx20))\\r\\n           \n    tag 141\t\t\t         r := mload(add(signat...\n      JUMPDEST \t\t\t         r := mload(add(signat...\n      PUSH [tag] 143\t\t\tature, 0x40))\\r\\n            v...\n      DUP3 \t\t\t     v\n      PUSH [tag] 78\t\t\tature, 0x40))\\r\\n            v...\n      JUMP \t\t\tature, 0x40))\\r\\n            v...\n    tag 143\t\t\tature, 0x40))\\r\\n            v...\n      JUMPDEST \t\t\tature, 0x40))\\r\\n            v...\n      SWAP1 \t\t\tadd(signature, 0x40))\\r\\n     ...\n      POP \t\t\tadd(signature, 0x40))\\r\\n     ...\n      PUSH 20\t\t\t    \n      DUP2 \t\t\t}\\r\\n \n      ADD \t\t\t    }\\r\\n        \n      SWAP1 \t\t\t))\\r\\n        }\\r\\n        \n      POP \t\t\t))\\r\\n        }\\r\\n        \n      SWAP2 \t\t\ty signature) public pure retur...\n      SWAP1 \t\t\ty signature) public pure retur...\n      POP \t\t\ty signature) public pure retur...\n      JUMP \t\t\ty signature) public pure retur...\n    tag 83\t\t\t  }\\r\\n\\r\\n    function test2(...\n      JUMPDEST \t\t\t  }\\r\\n\\r\\n    function test2(...\n      DUP3 \t\t\tcak256\n      DUP2 \t\t\tn k\n      DUP4 \t\t\tret\n      CALLDATACOPY \t\t\t{\\r\\n\\r\\n        return keccak...\n      PUSH 0\t\t\t\\n\n      DUP4 \t\t\t\\n\\r\\n   \n      DUP4 \t\t\th))\n      ADD \t\t\t(hash));\\r\\n\\r\\n    \n      MSTORE \t\t\tePacked(hash));\\r\\n\\r\\n    }\\r...\n      POP \t\t\t  }\\r\\n\\r\\n    function test2(...\n      POP \t\t\t  }\\r\\n\\r\\n    function test2(...\n      POP \t\t\t  }\\r\\n\\r\\n    function test2(...\n      JUMP \t\t\t  }\\r\\n\\r\\n    function test2(...\n    tag 84\t\t\tnction claimPrize(bytes32 _has...\n      JUMPDEST \t\t\tnction claimPrize(bytes32 _has...\n      PUSH 0\t\t\tublic\n      PUSH [tag] 146\t\t\tss) {\\r\\n        bytes memory ...\n      PUSH [tag] 147\t\t\tytes memory prefix = \"\\x19Ethe...\n      DUP5 \t\t\t Messa\n      PUSH [tag] 82\t\t\tytes memory prefix = \"\\x19Ethe...\n      JUMP \t\t\tytes memory prefix = \"\\x19Ethe...\n    tag 147\t\t\tytes memory prefix = \"\\x19Ethe...\n      JUMPDEST \t\t\tytes memory prefix = \"\\x19Ethe...\n      PUSH [tag] 81\t\t\tss) {\\r\\n        bytes memory ...\n      JUMP \t\t\tss) {\\r\\n        bytes memory ...\n    tag 146\t\t\tss) {\\r\\n        bytes memory ...\n      JUMPDEST \t\t\tss) {\\r\\n        bytes memory ...\n      SWAP1 \t\t\tns (address) {\\r\\n        byte...\n      POP \t\t\tns (address) {\\r\\n        byte...\n      DUP3 \t\t\t2 pref\n      DUP2 \t\t\t byte\n      MSTORE \t\t\t        bytes32 prefi\n      PUSH 20\t\t\tenco\n      DUP2 \t\t\t56(ab\n      ADD \t\t\tcak256(abi.encod\n      DUP5 \t\t\t\\r\\n \n      DUP5 \t\t\tessage\n      DUP5 \t\t\tshe\n      ADD \t\t\t _hashedMessage)\n      GT \t\t\tix, _hashedMessage));\\r\\n  \n      ISZERO \t\t\trefix, _hashedMessage));\\r\\n  ...\n      PUSH [tag] 148\t\t\trefix, _hashedMessage));\\r\\n  ...\n      JUMPI \t\t\trefix, _hashedMessage));\\r\\n  ...\n      PUSH [tag] 149\t\t\t   address signer = ecrecover(...\n      PUSH [tag] 77\t\t\t   address signer = ecrecover(...\n      JUMP \t\t\t   address signer = ecrecover(...\n    tag 149\t\t\t   address signer = ecrecover(...\n      JUMPDEST \t\t\t   address signer = ecrecover(...\n    tag 148\t\t\trefix, _hashedMessage));\\r\\n  ...\n      JUMPDEST \t\t\trefix, _hashedMessage));\\r\\n  ...\n      PUSH [tag] 150\t\t\t\\n    }\\r\\n}\n      DUP5 \t\t\t\n      DUP3 \t\t\t\n      DUP6 \t\t\t\n      PUSH [tag] 83\t\t\t\\n    }\\r\\n}\n      JUMP \t\t\t\\n    }\\r\\n}\n    tag 150\t\t\t\\n    }\\r\\n}\n      JUMPDEST \t\t\t\\n    }\\r\\n}\n      POP \t\t\tpure returns (address) {\\r\\n  ...\n      SWAP4 \t\t\tnction claimPrize(bytes32 _has...\n      SWAP3 \t\t\tnction claimPrize(bytes32 _has...\n      POP \t\t\tnction claimPrize(bytes32 _has...\n      POP \t\t\tnction claimPrize(bytes32 _has...\n      POP \t\t\tnction claimPrize(bytes32 _has...\n      JUMP \t\t\tnction claimPrize(bytes32 _has...\n    tag 85\t\t\t\n      JUMPDEST \t\t\t\n      PUSH 0\t\t\t\n      DUP3 \t\t\t\n      PUSH 1F\t\t\t\n      DUP4 \t\t\t\n      ADD \t\t\t\n      SLT \t\t\t\n      PUSH [tag] 152\t\t\t\n      JUMPI \t\t\t\n      PUSH [tag] 153\t\t\t\n      PUSH [tag] 76\t\t\t\n      JUMP \t\t\t\n    tag 153\t\t\t\n      JUMPDEST \t\t\t\n    tag 152\t\t\t\n      JUMPDEST \t\t\t\n      DUP2 \t\t\t\n      CALLDATALOAD \t\t\t\n      PUSH [tag] 154\t\t\t\n      DUP5 \t\t\t\n      DUP3 \t\t\t\n      PUSH 20\t\t\t\n      DUP7 \t\t\t\n      ADD \t\t\t\n      PUSH [tag] 84\t\t\t\n      JUMP \t\t\t\n    tag 154\t\t\t\n      JUMPDEST \t\t\t\n      SWAP2 \t\t\t\n      POP \t\t\t\n      POP \t\t\t\n      SWAP3 \t\t\t\n      SWAP2 \t\t\t\n      POP \t\t\t\n      POP \t\t\t\n      JUMP \t\t\t\n    tag 16\t\t\t\n      JUMPDEST \t\t\t\n      PUSH 0\t\t\t\n      PUSH 20\t\t\t\n      DUP3 \t\t\t\n      DUP5 \t\t\t\n      SUB \t\t\t\n      SLT \t\t\t\n      ISZERO \t\t\t\n      PUSH [tag] 156\t\t\t\n      JUMPI \t\t\t\n      PUSH [tag] 157\t\t\t\n      PUSH [tag] 74\t\t\t\n      JUMP \t\t\t\n    tag 157\t\t\t\n      JUMPDEST \t\t\t\n    tag 156\t\t\t\n      JUMPDEST \t\t\t\n      PUSH 0\t\t\t\n      DUP3 \t\t\t\n      ADD \t\t\t\n      CALLDATALOAD \t\t\t\n      PUSH FFFFFFFFFFFFFFFF\t\t\t\n      DUP2 \t\t\t\n      GT \t\t\t\n      ISZERO \t\t\t\n      PUSH [tag] 158\t\t\t\n      JUMPI \t\t\t\n      PUSH [tag] 159\t\t\t\n      PUSH [tag] 75\t\t\t\n      JUMP \t\t\t\n    tag 159\t\t\t\n      JUMPDEST \t\t\t\n    tag 158\t\t\t\n      JUMPDEST \t\t\t\n      PUSH [tag] 160\t\t\t\n      DUP5 \t\t\t\n      DUP3 \t\t\t\n      DUP6 \t\t\t\n      ADD \t\t\t\n      PUSH [tag] 85\t\t\t\n      JUMP \t\t\t\n    tag 160\t\t\t\n      JUMPDEST \t\t\t\n      SWAP2 \t\t\t\n      POP \t\t\t\n      POP \t\t\t\n      SWAP3 \t\t\t\n      SWAP2 \t\t\t\n      POP \t\t\t\n      POP \t\t\t\n      JUMP \t\t\t\n    tag 86\t\t\t\n      JUMPDEST \t\t\t\n      PUSH 0\t\t\t\n      DUP2 \t\t\t\n      SWAP1 \t\t\t\n      POP \t\t\t\n      SWAP2 \t\t\t\n      SWAP1 \t\t\t\n      POP \t\t\t\n      JUMP \t\t\t\n    tag 87\t\t\t\n      JUMPDEST \t\t\t\n      PUSH [tag] 163\t\t\t\n      DUP2 \t\t\t\n      PUSH [tag] 86\t\t\t\n      JUMP \t\t\t\n    tag 163\t\t\t\n      JUMPDEST \t\t\t\n      DUP3 \t\t\t\n      MSTORE \t\t\t\n      POP \t\t\t\n      POP \t\t\t\n      JUMP \t\t\t\n    tag 19\t\t\t\n      JUMPDEST \t\t\t\n      PUSH 0\t\t\t\n      PUSH 20\t\t\t\n      DUP3 \t\t\t\n      ADD \t\t\t\n      SWAP1 \t\t\t\n      POP \t\t\t\n      PUSH [tag] 165\t\t\t\n      PUSH 0\t\t\t\n      DUP4 \t\t\t\n      ADD \t\t\t\n      DUP5 \t\t\t\n      PUSH [tag] 87\t\t\t\n      JUMP \t\t\t\n    tag 165\t\t\t\n      JUMPDEST \t\t\t\n      SWAP3 \t\t\t\n      SWAP2 \t\t\t\n      POP \t\t\t\n      POP \t\t\t\n      JUMP \t\t\t\n    tag 88\t\t\t\n      JUMPDEST \t\t\t\n      PUSH 0\t\t\t\n      PUSH FFFFFFFFFFFFFFFF\t\t\t\n      DUP3 \t\t\t\n      GT \t\t\t\n      ISZERO \t\t\t\n      PUSH [tag] 167\t\t\t\n      JUMPI \t\t\t\n      PUSH [tag] 168\t\t\t\n      PUSH [tag] 79\t\t\t\n      JUMP \t\t\t\n    tag 168\t\t\t\n      JUMPDEST \t\t\t\n    tag 167\t\t\t\n      JUMPDEST \t\t\t\n      PUSH [tag] 169\t\t\t\n      DUP3 \t\t\t\n      PUSH [tag] 78\t\t\t\n      JUMP \t\t\t\n    tag 169\t\t\t\n      JUMPDEST \t\t\t\n      SWAP1 \t\t\t\n      POP \t\t\t\n      PUSH 20\t\t\t\n      DUP2 \t\t\t\n      ADD \t\t\t\n      SWAP1 \t\t\t\n      POP \t\t\t\n      SWAP2 \t\t\t\n      SWAP1 \t\t\t\n      POP \t\t\t\n      JUMP \t\t\t\n    tag 89\t\t\t\n      JUMPDEST \t\t\t\n      PUSH 0\t\t\t\n      PUSH [tag] 171\t\t\t\n      PUSH [tag] 172\t\t\t\n      DUP5 \t\t\t\n      PUSH [tag] 88\t\t\t\n      JUMP \t\t\t\n    tag 172\t\t\t\n      JUMPDEST \t\t\t\n      PUSH [tag] 81\t\t\t\n      JUMP \t\t\t\n    tag 171\t\t\t\n      JUMPDEST \t\t\t\n      SWAP1 \t\t\t\n      POP \t\t\t\n      DUP3 \t\t\t\n      DUP2 \t\t\t\n      MSTORE \t\t\t\n      PUSH 20\t\t\t\n      DUP2 \t\t\t\n      ADD \t\t\t\n      DUP5 \t\t\t\n      DUP5 \t\t\t\n      DUP5 \t\t\t\n      ADD \t\t\t\n      GT \t\t\t\n      ISZERO \t\t\t\n      PUSH [tag] 173\t\t\t\n      JUMPI \t\t\t\n      PUSH [tag] 174\t\t\t\n      PUSH [tag] 77\t\t\t\n      JUMP \t\t\t\n    tag 174\t\t\t\n      JUMPDEST \t\t\t\n    tag 173\t\t\t\n      JUMPDEST \t\t\t\n      PUSH [tag] 175\t\t\t\n      DUP5 \t\t\t\n      DUP3 \t\t\t\n      DUP6 \t\t\t\n      PUSH [tag] 83\t\t\t\n      JUMP \t\t\t\n    tag 175\t\t\t\n      JUMPDEST \t\t\t\n      POP \t\t\t\n      SWAP4 \t\t\t\n      SWAP3 \t\t\t\n      POP \t\t\t\n      POP \t\t\t\n      POP \t\t\t\n      JUMP \t\t\t\n    tag 90\t\t\t\n      JUMPDEST \t\t\t\n      PUSH 0\t\t\t\n      DUP3 \t\t\t\n      PUSH 1F\t\t\t\n      DUP4 \t\t\t\n      ADD \t\t\t\n      SLT \t\t\t\n      PUSH [tag] 177\t\t\t\n      JUMPI \t\t\t\n      PUSH [tag] 178\t\t\t\n      PUSH [tag] 76\t\t\t\n      JUMP \t\t\t\n    tag 178\t\t\t\n      JUMPDEST \t\t\t\n    tag 177\t\t\t\n      JUMPDEST \t\t\t\n      DUP2 \t\t\t\n      CALLDATALOAD \t\t\t\n      PUSH [tag] 179\t\t\t\n      DUP5 \t\t\t\n      DUP3 \t\t\t\n      PUSH 20\t\t\t\n      DUP7 \t\t\t\n      ADD \t\t\t\n      PUSH [tag] 89\t\t\t\n      JUMP \t\t\t\n    tag 179\t\t\t\n      JUMPDEST \t\t\t\n      SWAP2 \t\t\t\n      POP \t\t\t\n      POP \t\t\t\n      SWAP3 \t\t\t\n      SWAP2 \t\t\t\n      POP \t\t\t\n      POP \t\t\t\n      JUMP \t\t\t\n    tag 23\t\t\t\n      JUMPDEST \t\t\t\n      PUSH 0\t\t\t\n      PUSH 20\t\t\t\n      DUP3 \t\t\t\n      DUP5 \t\t\t\n      SUB \t\t\t\n      SLT \t\t\t\n      ISZERO \t\t\t\n      PUSH [tag] 181\t\t\t\n      JUMPI \t\t\t\n      PUSH [tag] 182\t\t\t\n      PUSH [tag] 74\t\t\t\n      JUMP \t\t\t\n    tag 182\t\t\t\n      JUMPDEST \t\t\t\n    tag 181\t\t\t\n      JUMPDEST \t\t\t\n      PUSH 0\t\t\t\n      DUP3 \t\t\t\n      ADD \t\t\t\n      CALLDATALOAD \t\t\t\n      PUSH FFFFFFFFFFFFFFFF\t\t\t\n      DUP2 \t\t\t\n      GT \t\t\t\n      ISZERO \t\t\t\n      PUSH [tag] 183\t\t\t\n      JUMPI \t\t\t\n      PUSH [tag] 184\t\t\t\n      PUSH [tag] 75\t\t\t\n      JUMP \t\t\t\n    tag 184\t\t\t\n      JUMPDEST \t\t\t\n    tag 183\t\t\t\n      JUMPDEST \t\t\t\n      PUSH [tag] 185\t\t\t\n      DUP5 \t\t\t\n      DUP3 \t\t\t\n      DUP6 \t\t\t\n      ADD \t\t\t\n      PUSH [tag] 90\t\t\t\n      JUMP \t\t\t\n    tag 185\t\t\t\n      JUMPDEST \t\t\t\n      SWAP2 \t\t\t\n      POP \t\t\t\n      POP \t\t\t\n      SWAP3 \t\t\t\n      SWAP2 \t\t\t\n      POP \t\t\t\n      POP \t\t\t\n      JUMP \t\t\t\n    tag 91\t\t\t\n      JUMPDEST \t\t\t\n      PUSH 0\t\t\t\n      PUSH FFFFFFFFFFFFFFFFFFFFFFFFFFFFFFFFFFFFFFFF\t\t\t\n      DUP3 \t\t\t\n      AND \t\t\t\n      SWAP1 \t\t\t\n      POP \t\t\t\n      SWAP2 \t\t\t\n      SWAP1 \t\t\t\n      POP \t\t\t\n      JUMP \t\t\t\n    tag 92\t\t\t\n      JUMPDEST \t\t\t\n      PUSH 0\t\t\t\n      PUSH [tag] 188\t\t\t\n      DUP3 \t\t\t\n      PUSH [tag] 91\t\t\t\n      JUMP \t\t\t\n    tag 188\t\t\t\n      JUMPDEST \t\t\t\n      SWAP1 \t\t\t\n      POP \t\t\t\n      SWAP2 \t\t\t\n      SWAP1 \t\t\t\n      POP \t\t\t\n      JUMP \t\t\t\n    tag 93\t\t\t\n      JUMPDEST \t\t\t\n      PUSH [tag] 190\t\t\t\n      DUP2 \t\t\t\n      PUSH [tag] 92\t\t\t\n      JUMP \t\t\t\n    tag 190\t\t\t\n      JUMPDEST \t\t\t\n      DUP2 \t\t\t\n      EQ \t\t\t\n      PUSH [tag] 191\t\t\t\n      JUMPI \t\t\t\n      PUSH 0\t\t\t\n      DUP1 \t\t\t\n      REVERT \t\t\t\n    tag 191\t\t\t\n      JUMPDEST \t\t\t\n      POP \t\t\t\n      JUMP \t\t\t\n    tag 94\t\t\t\n      JUMPDEST \t\t\t\n      PUSH 0\t\t\t\n      DUP2 \t\t\t\n      CALLDATALOAD \t\t\t\n      SWAP1 \t\t\t\n      POP \t\t\t\n      PUSH [tag] 193\t\t\t\n      DUP2 \t\t\t\n      PUSH [tag] 93\t\t\t\n      JUMP \t\t\t\n    tag 193\t\t\t\n      JUMPDEST \t\t\t\n      SWAP3 \t\t\t\n      SWAP2 \t\t\t\n      POP \t\t\t\n      POP \t\t\t\n      JUMP \t\t\t\n    tag 95\t\t\t\n      JUMPDEST \t\t\t\n      PUSH [tag] 195\t\t\t\n      DUP2 \t\t\t\n      PUSH [tag] 71\t\t\t\n      JUMP \t\t\t\n    tag 195\t\t\t\n      JUMPDEST \t\t\t\n      DUP2 \t\t\t\n      EQ \t\t\t\n      PUSH [tag] 196\t\t\t\n      JUMPI \t\t\t\n      PUSH 0\t\t\t\n      DUP1 \t\t\t\n      REVERT \t\t\t\n    tag 196\t\t\t\n      JUMPDEST \t\t\t\n      POP \t\t\t\n      JUMP \t\t\t\n    tag 96\t\t\t\n      JUMPDEST \t\t\t\n      PUSH 0\t\t\t\n      DUP2 \t\t\t\n      CALLDATALOAD \t\t\t\n      SWAP1 \t\t\t\n      POP \t\t\t\n      PUSH [tag] 198\t\t\t\n      DUP2 \t\t\t\n      PUSH [tag] 95\t\t\t\n      JUMP \t\t\t\n    tag 198\t\t\t\n      JUMPDEST \t\t\t\n      SWAP3 \t\t\t\n      SWAP2 \t\t\t\n      POP \t\t\t\n      POP \t\t\t\n      JUMP \t\t\t\n    tag 28\t\t\t\n      JUMPDEST \t\t\t\n      PUSH 0\t\t\t\n      DUP1 \t\t\t\n      PUSH 0\t\t\t\n      DUP1 \t\t\t\n      PUSH 0\t\t\t\n      DUP1 \t\t\t\n      PUSH C0\t\t\t\n      DUP8 \t\t\t\n      DUP10 \t\t\t\n      SUB \t\t\t\n      SLT \t\t\t\n      ISZERO \t\t\t\n      PUSH [tag] 200\t\t\t\n      JUMPI \t\t\t\n      PUSH [tag] 201\t\t\t\n      PUSH [tag] 74\t\t\t\n      JUMP \t\t\t\n    tag 201\t\t\t\n      JUMPDEST \t\t\t\n    tag 200\t\t\t\n      JUMPDEST \t\t\t\n      PUSH 0\t\t\t\n      PUSH [tag] 202\t\t\t\n      DUP10 \t\t\t\n      DUP3 \t\t\t\n      DUP11 \t\t\t\n      ADD \t\t\t\n      PUSH [tag] 94\t\t\t\n      JUMP \t\t\t\n    tag 202\t\t\t\n      JUMPDEST \t\t\t\n      SWAP7 \t\t\t\n      POP \t\t\t\n      POP \t\t\t\n      PUSH 20\t\t\t\n      PUSH [tag] 203\t\t\t\n      DUP10 \t\t\t\n      DUP3 \t\t\t\n      DUP11 \t\t\t\n      ADD \t\t\t\n      PUSH [tag] 96\t\t\t\n      JUMP \t\t\t\n    tag 203\t\t\t\n      JUMPDEST \t\t\t\n      SWAP6 \t\t\t\n      POP \t\t\t\n      POP \t\t\t\n      PUSH 40\t\t\t\n      PUSH [tag] 204\t\t\t\n      DUP10 \t\t\t\n      DUP3 \t\t\t\n      DUP11 \t\t\t\n      ADD \t\t\t\n      PUSH [tag] 96\t\t\t\n      JUMP \t\t\t\n    tag 204\t\t\t\n      JUMPDEST \t\t\t\n      SWAP5 \t\t\t\n      POP \t\t\t\n      POP \t\t\t\n      PUSH 60\t\t\t\n      PUSH [tag] 205\t\t\t\n      DUP10 \t\t\t\n      DUP3 \t\t\t\n      DUP11 \t\t\t\n      ADD \t\t\t\n      PUSH [tag] 96\t\t\t\n      JUMP \t\t\t\n    tag 205\t\t\t\n      JUMPDEST \t\t\t\n      SWAP4 \t\t\t\n      POP \t\t\t\n      POP \t\t\t\n      PUSH 80\t\t\t\n      DUP8 \t\t\t\n      ADD \t\t\t\n      CALLDATALOAD \t\t\t\n      PUSH FFFFFFFFFFFFFFFF\t\t\t\n      DUP2 \t\t\t\n      GT \t\t\t\n      ISZERO \t\t\t\n      PUSH [tag] 206\t\t\t\n      JUMPI \t\t\t\n      PUSH [tag] 207\t\t\t\n      PUSH [tag] 75\t\t\t\n      JUMP \t\t\t\n    tag 207\t\t\t\n      JUMPDEST \t\t\t\n    tag 206\t\t\t\n      JUMPDEST \t\t\t\n      PUSH [tag] 208\t\t\t\n      DUP10 \t\t\t\n      DUP3 \t\t\t\n      DUP11 \t\t\t\n      ADD \t\t\t\n      PUSH [tag] 85\t\t\t\n      JUMP \t\t\t\n    tag 208\t\t\t\n      JUMPDEST \t\t\t\n      SWAP3 \t\t\t\n      POP \t\t\t\n      POP \t\t\t\n      PUSH A0\t\t\t\n      DUP8 \t\t\t\n      ADD \t\t\t\n      CALLDATALOAD \t\t\t\n      PUSH FFFFFFFFFFFFFFFF\t\t\t\n      DUP2 \t\t\t\n      GT \t\t\t\n      ISZERO \t\t\t\n      PUSH [tag] 209\t\t\t\n      JUMPI \t\t\t\n      PUSH [tag] 210\t\t\t\n      PUSH [tag] 75\t\t\t\n      JUMP \t\t\t\n    tag 210\t\t\t\n      JUMPDEST \t\t\t\n    tag 209\t\t\t\n      JUMPDEST \t\t\t\n      PUSH [tag] 211\t\t\t\n      DUP10 \t\t\t\n      DUP3 \t\t\t\n      DUP11 \t\t\t\n      ADD \t\t\t\n      PUSH [tag] 90\t\t\t\n      JUMP \t\t\t\n    tag 211\t\t\t\n      JUMPDEST \t\t\t\n      SWAP2 \t\t\t\n      POP \t\t\t\n      POP \t\t\t\n      SWAP3 \t\t\t\n      SWAP6 \t\t\t\n      POP \t\t\t\n      SWAP3 \t\t\t\n      SWAP6 \t\t\t\n      POP \t\t\t\n      SWAP3 \t\t\t\n      SWAP6 \t\t\t\n      JUMP \t\t\t\n    tag 97\t\t\t\n      JUMPDEST \t\t\t\n      PUSH [tag] 213\t\t\t\n      DUP2 \t\t\t\n      PUSH [tag] 86\t\t\t\n      JUMP \t\t\t\n    tag 213\t\t\t\n      JUMPDEST \t\t\t\n      DUP2 \t\t\t\n      EQ \t\t\t\n      PUSH [tag] 214\t\t\t\n      JUMPI \t\t\t\n      PUSH 0\t\t\t\n      DUP1 \t\t\t\n      REVERT \t\t\t\n    tag 214\t\t\t\n      JUMPDEST \t\t\t\n      POP \t\t\t\n      JUMP \t\t\t\n    tag 98\t\t\t\n      JUMPDEST \t\t\t\n      PUSH 0\t\t\t\n      DUP2 \t\t\t\n      CALLDATALOAD \t\t\t\n      SWAP1 \t\t\t\n      POP \t\t\t\n      PUSH [tag] 216\t\t\t\n      DUP2 \t\t\t\n      PUSH [tag] 97\t\t\t\n      JUMP \t\t\t\n    tag 216\t\t\t\n      JUMPDEST \t\t\t\n      SWAP3 \t\t\t\n      SWAP2 \t\t\t\n      POP \t\t\t\n      POP \t\t\t\n      JUMP \t\t\t\n    tag 99\t\t\t\n      JUMPDEST \t\t\t\n      PUSH 0\t\t\t\n      PUSH FF\t\t\t\n      DUP3 \t\t\t\n      AND \t\t\t\n      SWAP1 \t\t\t\n      POP \t\t\t\n      SWAP2 \t\t\t\n      SWAP1 \t\t\t\n      POP \t\t\t\n      JUMP \t\t\t\n    tag 100\t\t\t\n      JUMPDEST \t\t\t\n      PUSH [tag] 219\t\t\t\n      DUP2 \t\t\t\n      PUSH [tag] 99\t\t\t\n      JUMP \t\t\t\n    tag 219\t\t\t\n      JUMPDEST \t\t\t\n      DUP2 \t\t\t\n      EQ \t\t\t\n      PUSH [tag] 220\t\t\t\n      JUMPI \t\t\t\n      PUSH 0\t\t\t\n      DUP1 \t\t\t\n      REVERT \t\t\t\n    tag 220\t\t\t\n      JUMPDEST \t\t\t\n      POP \t\t\t\n      JUMP \t\t\t\n    tag 101\t\t\t\n      JUMPDEST \t\t\t\n      PUSH 0\t\t\t\n      DUP2 \t\t\t\n      CALLDATALOAD \t\t\t\n      SWAP1 \t\t\t\n      POP \t\t\t\n      PUSH [tag] 222\t\t\t\n      DUP2 \t\t\t\n      PUSH [tag] 100\t\t\t\n      JUMP \t\t\t\n    tag 222\t\t\t\n      JUMPDEST \t\t\t\n      SWAP3 \t\t\t\n      SWAP2 \t\t\t\n      POP \t\t\t\n      POP \t\t\t\n      JUMP \t\t\t\n    tag 33\t\t\t\n      JUMPDEST \t\t\t\n      PUSH 0\t\t\t\n      DUP1 \t\t\t\n      PUSH 0\t\t\t\n      DUP1 \t\t\t\n      PUSH 80\t\t\t\n      DUP6 \t\t\t\n      DUP8 \t\t\t\n      SUB \t\t\t\n      SLT \t\t\t\n      ISZERO \t\t\t\n      PUSH [tag] 224\t\t\t\n      JUMPI \t\t\t\n      PUSH [tag] 225\t\t\t\n      PUSH [tag] 74\t\t\t\n      JUMP \t\t\t\n    tag 225\t\t\t\n      JUMPDEST \t\t\t\n    tag 224\t\t\t\n      JUMPDEST \t\t\t\n      PUSH 0\t\t\t\n      PUSH [tag] 226\t\t\t\n      DUP8 \t\t\t\n      DUP3 \t\t\t\n      DUP9 \t\t\t\n      ADD \t\t\t\n      PUSH [tag] 98\t\t\t\n      JUMP \t\t\t\n    tag 226\t\t\t\n      JUMPDEST \t\t\t\n      SWAP5 \t\t\t\n      POP \t\t\t\n      POP \t\t\t\n      PUSH 20\t\t\t\n      PUSH [tag] 227\t\t\t\n      DUP8 \t\t\t\n      DUP3 \t\t\t\n      DUP9 \t\t\t\n      ADD \t\t\t\n      PUSH [tag] 101\t\t\t\n      JUMP \t\t\t\n    tag 227\t\t\t\n      JUMPDEST \t\t\t\n      SWAP4 \t\t\t\n      POP \t\t\t\n      POP \t\t\t\n      PUSH 40\t\t\t\n      PUSH [tag] 228\t\t\t\n      DUP8 \t\t\t\n      DUP3 \t\t\t\n      DUP9 \t\t\t\n      ADD \t\t\t\n      PUSH [tag] 98\t\t\t\n      JUMP \t\t\t\n    tag 228\t\t\t\n      JUMPDEST \t\t\t\n      SWAP3 \t\t\t\n      POP \t\t\t\n      POP \t\t\t\n      PUSH 60\t\t\t\n      PUSH [tag] 229\t\t\t\n      DUP8 \t\t\t\n      DUP3 \t\t\t\n      DUP9 \t\t\t\n      ADD \t\t\t\n      PUSH [tag] 98\t\t\t\n      JUMP \t\t\t\n    tag 229\t\t\t\n      JUMPDEST \t\t\t\n      SWAP2 \t\t\t\n      POP \t\t\t\n      POP \t\t\t\n      SWAP3 \t\t\t\n      SWAP6 \t\t\t\n      SWAP2 \t\t\t\n      SWAP5 \t\t\t\n      POP \t\t\t\n      SWAP3 \t\t\t\n      POP \t\t\t\n      JUMP \t\t\t\n    tag 102\t\t\t\n      JUMPDEST \t\t\t\n      PUSH [tag] 231\t\t\t\n      DUP2 \t\t\t\n      PUSH [tag] 92\t\t\t\n      JUMP \t\t\t\n    tag 231\t\t\t\n      JUMPDEST \t\t\t\n      DUP3 \t\t\t\n      MSTORE \t\t\t\n      POP \t\t\t\n      POP \t\t\t\n      JUMP \t\t\t\n    tag 36\t\t\t\n      JUMPDEST \t\t\t\n      PUSH 0\t\t\t\n      PUSH 20\t\t\t\n      DUP3 \t\t\t\n      ADD \t\t\t\n      SWAP1 \t\t\t\n      POP \t\t\t\n      PUSH [tag] 233\t\t\t\n      PUSH 0\t\t\t\n      DUP4 \t\t\t\n      ADD \t\t\t\n      DUP5 \t\t\t\n      PUSH [tag] 102\t\t\t\n      JUMP \t\t\t\n    tag 233\t\t\t\n      JUMPDEST \t\t\t\n      SWAP3 \t\t\t\n      SWAP2 \t\t\t\n      POP \t\t\t\n      POP \t\t\t\n      JUMP \t\t\t\n    tag 40\t\t\t\n      JUMPDEST \t\t\t\n      PUSH 0\t\t\t\n      DUP1 \t\t\t\n      PUSH 40\t\t\t\n      DUP4 \t\t\t\n      DUP6 \t\t\t\n      SUB \t\t\t\n      SLT \t\t\t\n      ISZERO \t\t\t\n      PUSH [tag] 235\t\t\t\n      JUMPI \t\t\t\n      PUSH [tag] 236\t\t\t\n      PUSH [tag] 74\t\t\t\n      JUMP \t\t\t\n    tag 236\t\t\t\n      JUMPDEST \t\t\t\n    tag 235\t\t\t\n      JUMPDEST \t\t\t\n      PUSH 0\t\t\t\n      DUP4 \t\t\t\n      ADD \t\t\t\n      CALLDATALOAD \t\t\t\n      PUSH FFFFFFFFFFFFFFFF\t\t\t\n      DUP2 \t\t\t\n      GT \t\t\t\n      ISZERO \t\t\t\n      PUSH [tag] 237\t\t\t\n      JUMPI \t\t\t\n      PUSH [tag] 238\t\t\t\n      PUSH [tag] 75\t\t\t\n      JUMP \t\t\t\n    tag 238\t\t\t\n      JUMPDEST \t\t\t\n    tag 237\t\t\t\n      JUMPDEST \t\t\t\n      PUSH [tag] 239\t\t\t\n      DUP6 \t\t\t\n      DUP3 \t\t\t\n      DUP7 \t\t\t\n      ADD \t\t\t\n      PUSH [tag] 85\t\t\t\n      JUMP \t\t\t\n    tag 239\t\t\t\n      JUMPDEST \t\t\t\n      SWAP3 \t\t\t\n      POP \t\t\t\n      POP \t\t\t\n      PUSH 20\t\t\t\n      PUSH [tag] 240\t\t\t\n      DUP6 \t\t\t\n      DUP3 \t\t\t\n      DUP7 \t\t\t\n      ADD \t\t\t\n      PUSH [tag] 98\t\t\t\n      JUMP \t\t\t\n    tag 240\t\t\t\n      JUMPDEST \t\t\t\n      SWAP2 \t\t\t\n      POP \t\t\t\n      POP \t\t\t\n      SWAP3 \t\t\t\n      POP \t\t\t\n      SWAP3 \t\t\t\n      SWAP1 \t\t\t\n      POP \t\t\t\n      JUMP \t\t\t\n    tag 103\t\t\t\n      JUMPDEST \t\t\t\n      PUSH 0\t\t\t\n      DUP2 \t\t\t\n      MLOAD \t\t\t\n      SWAP1 \t\t\t\n      POP \t\t\t\n      SWAP2 \t\t\t\n      SWAP1 \t\t\t\n      POP \t\t\t\n      JUMP \t\t\t\n    tag 104\t\t\t\n      JUMPDEST \t\t\t\n      PUSH 0\t\t\t\n      DUP2 \t\t\t\n      SWAP1 \t\t\t\n      POP \t\t\t\n      SWAP3 \t\t\t\n      SWAP2 \t\t\t\n      POP \t\t\t\n      POP \t\t\t\n      JUMP \t\t\t\n    tag 105\t\t\t\n      JUMPDEST \t\t\t\n      PUSH 0\t\t\t\n    tag 244\t\t\t\n      JUMPDEST \t\t\t\n      DUP4 \t\t\t\n      DUP2 \t\t\t\n      LT \t\t\t\n      ISZERO \t\t\t\n      PUSH [tag] 246\t\t\t\n      JUMPI \t\t\t\n      DUP1 \t\t\t\n      DUP3 \t\t\t\n      ADD \t\t\t\n      MLOAD \t\t\t\n      DUP2 \t\t\t\n      DUP5 \t\t\t\n      ADD \t\t\t\n      MSTORE \t\t\t\n      PUSH 20\t\t\t\n      DUP2 \t\t\t\n      ADD \t\t\t\n      SWAP1 \t\t\t\n      POP \t\t\t\n      PUSH [tag] 244\t\t\t\n      JUMP \t\t\t\n    tag 246\t\t\t\n      JUMPDEST \t\t\t\n      PUSH 0\t\t\t\n      DUP5 \t\t\t\n      DUP5 \t\t\t\n      ADD \t\t\t\n      MSTORE \t\t\t\n      POP \t\t\t\n      POP \t\t\t\n      POP \t\t\t\n      POP \t\t\t\n      JUMP \t\t\t\n    tag 106\t\t\t\n      JUMPDEST \t\t\t\n      PUSH 0\t\t\t\n      PUSH [tag] 248\t\t\t\n      DUP3 \t\t\t\n      PUSH [tag] 103\t\t\t\n      JUMP \t\t\t\n    tag 248\t\t\t\n      JUMPDEST \t\t\t\n      PUSH [tag] 249\t\t\t\n      DUP2 \t\t\t\n      DUP6 \t\t\t\n      PUSH [tag] 104\t\t\t\n      JUMP \t\t\t\n    tag 249\t\t\t\n      JUMPDEST \t\t\t\n      SWAP4 \t\t\t\n      POP \t\t\t\n      PUSH [tag] 250\t\t\t\n      DUP2 \t\t\t\n      DUP6 \t\t\t\n      PUSH 20\t\t\t\n      DUP7 \t\t\t\n      ADD \t\t\t\n      PUSH [tag] 105\t\t\t\n      JUMP \t\t\t\n    tag 250\t\t\t\n      JUMPDEST \t\t\t\n      DUP1 \t\t\t\n      DUP5 \t\t\t\n      ADD \t\t\t\n      SWAP2 \t\t\t\n      POP \t\t\t\n      POP \t\t\t\n      SWAP3 \t\t\t\n      SWAP2 \t\t\t\n      POP \t\t\t\n      POP \t\t\t\n      JUMP \t\t\t\n    tag 47\t\t\t\n      JUMPDEST \t\t\t\n      PUSH 0\t\t\t\n      PUSH [tag] 252\t\t\t\n      DUP3 \t\t\t\n      DUP5 \t\t\t\n      PUSH [tag] 106\t\t\t\n      JUMP \t\t\t\n    tag 252\t\t\t\n      JUMPDEST \t\t\t\n      SWAP2 \t\t\t\n      POP \t\t\t\n      DUP2 \t\t\t\n      SWAP1 \t\t\t\n      POP \t\t\t\n      SWAP3 \t\t\t\n      SWAP2 \t\t\t\n      POP \t\t\t\n      POP \t\t\t\n      JUMP \t\t\t\n    tag 107\t\t\t\n      JUMPDEST \t\t\t\n      PUSH 0\t\t\t\n      DUP3 \t\t\t\n      DUP3 \t\t\t\n      MSTORE \t\t\t\n      PUSH 20\t\t\t\n      DUP3 \t\t\t\n      ADD \t\t\t\n      SWAP1 \t\t\t\n      POP \t\t\t\n      SWAP3 \t\t\t\n      SWAP2 \t\t\t\n      POP \t\t\t\n      POP \t\t\t\n      JUMP \t\t\t\n    tag 108\t\t\t\n      JUMPDEST \t\t\t\n      PUSH 496E73756666696369656E742062616C616E6365000000000000000000000000\t\t\t\n      PUSH 0\t\t\t\n      DUP3 \t\t\t\n      ADD \t\t\t\n      MSTORE \t\t\t\n      POP \t\t\t\n      JUMP \t\t\t\n    tag 109\t\t\t\n      JUMPDEST \t\t\t\n      PUSH 0\t\t\t\n      PUSH [tag] 256\t\t\t\n      PUSH 14\t\t\t\n      DUP4 \t\t\t\n      PUSH [tag] 107\t\t\t\n      JUMP \t\t\t\n    tag 256\t\t\t\n      JUMPDEST \t\t\t\n      SWAP2 \t\t\t\n      POP \t\t\t\n      PUSH [tag] 257\t\t\t\n      DUP3 \t\t\t\n      PUSH [tag] 108\t\t\t\n      JUMP \t\t\t\n    tag 257\t\t\t\n      JUMPDEST \t\t\t\n      PUSH 20\t\t\t\n      DUP3 \t\t\t\n      ADD \t\t\t\n      SWAP1 \t\t\t\n      POP \t\t\t\n      SWAP2 \t\t\t\n      SWAP1 \t\t\t\n      POP \t\t\t\n      JUMP \t\t\t\n    tag 51\t\t\t\n      JUMPDEST \t\t\t\n      PUSH 0\t\t\t\n      PUSH 20\t\t\t\n      DUP3 \t\t\t\n      ADD \t\t\t\n      SWAP1 \t\t\t\n      POP \t\t\t\n      DUP2 \t\t\t\n      DUP2 \t\t\t\n      SUB \t\t\t\n      PUSH 0\t\t\t\n      DUP4 \t\t\t\n      ADD \t\t\t\n      MSTORE \t\t\t\n      PUSH [tag] 259\t\t\t\n      DUP2 \t\t\t\n      PUSH [tag] 109\t\t\t\n      JUMP \t\t\t\n    tag 259\t\t\t\n      JUMPDEST \t\t\t\n      SWAP1 \t\t\t\n      POP \t\t\t\n      SWAP2 \t\t\t\n      SWAP1 \t\t\t\n      POP \t\t\t\n      JUMP \t\t\t\n    tag 110\t\t\t\n      JUMPDEST \t\t\t\n      PUSH 5472616E73666572206661696C65640000000000000000000000000000000000\t\t\t\n      PUSH 0\t\t\t\n      DUP3 \t\t\t\n      ADD \t\t\t\n      MSTORE \t\t\t\n      POP \t\t\t\n      JUMP \t\t\t\n    tag 111\t\t\t\n      JUMPDEST \t\t\t\n      PUSH 0\t\t\t\n      PUSH [tag] 262\t\t\t\n      PUSH F\t\t\t\n      DUP4 \t\t\t\n      PUSH [tag] 107\t\t\t\n      JUMP \t\t\t\n    tag 262\t\t\t\n      JUMPDEST \t\t\t\n      SWAP2 \t\t\t\n      POP \t\t\t\n      PUSH [tag] 263\t\t\t\n      DUP3 \t\t\t\n      PUSH [tag] 110\t\t\t\n      JUMP \t\t\t\n    tag 263\t\t\t\n      JUMPDEST \t\t\t\n      PUSH 20\t\t\t\n      DUP3 \t\t\t\n      ADD \t\t\t\n      SWAP1 \t\t\t\n      POP \t\t\t\n      SWAP2 \t\t\t\n      SWAP1 \t\t\t\n      POP \t\t\t\n      JUMP \t\t\t\n    tag 56\t\t\t\n      JUMPDEST \t\t\t\n      PUSH 0\t\t\t\n      PUSH 20\t\t\t\n      DUP3 \t\t\t\n      ADD \t\t\t\n      SWAP1 \t\t\t\n      POP \t\t\t\n      DUP2 \t\t\t\n      DUP2 \t\t\t\n      SUB \t\t\t\n      PUSH 0\t\t\t\n      DUP4 \t\t\t\n      ADD \t\t\t\n      MSTORE \t\t\t\n      PUSH [tag] 265\t\t\t\n      DUP2 \t\t\t\n      PUSH [tag] 111\t\t\t\n      JUMP \t\t\t\n    tag 265\t\t\t\n      JUMPDEST \t\t\t\n      SWAP1 \t\t\t\n      POP \t\t\t\n      SWAP2 \t\t\t\n      SWAP1 \t\t\t\n      POP \t\t\t\n      JUMP \t\t\t\n    tag 112\t\t\t\n      JUMPDEST \t\t\t\n      PUSH 55736572206E6F7420456C696769626C65210000000000000000000000000000\t\t\t\n      PUSH 0\t\t\t\n      DUP3 \t\t\t\n      ADD \t\t\t\n      MSTORE \t\t\t\n      POP \t\t\t\n      JUMP \t\t\t\n    tag 113\t\t\t\n      JUMPDEST \t\t\t\n      PUSH 0\t\t\t\n      PUSH [tag] 268\t\t\t\n      PUSH 12\t\t\t\n      DUP4 \t\t\t\n      PUSH [tag] 107\t\t\t\n      JUMP \t\t\t\n    tag 268\t\t\t\n      JUMPDEST \t\t\t\n      SWAP2 \t\t\t\n      POP \t\t\t\n      PUSH [tag] 269\t\t\t\n      DUP3 \t\t\t\n      PUSH [tag] 112\t\t\t\n      JUMP \t\t\t\n    tag 269\t\t\t\n      JUMPDEST \t\t\t\n      PUSH 20\t\t\t\n      DUP3 \t\t\t\n      ADD \t\t\t\n      SWAP1 \t\t\t\n      POP \t\t\t\n      SWAP2 \t\t\t\n      SWAP1 \t\t\t\n      POP \t\t\t\n      JUMP \t\t\t\n    tag 59\t\t\t\n      JUMPDEST \t\t\t\n      PUSH 0\t\t\t\n      PUSH 20\t\t\t\n      DUP3 \t\t\t\n      ADD \t\t\t\n      SWAP1 \t\t\t\n      POP \t\t\t\n      DUP2 \t\t\t\n      DUP2 \t\t\t\n      SUB \t\t\t\n      PUSH 0\t\t\t\n      DUP4 \t\t\t\n      ADD \t\t\t\n      MSTORE \t\t\t\n      PUSH [tag] 271\t\t\t\n      DUP2 \t\t\t\n      PUSH [tag] 113\t\t\t\n      JUMP \t\t\t\n    tag 271\t\t\t\n      JUMPDEST \t\t\t\n      SWAP1 \t\t\t\n      POP \t\t\t\n      SWAP2 \t\t\t\n      SWAP1 \t\t\t\n      POP \t\t\t\n      JUMP \t\t\t\n    tag 114\t\t\t\n      JUMPDEST \t\t\t\n      PUSH 0\t\t\t\n      DUP2 \t\t\t\n      MLOAD \t\t\t\n      SWAP1 \t\t\t\n      POP \t\t\t\n      SWAP2 \t\t\t\n      SWAP1 \t\t\t\n      POP \t\t\t\n      JUMP \t\t\t\n    tag 115\t\t\t\n      JUMPDEST \t\t\t\n      PUSH 0\t\t\t\n      DUP2 \t\t\t\n      SWAP1 \t\t\t\n      POP \t\t\t\n      SWAP3 \t\t\t\n      SWAP2 \t\t\t\n      POP \t\t\t\n      POP \t\t\t\n      JUMP \t\t\t\n    tag 116\t\t\t\n      JUMPDEST \t\t\t\n      PUSH 0\t\t\t\n      PUSH [tag] 275\t\t\t\n      DUP3 \t\t\t\n      PUSH [tag] 114\t\t\t\n      JUMP \t\t\t\n    tag 275\t\t\t\n      JUMPDEST \t\t\t\n      PUSH [tag] 276\t\t\t\n      DUP2 \t\t\t\n      DUP6 \t\t\t\n      PUSH [tag] 115\t\t\t\n      JUMP \t\t\t\n    tag 276\t\t\t\n      JUMPDEST \t\t\t\n      SWAP4 \t\t\t\n      POP \t\t\t\n      PUSH [tag] 277\t\t\t\n      DUP2 \t\t\t\n      DUP6 \t\t\t\n      PUSH 20\t\t\t\n      DUP7 \t\t\t\n      ADD \t\t\t\n      PUSH [tag] 105\t\t\t\n      JUMP \t\t\t\n    tag 277\t\t\t\n      JUMPDEST \t\t\t\n      DUP1 \t\t\t\n      DUP5 \t\t\t\n      ADD \t\t\t\n      SWAP2 \t\t\t\n      POP \t\t\t\n      POP \t\t\t\n      SWAP3 \t\t\t\n      SWAP2 \t\t\t\n      POP \t\t\t\n      POP \t\t\t\n      JUMP \t\t\t\n    tag 117\t\t\t\n      JUMPDEST \t\t\t\n      PUSH 0\t\t\t\n      DUP2 \t\t\t\n      SWAP1 \t\t\t\n      POP \t\t\t\n      SWAP2 \t\t\t\n      SWAP1 \t\t\t\n      POP \t\t\t\n      JUMP \t\t\t\n    tag 118\t\t\t\n      JUMPDEST \t\t\t\n      PUSH [tag] 280\t\t\t\n      PUSH [tag] 281\t\t\t\n      DUP3 \t\t\t\n      PUSH [tag] 86\t\t\t\n      JUMP \t\t\t\n    tag 281\t\t\t\n      JUMPDEST \t\t\t\n      PUSH [tag] 117\t\t\t\n      JUMP \t\t\t\n    tag 280\t\t\t\n      JUMPDEST \t\t\t\n      DUP3 \t\t\t\n      MSTORE \t\t\t\n      POP \t\t\t\n      POP \t\t\t\n      JUMP \t\t\t\n    tag 62\t\t\t\n      JUMPDEST \t\t\t\n      PUSH 0\t\t\t\n      PUSH [tag] 283\t\t\t\n      DUP3 \t\t\t\n      DUP6 \t\t\t\n      PUSH [tag] 116\t\t\t\n      JUMP \t\t\t\n    tag 283\t\t\t\n      JUMPDEST \t\t\t\n      SWAP2 \t\t\t\n      POP \t\t\t\n      PUSH [tag] 284\t\t\t\n      DUP3 \t\t\t\n      DUP5 \t\t\t\n      PUSH [tag] 118\t\t\t\n      JUMP \t\t\t\n    tag 284\t\t\t\n      JUMPDEST \t\t\t\n      PUSH 20\t\t\t\n      DUP3 \t\t\t\n      ADD \t\t\t\n      SWAP2 \t\t\t\n      POP \t\t\t\n      DUP2 \t\t\t\n      SWAP1 \t\t\t\n      POP \t\t\t\n      SWAP4 \t\t\t\n      SWAP3 \t\t\t\n      POP \t\t\t\n      POP \t\t\t\n      POP \t\t\t\n      JUMP \t\t\t\n    tag 119\t\t\t\n      JUMPDEST \t\t\t\n      PUSH [tag] 286\t\t\t\n      DUP2 \t\t\t\n      PUSH [tag] 99\t\t\t\n      JUMP \t\t\t\n    tag 286\t\t\t\n      JUMPDEST \t\t\t\n      DUP3 \t\t\t\n      MSTORE \t\t\t\n      POP \t\t\t\n      POP \t\t\t\n      JUMP \t\t\t\n    tag 64\t\t\t\n      JUMPDEST \t\t\t\n      PUSH 0\t\t\t\n      PUSH 80\t\t\t\n      DUP3 \t\t\t\n      ADD \t\t\t\n      SWAP1 \t\t\t\n      POP \t\t\t\n      PUSH [tag] 288\t\t\t\n      PUSH 0\t\t\t\n      DUP4 \t\t\t\n      ADD \t\t\t\n      DUP8 \t\t\t\n      PUSH [tag] 87\t\t\t\n      JUMP \t\t\t\n    tag 288\t\t\t\n      JUMPDEST \t\t\t\n      PUSH [tag] 289\t\t\t\n      PUSH 20\t\t\t\n      DUP4 \t\t\t\n      ADD \t\t\t\n      DUP7 \t\t\t\n      PUSH [tag] 119\t\t\t\n      JUMP \t\t\t\n    tag 289\t\t\t\n      JUMPDEST \t\t\t\n      PUSH [tag] 290\t\t\t\n      PUSH 40\t\t\t\n      DUP4 \t\t\t\n      ADD \t\t\t\n      DUP6 \t\t\t\n      PUSH [tag] 87\t\t\t\n      JUMP \t\t\t\n    tag 290\t\t\t\n      JUMPDEST \t\t\t\n      PUSH [tag] 291\t\t\t\n      PUSH 60\t\t\t\n      DUP4 \t\t\t\n      ADD \t\t\t\n      DUP5 \t\t\t\n      PUSH [tag] 87\t\t\t\n      JUMP \t\t\t\n    tag 291\t\t\t\n      JUMPDEST \t\t\t\n      SWAP6 \t\t\t\n      SWAP5 \t\t\t\n      POP \t\t\t\n      POP \t\t\t\n      POP \t\t\t\n      POP \t\t\t\n      POP \t\t\t\n      JUMP \t\t\t\n    .data\n"
}