{
	"compilerInput": "{\"language\":\"Solidity\",\"sources\":{\"loyalty.sol\":{\"content\":\"// SPDX-License-Identifier: GPL-3.0\\r\\npragma solidity >=0.4.20 <0.9.0;\\r\\n\\r\\n/**\\r\\n* the Contract transfer Ethers to Loyal Customers\\r\\n*/\\r\\ncontract cryptoDorea {\\r\\n\\r\\n    address _signer;\\r\\n\\r\\n    /**\\r\\n    * define constructor to get fund on deploy stage\\r\\n    */ \\r\\n    constructor() payable {\\r\\n\\r\\n        _signer = msg.sender;\\r\\n\\r\\n    }\\r\\n\\r\\n    /**\\r\\n    * Transfer Ethers to Loyal Customers\\r\\n    */\\r\\n    // @param address[] recipients _ the receipnts addresses to be payed in hex format\\r\\n    function pay(\\r\\n\\r\\n        address[] memory recipients, \\r\\n        uint256  amount, \\r\\n        uint256 campaignCount, \\r\\n        uint256 shoppingCount,\\r\\n        bytes32 _hashedMessage, \\r\\n        uint8 _v, \\r\\n        bytes32 _r, \\r\\n        bytes32 _s\\r\\n\\r\\n    ) public payable{\\r\\n    \\r\\n        userAuthorized(_hashedMessage, _v, _r, _s);\\r\\n        \\r\\n        require(amount <= address(this).balance, \\\"Insufficient balance\\\");\\r\\n\\r\\n        if(shoppingCount >= campaignCount){    \\r\\n\\r\\n            for (uint256 i = 0; i < recipients.length; i++) {\\r\\n\\r\\n                // Transfer Ether to the receipnt address\\r\\n                bool success = payable(recipients[i]).send(amount);\\r\\n                require(success, \\\"Transfer failed\\\");\\r\\n\\r\\n            }\\r\\n\\r\\n        }else{\\r\\n\\r\\n            revert(\\\"User not Eligible!\\\");\\r\\n\\r\\n        }\\r\\n\\r\\n    }\\r\\n\\r\\n    /**\\r\\n    * check if user is authorized to pay\\r\\n    */\\r\\n    function userAuthorized(bytes32 _hashedMessage, uint8 _v, bytes32 _r, bytes32 _s) public view {\\r\\n        \\r\\n        bytes memory prefix = \\\"\\\\x19Ethereum Signed Message:\\\\n32\\\";\\r\\n\\r\\n        bytes32 prefixedHashMessage = keccak256(abi.encodePacked(prefix, _hashedMessage));\\r\\n        address signer = ecrecover(prefixedHashMessage, _v, _r, _s);\\r\\n\\r\\n        if(signer != _signer){\\r\\n            revert(\\\"User is not Authorized!!!\\\");\\r\\n        }\\r\\n\\r\\n    }\\r\\n\\r\\n}\"}},\"settings\":{\"optimizer\":{\"enabled\":false,\"runs\":200},\"outputSelection\":{\"*\":{\"\":[\"ast\"],\"*\":[\"abi\",\"metadata\",\"devdoc\",\"userdoc\",\"storageLayout\",\"evm.legacyAssembly\",\"evm.bytecode\",\"evm.deployedBytecode\",\"evm.methodIdentifiers\",\"evm.gasEstimates\",\"evm.assembly\"]}},\"remappings\":[]}}",
	"name": "cryptoDorea",
	"bytecode": {
		"linkReferences": {},
		"object": "6080604052335f806101000a81548173ffffffffffffffffffffffffffffffffffffffff021916908373ffffffffffffffffffffffffffffffffffffffff1602179055506109b4806100505f395ff3fe608060405260043610610028575f3560e01c8063360059b21461002c57806338165f7014610048575b5f80fd5b6100466004803603810190610041919061055c565b610070565b005b348015610053575f80fd5b5061006e60048036038101906100699190610629565b6101bb565b005b61007c848484846101bb565b478711156100bf576040517f08c379a00000000000000000000000000000000000000000000000000000000081526004016100b6906106e7565b60405180910390fd5b858510610176575f5b8851811015610170575f8982815181106100e5576100e4610705565b5b602002602001015173ffffffffffffffffffffffffffffffffffffffff166108fc8a90811502906040515f60405180830381858888f19350505050905080610162576040517f08c379a00000000000000000000000000000000000000000000000000000000081526004016101599061077c565b60405180910390fd5b5080806001019150506100c8565b506101b1565b6040517f08c379a00000000000000000000000000000000000000000000000000000000081526004016101a8906107e4565b60405180910390fd5b5050505050505050565b5f6040518060400160405280601c81526020017f19457468657265756d205369676e6564204d6573736167653a0a33320000000081525090505f818660405160200161020892919061088e565b6040516020818303038152906040528051906020012090505f6001828787876040515f815260200160405260405161024394939291906108d3565b6020604051602081039080840390855afa158015610263573d5f803e3d5ffd5b5050506020604051035190505f8054906101000a900473ffffffffffffffffffffffffffffffffffffffff1673ffffffffffffffffffffffffffffffffffffffff168173ffffffffffffffffffffffffffffffffffffffff16146102fc576040517f08c379a00000000000000000000000000000000000000000000000000000000081526004016102f390610960565b60405180910390fd5b50505050505050565b5f604051905090565b5f80fd5b5f80fd5b5f80fd5b5f601f19601f8301169050919050565b7f4e487b71000000000000000000000000000000000000000000000000000000005f52604160045260245ffd5b6103608261031a565b810181811067ffffffffffffffff8211171561037f5761037e61032a565b5b80604052505050565b5f610391610305565b905061039d8282610357565b919050565b5f67ffffffffffffffff8211156103bc576103bb61032a565b5b602082029050602081019050919050565b5f80fd5b5f73ffffffffffffffffffffffffffffffffffffffff82169050919050565b5f6103fa826103d1565b9050919050565b61040a816103f0565b8114610414575f80fd5b50565b5f8135905061042581610401565b92915050565b5f61043d610438846103a2565b610388565b905080838252602082019050602084028301858111156104605761045f6103cd565b5b835b8181101561048957806104758882610417565b845260208401935050602081019050610462565b5050509392505050565b5f82601f8301126104a7576104a6610316565b5b81356104b784826020860161042b565b91505092915050565b5f819050919050565b6104d2816104c0565b81146104dc575f80fd5b50565b5f813590506104ed816104c9565b92915050565b5f819050919050565b610505816104f3565b811461050f575f80fd5b50565b5f81359050610520816104fc565b92915050565b5f60ff82169050919050565b61053b81610526565b8114610545575f80fd5b50565b5f8135905061055681610532565b92915050565b5f805f805f805f80610100898b0312156105795761057861030e565b5b5f89013567ffffffffffffffff81111561059657610595610312565b5b6105a28b828c01610493565b98505060206105b38b828c016104df565b97505060406105c48b828c016104df565b96505060606105d58b828c016104df565b95505060806105e68b828c01610512565b94505060a06105f78b828c01610548565b93505060c06106088b828c01610512565b92505060e06106198b828c01610512565b9150509295985092959890939650565b5f805f80608085870312156106415761064061030e565b5b5f61064e87828801610512565b945050602061065f87828801610548565b935050604061067087828801610512565b925050606061068187828801610512565b91505092959194509250565b5f82825260208201905092915050565b7f496e73756666696369656e742062616c616e63650000000000000000000000005f82015250565b5f6106d160148361068d565b91506106dc8261069d565b602082019050919050565b5f6020820190508181035f8301526106fe816106c5565b9050919050565b7f4e487b71000000000000000000000000000000000000000000000000000000005f52603260045260245ffd5b7f5472616e73666572206661696c656400000000000000000000000000000000005f82015250565b5f610766600f8361068d565b915061077182610732565b602082019050919050565b5f6020820190508181035f8301526107938161075a565b9050919050565b7f55736572206e6f7420456c696769626c652100000000000000000000000000005f82015250565b5f6107ce60128361068d565b91506107d98261079a565b602082019050919050565b5f6020820190508181035f8301526107fb816107c2565b9050919050565b5f81519050919050565b5f81905092915050565b5f5b83811015610833578082015181840152602081019050610818565b5f8484015250505050565b5f61084882610802565b610852818561080c565b9350610862818560208601610816565b80840191505092915050565b5f819050919050565b610888610883826104f3565b61086e565b82525050565b5f610899828561083e565b91506108a58284610877565b6020820191508190509392505050565b6108be816104f3565b82525050565b6108cd81610526565b82525050565b5f6080820190506108e65f8301876108b5565b6108f360208301866108c4565b61090060408301856108b5565b61090d60608301846108b5565b95945050505050565b7f55736572206973206e6f7420417574686f72697a6564212121000000000000005f82015250565b5f61094a60198361068d565b915061095582610916565b602082019050919050565b5f6020820190508181035f8301526109778161093e565b905091905056fea264697066735822122095dd494ce363b9e552ea7035dfaa185e0346be61b915c0277ba13d88037e2afa64736f6c63430008160033",
		"opcodes": "PUSH1 0x80 PUSH1 0x40 MSTORE CALLER PUSH0 DUP1 PUSH2 0x100 EXP DUP2 SLOAD DUP2 PUSH20 0xFFFFFFFFFFFFFFFFFFFFFFFFFFFFFFFFFFFFFFFF MUL NOT AND SWAP1 DUP4 PUSH20 0xFFFFFFFFFFFFFFFFFFFFFFFFFFFFFFFFFFFFFFFF AND MUL OR SWAP1 SSTORE POP PUSH2 0x9B4 DUP1 PUSH2 0x50 PUSH0 CODECOPY PUSH0 RETURN INVALID PUSH1 0x80 PUSH1 0x40 MSTORE PUSH1 0x4 CALLDATASIZE LT PUSH2 0x28 JUMPI PUSH0 CALLDATALOAD PUSH1 0xE0 SHR DUP1 PUSH4 0x360059B2 EQ PUSH2 0x2C JUMPI DUP1 PUSH4 0x38165F70 EQ PUSH2 0x48 JUMPI JUMPDEST PUSH0 DUP1 REVERT JUMPDEST PUSH2 0x46 PUSH1 0x4 DUP1 CALLDATASIZE SUB DUP2 ADD SWAP1 PUSH2 0x41 SWAP2 SWAP1 PUSH2 0x55C JUMP JUMPDEST PUSH2 0x70 JUMP JUMPDEST STOP JUMPDEST CALLVALUE DUP1 ISZERO PUSH2 0x53 JUMPI PUSH0 DUP1 REVERT JUMPDEST POP PUSH2 0x6E PUSH1 0x4 DUP1 CALLDATASIZE SUB DUP2 ADD SWAP1 PUSH2 0x69 SWAP2 SWAP1 PUSH2 0x629 JUMP JUMPDEST PUSH2 0x1BB JUMP JUMPDEST STOP JUMPDEST PUSH2 0x7C DUP5 DUP5 DUP5 DUP5 PUSH2 0x1BB JUMP JUMPDEST SELFBALANCE DUP8 GT ISZERO PUSH2 0xBF JUMPI PUSH1 0x40 MLOAD PUSH32 0x8C379A000000000000000000000000000000000000000000000000000000000 DUP2 MSTORE PUSH1 0x4 ADD PUSH2 0xB6 SWAP1 PUSH2 0x6E7 JUMP JUMPDEST PUSH1 0x40 MLOAD DUP1 SWAP2 SUB SWAP1 REVERT JUMPDEST DUP6 DUP6 LT PUSH2 0x176 JUMPI PUSH0 JUMPDEST DUP9 MLOAD DUP2 LT ISZERO PUSH2 0x170 JUMPI PUSH0 DUP10 DUP3 DUP2 MLOAD DUP2 LT PUSH2 0xE5 JUMPI PUSH2 0xE4 PUSH2 0x705 JUMP JUMPDEST JUMPDEST PUSH1 0x20 MUL PUSH1 0x20 ADD ADD MLOAD PUSH20 0xFFFFFFFFFFFFFFFFFFFFFFFFFFFFFFFFFFFFFFFF AND PUSH2 0x8FC DUP11 SWAP1 DUP2 ISZERO MUL SWAP1 PUSH1 0x40 MLOAD PUSH0 PUSH1 0x40 MLOAD DUP1 DUP4 SUB DUP2 DUP6 DUP9 DUP9 CALL SWAP4 POP POP POP POP SWAP1 POP DUP1 PUSH2 0x162 JUMPI PUSH1 0x40 MLOAD PUSH32 0x8C379A000000000000000000000000000000000000000000000000000000000 DUP2 MSTORE PUSH1 0x4 ADD PUSH2 0x159 SWAP1 PUSH2 0x77C JUMP JUMPDEST PUSH1 0x40 MLOAD DUP1 SWAP2 SUB SWAP1 REVERT JUMPDEST POP DUP1 DUP1 PUSH1 0x1 ADD SWAP2 POP POP PUSH2 0xC8 JUMP JUMPDEST POP PUSH2 0x1B1 JUMP JUMPDEST PUSH1 0x40 MLOAD PUSH32 0x8C379A000000000000000000000000000000000000000000000000000000000 DUP2 MSTORE PUSH1 0x4 ADD PUSH2 0x1A8 SWAP1 PUSH2 0x7E4 JUMP JUMPDEST PUSH1 0x40 MLOAD DUP1 SWAP2 SUB SWAP1 REVERT JUMPDEST POP POP POP POP POP POP POP POP JUMP JUMPDEST PUSH0 PUSH1 0x40 MLOAD DUP1 PUSH1 0x40 ADD PUSH1 0x40 MSTORE DUP1 PUSH1 0x1C DUP2 MSTORE PUSH1 0x20 ADD PUSH32 0x19457468657265756D205369676E6564204D6573736167653A0A333200000000 DUP2 MSTORE POP SWAP1 POP PUSH0 DUP2 DUP7 PUSH1 0x40 MLOAD PUSH1 0x20 ADD PUSH2 0x208 SWAP3 SWAP2 SWAP1 PUSH2 0x88E JUMP JUMPDEST PUSH1 0x40 MLOAD PUSH1 0x20 DUP2 DUP4 SUB SUB DUP2 MSTORE SWAP1 PUSH1 0x40 MSTORE DUP1 MLOAD SWAP1 PUSH1 0x20 ADD KECCAK256 SWAP1 POP PUSH0 PUSH1 0x1 DUP3 DUP8 DUP8 DUP8 PUSH1 0x40 MLOAD PUSH0 DUP2 MSTORE PUSH1 0x20 ADD PUSH1 0x40 MSTORE PUSH1 0x40 MLOAD PUSH2 0x243 SWAP5 SWAP4 SWAP3 SWAP2 SWAP1 PUSH2 0x8D3 JUMP JUMPDEST PUSH1 0x20 PUSH1 0x40 MLOAD PUSH1 0x20 DUP2 SUB SWAP1 DUP1 DUP5 SUB SWAP1 DUP6 GAS STATICCALL ISZERO DUP1 ISZERO PUSH2 0x263 JUMPI RETURNDATASIZE PUSH0 DUP1 RETURNDATACOPY RETURNDATASIZE PUSH0 REVERT JUMPDEST POP POP POP PUSH1 0x20 PUSH1 0x40 MLOAD SUB MLOAD SWAP1 POP PUSH0 DUP1 SLOAD SWAP1 PUSH2 0x100 EXP SWAP1 DIV PUSH20 0xFFFFFFFFFFFFFFFFFFFFFFFFFFFFFFFFFFFFFFFF AND PUSH20 0xFFFFFFFFFFFFFFFFFFFFFFFFFFFFFFFFFFFFFFFF AND DUP2 PUSH20 0xFFFFFFFFFFFFFFFFFFFFFFFFFFFFFFFFFFFFFFFF AND EQ PUSH2 0x2FC JUMPI PUSH1 0x40 MLOAD PUSH32 0x8C379A000000000000000000000000000000000000000000000000000000000 DUP2 MSTORE PUSH1 0x4 ADD PUSH2 0x2F3 SWAP1 PUSH2 0x960 JUMP JUMPDEST PUSH1 0x40 MLOAD DUP1 SWAP2 SUB SWAP1 REVERT JUMPDEST POP POP POP POP POP POP POP JUMP JUMPDEST PUSH0 PUSH1 0x40 MLOAD SWAP1 POP SWAP1 JUMP JUMPDEST PUSH0 DUP1 REVERT JUMPDEST PUSH0 DUP1 REVERT JUMPDEST PUSH0 DUP1 REVERT JUMPDEST PUSH0 PUSH1 0x1F NOT PUSH1 0x1F DUP4 ADD AND SWAP1 POP SWAP2 SWAP1 POP JUMP JUMPDEST PUSH32 0x4E487B7100000000000000000000000000000000000000000000000000000000 PUSH0 MSTORE PUSH1 0x41 PUSH1 0x4 MSTORE PUSH1 0x24 PUSH0 REVERT JUMPDEST PUSH2 0x360 DUP3 PUSH2 0x31A JUMP JUMPDEST DUP2 ADD DUP2 DUP2 LT PUSH8 0xFFFFFFFFFFFFFFFF DUP3 GT OR ISZERO PUSH2 0x37F JUMPI PUSH2 0x37E PUSH2 0x32A JUMP JUMPDEST JUMPDEST DUP1 PUSH1 0x40 MSTORE POP POP POP JUMP JUMPDEST PUSH0 PUSH2 0x391 PUSH2 0x305 JUMP JUMPDEST SWAP1 POP PUSH2 0x39D DUP3 DUP3 PUSH2 0x357 JUMP JUMPDEST SWAP2 SWAP1 POP JUMP JUMPDEST PUSH0 PUSH8 0xFFFFFFFFFFFFFFFF DUP3 GT ISZERO PUSH2 0x3BC JUMPI PUSH2 0x3BB PUSH2 0x32A JUMP JUMPDEST JUMPDEST PUSH1 0x20 DUP3 MUL SWAP1 POP PUSH1 0x20 DUP2 ADD SWAP1 POP SWAP2 SWAP1 POP JUMP JUMPDEST PUSH0 DUP1 REVERT JUMPDEST PUSH0 PUSH20 0xFFFFFFFFFFFFFFFFFFFFFFFFFFFFFFFFFFFFFFFF DUP3 AND SWAP1 POP SWAP2 SWAP1 POP JUMP JUMPDEST PUSH0 PUSH2 0x3FA DUP3 PUSH2 0x3D1 JUMP JUMPDEST SWAP1 POP SWAP2 SWAP1 POP JUMP JUMPDEST PUSH2 0x40A DUP2 PUSH2 0x3F0 JUMP JUMPDEST DUP2 EQ PUSH2 0x414 JUMPI PUSH0 DUP1 REVERT JUMPDEST POP JUMP JUMPDEST PUSH0 DUP2 CALLDATALOAD SWAP1 POP PUSH2 0x425 DUP2 PUSH2 0x401 JUMP JUMPDEST SWAP3 SWAP2 POP POP JUMP JUMPDEST PUSH0 PUSH2 0x43D PUSH2 0x438 DUP5 PUSH2 0x3A2 JUMP JUMPDEST PUSH2 0x388 JUMP JUMPDEST SWAP1 POP DUP1 DUP4 DUP3 MSTORE PUSH1 0x20 DUP3 ADD SWAP1 POP PUSH1 0x20 DUP5 MUL DUP4 ADD DUP6 DUP2 GT ISZERO PUSH2 0x460 JUMPI PUSH2 0x45F PUSH2 0x3CD JUMP JUMPDEST JUMPDEST DUP4 JUMPDEST DUP2 DUP2 LT ISZERO PUSH2 0x489 JUMPI DUP1 PUSH2 0x475 DUP9 DUP3 PUSH2 0x417 JUMP JUMPDEST DUP5 MSTORE PUSH1 0x20 DUP5 ADD SWAP4 POP POP PUSH1 0x20 DUP2 ADD SWAP1 POP PUSH2 0x462 JUMP JUMPDEST POP POP POP SWAP4 SWAP3 POP POP POP JUMP JUMPDEST PUSH0 DUP3 PUSH1 0x1F DUP4 ADD SLT PUSH2 0x4A7 JUMPI PUSH2 0x4A6 PUSH2 0x316 JUMP JUMPDEST JUMPDEST DUP2 CALLDATALOAD PUSH2 0x4B7 DUP5 DUP3 PUSH1 0x20 DUP7 ADD PUSH2 0x42B JUMP JUMPDEST SWAP2 POP POP SWAP3 SWAP2 POP POP JUMP JUMPDEST PUSH0 DUP2 SWAP1 POP SWAP2 SWAP1 POP JUMP JUMPDEST PUSH2 0x4D2 DUP2 PUSH2 0x4C0 JUMP JUMPDEST DUP2 EQ PUSH2 0x4DC JUMPI PUSH0 DUP1 REVERT JUMPDEST POP JUMP JUMPDEST PUSH0 DUP2 CALLDATALOAD SWAP1 POP PUSH2 0x4ED DUP2 PUSH2 0x4C9 JUMP JUMPDEST SWAP3 SWAP2 POP POP JUMP JUMPDEST PUSH0 DUP2 SWAP1 POP SWAP2 SWAP1 POP JUMP JUMPDEST PUSH2 0x505 DUP2 PUSH2 0x4F3 JUMP JUMPDEST DUP2 EQ PUSH2 0x50F JUMPI PUSH0 DUP1 REVERT JUMPDEST POP JUMP JUMPDEST PUSH0 DUP2 CALLDATALOAD SWAP1 POP PUSH2 0x520 DUP2 PUSH2 0x4FC JUMP JUMPDEST SWAP3 SWAP2 POP POP JUMP JUMPDEST PUSH0 PUSH1 0xFF DUP3 AND SWAP1 POP SWAP2 SWAP1 POP JUMP JUMPDEST PUSH2 0x53B DUP2 PUSH2 0x526 JUMP JUMPDEST DUP2 EQ PUSH2 0x545 JUMPI PUSH0 DUP1 REVERT JUMPDEST POP JUMP JUMPDEST PUSH0 DUP2 CALLDATALOAD SWAP1 POP PUSH2 0x556 DUP2 PUSH2 0x532 JUMP JUMPDEST SWAP3 SWAP2 POP POP JUMP JUMPDEST PUSH0 DUP1 PUSH0 DUP1 PUSH0 DUP1 PUSH0 DUP1 PUSH2 0x100 DUP10 DUP12 SUB SLT ISZERO PUSH2 0x579 JUMPI PUSH2 0x578 PUSH2 0x30E JUMP JUMPDEST JUMPDEST PUSH0 DUP10 ADD CALLDATALOAD PUSH8 0xFFFFFFFFFFFFFFFF DUP2 GT ISZERO PUSH2 0x596 JUMPI PUSH2 0x595 PUSH2 0x312 JUMP JUMPDEST JUMPDEST PUSH2 0x5A2 DUP12 DUP3 DUP13 ADD PUSH2 0x493 JUMP JUMPDEST SWAP9 POP POP PUSH1 0x20 PUSH2 0x5B3 DUP12 DUP3 DUP13 ADD PUSH2 0x4DF JUMP JUMPDEST SWAP8 POP POP PUSH1 0x40 PUSH2 0x5C4 DUP12 DUP3 DUP13 ADD PUSH2 0x4DF JUMP JUMPDEST SWAP7 POP POP PUSH1 0x60 PUSH2 0x5D5 DUP12 DUP3 DUP13 ADD PUSH2 0x4DF JUMP JUMPDEST SWAP6 POP POP PUSH1 0x80 PUSH2 0x5E6 DUP12 DUP3 DUP13 ADD PUSH2 0x512 JUMP JUMPDEST SWAP5 POP POP PUSH1 0xA0 PUSH2 0x5F7 DUP12 DUP3 DUP13 ADD PUSH2 0x548 JUMP JUMPDEST SWAP4 POP POP PUSH1 0xC0 PUSH2 0x608 DUP12 DUP3 DUP13 ADD PUSH2 0x512 JUMP JUMPDEST SWAP3 POP POP PUSH1 0xE0 PUSH2 0x619 DUP12 DUP3 DUP13 ADD PUSH2 0x512 JUMP JUMPDEST SWAP2 POP POP SWAP3 SWAP6 SWAP9 POP SWAP3 SWAP6 SWAP9 SWAP1 SWAP4 SWAP7 POP JUMP JUMPDEST PUSH0 DUP1 PUSH0 DUP1 PUSH1 0x80 DUP6 DUP8 SUB SLT ISZERO PUSH2 0x641 JUMPI PUSH2 0x640 PUSH2 0x30E JUMP JUMPDEST JUMPDEST PUSH0 PUSH2 0x64E DUP8 DUP3 DUP9 ADD PUSH2 0x512 JUMP JUMPDEST SWAP5 POP POP PUSH1 0x20 PUSH2 0x65F DUP8 DUP3 DUP9 ADD PUSH2 0x548 JUMP JUMPDEST SWAP4 POP POP PUSH1 0x40 PUSH2 0x670 DUP8 DUP3 DUP9 ADD PUSH2 0x512 JUMP JUMPDEST SWAP3 POP POP PUSH1 0x60 PUSH2 0x681 DUP8 DUP3 DUP9 ADD PUSH2 0x512 JUMP JUMPDEST SWAP2 POP POP SWAP3 SWAP6 SWAP2 SWAP5 POP SWAP3 POP JUMP JUMPDEST PUSH0 DUP3 DUP3 MSTORE PUSH1 0x20 DUP3 ADD SWAP1 POP SWAP3 SWAP2 POP POP JUMP JUMPDEST PUSH32 0x496E73756666696369656E742062616C616E6365000000000000000000000000 PUSH0 DUP3 ADD MSTORE POP JUMP JUMPDEST PUSH0 PUSH2 0x6D1 PUSH1 0x14 DUP4 PUSH2 0x68D JUMP JUMPDEST SWAP2 POP PUSH2 0x6DC DUP3 PUSH2 0x69D JUMP JUMPDEST PUSH1 0x20 DUP3 ADD SWAP1 POP SWAP2 SWAP1 POP JUMP JUMPDEST PUSH0 PUSH1 0x20 DUP3 ADD SWAP1 POP DUP2 DUP2 SUB PUSH0 DUP4 ADD MSTORE PUSH2 0x6FE DUP2 PUSH2 0x6C5 JUMP JUMPDEST SWAP1 POP SWAP2 SWAP1 POP JUMP JUMPDEST PUSH32 0x4E487B7100000000000000000000000000000000000000000000000000000000 PUSH0 MSTORE PUSH1 0x32 PUSH1 0x4 MSTORE PUSH1 0x24 PUSH0 REVERT JUMPDEST PUSH32 0x5472616E73666572206661696C65640000000000000000000000000000000000 PUSH0 DUP3 ADD MSTORE POP JUMP JUMPDEST PUSH0 PUSH2 0x766 PUSH1 0xF DUP4 PUSH2 0x68D JUMP JUMPDEST SWAP2 POP PUSH2 0x771 DUP3 PUSH2 0x732 JUMP JUMPDEST PUSH1 0x20 DUP3 ADD SWAP1 POP SWAP2 SWAP1 POP JUMP JUMPDEST PUSH0 PUSH1 0x20 DUP3 ADD SWAP1 POP DUP2 DUP2 SUB PUSH0 DUP4 ADD MSTORE PUSH2 0x793 DUP2 PUSH2 0x75A JUMP JUMPDEST SWAP1 POP SWAP2 SWAP1 POP JUMP JUMPDEST PUSH32 0x55736572206E6F7420456C696769626C65210000000000000000000000000000 PUSH0 DUP3 ADD MSTORE POP JUMP JUMPDEST PUSH0 PUSH2 0x7CE PUSH1 0x12 DUP4 PUSH2 0x68D JUMP JUMPDEST SWAP2 POP PUSH2 0x7D9 DUP3 PUSH2 0x79A JUMP JUMPDEST PUSH1 0x20 DUP3 ADD SWAP1 POP SWAP2 SWAP1 POP JUMP JUMPDEST PUSH0 PUSH1 0x20 DUP3 ADD SWAP1 POP DUP2 DUP2 SUB PUSH0 DUP4 ADD MSTORE PUSH2 0x7FB DUP2 PUSH2 0x7C2 JUMP JUMPDEST SWAP1 POP SWAP2 SWAP1 POP JUMP JUMPDEST PUSH0 DUP2 MLOAD SWAP1 POP SWAP2 SWAP1 POP JUMP JUMPDEST PUSH0 DUP2 SWAP1 POP SWAP3 SWAP2 POP POP JUMP JUMPDEST PUSH0 JUMPDEST DUP4 DUP2 LT ISZERO PUSH2 0x833 JUMPI DUP1 DUP3 ADD MLOAD DUP2 DUP5 ADD MSTORE PUSH1 0x20 DUP2 ADD SWAP1 POP PUSH2 0x818 JUMP JUMPDEST PUSH0 DUP5 DUP5 ADD MSTORE POP POP POP POP JUMP JUMPDEST PUSH0 PUSH2 0x848 DUP3 PUSH2 0x802 JUMP JUMPDEST PUSH2 0x852 DUP2 DUP6 PUSH2 0x80C JUMP JUMPDEST SWAP4 POP PUSH2 0x862 DUP2 DUP6 PUSH1 0x20 DUP7 ADD PUSH2 0x816 JUMP JUMPDEST DUP1 DUP5 ADD SWAP2 POP POP SWAP3 SWAP2 POP POP JUMP JUMPDEST PUSH0 DUP2 SWAP1 POP SWAP2 SWAP1 POP JUMP JUMPDEST PUSH2 0x888 PUSH2 0x883 DUP3 PUSH2 0x4F3 JUMP JUMPDEST PUSH2 0x86E JUMP JUMPDEST DUP3 MSTORE POP POP JUMP JUMPDEST PUSH0 PUSH2 0x899 DUP3 DUP6 PUSH2 0x83E JUMP JUMPDEST SWAP2 POP PUSH2 0x8A5 DUP3 DUP5 PUSH2 0x877 JUMP JUMPDEST PUSH1 0x20 DUP3 ADD SWAP2 POP DUP2 SWAP1 POP SWAP4 SWAP3 POP POP POP JUMP JUMPDEST PUSH2 0x8BE DUP2 PUSH2 0x4F3 JUMP JUMPDEST DUP3 MSTORE POP POP JUMP JUMPDEST PUSH2 0x8CD DUP2 PUSH2 0x526 JUMP JUMPDEST DUP3 MSTORE POP POP JUMP JUMPDEST PUSH0 PUSH1 0x80 DUP3 ADD SWAP1 POP PUSH2 0x8E6 PUSH0 DUP4 ADD DUP8 PUSH2 0x8B5 JUMP JUMPDEST PUSH2 0x8F3 PUSH1 0x20 DUP4 ADD DUP7 PUSH2 0x8C4 JUMP JUMPDEST PUSH2 0x900 PUSH1 0x40 DUP4 ADD DUP6 PUSH2 0x8B5 JUMP JUMPDEST PUSH2 0x90D PUSH1 0x60 DUP4 ADD DUP5 PUSH2 0x8B5 JUMP JUMPDEST SWAP6 SWAP5 POP POP POP POP POP JUMP JUMPDEST PUSH32 0x55736572206973206E6F7420417574686F72697A656421212100000000000000 PUSH0 DUP3 ADD MSTORE POP JUMP JUMPDEST PUSH0 PUSH2 0x94A PUSH1 0x19 DUP4 PUSH2 0x68D JUMP JUMPDEST SWAP2 POP PUSH2 0x955 DUP3 PUSH2 0x916 JUMP JUMPDEST PUSH1 0x20 DUP3 ADD SWAP1 POP SWAP2 SWAP1 POP JUMP JUMPDEST PUSH0 PUSH1 0x20 DUP3 ADD SWAP1 POP DUP2 DUP2 SUB PUSH0 DUP4 ADD MSTORE PUSH2 0x977 DUP2 PUSH2 0x93E JUMP JUMPDEST SWAP1 POP SWAP2 SWAP1 POP JUMP INVALID LOG2 PUSH5 0x6970667358 0x22 SLT KECCAK256 SWAP6 0xDD 0x49 0x4C 0xE3 PUSH4 0xB9E552EA PUSH17 0x35DFAA185E0346BE61B915C0277BA13D88 SUB PUSH31 0x2AFA64736F6C63430008160033000000000000000000000000000000000000 "
	},
	"abi": [
		{
			"inputs": [],
			"stateMutability": "payable",
			"type": "constructor"
		},
		{
			"inputs": [
				{
					"internalType": "address[]",
					"name": "recipients",
					"type": "address[]"
				},
				{
					"internalType": "uint256",
					"name": "amount",
					"type": "uint256"
				},
				{
					"internalType": "uint256",
					"name": "campaignCount",
					"type": "uint256"
				},
				{
					"internalType": "uint256",
					"name": "shoppingCount",
					"type": "uint256"
				},
				{
					"internalType": "bytes32",
					"name": "_hashedMessage",
					"type": "bytes32"
				},
				{
					"internalType": "uint8",
					"name": "_v",
					"type": "uint8"
				},
				{
					"internalType": "bytes32",
					"name": "_r",
					"type": "bytes32"
				},
				{
					"internalType": "bytes32",
					"name": "_s",
					"type": "bytes32"
				}
			],
			"name": "pay",
			"outputs": [],
			"stateMutability": "payable",
			"type": "function"
		},
		{
			"inputs": [
				{
					"internalType": "bytes32",
					"name": "_hashedMessage",
					"type": "bytes32"
				},
				{
					"internalType": "uint8",
					"name": "_v",
					"type": "uint8"
				},
				{
					"internalType": "bytes32",
					"name": "_r",
					"type": "bytes32"
				},
				{
					"internalType": "bytes32",
					"name": "_s",
					"type": "bytes32"
				}
			],
			"name": "userAuthorized",
			"outputs": [],
			"stateMutability": "view",
			"type": "function"
		}
	],
	"storageLayout": {
		"storage": [
			{
				"astId": 4,
				"contract": "loyalty.sol:cryptoDorea",
				"label": "_signer",
				"offset": 0,
				"slot": "0",
				"type": "t_address"
			}
		],
		"types": {
			"t_address": {
				"encoding": "inplace",
				"label": "address",
				"numberOfBytes": "20"
			}
		}
	},
	"web3Deploy": "var cryptodoreaContract = new web3.eth.Contract([{\"inputs\":[],\"stateMutability\":\"payable\",\"type\":\"constructor\"},{\"inputs\":[{\"internalType\":\"address[]\",\"name\":\"recipients\",\"type\":\"address[]\"},{\"internalType\":\"uint256\",\"name\":\"amount\",\"type\":\"uint256\"},{\"internalType\":\"uint256\",\"name\":\"campaignCount\",\"type\":\"uint256\"},{\"internalType\":\"uint256\",\"name\":\"shoppingCount\",\"type\":\"uint256\"},{\"internalType\":\"bytes32\",\"name\":\"_hashedMessage\",\"type\":\"bytes32\"},{\"internalType\":\"uint8\",\"name\":\"_v\",\"type\":\"uint8\"},{\"internalType\":\"bytes32\",\"name\":\"_r\",\"type\":\"bytes32\"},{\"internalType\":\"bytes32\",\"name\":\"_s\",\"type\":\"bytes32\"}],\"name\":\"pay\",\"outputs\":[],\"stateMutability\":\"payable\",\"type\":\"function\"},{\"inputs\":[{\"internalType\":\"bytes32\",\"name\":\"_hashedMessage\",\"type\":\"bytes32\"},{\"internalType\":\"uint8\",\"name\":\"_v\",\"type\":\"uint8\"},{\"internalType\":\"bytes32\",\"name\":\"_r\",\"type\":\"bytes32\"},{\"internalType\":\"bytes32\",\"name\":\"_s\",\"type\":\"bytes32\"}],\"name\":\"userAuthorized\",\"outputs\":[],\"stateMutability\":\"view\",\"type\":\"function\"}]);\nvar cryptodorea = cryptodoreaContract.deploy({\n     data: '0x6080604052335f806101000a81548173ffffffffffffffffffffffffffffffffffffffff021916908373ffffffffffffffffffffffffffffffffffffffff1602179055506109b4806100505f395ff3fe608060405260043610610028575f3560e01c8063360059b21461002c57806338165f7014610048575b5f80fd5b6100466004803603810190610041919061055c565b610070565b005b348015610053575f80fd5b5061006e60048036038101906100699190610629565b6101bb565b005b61007c848484846101bb565b478711156100bf576040517f08c379a00000000000000000000000000000000000000000000000000000000081526004016100b6906106e7565b60405180910390fd5b858510610176575f5b8851811015610170575f8982815181106100e5576100e4610705565b5b602002602001015173ffffffffffffffffffffffffffffffffffffffff166108fc8a90811502906040515f60405180830381858888f19350505050905080610162576040517f08c379a00000000000000000000000000000000000000000000000000000000081526004016101599061077c565b60405180910390fd5b5080806001019150506100c8565b506101b1565b6040517f08c379a00000000000000000000000000000000000000000000000000000000081526004016101a8906107e4565b60405180910390fd5b5050505050505050565b5f6040518060400160405280601c81526020017f19457468657265756d205369676e6564204d6573736167653a0a33320000000081525090505f818660405160200161020892919061088e565b6040516020818303038152906040528051906020012090505f6001828787876040515f815260200160405260405161024394939291906108d3565b6020604051602081039080840390855afa158015610263573d5f803e3d5ffd5b5050506020604051035190505f8054906101000a900473ffffffffffffffffffffffffffffffffffffffff1673ffffffffffffffffffffffffffffffffffffffff168173ffffffffffffffffffffffffffffffffffffffff16146102fc576040517f08c379a00000000000000000000000000000000000000000000000000000000081526004016102f390610960565b60405180910390fd5b50505050505050565b5f604051905090565b5f80fd5b5f80fd5b5f80fd5b5f601f19601f8301169050919050565b7f4e487b71000000000000000000000000000000000000000000000000000000005f52604160045260245ffd5b6103608261031a565b810181811067ffffffffffffffff8211171561037f5761037e61032a565b5b80604052505050565b5f610391610305565b905061039d8282610357565b919050565b5f67ffffffffffffffff8211156103bc576103bb61032a565b5b602082029050602081019050919050565b5f80fd5b5f73ffffffffffffffffffffffffffffffffffffffff82169050919050565b5f6103fa826103d1565b9050919050565b61040a816103f0565b8114610414575f80fd5b50565b5f8135905061042581610401565b92915050565b5f61043d610438846103a2565b610388565b905080838252602082019050602084028301858111156104605761045f6103cd565b5b835b8181101561048957806104758882610417565b845260208401935050602081019050610462565b5050509392505050565b5f82601f8301126104a7576104a6610316565b5b81356104b784826020860161042b565b91505092915050565b5f819050919050565b6104d2816104c0565b81146104dc575f80fd5b50565b5f813590506104ed816104c9565b92915050565b5f819050919050565b610505816104f3565b811461050f575f80fd5b50565b5f81359050610520816104fc565b92915050565b5f60ff82169050919050565b61053b81610526565b8114610545575f80fd5b50565b5f8135905061055681610532565b92915050565b5f805f805f805f80610100898b0312156105795761057861030e565b5b5f89013567ffffffffffffffff81111561059657610595610312565b5b6105a28b828c01610493565b98505060206105b38b828c016104df565b97505060406105c48b828c016104df565b96505060606105d58b828c016104df565b95505060806105e68b828c01610512565b94505060a06105f78b828c01610548565b93505060c06106088b828c01610512565b92505060e06106198b828c01610512565b9150509295985092959890939650565b5f805f80608085870312156106415761064061030e565b5b5f61064e87828801610512565b945050602061065f87828801610548565b935050604061067087828801610512565b925050606061068187828801610512565b91505092959194509250565b5f82825260208201905092915050565b7f496e73756666696369656e742062616c616e63650000000000000000000000005f82015250565b5f6106d160148361068d565b91506106dc8261069d565b602082019050919050565b5f6020820190508181035f8301526106fe816106c5565b9050919050565b7f4e487b71000000000000000000000000000000000000000000000000000000005f52603260045260245ffd5b7f5472616e73666572206661696c656400000000000000000000000000000000005f82015250565b5f610766600f8361068d565b915061077182610732565b602082019050919050565b5f6020820190508181035f8301526107938161075a565b9050919050565b7f55736572206e6f7420456c696769626c652100000000000000000000000000005f82015250565b5f6107ce60128361068d565b91506107d98261079a565b602082019050919050565b5f6020820190508181035f8301526107fb816107c2565b9050919050565b5f81519050919050565b5f81905092915050565b5f5b83811015610833578082015181840152602081019050610818565b5f8484015250505050565b5f61084882610802565b610852818561080c565b9350610862818560208601610816565b80840191505092915050565b5f819050919050565b610888610883826104f3565b61086e565b82525050565b5f610899828561083e565b91506108a58284610877565b6020820191508190509392505050565b6108be816104f3565b82525050565b6108cd81610526565b82525050565b5f6080820190506108e65f8301876108b5565b6108f360208301866108c4565b61090060408301856108b5565b61090d60608301846108b5565b95945050505050565b7f55736572206973206e6f7420417574686f72697a6564212121000000000000005f82015250565b5f61094a60198361068d565b915061095582610916565b602082019050919050565b5f6020820190508181035f8301526109778161093e565b905091905056fea264697066735822122095dd494ce363b9e552ea7035dfaa185e0346be61b915c0277ba13d88037e2afa64736f6c63430008160033', \n     arguments: [\n     ]\n}).send({\n     from: web3.eth.accounts[0], \n     gas: '4700000'\n   }, function (e, contract){\n    console.log(e, contract);\n    if (typeof contract.address !== 'undefined') {\n         console.log('Contract mined! address: ' + contract.address + ' transactionHash: ' + contract.transactionHash);\n    }\n })",
	"functionHashes": {
		"360059b2": "pay(address[],uint256,uint256,uint256,bytes32,uint8,bytes32,bytes32)",
		"38165f70": "userAuthorized(bytes32,uint8,bytes32,bytes32)"
	},
	"gasEstimates": {
		"Creation": {
			"codeDepositCost": "496800",
			"executionCost": "24769",
			"totalCost": "521569"
		},
		"External": {
			"pay(address[],uint256,uint256,uint256,bytes32,uint8,bytes32,bytes32)": "infinite",
			"userAuthorized(bytes32,uint8,bytes32,bytes32)": "infinite"
		}
	},
	"devdoc": {
		"kind": "dev",
		"methods": {},
		"version": 1
	},
	"userdoc": {
		"kind": "user",
		"methods": {
			"constructor": {
				"notice": "define constructor to get fund on deploy stage"
			},
			"pay(address[],uint256,uint256,uint256,bytes32,uint8,bytes32,bytes32)": {
				"notice": "Transfer Ethers to Loyal Customers"
			},
			"userAuthorized(bytes32,uint8,bytes32,bytes32)": {
				"notice": "check if user is authorized to pay"
			}
		},
		"notice": "the Contract transfer Ethers to Loyal Customers",
		"version": 1
	},
	"Runtime Bytecode": {
		"immutableReferences": {},
		"linkReferences": {},
		"object": "608060405260043610610028575f3560e01c8063360059b21461002c57806338165f7014610048575b5f80fd5b6100466004803603810190610041919061055c565b610070565b005b348015610053575f80fd5b5061006e60048036038101906100699190610629565b6101bb565b005b61007c848484846101bb565b478711156100bf576040517f08c379a00000000000000000000000000000000000000000000000000000000081526004016100b6906106e7565b60405180910390fd5b858510610176575f5b8851811015610170575f8982815181106100e5576100e4610705565b5b602002602001015173ffffffffffffffffffffffffffffffffffffffff166108fc8a90811502906040515f60405180830381858888f19350505050905080610162576040517f08c379a00000000000000000000000000000000000000000000000000000000081526004016101599061077c565b60405180910390fd5b5080806001019150506100c8565b506101b1565b6040517f08c379a00000000000000000000000000000000000000000000000000000000081526004016101a8906107e4565b60405180910390fd5b5050505050505050565b5f6040518060400160405280601c81526020017f19457468657265756d205369676e6564204d6573736167653a0a33320000000081525090505f818660405160200161020892919061088e565b6040516020818303038152906040528051906020012090505f6001828787876040515f815260200160405260405161024394939291906108d3565b6020604051602081039080840390855afa158015610263573d5f803e3d5ffd5b5050506020604051035190505f8054906101000a900473ffffffffffffffffffffffffffffffffffffffff1673ffffffffffffffffffffffffffffffffffffffff168173ffffffffffffffffffffffffffffffffffffffff16146102fc576040517f08c379a00000000000000000000000000000000000000000000000000000000081526004016102f390610960565b60405180910390fd5b50505050505050565b5f604051905090565b5f80fd5b5f80fd5b5f80fd5b5f601f19601f8301169050919050565b7f4e487b71000000000000000000000000000000000000000000000000000000005f52604160045260245ffd5b6103608261031a565b810181811067ffffffffffffffff8211171561037f5761037e61032a565b5b80604052505050565b5f610391610305565b905061039d8282610357565b919050565b5f67ffffffffffffffff8211156103bc576103bb61032a565b5b602082029050602081019050919050565b5f80fd5b5f73ffffffffffffffffffffffffffffffffffffffff82169050919050565b5f6103fa826103d1565b9050919050565b61040a816103f0565b8114610414575f80fd5b50565b5f8135905061042581610401565b92915050565b5f61043d610438846103a2565b610388565b905080838252602082019050602084028301858111156104605761045f6103cd565b5b835b8181101561048957806104758882610417565b845260208401935050602081019050610462565b5050509392505050565b5f82601f8301126104a7576104a6610316565b5b81356104b784826020860161042b565b91505092915050565b5f819050919050565b6104d2816104c0565b81146104dc575f80fd5b50565b5f813590506104ed816104c9565b92915050565b5f819050919050565b610505816104f3565b811461050f575f80fd5b50565b5f81359050610520816104fc565b92915050565b5f60ff82169050919050565b61053b81610526565b8114610545575f80fd5b50565b5f8135905061055681610532565b92915050565b5f805f805f805f80610100898b0312156105795761057861030e565b5b5f89013567ffffffffffffffff81111561059657610595610312565b5b6105a28b828c01610493565b98505060206105b38b828c016104df565b97505060406105c48b828c016104df565b96505060606105d58b828c016104df565b95505060806105e68b828c01610512565b94505060a06105f78b828c01610548565b93505060c06106088b828c01610512565b92505060e06106198b828c01610512565b9150509295985092959890939650565b5f805f80608085870312156106415761064061030e565b5b5f61064e87828801610512565b945050602061065f87828801610548565b935050604061067087828801610512565b925050606061068187828801610512565b91505092959194509250565b5f82825260208201905092915050565b7f496e73756666696369656e742062616c616e63650000000000000000000000005f82015250565b5f6106d160148361068d565b91506106dc8261069d565b602082019050919050565b5f6020820190508181035f8301526106fe816106c5565b9050919050565b7f4e487b71000000000000000000000000000000000000000000000000000000005f52603260045260245ffd5b7f5472616e73666572206661696c656400000000000000000000000000000000005f82015250565b5f610766600f8361068d565b915061077182610732565b602082019050919050565b5f6020820190508181035f8301526107938161075a565b9050919050565b7f55736572206e6f7420456c696769626c652100000000000000000000000000005f82015250565b5f6107ce60128361068d565b91506107d98261079a565b602082019050919050565b5f6020820190508181035f8301526107fb816107c2565b9050919050565b5f81519050919050565b5f81905092915050565b5f5b83811015610833578082015181840152602081019050610818565b5f8484015250505050565b5f61084882610802565b610852818561080c565b9350610862818560208601610816565b80840191505092915050565b5f819050919050565b610888610883826104f3565b61086e565b82525050565b5f610899828561083e565b91506108a58284610877565b6020820191508190509392505050565b6108be816104f3565b82525050565b6108cd81610526565b82525050565b5f6080820190506108e65f8301876108b5565b6108f360208301866108c4565b61090060408301856108b5565b61090d60608301846108b5565b95945050505050565b7f55736572206973206e6f7420417574686f72697a6564212121000000000000005f82015250565b5f61094a60198361068d565b915061095582610916565b602082019050919050565b5f6020820190508181035f8301526109778161093e565b905091905056fea264697066735822122095dd494ce363b9e552ea7035dfaa185e0346be61b915c0277ba13d88037e2afa64736f6c63430008160033",
		"opcodes": "PUSH1 0x80 PUSH1 0x40 MSTORE PUSH1 0x4 CALLDATASIZE LT PUSH2 0x28 JUMPI PUSH0 CALLDATALOAD PUSH1 0xE0 SHR DUP1 PUSH4 0x360059B2 EQ PUSH2 0x2C JUMPI DUP1 PUSH4 0x38165F70 EQ PUSH2 0x48 JUMPI JUMPDEST PUSH0 DUP1 REVERT JUMPDEST PUSH2 0x46 PUSH1 0x4 DUP1 CALLDATASIZE SUB DUP2 ADD SWAP1 PUSH2 0x41 SWAP2 SWAP1 PUSH2 0x55C JUMP JUMPDEST PUSH2 0x70 JUMP JUMPDEST STOP JUMPDEST CALLVALUE DUP1 ISZERO PUSH2 0x53 JUMPI PUSH0 DUP1 REVERT JUMPDEST POP PUSH2 0x6E PUSH1 0x4 DUP1 CALLDATASIZE SUB DUP2 ADD SWAP1 PUSH2 0x69 SWAP2 SWAP1 PUSH2 0x629 JUMP JUMPDEST PUSH2 0x1BB JUMP JUMPDEST STOP JUMPDEST PUSH2 0x7C DUP5 DUP5 DUP5 DUP5 PUSH2 0x1BB JUMP JUMPDEST SELFBALANCE DUP8 GT ISZERO PUSH2 0xBF JUMPI PUSH1 0x40 MLOAD PUSH32 0x8C379A000000000000000000000000000000000000000000000000000000000 DUP2 MSTORE PUSH1 0x4 ADD PUSH2 0xB6 SWAP1 PUSH2 0x6E7 JUMP JUMPDEST PUSH1 0x40 MLOAD DUP1 SWAP2 SUB SWAP1 REVERT JUMPDEST DUP6 DUP6 LT PUSH2 0x176 JUMPI PUSH0 JUMPDEST DUP9 MLOAD DUP2 LT ISZERO PUSH2 0x170 JUMPI PUSH0 DUP10 DUP3 DUP2 MLOAD DUP2 LT PUSH2 0xE5 JUMPI PUSH2 0xE4 PUSH2 0x705 JUMP JUMPDEST JUMPDEST PUSH1 0x20 MUL PUSH1 0x20 ADD ADD MLOAD PUSH20 0xFFFFFFFFFFFFFFFFFFFFFFFFFFFFFFFFFFFFFFFF AND PUSH2 0x8FC DUP11 SWAP1 DUP2 ISZERO MUL SWAP1 PUSH1 0x40 MLOAD PUSH0 PUSH1 0x40 MLOAD DUP1 DUP4 SUB DUP2 DUP6 DUP9 DUP9 CALL SWAP4 POP POP POP POP SWAP1 POP DUP1 PUSH2 0x162 JUMPI PUSH1 0x40 MLOAD PUSH32 0x8C379A000000000000000000000000000000000000000000000000000000000 DUP2 MSTORE PUSH1 0x4 ADD PUSH2 0x159 SWAP1 PUSH2 0x77C JUMP JUMPDEST PUSH1 0x40 MLOAD DUP1 SWAP2 SUB SWAP1 REVERT JUMPDEST POP DUP1 DUP1 PUSH1 0x1 ADD SWAP2 POP POP PUSH2 0xC8 JUMP JUMPDEST POP PUSH2 0x1B1 JUMP JUMPDEST PUSH1 0x40 MLOAD PUSH32 0x8C379A000000000000000000000000000000000000000000000000000000000 DUP2 MSTORE PUSH1 0x4 ADD PUSH2 0x1A8 SWAP1 PUSH2 0x7E4 JUMP JUMPDEST PUSH1 0x40 MLOAD DUP1 SWAP2 SUB SWAP1 REVERT JUMPDEST POP POP POP POP POP POP POP POP JUMP JUMPDEST PUSH0 PUSH1 0x40 MLOAD DUP1 PUSH1 0x40 ADD PUSH1 0x40 MSTORE DUP1 PUSH1 0x1C DUP2 MSTORE PUSH1 0x20 ADD PUSH32 0x19457468657265756D205369676E6564204D6573736167653A0A333200000000 DUP2 MSTORE POP SWAP1 POP PUSH0 DUP2 DUP7 PUSH1 0x40 MLOAD PUSH1 0x20 ADD PUSH2 0x208 SWAP3 SWAP2 SWAP1 PUSH2 0x88E JUMP JUMPDEST PUSH1 0x40 MLOAD PUSH1 0x20 DUP2 DUP4 SUB SUB DUP2 MSTORE SWAP1 PUSH1 0x40 MSTORE DUP1 MLOAD SWAP1 PUSH1 0x20 ADD KECCAK256 SWAP1 POP PUSH0 PUSH1 0x1 DUP3 DUP8 DUP8 DUP8 PUSH1 0x40 MLOAD PUSH0 DUP2 MSTORE PUSH1 0x20 ADD PUSH1 0x40 MSTORE PUSH1 0x40 MLOAD PUSH2 0x243 SWAP5 SWAP4 SWAP3 SWAP2 SWAP1 PUSH2 0x8D3 JUMP JUMPDEST PUSH1 0x20 PUSH1 0x40 MLOAD PUSH1 0x20 DUP2 SUB SWAP1 DUP1 DUP5 SUB SWAP1 DUP6 GAS STATICCALL ISZERO DUP1 ISZERO PUSH2 0x263 JUMPI RETURNDATASIZE PUSH0 DUP1 RETURNDATACOPY RETURNDATASIZE PUSH0 REVERT JUMPDEST POP POP POP PUSH1 0x20 PUSH1 0x40 MLOAD SUB MLOAD SWAP1 POP PUSH0 DUP1 SLOAD SWAP1 PUSH2 0x100 EXP SWAP1 DIV PUSH20 0xFFFFFFFFFFFFFFFFFFFFFFFFFFFFFFFFFFFFFFFF AND PUSH20 0xFFFFFFFFFFFFFFFFFFFFFFFFFFFFFFFFFFFFFFFF AND DUP2 PUSH20 0xFFFFFFFFFFFFFFFFFFFFFFFFFFFFFFFFFFFFFFFF AND EQ PUSH2 0x2FC JUMPI PUSH1 0x40 MLOAD PUSH32 0x8C379A000000000000000000000000000000000000000000000000000000000 DUP2 MSTORE PUSH1 0x4 ADD PUSH2 0x2F3 SWAP1 PUSH2 0x960 JUMP JUMPDEST PUSH1 0x40 MLOAD DUP1 SWAP2 SUB SWAP1 REVERT JUMPDEST POP POP POP POP POP POP POP JUMP JUMPDEST PUSH0 PUSH1 0x40 MLOAD SWAP1 POP SWAP1 JUMP JUMPDEST PUSH0 DUP1 REVERT JUMPDEST PUSH0 DUP1 REVERT JUMPDEST PUSH0 DUP1 REVERT JUMPDEST PUSH0 PUSH1 0x1F NOT PUSH1 0x1F DUP4 ADD AND SWAP1 POP SWAP2 SWAP1 POP JUMP JUMPDEST PUSH32 0x4E487B7100000000000000000000000000000000000000000000000000000000 PUSH0 MSTORE PUSH1 0x41 PUSH1 0x4 MSTORE PUSH1 0x24 PUSH0 REVERT JUMPDEST PUSH2 0x360 DUP3 PUSH2 0x31A JUMP JUMPDEST DUP2 ADD DUP2 DUP2 LT PUSH8 0xFFFFFFFFFFFFFFFF DUP3 GT OR ISZERO PUSH2 0x37F JUMPI PUSH2 0x37E PUSH2 0x32A JUMP JUMPDEST JUMPDEST DUP1 PUSH1 0x40 MSTORE POP POP POP JUMP JUMPDEST PUSH0 PUSH2 0x391 PUSH2 0x305 JUMP JUMPDEST SWAP1 POP PUSH2 0x39D DUP3 DUP3 PUSH2 0x357 JUMP JUMPDEST SWAP2 SWAP1 POP JUMP JUMPDEST PUSH0 PUSH8 0xFFFFFFFFFFFFFFFF DUP3 GT ISZERO PUSH2 0x3BC JUMPI PUSH2 0x3BB PUSH2 0x32A JUMP JUMPDEST JUMPDEST PUSH1 0x20 DUP3 MUL SWAP1 POP PUSH1 0x20 DUP2 ADD SWAP1 POP SWAP2 SWAP1 POP JUMP JUMPDEST PUSH0 DUP1 REVERT JUMPDEST PUSH0 PUSH20 0xFFFFFFFFFFFFFFFFFFFFFFFFFFFFFFFFFFFFFFFF DUP3 AND SWAP1 POP SWAP2 SWAP1 POP JUMP JUMPDEST PUSH0 PUSH2 0x3FA DUP3 PUSH2 0x3D1 JUMP JUMPDEST SWAP1 POP SWAP2 SWAP1 POP JUMP JUMPDEST PUSH2 0x40A DUP2 PUSH2 0x3F0 JUMP JUMPDEST DUP2 EQ PUSH2 0x414 JUMPI PUSH0 DUP1 REVERT JUMPDEST POP JUMP JUMPDEST PUSH0 DUP2 CALLDATALOAD SWAP1 POP PUSH2 0x425 DUP2 PUSH2 0x401 JUMP JUMPDEST SWAP3 SWAP2 POP POP JUMP JUMPDEST PUSH0 PUSH2 0x43D PUSH2 0x438 DUP5 PUSH2 0x3A2 JUMP JUMPDEST PUSH2 0x388 JUMP JUMPDEST SWAP1 POP DUP1 DUP4 DUP3 MSTORE PUSH1 0x20 DUP3 ADD SWAP1 POP PUSH1 0x20 DUP5 MUL DUP4 ADD DUP6 DUP2 GT ISZERO PUSH2 0x460 JUMPI PUSH2 0x45F PUSH2 0x3CD JUMP JUMPDEST JUMPDEST DUP4 JUMPDEST DUP2 DUP2 LT ISZERO PUSH2 0x489 JUMPI DUP1 PUSH2 0x475 DUP9 DUP3 PUSH2 0x417 JUMP JUMPDEST DUP5 MSTORE PUSH1 0x20 DUP5 ADD SWAP4 POP POP PUSH1 0x20 DUP2 ADD SWAP1 POP PUSH2 0x462 JUMP JUMPDEST POP POP POP SWAP4 SWAP3 POP POP POP JUMP JUMPDEST PUSH0 DUP3 PUSH1 0x1F DUP4 ADD SLT PUSH2 0x4A7 JUMPI PUSH2 0x4A6 PUSH2 0x316 JUMP JUMPDEST JUMPDEST DUP2 CALLDATALOAD PUSH2 0x4B7 DUP5 DUP3 PUSH1 0x20 DUP7 ADD PUSH2 0x42B JUMP JUMPDEST SWAP2 POP POP SWAP3 SWAP2 POP POP JUMP JUMPDEST PUSH0 DUP2 SWAP1 POP SWAP2 SWAP1 POP JUMP JUMPDEST PUSH2 0x4D2 DUP2 PUSH2 0x4C0 JUMP JUMPDEST DUP2 EQ PUSH2 0x4DC JUMPI PUSH0 DUP1 REVERT JUMPDEST POP JUMP JUMPDEST PUSH0 DUP2 CALLDATALOAD SWAP1 POP PUSH2 0x4ED DUP2 PUSH2 0x4C9 JUMP JUMPDEST SWAP3 SWAP2 POP POP JUMP JUMPDEST PUSH0 DUP2 SWAP1 POP SWAP2 SWAP1 POP JUMP JUMPDEST PUSH2 0x505 DUP2 PUSH2 0x4F3 JUMP JUMPDEST DUP2 EQ PUSH2 0x50F JUMPI PUSH0 DUP1 REVERT JUMPDEST POP JUMP JUMPDEST PUSH0 DUP2 CALLDATALOAD SWAP1 POP PUSH2 0x520 DUP2 PUSH2 0x4FC JUMP JUMPDEST SWAP3 SWAP2 POP POP JUMP JUMPDEST PUSH0 PUSH1 0xFF DUP3 AND SWAP1 POP SWAP2 SWAP1 POP JUMP JUMPDEST PUSH2 0x53B DUP2 PUSH2 0x526 JUMP JUMPDEST DUP2 EQ PUSH2 0x545 JUMPI PUSH0 DUP1 REVERT JUMPDEST POP JUMP JUMPDEST PUSH0 DUP2 CALLDATALOAD SWAP1 POP PUSH2 0x556 DUP2 PUSH2 0x532 JUMP JUMPDEST SWAP3 SWAP2 POP POP JUMP JUMPDEST PUSH0 DUP1 PUSH0 DUP1 PUSH0 DUP1 PUSH0 DUP1 PUSH2 0x100 DUP10 DUP12 SUB SLT ISZERO PUSH2 0x579 JUMPI PUSH2 0x578 PUSH2 0x30E JUMP JUMPDEST JUMPDEST PUSH0 DUP10 ADD CALLDATALOAD PUSH8 0xFFFFFFFFFFFFFFFF DUP2 GT ISZERO PUSH2 0x596 JUMPI PUSH2 0x595 PUSH2 0x312 JUMP JUMPDEST JUMPDEST PUSH2 0x5A2 DUP12 DUP3 DUP13 ADD PUSH2 0x493 JUMP JUMPDEST SWAP9 POP POP PUSH1 0x20 PUSH2 0x5B3 DUP12 DUP3 DUP13 ADD PUSH2 0x4DF JUMP JUMPDEST SWAP8 POP POP PUSH1 0x40 PUSH2 0x5C4 DUP12 DUP3 DUP13 ADD PUSH2 0x4DF JUMP JUMPDEST SWAP7 POP POP PUSH1 0x60 PUSH2 0x5D5 DUP12 DUP3 DUP13 ADD PUSH2 0x4DF JUMP JUMPDEST SWAP6 POP POP PUSH1 0x80 PUSH2 0x5E6 DUP12 DUP3 DUP13 ADD PUSH2 0x512 JUMP JUMPDEST SWAP5 POP POP PUSH1 0xA0 PUSH2 0x5F7 DUP12 DUP3 DUP13 ADD PUSH2 0x548 JUMP JUMPDEST SWAP4 POP POP PUSH1 0xC0 PUSH2 0x608 DUP12 DUP3 DUP13 ADD PUSH2 0x512 JUMP JUMPDEST SWAP3 POP POP PUSH1 0xE0 PUSH2 0x619 DUP12 DUP3 DUP13 ADD PUSH2 0x512 JUMP JUMPDEST SWAP2 POP POP SWAP3 SWAP6 SWAP9 POP SWAP3 SWAP6 SWAP9 SWAP1 SWAP4 SWAP7 POP JUMP JUMPDEST PUSH0 DUP1 PUSH0 DUP1 PUSH1 0x80 DUP6 DUP8 SUB SLT ISZERO PUSH2 0x641 JUMPI PUSH2 0x640 PUSH2 0x30E JUMP JUMPDEST JUMPDEST PUSH0 PUSH2 0x64E DUP8 DUP3 DUP9 ADD PUSH2 0x512 JUMP JUMPDEST SWAP5 POP POP PUSH1 0x20 PUSH2 0x65F DUP8 DUP3 DUP9 ADD PUSH2 0x548 JUMP JUMPDEST SWAP4 POP POP PUSH1 0x40 PUSH2 0x670 DUP8 DUP3 DUP9 ADD PUSH2 0x512 JUMP JUMPDEST SWAP3 POP POP PUSH1 0x60 PUSH2 0x681 DUP8 DUP3 DUP9 ADD PUSH2 0x512 JUMP JUMPDEST SWAP2 POP POP SWAP3 SWAP6 SWAP2 SWAP5 POP SWAP3 POP JUMP JUMPDEST PUSH0 DUP3 DUP3 MSTORE PUSH1 0x20 DUP3 ADD SWAP1 POP SWAP3 SWAP2 POP POP JUMP JUMPDEST PUSH32 0x496E73756666696369656E742062616C616E6365000000000000000000000000 PUSH0 DUP3 ADD MSTORE POP JUMP JUMPDEST PUSH0 PUSH2 0x6D1 PUSH1 0x14 DUP4 PUSH2 0x68D JUMP JUMPDEST SWAP2 POP PUSH2 0x6DC DUP3 PUSH2 0x69D JUMP JUMPDEST PUSH1 0x20 DUP3 ADD SWAP1 POP SWAP2 SWAP1 POP JUMP JUMPDEST PUSH0 PUSH1 0x20 DUP3 ADD SWAP1 POP DUP2 DUP2 SUB PUSH0 DUP4 ADD MSTORE PUSH2 0x6FE DUP2 PUSH2 0x6C5 JUMP JUMPDEST SWAP1 POP SWAP2 SWAP1 POP JUMP JUMPDEST PUSH32 0x4E487B7100000000000000000000000000000000000000000000000000000000 PUSH0 MSTORE PUSH1 0x32 PUSH1 0x4 MSTORE PUSH1 0x24 PUSH0 REVERT JUMPDEST PUSH32 0x5472616E73666572206661696C65640000000000000000000000000000000000 PUSH0 DUP3 ADD MSTORE POP JUMP JUMPDEST PUSH0 PUSH2 0x766 PUSH1 0xF DUP4 PUSH2 0x68D JUMP JUMPDEST SWAP2 POP PUSH2 0x771 DUP3 PUSH2 0x732 JUMP JUMPDEST PUSH1 0x20 DUP3 ADD SWAP1 POP SWAP2 SWAP1 POP JUMP JUMPDEST PUSH0 PUSH1 0x20 DUP3 ADD SWAP1 POP DUP2 DUP2 SUB PUSH0 DUP4 ADD MSTORE PUSH2 0x793 DUP2 PUSH2 0x75A JUMP JUMPDEST SWAP1 POP SWAP2 SWAP1 POP JUMP JUMPDEST PUSH32 0x55736572206E6F7420456C696769626C65210000000000000000000000000000 PUSH0 DUP3 ADD MSTORE POP JUMP JUMPDEST PUSH0 PUSH2 0x7CE PUSH1 0x12 DUP4 PUSH2 0x68D JUMP JUMPDEST SWAP2 POP PUSH2 0x7D9 DUP3 PUSH2 0x79A JUMP JUMPDEST PUSH1 0x20 DUP3 ADD SWAP1 POP SWAP2 SWAP1 POP JUMP JUMPDEST PUSH0 PUSH1 0x20 DUP3 ADD SWAP1 POP DUP2 DUP2 SUB PUSH0 DUP4 ADD MSTORE PUSH2 0x7FB DUP2 PUSH2 0x7C2 JUMP JUMPDEST SWAP1 POP SWAP2 SWAP1 POP JUMP JUMPDEST PUSH0 DUP2 MLOAD SWAP1 POP SWAP2 SWAP1 POP JUMP JUMPDEST PUSH0 DUP2 SWAP1 POP SWAP3 SWAP2 POP POP JUMP JUMPDEST PUSH0 JUMPDEST DUP4 DUP2 LT ISZERO PUSH2 0x833 JUMPI DUP1 DUP3 ADD MLOAD DUP2 DUP5 ADD MSTORE PUSH1 0x20 DUP2 ADD SWAP1 POP PUSH2 0x818 JUMP JUMPDEST PUSH0 DUP5 DUP5 ADD MSTORE POP POP POP POP JUMP JUMPDEST PUSH0 PUSH2 0x848 DUP3 PUSH2 0x802 JUMP JUMPDEST PUSH2 0x852 DUP2 DUP6 PUSH2 0x80C JUMP JUMPDEST SWAP4 POP PUSH2 0x862 DUP2 DUP6 PUSH1 0x20 DUP7 ADD PUSH2 0x816 JUMP JUMPDEST DUP1 DUP5 ADD SWAP2 POP POP SWAP3 SWAP2 POP POP JUMP JUMPDEST PUSH0 DUP2 SWAP1 POP SWAP2 SWAP1 POP JUMP JUMPDEST PUSH2 0x888 PUSH2 0x883 DUP3 PUSH2 0x4F3 JUMP JUMPDEST PUSH2 0x86E JUMP JUMPDEST DUP3 MSTORE POP POP JUMP JUMPDEST PUSH0 PUSH2 0x899 DUP3 DUP6 PUSH2 0x83E JUMP JUMPDEST SWAP2 POP PUSH2 0x8A5 DUP3 DUP5 PUSH2 0x877 JUMP JUMPDEST PUSH1 0x20 DUP3 ADD SWAP2 POP DUP2 SWAP1 POP SWAP4 SWAP3 POP POP POP JUMP JUMPDEST PUSH2 0x8BE DUP2 PUSH2 0x4F3 JUMP JUMPDEST DUP3 MSTORE POP POP JUMP JUMPDEST PUSH2 0x8CD DUP2 PUSH2 0x526 JUMP JUMPDEST DUP3 MSTORE POP POP JUMP JUMPDEST PUSH0 PUSH1 0x80 DUP3 ADD SWAP1 POP PUSH2 0x8E6 PUSH0 DUP4 ADD DUP8 PUSH2 0x8B5 JUMP JUMPDEST PUSH2 0x8F3 PUSH1 0x20 DUP4 ADD DUP7 PUSH2 0x8C4 JUMP JUMPDEST PUSH2 0x900 PUSH1 0x40 DUP4 ADD DUP6 PUSH2 0x8B5 JUMP JUMPDEST PUSH2 0x90D PUSH1 0x60 DUP4 ADD DUP5 PUSH2 0x8B5 JUMP JUMPDEST SWAP6 SWAP5 POP POP POP POP POP JUMP JUMPDEST PUSH32 0x55736572206973206E6F7420417574686F72697A656421212100000000000000 PUSH0 DUP3 ADD MSTORE POP JUMP JUMPDEST PUSH0 PUSH2 0x94A PUSH1 0x19 DUP4 PUSH2 0x68D JUMP JUMPDEST SWAP2 POP PUSH2 0x955 DUP3 PUSH2 0x916 JUMP JUMPDEST PUSH1 0x20 DUP3 ADD SWAP1 POP SWAP2 SWAP1 POP JUMP JUMPDEST PUSH0 PUSH1 0x20 DUP3 ADD SWAP1 POP DUP2 DUP2 SUB PUSH0 DUP4 ADD MSTORE PUSH2 0x977 DUP2 PUSH2 0x93E JUMP JUMPDEST SWAP1 POP SWAP2 SWAP1 POP JUMP INVALID LOG2 PUSH5 0x6970667358 0x22 SLT KECCAK256 SWAP6 0xDD 0x49 0x4C 0xE3 PUSH4 0xB9E552EA PUSH17 0x35DFAA185E0346BE61B915C0277BA13D88 SUB PUSH31 0x2AFA64736F6C63430008160033000000000000000000000000000000000000 "
	},
	"Assembly": ".code\n  PUSH 80\t\t\tcontract cryptoDorea {\\r\\n\\r\\n...\n  PUSH 40\t\t\tcontract cryptoDorea {\\r\\n\\r\\n...\n  MSTORE \t\t\tcontract cryptoDorea {\\r\\n\\r\\n...\n  CALLER \t\t\tmsg.sender\n  PUSH 0\t\t\t_signer\n  DUP1 \t\t\t_signer\n  PUSH 100\t\t\t_signer = msg.sender\n  EXP \t\t\t_signer = msg.sender\n  DUP2 \t\t\t_signer = msg.sender\n  SLOAD \t\t\t_signer = msg.sender\n  DUP2 \t\t\t_signer = msg.sender\n  PUSH FFFFFFFFFFFFFFFFFFFFFFFFFFFFFFFFFFFFFFFF\t\t\t_signer = msg.sender\n  MUL \t\t\t_signer = msg.sender\n  NOT \t\t\t_signer = msg.sender\n  AND \t\t\t_signer = msg.sender\n  SWAP1 \t\t\t_signer = msg.sender\n  DUP4 \t\t\t_signer = msg.sender\n  PUSH FFFFFFFFFFFFFFFFFFFFFFFFFFFFFFFFFFFFFFFF\t\t\t_signer = msg.sender\n  AND \t\t\t_signer = msg.sender\n  MUL \t\t\t_signer = msg.sender\n  OR \t\t\t_signer = msg.sender\n  SWAP1 \t\t\t_signer = msg.sender\n  SSTORE \t\t\t_signer = msg.sender\n  POP \t\t\t_signer = msg.sender\n  PUSH #[$] 0000000000000000000000000000000000000000000000000000000000000000\t\t\tcontract cryptoDorea {\\r\\n\\r\\n...\n  DUP1 \t\t\tcontract cryptoDorea {\\r\\n\\r\\n...\n  PUSH [$] 0000000000000000000000000000000000000000000000000000000000000000\t\t\tcontract cryptoDorea {\\r\\n\\r\\n...\n  PUSH 0\t\t\tcontract cryptoDorea {\\r\\n\\r\\n...\n  CODECOPY \t\t\tcontract cryptoDorea {\\r\\n\\r\\n...\n  PUSH 0\t\t\tcontract cryptoDorea {\\r\\n\\r\\n...\n  RETURN \t\t\tcontract cryptoDorea {\\r\\n\\r\\n...\n.data\n  0:\n    .code\n      PUSH 80\t\t\tcontract cryptoDorea {\\r\\n\\r\\n...\n      PUSH 40\t\t\tcontract cryptoDorea {\\r\\n\\r\\n...\n      MSTORE \t\t\tcontract cryptoDorea {\\r\\n\\r\\n...\n      PUSH 4\t\t\tcontract cryptoDorea {\\r\\n\\r\\n...\n      CALLDATASIZE \t\t\tcontract cryptoDorea {\\r\\n\\r\\n...\n      LT \t\t\tcontract cryptoDorea {\\r\\n\\r\\n...\n      PUSH [tag] 1\t\t\tcontract cryptoDorea {\\r\\n\\r\\n...\n      JUMPI \t\t\tcontract cryptoDorea {\\r\\n\\r\\n...\n      PUSH 0\t\t\tcontract cryptoDorea {\\r\\n\\r\\n...\n      CALLDATALOAD \t\t\tcontract cryptoDorea {\\r\\n\\r\\n...\n      PUSH E0\t\t\tcontract cryptoDorea {\\r\\n\\r\\n...\n      SHR \t\t\tcontract cryptoDorea {\\r\\n\\r\\n...\n      DUP1 \t\t\tcontract cryptoDorea {\\r\\n\\r\\n...\n      PUSH 360059B2\t\t\tcontract cryptoDorea {\\r\\n\\r\\n...\n      EQ \t\t\tcontract cryptoDorea {\\r\\n\\r\\n...\n      PUSH [tag] 2\t\t\tcontract cryptoDorea {\\r\\n\\r\\n...\n      JUMPI \t\t\tcontract cryptoDorea {\\r\\n\\r\\n...\n      DUP1 \t\t\tcontract cryptoDorea {\\r\\n\\r\\n...\n      PUSH 38165F70\t\t\tcontract cryptoDorea {\\r\\n\\r\\n...\n      EQ \t\t\tcontract cryptoDorea {\\r\\n\\r\\n...\n      PUSH [tag] 3\t\t\tcontract cryptoDorea {\\r\\n\\r\\n...\n      JUMPI \t\t\tcontract cryptoDorea {\\r\\n\\r\\n...\n    tag 1\t\t\tcontract cryptoDorea {\\r\\n\\r\\n...\n      JUMPDEST \t\t\tcontract cryptoDorea {\\r\\n\\r\\n...\n      PUSH 0\t\t\tcontract cryptoDorea {\\r\\n\\r\\n...\n      DUP1 \t\t\tcontract cryptoDorea {\\r\\n\\r\\n...\n      REVERT \t\t\tcontract cryptoDorea {\\r\\n\\r\\n...\n    tag 2\t\t\tfunction pay(\\r\\n\\r\\n        a...\n      JUMPDEST \t\t\tfunction pay(\\r\\n\\r\\n        a...\n      PUSH [tag] 4\t\t\tfunction pay(\\r\\n\\r\\n        a...\n      PUSH 4\t\t\tfunction pay(\\r\\n\\r\\n        a...\n      DUP1 \t\t\tfunction pay(\\r\\n\\r\\n        a...\n      CALLDATASIZE \t\t\tfunction pay(\\r\\n\\r\\n        a...\n      SUB \t\t\tfunction pay(\\r\\n\\r\\n        a...\n      DUP2 \t\t\tfunction pay(\\r\\n\\r\\n        a...\n      ADD \t\t\tfunction pay(\\r\\n\\r\\n        a...\n      SWAP1 \t\t\tfunction pay(\\r\\n\\r\\n        a...\n      PUSH [tag] 5\t\t\tfunction pay(\\r\\n\\r\\n        a...\n      SWAP2 \t\t\tfunction pay(\\r\\n\\r\\n        a...\n      SWAP1 \t\t\tfunction pay(\\r\\n\\r\\n        a...\n      PUSH [tag] 6\t\t\tfunction pay(\\r\\n\\r\\n        a...\n      JUMP \t\t\tfunction pay(\\r\\n\\r\\n        a...\n    tag 5\t\t\tfunction pay(\\r\\n\\r\\n        a...\n      JUMPDEST \t\t\tfunction pay(\\r\\n\\r\\n        a...\n      PUSH [tag] 7\t\t\tfunction pay(\\r\\n\\r\\n        a...\n      JUMP \t\t\tfunction pay(\\r\\n\\r\\n        a...\n    tag 4\t\t\tfunction pay(\\r\\n\\r\\n        a...\n      JUMPDEST \t\t\tfunction pay(\\r\\n\\r\\n        a...\n      STOP \t\t\tfunction pay(\\r\\n\\r\\n        a...\n    tag 3\t\t\tfunction userAuthorized(bytes3...\n      JUMPDEST \t\t\tfunction userAuthorized(bytes3...\n      CALLVALUE \t\t\tfunction userAuthorized(bytes3...\n      DUP1 \t\t\tfunction userAuthorized(bytes3...\n      ISZERO \t\t\tfunction userAuthorized(bytes3...\n      PUSH [tag] 8\t\t\tfunction userAuthorized(bytes3...\n      JUMPI \t\t\tfunction userAuthorized(bytes3...\n      PUSH 0\t\t\tfunction userAuthorized(bytes3...\n      DUP1 \t\t\tfunction userAuthorized(bytes3...\n      REVERT \t\t\tfunction userAuthorized(bytes3...\n    tag 8\t\t\tfunction userAuthorized(bytes3...\n      JUMPDEST \t\t\tfunction userAuthorized(bytes3...\n      POP \t\t\tfunction userAuthorized(bytes3...\n      PUSH [tag] 9\t\t\tfunction userAuthorized(bytes3...\n      PUSH 4\t\t\tfunction userAuthorized(bytes3...\n      DUP1 \t\t\tfunction userAuthorized(bytes3...\n      CALLDATASIZE \t\t\tfunction userAuthorized(bytes3...\n      SUB \t\t\tfunction userAuthorized(bytes3...\n      DUP2 \t\t\tfunction userAuthorized(bytes3...\n      ADD \t\t\tfunction userAuthorized(bytes3...\n      SWAP1 \t\t\tfunction userAuthorized(bytes3...\n      PUSH [tag] 10\t\t\tfunction userAuthorized(bytes3...\n      SWAP2 \t\t\tfunction userAuthorized(bytes3...\n      SWAP1 \t\t\tfunction userAuthorized(bytes3...\n      PUSH [tag] 11\t\t\tfunction userAuthorized(bytes3...\n      JUMP \t\t\tfunction userAuthorized(bytes3...\n    tag 10\t\t\tfunction userAuthorized(bytes3...\n      JUMPDEST \t\t\tfunction userAuthorized(bytes3...\n      PUSH [tag] 12\t\t\tfunction userAuthorized(bytes3...\n      JUMP \t\t\tfunction userAuthorized(bytes3...\n    tag 9\t\t\tfunction userAuthorized(bytes3...\n      JUMPDEST \t\t\tfunction userAuthorized(bytes3...\n      STOP \t\t\tfunction userAuthorized(bytes3...\n    tag 7\t\t\tfunction pay(\\r\\n\\r\\n        a...\n      JUMPDEST \t\t\tfunction pay(\\r\\n\\r\\n        a...\n      PUSH [tag] 14\t\t\tuserAuthorized(_hashedMessage,...\n      DUP5 \t\t\t_hashedMessage\n      DUP5 \t\t\t_v\n      DUP5 \t\t\t_r\n      DUP5 \t\t\t_s\n      PUSH [tag] 12\t\t\tuserAuthorized\n      JUMP \t\t\tuserAuthorized(_hashedMessage,...\n    tag 14\t\t\tuserAuthorized(_hashedMessage,...\n      JUMPDEST \t\t\tuserAuthorized(_hashedMessage,...\n      SELFBALANCE \t\t\taddress(this).balance\n      DUP8 \t\t\tamount\n      GT \t\t\tamount <= address(this).balanc...\n      ISZERO \t\t\tamount <= address(this).balanc...\n      PUSH [tag] 15\t\t\trequire(amount <= address(this...\n      JUMPI \t\t\trequire(amount <= address(this...\n      PUSH 40\t\t\trequire(amount <= address(this...\n      MLOAD \t\t\trequire(amount <= address(this...\n      PUSH 8C379A000000000000000000000000000000000000000000000000000000000\t\t\trequire(amount <= address(this...\n      DUP2 \t\t\trequire(amount <= address(this...\n      MSTORE \t\t\trequire(amount <= address(this...\n      PUSH 4\t\t\trequire(amount <= address(this...\n      ADD \t\t\trequire(amount <= address(this...\n      PUSH [tag] 16\t\t\trequire(amount <= address(this...\n      SWAP1 \t\t\trequire(amount <= address(this...\n      PUSH [tag] 17\t\t\trequire(amount <= address(this...\n      JUMP \t\t\trequire(amount <= address(this...\n    tag 16\t\t\trequire(amount <= address(this...\n      JUMPDEST \t\t\trequire(amount <= address(this...\n      PUSH 40\t\t\trequire(amount <= address(this...\n      MLOAD \t\t\trequire(amount <= address(this...\n      DUP1 \t\t\trequire(amount <= address(this...\n      SWAP2 \t\t\trequire(amount <= address(this...\n      SUB \t\t\trequire(amount <= address(this...\n      SWAP1 \t\t\trequire(amount <= address(this...\n      REVERT \t\t\trequire(amount <= address(this...\n    tag 15\t\t\trequire(amount <= address(this...\n      JUMPDEST \t\t\trequire(amount <= address(this...\n      DUP6 \t\t\tcampaignCount\n      DUP6 \t\t\tshoppingCount\n      LT \t\t\tshoppingCount >= campaignCount\n      PUSH [tag] 18\t\t\tif(shoppingCount >= campaignCo...\n      JUMPI \t\t\tif(shoppingCount >= campaignCo...\n      PUSH 0\t\t\tuint256 i\n    tag 19\t\t\tfor (uint256 i = 0; i < recipi...\n      JUMPDEST \t\t\tfor (uint256 i = 0; i < recipi...\n      DUP9 \t\t\trecipients\n      MLOAD \t\t\trecipients.length\n      DUP2 \t\t\ti\n      LT \t\t\ti < recipients.length\n      ISZERO \t\t\tfor (uint256 i = 0; i < recipi...\n      PUSH [tag] 20\t\t\tfor (uint256 i = 0; i < recipi...\n      JUMPI \t\t\tfor (uint256 i = 0; i < recipi...\n      PUSH 0\t\t\tbool success\n      DUP10 \t\t\trecipients\n      DUP3 \t\t\ti\n      DUP2 \t\t\trecipients[i]\n      MLOAD \t\t\trecipients[i]\n      DUP2 \t\t\trecipients[i]\n      LT \t\t\trecipients[i]\n      PUSH [tag] 22\t\t\trecipients[i]\n      JUMPI \t\t\trecipients[i]\n      PUSH [tag] 23\t\t\trecipients[i]\n      PUSH [tag] 24\t\t\trecipients[i]\n      JUMP \t\t\trecipients[i]\n    tag 23\t\t\trecipients[i]\n      JUMPDEST \t\t\trecipients[i]\n    tag 22\t\t\trecipients[i]\n      JUMPDEST \t\t\trecipients[i]\n      PUSH 20\t\t\trecipients[i]\n      MUL \t\t\trecipients[i]\n      PUSH 20\t\t\trecipients[i]\n      ADD \t\t\trecipients[i]\n      ADD \t\t\trecipients[i]\n      MLOAD \t\t\trecipients[i]\n      PUSH FFFFFFFFFFFFFFFFFFFFFFFFFFFFFFFFFFFFFFFF\t\t\tpayable(recipients[i]).send\n      AND \t\t\tpayable(recipients[i]).send\n      PUSH 8FC\t\t\tpayable(recipients[i]).send(am...\n      DUP11 \t\t\tamount\n      SWAP1 \t\t\tpayable(recipients[i]).send(am...\n      DUP2 \t\t\tpayable(recipients[i]).send(am...\n      ISZERO \t\t\tpayable(recipients[i]).send(am...\n      MUL \t\t\tpayable(recipients[i]).send(am...\n      SWAP1 \t\t\tpayable(recipients[i]).send(am...\n      PUSH 40\t\t\tpayable(recipients[i]).send(am...\n      MLOAD \t\t\tpayable(recipients[i]).send(am...\n      PUSH 0\t\t\tpayable(recipients[i]).send(am...\n      PUSH 40\t\t\tpayable(recipients[i]).send(am...\n      MLOAD \t\t\tpayable(recipients[i]).send(am...\n      DUP1 \t\t\tpayable(recipients[i]).send(am...\n      DUP4 \t\t\tpayable(recipients[i]).send(am...\n      SUB \t\t\tpayable(recipients[i]).send(am...\n      DUP2 \t\t\tpayable(recipients[i]).send(am...\n      DUP6 \t\t\tpayable(recipients[i]).send(am...\n      DUP9 \t\t\tpayable(recipients[i]).send(am...\n      DUP9 \t\t\tpayable(recipients[i]).send(am...\n      CALL \t\t\tpayable(recipients[i]).send(am...\n      SWAP4 \t\t\tpayable(recipients[i]).send(am...\n      POP \t\t\tpayable(recipients[i]).send(am...\n      POP \t\t\tpayable(recipients[i]).send(am...\n      POP \t\t\tpayable(recipients[i]).send(am...\n      POP \t\t\tpayable(recipients[i]).send(am...\n      SWAP1 \t\t\tbool success = payable(recipie...\n      POP \t\t\tbool success = payable(recipie...\n      DUP1 \t\t\tsuccess\n      PUSH [tag] 26\t\t\trequire(success, \"Transfer fai...\n      JUMPI \t\t\trequire(success, \"Transfer fai...\n      PUSH 40\t\t\trequire(success, \"Transfer fai...\n      MLOAD \t\t\trequire(success, \"Transfer fai...\n      PUSH 8C379A000000000000000000000000000000000000000000000000000000000\t\t\trequire(success, \"Transfer fai...\n      DUP2 \t\t\trequire(success, \"Transfer fai...\n      MSTORE \t\t\trequire(success, \"Transfer fai...\n      PUSH 4\t\t\trequire(success, \"Transfer fai...\n      ADD \t\t\trequire(success, \"Transfer fai...\n      PUSH [tag] 27\t\t\trequire(success, \"Transfer fai...\n      SWAP1 \t\t\trequire(success, \"Transfer fai...\n      PUSH [tag] 28\t\t\trequire(success, \"Transfer fai...\n      JUMP \t\t\trequire(success, \"Transfer fai...\n    tag 27\t\t\trequire(success, \"Transfer fai...\n      JUMPDEST \t\t\trequire(success, \"Transfer fai...\n      PUSH 40\t\t\trequire(success, \"Transfer fai...\n      MLOAD \t\t\trequire(success, \"Transfer fai...\n      DUP1 \t\t\trequire(success, \"Transfer fai...\n      SWAP2 \t\t\trequire(success, \"Transfer fai...\n      SUB \t\t\trequire(success, \"Transfer fai...\n      SWAP1 \t\t\trequire(success, \"Transfer fai...\n      REVERT \t\t\trequire(success, \"Transfer fai...\n    tag 26\t\t\trequire(success, \"Transfer fai...\n      JUMPDEST \t\t\trequire(success, \"Transfer fai...\n      POP \t\t\t{\\r\\n\\r\\n                // Tr...\n      DUP1 \t\t\ti++\n      DUP1 \t\t\ti++\n      PUSH 1\t\t\ti++\n      ADD \t\t\ti++\n      SWAP2 \t\t\ti++\n      POP \t\t\ti++\n      POP \t\t\ti++\n      PUSH [tag] 19\t\t\tfor (uint256 i = 0; i < recipi...\n      JUMP \t\t\tfor (uint256 i = 0; i < recipi...\n    tag 20\t\t\tfor (uint256 i = 0; i < recipi...\n      JUMPDEST \t\t\tfor (uint256 i = 0; i < recipi...\n      POP \t\t\tfor (uint256 i = 0; i < recipi...\n      PUSH [tag] 29\t\t\tif(shoppingCount >= campaignCo...\n      JUMP \t\t\tif(shoppingCount >= campaignCo...\n    tag 18\t\t\tif(shoppingCount >= campaignCo...\n      JUMPDEST \t\t\tif(shoppingCount >= campaignCo...\n      PUSH 40\t\t\trevert(\"User not Eligible!\")\n      MLOAD \t\t\trevert(\"User not Eligible!\")\n      PUSH 8C379A000000000000000000000000000000000000000000000000000000000\t\t\trevert(\"User not Eligible!\")\n      DUP2 \t\t\trevert(\"User not Eligible!\")\n      MSTORE \t\t\trevert(\"User not Eligible!\")\n      PUSH 4\t\t\trevert(\"User not Eligible!\")\n      ADD \t\t\trevert(\"User not Eligible!\")\n      PUSH [tag] 30\t\t\trevert(\"User not Eligible!\")\n      SWAP1 \t\t\trevert(\"User not Eligible!\")\n      PUSH [tag] 31\t\t\trevert(\"User not Eligible!\")\n      JUMP \t\t\trevert(\"User not Eligible!\")\n    tag 30\t\t\trevert(\"User not Eligible!\")\n      JUMPDEST \t\t\trevert(\"User not Eligible!\")\n      PUSH 40\t\t\trevert(\"User not Eligible!\")\n      MLOAD \t\t\trevert(\"User not Eligible!\")\n      DUP1 \t\t\trevert(\"User not Eligible!\")\n      SWAP2 \t\t\trevert(\"User not Eligible!\")\n      SUB \t\t\trevert(\"User not Eligible!\")\n      SWAP1 \t\t\trevert(\"User not Eligible!\")\n      REVERT \t\t\trevert(\"User not Eligible!\")\n    tag 29\t\t\tif(shoppingCount >= campaignCo...\n      JUMPDEST \t\t\tif(shoppingCount >= campaignCo...\n      POP \t\t\tfunction pay(\\r\\n\\r\\n        a...\n      POP \t\t\tfunction pay(\\r\\n\\r\\n        a...\n      POP \t\t\tfunction pay(\\r\\n\\r\\n        a...\n      POP \t\t\tfunction pay(\\r\\n\\r\\n        a...\n      POP \t\t\tfunction pay(\\r\\n\\r\\n        a...\n      POP \t\t\tfunction pay(\\r\\n\\r\\n        a...\n      POP \t\t\tfunction pay(\\r\\n\\r\\n        a...\n      POP \t\t\tfunction pay(\\r\\n\\r\\n        a...\n      JUMP \t\t\tfunction pay(\\r\\n\\r\\n        a...\n    tag 12\t\t\tfunction userAuthorized(bytes3...\n      JUMPDEST \t\t\tfunction userAuthorized(bytes3...\n      PUSH 0\t\t\tbytes memory prefix\n      PUSH 40\t\t\tbytes memory prefix = \"\\x19Eth...\n      MLOAD \t\t\tbytes memory prefix = \"\\x19Eth...\n      DUP1 \t\t\tbytes memory prefix = \"\\x19Eth...\n      PUSH 40\t\t\tbytes memory prefix = \"\\x19Eth...\n      ADD \t\t\tbytes memory prefix = \"\\x19Eth...\n      PUSH 40\t\t\tbytes memory prefix = \"\\x19Eth...\n      MSTORE \t\t\tbytes memory prefix = \"\\x19Eth...\n      DUP1 \t\t\tbytes memory prefix = \"\\x19Eth...\n      PUSH 1C\t\t\tbytes memory prefix = \"\\x19Eth...\n      DUP2 \t\t\tbytes memory prefix = \"\\x19Eth...\n      MSTORE \t\t\tbytes memory prefix = \"\\x19Eth...\n      PUSH 20\t\t\tbytes memory prefix = \"\\x19Eth...\n      ADD \t\t\tbytes memory prefix = \"\\x19Eth...\n      PUSH 19457468657265756D205369676E6564204D6573736167653A0A333200000000\t\t\tbytes memory prefix = \"\\x19Eth...\n      DUP2 \t\t\tbytes memory prefix = \"\\x19Eth...\n      MSTORE \t\t\tbytes memory prefix = \"\\x19Eth...\n      POP \t\t\tbytes memory prefix = \"\\x19Eth...\n      SWAP1 \t\t\tbytes memory prefix = \"\\x19Eth...\n      POP \t\t\tbytes memory prefix = \"\\x19Eth...\n      PUSH 0\t\t\tbytes32 prefixedHashMessage\n      DUP2 \t\t\tprefix\n      DUP7 \t\t\t_hashedMessage\n      PUSH 40\t\t\tabi.encodePacked(prefix, _hash...\n      MLOAD \t\t\tabi.encodePacked(prefix, _hash...\n      PUSH 20\t\t\tabi.encodePacked(prefix, _hash...\n      ADD \t\t\tabi.encodePacked(prefix, _hash...\n      PUSH [tag] 33\t\t\tabi.encodePacked(prefix, _hash...\n      SWAP3 \t\t\tabi.encodePacked(prefix, _hash...\n      SWAP2 \t\t\tabi.encodePacked(prefix, _hash...\n      SWAP1 \t\t\tabi.encodePacked(prefix, _hash...\n      PUSH [tag] 34\t\t\tabi.encodePacked(prefix, _hash...\n      JUMP \t\t\tabi.encodePacked(prefix, _hash...\n    tag 33\t\t\tabi.encodePacked(prefix, _hash...\n      JUMPDEST \t\t\tabi.encodePacked(prefix, _hash...\n      PUSH 40\t\t\tabi.encodePacked(prefix, _hash...\n      MLOAD \t\t\tabi.encodePacked(prefix, _hash...\n      PUSH 20\t\t\tabi.encodePacked(prefix, _hash...\n      DUP2 \t\t\tabi.encodePacked(prefix, _hash...\n      DUP4 \t\t\tabi.encodePacked(prefix, _hash...\n      SUB \t\t\tabi.encodePacked(prefix, _hash...\n      SUB \t\t\tabi.encodePacked(prefix, _hash...\n      DUP2 \t\t\tabi.encodePacked(prefix, _hash...\n      MSTORE \t\t\tabi.encodePacked(prefix, _hash...\n      SWAP1 \t\t\tabi.encodePacked(prefix, _hash...\n      PUSH 40\t\t\tabi.encodePacked(prefix, _hash...\n      MSTORE \t\t\tabi.encodePacked(prefix, _hash...\n      DUP1 \t\t\tkeccak256(abi.encodePacked(pre...\n      MLOAD \t\t\tkeccak256(abi.encodePacked(pre...\n      SWAP1 \t\t\tkeccak256(abi.encodePacked(pre...\n      PUSH 20\t\t\tkeccak256(abi.encodePacked(pre...\n      ADD \t\t\tkeccak256(abi.encodePacked(pre...\n      KECCAK256 \t\t\tkeccak256(abi.encodePacked(pre...\n      SWAP1 \t\t\tbytes32 prefixedHashMessage = ...\n      POP \t\t\tbytes32 prefixedHashMessage = ...\n      PUSH 0\t\t\taddress signer\n      PUSH 1\t\t\tecrecover(prefixedHashMessage,...\n      DUP3 \t\t\tprefixedHashMessage\n      DUP8 \t\t\t_v\n      DUP8 \t\t\t_r\n      DUP8 \t\t\t_s\n      PUSH 40\t\t\tecrecover(prefixedHashMessage,...\n      MLOAD \t\t\tecrecover(prefixedHashMessage,...\n      PUSH 0\t\t\tecrecover(prefixedHashMessage,...\n      DUP2 \t\t\tecrecover(prefixedHashMessage,...\n      MSTORE \t\t\tecrecover(prefixedHashMessage,...\n      PUSH 20\t\t\tecrecover(prefixedHashMessage,...\n      ADD \t\t\tecrecover(prefixedHashMessage,...\n      PUSH 40\t\t\tecrecover(prefixedHashMessage,...\n      MSTORE \t\t\tecrecover(prefixedHashMessage,...\n      PUSH 40\t\t\tecrecover(prefixedHashMessage,...\n      MLOAD \t\t\tecrecover(prefixedHashMessage,...\n      PUSH [tag] 35\t\t\tecrecover(prefixedHashMessage,...\n      SWAP5 \t\t\tecrecover(prefixedHashMessage,...\n      SWAP4 \t\t\tecrecover(prefixedHashMessage,...\n      SWAP3 \t\t\tecrecover(prefixedHashMessage,...\n      SWAP2 \t\t\tecrecover(prefixedHashMessage,...\n      SWAP1 \t\t\tecrecover(prefixedHashMessage,...\n      PUSH [tag] 36\t\t\tecrecover(prefixedHashMessage,...\n      JUMP \t\t\tecrecover(prefixedHashMessage,...\n    tag 35\t\t\tecrecover(prefixedHashMessage,...\n      JUMPDEST \t\t\tecrecover(prefixedHashMessage,...\n      PUSH 20\t\t\tecrecover(prefixedHashMessage,...\n      PUSH 40\t\t\tecrecover(prefixedHashMessage,...\n      MLOAD \t\t\tecrecover(prefixedHashMessage,...\n      PUSH 20\t\t\tecrecover(prefixedHashMessage,...\n      DUP2 \t\t\tecrecover(prefixedHashMessage,...\n      SUB \t\t\tecrecover(prefixedHashMessage,...\n      SWAP1 \t\t\tecrecover(prefixedHashMessage,...\n      DUP1 \t\t\tecrecover(prefixedHashMessage,...\n      DUP5 \t\t\tecrecover(prefixedHashMessage,...\n      SUB \t\t\tecrecover(prefixedHashMessage,...\n      SWAP1 \t\t\tecrecover(prefixedHashMessage,...\n      DUP6 \t\t\tecrecover(prefixedHashMessage,...\n      GAS \t\t\tecrecover(prefixedHashMessage,...\n      STATICCALL \t\t\tecrecover(prefixedHashMessage,...\n      ISZERO \t\t\tecrecover(prefixedHashMessage,...\n      DUP1 \t\t\tecrecover(prefixedHashMessage,...\n      ISZERO \t\t\tecrecover(prefixedHashMessage,...\n      PUSH [tag] 38\t\t\tecrecover(prefixedHashMessage,...\n      JUMPI \t\t\tecrecover(prefixedHashMessage,...\n      RETURNDATASIZE \t\t\tecrecover(prefixedHashMessage,...\n      PUSH 0\t\t\tecrecover(prefixedHashMessage,...\n      DUP1 \t\t\tecrecover(prefixedHashMessage,...\n      RETURNDATACOPY \t\t\tecrecover(prefixedHashMessage,...\n      RETURNDATASIZE \t\t\tecrecover(prefixedHashMessage,...\n      PUSH 0\t\t\tecrecover(prefixedHashMessage,...\n      REVERT \t\t\tecrecover(prefixedHashMessage,...\n    tag 38\t\t\tecrecover(prefixedHashMessage,...\n      JUMPDEST \t\t\tecrecover(prefixedHashMessage,...\n      POP \t\t\tecrecover(prefixedHashMessage,...\n      POP \t\t\tecrecover(prefixedHashMessage,...\n      POP \t\t\tecrecover(prefixedHashMessage,...\n      PUSH 20\t\t\tecrecover(prefixedHashMessage,...\n      PUSH 40\t\t\tecrecover(prefixedHashMessage,...\n      MLOAD \t\t\tecrecover(prefixedHashMessage,...\n      SUB \t\t\tecrecover(prefixedHashMessage,...\n      MLOAD \t\t\tecrecover(prefixedHashMessage,...\n      SWAP1 \t\t\taddress signer = ecrecover(pre...\n      POP \t\t\taddress signer = ecrecover(pre...\n      PUSH 0\t\t\t_signer\n      DUP1 \t\t\t_signer\n      SLOAD \t\t\t_signer\n      SWAP1 \t\t\t_signer\n      PUSH 100\t\t\t_signer\n      EXP \t\t\t_signer\n      SWAP1 \t\t\t_signer\n      DIV \t\t\t_signer\n      PUSH FFFFFFFFFFFFFFFFFFFFFFFFFFFFFFFFFFFFFFFF\t\t\t_signer\n      AND \t\t\t_signer\n      PUSH FFFFFFFFFFFFFFFFFFFFFFFFFFFFFFFFFFFFFFFF\t\t\tsigner != _signer\n      AND \t\t\tsigner != _signer\n      DUP2 \t\t\tsigner\n      PUSH FFFFFFFFFFFFFFFFFFFFFFFFFFFFFFFFFFFFFFFF\t\t\tsigner != _signer\n      AND \t\t\tsigner != _signer\n      EQ \t\t\tsigner != _signer\n      PUSH [tag] 39\t\t\tif(signer != _signer){\\r\\n    ...\n      JUMPI \t\t\tif(signer != _signer){\\r\\n    ...\n      PUSH 40\t\t\trevert(\"User is not Authorized...\n      MLOAD \t\t\trevert(\"User is not Authorized...\n      PUSH 8C379A000000000000000000000000000000000000000000000000000000000\t\t\trevert(\"User is not Authorized...\n      DUP2 \t\t\trevert(\"User is not Authorized...\n      MSTORE \t\t\trevert(\"User is not Authorized...\n      PUSH 4\t\t\trevert(\"User is not Authorized...\n      ADD \t\t\trevert(\"User is not Authorized...\n      PUSH [tag] 40\t\t\trevert(\"User is not Authorized...\n      SWAP1 \t\t\trevert(\"User is not Authorized...\n      PUSH [tag] 41\t\t\trevert(\"User is not Authorized...\n      JUMP \t\t\trevert(\"User is not Authorized...\n    tag 40\t\t\trevert(\"User is not Authorized...\n      JUMPDEST \t\t\trevert(\"User is not Authorized...\n      PUSH 40\t\t\trevert(\"User is not Authorized...\n      MLOAD \t\t\trevert(\"User is not Authorized...\n      DUP1 \t\t\trevert(\"User is not Authorized...\n      SWAP2 \t\t\trevert(\"User is not Authorized...\n      SUB \t\t\trevert(\"User is not Authorized...\n      SWAP1 \t\t\trevert(\"User is not Authorized...\n      REVERT \t\t\trevert(\"User is not Authorized...\n    tag 39\t\t\tif(signer != _signer){\\r\\n    ...\n      JUMPDEST \t\t\tif(signer != _signer){\\r\\n    ...\n      POP \t\t\t{\\r\\n        \\r\\n        bytes...\n      POP \t\t\t{\\r\\n        \\r\\n        bytes...\n      POP \t\t\t{\\r\\n        \\r\\n        bytes...\n      POP \t\t\tfunction userAuthorized(bytes3...\n      POP \t\t\tfunction userAuthorized(bytes3...\n      POP \t\t\tfunction userAuthorized(bytes3...\n      POP \t\t\tfunction userAuthorized(bytes3...\n      JUMP \t\t\tfunction userAuthorized(bytes3...\n    tag 42\t\t\t-License-Identifier: GPL-3.0\\r...\n      JUMPDEST \t\t\t-License-Identifier: GPL-3.0\\r...\n      PUSH 0\t\t\tgma so\n      PUSH 40\t\t\t/*\n      MLOAD \t\t\t0;\\r\\n\\r\\n/**\n      SWAP1 \t\t\t4.20 <0.9.0;\\r\\n\\r\\n/**\n      POP \t\t\t4.20 <0.9.0;\\r\\n\\r\\n/**\n      SWAP1 \t\t\t-License-Identifier: GPL-3.0\\r...\n      JUMP \t\t\t-License-Identifier: GPL-3.0\\r...\n    tag 43\t\t\tract transfer Ethers to Loyal ...\n      JUMPDEST \t\t\tract transfer Ethers to Loyal ...\n      PUSH 0\t\t\t \n      DUP1 \t\t\t \n      REVERT \t\t\t/**\\r\\n    * d\n    tag 44\t\t\tuctor to get fund on deploy st...\n      JUMPDEST \t\t\tuctor to get fund on deploy st...\n      PUSH 0\t\t\t \n      DUP1 \t\t\t\\r\n      REVERT \t\t\tnder;\\r\\n\\r\\n   \n    tag 45\t\t\t*\\r\\n    * Transfer Ethers to ...\n      JUMPDEST \t\t\t*\\r\\n    * Transfer Ethers to ...\n      PUSH 0\t\t\ts\n      DUP1 \t\t\td\n      REVERT \t\t\tpnts address\n    tag 46\t\t\ted in hex format\\r\\n    functi...\n      JUMPDEST \t\t\ted in hex format\\r\\n    functi...\n      PUSH 0\t\t\t      \n      PUSH 1F\t\t\t6 \n      NOT \t\t\tnt256  \n      PUSH 1F\t\t\t  \n      DUP4 \t\t\t\\r\\n   \n      ADD \t\t\tts, \\r\\n        \n      AND \t\t\tpients, \\r\\n        uint256  a\n      SWAP1 \t\t\temory recipients, \\r\\n        ...\n      POP \t\t\temory recipients, \\r\\n        ...\n      SWAP2 \t\t\ted in hex format\\r\\n    functi...\n      SWAP1 \t\t\ted in hex format\\r\\n    functi...\n      POP \t\t\ted in hex format\\r\\n    functi...\n      JUMP \t\t\ted in hex format\\r\\n    functi...\n    tag 47\t\t\t     uint256 campaignCount, \\r...\n      JUMPDEST \t\t\t     uint256 campaignCount, \\r...\n      PUSH 4E487B7100000000000000000000000000000000000000000000000000000000\t\t\toppingCount,\\r\\n        bytes3...\n      PUSH 0\t\t\t \n      MSTORE \t\t\tuint256 shoppingCount,\\r\\n    ...\n      PUSH 41\t\t\t byt\n      PUSH 4\t\t\t \n      MSTORE \t\t\t \\r\\n        byte\n      PUSH 24\t\t\tlic \n      PUSH 0\t\t\tp\n      REVERT \t\t\t\\n    ) public p\n    tag 48\t\t\t \\r\\n        userAuthorized(_h...\n      JUMPDEST \t\t\t \\r\\n        userAuthorized(_h...\n      PUSH [tag] 92\t\t\tmount <= address(this).bala\n      DUP3 \t\t\t.bal\n      PUSH [tag] 46\t\t\tmount <= address(this).bala\n      JUMP \t\t\tmount <= address(this).bala\n    tag 92\t\t\tmount <= address(this).bala\n      JUMPDEST \t\t\tmount <= address(this).bala\n      DUP2 \t\t\tequire\n      ADD \t\t\t   require(amount <= address(t...\n      DUP2 \t\t\tnt256 \n      DUP2 \t\t\t     for (\n      LT \t\t\t        for (uint256 i\n      PUSH FFFFFFFFFFFFFFFF\t\t\tgnCount){    \\r\\n\\r\\n \n      DUP3 \t\t\tnt >= camp\n      GT \t\t\tCount >= campaignCount){    \\r...\n      OR \t\t\tingCount >= campaignCount){   ...\n      ISZERO \t\t\toppingCount >= campaignCount){...\n      PUSH [tag] 93\t\t\toppingCount >= campaignCount){...\n      JUMPI \t\t\toppingCount >= campaignCount){...\n      PUSH [tag] 94\t\t\t; i < recipients.l\n      PUSH [tag] 47\t\t\t; i < recipients.l\n      JUMP \t\t\t; i < recipients.l\n    tag 94\t\t\t; i < recipients.l\n      JUMPDEST \t\t\t; i < recipients.l\n    tag 93\t\t\toppingCount >= campaignCount){...\n      JUMPDEST \t\t\toppingCount >= campaignCount){...\n      DUP1 \t\t\t          \n      PUSH 40\t\t\t  \n      MSTORE \t\t\t {\\r\\n\\r\\n                \n      POP \t\t\tv, _r, _s);\\r\\n        \\r\\n   ...\n      POP \t\t\t \\r\\n        userAuthorized(_h...\n      POP \t\t\t \\r\\n        userAuthorized(_h...\n      JUMP \t\t\t \\r\\n        userAuthorized(_h...\n    tag 49\t\t\tEther to the receipnt address\\...\n      JUMPDEST \t\t\tEther to the receipnt address\\...\n      PUSH 0\t\t\t      \n      PUSH [tag] 96\t\t\t payable(recipients[\n      PUSH [tag] 42\t\t\t payable(recipients[\n      JUMP \t\t\t payable(recipients[\n    tag 96\t\t\t payable(recipients[\n      JUMPDEST \t\t\t payable(recipients[\n      SWAP1 \t\t\t success = payable(recipients[\n      POP \t\t\t success = payable(recipients[\n      PUSH [tag] 97\t\t\tamount);\\r\\n                re...\n      DUP3 \t\t\tquir\n      DUP3 \t\t\t      \n      PUSH [tag] 48\t\t\tamount);\\r\\n                re...\n      JUMP \t\t\tamount);\\r\\n                re...\n    tag 97\t\t\tamount);\\r\\n                re...\n      JUMPDEST \t\t\tamount);\\r\\n                re...\n      SWAP2 \t\t\tEther to the receipnt address\\...\n      SWAP1 \t\t\tEther to the receipnt address\\...\n      POP \t\t\tEther to the receipnt address\\...\n      JUMP \t\t\tEther to the receipnt address\\...\n    tag 50\t\t\transfer failed\");\\r\\n\\r\\n     ...\n      JUMPDEST \t\t\transfer failed\");\\r\\n\\r\\n     ...\n      PUSH 0\t\t\tser \n      PUSH FFFFFFFFFFFFFFFF\t\t\to pay\\r\\n    */\\r\\n   \n      DUP3 \t\t\torized\n      GT \t\t\tuthorized to pay\\r\\n    */\\r\\n...\n      ISZERO \t\t\ts authorized to pay\\r\\n    */\\...\n      PUSH [tag] 99\t\t\ts authorized to pay\\r\\n    */\\...\n      JUMPI \t\t\ts authorized to pay\\r\\n    */\\...\n      PUSH [tag] 100\t\t\tction userAuthoriz\n      PUSH [tag] 47\t\t\tction userAuthoriz\n      JUMP \t\t\tction userAuthoriz\n    tag 100\t\t\tction userAuthoriz\n      JUMPDEST \t\t\tction userAuthoriz\n    tag 99\t\t\ts authorized to pay\\r\\n    */\\...\n      JUMPDEST \t\t\ts authorized to pay\\r\\n    */\\...\n      PUSH 20\t\t\t _v,\n      DUP3 \t\t\te, uin\n      MUL \t\t\tssage, uint8 _v, \n      SWAP1 \t\t\thashedMessage, uint8 _v, \n      POP \t\t\thashedMessage, uint8 _v, \n      PUSH 20\t\t\t  by\n      DUP2 \t\t\t    \n      ADD \t\t\t  \\r\\n        byt\n      SWAP1 \t\t\t\\r\\n        \\r\\n        byt\n      POP \t\t\t\\r\\n        \\r\\n        byt\n      SWAP2 \t\t\transfer failed\");\\r\\n\\r\\n     ...\n      SWAP1 \t\t\transfer failed\");\\r\\n\\r\\n     ...\n      POP \t\t\transfer failed\");\\r\\n\\r\\n     ...\n      JUMP \t\t\transfer failed\");\\r\\n\\r\\n     ...\n    tag 51\t\t\tfix = \"\\x19Ethereum Signed Mes...\n      JUMPDEST \t\t\tfix = \"\\x19Ethereum Signed Mes...\n      PUSH 0\t\t\t(\n      DUP1 \t\t\tk\n      REVERT \t\t\tcodePacked(p\n    tag 52\t\t\tedMessage));\\r\\n        addres...\n      JUMPDEST \t\t\tedMessage));\\r\\n        addres...\n      PUSH 0\t\t\t= ecrec\n      PUSH FFFFFFFFFFFFFFFFFFFFFFFFFFFFFFFFFFFFFFFF\t\t\t _s);\\r\\n\\r\\n        if(signer...\n      DUP3 \t\t\t_v, _\n      AND \t\t\tge, _v, _r, _s);\\r\\n\\r\\n      ...\n      SWAP1 \t\t\tedHashMessage, _v, _r, _s);\\r\\...\n      POP \t\t\tedHashMessage, _v, _r, _s);\\r\\...\n      SWAP2 \t\t\tedMessage));\\r\\n        addres...\n      SWAP1 \t\t\tedMessage));\\r\\n        addres...\n      POP \t\t\tedMessage));\\r\\n        addres...\n      JUMP \t\t\tedMessage));\\r\\n        addres...\n    tag 53\t\t\tvert(\"User is not Authorized!!...\n      JUMPDEST \t\t\tvert(\"User is not Authorized!!...\n      PUSH 0\t\t\t       \n      PUSH [tag] 104\t\t\t\n      DUP3 \t\t\t\n      PUSH [tag] 52\t\t\t\n      JUMP \t\t\t\n    tag 104\t\t\t\n      JUMPDEST \t\t\t\n      SWAP1 \t\t\t\\n\\r\\n}\n      POP \t\t\t\\n\\r\\n}\n      SWAP2 \t\t\tvert(\"User is not Authorized!!...\n      SWAP1 \t\t\tvert(\"User is not Authorized!!...\n      POP \t\t\tvert(\"User is not Authorized!!...\n      JUMP \t\t\tvert(\"User is not Authorized!!...\n    tag 54\t\t\t\n      JUMPDEST \t\t\t\n      PUSH [tag] 106\t\t\t\n      DUP2 \t\t\t\n      PUSH [tag] 53\t\t\t\n      JUMP \t\t\t\n    tag 106\t\t\t\n      JUMPDEST \t\t\t\n      DUP2 \t\t\t\n      EQ \t\t\t\n      PUSH [tag] 107\t\t\t\n      JUMPI \t\t\t\n      PUSH 0\t\t\t\n      DUP1 \t\t\t\n      REVERT \t\t\t\n    tag 107\t\t\t\n      JUMPDEST \t\t\t\n      POP \t\t\t\n      JUMP \t\t\t\n    tag 55\t\t\t\n      JUMPDEST \t\t\t\n      PUSH 0\t\t\t\n      DUP2 \t\t\t\n      CALLDATALOAD \t\t\t\n      SWAP1 \t\t\t\n      POP \t\t\t\n      PUSH [tag] 109\t\t\t\n      DUP2 \t\t\t\n      PUSH [tag] 54\t\t\t\n      JUMP \t\t\t\n    tag 109\t\t\t\n      JUMPDEST \t\t\t\n      SWAP3 \t\t\t\n      SWAP2 \t\t\t\n      POP \t\t\t\n      POP \t\t\t\n      JUMP \t\t\t\n    tag 56\t\t\t\n      JUMPDEST \t\t\t\n      PUSH 0\t\t\t\n      PUSH [tag] 111\t\t\t\n      PUSH [tag] 112\t\t\t\n      DUP5 \t\t\t\n      PUSH [tag] 50\t\t\t\n      JUMP \t\t\t\n    tag 112\t\t\t\n      JUMPDEST \t\t\t\n      PUSH [tag] 49\t\t\t\n      JUMP \t\t\t\n    tag 111\t\t\t\n      JUMPDEST \t\t\t\n      SWAP1 \t\t\t\n      POP \t\t\t\n      DUP1 \t\t\t\n      DUP4 \t\t\t\n      DUP3 \t\t\t\n      MSTORE \t\t\t\n      PUSH 20\t\t\t\n      DUP3 \t\t\t\n      ADD \t\t\t\n      SWAP1 \t\t\t\n      POP \t\t\t\n      PUSH 20\t\t\t\n      DUP5 \t\t\t\n      MUL \t\t\t\n      DUP4 \t\t\t\n      ADD \t\t\t\n      DUP6 \t\t\t\n      DUP2 \t\t\t\n      GT \t\t\t\n      ISZERO \t\t\t\n      PUSH [tag] 113\t\t\t\n      JUMPI \t\t\t\n      PUSH [tag] 114\t\t\t\n      PUSH [tag] 51\t\t\t\n      JUMP \t\t\t\n    tag 114\t\t\t\n      JUMPDEST \t\t\t\n    tag 113\t\t\t\n      JUMPDEST \t\t\t\n      DUP4 \t\t\t\n    tag 115\t\t\t\n      JUMPDEST \t\t\t\n      DUP2 \t\t\t\n      DUP2 \t\t\t\n      LT \t\t\t\n      ISZERO \t\t\t\n      PUSH [tag] 117\t\t\t\n      JUMPI \t\t\t\n      DUP1 \t\t\t\n      PUSH [tag] 118\t\t\t\n      DUP9 \t\t\t\n      DUP3 \t\t\t\n      PUSH [tag] 55\t\t\t\n      JUMP \t\t\t\n    tag 118\t\t\t\n      JUMPDEST \t\t\t\n      DUP5 \t\t\t\n      MSTORE \t\t\t\n      PUSH 20\t\t\t\n      DUP5 \t\t\t\n      ADD \t\t\t\n      SWAP4 \t\t\t\n      POP \t\t\t\n      POP \t\t\t\n      PUSH 20\t\t\t\n      DUP2 \t\t\t\n      ADD \t\t\t\n      SWAP1 \t\t\t\n      POP \t\t\t\n      PUSH [tag] 115\t\t\t\n      JUMP \t\t\t\n    tag 117\t\t\t\n      JUMPDEST \t\t\t\n      POP \t\t\t\n      POP \t\t\t\n      POP \t\t\t\n      SWAP4 \t\t\t\n      SWAP3 \t\t\t\n      POP \t\t\t\n      POP \t\t\t\n      POP \t\t\t\n      JUMP \t\t\t\n    tag 57\t\t\t\n      JUMPDEST \t\t\t\n      PUSH 0\t\t\t\n      DUP3 \t\t\t\n      PUSH 1F\t\t\t\n      DUP4 \t\t\t\n      ADD \t\t\t\n      SLT \t\t\t\n      PUSH [tag] 120\t\t\t\n      JUMPI \t\t\t\n      PUSH [tag] 121\t\t\t\n      PUSH [tag] 45\t\t\t\n      JUMP \t\t\t\n    tag 121\t\t\t\n      JUMPDEST \t\t\t\n    tag 120\t\t\t\n      JUMPDEST \t\t\t\n      DUP2 \t\t\t\n      CALLDATALOAD \t\t\t\n      PUSH [tag] 122\t\t\t\n      DUP5 \t\t\t\n      DUP3 \t\t\t\n      PUSH 20\t\t\t\n      DUP7 \t\t\t\n      ADD \t\t\t\n      PUSH [tag] 56\t\t\t\n      JUMP \t\t\t\n    tag 122\t\t\t\n      JUMPDEST \t\t\t\n      SWAP2 \t\t\t\n      POP \t\t\t\n      POP \t\t\t\n      SWAP3 \t\t\t\n      SWAP2 \t\t\t\n      POP \t\t\t\n      POP \t\t\t\n      JUMP \t\t\t\n    tag 58\t\t\t\n      JUMPDEST \t\t\t\n      PUSH 0\t\t\t\n      DUP2 \t\t\t\n      SWAP1 \t\t\t\n      POP \t\t\t\n      SWAP2 \t\t\t\n      SWAP1 \t\t\t\n      POP \t\t\t\n      JUMP \t\t\t\n    tag 59\t\t\t\n      JUMPDEST \t\t\t\n      PUSH [tag] 125\t\t\t\n      DUP2 \t\t\t\n      PUSH [tag] 58\t\t\t\n      JUMP \t\t\t\n    tag 125\t\t\t\n      JUMPDEST \t\t\t\n      DUP2 \t\t\t\n      EQ \t\t\t\n      PUSH [tag] 126\t\t\t\n      JUMPI \t\t\t\n      PUSH 0\t\t\t\n      DUP1 \t\t\t\n      REVERT \t\t\t\n    tag 126\t\t\t\n      JUMPDEST \t\t\t\n      POP \t\t\t\n      JUMP \t\t\t\n    tag 60\t\t\t\n      JUMPDEST \t\t\t\n      PUSH 0\t\t\t\n      DUP2 \t\t\t\n      CALLDATALOAD \t\t\t\n      SWAP1 \t\t\t\n      POP \t\t\t\n      PUSH [tag] 128\t\t\t\n      DUP2 \t\t\t\n      PUSH [tag] 59\t\t\t\n      JUMP \t\t\t\n    tag 128\t\t\t\n      JUMPDEST \t\t\t\n      SWAP3 \t\t\t\n      SWAP2 \t\t\t\n      POP \t\t\t\n      POP \t\t\t\n      JUMP \t\t\t\n    tag 61\t\t\t\n      JUMPDEST \t\t\t\n      PUSH 0\t\t\t\n      DUP2 \t\t\t\n      SWAP1 \t\t\t\n      POP \t\t\t\n      SWAP2 \t\t\t\n      SWAP1 \t\t\t\n      POP \t\t\t\n      JUMP \t\t\t\n    tag 62\t\t\t\n      JUMPDEST \t\t\t\n      PUSH [tag] 131\t\t\t\n      DUP2 \t\t\t\n      PUSH [tag] 61\t\t\t\n      JUMP \t\t\t\n    tag 131\t\t\t\n      JUMPDEST \t\t\t\n      DUP2 \t\t\t\n      EQ \t\t\t\n      PUSH [tag] 132\t\t\t\n      JUMPI \t\t\t\n      PUSH 0\t\t\t\n      DUP1 \t\t\t\n      REVERT \t\t\t\n    tag 132\t\t\t\n      JUMPDEST \t\t\t\n      POP \t\t\t\n      JUMP \t\t\t\n    tag 63\t\t\t\n      JUMPDEST \t\t\t\n      PUSH 0\t\t\t\n      DUP2 \t\t\t\n      CALLDATALOAD \t\t\t\n      SWAP1 \t\t\t\n      POP \t\t\t\n      PUSH [tag] 134\t\t\t\n      DUP2 \t\t\t\n      PUSH [tag] 62\t\t\t\n      JUMP \t\t\t\n    tag 134\t\t\t\n      JUMPDEST \t\t\t\n      SWAP3 \t\t\t\n      SWAP2 \t\t\t\n      POP \t\t\t\n      POP \t\t\t\n      JUMP \t\t\t\n    tag 64\t\t\t\n      JUMPDEST \t\t\t\n      PUSH 0\t\t\t\n      PUSH FF\t\t\t\n      DUP3 \t\t\t\n      AND \t\t\t\n      SWAP1 \t\t\t\n      POP \t\t\t\n      SWAP2 \t\t\t\n      SWAP1 \t\t\t\n      POP \t\t\t\n      JUMP \t\t\t\n    tag 65\t\t\t\n      JUMPDEST \t\t\t\n      PUSH [tag] 137\t\t\t\n      DUP2 \t\t\t\n      PUSH [tag] 64\t\t\t\n      JUMP \t\t\t\n    tag 137\t\t\t\n      JUMPDEST \t\t\t\n      DUP2 \t\t\t\n      EQ \t\t\t\n      PUSH [tag] 138\t\t\t\n      JUMPI \t\t\t\n      PUSH 0\t\t\t\n      DUP1 \t\t\t\n      REVERT \t\t\t\n    tag 138\t\t\t\n      JUMPDEST \t\t\t\n      POP \t\t\t\n      JUMP \t\t\t\n    tag 66\t\t\t\n      JUMPDEST \t\t\t\n      PUSH 0\t\t\t\n      DUP2 \t\t\t\n      CALLDATALOAD \t\t\t\n      SWAP1 \t\t\t\n      POP \t\t\t\n      PUSH [tag] 140\t\t\t\n      DUP2 \t\t\t\n      PUSH [tag] 65\t\t\t\n      JUMP \t\t\t\n    tag 140\t\t\t\n      JUMPDEST \t\t\t\n      SWAP3 \t\t\t\n      SWAP2 \t\t\t\n      POP \t\t\t\n      POP \t\t\t\n      JUMP \t\t\t\n    tag 6\t\t\t\n      JUMPDEST \t\t\t\n      PUSH 0\t\t\t\n      DUP1 \t\t\t\n      PUSH 0\t\t\t\n      DUP1 \t\t\t\n      PUSH 0\t\t\t\n      DUP1 \t\t\t\n      PUSH 0\t\t\t\n      DUP1 \t\t\t\n      PUSH 100\t\t\t\n      DUP10 \t\t\t\n      DUP12 \t\t\t\n      SUB \t\t\t\n      SLT \t\t\t\n      ISZERO \t\t\t\n      PUSH [tag] 142\t\t\t\n      JUMPI \t\t\t\n      PUSH [tag] 143\t\t\t\n      PUSH [tag] 43\t\t\t\n      JUMP \t\t\t\n    tag 143\t\t\t\n      JUMPDEST \t\t\t\n    tag 142\t\t\t\n      JUMPDEST \t\t\t\n      PUSH 0\t\t\t\n      DUP10 \t\t\t\n      ADD \t\t\t\n      CALLDATALOAD \t\t\t\n      PUSH FFFFFFFFFFFFFFFF\t\t\t\n      DUP2 \t\t\t\n      GT \t\t\t\n      ISZERO \t\t\t\n      PUSH [tag] 144\t\t\t\n      JUMPI \t\t\t\n      PUSH [tag] 145\t\t\t\n      PUSH [tag] 44\t\t\t\n      JUMP \t\t\t\n    tag 145\t\t\t\n      JUMPDEST \t\t\t\n    tag 144\t\t\t\n      JUMPDEST \t\t\t\n      PUSH [tag] 146\t\t\t\n      DUP12 \t\t\t\n      DUP3 \t\t\t\n      DUP13 \t\t\t\n      ADD \t\t\t\n      PUSH [tag] 57\t\t\t\n      JUMP \t\t\t\n    tag 146\t\t\t\n      JUMPDEST \t\t\t\n      SWAP9 \t\t\t\n      POP \t\t\t\n      POP \t\t\t\n      PUSH 20\t\t\t\n      PUSH [tag] 147\t\t\t\n      DUP12 \t\t\t\n      DUP3 \t\t\t\n      DUP13 \t\t\t\n      ADD \t\t\t\n      PUSH [tag] 60\t\t\t\n      JUMP \t\t\t\n    tag 147\t\t\t\n      JUMPDEST \t\t\t\n      SWAP8 \t\t\t\n      POP \t\t\t\n      POP \t\t\t\n      PUSH 40\t\t\t\n      PUSH [tag] 148\t\t\t\n      DUP12 \t\t\t\n      DUP3 \t\t\t\n      DUP13 \t\t\t\n      ADD \t\t\t\n      PUSH [tag] 60\t\t\t\n      JUMP \t\t\t\n    tag 148\t\t\t\n      JUMPDEST \t\t\t\n      SWAP7 \t\t\t\n      POP \t\t\t\n      POP \t\t\t\n      PUSH 60\t\t\t\n      PUSH [tag] 149\t\t\t\n      DUP12 \t\t\t\n      DUP3 \t\t\t\n      DUP13 \t\t\t\n      ADD \t\t\t\n      PUSH [tag] 60\t\t\t\n      JUMP \t\t\t\n    tag 149\t\t\t\n      JUMPDEST \t\t\t\n      SWAP6 \t\t\t\n      POP \t\t\t\n      POP \t\t\t\n      PUSH 80\t\t\t\n      PUSH [tag] 150\t\t\t\n      DUP12 \t\t\t\n      DUP3 \t\t\t\n      DUP13 \t\t\t\n      ADD \t\t\t\n      PUSH [tag] 63\t\t\t\n      JUMP \t\t\t\n    tag 150\t\t\t\n      JUMPDEST \t\t\t\n      SWAP5 \t\t\t\n      POP \t\t\t\n      POP \t\t\t\n      PUSH A0\t\t\t\n      PUSH [tag] 151\t\t\t\n      DUP12 \t\t\t\n      DUP3 \t\t\t\n      DUP13 \t\t\t\n      ADD \t\t\t\n      PUSH [tag] 66\t\t\t\n      JUMP \t\t\t\n    tag 151\t\t\t\n      JUMPDEST \t\t\t\n      SWAP4 \t\t\t\n      POP \t\t\t\n      POP \t\t\t\n      PUSH C0\t\t\t\n      PUSH [tag] 152\t\t\t\n      DUP12 \t\t\t\n      DUP3 \t\t\t\n      DUP13 \t\t\t\n      ADD \t\t\t\n      PUSH [tag] 63\t\t\t\n      JUMP \t\t\t\n    tag 152\t\t\t\n      JUMPDEST \t\t\t\n      SWAP3 \t\t\t\n      POP \t\t\t\n      POP \t\t\t\n      PUSH E0\t\t\t\n      PUSH [tag] 153\t\t\t\n      DUP12 \t\t\t\n      DUP3 \t\t\t\n      DUP13 \t\t\t\n      ADD \t\t\t\n      PUSH [tag] 63\t\t\t\n      JUMP \t\t\t\n    tag 153\t\t\t\n      JUMPDEST \t\t\t\n      SWAP2 \t\t\t\n      POP \t\t\t\n      POP \t\t\t\n      SWAP3 \t\t\t\n      SWAP6 \t\t\t\n      SWAP9 \t\t\t\n      POP \t\t\t\n      SWAP3 \t\t\t\n      SWAP6 \t\t\t\n      SWAP9 \t\t\t\n      SWAP1 \t\t\t\n      SWAP4 \t\t\t\n      SWAP7 \t\t\t\n      POP \t\t\t\n      JUMP \t\t\t\n    tag 11\t\t\t\n      JUMPDEST \t\t\t\n      PUSH 0\t\t\t\n      DUP1 \t\t\t\n      PUSH 0\t\t\t\n      DUP1 \t\t\t\n      PUSH 80\t\t\t\n      DUP6 \t\t\t\n      DUP8 \t\t\t\n      SUB \t\t\t\n      SLT \t\t\t\n      ISZERO \t\t\t\n      PUSH [tag] 155\t\t\t\n      JUMPI \t\t\t\n      PUSH [tag] 156\t\t\t\n      PUSH [tag] 43\t\t\t\n      JUMP \t\t\t\n    tag 156\t\t\t\n      JUMPDEST \t\t\t\n    tag 155\t\t\t\n      JUMPDEST \t\t\t\n      PUSH 0\t\t\t\n      PUSH [tag] 157\t\t\t\n      DUP8 \t\t\t\n      DUP3 \t\t\t\n      DUP9 \t\t\t\n      ADD \t\t\t\n      PUSH [tag] 63\t\t\t\n      JUMP \t\t\t\n    tag 157\t\t\t\n      JUMPDEST \t\t\t\n      SWAP5 \t\t\t\n      POP \t\t\t\n      POP \t\t\t\n      PUSH 20\t\t\t\n      PUSH [tag] 158\t\t\t\n      DUP8 \t\t\t\n      DUP3 \t\t\t\n      DUP9 \t\t\t\n      ADD \t\t\t\n      PUSH [tag] 66\t\t\t\n      JUMP \t\t\t\n    tag 158\t\t\t\n      JUMPDEST \t\t\t\n      SWAP4 \t\t\t\n      POP \t\t\t\n      POP \t\t\t\n      PUSH 40\t\t\t\n      PUSH [tag] 159\t\t\t\n      DUP8 \t\t\t\n      DUP3 \t\t\t\n      DUP9 \t\t\t\n      ADD \t\t\t\n      PUSH [tag] 63\t\t\t\n      JUMP \t\t\t\n    tag 159\t\t\t\n      JUMPDEST \t\t\t\n      SWAP3 \t\t\t\n      POP \t\t\t\n      POP \t\t\t\n      PUSH 60\t\t\t\n      PUSH [tag] 160\t\t\t\n      DUP8 \t\t\t\n      DUP3 \t\t\t\n      DUP9 \t\t\t\n      ADD \t\t\t\n      PUSH [tag] 63\t\t\t\n      JUMP \t\t\t\n    tag 160\t\t\t\n      JUMPDEST \t\t\t\n      SWAP2 \t\t\t\n      POP \t\t\t\n      POP \t\t\t\n      SWAP3 \t\t\t\n      SWAP6 \t\t\t\n      SWAP2 \t\t\t\n      SWAP5 \t\t\t\n      POP \t\t\t\n      SWAP3 \t\t\t\n      POP \t\t\t\n      JUMP \t\t\t\n    tag 67\t\t\t\n      JUMPDEST \t\t\t\n      PUSH 0\t\t\t\n      DUP3 \t\t\t\n      DUP3 \t\t\t\n      MSTORE \t\t\t\n      PUSH 20\t\t\t\n      DUP3 \t\t\t\n      ADD \t\t\t\n      SWAP1 \t\t\t\n      POP \t\t\t\n      SWAP3 \t\t\t\n      SWAP2 \t\t\t\n      POP \t\t\t\n      POP \t\t\t\n      JUMP \t\t\t\n    tag 68\t\t\t\n      JUMPDEST \t\t\t\n      PUSH 496E73756666696369656E742062616C616E6365000000000000000000000000\t\t\t\n      PUSH 0\t\t\t\n      DUP3 \t\t\t\n      ADD \t\t\t\n      MSTORE \t\t\t\n      POP \t\t\t\n      JUMP \t\t\t\n    tag 69\t\t\t\n      JUMPDEST \t\t\t\n      PUSH 0\t\t\t\n      PUSH [tag] 164\t\t\t\n      PUSH 14\t\t\t\n      DUP4 \t\t\t\n      PUSH [tag] 67\t\t\t\n      JUMP \t\t\t\n    tag 164\t\t\t\n      JUMPDEST \t\t\t\n      SWAP2 \t\t\t\n      POP \t\t\t\n      PUSH [tag] 165\t\t\t\n      DUP3 \t\t\t\n      PUSH [tag] 68\t\t\t\n      JUMP \t\t\t\n    tag 165\t\t\t\n      JUMPDEST \t\t\t\n      PUSH 20\t\t\t\n      DUP3 \t\t\t\n      ADD \t\t\t\n      SWAP1 \t\t\t\n      POP \t\t\t\n      SWAP2 \t\t\t\n      SWAP1 \t\t\t\n      POP \t\t\t\n      JUMP \t\t\t\n    tag 17\t\t\t\n      JUMPDEST \t\t\t\n      PUSH 0\t\t\t\n      PUSH 20\t\t\t\n      DUP3 \t\t\t\n      ADD \t\t\t\n      SWAP1 \t\t\t\n      POP \t\t\t\n      DUP2 \t\t\t\n      DUP2 \t\t\t\n      SUB \t\t\t\n      PUSH 0\t\t\t\n      DUP4 \t\t\t\n      ADD \t\t\t\n      MSTORE \t\t\t\n      PUSH [tag] 167\t\t\t\n      DUP2 \t\t\t\n      PUSH [tag] 69\t\t\t\n      JUMP \t\t\t\n    tag 167\t\t\t\n      JUMPDEST \t\t\t\n      SWAP1 \t\t\t\n      POP \t\t\t\n      SWAP2 \t\t\t\n      SWAP1 \t\t\t\n      POP \t\t\t\n      JUMP \t\t\t\n    tag 24\t\t\t\n      JUMPDEST \t\t\t\n      PUSH 4E487B7100000000000000000000000000000000000000000000000000000000\t\t\t\n      PUSH 0\t\t\t\n      MSTORE \t\t\t\n      PUSH 32\t\t\t\n      PUSH 4\t\t\t\n      MSTORE \t\t\t\n      PUSH 24\t\t\t\n      PUSH 0\t\t\t\n      REVERT \t\t\t\n    tag 70\t\t\t\n      JUMPDEST \t\t\t\n      PUSH 5472616E73666572206661696C65640000000000000000000000000000000000\t\t\t\n      PUSH 0\t\t\t\n      DUP3 \t\t\t\n      ADD \t\t\t\n      MSTORE \t\t\t\n      POP \t\t\t\n      JUMP \t\t\t\n    tag 71\t\t\t\n      JUMPDEST \t\t\t\n      PUSH 0\t\t\t\n      PUSH [tag] 171\t\t\t\n      PUSH F\t\t\t\n      DUP4 \t\t\t\n      PUSH [tag] 67\t\t\t\n      JUMP \t\t\t\n    tag 171\t\t\t\n      JUMPDEST \t\t\t\n      SWAP2 \t\t\t\n      POP \t\t\t\n      PUSH [tag] 172\t\t\t\n      DUP3 \t\t\t\n      PUSH [tag] 70\t\t\t\n      JUMP \t\t\t\n    tag 172\t\t\t\n      JUMPDEST \t\t\t\n      PUSH 20\t\t\t\n      DUP3 \t\t\t\n      ADD \t\t\t\n      SWAP1 \t\t\t\n      POP \t\t\t\n      SWAP2 \t\t\t\n      SWAP1 \t\t\t\n      POP \t\t\t\n      JUMP \t\t\t\n    tag 28\t\t\t\n      JUMPDEST \t\t\t\n      PUSH 0\t\t\t\n      PUSH 20\t\t\t\n      DUP3 \t\t\t\n      ADD \t\t\t\n      SWAP1 \t\t\t\n      POP \t\t\t\n      DUP2 \t\t\t\n      DUP2 \t\t\t\n      SUB \t\t\t\n      PUSH 0\t\t\t\n      DUP4 \t\t\t\n      ADD \t\t\t\n      MSTORE \t\t\t\n      PUSH [tag] 174\t\t\t\n      DUP2 \t\t\t\n      PUSH [tag] 71\t\t\t\n      JUMP \t\t\t\n    tag 174\t\t\t\n      JUMPDEST \t\t\t\n      SWAP1 \t\t\t\n      POP \t\t\t\n      SWAP2 \t\t\t\n      SWAP1 \t\t\t\n      POP \t\t\t\n      JUMP \t\t\t\n    tag 72\t\t\t\n      JUMPDEST \t\t\t\n      PUSH 55736572206E6F7420456C696769626C65210000000000000000000000000000\t\t\t\n      PUSH 0\t\t\t\n      DUP3 \t\t\t\n      ADD \t\t\t\n      MSTORE \t\t\t\n      POP \t\t\t\n      JUMP \t\t\t\n    tag 73\t\t\t\n      JUMPDEST \t\t\t\n      PUSH 0\t\t\t\n      PUSH [tag] 177\t\t\t\n      PUSH 12\t\t\t\n      DUP4 \t\t\t\n      PUSH [tag] 67\t\t\t\n      JUMP \t\t\t\n    tag 177\t\t\t\n      JUMPDEST \t\t\t\n      SWAP2 \t\t\t\n      POP \t\t\t\n      PUSH [tag] 178\t\t\t\n      DUP3 \t\t\t\n      PUSH [tag] 72\t\t\t\n      JUMP \t\t\t\n    tag 178\t\t\t\n      JUMPDEST \t\t\t\n      PUSH 20\t\t\t\n      DUP3 \t\t\t\n      ADD \t\t\t\n      SWAP1 \t\t\t\n      POP \t\t\t\n      SWAP2 \t\t\t\n      SWAP1 \t\t\t\n      POP \t\t\t\n      JUMP \t\t\t\n    tag 31\t\t\t\n      JUMPDEST \t\t\t\n      PUSH 0\t\t\t\n      PUSH 20\t\t\t\n      DUP3 \t\t\t\n      ADD \t\t\t\n      SWAP1 \t\t\t\n      POP \t\t\t\n      DUP2 \t\t\t\n      DUP2 \t\t\t\n      SUB \t\t\t\n      PUSH 0\t\t\t\n      DUP4 \t\t\t\n      ADD \t\t\t\n      MSTORE \t\t\t\n      PUSH [tag] 180\t\t\t\n      DUP2 \t\t\t\n      PUSH [tag] 73\t\t\t\n      JUMP \t\t\t\n    tag 180\t\t\t\n      JUMPDEST \t\t\t\n      SWAP1 \t\t\t\n      POP \t\t\t\n      SWAP2 \t\t\t\n      SWAP1 \t\t\t\n      POP \t\t\t\n      JUMP \t\t\t\n    tag 74\t\t\t\n      JUMPDEST \t\t\t\n      PUSH 0\t\t\t\n      DUP2 \t\t\t\n      MLOAD \t\t\t\n      SWAP1 \t\t\t\n      POP \t\t\t\n      SWAP2 \t\t\t\n      SWAP1 \t\t\t\n      POP \t\t\t\n      JUMP \t\t\t\n    tag 75\t\t\t\n      JUMPDEST \t\t\t\n      PUSH 0\t\t\t\n      DUP2 \t\t\t\n      SWAP1 \t\t\t\n      POP \t\t\t\n      SWAP3 \t\t\t\n      SWAP2 \t\t\t\n      POP \t\t\t\n      POP \t\t\t\n      JUMP \t\t\t\n    tag 76\t\t\t\n      JUMPDEST \t\t\t\n      PUSH 0\t\t\t\n    tag 184\t\t\t\n      JUMPDEST \t\t\t\n      DUP4 \t\t\t\n      DUP2 \t\t\t\n      LT \t\t\t\n      ISZERO \t\t\t\n      PUSH [tag] 186\t\t\t\n      JUMPI \t\t\t\n      DUP1 \t\t\t\n      DUP3 \t\t\t\n      ADD \t\t\t\n      MLOAD \t\t\t\n      DUP2 \t\t\t\n      DUP5 \t\t\t\n      ADD \t\t\t\n      MSTORE \t\t\t\n      PUSH 20\t\t\t\n      DUP2 \t\t\t\n      ADD \t\t\t\n      SWAP1 \t\t\t\n      POP \t\t\t\n      PUSH [tag] 184\t\t\t\n      JUMP \t\t\t\n    tag 186\t\t\t\n      JUMPDEST \t\t\t\n      PUSH 0\t\t\t\n      DUP5 \t\t\t\n      DUP5 \t\t\t\n      ADD \t\t\t\n      MSTORE \t\t\t\n      POP \t\t\t\n      POP \t\t\t\n      POP \t\t\t\n      POP \t\t\t\n      JUMP \t\t\t\n    tag 77\t\t\t\n      JUMPDEST \t\t\t\n      PUSH 0\t\t\t\n      PUSH [tag] 188\t\t\t\n      DUP3 \t\t\t\n      PUSH [tag] 74\t\t\t\n      JUMP \t\t\t\n    tag 188\t\t\t\n      JUMPDEST \t\t\t\n      PUSH [tag] 189\t\t\t\n      DUP2 \t\t\t\n      DUP6 \t\t\t\n      PUSH [tag] 75\t\t\t\n      JUMP \t\t\t\n    tag 189\t\t\t\n      JUMPDEST \t\t\t\n      SWAP4 \t\t\t\n      POP \t\t\t\n      PUSH [tag] 190\t\t\t\n      DUP2 \t\t\t\n      DUP6 \t\t\t\n      PUSH 20\t\t\t\n      DUP7 \t\t\t\n      ADD \t\t\t\n      PUSH [tag] 76\t\t\t\n      JUMP \t\t\t\n    tag 190\t\t\t\n      JUMPDEST \t\t\t\n      DUP1 \t\t\t\n      DUP5 \t\t\t\n      ADD \t\t\t\n      SWAP2 \t\t\t\n      POP \t\t\t\n      POP \t\t\t\n      SWAP3 \t\t\t\n      SWAP2 \t\t\t\n      POP \t\t\t\n      POP \t\t\t\n      JUMP \t\t\t\n    tag 78\t\t\t\n      JUMPDEST \t\t\t\n      PUSH 0\t\t\t\n      DUP2 \t\t\t\n      SWAP1 \t\t\t\n      POP \t\t\t\n      SWAP2 \t\t\t\n      SWAP1 \t\t\t\n      POP \t\t\t\n      JUMP \t\t\t\n    tag 79\t\t\t\n      JUMPDEST \t\t\t\n      PUSH [tag] 193\t\t\t\n      PUSH [tag] 194\t\t\t\n      DUP3 \t\t\t\n      PUSH [tag] 61\t\t\t\n      JUMP \t\t\t\n    tag 194\t\t\t\n      JUMPDEST \t\t\t\n      PUSH [tag] 78\t\t\t\n      JUMP \t\t\t\n    tag 193\t\t\t\n      JUMPDEST \t\t\t\n      DUP3 \t\t\t\n      MSTORE \t\t\t\n      POP \t\t\t\n      POP \t\t\t\n      JUMP \t\t\t\n    tag 34\t\t\t\n      JUMPDEST \t\t\t\n      PUSH 0\t\t\t\n      PUSH [tag] 196\t\t\t\n      DUP3 \t\t\t\n      DUP6 \t\t\t\n      PUSH [tag] 77\t\t\t\n      JUMP \t\t\t\n    tag 196\t\t\t\n      JUMPDEST \t\t\t\n      SWAP2 \t\t\t\n      POP \t\t\t\n      PUSH [tag] 197\t\t\t\n      DUP3 \t\t\t\n      DUP5 \t\t\t\n      PUSH [tag] 79\t\t\t\n      JUMP \t\t\t\n    tag 197\t\t\t\n      JUMPDEST \t\t\t\n      PUSH 20\t\t\t\n      DUP3 \t\t\t\n      ADD \t\t\t\n      SWAP2 \t\t\t\n      POP \t\t\t\n      DUP2 \t\t\t\n      SWAP1 \t\t\t\n      POP \t\t\t\n      SWAP4 \t\t\t\n      SWAP3 \t\t\t\n      POP \t\t\t\n      POP \t\t\t\n      POP \t\t\t\n      JUMP \t\t\t\n    tag 80\t\t\t\n      JUMPDEST \t\t\t\n      PUSH [tag] 199\t\t\t\n      DUP2 \t\t\t\n      PUSH [tag] 61\t\t\t\n      JUMP \t\t\t\n    tag 199\t\t\t\n      JUMPDEST \t\t\t\n      DUP3 \t\t\t\n      MSTORE \t\t\t\n      POP \t\t\t\n      POP \t\t\t\n      JUMP \t\t\t\n    tag 81\t\t\t\n      JUMPDEST \t\t\t\n      PUSH [tag] 201\t\t\t\n      DUP2 \t\t\t\n      PUSH [tag] 64\t\t\t\n      JUMP \t\t\t\n    tag 201\t\t\t\n      JUMPDEST \t\t\t\n      DUP3 \t\t\t\n      MSTORE \t\t\t\n      POP \t\t\t\n      POP \t\t\t\n      JUMP \t\t\t\n    tag 36\t\t\t\n      JUMPDEST \t\t\t\n      PUSH 0\t\t\t\n      PUSH 80\t\t\t\n      DUP3 \t\t\t\n      ADD \t\t\t\n      SWAP1 \t\t\t\n      POP \t\t\t\n      PUSH [tag] 203\t\t\t\n      PUSH 0\t\t\t\n      DUP4 \t\t\t\n      ADD \t\t\t\n      DUP8 \t\t\t\n      PUSH [tag] 80\t\t\t\n      JUMP \t\t\t\n    tag 203\t\t\t\n      JUMPDEST \t\t\t\n      PUSH [tag] 204\t\t\t\n      PUSH 20\t\t\t\n      DUP4 \t\t\t\n      ADD \t\t\t\n      DUP7 \t\t\t\n      PUSH [tag] 81\t\t\t\n      JUMP \t\t\t\n    tag 204\t\t\t\n      JUMPDEST \t\t\t\n      PUSH [tag] 205\t\t\t\n      PUSH 40\t\t\t\n      DUP4 \t\t\t\n      ADD \t\t\t\n      DUP6 \t\t\t\n      PUSH [tag] 80\t\t\t\n      JUMP \t\t\t\n    tag 205\t\t\t\n      JUMPDEST \t\t\t\n      PUSH [tag] 206\t\t\t\n      PUSH 60\t\t\t\n      DUP4 \t\t\t\n      ADD \t\t\t\n      DUP5 \t\t\t\n      PUSH [tag] 80\t\t\t\n      JUMP \t\t\t\n    tag 206\t\t\t\n      JUMPDEST \t\t\t\n      SWAP6 \t\t\t\n      SWAP5 \t\t\t\n      POP \t\t\t\n      POP \t\t\t\n      POP \t\t\t\n      POP \t\t\t\n      POP \t\t\t\n      JUMP \t\t\t\n    tag 82\t\t\t\n      JUMPDEST \t\t\t\n      PUSH 55736572206973206E6F7420417574686F72697A656421212100000000000000\t\t\t\n      PUSH 0\t\t\t\n      DUP3 \t\t\t\n      ADD \t\t\t\n      MSTORE \t\t\t\n      POP \t\t\t\n      JUMP \t\t\t\n    tag 83\t\t\t\n      JUMPDEST \t\t\t\n      PUSH 0\t\t\t\n      PUSH [tag] 209\t\t\t\n      PUSH 19\t\t\t\n      DUP4 \t\t\t\n      PUSH [tag] 67\t\t\t\n      JUMP \t\t\t\n    tag 209\t\t\t\n      JUMPDEST \t\t\t\n      SWAP2 \t\t\t\n      POP \t\t\t\n      PUSH [tag] 210\t\t\t\n      DUP3 \t\t\t\n      PUSH [tag] 82\t\t\t\n      JUMP \t\t\t\n    tag 210\t\t\t\n      JUMPDEST \t\t\t\n      PUSH 20\t\t\t\n      DUP3 \t\t\t\n      ADD \t\t\t\n      SWAP1 \t\t\t\n      POP \t\t\t\n      SWAP2 \t\t\t\n      SWAP1 \t\t\t\n      POP \t\t\t\n      JUMP \t\t\t\n    tag 41\t\t\t\n      JUMPDEST \t\t\t\n      PUSH 0\t\t\t\n      PUSH 20\t\t\t\n      DUP3 \t\t\t\n      ADD \t\t\t\n      SWAP1 \t\t\t\n      POP \t\t\t\n      DUP2 \t\t\t\n      DUP2 \t\t\t\n      SUB \t\t\t\n      PUSH 0\t\t\t\n      DUP4 \t\t\t\n      ADD \t\t\t\n      MSTORE \t\t\t\n      PUSH [tag] 212\t\t\t\n      DUP2 \t\t\t\n      PUSH [tag] 83\t\t\t\n      JUMP \t\t\t\n    tag 212\t\t\t\n      JUMPDEST \t\t\t\n      SWAP1 \t\t\t\n      POP \t\t\t\n      SWAP2 \t\t\t\n      SWAP1 \t\t\t\n      POP \t\t\t\n      JUMP \t\t\t\n    .data\n"
}