{
	"compilerInput": "{\"language\":\"Solidity\",\"sources\":{\"users.sol\":{\"content\":\"// SPDX-License-Identifier: GPL-3.0\\r\\npragma solidity >=0.4.20 <0.9.0;\\r\\n\\r\\ncontract cryptoDoreaUsers {\\r\\n\\r\\n    mapping(address=>uint256) private _freeTrialTime;\\r\\n    mapping(address=>bool) private _freeTrialStatus;\\r\\n    mapping(address=>bool) private _paymentStatus;\\r\\n\\r\\n    constructor()  {\\r\\n\\r\\n\\r\\n    }\\r\\n\\r\\n   function freeTrialCheck(address usersAddress) public{\\r\\n        \\r\\n        bool trialCheck = _freeTrialTime[usersAddress] != 0;\\r\\n\\r\\n        if(trialCheck != true){\\r\\n\\r\\n            // add 14 days trial period to the first time deployment \\r\\n            _freeTrialTime[usersAddress] = block.timestamp; //+ (14 * 86400);\\r\\n            _freeTrialStatus[usersAddress] = true;\\r\\n\\r\\n        }else{\\r\\n\\r\\n            if(_freeTrialTime[usersAddress] <= block.timestamp){\\r\\n\\r\\n                _freeTrialTime[usersAddress] = 0;\\r\\n                _freeTrialStatus[usersAddress] = false;\\r\\n\\r\\n            }\\r\\n\\r\\n        }\\r\\n\\r\\n    }\\r\\n\\r\\n    function time(address _receipent) public view returns (uint256){\\r\\n\\r\\n        return  _freeTrialTime[_receipent];\\r\\n\\r\\n    }\\r\\n\\r\\n    // Transfer Ether to Loyal Customers\\r\\n    function pay(address _receipent) public payable{\\r\\n\\r\\n        freeTrialCheck(_receipent);\\r\\n\\r\\n        // check if user is on free trial or not (throws remaining days)\\r\\n        bool trialCheck = _freeTrialStatus[_receipent] != true;\\r\\n        if(trialCheck != true){\\r\\n            // add function to check if user is paid or not\\r\\n            require(msg.value > 0, \\\"You must send some Ether\\\");\\r\\n        }else{\\r\\n            revert(\\\"no need to pay!\\\");\\r\\n        }\\r\\n\\r\\n    }\\r\\n\\r\\n    \\r\\n    // get balance of contract address\\r\\n    function getBalance() public view returns(uint256){\\r\\n        return address(this).balance;\\r\\n    }\\r\\n\\r\\n}\"}},\"settings\":{\"optimizer\":{\"enabled\":false,\"runs\":200},\"outputSelection\":{\"*\":{\"\":[\"ast\"],\"*\":[\"abi\",\"metadata\",\"devdoc\",\"userdoc\",\"storageLayout\",\"evm.legacyAssembly\",\"evm.bytecode\",\"evm.deployedBytecode\",\"evm.methodIdentifiers\",\"evm.gasEstimates\",\"evm.assembly\"]}},\"remappings\":[]}}",
	"name": "cryptoDoreaUsers",
	"bytecode": {
		"linkReferences": {},
		"object": "608060405234801561000f575f80fd5b506105bf8061001d5f395ff3fe60806040526004361061003e575f3560e01c80630c11dedd1461004257806312065fe01461005e5780637c67a3e214610088578063f9a24dc0146100c4575b5f80fd5b61005c6004803603810190610057919061044d565b6100ec565b005b348015610069575f80fd5b506100726101dc565b60405161007f9190610490565b60405180910390f35b348015610093575f80fd5b506100ae60048036038101906100a9919061044d565b6101e3565b6040516100bb9190610490565b60405180910390f35b3480156100cf575f80fd5b506100ea60048036038101906100e5919061044d565b610228565b005b6100f581610228565b5f6001151560015f8473ffffffffffffffffffffffffffffffffffffffff1673ffffffffffffffffffffffffffffffffffffffff1681526020019081526020015f205f9054906101000a900460ff16151514159050600115158115151461019d575f3411610198576040517f08c379a000000000000000000000000000000000000000000000000000000000815260040161018f90610503565b60405180910390fd5b6101d8565b6040517f08c379a00000000000000000000000000000000000000000000000000000000081526004016101cf9061056b565b60405180910390fd5b5050565b5f47905090565b5f805f8373ffffffffffffffffffffffffffffffffffffffff1673ffffffffffffffffffffffffffffffffffffffff1681526020019081526020015f20549050919050565b5f805f808473ffffffffffffffffffffffffffffffffffffffff1673ffffffffffffffffffffffffffffffffffffffff1681526020019081526020015f205414159050600115158115151461031157425f808473ffffffffffffffffffffffffffffffffffffffff1673ffffffffffffffffffffffffffffffffffffffff1681526020019081526020015f20819055506001805f8473ffffffffffffffffffffffffffffffffffffffff1673ffffffffffffffffffffffffffffffffffffffff1681526020019081526020015f205f6101000a81548160ff0219169083151502179055506103eb565b425f808473ffffffffffffffffffffffffffffffffffffffff1673ffffffffffffffffffffffffffffffffffffffff1681526020019081526020015f2054116103ea575f805f8473ffffffffffffffffffffffffffffffffffffffff1673ffffffffffffffffffffffffffffffffffffffff1681526020019081526020015f20819055505f60015f8473ffffffffffffffffffffffffffffffffffffffff1673ffffffffffffffffffffffffffffffffffffffff1681526020019081526020015f205f6101000a81548160ff0219169083151502179055505b5b5050565b5f80fd5b5f73ffffffffffffffffffffffffffffffffffffffff82169050919050565b5f61041c826103f3565b9050919050565b61042c81610412565b8114610436575f80fd5b50565b5f8135905061044781610423565b92915050565b5f60208284031215610462576104616103ef565b5b5f61046f84828501610439565b91505092915050565b5f819050919050565b61048a81610478565b82525050565b5f6020820190506104a35f830184610481565b92915050565b5f82825260208201905092915050565b7f596f75206d7573742073656e6420736f6d6520457468657200000000000000005f82015250565b5f6104ed6018836104a9565b91506104f8826104b9565b602082019050919050565b5f6020820190508181035f83015261051a816104e1565b9050919050565b7f6e6f206e65656420746f207061792100000000000000000000000000000000005f82015250565b5f610555600f836104a9565b915061056082610521565b602082019050919050565b5f6020820190508181035f83015261058281610549565b905091905056fea26469706673582212205aa2f4032b16671a05e6f7eac0c4a39b5575e50abffdaa8f64b2eedc45f520cd64736f6c63430008160033",
		"opcodes": "PUSH1 0x80 PUSH1 0x40 MSTORE CALLVALUE DUP1 ISZERO PUSH2 0xF JUMPI PUSH0 DUP1 REVERT JUMPDEST POP PUSH2 0x5BF DUP1 PUSH2 0x1D PUSH0 CODECOPY PUSH0 RETURN INVALID PUSH1 0x80 PUSH1 0x40 MSTORE PUSH1 0x4 CALLDATASIZE LT PUSH2 0x3E JUMPI PUSH0 CALLDATALOAD PUSH1 0xE0 SHR DUP1 PUSH4 0xC11DEDD EQ PUSH2 0x42 JUMPI DUP1 PUSH4 0x12065FE0 EQ PUSH2 0x5E JUMPI DUP1 PUSH4 0x7C67A3E2 EQ PUSH2 0x88 JUMPI DUP1 PUSH4 0xF9A24DC0 EQ PUSH2 0xC4 JUMPI JUMPDEST PUSH0 DUP1 REVERT JUMPDEST PUSH2 0x5C PUSH1 0x4 DUP1 CALLDATASIZE SUB DUP2 ADD SWAP1 PUSH2 0x57 SWAP2 SWAP1 PUSH2 0x44D JUMP JUMPDEST PUSH2 0xEC JUMP JUMPDEST STOP JUMPDEST CALLVALUE DUP1 ISZERO PUSH2 0x69 JUMPI PUSH0 DUP1 REVERT JUMPDEST POP PUSH2 0x72 PUSH2 0x1DC JUMP JUMPDEST PUSH1 0x40 MLOAD PUSH2 0x7F SWAP2 SWAP1 PUSH2 0x490 JUMP JUMPDEST PUSH1 0x40 MLOAD DUP1 SWAP2 SUB SWAP1 RETURN JUMPDEST CALLVALUE DUP1 ISZERO PUSH2 0x93 JUMPI PUSH0 DUP1 REVERT JUMPDEST POP PUSH2 0xAE PUSH1 0x4 DUP1 CALLDATASIZE SUB DUP2 ADD SWAP1 PUSH2 0xA9 SWAP2 SWAP1 PUSH2 0x44D JUMP JUMPDEST PUSH2 0x1E3 JUMP JUMPDEST PUSH1 0x40 MLOAD PUSH2 0xBB SWAP2 SWAP1 PUSH2 0x490 JUMP JUMPDEST PUSH1 0x40 MLOAD DUP1 SWAP2 SUB SWAP1 RETURN JUMPDEST CALLVALUE DUP1 ISZERO PUSH2 0xCF JUMPI PUSH0 DUP1 REVERT JUMPDEST POP PUSH2 0xEA PUSH1 0x4 DUP1 CALLDATASIZE SUB DUP2 ADD SWAP1 PUSH2 0xE5 SWAP2 SWAP1 PUSH2 0x44D JUMP JUMPDEST PUSH2 0x228 JUMP JUMPDEST STOP JUMPDEST PUSH2 0xF5 DUP2 PUSH2 0x228 JUMP JUMPDEST PUSH0 PUSH1 0x1 ISZERO ISZERO PUSH1 0x1 PUSH0 DUP5 PUSH20 0xFFFFFFFFFFFFFFFFFFFFFFFFFFFFFFFFFFFFFFFF AND PUSH20 0xFFFFFFFFFFFFFFFFFFFFFFFFFFFFFFFFFFFFFFFF AND DUP2 MSTORE PUSH1 0x20 ADD SWAP1 DUP2 MSTORE PUSH1 0x20 ADD PUSH0 KECCAK256 PUSH0 SWAP1 SLOAD SWAP1 PUSH2 0x100 EXP SWAP1 DIV PUSH1 0xFF AND ISZERO ISZERO EQ ISZERO SWAP1 POP PUSH1 0x1 ISZERO ISZERO DUP2 ISZERO ISZERO EQ PUSH2 0x19D JUMPI PUSH0 CALLVALUE GT PUSH2 0x198 JUMPI PUSH1 0x40 MLOAD PUSH32 0x8C379A000000000000000000000000000000000000000000000000000000000 DUP2 MSTORE PUSH1 0x4 ADD PUSH2 0x18F SWAP1 PUSH2 0x503 JUMP JUMPDEST PUSH1 0x40 MLOAD DUP1 SWAP2 SUB SWAP1 REVERT JUMPDEST PUSH2 0x1D8 JUMP JUMPDEST PUSH1 0x40 MLOAD PUSH32 0x8C379A000000000000000000000000000000000000000000000000000000000 DUP2 MSTORE PUSH1 0x4 ADD PUSH2 0x1CF SWAP1 PUSH2 0x56B JUMP JUMPDEST PUSH1 0x40 MLOAD DUP1 SWAP2 SUB SWAP1 REVERT JUMPDEST POP POP JUMP JUMPDEST PUSH0 SELFBALANCE SWAP1 POP SWAP1 JUMP JUMPDEST PUSH0 DUP1 PUSH0 DUP4 PUSH20 0xFFFFFFFFFFFFFFFFFFFFFFFFFFFFFFFFFFFFFFFF AND PUSH20 0xFFFFFFFFFFFFFFFFFFFFFFFFFFFFFFFFFFFFFFFF AND DUP2 MSTORE PUSH1 0x20 ADD SWAP1 DUP2 MSTORE PUSH1 0x20 ADD PUSH0 KECCAK256 SLOAD SWAP1 POP SWAP2 SWAP1 POP JUMP JUMPDEST PUSH0 DUP1 PUSH0 DUP1 DUP5 PUSH20 0xFFFFFFFFFFFFFFFFFFFFFFFFFFFFFFFFFFFFFFFF AND PUSH20 0xFFFFFFFFFFFFFFFFFFFFFFFFFFFFFFFFFFFFFFFF AND DUP2 MSTORE PUSH1 0x20 ADD SWAP1 DUP2 MSTORE PUSH1 0x20 ADD PUSH0 KECCAK256 SLOAD EQ ISZERO SWAP1 POP PUSH1 0x1 ISZERO ISZERO DUP2 ISZERO ISZERO EQ PUSH2 0x311 JUMPI TIMESTAMP PUSH0 DUP1 DUP5 PUSH20 0xFFFFFFFFFFFFFFFFFFFFFFFFFFFFFFFFFFFFFFFF AND PUSH20 0xFFFFFFFFFFFFFFFFFFFFFFFFFFFFFFFFFFFFFFFF AND DUP2 MSTORE PUSH1 0x20 ADD SWAP1 DUP2 MSTORE PUSH1 0x20 ADD PUSH0 KECCAK256 DUP2 SWAP1 SSTORE POP PUSH1 0x1 DUP1 PUSH0 DUP5 PUSH20 0xFFFFFFFFFFFFFFFFFFFFFFFFFFFFFFFFFFFFFFFF AND PUSH20 0xFFFFFFFFFFFFFFFFFFFFFFFFFFFFFFFFFFFFFFFF AND DUP2 MSTORE PUSH1 0x20 ADD SWAP1 DUP2 MSTORE PUSH1 0x20 ADD PUSH0 KECCAK256 PUSH0 PUSH2 0x100 EXP DUP2 SLOAD DUP2 PUSH1 0xFF MUL NOT AND SWAP1 DUP4 ISZERO ISZERO MUL OR SWAP1 SSTORE POP PUSH2 0x3EB JUMP JUMPDEST TIMESTAMP PUSH0 DUP1 DUP5 PUSH20 0xFFFFFFFFFFFFFFFFFFFFFFFFFFFFFFFFFFFFFFFF AND PUSH20 0xFFFFFFFFFFFFFFFFFFFFFFFFFFFFFFFFFFFFFFFF AND DUP2 MSTORE PUSH1 0x20 ADD SWAP1 DUP2 MSTORE PUSH1 0x20 ADD PUSH0 KECCAK256 SLOAD GT PUSH2 0x3EA JUMPI PUSH0 DUP1 PUSH0 DUP5 PUSH20 0xFFFFFFFFFFFFFFFFFFFFFFFFFFFFFFFFFFFFFFFF AND PUSH20 0xFFFFFFFFFFFFFFFFFFFFFFFFFFFFFFFFFFFFFFFF AND DUP2 MSTORE PUSH1 0x20 ADD SWAP1 DUP2 MSTORE PUSH1 0x20 ADD PUSH0 KECCAK256 DUP2 SWAP1 SSTORE POP PUSH0 PUSH1 0x1 PUSH0 DUP5 PUSH20 0xFFFFFFFFFFFFFFFFFFFFFFFFFFFFFFFFFFFFFFFF AND PUSH20 0xFFFFFFFFFFFFFFFFFFFFFFFFFFFFFFFFFFFFFFFF AND DUP2 MSTORE PUSH1 0x20 ADD SWAP1 DUP2 MSTORE PUSH1 0x20 ADD PUSH0 KECCAK256 PUSH0 PUSH2 0x100 EXP DUP2 SLOAD DUP2 PUSH1 0xFF MUL NOT AND SWAP1 DUP4 ISZERO ISZERO MUL OR SWAP1 SSTORE POP JUMPDEST JUMPDEST POP POP JUMP JUMPDEST PUSH0 DUP1 REVERT JUMPDEST PUSH0 PUSH20 0xFFFFFFFFFFFFFFFFFFFFFFFFFFFFFFFFFFFFFFFF DUP3 AND SWAP1 POP SWAP2 SWAP1 POP JUMP JUMPDEST PUSH0 PUSH2 0x41C DUP3 PUSH2 0x3F3 JUMP JUMPDEST SWAP1 POP SWAP2 SWAP1 POP JUMP JUMPDEST PUSH2 0x42C DUP2 PUSH2 0x412 JUMP JUMPDEST DUP2 EQ PUSH2 0x436 JUMPI PUSH0 DUP1 REVERT JUMPDEST POP JUMP JUMPDEST PUSH0 DUP2 CALLDATALOAD SWAP1 POP PUSH2 0x447 DUP2 PUSH2 0x423 JUMP JUMPDEST SWAP3 SWAP2 POP POP JUMP JUMPDEST PUSH0 PUSH1 0x20 DUP3 DUP5 SUB SLT ISZERO PUSH2 0x462 JUMPI PUSH2 0x461 PUSH2 0x3EF JUMP JUMPDEST JUMPDEST PUSH0 PUSH2 0x46F DUP5 DUP3 DUP6 ADD PUSH2 0x439 JUMP JUMPDEST SWAP2 POP POP SWAP3 SWAP2 POP POP JUMP JUMPDEST PUSH0 DUP2 SWAP1 POP SWAP2 SWAP1 POP JUMP JUMPDEST PUSH2 0x48A DUP2 PUSH2 0x478 JUMP JUMPDEST DUP3 MSTORE POP POP JUMP JUMPDEST PUSH0 PUSH1 0x20 DUP3 ADD SWAP1 POP PUSH2 0x4A3 PUSH0 DUP4 ADD DUP5 PUSH2 0x481 JUMP JUMPDEST SWAP3 SWAP2 POP POP JUMP JUMPDEST PUSH0 DUP3 DUP3 MSTORE PUSH1 0x20 DUP3 ADD SWAP1 POP SWAP3 SWAP2 POP POP JUMP JUMPDEST PUSH32 0x596F75206D7573742073656E6420736F6D652045746865720000000000000000 PUSH0 DUP3 ADD MSTORE POP JUMP JUMPDEST PUSH0 PUSH2 0x4ED PUSH1 0x18 DUP4 PUSH2 0x4A9 JUMP JUMPDEST SWAP2 POP PUSH2 0x4F8 DUP3 PUSH2 0x4B9 JUMP JUMPDEST PUSH1 0x20 DUP3 ADD SWAP1 POP SWAP2 SWAP1 POP JUMP JUMPDEST PUSH0 PUSH1 0x20 DUP3 ADD SWAP1 POP DUP2 DUP2 SUB PUSH0 DUP4 ADD MSTORE PUSH2 0x51A DUP2 PUSH2 0x4E1 JUMP JUMPDEST SWAP1 POP SWAP2 SWAP1 POP JUMP JUMPDEST PUSH32 0x6E6F206E65656420746F20706179210000000000000000000000000000000000 PUSH0 DUP3 ADD MSTORE POP JUMP JUMPDEST PUSH0 PUSH2 0x555 PUSH1 0xF DUP4 PUSH2 0x4A9 JUMP JUMPDEST SWAP2 POP PUSH2 0x560 DUP3 PUSH2 0x521 JUMP JUMPDEST PUSH1 0x20 DUP3 ADD SWAP1 POP SWAP2 SWAP1 POP JUMP JUMPDEST PUSH0 PUSH1 0x20 DUP3 ADD SWAP1 POP DUP2 DUP2 SUB PUSH0 DUP4 ADD MSTORE PUSH2 0x582 DUP2 PUSH2 0x549 JUMP JUMPDEST SWAP1 POP SWAP2 SWAP1 POP JUMP INVALID LOG2 PUSH5 0x6970667358 0x22 SLT KECCAK256 GAS LOG2 DELEGATECALL SUB 0x2B AND PUSH8 0x1A05E6F7EAC0C4A3 SWAP12 SSTORE PUSH22 0xE50ABFFDAA8F64B2EEDC45F520CD64736F6C63430008 AND STOP CALLER "
	},
	"abi": [
		{
			"inputs": [],
			"stateMutability": "nonpayable",
			"type": "constructor"
		},
		{
			"inputs": [
				{
					"internalType": "address",
					"name": "usersAddress",
					"type": "address"
				}
			],
			"name": "freeTrialCheck",
			"outputs": [],
			"stateMutability": "nonpayable",
			"type": "function"
		},
		{
			"inputs": [],
			"name": "getBalance",
			"outputs": [
				{
					"internalType": "uint256",
					"name": "",
					"type": "uint256"
				}
			],
			"stateMutability": "view",
			"type": "function"
		},
		{
			"inputs": [
				{
					"internalType": "address",
					"name": "_receipent",
					"type": "address"
				}
			],
			"name": "pay",
			"outputs": [],
			"stateMutability": "payable",
			"type": "function"
		},
		{
			"inputs": [
				{
					"internalType": "address",
					"name": "_receipent",
					"type": "address"
				}
			],
			"name": "time",
			"outputs": [
				{
					"internalType": "uint256",
					"name": "",
					"type": "uint256"
				}
			],
			"stateMutability": "view",
			"type": "function"
		}
	],
	"storageLayout": {
		"storage": [
			{
				"astId": 5,
				"contract": "users.sol:cryptoDoreaUsers",
				"label": "_freeTrialTime",
				"offset": 0,
				"slot": "0",
				"type": "t_mapping(t_address,t_uint256)"
			},
			{
				"astId": 9,
				"contract": "users.sol:cryptoDoreaUsers",
				"label": "_freeTrialStatus",
				"offset": 0,
				"slot": "1",
				"type": "t_mapping(t_address,t_bool)"
			},
			{
				"astId": 13,
				"contract": "users.sol:cryptoDoreaUsers",
				"label": "_paymentStatus",
				"offset": 0,
				"slot": "2",
				"type": "t_mapping(t_address,t_bool)"
			}
		],
		"types": {
			"t_address": {
				"encoding": "inplace",
				"label": "address",
				"numberOfBytes": "20"
			},
			"t_bool": {
				"encoding": "inplace",
				"label": "bool",
				"numberOfBytes": "1"
			},
			"t_mapping(t_address,t_bool)": {
				"encoding": "mapping",
				"key": "t_address",
				"label": "mapping(address => bool)",
				"numberOfBytes": "32",
				"value": "t_bool"
			},
			"t_mapping(t_address,t_uint256)": {
				"encoding": "mapping",
				"key": "t_address",
				"label": "mapping(address => uint256)",
				"numberOfBytes": "32",
				"value": "t_uint256"
			},
			"t_uint256": {
				"encoding": "inplace",
				"label": "uint256",
				"numberOfBytes": "32"
			}
		}
	},
	"web3Deploy": "var cryptodoreausersContract = new web3.eth.Contract([{\"inputs\":[],\"stateMutability\":\"nonpayable\",\"type\":\"constructor\"},{\"inputs\":[{\"internalType\":\"address\",\"name\":\"usersAddress\",\"type\":\"address\"}],\"name\":\"freeTrialCheck\",\"outputs\":[],\"stateMutability\":\"nonpayable\",\"type\":\"function\"},{\"inputs\":[],\"name\":\"getBalance\",\"outputs\":[{\"internalType\":\"uint256\",\"name\":\"\",\"type\":\"uint256\"}],\"stateMutability\":\"view\",\"type\":\"function\"},{\"inputs\":[{\"internalType\":\"address\",\"name\":\"_receipent\",\"type\":\"address\"}],\"name\":\"pay\",\"outputs\":[],\"stateMutability\":\"payable\",\"type\":\"function\"},{\"inputs\":[{\"internalType\":\"address\",\"name\":\"_receipent\",\"type\":\"address\"}],\"name\":\"time\",\"outputs\":[{\"internalType\":\"uint256\",\"name\":\"\",\"type\":\"uint256\"}],\"stateMutability\":\"view\",\"type\":\"function\"}]);\nvar cryptodoreausers = cryptodoreausersContract.deploy({\n     data: '0x608060405234801561000f575f80fd5b506105bf8061001d5f395ff3fe60806040526004361061003e575f3560e01c80630c11dedd1461004257806312065fe01461005e5780637c67a3e214610088578063f9a24dc0146100c4575b5f80fd5b61005c6004803603810190610057919061044d565b6100ec565b005b348015610069575f80fd5b506100726101dc565b60405161007f9190610490565b60405180910390f35b348015610093575f80fd5b506100ae60048036038101906100a9919061044d565b6101e3565b6040516100bb9190610490565b60405180910390f35b3480156100cf575f80fd5b506100ea60048036038101906100e5919061044d565b610228565b005b6100f581610228565b5f6001151560015f8473ffffffffffffffffffffffffffffffffffffffff1673ffffffffffffffffffffffffffffffffffffffff1681526020019081526020015f205f9054906101000a900460ff16151514159050600115158115151461019d575f3411610198576040517f08c379a000000000000000000000000000000000000000000000000000000000815260040161018f90610503565b60405180910390fd5b6101d8565b6040517f08c379a00000000000000000000000000000000000000000000000000000000081526004016101cf9061056b565b60405180910390fd5b5050565b5f47905090565b5f805f8373ffffffffffffffffffffffffffffffffffffffff1673ffffffffffffffffffffffffffffffffffffffff1681526020019081526020015f20549050919050565b5f805f808473ffffffffffffffffffffffffffffffffffffffff1673ffffffffffffffffffffffffffffffffffffffff1681526020019081526020015f205414159050600115158115151461031157425f808473ffffffffffffffffffffffffffffffffffffffff1673ffffffffffffffffffffffffffffffffffffffff1681526020019081526020015f20819055506001805f8473ffffffffffffffffffffffffffffffffffffffff1673ffffffffffffffffffffffffffffffffffffffff1681526020019081526020015f205f6101000a81548160ff0219169083151502179055506103eb565b425f808473ffffffffffffffffffffffffffffffffffffffff1673ffffffffffffffffffffffffffffffffffffffff1681526020019081526020015f2054116103ea575f805f8473ffffffffffffffffffffffffffffffffffffffff1673ffffffffffffffffffffffffffffffffffffffff1681526020019081526020015f20819055505f60015f8473ffffffffffffffffffffffffffffffffffffffff1673ffffffffffffffffffffffffffffffffffffffff1681526020019081526020015f205f6101000a81548160ff0219169083151502179055505b5b5050565b5f80fd5b5f73ffffffffffffffffffffffffffffffffffffffff82169050919050565b5f61041c826103f3565b9050919050565b61042c81610412565b8114610436575f80fd5b50565b5f8135905061044781610423565b92915050565b5f60208284031215610462576104616103ef565b5b5f61046f84828501610439565b91505092915050565b5f819050919050565b61048a81610478565b82525050565b5f6020820190506104a35f830184610481565b92915050565b5f82825260208201905092915050565b7f596f75206d7573742073656e6420736f6d6520457468657200000000000000005f82015250565b5f6104ed6018836104a9565b91506104f8826104b9565b602082019050919050565b5f6020820190508181035f83015261051a816104e1565b9050919050565b7f6e6f206e65656420746f207061792100000000000000000000000000000000005f82015250565b5f610555600f836104a9565b915061056082610521565b602082019050919050565b5f6020820190508181035f83015261058281610549565b905091905056fea26469706673582212205aa2f4032b16671a05e6f7eac0c4a39b5575e50abffdaa8f64b2eedc45f520cd64736f6c63430008160033', \n     arguments: [\n     ]\n}).send({\n     from: web3.eth.accounts[0], \n     gas: '4700000'\n   }, function (e, contract){\n    console.log(e, contract);\n    if (typeof contract.address !== 'undefined') {\n         console.log('Contract mined! address: ' + contract.address + ' transactionHash: ' + contract.transactionHash);\n    }\n })",
	"functionHashes": {
		"f9a24dc0": "freeTrialCheck(address)",
		"12065fe0": "getBalance()",
		"0c11dedd": "pay(address)",
		"7c67a3e2": "time(address)"
	},
	"gasEstimates": {
		"Creation": {
			"codeDepositCost": "294200",
			"executionCost": "329",
			"totalCost": "294529"
		},
		"External": {
			"freeTrialCheck(address)": "49303",
			"getBalance()": "334",
			"pay(address)": "51833",
			"time(address)": "2851"
		}
	},
	"devdoc": {
		"kind": "dev",
		"methods": {},
		"version": 1
	},
	"userdoc": {
		"kind": "user",
		"methods": {},
		"version": 1
	},
	"Runtime Bytecode": {
		"immutableReferences": {},
		"linkReferences": {},
		"object": "60806040526004361061003e575f3560e01c80630c11dedd1461004257806312065fe01461005e5780637c67a3e214610088578063f9a24dc0146100c4575b5f80fd5b61005c6004803603810190610057919061044d565b6100ec565b005b348015610069575f80fd5b506100726101dc565b60405161007f9190610490565b60405180910390f35b348015610093575f80fd5b506100ae60048036038101906100a9919061044d565b6101e3565b6040516100bb9190610490565b60405180910390f35b3480156100cf575f80fd5b506100ea60048036038101906100e5919061044d565b610228565b005b6100f581610228565b5f6001151560015f8473ffffffffffffffffffffffffffffffffffffffff1673ffffffffffffffffffffffffffffffffffffffff1681526020019081526020015f205f9054906101000a900460ff16151514159050600115158115151461019d575f3411610198576040517f08c379a000000000000000000000000000000000000000000000000000000000815260040161018f90610503565b60405180910390fd5b6101d8565b6040517f08c379a00000000000000000000000000000000000000000000000000000000081526004016101cf9061056b565b60405180910390fd5b5050565b5f47905090565b5f805f8373ffffffffffffffffffffffffffffffffffffffff1673ffffffffffffffffffffffffffffffffffffffff1681526020019081526020015f20549050919050565b5f805f808473ffffffffffffffffffffffffffffffffffffffff1673ffffffffffffffffffffffffffffffffffffffff1681526020019081526020015f205414159050600115158115151461031157425f808473ffffffffffffffffffffffffffffffffffffffff1673ffffffffffffffffffffffffffffffffffffffff1681526020019081526020015f20819055506001805f8473ffffffffffffffffffffffffffffffffffffffff1673ffffffffffffffffffffffffffffffffffffffff1681526020019081526020015f205f6101000a81548160ff0219169083151502179055506103eb565b425f808473ffffffffffffffffffffffffffffffffffffffff1673ffffffffffffffffffffffffffffffffffffffff1681526020019081526020015f2054116103ea575f805f8473ffffffffffffffffffffffffffffffffffffffff1673ffffffffffffffffffffffffffffffffffffffff1681526020019081526020015f20819055505f60015f8473ffffffffffffffffffffffffffffffffffffffff1673ffffffffffffffffffffffffffffffffffffffff1681526020019081526020015f205f6101000a81548160ff0219169083151502179055505b5b5050565b5f80fd5b5f73ffffffffffffffffffffffffffffffffffffffff82169050919050565b5f61041c826103f3565b9050919050565b61042c81610412565b8114610436575f80fd5b50565b5f8135905061044781610423565b92915050565b5f60208284031215610462576104616103ef565b5b5f61046f84828501610439565b91505092915050565b5f819050919050565b61048a81610478565b82525050565b5f6020820190506104a35f830184610481565b92915050565b5f82825260208201905092915050565b7f596f75206d7573742073656e6420736f6d6520457468657200000000000000005f82015250565b5f6104ed6018836104a9565b91506104f8826104b9565b602082019050919050565b5f6020820190508181035f83015261051a816104e1565b9050919050565b7f6e6f206e65656420746f207061792100000000000000000000000000000000005f82015250565b5f610555600f836104a9565b915061056082610521565b602082019050919050565b5f6020820190508181035f83015261058281610549565b905091905056fea26469706673582212205aa2f4032b16671a05e6f7eac0c4a39b5575e50abffdaa8f64b2eedc45f520cd64736f6c63430008160033",
		"opcodes": "PUSH1 0x80 PUSH1 0x40 MSTORE PUSH1 0x4 CALLDATASIZE LT PUSH2 0x3E JUMPI PUSH0 CALLDATALOAD PUSH1 0xE0 SHR DUP1 PUSH4 0xC11DEDD EQ PUSH2 0x42 JUMPI DUP1 PUSH4 0x12065FE0 EQ PUSH2 0x5E JUMPI DUP1 PUSH4 0x7C67A3E2 EQ PUSH2 0x88 JUMPI DUP1 PUSH4 0xF9A24DC0 EQ PUSH2 0xC4 JUMPI JUMPDEST PUSH0 DUP1 REVERT JUMPDEST PUSH2 0x5C PUSH1 0x4 DUP1 CALLDATASIZE SUB DUP2 ADD SWAP1 PUSH2 0x57 SWAP2 SWAP1 PUSH2 0x44D JUMP JUMPDEST PUSH2 0xEC JUMP JUMPDEST STOP JUMPDEST CALLVALUE DUP1 ISZERO PUSH2 0x69 JUMPI PUSH0 DUP1 REVERT JUMPDEST POP PUSH2 0x72 PUSH2 0x1DC JUMP JUMPDEST PUSH1 0x40 MLOAD PUSH2 0x7F SWAP2 SWAP1 PUSH2 0x490 JUMP JUMPDEST PUSH1 0x40 MLOAD DUP1 SWAP2 SUB SWAP1 RETURN JUMPDEST CALLVALUE DUP1 ISZERO PUSH2 0x93 JUMPI PUSH0 DUP1 REVERT JUMPDEST POP PUSH2 0xAE PUSH1 0x4 DUP1 CALLDATASIZE SUB DUP2 ADD SWAP1 PUSH2 0xA9 SWAP2 SWAP1 PUSH2 0x44D JUMP JUMPDEST PUSH2 0x1E3 JUMP JUMPDEST PUSH1 0x40 MLOAD PUSH2 0xBB SWAP2 SWAP1 PUSH2 0x490 JUMP JUMPDEST PUSH1 0x40 MLOAD DUP1 SWAP2 SUB SWAP1 RETURN JUMPDEST CALLVALUE DUP1 ISZERO PUSH2 0xCF JUMPI PUSH0 DUP1 REVERT JUMPDEST POP PUSH2 0xEA PUSH1 0x4 DUP1 CALLDATASIZE SUB DUP2 ADD SWAP1 PUSH2 0xE5 SWAP2 SWAP1 PUSH2 0x44D JUMP JUMPDEST PUSH2 0x228 JUMP JUMPDEST STOP JUMPDEST PUSH2 0xF5 DUP2 PUSH2 0x228 JUMP JUMPDEST PUSH0 PUSH1 0x1 ISZERO ISZERO PUSH1 0x1 PUSH0 DUP5 PUSH20 0xFFFFFFFFFFFFFFFFFFFFFFFFFFFFFFFFFFFFFFFF AND PUSH20 0xFFFFFFFFFFFFFFFFFFFFFFFFFFFFFFFFFFFFFFFF AND DUP2 MSTORE PUSH1 0x20 ADD SWAP1 DUP2 MSTORE PUSH1 0x20 ADD PUSH0 KECCAK256 PUSH0 SWAP1 SLOAD SWAP1 PUSH2 0x100 EXP SWAP1 DIV PUSH1 0xFF AND ISZERO ISZERO EQ ISZERO SWAP1 POP PUSH1 0x1 ISZERO ISZERO DUP2 ISZERO ISZERO EQ PUSH2 0x19D JUMPI PUSH0 CALLVALUE GT PUSH2 0x198 JUMPI PUSH1 0x40 MLOAD PUSH32 0x8C379A000000000000000000000000000000000000000000000000000000000 DUP2 MSTORE PUSH1 0x4 ADD PUSH2 0x18F SWAP1 PUSH2 0x503 JUMP JUMPDEST PUSH1 0x40 MLOAD DUP1 SWAP2 SUB SWAP1 REVERT JUMPDEST PUSH2 0x1D8 JUMP JUMPDEST PUSH1 0x40 MLOAD PUSH32 0x8C379A000000000000000000000000000000000000000000000000000000000 DUP2 MSTORE PUSH1 0x4 ADD PUSH2 0x1CF SWAP1 PUSH2 0x56B JUMP JUMPDEST PUSH1 0x40 MLOAD DUP1 SWAP2 SUB SWAP1 REVERT JUMPDEST POP POP JUMP JUMPDEST PUSH0 SELFBALANCE SWAP1 POP SWAP1 JUMP JUMPDEST PUSH0 DUP1 PUSH0 DUP4 PUSH20 0xFFFFFFFFFFFFFFFFFFFFFFFFFFFFFFFFFFFFFFFF AND PUSH20 0xFFFFFFFFFFFFFFFFFFFFFFFFFFFFFFFFFFFFFFFF AND DUP2 MSTORE PUSH1 0x20 ADD SWAP1 DUP2 MSTORE PUSH1 0x20 ADD PUSH0 KECCAK256 SLOAD SWAP1 POP SWAP2 SWAP1 POP JUMP JUMPDEST PUSH0 DUP1 PUSH0 DUP1 DUP5 PUSH20 0xFFFFFFFFFFFFFFFFFFFFFFFFFFFFFFFFFFFFFFFF AND PUSH20 0xFFFFFFFFFFFFFFFFFFFFFFFFFFFFFFFFFFFFFFFF AND DUP2 MSTORE PUSH1 0x20 ADD SWAP1 DUP2 MSTORE PUSH1 0x20 ADD PUSH0 KECCAK256 SLOAD EQ ISZERO SWAP1 POP PUSH1 0x1 ISZERO ISZERO DUP2 ISZERO ISZERO EQ PUSH2 0x311 JUMPI TIMESTAMP PUSH0 DUP1 DUP5 PUSH20 0xFFFFFFFFFFFFFFFFFFFFFFFFFFFFFFFFFFFFFFFF AND PUSH20 0xFFFFFFFFFFFFFFFFFFFFFFFFFFFFFFFFFFFFFFFF AND DUP2 MSTORE PUSH1 0x20 ADD SWAP1 DUP2 MSTORE PUSH1 0x20 ADD PUSH0 KECCAK256 DUP2 SWAP1 SSTORE POP PUSH1 0x1 DUP1 PUSH0 DUP5 PUSH20 0xFFFFFFFFFFFFFFFFFFFFFFFFFFFFFFFFFFFFFFFF AND PUSH20 0xFFFFFFFFFFFFFFFFFFFFFFFFFFFFFFFFFFFFFFFF AND DUP2 MSTORE PUSH1 0x20 ADD SWAP1 DUP2 MSTORE PUSH1 0x20 ADD PUSH0 KECCAK256 PUSH0 PUSH2 0x100 EXP DUP2 SLOAD DUP2 PUSH1 0xFF MUL NOT AND SWAP1 DUP4 ISZERO ISZERO MUL OR SWAP1 SSTORE POP PUSH2 0x3EB JUMP JUMPDEST TIMESTAMP PUSH0 DUP1 DUP5 PUSH20 0xFFFFFFFFFFFFFFFFFFFFFFFFFFFFFFFFFFFFFFFF AND PUSH20 0xFFFFFFFFFFFFFFFFFFFFFFFFFFFFFFFFFFFFFFFF AND DUP2 MSTORE PUSH1 0x20 ADD SWAP1 DUP2 MSTORE PUSH1 0x20 ADD PUSH0 KECCAK256 SLOAD GT PUSH2 0x3EA JUMPI PUSH0 DUP1 PUSH0 DUP5 PUSH20 0xFFFFFFFFFFFFFFFFFFFFFFFFFFFFFFFFFFFFFFFF AND PUSH20 0xFFFFFFFFFFFFFFFFFFFFFFFFFFFFFFFFFFFFFFFF AND DUP2 MSTORE PUSH1 0x20 ADD SWAP1 DUP2 MSTORE PUSH1 0x20 ADD PUSH0 KECCAK256 DUP2 SWAP1 SSTORE POP PUSH0 PUSH1 0x1 PUSH0 DUP5 PUSH20 0xFFFFFFFFFFFFFFFFFFFFFFFFFFFFFFFFFFFFFFFF AND PUSH20 0xFFFFFFFFFFFFFFFFFFFFFFFFFFFFFFFFFFFFFFFF AND DUP2 MSTORE PUSH1 0x20 ADD SWAP1 DUP2 MSTORE PUSH1 0x20 ADD PUSH0 KECCAK256 PUSH0 PUSH2 0x100 EXP DUP2 SLOAD DUP2 PUSH1 0xFF MUL NOT AND SWAP1 DUP4 ISZERO ISZERO MUL OR SWAP1 SSTORE POP JUMPDEST JUMPDEST POP POP JUMP JUMPDEST PUSH0 DUP1 REVERT JUMPDEST PUSH0 PUSH20 0xFFFFFFFFFFFFFFFFFFFFFFFFFFFFFFFFFFFFFFFF DUP3 AND SWAP1 POP SWAP2 SWAP1 POP JUMP JUMPDEST PUSH0 PUSH2 0x41C DUP3 PUSH2 0x3F3 JUMP JUMPDEST SWAP1 POP SWAP2 SWAP1 POP JUMP JUMPDEST PUSH2 0x42C DUP2 PUSH2 0x412 JUMP JUMPDEST DUP2 EQ PUSH2 0x436 JUMPI PUSH0 DUP1 REVERT JUMPDEST POP JUMP JUMPDEST PUSH0 DUP2 CALLDATALOAD SWAP1 POP PUSH2 0x447 DUP2 PUSH2 0x423 JUMP JUMPDEST SWAP3 SWAP2 POP POP JUMP JUMPDEST PUSH0 PUSH1 0x20 DUP3 DUP5 SUB SLT ISZERO PUSH2 0x462 JUMPI PUSH2 0x461 PUSH2 0x3EF JUMP JUMPDEST JUMPDEST PUSH0 PUSH2 0x46F DUP5 DUP3 DUP6 ADD PUSH2 0x439 JUMP JUMPDEST SWAP2 POP POP SWAP3 SWAP2 POP POP JUMP JUMPDEST PUSH0 DUP2 SWAP1 POP SWAP2 SWAP1 POP JUMP JUMPDEST PUSH2 0x48A DUP2 PUSH2 0x478 JUMP JUMPDEST DUP3 MSTORE POP POP JUMP JUMPDEST PUSH0 PUSH1 0x20 DUP3 ADD SWAP1 POP PUSH2 0x4A3 PUSH0 DUP4 ADD DUP5 PUSH2 0x481 JUMP JUMPDEST SWAP3 SWAP2 POP POP JUMP JUMPDEST PUSH0 DUP3 DUP3 MSTORE PUSH1 0x20 DUP3 ADD SWAP1 POP SWAP3 SWAP2 POP POP JUMP JUMPDEST PUSH32 0x596F75206D7573742073656E6420736F6D652045746865720000000000000000 PUSH0 DUP3 ADD MSTORE POP JUMP JUMPDEST PUSH0 PUSH2 0x4ED PUSH1 0x18 DUP4 PUSH2 0x4A9 JUMP JUMPDEST SWAP2 POP PUSH2 0x4F8 DUP3 PUSH2 0x4B9 JUMP JUMPDEST PUSH1 0x20 DUP3 ADD SWAP1 POP SWAP2 SWAP1 POP JUMP JUMPDEST PUSH0 PUSH1 0x20 DUP3 ADD SWAP1 POP DUP2 DUP2 SUB PUSH0 DUP4 ADD MSTORE PUSH2 0x51A DUP2 PUSH2 0x4E1 JUMP JUMPDEST SWAP1 POP SWAP2 SWAP1 POP JUMP JUMPDEST PUSH32 0x6E6F206E65656420746F20706179210000000000000000000000000000000000 PUSH0 DUP3 ADD MSTORE POP JUMP JUMPDEST PUSH0 PUSH2 0x555 PUSH1 0xF DUP4 PUSH2 0x4A9 JUMP JUMPDEST SWAP2 POP PUSH2 0x560 DUP3 PUSH2 0x521 JUMP JUMPDEST PUSH1 0x20 DUP3 ADD SWAP1 POP SWAP2 SWAP1 POP JUMP JUMPDEST PUSH0 PUSH1 0x20 DUP3 ADD SWAP1 POP DUP2 DUP2 SUB PUSH0 DUP4 ADD MSTORE PUSH2 0x582 DUP2 PUSH2 0x549 JUMP JUMPDEST SWAP1 POP SWAP2 SWAP1 POP JUMP INVALID LOG2 PUSH5 0x6970667358 0x22 SLT KECCAK256 GAS LOG2 DELEGATECALL SUB 0x2B AND PUSH8 0x1A05E6F7EAC0C4A3 SWAP12 SSTORE PUSH22 0xE50ABFFDAA8F64B2EEDC45F520CD64736F6C63430008 AND STOP CALLER "
	},
	"Assembly": ".code\n  PUSH 80\t\t\tcontract cryptoDoreaUsers {\\r\\...\n  PUSH 40\t\t\tcontract cryptoDoreaUsers {\\r\\...\n  MSTORE \t\t\tcontract cryptoDoreaUsers {\\r\\...\n  CALLVALUE \t\t\tconstructor()  {\\r\\n\\r\\n\\r\\n  ...\n  DUP1 \t\t\tconstructor()  {\\r\\n\\r\\n\\r\\n  ...\n  ISZERO \t\t\tconstructor()  {\\r\\n\\r\\n\\r\\n  ...\n  PUSH [tag] 1\t\t\tconstructor()  {\\r\\n\\r\\n\\r\\n  ...\n  JUMPI \t\t\tconstructor()  {\\r\\n\\r\\n\\r\\n  ...\n  PUSH 0\t\t\tconstructor()  {\\r\\n\\r\\n\\r\\n  ...\n  DUP1 \t\t\tconstructor()  {\\r\\n\\r\\n\\r\\n  ...\n  REVERT \t\t\tconstructor()  {\\r\\n\\r\\n\\r\\n  ...\ntag 1\t\t\tconstructor()  {\\r\\n\\r\\n\\r\\n  ...\n  JUMPDEST \t\t\tconstructor()  {\\r\\n\\r\\n\\r\\n  ...\n  POP \t\t\tconstructor()  {\\r\\n\\r\\n\\r\\n  ...\n  PUSH #[$] 0000000000000000000000000000000000000000000000000000000000000000\t\t\tcontract cryptoDoreaUsers {\\r\\...\n  DUP1 \t\t\tcontract cryptoDoreaUsers {\\r\\...\n  PUSH [$] 0000000000000000000000000000000000000000000000000000000000000000\t\t\tcontract cryptoDoreaUsers {\\r\\...\n  PUSH 0\t\t\tcontract cryptoDoreaUsers {\\r\\...\n  CODECOPY \t\t\tcontract cryptoDoreaUsers {\\r\\...\n  PUSH 0\t\t\tcontract cryptoDoreaUsers {\\r\\...\n  RETURN \t\t\tcontract cryptoDoreaUsers {\\r\\...\n.data\n  0:\n    .code\n      PUSH 80\t\t\tcontract cryptoDoreaUsers {\\r\\...\n      PUSH 40\t\t\tcontract cryptoDoreaUsers {\\r\\...\n      MSTORE \t\t\tcontract cryptoDoreaUsers {\\r\\...\n      PUSH 4\t\t\tcontract cryptoDoreaUsers {\\r\\...\n      CALLDATASIZE \t\t\tcontract cryptoDoreaUsers {\\r\\...\n      LT \t\t\tcontract cryptoDoreaUsers {\\r\\...\n      PUSH [tag] 1\t\t\tcontract cryptoDoreaUsers {\\r\\...\n      JUMPI \t\t\tcontract cryptoDoreaUsers {\\r\\...\n      PUSH 0\t\t\tcontract cryptoDoreaUsers {\\r\\...\n      CALLDATALOAD \t\t\tcontract cryptoDoreaUsers {\\r\\...\n      PUSH E0\t\t\tcontract cryptoDoreaUsers {\\r\\...\n      SHR \t\t\tcontract cryptoDoreaUsers {\\r\\...\n      DUP1 \t\t\tcontract cryptoDoreaUsers {\\r\\...\n      PUSH C11DEDD\t\t\tcontract cryptoDoreaUsers {\\r\\...\n      EQ \t\t\tcontract cryptoDoreaUsers {\\r\\...\n      PUSH [tag] 2\t\t\tcontract cryptoDoreaUsers {\\r\\...\n      JUMPI \t\t\tcontract cryptoDoreaUsers {\\r\\...\n      DUP1 \t\t\tcontract cryptoDoreaUsers {\\r\\...\n      PUSH 12065FE0\t\t\tcontract cryptoDoreaUsers {\\r\\...\n      EQ \t\t\tcontract cryptoDoreaUsers {\\r\\...\n      PUSH [tag] 3\t\t\tcontract cryptoDoreaUsers {\\r\\...\n      JUMPI \t\t\tcontract cryptoDoreaUsers {\\r\\...\n      DUP1 \t\t\tcontract cryptoDoreaUsers {\\r\\...\n      PUSH 7C67A3E2\t\t\tcontract cryptoDoreaUsers {\\r\\...\n      EQ \t\t\tcontract cryptoDoreaUsers {\\r\\...\n      PUSH [tag] 4\t\t\tcontract cryptoDoreaUsers {\\r\\...\n      JUMPI \t\t\tcontract cryptoDoreaUsers {\\r\\...\n      DUP1 \t\t\tcontract cryptoDoreaUsers {\\r\\...\n      PUSH F9A24DC0\t\t\tcontract cryptoDoreaUsers {\\r\\...\n      EQ \t\t\tcontract cryptoDoreaUsers {\\r\\...\n      PUSH [tag] 5\t\t\tcontract cryptoDoreaUsers {\\r\\...\n      JUMPI \t\t\tcontract cryptoDoreaUsers {\\r\\...\n    tag 1\t\t\tcontract cryptoDoreaUsers {\\r\\...\n      JUMPDEST \t\t\tcontract cryptoDoreaUsers {\\r\\...\n      PUSH 0\t\t\tcontract cryptoDoreaUsers {\\r\\...\n      DUP1 \t\t\tcontract cryptoDoreaUsers {\\r\\...\n      REVERT \t\t\tcontract cryptoDoreaUsers {\\r\\...\n    tag 2\t\t\tfunction pay(address _receipen...\n      JUMPDEST \t\t\tfunction pay(address _receipen...\n      PUSH [tag] 6\t\t\tfunction pay(address _receipen...\n      PUSH 4\t\t\tfunction pay(address _receipen...\n      DUP1 \t\t\tfunction pay(address _receipen...\n      CALLDATASIZE \t\t\tfunction pay(address _receipen...\n      SUB \t\t\tfunction pay(address _receipen...\n      DUP2 \t\t\tfunction pay(address _receipen...\n      ADD \t\t\tfunction pay(address _receipen...\n      SWAP1 \t\t\tfunction pay(address _receipen...\n      PUSH [tag] 7\t\t\tfunction pay(address _receipen...\n      SWAP2 \t\t\tfunction pay(address _receipen...\n      SWAP1 \t\t\tfunction pay(address _receipen...\n      PUSH [tag] 8\t\t\tfunction pay(address _receipen...\n      JUMP \t\t\tfunction pay(address _receipen...\n    tag 7\t\t\tfunction pay(address _receipen...\n      JUMPDEST \t\t\tfunction pay(address _receipen...\n      PUSH [tag] 9\t\t\tfunction pay(address _receipen...\n      JUMP \t\t\tfunction pay(address _receipen...\n    tag 6\t\t\tfunction pay(address _receipen...\n      JUMPDEST \t\t\tfunction pay(address _receipen...\n      STOP \t\t\tfunction pay(address _receipen...\n    tag 3\t\t\tfunction getBalance() public v...\n      JUMPDEST \t\t\tfunction getBalance() public v...\n      CALLVALUE \t\t\tfunction getBalance() public v...\n      DUP1 \t\t\tfunction getBalance() public v...\n      ISZERO \t\t\tfunction getBalance() public v...\n      PUSH [tag] 10\t\t\tfunction getBalance() public v...\n      JUMPI \t\t\tfunction getBalance() public v...\n      PUSH 0\t\t\tfunction getBalance() public v...\n      DUP1 \t\t\tfunction getBalance() public v...\n      REVERT \t\t\tfunction getBalance() public v...\n    tag 10\t\t\tfunction getBalance() public v...\n      JUMPDEST \t\t\tfunction getBalance() public v...\n      POP \t\t\tfunction getBalance() public v...\n      PUSH [tag] 11\t\t\tfunction getBalance() public v...\n      PUSH [tag] 12\t\t\tfunction getBalance() public v...\n      JUMP \t\t\tfunction getBalance() public v...\n    tag 11\t\t\tfunction getBalance() public v...\n      JUMPDEST \t\t\tfunction getBalance() public v...\n      PUSH 40\t\t\tfunction getBalance() public v...\n      MLOAD \t\t\tfunction getBalance() public v...\n      PUSH [tag] 13\t\t\tfunction getBalance() public v...\n      SWAP2 \t\t\tfunction getBalance() public v...\n      SWAP1 \t\t\tfunction getBalance() public v...\n      PUSH [tag] 14\t\t\tfunction getBalance() public v...\n      JUMP \t\t\tfunction getBalance() public v...\n    tag 13\t\t\tfunction getBalance() public v...\n      JUMPDEST \t\t\tfunction getBalance() public v...\n      PUSH 40\t\t\tfunction getBalance() public v...\n      MLOAD \t\t\tfunction getBalance() public v...\n      DUP1 \t\t\tfunction getBalance() public v...\n      SWAP2 \t\t\tfunction getBalance() public v...\n      SUB \t\t\tfunction getBalance() public v...\n      SWAP1 \t\t\tfunction getBalance() public v...\n      RETURN \t\t\tfunction getBalance() public v...\n    tag 4\t\t\tfunction time(address _receipe...\n      JUMPDEST \t\t\tfunction time(address _receipe...\n      CALLVALUE \t\t\tfunction time(address _receipe...\n      DUP1 \t\t\tfunction time(address _receipe...\n      ISZERO \t\t\tfunction time(address _receipe...\n      PUSH [tag] 15\t\t\tfunction time(address _receipe...\n      JUMPI \t\t\tfunction time(address _receipe...\n      PUSH 0\t\t\tfunction time(address _receipe...\n      DUP1 \t\t\tfunction time(address _receipe...\n      REVERT \t\t\tfunction time(address _receipe...\n    tag 15\t\t\tfunction time(address _receipe...\n      JUMPDEST \t\t\tfunction time(address _receipe...\n      POP \t\t\tfunction time(address _receipe...\n      PUSH [tag] 16\t\t\tfunction time(address _receipe...\n      PUSH 4\t\t\tfunction time(address _receipe...\n      DUP1 \t\t\tfunction time(address _receipe...\n      CALLDATASIZE \t\t\tfunction time(address _receipe...\n      SUB \t\t\tfunction time(address _receipe...\n      DUP2 \t\t\tfunction time(address _receipe...\n      ADD \t\t\tfunction time(address _receipe...\n      SWAP1 \t\t\tfunction time(address _receipe...\n      PUSH [tag] 17\t\t\tfunction time(address _receipe...\n      SWAP2 \t\t\tfunction time(address _receipe...\n      SWAP1 \t\t\tfunction time(address _receipe...\n      PUSH [tag] 8\t\t\tfunction time(address _receipe...\n      JUMP \t\t\tfunction time(address _receipe...\n    tag 17\t\t\tfunction time(address _receipe...\n      JUMPDEST \t\t\tfunction time(address _receipe...\n      PUSH [tag] 18\t\t\tfunction time(address _receipe...\n      JUMP \t\t\tfunction time(address _receipe...\n    tag 16\t\t\tfunction time(address _receipe...\n      JUMPDEST \t\t\tfunction time(address _receipe...\n      PUSH 40\t\t\tfunction time(address _receipe...\n      MLOAD \t\t\tfunction time(address _receipe...\n      PUSH [tag] 19\t\t\tfunction time(address _receipe...\n      SWAP2 \t\t\tfunction time(address _receipe...\n      SWAP1 \t\t\tfunction time(address _receipe...\n      PUSH [tag] 14\t\t\tfunction time(address _receipe...\n      JUMP \t\t\tfunction time(address _receipe...\n    tag 19\t\t\tfunction time(address _receipe...\n      JUMPDEST \t\t\tfunction time(address _receipe...\n      PUSH 40\t\t\tfunction time(address _receipe...\n      MLOAD \t\t\tfunction time(address _receipe...\n      DUP1 \t\t\tfunction time(address _receipe...\n      SWAP2 \t\t\tfunction time(address _receipe...\n      SUB \t\t\tfunction time(address _receipe...\n      SWAP1 \t\t\tfunction time(address _receipe...\n      RETURN \t\t\tfunction time(address _receipe...\n    tag 5\t\t\tfunction freeTrialCheck(addres...\n      JUMPDEST \t\t\tfunction freeTrialCheck(addres...\n      CALLVALUE \t\t\tfunction freeTrialCheck(addres...\n      DUP1 \t\t\tfunction freeTrialCheck(addres...\n      ISZERO \t\t\tfunction freeTrialCheck(addres...\n      PUSH [tag] 20\t\t\tfunction freeTrialCheck(addres...\n      JUMPI \t\t\tfunction freeTrialCheck(addres...\n      PUSH 0\t\t\tfunction freeTrialCheck(addres...\n      DUP1 \t\t\tfunction freeTrialCheck(addres...\n      REVERT \t\t\tfunction freeTrialCheck(addres...\n    tag 20\t\t\tfunction freeTrialCheck(addres...\n      JUMPDEST \t\t\tfunction freeTrialCheck(addres...\n      POP \t\t\tfunction freeTrialCheck(addres...\n      PUSH [tag] 21\t\t\tfunction freeTrialCheck(addres...\n      PUSH 4\t\t\tfunction freeTrialCheck(addres...\n      DUP1 \t\t\tfunction freeTrialCheck(addres...\n      CALLDATASIZE \t\t\tfunction freeTrialCheck(addres...\n      SUB \t\t\tfunction freeTrialCheck(addres...\n      DUP2 \t\t\tfunction freeTrialCheck(addres...\n      ADD \t\t\tfunction freeTrialCheck(addres...\n      SWAP1 \t\t\tfunction freeTrialCheck(addres...\n      PUSH [tag] 22\t\t\tfunction freeTrialCheck(addres...\n      SWAP2 \t\t\tfunction freeTrialCheck(addres...\n      SWAP1 \t\t\tfunction freeTrialCheck(addres...\n      PUSH [tag] 8\t\t\tfunction freeTrialCheck(addres...\n      JUMP \t\t\tfunction freeTrialCheck(addres...\n    tag 22\t\t\tfunction freeTrialCheck(addres...\n      JUMPDEST \t\t\tfunction freeTrialCheck(addres...\n      PUSH [tag] 23\t\t\tfunction freeTrialCheck(addres...\n      JUMP \t\t\tfunction freeTrialCheck(addres...\n    tag 21\t\t\tfunction freeTrialCheck(addres...\n      JUMPDEST \t\t\tfunction freeTrialCheck(addres...\n      STOP \t\t\tfunction freeTrialCheck(addres...\n    tag 9\t\t\tfunction pay(address _receipen...\n      JUMPDEST \t\t\tfunction pay(address _receipen...\n      PUSH [tag] 25\t\t\tfreeTrialCheck(_receipent)\n      DUP2 \t\t\t_receipent\n      PUSH [tag] 23\t\t\tfreeTrialCheck\n      JUMP \t\t\tfreeTrialCheck(_receipent)\n    tag 25\t\t\tfreeTrialCheck(_receipent)\n      JUMPDEST \t\t\tfreeTrialCheck(_receipent)\n      PUSH 0\t\t\tbool trialCheck\n      PUSH 1\t\t\ttrue\n      ISZERO \t\t\t_freeTrialStatus[_receipent] !...\n      ISZERO \t\t\t_freeTrialStatus[_receipent] !...\n      PUSH 1\t\t\t_freeTrialStatus\n      PUSH 0\t\t\t_freeTrialStatus[_receipent]\n      DUP5 \t\t\t_receipent\n      PUSH FFFFFFFFFFFFFFFFFFFFFFFFFFFFFFFFFFFFFFFF\t\t\t_freeTrialStatus[_receipent]\n      AND \t\t\t_freeTrialStatus[_receipent]\n      PUSH FFFFFFFFFFFFFFFFFFFFFFFFFFFFFFFFFFFFFFFF\t\t\t_freeTrialStatus[_receipent]\n      AND \t\t\t_freeTrialStatus[_receipent]\n      DUP2 \t\t\t_freeTrialStatus[_receipent]\n      MSTORE \t\t\t_freeTrialStatus[_receipent]\n      PUSH 20\t\t\t_freeTrialStatus[_receipent]\n      ADD \t\t\t_freeTrialStatus[_receipent]\n      SWAP1 \t\t\t_freeTrialStatus[_receipent]\n      DUP2 \t\t\t_freeTrialStatus[_receipent]\n      MSTORE \t\t\t_freeTrialStatus[_receipent]\n      PUSH 20\t\t\t_freeTrialStatus[_receipent]\n      ADD \t\t\t_freeTrialStatus[_receipent]\n      PUSH 0\t\t\t_freeTrialStatus[_receipent]\n      KECCAK256 \t\t\t_freeTrialStatus[_receipent]\n      PUSH 0\t\t\t_freeTrialStatus[_receipent]\n      SWAP1 \t\t\t_freeTrialStatus[_receipent]\n      SLOAD \t\t\t_freeTrialStatus[_receipent]\n      SWAP1 \t\t\t_freeTrialStatus[_receipent]\n      PUSH 100\t\t\t_freeTrialStatus[_receipent]\n      EXP \t\t\t_freeTrialStatus[_receipent]\n      SWAP1 \t\t\t_freeTrialStatus[_receipent]\n      DIV \t\t\t_freeTrialStatus[_receipent]\n      PUSH FF\t\t\t_freeTrialStatus[_receipent]\n      AND \t\t\t_freeTrialStatus[_receipent]\n      ISZERO \t\t\t_freeTrialStatus[_receipent] !...\n      ISZERO \t\t\t_freeTrialStatus[_receipent] !...\n      EQ \t\t\t_freeTrialStatus[_receipent] !...\n      ISZERO \t\t\t_freeTrialStatus[_receipent] !...\n      SWAP1 \t\t\tbool trialCheck = _freeTrialSt...\n      POP \t\t\tbool trialCheck = _freeTrialSt...\n      PUSH 1\t\t\ttrue\n      ISZERO \t\t\ttrialCheck != true\n      ISZERO \t\t\ttrialCheck != true\n      DUP2 \t\t\ttrialCheck\n      ISZERO \t\t\ttrialCheck != true\n      ISZERO \t\t\ttrialCheck != true\n      EQ \t\t\ttrialCheck != true\n      PUSH [tag] 26\t\t\tif(trialCheck != true){\\r\\n   ...\n      JUMPI \t\t\tif(trialCheck != true){\\r\\n   ...\n      PUSH 0\t\t\t0\n      CALLVALUE \t\t\tmsg.value\n      GT \t\t\tmsg.value > 0\n      PUSH [tag] 27\t\t\trequire(msg.value > 0, \"You mu...\n      JUMPI \t\t\trequire(msg.value > 0, \"You mu...\n      PUSH 40\t\t\trequire(msg.value > 0, \"You mu...\n      MLOAD \t\t\trequire(msg.value > 0, \"You mu...\n      PUSH 8C379A000000000000000000000000000000000000000000000000000000000\t\t\trequire(msg.value > 0, \"You mu...\n      DUP2 \t\t\trequire(msg.value > 0, \"You mu...\n      MSTORE \t\t\trequire(msg.value > 0, \"You mu...\n      PUSH 4\t\t\trequire(msg.value > 0, \"You mu...\n      ADD \t\t\trequire(msg.value > 0, \"You mu...\n      PUSH [tag] 28\t\t\trequire(msg.value > 0, \"You mu...\n      SWAP1 \t\t\trequire(msg.value > 0, \"You mu...\n      PUSH [tag] 29\t\t\trequire(msg.value > 0, \"You mu...\n      JUMP \t\t\trequire(msg.value > 0, \"You mu...\n    tag 28\t\t\trequire(msg.value > 0, \"You mu...\n      JUMPDEST \t\t\trequire(msg.value > 0, \"You mu...\n      PUSH 40\t\t\trequire(msg.value > 0, \"You mu...\n      MLOAD \t\t\trequire(msg.value > 0, \"You mu...\n      DUP1 \t\t\trequire(msg.value > 0, \"You mu...\n      SWAP2 \t\t\trequire(msg.value > 0, \"You mu...\n      SUB \t\t\trequire(msg.value > 0, \"You mu...\n      SWAP1 \t\t\trequire(msg.value > 0, \"You mu...\n      REVERT \t\t\trequire(msg.value > 0, \"You mu...\n    tag 27\t\t\trequire(msg.value > 0, \"You mu...\n      JUMPDEST \t\t\trequire(msg.value > 0, \"You mu...\n      PUSH [tag] 30\t\t\tif(trialCheck != true){\\r\\n   ...\n      JUMP \t\t\tif(trialCheck != true){\\r\\n   ...\n    tag 26\t\t\tif(trialCheck != true){\\r\\n   ...\n      JUMPDEST \t\t\tif(trialCheck != true){\\r\\n   ...\n      PUSH 40\t\t\trevert(\"no need to pay!\")\n      MLOAD \t\t\trevert(\"no need to pay!\")\n      PUSH 8C379A000000000000000000000000000000000000000000000000000000000\t\t\trevert(\"no need to pay!\")\n      DUP2 \t\t\trevert(\"no need to pay!\")\n      MSTORE \t\t\trevert(\"no need to pay!\")\n      PUSH 4\t\t\trevert(\"no need to pay!\")\n      ADD \t\t\trevert(\"no need to pay!\")\n      PUSH [tag] 31\t\t\trevert(\"no need to pay!\")\n      SWAP1 \t\t\trevert(\"no need to pay!\")\n      PUSH [tag] 32\t\t\trevert(\"no need to pay!\")\n      JUMP \t\t\trevert(\"no need to pay!\")\n    tag 31\t\t\trevert(\"no need to pay!\")\n      JUMPDEST \t\t\trevert(\"no need to pay!\")\n      PUSH 40\t\t\trevert(\"no need to pay!\")\n      MLOAD \t\t\trevert(\"no need to pay!\")\n      DUP1 \t\t\trevert(\"no need to pay!\")\n      SWAP2 \t\t\trevert(\"no need to pay!\")\n      SUB \t\t\trevert(\"no need to pay!\")\n      SWAP1 \t\t\trevert(\"no need to pay!\")\n      REVERT \t\t\trevert(\"no need to pay!\")\n    tag 30\t\t\tif(trialCheck != true){\\r\\n   ...\n      JUMPDEST \t\t\tif(trialCheck != true){\\r\\n   ...\n      POP \t\t\t{\\r\\n\\r\\n        freeTrialChec...\n      POP \t\t\tfunction pay(address _receipen...\n      JUMP \t\t\tfunction pay(address _receipen...\n    tag 12\t\t\tfunction getBalance() public v...\n      JUMPDEST \t\t\tfunction getBalance() public v...\n      PUSH 0\t\t\tuint256\n      SELFBALANCE \t\t\taddress(this).balance\n      SWAP1 \t\t\treturn address(this).balance\n      POP \t\t\treturn address(this).balance\n      SWAP1 \t\t\tfunction getBalance() public v...\n      JUMP \t\t\tfunction getBalance() public v...\n    tag 18\t\t\tfunction time(address _receipe...\n      JUMPDEST \t\t\tfunction time(address _receipe...\n      PUSH 0\t\t\tuint256\n      DUP1 \t\t\t_freeTrialTime\n      PUSH 0\t\t\t_freeTrialTime[_receipent]\n      DUP4 \t\t\t_receipent\n      PUSH FFFFFFFFFFFFFFFFFFFFFFFFFFFFFFFFFFFFFFFF\t\t\t_freeTrialTime[_receipent]\n      AND \t\t\t_freeTrialTime[_receipent]\n      PUSH FFFFFFFFFFFFFFFFFFFFFFFFFFFFFFFFFFFFFFFF\t\t\t_freeTrialTime[_receipent]\n      AND \t\t\t_freeTrialTime[_receipent]\n      DUP2 \t\t\t_freeTrialTime[_receipent]\n      MSTORE \t\t\t_freeTrialTime[_receipent]\n      PUSH 20\t\t\t_freeTrialTime[_receipent]\n      ADD \t\t\t_freeTrialTime[_receipent]\n      SWAP1 \t\t\t_freeTrialTime[_receipent]\n      DUP2 \t\t\t_freeTrialTime[_receipent]\n      MSTORE \t\t\t_freeTrialTime[_receipent]\n      PUSH 20\t\t\t_freeTrialTime[_receipent]\n      ADD \t\t\t_freeTrialTime[_receipent]\n      PUSH 0\t\t\t_freeTrialTime[_receipent]\n      KECCAK256 \t\t\t_freeTrialTime[_receipent]\n      SLOAD \t\t\t_freeTrialTime[_receipent]\n      SWAP1 \t\t\treturn  _freeTrialTime[_receip...\n      POP \t\t\treturn  _freeTrialTime[_receip...\n      SWAP2 \t\t\tfunction time(address _receipe...\n      SWAP1 \t\t\tfunction time(address _receipe...\n      POP \t\t\tfunction time(address _receipe...\n      JUMP \t\t\tfunction time(address _receipe...\n    tag 23\t\t\tfunction freeTrialCheck(addres...\n      JUMPDEST \t\t\tfunction freeTrialCheck(addres...\n      PUSH 0\t\t\tbool trialCheck\n      DUP1 \t\t\t0\n      PUSH 0\t\t\t_freeTrialTime\n      DUP1 \t\t\t_freeTrialTime[usersAddress]\n      DUP5 \t\t\tusersAddress\n      PUSH FFFFFFFFFFFFFFFFFFFFFFFFFFFFFFFFFFFFFFFF\t\t\t_freeTrialTime[usersAddress]\n      AND \t\t\t_freeTrialTime[usersAddress]\n      PUSH FFFFFFFFFFFFFFFFFFFFFFFFFFFFFFFFFFFFFFFF\t\t\t_freeTrialTime[usersAddress]\n      AND \t\t\t_freeTrialTime[usersAddress]\n      DUP2 \t\t\t_freeTrialTime[usersAddress]\n      MSTORE \t\t\t_freeTrialTime[usersAddress]\n      PUSH 20\t\t\t_freeTrialTime[usersAddress]\n      ADD \t\t\t_freeTrialTime[usersAddress]\n      SWAP1 \t\t\t_freeTrialTime[usersAddress]\n      DUP2 \t\t\t_freeTrialTime[usersAddress]\n      MSTORE \t\t\t_freeTrialTime[usersAddress]\n      PUSH 20\t\t\t_freeTrialTime[usersAddress]\n      ADD \t\t\t_freeTrialTime[usersAddress]\n      PUSH 0\t\t\t_freeTrialTime[usersAddress]\n      KECCAK256 \t\t\t_freeTrialTime[usersAddress]\n      SLOAD \t\t\t_freeTrialTime[usersAddress]\n      EQ \t\t\t_freeTrialTime[usersAddress] !...\n      ISZERO \t\t\t_freeTrialTime[usersAddress] !...\n      SWAP1 \t\t\tbool trialCheck = _freeTrialTi...\n      POP \t\t\tbool trialCheck = _freeTrialTi...\n      PUSH 1\t\t\ttrue\n      ISZERO \t\t\ttrialCheck != true\n      ISZERO \t\t\ttrialCheck != true\n      DUP2 \t\t\ttrialCheck\n      ISZERO \t\t\ttrialCheck != true\n      ISZERO \t\t\ttrialCheck != true\n      EQ \t\t\ttrialCheck != true\n      PUSH [tag] 36\t\t\tif(trialCheck != true){\\r\\n\\r\\...\n      JUMPI \t\t\tif(trialCheck != true){\\r\\n\\r\\...\n      TIMESTAMP \t\t\tblock.timestamp\n      PUSH 0\t\t\t_freeTrialTime\n      DUP1 \t\t\t_freeTrialTime[usersAddress]\n      DUP5 \t\t\tusersAddress\n      PUSH FFFFFFFFFFFFFFFFFFFFFFFFFFFFFFFFFFFFFFFF\t\t\t_freeTrialTime[usersAddress]\n      AND \t\t\t_freeTrialTime[usersAddress]\n      PUSH FFFFFFFFFFFFFFFFFFFFFFFFFFFFFFFFFFFFFFFF\t\t\t_freeTrialTime[usersAddress]\n      AND \t\t\t_freeTrialTime[usersAddress]\n      DUP2 \t\t\t_freeTrialTime[usersAddress]\n      MSTORE \t\t\t_freeTrialTime[usersAddress]\n      PUSH 20\t\t\t_freeTrialTime[usersAddress]\n      ADD \t\t\t_freeTrialTime[usersAddress]\n      SWAP1 \t\t\t_freeTrialTime[usersAddress]\n      DUP2 \t\t\t_freeTrialTime[usersAddress]\n      MSTORE \t\t\t_freeTrialTime[usersAddress]\n      PUSH 20\t\t\t_freeTrialTime[usersAddress]\n      ADD \t\t\t_freeTrialTime[usersAddress]\n      PUSH 0\t\t\t_freeTrialTime[usersAddress]\n      KECCAK256 \t\t\t_freeTrialTime[usersAddress]\n      DUP2 \t\t\t_freeTrialTime[usersAddress] =...\n      SWAP1 \t\t\t_freeTrialTime[usersAddress] =...\n      SSTORE \t\t\t_freeTrialTime[usersAddress] =...\n      POP \t\t\t_freeTrialTime[usersAddress] =...\n      PUSH 1\t\t\ttrue\n      DUP1 \t\t\t_freeTrialStatus\n      PUSH 0\t\t\t_freeTrialStatus[usersAddress]\n      DUP5 \t\t\tusersAddress\n      PUSH FFFFFFFFFFFFFFFFFFFFFFFFFFFFFFFFFFFFFFFF\t\t\t_freeTrialStatus[usersAddress]\n      AND \t\t\t_freeTrialStatus[usersAddress]\n      PUSH FFFFFFFFFFFFFFFFFFFFFFFFFFFFFFFFFFFFFFFF\t\t\t_freeTrialStatus[usersAddress]\n      AND \t\t\t_freeTrialStatus[usersAddress]\n      DUP2 \t\t\t_freeTrialStatus[usersAddress]\n      MSTORE \t\t\t_freeTrialStatus[usersAddress]\n      PUSH 20\t\t\t_freeTrialStatus[usersAddress]\n      ADD \t\t\t_freeTrialStatus[usersAddress]\n      SWAP1 \t\t\t_freeTrialStatus[usersAddress]\n      DUP2 \t\t\t_freeTrialStatus[usersAddress]\n      MSTORE \t\t\t_freeTrialStatus[usersAddress]\n      PUSH 20\t\t\t_freeTrialStatus[usersAddress]\n      ADD \t\t\t_freeTrialStatus[usersAddress]\n      PUSH 0\t\t\t_freeTrialStatus[usersAddress]\n      KECCAK256 \t\t\t_freeTrialStatus[usersAddress]\n      PUSH 0\t\t\t_freeTrialStatus[usersAddress]\n      PUSH 100\t\t\t_freeTrialStatus[usersAddress]...\n      EXP \t\t\t_freeTrialStatus[usersAddress]...\n      DUP2 \t\t\t_freeTrialStatus[usersAddress]...\n      SLOAD \t\t\t_freeTrialStatus[usersAddress]...\n      DUP2 \t\t\t_freeTrialStatus[usersAddress]...\n      PUSH FF\t\t\t_freeTrialStatus[usersAddress]...\n      MUL \t\t\t_freeTrialStatus[usersAddress]...\n      NOT \t\t\t_freeTrialStatus[usersAddress]...\n      AND \t\t\t_freeTrialStatus[usersAddress]...\n      SWAP1 \t\t\t_freeTrialStatus[usersAddress]...\n      DUP4 \t\t\t_freeTrialStatus[usersAddress]...\n      ISZERO \t\t\t_freeTrialStatus[usersAddress]...\n      ISZERO \t\t\t_freeTrialStatus[usersAddress]...\n      MUL \t\t\t_freeTrialStatus[usersAddress]...\n      OR \t\t\t_freeTrialStatus[usersAddress]...\n      SWAP1 \t\t\t_freeTrialStatus[usersAddress]...\n      SSTORE \t\t\t_freeTrialStatus[usersAddress]...\n      POP \t\t\t_freeTrialStatus[usersAddress]...\n      PUSH [tag] 37\t\t\tif(trialCheck != true){\\r\\n\\r\\...\n      JUMP \t\t\tif(trialCheck != true){\\r\\n\\r\\...\n    tag 36\t\t\tif(trialCheck != true){\\r\\n\\r\\...\n      JUMPDEST \t\t\tif(trialCheck != true){\\r\\n\\r\\...\n      TIMESTAMP \t\t\tblock.timestamp\n      PUSH 0\t\t\t_freeTrialTime\n      DUP1 \t\t\t_freeTrialTime[usersAddress]\n      DUP5 \t\t\tusersAddress\n      PUSH FFFFFFFFFFFFFFFFFFFFFFFFFFFFFFFFFFFFFFFF\t\t\t_freeTrialTime[usersAddress]\n      AND \t\t\t_freeTrialTime[usersAddress]\n      PUSH FFFFFFFFFFFFFFFFFFFFFFFFFFFFFFFFFFFFFFFF\t\t\t_freeTrialTime[usersAddress]\n      AND \t\t\t_freeTrialTime[usersAddress]\n      DUP2 \t\t\t_freeTrialTime[usersAddress]\n      MSTORE \t\t\t_freeTrialTime[usersAddress]\n      PUSH 20\t\t\t_freeTrialTime[usersAddress]\n      ADD \t\t\t_freeTrialTime[usersAddress]\n      SWAP1 \t\t\t_freeTrialTime[usersAddress]\n      DUP2 \t\t\t_freeTrialTime[usersAddress]\n      MSTORE \t\t\t_freeTrialTime[usersAddress]\n      PUSH 20\t\t\t_freeTrialTime[usersAddress]\n      ADD \t\t\t_freeTrialTime[usersAddress]\n      PUSH 0\t\t\t_freeTrialTime[usersAddress]\n      KECCAK256 \t\t\t_freeTrialTime[usersAddress]\n      SLOAD \t\t\t_freeTrialTime[usersAddress]\n      GT \t\t\t_freeTrialTime[usersAddress] <...\n      PUSH [tag] 38\t\t\tif(_freeTrialTime[usersAddress...\n      JUMPI \t\t\tif(_freeTrialTime[usersAddress...\n      PUSH 0\t\t\t0\n      DUP1 \t\t\t_freeTrialTime\n      PUSH 0\t\t\t_freeTrialTime[usersAddress]\n      DUP5 \t\t\tusersAddress\n      PUSH FFFFFFFFFFFFFFFFFFFFFFFFFFFFFFFFFFFFFFFF\t\t\t_freeTrialTime[usersAddress]\n      AND \t\t\t_freeTrialTime[usersAddress]\n      PUSH FFFFFFFFFFFFFFFFFFFFFFFFFFFFFFFFFFFFFFFF\t\t\t_freeTrialTime[usersAddress]\n      AND \t\t\t_freeTrialTime[usersAddress]\n      DUP2 \t\t\t_freeTrialTime[usersAddress]\n      MSTORE \t\t\t_freeTrialTime[usersAddress]\n      PUSH 20\t\t\t_freeTrialTime[usersAddress]\n      ADD \t\t\t_freeTrialTime[usersAddress]\n      SWAP1 \t\t\t_freeTrialTime[usersAddress]\n      DUP2 \t\t\t_freeTrialTime[usersAddress]\n      MSTORE \t\t\t_freeTrialTime[usersAddress]\n      PUSH 20\t\t\t_freeTrialTime[usersAddress]\n      ADD \t\t\t_freeTrialTime[usersAddress]\n      PUSH 0\t\t\t_freeTrialTime[usersAddress]\n      KECCAK256 \t\t\t_freeTrialTime[usersAddress]\n      DUP2 \t\t\t_freeTrialTime[usersAddress] =...\n      SWAP1 \t\t\t_freeTrialTime[usersAddress] =...\n      SSTORE \t\t\t_freeTrialTime[usersAddress] =...\n      POP \t\t\t_freeTrialTime[usersAddress] =...\n      PUSH 0\t\t\tfalse\n      PUSH 1\t\t\t_freeTrialStatus\n      PUSH 0\t\t\t_freeTrialStatus[usersAddress]\n      DUP5 \t\t\tusersAddress\n      PUSH FFFFFFFFFFFFFFFFFFFFFFFFFFFFFFFFFFFFFFFF\t\t\t_freeTrialStatus[usersAddress]\n      AND \t\t\t_freeTrialStatus[usersAddress]\n      PUSH FFFFFFFFFFFFFFFFFFFFFFFFFFFFFFFFFFFFFFFF\t\t\t_freeTrialStatus[usersAddress]\n      AND \t\t\t_freeTrialStatus[usersAddress]\n      DUP2 \t\t\t_freeTrialStatus[usersAddress]\n      MSTORE \t\t\t_freeTrialStatus[usersAddress]\n      PUSH 20\t\t\t_freeTrialStatus[usersAddress]\n      ADD \t\t\t_freeTrialStatus[usersAddress]\n      SWAP1 \t\t\t_freeTrialStatus[usersAddress]\n      DUP2 \t\t\t_freeTrialStatus[usersAddress]\n      MSTORE \t\t\t_freeTrialStatus[usersAddress]\n      PUSH 20\t\t\t_freeTrialStatus[usersAddress]\n      ADD \t\t\t_freeTrialStatus[usersAddress]\n      PUSH 0\t\t\t_freeTrialStatus[usersAddress]\n      KECCAK256 \t\t\t_freeTrialStatus[usersAddress]\n      PUSH 0\t\t\t_freeTrialStatus[usersAddress]\n      PUSH 100\t\t\t_freeTrialStatus[usersAddress]...\n      EXP \t\t\t_freeTrialStatus[usersAddress]...\n      DUP2 \t\t\t_freeTrialStatus[usersAddress]...\n      SLOAD \t\t\t_freeTrialStatus[usersAddress]...\n      DUP2 \t\t\t_freeTrialStatus[usersAddress]...\n      PUSH FF\t\t\t_freeTrialStatus[usersAddress]...\n      MUL \t\t\t_freeTrialStatus[usersAddress]...\n      NOT \t\t\t_freeTrialStatus[usersAddress]...\n      AND \t\t\t_freeTrialStatus[usersAddress]...\n      SWAP1 \t\t\t_freeTrialStatus[usersAddress]...\n      DUP4 \t\t\t_freeTrialStatus[usersAddress]...\n      ISZERO \t\t\t_freeTrialStatus[usersAddress]...\n      ISZERO \t\t\t_freeTrialStatus[usersAddress]...\n      MUL \t\t\t_freeTrialStatus[usersAddress]...\n      OR \t\t\t_freeTrialStatus[usersAddress]...\n      SWAP1 \t\t\t_freeTrialStatus[usersAddress]...\n      SSTORE \t\t\t_freeTrialStatus[usersAddress]...\n      POP \t\t\t_freeTrialStatus[usersAddress]...\n    tag 38\t\t\tif(_freeTrialTime[usersAddress...\n      JUMPDEST \t\t\tif(_freeTrialTime[usersAddress...\n    tag 37\t\t\tif(trialCheck != true){\\r\\n\\r\\...\n      JUMPDEST \t\t\tif(trialCheck != true){\\r\\n\\r\\...\n      POP \t\t\t{\\r\\n        \\r\\n        bool ...\n      POP \t\t\tfunction freeTrialCheck(addres...\n      JUMP \t\t\tfunction freeTrialCheck(addres...\n    tag 40\t\t\tDoreaUsers {\\r\\n\\r\\n    mappin...\n      JUMPDEST \t\t\tDoreaUsers {\\r\\n\\r\\n    mappin...\n      PUSH 0\t\t\te\n      DUP1 \t\t\t_\n      REVERT \t\t\trivate _free\n    tag 42\t\t\tss usersAddress) public{\\r\\n  ...\n      JUMPDEST \t\t\tss usersAddress) public{\\r\\n  ...\n      PUSH 0\t\t\t       \n      PUSH FFFFFFFFFFFFFFFFFFFFFFFFFFFFFFFFFFFFFFFF\t\t\tusersAddress] != 0;\\r\\n\\r\\n   ...\n      DUP3 \t\t\talTim\n      AND \t\t\teTrialTime[usersAddress] != 0;...\n      SWAP1 \t\t\theck = _freeTrialTime[usersAdd...\n      POP \t\t\theck = _freeTrialTime[usersAdd...\n      SWAP2 \t\t\tss usersAddress) public{\\r\\n  ...\n      SWAP1 \t\t\tss usersAddress) public{\\r\\n  ...\n      POP \t\t\tss usersAddress) public{\\r\\n  ...\n      JUMP \t\t\tss usersAddress) public{\\r\\n  ...\n    tag 43\t\t\t\\n\\r\\n            // add 14 da...\n      JUMPDEST \t\t\t\\n\\r\\n            // add 14 da...\n      PUSH 0\t\t\teriod t\n      PUSH [tag] 59\t\t\tyment \\r\\n            _fre\n      DUP3 \t\t\t  _fr\n      PUSH [tag] 42\t\t\tyment \\r\\n            _fre\n      JUMP \t\t\tyment \\r\\n            _fre\n    tag 59\t\t\tyment \\r\\n            _fre\n      JUMPDEST \t\t\tyment \\r\\n            _fre\n      SWAP1 \t\t\t time deployment \\r\\n         ...\n      POP \t\t\t time deployment \\r\\n         ...\n      SWAP2 \t\t\t\\n\\r\\n            // add 14 da...\n      SWAP1 \t\t\t\\n\\r\\n            // add 14 da...\n      POP \t\t\t\\n\\r\\n            // add 14 da...\n      JUMP \t\t\t\\n\\r\\n            // add 14 da...\n    tag 44\t\t\tsersAddress] = block.timestamp...\n      JUMPDEST \t\t\tsersAddress] = block.timestamp...\n      PUSH [tag] 61\t\t\tStatus[usersAddress] = t\n      DUP2 \t\t\ts] = \n      PUSH [tag] 43\t\t\tStatus[usersAddress] = t\n      JUMP \t\t\tStatus[usersAddress] = t\n    tag 61\t\t\tStatus[usersAddress] = t\n      JUMPDEST \t\t\tStatus[usersAddress] = t\n      DUP2 \t\t\teeTri\n      EQ \t\t\t_freeTrialStatus[usersAddress]...\n      PUSH [tag] 62\t\t\t          _freeTrialStatus[use...\n      JUMPI \t\t\t          _freeTrialStatus[use...\n      PUSH 0\t\t\t \n      DUP1 \t\t\t \n      REVERT \t\t\t\\n\\r\\n        }\n    tag 62\t\t\t          _freeTrialStatus[use...\n      JUMPDEST \t\t\t          _freeTrialStatus[use...\n      POP \t\t\tsersAddress] = block.timestamp...\n      JUMP \t\t\tsersAddress] = block.timestamp...\n    tag 45\t\t\t       if(_freeTrialTime[users...\n      JUMPDEST \t\t\t       if(_freeTrialTime[users...\n      PUSH 0\t\t\tk.tim\n      DUP2 \t\t\tTrialT\n      CALLDATALOAD \t\t\t        _freeTrialTi\n      SWAP1 \t\t\t\\n                _freeTrialTi\n      POP \t\t\t\\n                _freeTrialTi\n      PUSH [tag] 64\t\t\tddress] = 0;\\r\\n              ...\n      DUP2 \t\t\t   _f\n      PUSH [tag] 44\t\t\tddress] = 0;\\r\\n              ...\n      JUMP \t\t\tddress] = 0;\\r\\n              ...\n    tag 64\t\t\tddress] = 0;\\r\\n              ...\n      JUMPDEST \t\t\tddress] = 0;\\r\\n              ...\n      SWAP3 \t\t\t       if(_freeTrialTime[users...\n      SWAP2 \t\t\t       if(_freeTrialTime[users...\n      POP \t\t\t       if(_freeTrialTime[users...\n      POP \t\t\t       if(_freeTrialTime[users...\n      JUMP \t\t\t       if(_freeTrialTime[users...\n    tag 8\t\t\ts[usersAddress] = false;\\r\\n\\r...\n      JUMPDEST \t\t\ts[usersAddress] = false;\\r\\n\\r...\n      PUSH 0\t\t\t   }\\r\\n\n      PUSH 20\t\t\tli\n      DUP3 \t\t\tceipent) \n      DUP5 \t\t\tdress _\n      SUB \t\t\te(address _receipent) p\n      SLT \t\t\t time(address _receipent) publ...\n      ISZERO \t\t\tion time(address _receipent) p...\n      PUSH [tag] 66\t\t\tion time(address _receipent) p...\n      JUMPI \t\t\tion time(address _receipent) p...\n      PUSH [tag] 67\t\t\tew returns (uint256){\\r\\n\\r\\n ...\n      PUSH [tag] 40\t\t\tew returns (uint256){\\r\\n\\r\\n ...\n      JUMP \t\t\tew returns (uint256){\\r\\n\\r\\n ...\n    tag 67\t\t\tew returns (uint256){\\r\\n\\r\\n ...\n      JUMPDEST \t\t\tew returns (uint256){\\r\\n\\r\\n ...\n    tag 66\t\t\tion time(address _receipent) p...\n      JUMPDEST \t\t\tion time(address _receipent) p...\n      PUSH 0\t\t\ts\n      PUSH [tag] 68\t\t\tss _receipent) public payable{...\n      DUP5 \t\t\teTrialC\n      DUP3 \t\t\t      \n      DUP6 \t\t\table{\\r\\n\\r\\n\n      ADD \t\t\t payable{\\r\\n\\r\\n        f\n      PUSH [tag] 45\t\t\tss _receipent) public payable{...\n      JUMP \t\t\tss _receipent) public payable{...\n    tag 68\t\t\tss _receipent) public payable{...\n      JUMPDEST \t\t\tss _receipent) public payable{...\n      SWAP2 \t\t\t pay(address _receipent) publi...\n      POP \t\t\t pay(address _receipent) publi...\n      POP \t\t\tnsfer Ether to Loyal Customers...\n      SWAP3 \t\t\ts[usersAddress] = false;\\r\\n\\r...\n      SWAP2 \t\t\ts[usersAddress] = false;\\r\\n\\r...\n      POP \t\t\ts[usersAddress] = false;\\r\\n\\r...\n      POP \t\t\ts[usersAddress] = false;\\r\\n\\r...\n      JUMP \t\t\ts[usersAddress] = false;\\r\\n\\r...\n    tag 46\t\t\t     // check if user is on fr...\n      JUMPDEST \t\t\t     // check if user is on fr...\n      PUSH 0\t\t\tl or no\n      DUP2 \t\t\tys)\\r\\n\n      SWAP1 \t\t\temaining days)\\r\\n\n      POP \t\t\temaining days)\\r\\n\n      SWAP2 \t\t\t     // check if user is on fr...\n      SWAP1 \t\t\t     // check if user is on fr...\n      POP \t\t\t     // check if user is on fr...\n      JUMP \t\t\t     // check if user is on fr...\n    tag 47\t\t\t trialCheck = _freeTrialStatus...\n      JUMPDEST \t\t\t trialCheck = _freeTrialStatus...\n      PUSH [tag] 71\t\t\t           // add functi\n      DUP2 \t\t\tfunct\n      PUSH [tag] 46\t\t\t           // add functi\n      JUMP \t\t\t           // add functi\n    tag 71\t\t\t           // add functi\n      JUMPDEST \t\t\t           // add functi\n      DUP3 \t\t\t){\\r\n      MSTORE \t\t\t!= true){\\r\\n            // ad...\n      POP \t\t\t trialCheck = _freeTrialStatus...\n      POP \t\t\t trialCheck = _freeTrialStatus...\n      JUMP \t\t\t trialCheck = _freeTrialStatus...\n    tag 14\t\t\tf user is paid or not\\r\\n     ...\n      JUMPDEST \t\t\tf user is paid or not\\r\\n     ...\n      PUSH 0\t\t\t   }\n      PUSH 20\t\t\t t\n      DUP3 \t\t\trt(\"no ne\n      ADD \t\t\trevert(\"no need to\n      SWAP1 \t\t\t        revert(\"no need to\n      POP \t\t\t        revert(\"no need to\n      PUSH [tag] 73\t\t\t        }\\r\\n\\r\\n    }\\r\\n\\r\\n...\n      PUSH 0\t\t\t \n      DUP4 \t\t\tt address\n      ADD \t\t\ttract address\\r\\n  \n      DUP5 \t\t\tce of \n      PUSH [tag] 47\t\t\t        }\\r\\n\\r\\n    }\\r\\n\\r\\n...\n      JUMP \t\t\t        }\\r\\n\\r\\n    }\\r\\n\\r\\n...\n    tag 73\t\t\t        }\\r\\n\\r\\n    }\\r\\n\\r\\n...\n      JUMPDEST \t\t\t        }\\r\\n\\r\\n    }\\r\\n\\r\\n...\n      SWAP3 \t\t\tf user is paid or not\\r\\n     ...\n      SWAP2 \t\t\tf user is paid or not\\r\\n     ...\n      POP \t\t\tf user is paid or not\\r\\n     ...\n      POP \t\t\tf user is paid or not\\r\\n     ...\n      JUMP \t\t\tf user is paid or not\\r\\n     ...\n    tag 48\t\t\tBalance() public view returns(...\n      JUMPDEST \t\t\tBalance() public view returns(...\n      PUSH 0\t\t\t}\\r\\n\\r\\n}\n      DUP3 \t\t\t\n      DUP3 \t\t\t\n      MSTORE \t\t\t\n      PUSH 20\t\t\t\n      DUP3 \t\t\t\n      ADD \t\t\t\n      SWAP1 \t\t\t\n      POP \t\t\t\n      SWAP3 \t\t\tBalance() public view returns(...\n      SWAP2 \t\t\tBalance() public view returns(...\n      POP \t\t\tBalance() public view returns(...\n      POP \t\t\tBalance() public view returns(...\n      JUMP \t\t\tBalance() public view returns(...\n    tag 49\t\t\t\n      JUMPDEST \t\t\t\n      PUSH 596F75206D7573742073656E6420736F6D652045746865720000000000000000\t\t\t\n      PUSH 0\t\t\t\n      DUP3 \t\t\t\n      ADD \t\t\t\n      MSTORE \t\t\t\n      POP \t\t\t\n      JUMP \t\t\t\n    tag 50\t\t\t\n      JUMPDEST \t\t\t\n      PUSH 0\t\t\t\n      PUSH [tag] 77\t\t\t\n      PUSH 18\t\t\t\n      DUP4 \t\t\t\n      PUSH [tag] 48\t\t\t\n      JUMP \t\t\t\n    tag 77\t\t\t\n      JUMPDEST \t\t\t\n      SWAP2 \t\t\t\n      POP \t\t\t\n      PUSH [tag] 78\t\t\t\n      DUP3 \t\t\t\n      PUSH [tag] 49\t\t\t\n      JUMP \t\t\t\n    tag 78\t\t\t\n      JUMPDEST \t\t\t\n      PUSH 20\t\t\t\n      DUP3 \t\t\t\n      ADD \t\t\t\n      SWAP1 \t\t\t\n      POP \t\t\t\n      SWAP2 \t\t\t\n      SWAP1 \t\t\t\n      POP \t\t\t\n      JUMP \t\t\t\n    tag 29\t\t\t\n      JUMPDEST \t\t\t\n      PUSH 0\t\t\t\n      PUSH 20\t\t\t\n      DUP3 \t\t\t\n      ADD \t\t\t\n      SWAP1 \t\t\t\n      POP \t\t\t\n      DUP2 \t\t\t\n      DUP2 \t\t\t\n      SUB \t\t\t\n      PUSH 0\t\t\t\n      DUP4 \t\t\t\n      ADD \t\t\t\n      MSTORE \t\t\t\n      PUSH [tag] 80\t\t\t\n      DUP2 \t\t\t\n      PUSH [tag] 50\t\t\t\n      JUMP \t\t\t\n    tag 80\t\t\t\n      JUMPDEST \t\t\t\n      SWAP1 \t\t\t\n      POP \t\t\t\n      SWAP2 \t\t\t\n      SWAP1 \t\t\t\n      POP \t\t\t\n      JUMP \t\t\t\n    tag 51\t\t\t\n      JUMPDEST \t\t\t\n      PUSH 6E6F206E65656420746F20706179210000000000000000000000000000000000\t\t\t\n      PUSH 0\t\t\t\n      DUP3 \t\t\t\n      ADD \t\t\t\n      MSTORE \t\t\t\n      POP \t\t\t\n      JUMP \t\t\t\n    tag 52\t\t\t\n      JUMPDEST \t\t\t\n      PUSH 0\t\t\t\n      PUSH [tag] 83\t\t\t\n      PUSH F\t\t\t\n      DUP4 \t\t\t\n      PUSH [tag] 48\t\t\t\n      JUMP \t\t\t\n    tag 83\t\t\t\n      JUMPDEST \t\t\t\n      SWAP2 \t\t\t\n      POP \t\t\t\n      PUSH [tag] 84\t\t\t\n      DUP3 \t\t\t\n      PUSH [tag] 51\t\t\t\n      JUMP \t\t\t\n    tag 84\t\t\t\n      JUMPDEST \t\t\t\n      PUSH 20\t\t\t\n      DUP3 \t\t\t\n      ADD \t\t\t\n      SWAP1 \t\t\t\n      POP \t\t\t\n      SWAP2 \t\t\t\n      SWAP1 \t\t\t\n      POP \t\t\t\n      JUMP \t\t\t\n    tag 32\t\t\t\n      JUMPDEST \t\t\t\n      PUSH 0\t\t\t\n      PUSH 20\t\t\t\n      DUP3 \t\t\t\n      ADD \t\t\t\n      SWAP1 \t\t\t\n      POP \t\t\t\n      DUP2 \t\t\t\n      DUP2 \t\t\t\n      SUB \t\t\t\n      PUSH 0\t\t\t\n      DUP4 \t\t\t\n      ADD \t\t\t\n      MSTORE \t\t\t\n      PUSH [tag] 86\t\t\t\n      DUP2 \t\t\t\n      PUSH [tag] 52\t\t\t\n      JUMP \t\t\t\n    tag 86\t\t\t\n      JUMPDEST \t\t\t\n      SWAP1 \t\t\t\n      POP \t\t\t\n      SWAP2 \t\t\t\n      SWAP1 \t\t\t\n      POP \t\t\t\n      JUMP \t\t\t\n    .data\n"
}