{
	"compilerInput": "{\"language\":\"Solidity\",\"sources\":{\"users.sol\":{\"content\":\"// SPDX-License-Identifier: GPL-3.0\\r\\npragma solidity >=0.4.20 <0.9.0;\\r\\n\\r\\ncontract cryptoDoreaUsers {\\r\\n\\r\\n    mapping(address=>uint256) private _freeTrialTime;\\r\\n    mapping(address=>bool) private _freeTrialStatus;\\r\\n    mapping(address=>bool) private _paymentStatus;\\r\\n\\r\\n    constructor()  {\\r\\n\\r\\n    }\\r\\n\\r\\n    /**\\r\\n    *\\r\\n    */\\r\\n    /*\\r\\n    function freeTrialCheck(address usersAddress) public{\\r\\n        \\r\\n        bool trialCheck = _freeTrialTime[usersAddress] != 0;\\r\\n\\r\\n        if(trialCheck != true){\\r\\n\\r\\n            // add 14 days trial period to the first time deployment \\r\\n            _freeTrialTime[usersAddress] = block.timestamp + (14 * 86400);\\r\\n            _freeTrialStatus[usersAddress] = true;\\r\\n\\r\\n        }else{\\r\\n\\r\\n            if(_freeTrialTime[usersAddress] <= block.timestamp){\\r\\n\\r\\n                _freeTrialTime[usersAddress] = 0;\\r\\n                _freeTrialStatus[usersAddress] = false;\\r\\n\\r\\n            }\\r\\n\\r\\n        }\\r\\n    }\\r\\n    */\\r\\n\\r\\n    /**\\r\\n    *\\r\\n    */\\r\\n    function paymentCheck(address usersAddress) public{\\r\\n\\r\\n        bool payCheck = _paymentStatus[usersAddress];\\r\\n\\r\\n        if(payCheck != true){\\r\\n\\r\\n            _paymentStatus[usersAddress] = true;\\r\\n\\r\\n        }else{\\r\\n            revert(\\\"user is already paid!\\\");\\r\\n        }\\r\\n\\r\\n    }\\r\\n\\r\\n    function test(address _receipent) public view returns (bool){\\r\\n\\r\\n        return  _paymentStatus[_receipent];\\r\\n\\r\\n    }\\r\\n\\r\\n\\r\\n    // Transfer Ether to Loyal Customers\\r\\n    function pay(address _receipent) public payable{\\r\\n\\r\\n        // add function to check if user is paid or not\\r\\n        require(msg.value > 0, \\\"You must send some Ether\\\");\\r\\n        paymentCheck(_receipent);\\r\\n\\r\\n    }\\r\\n\\r\\n    \\r\\n    // get balance of contract address\\r\\n    function getBalance() public view returns(uint256){\\r\\n        return address(this).balance;\\r\\n    }\\r\\n\\r\\n}\"}},\"settings\":{\"optimizer\":{\"enabled\":false,\"runs\":200},\"outputSelection\":{\"*\":{\"\":[\"ast\"],\"*\":[\"abi\",\"metadata\",\"devdoc\",\"userdoc\",\"storageLayout\",\"evm.legacyAssembly\",\"evm.bytecode\",\"evm.deployedBytecode\",\"evm.methodIdentifiers\",\"evm.gasEstimates\",\"evm.assembly\"]}},\"remappings\":[]}}",
	"name": "cryptoDoreaUsers",
	"bytecode": {
		"linkReferences": {},
		"object": "608060405234801561000f575f80fd5b506104888061001d5f395ff3fe60806040526004361061003e575f3560e01c80630c11dedd1461004257806312065fe01461005e5780636062b66b14610088578063bb29998e146100b0575b5f80fd5b61005c600480360381019061005791906102e3565b6100ec565b005b348015610069575f80fd5b5061007261013a565b60405161007f9190610326565b60405180910390f35b348015610093575f80fd5b506100ae60048036038101906100a991906102e3565b610141565b005b3480156100bb575f80fd5b506100d660048036038101906100d191906102e3565b610233565b6040516100e39190610359565b60405180910390f35b5f341161012e576040517f08c379a0000000000000000000000000000000000000000000000000000000008152600401610125906103cc565b60405180910390fd5b61013781610141565b50565b5f47905090565b5f60025f8373ffffffffffffffffffffffffffffffffffffffff1673ffffffffffffffffffffffffffffffffffffffff1681526020019081526020015f205f9054906101000a900460ff16905060011515811515146101f457600160025f8473ffffffffffffffffffffffffffffffffffffffff1673ffffffffffffffffffffffffffffffffffffffff1681526020019081526020015f205f6101000a81548160ff02191690831515021790555061022f565b6040517f08c379a000000000000000000000000000000000000000000000000000000000815260040161022690610434565b60405180910390fd5b5050565b5f60025f8373ffffffffffffffffffffffffffffffffffffffff1673ffffffffffffffffffffffffffffffffffffffff1681526020019081526020015f205f9054906101000a900460ff169050919050565b5f80fd5b5f73ffffffffffffffffffffffffffffffffffffffff82169050919050565b5f6102b282610289565b9050919050565b6102c2816102a8565b81146102cc575f80fd5b50565b5f813590506102dd816102b9565b92915050565b5f602082840312156102f8576102f7610285565b5b5f610305848285016102cf565b91505092915050565b5f819050919050565b6103208161030e565b82525050565b5f6020820190506103395f830184610317565b92915050565b5f8115159050919050565b6103538161033f565b82525050565b5f60208201905061036c5f83018461034a565b92915050565b5f82825260208201905092915050565b7f596f75206d7573742073656e6420736f6d6520457468657200000000000000005f82015250565b5f6103b6601883610372565b91506103c182610382565b602082019050919050565b5f6020820190508181035f8301526103e3816103aa565b9050919050565b7f7573657220697320616c726561647920706169642100000000000000000000005f82015250565b5f61041e601583610372565b9150610429826103ea565b602082019050919050565b5f6020820190508181035f83015261044b81610412565b905091905056fea26469706673582212201566472a574073f500a11e338b43b488a27309f01c8cc83b3d201ce900b397fc64736f6c63430008160033",
		"opcodes": "PUSH1 0x80 PUSH1 0x40 MSTORE CALLVALUE DUP1 ISZERO PUSH2 0xF JUMPI PUSH0 DUP1 REVERT JUMPDEST POP PUSH2 0x488 DUP1 PUSH2 0x1D PUSH0 CODECOPY PUSH0 RETURN INVALID PUSH1 0x80 PUSH1 0x40 MSTORE PUSH1 0x4 CALLDATASIZE LT PUSH2 0x3E JUMPI PUSH0 CALLDATALOAD PUSH1 0xE0 SHR DUP1 PUSH4 0xC11DEDD EQ PUSH2 0x42 JUMPI DUP1 PUSH4 0x12065FE0 EQ PUSH2 0x5E JUMPI DUP1 PUSH4 0x6062B66B EQ PUSH2 0x88 JUMPI DUP1 PUSH4 0xBB29998E EQ PUSH2 0xB0 JUMPI JUMPDEST PUSH0 DUP1 REVERT JUMPDEST PUSH2 0x5C PUSH1 0x4 DUP1 CALLDATASIZE SUB DUP2 ADD SWAP1 PUSH2 0x57 SWAP2 SWAP1 PUSH2 0x2E3 JUMP JUMPDEST PUSH2 0xEC JUMP JUMPDEST STOP JUMPDEST CALLVALUE DUP1 ISZERO PUSH2 0x69 JUMPI PUSH0 DUP1 REVERT JUMPDEST POP PUSH2 0x72 PUSH2 0x13A JUMP JUMPDEST PUSH1 0x40 MLOAD PUSH2 0x7F SWAP2 SWAP1 PUSH2 0x326 JUMP JUMPDEST PUSH1 0x40 MLOAD DUP1 SWAP2 SUB SWAP1 RETURN JUMPDEST CALLVALUE DUP1 ISZERO PUSH2 0x93 JUMPI PUSH0 DUP1 REVERT JUMPDEST POP PUSH2 0xAE PUSH1 0x4 DUP1 CALLDATASIZE SUB DUP2 ADD SWAP1 PUSH2 0xA9 SWAP2 SWAP1 PUSH2 0x2E3 JUMP JUMPDEST PUSH2 0x141 JUMP JUMPDEST STOP JUMPDEST CALLVALUE DUP1 ISZERO PUSH2 0xBB JUMPI PUSH0 DUP1 REVERT JUMPDEST POP PUSH2 0xD6 PUSH1 0x4 DUP1 CALLDATASIZE SUB DUP2 ADD SWAP1 PUSH2 0xD1 SWAP2 SWAP1 PUSH2 0x2E3 JUMP JUMPDEST PUSH2 0x233 JUMP JUMPDEST PUSH1 0x40 MLOAD PUSH2 0xE3 SWAP2 SWAP1 PUSH2 0x359 JUMP JUMPDEST PUSH1 0x40 MLOAD DUP1 SWAP2 SUB SWAP1 RETURN JUMPDEST PUSH0 CALLVALUE GT PUSH2 0x12E JUMPI PUSH1 0x40 MLOAD PUSH32 0x8C379A000000000000000000000000000000000000000000000000000000000 DUP2 MSTORE PUSH1 0x4 ADD PUSH2 0x125 SWAP1 PUSH2 0x3CC JUMP JUMPDEST PUSH1 0x40 MLOAD DUP1 SWAP2 SUB SWAP1 REVERT JUMPDEST PUSH2 0x137 DUP2 PUSH2 0x141 JUMP JUMPDEST POP JUMP JUMPDEST PUSH0 SELFBALANCE SWAP1 POP SWAP1 JUMP JUMPDEST PUSH0 PUSH1 0x2 PUSH0 DUP4 PUSH20 0xFFFFFFFFFFFFFFFFFFFFFFFFFFFFFFFFFFFFFFFF AND PUSH20 0xFFFFFFFFFFFFFFFFFFFFFFFFFFFFFFFFFFFFFFFF AND DUP2 MSTORE PUSH1 0x20 ADD SWAP1 DUP2 MSTORE PUSH1 0x20 ADD PUSH0 KECCAK256 PUSH0 SWAP1 SLOAD SWAP1 PUSH2 0x100 EXP SWAP1 DIV PUSH1 0xFF AND SWAP1 POP PUSH1 0x1 ISZERO ISZERO DUP2 ISZERO ISZERO EQ PUSH2 0x1F4 JUMPI PUSH1 0x1 PUSH1 0x2 PUSH0 DUP5 PUSH20 0xFFFFFFFFFFFFFFFFFFFFFFFFFFFFFFFFFFFFFFFF AND PUSH20 0xFFFFFFFFFFFFFFFFFFFFFFFFFFFFFFFFFFFFFFFF AND DUP2 MSTORE PUSH1 0x20 ADD SWAP1 DUP2 MSTORE PUSH1 0x20 ADD PUSH0 KECCAK256 PUSH0 PUSH2 0x100 EXP DUP2 SLOAD DUP2 PUSH1 0xFF MUL NOT AND SWAP1 DUP4 ISZERO ISZERO MUL OR SWAP1 SSTORE POP PUSH2 0x22F JUMP JUMPDEST PUSH1 0x40 MLOAD PUSH32 0x8C379A000000000000000000000000000000000000000000000000000000000 DUP2 MSTORE PUSH1 0x4 ADD PUSH2 0x226 SWAP1 PUSH2 0x434 JUMP JUMPDEST PUSH1 0x40 MLOAD DUP1 SWAP2 SUB SWAP1 REVERT JUMPDEST POP POP JUMP JUMPDEST PUSH0 PUSH1 0x2 PUSH0 DUP4 PUSH20 0xFFFFFFFFFFFFFFFFFFFFFFFFFFFFFFFFFFFFFFFF AND PUSH20 0xFFFFFFFFFFFFFFFFFFFFFFFFFFFFFFFFFFFFFFFF AND DUP2 MSTORE PUSH1 0x20 ADD SWAP1 DUP2 MSTORE PUSH1 0x20 ADD PUSH0 KECCAK256 PUSH0 SWAP1 SLOAD SWAP1 PUSH2 0x100 EXP SWAP1 DIV PUSH1 0xFF AND SWAP1 POP SWAP2 SWAP1 POP JUMP JUMPDEST PUSH0 DUP1 REVERT JUMPDEST PUSH0 PUSH20 0xFFFFFFFFFFFFFFFFFFFFFFFFFFFFFFFFFFFFFFFF DUP3 AND SWAP1 POP SWAP2 SWAP1 POP JUMP JUMPDEST PUSH0 PUSH2 0x2B2 DUP3 PUSH2 0x289 JUMP JUMPDEST SWAP1 POP SWAP2 SWAP1 POP JUMP JUMPDEST PUSH2 0x2C2 DUP2 PUSH2 0x2A8 JUMP JUMPDEST DUP2 EQ PUSH2 0x2CC JUMPI PUSH0 DUP1 REVERT JUMPDEST POP JUMP JUMPDEST PUSH0 DUP2 CALLDATALOAD SWAP1 POP PUSH2 0x2DD DUP2 PUSH2 0x2B9 JUMP JUMPDEST SWAP3 SWAP2 POP POP JUMP JUMPDEST PUSH0 PUSH1 0x20 DUP3 DUP5 SUB SLT ISZERO PUSH2 0x2F8 JUMPI PUSH2 0x2F7 PUSH2 0x285 JUMP JUMPDEST JUMPDEST PUSH0 PUSH2 0x305 DUP5 DUP3 DUP6 ADD PUSH2 0x2CF JUMP JUMPDEST SWAP2 POP POP SWAP3 SWAP2 POP POP JUMP JUMPDEST PUSH0 DUP2 SWAP1 POP SWAP2 SWAP1 POP JUMP JUMPDEST PUSH2 0x320 DUP2 PUSH2 0x30E JUMP JUMPDEST DUP3 MSTORE POP POP JUMP JUMPDEST PUSH0 PUSH1 0x20 DUP3 ADD SWAP1 POP PUSH2 0x339 PUSH0 DUP4 ADD DUP5 PUSH2 0x317 JUMP JUMPDEST SWAP3 SWAP2 POP POP JUMP JUMPDEST PUSH0 DUP2 ISZERO ISZERO SWAP1 POP SWAP2 SWAP1 POP JUMP JUMPDEST PUSH2 0x353 DUP2 PUSH2 0x33F JUMP JUMPDEST DUP3 MSTORE POP POP JUMP JUMPDEST PUSH0 PUSH1 0x20 DUP3 ADD SWAP1 POP PUSH2 0x36C PUSH0 DUP4 ADD DUP5 PUSH2 0x34A JUMP JUMPDEST SWAP3 SWAP2 POP POP JUMP JUMPDEST PUSH0 DUP3 DUP3 MSTORE PUSH1 0x20 DUP3 ADD SWAP1 POP SWAP3 SWAP2 POP POP JUMP JUMPDEST PUSH32 0x596F75206D7573742073656E6420736F6D652045746865720000000000000000 PUSH0 DUP3 ADD MSTORE POP JUMP JUMPDEST PUSH0 PUSH2 0x3B6 PUSH1 0x18 DUP4 PUSH2 0x372 JUMP JUMPDEST SWAP2 POP PUSH2 0x3C1 DUP3 PUSH2 0x382 JUMP JUMPDEST PUSH1 0x20 DUP3 ADD SWAP1 POP SWAP2 SWAP1 POP JUMP JUMPDEST PUSH0 PUSH1 0x20 DUP3 ADD SWAP1 POP DUP2 DUP2 SUB PUSH0 DUP4 ADD MSTORE PUSH2 0x3E3 DUP2 PUSH2 0x3AA JUMP JUMPDEST SWAP1 POP SWAP2 SWAP1 POP JUMP JUMPDEST PUSH32 0x7573657220697320616C72656164792070616964210000000000000000000000 PUSH0 DUP3 ADD MSTORE POP JUMP JUMPDEST PUSH0 PUSH2 0x41E PUSH1 0x15 DUP4 PUSH2 0x372 JUMP JUMPDEST SWAP2 POP PUSH2 0x429 DUP3 PUSH2 0x3EA JUMP JUMPDEST PUSH1 0x20 DUP3 ADD SWAP1 POP SWAP2 SWAP1 POP JUMP JUMPDEST PUSH0 PUSH1 0x20 DUP3 ADD SWAP1 POP DUP2 DUP2 SUB PUSH0 DUP4 ADD MSTORE PUSH2 0x44B DUP2 PUSH2 0x412 JUMP JUMPDEST SWAP1 POP SWAP2 SWAP1 POP JUMP INVALID LOG2 PUSH5 0x6970667358 0x22 SLT KECCAK256 ISZERO PUSH7 0x472A574073F500 LOG1 0x1E CALLER DUP12 NUMBER 0xB4 DUP9 LOG2 PUSH20 0x9F01C8CC83B3D201CE900B397FC64736F6C6343 STOP ADDMOD AND STOP CALLER "
	},
	"abi": [
		{
			"inputs": [],
			"stateMutability": "nonpayable",
			"type": "constructor"
		},
		{
			"inputs": [],
			"name": "getBalance",
			"outputs": [
				{
					"internalType": "uint256",
					"name": "",
					"type": "uint256"
				}
			],
			"stateMutability": "view",
			"type": "function"
		},
		{
			"inputs": [
				{
					"internalType": "address",
					"name": "_receipent",
					"type": "address"
				}
			],
			"name": "pay",
			"outputs": [],
			"stateMutability": "payable",
			"type": "function"
		},
		{
			"inputs": [
				{
					"internalType": "address",
					"name": "usersAddress",
					"type": "address"
				}
			],
			"name": "paymentCheck",
			"outputs": [],
			"stateMutability": "nonpayable",
			"type": "function"
		},
		{
			"inputs": [
				{
					"internalType": "address",
					"name": "_receipent",
					"type": "address"
				}
			],
			"name": "test",
			"outputs": [
				{
					"internalType": "bool",
					"name": "",
					"type": "bool"
				}
			],
			"stateMutability": "view",
			"type": "function"
		}
	],
	"storageLayout": {
		"storage": [
			{
				"astId": 5,
				"contract": "users.sol:cryptoDoreaUsers",
				"label": "_freeTrialTime",
				"offset": 0,
				"slot": "0",
				"type": "t_mapping(t_address,t_uint256)"
			},
			{
				"astId": 9,
				"contract": "users.sol:cryptoDoreaUsers",
				"label": "_freeTrialStatus",
				"offset": 0,
				"slot": "1",
				"type": "t_mapping(t_address,t_bool)"
			},
			{
				"astId": 13,
				"contract": "users.sol:cryptoDoreaUsers",
				"label": "_paymentStatus",
				"offset": 0,
				"slot": "2",
				"type": "t_mapping(t_address,t_bool)"
			}
		],
		"types": {
			"t_address": {
				"encoding": "inplace",
				"label": "address",
				"numberOfBytes": "20"
			},
			"t_bool": {
				"encoding": "inplace",
				"label": "bool",
				"numberOfBytes": "1"
			},
			"t_mapping(t_address,t_bool)": {
				"encoding": "mapping",
				"key": "t_address",
				"label": "mapping(address => bool)",
				"numberOfBytes": "32",
				"value": "t_bool"
			},
			"t_mapping(t_address,t_uint256)": {
				"encoding": "mapping",
				"key": "t_address",
				"label": "mapping(address => uint256)",
				"numberOfBytes": "32",
				"value": "t_uint256"
			},
			"t_uint256": {
				"encoding": "inplace",
				"label": "uint256",
				"numberOfBytes": "32"
			}
		}
	},
	"web3Deploy": "var cryptodoreausersContract = new web3.eth.Contract([{\"inputs\":[],\"stateMutability\":\"nonpayable\",\"type\":\"constructor\"},{\"inputs\":[],\"name\":\"getBalance\",\"outputs\":[{\"internalType\":\"uint256\",\"name\":\"\",\"type\":\"uint256\"}],\"stateMutability\":\"view\",\"type\":\"function\"},{\"inputs\":[{\"internalType\":\"address\",\"name\":\"_receipent\",\"type\":\"address\"}],\"name\":\"pay\",\"outputs\":[],\"stateMutability\":\"payable\",\"type\":\"function\"},{\"inputs\":[{\"internalType\":\"address\",\"name\":\"usersAddress\",\"type\":\"address\"}],\"name\":\"paymentCheck\",\"outputs\":[],\"stateMutability\":\"nonpayable\",\"type\":\"function\"},{\"inputs\":[{\"internalType\":\"address\",\"name\":\"_receipent\",\"type\":\"address\"}],\"name\":\"test\",\"outputs\":[{\"internalType\":\"bool\",\"name\":\"\",\"type\":\"bool\"}],\"stateMutability\":\"view\",\"type\":\"function\"}]);\nvar cryptodoreausers = cryptodoreausersContract.deploy({\n     data: '0x608060405234801561000f575f80fd5b506104888061001d5f395ff3fe60806040526004361061003e575f3560e01c80630c11dedd1461004257806312065fe01461005e5780636062b66b14610088578063bb29998e146100b0575b5f80fd5b61005c600480360381019061005791906102e3565b6100ec565b005b348015610069575f80fd5b5061007261013a565b60405161007f9190610326565b60405180910390f35b348015610093575f80fd5b506100ae60048036038101906100a991906102e3565b610141565b005b3480156100bb575f80fd5b506100d660048036038101906100d191906102e3565b610233565b6040516100e39190610359565b60405180910390f35b5f341161012e576040517f08c379a0000000000000000000000000000000000000000000000000000000008152600401610125906103cc565b60405180910390fd5b61013781610141565b50565b5f47905090565b5f60025f8373ffffffffffffffffffffffffffffffffffffffff1673ffffffffffffffffffffffffffffffffffffffff1681526020019081526020015f205f9054906101000a900460ff16905060011515811515146101f457600160025f8473ffffffffffffffffffffffffffffffffffffffff1673ffffffffffffffffffffffffffffffffffffffff1681526020019081526020015f205f6101000a81548160ff02191690831515021790555061022f565b6040517f08c379a000000000000000000000000000000000000000000000000000000000815260040161022690610434565b60405180910390fd5b5050565b5f60025f8373ffffffffffffffffffffffffffffffffffffffff1673ffffffffffffffffffffffffffffffffffffffff1681526020019081526020015f205f9054906101000a900460ff169050919050565b5f80fd5b5f73ffffffffffffffffffffffffffffffffffffffff82169050919050565b5f6102b282610289565b9050919050565b6102c2816102a8565b81146102cc575f80fd5b50565b5f813590506102dd816102b9565b92915050565b5f602082840312156102f8576102f7610285565b5b5f610305848285016102cf565b91505092915050565b5f819050919050565b6103208161030e565b82525050565b5f6020820190506103395f830184610317565b92915050565b5f8115159050919050565b6103538161033f565b82525050565b5f60208201905061036c5f83018461034a565b92915050565b5f82825260208201905092915050565b7f596f75206d7573742073656e6420736f6d6520457468657200000000000000005f82015250565b5f6103b6601883610372565b91506103c182610382565b602082019050919050565b5f6020820190508181035f8301526103e3816103aa565b9050919050565b7f7573657220697320616c726561647920706169642100000000000000000000005f82015250565b5f61041e601583610372565b9150610429826103ea565b602082019050919050565b5f6020820190508181035f83015261044b81610412565b905091905056fea26469706673582212201566472a574073f500a11e338b43b488a27309f01c8cc83b3d201ce900b397fc64736f6c63430008160033', \n     arguments: [\n     ]\n}).send({\n     from: web3.eth.accounts[0], \n     gas: '4700000'\n   }, function (e, contract){\n    console.log(e, contract);\n    if (typeof contract.address !== 'undefined') {\n         console.log('Contract mined! address: ' + contract.address + ' transactionHash: ' + contract.transactionHash);\n    }\n })",
	"functionHashes": {
		"12065fe0": "getBalance()",
		"0c11dedd": "pay(address)",
		"6062b66b": "paymentCheck(address)",
		"bb29998e": "test(address)"
	},
	"gasEstimates": {
		"Creation": {
			"codeDepositCost": "232000",
			"executionCost": "273",
			"totalCost": "232273"
		},
		"External": {
			"getBalance()": "334",
			"pay(address)": "27088",
			"paymentCheck(address)": "27106",
			"test(address)": "2914"
		}
	},
	"devdoc": {
		"kind": "dev",
		"methods": {},
		"version": 1
	},
	"userdoc": {
		"kind": "user",
		"methods": {},
		"version": 1
	},
	"Runtime Bytecode": {
		"immutableReferences": {},
		"linkReferences": {},
		"object": "60806040526004361061003e575f3560e01c80630c11dedd1461004257806312065fe01461005e5780636062b66b14610088578063bb29998e146100b0575b5f80fd5b61005c600480360381019061005791906102e3565b6100ec565b005b348015610069575f80fd5b5061007261013a565b60405161007f9190610326565b60405180910390f35b348015610093575f80fd5b506100ae60048036038101906100a991906102e3565b610141565b005b3480156100bb575f80fd5b506100d660048036038101906100d191906102e3565b610233565b6040516100e39190610359565b60405180910390f35b5f341161012e576040517f08c379a0000000000000000000000000000000000000000000000000000000008152600401610125906103cc565b60405180910390fd5b61013781610141565b50565b5f47905090565b5f60025f8373ffffffffffffffffffffffffffffffffffffffff1673ffffffffffffffffffffffffffffffffffffffff1681526020019081526020015f205f9054906101000a900460ff16905060011515811515146101f457600160025f8473ffffffffffffffffffffffffffffffffffffffff1673ffffffffffffffffffffffffffffffffffffffff1681526020019081526020015f205f6101000a81548160ff02191690831515021790555061022f565b6040517f08c379a000000000000000000000000000000000000000000000000000000000815260040161022690610434565b60405180910390fd5b5050565b5f60025f8373ffffffffffffffffffffffffffffffffffffffff1673ffffffffffffffffffffffffffffffffffffffff1681526020019081526020015f205f9054906101000a900460ff169050919050565b5f80fd5b5f73ffffffffffffffffffffffffffffffffffffffff82169050919050565b5f6102b282610289565b9050919050565b6102c2816102a8565b81146102cc575f80fd5b50565b5f813590506102dd816102b9565b92915050565b5f602082840312156102f8576102f7610285565b5b5f610305848285016102cf565b91505092915050565b5f819050919050565b6103208161030e565b82525050565b5f6020820190506103395f830184610317565b92915050565b5f8115159050919050565b6103538161033f565b82525050565b5f60208201905061036c5f83018461034a565b92915050565b5f82825260208201905092915050565b7f596f75206d7573742073656e6420736f6d6520457468657200000000000000005f82015250565b5f6103b6601883610372565b91506103c182610382565b602082019050919050565b5f6020820190508181035f8301526103e3816103aa565b9050919050565b7f7573657220697320616c726561647920706169642100000000000000000000005f82015250565b5f61041e601583610372565b9150610429826103ea565b602082019050919050565b5f6020820190508181035f83015261044b81610412565b905091905056fea26469706673582212201566472a574073f500a11e338b43b488a27309f01c8cc83b3d201ce900b397fc64736f6c63430008160033",
		"opcodes": "PUSH1 0x80 PUSH1 0x40 MSTORE PUSH1 0x4 CALLDATASIZE LT PUSH2 0x3E JUMPI PUSH0 CALLDATALOAD PUSH1 0xE0 SHR DUP1 PUSH4 0xC11DEDD EQ PUSH2 0x42 JUMPI DUP1 PUSH4 0x12065FE0 EQ PUSH2 0x5E JUMPI DUP1 PUSH4 0x6062B66B EQ PUSH2 0x88 JUMPI DUP1 PUSH4 0xBB29998E EQ PUSH2 0xB0 JUMPI JUMPDEST PUSH0 DUP1 REVERT JUMPDEST PUSH2 0x5C PUSH1 0x4 DUP1 CALLDATASIZE SUB DUP2 ADD SWAP1 PUSH2 0x57 SWAP2 SWAP1 PUSH2 0x2E3 JUMP JUMPDEST PUSH2 0xEC JUMP JUMPDEST STOP JUMPDEST CALLVALUE DUP1 ISZERO PUSH2 0x69 JUMPI PUSH0 DUP1 REVERT JUMPDEST POP PUSH2 0x72 PUSH2 0x13A JUMP JUMPDEST PUSH1 0x40 MLOAD PUSH2 0x7F SWAP2 SWAP1 PUSH2 0x326 JUMP JUMPDEST PUSH1 0x40 MLOAD DUP1 SWAP2 SUB SWAP1 RETURN JUMPDEST CALLVALUE DUP1 ISZERO PUSH2 0x93 JUMPI PUSH0 DUP1 REVERT JUMPDEST POP PUSH2 0xAE PUSH1 0x4 DUP1 CALLDATASIZE SUB DUP2 ADD SWAP1 PUSH2 0xA9 SWAP2 SWAP1 PUSH2 0x2E3 JUMP JUMPDEST PUSH2 0x141 JUMP JUMPDEST STOP JUMPDEST CALLVALUE DUP1 ISZERO PUSH2 0xBB JUMPI PUSH0 DUP1 REVERT JUMPDEST POP PUSH2 0xD6 PUSH1 0x4 DUP1 CALLDATASIZE SUB DUP2 ADD SWAP1 PUSH2 0xD1 SWAP2 SWAP1 PUSH2 0x2E3 JUMP JUMPDEST PUSH2 0x233 JUMP JUMPDEST PUSH1 0x40 MLOAD PUSH2 0xE3 SWAP2 SWAP1 PUSH2 0x359 JUMP JUMPDEST PUSH1 0x40 MLOAD DUP1 SWAP2 SUB SWAP1 RETURN JUMPDEST PUSH0 CALLVALUE GT PUSH2 0x12E JUMPI PUSH1 0x40 MLOAD PUSH32 0x8C379A000000000000000000000000000000000000000000000000000000000 DUP2 MSTORE PUSH1 0x4 ADD PUSH2 0x125 SWAP1 PUSH2 0x3CC JUMP JUMPDEST PUSH1 0x40 MLOAD DUP1 SWAP2 SUB SWAP1 REVERT JUMPDEST PUSH2 0x137 DUP2 PUSH2 0x141 JUMP JUMPDEST POP JUMP JUMPDEST PUSH0 SELFBALANCE SWAP1 POP SWAP1 JUMP JUMPDEST PUSH0 PUSH1 0x2 PUSH0 DUP4 PUSH20 0xFFFFFFFFFFFFFFFFFFFFFFFFFFFFFFFFFFFFFFFF AND PUSH20 0xFFFFFFFFFFFFFFFFFFFFFFFFFFFFFFFFFFFFFFFF AND DUP2 MSTORE PUSH1 0x20 ADD SWAP1 DUP2 MSTORE PUSH1 0x20 ADD PUSH0 KECCAK256 PUSH0 SWAP1 SLOAD SWAP1 PUSH2 0x100 EXP SWAP1 DIV PUSH1 0xFF AND SWAP1 POP PUSH1 0x1 ISZERO ISZERO DUP2 ISZERO ISZERO EQ PUSH2 0x1F4 JUMPI PUSH1 0x1 PUSH1 0x2 PUSH0 DUP5 PUSH20 0xFFFFFFFFFFFFFFFFFFFFFFFFFFFFFFFFFFFFFFFF AND PUSH20 0xFFFFFFFFFFFFFFFFFFFFFFFFFFFFFFFFFFFFFFFF AND DUP2 MSTORE PUSH1 0x20 ADD SWAP1 DUP2 MSTORE PUSH1 0x20 ADD PUSH0 KECCAK256 PUSH0 PUSH2 0x100 EXP DUP2 SLOAD DUP2 PUSH1 0xFF MUL NOT AND SWAP1 DUP4 ISZERO ISZERO MUL OR SWAP1 SSTORE POP PUSH2 0x22F JUMP JUMPDEST PUSH1 0x40 MLOAD PUSH32 0x8C379A000000000000000000000000000000000000000000000000000000000 DUP2 MSTORE PUSH1 0x4 ADD PUSH2 0x226 SWAP1 PUSH2 0x434 JUMP JUMPDEST PUSH1 0x40 MLOAD DUP1 SWAP2 SUB SWAP1 REVERT JUMPDEST POP POP JUMP JUMPDEST PUSH0 PUSH1 0x2 PUSH0 DUP4 PUSH20 0xFFFFFFFFFFFFFFFFFFFFFFFFFFFFFFFFFFFFFFFF AND PUSH20 0xFFFFFFFFFFFFFFFFFFFFFFFFFFFFFFFFFFFFFFFF AND DUP2 MSTORE PUSH1 0x20 ADD SWAP1 DUP2 MSTORE PUSH1 0x20 ADD PUSH0 KECCAK256 PUSH0 SWAP1 SLOAD SWAP1 PUSH2 0x100 EXP SWAP1 DIV PUSH1 0xFF AND SWAP1 POP SWAP2 SWAP1 POP JUMP JUMPDEST PUSH0 DUP1 REVERT JUMPDEST PUSH0 PUSH20 0xFFFFFFFFFFFFFFFFFFFFFFFFFFFFFFFFFFFFFFFF DUP3 AND SWAP1 POP SWAP2 SWAP1 POP JUMP JUMPDEST PUSH0 PUSH2 0x2B2 DUP3 PUSH2 0x289 JUMP JUMPDEST SWAP1 POP SWAP2 SWAP1 POP JUMP JUMPDEST PUSH2 0x2C2 DUP2 PUSH2 0x2A8 JUMP JUMPDEST DUP2 EQ PUSH2 0x2CC JUMPI PUSH0 DUP1 REVERT JUMPDEST POP JUMP JUMPDEST PUSH0 DUP2 CALLDATALOAD SWAP1 POP PUSH2 0x2DD DUP2 PUSH2 0x2B9 JUMP JUMPDEST SWAP3 SWAP2 POP POP JUMP JUMPDEST PUSH0 PUSH1 0x20 DUP3 DUP5 SUB SLT ISZERO PUSH2 0x2F8 JUMPI PUSH2 0x2F7 PUSH2 0x285 JUMP JUMPDEST JUMPDEST PUSH0 PUSH2 0x305 DUP5 DUP3 DUP6 ADD PUSH2 0x2CF JUMP JUMPDEST SWAP2 POP POP SWAP3 SWAP2 POP POP JUMP JUMPDEST PUSH0 DUP2 SWAP1 POP SWAP2 SWAP1 POP JUMP JUMPDEST PUSH2 0x320 DUP2 PUSH2 0x30E JUMP JUMPDEST DUP3 MSTORE POP POP JUMP JUMPDEST PUSH0 PUSH1 0x20 DUP3 ADD SWAP1 POP PUSH2 0x339 PUSH0 DUP4 ADD DUP5 PUSH2 0x317 JUMP JUMPDEST SWAP3 SWAP2 POP POP JUMP JUMPDEST PUSH0 DUP2 ISZERO ISZERO SWAP1 POP SWAP2 SWAP1 POP JUMP JUMPDEST PUSH2 0x353 DUP2 PUSH2 0x33F JUMP JUMPDEST DUP3 MSTORE POP POP JUMP JUMPDEST PUSH0 PUSH1 0x20 DUP3 ADD SWAP1 POP PUSH2 0x36C PUSH0 DUP4 ADD DUP5 PUSH2 0x34A JUMP JUMPDEST SWAP3 SWAP2 POP POP JUMP JUMPDEST PUSH0 DUP3 DUP3 MSTORE PUSH1 0x20 DUP3 ADD SWAP1 POP SWAP3 SWAP2 POP POP JUMP JUMPDEST PUSH32 0x596F75206D7573742073656E6420736F6D652045746865720000000000000000 PUSH0 DUP3 ADD MSTORE POP JUMP JUMPDEST PUSH0 PUSH2 0x3B6 PUSH1 0x18 DUP4 PUSH2 0x372 JUMP JUMPDEST SWAP2 POP PUSH2 0x3C1 DUP3 PUSH2 0x382 JUMP JUMPDEST PUSH1 0x20 DUP3 ADD SWAP1 POP SWAP2 SWAP1 POP JUMP JUMPDEST PUSH0 PUSH1 0x20 DUP3 ADD SWAP1 POP DUP2 DUP2 SUB PUSH0 DUP4 ADD MSTORE PUSH2 0x3E3 DUP2 PUSH2 0x3AA JUMP JUMPDEST SWAP1 POP SWAP2 SWAP1 POP JUMP JUMPDEST PUSH32 0x7573657220697320616C72656164792070616964210000000000000000000000 PUSH0 DUP3 ADD MSTORE POP JUMP JUMPDEST PUSH0 PUSH2 0x41E PUSH1 0x15 DUP4 PUSH2 0x372 JUMP JUMPDEST SWAP2 POP PUSH2 0x429 DUP3 PUSH2 0x3EA JUMP JUMPDEST PUSH1 0x20 DUP3 ADD SWAP1 POP SWAP2 SWAP1 POP JUMP JUMPDEST PUSH0 PUSH1 0x20 DUP3 ADD SWAP1 POP DUP2 DUP2 SUB PUSH0 DUP4 ADD MSTORE PUSH2 0x44B DUP2 PUSH2 0x412 JUMP JUMPDEST SWAP1 POP SWAP2 SWAP1 POP JUMP INVALID LOG2 PUSH5 0x6970667358 0x22 SLT KECCAK256 ISZERO PUSH7 0x472A574073F500 LOG1 0x1E CALLER DUP12 NUMBER 0xB4 DUP9 LOG2 PUSH20 0x9F01C8CC83B3D201CE900B397FC64736F6C6343 STOP ADDMOD AND STOP CALLER "
	},
	"Assembly": ".code\n  PUSH 80\t\t\tcontract cryptoDoreaUsers {\\r\\...\n  PUSH 40\t\t\tcontract cryptoDoreaUsers {\\r\\...\n  MSTORE \t\t\tcontract cryptoDoreaUsers {\\r\\...\n  CALLVALUE \t\t\tconstructor()  {\\r\\n\\r\\n    }\n  DUP1 \t\t\tconstructor()  {\\r\\n\\r\\n    }\n  ISZERO \t\t\tconstructor()  {\\r\\n\\r\\n    }\n  PUSH [tag] 1\t\t\tconstructor()  {\\r\\n\\r\\n    }\n  JUMPI \t\t\tconstructor()  {\\r\\n\\r\\n    }\n  PUSH 0\t\t\tconstructor()  {\\r\\n\\r\\n    }\n  DUP1 \t\t\tconstructor()  {\\r\\n\\r\\n    }\n  REVERT \t\t\tconstructor()  {\\r\\n\\r\\n    }\ntag 1\t\t\tconstructor()  {\\r\\n\\r\\n    }\n  JUMPDEST \t\t\tconstructor()  {\\r\\n\\r\\n    }\n  POP \t\t\tconstructor()  {\\r\\n\\r\\n    }\n  PUSH #[$] 0000000000000000000000000000000000000000000000000000000000000000\t\t\tcontract cryptoDoreaUsers {\\r\\...\n  DUP1 \t\t\tcontract cryptoDoreaUsers {\\r\\...\n  PUSH [$] 0000000000000000000000000000000000000000000000000000000000000000\t\t\tcontract cryptoDoreaUsers {\\r\\...\n  PUSH 0\t\t\tcontract cryptoDoreaUsers {\\r\\...\n  CODECOPY \t\t\tcontract cryptoDoreaUsers {\\r\\...\n  PUSH 0\t\t\tcontract cryptoDoreaUsers {\\r\\...\n  RETURN \t\t\tcontract cryptoDoreaUsers {\\r\\...\n.data\n  0:\n    .code\n      PUSH 80\t\t\tcontract cryptoDoreaUsers {\\r\\...\n      PUSH 40\t\t\tcontract cryptoDoreaUsers {\\r\\...\n      MSTORE \t\t\tcontract cryptoDoreaUsers {\\r\\...\n      PUSH 4\t\t\tcontract cryptoDoreaUsers {\\r\\...\n      CALLDATASIZE \t\t\tcontract cryptoDoreaUsers {\\r\\...\n      LT \t\t\tcontract cryptoDoreaUsers {\\r\\...\n      PUSH [tag] 1\t\t\tcontract cryptoDoreaUsers {\\r\\...\n      JUMPI \t\t\tcontract cryptoDoreaUsers {\\r\\...\n      PUSH 0\t\t\tcontract cryptoDoreaUsers {\\r\\...\n      CALLDATALOAD \t\t\tcontract cryptoDoreaUsers {\\r\\...\n      PUSH E0\t\t\tcontract cryptoDoreaUsers {\\r\\...\n      SHR \t\t\tcontract cryptoDoreaUsers {\\r\\...\n      DUP1 \t\t\tcontract cryptoDoreaUsers {\\r\\...\n      PUSH C11DEDD\t\t\tcontract cryptoDoreaUsers {\\r\\...\n      EQ \t\t\tcontract cryptoDoreaUsers {\\r\\...\n      PUSH [tag] 2\t\t\tcontract cryptoDoreaUsers {\\r\\...\n      JUMPI \t\t\tcontract cryptoDoreaUsers {\\r\\...\n      DUP1 \t\t\tcontract cryptoDoreaUsers {\\r\\...\n      PUSH 12065FE0\t\t\tcontract cryptoDoreaUsers {\\r\\...\n      EQ \t\t\tcontract cryptoDoreaUsers {\\r\\...\n      PUSH [tag] 3\t\t\tcontract cryptoDoreaUsers {\\r\\...\n      JUMPI \t\t\tcontract cryptoDoreaUsers {\\r\\...\n      DUP1 \t\t\tcontract cryptoDoreaUsers {\\r\\...\n      PUSH 6062B66B\t\t\tcontract cryptoDoreaUsers {\\r\\...\n      EQ \t\t\tcontract cryptoDoreaUsers {\\r\\...\n      PUSH [tag] 4\t\t\tcontract cryptoDoreaUsers {\\r\\...\n      JUMPI \t\t\tcontract cryptoDoreaUsers {\\r\\...\n      DUP1 \t\t\tcontract cryptoDoreaUsers {\\r\\...\n      PUSH BB29998E\t\t\tcontract cryptoDoreaUsers {\\r\\...\n      EQ \t\t\tcontract cryptoDoreaUsers {\\r\\...\n      PUSH [tag] 5\t\t\tcontract cryptoDoreaUsers {\\r\\...\n      JUMPI \t\t\tcontract cryptoDoreaUsers {\\r\\...\n    tag 1\t\t\tcontract cryptoDoreaUsers {\\r\\...\n      JUMPDEST \t\t\tcontract cryptoDoreaUsers {\\r\\...\n      PUSH 0\t\t\tcontract cryptoDoreaUsers {\\r\\...\n      DUP1 \t\t\tcontract cryptoDoreaUsers {\\r\\...\n      REVERT \t\t\tcontract cryptoDoreaUsers {\\r\\...\n    tag 2\t\t\tfunction pay(address _receipen...\n      JUMPDEST \t\t\tfunction pay(address _receipen...\n      PUSH [tag] 6\t\t\tfunction pay(address _receipen...\n      PUSH 4\t\t\tfunction pay(address _receipen...\n      DUP1 \t\t\tfunction pay(address _receipen...\n      CALLDATASIZE \t\t\tfunction pay(address _receipen...\n      SUB \t\t\tfunction pay(address _receipen...\n      DUP2 \t\t\tfunction pay(address _receipen...\n      ADD \t\t\tfunction pay(address _receipen...\n      SWAP1 \t\t\tfunction pay(address _receipen...\n      PUSH [tag] 7\t\t\tfunction pay(address _receipen...\n      SWAP2 \t\t\tfunction pay(address _receipen...\n      SWAP1 \t\t\tfunction pay(address _receipen...\n      PUSH [tag] 8\t\t\tfunction pay(address _receipen...\n      JUMP \t\t\tfunction pay(address _receipen...\n    tag 7\t\t\tfunction pay(address _receipen...\n      JUMPDEST \t\t\tfunction pay(address _receipen...\n      PUSH [tag] 9\t\t\tfunction pay(address _receipen...\n      JUMP \t\t\tfunction pay(address _receipen...\n    tag 6\t\t\tfunction pay(address _receipen...\n      JUMPDEST \t\t\tfunction pay(address _receipen...\n      STOP \t\t\tfunction pay(address _receipen...\n    tag 3\t\t\tfunction getBalance() public v...\n      JUMPDEST \t\t\tfunction getBalance() public v...\n      CALLVALUE \t\t\tfunction getBalance() public v...\n      DUP1 \t\t\tfunction getBalance() public v...\n      ISZERO \t\t\tfunction getBalance() public v...\n      PUSH [tag] 10\t\t\tfunction getBalance() public v...\n      JUMPI \t\t\tfunction getBalance() public v...\n      PUSH 0\t\t\tfunction getBalance() public v...\n      DUP1 \t\t\tfunction getBalance() public v...\n      REVERT \t\t\tfunction getBalance() public v...\n    tag 10\t\t\tfunction getBalance() public v...\n      JUMPDEST \t\t\tfunction getBalance() public v...\n      POP \t\t\tfunction getBalance() public v...\n      PUSH [tag] 11\t\t\tfunction getBalance() public v...\n      PUSH [tag] 12\t\t\tfunction getBalance() public v...\n      JUMP \t\t\tfunction getBalance() public v...\n    tag 11\t\t\tfunction getBalance() public v...\n      JUMPDEST \t\t\tfunction getBalance() public v...\n      PUSH 40\t\t\tfunction getBalance() public v...\n      MLOAD \t\t\tfunction getBalance() public v...\n      PUSH [tag] 13\t\t\tfunction getBalance() public v...\n      SWAP2 \t\t\tfunction getBalance() public v...\n      SWAP1 \t\t\tfunction getBalance() public v...\n      PUSH [tag] 14\t\t\tfunction getBalance() public v...\n      JUMP \t\t\tfunction getBalance() public v...\n    tag 13\t\t\tfunction getBalance() public v...\n      JUMPDEST \t\t\tfunction getBalance() public v...\n      PUSH 40\t\t\tfunction getBalance() public v...\n      MLOAD \t\t\tfunction getBalance() public v...\n      DUP1 \t\t\tfunction getBalance() public v...\n      SWAP2 \t\t\tfunction getBalance() public v...\n      SUB \t\t\tfunction getBalance() public v...\n      SWAP1 \t\t\tfunction getBalance() public v...\n      RETURN \t\t\tfunction getBalance() public v...\n    tag 4\t\t\tfunction paymentCheck(address ...\n      JUMPDEST \t\t\tfunction paymentCheck(address ...\n      CALLVALUE \t\t\tfunction paymentCheck(address ...\n      DUP1 \t\t\tfunction paymentCheck(address ...\n      ISZERO \t\t\tfunction paymentCheck(address ...\n      PUSH [tag] 15\t\t\tfunction paymentCheck(address ...\n      JUMPI \t\t\tfunction paymentCheck(address ...\n      PUSH 0\t\t\tfunction paymentCheck(address ...\n      DUP1 \t\t\tfunction paymentCheck(address ...\n      REVERT \t\t\tfunction paymentCheck(address ...\n    tag 15\t\t\tfunction paymentCheck(address ...\n      JUMPDEST \t\t\tfunction paymentCheck(address ...\n      POP \t\t\tfunction paymentCheck(address ...\n      PUSH [tag] 16\t\t\tfunction paymentCheck(address ...\n      PUSH 4\t\t\tfunction paymentCheck(address ...\n      DUP1 \t\t\tfunction paymentCheck(address ...\n      CALLDATASIZE \t\t\tfunction paymentCheck(address ...\n      SUB \t\t\tfunction paymentCheck(address ...\n      DUP2 \t\t\tfunction paymentCheck(address ...\n      ADD \t\t\tfunction paymentCheck(address ...\n      SWAP1 \t\t\tfunction paymentCheck(address ...\n      PUSH [tag] 17\t\t\tfunction paymentCheck(address ...\n      SWAP2 \t\t\tfunction paymentCheck(address ...\n      SWAP1 \t\t\tfunction paymentCheck(address ...\n      PUSH [tag] 8\t\t\tfunction paymentCheck(address ...\n      JUMP \t\t\tfunction paymentCheck(address ...\n    tag 17\t\t\tfunction paymentCheck(address ...\n      JUMPDEST \t\t\tfunction paymentCheck(address ...\n      PUSH [tag] 18\t\t\tfunction paymentCheck(address ...\n      JUMP \t\t\tfunction paymentCheck(address ...\n    tag 16\t\t\tfunction paymentCheck(address ...\n      JUMPDEST \t\t\tfunction paymentCheck(address ...\n      STOP \t\t\tfunction paymentCheck(address ...\n    tag 5\t\t\tfunction test(address _receipe...\n      JUMPDEST \t\t\tfunction test(address _receipe...\n      CALLVALUE \t\t\tfunction test(address _receipe...\n      DUP1 \t\t\tfunction test(address _receipe...\n      ISZERO \t\t\tfunction test(address _receipe...\n      PUSH [tag] 19\t\t\tfunction test(address _receipe...\n      JUMPI \t\t\tfunction test(address _receipe...\n      PUSH 0\t\t\tfunction test(address _receipe...\n      DUP1 \t\t\tfunction test(address _receipe...\n      REVERT \t\t\tfunction test(address _receipe...\n    tag 19\t\t\tfunction test(address _receipe...\n      JUMPDEST \t\t\tfunction test(address _receipe...\n      POP \t\t\tfunction test(address _receipe...\n      PUSH [tag] 20\t\t\tfunction test(address _receipe...\n      PUSH 4\t\t\tfunction test(address _receipe...\n      DUP1 \t\t\tfunction test(address _receipe...\n      CALLDATASIZE \t\t\tfunction test(address _receipe...\n      SUB \t\t\tfunction test(address _receipe...\n      DUP2 \t\t\tfunction test(address _receipe...\n      ADD \t\t\tfunction test(address _receipe...\n      SWAP1 \t\t\tfunction test(address _receipe...\n      PUSH [tag] 21\t\t\tfunction test(address _receipe...\n      SWAP2 \t\t\tfunction test(address _receipe...\n      SWAP1 \t\t\tfunction test(address _receipe...\n      PUSH [tag] 8\t\t\tfunction test(address _receipe...\n      JUMP \t\t\tfunction test(address _receipe...\n    tag 21\t\t\tfunction test(address _receipe...\n      JUMPDEST \t\t\tfunction test(address _receipe...\n      PUSH [tag] 22\t\t\tfunction test(address _receipe...\n      JUMP \t\t\tfunction test(address _receipe...\n    tag 20\t\t\tfunction test(address _receipe...\n      JUMPDEST \t\t\tfunction test(address _receipe...\n      PUSH 40\t\t\tfunction test(address _receipe...\n      MLOAD \t\t\tfunction test(address _receipe...\n      PUSH [tag] 23\t\t\tfunction test(address _receipe...\n      SWAP2 \t\t\tfunction test(address _receipe...\n      SWAP1 \t\t\tfunction test(address _receipe...\n      PUSH [tag] 24\t\t\tfunction test(address _receipe...\n      JUMP \t\t\tfunction test(address _receipe...\n    tag 23\t\t\tfunction test(address _receipe...\n      JUMPDEST \t\t\tfunction test(address _receipe...\n      PUSH 40\t\t\tfunction test(address _receipe...\n      MLOAD \t\t\tfunction test(address _receipe...\n      DUP1 \t\t\tfunction test(address _receipe...\n      SWAP2 \t\t\tfunction test(address _receipe...\n      SUB \t\t\tfunction test(address _receipe...\n      SWAP1 \t\t\tfunction test(address _receipe...\n      RETURN \t\t\tfunction test(address _receipe...\n    tag 9\t\t\tfunction pay(address _receipen...\n      JUMPDEST \t\t\tfunction pay(address _receipen...\n      PUSH 0\t\t\t0\n      CALLVALUE \t\t\tmsg.value\n      GT \t\t\tmsg.value > 0\n      PUSH [tag] 26\t\t\trequire(msg.value > 0, \"You mu...\n      JUMPI \t\t\trequire(msg.value > 0, \"You mu...\n      PUSH 40\t\t\trequire(msg.value > 0, \"You mu...\n      MLOAD \t\t\trequire(msg.value > 0, \"You mu...\n      PUSH 8C379A000000000000000000000000000000000000000000000000000000000\t\t\trequire(msg.value > 0, \"You mu...\n      DUP2 \t\t\trequire(msg.value > 0, \"You mu...\n      MSTORE \t\t\trequire(msg.value > 0, \"You mu...\n      PUSH 4\t\t\trequire(msg.value > 0, \"You mu...\n      ADD \t\t\trequire(msg.value > 0, \"You mu...\n      PUSH [tag] 27\t\t\trequire(msg.value > 0, \"You mu...\n      SWAP1 \t\t\trequire(msg.value > 0, \"You mu...\n      PUSH [tag] 28\t\t\trequire(msg.value > 0, \"You mu...\n      JUMP \t\t\trequire(msg.value > 0, \"You mu...\n    tag 27\t\t\trequire(msg.value > 0, \"You mu...\n      JUMPDEST \t\t\trequire(msg.value > 0, \"You mu...\n      PUSH 40\t\t\trequire(msg.value > 0, \"You mu...\n      MLOAD \t\t\trequire(msg.value > 0, \"You mu...\n      DUP1 \t\t\trequire(msg.value > 0, \"You mu...\n      SWAP2 \t\t\trequire(msg.value > 0, \"You mu...\n      SUB \t\t\trequire(msg.value > 0, \"You mu...\n      SWAP1 \t\t\trequire(msg.value > 0, \"You mu...\n      REVERT \t\t\trequire(msg.value > 0, \"You mu...\n    tag 26\t\t\trequire(msg.value > 0, \"You mu...\n      JUMPDEST \t\t\trequire(msg.value > 0, \"You mu...\n      PUSH [tag] 29\t\t\tpaymentCheck(_receipent)\n      DUP2 \t\t\t_receipent\n      PUSH [tag] 18\t\t\tpaymentCheck\n      JUMP \t\t\tpaymentCheck(_receipent)\n    tag 29\t\t\tpaymentCheck(_receipent)\n      JUMPDEST \t\t\tpaymentCheck(_receipent)\n      POP \t\t\tfunction pay(address _receipen...\n      JUMP \t\t\tfunction pay(address _receipen...\n    tag 12\t\t\tfunction getBalance() public v...\n      JUMPDEST \t\t\tfunction getBalance() public v...\n      PUSH 0\t\t\tuint256\n      SELFBALANCE \t\t\taddress(this).balance\n      SWAP1 \t\t\treturn address(this).balance\n      POP \t\t\treturn address(this).balance\n      SWAP1 \t\t\tfunction getBalance() public v...\n      JUMP \t\t\tfunction getBalance() public v...\n    tag 18\t\t\tfunction paymentCheck(address ...\n      JUMPDEST \t\t\tfunction paymentCheck(address ...\n      PUSH 0\t\t\tbool payCheck\n      PUSH 2\t\t\t_paymentStatus\n      PUSH 0\t\t\t_paymentStatus[usersAddress]\n      DUP4 \t\t\tusersAddress\n      PUSH FFFFFFFFFFFFFFFFFFFFFFFFFFFFFFFFFFFFFFFF\t\t\t_paymentStatus[usersAddress]\n      AND \t\t\t_paymentStatus[usersAddress]\n      PUSH FFFFFFFFFFFFFFFFFFFFFFFFFFFFFFFFFFFFFFFF\t\t\t_paymentStatus[usersAddress]\n      AND \t\t\t_paymentStatus[usersAddress]\n      DUP2 \t\t\t_paymentStatus[usersAddress]\n      MSTORE \t\t\t_paymentStatus[usersAddress]\n      PUSH 20\t\t\t_paymentStatus[usersAddress]\n      ADD \t\t\t_paymentStatus[usersAddress]\n      SWAP1 \t\t\t_paymentStatus[usersAddress]\n      DUP2 \t\t\t_paymentStatus[usersAddress]\n      MSTORE \t\t\t_paymentStatus[usersAddress]\n      PUSH 20\t\t\t_paymentStatus[usersAddress]\n      ADD \t\t\t_paymentStatus[usersAddress]\n      PUSH 0\t\t\t_paymentStatus[usersAddress]\n      KECCAK256 \t\t\t_paymentStatus[usersAddress]\n      PUSH 0\t\t\t_paymentStatus[usersAddress]\n      SWAP1 \t\t\t_paymentStatus[usersAddress]\n      SLOAD \t\t\t_paymentStatus[usersAddress]\n      SWAP1 \t\t\t_paymentStatus[usersAddress]\n      PUSH 100\t\t\t_paymentStatus[usersAddress]\n      EXP \t\t\t_paymentStatus[usersAddress]\n      SWAP1 \t\t\t_paymentStatus[usersAddress]\n      DIV \t\t\t_paymentStatus[usersAddress]\n      PUSH FF\t\t\t_paymentStatus[usersAddress]\n      AND \t\t\t_paymentStatus[usersAddress]\n      SWAP1 \t\t\tbool payCheck = _paymentStatus...\n      POP \t\t\tbool payCheck = _paymentStatus...\n      PUSH 1\t\t\ttrue\n      ISZERO \t\t\tpayCheck != true\n      ISZERO \t\t\tpayCheck != true\n      DUP2 \t\t\tpayCheck\n      ISZERO \t\t\tpayCheck != true\n      ISZERO \t\t\tpayCheck != true\n      EQ \t\t\tpayCheck != true\n      PUSH [tag] 32\t\t\tif(payCheck != true){\\r\\n\\r\\n ...\n      JUMPI \t\t\tif(payCheck != true){\\r\\n\\r\\n ...\n      PUSH 1\t\t\ttrue\n      PUSH 2\t\t\t_paymentStatus\n      PUSH 0\t\t\t_paymentStatus[usersAddress]\n      DUP5 \t\t\tusersAddress\n      PUSH FFFFFFFFFFFFFFFFFFFFFFFFFFFFFFFFFFFFFFFF\t\t\t_paymentStatus[usersAddress]\n      AND \t\t\t_paymentStatus[usersAddress]\n      PUSH FFFFFFFFFFFFFFFFFFFFFFFFFFFFFFFFFFFFFFFF\t\t\t_paymentStatus[usersAddress]\n      AND \t\t\t_paymentStatus[usersAddress]\n      DUP2 \t\t\t_paymentStatus[usersAddress]\n      MSTORE \t\t\t_paymentStatus[usersAddress]\n      PUSH 20\t\t\t_paymentStatus[usersAddress]\n      ADD \t\t\t_paymentStatus[usersAddress]\n      SWAP1 \t\t\t_paymentStatus[usersAddress]\n      DUP2 \t\t\t_paymentStatus[usersAddress]\n      MSTORE \t\t\t_paymentStatus[usersAddress]\n      PUSH 20\t\t\t_paymentStatus[usersAddress]\n      ADD \t\t\t_paymentStatus[usersAddress]\n      PUSH 0\t\t\t_paymentStatus[usersAddress]\n      KECCAK256 \t\t\t_paymentStatus[usersAddress]\n      PUSH 0\t\t\t_paymentStatus[usersAddress]\n      PUSH 100\t\t\t_paymentStatus[usersAddress] =...\n      EXP \t\t\t_paymentStatus[usersAddress] =...\n      DUP2 \t\t\t_paymentStatus[usersAddress] =...\n      SLOAD \t\t\t_paymentStatus[usersAddress] =...\n      DUP2 \t\t\t_paymentStatus[usersAddress] =...\n      PUSH FF\t\t\t_paymentStatus[usersAddress] =...\n      MUL \t\t\t_paymentStatus[usersAddress] =...\n      NOT \t\t\t_paymentStatus[usersAddress] =...\n      AND \t\t\t_paymentStatus[usersAddress] =...\n      SWAP1 \t\t\t_paymentStatus[usersAddress] =...\n      DUP4 \t\t\t_paymentStatus[usersAddress] =...\n      ISZERO \t\t\t_paymentStatus[usersAddress] =...\n      ISZERO \t\t\t_paymentStatus[usersAddress] =...\n      MUL \t\t\t_paymentStatus[usersAddress] =...\n      OR \t\t\t_paymentStatus[usersAddress] =...\n      SWAP1 \t\t\t_paymentStatus[usersAddress] =...\n      SSTORE \t\t\t_paymentStatus[usersAddress] =...\n      POP \t\t\t_paymentStatus[usersAddress] =...\n      PUSH [tag] 33\t\t\tif(payCheck != true){\\r\\n\\r\\n ...\n      JUMP \t\t\tif(payCheck != true){\\r\\n\\r\\n ...\n    tag 32\t\t\tif(payCheck != true){\\r\\n\\r\\n ...\n      JUMPDEST \t\t\tif(payCheck != true){\\r\\n\\r\\n ...\n      PUSH 40\t\t\trevert(\"user is already paid!\"...\n      MLOAD \t\t\trevert(\"user is already paid!\"...\n      PUSH 8C379A000000000000000000000000000000000000000000000000000000000\t\t\trevert(\"user is already paid!\"...\n      DUP2 \t\t\trevert(\"user is already paid!\"...\n      MSTORE \t\t\trevert(\"user is already paid!\"...\n      PUSH 4\t\t\trevert(\"user is already paid!\"...\n      ADD \t\t\trevert(\"user is already paid!\"...\n      PUSH [tag] 34\t\t\trevert(\"user is already paid!\"...\n      SWAP1 \t\t\trevert(\"user is already paid!\"...\n      PUSH [tag] 35\t\t\trevert(\"user is already paid!\"...\n      JUMP \t\t\trevert(\"user is already paid!\"...\n    tag 34\t\t\trevert(\"user is already paid!\"...\n      JUMPDEST \t\t\trevert(\"user is already paid!\"...\n      PUSH 40\t\t\trevert(\"user is already paid!\"...\n      MLOAD \t\t\trevert(\"user is already paid!\"...\n      DUP1 \t\t\trevert(\"user is already paid!\"...\n      SWAP2 \t\t\trevert(\"user is already paid!\"...\n      SUB \t\t\trevert(\"user is already paid!\"...\n      SWAP1 \t\t\trevert(\"user is already paid!\"...\n      REVERT \t\t\trevert(\"user is already paid!\"...\n    tag 33\t\t\tif(payCheck != true){\\r\\n\\r\\n ...\n      JUMPDEST \t\t\tif(payCheck != true){\\r\\n\\r\\n ...\n      POP \t\t\t{\\r\\n\\r\\n        bool payCheck...\n      POP \t\t\tfunction paymentCheck(address ...\n      JUMP \t\t\tfunction paymentCheck(address ...\n    tag 22\t\t\tfunction test(address _receipe...\n      JUMPDEST \t\t\tfunction test(address _receipe...\n      PUSH 0\t\t\tbool\n      PUSH 2\t\t\t_paymentStatus\n      PUSH 0\t\t\t_paymentStatus[_receipent]\n      DUP4 \t\t\t_receipent\n      PUSH FFFFFFFFFFFFFFFFFFFFFFFFFFFFFFFFFFFFFFFF\t\t\t_paymentStatus[_receipent]\n      AND \t\t\t_paymentStatus[_receipent]\n      PUSH FFFFFFFFFFFFFFFFFFFFFFFFFFFFFFFFFFFFFFFF\t\t\t_paymentStatus[_receipent]\n      AND \t\t\t_paymentStatus[_receipent]\n      DUP2 \t\t\t_paymentStatus[_receipent]\n      MSTORE \t\t\t_paymentStatus[_receipent]\n      PUSH 20\t\t\t_paymentStatus[_receipent]\n      ADD \t\t\t_paymentStatus[_receipent]\n      SWAP1 \t\t\t_paymentStatus[_receipent]\n      DUP2 \t\t\t_paymentStatus[_receipent]\n      MSTORE \t\t\t_paymentStatus[_receipent]\n      PUSH 20\t\t\t_paymentStatus[_receipent]\n      ADD \t\t\t_paymentStatus[_receipent]\n      PUSH 0\t\t\t_paymentStatus[_receipent]\n      KECCAK256 \t\t\t_paymentStatus[_receipent]\n      PUSH 0\t\t\t_paymentStatus[_receipent]\n      SWAP1 \t\t\t_paymentStatus[_receipent]\n      SLOAD \t\t\t_paymentStatus[_receipent]\n      SWAP1 \t\t\t_paymentStatus[_receipent]\n      PUSH 100\t\t\t_paymentStatus[_receipent]\n      EXP \t\t\t_paymentStatus[_receipent]\n      SWAP1 \t\t\t_paymentStatus[_receipent]\n      DIV \t\t\t_paymentStatus[_receipent]\n      PUSH FF\t\t\t_paymentStatus[_receipent]\n      AND \t\t\t_paymentStatus[_receipent]\n      SWAP1 \t\t\treturn  _paymentStatus[_receip...\n      POP \t\t\treturn  _paymentStatus[_receip...\n      SWAP2 \t\t\tfunction test(address _receipe...\n      SWAP1 \t\t\tfunction test(address _receipe...\n      POP \t\t\tfunction test(address _receipe...\n      JUMP \t\t\tfunction test(address _receipe...\n    tag 38\t\t\tDoreaUsers {\\r\\n\\r\\n    mappin...\n      JUMPDEST \t\t\tDoreaUsers {\\r\\n\\r\\n    mappin...\n      PUSH 0\t\t\te\n      DUP1 \t\t\t_\n      REVERT \t\t\trivate _free\n    tag 40\t\t\t  function freeTrialCheck(addr...\n      JUMPDEST \t\t\t  function freeTrialCheck(addr...\n      PUSH 0\t\t\trsAddre\n      PUSH FFFFFFFFFFFFFFFFFFFFFFFFFFFFFFFFFFFFFFFF\t\t\tol trialCheck = _freeTrialTime...\n      DUP3 \t\t\t     \n      AND \t\t\t\\n        bool trialCheck = _f...\n      SWAP1 \t\t\t\\r\\n        \\r\\n        bool t...\n      POP \t\t\t\\r\\n        \\r\\n        bool t...\n      SWAP2 \t\t\t  function freeTrialCheck(addr...\n      SWAP1 \t\t\t  function freeTrialCheck(addr...\n      POP \t\t\t  function freeTrialCheck(addr...\n      JUMP \t\t\t  function freeTrialCheck(addr...\n    tag 41\t\t\t       if(trialCheck != true){...\n      JUMPDEST \t\t\t       if(trialCheck != true){...\n      PUSH 0\t\t\t       \n      PUSH [tag] 59\t\t\t period to the first tim\n      DUP3 \t\t\tst ti\n      PUSH [tag] 40\t\t\t period to the first tim\n      JUMP \t\t\t period to the first tim\n    tag 59\t\t\t period to the first tim\n      JUMPDEST \t\t\t period to the first tim\n      SWAP1 \t\t\t days trial period to the firs...\n      POP \t\t\t days trial period to the firs...\n      SWAP2 \t\t\t       if(trialCheck != true){...\n      SWAP1 \t\t\t       if(trialCheck != true){...\n      POP \t\t\t       if(trialCheck != true){...\n      JUMP \t\t\t       if(trialCheck != true){...\n    tag 42\t\t\t \\r\\n            _freeTrialTim...\n      JUMPDEST \t\t\t \\r\\n            _freeTrialTim...\n      PUSH [tag] 61\t\t\t00);\\r\\n            _freeT\n      DUP2 \t\t\t_free\n      PUSH [tag] 41\t\t\t00);\\r\\n            _freeT\n      JUMP \t\t\t00);\\r\\n            _freeT\n    tag 61\t\t\t00);\\r\\n            _freeT\n      JUMPDEST \t\t\t00);\\r\\n            _freeT\n      DUP2 \t\t\t4 * 8\n      EQ \t\t\t (14 * 86400);\\r\\n            ...\n      PUSH [tag] 62\t\t\timestamp + (14 * 86400);\\r\\n  ...\n      JUMPI \t\t\timestamp + (14 * 86400);\\r\\n  ...\n      PUSH 0\t\t\ts\n      DUP1 \t\t\ts\n      REVERT \t\t\ttatus[usersA\n    tag 62\t\t\timestamp + (14 * 86400);\\r\\n  ...\n      JUMPDEST \t\t\timestamp + (14 * 86400);\\r\\n  ...\n      POP \t\t\t \\r\\n            _freeTrialTim...\n      JUMP \t\t\t \\r\\n            _freeTrialTim...\n    tag 43\t\t\t;\\r\\n\\r\\n        }else{\\r\\n\\r\\...\n      JUMPDEST \t\t\t;\\r\\n\\r\\n        }else{\\r\\n\\r\\...\n      PUSH 0\t\t\talTim\n      DUP2 \t\t\tp){\\r\\n\\r\n      CALLDATALOAD \t\t\tlock.timestamp){\\r\\n\\r\\n\n      SWAP1 \t\t\tess] <= block.timestamp){\\r\\n\\...\n      POP \t\t\tess] <= block.timestamp){\\r\\n\\...\n      PUSH [tag] 64\t\t\t       _freeTrialTime[usersAdd...\n      DUP2 \t\t\tAddre\n      PUSH [tag] 42\t\t\t       _freeTrialTime[usersAdd...\n      JUMP \t\t\t       _freeTrialTime[usersAdd...\n    tag 64\t\t\t       _freeTrialTime[usersAdd...\n      JUMPDEST \t\t\t       _freeTrialTime[usersAdd...\n      SWAP3 \t\t\t;\\r\\n\\r\\n        }else{\\r\\n\\r\\...\n      SWAP2 \t\t\t;\\r\\n\\r\\n        }else{\\r\\n\\r\\...\n      POP \t\t\t;\\r\\n\\r\\n        }else{\\r\\n\\r\\...\n      POP \t\t\t;\\r\\n\\r\\n        }else{\\r\\n\\r\\...\n      JUMP \t\t\t;\\r\\n\\r\\n        }else{\\r\\n\\r\\...\n    tag 8\t\t\t             _freeTrialStatus[...\n      JUMPDEST \t\t\t             _freeTrialStatus[...\n      PUSH 0\t\t\t      \n      PUSH 20\t\t\t\\r\\n\n      DUP3 \t\t\t/\\r\\n\\r\\n    \n      DUP5 \t\t\t }\\r\\n   \n      SUB \t\t\t\\n    }\\r\\n    */\\r\\n\\r\\n    /\n      SLT \t\t\t  }\\r\\n    }\\r\\n    */\\r\\n\\r\\n...\n      ISZERO \t\t\t     }\\r\\n    }\\r\\n    */\\r\\n\\...\n      PUSH [tag] 66\t\t\t     }\\r\\n    }\\r\\n    */\\r\\n\\...\n      JUMPI \t\t\t     }\\r\\n    }\\r\\n    */\\r\\n\\...\n      PUSH [tag] 67\t\t\t*\\r\\n    */\\r\\n    function pa...\n      PUSH [tag] 38\t\t\t*\\r\\n    */\\r\\n    function pa...\n      JUMP \t\t\t*\\r\\n    */\\r\\n    function pa...\n    tag 67\t\t\t*\\r\\n    */\\r\\n    function pa...\n      JUMPDEST \t\t\t*\\r\\n    */\\r\\n    function pa...\n    tag 66\t\t\t     }\\r\\n    }\\r\\n    */\\r\\n\\...\n      JUMPDEST \t\t\t     }\\r\\n    }\\r\\n    */\\r\\n\\...\n      PUSH 0\t\t\ts\n      PUSH [tag] 68\t\t\tk != true){\\r\\n\\r\\n           ...\n      DUP5 \t\t\trsAddre\n      DUP3 \t\t\ttatus[\n      DUP6 \t\t\t  _paymen\n      ADD \t\t\t      _paymentStatus[u\n      PUSH [tag] 43\t\t\tk != true){\\r\\n\\r\\n           ...\n      JUMP \t\t\tk != true){\\r\\n\\r\\n           ...\n    tag 68\t\t\tk != true){\\r\\n\\r\\n           ...\n      JUMPDEST \t\t\tk != true){\\r\\n\\r\\n           ...\n      SWAP2 \t\t\tif(payCheck != true){\\r\\n\\r\\n ...\n      POP \t\t\tif(payCheck != true){\\r\\n\\r\\n ...\n      POP \t\t\t = _paymentStatus[usersAddress...\n      SWAP3 \t\t\t             _freeTrialStatus[...\n      SWAP2 \t\t\t             _freeTrialStatus[...\n      POP \t\t\t             _freeTrialStatus[...\n      POP \t\t\t             _freeTrialStatus[...\n      JUMP \t\t\t             _freeTrialStatus[...\n    tag 44\t\t\telse{\\r\\n            revert(\"u...\n      JUMPDEST \t\t\telse{\\r\\n            revert(\"u...\n      PUSH 0\t\t\tready p\n      DUP2 \t\t\t    }\n      SWAP1 \t\t\t      }\\r\\n\\r\\n    }\n      POP \t\t\t      }\\r\\n\\r\\n    }\n      SWAP2 \t\t\telse{\\r\\n            revert(\"u...\n      SWAP1 \t\t\telse{\\r\\n            revert(\"u...\n      POP \t\t\telse{\\r\\n            revert(\"u...\n      JUMP \t\t\telse{\\r\\n            revert(\"u...\n    tag 45\t\t\ttion test(address _receipent) ...\n      JUMPDEST \t\t\ttion test(address _receipent) ...\n      PUSH [tag] 71\t\t\tatus[_receipent];\\r\\n\\r\\n   \n      DUP2 \t\t\t\\n\\r\\n  \n      PUSH [tag] 44\t\t\tatus[_receipent];\\r\\n\\r\\n   \n      JUMP \t\t\tatus[_receipent];\\r\\n\\r\\n   \n    tag 71\t\t\tatus[_receipent];\\r\\n\\r\\n   \n      JUMPDEST \t\t\tatus[_receipent];\\r\\n\\r\\n   \n      DUP3 \t\t\tent\n      MSTORE \t\t\t  _paymentStatus[_receipent];\\...\n      POP \t\t\ttion test(address _receipent) ...\n      POP \t\t\ttion test(address _receipent) ...\n      JUMP \t\t\ttion test(address _receipent) ...\n    tag 14\t\t\t/ Transfer Ether to Loyal Cust...\n      JUMPDEST \t\t\t/ Transfer Ether to Loyal Cust...\n      PUSH 0\t\t\t    \n      PUSH 20\t\t\ter\n      DUP3 \t\t\tcheck if \n      ADD \t\t\t to check if user \n      SWAP1 \t\t\tfunction to check if user \n      POP \t\t\tfunction to check if user \n      PUSH [tag] 73\t\t\t not\\r\\n        require(msg.va...\n      PUSH 0\t\t\t \n      DUP4 \t\t\tEther\");\\r\n      ADD \t\t\tome Ether\");\\r\\n   \n      DUP5 \t\t\tst sen\n      PUSH [tag] 45\t\t\t not\\r\\n        require(msg.va...\n      JUMP \t\t\t not\\r\\n        require(msg.va...\n    tag 73\t\t\t not\\r\\n        require(msg.va...\n      JUMPDEST \t\t\t not\\r\\n        require(msg.va...\n      SWAP3 \t\t\t/ Transfer Ether to Loyal Cust...\n      SWAP2 \t\t\t/ Transfer Ether to Loyal Cust...\n      POP \t\t\t/ Transfer Ether to Loyal Cust...\n      POP \t\t\t/ Transfer Ether to Loyal Cust...\n      JUMP \t\t\t/ Transfer Ether to Loyal Cust...\n    tag 46\t\t\teck(_receipent);\\r\\n\\r\\n    }\\...\n      JUMPDEST \t\t\teck(_receipent);\\r\\n\\r\\n    }\\...\n      PUSH 0\t\t\t\\n    //\n      DUP2 \t\t\t  fun\n      ISZERO \t\t\tess\\r\\n    func\n      ISZERO \t\t\tct address\\r\\n    funct\n      SWAP1 \t\t\te of contract address\\r\\n    f...\n      POP \t\t\te of contract address\\r\\n    f...\n      SWAP2 \t\t\teck(_receipent);\\r\\n\\r\\n    }\\...\n      SWAP1 \t\t\teck(_receipent);\\r\\n\\r\\n    }\\...\n      POP \t\t\teck(_receipent);\\r\\n\\r\\n    }\\...\n      JUMP \t\t\teck(_receipent);\\r\\n\\r\\n    }\\...\n    tag 47\t\t\tce() public view returns(uint2...\n      JUMPDEST \t\t\tce() public view returns(uint2...\n      PUSH [tag] 76\t\t\t\\n\\r\\n}\n      DUP2 \t\t\t\n      PUSH [tag] 46\t\t\t\\n\\r\\n}\n      JUMP \t\t\t\\n\\r\\n}\n    tag 76\t\t\t\\n\\r\\n}\n      JUMPDEST \t\t\t\\n\\r\\n}\n      DUP3 \t\t\t   \n      MSTORE \t\t\tnce;\\r\\n    }\\r\\n\\r\\n}\n      POP \t\t\tce() public view returns(uint2...\n      POP \t\t\tce() public view returns(uint2...\n      JUMP \t\t\tce() public view returns(uint2...\n    tag 24\t\t\t\n      JUMPDEST \t\t\t\n      PUSH 0\t\t\t\n      PUSH 20\t\t\t\n      DUP3 \t\t\t\n      ADD \t\t\t\n      SWAP1 \t\t\t\n      POP \t\t\t\n      PUSH [tag] 78\t\t\t\n      PUSH 0\t\t\t\n      DUP4 \t\t\t\n      ADD \t\t\t\n      DUP5 \t\t\t\n      PUSH [tag] 47\t\t\t\n      JUMP \t\t\t\n    tag 78\t\t\t\n      JUMPDEST \t\t\t\n      SWAP3 \t\t\t\n      SWAP2 \t\t\t\n      POP \t\t\t\n      POP \t\t\t\n      JUMP \t\t\t\n    tag 48\t\t\t\n      JUMPDEST \t\t\t\n      PUSH 0\t\t\t\n      DUP3 \t\t\t\n      DUP3 \t\t\t\n      MSTORE \t\t\t\n      PUSH 20\t\t\t\n      DUP3 \t\t\t\n      ADD \t\t\t\n      SWAP1 \t\t\t\n      POP \t\t\t\n      SWAP3 \t\t\t\n      SWAP2 \t\t\t\n      POP \t\t\t\n      POP \t\t\t\n      JUMP \t\t\t\n    tag 49\t\t\t\n      JUMPDEST \t\t\t\n      PUSH 596F75206D7573742073656E6420736F6D652045746865720000000000000000\t\t\t\n      PUSH 0\t\t\t\n      DUP3 \t\t\t\n      ADD \t\t\t\n      MSTORE \t\t\t\n      POP \t\t\t\n      JUMP \t\t\t\n    tag 50\t\t\t\n      JUMPDEST \t\t\t\n      PUSH 0\t\t\t\n      PUSH [tag] 82\t\t\t\n      PUSH 18\t\t\t\n      DUP4 \t\t\t\n      PUSH [tag] 48\t\t\t\n      JUMP \t\t\t\n    tag 82\t\t\t\n      JUMPDEST \t\t\t\n      SWAP2 \t\t\t\n      POP \t\t\t\n      PUSH [tag] 83\t\t\t\n      DUP3 \t\t\t\n      PUSH [tag] 49\t\t\t\n      JUMP \t\t\t\n    tag 83\t\t\t\n      JUMPDEST \t\t\t\n      PUSH 20\t\t\t\n      DUP3 \t\t\t\n      ADD \t\t\t\n      SWAP1 \t\t\t\n      POP \t\t\t\n      SWAP2 \t\t\t\n      SWAP1 \t\t\t\n      POP \t\t\t\n      JUMP \t\t\t\n    tag 28\t\t\t\n      JUMPDEST \t\t\t\n      PUSH 0\t\t\t\n      PUSH 20\t\t\t\n      DUP3 \t\t\t\n      ADD \t\t\t\n      SWAP1 \t\t\t\n      POP \t\t\t\n      DUP2 \t\t\t\n      DUP2 \t\t\t\n      SUB \t\t\t\n      PUSH 0\t\t\t\n      DUP4 \t\t\t\n      ADD \t\t\t\n      MSTORE \t\t\t\n      PUSH [tag] 85\t\t\t\n      DUP2 \t\t\t\n      PUSH [tag] 50\t\t\t\n      JUMP \t\t\t\n    tag 85\t\t\t\n      JUMPDEST \t\t\t\n      SWAP1 \t\t\t\n      POP \t\t\t\n      SWAP2 \t\t\t\n      SWAP1 \t\t\t\n      POP \t\t\t\n      JUMP \t\t\t\n    tag 51\t\t\t\n      JUMPDEST \t\t\t\n      PUSH 7573657220697320616C72656164792070616964210000000000000000000000\t\t\t\n      PUSH 0\t\t\t\n      DUP3 \t\t\t\n      ADD \t\t\t\n      MSTORE \t\t\t\n      POP \t\t\t\n      JUMP \t\t\t\n    tag 52\t\t\t\n      JUMPDEST \t\t\t\n      PUSH 0\t\t\t\n      PUSH [tag] 88\t\t\t\n      PUSH 15\t\t\t\n      DUP4 \t\t\t\n      PUSH [tag] 48\t\t\t\n      JUMP \t\t\t\n    tag 88\t\t\t\n      JUMPDEST \t\t\t\n      SWAP2 \t\t\t\n      POP \t\t\t\n      PUSH [tag] 89\t\t\t\n      DUP3 \t\t\t\n      PUSH [tag] 51\t\t\t\n      JUMP \t\t\t\n    tag 89\t\t\t\n      JUMPDEST \t\t\t\n      PUSH 20\t\t\t\n      DUP3 \t\t\t\n      ADD \t\t\t\n      SWAP1 \t\t\t\n      POP \t\t\t\n      SWAP2 \t\t\t\n      SWAP1 \t\t\t\n      POP \t\t\t\n      JUMP \t\t\t\n    tag 35\t\t\t\n      JUMPDEST \t\t\t\n      PUSH 0\t\t\t\n      PUSH 20\t\t\t\n      DUP3 \t\t\t\n      ADD \t\t\t\n      SWAP1 \t\t\t\n      POP \t\t\t\n      DUP2 \t\t\t\n      DUP2 \t\t\t\n      SUB \t\t\t\n      PUSH 0\t\t\t\n      DUP4 \t\t\t\n      ADD \t\t\t\n      MSTORE \t\t\t\n      PUSH [tag] 91\t\t\t\n      DUP2 \t\t\t\n      PUSH [tag] 52\t\t\t\n      JUMP \t\t\t\n    tag 91\t\t\t\n      JUMPDEST \t\t\t\n      SWAP1 \t\t\t\n      POP \t\t\t\n      SWAP2 \t\t\t\n      SWAP1 \t\t\t\n      POP \t\t\t\n      JUMP \t\t\t\n    .data\n"
}