{
	"compilerInput": "{\"language\":\"Solidity\",\"sources\":{\"users.sol\":{\"content\":\"// SPDX-License-Identifier: GPL-3.0\\r\\npragma solidity >=0.4.20 <0.9.0;\\r\\n\\r\\ncontract cryptoDoreaUsers {\\r\\n\\r\\n    mapping(address=>uint256) private _usersAddress;\\r\\n\\r\\n    constructor()  {\\r\\n\\r\\n\\r\\n    }\\r\\n\\r\\n   function freeTrialCheck(address usersAddress) public{\\r\\n        \\r\\n        bool useCheck = _usersAddress[usersAddress] != 0;\\r\\n\\r\\n        if(useCheck != true){\\r\\n\\r\\n            // add 14 days trial period to the first time deployment \\r\\n            _usersAddress[usersAddress] = block.timestamp + (14 * 86400);\\r\\n        \\r\\n        }else{\\r\\n\\r\\n            if(_usersAddress[usersAddress] <= block.timestamp){\\r\\n\\r\\n                revert(\\\"free trial is expired\\\");\\r\\n\\r\\n            }\\r\\n\\r\\n        }\\r\\n\\r\\n    }\\r\\n\\r\\n    function time(address _receipent) public view returns (uint256){\\r\\n\\r\\n        return  _usersAddress[_receipent];\\r\\n\\r\\n    }\\r\\n\\r\\n    // Transfer Ether to Loyal Customers\\r\\n    function pay(address _receipent) public payable{\\r\\n        \\r\\n        require(msg.value > 0, \\\"You must send some Ether\\\");\\r\\n\\r\\n    }\\r\\n\\r\\n    \\r\\n    // get balance of contract address\\r\\n    function getBalance() public view returns(uint256){\\r\\n        return address(this).balance;\\r\\n    }\\r\\n\\r\\n}\"}},\"settings\":{\"optimizer\":{\"enabled\":false,\"runs\":200},\"outputSelection\":{\"*\":{\"\":[\"ast\"],\"*\":[\"abi\",\"metadata\",\"devdoc\",\"userdoc\",\"storageLayout\",\"evm.legacyAssembly\",\"evm.bytecode\",\"evm.deployedBytecode\",\"evm.methodIdentifiers\",\"evm.gasEstimates\",\"evm.assembly\"]}},\"remappings\":[]}}",
	"name": "cryptoDoreaUsers",
	"bytecode": {
		"linkReferences": {},
		"object": "608060405234801561000f575f80fd5b506104d38061001d5f395ff3fe60806040526004361061003e575f3560e01c80630c11dedd1461004257806312065fe01461005e5780637c67a3e214610088578063f9a24dc0146100c4575b5f80fd5b61005c60048036038101906100579190610301565b6100ec565b005b348015610069575f80fd5b50610072610131565b60405161007f9190610344565b60405180910390f35b348015610093575f80fd5b506100ae60048036038101906100a99190610301565b610138565b6040516100bb9190610344565b60405180910390f35b3480156100cf575f80fd5b506100ea60048036038101906100e59190610301565b61017d565b005b5f341161012e576040517f08c379a0000000000000000000000000000000000000000000000000000000008152600401610125906103b7565b60405180910390fd5b50565b5f47905090565b5f805f8373ffffffffffffffffffffffffffffffffffffffff1673ffffffffffffffffffffffffffffffffffffffff1681526020019081526020015f20549050919050565b5f805f808473ffffffffffffffffffffffffffffffffffffffff1673ffffffffffffffffffffffffffffffffffffffff1681526020019081526020015f20541415905060011515811515146102205762127500426101db9190610402565b5f808473ffffffffffffffffffffffffffffffffffffffff1673ffffffffffffffffffffffffffffffffffffffff1681526020019081526020015f208190555061029f565b425f808473ffffffffffffffffffffffffffffffffffffffff1673ffffffffffffffffffffffffffffffffffffffff1681526020019081526020015f20541161029e576040517f08c379a00000000000000000000000000000000000000000000000000000000081526004016102959061047f565b60405180910390fd5b5b5050565b5f80fd5b5f73ffffffffffffffffffffffffffffffffffffffff82169050919050565b5f6102d0826102a7565b9050919050565b6102e0816102c6565b81146102ea575f80fd5b50565b5f813590506102fb816102d7565b92915050565b5f60208284031215610316576103156102a3565b5b5f610323848285016102ed565b91505092915050565b5f819050919050565b61033e8161032c565b82525050565b5f6020820190506103575f830184610335565b92915050565b5f82825260208201905092915050565b7f596f75206d7573742073656e6420736f6d6520457468657200000000000000005f82015250565b5f6103a160188361035d565b91506103ac8261036d565b602082019050919050565b5f6020820190508181035f8301526103ce81610395565b9050919050565b7f4e487b71000000000000000000000000000000000000000000000000000000005f52601160045260245ffd5b5f61040c8261032c565b91506104178361032c565b925082820190508082111561042f5761042e6103d5565b5b92915050565b7f6672656520747269616c206973206578706972656400000000000000000000005f82015250565b5f61046960158361035d565b915061047482610435565b602082019050919050565b5f6020820190508181035f8301526104968161045d565b905091905056fea26469706673582212208a22bdf50f85c913414831f0aef0d0160816a52cd7cb695ce7cb21fda61ae31d64736f6c63430008160033",
		"opcodes": "PUSH1 0x80 PUSH1 0x40 MSTORE CALLVALUE DUP1 ISZERO PUSH2 0xF JUMPI PUSH0 DUP1 REVERT JUMPDEST POP PUSH2 0x4D3 DUP1 PUSH2 0x1D PUSH0 CODECOPY PUSH0 RETURN INVALID PUSH1 0x80 PUSH1 0x40 MSTORE PUSH1 0x4 CALLDATASIZE LT PUSH2 0x3E JUMPI PUSH0 CALLDATALOAD PUSH1 0xE0 SHR DUP1 PUSH4 0xC11DEDD EQ PUSH2 0x42 JUMPI DUP1 PUSH4 0x12065FE0 EQ PUSH2 0x5E JUMPI DUP1 PUSH4 0x7C67A3E2 EQ PUSH2 0x88 JUMPI DUP1 PUSH4 0xF9A24DC0 EQ PUSH2 0xC4 JUMPI JUMPDEST PUSH0 DUP1 REVERT JUMPDEST PUSH2 0x5C PUSH1 0x4 DUP1 CALLDATASIZE SUB DUP2 ADD SWAP1 PUSH2 0x57 SWAP2 SWAP1 PUSH2 0x301 JUMP JUMPDEST PUSH2 0xEC JUMP JUMPDEST STOP JUMPDEST CALLVALUE DUP1 ISZERO PUSH2 0x69 JUMPI PUSH0 DUP1 REVERT JUMPDEST POP PUSH2 0x72 PUSH2 0x131 JUMP JUMPDEST PUSH1 0x40 MLOAD PUSH2 0x7F SWAP2 SWAP1 PUSH2 0x344 JUMP JUMPDEST PUSH1 0x40 MLOAD DUP1 SWAP2 SUB SWAP1 RETURN JUMPDEST CALLVALUE DUP1 ISZERO PUSH2 0x93 JUMPI PUSH0 DUP1 REVERT JUMPDEST POP PUSH2 0xAE PUSH1 0x4 DUP1 CALLDATASIZE SUB DUP2 ADD SWAP1 PUSH2 0xA9 SWAP2 SWAP1 PUSH2 0x301 JUMP JUMPDEST PUSH2 0x138 JUMP JUMPDEST PUSH1 0x40 MLOAD PUSH2 0xBB SWAP2 SWAP1 PUSH2 0x344 JUMP JUMPDEST PUSH1 0x40 MLOAD DUP1 SWAP2 SUB SWAP1 RETURN JUMPDEST CALLVALUE DUP1 ISZERO PUSH2 0xCF JUMPI PUSH0 DUP1 REVERT JUMPDEST POP PUSH2 0xEA PUSH1 0x4 DUP1 CALLDATASIZE SUB DUP2 ADD SWAP1 PUSH2 0xE5 SWAP2 SWAP1 PUSH2 0x301 JUMP JUMPDEST PUSH2 0x17D JUMP JUMPDEST STOP JUMPDEST PUSH0 CALLVALUE GT PUSH2 0x12E JUMPI PUSH1 0x40 MLOAD PUSH32 0x8C379A000000000000000000000000000000000000000000000000000000000 DUP2 MSTORE PUSH1 0x4 ADD PUSH2 0x125 SWAP1 PUSH2 0x3B7 JUMP JUMPDEST PUSH1 0x40 MLOAD DUP1 SWAP2 SUB SWAP1 REVERT JUMPDEST POP JUMP JUMPDEST PUSH0 SELFBALANCE SWAP1 POP SWAP1 JUMP JUMPDEST PUSH0 DUP1 PUSH0 DUP4 PUSH20 0xFFFFFFFFFFFFFFFFFFFFFFFFFFFFFFFFFFFFFFFF AND PUSH20 0xFFFFFFFFFFFFFFFFFFFFFFFFFFFFFFFFFFFFFFFF AND DUP2 MSTORE PUSH1 0x20 ADD SWAP1 DUP2 MSTORE PUSH1 0x20 ADD PUSH0 KECCAK256 SLOAD SWAP1 POP SWAP2 SWAP1 POP JUMP JUMPDEST PUSH0 DUP1 PUSH0 DUP1 DUP5 PUSH20 0xFFFFFFFFFFFFFFFFFFFFFFFFFFFFFFFFFFFFFFFF AND PUSH20 0xFFFFFFFFFFFFFFFFFFFFFFFFFFFFFFFFFFFFFFFF AND DUP2 MSTORE PUSH1 0x20 ADD SWAP1 DUP2 MSTORE PUSH1 0x20 ADD PUSH0 KECCAK256 SLOAD EQ ISZERO SWAP1 POP PUSH1 0x1 ISZERO ISZERO DUP2 ISZERO ISZERO EQ PUSH2 0x220 JUMPI PUSH3 0x127500 TIMESTAMP PUSH2 0x1DB SWAP2 SWAP1 PUSH2 0x402 JUMP JUMPDEST PUSH0 DUP1 DUP5 PUSH20 0xFFFFFFFFFFFFFFFFFFFFFFFFFFFFFFFFFFFFFFFF AND PUSH20 0xFFFFFFFFFFFFFFFFFFFFFFFFFFFFFFFFFFFFFFFF AND DUP2 MSTORE PUSH1 0x20 ADD SWAP1 DUP2 MSTORE PUSH1 0x20 ADD PUSH0 KECCAK256 DUP2 SWAP1 SSTORE POP PUSH2 0x29F JUMP JUMPDEST TIMESTAMP PUSH0 DUP1 DUP5 PUSH20 0xFFFFFFFFFFFFFFFFFFFFFFFFFFFFFFFFFFFFFFFF AND PUSH20 0xFFFFFFFFFFFFFFFFFFFFFFFFFFFFFFFFFFFFFFFF AND DUP2 MSTORE PUSH1 0x20 ADD SWAP1 DUP2 MSTORE PUSH1 0x20 ADD PUSH0 KECCAK256 SLOAD GT PUSH2 0x29E JUMPI PUSH1 0x40 MLOAD PUSH32 0x8C379A000000000000000000000000000000000000000000000000000000000 DUP2 MSTORE PUSH1 0x4 ADD PUSH2 0x295 SWAP1 PUSH2 0x47F JUMP JUMPDEST PUSH1 0x40 MLOAD DUP1 SWAP2 SUB SWAP1 REVERT JUMPDEST JUMPDEST POP POP JUMP JUMPDEST PUSH0 DUP1 REVERT JUMPDEST PUSH0 PUSH20 0xFFFFFFFFFFFFFFFFFFFFFFFFFFFFFFFFFFFFFFFF DUP3 AND SWAP1 POP SWAP2 SWAP1 POP JUMP JUMPDEST PUSH0 PUSH2 0x2D0 DUP3 PUSH2 0x2A7 JUMP JUMPDEST SWAP1 POP SWAP2 SWAP1 POP JUMP JUMPDEST PUSH2 0x2E0 DUP2 PUSH2 0x2C6 JUMP JUMPDEST DUP2 EQ PUSH2 0x2EA JUMPI PUSH0 DUP1 REVERT JUMPDEST POP JUMP JUMPDEST PUSH0 DUP2 CALLDATALOAD SWAP1 POP PUSH2 0x2FB DUP2 PUSH2 0x2D7 JUMP JUMPDEST SWAP3 SWAP2 POP POP JUMP JUMPDEST PUSH0 PUSH1 0x20 DUP3 DUP5 SUB SLT ISZERO PUSH2 0x316 JUMPI PUSH2 0x315 PUSH2 0x2A3 JUMP JUMPDEST JUMPDEST PUSH0 PUSH2 0x323 DUP5 DUP3 DUP6 ADD PUSH2 0x2ED JUMP JUMPDEST SWAP2 POP POP SWAP3 SWAP2 POP POP JUMP JUMPDEST PUSH0 DUP2 SWAP1 POP SWAP2 SWAP1 POP JUMP JUMPDEST PUSH2 0x33E DUP2 PUSH2 0x32C JUMP JUMPDEST DUP3 MSTORE POP POP JUMP JUMPDEST PUSH0 PUSH1 0x20 DUP3 ADD SWAP1 POP PUSH2 0x357 PUSH0 DUP4 ADD DUP5 PUSH2 0x335 JUMP JUMPDEST SWAP3 SWAP2 POP POP JUMP JUMPDEST PUSH0 DUP3 DUP3 MSTORE PUSH1 0x20 DUP3 ADD SWAP1 POP SWAP3 SWAP2 POP POP JUMP JUMPDEST PUSH32 0x596F75206D7573742073656E6420736F6D652045746865720000000000000000 PUSH0 DUP3 ADD MSTORE POP JUMP JUMPDEST PUSH0 PUSH2 0x3A1 PUSH1 0x18 DUP4 PUSH2 0x35D JUMP JUMPDEST SWAP2 POP PUSH2 0x3AC DUP3 PUSH2 0x36D JUMP JUMPDEST PUSH1 0x20 DUP3 ADD SWAP1 POP SWAP2 SWAP1 POP JUMP JUMPDEST PUSH0 PUSH1 0x20 DUP3 ADD SWAP1 POP DUP2 DUP2 SUB PUSH0 DUP4 ADD MSTORE PUSH2 0x3CE DUP2 PUSH2 0x395 JUMP JUMPDEST SWAP1 POP SWAP2 SWAP1 POP JUMP JUMPDEST PUSH32 0x4E487B7100000000000000000000000000000000000000000000000000000000 PUSH0 MSTORE PUSH1 0x11 PUSH1 0x4 MSTORE PUSH1 0x24 PUSH0 REVERT JUMPDEST PUSH0 PUSH2 0x40C DUP3 PUSH2 0x32C JUMP JUMPDEST SWAP2 POP PUSH2 0x417 DUP4 PUSH2 0x32C JUMP JUMPDEST SWAP3 POP DUP3 DUP3 ADD SWAP1 POP DUP1 DUP3 GT ISZERO PUSH2 0x42F JUMPI PUSH2 0x42E PUSH2 0x3D5 JUMP JUMPDEST JUMPDEST SWAP3 SWAP2 POP POP JUMP JUMPDEST PUSH32 0x6672656520747269616C20697320657870697265640000000000000000000000 PUSH0 DUP3 ADD MSTORE POP JUMP JUMPDEST PUSH0 PUSH2 0x469 PUSH1 0x15 DUP4 PUSH2 0x35D JUMP JUMPDEST SWAP2 POP PUSH2 0x474 DUP3 PUSH2 0x435 JUMP JUMPDEST PUSH1 0x20 DUP3 ADD SWAP1 POP SWAP2 SWAP1 POP JUMP JUMPDEST PUSH0 PUSH1 0x20 DUP3 ADD SWAP1 POP DUP2 DUP2 SUB PUSH0 DUP4 ADD MSTORE PUSH2 0x496 DUP2 PUSH2 0x45D JUMP JUMPDEST SWAP1 POP SWAP2 SWAP1 POP JUMP INVALID LOG2 PUSH5 0x6970667358 0x22 SLT KECCAK256 DUP11 0x22 0xBD CREATE2 0xF DUP6 0xC9 SGT COINBASE BASEFEE BALANCE CREATE 0xAE CREATE 0xD0 AND ADDMOD AND 0xA5 0x2C 0xD7 0xCB PUSH10 0x5CE7CB21FDA61AE31D64 PUSH20 0x6F6C634300081600330000000000000000000000 "
	},
	"abi": [
		{
			"inputs": [],
			"stateMutability": "nonpayable",
			"type": "constructor"
		},
		{
			"inputs": [
				{
					"internalType": "address",
					"name": "usersAddress",
					"type": "address"
				}
			],
			"name": "freeTrialCheck",
			"outputs": [],
			"stateMutability": "nonpayable",
			"type": "function"
		},
		{
			"inputs": [],
			"name": "getBalance",
			"outputs": [
				{
					"internalType": "uint256",
					"name": "",
					"type": "uint256"
				}
			],
			"stateMutability": "view",
			"type": "function"
		},
		{
			"inputs": [
				{
					"internalType": "address",
					"name": "_receipent",
					"type": "address"
				}
			],
			"name": "pay",
			"outputs": [],
			"stateMutability": "payable",
			"type": "function"
		},
		{
			"inputs": [
				{
					"internalType": "address",
					"name": "_receipent",
					"type": "address"
				}
			],
			"name": "time",
			"outputs": [
				{
					"internalType": "uint256",
					"name": "",
					"type": "uint256"
				}
			],
			"stateMutability": "view",
			"type": "function"
		}
	],
	"storageLayout": {
		"storage": [
			{
				"astId": 5,
				"contract": "users.sol:cryptoDoreaUsers",
				"label": "_usersAddress",
				"offset": 0,
				"slot": "0",
				"type": "t_mapping(t_address,t_uint256)"
			}
		],
		"types": {
			"t_address": {
				"encoding": "inplace",
				"label": "address",
				"numberOfBytes": "20"
			},
			"t_mapping(t_address,t_uint256)": {
				"encoding": "mapping",
				"key": "t_address",
				"label": "mapping(address => uint256)",
				"numberOfBytes": "32",
				"value": "t_uint256"
			},
			"t_uint256": {
				"encoding": "inplace",
				"label": "uint256",
				"numberOfBytes": "32"
			}
		}
	},
	"web3Deploy": "var cryptodoreausersContract = new web3.eth.Contract([{\"inputs\":[],\"stateMutability\":\"nonpayable\",\"type\":\"constructor\"},{\"inputs\":[{\"internalType\":\"address\",\"name\":\"usersAddress\",\"type\":\"address\"}],\"name\":\"freeTrialCheck\",\"outputs\":[],\"stateMutability\":\"nonpayable\",\"type\":\"function\"},{\"inputs\":[],\"name\":\"getBalance\",\"outputs\":[{\"internalType\":\"uint256\",\"name\":\"\",\"type\":\"uint256\"}],\"stateMutability\":\"view\",\"type\":\"function\"},{\"inputs\":[{\"internalType\":\"address\",\"name\":\"_receipent\",\"type\":\"address\"}],\"name\":\"pay\",\"outputs\":[],\"stateMutability\":\"payable\",\"type\":\"function\"},{\"inputs\":[{\"internalType\":\"address\",\"name\":\"_receipent\",\"type\":\"address\"}],\"name\":\"time\",\"outputs\":[{\"internalType\":\"uint256\",\"name\":\"\",\"type\":\"uint256\"}],\"stateMutability\":\"view\",\"type\":\"function\"}]);\nvar cryptodoreausers = cryptodoreausersContract.deploy({\n     data: '0x608060405234801561000f575f80fd5b506104d38061001d5f395ff3fe60806040526004361061003e575f3560e01c80630c11dedd1461004257806312065fe01461005e5780637c67a3e214610088578063f9a24dc0146100c4575b5f80fd5b61005c60048036038101906100579190610301565b6100ec565b005b348015610069575f80fd5b50610072610131565b60405161007f9190610344565b60405180910390f35b348015610093575f80fd5b506100ae60048036038101906100a99190610301565b610138565b6040516100bb9190610344565b60405180910390f35b3480156100cf575f80fd5b506100ea60048036038101906100e59190610301565b61017d565b005b5f341161012e576040517f08c379a0000000000000000000000000000000000000000000000000000000008152600401610125906103b7565b60405180910390fd5b50565b5f47905090565b5f805f8373ffffffffffffffffffffffffffffffffffffffff1673ffffffffffffffffffffffffffffffffffffffff1681526020019081526020015f20549050919050565b5f805f808473ffffffffffffffffffffffffffffffffffffffff1673ffffffffffffffffffffffffffffffffffffffff1681526020019081526020015f20541415905060011515811515146102205762127500426101db9190610402565b5f808473ffffffffffffffffffffffffffffffffffffffff1673ffffffffffffffffffffffffffffffffffffffff1681526020019081526020015f208190555061029f565b425f808473ffffffffffffffffffffffffffffffffffffffff1673ffffffffffffffffffffffffffffffffffffffff1681526020019081526020015f20541161029e576040517f08c379a00000000000000000000000000000000000000000000000000000000081526004016102959061047f565b60405180910390fd5b5b5050565b5f80fd5b5f73ffffffffffffffffffffffffffffffffffffffff82169050919050565b5f6102d0826102a7565b9050919050565b6102e0816102c6565b81146102ea575f80fd5b50565b5f813590506102fb816102d7565b92915050565b5f60208284031215610316576103156102a3565b5b5f610323848285016102ed565b91505092915050565b5f819050919050565b61033e8161032c565b82525050565b5f6020820190506103575f830184610335565b92915050565b5f82825260208201905092915050565b7f596f75206d7573742073656e6420736f6d6520457468657200000000000000005f82015250565b5f6103a160188361035d565b91506103ac8261036d565b602082019050919050565b5f6020820190508181035f8301526103ce81610395565b9050919050565b7f4e487b71000000000000000000000000000000000000000000000000000000005f52601160045260245ffd5b5f61040c8261032c565b91506104178361032c565b925082820190508082111561042f5761042e6103d5565b5b92915050565b7f6672656520747269616c206973206578706972656400000000000000000000005f82015250565b5f61046960158361035d565b915061047482610435565b602082019050919050565b5f6020820190508181035f8301526104968161045d565b905091905056fea26469706673582212208a22bdf50f85c913414831f0aef0d0160816a52cd7cb695ce7cb21fda61ae31d64736f6c63430008160033', \n     arguments: [\n     ]\n}).send({\n     from: web3.eth.accounts[0], \n     gas: '4700000'\n   }, function (e, contract){\n    console.log(e, contract);\n    if (typeof contract.address !== 'undefined') {\n         console.log('Contract mined! address: ' + contract.address + ' transactionHash: ' + contract.transactionHash);\n    }\n })",
	"functionHashes": {
		"f9a24dc0": "freeTrialCheck(address)",
		"12065fe0": "getBalance()",
		"0c11dedd": "pay(address)",
		"7c67a3e2": "time(address)"
	},
	"gasEstimates": {
		"Creation": {
			"codeDepositCost": "247000",
			"executionCost": "285",
			"totalCost": "247285"
		},
		"External": {
			"freeTrialCheck(address)": "infinite",
			"getBalance()": "334",
			"pay(address)": "706",
			"time(address)": "2851"
		}
	},
	"devdoc": {
		"kind": "dev",
		"methods": {},
		"version": 1
	},
	"userdoc": {
		"kind": "user",
		"methods": {},
		"version": 1
	},
	"Runtime Bytecode": {
		"immutableReferences": {},
		"linkReferences": {},
		"object": "60806040526004361061003e575f3560e01c80630c11dedd1461004257806312065fe01461005e5780637c67a3e214610088578063f9a24dc0146100c4575b5f80fd5b61005c60048036038101906100579190610301565b6100ec565b005b348015610069575f80fd5b50610072610131565b60405161007f9190610344565b60405180910390f35b348015610093575f80fd5b506100ae60048036038101906100a99190610301565b610138565b6040516100bb9190610344565b60405180910390f35b3480156100cf575f80fd5b506100ea60048036038101906100e59190610301565b61017d565b005b5f341161012e576040517f08c379a0000000000000000000000000000000000000000000000000000000008152600401610125906103b7565b60405180910390fd5b50565b5f47905090565b5f805f8373ffffffffffffffffffffffffffffffffffffffff1673ffffffffffffffffffffffffffffffffffffffff1681526020019081526020015f20549050919050565b5f805f808473ffffffffffffffffffffffffffffffffffffffff1673ffffffffffffffffffffffffffffffffffffffff1681526020019081526020015f20541415905060011515811515146102205762127500426101db9190610402565b5f808473ffffffffffffffffffffffffffffffffffffffff1673ffffffffffffffffffffffffffffffffffffffff1681526020019081526020015f208190555061029f565b425f808473ffffffffffffffffffffffffffffffffffffffff1673ffffffffffffffffffffffffffffffffffffffff1681526020019081526020015f20541161029e576040517f08c379a00000000000000000000000000000000000000000000000000000000081526004016102959061047f565b60405180910390fd5b5b5050565b5f80fd5b5f73ffffffffffffffffffffffffffffffffffffffff82169050919050565b5f6102d0826102a7565b9050919050565b6102e0816102c6565b81146102ea575f80fd5b50565b5f813590506102fb816102d7565b92915050565b5f60208284031215610316576103156102a3565b5b5f610323848285016102ed565b91505092915050565b5f819050919050565b61033e8161032c565b82525050565b5f6020820190506103575f830184610335565b92915050565b5f82825260208201905092915050565b7f596f75206d7573742073656e6420736f6d6520457468657200000000000000005f82015250565b5f6103a160188361035d565b91506103ac8261036d565b602082019050919050565b5f6020820190508181035f8301526103ce81610395565b9050919050565b7f4e487b71000000000000000000000000000000000000000000000000000000005f52601160045260245ffd5b5f61040c8261032c565b91506104178361032c565b925082820190508082111561042f5761042e6103d5565b5b92915050565b7f6672656520747269616c206973206578706972656400000000000000000000005f82015250565b5f61046960158361035d565b915061047482610435565b602082019050919050565b5f6020820190508181035f8301526104968161045d565b905091905056fea26469706673582212208a22bdf50f85c913414831f0aef0d0160816a52cd7cb695ce7cb21fda61ae31d64736f6c63430008160033",
		"opcodes": "PUSH1 0x80 PUSH1 0x40 MSTORE PUSH1 0x4 CALLDATASIZE LT PUSH2 0x3E JUMPI PUSH0 CALLDATALOAD PUSH1 0xE0 SHR DUP1 PUSH4 0xC11DEDD EQ PUSH2 0x42 JUMPI DUP1 PUSH4 0x12065FE0 EQ PUSH2 0x5E JUMPI DUP1 PUSH4 0x7C67A3E2 EQ PUSH2 0x88 JUMPI DUP1 PUSH4 0xF9A24DC0 EQ PUSH2 0xC4 JUMPI JUMPDEST PUSH0 DUP1 REVERT JUMPDEST PUSH2 0x5C PUSH1 0x4 DUP1 CALLDATASIZE SUB DUP2 ADD SWAP1 PUSH2 0x57 SWAP2 SWAP1 PUSH2 0x301 JUMP JUMPDEST PUSH2 0xEC JUMP JUMPDEST STOP JUMPDEST CALLVALUE DUP1 ISZERO PUSH2 0x69 JUMPI PUSH0 DUP1 REVERT JUMPDEST POP PUSH2 0x72 PUSH2 0x131 JUMP JUMPDEST PUSH1 0x40 MLOAD PUSH2 0x7F SWAP2 SWAP1 PUSH2 0x344 JUMP JUMPDEST PUSH1 0x40 MLOAD DUP1 SWAP2 SUB SWAP1 RETURN JUMPDEST CALLVALUE DUP1 ISZERO PUSH2 0x93 JUMPI PUSH0 DUP1 REVERT JUMPDEST POP PUSH2 0xAE PUSH1 0x4 DUP1 CALLDATASIZE SUB DUP2 ADD SWAP1 PUSH2 0xA9 SWAP2 SWAP1 PUSH2 0x301 JUMP JUMPDEST PUSH2 0x138 JUMP JUMPDEST PUSH1 0x40 MLOAD PUSH2 0xBB SWAP2 SWAP1 PUSH2 0x344 JUMP JUMPDEST PUSH1 0x40 MLOAD DUP1 SWAP2 SUB SWAP1 RETURN JUMPDEST CALLVALUE DUP1 ISZERO PUSH2 0xCF JUMPI PUSH0 DUP1 REVERT JUMPDEST POP PUSH2 0xEA PUSH1 0x4 DUP1 CALLDATASIZE SUB DUP2 ADD SWAP1 PUSH2 0xE5 SWAP2 SWAP1 PUSH2 0x301 JUMP JUMPDEST PUSH2 0x17D JUMP JUMPDEST STOP JUMPDEST PUSH0 CALLVALUE GT PUSH2 0x12E JUMPI PUSH1 0x40 MLOAD PUSH32 0x8C379A000000000000000000000000000000000000000000000000000000000 DUP2 MSTORE PUSH1 0x4 ADD PUSH2 0x125 SWAP1 PUSH2 0x3B7 JUMP JUMPDEST PUSH1 0x40 MLOAD DUP1 SWAP2 SUB SWAP1 REVERT JUMPDEST POP JUMP JUMPDEST PUSH0 SELFBALANCE SWAP1 POP SWAP1 JUMP JUMPDEST PUSH0 DUP1 PUSH0 DUP4 PUSH20 0xFFFFFFFFFFFFFFFFFFFFFFFFFFFFFFFFFFFFFFFF AND PUSH20 0xFFFFFFFFFFFFFFFFFFFFFFFFFFFFFFFFFFFFFFFF AND DUP2 MSTORE PUSH1 0x20 ADD SWAP1 DUP2 MSTORE PUSH1 0x20 ADD PUSH0 KECCAK256 SLOAD SWAP1 POP SWAP2 SWAP1 POP JUMP JUMPDEST PUSH0 DUP1 PUSH0 DUP1 DUP5 PUSH20 0xFFFFFFFFFFFFFFFFFFFFFFFFFFFFFFFFFFFFFFFF AND PUSH20 0xFFFFFFFFFFFFFFFFFFFFFFFFFFFFFFFFFFFFFFFF AND DUP2 MSTORE PUSH1 0x20 ADD SWAP1 DUP2 MSTORE PUSH1 0x20 ADD PUSH0 KECCAK256 SLOAD EQ ISZERO SWAP1 POP PUSH1 0x1 ISZERO ISZERO DUP2 ISZERO ISZERO EQ PUSH2 0x220 JUMPI PUSH3 0x127500 TIMESTAMP PUSH2 0x1DB SWAP2 SWAP1 PUSH2 0x402 JUMP JUMPDEST PUSH0 DUP1 DUP5 PUSH20 0xFFFFFFFFFFFFFFFFFFFFFFFFFFFFFFFFFFFFFFFF AND PUSH20 0xFFFFFFFFFFFFFFFFFFFFFFFFFFFFFFFFFFFFFFFF AND DUP2 MSTORE PUSH1 0x20 ADD SWAP1 DUP2 MSTORE PUSH1 0x20 ADD PUSH0 KECCAK256 DUP2 SWAP1 SSTORE POP PUSH2 0x29F JUMP JUMPDEST TIMESTAMP PUSH0 DUP1 DUP5 PUSH20 0xFFFFFFFFFFFFFFFFFFFFFFFFFFFFFFFFFFFFFFFF AND PUSH20 0xFFFFFFFFFFFFFFFFFFFFFFFFFFFFFFFFFFFFFFFF AND DUP2 MSTORE PUSH1 0x20 ADD SWAP1 DUP2 MSTORE PUSH1 0x20 ADD PUSH0 KECCAK256 SLOAD GT PUSH2 0x29E JUMPI PUSH1 0x40 MLOAD PUSH32 0x8C379A000000000000000000000000000000000000000000000000000000000 DUP2 MSTORE PUSH1 0x4 ADD PUSH2 0x295 SWAP1 PUSH2 0x47F JUMP JUMPDEST PUSH1 0x40 MLOAD DUP1 SWAP2 SUB SWAP1 REVERT JUMPDEST JUMPDEST POP POP JUMP JUMPDEST PUSH0 DUP1 REVERT JUMPDEST PUSH0 PUSH20 0xFFFFFFFFFFFFFFFFFFFFFFFFFFFFFFFFFFFFFFFF DUP3 AND SWAP1 POP SWAP2 SWAP1 POP JUMP JUMPDEST PUSH0 PUSH2 0x2D0 DUP3 PUSH2 0x2A7 JUMP JUMPDEST SWAP1 POP SWAP2 SWAP1 POP JUMP JUMPDEST PUSH2 0x2E0 DUP2 PUSH2 0x2C6 JUMP JUMPDEST DUP2 EQ PUSH2 0x2EA JUMPI PUSH0 DUP1 REVERT JUMPDEST POP JUMP JUMPDEST PUSH0 DUP2 CALLDATALOAD SWAP1 POP PUSH2 0x2FB DUP2 PUSH2 0x2D7 JUMP JUMPDEST SWAP3 SWAP2 POP POP JUMP JUMPDEST PUSH0 PUSH1 0x20 DUP3 DUP5 SUB SLT ISZERO PUSH2 0x316 JUMPI PUSH2 0x315 PUSH2 0x2A3 JUMP JUMPDEST JUMPDEST PUSH0 PUSH2 0x323 DUP5 DUP3 DUP6 ADD PUSH2 0x2ED JUMP JUMPDEST SWAP2 POP POP SWAP3 SWAP2 POP POP JUMP JUMPDEST PUSH0 DUP2 SWAP1 POP SWAP2 SWAP1 POP JUMP JUMPDEST PUSH2 0x33E DUP2 PUSH2 0x32C JUMP JUMPDEST DUP3 MSTORE POP POP JUMP JUMPDEST PUSH0 PUSH1 0x20 DUP3 ADD SWAP1 POP PUSH2 0x357 PUSH0 DUP4 ADD DUP5 PUSH2 0x335 JUMP JUMPDEST SWAP3 SWAP2 POP POP JUMP JUMPDEST PUSH0 DUP3 DUP3 MSTORE PUSH1 0x20 DUP3 ADD SWAP1 POP SWAP3 SWAP2 POP POP JUMP JUMPDEST PUSH32 0x596F75206D7573742073656E6420736F6D652045746865720000000000000000 PUSH0 DUP3 ADD MSTORE POP JUMP JUMPDEST PUSH0 PUSH2 0x3A1 PUSH1 0x18 DUP4 PUSH2 0x35D JUMP JUMPDEST SWAP2 POP PUSH2 0x3AC DUP3 PUSH2 0x36D JUMP JUMPDEST PUSH1 0x20 DUP3 ADD SWAP1 POP SWAP2 SWAP1 POP JUMP JUMPDEST PUSH0 PUSH1 0x20 DUP3 ADD SWAP1 POP DUP2 DUP2 SUB PUSH0 DUP4 ADD MSTORE PUSH2 0x3CE DUP2 PUSH2 0x395 JUMP JUMPDEST SWAP1 POP SWAP2 SWAP1 POP JUMP JUMPDEST PUSH32 0x4E487B7100000000000000000000000000000000000000000000000000000000 PUSH0 MSTORE PUSH1 0x11 PUSH1 0x4 MSTORE PUSH1 0x24 PUSH0 REVERT JUMPDEST PUSH0 PUSH2 0x40C DUP3 PUSH2 0x32C JUMP JUMPDEST SWAP2 POP PUSH2 0x417 DUP4 PUSH2 0x32C JUMP JUMPDEST SWAP3 POP DUP3 DUP3 ADD SWAP1 POP DUP1 DUP3 GT ISZERO PUSH2 0x42F JUMPI PUSH2 0x42E PUSH2 0x3D5 JUMP JUMPDEST JUMPDEST SWAP3 SWAP2 POP POP JUMP JUMPDEST PUSH32 0x6672656520747269616C20697320657870697265640000000000000000000000 PUSH0 DUP3 ADD MSTORE POP JUMP JUMPDEST PUSH0 PUSH2 0x469 PUSH1 0x15 DUP4 PUSH2 0x35D JUMP JUMPDEST SWAP2 POP PUSH2 0x474 DUP3 PUSH2 0x435 JUMP JUMPDEST PUSH1 0x20 DUP3 ADD SWAP1 POP SWAP2 SWAP1 POP JUMP JUMPDEST PUSH0 PUSH1 0x20 DUP3 ADD SWAP1 POP DUP2 DUP2 SUB PUSH0 DUP4 ADD MSTORE PUSH2 0x496 DUP2 PUSH2 0x45D JUMP JUMPDEST SWAP1 POP SWAP2 SWAP1 POP JUMP INVALID LOG2 PUSH5 0x6970667358 0x22 SLT KECCAK256 DUP11 0x22 0xBD CREATE2 0xF DUP6 0xC9 SGT COINBASE BASEFEE BALANCE CREATE 0xAE CREATE 0xD0 AND ADDMOD AND 0xA5 0x2C 0xD7 0xCB PUSH10 0x5CE7CB21FDA61AE31D64 PUSH20 0x6F6C634300081600330000000000000000000000 "
	},
	"Assembly": ".code\n  PUSH 80\t\t\tcontract cryptoDoreaUsers {\\r\\...\n  PUSH 40\t\t\tcontract cryptoDoreaUsers {\\r\\...\n  MSTORE \t\t\tcontract cryptoDoreaUsers {\\r\\...\n  CALLVALUE \t\t\tconstructor()  {\\r\\n\\r\\n\\r\\n  ...\n  DUP1 \t\t\tconstructor()  {\\r\\n\\r\\n\\r\\n  ...\n  ISZERO \t\t\tconstructor()  {\\r\\n\\r\\n\\r\\n  ...\n  PUSH [tag] 1\t\t\tconstructor()  {\\r\\n\\r\\n\\r\\n  ...\n  JUMPI \t\t\tconstructor()  {\\r\\n\\r\\n\\r\\n  ...\n  PUSH 0\t\t\tconstructor()  {\\r\\n\\r\\n\\r\\n  ...\n  DUP1 \t\t\tconstructor()  {\\r\\n\\r\\n\\r\\n  ...\n  REVERT \t\t\tconstructor()  {\\r\\n\\r\\n\\r\\n  ...\ntag 1\t\t\tconstructor()  {\\r\\n\\r\\n\\r\\n  ...\n  JUMPDEST \t\t\tconstructor()  {\\r\\n\\r\\n\\r\\n  ...\n  POP \t\t\tconstructor()  {\\r\\n\\r\\n\\r\\n  ...\n  PUSH #[$] 0000000000000000000000000000000000000000000000000000000000000000\t\t\tcontract cryptoDoreaUsers {\\r\\...\n  DUP1 \t\t\tcontract cryptoDoreaUsers {\\r\\...\n  PUSH [$] 0000000000000000000000000000000000000000000000000000000000000000\t\t\tcontract cryptoDoreaUsers {\\r\\...\n  PUSH 0\t\t\tcontract cryptoDoreaUsers {\\r\\...\n  CODECOPY \t\t\tcontract cryptoDoreaUsers {\\r\\...\n  PUSH 0\t\t\tcontract cryptoDoreaUsers {\\r\\...\n  RETURN \t\t\tcontract cryptoDoreaUsers {\\r\\...\n.data\n  0:\n    .code\n      PUSH 80\t\t\tcontract cryptoDoreaUsers {\\r\\...\n      PUSH 40\t\t\tcontract cryptoDoreaUsers {\\r\\...\n      MSTORE \t\t\tcontract cryptoDoreaUsers {\\r\\...\n      PUSH 4\t\t\tcontract cryptoDoreaUsers {\\r\\...\n      CALLDATASIZE \t\t\tcontract cryptoDoreaUsers {\\r\\...\n      LT \t\t\tcontract cryptoDoreaUsers {\\r\\...\n      PUSH [tag] 1\t\t\tcontract cryptoDoreaUsers {\\r\\...\n      JUMPI \t\t\tcontract cryptoDoreaUsers {\\r\\...\n      PUSH 0\t\t\tcontract cryptoDoreaUsers {\\r\\...\n      CALLDATALOAD \t\t\tcontract cryptoDoreaUsers {\\r\\...\n      PUSH E0\t\t\tcontract cryptoDoreaUsers {\\r\\...\n      SHR \t\t\tcontract cryptoDoreaUsers {\\r\\...\n      DUP1 \t\t\tcontract cryptoDoreaUsers {\\r\\...\n      PUSH C11DEDD\t\t\tcontract cryptoDoreaUsers {\\r\\...\n      EQ \t\t\tcontract cryptoDoreaUsers {\\r\\...\n      PUSH [tag] 2\t\t\tcontract cryptoDoreaUsers {\\r\\...\n      JUMPI \t\t\tcontract cryptoDoreaUsers {\\r\\...\n      DUP1 \t\t\tcontract cryptoDoreaUsers {\\r\\...\n      PUSH 12065FE0\t\t\tcontract cryptoDoreaUsers {\\r\\...\n      EQ \t\t\tcontract cryptoDoreaUsers {\\r\\...\n      PUSH [tag] 3\t\t\tcontract cryptoDoreaUsers {\\r\\...\n      JUMPI \t\t\tcontract cryptoDoreaUsers {\\r\\...\n      DUP1 \t\t\tcontract cryptoDoreaUsers {\\r\\...\n      PUSH 7C67A3E2\t\t\tcontract cryptoDoreaUsers {\\r\\...\n      EQ \t\t\tcontract cryptoDoreaUsers {\\r\\...\n      PUSH [tag] 4\t\t\tcontract cryptoDoreaUsers {\\r\\...\n      JUMPI \t\t\tcontract cryptoDoreaUsers {\\r\\...\n      DUP1 \t\t\tcontract cryptoDoreaUsers {\\r\\...\n      PUSH F9A24DC0\t\t\tcontract cryptoDoreaUsers {\\r\\...\n      EQ \t\t\tcontract cryptoDoreaUsers {\\r\\...\n      PUSH [tag] 5\t\t\tcontract cryptoDoreaUsers {\\r\\...\n      JUMPI \t\t\tcontract cryptoDoreaUsers {\\r\\...\n    tag 1\t\t\tcontract cryptoDoreaUsers {\\r\\...\n      JUMPDEST \t\t\tcontract cryptoDoreaUsers {\\r\\...\n      PUSH 0\t\t\tcontract cryptoDoreaUsers {\\r\\...\n      DUP1 \t\t\tcontract cryptoDoreaUsers {\\r\\...\n      REVERT \t\t\tcontract cryptoDoreaUsers {\\r\\...\n    tag 2\t\t\tfunction pay(address _receipen...\n      JUMPDEST \t\t\tfunction pay(address _receipen...\n      PUSH [tag] 6\t\t\tfunction pay(address _receipen...\n      PUSH 4\t\t\tfunction pay(address _receipen...\n      DUP1 \t\t\tfunction pay(address _receipen...\n      CALLDATASIZE \t\t\tfunction pay(address _receipen...\n      SUB \t\t\tfunction pay(address _receipen...\n      DUP2 \t\t\tfunction pay(address _receipen...\n      ADD \t\t\tfunction pay(address _receipen...\n      SWAP1 \t\t\tfunction pay(address _receipen...\n      PUSH [tag] 7\t\t\tfunction pay(address _receipen...\n      SWAP2 \t\t\tfunction pay(address _receipen...\n      SWAP1 \t\t\tfunction pay(address _receipen...\n      PUSH [tag] 8\t\t\tfunction pay(address _receipen...\n      JUMP \t\t\tfunction pay(address _receipen...\n    tag 7\t\t\tfunction pay(address _receipen...\n      JUMPDEST \t\t\tfunction pay(address _receipen...\n      PUSH [tag] 9\t\t\tfunction pay(address _receipen...\n      JUMP \t\t\tfunction pay(address _receipen...\n    tag 6\t\t\tfunction pay(address _receipen...\n      JUMPDEST \t\t\tfunction pay(address _receipen...\n      STOP \t\t\tfunction pay(address _receipen...\n    tag 3\t\t\tfunction getBalance() public v...\n      JUMPDEST \t\t\tfunction getBalance() public v...\n      CALLVALUE \t\t\tfunction getBalance() public v...\n      DUP1 \t\t\tfunction getBalance() public v...\n      ISZERO \t\t\tfunction getBalance() public v...\n      PUSH [tag] 10\t\t\tfunction getBalance() public v...\n      JUMPI \t\t\tfunction getBalance() public v...\n      PUSH 0\t\t\tfunction getBalance() public v...\n      DUP1 \t\t\tfunction getBalance() public v...\n      REVERT \t\t\tfunction getBalance() public v...\n    tag 10\t\t\tfunction getBalance() public v...\n      JUMPDEST \t\t\tfunction getBalance() public v...\n      POP \t\t\tfunction getBalance() public v...\n      PUSH [tag] 11\t\t\tfunction getBalance() public v...\n      PUSH [tag] 12\t\t\tfunction getBalance() public v...\n      JUMP \t\t\tfunction getBalance() public v...\n    tag 11\t\t\tfunction getBalance() public v...\n      JUMPDEST \t\t\tfunction getBalance() public v...\n      PUSH 40\t\t\tfunction getBalance() public v...\n      MLOAD \t\t\tfunction getBalance() public v...\n      PUSH [tag] 13\t\t\tfunction getBalance() public v...\n      SWAP2 \t\t\tfunction getBalance() public v...\n      SWAP1 \t\t\tfunction getBalance() public v...\n      PUSH [tag] 14\t\t\tfunction getBalance() public v...\n      JUMP \t\t\tfunction getBalance() public v...\n    tag 13\t\t\tfunction getBalance() public v...\n      JUMPDEST \t\t\tfunction getBalance() public v...\n      PUSH 40\t\t\tfunction getBalance() public v...\n      MLOAD \t\t\tfunction getBalance() public v...\n      DUP1 \t\t\tfunction getBalance() public v...\n      SWAP2 \t\t\tfunction getBalance() public v...\n      SUB \t\t\tfunction getBalance() public v...\n      SWAP1 \t\t\tfunction getBalance() public v...\n      RETURN \t\t\tfunction getBalance() public v...\n    tag 4\t\t\tfunction time(address _receipe...\n      JUMPDEST \t\t\tfunction time(address _receipe...\n      CALLVALUE \t\t\tfunction time(address _receipe...\n      DUP1 \t\t\tfunction time(address _receipe...\n      ISZERO \t\t\tfunction time(address _receipe...\n      PUSH [tag] 15\t\t\tfunction time(address _receipe...\n      JUMPI \t\t\tfunction time(address _receipe...\n      PUSH 0\t\t\tfunction time(address _receipe...\n      DUP1 \t\t\tfunction time(address _receipe...\n      REVERT \t\t\tfunction time(address _receipe...\n    tag 15\t\t\tfunction time(address _receipe...\n      JUMPDEST \t\t\tfunction time(address _receipe...\n      POP \t\t\tfunction time(address _receipe...\n      PUSH [tag] 16\t\t\tfunction time(address _receipe...\n      PUSH 4\t\t\tfunction time(address _receipe...\n      DUP1 \t\t\tfunction time(address _receipe...\n      CALLDATASIZE \t\t\tfunction time(address _receipe...\n      SUB \t\t\tfunction time(address _receipe...\n      DUP2 \t\t\tfunction time(address _receipe...\n      ADD \t\t\tfunction time(address _receipe...\n      SWAP1 \t\t\tfunction time(address _receipe...\n      PUSH [tag] 17\t\t\tfunction time(address _receipe...\n      SWAP2 \t\t\tfunction time(address _receipe...\n      SWAP1 \t\t\tfunction time(address _receipe...\n      PUSH [tag] 8\t\t\tfunction time(address _receipe...\n      JUMP \t\t\tfunction time(address _receipe...\n    tag 17\t\t\tfunction time(address _receipe...\n      JUMPDEST \t\t\tfunction time(address _receipe...\n      PUSH [tag] 18\t\t\tfunction time(address _receipe...\n      JUMP \t\t\tfunction time(address _receipe...\n    tag 16\t\t\tfunction time(address _receipe...\n      JUMPDEST \t\t\tfunction time(address _receipe...\n      PUSH 40\t\t\tfunction time(address _receipe...\n      MLOAD \t\t\tfunction time(address _receipe...\n      PUSH [tag] 19\t\t\tfunction time(address _receipe...\n      SWAP2 \t\t\tfunction time(address _receipe...\n      SWAP1 \t\t\tfunction time(address _receipe...\n      PUSH [tag] 14\t\t\tfunction time(address _receipe...\n      JUMP \t\t\tfunction time(address _receipe...\n    tag 19\t\t\tfunction time(address _receipe...\n      JUMPDEST \t\t\tfunction time(address _receipe...\n      PUSH 40\t\t\tfunction time(address _receipe...\n      MLOAD \t\t\tfunction time(address _receipe...\n      DUP1 \t\t\tfunction time(address _receipe...\n      SWAP2 \t\t\tfunction time(address _receipe...\n      SUB \t\t\tfunction time(address _receipe...\n      SWAP1 \t\t\tfunction time(address _receipe...\n      RETURN \t\t\tfunction time(address _receipe...\n    tag 5\t\t\tfunction freeTrialCheck(addres...\n      JUMPDEST \t\t\tfunction freeTrialCheck(addres...\n      CALLVALUE \t\t\tfunction freeTrialCheck(addres...\n      DUP1 \t\t\tfunction freeTrialCheck(addres...\n      ISZERO \t\t\tfunction freeTrialCheck(addres...\n      PUSH [tag] 20\t\t\tfunction freeTrialCheck(addres...\n      JUMPI \t\t\tfunction freeTrialCheck(addres...\n      PUSH 0\t\t\tfunction freeTrialCheck(addres...\n      DUP1 \t\t\tfunction freeTrialCheck(addres...\n      REVERT \t\t\tfunction freeTrialCheck(addres...\n    tag 20\t\t\tfunction freeTrialCheck(addres...\n      JUMPDEST \t\t\tfunction freeTrialCheck(addres...\n      POP \t\t\tfunction freeTrialCheck(addres...\n      PUSH [tag] 21\t\t\tfunction freeTrialCheck(addres...\n      PUSH 4\t\t\tfunction freeTrialCheck(addres...\n      DUP1 \t\t\tfunction freeTrialCheck(addres...\n      CALLDATASIZE \t\t\tfunction freeTrialCheck(addres...\n      SUB \t\t\tfunction freeTrialCheck(addres...\n      DUP2 \t\t\tfunction freeTrialCheck(addres...\n      ADD \t\t\tfunction freeTrialCheck(addres...\n      SWAP1 \t\t\tfunction freeTrialCheck(addres...\n      PUSH [tag] 22\t\t\tfunction freeTrialCheck(addres...\n      SWAP2 \t\t\tfunction freeTrialCheck(addres...\n      SWAP1 \t\t\tfunction freeTrialCheck(addres...\n      PUSH [tag] 8\t\t\tfunction freeTrialCheck(addres...\n      JUMP \t\t\tfunction freeTrialCheck(addres...\n    tag 22\t\t\tfunction freeTrialCheck(addres...\n      JUMPDEST \t\t\tfunction freeTrialCheck(addres...\n      PUSH [tag] 23\t\t\tfunction freeTrialCheck(addres...\n      JUMP \t\t\tfunction freeTrialCheck(addres...\n    tag 21\t\t\tfunction freeTrialCheck(addres...\n      JUMPDEST \t\t\tfunction freeTrialCheck(addres...\n      STOP \t\t\tfunction freeTrialCheck(addres...\n    tag 9\t\t\tfunction pay(address _receipen...\n      JUMPDEST \t\t\tfunction pay(address _receipen...\n      PUSH 0\t\t\t0\n      CALLVALUE \t\t\tmsg.value\n      GT \t\t\tmsg.value > 0\n      PUSH [tag] 25\t\t\trequire(msg.value > 0, \"You mu...\n      JUMPI \t\t\trequire(msg.value > 0, \"You mu...\n      PUSH 40\t\t\trequire(msg.value > 0, \"You mu...\n      MLOAD \t\t\trequire(msg.value > 0, \"You mu...\n      PUSH 8C379A000000000000000000000000000000000000000000000000000000000\t\t\trequire(msg.value > 0, \"You mu...\n      DUP2 \t\t\trequire(msg.value > 0, \"You mu...\n      MSTORE \t\t\trequire(msg.value > 0, \"You mu...\n      PUSH 4\t\t\trequire(msg.value > 0, \"You mu...\n      ADD \t\t\trequire(msg.value > 0, \"You mu...\n      PUSH [tag] 26\t\t\trequire(msg.value > 0, \"You mu...\n      SWAP1 \t\t\trequire(msg.value > 0, \"You mu...\n      PUSH [tag] 27\t\t\trequire(msg.value > 0, \"You mu...\n      JUMP \t\t\trequire(msg.value > 0, \"You mu...\n    tag 26\t\t\trequire(msg.value > 0, \"You mu...\n      JUMPDEST \t\t\trequire(msg.value > 0, \"You mu...\n      PUSH 40\t\t\trequire(msg.value > 0, \"You mu...\n      MLOAD \t\t\trequire(msg.value > 0, \"You mu...\n      DUP1 \t\t\trequire(msg.value > 0, \"You mu...\n      SWAP2 \t\t\trequire(msg.value > 0, \"You mu...\n      SUB \t\t\trequire(msg.value > 0, \"You mu...\n      SWAP1 \t\t\trequire(msg.value > 0, \"You mu...\n      REVERT \t\t\trequire(msg.value > 0, \"You mu...\n    tag 25\t\t\trequire(msg.value > 0, \"You mu...\n      JUMPDEST \t\t\trequire(msg.value > 0, \"You mu...\n      POP \t\t\tfunction pay(address _receipen...\n      JUMP \t\t\tfunction pay(address _receipen...\n    tag 12\t\t\tfunction getBalance() public v...\n      JUMPDEST \t\t\tfunction getBalance() public v...\n      PUSH 0\t\t\tuint256\n      SELFBALANCE \t\t\taddress(this).balance\n      SWAP1 \t\t\treturn address(this).balance\n      POP \t\t\treturn address(this).balance\n      SWAP1 \t\t\tfunction getBalance() public v...\n      JUMP \t\t\tfunction getBalance() public v...\n    tag 18\t\t\tfunction time(address _receipe...\n      JUMPDEST \t\t\tfunction time(address _receipe...\n      PUSH 0\t\t\tuint256\n      DUP1 \t\t\t_usersAddress\n      PUSH 0\t\t\t_usersAddress[_receipent]\n      DUP4 \t\t\t_receipent\n      PUSH FFFFFFFFFFFFFFFFFFFFFFFFFFFFFFFFFFFFFFFF\t\t\t_usersAddress[_receipent]\n      AND \t\t\t_usersAddress[_receipent]\n      PUSH FFFFFFFFFFFFFFFFFFFFFFFFFFFFFFFFFFFFFFFF\t\t\t_usersAddress[_receipent]\n      AND \t\t\t_usersAddress[_receipent]\n      DUP2 \t\t\t_usersAddress[_receipent]\n      MSTORE \t\t\t_usersAddress[_receipent]\n      PUSH 20\t\t\t_usersAddress[_receipent]\n      ADD \t\t\t_usersAddress[_receipent]\n      SWAP1 \t\t\t_usersAddress[_receipent]\n      DUP2 \t\t\t_usersAddress[_receipent]\n      MSTORE \t\t\t_usersAddress[_receipent]\n      PUSH 20\t\t\t_usersAddress[_receipent]\n      ADD \t\t\t_usersAddress[_receipent]\n      PUSH 0\t\t\t_usersAddress[_receipent]\n      KECCAK256 \t\t\t_usersAddress[_receipent]\n      SLOAD \t\t\t_usersAddress[_receipent]\n      SWAP1 \t\t\treturn  _usersAddress[_receipe...\n      POP \t\t\treturn  _usersAddress[_receipe...\n      SWAP2 \t\t\tfunction time(address _receipe...\n      SWAP1 \t\t\tfunction time(address _receipe...\n      POP \t\t\tfunction time(address _receipe...\n      JUMP \t\t\tfunction time(address _receipe...\n    tag 23\t\t\tfunction freeTrialCheck(addres...\n      JUMPDEST \t\t\tfunction freeTrialCheck(addres...\n      PUSH 0\t\t\tbool useCheck\n      DUP1 \t\t\t0\n      PUSH 0\t\t\t_usersAddress\n      DUP1 \t\t\t_usersAddress[usersAddress]\n      DUP5 \t\t\tusersAddress\n      PUSH FFFFFFFFFFFFFFFFFFFFFFFFFFFFFFFFFFFFFFFF\t\t\t_usersAddress[usersAddress]\n      AND \t\t\t_usersAddress[usersAddress]\n      PUSH FFFFFFFFFFFFFFFFFFFFFFFFFFFFFFFFFFFFFFFF\t\t\t_usersAddress[usersAddress]\n      AND \t\t\t_usersAddress[usersAddress]\n      DUP2 \t\t\t_usersAddress[usersAddress]\n      MSTORE \t\t\t_usersAddress[usersAddress]\n      PUSH 20\t\t\t_usersAddress[usersAddress]\n      ADD \t\t\t_usersAddress[usersAddress]\n      SWAP1 \t\t\t_usersAddress[usersAddress]\n      DUP2 \t\t\t_usersAddress[usersAddress]\n      MSTORE \t\t\t_usersAddress[usersAddress]\n      PUSH 20\t\t\t_usersAddress[usersAddress]\n      ADD \t\t\t_usersAddress[usersAddress]\n      PUSH 0\t\t\t_usersAddress[usersAddress]\n      KECCAK256 \t\t\t_usersAddress[usersAddress]\n      SLOAD \t\t\t_usersAddress[usersAddress]\n      EQ \t\t\t_usersAddress[usersAddress] !=...\n      ISZERO \t\t\t_usersAddress[usersAddress] !=...\n      SWAP1 \t\t\tbool useCheck = _usersAddress[...\n      POP \t\t\tbool useCheck = _usersAddress[...\n      PUSH 1\t\t\ttrue\n      ISZERO \t\t\tuseCheck != true\n      ISZERO \t\t\tuseCheck != true\n      DUP2 \t\t\tuseCheck\n      ISZERO \t\t\tuseCheck != true\n      ISZERO \t\t\tuseCheck != true\n      EQ \t\t\tuseCheck != true\n      PUSH [tag] 31\t\t\tif(useCheck != true){\\r\\n\\r\\n ...\n      JUMPI \t\t\tif(useCheck != true){\\r\\n\\r\\n ...\n      PUSH 127500\t\t\t14 * 86400\n      TIMESTAMP \t\t\tblock.timestamp\n      PUSH [tag] 32\t\t\tblock.timestamp + (14 * 86400)\n      SWAP2 \t\t\tblock.timestamp + (14 * 86400)\n      SWAP1 \t\t\tblock.timestamp + (14 * 86400)\n      PUSH [tag] 33\t\t\tblock.timestamp + (14 * 86400)\n      JUMP \t\t\tblock.timestamp + (14 * 86400)\n    tag 32\t\t\tblock.timestamp + (14 * 86400)\n      JUMPDEST \t\t\tblock.timestamp + (14 * 86400)\n      PUSH 0\t\t\t_usersAddress\n      DUP1 \t\t\t_usersAddress[usersAddress]\n      DUP5 \t\t\tusersAddress\n      PUSH FFFFFFFFFFFFFFFFFFFFFFFFFFFFFFFFFFFFFFFF\t\t\t_usersAddress[usersAddress]\n      AND \t\t\t_usersAddress[usersAddress]\n      PUSH FFFFFFFFFFFFFFFFFFFFFFFFFFFFFFFFFFFFFFFF\t\t\t_usersAddress[usersAddress]\n      AND \t\t\t_usersAddress[usersAddress]\n      DUP2 \t\t\t_usersAddress[usersAddress]\n      MSTORE \t\t\t_usersAddress[usersAddress]\n      PUSH 20\t\t\t_usersAddress[usersAddress]\n      ADD \t\t\t_usersAddress[usersAddress]\n      SWAP1 \t\t\t_usersAddress[usersAddress]\n      DUP2 \t\t\t_usersAddress[usersAddress]\n      MSTORE \t\t\t_usersAddress[usersAddress]\n      PUSH 20\t\t\t_usersAddress[usersAddress]\n      ADD \t\t\t_usersAddress[usersAddress]\n      PUSH 0\t\t\t_usersAddress[usersAddress]\n      KECCAK256 \t\t\t_usersAddress[usersAddress]\n      DUP2 \t\t\t_usersAddress[usersAddress] = ...\n      SWAP1 \t\t\t_usersAddress[usersAddress] = ...\n      SSTORE \t\t\t_usersAddress[usersAddress] = ...\n      POP \t\t\t_usersAddress[usersAddress] = ...\n      PUSH [tag] 34\t\t\tif(useCheck != true){\\r\\n\\r\\n ...\n      JUMP \t\t\tif(useCheck != true){\\r\\n\\r\\n ...\n    tag 31\t\t\tif(useCheck != true){\\r\\n\\r\\n ...\n      JUMPDEST \t\t\tif(useCheck != true){\\r\\n\\r\\n ...\n      TIMESTAMP \t\t\tblock.timestamp\n      PUSH 0\t\t\t_usersAddress\n      DUP1 \t\t\t_usersAddress[usersAddress]\n      DUP5 \t\t\tusersAddress\n      PUSH FFFFFFFFFFFFFFFFFFFFFFFFFFFFFFFFFFFFFFFF\t\t\t_usersAddress[usersAddress]\n      AND \t\t\t_usersAddress[usersAddress]\n      PUSH FFFFFFFFFFFFFFFFFFFFFFFFFFFFFFFFFFFFFFFF\t\t\t_usersAddress[usersAddress]\n      AND \t\t\t_usersAddress[usersAddress]\n      DUP2 \t\t\t_usersAddress[usersAddress]\n      MSTORE \t\t\t_usersAddress[usersAddress]\n      PUSH 20\t\t\t_usersAddress[usersAddress]\n      ADD \t\t\t_usersAddress[usersAddress]\n      SWAP1 \t\t\t_usersAddress[usersAddress]\n      DUP2 \t\t\t_usersAddress[usersAddress]\n      MSTORE \t\t\t_usersAddress[usersAddress]\n      PUSH 20\t\t\t_usersAddress[usersAddress]\n      ADD \t\t\t_usersAddress[usersAddress]\n      PUSH 0\t\t\t_usersAddress[usersAddress]\n      KECCAK256 \t\t\t_usersAddress[usersAddress]\n      SLOAD \t\t\t_usersAddress[usersAddress]\n      GT \t\t\t_usersAddress[usersAddress] <=...\n      PUSH [tag] 35\t\t\tif(_usersAddress[usersAddress]...\n      JUMPI \t\t\tif(_usersAddress[usersAddress]...\n      PUSH 40\t\t\trevert(\"free trial is expired\"...\n      MLOAD \t\t\trevert(\"free trial is expired\"...\n      PUSH 8C379A000000000000000000000000000000000000000000000000000000000\t\t\trevert(\"free trial is expired\"...\n      DUP2 \t\t\trevert(\"free trial is expired\"...\n      MSTORE \t\t\trevert(\"free trial is expired\"...\n      PUSH 4\t\t\trevert(\"free trial is expired\"...\n      ADD \t\t\trevert(\"free trial is expired\"...\n      PUSH [tag] 36\t\t\trevert(\"free trial is expired\"...\n      SWAP1 \t\t\trevert(\"free trial is expired\"...\n      PUSH [tag] 37\t\t\trevert(\"free trial is expired\"...\n      JUMP \t\t\trevert(\"free trial is expired\"...\n    tag 36\t\t\trevert(\"free trial is expired\"...\n      JUMPDEST \t\t\trevert(\"free trial is expired\"...\n      PUSH 40\t\t\trevert(\"free trial is expired\"...\n      MLOAD \t\t\trevert(\"free trial is expired\"...\n      DUP1 \t\t\trevert(\"free trial is expired\"...\n      SWAP2 \t\t\trevert(\"free trial is expired\"...\n      SUB \t\t\trevert(\"free trial is expired\"...\n      SWAP1 \t\t\trevert(\"free trial is expired\"...\n      REVERT \t\t\trevert(\"free trial is expired\"...\n    tag 35\t\t\tif(_usersAddress[usersAddress]...\n      JUMPDEST \t\t\tif(_usersAddress[usersAddress]...\n    tag 34\t\t\tif(useCheck != true){\\r\\n\\r\\n ...\n      JUMPDEST \t\t\tif(useCheck != true){\\r\\n\\r\\n ...\n      POP \t\t\t{\\r\\n        \\r\\n        bool ...\n      POP \t\t\tfunction freeTrialCheck(addres...\n      JUMP \t\t\tfunction freeTrialCheck(addres...\n    tag 39\t\t\tDoreaUsers {\\r\\n\\r\\n    mappin...\n      JUMPDEST \t\t\tDoreaUsers {\\r\\n\\r\\n    mappin...\n      PUSH 0\t\t\t \n      DUP1 \t\t\t\\n\n      REVERT \t\t\t   }\\r\\n\\r\\n   f\n    tag 41\t\t\t(useCheck != true){\\r\\n\\r\\n   ...\n      JUMPDEST \t\t\t(useCheck != true){\\r\\n\\r\\n   ...\n      PUSH 0\t\t\t add 14\n      PUSH FFFFFFFFFFFFFFFFFFFFFFFFFFFFFFFFFFFFFFFF\t\t\time deployment \\r\\n           ...\n      DUP3 \t\t\tfirst\n      AND \t\t\tthe first time deployment \\r\\n...\n      SWAP1 \t\t\t period to the first time depl...\n      POP \t\t\t period to the first time depl...\n      SWAP2 \t\t\t(useCheck != true){\\r\\n\\r\\n   ...\n      SWAP1 \t\t\t(useCheck != true){\\r\\n\\r\\n   ...\n      POP \t\t\t(useCheck != true){\\r\\n\\r\\n   ...\n      JUMP \t\t\t(useCheck != true){\\r\\n\\r\\n   ...\n    tag 42\t\t\t] = block.timestamp + (14 * 86...\n      JUMPDEST \t\t\t] = block.timestamp + (14 * 86...\n      PUSH 0\t\t\t       \n      PUSH [tag] 59\t\t\t           if(_usersAddr\n      DUP3 \t\t\trsAdd\n      PUSH [tag] 41\t\t\t           if(_usersAddr\n      JUMP \t\t\t           if(_usersAddr\n    tag 59\t\t\t           if(_usersAddr\n      JUMPDEST \t\t\t           if(_usersAddr\n      SWAP1 \t\t\t}else{\\r\\n\\r\\n            if(_...\n      POP \t\t\t}else{\\r\\n\\r\\n            if(_...\n      SWAP2 \t\t\t] = block.timestamp + (14 * 86...\n      SWAP1 \t\t\t] = block.timestamp + (14 * 86...\n      POP \t\t\t] = block.timestamp + (14 * 86...\n      JUMP \t\t\t] = block.timestamp + (14 * 86...\n    tag 43\t\t\tress] <= block.timestamp){\\r\\n...\n      JUMPDEST \t\t\tress] <= block.timestamp){\\r\\n...\n      PUSH [tag] 61\t\t\ted\");\\r\\n\\r\\n            }\\r\\n\n      DUP2 \t\t\t   }\\r\n      PUSH [tag] 42\t\t\ted\");\\r\\n\\r\\n            }\\r\\n\n      JUMP \t\t\ted\");\\r\\n\\r\\n            }\\r\\n\n    tag 61\t\t\ted\");\\r\\n\\r\\n            }\\r\\n\n      JUMPDEST \t\t\ted\");\\r\\n\\r\\n            }\\r\\n\n      DUP2 \t\t\ts exp\n      EQ \t\t\tl is expired\");\\r\\n\\r\\n       ...\n      PUSH [tag] 62\t\t\t\"free trial is expired\");\\r\\n\\...\n      JUMPI \t\t\t\"free trial is expired\");\\r\\n\\...\n      PUSH 0\t\t\t \n      DUP1 \t\t\t\\n\n      REVERT \t\t\t     }\\r\\n\\r\\n  \n    tag 62\t\t\t\"free trial is expired\");\\r\\n\\...\n      JUMPDEST \t\t\t\"free trial is expired\");\\r\\n\\...\n      POP \t\t\tress] <= block.timestamp){\\r\\n...\n      JUMP \t\t\tress] <= block.timestamp){\\r\\n...\n    tag 44\t\t\tction time(address _receipent)...\n      JUMPDEST \t\t\tction time(address _receipent)...\n      PUSH 0\t\t\turns \n      DUP2 \t\t\tersAdd\n      CALLDATALOAD \t\t\t  return  _usersAddr\n      SWAP1 \t\t\t\\n\\r\\n        return  _usersAd...\n      POP \t\t\t\\n\\r\\n        return  _usersAd...\n      PUSH [tag] 64\t\t\tipent];\\r\\n\\r\\n    }\\r\\n\\r\\n  ...\n      DUP2 \t\t\tTrans\n      PUSH [tag] 43\t\t\tipent];\\r\\n\\r\\n    }\\r\\n\\r\\n  ...\n      JUMP \t\t\tipent];\\r\\n\\r\\n    }\\r\\n\\r\\n  ...\n    tag 64\t\t\tipent];\\r\\n\\r\\n    }\\r\\n\\r\\n  ...\n      JUMPDEST \t\t\tipent];\\r\\n\\r\\n    }\\r\\n\\r\\n  ...\n      SWAP3 \t\t\tction time(address _receipent)...\n      SWAP2 \t\t\tction time(address _receipent)...\n      POP \t\t\tction time(address _receipent)...\n      POP \t\t\tction time(address _receipent)...\n      JUMP \t\t\tction time(address _receipent)...\n    tag 8\t\t\tLoyal Customers\\r\\n    functio...\n      JUMPDEST \t\t\tLoyal Customers\\r\\n    functio...\n      PUSH 0\t\t\tc paya\n      PUSH 20\t\t\t 0\n      DUP3 \t\t\t(msg.valu\n      DUP5 \t\t\t  requi\n      SUB \t\t\t      require(msg.value\n      SLT \t\t\t\\r\\n        require(msg.value ...\n      ISZERO \t\t\t   \\r\\n        require(msg.val...\n      PUSH [tag] 66\t\t\t   \\r\\n        require(msg.val...\n      JUMPI \t\t\t   \\r\\n        require(msg.val...\n      PUSH [tag] 67\t\t\tou must send some Ether\");\\r\\n...\n      PUSH [tag] 39\t\t\tou must send some Ether\");\\r\\n...\n      JUMP \t\t\tou must send some Ether\");\\r\\n...\n    tag 67\t\t\tou must send some Ether\");\\r\\n...\n      JUMPDEST \t\t\tou must send some Ether\");\\r\\n...\n    tag 66\t\t\t   \\r\\n        require(msg.val...\n      JUMPDEST \t\t\t   \\r\\n        require(msg.val...\n      PUSH 0\t\t\te\n      PUSH [tag] 68\t\t\t     return address(this).bala...\n      DUP5 \t\t\t}\n      DUP3 \t\t\t    }\\r\n      DUP6 \t\t\t.balance;\n      ADD \t\t\this).balance;\\r\\n    }\\r\\n\n      PUSH [tag] 44\t\t\t     return address(this).bala...\n      JUMP \t\t\t     return address(this).bala...\n    tag 68\t\t\t     return address(this).bala...\n      JUMPDEST \t\t\t     return address(this).bala...\n      SWAP2 \t\t\t256){\\r\\n        return addres...\n      POP \t\t\t256){\\r\\n        return addres...\n      POP \t\t\tnction getBalance() public vie...\n      SWAP3 \t\t\tLoyal Customers\\r\\n    functio...\n      SWAP2 \t\t\tLoyal Customers\\r\\n    functio...\n      POP \t\t\tLoyal Customers\\r\\n    functio...\n      POP \t\t\tLoyal Customers\\r\\n    functio...\n      JUMP \t\t\tLoyal Customers\\r\\n    functio...\n    tag 45\t\t\t\n      JUMPDEST \t\t\t\n      PUSH 0\t\t\t\n      DUP2 \t\t\t\n      SWAP1 \t\t\t\n      POP \t\t\t\n      SWAP2 \t\t\t\n      SWAP1 \t\t\t\n      POP \t\t\t\n      JUMP \t\t\t\n    tag 46\t\t\t\n      JUMPDEST \t\t\t\n      PUSH [tag] 71\t\t\t\n      DUP2 \t\t\t\n      PUSH [tag] 45\t\t\t\n      JUMP \t\t\t\n    tag 71\t\t\t\n      JUMPDEST \t\t\t\n      DUP3 \t\t\t\n      MSTORE \t\t\t\n      POP \t\t\t\n      POP \t\t\t\n      JUMP \t\t\t\n    tag 14\t\t\t\n      JUMPDEST \t\t\t\n      PUSH 0\t\t\t\n      PUSH 20\t\t\t\n      DUP3 \t\t\t\n      ADD \t\t\t\n      SWAP1 \t\t\t\n      POP \t\t\t\n      PUSH [tag] 73\t\t\t\n      PUSH 0\t\t\t\n      DUP4 \t\t\t\n      ADD \t\t\t\n      DUP5 \t\t\t\n      PUSH [tag] 46\t\t\t\n      JUMP \t\t\t\n    tag 73\t\t\t\n      JUMPDEST \t\t\t\n      SWAP3 \t\t\t\n      SWAP2 \t\t\t\n      POP \t\t\t\n      POP \t\t\t\n      JUMP \t\t\t\n    tag 47\t\t\t\n      JUMPDEST \t\t\t\n      PUSH 0\t\t\t\n      DUP3 \t\t\t\n      DUP3 \t\t\t\n      MSTORE \t\t\t\n      PUSH 20\t\t\t\n      DUP3 \t\t\t\n      ADD \t\t\t\n      SWAP1 \t\t\t\n      POP \t\t\t\n      SWAP3 \t\t\t\n      SWAP2 \t\t\t\n      POP \t\t\t\n      POP \t\t\t\n      JUMP \t\t\t\n    tag 48\t\t\t\n      JUMPDEST \t\t\t\n      PUSH 596F75206D7573742073656E6420736F6D652045746865720000000000000000\t\t\t\n      PUSH 0\t\t\t\n      DUP3 \t\t\t\n      ADD \t\t\t\n      MSTORE \t\t\t\n      POP \t\t\t\n      JUMP \t\t\t\n    tag 49\t\t\t\n      JUMPDEST \t\t\t\n      PUSH 0\t\t\t\n      PUSH [tag] 77\t\t\t\n      PUSH 18\t\t\t\n      DUP4 \t\t\t\n      PUSH [tag] 47\t\t\t\n      JUMP \t\t\t\n    tag 77\t\t\t\n      JUMPDEST \t\t\t\n      SWAP2 \t\t\t\n      POP \t\t\t\n      PUSH [tag] 78\t\t\t\n      DUP3 \t\t\t\n      PUSH [tag] 48\t\t\t\n      JUMP \t\t\t\n    tag 78\t\t\t\n      JUMPDEST \t\t\t\n      PUSH 20\t\t\t\n      DUP3 \t\t\t\n      ADD \t\t\t\n      SWAP1 \t\t\t\n      POP \t\t\t\n      SWAP2 \t\t\t\n      SWAP1 \t\t\t\n      POP \t\t\t\n      JUMP \t\t\t\n    tag 27\t\t\t\n      JUMPDEST \t\t\t\n      PUSH 0\t\t\t\n      PUSH 20\t\t\t\n      DUP3 \t\t\t\n      ADD \t\t\t\n      SWAP1 \t\t\t\n      POP \t\t\t\n      DUP2 \t\t\t\n      DUP2 \t\t\t\n      SUB \t\t\t\n      PUSH 0\t\t\t\n      DUP4 \t\t\t\n      ADD \t\t\t\n      MSTORE \t\t\t\n      PUSH [tag] 80\t\t\t\n      DUP2 \t\t\t\n      PUSH [tag] 49\t\t\t\n      JUMP \t\t\t\n    tag 80\t\t\t\n      JUMPDEST \t\t\t\n      SWAP1 \t\t\t\n      POP \t\t\t\n      SWAP2 \t\t\t\n      SWAP1 \t\t\t\n      POP \t\t\t\n      JUMP \t\t\t\n    tag 50\t\t\t\n      JUMPDEST \t\t\t\n      PUSH 4E487B7100000000000000000000000000000000000000000000000000000000\t\t\t\n      PUSH 0\t\t\t\n      MSTORE \t\t\t\n      PUSH 11\t\t\t\n      PUSH 4\t\t\t\n      MSTORE \t\t\t\n      PUSH 24\t\t\t\n      PUSH 0\t\t\t\n      REVERT \t\t\t\n    tag 33\t\t\t\n      JUMPDEST \t\t\t\n      PUSH 0\t\t\t\n      PUSH [tag] 83\t\t\t\n      DUP3 \t\t\t\n      PUSH [tag] 45\t\t\t\n      JUMP \t\t\t\n    tag 83\t\t\t\n      JUMPDEST \t\t\t\n      SWAP2 \t\t\t\n      POP \t\t\t\n      PUSH [tag] 84\t\t\t\n      DUP4 \t\t\t\n      PUSH [tag] 45\t\t\t\n      JUMP \t\t\t\n    tag 84\t\t\t\n      JUMPDEST \t\t\t\n      SWAP3 \t\t\t\n      POP \t\t\t\n      DUP3 \t\t\t\n      DUP3 \t\t\t\n      ADD \t\t\t\n      SWAP1 \t\t\t\n      POP \t\t\t\n      DUP1 \t\t\t\n      DUP3 \t\t\t\n      GT \t\t\t\n      ISZERO \t\t\t\n      PUSH [tag] 85\t\t\t\n      JUMPI \t\t\t\n      PUSH [tag] 86\t\t\t\n      PUSH [tag] 50\t\t\t\n      JUMP \t\t\t\n    tag 86\t\t\t\n      JUMPDEST \t\t\t\n    tag 85\t\t\t\n      JUMPDEST \t\t\t\n      SWAP3 \t\t\t\n      SWAP2 \t\t\t\n      POP \t\t\t\n      POP \t\t\t\n      JUMP \t\t\t\n    tag 51\t\t\t\n      JUMPDEST \t\t\t\n      PUSH 6672656520747269616C20697320657870697265640000000000000000000000\t\t\t\n      PUSH 0\t\t\t\n      DUP3 \t\t\t\n      ADD \t\t\t\n      MSTORE \t\t\t\n      POP \t\t\t\n      JUMP \t\t\t\n    tag 52\t\t\t\n      JUMPDEST \t\t\t\n      PUSH 0\t\t\t\n      PUSH [tag] 89\t\t\t\n      PUSH 15\t\t\t\n      DUP4 \t\t\t\n      PUSH [tag] 47\t\t\t\n      JUMP \t\t\t\n    tag 89\t\t\t\n      JUMPDEST \t\t\t\n      SWAP2 \t\t\t\n      POP \t\t\t\n      PUSH [tag] 90\t\t\t\n      DUP3 \t\t\t\n      PUSH [tag] 51\t\t\t\n      JUMP \t\t\t\n    tag 90\t\t\t\n      JUMPDEST \t\t\t\n      PUSH 20\t\t\t\n      DUP3 \t\t\t\n      ADD \t\t\t\n      SWAP1 \t\t\t\n      POP \t\t\t\n      SWAP2 \t\t\t\n      SWAP1 \t\t\t\n      POP \t\t\t\n      JUMP \t\t\t\n    tag 37\t\t\t\n      JUMPDEST \t\t\t\n      PUSH 0\t\t\t\n      PUSH 20\t\t\t\n      DUP3 \t\t\t\n      ADD \t\t\t\n      SWAP1 \t\t\t\n      POP \t\t\t\n      DUP2 \t\t\t\n      DUP2 \t\t\t\n      SUB \t\t\t\n      PUSH 0\t\t\t\n      DUP4 \t\t\t\n      ADD \t\t\t\n      MSTORE \t\t\t\n      PUSH [tag] 92\t\t\t\n      DUP2 \t\t\t\n      PUSH [tag] 52\t\t\t\n      JUMP \t\t\t\n    tag 92\t\t\t\n      JUMPDEST \t\t\t\n      SWAP1 \t\t\t\n      POP \t\t\t\n      SWAP2 \t\t\t\n      SWAP1 \t\t\t\n      POP \t\t\t\n      JUMP \t\t\t\n    .data\n"
}