{
	"compilerInput": "{\"language\":\"Solidity\",\"sources\":{\"users.sol\":{\"content\":\"// SPDX-License-Identifier: GPL-3.0\\r\\npragma solidity >=0.4.20 <0.9.0;\\r\\n\\r\\ncontract cryptoDoreaUsers {\\r\\n\\r\\n    mapping(address=>uint256) private _usersAddress;\\r\\n\\r\\n    constructor()  {\\r\\n\\r\\n\\r\\n    }\\r\\n\\r\\n   function freeTrialCheck(address usersAddress) public{\\r\\n        \\r\\n        bool useCheck = _usersAddress[usersAddress] != 0;\\r\\n\\r\\n        if(useCheck != true){\\r\\n\\r\\n            // add 14 days trial period to the first time deployment \\r\\n            _usersAddress[usersAddress] = block.timestamp + (14 * 86400);\\r\\n        \\r\\n        }else{\\r\\n\\r\\n            if(_usersAddress[usersAddress] <= block.timestamp){\\r\\n\\r\\n                revert(\\\"free trial is expired\\\");\\r\\n\\r\\n            }\\r\\n\\r\\n        }\\r\\n\\r\\n    }\\r\\n\\r\\n    function time(address _receipent) public view returns (uint256){\\r\\n\\r\\n        return  _usersAddress[_receipent];\\r\\n\\r\\n    }\\r\\n\\r\\n    // Transfer Ether to Loyal Customers\\r\\n    function pay() public payable{\\r\\n        \\r\\n         require(msg.value > 0, \\\"You must send some Ether\\\");\\r\\n    }\\r\\n\\r\\n    \\r\\n    // get balance of contract address\\r\\n    function getBalance() public view returns(uint256){\\r\\n        return address(this).balance;\\r\\n    }\\r\\n\\r\\n}\"}},\"settings\":{\"optimizer\":{\"enabled\":false,\"runs\":200},\"outputSelection\":{\"*\":{\"\":[\"ast\"],\"*\":[\"abi\",\"metadata\",\"devdoc\",\"userdoc\",\"storageLayout\",\"evm.legacyAssembly\",\"evm.bytecode\",\"evm.deployedBytecode\",\"evm.methodIdentifiers\",\"evm.gasEstimates\",\"evm.assembly\"]}},\"remappings\":[]}}",
	"name": "cryptoDoreaUsers",
	"bytecode": {
		"linkReferences": {},
		"object": "608060405234801561000f575f80fd5b506104c08061001d5f395ff3fe60806040526004361061003e575f3560e01c806312065fe0146100425780631b9265b81461006c5780637c67a3e214610076578063f9a24dc0146100b2575b5f80fd5b34801561004d575f80fd5b506100566100da565b60405161006391906102a8565b60405180910390f35b6100746100e1565b005b348015610081575f80fd5b5061009c6004803603810190610097919061031f565b610125565b6040516100a991906102a8565b60405180910390f35b3480156100bd575f80fd5b506100d860048036038101906100d3919061031f565b61016a565b005b5f47905090565b5f3411610123576040517f08c379a000000000000000000000000000000000000000000000000000000000815260040161011a906103a4565b60405180910390fd5b565b5f805f8373ffffffffffffffffffffffffffffffffffffffff1673ffffffffffffffffffffffffffffffffffffffff1681526020019081526020015f20549050919050565b5f805f808473ffffffffffffffffffffffffffffffffffffffff1673ffffffffffffffffffffffffffffffffffffffff1681526020019081526020015f205414159050600115158115151461020d5762127500426101c891906103ef565b5f808473ffffffffffffffffffffffffffffffffffffffff1673ffffffffffffffffffffffffffffffffffffffff1681526020019081526020015f208190555061028c565b425f808473ffffffffffffffffffffffffffffffffffffffff1673ffffffffffffffffffffffffffffffffffffffff1681526020019081526020015f20541161028b576040517f08c379a00000000000000000000000000000000000000000000000000000000081526004016102829061046c565b60405180910390fd5b5b5050565b5f819050919050565b6102a281610290565b82525050565b5f6020820190506102bb5f830184610299565b92915050565b5f80fd5b5f73ffffffffffffffffffffffffffffffffffffffff82169050919050565b5f6102ee826102c5565b9050919050565b6102fe816102e4565b8114610308575f80fd5b50565b5f81359050610319816102f5565b92915050565b5f60208284031215610334576103336102c1565b5b5f6103418482850161030b565b91505092915050565b5f82825260208201905092915050565b7f596f75206d7573742073656e6420736f6d6520457468657200000000000000005f82015250565b5f61038e60188361034a565b91506103998261035a565b602082019050919050565b5f6020820190508181035f8301526103bb81610382565b9050919050565b7f4e487b71000000000000000000000000000000000000000000000000000000005f52601160045260245ffd5b5f6103f982610290565b915061040483610290565b925082820190508082111561041c5761041b6103c2565b5b92915050565b7f6672656520747269616c206973206578706972656400000000000000000000005f82015250565b5f61045660158361034a565b915061046182610422565b602082019050919050565b5f6020820190508181035f8301526104838161044a565b905091905056fea2646970667358221220721966fd3c0167101c6c727d65dc66e8c24a4edb94f6616aafd0e2f96e4c8e6d64736f6c63430008160033",
		"opcodes": "PUSH1 0x80 PUSH1 0x40 MSTORE CALLVALUE DUP1 ISZERO PUSH2 0xF JUMPI PUSH0 DUP1 REVERT JUMPDEST POP PUSH2 0x4C0 DUP1 PUSH2 0x1D PUSH0 CODECOPY PUSH0 RETURN INVALID PUSH1 0x80 PUSH1 0x40 MSTORE PUSH1 0x4 CALLDATASIZE LT PUSH2 0x3E JUMPI PUSH0 CALLDATALOAD PUSH1 0xE0 SHR DUP1 PUSH4 0x12065FE0 EQ PUSH2 0x42 JUMPI DUP1 PUSH4 0x1B9265B8 EQ PUSH2 0x6C JUMPI DUP1 PUSH4 0x7C67A3E2 EQ PUSH2 0x76 JUMPI DUP1 PUSH4 0xF9A24DC0 EQ PUSH2 0xB2 JUMPI JUMPDEST PUSH0 DUP1 REVERT JUMPDEST CALLVALUE DUP1 ISZERO PUSH2 0x4D JUMPI PUSH0 DUP1 REVERT JUMPDEST POP PUSH2 0x56 PUSH2 0xDA JUMP JUMPDEST PUSH1 0x40 MLOAD PUSH2 0x63 SWAP2 SWAP1 PUSH2 0x2A8 JUMP JUMPDEST PUSH1 0x40 MLOAD DUP1 SWAP2 SUB SWAP1 RETURN JUMPDEST PUSH2 0x74 PUSH2 0xE1 JUMP JUMPDEST STOP JUMPDEST CALLVALUE DUP1 ISZERO PUSH2 0x81 JUMPI PUSH0 DUP1 REVERT JUMPDEST POP PUSH2 0x9C PUSH1 0x4 DUP1 CALLDATASIZE SUB DUP2 ADD SWAP1 PUSH2 0x97 SWAP2 SWAP1 PUSH2 0x31F JUMP JUMPDEST PUSH2 0x125 JUMP JUMPDEST PUSH1 0x40 MLOAD PUSH2 0xA9 SWAP2 SWAP1 PUSH2 0x2A8 JUMP JUMPDEST PUSH1 0x40 MLOAD DUP1 SWAP2 SUB SWAP1 RETURN JUMPDEST CALLVALUE DUP1 ISZERO PUSH2 0xBD JUMPI PUSH0 DUP1 REVERT JUMPDEST POP PUSH2 0xD8 PUSH1 0x4 DUP1 CALLDATASIZE SUB DUP2 ADD SWAP1 PUSH2 0xD3 SWAP2 SWAP1 PUSH2 0x31F JUMP JUMPDEST PUSH2 0x16A JUMP JUMPDEST STOP JUMPDEST PUSH0 SELFBALANCE SWAP1 POP SWAP1 JUMP JUMPDEST PUSH0 CALLVALUE GT PUSH2 0x123 JUMPI PUSH1 0x40 MLOAD PUSH32 0x8C379A000000000000000000000000000000000000000000000000000000000 DUP2 MSTORE PUSH1 0x4 ADD PUSH2 0x11A SWAP1 PUSH2 0x3A4 JUMP JUMPDEST PUSH1 0x40 MLOAD DUP1 SWAP2 SUB SWAP1 REVERT JUMPDEST JUMP JUMPDEST PUSH0 DUP1 PUSH0 DUP4 PUSH20 0xFFFFFFFFFFFFFFFFFFFFFFFFFFFFFFFFFFFFFFFF AND PUSH20 0xFFFFFFFFFFFFFFFFFFFFFFFFFFFFFFFFFFFFFFFF AND DUP2 MSTORE PUSH1 0x20 ADD SWAP1 DUP2 MSTORE PUSH1 0x20 ADD PUSH0 KECCAK256 SLOAD SWAP1 POP SWAP2 SWAP1 POP JUMP JUMPDEST PUSH0 DUP1 PUSH0 DUP1 DUP5 PUSH20 0xFFFFFFFFFFFFFFFFFFFFFFFFFFFFFFFFFFFFFFFF AND PUSH20 0xFFFFFFFFFFFFFFFFFFFFFFFFFFFFFFFFFFFFFFFF AND DUP2 MSTORE PUSH1 0x20 ADD SWAP1 DUP2 MSTORE PUSH1 0x20 ADD PUSH0 KECCAK256 SLOAD EQ ISZERO SWAP1 POP PUSH1 0x1 ISZERO ISZERO DUP2 ISZERO ISZERO EQ PUSH2 0x20D JUMPI PUSH3 0x127500 TIMESTAMP PUSH2 0x1C8 SWAP2 SWAP1 PUSH2 0x3EF JUMP JUMPDEST PUSH0 DUP1 DUP5 PUSH20 0xFFFFFFFFFFFFFFFFFFFFFFFFFFFFFFFFFFFFFFFF AND PUSH20 0xFFFFFFFFFFFFFFFFFFFFFFFFFFFFFFFFFFFFFFFF AND DUP2 MSTORE PUSH1 0x20 ADD SWAP1 DUP2 MSTORE PUSH1 0x20 ADD PUSH0 KECCAK256 DUP2 SWAP1 SSTORE POP PUSH2 0x28C JUMP JUMPDEST TIMESTAMP PUSH0 DUP1 DUP5 PUSH20 0xFFFFFFFFFFFFFFFFFFFFFFFFFFFFFFFFFFFFFFFF AND PUSH20 0xFFFFFFFFFFFFFFFFFFFFFFFFFFFFFFFFFFFFFFFF AND DUP2 MSTORE PUSH1 0x20 ADD SWAP1 DUP2 MSTORE PUSH1 0x20 ADD PUSH0 KECCAK256 SLOAD GT PUSH2 0x28B JUMPI PUSH1 0x40 MLOAD PUSH32 0x8C379A000000000000000000000000000000000000000000000000000000000 DUP2 MSTORE PUSH1 0x4 ADD PUSH2 0x282 SWAP1 PUSH2 0x46C JUMP JUMPDEST PUSH1 0x40 MLOAD DUP1 SWAP2 SUB SWAP1 REVERT JUMPDEST JUMPDEST POP POP JUMP JUMPDEST PUSH0 DUP2 SWAP1 POP SWAP2 SWAP1 POP JUMP JUMPDEST PUSH2 0x2A2 DUP2 PUSH2 0x290 JUMP JUMPDEST DUP3 MSTORE POP POP JUMP JUMPDEST PUSH0 PUSH1 0x20 DUP3 ADD SWAP1 POP PUSH2 0x2BB PUSH0 DUP4 ADD DUP5 PUSH2 0x299 JUMP JUMPDEST SWAP3 SWAP2 POP POP JUMP JUMPDEST PUSH0 DUP1 REVERT JUMPDEST PUSH0 PUSH20 0xFFFFFFFFFFFFFFFFFFFFFFFFFFFFFFFFFFFFFFFF DUP3 AND SWAP1 POP SWAP2 SWAP1 POP JUMP JUMPDEST PUSH0 PUSH2 0x2EE DUP3 PUSH2 0x2C5 JUMP JUMPDEST SWAP1 POP SWAP2 SWAP1 POP JUMP JUMPDEST PUSH2 0x2FE DUP2 PUSH2 0x2E4 JUMP JUMPDEST DUP2 EQ PUSH2 0x308 JUMPI PUSH0 DUP1 REVERT JUMPDEST POP JUMP JUMPDEST PUSH0 DUP2 CALLDATALOAD SWAP1 POP PUSH2 0x319 DUP2 PUSH2 0x2F5 JUMP JUMPDEST SWAP3 SWAP2 POP POP JUMP JUMPDEST PUSH0 PUSH1 0x20 DUP3 DUP5 SUB SLT ISZERO PUSH2 0x334 JUMPI PUSH2 0x333 PUSH2 0x2C1 JUMP JUMPDEST JUMPDEST PUSH0 PUSH2 0x341 DUP5 DUP3 DUP6 ADD PUSH2 0x30B JUMP JUMPDEST SWAP2 POP POP SWAP3 SWAP2 POP POP JUMP JUMPDEST PUSH0 DUP3 DUP3 MSTORE PUSH1 0x20 DUP3 ADD SWAP1 POP SWAP3 SWAP2 POP POP JUMP JUMPDEST PUSH32 0x596F75206D7573742073656E6420736F6D652045746865720000000000000000 PUSH0 DUP3 ADD MSTORE POP JUMP JUMPDEST PUSH0 PUSH2 0x38E PUSH1 0x18 DUP4 PUSH2 0x34A JUMP JUMPDEST SWAP2 POP PUSH2 0x399 DUP3 PUSH2 0x35A JUMP JUMPDEST PUSH1 0x20 DUP3 ADD SWAP1 POP SWAP2 SWAP1 POP JUMP JUMPDEST PUSH0 PUSH1 0x20 DUP3 ADD SWAP1 POP DUP2 DUP2 SUB PUSH0 DUP4 ADD MSTORE PUSH2 0x3BB DUP2 PUSH2 0x382 JUMP JUMPDEST SWAP1 POP SWAP2 SWAP1 POP JUMP JUMPDEST PUSH32 0x4E487B7100000000000000000000000000000000000000000000000000000000 PUSH0 MSTORE PUSH1 0x11 PUSH1 0x4 MSTORE PUSH1 0x24 PUSH0 REVERT JUMPDEST PUSH0 PUSH2 0x3F9 DUP3 PUSH2 0x290 JUMP JUMPDEST SWAP2 POP PUSH2 0x404 DUP4 PUSH2 0x290 JUMP JUMPDEST SWAP3 POP DUP3 DUP3 ADD SWAP1 POP DUP1 DUP3 GT ISZERO PUSH2 0x41C JUMPI PUSH2 0x41B PUSH2 0x3C2 JUMP JUMPDEST JUMPDEST SWAP3 SWAP2 POP POP JUMP JUMPDEST PUSH32 0x6672656520747269616C20697320657870697265640000000000000000000000 PUSH0 DUP3 ADD MSTORE POP JUMP JUMPDEST PUSH0 PUSH2 0x456 PUSH1 0x15 DUP4 PUSH2 0x34A JUMP JUMPDEST SWAP2 POP PUSH2 0x461 DUP3 PUSH2 0x422 JUMP JUMPDEST PUSH1 0x20 DUP3 ADD SWAP1 POP SWAP2 SWAP1 POP JUMP JUMPDEST PUSH0 PUSH1 0x20 DUP3 ADD SWAP1 POP DUP2 DUP2 SUB PUSH0 DUP4 ADD MSTORE PUSH2 0x483 DUP2 PUSH2 0x44A JUMP JUMPDEST SWAP1 POP SWAP2 SWAP1 POP JUMP INVALID LOG2 PUSH5 0x6970667358 0x22 SLT KECCAK256 PUSH19 0x1966FD3C0167101C6C727D65DC66E8C24A4EDB SWAP5 0xF6 PUSH2 0x6AAF 0xD0 0xE2 0xF9 PUSH15 0x4C8E6D64736F6C6343000816003300 "
	},
	"abi": [
		{
			"inputs": [
				{
					"internalType": "address",
					"name": "usersAddress",
					"type": "address"
				}
			],
			"name": "freeTrialCheck",
			"outputs": [],
			"stateMutability": "nonpayable",
			"type": "function"
		},
		{
			"inputs": [],
			"name": "pay",
			"outputs": [],
			"stateMutability": "payable",
			"type": "function"
		},
		{
			"inputs": [],
			"stateMutability": "nonpayable",
			"type": "constructor"
		},
		{
			"inputs": [],
			"name": "getBalance",
			"outputs": [
				{
					"internalType": "uint256",
					"name": "",
					"type": "uint256"
				}
			],
			"stateMutability": "view",
			"type": "function"
		},
		{
			"inputs": [
				{
					"internalType": "address",
					"name": "_receipent",
					"type": "address"
				}
			],
			"name": "time",
			"outputs": [
				{
					"internalType": "uint256",
					"name": "",
					"type": "uint256"
				}
			],
			"stateMutability": "view",
			"type": "function"
		}
	],
	"storageLayout": {
		"storage": [
			{
				"astId": 5,
				"contract": "users.sol:cryptoDoreaUsers",
				"label": "_usersAddress",
				"offset": 0,
				"slot": "0",
				"type": "t_mapping(t_address,t_uint256)"
			}
		],
		"types": {
			"t_address": {
				"encoding": "inplace",
				"label": "address",
				"numberOfBytes": "20"
			},
			"t_mapping(t_address,t_uint256)": {
				"encoding": "mapping",
				"key": "t_address",
				"label": "mapping(address => uint256)",
				"numberOfBytes": "32",
				"value": "t_uint256"
			},
			"t_uint256": {
				"encoding": "inplace",
				"label": "uint256",
				"numberOfBytes": "32"
			}
		}
	},
	"web3Deploy": "var cryptodoreausersContract = new web3.eth.Contract([{\"inputs\":[],\"stateMutability\":\"nonpayable\",\"type\":\"constructor\"},{\"inputs\":[{\"internalType\":\"address\",\"name\":\"usersAddress\",\"type\":\"address\"}],\"name\":\"freeTrialCheck\",\"outputs\":[],\"stateMutability\":\"nonpayable\",\"type\":\"function\"},{\"inputs\":[],\"name\":\"getBalance\",\"outputs\":[{\"internalType\":\"uint256\",\"name\":\"\",\"type\":\"uint256\"}],\"stateMutability\":\"view\",\"type\":\"function\"},{\"inputs\":[],\"name\":\"pay\",\"outputs\":[],\"stateMutability\":\"payable\",\"type\":\"function\"},{\"inputs\":[{\"internalType\":\"address\",\"name\":\"_receipent\",\"type\":\"address\"}],\"name\":\"time\",\"outputs\":[{\"internalType\":\"uint256\",\"name\":\"\",\"type\":\"uint256\"}],\"stateMutability\":\"view\",\"type\":\"function\"}]);\nvar cryptodoreausers = cryptodoreausersContract.deploy({\n     data: '0x608060405234801561000f575f80fd5b506104c08061001d5f395ff3fe60806040526004361061003e575f3560e01c806312065fe0146100425780631b9265b81461006c5780637c67a3e214610076578063f9a24dc0146100b2575b5f80fd5b34801561004d575f80fd5b506100566100da565b60405161006391906102a8565b60405180910390f35b6100746100e1565b005b348015610081575f80fd5b5061009c6004803603810190610097919061031f565b610125565b6040516100a991906102a8565b60405180910390f35b3480156100bd575f80fd5b506100d860048036038101906100d3919061031f565b61016a565b005b5f47905090565b5f3411610123576040517f08c379a000000000000000000000000000000000000000000000000000000000815260040161011a906103a4565b60405180910390fd5b565b5f805f8373ffffffffffffffffffffffffffffffffffffffff1673ffffffffffffffffffffffffffffffffffffffff1681526020019081526020015f20549050919050565b5f805f808473ffffffffffffffffffffffffffffffffffffffff1673ffffffffffffffffffffffffffffffffffffffff1681526020019081526020015f205414159050600115158115151461020d5762127500426101c891906103ef565b5f808473ffffffffffffffffffffffffffffffffffffffff1673ffffffffffffffffffffffffffffffffffffffff1681526020019081526020015f208190555061028c565b425f808473ffffffffffffffffffffffffffffffffffffffff1673ffffffffffffffffffffffffffffffffffffffff1681526020019081526020015f20541161028b576040517f08c379a00000000000000000000000000000000000000000000000000000000081526004016102829061046c565b60405180910390fd5b5b5050565b5f819050919050565b6102a281610290565b82525050565b5f6020820190506102bb5f830184610299565b92915050565b5f80fd5b5f73ffffffffffffffffffffffffffffffffffffffff82169050919050565b5f6102ee826102c5565b9050919050565b6102fe816102e4565b8114610308575f80fd5b50565b5f81359050610319816102f5565b92915050565b5f60208284031215610334576103336102c1565b5b5f6103418482850161030b565b91505092915050565b5f82825260208201905092915050565b7f596f75206d7573742073656e6420736f6d6520457468657200000000000000005f82015250565b5f61038e60188361034a565b91506103998261035a565b602082019050919050565b5f6020820190508181035f8301526103bb81610382565b9050919050565b7f4e487b71000000000000000000000000000000000000000000000000000000005f52601160045260245ffd5b5f6103f982610290565b915061040483610290565b925082820190508082111561041c5761041b6103c2565b5b92915050565b7f6672656520747269616c206973206578706972656400000000000000000000005f82015250565b5f61045660158361034a565b915061046182610422565b602082019050919050565b5f6020820190508181035f8301526104838161044a565b905091905056fea2646970667358221220721966fd3c0167101c6c727d65dc66e8c24a4edb94f6616aafd0e2f96e4c8e6d64736f6c63430008160033', \n     arguments: [\n     ]\n}).send({\n     from: web3.eth.accounts[0], \n     gas: '4700000'\n   }, function (e, contract){\n    console.log(e, contract);\n    if (typeof contract.address !== 'undefined') {\n         console.log('Contract mined! address: ' + contract.address + ' transactionHash: ' + contract.transactionHash);\n    }\n })",
	"functionHashes": {
		"f9a24dc0": "freeTrialCheck(address)",
		"12065fe0": "getBalance()",
		"1b9265b8": "pay()",
		"7c67a3e2": "time(address)"
	},
	"gasEstimates": {
		"Creation": {
			"codeDepositCost": "243200",
			"executionCost": "279",
			"totalCost": "243479"
		},
		"External": {
			"freeTrialCheck(address)": "infinite",
			"getBalance()": "312",
			"pay()": "424",
			"time(address)": "2851"
		}
	},
	"devdoc": {
		"kind": "dev",
		"methods": {},
		"version": 1
	},
	"userdoc": {
		"kind": "user",
		"methods": {},
		"version": 1
	},
	"Runtime Bytecode": {
		"immutableReferences": {},
		"linkReferences": {},
		"object": "60806040526004361061003e575f3560e01c806312065fe0146100425780631b9265b81461006c5780637c67a3e214610076578063f9a24dc0146100b2575b5f80fd5b34801561004d575f80fd5b506100566100da565b60405161006391906102a8565b60405180910390f35b6100746100e1565b005b348015610081575f80fd5b5061009c6004803603810190610097919061031f565b610125565b6040516100a991906102a8565b60405180910390f35b3480156100bd575f80fd5b506100d860048036038101906100d3919061031f565b61016a565b005b5f47905090565b5f3411610123576040517f08c379a000000000000000000000000000000000000000000000000000000000815260040161011a906103a4565b60405180910390fd5b565b5f805f8373ffffffffffffffffffffffffffffffffffffffff1673ffffffffffffffffffffffffffffffffffffffff1681526020019081526020015f20549050919050565b5f805f808473ffffffffffffffffffffffffffffffffffffffff1673ffffffffffffffffffffffffffffffffffffffff1681526020019081526020015f205414159050600115158115151461020d5762127500426101c891906103ef565b5f808473ffffffffffffffffffffffffffffffffffffffff1673ffffffffffffffffffffffffffffffffffffffff1681526020019081526020015f208190555061028c565b425f808473ffffffffffffffffffffffffffffffffffffffff1673ffffffffffffffffffffffffffffffffffffffff1681526020019081526020015f20541161028b576040517f08c379a00000000000000000000000000000000000000000000000000000000081526004016102829061046c565b60405180910390fd5b5b5050565b5f819050919050565b6102a281610290565b82525050565b5f6020820190506102bb5f830184610299565b92915050565b5f80fd5b5f73ffffffffffffffffffffffffffffffffffffffff82169050919050565b5f6102ee826102c5565b9050919050565b6102fe816102e4565b8114610308575f80fd5b50565b5f81359050610319816102f5565b92915050565b5f60208284031215610334576103336102c1565b5b5f6103418482850161030b565b91505092915050565b5f82825260208201905092915050565b7f596f75206d7573742073656e6420736f6d6520457468657200000000000000005f82015250565b5f61038e60188361034a565b91506103998261035a565b602082019050919050565b5f6020820190508181035f8301526103bb81610382565b9050919050565b7f4e487b71000000000000000000000000000000000000000000000000000000005f52601160045260245ffd5b5f6103f982610290565b915061040483610290565b925082820190508082111561041c5761041b6103c2565b5b92915050565b7f6672656520747269616c206973206578706972656400000000000000000000005f82015250565b5f61045660158361034a565b915061046182610422565b602082019050919050565b5f6020820190508181035f8301526104838161044a565b905091905056fea2646970667358221220721966fd3c0167101c6c727d65dc66e8c24a4edb94f6616aafd0e2f96e4c8e6d64736f6c63430008160033",
		"opcodes": "PUSH1 0x80 PUSH1 0x40 MSTORE PUSH1 0x4 CALLDATASIZE LT PUSH2 0x3E JUMPI PUSH0 CALLDATALOAD PUSH1 0xE0 SHR DUP1 PUSH4 0x12065FE0 EQ PUSH2 0x42 JUMPI DUP1 PUSH4 0x1B9265B8 EQ PUSH2 0x6C JUMPI DUP1 PUSH4 0x7C67A3E2 EQ PUSH2 0x76 JUMPI DUP1 PUSH4 0xF9A24DC0 EQ PUSH2 0xB2 JUMPI JUMPDEST PUSH0 DUP1 REVERT JUMPDEST CALLVALUE DUP1 ISZERO PUSH2 0x4D JUMPI PUSH0 DUP1 REVERT JUMPDEST POP PUSH2 0x56 PUSH2 0xDA JUMP JUMPDEST PUSH1 0x40 MLOAD PUSH2 0x63 SWAP2 SWAP1 PUSH2 0x2A8 JUMP JUMPDEST PUSH1 0x40 MLOAD DUP1 SWAP2 SUB SWAP1 RETURN JUMPDEST PUSH2 0x74 PUSH2 0xE1 JUMP JUMPDEST STOP JUMPDEST CALLVALUE DUP1 ISZERO PUSH2 0x81 JUMPI PUSH0 DUP1 REVERT JUMPDEST POP PUSH2 0x9C PUSH1 0x4 DUP1 CALLDATASIZE SUB DUP2 ADD SWAP1 PUSH2 0x97 SWAP2 SWAP1 PUSH2 0x31F JUMP JUMPDEST PUSH2 0x125 JUMP JUMPDEST PUSH1 0x40 MLOAD PUSH2 0xA9 SWAP2 SWAP1 PUSH2 0x2A8 JUMP JUMPDEST PUSH1 0x40 MLOAD DUP1 SWAP2 SUB SWAP1 RETURN JUMPDEST CALLVALUE DUP1 ISZERO PUSH2 0xBD JUMPI PUSH0 DUP1 REVERT JUMPDEST POP PUSH2 0xD8 PUSH1 0x4 DUP1 CALLDATASIZE SUB DUP2 ADD SWAP1 PUSH2 0xD3 SWAP2 SWAP1 PUSH2 0x31F JUMP JUMPDEST PUSH2 0x16A JUMP JUMPDEST STOP JUMPDEST PUSH0 SELFBALANCE SWAP1 POP SWAP1 JUMP JUMPDEST PUSH0 CALLVALUE GT PUSH2 0x123 JUMPI PUSH1 0x40 MLOAD PUSH32 0x8C379A000000000000000000000000000000000000000000000000000000000 DUP2 MSTORE PUSH1 0x4 ADD PUSH2 0x11A SWAP1 PUSH2 0x3A4 JUMP JUMPDEST PUSH1 0x40 MLOAD DUP1 SWAP2 SUB SWAP1 REVERT JUMPDEST JUMP JUMPDEST PUSH0 DUP1 PUSH0 DUP4 PUSH20 0xFFFFFFFFFFFFFFFFFFFFFFFFFFFFFFFFFFFFFFFF AND PUSH20 0xFFFFFFFFFFFFFFFFFFFFFFFFFFFFFFFFFFFFFFFF AND DUP2 MSTORE PUSH1 0x20 ADD SWAP1 DUP2 MSTORE PUSH1 0x20 ADD PUSH0 KECCAK256 SLOAD SWAP1 POP SWAP2 SWAP1 POP JUMP JUMPDEST PUSH0 DUP1 PUSH0 DUP1 DUP5 PUSH20 0xFFFFFFFFFFFFFFFFFFFFFFFFFFFFFFFFFFFFFFFF AND PUSH20 0xFFFFFFFFFFFFFFFFFFFFFFFFFFFFFFFFFFFFFFFF AND DUP2 MSTORE PUSH1 0x20 ADD SWAP1 DUP2 MSTORE PUSH1 0x20 ADD PUSH0 KECCAK256 SLOAD EQ ISZERO SWAP1 POP PUSH1 0x1 ISZERO ISZERO DUP2 ISZERO ISZERO EQ PUSH2 0x20D JUMPI PUSH3 0x127500 TIMESTAMP PUSH2 0x1C8 SWAP2 SWAP1 PUSH2 0x3EF JUMP JUMPDEST PUSH0 DUP1 DUP5 PUSH20 0xFFFFFFFFFFFFFFFFFFFFFFFFFFFFFFFFFFFFFFFF AND PUSH20 0xFFFFFFFFFFFFFFFFFFFFFFFFFFFFFFFFFFFFFFFF AND DUP2 MSTORE PUSH1 0x20 ADD SWAP1 DUP2 MSTORE PUSH1 0x20 ADD PUSH0 KECCAK256 DUP2 SWAP1 SSTORE POP PUSH2 0x28C JUMP JUMPDEST TIMESTAMP PUSH0 DUP1 DUP5 PUSH20 0xFFFFFFFFFFFFFFFFFFFFFFFFFFFFFFFFFFFFFFFF AND PUSH20 0xFFFFFFFFFFFFFFFFFFFFFFFFFFFFFFFFFFFFFFFF AND DUP2 MSTORE PUSH1 0x20 ADD SWAP1 DUP2 MSTORE PUSH1 0x20 ADD PUSH0 KECCAK256 SLOAD GT PUSH2 0x28B JUMPI PUSH1 0x40 MLOAD PUSH32 0x8C379A000000000000000000000000000000000000000000000000000000000 DUP2 MSTORE PUSH1 0x4 ADD PUSH2 0x282 SWAP1 PUSH2 0x46C JUMP JUMPDEST PUSH1 0x40 MLOAD DUP1 SWAP2 SUB SWAP1 REVERT JUMPDEST JUMPDEST POP POP JUMP JUMPDEST PUSH0 DUP2 SWAP1 POP SWAP2 SWAP1 POP JUMP JUMPDEST PUSH2 0x2A2 DUP2 PUSH2 0x290 JUMP JUMPDEST DUP3 MSTORE POP POP JUMP JUMPDEST PUSH0 PUSH1 0x20 DUP3 ADD SWAP1 POP PUSH2 0x2BB PUSH0 DUP4 ADD DUP5 PUSH2 0x299 JUMP JUMPDEST SWAP3 SWAP2 POP POP JUMP JUMPDEST PUSH0 DUP1 REVERT JUMPDEST PUSH0 PUSH20 0xFFFFFFFFFFFFFFFFFFFFFFFFFFFFFFFFFFFFFFFF DUP3 AND SWAP1 POP SWAP2 SWAP1 POP JUMP JUMPDEST PUSH0 PUSH2 0x2EE DUP3 PUSH2 0x2C5 JUMP JUMPDEST SWAP1 POP SWAP2 SWAP1 POP JUMP JUMPDEST PUSH2 0x2FE DUP2 PUSH2 0x2E4 JUMP JUMPDEST DUP2 EQ PUSH2 0x308 JUMPI PUSH0 DUP1 REVERT JUMPDEST POP JUMP JUMPDEST PUSH0 DUP2 CALLDATALOAD SWAP1 POP PUSH2 0x319 DUP2 PUSH2 0x2F5 JUMP JUMPDEST SWAP3 SWAP2 POP POP JUMP JUMPDEST PUSH0 PUSH1 0x20 DUP3 DUP5 SUB SLT ISZERO PUSH2 0x334 JUMPI PUSH2 0x333 PUSH2 0x2C1 JUMP JUMPDEST JUMPDEST PUSH0 PUSH2 0x341 DUP5 DUP3 DUP6 ADD PUSH2 0x30B JUMP JUMPDEST SWAP2 POP POP SWAP3 SWAP2 POP POP JUMP JUMPDEST PUSH0 DUP3 DUP3 MSTORE PUSH1 0x20 DUP3 ADD SWAP1 POP SWAP3 SWAP2 POP POP JUMP JUMPDEST PUSH32 0x596F75206D7573742073656E6420736F6D652045746865720000000000000000 PUSH0 DUP3 ADD MSTORE POP JUMP JUMPDEST PUSH0 PUSH2 0x38E PUSH1 0x18 DUP4 PUSH2 0x34A JUMP JUMPDEST SWAP2 POP PUSH2 0x399 DUP3 PUSH2 0x35A JUMP JUMPDEST PUSH1 0x20 DUP3 ADD SWAP1 POP SWAP2 SWAP1 POP JUMP JUMPDEST PUSH0 PUSH1 0x20 DUP3 ADD SWAP1 POP DUP2 DUP2 SUB PUSH0 DUP4 ADD MSTORE PUSH2 0x3BB DUP2 PUSH2 0x382 JUMP JUMPDEST SWAP1 POP SWAP2 SWAP1 POP JUMP JUMPDEST PUSH32 0x4E487B7100000000000000000000000000000000000000000000000000000000 PUSH0 MSTORE PUSH1 0x11 PUSH1 0x4 MSTORE PUSH1 0x24 PUSH0 REVERT JUMPDEST PUSH0 PUSH2 0x3F9 DUP3 PUSH2 0x290 JUMP JUMPDEST SWAP2 POP PUSH2 0x404 DUP4 PUSH2 0x290 JUMP JUMPDEST SWAP3 POP DUP3 DUP3 ADD SWAP1 POP DUP1 DUP3 GT ISZERO PUSH2 0x41C JUMPI PUSH2 0x41B PUSH2 0x3C2 JUMP JUMPDEST JUMPDEST SWAP3 SWAP2 POP POP JUMP JUMPDEST PUSH32 0x6672656520747269616C20697320657870697265640000000000000000000000 PUSH0 DUP3 ADD MSTORE POP JUMP JUMPDEST PUSH0 PUSH2 0x456 PUSH1 0x15 DUP4 PUSH2 0x34A JUMP JUMPDEST SWAP2 POP PUSH2 0x461 DUP3 PUSH2 0x422 JUMP JUMPDEST PUSH1 0x20 DUP3 ADD SWAP1 POP SWAP2 SWAP1 POP JUMP JUMPDEST PUSH0 PUSH1 0x20 DUP3 ADD SWAP1 POP DUP2 DUP2 SUB PUSH0 DUP4 ADD MSTORE PUSH2 0x483 DUP2 PUSH2 0x44A JUMP JUMPDEST SWAP1 POP SWAP2 SWAP1 POP JUMP INVALID LOG2 PUSH5 0x6970667358 0x22 SLT KECCAK256 PUSH19 0x1966FD3C0167101C6C727D65DC66E8C24A4EDB SWAP5 0xF6 PUSH2 0x6AAF 0xD0 0xE2 0xF9 PUSH15 0x4C8E6D64736F6C6343000816003300 "
	},
	"Assembly": ".code\n  PUSH 80\t\t\tcontract cryptoDoreaUsers {\\r\\...\n  PUSH 40\t\t\tcontract cryptoDoreaUsers {\\r\\...\n  MSTORE \t\t\tcontract cryptoDoreaUsers {\\r\\...\n  CALLVALUE \t\t\tconstructor()  {\\r\\n\\r\\n\\r\\n  ...\n  DUP1 \t\t\tconstructor()  {\\r\\n\\r\\n\\r\\n  ...\n  ISZERO \t\t\tconstructor()  {\\r\\n\\r\\n\\r\\n  ...\n  PUSH [tag] 1\t\t\tconstructor()  {\\r\\n\\r\\n\\r\\n  ...\n  JUMPI \t\t\tconstructor()  {\\r\\n\\r\\n\\r\\n  ...\n  PUSH 0\t\t\tconstructor()  {\\r\\n\\r\\n\\r\\n  ...\n  DUP1 \t\t\tconstructor()  {\\r\\n\\r\\n\\r\\n  ...\n  REVERT \t\t\tconstructor()  {\\r\\n\\r\\n\\r\\n  ...\ntag 1\t\t\tconstructor()  {\\r\\n\\r\\n\\r\\n  ...\n  JUMPDEST \t\t\tconstructor()  {\\r\\n\\r\\n\\r\\n  ...\n  POP \t\t\tconstructor()  {\\r\\n\\r\\n\\r\\n  ...\n  PUSH #[$] 0000000000000000000000000000000000000000000000000000000000000000\t\t\tcontract cryptoDoreaUsers {\\r\\...\n  DUP1 \t\t\tcontract cryptoDoreaUsers {\\r\\...\n  PUSH [$] 0000000000000000000000000000000000000000000000000000000000000000\t\t\tcontract cryptoDoreaUsers {\\r\\...\n  PUSH 0\t\t\tcontract cryptoDoreaUsers {\\r\\...\n  CODECOPY \t\t\tcontract cryptoDoreaUsers {\\r\\...\n  PUSH 0\t\t\tcontract cryptoDoreaUsers {\\r\\...\n  RETURN \t\t\tcontract cryptoDoreaUsers {\\r\\...\n.data\n  0:\n    .code\n      PUSH 80\t\t\tcontract cryptoDoreaUsers {\\r\\...\n      PUSH 40\t\t\tcontract cryptoDoreaUsers {\\r\\...\n      MSTORE \t\t\tcontract cryptoDoreaUsers {\\r\\...\n      PUSH 4\t\t\tcontract cryptoDoreaUsers {\\r\\...\n      CALLDATASIZE \t\t\tcontract cryptoDoreaUsers {\\r\\...\n      LT \t\t\tcontract cryptoDoreaUsers {\\r\\...\n      PUSH [tag] 1\t\t\tcontract cryptoDoreaUsers {\\r\\...\n      JUMPI \t\t\tcontract cryptoDoreaUsers {\\r\\...\n      PUSH 0\t\t\tcontract cryptoDoreaUsers {\\r\\...\n      CALLDATALOAD \t\t\tcontract cryptoDoreaUsers {\\r\\...\n      PUSH E0\t\t\tcontract cryptoDoreaUsers {\\r\\...\n      SHR \t\t\tcontract cryptoDoreaUsers {\\r\\...\n      DUP1 \t\t\tcontract cryptoDoreaUsers {\\r\\...\n      PUSH 12065FE0\t\t\tcontract cryptoDoreaUsers {\\r\\...\n      EQ \t\t\tcontract cryptoDoreaUsers {\\r\\...\n      PUSH [tag] 2\t\t\tcontract cryptoDoreaUsers {\\r\\...\n      JUMPI \t\t\tcontract cryptoDoreaUsers {\\r\\...\n      DUP1 \t\t\tcontract cryptoDoreaUsers {\\r\\...\n      PUSH 1B9265B8\t\t\tcontract cryptoDoreaUsers {\\r\\...\n      EQ \t\t\tcontract cryptoDoreaUsers {\\r\\...\n      PUSH [tag] 3\t\t\tcontract cryptoDoreaUsers {\\r\\...\n      JUMPI \t\t\tcontract cryptoDoreaUsers {\\r\\...\n      DUP1 \t\t\tcontract cryptoDoreaUsers {\\r\\...\n      PUSH 7C67A3E2\t\t\tcontract cryptoDoreaUsers {\\r\\...\n      EQ \t\t\tcontract cryptoDoreaUsers {\\r\\...\n      PUSH [tag] 4\t\t\tcontract cryptoDoreaUsers {\\r\\...\n      JUMPI \t\t\tcontract cryptoDoreaUsers {\\r\\...\n      DUP1 \t\t\tcontract cryptoDoreaUsers {\\r\\...\n      PUSH F9A24DC0\t\t\tcontract cryptoDoreaUsers {\\r\\...\n      EQ \t\t\tcontract cryptoDoreaUsers {\\r\\...\n      PUSH [tag] 5\t\t\tcontract cryptoDoreaUsers {\\r\\...\n      JUMPI \t\t\tcontract cryptoDoreaUsers {\\r\\...\n    tag 1\t\t\tcontract cryptoDoreaUsers {\\r\\...\n      JUMPDEST \t\t\tcontract cryptoDoreaUsers {\\r\\...\n      PUSH 0\t\t\tcontract cryptoDoreaUsers {\\r\\...\n      DUP1 \t\t\tcontract cryptoDoreaUsers {\\r\\...\n      REVERT \t\t\tcontract cryptoDoreaUsers {\\r\\...\n    tag 2\t\t\tfunction getBalance() public v...\n      JUMPDEST \t\t\tfunction getBalance() public v...\n      CALLVALUE \t\t\tfunction getBalance() public v...\n      DUP1 \t\t\tfunction getBalance() public v...\n      ISZERO \t\t\tfunction getBalance() public v...\n      PUSH [tag] 6\t\t\tfunction getBalance() public v...\n      JUMPI \t\t\tfunction getBalance() public v...\n      PUSH 0\t\t\tfunction getBalance() public v...\n      DUP1 \t\t\tfunction getBalance() public v...\n      REVERT \t\t\tfunction getBalance() public v...\n    tag 6\t\t\tfunction getBalance() public v...\n      JUMPDEST \t\t\tfunction getBalance() public v...\n      POP \t\t\tfunction getBalance() public v...\n      PUSH [tag] 7\t\t\tfunction getBalance() public v...\n      PUSH [tag] 8\t\t\tfunction getBalance() public v...\n      JUMP \t\t\tfunction getBalance() public v...\n    tag 7\t\t\tfunction getBalance() public v...\n      JUMPDEST \t\t\tfunction getBalance() public v...\n      PUSH 40\t\t\tfunction getBalance() public v...\n      MLOAD \t\t\tfunction getBalance() public v...\n      PUSH [tag] 9\t\t\tfunction getBalance() public v...\n      SWAP2 \t\t\tfunction getBalance() public v...\n      SWAP1 \t\t\tfunction getBalance() public v...\n      PUSH [tag] 10\t\t\tfunction getBalance() public v...\n      JUMP \t\t\tfunction getBalance() public v...\n    tag 9\t\t\tfunction getBalance() public v...\n      JUMPDEST \t\t\tfunction getBalance() public v...\n      PUSH 40\t\t\tfunction getBalance() public v...\n      MLOAD \t\t\tfunction getBalance() public v...\n      DUP1 \t\t\tfunction getBalance() public v...\n      SWAP2 \t\t\tfunction getBalance() public v...\n      SUB \t\t\tfunction getBalance() public v...\n      SWAP1 \t\t\tfunction getBalance() public v...\n      RETURN \t\t\tfunction getBalance() public v...\n    tag 3\t\t\tfunction pay() public payable{...\n      JUMPDEST \t\t\tfunction pay() public payable{...\n      PUSH [tag] 11\t\t\tfunction pay() public payable{...\n      PUSH [tag] 12\t\t\tfunction pay() public payable{...\n      JUMP \t\t\tfunction pay() public payable{...\n    tag 11\t\t\tfunction pay() public payable{...\n      JUMPDEST \t\t\tfunction pay() public payable{...\n      STOP \t\t\tfunction pay() public payable{...\n    tag 4\t\t\tfunction time(address _receipe...\n      JUMPDEST \t\t\tfunction time(address _receipe...\n      CALLVALUE \t\t\tfunction time(address _receipe...\n      DUP1 \t\t\tfunction time(address _receipe...\n      ISZERO \t\t\tfunction time(address _receipe...\n      PUSH [tag] 13\t\t\tfunction time(address _receipe...\n      JUMPI \t\t\tfunction time(address _receipe...\n      PUSH 0\t\t\tfunction time(address _receipe...\n      DUP1 \t\t\tfunction time(address _receipe...\n      REVERT \t\t\tfunction time(address _receipe...\n    tag 13\t\t\tfunction time(address _receipe...\n      JUMPDEST \t\t\tfunction time(address _receipe...\n      POP \t\t\tfunction time(address _receipe...\n      PUSH [tag] 14\t\t\tfunction time(address _receipe...\n      PUSH 4\t\t\tfunction time(address _receipe...\n      DUP1 \t\t\tfunction time(address _receipe...\n      CALLDATASIZE \t\t\tfunction time(address _receipe...\n      SUB \t\t\tfunction time(address _receipe...\n      DUP2 \t\t\tfunction time(address _receipe...\n      ADD \t\t\tfunction time(address _receipe...\n      SWAP1 \t\t\tfunction time(address _receipe...\n      PUSH [tag] 15\t\t\tfunction time(address _receipe...\n      SWAP2 \t\t\tfunction time(address _receipe...\n      SWAP1 \t\t\tfunction time(address _receipe...\n      PUSH [tag] 16\t\t\tfunction time(address _receipe...\n      JUMP \t\t\tfunction time(address _receipe...\n    tag 15\t\t\tfunction time(address _receipe...\n      JUMPDEST \t\t\tfunction time(address _receipe...\n      PUSH [tag] 17\t\t\tfunction time(address _receipe...\n      JUMP \t\t\tfunction time(address _receipe...\n    tag 14\t\t\tfunction time(address _receipe...\n      JUMPDEST \t\t\tfunction time(address _receipe...\n      PUSH 40\t\t\tfunction time(address _receipe...\n      MLOAD \t\t\tfunction time(address _receipe...\n      PUSH [tag] 18\t\t\tfunction time(address _receipe...\n      SWAP2 \t\t\tfunction time(address _receipe...\n      SWAP1 \t\t\tfunction time(address _receipe...\n      PUSH [tag] 10\t\t\tfunction time(address _receipe...\n      JUMP \t\t\tfunction time(address _receipe...\n    tag 18\t\t\tfunction time(address _receipe...\n      JUMPDEST \t\t\tfunction time(address _receipe...\n      PUSH 40\t\t\tfunction time(address _receipe...\n      MLOAD \t\t\tfunction time(address _receipe...\n      DUP1 \t\t\tfunction time(address _receipe...\n      SWAP2 \t\t\tfunction time(address _receipe...\n      SUB \t\t\tfunction time(address _receipe...\n      SWAP1 \t\t\tfunction time(address _receipe...\n      RETURN \t\t\tfunction time(address _receipe...\n    tag 5\t\t\tfunction freeTrialCheck(addres...\n      JUMPDEST \t\t\tfunction freeTrialCheck(addres...\n      CALLVALUE \t\t\tfunction freeTrialCheck(addres...\n      DUP1 \t\t\tfunction freeTrialCheck(addres...\n      ISZERO \t\t\tfunction freeTrialCheck(addres...\n      PUSH [tag] 19\t\t\tfunction freeTrialCheck(addres...\n      JUMPI \t\t\tfunction freeTrialCheck(addres...\n      PUSH 0\t\t\tfunction freeTrialCheck(addres...\n      DUP1 \t\t\tfunction freeTrialCheck(addres...\n      REVERT \t\t\tfunction freeTrialCheck(addres...\n    tag 19\t\t\tfunction freeTrialCheck(addres...\n      JUMPDEST \t\t\tfunction freeTrialCheck(addres...\n      POP \t\t\tfunction freeTrialCheck(addres...\n      PUSH [tag] 20\t\t\tfunction freeTrialCheck(addres...\n      PUSH 4\t\t\tfunction freeTrialCheck(addres...\n      DUP1 \t\t\tfunction freeTrialCheck(addres...\n      CALLDATASIZE \t\t\tfunction freeTrialCheck(addres...\n      SUB \t\t\tfunction freeTrialCheck(addres...\n      DUP2 \t\t\tfunction freeTrialCheck(addres...\n      ADD \t\t\tfunction freeTrialCheck(addres...\n      SWAP1 \t\t\tfunction freeTrialCheck(addres...\n      PUSH [tag] 21\t\t\tfunction freeTrialCheck(addres...\n      SWAP2 \t\t\tfunction freeTrialCheck(addres...\n      SWAP1 \t\t\tfunction freeTrialCheck(addres...\n      PUSH [tag] 16\t\t\tfunction freeTrialCheck(addres...\n      JUMP \t\t\tfunction freeTrialCheck(addres...\n    tag 21\t\t\tfunction freeTrialCheck(addres...\n      JUMPDEST \t\t\tfunction freeTrialCheck(addres...\n      PUSH [tag] 22\t\t\tfunction freeTrialCheck(addres...\n      JUMP \t\t\tfunction freeTrialCheck(addres...\n    tag 20\t\t\tfunction freeTrialCheck(addres...\n      JUMPDEST \t\t\tfunction freeTrialCheck(addres...\n      STOP \t\t\tfunction freeTrialCheck(addres...\n    tag 8\t\t\tfunction getBalance() public v...\n      JUMPDEST \t\t\tfunction getBalance() public v...\n      PUSH 0\t\t\tuint256\n      SELFBALANCE \t\t\taddress(this).balance\n      SWAP1 \t\t\treturn address(this).balance\n      POP \t\t\treturn address(this).balance\n      SWAP1 \t\t\tfunction getBalance() public v...\n      JUMP \t\t\tfunction getBalance() public v...\n    tag 12\t\t\tfunction pay() public payable{...\n      JUMPDEST \t\t\tfunction pay() public payable{...\n      PUSH 0\t\t\t0\n      CALLVALUE \t\t\tmsg.value\n      GT \t\t\tmsg.value > 0\n      PUSH [tag] 25\t\t\trequire(msg.value > 0, \"You mu...\n      JUMPI \t\t\trequire(msg.value > 0, \"You mu...\n      PUSH 40\t\t\trequire(msg.value > 0, \"You mu...\n      MLOAD \t\t\trequire(msg.value > 0, \"You mu...\n      PUSH 8C379A000000000000000000000000000000000000000000000000000000000\t\t\trequire(msg.value > 0, \"You mu...\n      DUP2 \t\t\trequire(msg.value > 0, \"You mu...\n      MSTORE \t\t\trequire(msg.value > 0, \"You mu...\n      PUSH 4\t\t\trequire(msg.value > 0, \"You mu...\n      ADD \t\t\trequire(msg.value > 0, \"You mu...\n      PUSH [tag] 26\t\t\trequire(msg.value > 0, \"You mu...\n      SWAP1 \t\t\trequire(msg.value > 0, \"You mu...\n      PUSH [tag] 27\t\t\trequire(msg.value > 0, \"You mu...\n      JUMP \t\t\trequire(msg.value > 0, \"You mu...\n    tag 26\t\t\trequire(msg.value > 0, \"You mu...\n      JUMPDEST \t\t\trequire(msg.value > 0, \"You mu...\n      PUSH 40\t\t\trequire(msg.value > 0, \"You mu...\n      MLOAD \t\t\trequire(msg.value > 0, \"You mu...\n      DUP1 \t\t\trequire(msg.value > 0, \"You mu...\n      SWAP2 \t\t\trequire(msg.value > 0, \"You mu...\n      SUB \t\t\trequire(msg.value > 0, \"You mu...\n      SWAP1 \t\t\trequire(msg.value > 0, \"You mu...\n      REVERT \t\t\trequire(msg.value > 0, \"You mu...\n    tag 25\t\t\trequire(msg.value > 0, \"You mu...\n      JUMPDEST \t\t\trequire(msg.value > 0, \"You mu...\n      JUMP \t\t\tfunction pay() public payable{...\n    tag 17\t\t\tfunction time(address _receipe...\n      JUMPDEST \t\t\tfunction time(address _receipe...\n      PUSH 0\t\t\tuint256\n      DUP1 \t\t\t_usersAddress\n      PUSH 0\t\t\t_usersAddress[_receipent]\n      DUP4 \t\t\t_receipent\n      PUSH FFFFFFFFFFFFFFFFFFFFFFFFFFFFFFFFFFFFFFFF\t\t\t_usersAddress[_receipent]\n      AND \t\t\t_usersAddress[_receipent]\n      PUSH FFFFFFFFFFFFFFFFFFFFFFFFFFFFFFFFFFFFFFFF\t\t\t_usersAddress[_receipent]\n      AND \t\t\t_usersAddress[_receipent]\n      DUP2 \t\t\t_usersAddress[_receipent]\n      MSTORE \t\t\t_usersAddress[_receipent]\n      PUSH 20\t\t\t_usersAddress[_receipent]\n      ADD \t\t\t_usersAddress[_receipent]\n      SWAP1 \t\t\t_usersAddress[_receipent]\n      DUP2 \t\t\t_usersAddress[_receipent]\n      MSTORE \t\t\t_usersAddress[_receipent]\n      PUSH 20\t\t\t_usersAddress[_receipent]\n      ADD \t\t\t_usersAddress[_receipent]\n      PUSH 0\t\t\t_usersAddress[_receipent]\n      KECCAK256 \t\t\t_usersAddress[_receipent]\n      SLOAD \t\t\t_usersAddress[_receipent]\n      SWAP1 \t\t\treturn  _usersAddress[_receipe...\n      POP \t\t\treturn  _usersAddress[_receipe...\n      SWAP2 \t\t\tfunction time(address _receipe...\n      SWAP1 \t\t\tfunction time(address _receipe...\n      POP \t\t\tfunction time(address _receipe...\n      JUMP \t\t\tfunction time(address _receipe...\n    tag 22\t\t\tfunction freeTrialCheck(addres...\n      JUMPDEST \t\t\tfunction freeTrialCheck(addres...\n      PUSH 0\t\t\tbool useCheck\n      DUP1 \t\t\t0\n      PUSH 0\t\t\t_usersAddress\n      DUP1 \t\t\t_usersAddress[usersAddress]\n      DUP5 \t\t\tusersAddress\n      PUSH FFFFFFFFFFFFFFFFFFFFFFFFFFFFFFFFFFFFFFFF\t\t\t_usersAddress[usersAddress]\n      AND \t\t\t_usersAddress[usersAddress]\n      PUSH FFFFFFFFFFFFFFFFFFFFFFFFFFFFFFFFFFFFFFFF\t\t\t_usersAddress[usersAddress]\n      AND \t\t\t_usersAddress[usersAddress]\n      DUP2 \t\t\t_usersAddress[usersAddress]\n      MSTORE \t\t\t_usersAddress[usersAddress]\n      PUSH 20\t\t\t_usersAddress[usersAddress]\n      ADD \t\t\t_usersAddress[usersAddress]\n      SWAP1 \t\t\t_usersAddress[usersAddress]\n      DUP2 \t\t\t_usersAddress[usersAddress]\n      MSTORE \t\t\t_usersAddress[usersAddress]\n      PUSH 20\t\t\t_usersAddress[usersAddress]\n      ADD \t\t\t_usersAddress[usersAddress]\n      PUSH 0\t\t\t_usersAddress[usersAddress]\n      KECCAK256 \t\t\t_usersAddress[usersAddress]\n      SLOAD \t\t\t_usersAddress[usersAddress]\n      EQ \t\t\t_usersAddress[usersAddress] !=...\n      ISZERO \t\t\t_usersAddress[usersAddress] !=...\n      SWAP1 \t\t\tbool useCheck = _usersAddress[...\n      POP \t\t\tbool useCheck = _usersAddress[...\n      PUSH 1\t\t\ttrue\n      ISZERO \t\t\tuseCheck != true\n      ISZERO \t\t\tuseCheck != true\n      DUP2 \t\t\tuseCheck\n      ISZERO \t\t\tuseCheck != true\n      ISZERO \t\t\tuseCheck != true\n      EQ \t\t\tuseCheck != true\n      PUSH [tag] 30\t\t\tif(useCheck != true){\\r\\n\\r\\n ...\n      JUMPI \t\t\tif(useCheck != true){\\r\\n\\r\\n ...\n      PUSH 127500\t\t\t14 * 86400\n      TIMESTAMP \t\t\tblock.timestamp\n      PUSH [tag] 31\t\t\tblock.timestamp + (14 * 86400)\n      SWAP2 \t\t\tblock.timestamp + (14 * 86400)\n      SWAP1 \t\t\tblock.timestamp + (14 * 86400)\n      PUSH [tag] 32\t\t\tblock.timestamp + (14 * 86400)\n      JUMP \t\t\tblock.timestamp + (14 * 86400)\n    tag 31\t\t\tblock.timestamp + (14 * 86400)\n      JUMPDEST \t\t\tblock.timestamp + (14 * 86400)\n      PUSH 0\t\t\t_usersAddress\n      DUP1 \t\t\t_usersAddress[usersAddress]\n      DUP5 \t\t\tusersAddress\n      PUSH FFFFFFFFFFFFFFFFFFFFFFFFFFFFFFFFFFFFFFFF\t\t\t_usersAddress[usersAddress]\n      AND \t\t\t_usersAddress[usersAddress]\n      PUSH FFFFFFFFFFFFFFFFFFFFFFFFFFFFFFFFFFFFFFFF\t\t\t_usersAddress[usersAddress]\n      AND \t\t\t_usersAddress[usersAddress]\n      DUP2 \t\t\t_usersAddress[usersAddress]\n      MSTORE \t\t\t_usersAddress[usersAddress]\n      PUSH 20\t\t\t_usersAddress[usersAddress]\n      ADD \t\t\t_usersAddress[usersAddress]\n      SWAP1 \t\t\t_usersAddress[usersAddress]\n      DUP2 \t\t\t_usersAddress[usersAddress]\n      MSTORE \t\t\t_usersAddress[usersAddress]\n      PUSH 20\t\t\t_usersAddress[usersAddress]\n      ADD \t\t\t_usersAddress[usersAddress]\n      PUSH 0\t\t\t_usersAddress[usersAddress]\n      KECCAK256 \t\t\t_usersAddress[usersAddress]\n      DUP2 \t\t\t_usersAddress[usersAddress] = ...\n      SWAP1 \t\t\t_usersAddress[usersAddress] = ...\n      SSTORE \t\t\t_usersAddress[usersAddress] = ...\n      POP \t\t\t_usersAddress[usersAddress] = ...\n      PUSH [tag] 33\t\t\tif(useCheck != true){\\r\\n\\r\\n ...\n      JUMP \t\t\tif(useCheck != true){\\r\\n\\r\\n ...\n    tag 30\t\t\tif(useCheck != true){\\r\\n\\r\\n ...\n      JUMPDEST \t\t\tif(useCheck != true){\\r\\n\\r\\n ...\n      TIMESTAMP \t\t\tblock.timestamp\n      PUSH 0\t\t\t_usersAddress\n      DUP1 \t\t\t_usersAddress[usersAddress]\n      DUP5 \t\t\tusersAddress\n      PUSH FFFFFFFFFFFFFFFFFFFFFFFFFFFFFFFFFFFFFFFF\t\t\t_usersAddress[usersAddress]\n      AND \t\t\t_usersAddress[usersAddress]\n      PUSH FFFFFFFFFFFFFFFFFFFFFFFFFFFFFFFFFFFFFFFF\t\t\t_usersAddress[usersAddress]\n      AND \t\t\t_usersAddress[usersAddress]\n      DUP2 \t\t\t_usersAddress[usersAddress]\n      MSTORE \t\t\t_usersAddress[usersAddress]\n      PUSH 20\t\t\t_usersAddress[usersAddress]\n      ADD \t\t\t_usersAddress[usersAddress]\n      SWAP1 \t\t\t_usersAddress[usersAddress]\n      DUP2 \t\t\t_usersAddress[usersAddress]\n      MSTORE \t\t\t_usersAddress[usersAddress]\n      PUSH 20\t\t\t_usersAddress[usersAddress]\n      ADD \t\t\t_usersAddress[usersAddress]\n      PUSH 0\t\t\t_usersAddress[usersAddress]\n      KECCAK256 \t\t\t_usersAddress[usersAddress]\n      SLOAD \t\t\t_usersAddress[usersAddress]\n      GT \t\t\t_usersAddress[usersAddress] <=...\n      PUSH [tag] 34\t\t\tif(_usersAddress[usersAddress]...\n      JUMPI \t\t\tif(_usersAddress[usersAddress]...\n      PUSH 40\t\t\trevert(\"free trial is expired\"...\n      MLOAD \t\t\trevert(\"free trial is expired\"...\n      PUSH 8C379A000000000000000000000000000000000000000000000000000000000\t\t\trevert(\"free trial is expired\"...\n      DUP2 \t\t\trevert(\"free trial is expired\"...\n      MSTORE \t\t\trevert(\"free trial is expired\"...\n      PUSH 4\t\t\trevert(\"free trial is expired\"...\n      ADD \t\t\trevert(\"free trial is expired\"...\n      PUSH [tag] 35\t\t\trevert(\"free trial is expired\"...\n      SWAP1 \t\t\trevert(\"free trial is expired\"...\n      PUSH [tag] 36\t\t\trevert(\"free trial is expired\"...\n      JUMP \t\t\trevert(\"free trial is expired\"...\n    tag 35\t\t\trevert(\"free trial is expired\"...\n      JUMPDEST \t\t\trevert(\"free trial is expired\"...\n      PUSH 40\t\t\trevert(\"free trial is expired\"...\n      MLOAD \t\t\trevert(\"free trial is expired\"...\n      DUP1 \t\t\trevert(\"free trial is expired\"...\n      SWAP2 \t\t\trevert(\"free trial is expired\"...\n      SUB \t\t\trevert(\"free trial is expired\"...\n      SWAP1 \t\t\trevert(\"free trial is expired\"...\n      REVERT \t\t\trevert(\"free trial is expired\"...\n    tag 34\t\t\tif(_usersAddress[usersAddress]...\n      JUMPDEST \t\t\tif(_usersAddress[usersAddress]...\n    tag 33\t\t\tif(useCheck != true){\\r\\n\\r\\n ...\n      JUMPDEST \t\t\tif(useCheck != true){\\r\\n\\r\\n ...\n      POP \t\t\t{\\r\\n        \\r\\n        bool ...\n      POP \t\t\tfunction freeTrialCheck(addres...\n      JUMP \t\t\tfunction freeTrialCheck(addres...\n    tag 37\t\t\t-License-Identifier: GPL-3.0\\r...\n      JUMPDEST \t\t\t-License-Identifier: GPL-3.0\\r...\n      PUSH 0\t\t\tsolidit\n      DUP2 \t\t\tcontr\n      SWAP1 \t\t\t<0.9.0;\\r\\n\\r\\ncontr\n      POP \t\t\t<0.9.0;\\r\\n\\r\\ncontr\n      SWAP2 \t\t\t-License-Identifier: GPL-3.0\\r...\n      SWAP1 \t\t\t-License-Identifier: GPL-3.0\\r...\n      POP \t\t\t-License-Identifier: GPL-3.0\\r...\n      JUMP \t\t\t-License-Identifier: GPL-3.0\\r...\n    tag 38\t\t\treaUsers {\\r\\n\\r\\n    mapping(...\n      JUMPDEST \t\t\treaUsers {\\r\\n\\r\\n    mapping(...\n      PUSH [tag] 55\t\t\t  {\\r\\n\\r\\n\\r\\n    }\\r\\n\\r\\n  ...\n      DUP2 \t\t\t   fu\n      PUSH [tag] 37\t\t\t  {\\r\\n\\r\\n\\r\\n    }\\r\\n\\r\\n  ...\n      JUMP \t\t\t  {\\r\\n\\r\\n\\r\\n    }\\r\\n\\r\\n  ...\n    tag 55\t\t\t  {\\r\\n\\r\\n\\r\\n    }\\r\\n\\r\\n  ...\n      JUMPDEST \t\t\t  {\\r\\n\\r\\n\\r\\n    }\\r\\n\\r\\n  ...\n      DUP3 \t\t\ttor\n      MSTORE \t\t\tonstructor()  {\\r\\n\\r\\n\\r\\n   ...\n      POP \t\t\treaUsers {\\r\\n\\r\\n    mapping(...\n      POP \t\t\treaUsers {\\r\\n\\r\\n    mapping(...\n      JUMP \t\t\treaUsers {\\r\\n\\r\\n    mapping(...\n    tag 10\t\t\talCheck(address usersAddress) ...\n      JUMPDEST \t\t\talCheck(address usersAddress) ...\n      PUSH 0\t\t\tddre\n      PUSH 20\t\t\t= \n      DUP3 \t\t\t(useCheck\n      ADD \t\t\t  if(useCheck != t\n      SWAP1 \t\t\t\\r\\n        if(useCheck != t\n      POP \t\t\t\\r\\n        if(useCheck != t\n      PUSH [tag] 57\t\t\t           // add 14 days tria...\n      PUSH 0\t\t\t\\r\n      DUP4 \t\t\tdeploymen\n      ADD \t\t\time deployment \\r\\n\n      DUP5 \t\t\te firs\n      PUSH [tag] 38\t\t\t           // add 14 days tria...\n      JUMP \t\t\t           // add 14 days tria...\n    tag 57\t\t\t           // add 14 days tria...\n      JUMPDEST \t\t\t           // add 14 days tria...\n      SWAP3 \t\t\talCheck(address usersAddress) ...\n      SWAP2 \t\t\talCheck(address usersAddress) ...\n      POP \t\t\talCheck(address usersAddress) ...\n      POP \t\t\talCheck(address usersAddress) ...\n      JUMP \t\t\talCheck(address usersAddress) ...\n    tag 40\t\t\tlse{\\r\\n\\r\\n            if(_us...\n      JUMPDEST \t\t\tlse{\\r\\n\\r\\n            if(_us...\n      PUSH 0\t\t\t \n      DUP1 \t\t\ti\n      REVERT \t\t\tfree trial i\n    tag 42\t\t\treturn  _usersAddress[_receipe...\n      JUMPDEST \t\t\treturn  _usersAddress[_receipe...\n      PUSH 0\t\t\t\\n    }\\r\n      PUSH FFFFFFFFFFFFFFFFFFFFFFFFFFFFFFFFFFFFFFFF\t\t\t Customers\\r\\n    function pay...\n      DUP3 \t\t\to Loy\n      AND \t\t\ter to Loyal Customers\\r\\n    f...\n      SWAP1 \t\t\transfer Ether to Loyal Custome...\n      POP \t\t\transfer Ether to Loyal Custome...\n      SWAP2 \t\t\treturn  _usersAddress[_receipe...\n      SWAP1 \t\t\treturn  _usersAddress[_receipe...\n      POP \t\t\treturn  _usersAddress[_receipe...\n      JUMP \t\t\treturn  _usersAddress[_receipe...\n    tag 43\t\t\t \\r\\n         require(msg.valu...\n      JUMPDEST \t\t\t \\r\\n         require(msg.valu...\n      PUSH 0\t\t\tou must\n      PUSH [tag] 63\t\t\t   }\\r\\n\\r\\n    \\r\\n    // get\n      DUP3 \t\t\t// ge\n      PUSH [tag] 42\t\t\t   }\\r\\n\\r\\n    \\r\\n    // get\n      JUMP \t\t\t   }\\r\\n\\r\\n    \\r\\n    // get\n    tag 63\t\t\t   }\\r\\n\\r\\n    \\r\\n    // get\n      JUMPDEST \t\t\t   }\\r\\n\\r\\n    \\r\\n    // get\n      SWAP1 \t\t\tEther\");\\r\\n    }\\r\\n\\r\\n    \\...\n      POP \t\t\tEther\");\\r\\n    }\\r\\n\\r\\n    \\...\n      SWAP2 \t\t\t \\r\\n         require(msg.valu...\n      SWAP1 \t\t\t \\r\\n         require(msg.valu...\n      POP \t\t\t \\r\\n         require(msg.valu...\n      JUMP \t\t\t \\r\\n         require(msg.valu...\n    tag 44\t\t\tcontract address\\r\\n    functi...\n      JUMPDEST \t\t\tcontract address\\r\\n    functi...\n      PUSH [tag] 65\t\t\t\\r\\n        return address\n      DUP2 \t\t\tddres\n      PUSH [tag] 43\t\t\t\\r\\n        return address\n      JUMP \t\t\t\\r\\n        return address\n    tag 65\t\t\t\\r\\n        return address\n      JUMPDEST \t\t\t\\r\\n        return address\n      DUP2 \t\t\tnt256\n      EQ \t\t\t(uint256){\\r\\n        return a...\n      PUSH [tag] 66\t\t\tew returns(uint256){\\r\\n      ...\n      JUMPI \t\t\tew returns(uint256){\\r\\n      ...\n      PUSH 0\t\t\t\\r\n      DUP1 \t\t\tc\n      REVERT \t\t\t).balance;\\r\\n\n    tag 66\t\t\tew returns(uint256){\\r\\n      ...\n      JUMPDEST \t\t\tew returns(uint256){\\r\\n      ...\n      POP \t\t\tcontract address\\r\\n    functi...\n      JUMP \t\t\tcontract address\\r\\n    functi...\n    tag 45\t\t\t\n      JUMPDEST \t\t\t\n      PUSH 0\t\t\t\n      DUP2 \t\t\t\n      CALLDATALOAD \t\t\t\n      SWAP1 \t\t\t\n      POP \t\t\t\n      PUSH [tag] 68\t\t\t\n      DUP2 \t\t\t\n      PUSH [tag] 44\t\t\t\n      JUMP \t\t\t\n    tag 68\t\t\t\n      JUMPDEST \t\t\t\n      SWAP3 \t\t\t\n      SWAP2 \t\t\t\n      POP \t\t\t\n      POP \t\t\t\n      JUMP \t\t\t\n    tag 16\t\t\t\n      JUMPDEST \t\t\t\n      PUSH 0\t\t\t\n      PUSH 20\t\t\t\n      DUP3 \t\t\t\n      DUP5 \t\t\t\n      SUB \t\t\t\n      SLT \t\t\t\n      ISZERO \t\t\t\n      PUSH [tag] 70\t\t\t\n      JUMPI \t\t\t\n      PUSH [tag] 71\t\t\t\n      PUSH [tag] 40\t\t\t\n      JUMP \t\t\t\n    tag 71\t\t\t\n      JUMPDEST \t\t\t\n    tag 70\t\t\t\n      JUMPDEST \t\t\t\n      PUSH 0\t\t\t\n      PUSH [tag] 72\t\t\t\n      DUP5 \t\t\t\n      DUP3 \t\t\t\n      DUP6 \t\t\t\n      ADD \t\t\t\n      PUSH [tag] 45\t\t\t\n      JUMP \t\t\t\n    tag 72\t\t\t\n      JUMPDEST \t\t\t\n      SWAP2 \t\t\t\n      POP \t\t\t\n      POP \t\t\t\n      SWAP3 \t\t\t\n      SWAP2 \t\t\t\n      POP \t\t\t\n      POP \t\t\t\n      JUMP \t\t\t\n    tag 46\t\t\t\n      JUMPDEST \t\t\t\n      PUSH 0\t\t\t\n      DUP3 \t\t\t\n      DUP3 \t\t\t\n      MSTORE \t\t\t\n      PUSH 20\t\t\t\n      DUP3 \t\t\t\n      ADD \t\t\t\n      SWAP1 \t\t\t\n      POP \t\t\t\n      SWAP3 \t\t\t\n      SWAP2 \t\t\t\n      POP \t\t\t\n      POP \t\t\t\n      JUMP \t\t\t\n    tag 47\t\t\t\n      JUMPDEST \t\t\t\n      PUSH 596F75206D7573742073656E6420736F6D652045746865720000000000000000\t\t\t\n      PUSH 0\t\t\t\n      DUP3 \t\t\t\n      ADD \t\t\t\n      MSTORE \t\t\t\n      POP \t\t\t\n      JUMP \t\t\t\n    tag 48\t\t\t\n      JUMPDEST \t\t\t\n      PUSH 0\t\t\t\n      PUSH [tag] 76\t\t\t\n      PUSH 18\t\t\t\n      DUP4 \t\t\t\n      PUSH [tag] 46\t\t\t\n      JUMP \t\t\t\n    tag 76\t\t\t\n      JUMPDEST \t\t\t\n      SWAP2 \t\t\t\n      POP \t\t\t\n      PUSH [tag] 77\t\t\t\n      DUP3 \t\t\t\n      PUSH [tag] 47\t\t\t\n      JUMP \t\t\t\n    tag 77\t\t\t\n      JUMPDEST \t\t\t\n      PUSH 20\t\t\t\n      DUP3 \t\t\t\n      ADD \t\t\t\n      SWAP1 \t\t\t\n      POP \t\t\t\n      SWAP2 \t\t\t\n      SWAP1 \t\t\t\n      POP \t\t\t\n      JUMP \t\t\t\n    tag 27\t\t\t\n      JUMPDEST \t\t\t\n      PUSH 0\t\t\t\n      PUSH 20\t\t\t\n      DUP3 \t\t\t\n      ADD \t\t\t\n      SWAP1 \t\t\t\n      POP \t\t\t\n      DUP2 \t\t\t\n      DUP2 \t\t\t\n      SUB \t\t\t\n      PUSH 0\t\t\t\n      DUP4 \t\t\t\n      ADD \t\t\t\n      MSTORE \t\t\t\n      PUSH [tag] 79\t\t\t\n      DUP2 \t\t\t\n      PUSH [tag] 48\t\t\t\n      JUMP \t\t\t\n    tag 79\t\t\t\n      JUMPDEST \t\t\t\n      SWAP1 \t\t\t\n      POP \t\t\t\n      SWAP2 \t\t\t\n      SWAP1 \t\t\t\n      POP \t\t\t\n      JUMP \t\t\t\n    tag 49\t\t\t\n      JUMPDEST \t\t\t\n      PUSH 4E487B7100000000000000000000000000000000000000000000000000000000\t\t\t\n      PUSH 0\t\t\t\n      MSTORE \t\t\t\n      PUSH 11\t\t\t\n      PUSH 4\t\t\t\n      MSTORE \t\t\t\n      PUSH 24\t\t\t\n      PUSH 0\t\t\t\n      REVERT \t\t\t\n    tag 32\t\t\t\n      JUMPDEST \t\t\t\n      PUSH 0\t\t\t\n      PUSH [tag] 82\t\t\t\n      DUP3 \t\t\t\n      PUSH [tag] 37\t\t\t\n      JUMP \t\t\t\n    tag 82\t\t\t\n      JUMPDEST \t\t\t\n      SWAP2 \t\t\t\n      POP \t\t\t\n      PUSH [tag] 83\t\t\t\n      DUP4 \t\t\t\n      PUSH [tag] 37\t\t\t\n      JUMP \t\t\t\n    tag 83\t\t\t\n      JUMPDEST \t\t\t\n      SWAP3 \t\t\t\n      POP \t\t\t\n      DUP3 \t\t\t\n      DUP3 \t\t\t\n      ADD \t\t\t\n      SWAP1 \t\t\t\n      POP \t\t\t\n      DUP1 \t\t\t\n      DUP3 \t\t\t\n      GT \t\t\t\n      ISZERO \t\t\t\n      PUSH [tag] 84\t\t\t\n      JUMPI \t\t\t\n      PUSH [tag] 85\t\t\t\n      PUSH [tag] 49\t\t\t\n      JUMP \t\t\t\n    tag 85\t\t\t\n      JUMPDEST \t\t\t\n    tag 84\t\t\t\n      JUMPDEST \t\t\t\n      SWAP3 \t\t\t\n      SWAP2 \t\t\t\n      POP \t\t\t\n      POP \t\t\t\n      JUMP \t\t\t\n    tag 50\t\t\t\n      JUMPDEST \t\t\t\n      PUSH 6672656520747269616C20697320657870697265640000000000000000000000\t\t\t\n      PUSH 0\t\t\t\n      DUP3 \t\t\t\n      ADD \t\t\t\n      MSTORE \t\t\t\n      POP \t\t\t\n      JUMP \t\t\t\n    tag 51\t\t\t\n      JUMPDEST \t\t\t\n      PUSH 0\t\t\t\n      PUSH [tag] 88\t\t\t\n      PUSH 15\t\t\t\n      DUP4 \t\t\t\n      PUSH [tag] 46\t\t\t\n      JUMP \t\t\t\n    tag 88\t\t\t\n      JUMPDEST \t\t\t\n      SWAP2 \t\t\t\n      POP \t\t\t\n      PUSH [tag] 89\t\t\t\n      DUP3 \t\t\t\n      PUSH [tag] 50\t\t\t\n      JUMP \t\t\t\n    tag 89\t\t\t\n      JUMPDEST \t\t\t\n      PUSH 20\t\t\t\n      DUP3 \t\t\t\n      ADD \t\t\t\n      SWAP1 \t\t\t\n      POP \t\t\t\n      SWAP2 \t\t\t\n      SWAP1 \t\t\t\n      POP \t\t\t\n      JUMP \t\t\t\n    tag 36\t\t\t\n      JUMPDEST \t\t\t\n      PUSH 0\t\t\t\n      PUSH 20\t\t\t\n      DUP3 \t\t\t\n      ADD \t\t\t\n      SWAP1 \t\t\t\n      POP \t\t\t\n      DUP2 \t\t\t\n      DUP2 \t\t\t\n      SUB \t\t\t\n      PUSH 0\t\t\t\n      DUP4 \t\t\t\n      ADD \t\t\t\n      MSTORE \t\t\t\n      PUSH [tag] 91\t\t\t\n      DUP2 \t\t\t\n      PUSH [tag] 51\t\t\t\n      JUMP \t\t\t\n    tag 91\t\t\t\n      JUMPDEST \t\t\t\n      SWAP1 \t\t\t\n      POP \t\t\t\n      SWAP2 \t\t\t\n      SWAP1 \t\t\t\n      POP \t\t\t\n      JUMP \t\t\t\n    .data\n"
}