{
	"compilerInput": "{\"language\":\"Solidity\",\"sources\":{\"users.sol\":{\"content\":\"// SPDX-License-Identifier: GPL-3.0\\r\\npragma solidity >=0.4.20 <0.9.0;\\r\\n\\r\\ncontract cryptoDoreaUsers {\\r\\n\\r\\n    mapping(address=>bool) private _paymentStatus;\\r\\n    mapping(address=>uint256) private _paymentAmount;\\r\\n    mapping(address=>uint256) private _paymentDate;\\r\\n    uint256 private _expDate;\\r\\n\\r\\n    constructor()  {\\r\\n\\r\\n    }\\r\\n\\r\\n    /**\\r\\n    *\\r\\n    */\\r\\n    function paymentCheck(address usersAddress, uint256 _amount, string memory planType) public{\\r\\n\\r\\n        bool payCheck = _paymentStatus[usersAddress];\\r\\n\\r\\n        if(payCheck != true){\\r\\n\\r\\n            _paymentStatus[usersAddress] = true;\\r\\n            _paymentAmount[usersAddress] = _amount;\\r\\n\\r\\n            if(keccak256(bytes(planType)) == keccak256(bytes(\\\"Monthly\\\"))){\\r\\n                _expDate = (30 * 86400);\\r\\n            }else if(keccak256(bytes(planType)) == keccak256(bytes(\\\"halfYearly\\\"))){\\r\\n                _expDate = (180 * 86400);\\r\\n            }else if(keccak256(bytes(planType)) == keccak256(bytes(\\\"Yearly\\\"))){\\r\\n                _expDate = (365 * 86400);\\r\\n            }\\r\\n\\r\\n            _paymentDate[usersAddress]   = block.timestamp + _expDate;\\r\\n\\r\\n        }else{\\r\\n            revert(\\\"user is already paid!\\\");\\r\\n        }\\r\\n\\r\\n    }\\r\\n\\r\\n    function userCheckStatus(address _receipent) public view returns (uint256){\\r\\n\\r\\n        return  _paymentDate[_receipent];\\r\\n\\r\\n    }\\r\\n\\r\\n\\r\\n    // Transfer Ether to Loyal Customers\\r\\n    function pay(address _receipent, string memory _planType) public payable{\\r\\n\\r\\n        // add function to check if user is paid or not\\r\\n        require(msg.value > 0, \\\"You must send some Ether\\\");\\r\\n        paymentCheck(_receipent, msg.value, _planType);\\r\\n\\r\\n    }\\r\\n\\r\\n    \\r\\n    // get balance of contract address\\r\\n    function getBalance() public view returns(uint256){\\r\\n        return address(this).balance;\\r\\n    }\\r\\n\\r\\n}\"}},\"settings\":{\"optimizer\":{\"enabled\":false,\"runs\":200},\"outputSelection\":{\"*\":{\"\":[\"ast\"],\"*\":[\"abi\",\"metadata\",\"devdoc\",\"userdoc\",\"storageLayout\",\"evm.legacyAssembly\",\"evm.bytecode\",\"evm.deployedBytecode\",\"evm.methodIdentifiers\",\"evm.gasEstimates\",\"evm.assembly\"]}},\"remappings\":[]}}",
	"name": "cryptoDoreaUsers",
	"bytecode": {
		"linkReferences": {},
		"object": "608060405234801561000f575f80fd5b506108808061001d5f395ff3fe60806040526004361061003e575f3560e01c806312065fe01461004257806344c7c1171461006c578063669b680c14610094578063fb4da5b7146100d0575b5f80fd5b34801561004d575f80fd5b506100566100ec565b604051610063919061042f565b60405180910390f35b348015610077575f80fd5b50610092600480360381019061008d9190610619565b6100f3565b005b34801561009f575f80fd5b506100ba60048036038101906100b59190610685565b610380565b6040516100c7919061042f565b60405180910390f35b6100ea60048036038101906100e591906106b0565b6103c6565b005b5f47905090565b5f805f8573ffffffffffffffffffffffffffffffffffffffff1673ffffffffffffffffffffffffffffffffffffffff1681526020019081526020015f205f9054906101000a900460ff169050600115158115151461033f5760015f808673ffffffffffffffffffffffffffffffffffffffff1673ffffffffffffffffffffffffffffffffffffffff1681526020019081526020015f205f6101000a81548160ff0219169083151502179055508260015f8673ffffffffffffffffffffffffffffffffffffffff1673ffffffffffffffffffffffffffffffffffffffff1681526020019081526020015f20819055506040518060400160405280600781526020017f4d6f6e74686c79000000000000000000000000000000000000000000000000008152508051906020012082805190602001200361023a5762278d006003819055506102eb565b6040518060400160405280600a81526020017f68616c66596561726c7900000000000000000000000000000000000000000000815250805190602001208280519060200120036102935762ed4e006003819055506102ea565b6040518060400160405280600681526020017f596561726c790000000000000000000000000000000000000000000000000000815250805190602001208280519060200120036102e9576301e133806003819055505b5b5b600354426102f99190610737565b60025f8673ffffffffffffffffffffffffffffffffffffffff1673ffffffffffffffffffffffffffffffffffffffff1681526020019081526020015f208190555061037a565b6040517f08c379a0000000000000000000000000000000000000000000000000000000008152600401610371906107c4565b60405180910390fd5b50505050565b5f60025f8373ffffffffffffffffffffffffffffffffffffffff1673ffffffffffffffffffffffffffffffffffffffff1681526020019081526020015f20549050919050565b5f3411610408576040517f08c379a00000000000000000000000000000000000000000000000000000000081526004016103ff9061082c565b60405180910390fd5b6104138234836100f3565b5050565b5f819050919050565b61042981610417565b82525050565b5f6020820190506104425f830184610420565b92915050565b5f604051905090565b5f80fd5b5f80fd5b5f73ffffffffffffffffffffffffffffffffffffffff82169050919050565b5f61048282610459565b9050919050565b61049281610478565b811461049c575f80fd5b50565b5f813590506104ad81610489565b92915050565b6104bc81610417565b81146104c6575f80fd5b50565b5f813590506104d7816104b3565b92915050565b5f80fd5b5f80fd5b5f601f19601f8301169050919050565b7f4e487b71000000000000000000000000000000000000000000000000000000005f52604160045260245ffd5b61052b826104e5565b810181811067ffffffffffffffff8211171561054a576105496104f5565b5b80604052505050565b5f61055c610448565b90506105688282610522565b919050565b5f67ffffffffffffffff821115610587576105866104f5565b5b610590826104e5565b9050602081019050919050565b828183375f83830152505050565b5f6105bd6105b88461056d565b610553565b9050828152602081018484840111156105d9576105d86104e1565b5b6105e484828561059d565b509392505050565b5f82601f830112610600576105ff6104dd565b5b81356106108482602086016105ab565b91505092915050565b5f805f606084860312156106305761062f610451565b5b5f61063d8682870161049f565b935050602061064e868287016104c9565b925050604084013567ffffffffffffffff81111561066f5761066e610455565b5b61067b868287016105ec565b9150509250925092565b5f6020828403121561069a57610699610451565b5b5f6106a78482850161049f565b91505092915050565b5f80604083850312156106c6576106c5610451565b5b5f6106d38582860161049f565b925050602083013567ffffffffffffffff8111156106f4576106f3610455565b5b610700858286016105ec565b9150509250929050565b7f4e487b71000000000000000000000000000000000000000000000000000000005f52601160045260245ffd5b5f61074182610417565b915061074c83610417565b92508282019050808211156107645761076361070a565b5b92915050565b5f82825260208201905092915050565b7f7573657220697320616c726561647920706169642100000000000000000000005f82015250565b5f6107ae60158361076a565b91506107b98261077a565b602082019050919050565b5f6020820190508181035f8301526107db816107a2565b9050919050565b7f596f75206d7573742073656e6420736f6d6520457468657200000000000000005f82015250565b5f61081660188361076a565b9150610821826107e2565b602082019050919050565b5f6020820190508181035f8301526108438161080a565b905091905056fea264697066735822122021d724461ba95db3a2b9944673c6465252ca35624975dce2e0c1e5fafdad2caa64736f6c63430008160033",
		"opcodes": "PUSH1 0x80 PUSH1 0x40 MSTORE CALLVALUE DUP1 ISZERO PUSH2 0xF JUMPI PUSH0 DUP1 REVERT JUMPDEST POP PUSH2 0x880 DUP1 PUSH2 0x1D PUSH0 CODECOPY PUSH0 RETURN INVALID PUSH1 0x80 PUSH1 0x40 MSTORE PUSH1 0x4 CALLDATASIZE LT PUSH2 0x3E JUMPI PUSH0 CALLDATALOAD PUSH1 0xE0 SHR DUP1 PUSH4 0x12065FE0 EQ PUSH2 0x42 JUMPI DUP1 PUSH4 0x44C7C117 EQ PUSH2 0x6C JUMPI DUP1 PUSH4 0x669B680C EQ PUSH2 0x94 JUMPI DUP1 PUSH4 0xFB4DA5B7 EQ PUSH2 0xD0 JUMPI JUMPDEST PUSH0 DUP1 REVERT JUMPDEST CALLVALUE DUP1 ISZERO PUSH2 0x4D JUMPI PUSH0 DUP1 REVERT JUMPDEST POP PUSH2 0x56 PUSH2 0xEC JUMP JUMPDEST PUSH1 0x40 MLOAD PUSH2 0x63 SWAP2 SWAP1 PUSH2 0x42F JUMP JUMPDEST PUSH1 0x40 MLOAD DUP1 SWAP2 SUB SWAP1 RETURN JUMPDEST CALLVALUE DUP1 ISZERO PUSH2 0x77 JUMPI PUSH0 DUP1 REVERT JUMPDEST POP PUSH2 0x92 PUSH1 0x4 DUP1 CALLDATASIZE SUB DUP2 ADD SWAP1 PUSH2 0x8D SWAP2 SWAP1 PUSH2 0x619 JUMP JUMPDEST PUSH2 0xF3 JUMP JUMPDEST STOP JUMPDEST CALLVALUE DUP1 ISZERO PUSH2 0x9F JUMPI PUSH0 DUP1 REVERT JUMPDEST POP PUSH2 0xBA PUSH1 0x4 DUP1 CALLDATASIZE SUB DUP2 ADD SWAP1 PUSH2 0xB5 SWAP2 SWAP1 PUSH2 0x685 JUMP JUMPDEST PUSH2 0x380 JUMP JUMPDEST PUSH1 0x40 MLOAD PUSH2 0xC7 SWAP2 SWAP1 PUSH2 0x42F JUMP JUMPDEST PUSH1 0x40 MLOAD DUP1 SWAP2 SUB SWAP1 RETURN JUMPDEST PUSH2 0xEA PUSH1 0x4 DUP1 CALLDATASIZE SUB DUP2 ADD SWAP1 PUSH2 0xE5 SWAP2 SWAP1 PUSH2 0x6B0 JUMP JUMPDEST PUSH2 0x3C6 JUMP JUMPDEST STOP JUMPDEST PUSH0 SELFBALANCE SWAP1 POP SWAP1 JUMP JUMPDEST PUSH0 DUP1 PUSH0 DUP6 PUSH20 0xFFFFFFFFFFFFFFFFFFFFFFFFFFFFFFFFFFFFFFFF AND PUSH20 0xFFFFFFFFFFFFFFFFFFFFFFFFFFFFFFFFFFFFFFFF AND DUP2 MSTORE PUSH1 0x20 ADD SWAP1 DUP2 MSTORE PUSH1 0x20 ADD PUSH0 KECCAK256 PUSH0 SWAP1 SLOAD SWAP1 PUSH2 0x100 EXP SWAP1 DIV PUSH1 0xFF AND SWAP1 POP PUSH1 0x1 ISZERO ISZERO DUP2 ISZERO ISZERO EQ PUSH2 0x33F JUMPI PUSH1 0x1 PUSH0 DUP1 DUP7 PUSH20 0xFFFFFFFFFFFFFFFFFFFFFFFFFFFFFFFFFFFFFFFF AND PUSH20 0xFFFFFFFFFFFFFFFFFFFFFFFFFFFFFFFFFFFFFFFF AND DUP2 MSTORE PUSH1 0x20 ADD SWAP1 DUP2 MSTORE PUSH1 0x20 ADD PUSH0 KECCAK256 PUSH0 PUSH2 0x100 EXP DUP2 SLOAD DUP2 PUSH1 0xFF MUL NOT AND SWAP1 DUP4 ISZERO ISZERO MUL OR SWAP1 SSTORE POP DUP3 PUSH1 0x1 PUSH0 DUP7 PUSH20 0xFFFFFFFFFFFFFFFFFFFFFFFFFFFFFFFFFFFFFFFF AND PUSH20 0xFFFFFFFFFFFFFFFFFFFFFFFFFFFFFFFFFFFFFFFF AND DUP2 MSTORE PUSH1 0x20 ADD SWAP1 DUP2 MSTORE PUSH1 0x20 ADD PUSH0 KECCAK256 DUP2 SWAP1 SSTORE POP PUSH1 0x40 MLOAD DUP1 PUSH1 0x40 ADD PUSH1 0x40 MSTORE DUP1 PUSH1 0x7 DUP2 MSTORE PUSH1 0x20 ADD PUSH32 0x4D6F6E74686C7900000000000000000000000000000000000000000000000000 DUP2 MSTORE POP DUP1 MLOAD SWAP1 PUSH1 0x20 ADD KECCAK256 DUP3 DUP1 MLOAD SWAP1 PUSH1 0x20 ADD KECCAK256 SUB PUSH2 0x23A JUMPI PUSH3 0x278D00 PUSH1 0x3 DUP2 SWAP1 SSTORE POP PUSH2 0x2EB JUMP JUMPDEST PUSH1 0x40 MLOAD DUP1 PUSH1 0x40 ADD PUSH1 0x40 MSTORE DUP1 PUSH1 0xA DUP2 MSTORE PUSH1 0x20 ADD PUSH32 0x68616C66596561726C7900000000000000000000000000000000000000000000 DUP2 MSTORE POP DUP1 MLOAD SWAP1 PUSH1 0x20 ADD KECCAK256 DUP3 DUP1 MLOAD SWAP1 PUSH1 0x20 ADD KECCAK256 SUB PUSH2 0x293 JUMPI PUSH3 0xED4E00 PUSH1 0x3 DUP2 SWAP1 SSTORE POP PUSH2 0x2EA JUMP JUMPDEST PUSH1 0x40 MLOAD DUP1 PUSH1 0x40 ADD PUSH1 0x40 MSTORE DUP1 PUSH1 0x6 DUP2 MSTORE PUSH1 0x20 ADD PUSH32 0x596561726C790000000000000000000000000000000000000000000000000000 DUP2 MSTORE POP DUP1 MLOAD SWAP1 PUSH1 0x20 ADD KECCAK256 DUP3 DUP1 MLOAD SWAP1 PUSH1 0x20 ADD KECCAK256 SUB PUSH2 0x2E9 JUMPI PUSH4 0x1E13380 PUSH1 0x3 DUP2 SWAP1 SSTORE POP JUMPDEST JUMPDEST JUMPDEST PUSH1 0x3 SLOAD TIMESTAMP PUSH2 0x2F9 SWAP2 SWAP1 PUSH2 0x737 JUMP JUMPDEST PUSH1 0x2 PUSH0 DUP7 PUSH20 0xFFFFFFFFFFFFFFFFFFFFFFFFFFFFFFFFFFFFFFFF AND PUSH20 0xFFFFFFFFFFFFFFFFFFFFFFFFFFFFFFFFFFFFFFFF AND DUP2 MSTORE PUSH1 0x20 ADD SWAP1 DUP2 MSTORE PUSH1 0x20 ADD PUSH0 KECCAK256 DUP2 SWAP1 SSTORE POP PUSH2 0x37A JUMP JUMPDEST PUSH1 0x40 MLOAD PUSH32 0x8C379A000000000000000000000000000000000000000000000000000000000 DUP2 MSTORE PUSH1 0x4 ADD PUSH2 0x371 SWAP1 PUSH2 0x7C4 JUMP JUMPDEST PUSH1 0x40 MLOAD DUP1 SWAP2 SUB SWAP1 REVERT JUMPDEST POP POP POP POP JUMP JUMPDEST PUSH0 PUSH1 0x2 PUSH0 DUP4 PUSH20 0xFFFFFFFFFFFFFFFFFFFFFFFFFFFFFFFFFFFFFFFF AND PUSH20 0xFFFFFFFFFFFFFFFFFFFFFFFFFFFFFFFFFFFFFFFF AND DUP2 MSTORE PUSH1 0x20 ADD SWAP1 DUP2 MSTORE PUSH1 0x20 ADD PUSH0 KECCAK256 SLOAD SWAP1 POP SWAP2 SWAP1 POP JUMP JUMPDEST PUSH0 CALLVALUE GT PUSH2 0x408 JUMPI PUSH1 0x40 MLOAD PUSH32 0x8C379A000000000000000000000000000000000000000000000000000000000 DUP2 MSTORE PUSH1 0x4 ADD PUSH2 0x3FF SWAP1 PUSH2 0x82C JUMP JUMPDEST PUSH1 0x40 MLOAD DUP1 SWAP2 SUB SWAP1 REVERT JUMPDEST PUSH2 0x413 DUP3 CALLVALUE DUP4 PUSH2 0xF3 JUMP JUMPDEST POP POP JUMP JUMPDEST PUSH0 DUP2 SWAP1 POP SWAP2 SWAP1 POP JUMP JUMPDEST PUSH2 0x429 DUP2 PUSH2 0x417 JUMP JUMPDEST DUP3 MSTORE POP POP JUMP JUMPDEST PUSH0 PUSH1 0x20 DUP3 ADD SWAP1 POP PUSH2 0x442 PUSH0 DUP4 ADD DUP5 PUSH2 0x420 JUMP JUMPDEST SWAP3 SWAP2 POP POP JUMP JUMPDEST PUSH0 PUSH1 0x40 MLOAD SWAP1 POP SWAP1 JUMP JUMPDEST PUSH0 DUP1 REVERT JUMPDEST PUSH0 DUP1 REVERT JUMPDEST PUSH0 PUSH20 0xFFFFFFFFFFFFFFFFFFFFFFFFFFFFFFFFFFFFFFFF DUP3 AND SWAP1 POP SWAP2 SWAP1 POP JUMP JUMPDEST PUSH0 PUSH2 0x482 DUP3 PUSH2 0x459 JUMP JUMPDEST SWAP1 POP SWAP2 SWAP1 POP JUMP JUMPDEST PUSH2 0x492 DUP2 PUSH2 0x478 JUMP JUMPDEST DUP2 EQ PUSH2 0x49C JUMPI PUSH0 DUP1 REVERT JUMPDEST POP JUMP JUMPDEST PUSH0 DUP2 CALLDATALOAD SWAP1 POP PUSH2 0x4AD DUP2 PUSH2 0x489 JUMP JUMPDEST SWAP3 SWAP2 POP POP JUMP JUMPDEST PUSH2 0x4BC DUP2 PUSH2 0x417 JUMP JUMPDEST DUP2 EQ PUSH2 0x4C6 JUMPI PUSH0 DUP1 REVERT JUMPDEST POP JUMP JUMPDEST PUSH0 DUP2 CALLDATALOAD SWAP1 POP PUSH2 0x4D7 DUP2 PUSH2 0x4B3 JUMP JUMPDEST SWAP3 SWAP2 POP POP JUMP JUMPDEST PUSH0 DUP1 REVERT JUMPDEST PUSH0 DUP1 REVERT JUMPDEST PUSH0 PUSH1 0x1F NOT PUSH1 0x1F DUP4 ADD AND SWAP1 POP SWAP2 SWAP1 POP JUMP JUMPDEST PUSH32 0x4E487B7100000000000000000000000000000000000000000000000000000000 PUSH0 MSTORE PUSH1 0x41 PUSH1 0x4 MSTORE PUSH1 0x24 PUSH0 REVERT JUMPDEST PUSH2 0x52B DUP3 PUSH2 0x4E5 JUMP JUMPDEST DUP2 ADD DUP2 DUP2 LT PUSH8 0xFFFFFFFFFFFFFFFF DUP3 GT OR ISZERO PUSH2 0x54A JUMPI PUSH2 0x549 PUSH2 0x4F5 JUMP JUMPDEST JUMPDEST DUP1 PUSH1 0x40 MSTORE POP POP POP JUMP JUMPDEST PUSH0 PUSH2 0x55C PUSH2 0x448 JUMP JUMPDEST SWAP1 POP PUSH2 0x568 DUP3 DUP3 PUSH2 0x522 JUMP JUMPDEST SWAP2 SWAP1 POP JUMP JUMPDEST PUSH0 PUSH8 0xFFFFFFFFFFFFFFFF DUP3 GT ISZERO PUSH2 0x587 JUMPI PUSH2 0x586 PUSH2 0x4F5 JUMP JUMPDEST JUMPDEST PUSH2 0x590 DUP3 PUSH2 0x4E5 JUMP JUMPDEST SWAP1 POP PUSH1 0x20 DUP2 ADD SWAP1 POP SWAP2 SWAP1 POP JUMP JUMPDEST DUP3 DUP2 DUP4 CALLDATACOPY PUSH0 DUP4 DUP4 ADD MSTORE POP POP POP JUMP JUMPDEST PUSH0 PUSH2 0x5BD PUSH2 0x5B8 DUP5 PUSH2 0x56D JUMP JUMPDEST PUSH2 0x553 JUMP JUMPDEST SWAP1 POP DUP3 DUP2 MSTORE PUSH1 0x20 DUP2 ADD DUP5 DUP5 DUP5 ADD GT ISZERO PUSH2 0x5D9 JUMPI PUSH2 0x5D8 PUSH2 0x4E1 JUMP JUMPDEST JUMPDEST PUSH2 0x5E4 DUP5 DUP3 DUP6 PUSH2 0x59D JUMP JUMPDEST POP SWAP4 SWAP3 POP POP POP JUMP JUMPDEST PUSH0 DUP3 PUSH1 0x1F DUP4 ADD SLT PUSH2 0x600 JUMPI PUSH2 0x5FF PUSH2 0x4DD JUMP JUMPDEST JUMPDEST DUP2 CALLDATALOAD PUSH2 0x610 DUP5 DUP3 PUSH1 0x20 DUP7 ADD PUSH2 0x5AB JUMP JUMPDEST SWAP2 POP POP SWAP3 SWAP2 POP POP JUMP JUMPDEST PUSH0 DUP1 PUSH0 PUSH1 0x60 DUP5 DUP7 SUB SLT ISZERO PUSH2 0x630 JUMPI PUSH2 0x62F PUSH2 0x451 JUMP JUMPDEST JUMPDEST PUSH0 PUSH2 0x63D DUP7 DUP3 DUP8 ADD PUSH2 0x49F JUMP JUMPDEST SWAP4 POP POP PUSH1 0x20 PUSH2 0x64E DUP7 DUP3 DUP8 ADD PUSH2 0x4C9 JUMP JUMPDEST SWAP3 POP POP PUSH1 0x40 DUP5 ADD CALLDATALOAD PUSH8 0xFFFFFFFFFFFFFFFF DUP2 GT ISZERO PUSH2 0x66F JUMPI PUSH2 0x66E PUSH2 0x455 JUMP JUMPDEST JUMPDEST PUSH2 0x67B DUP7 DUP3 DUP8 ADD PUSH2 0x5EC JUMP JUMPDEST SWAP2 POP POP SWAP3 POP SWAP3 POP SWAP3 JUMP JUMPDEST PUSH0 PUSH1 0x20 DUP3 DUP5 SUB SLT ISZERO PUSH2 0x69A JUMPI PUSH2 0x699 PUSH2 0x451 JUMP JUMPDEST JUMPDEST PUSH0 PUSH2 0x6A7 DUP5 DUP3 DUP6 ADD PUSH2 0x49F JUMP JUMPDEST SWAP2 POP POP SWAP3 SWAP2 POP POP JUMP JUMPDEST PUSH0 DUP1 PUSH1 0x40 DUP4 DUP6 SUB SLT ISZERO PUSH2 0x6C6 JUMPI PUSH2 0x6C5 PUSH2 0x451 JUMP JUMPDEST JUMPDEST PUSH0 PUSH2 0x6D3 DUP6 DUP3 DUP7 ADD PUSH2 0x49F JUMP JUMPDEST SWAP3 POP POP PUSH1 0x20 DUP4 ADD CALLDATALOAD PUSH8 0xFFFFFFFFFFFFFFFF DUP2 GT ISZERO PUSH2 0x6F4 JUMPI PUSH2 0x6F3 PUSH2 0x455 JUMP JUMPDEST JUMPDEST PUSH2 0x700 DUP6 DUP3 DUP7 ADD PUSH2 0x5EC JUMP JUMPDEST SWAP2 POP POP SWAP3 POP SWAP3 SWAP1 POP JUMP JUMPDEST PUSH32 0x4E487B7100000000000000000000000000000000000000000000000000000000 PUSH0 MSTORE PUSH1 0x11 PUSH1 0x4 MSTORE PUSH1 0x24 PUSH0 REVERT JUMPDEST PUSH0 PUSH2 0x741 DUP3 PUSH2 0x417 JUMP JUMPDEST SWAP2 POP PUSH2 0x74C DUP4 PUSH2 0x417 JUMP JUMPDEST SWAP3 POP DUP3 DUP3 ADD SWAP1 POP DUP1 DUP3 GT ISZERO PUSH2 0x764 JUMPI PUSH2 0x763 PUSH2 0x70A JUMP JUMPDEST JUMPDEST SWAP3 SWAP2 POP POP JUMP JUMPDEST PUSH0 DUP3 DUP3 MSTORE PUSH1 0x20 DUP3 ADD SWAP1 POP SWAP3 SWAP2 POP POP JUMP JUMPDEST PUSH32 0x7573657220697320616C72656164792070616964210000000000000000000000 PUSH0 DUP3 ADD MSTORE POP JUMP JUMPDEST PUSH0 PUSH2 0x7AE PUSH1 0x15 DUP4 PUSH2 0x76A JUMP JUMPDEST SWAP2 POP PUSH2 0x7B9 DUP3 PUSH2 0x77A JUMP JUMPDEST PUSH1 0x20 DUP3 ADD SWAP1 POP SWAP2 SWAP1 POP JUMP JUMPDEST PUSH0 PUSH1 0x20 DUP3 ADD SWAP1 POP DUP2 DUP2 SUB PUSH0 DUP4 ADD MSTORE PUSH2 0x7DB DUP2 PUSH2 0x7A2 JUMP JUMPDEST SWAP1 POP SWAP2 SWAP1 POP JUMP JUMPDEST PUSH32 0x596F75206D7573742073656E6420736F6D652045746865720000000000000000 PUSH0 DUP3 ADD MSTORE POP JUMP JUMPDEST PUSH0 PUSH2 0x816 PUSH1 0x18 DUP4 PUSH2 0x76A JUMP JUMPDEST SWAP2 POP PUSH2 0x821 DUP3 PUSH2 0x7E2 JUMP JUMPDEST PUSH1 0x20 DUP3 ADD SWAP1 POP SWAP2 SWAP1 POP JUMP JUMPDEST PUSH0 PUSH1 0x20 DUP3 ADD SWAP1 POP DUP2 DUP2 SUB PUSH0 DUP4 ADD MSTORE PUSH2 0x843 DUP2 PUSH2 0x80A JUMP JUMPDEST SWAP1 POP SWAP2 SWAP1 POP JUMP INVALID LOG2 PUSH5 0x6970667358 0x22 SLT KECCAK256 0x21 0xD7 0x24 CHAINID SHL 0xA9 0x5D 0xB3 LOG2 0xB9 SWAP5 CHAINID PUSH20 0xC6465252CA35624975DCE2E0C1E5FAFDAD2CAA64 PUSH20 0x6F6C634300081600330000000000000000000000 "
	},
	"abi": [
		{
			"inputs": [
				{
					"internalType": "address",
					"name": "_receipent",
					"type": "address"
				},
				{
					"internalType": "string",
					"name": "_planType",
					"type": "string"
				}
			],
			"name": "pay",
			"outputs": [],
			"stateMutability": "payable",
			"type": "function"
		},
		{
			"inputs": [
				{
					"internalType": "address",
					"name": "usersAddress",
					"type": "address"
				},
				{
					"internalType": "uint256",
					"name": "_amount",
					"type": "uint256"
				},
				{
					"internalType": "string",
					"name": "planType",
					"type": "string"
				}
			],
			"name": "paymentCheck",
			"outputs": [],
			"stateMutability": "nonpayable",
			"type": "function"
		},
		{
			"inputs": [],
			"stateMutability": "nonpayable",
			"type": "constructor"
		},
		{
			"inputs": [],
			"name": "getBalance",
			"outputs": [
				{
					"internalType": "uint256",
					"name": "",
					"type": "uint256"
				}
			],
			"stateMutability": "view",
			"type": "function"
		},
		{
			"inputs": [
				{
					"internalType": "address",
					"name": "_receipent",
					"type": "address"
				}
			],
			"name": "userCheckStatus",
			"outputs": [
				{
					"internalType": "uint256",
					"name": "",
					"type": "uint256"
				}
			],
			"stateMutability": "view",
			"type": "function"
		}
	],
	"storageLayout": {
		"storage": [
			{
				"astId": 5,
				"contract": "users.sol:cryptoDoreaUsers",
				"label": "_paymentStatus",
				"offset": 0,
				"slot": "0",
				"type": "t_mapping(t_address,t_bool)"
			},
			{
				"astId": 9,
				"contract": "users.sol:cryptoDoreaUsers",
				"label": "_paymentAmount",
				"offset": 0,
				"slot": "1",
				"type": "t_mapping(t_address,t_uint256)"
			},
			{
				"astId": 13,
				"contract": "users.sol:cryptoDoreaUsers",
				"label": "_paymentDate",
				"offset": 0,
				"slot": "2",
				"type": "t_mapping(t_address,t_uint256)"
			},
			{
				"astId": 15,
				"contract": "users.sol:cryptoDoreaUsers",
				"label": "_expDate",
				"offset": 0,
				"slot": "3",
				"type": "t_uint256"
			}
		],
		"types": {
			"t_address": {
				"encoding": "inplace",
				"label": "address",
				"numberOfBytes": "20"
			},
			"t_bool": {
				"encoding": "inplace",
				"label": "bool",
				"numberOfBytes": "1"
			},
			"t_mapping(t_address,t_bool)": {
				"encoding": "mapping",
				"key": "t_address",
				"label": "mapping(address => bool)",
				"numberOfBytes": "32",
				"value": "t_bool"
			},
			"t_mapping(t_address,t_uint256)": {
				"encoding": "mapping",
				"key": "t_address",
				"label": "mapping(address => uint256)",
				"numberOfBytes": "32",
				"value": "t_uint256"
			},
			"t_uint256": {
				"encoding": "inplace",
				"label": "uint256",
				"numberOfBytes": "32"
			}
		}
	},
	"web3Deploy": "var cryptodoreausersContract = new web3.eth.Contract([{\"inputs\":[],\"stateMutability\":\"nonpayable\",\"type\":\"constructor\"},{\"inputs\":[],\"name\":\"getBalance\",\"outputs\":[{\"internalType\":\"uint256\",\"name\":\"\",\"type\":\"uint256\"}],\"stateMutability\":\"view\",\"type\":\"function\"},{\"inputs\":[{\"internalType\":\"address\",\"name\":\"_receipent\",\"type\":\"address\"},{\"internalType\":\"string\",\"name\":\"_planType\",\"type\":\"string\"}],\"name\":\"pay\",\"outputs\":[],\"stateMutability\":\"payable\",\"type\":\"function\"},{\"inputs\":[{\"internalType\":\"address\",\"name\":\"usersAddress\",\"type\":\"address\"},{\"internalType\":\"uint256\",\"name\":\"_amount\",\"type\":\"uint256\"},{\"internalType\":\"string\",\"name\":\"planType\",\"type\":\"string\"}],\"name\":\"paymentCheck\",\"outputs\":[],\"stateMutability\":\"nonpayable\",\"type\":\"function\"},{\"inputs\":[{\"internalType\":\"address\",\"name\":\"_receipent\",\"type\":\"address\"}],\"name\":\"userCheckStatus\",\"outputs\":[{\"internalType\":\"uint256\",\"name\":\"\",\"type\":\"uint256\"}],\"stateMutability\":\"view\",\"type\":\"function\"}]);\nvar cryptodoreausers = cryptodoreausersContract.deploy({\n     data: '0x608060405234801561000f575f80fd5b506108808061001d5f395ff3fe60806040526004361061003e575f3560e01c806312065fe01461004257806344c7c1171461006c578063669b680c14610094578063fb4da5b7146100d0575b5f80fd5b34801561004d575f80fd5b506100566100ec565b604051610063919061042f565b60405180910390f35b348015610077575f80fd5b50610092600480360381019061008d9190610619565b6100f3565b005b34801561009f575f80fd5b506100ba60048036038101906100b59190610685565b610380565b6040516100c7919061042f565b60405180910390f35b6100ea60048036038101906100e591906106b0565b6103c6565b005b5f47905090565b5f805f8573ffffffffffffffffffffffffffffffffffffffff1673ffffffffffffffffffffffffffffffffffffffff1681526020019081526020015f205f9054906101000a900460ff169050600115158115151461033f5760015f808673ffffffffffffffffffffffffffffffffffffffff1673ffffffffffffffffffffffffffffffffffffffff1681526020019081526020015f205f6101000a81548160ff0219169083151502179055508260015f8673ffffffffffffffffffffffffffffffffffffffff1673ffffffffffffffffffffffffffffffffffffffff1681526020019081526020015f20819055506040518060400160405280600781526020017f4d6f6e74686c79000000000000000000000000000000000000000000000000008152508051906020012082805190602001200361023a5762278d006003819055506102eb565b6040518060400160405280600a81526020017f68616c66596561726c7900000000000000000000000000000000000000000000815250805190602001208280519060200120036102935762ed4e006003819055506102ea565b6040518060400160405280600681526020017f596561726c790000000000000000000000000000000000000000000000000000815250805190602001208280519060200120036102e9576301e133806003819055505b5b5b600354426102f99190610737565b60025f8673ffffffffffffffffffffffffffffffffffffffff1673ffffffffffffffffffffffffffffffffffffffff1681526020019081526020015f208190555061037a565b6040517f08c379a0000000000000000000000000000000000000000000000000000000008152600401610371906107c4565b60405180910390fd5b50505050565b5f60025f8373ffffffffffffffffffffffffffffffffffffffff1673ffffffffffffffffffffffffffffffffffffffff1681526020019081526020015f20549050919050565b5f3411610408576040517f08c379a00000000000000000000000000000000000000000000000000000000081526004016103ff9061082c565b60405180910390fd5b6104138234836100f3565b5050565b5f819050919050565b61042981610417565b82525050565b5f6020820190506104425f830184610420565b92915050565b5f604051905090565b5f80fd5b5f80fd5b5f73ffffffffffffffffffffffffffffffffffffffff82169050919050565b5f61048282610459565b9050919050565b61049281610478565b811461049c575f80fd5b50565b5f813590506104ad81610489565b92915050565b6104bc81610417565b81146104c6575f80fd5b50565b5f813590506104d7816104b3565b92915050565b5f80fd5b5f80fd5b5f601f19601f8301169050919050565b7f4e487b71000000000000000000000000000000000000000000000000000000005f52604160045260245ffd5b61052b826104e5565b810181811067ffffffffffffffff8211171561054a576105496104f5565b5b80604052505050565b5f61055c610448565b90506105688282610522565b919050565b5f67ffffffffffffffff821115610587576105866104f5565b5b610590826104e5565b9050602081019050919050565b828183375f83830152505050565b5f6105bd6105b88461056d565b610553565b9050828152602081018484840111156105d9576105d86104e1565b5b6105e484828561059d565b509392505050565b5f82601f830112610600576105ff6104dd565b5b81356106108482602086016105ab565b91505092915050565b5f805f606084860312156106305761062f610451565b5b5f61063d8682870161049f565b935050602061064e868287016104c9565b925050604084013567ffffffffffffffff81111561066f5761066e610455565b5b61067b868287016105ec565b9150509250925092565b5f6020828403121561069a57610699610451565b5b5f6106a78482850161049f565b91505092915050565b5f80604083850312156106c6576106c5610451565b5b5f6106d38582860161049f565b925050602083013567ffffffffffffffff8111156106f4576106f3610455565b5b610700858286016105ec565b9150509250929050565b7f4e487b71000000000000000000000000000000000000000000000000000000005f52601160045260245ffd5b5f61074182610417565b915061074c83610417565b92508282019050808211156107645761076361070a565b5b92915050565b5f82825260208201905092915050565b7f7573657220697320616c726561647920706169642100000000000000000000005f82015250565b5f6107ae60158361076a565b91506107b98261077a565b602082019050919050565b5f6020820190508181035f8301526107db816107a2565b9050919050565b7f596f75206d7573742073656e6420736f6d6520457468657200000000000000005f82015250565b5f61081660188361076a565b9150610821826107e2565b602082019050919050565b5f6020820190508181035f8301526108438161080a565b905091905056fea264697066735822122021d724461ba95db3a2b9944673c6465252ca35624975dce2e0c1e5fafdad2caa64736f6c63430008160033', \n     arguments: [\n     ]\n}).send({\n     from: web3.eth.accounts[0], \n     gas: '4700000'\n   }, function (e, contract){\n    console.log(e, contract);\n    if (typeof contract.address !== 'undefined') {\n         console.log('Contract mined! address: ' + contract.address + ' transactionHash: ' + contract.transactionHash);\n    }\n })",
	"functionHashes": {
		"12065fe0": "getBalance()",
		"fb4da5b7": "pay(address,string)",
		"44c7c117": "paymentCheck(address,uint256,string)",
		"669b680c": "userCheckStatus(address)"
	},
	"gasEstimates": {
		"Creation": {
			"codeDepositCost": "435200",
			"executionCost": "466",
			"totalCost": "435666"
		},
		"External": {
			"getBalance()": "312",
			"pay(address,string)": "infinite",
			"paymentCheck(address,uint256,string)": "infinite",
			"userCheckStatus(address)": "2851"
		}
	},
	"devdoc": {
		"kind": "dev",
		"methods": {},
		"version": 1
	},
	"userdoc": {
		"kind": "user",
		"methods": {},
		"version": 1
	},
	"Runtime Bytecode": {
		"immutableReferences": {},
		"linkReferences": {},
		"object": "60806040526004361061003e575f3560e01c806312065fe01461004257806344c7c1171461006c578063669b680c14610094578063fb4da5b7146100d0575b5f80fd5b34801561004d575f80fd5b506100566100ec565b604051610063919061042f565b60405180910390f35b348015610077575f80fd5b50610092600480360381019061008d9190610619565b6100f3565b005b34801561009f575f80fd5b506100ba60048036038101906100b59190610685565b610380565b6040516100c7919061042f565b60405180910390f35b6100ea60048036038101906100e591906106b0565b6103c6565b005b5f47905090565b5f805f8573ffffffffffffffffffffffffffffffffffffffff1673ffffffffffffffffffffffffffffffffffffffff1681526020019081526020015f205f9054906101000a900460ff169050600115158115151461033f5760015f808673ffffffffffffffffffffffffffffffffffffffff1673ffffffffffffffffffffffffffffffffffffffff1681526020019081526020015f205f6101000a81548160ff0219169083151502179055508260015f8673ffffffffffffffffffffffffffffffffffffffff1673ffffffffffffffffffffffffffffffffffffffff1681526020019081526020015f20819055506040518060400160405280600781526020017f4d6f6e74686c79000000000000000000000000000000000000000000000000008152508051906020012082805190602001200361023a5762278d006003819055506102eb565b6040518060400160405280600a81526020017f68616c66596561726c7900000000000000000000000000000000000000000000815250805190602001208280519060200120036102935762ed4e006003819055506102ea565b6040518060400160405280600681526020017f596561726c790000000000000000000000000000000000000000000000000000815250805190602001208280519060200120036102e9576301e133806003819055505b5b5b600354426102f99190610737565b60025f8673ffffffffffffffffffffffffffffffffffffffff1673ffffffffffffffffffffffffffffffffffffffff1681526020019081526020015f208190555061037a565b6040517f08c379a0000000000000000000000000000000000000000000000000000000008152600401610371906107c4565b60405180910390fd5b50505050565b5f60025f8373ffffffffffffffffffffffffffffffffffffffff1673ffffffffffffffffffffffffffffffffffffffff1681526020019081526020015f20549050919050565b5f3411610408576040517f08c379a00000000000000000000000000000000000000000000000000000000081526004016103ff9061082c565b60405180910390fd5b6104138234836100f3565b5050565b5f819050919050565b61042981610417565b82525050565b5f6020820190506104425f830184610420565b92915050565b5f604051905090565b5f80fd5b5f80fd5b5f73ffffffffffffffffffffffffffffffffffffffff82169050919050565b5f61048282610459565b9050919050565b61049281610478565b811461049c575f80fd5b50565b5f813590506104ad81610489565b92915050565b6104bc81610417565b81146104c6575f80fd5b50565b5f813590506104d7816104b3565b92915050565b5f80fd5b5f80fd5b5f601f19601f8301169050919050565b7f4e487b71000000000000000000000000000000000000000000000000000000005f52604160045260245ffd5b61052b826104e5565b810181811067ffffffffffffffff8211171561054a576105496104f5565b5b80604052505050565b5f61055c610448565b90506105688282610522565b919050565b5f67ffffffffffffffff821115610587576105866104f5565b5b610590826104e5565b9050602081019050919050565b828183375f83830152505050565b5f6105bd6105b88461056d565b610553565b9050828152602081018484840111156105d9576105d86104e1565b5b6105e484828561059d565b509392505050565b5f82601f830112610600576105ff6104dd565b5b81356106108482602086016105ab565b91505092915050565b5f805f606084860312156106305761062f610451565b5b5f61063d8682870161049f565b935050602061064e868287016104c9565b925050604084013567ffffffffffffffff81111561066f5761066e610455565b5b61067b868287016105ec565b9150509250925092565b5f6020828403121561069a57610699610451565b5b5f6106a78482850161049f565b91505092915050565b5f80604083850312156106c6576106c5610451565b5b5f6106d38582860161049f565b925050602083013567ffffffffffffffff8111156106f4576106f3610455565b5b610700858286016105ec565b9150509250929050565b7f4e487b71000000000000000000000000000000000000000000000000000000005f52601160045260245ffd5b5f61074182610417565b915061074c83610417565b92508282019050808211156107645761076361070a565b5b92915050565b5f82825260208201905092915050565b7f7573657220697320616c726561647920706169642100000000000000000000005f82015250565b5f6107ae60158361076a565b91506107b98261077a565b602082019050919050565b5f6020820190508181035f8301526107db816107a2565b9050919050565b7f596f75206d7573742073656e6420736f6d6520457468657200000000000000005f82015250565b5f61081660188361076a565b9150610821826107e2565b602082019050919050565b5f6020820190508181035f8301526108438161080a565b905091905056fea264697066735822122021d724461ba95db3a2b9944673c6465252ca35624975dce2e0c1e5fafdad2caa64736f6c63430008160033",
		"opcodes": "PUSH1 0x80 PUSH1 0x40 MSTORE PUSH1 0x4 CALLDATASIZE LT PUSH2 0x3E JUMPI PUSH0 CALLDATALOAD PUSH1 0xE0 SHR DUP1 PUSH4 0x12065FE0 EQ PUSH2 0x42 JUMPI DUP1 PUSH4 0x44C7C117 EQ PUSH2 0x6C JUMPI DUP1 PUSH4 0x669B680C EQ PUSH2 0x94 JUMPI DUP1 PUSH4 0xFB4DA5B7 EQ PUSH2 0xD0 JUMPI JUMPDEST PUSH0 DUP1 REVERT JUMPDEST CALLVALUE DUP1 ISZERO PUSH2 0x4D JUMPI PUSH0 DUP1 REVERT JUMPDEST POP PUSH2 0x56 PUSH2 0xEC JUMP JUMPDEST PUSH1 0x40 MLOAD PUSH2 0x63 SWAP2 SWAP1 PUSH2 0x42F JUMP JUMPDEST PUSH1 0x40 MLOAD DUP1 SWAP2 SUB SWAP1 RETURN JUMPDEST CALLVALUE DUP1 ISZERO PUSH2 0x77 JUMPI PUSH0 DUP1 REVERT JUMPDEST POP PUSH2 0x92 PUSH1 0x4 DUP1 CALLDATASIZE SUB DUP2 ADD SWAP1 PUSH2 0x8D SWAP2 SWAP1 PUSH2 0x619 JUMP JUMPDEST PUSH2 0xF3 JUMP JUMPDEST STOP JUMPDEST CALLVALUE DUP1 ISZERO PUSH2 0x9F JUMPI PUSH0 DUP1 REVERT JUMPDEST POP PUSH2 0xBA PUSH1 0x4 DUP1 CALLDATASIZE SUB DUP2 ADD SWAP1 PUSH2 0xB5 SWAP2 SWAP1 PUSH2 0x685 JUMP JUMPDEST PUSH2 0x380 JUMP JUMPDEST PUSH1 0x40 MLOAD PUSH2 0xC7 SWAP2 SWAP1 PUSH2 0x42F JUMP JUMPDEST PUSH1 0x40 MLOAD DUP1 SWAP2 SUB SWAP1 RETURN JUMPDEST PUSH2 0xEA PUSH1 0x4 DUP1 CALLDATASIZE SUB DUP2 ADD SWAP1 PUSH2 0xE5 SWAP2 SWAP1 PUSH2 0x6B0 JUMP JUMPDEST PUSH2 0x3C6 JUMP JUMPDEST STOP JUMPDEST PUSH0 SELFBALANCE SWAP1 POP SWAP1 JUMP JUMPDEST PUSH0 DUP1 PUSH0 DUP6 PUSH20 0xFFFFFFFFFFFFFFFFFFFFFFFFFFFFFFFFFFFFFFFF AND PUSH20 0xFFFFFFFFFFFFFFFFFFFFFFFFFFFFFFFFFFFFFFFF AND DUP2 MSTORE PUSH1 0x20 ADD SWAP1 DUP2 MSTORE PUSH1 0x20 ADD PUSH0 KECCAK256 PUSH0 SWAP1 SLOAD SWAP1 PUSH2 0x100 EXP SWAP1 DIV PUSH1 0xFF AND SWAP1 POP PUSH1 0x1 ISZERO ISZERO DUP2 ISZERO ISZERO EQ PUSH2 0x33F JUMPI PUSH1 0x1 PUSH0 DUP1 DUP7 PUSH20 0xFFFFFFFFFFFFFFFFFFFFFFFFFFFFFFFFFFFFFFFF AND PUSH20 0xFFFFFFFFFFFFFFFFFFFFFFFFFFFFFFFFFFFFFFFF AND DUP2 MSTORE PUSH1 0x20 ADD SWAP1 DUP2 MSTORE PUSH1 0x20 ADD PUSH0 KECCAK256 PUSH0 PUSH2 0x100 EXP DUP2 SLOAD DUP2 PUSH1 0xFF MUL NOT AND SWAP1 DUP4 ISZERO ISZERO MUL OR SWAP1 SSTORE POP DUP3 PUSH1 0x1 PUSH0 DUP7 PUSH20 0xFFFFFFFFFFFFFFFFFFFFFFFFFFFFFFFFFFFFFFFF AND PUSH20 0xFFFFFFFFFFFFFFFFFFFFFFFFFFFFFFFFFFFFFFFF AND DUP2 MSTORE PUSH1 0x20 ADD SWAP1 DUP2 MSTORE PUSH1 0x20 ADD PUSH0 KECCAK256 DUP2 SWAP1 SSTORE POP PUSH1 0x40 MLOAD DUP1 PUSH1 0x40 ADD PUSH1 0x40 MSTORE DUP1 PUSH1 0x7 DUP2 MSTORE PUSH1 0x20 ADD PUSH32 0x4D6F6E74686C7900000000000000000000000000000000000000000000000000 DUP2 MSTORE POP DUP1 MLOAD SWAP1 PUSH1 0x20 ADD KECCAK256 DUP3 DUP1 MLOAD SWAP1 PUSH1 0x20 ADD KECCAK256 SUB PUSH2 0x23A JUMPI PUSH3 0x278D00 PUSH1 0x3 DUP2 SWAP1 SSTORE POP PUSH2 0x2EB JUMP JUMPDEST PUSH1 0x40 MLOAD DUP1 PUSH1 0x40 ADD PUSH1 0x40 MSTORE DUP1 PUSH1 0xA DUP2 MSTORE PUSH1 0x20 ADD PUSH32 0x68616C66596561726C7900000000000000000000000000000000000000000000 DUP2 MSTORE POP DUP1 MLOAD SWAP1 PUSH1 0x20 ADD KECCAK256 DUP3 DUP1 MLOAD SWAP1 PUSH1 0x20 ADD KECCAK256 SUB PUSH2 0x293 JUMPI PUSH3 0xED4E00 PUSH1 0x3 DUP2 SWAP1 SSTORE POP PUSH2 0x2EA JUMP JUMPDEST PUSH1 0x40 MLOAD DUP1 PUSH1 0x40 ADD PUSH1 0x40 MSTORE DUP1 PUSH1 0x6 DUP2 MSTORE PUSH1 0x20 ADD PUSH32 0x596561726C790000000000000000000000000000000000000000000000000000 DUP2 MSTORE POP DUP1 MLOAD SWAP1 PUSH1 0x20 ADD KECCAK256 DUP3 DUP1 MLOAD SWAP1 PUSH1 0x20 ADD KECCAK256 SUB PUSH2 0x2E9 JUMPI PUSH4 0x1E13380 PUSH1 0x3 DUP2 SWAP1 SSTORE POP JUMPDEST JUMPDEST JUMPDEST PUSH1 0x3 SLOAD TIMESTAMP PUSH2 0x2F9 SWAP2 SWAP1 PUSH2 0x737 JUMP JUMPDEST PUSH1 0x2 PUSH0 DUP7 PUSH20 0xFFFFFFFFFFFFFFFFFFFFFFFFFFFFFFFFFFFFFFFF AND PUSH20 0xFFFFFFFFFFFFFFFFFFFFFFFFFFFFFFFFFFFFFFFF AND DUP2 MSTORE PUSH1 0x20 ADD SWAP1 DUP2 MSTORE PUSH1 0x20 ADD PUSH0 KECCAK256 DUP2 SWAP1 SSTORE POP PUSH2 0x37A JUMP JUMPDEST PUSH1 0x40 MLOAD PUSH32 0x8C379A000000000000000000000000000000000000000000000000000000000 DUP2 MSTORE PUSH1 0x4 ADD PUSH2 0x371 SWAP1 PUSH2 0x7C4 JUMP JUMPDEST PUSH1 0x40 MLOAD DUP1 SWAP2 SUB SWAP1 REVERT JUMPDEST POP POP POP POP JUMP JUMPDEST PUSH0 PUSH1 0x2 PUSH0 DUP4 PUSH20 0xFFFFFFFFFFFFFFFFFFFFFFFFFFFFFFFFFFFFFFFF AND PUSH20 0xFFFFFFFFFFFFFFFFFFFFFFFFFFFFFFFFFFFFFFFF AND DUP2 MSTORE PUSH1 0x20 ADD SWAP1 DUP2 MSTORE PUSH1 0x20 ADD PUSH0 KECCAK256 SLOAD SWAP1 POP SWAP2 SWAP1 POP JUMP JUMPDEST PUSH0 CALLVALUE GT PUSH2 0x408 JUMPI PUSH1 0x40 MLOAD PUSH32 0x8C379A000000000000000000000000000000000000000000000000000000000 DUP2 MSTORE PUSH1 0x4 ADD PUSH2 0x3FF SWAP1 PUSH2 0x82C JUMP JUMPDEST PUSH1 0x40 MLOAD DUP1 SWAP2 SUB SWAP1 REVERT JUMPDEST PUSH2 0x413 DUP3 CALLVALUE DUP4 PUSH2 0xF3 JUMP JUMPDEST POP POP JUMP JUMPDEST PUSH0 DUP2 SWAP1 POP SWAP2 SWAP1 POP JUMP JUMPDEST PUSH2 0x429 DUP2 PUSH2 0x417 JUMP JUMPDEST DUP3 MSTORE POP POP JUMP JUMPDEST PUSH0 PUSH1 0x20 DUP3 ADD SWAP1 POP PUSH2 0x442 PUSH0 DUP4 ADD DUP5 PUSH2 0x420 JUMP JUMPDEST SWAP3 SWAP2 POP POP JUMP JUMPDEST PUSH0 PUSH1 0x40 MLOAD SWAP1 POP SWAP1 JUMP JUMPDEST PUSH0 DUP1 REVERT JUMPDEST PUSH0 DUP1 REVERT JUMPDEST PUSH0 PUSH20 0xFFFFFFFFFFFFFFFFFFFFFFFFFFFFFFFFFFFFFFFF DUP3 AND SWAP1 POP SWAP2 SWAP1 POP JUMP JUMPDEST PUSH0 PUSH2 0x482 DUP3 PUSH2 0x459 JUMP JUMPDEST SWAP1 POP SWAP2 SWAP1 POP JUMP JUMPDEST PUSH2 0x492 DUP2 PUSH2 0x478 JUMP JUMPDEST DUP2 EQ PUSH2 0x49C JUMPI PUSH0 DUP1 REVERT JUMPDEST POP JUMP JUMPDEST PUSH0 DUP2 CALLDATALOAD SWAP1 POP PUSH2 0x4AD DUP2 PUSH2 0x489 JUMP JUMPDEST SWAP3 SWAP2 POP POP JUMP JUMPDEST PUSH2 0x4BC DUP2 PUSH2 0x417 JUMP JUMPDEST DUP2 EQ PUSH2 0x4C6 JUMPI PUSH0 DUP1 REVERT JUMPDEST POP JUMP JUMPDEST PUSH0 DUP2 CALLDATALOAD SWAP1 POP PUSH2 0x4D7 DUP2 PUSH2 0x4B3 JUMP JUMPDEST SWAP3 SWAP2 POP POP JUMP JUMPDEST PUSH0 DUP1 REVERT JUMPDEST PUSH0 DUP1 REVERT JUMPDEST PUSH0 PUSH1 0x1F NOT PUSH1 0x1F DUP4 ADD AND SWAP1 POP SWAP2 SWAP1 POP JUMP JUMPDEST PUSH32 0x4E487B7100000000000000000000000000000000000000000000000000000000 PUSH0 MSTORE PUSH1 0x41 PUSH1 0x4 MSTORE PUSH1 0x24 PUSH0 REVERT JUMPDEST PUSH2 0x52B DUP3 PUSH2 0x4E5 JUMP JUMPDEST DUP2 ADD DUP2 DUP2 LT PUSH8 0xFFFFFFFFFFFFFFFF DUP3 GT OR ISZERO PUSH2 0x54A JUMPI PUSH2 0x549 PUSH2 0x4F5 JUMP JUMPDEST JUMPDEST DUP1 PUSH1 0x40 MSTORE POP POP POP JUMP JUMPDEST PUSH0 PUSH2 0x55C PUSH2 0x448 JUMP JUMPDEST SWAP1 POP PUSH2 0x568 DUP3 DUP3 PUSH2 0x522 JUMP JUMPDEST SWAP2 SWAP1 POP JUMP JUMPDEST PUSH0 PUSH8 0xFFFFFFFFFFFFFFFF DUP3 GT ISZERO PUSH2 0x587 JUMPI PUSH2 0x586 PUSH2 0x4F5 JUMP JUMPDEST JUMPDEST PUSH2 0x590 DUP3 PUSH2 0x4E5 JUMP JUMPDEST SWAP1 POP PUSH1 0x20 DUP2 ADD SWAP1 POP SWAP2 SWAP1 POP JUMP JUMPDEST DUP3 DUP2 DUP4 CALLDATACOPY PUSH0 DUP4 DUP4 ADD MSTORE POP POP POP JUMP JUMPDEST PUSH0 PUSH2 0x5BD PUSH2 0x5B8 DUP5 PUSH2 0x56D JUMP JUMPDEST PUSH2 0x553 JUMP JUMPDEST SWAP1 POP DUP3 DUP2 MSTORE PUSH1 0x20 DUP2 ADD DUP5 DUP5 DUP5 ADD GT ISZERO PUSH2 0x5D9 JUMPI PUSH2 0x5D8 PUSH2 0x4E1 JUMP JUMPDEST JUMPDEST PUSH2 0x5E4 DUP5 DUP3 DUP6 PUSH2 0x59D JUMP JUMPDEST POP SWAP4 SWAP3 POP POP POP JUMP JUMPDEST PUSH0 DUP3 PUSH1 0x1F DUP4 ADD SLT PUSH2 0x600 JUMPI PUSH2 0x5FF PUSH2 0x4DD JUMP JUMPDEST JUMPDEST DUP2 CALLDATALOAD PUSH2 0x610 DUP5 DUP3 PUSH1 0x20 DUP7 ADD PUSH2 0x5AB JUMP JUMPDEST SWAP2 POP POP SWAP3 SWAP2 POP POP JUMP JUMPDEST PUSH0 DUP1 PUSH0 PUSH1 0x60 DUP5 DUP7 SUB SLT ISZERO PUSH2 0x630 JUMPI PUSH2 0x62F PUSH2 0x451 JUMP JUMPDEST JUMPDEST PUSH0 PUSH2 0x63D DUP7 DUP3 DUP8 ADD PUSH2 0x49F JUMP JUMPDEST SWAP4 POP POP PUSH1 0x20 PUSH2 0x64E DUP7 DUP3 DUP8 ADD PUSH2 0x4C9 JUMP JUMPDEST SWAP3 POP POP PUSH1 0x40 DUP5 ADD CALLDATALOAD PUSH8 0xFFFFFFFFFFFFFFFF DUP2 GT ISZERO PUSH2 0x66F JUMPI PUSH2 0x66E PUSH2 0x455 JUMP JUMPDEST JUMPDEST PUSH2 0x67B DUP7 DUP3 DUP8 ADD PUSH2 0x5EC JUMP JUMPDEST SWAP2 POP POP SWAP3 POP SWAP3 POP SWAP3 JUMP JUMPDEST PUSH0 PUSH1 0x20 DUP3 DUP5 SUB SLT ISZERO PUSH2 0x69A JUMPI PUSH2 0x699 PUSH2 0x451 JUMP JUMPDEST JUMPDEST PUSH0 PUSH2 0x6A7 DUP5 DUP3 DUP6 ADD PUSH2 0x49F JUMP JUMPDEST SWAP2 POP POP SWAP3 SWAP2 POP POP JUMP JUMPDEST PUSH0 DUP1 PUSH1 0x40 DUP4 DUP6 SUB SLT ISZERO PUSH2 0x6C6 JUMPI PUSH2 0x6C5 PUSH2 0x451 JUMP JUMPDEST JUMPDEST PUSH0 PUSH2 0x6D3 DUP6 DUP3 DUP7 ADD PUSH2 0x49F JUMP JUMPDEST SWAP3 POP POP PUSH1 0x20 DUP4 ADD CALLDATALOAD PUSH8 0xFFFFFFFFFFFFFFFF DUP2 GT ISZERO PUSH2 0x6F4 JUMPI PUSH2 0x6F3 PUSH2 0x455 JUMP JUMPDEST JUMPDEST PUSH2 0x700 DUP6 DUP3 DUP7 ADD PUSH2 0x5EC JUMP JUMPDEST SWAP2 POP POP SWAP3 POP SWAP3 SWAP1 POP JUMP JUMPDEST PUSH32 0x4E487B7100000000000000000000000000000000000000000000000000000000 PUSH0 MSTORE PUSH1 0x11 PUSH1 0x4 MSTORE PUSH1 0x24 PUSH0 REVERT JUMPDEST PUSH0 PUSH2 0x741 DUP3 PUSH2 0x417 JUMP JUMPDEST SWAP2 POP PUSH2 0x74C DUP4 PUSH2 0x417 JUMP JUMPDEST SWAP3 POP DUP3 DUP3 ADD SWAP1 POP DUP1 DUP3 GT ISZERO PUSH2 0x764 JUMPI PUSH2 0x763 PUSH2 0x70A JUMP JUMPDEST JUMPDEST SWAP3 SWAP2 POP POP JUMP JUMPDEST PUSH0 DUP3 DUP3 MSTORE PUSH1 0x20 DUP3 ADD SWAP1 POP SWAP3 SWAP2 POP POP JUMP JUMPDEST PUSH32 0x7573657220697320616C72656164792070616964210000000000000000000000 PUSH0 DUP3 ADD MSTORE POP JUMP JUMPDEST PUSH0 PUSH2 0x7AE PUSH1 0x15 DUP4 PUSH2 0x76A JUMP JUMPDEST SWAP2 POP PUSH2 0x7B9 DUP3 PUSH2 0x77A JUMP JUMPDEST PUSH1 0x20 DUP3 ADD SWAP1 POP SWAP2 SWAP1 POP JUMP JUMPDEST PUSH0 PUSH1 0x20 DUP3 ADD SWAP1 POP DUP2 DUP2 SUB PUSH0 DUP4 ADD MSTORE PUSH2 0x7DB DUP2 PUSH2 0x7A2 JUMP JUMPDEST SWAP1 POP SWAP2 SWAP1 POP JUMP JUMPDEST PUSH32 0x596F75206D7573742073656E6420736F6D652045746865720000000000000000 PUSH0 DUP3 ADD MSTORE POP JUMP JUMPDEST PUSH0 PUSH2 0x816 PUSH1 0x18 DUP4 PUSH2 0x76A JUMP JUMPDEST SWAP2 POP PUSH2 0x821 DUP3 PUSH2 0x7E2 JUMP JUMPDEST PUSH1 0x20 DUP3 ADD SWAP1 POP SWAP2 SWAP1 POP JUMP JUMPDEST PUSH0 PUSH1 0x20 DUP3 ADD SWAP1 POP DUP2 DUP2 SUB PUSH0 DUP4 ADD MSTORE PUSH2 0x843 DUP2 PUSH2 0x80A JUMP JUMPDEST SWAP1 POP SWAP2 SWAP1 POP JUMP INVALID LOG2 PUSH5 0x6970667358 0x22 SLT KECCAK256 0x21 0xD7 0x24 CHAINID SHL 0xA9 0x5D 0xB3 LOG2 0xB9 SWAP5 CHAINID PUSH20 0xC6465252CA35624975DCE2E0C1E5FAFDAD2CAA64 PUSH20 0x6F6C634300081600330000000000000000000000 "
	},
	"Assembly": ".code\n  PUSH 80\t\t\tcontract cryptoDoreaUsers {\\r\\...\n  PUSH 40\t\t\tcontract cryptoDoreaUsers {\\r\\...\n  MSTORE \t\t\tcontract cryptoDoreaUsers {\\r\\...\n  CALLVALUE \t\t\tconstructor()  {\\r\\n\\r\\n    }\n  DUP1 \t\t\tconstructor()  {\\r\\n\\r\\n    }\n  ISZERO \t\t\tconstructor()  {\\r\\n\\r\\n    }\n  PUSH [tag] 1\t\t\tconstructor()  {\\r\\n\\r\\n    }\n  JUMPI \t\t\tconstructor()  {\\r\\n\\r\\n    }\n  PUSH 0\t\t\tconstructor()  {\\r\\n\\r\\n    }\n  DUP1 \t\t\tconstructor()  {\\r\\n\\r\\n    }\n  REVERT \t\t\tconstructor()  {\\r\\n\\r\\n    }\ntag 1\t\t\tconstructor()  {\\r\\n\\r\\n    }\n  JUMPDEST \t\t\tconstructor()  {\\r\\n\\r\\n    }\n  POP \t\t\tconstructor()  {\\r\\n\\r\\n    }\n  PUSH #[$] 0000000000000000000000000000000000000000000000000000000000000000\t\t\tcontract cryptoDoreaUsers {\\r\\...\n  DUP1 \t\t\tcontract cryptoDoreaUsers {\\r\\...\n  PUSH [$] 0000000000000000000000000000000000000000000000000000000000000000\t\t\tcontract cryptoDoreaUsers {\\r\\...\n  PUSH 0\t\t\tcontract cryptoDoreaUsers {\\r\\...\n  CODECOPY \t\t\tcontract cryptoDoreaUsers {\\r\\...\n  PUSH 0\t\t\tcontract cryptoDoreaUsers {\\r\\...\n  RETURN \t\t\tcontract cryptoDoreaUsers {\\r\\...\n.data\n  0:\n    .code\n      PUSH 80\t\t\tcontract cryptoDoreaUsers {\\r\\...\n      PUSH 40\t\t\tcontract cryptoDoreaUsers {\\r\\...\n      MSTORE \t\t\tcontract cryptoDoreaUsers {\\r\\...\n      PUSH 4\t\t\tcontract cryptoDoreaUsers {\\r\\...\n      CALLDATASIZE \t\t\tcontract cryptoDoreaUsers {\\r\\...\n      LT \t\t\tcontract cryptoDoreaUsers {\\r\\...\n      PUSH [tag] 1\t\t\tcontract cryptoDoreaUsers {\\r\\...\n      JUMPI \t\t\tcontract cryptoDoreaUsers {\\r\\...\n      PUSH 0\t\t\tcontract cryptoDoreaUsers {\\r\\...\n      CALLDATALOAD \t\t\tcontract cryptoDoreaUsers {\\r\\...\n      PUSH E0\t\t\tcontract cryptoDoreaUsers {\\r\\...\n      SHR \t\t\tcontract cryptoDoreaUsers {\\r\\...\n      DUP1 \t\t\tcontract cryptoDoreaUsers {\\r\\...\n      PUSH 12065FE0\t\t\tcontract cryptoDoreaUsers {\\r\\...\n      EQ \t\t\tcontract cryptoDoreaUsers {\\r\\...\n      PUSH [tag] 2\t\t\tcontract cryptoDoreaUsers {\\r\\...\n      JUMPI \t\t\tcontract cryptoDoreaUsers {\\r\\...\n      DUP1 \t\t\tcontract cryptoDoreaUsers {\\r\\...\n      PUSH 44C7C117\t\t\tcontract cryptoDoreaUsers {\\r\\...\n      EQ \t\t\tcontract cryptoDoreaUsers {\\r\\...\n      PUSH [tag] 3\t\t\tcontract cryptoDoreaUsers {\\r\\...\n      JUMPI \t\t\tcontract cryptoDoreaUsers {\\r\\...\n      DUP1 \t\t\tcontract cryptoDoreaUsers {\\r\\...\n      PUSH 669B680C\t\t\tcontract cryptoDoreaUsers {\\r\\...\n      EQ \t\t\tcontract cryptoDoreaUsers {\\r\\...\n      PUSH [tag] 4\t\t\tcontract cryptoDoreaUsers {\\r\\...\n      JUMPI \t\t\tcontract cryptoDoreaUsers {\\r\\...\n      DUP1 \t\t\tcontract cryptoDoreaUsers {\\r\\...\n      PUSH FB4DA5B7\t\t\tcontract cryptoDoreaUsers {\\r\\...\n      EQ \t\t\tcontract cryptoDoreaUsers {\\r\\...\n      PUSH [tag] 5\t\t\tcontract cryptoDoreaUsers {\\r\\...\n      JUMPI \t\t\tcontract cryptoDoreaUsers {\\r\\...\n    tag 1\t\t\tcontract cryptoDoreaUsers {\\r\\...\n      JUMPDEST \t\t\tcontract cryptoDoreaUsers {\\r\\...\n      PUSH 0\t\t\tcontract cryptoDoreaUsers {\\r\\...\n      DUP1 \t\t\tcontract cryptoDoreaUsers {\\r\\...\n      REVERT \t\t\tcontract cryptoDoreaUsers {\\r\\...\n    tag 2\t\t\tfunction getBalance() public v...\n      JUMPDEST \t\t\tfunction getBalance() public v...\n      CALLVALUE \t\t\tfunction getBalance() public v...\n      DUP1 \t\t\tfunction getBalance() public v...\n      ISZERO \t\t\tfunction getBalance() public v...\n      PUSH [tag] 6\t\t\tfunction getBalance() public v...\n      JUMPI \t\t\tfunction getBalance() public v...\n      PUSH 0\t\t\tfunction getBalance() public v...\n      DUP1 \t\t\tfunction getBalance() public v...\n      REVERT \t\t\tfunction getBalance() public v...\n    tag 6\t\t\tfunction getBalance() public v...\n      JUMPDEST \t\t\tfunction getBalance() public v...\n      POP \t\t\tfunction getBalance() public v...\n      PUSH [tag] 7\t\t\tfunction getBalance() public v...\n      PUSH [tag] 8\t\t\tfunction getBalance() public v...\n      JUMP \t\t\tfunction getBalance() public v...\n    tag 7\t\t\tfunction getBalance() public v...\n      JUMPDEST \t\t\tfunction getBalance() public v...\n      PUSH 40\t\t\tfunction getBalance() public v...\n      MLOAD \t\t\tfunction getBalance() public v...\n      PUSH [tag] 9\t\t\tfunction getBalance() public v...\n      SWAP2 \t\t\tfunction getBalance() public v...\n      SWAP1 \t\t\tfunction getBalance() public v...\n      PUSH [tag] 10\t\t\tfunction getBalance() public v...\n      JUMP \t\t\tfunction getBalance() public v...\n    tag 9\t\t\tfunction getBalance() public v...\n      JUMPDEST \t\t\tfunction getBalance() public v...\n      PUSH 40\t\t\tfunction getBalance() public v...\n      MLOAD \t\t\tfunction getBalance() public v...\n      DUP1 \t\t\tfunction getBalance() public v...\n      SWAP2 \t\t\tfunction getBalance() public v...\n      SUB \t\t\tfunction getBalance() public v...\n      SWAP1 \t\t\tfunction getBalance() public v...\n      RETURN \t\t\tfunction getBalance() public v...\n    tag 3\t\t\tfunction paymentCheck(address ...\n      JUMPDEST \t\t\tfunction paymentCheck(address ...\n      CALLVALUE \t\t\tfunction paymentCheck(address ...\n      DUP1 \t\t\tfunction paymentCheck(address ...\n      ISZERO \t\t\tfunction paymentCheck(address ...\n      PUSH [tag] 11\t\t\tfunction paymentCheck(address ...\n      JUMPI \t\t\tfunction paymentCheck(address ...\n      PUSH 0\t\t\tfunction paymentCheck(address ...\n      DUP1 \t\t\tfunction paymentCheck(address ...\n      REVERT \t\t\tfunction paymentCheck(address ...\n    tag 11\t\t\tfunction paymentCheck(address ...\n      JUMPDEST \t\t\tfunction paymentCheck(address ...\n      POP \t\t\tfunction paymentCheck(address ...\n      PUSH [tag] 12\t\t\tfunction paymentCheck(address ...\n      PUSH 4\t\t\tfunction paymentCheck(address ...\n      DUP1 \t\t\tfunction paymentCheck(address ...\n      CALLDATASIZE \t\t\tfunction paymentCheck(address ...\n      SUB \t\t\tfunction paymentCheck(address ...\n      DUP2 \t\t\tfunction paymentCheck(address ...\n      ADD \t\t\tfunction paymentCheck(address ...\n      SWAP1 \t\t\tfunction paymentCheck(address ...\n      PUSH [tag] 13\t\t\tfunction paymentCheck(address ...\n      SWAP2 \t\t\tfunction paymentCheck(address ...\n      SWAP1 \t\t\tfunction paymentCheck(address ...\n      PUSH [tag] 14\t\t\tfunction paymentCheck(address ...\n      JUMP \t\t\tfunction paymentCheck(address ...\n    tag 13\t\t\tfunction paymentCheck(address ...\n      JUMPDEST \t\t\tfunction paymentCheck(address ...\n      PUSH [tag] 15\t\t\tfunction paymentCheck(address ...\n      JUMP \t\t\tfunction paymentCheck(address ...\n    tag 12\t\t\tfunction paymentCheck(address ...\n      JUMPDEST \t\t\tfunction paymentCheck(address ...\n      STOP \t\t\tfunction paymentCheck(address ...\n    tag 4\t\t\tfunction userCheckStatus(addre...\n      JUMPDEST \t\t\tfunction userCheckStatus(addre...\n      CALLVALUE \t\t\tfunction userCheckStatus(addre...\n      DUP1 \t\t\tfunction userCheckStatus(addre...\n      ISZERO \t\t\tfunction userCheckStatus(addre...\n      PUSH [tag] 16\t\t\tfunction userCheckStatus(addre...\n      JUMPI \t\t\tfunction userCheckStatus(addre...\n      PUSH 0\t\t\tfunction userCheckStatus(addre...\n      DUP1 \t\t\tfunction userCheckStatus(addre...\n      REVERT \t\t\tfunction userCheckStatus(addre...\n    tag 16\t\t\tfunction userCheckStatus(addre...\n      JUMPDEST \t\t\tfunction userCheckStatus(addre...\n      POP \t\t\tfunction userCheckStatus(addre...\n      PUSH [tag] 17\t\t\tfunction userCheckStatus(addre...\n      PUSH 4\t\t\tfunction userCheckStatus(addre...\n      DUP1 \t\t\tfunction userCheckStatus(addre...\n      CALLDATASIZE \t\t\tfunction userCheckStatus(addre...\n      SUB \t\t\tfunction userCheckStatus(addre...\n      DUP2 \t\t\tfunction userCheckStatus(addre...\n      ADD \t\t\tfunction userCheckStatus(addre...\n      SWAP1 \t\t\tfunction userCheckStatus(addre...\n      PUSH [tag] 18\t\t\tfunction userCheckStatus(addre...\n      SWAP2 \t\t\tfunction userCheckStatus(addre...\n      SWAP1 \t\t\tfunction userCheckStatus(addre...\n      PUSH [tag] 19\t\t\tfunction userCheckStatus(addre...\n      JUMP \t\t\tfunction userCheckStatus(addre...\n    tag 18\t\t\tfunction userCheckStatus(addre...\n      JUMPDEST \t\t\tfunction userCheckStatus(addre...\n      PUSH [tag] 20\t\t\tfunction userCheckStatus(addre...\n      JUMP \t\t\tfunction userCheckStatus(addre...\n    tag 17\t\t\tfunction userCheckStatus(addre...\n      JUMPDEST \t\t\tfunction userCheckStatus(addre...\n      PUSH 40\t\t\tfunction userCheckStatus(addre...\n      MLOAD \t\t\tfunction userCheckStatus(addre...\n      PUSH [tag] 21\t\t\tfunction userCheckStatus(addre...\n      SWAP2 \t\t\tfunction userCheckStatus(addre...\n      SWAP1 \t\t\tfunction userCheckStatus(addre...\n      PUSH [tag] 10\t\t\tfunction userCheckStatus(addre...\n      JUMP \t\t\tfunction userCheckStatus(addre...\n    tag 21\t\t\tfunction userCheckStatus(addre...\n      JUMPDEST \t\t\tfunction userCheckStatus(addre...\n      PUSH 40\t\t\tfunction userCheckStatus(addre...\n      MLOAD \t\t\tfunction userCheckStatus(addre...\n      DUP1 \t\t\tfunction userCheckStatus(addre...\n      SWAP2 \t\t\tfunction userCheckStatus(addre...\n      SUB \t\t\tfunction userCheckStatus(addre...\n      SWAP1 \t\t\tfunction userCheckStatus(addre...\n      RETURN \t\t\tfunction userCheckStatus(addre...\n    tag 5\t\t\tfunction pay(address _receipen...\n      JUMPDEST \t\t\tfunction pay(address _receipen...\n      PUSH [tag] 22\t\t\tfunction pay(address _receipen...\n      PUSH 4\t\t\tfunction pay(address _receipen...\n      DUP1 \t\t\tfunction pay(address _receipen...\n      CALLDATASIZE \t\t\tfunction pay(address _receipen...\n      SUB \t\t\tfunction pay(address _receipen...\n      DUP2 \t\t\tfunction pay(address _receipen...\n      ADD \t\t\tfunction pay(address _receipen...\n      SWAP1 \t\t\tfunction pay(address _receipen...\n      PUSH [tag] 23\t\t\tfunction pay(address _receipen...\n      SWAP2 \t\t\tfunction pay(address _receipen...\n      SWAP1 \t\t\tfunction pay(address _receipen...\n      PUSH [tag] 24\t\t\tfunction pay(address _receipen...\n      JUMP \t\t\tfunction pay(address _receipen...\n    tag 23\t\t\tfunction pay(address _receipen...\n      JUMPDEST \t\t\tfunction pay(address _receipen...\n      PUSH [tag] 25\t\t\tfunction pay(address _receipen...\n      JUMP \t\t\tfunction pay(address _receipen...\n    tag 22\t\t\tfunction pay(address _receipen...\n      JUMPDEST \t\t\tfunction pay(address _receipen...\n      STOP \t\t\tfunction pay(address _receipen...\n    tag 8\t\t\tfunction getBalance() public v...\n      JUMPDEST \t\t\tfunction getBalance() public v...\n      PUSH 0\t\t\tuint256\n      SELFBALANCE \t\t\taddress(this).balance\n      SWAP1 \t\t\treturn address(this).balance\n      POP \t\t\treturn address(this).balance\n      SWAP1 \t\t\tfunction getBalance() public v...\n      JUMP \t\t\tfunction getBalance() public v...\n    tag 15\t\t\tfunction paymentCheck(address ...\n      JUMPDEST \t\t\tfunction paymentCheck(address ...\n      PUSH 0\t\t\tbool payCheck\n      DUP1 \t\t\t_paymentStatus\n      PUSH 0\t\t\t_paymentStatus[usersAddress]\n      DUP6 \t\t\tusersAddress\n      PUSH FFFFFFFFFFFFFFFFFFFFFFFFFFFFFFFFFFFFFFFF\t\t\t_paymentStatus[usersAddress]\n      AND \t\t\t_paymentStatus[usersAddress]\n      PUSH FFFFFFFFFFFFFFFFFFFFFFFFFFFFFFFFFFFFFFFF\t\t\t_paymentStatus[usersAddress]\n      AND \t\t\t_paymentStatus[usersAddress]\n      DUP2 \t\t\t_paymentStatus[usersAddress]\n      MSTORE \t\t\t_paymentStatus[usersAddress]\n      PUSH 20\t\t\t_paymentStatus[usersAddress]\n      ADD \t\t\t_paymentStatus[usersAddress]\n      SWAP1 \t\t\t_paymentStatus[usersAddress]\n      DUP2 \t\t\t_paymentStatus[usersAddress]\n      MSTORE \t\t\t_paymentStatus[usersAddress]\n      PUSH 20\t\t\t_paymentStatus[usersAddress]\n      ADD \t\t\t_paymentStatus[usersAddress]\n      PUSH 0\t\t\t_paymentStatus[usersAddress]\n      KECCAK256 \t\t\t_paymentStatus[usersAddress]\n      PUSH 0\t\t\t_paymentStatus[usersAddress]\n      SWAP1 \t\t\t_paymentStatus[usersAddress]\n      SLOAD \t\t\t_paymentStatus[usersAddress]\n      SWAP1 \t\t\t_paymentStatus[usersAddress]\n      PUSH 100\t\t\t_paymentStatus[usersAddress]\n      EXP \t\t\t_paymentStatus[usersAddress]\n      SWAP1 \t\t\t_paymentStatus[usersAddress]\n      DIV \t\t\t_paymentStatus[usersAddress]\n      PUSH FF\t\t\t_paymentStatus[usersAddress]\n      AND \t\t\t_paymentStatus[usersAddress]\n      SWAP1 \t\t\tbool payCheck = _paymentStatus...\n      POP \t\t\tbool payCheck = _paymentStatus...\n      PUSH 1\t\t\ttrue\n      ISZERO \t\t\tpayCheck != true\n      ISZERO \t\t\tpayCheck != true\n      DUP2 \t\t\tpayCheck\n      ISZERO \t\t\tpayCheck != true\n      ISZERO \t\t\tpayCheck != true\n      EQ \t\t\tpayCheck != true\n      PUSH [tag] 28\t\t\tif(payCheck != true){\\r\\n\\r\\n ...\n      JUMPI \t\t\tif(payCheck != true){\\r\\n\\r\\n ...\n      PUSH 1\t\t\ttrue\n      PUSH 0\t\t\t_paymentStatus\n      DUP1 \t\t\t_paymentStatus[usersAddress]\n      DUP7 \t\t\tusersAddress\n      PUSH FFFFFFFFFFFFFFFFFFFFFFFFFFFFFFFFFFFFFFFF\t\t\t_paymentStatus[usersAddress]\n      AND \t\t\t_paymentStatus[usersAddress]\n      PUSH FFFFFFFFFFFFFFFFFFFFFFFFFFFFFFFFFFFFFFFF\t\t\t_paymentStatus[usersAddress]\n      AND \t\t\t_paymentStatus[usersAddress]\n      DUP2 \t\t\t_paymentStatus[usersAddress]\n      MSTORE \t\t\t_paymentStatus[usersAddress]\n      PUSH 20\t\t\t_paymentStatus[usersAddress]\n      ADD \t\t\t_paymentStatus[usersAddress]\n      SWAP1 \t\t\t_paymentStatus[usersAddress]\n      DUP2 \t\t\t_paymentStatus[usersAddress]\n      MSTORE \t\t\t_paymentStatus[usersAddress]\n      PUSH 20\t\t\t_paymentStatus[usersAddress]\n      ADD \t\t\t_paymentStatus[usersAddress]\n      PUSH 0\t\t\t_paymentStatus[usersAddress]\n      KECCAK256 \t\t\t_paymentStatus[usersAddress]\n      PUSH 0\t\t\t_paymentStatus[usersAddress]\n      PUSH 100\t\t\t_paymentStatus[usersAddress] =...\n      EXP \t\t\t_paymentStatus[usersAddress] =...\n      DUP2 \t\t\t_paymentStatus[usersAddress] =...\n      SLOAD \t\t\t_paymentStatus[usersAddress] =...\n      DUP2 \t\t\t_paymentStatus[usersAddress] =...\n      PUSH FF\t\t\t_paymentStatus[usersAddress] =...\n      MUL \t\t\t_paymentStatus[usersAddress] =...\n      NOT \t\t\t_paymentStatus[usersAddress] =...\n      AND \t\t\t_paymentStatus[usersAddress] =...\n      SWAP1 \t\t\t_paymentStatus[usersAddress] =...\n      DUP4 \t\t\t_paymentStatus[usersAddress] =...\n      ISZERO \t\t\t_paymentStatus[usersAddress] =...\n      ISZERO \t\t\t_paymentStatus[usersAddress] =...\n      MUL \t\t\t_paymentStatus[usersAddress] =...\n      OR \t\t\t_paymentStatus[usersAddress] =...\n      SWAP1 \t\t\t_paymentStatus[usersAddress] =...\n      SSTORE \t\t\t_paymentStatus[usersAddress] =...\n      POP \t\t\t_paymentStatus[usersAddress] =...\n      DUP3 \t\t\t_amount\n      PUSH 1\t\t\t_paymentAmount\n      PUSH 0\t\t\t_paymentAmount[usersAddress]\n      DUP7 \t\t\tusersAddress\n      PUSH FFFFFFFFFFFFFFFFFFFFFFFFFFFFFFFFFFFFFFFF\t\t\t_paymentAmount[usersAddress]\n      AND \t\t\t_paymentAmount[usersAddress]\n      PUSH FFFFFFFFFFFFFFFFFFFFFFFFFFFFFFFFFFFFFFFF\t\t\t_paymentAmount[usersAddress]\n      AND \t\t\t_paymentAmount[usersAddress]\n      DUP2 \t\t\t_paymentAmount[usersAddress]\n      MSTORE \t\t\t_paymentAmount[usersAddress]\n      PUSH 20\t\t\t_paymentAmount[usersAddress]\n      ADD \t\t\t_paymentAmount[usersAddress]\n      SWAP1 \t\t\t_paymentAmount[usersAddress]\n      DUP2 \t\t\t_paymentAmount[usersAddress]\n      MSTORE \t\t\t_paymentAmount[usersAddress]\n      PUSH 20\t\t\t_paymentAmount[usersAddress]\n      ADD \t\t\t_paymentAmount[usersAddress]\n      PUSH 0\t\t\t_paymentAmount[usersAddress]\n      KECCAK256 \t\t\t_paymentAmount[usersAddress]\n      DUP2 \t\t\t_paymentAmount[usersAddress] =...\n      SWAP1 \t\t\t_paymentAmount[usersAddress] =...\n      SSTORE \t\t\t_paymentAmount[usersAddress] =...\n      POP \t\t\t_paymentAmount[usersAddress] =...\n      PUSH 40\t\t\tbytes(\"Monthly\")\n      MLOAD \t\t\tbytes(\"Monthly\")\n      DUP1 \t\t\tbytes(\"Monthly\")\n      PUSH 40\t\t\tbytes(\"Monthly\")\n      ADD \t\t\tbytes(\"Monthly\")\n      PUSH 40\t\t\tbytes(\"Monthly\")\n      MSTORE \t\t\tbytes(\"Monthly\")\n      DUP1 \t\t\tbytes(\"Monthly\")\n      PUSH 7\t\t\tbytes(\"Monthly\")\n      DUP2 \t\t\tbytes(\"Monthly\")\n      MSTORE \t\t\tbytes(\"Monthly\")\n      PUSH 20\t\t\tbytes(\"Monthly\")\n      ADD \t\t\tbytes(\"Monthly\")\n      PUSH 4D6F6E74686C7900000000000000000000000000000000000000000000000000\t\t\tbytes(\"Monthly\")\n      DUP2 \t\t\tbytes(\"Monthly\")\n      MSTORE \t\t\tbytes(\"Monthly\")\n      POP \t\t\tbytes(\"Monthly\")\n      DUP1 \t\t\tkeccak256(bytes(\"Monthly\"))\n      MLOAD \t\t\tkeccak256(bytes(\"Monthly\"))\n      SWAP1 \t\t\tkeccak256(bytes(\"Monthly\"))\n      PUSH 20\t\t\tkeccak256(bytes(\"Monthly\"))\n      ADD \t\t\tkeccak256(bytes(\"Monthly\"))\n      KECCAK256 \t\t\tkeccak256(bytes(\"Monthly\"))\n      DUP3 \t\t\tplanType\n      DUP1 \t\t\tkeccak256(bytes(planType))\n      MLOAD \t\t\tkeccak256(bytes(planType))\n      SWAP1 \t\t\tkeccak256(bytes(planType))\n      PUSH 20\t\t\tkeccak256(bytes(planType))\n      ADD \t\t\tkeccak256(bytes(planType))\n      KECCAK256 \t\t\tkeccak256(bytes(planType))\n      SUB \t\t\tkeccak256(bytes(planType)) == ...\n      PUSH [tag] 29\t\t\tif(keccak256(bytes(planType)) ...\n      JUMPI \t\t\tif(keccak256(bytes(planType)) ...\n      PUSH 278D00\t\t\t30 * 86400\n      PUSH 3\t\t\t_expDate\n      DUP2 \t\t\t_expDate = (30 * 86400)\n      SWAP1 \t\t\t_expDate = (30 * 86400)\n      SSTORE \t\t\t_expDate = (30 * 86400)\n      POP \t\t\t_expDate = (30 * 86400)\n      PUSH [tag] 30\t\t\tif(keccak256(bytes(planType)) ...\n      JUMP \t\t\tif(keccak256(bytes(planType)) ...\n    tag 29\t\t\tif(keccak256(bytes(planType)) ...\n      JUMPDEST \t\t\tif(keccak256(bytes(planType)) ...\n      PUSH 40\t\t\tbytes(\"halfYearly\")\n      MLOAD \t\t\tbytes(\"halfYearly\")\n      DUP1 \t\t\tbytes(\"halfYearly\")\n      PUSH 40\t\t\tbytes(\"halfYearly\")\n      ADD \t\t\tbytes(\"halfYearly\")\n      PUSH 40\t\t\tbytes(\"halfYearly\")\n      MSTORE \t\t\tbytes(\"halfYearly\")\n      DUP1 \t\t\tbytes(\"halfYearly\")\n      PUSH A\t\t\tbytes(\"halfYearly\")\n      DUP2 \t\t\tbytes(\"halfYearly\")\n      MSTORE \t\t\tbytes(\"halfYearly\")\n      PUSH 20\t\t\tbytes(\"halfYearly\")\n      ADD \t\t\tbytes(\"halfYearly\")\n      PUSH 68616C66596561726C7900000000000000000000000000000000000000000000\t\t\tbytes(\"halfYearly\")\n      DUP2 \t\t\tbytes(\"halfYearly\")\n      MSTORE \t\t\tbytes(\"halfYearly\")\n      POP \t\t\tbytes(\"halfYearly\")\n      DUP1 \t\t\tkeccak256(bytes(\"halfYearly\"))\n      MLOAD \t\t\tkeccak256(bytes(\"halfYearly\"))\n      SWAP1 \t\t\tkeccak256(bytes(\"halfYearly\"))\n      PUSH 20\t\t\tkeccak256(bytes(\"halfYearly\"))\n      ADD \t\t\tkeccak256(bytes(\"halfYearly\"))\n      KECCAK256 \t\t\tkeccak256(bytes(\"halfYearly\"))\n      DUP3 \t\t\tplanType\n      DUP1 \t\t\tkeccak256(bytes(planType))\n      MLOAD \t\t\tkeccak256(bytes(planType))\n      SWAP1 \t\t\tkeccak256(bytes(planType))\n      PUSH 20\t\t\tkeccak256(bytes(planType))\n      ADD \t\t\tkeccak256(bytes(planType))\n      KECCAK256 \t\t\tkeccak256(bytes(planType))\n      SUB \t\t\tkeccak256(bytes(planType)) == ...\n      PUSH [tag] 31\t\t\tif(keccak256(bytes(planType)) ...\n      JUMPI \t\t\tif(keccak256(bytes(planType)) ...\n      PUSH ED4E00\t\t\t180 * 86400\n      PUSH 3\t\t\t_expDate\n      DUP2 \t\t\t_expDate = (180 * 86400)\n      SWAP1 \t\t\t_expDate = (180 * 86400)\n      SSTORE \t\t\t_expDate = (180 * 86400)\n      POP \t\t\t_expDate = (180 * 86400)\n      PUSH [tag] 32\t\t\tif(keccak256(bytes(planType)) ...\n      JUMP \t\t\tif(keccak256(bytes(planType)) ...\n    tag 31\t\t\tif(keccak256(bytes(planType)) ...\n      JUMPDEST \t\t\tif(keccak256(bytes(planType)) ...\n      PUSH 40\t\t\tbytes(\"Yearly\")\n      MLOAD \t\t\tbytes(\"Yearly\")\n      DUP1 \t\t\tbytes(\"Yearly\")\n      PUSH 40\t\t\tbytes(\"Yearly\")\n      ADD \t\t\tbytes(\"Yearly\")\n      PUSH 40\t\t\tbytes(\"Yearly\")\n      MSTORE \t\t\tbytes(\"Yearly\")\n      DUP1 \t\t\tbytes(\"Yearly\")\n      PUSH 6\t\t\tbytes(\"Yearly\")\n      DUP2 \t\t\tbytes(\"Yearly\")\n      MSTORE \t\t\tbytes(\"Yearly\")\n      PUSH 20\t\t\tbytes(\"Yearly\")\n      ADD \t\t\tbytes(\"Yearly\")\n      PUSH 596561726C790000000000000000000000000000000000000000000000000000\t\t\tbytes(\"Yearly\")\n      DUP2 \t\t\tbytes(\"Yearly\")\n      MSTORE \t\t\tbytes(\"Yearly\")\n      POP \t\t\tbytes(\"Yearly\")\n      DUP1 \t\t\tkeccak256(bytes(\"Yearly\"))\n      MLOAD \t\t\tkeccak256(bytes(\"Yearly\"))\n      SWAP1 \t\t\tkeccak256(bytes(\"Yearly\"))\n      PUSH 20\t\t\tkeccak256(bytes(\"Yearly\"))\n      ADD \t\t\tkeccak256(bytes(\"Yearly\"))\n      KECCAK256 \t\t\tkeccak256(bytes(\"Yearly\"))\n      DUP3 \t\t\tplanType\n      DUP1 \t\t\tkeccak256(bytes(planType))\n      MLOAD \t\t\tkeccak256(bytes(planType))\n      SWAP1 \t\t\tkeccak256(bytes(planType))\n      PUSH 20\t\t\tkeccak256(bytes(planType))\n      ADD \t\t\tkeccak256(bytes(planType))\n      KECCAK256 \t\t\tkeccak256(bytes(planType))\n      SUB \t\t\tkeccak256(bytes(planType)) == ...\n      PUSH [tag] 33\t\t\tif(keccak256(bytes(planType)) ...\n      JUMPI \t\t\tif(keccak256(bytes(planType)) ...\n      PUSH 1E13380\t\t\t365 * 86400\n      PUSH 3\t\t\t_expDate\n      DUP2 \t\t\t_expDate = (365 * 86400)\n      SWAP1 \t\t\t_expDate = (365 * 86400)\n      SSTORE \t\t\t_expDate = (365 * 86400)\n      POP \t\t\t_expDate = (365 * 86400)\n    tag 33\t\t\tif(keccak256(bytes(planType)) ...\n      JUMPDEST \t\t\tif(keccak256(bytes(planType)) ...\n    tag 32\t\t\tif(keccak256(bytes(planType)) ...\n      JUMPDEST \t\t\tif(keccak256(bytes(planType)) ...\n    tag 30\t\t\tif(keccak256(bytes(planType)) ...\n      JUMPDEST \t\t\tif(keccak256(bytes(planType)) ...\n      PUSH 3\t\t\t_expDate\n      SLOAD \t\t\t_expDate\n      TIMESTAMP \t\t\tblock.timestamp\n      PUSH [tag] 34\t\t\tblock.timestamp + _expDate\n      SWAP2 \t\t\tblock.timestamp + _expDate\n      SWAP1 \t\t\tblock.timestamp + _expDate\n      PUSH [tag] 35\t\t\tblock.timestamp + _expDate\n      JUMP \t\t\tblock.timestamp + _expDate\n    tag 34\t\t\tblock.timestamp + _expDate\n      JUMPDEST \t\t\tblock.timestamp + _expDate\n      PUSH 2\t\t\t_paymentDate\n      PUSH 0\t\t\t_paymentDate[usersAddress]\n      DUP7 \t\t\tusersAddress\n      PUSH FFFFFFFFFFFFFFFFFFFFFFFFFFFFFFFFFFFFFFFF\t\t\t_paymentDate[usersAddress]\n      AND \t\t\t_paymentDate[usersAddress]\n      PUSH FFFFFFFFFFFFFFFFFFFFFFFFFFFFFFFFFFFFFFFF\t\t\t_paymentDate[usersAddress]\n      AND \t\t\t_paymentDate[usersAddress]\n      DUP2 \t\t\t_paymentDate[usersAddress]\n      MSTORE \t\t\t_paymentDate[usersAddress]\n      PUSH 20\t\t\t_paymentDate[usersAddress]\n      ADD \t\t\t_paymentDate[usersAddress]\n      SWAP1 \t\t\t_paymentDate[usersAddress]\n      DUP2 \t\t\t_paymentDate[usersAddress]\n      MSTORE \t\t\t_paymentDate[usersAddress]\n      PUSH 20\t\t\t_paymentDate[usersAddress]\n      ADD \t\t\t_paymentDate[usersAddress]\n      PUSH 0\t\t\t_paymentDate[usersAddress]\n      KECCAK256 \t\t\t_paymentDate[usersAddress]\n      DUP2 \t\t\t_paymentDate[usersAddress]   =...\n      SWAP1 \t\t\t_paymentDate[usersAddress]   =...\n      SSTORE \t\t\t_paymentDate[usersAddress]   =...\n      POP \t\t\t_paymentDate[usersAddress]   =...\n      PUSH [tag] 36\t\t\tif(payCheck != true){\\r\\n\\r\\n ...\n      JUMP \t\t\tif(payCheck != true){\\r\\n\\r\\n ...\n    tag 28\t\t\tif(payCheck != true){\\r\\n\\r\\n ...\n      JUMPDEST \t\t\tif(payCheck != true){\\r\\n\\r\\n ...\n      PUSH 40\t\t\trevert(\"user is already paid!\"...\n      MLOAD \t\t\trevert(\"user is already paid!\"...\n      PUSH 8C379A000000000000000000000000000000000000000000000000000000000\t\t\trevert(\"user is already paid!\"...\n      DUP2 \t\t\trevert(\"user is already paid!\"...\n      MSTORE \t\t\trevert(\"user is already paid!\"...\n      PUSH 4\t\t\trevert(\"user is already paid!\"...\n      ADD \t\t\trevert(\"user is already paid!\"...\n      PUSH [tag] 37\t\t\trevert(\"user is already paid!\"...\n      SWAP1 \t\t\trevert(\"user is already paid!\"...\n      PUSH [tag] 38\t\t\trevert(\"user is already paid!\"...\n      JUMP \t\t\trevert(\"user is already paid!\"...\n    tag 37\t\t\trevert(\"user is already paid!\"...\n      JUMPDEST \t\t\trevert(\"user is already paid!\"...\n      PUSH 40\t\t\trevert(\"user is already paid!\"...\n      MLOAD \t\t\trevert(\"user is already paid!\"...\n      DUP1 \t\t\trevert(\"user is already paid!\"...\n      SWAP2 \t\t\trevert(\"user is already paid!\"...\n      SUB \t\t\trevert(\"user is already paid!\"...\n      SWAP1 \t\t\trevert(\"user is already paid!\"...\n      REVERT \t\t\trevert(\"user is already paid!\"...\n    tag 36\t\t\tif(payCheck != true){\\r\\n\\r\\n ...\n      JUMPDEST \t\t\tif(payCheck != true){\\r\\n\\r\\n ...\n      POP \t\t\t{\\r\\n\\r\\n        bool payCheck...\n      POP \t\t\tfunction paymentCheck(address ...\n      POP \t\t\tfunction paymentCheck(address ...\n      POP \t\t\tfunction paymentCheck(address ...\n      JUMP \t\t\tfunction paymentCheck(address ...\n    tag 20\t\t\tfunction userCheckStatus(addre...\n      JUMPDEST \t\t\tfunction userCheckStatus(addre...\n      PUSH 0\t\t\tuint256\n      PUSH 2\t\t\t_paymentDate\n      PUSH 0\t\t\t_paymentDate[_receipent]\n      DUP4 \t\t\t_receipent\n      PUSH FFFFFFFFFFFFFFFFFFFFFFFFFFFFFFFFFFFFFFFF\t\t\t_paymentDate[_receipent]\n      AND \t\t\t_paymentDate[_receipent]\n      PUSH FFFFFFFFFFFFFFFFFFFFFFFFFFFFFFFFFFFFFFFF\t\t\t_paymentDate[_receipent]\n      AND \t\t\t_paymentDate[_receipent]\n      DUP2 \t\t\t_paymentDate[_receipent]\n      MSTORE \t\t\t_paymentDate[_receipent]\n      PUSH 20\t\t\t_paymentDate[_receipent]\n      ADD \t\t\t_paymentDate[_receipent]\n      SWAP1 \t\t\t_paymentDate[_receipent]\n      DUP2 \t\t\t_paymentDate[_receipent]\n      MSTORE \t\t\t_paymentDate[_receipent]\n      PUSH 20\t\t\t_paymentDate[_receipent]\n      ADD \t\t\t_paymentDate[_receipent]\n      PUSH 0\t\t\t_paymentDate[_receipent]\n      KECCAK256 \t\t\t_paymentDate[_receipent]\n      SLOAD \t\t\t_paymentDate[_receipent]\n      SWAP1 \t\t\treturn  _paymentDate[_receipen...\n      POP \t\t\treturn  _paymentDate[_receipen...\n      SWAP2 \t\t\tfunction userCheckStatus(addre...\n      SWAP1 \t\t\tfunction userCheckStatus(addre...\n      POP \t\t\tfunction userCheckStatus(addre...\n      JUMP \t\t\tfunction userCheckStatus(addre...\n    tag 25\t\t\tfunction pay(address _receipen...\n      JUMPDEST \t\t\tfunction pay(address _receipen...\n      PUSH 0\t\t\t0\n      CALLVALUE \t\t\tmsg.value\n      GT \t\t\tmsg.value > 0\n      PUSH [tag] 41\t\t\trequire(msg.value > 0, \"You mu...\n      JUMPI \t\t\trequire(msg.value > 0, \"You mu...\n      PUSH 40\t\t\trequire(msg.value > 0, \"You mu...\n      MLOAD \t\t\trequire(msg.value > 0, \"You mu...\n      PUSH 8C379A000000000000000000000000000000000000000000000000000000000\t\t\trequire(msg.value > 0, \"You mu...\n      DUP2 \t\t\trequire(msg.value > 0, \"You mu...\n      MSTORE \t\t\trequire(msg.value > 0, \"You mu...\n      PUSH 4\t\t\trequire(msg.value > 0, \"You mu...\n      ADD \t\t\trequire(msg.value > 0, \"You mu...\n      PUSH [tag] 42\t\t\trequire(msg.value > 0, \"You mu...\n      SWAP1 \t\t\trequire(msg.value > 0, \"You mu...\n      PUSH [tag] 43\t\t\trequire(msg.value > 0, \"You mu...\n      JUMP \t\t\trequire(msg.value > 0, \"You mu...\n    tag 42\t\t\trequire(msg.value > 0, \"You mu...\n      JUMPDEST \t\t\trequire(msg.value > 0, \"You mu...\n      PUSH 40\t\t\trequire(msg.value > 0, \"You mu...\n      MLOAD \t\t\trequire(msg.value > 0, \"You mu...\n      DUP1 \t\t\trequire(msg.value > 0, \"You mu...\n      SWAP2 \t\t\trequire(msg.value > 0, \"You mu...\n      SUB \t\t\trequire(msg.value > 0, \"You mu...\n      SWAP1 \t\t\trequire(msg.value > 0, \"You mu...\n      REVERT \t\t\trequire(msg.value > 0, \"You mu...\n    tag 41\t\t\trequire(msg.value > 0, \"You mu...\n      JUMPDEST \t\t\trequire(msg.value > 0, \"You mu...\n      PUSH [tag] 44\t\t\tpaymentCheck(_receipent, msg.v...\n      DUP3 \t\t\t_receipent\n      CALLVALUE \t\t\tmsg.value\n      DUP4 \t\t\t_planType\n      PUSH [tag] 15\t\t\tpaymentCheck\n      JUMP \t\t\tpaymentCheck(_receipent, msg.v...\n    tag 44\t\t\tpaymentCheck(_receipent, msg.v...\n      JUMPDEST \t\t\tpaymentCheck(_receipent, msg.v...\n      POP \t\t\tfunction pay(address _receipen...\n      POP \t\t\tfunction pay(address _receipen...\n      JUMP \t\t\tfunction pay(address _receipen...\n    tag 45\t\t\t-License-Identifier: GPL-3.0\\r...\n      JUMPDEST \t\t\t-License-Identifier: GPL-3.0\\r...\n      PUSH 0\t\t\tsolidit\n      DUP2 \t\t\tcontr\n      SWAP1 \t\t\t<0.9.0;\\r\\n\\r\\ncontr\n      POP \t\t\t<0.9.0;\\r\\n\\r\\ncontr\n      SWAP2 \t\t\t-License-Identifier: GPL-3.0\\r...\n      SWAP1 \t\t\t-License-Identifier: GPL-3.0\\r...\n      POP \t\t\t-License-Identifier: GPL-3.0\\r...\n      JUMP \t\t\t-License-Identifier: GPL-3.0\\r...\n    tag 46\t\t\treaUsers {\\r\\n\\r\\n    mapping(...\n      JUMPDEST \t\t\treaUsers {\\r\\n\\r\\n    mapping(...\n      PUSH [tag] 75\t\t\tuint256) private _paymen\n      DUP2 \t\t\tpayme\n      PUSH [tag] 45\t\t\tuint256) private _paymen\n      JUMP \t\t\tuint256) private _paymen\n    tag 75\t\t\tuint256) private _paymen\n      JUMPDEST \t\t\tuint256) private _paymen\n      DUP3 \t\t\tess\n      MSTORE \t\t\tng(address=>uint256) private _...\n      POP \t\t\treaUsers {\\r\\n\\r\\n    mapping(...\n      POP \t\t\treaUsers {\\r\\n\\r\\n    mapping(...\n      JUMP \t\t\treaUsers {\\r\\n\\r\\n    mapping(...\n    tag 10\t\t\t mapping(address=>uint256) pri...\n      JUMPDEST \t\t\t mapping(address=>uint256) pri...\n      PUSH 0\t\t\tucto\n      PUSH 20\t\t\t\\n \n      DUP3 \t\t\t/**\\r\\n    \n      ADD \t\t\t    /**\\r\\n    *\\r\\n  \n      SWAP1 \t\t\t   }\\r\\n\\r\\n    /**\\r\\n    *\\r...\n      POP \t\t\t   }\\r\\n\\r\\n    /**\\r\\n    *\\r...\n      PUSH [tag] 77\t\t\tfunction paymentCheck(address ...\n      PUSH 0\t\t\tm\n      DUP4 \t\t\tnt, strin\n      ADD \t\t\tamount, string me\n      DUP5 \t\t\tuint25\n      PUSH [tag] 46\t\t\tfunction paymentCheck(address ...\n      JUMP \t\t\tfunction paymentCheck(address ...\n    tag 77\t\t\tfunction paymentCheck(address ...\n      JUMPDEST \t\t\tfunction paymentCheck(address ...\n      SWAP3 \t\t\t mapping(address=>uint256) pri...\n      SWAP2 \t\t\t mapping(address=>uint256) pri...\n      POP \t\t\t mapping(address=>uint256) pri...\n      POP \t\t\t mapping(address=>uint256) pri...\n      JUMP \t\t\t mapping(address=>uint256) pri...\n    tag 47\t\t\t public{\\r\\n\\r\\n        bool p...\n      JUMPDEST \t\t\t public{\\r\\n\\r\\n        bool p...\n      PUSH 0\t\t\t = _pa\n      PUSH 40\t\t\t\\n\\r\n      MLOAD \t\t\tess];\\r\\n\\r\\n\n      SWAP1 \t\t\t[usersAddress];\\r\\n\\r\\n\n      POP \t\t\t[usersAddress];\\r\\n\\r\\n\n      SWAP1 \t\t\t public{\\r\\n\\r\\n        bool p...\n      JUMP \t\t\t public{\\r\\n\\r\\n        bool p...\n    tag 48\t\t\tayCheck != true){\\r\\n\\r\\n     ...\n      JUMPDEST \t\t\tayCheck != true){\\r\\n\\r\\n     ...\n      PUSH 0\t\t\ts\n      DUP1 \t\t\tr\n      REVERT \t\t\tsersAddress]\n    tag 49\t\t\t\\n\\r\\n            if(keccak256...\n      JUMPDEST \t\t\t\\n\\r\\n            if(keccak256...\n      PUSH 0\t\t\t \n      DUP1 \t\t\t(\n      REVERT \t\t\tDate = (30 *\n    tag 50\t\t\t          }else if(keccak256(b...\n      JUMPDEST \t\t\t          }else if(keccak256(b...\n      PUSH 0\t\t\tanType)\n      PUSH FFFFFFFFFFFFFFFFFFFFFFFFFFFFFFFFFFFFFFFF\t\t\t))){\\r\\n                _expDa...\n      DUP3 \t\t\tYearl\n      AND \t\t\thalfYearly\"))){\\r\\n           ...\n      SWAP1 \t\t\t256(bytes(\"halfYearly\"))){\\r\\n...\n      POP \t\t\t256(bytes(\"halfYearly\"))){\\r\\n...\n      SWAP2 \t\t\t          }else if(keccak256(b...\n      SWAP1 \t\t\t          }else if(keccak256(b...\n      POP \t\t\t          }else if(keccak256(b...\n      JUMP \t\t\t          }else if(keccak256(b...\n    tag 51\t\t\t      }else if(keccak256(bytes...\n      JUMPDEST \t\t\t      }else if(keccak256(bytes...\n      PUSH 0\t\t\tpe)) ==\n      PUSH [tag] 83\t\t\tly\"))){\\r\\n               \n      DUP3 \t\t\t     \n      PUSH [tag] 50\t\t\tly\"))){\\r\\n               \n      JUMP \t\t\tly\"))){\\r\\n               \n    tag 83\t\t\tly\"))){\\r\\n               \n      JUMPDEST \t\t\tly\"))){\\r\\n               \n      SWAP1 \t\t\tbytes(\"Yearly\"))){\\r\\n        ...\n      POP \t\t\tbytes(\"Yearly\"))){\\r\\n        ...\n      SWAP2 \t\t\t      }else if(keccak256(bytes...\n      SWAP1 \t\t\t      }else if(keccak256(bytes...\n      POP \t\t\t      }else if(keccak256(bytes...\n      JUMP \t\t\t      }else if(keccak256(bytes...\n    tag 52\t\t\t(365 * 86400);\\r\\n            ...\n      JUMPDEST \t\t\t(365 * 86400);\\r\\n            ...\n      PUSH [tag] 85\t\t\t = block.timestamp + _ex\n      DUP2 \t\t\t + _e\n      PUSH [tag] 51\t\t\t = block.timestamp + _ex\n      JUMP \t\t\t = block.timestamp + _ex\n    tag 85\t\t\t = block.timestamp + _ex\n      JUMPDEST \t\t\t = block.timestamp + _ex\n      DUP2 \t\t\tress]\n      EQ \t\t\tAddress]   = block.timestamp +...\n      PUSH [tag] 86\t\t\tDate[usersAddress]   = block.t...\n      JUMPI \t\t\tDate[usersAddress]   = block.t...\n      PUSH 0\t\t\t \n      DUP1 \t\t\t \n      REVERT \t\t\t;\\r\\n\\r\\n       \n    tag 86\t\t\tDate[usersAddress]   = block.t...\n      JUMPDEST \t\t\tDate[usersAddress]   = block.t...\n      POP \t\t\t(365 * 86400);\\r\\n            ...\n      JUMP \t\t\t(365 * 86400);\\r\\n            ...\n    tag 53\t\t\t       revert(\"user is already...\n      JUMPDEST \t\t\t       revert(\"user is already...\n      PUSH 0\t\t\t   }\\r\n      DUP2 \t\t\tkStatu\n      CALLDATALOAD \t\t\ttion userCheckStatus\n      SWAP1 \t\t\t\\n    function userCheckStatus\n      POP \t\t\t\\n    function userCheckStatus\n      PUSH [tag] 88\t\t\t_receipent) public view return...\n      DUP2 \t\t\turns \n      PUSH [tag] 52\t\t\t_receipent) public view return...\n      JUMP \t\t\t_receipent) public view return...\n    tag 88\t\t\t_receipent) public view return...\n      JUMPDEST \t\t\t_receipent) public view return...\n      SWAP3 \t\t\t       revert(\"user is already...\n      SWAP2 \t\t\t       revert(\"user is already...\n      POP \t\t\t       revert(\"user is already...\n      POP \t\t\t       revert(\"user is already...\n      JUMP \t\t\t       revert(\"user is already...\n    tag 54\t\t\t\\n        return  _paymentDate...\n      JUMPDEST \t\t\t\\n        return  _paymentDate...\n      PUSH [tag] 90\t\t\tEther to Loyal Customers\n      DUP2 \t\t\ttomer\n      PUSH [tag] 45\t\t\tEther to Loyal Customers\n      JUMP \t\t\tEther to Loyal Customers\n    tag 90\t\t\tEther to Loyal Customers\n      JUMPDEST \t\t\tEther to Loyal Customers\n      DUP2 \t\t\tansfe\n      EQ \t\t\t Transfer Ether to Loyal Custo...\n      PUSH [tag] 91\t\t\t\\r\\n\\r\\n    // Transfer Ether ...\n      JUMPI \t\t\t\\r\\n\\r\\n    // Transfer Ether ...\n      PUSH 0\t\t\tp\n      DUP1 \t\t\to\n      REVERT \t\t\t function pa\n    tag 91\t\t\t\\r\\n\\r\\n    // Transfer Ether ...\n      JUMPDEST \t\t\t\\r\\n\\r\\n    // Transfer Ether ...\n      POP \t\t\t\\n        return  _paymentDate...\n      JUMP \t\t\t\\n        return  _paymentDate...\n    tag 55\t\t\teipent, string memory _planTyp...\n      JUMPDEST \t\t\teipent, string memory _planTyp...\n      PUSH 0\t\t\te{\\r\\n\\r\n      DUP2 \t\t\t if us\n      CALLDATALOAD \t\t\ttion to check if use\n      SWAP1 \t\t\t add function to check if use\n      POP \t\t\t add function to check if use\n      PUSH [tag] 93\t\t\t or not\\r\\n        require(msg...\n      DUP2 \t\t\tg.val\n      PUSH [tag] 54\t\t\t or not\\r\\n        require(msg...\n      JUMP \t\t\t or not\\r\\n        require(msg...\n    tag 93\t\t\t or not\\r\\n        require(msg...\n      JUMPDEST \t\t\t or not\\r\\n        require(msg...\n      SWAP3 \t\t\teipent, string memory _planTyp...\n      SWAP2 \t\t\teipent, string memory _planTyp...\n      POP \t\t\teipent, string memory _planTyp...\n      POP \t\t\teipent, string memory _planTyp...\n      JUMP \t\t\teipent, string memory _planTyp...\n    tag 56\t\t\tmust send some Ether\");\\r\\n   ...\n      JUMPDEST \t\t\tmust send some Ether\");\\r\\n   ...\n      PUSH 0\t\t\t \n      DUP1 \t\t\tg\n      REVERT \t\t\t    // get b\n    tag 57\t\t\tntract address\\r\\n    function...\n      JUMPDEST \t\t\tntract address\\r\\n    function...\n      PUSH 0\t\t\t;\n      DUP1 \t\t\tn\n      REVERT \t\t\ts).balance;\\r\n    tag 58\t\t\t\n      JUMPDEST \t\t\t\n      PUSH 0\t\t\t\n      PUSH 1F\t\t\t\n      NOT \t\t\t\n      PUSH 1F\t\t\t\n      DUP4 \t\t\t\n      ADD \t\t\t\n      AND \t\t\t\n      SWAP1 \t\t\t\n      POP \t\t\t\n      SWAP2 \t\t\t\n      SWAP1 \t\t\t\n      POP \t\t\t\n      JUMP \t\t\t\n    tag 59\t\t\t\n      JUMPDEST \t\t\t\n      PUSH 4E487B7100000000000000000000000000000000000000000000000000000000\t\t\t\n      PUSH 0\t\t\t\n      MSTORE \t\t\t\n      PUSH 41\t\t\t\n      PUSH 4\t\t\t\n      MSTORE \t\t\t\n      PUSH 24\t\t\t\n      PUSH 0\t\t\t\n      REVERT \t\t\t\n    tag 60\t\t\t\n      JUMPDEST \t\t\t\n      PUSH [tag] 99\t\t\t\n      DUP3 \t\t\t\n      PUSH [tag] 58\t\t\t\n      JUMP \t\t\t\n    tag 99\t\t\t\n      JUMPDEST \t\t\t\n      DUP2 \t\t\t\n      ADD \t\t\t\n      DUP2 \t\t\t\n      DUP2 \t\t\t\n      LT \t\t\t\n      PUSH FFFFFFFFFFFFFFFF\t\t\t\n      DUP3 \t\t\t\n      GT \t\t\t\n      OR \t\t\t\n      ISZERO \t\t\t\n      PUSH [tag] 100\t\t\t\n      JUMPI \t\t\t\n      PUSH [tag] 101\t\t\t\n      PUSH [tag] 59\t\t\t\n      JUMP \t\t\t\n    tag 101\t\t\t\n      JUMPDEST \t\t\t\n    tag 100\t\t\t\n      JUMPDEST \t\t\t\n      DUP1 \t\t\t\n      PUSH 40\t\t\t\n      MSTORE \t\t\t\n      POP \t\t\t\n      POP \t\t\t\n      POP \t\t\t\n      JUMP \t\t\t\n    tag 61\t\t\t\n      JUMPDEST \t\t\t\n      PUSH 0\t\t\t\n      PUSH [tag] 103\t\t\t\n      PUSH [tag] 47\t\t\t\n      JUMP \t\t\t\n    tag 103\t\t\t\n      JUMPDEST \t\t\t\n      SWAP1 \t\t\t\n      POP \t\t\t\n      PUSH [tag] 104\t\t\t\n      DUP3 \t\t\t\n      DUP3 \t\t\t\n      PUSH [tag] 60\t\t\t\n      JUMP \t\t\t\n    tag 104\t\t\t\n      JUMPDEST \t\t\t\n      SWAP2 \t\t\t\n      SWAP1 \t\t\t\n      POP \t\t\t\n      JUMP \t\t\t\n    tag 62\t\t\t\n      JUMPDEST \t\t\t\n      PUSH 0\t\t\t\n      PUSH FFFFFFFFFFFFFFFF\t\t\t\n      DUP3 \t\t\t\n      GT \t\t\t\n      ISZERO \t\t\t\n      PUSH [tag] 106\t\t\t\n      JUMPI \t\t\t\n      PUSH [tag] 107\t\t\t\n      PUSH [tag] 59\t\t\t\n      JUMP \t\t\t\n    tag 107\t\t\t\n      JUMPDEST \t\t\t\n    tag 106\t\t\t\n      JUMPDEST \t\t\t\n      PUSH [tag] 108\t\t\t\n      DUP3 \t\t\t\n      PUSH [tag] 58\t\t\t\n      JUMP \t\t\t\n    tag 108\t\t\t\n      JUMPDEST \t\t\t\n      SWAP1 \t\t\t\n      POP \t\t\t\n      PUSH 20\t\t\t\n      DUP2 \t\t\t\n      ADD \t\t\t\n      SWAP1 \t\t\t\n      POP \t\t\t\n      SWAP2 \t\t\t\n      SWAP1 \t\t\t\n      POP \t\t\t\n      JUMP \t\t\t\n    tag 63\t\t\t\n      JUMPDEST \t\t\t\n      DUP3 \t\t\t\n      DUP2 \t\t\t\n      DUP4 \t\t\t\n      CALLDATACOPY \t\t\t\n      PUSH 0\t\t\t\n      DUP4 \t\t\t\n      DUP4 \t\t\t\n      ADD \t\t\t\n      MSTORE \t\t\t\n      POP \t\t\t\n      POP \t\t\t\n      POP \t\t\t\n      JUMP \t\t\t\n    tag 64\t\t\t\n      JUMPDEST \t\t\t\n      PUSH 0\t\t\t\n      PUSH [tag] 111\t\t\t\n      PUSH [tag] 112\t\t\t\n      DUP5 \t\t\t\n      PUSH [tag] 62\t\t\t\n      JUMP \t\t\t\n    tag 112\t\t\t\n      JUMPDEST \t\t\t\n      PUSH [tag] 61\t\t\t\n      JUMP \t\t\t\n    tag 111\t\t\t\n      JUMPDEST \t\t\t\n      SWAP1 \t\t\t\n      POP \t\t\t\n      DUP3 \t\t\t\n      DUP2 \t\t\t\n      MSTORE \t\t\t\n      PUSH 20\t\t\t\n      DUP2 \t\t\t\n      ADD \t\t\t\n      DUP5 \t\t\t\n      DUP5 \t\t\t\n      DUP5 \t\t\t\n      ADD \t\t\t\n      GT \t\t\t\n      ISZERO \t\t\t\n      PUSH [tag] 113\t\t\t\n      JUMPI \t\t\t\n      PUSH [tag] 114\t\t\t\n      PUSH [tag] 57\t\t\t\n      JUMP \t\t\t\n    tag 114\t\t\t\n      JUMPDEST \t\t\t\n    tag 113\t\t\t\n      JUMPDEST \t\t\t\n      PUSH [tag] 115\t\t\t\n      DUP5 \t\t\t\n      DUP3 \t\t\t\n      DUP6 \t\t\t\n      PUSH [tag] 63\t\t\t\n      JUMP \t\t\t\n    tag 115\t\t\t\n      JUMPDEST \t\t\t\n      POP \t\t\t\n      SWAP4 \t\t\t\n      SWAP3 \t\t\t\n      POP \t\t\t\n      POP \t\t\t\n      POP \t\t\t\n      JUMP \t\t\t\n    tag 65\t\t\t\n      JUMPDEST \t\t\t\n      PUSH 0\t\t\t\n      DUP3 \t\t\t\n      PUSH 1F\t\t\t\n      DUP4 \t\t\t\n      ADD \t\t\t\n      SLT \t\t\t\n      PUSH [tag] 117\t\t\t\n      JUMPI \t\t\t\n      PUSH [tag] 118\t\t\t\n      PUSH [tag] 56\t\t\t\n      JUMP \t\t\t\n    tag 118\t\t\t\n      JUMPDEST \t\t\t\n    tag 117\t\t\t\n      JUMPDEST \t\t\t\n      DUP2 \t\t\t\n      CALLDATALOAD \t\t\t\n      PUSH [tag] 119\t\t\t\n      DUP5 \t\t\t\n      DUP3 \t\t\t\n      PUSH 20\t\t\t\n      DUP7 \t\t\t\n      ADD \t\t\t\n      PUSH [tag] 64\t\t\t\n      JUMP \t\t\t\n    tag 119\t\t\t\n      JUMPDEST \t\t\t\n      SWAP2 \t\t\t\n      POP \t\t\t\n      POP \t\t\t\n      SWAP3 \t\t\t\n      SWAP2 \t\t\t\n      POP \t\t\t\n      POP \t\t\t\n      JUMP \t\t\t\n    tag 14\t\t\t\n      JUMPDEST \t\t\t\n      PUSH 0\t\t\t\n      DUP1 \t\t\t\n      PUSH 0\t\t\t\n      PUSH 60\t\t\t\n      DUP5 \t\t\t\n      DUP7 \t\t\t\n      SUB \t\t\t\n      SLT \t\t\t\n      ISZERO \t\t\t\n      PUSH [tag] 121\t\t\t\n      JUMPI \t\t\t\n      PUSH [tag] 122\t\t\t\n      PUSH [tag] 48\t\t\t\n      JUMP \t\t\t\n    tag 122\t\t\t\n      JUMPDEST \t\t\t\n    tag 121\t\t\t\n      JUMPDEST \t\t\t\n      PUSH 0\t\t\t\n      PUSH [tag] 123\t\t\t\n      DUP7 \t\t\t\n      DUP3 \t\t\t\n      DUP8 \t\t\t\n      ADD \t\t\t\n      PUSH [tag] 53\t\t\t\n      JUMP \t\t\t\n    tag 123\t\t\t\n      JUMPDEST \t\t\t\n      SWAP4 \t\t\t\n      POP \t\t\t\n      POP \t\t\t\n      PUSH 20\t\t\t\n      PUSH [tag] 124\t\t\t\n      DUP7 \t\t\t\n      DUP3 \t\t\t\n      DUP8 \t\t\t\n      ADD \t\t\t\n      PUSH [tag] 55\t\t\t\n      JUMP \t\t\t\n    tag 124\t\t\t\n      JUMPDEST \t\t\t\n      SWAP3 \t\t\t\n      POP \t\t\t\n      POP \t\t\t\n      PUSH 40\t\t\t\n      DUP5 \t\t\t\n      ADD \t\t\t\n      CALLDATALOAD \t\t\t\n      PUSH FFFFFFFFFFFFFFFF\t\t\t\n      DUP2 \t\t\t\n      GT \t\t\t\n      ISZERO \t\t\t\n      PUSH [tag] 125\t\t\t\n      JUMPI \t\t\t\n      PUSH [tag] 126\t\t\t\n      PUSH [tag] 49\t\t\t\n      JUMP \t\t\t\n    tag 126\t\t\t\n      JUMPDEST \t\t\t\n    tag 125\t\t\t\n      JUMPDEST \t\t\t\n      PUSH [tag] 127\t\t\t\n      DUP7 \t\t\t\n      DUP3 \t\t\t\n      DUP8 \t\t\t\n      ADD \t\t\t\n      PUSH [tag] 65\t\t\t\n      JUMP \t\t\t\n    tag 127\t\t\t\n      JUMPDEST \t\t\t\n      SWAP2 \t\t\t\n      POP \t\t\t\n      POP \t\t\t\n      SWAP3 \t\t\t\n      POP \t\t\t\n      SWAP3 \t\t\t\n      POP \t\t\t\n      SWAP3 \t\t\t\n      JUMP \t\t\t\n    tag 19\t\t\t\n      JUMPDEST \t\t\t\n      PUSH 0\t\t\t\n      PUSH 20\t\t\t\n      DUP3 \t\t\t\n      DUP5 \t\t\t\n      SUB \t\t\t\n      SLT \t\t\t\n      ISZERO \t\t\t\n      PUSH [tag] 129\t\t\t\n      JUMPI \t\t\t\n      PUSH [tag] 130\t\t\t\n      PUSH [tag] 48\t\t\t\n      JUMP \t\t\t\n    tag 130\t\t\t\n      JUMPDEST \t\t\t\n    tag 129\t\t\t\n      JUMPDEST \t\t\t\n      PUSH 0\t\t\t\n      PUSH [tag] 131\t\t\t\n      DUP5 \t\t\t\n      DUP3 \t\t\t\n      DUP6 \t\t\t\n      ADD \t\t\t\n      PUSH [tag] 53\t\t\t\n      JUMP \t\t\t\n    tag 131\t\t\t\n      JUMPDEST \t\t\t\n      SWAP2 \t\t\t\n      POP \t\t\t\n      POP \t\t\t\n      SWAP3 \t\t\t\n      SWAP2 \t\t\t\n      POP \t\t\t\n      POP \t\t\t\n      JUMP \t\t\t\n    tag 24\t\t\t\n      JUMPDEST \t\t\t\n      PUSH 0\t\t\t\n      DUP1 \t\t\t\n      PUSH 40\t\t\t\n      DUP4 \t\t\t\n      DUP6 \t\t\t\n      SUB \t\t\t\n      SLT \t\t\t\n      ISZERO \t\t\t\n      PUSH [tag] 133\t\t\t\n      JUMPI \t\t\t\n      PUSH [tag] 134\t\t\t\n      PUSH [tag] 48\t\t\t\n      JUMP \t\t\t\n    tag 134\t\t\t\n      JUMPDEST \t\t\t\n    tag 133\t\t\t\n      JUMPDEST \t\t\t\n      PUSH 0\t\t\t\n      PUSH [tag] 135\t\t\t\n      DUP6 \t\t\t\n      DUP3 \t\t\t\n      DUP7 \t\t\t\n      ADD \t\t\t\n      PUSH [tag] 53\t\t\t\n      JUMP \t\t\t\n    tag 135\t\t\t\n      JUMPDEST \t\t\t\n      SWAP3 \t\t\t\n      POP \t\t\t\n      POP \t\t\t\n      PUSH 20\t\t\t\n      DUP4 \t\t\t\n      ADD \t\t\t\n      CALLDATALOAD \t\t\t\n      PUSH FFFFFFFFFFFFFFFF\t\t\t\n      DUP2 \t\t\t\n      GT \t\t\t\n      ISZERO \t\t\t\n      PUSH [tag] 136\t\t\t\n      JUMPI \t\t\t\n      PUSH [tag] 137\t\t\t\n      PUSH [tag] 49\t\t\t\n      JUMP \t\t\t\n    tag 137\t\t\t\n      JUMPDEST \t\t\t\n    tag 136\t\t\t\n      JUMPDEST \t\t\t\n      PUSH [tag] 138\t\t\t\n      DUP6 \t\t\t\n      DUP3 \t\t\t\n      DUP7 \t\t\t\n      ADD \t\t\t\n      PUSH [tag] 65\t\t\t\n      JUMP \t\t\t\n    tag 138\t\t\t\n      JUMPDEST \t\t\t\n      SWAP2 \t\t\t\n      POP \t\t\t\n      POP \t\t\t\n      SWAP3 \t\t\t\n      POP \t\t\t\n      SWAP3 \t\t\t\n      SWAP1 \t\t\t\n      POP \t\t\t\n      JUMP \t\t\t\n    tag 66\t\t\t\n      JUMPDEST \t\t\t\n      PUSH 4E487B7100000000000000000000000000000000000000000000000000000000\t\t\t\n      PUSH 0\t\t\t\n      MSTORE \t\t\t\n      PUSH 11\t\t\t\n      PUSH 4\t\t\t\n      MSTORE \t\t\t\n      PUSH 24\t\t\t\n      PUSH 0\t\t\t\n      REVERT \t\t\t\n    tag 35\t\t\t\n      JUMPDEST \t\t\t\n      PUSH 0\t\t\t\n      PUSH [tag] 141\t\t\t\n      DUP3 \t\t\t\n      PUSH [tag] 45\t\t\t\n      JUMP \t\t\t\n    tag 141\t\t\t\n      JUMPDEST \t\t\t\n      SWAP2 \t\t\t\n      POP \t\t\t\n      PUSH [tag] 142\t\t\t\n      DUP4 \t\t\t\n      PUSH [tag] 45\t\t\t\n      JUMP \t\t\t\n    tag 142\t\t\t\n      JUMPDEST \t\t\t\n      SWAP3 \t\t\t\n      POP \t\t\t\n      DUP3 \t\t\t\n      DUP3 \t\t\t\n      ADD \t\t\t\n      SWAP1 \t\t\t\n      POP \t\t\t\n      DUP1 \t\t\t\n      DUP3 \t\t\t\n      GT \t\t\t\n      ISZERO \t\t\t\n      PUSH [tag] 143\t\t\t\n      JUMPI \t\t\t\n      PUSH [tag] 144\t\t\t\n      PUSH [tag] 66\t\t\t\n      JUMP \t\t\t\n    tag 144\t\t\t\n      JUMPDEST \t\t\t\n    tag 143\t\t\t\n      JUMPDEST \t\t\t\n      SWAP3 \t\t\t\n      SWAP2 \t\t\t\n      POP \t\t\t\n      POP \t\t\t\n      JUMP \t\t\t\n    tag 67\t\t\t\n      JUMPDEST \t\t\t\n      PUSH 0\t\t\t\n      DUP3 \t\t\t\n      DUP3 \t\t\t\n      MSTORE \t\t\t\n      PUSH 20\t\t\t\n      DUP3 \t\t\t\n      ADD \t\t\t\n      SWAP1 \t\t\t\n      POP \t\t\t\n      SWAP3 \t\t\t\n      SWAP2 \t\t\t\n      POP \t\t\t\n      POP \t\t\t\n      JUMP \t\t\t\n    tag 68\t\t\t\n      JUMPDEST \t\t\t\n      PUSH 7573657220697320616C72656164792070616964210000000000000000000000\t\t\t\n      PUSH 0\t\t\t\n      DUP3 \t\t\t\n      ADD \t\t\t\n      MSTORE \t\t\t\n      POP \t\t\t\n      JUMP \t\t\t\n    tag 69\t\t\t\n      JUMPDEST \t\t\t\n      PUSH 0\t\t\t\n      PUSH [tag] 148\t\t\t\n      PUSH 15\t\t\t\n      DUP4 \t\t\t\n      PUSH [tag] 67\t\t\t\n      JUMP \t\t\t\n    tag 148\t\t\t\n      JUMPDEST \t\t\t\n      SWAP2 \t\t\t\n      POP \t\t\t\n      PUSH [tag] 149\t\t\t\n      DUP3 \t\t\t\n      PUSH [tag] 68\t\t\t\n      JUMP \t\t\t\n    tag 149\t\t\t\n      JUMPDEST \t\t\t\n      PUSH 20\t\t\t\n      DUP3 \t\t\t\n      ADD \t\t\t\n      SWAP1 \t\t\t\n      POP \t\t\t\n      SWAP2 \t\t\t\n      SWAP1 \t\t\t\n      POP \t\t\t\n      JUMP \t\t\t\n    tag 38\t\t\t\n      JUMPDEST \t\t\t\n      PUSH 0\t\t\t\n      PUSH 20\t\t\t\n      DUP3 \t\t\t\n      ADD \t\t\t\n      SWAP1 \t\t\t\n      POP \t\t\t\n      DUP2 \t\t\t\n      DUP2 \t\t\t\n      SUB \t\t\t\n      PUSH 0\t\t\t\n      DUP4 \t\t\t\n      ADD \t\t\t\n      MSTORE \t\t\t\n      PUSH [tag] 151\t\t\t\n      DUP2 \t\t\t\n      PUSH [tag] 69\t\t\t\n      JUMP \t\t\t\n    tag 151\t\t\t\n      JUMPDEST \t\t\t\n      SWAP1 \t\t\t\n      POP \t\t\t\n      SWAP2 \t\t\t\n      SWAP1 \t\t\t\n      POP \t\t\t\n      JUMP \t\t\t\n    tag 70\t\t\t\n      JUMPDEST \t\t\t\n      PUSH 596F75206D7573742073656E6420736F6D652045746865720000000000000000\t\t\t\n      PUSH 0\t\t\t\n      DUP3 \t\t\t\n      ADD \t\t\t\n      MSTORE \t\t\t\n      POP \t\t\t\n      JUMP \t\t\t\n    tag 71\t\t\t\n      JUMPDEST \t\t\t\n      PUSH 0\t\t\t\n      PUSH [tag] 154\t\t\t\n      PUSH 18\t\t\t\n      DUP4 \t\t\t\n      PUSH [tag] 67\t\t\t\n      JUMP \t\t\t\n    tag 154\t\t\t\n      JUMPDEST \t\t\t\n      SWAP2 \t\t\t\n      POP \t\t\t\n      PUSH [tag] 155\t\t\t\n      DUP3 \t\t\t\n      PUSH [tag] 70\t\t\t\n      JUMP \t\t\t\n    tag 155\t\t\t\n      JUMPDEST \t\t\t\n      PUSH 20\t\t\t\n      DUP3 \t\t\t\n      ADD \t\t\t\n      SWAP1 \t\t\t\n      POP \t\t\t\n      SWAP2 \t\t\t\n      SWAP1 \t\t\t\n      POP \t\t\t\n      JUMP \t\t\t\n    tag 43\t\t\t\n      JUMPDEST \t\t\t\n      PUSH 0\t\t\t\n      PUSH 20\t\t\t\n      DUP3 \t\t\t\n      ADD \t\t\t\n      SWAP1 \t\t\t\n      POP \t\t\t\n      DUP2 \t\t\t\n      DUP2 \t\t\t\n      SUB \t\t\t\n      PUSH 0\t\t\t\n      DUP4 \t\t\t\n      ADD \t\t\t\n      MSTORE \t\t\t\n      PUSH [tag] 157\t\t\t\n      DUP2 \t\t\t\n      PUSH [tag] 71\t\t\t\n      JUMP \t\t\t\n    tag 157\t\t\t\n      JUMPDEST \t\t\t\n      SWAP1 \t\t\t\n      POP \t\t\t\n      SWAP2 \t\t\t\n      SWAP1 \t\t\t\n      POP \t\t\t\n      JUMP \t\t\t\n    .data\n"
}