{
	"compilerInput": "{\"language\":\"Solidity\",\"sources\":{\"users.sol\":{\"content\":\"// SPDX-License-Identifier: GPL-3.0\\r\\npragma solidity >=0.4.20 <0.9.0;\\r\\n\\r\\ncontract cryptoDoreaUsers {\\r\\n\\r\\n    mapping(address=>bool) private _paymentStatus;\\r\\n    mapping(address=>uint256) private _paymentAmount;\\r\\n\\r\\n    constructor()  {\\r\\n\\r\\n    }\\r\\n\\r\\n    /**\\r\\n    *\\r\\n    */\\r\\n    function paymentCheck(address usersAddress, uint256 _amount) public{\\r\\n\\r\\n        bool payCheck = _paymentStatus[usersAddress];\\r\\n\\r\\n        if(payCheck != true){\\r\\n\\r\\n            _paymentStatus[usersAddress] = true;\\r\\n            _paymentAmount[usersAddress] = _amount;\\r\\n\\r\\n        }else{\\r\\n            revert(\\\"user is already paid!\\\");\\r\\n        }\\r\\n\\r\\n    }\\r\\n\\r\\n    function userCheckStatus(address _receipent) public view returns (uint256){\\r\\n\\r\\n        return  _paymentAmount[_receipent];\\r\\n\\r\\n    }\\r\\n\\r\\n\\r\\n    // Transfer Ether to Loyal Customers\\r\\n    function pay(address _receipent) public payable{\\r\\n\\r\\n        // add function to check if user is paid or not\\r\\n        require(msg.value > 0, \\\"You must send some Ether\\\");\\r\\n        paymentCheck(_receipent, msg.value);\\r\\n\\r\\n    }\\r\\n\\r\\n    \\r\\n    // get balance of contract address\\r\\n    function getBalance() public view returns(uint256){\\r\\n        return address(this).balance;\\r\\n    }\\r\\n\\r\\n}\"}},\"settings\":{\"optimizer\":{\"enabled\":false,\"runs\":200},\"outputSelection\":{\"*\":{\"\":[\"ast\"],\"*\":[\"abi\",\"metadata\",\"devdoc\",\"userdoc\",\"storageLayout\",\"evm.legacyAssembly\",\"evm.bytecode\",\"evm.deployedBytecode\",\"evm.methodIdentifiers\",\"evm.gasEstimates\",\"evm.assembly\"]}},\"remappings\":[]}}",
	"name": "cryptoDoreaUsers",
	"bytecode": {
		"linkReferences": {},
		"object": "608060405234801561000f575f80fd5b506104f38061001d5f395ff3fe60806040526004361061003e575f3560e01c80630c11dedd1461004257806312065fe01461005e578063669b680c14610088578063857cf24e146100c4575b5f80fd5b61005c60048036038101906100579190610319565b6100ec565b005b348015610069575f80fd5b5061007261013b565b60405161007f919061035c565b60405180910390f35b348015610093575f80fd5b506100ae60048036038101906100a99190610319565b610142565b6040516100bb919061035c565b60405180910390f35b3480156100cf575f80fd5b506100ea60048036038101906100e5919061039f565b610188565b005b5f341161012e576040517f08c379a000000000000000000000000000000000000000000000000000000000815260040161012590610437565b60405180910390fd5b6101388134610188565b50565b5f47905090565b5f60015f8373ffffffffffffffffffffffffffffffffffffffff1673ffffffffffffffffffffffffffffffffffffffff1681526020019081526020015f20549050919050565b5f805f8473ffffffffffffffffffffffffffffffffffffffff1673ffffffffffffffffffffffffffffffffffffffff1681526020019081526020015f205f9054906101000a900460ff169050600115158115151461027b5760015f808573ffffffffffffffffffffffffffffffffffffffff1673ffffffffffffffffffffffffffffffffffffffff1681526020019081526020015f205f6101000a81548160ff0219169083151502179055508160015f8573ffffffffffffffffffffffffffffffffffffffff1673ffffffffffffffffffffffffffffffffffffffff1681526020019081526020015f20819055506102b6565b6040517f08c379a00000000000000000000000000000000000000000000000000000000081526004016102ad9061049f565b60405180910390fd5b505050565b5f80fd5b5f73ffffffffffffffffffffffffffffffffffffffff82169050919050565b5f6102e8826102bf565b9050919050565b6102f8816102de565b8114610302575f80fd5b50565b5f81359050610313816102ef565b92915050565b5f6020828403121561032e5761032d6102bb565b5b5f61033b84828501610305565b91505092915050565b5f819050919050565b61035681610344565b82525050565b5f60208201905061036f5f83018461034d565b92915050565b61037e81610344565b8114610388575f80fd5b50565b5f8135905061039981610375565b92915050565b5f80604083850312156103b5576103b46102bb565b5b5f6103c285828601610305565b92505060206103d38582860161038b565b9150509250929050565b5f82825260208201905092915050565b7f596f75206d7573742073656e6420736f6d6520457468657200000000000000005f82015250565b5f6104216018836103dd565b915061042c826103ed565b602082019050919050565b5f6020820190508181035f83015261044e81610415565b9050919050565b7f7573657220697320616c726561647920706169642100000000000000000000005f82015250565b5f6104896015836103dd565b915061049482610455565b602082019050919050565b5f6020820190508181035f8301526104b68161047d565b905091905056fea26469706673582212201618fc19e5d7e2c5823d454bc4bb30a6253cfadd23719aa68a9a27a931c691d764736f6c63430008160033",
		"opcodes": "PUSH1 0x80 PUSH1 0x40 MSTORE CALLVALUE DUP1 ISZERO PUSH2 0xF JUMPI PUSH0 DUP1 REVERT JUMPDEST POP PUSH2 0x4F3 DUP1 PUSH2 0x1D PUSH0 CODECOPY PUSH0 RETURN INVALID PUSH1 0x80 PUSH1 0x40 MSTORE PUSH1 0x4 CALLDATASIZE LT PUSH2 0x3E JUMPI PUSH0 CALLDATALOAD PUSH1 0xE0 SHR DUP1 PUSH4 0xC11DEDD EQ PUSH2 0x42 JUMPI DUP1 PUSH4 0x12065FE0 EQ PUSH2 0x5E JUMPI DUP1 PUSH4 0x669B680C EQ PUSH2 0x88 JUMPI DUP1 PUSH4 0x857CF24E EQ PUSH2 0xC4 JUMPI JUMPDEST PUSH0 DUP1 REVERT JUMPDEST PUSH2 0x5C PUSH1 0x4 DUP1 CALLDATASIZE SUB DUP2 ADD SWAP1 PUSH2 0x57 SWAP2 SWAP1 PUSH2 0x319 JUMP JUMPDEST PUSH2 0xEC JUMP JUMPDEST STOP JUMPDEST CALLVALUE DUP1 ISZERO PUSH2 0x69 JUMPI PUSH0 DUP1 REVERT JUMPDEST POP PUSH2 0x72 PUSH2 0x13B JUMP JUMPDEST PUSH1 0x40 MLOAD PUSH2 0x7F SWAP2 SWAP1 PUSH2 0x35C JUMP JUMPDEST PUSH1 0x40 MLOAD DUP1 SWAP2 SUB SWAP1 RETURN JUMPDEST CALLVALUE DUP1 ISZERO PUSH2 0x93 JUMPI PUSH0 DUP1 REVERT JUMPDEST POP PUSH2 0xAE PUSH1 0x4 DUP1 CALLDATASIZE SUB DUP2 ADD SWAP1 PUSH2 0xA9 SWAP2 SWAP1 PUSH2 0x319 JUMP JUMPDEST PUSH2 0x142 JUMP JUMPDEST PUSH1 0x40 MLOAD PUSH2 0xBB SWAP2 SWAP1 PUSH2 0x35C JUMP JUMPDEST PUSH1 0x40 MLOAD DUP1 SWAP2 SUB SWAP1 RETURN JUMPDEST CALLVALUE DUP1 ISZERO PUSH2 0xCF JUMPI PUSH0 DUP1 REVERT JUMPDEST POP PUSH2 0xEA PUSH1 0x4 DUP1 CALLDATASIZE SUB DUP2 ADD SWAP1 PUSH2 0xE5 SWAP2 SWAP1 PUSH2 0x39F JUMP JUMPDEST PUSH2 0x188 JUMP JUMPDEST STOP JUMPDEST PUSH0 CALLVALUE GT PUSH2 0x12E JUMPI PUSH1 0x40 MLOAD PUSH32 0x8C379A000000000000000000000000000000000000000000000000000000000 DUP2 MSTORE PUSH1 0x4 ADD PUSH2 0x125 SWAP1 PUSH2 0x437 JUMP JUMPDEST PUSH1 0x40 MLOAD DUP1 SWAP2 SUB SWAP1 REVERT JUMPDEST PUSH2 0x138 DUP2 CALLVALUE PUSH2 0x188 JUMP JUMPDEST POP JUMP JUMPDEST PUSH0 SELFBALANCE SWAP1 POP SWAP1 JUMP JUMPDEST PUSH0 PUSH1 0x1 PUSH0 DUP4 PUSH20 0xFFFFFFFFFFFFFFFFFFFFFFFFFFFFFFFFFFFFFFFF AND PUSH20 0xFFFFFFFFFFFFFFFFFFFFFFFFFFFFFFFFFFFFFFFF AND DUP2 MSTORE PUSH1 0x20 ADD SWAP1 DUP2 MSTORE PUSH1 0x20 ADD PUSH0 KECCAK256 SLOAD SWAP1 POP SWAP2 SWAP1 POP JUMP JUMPDEST PUSH0 DUP1 PUSH0 DUP5 PUSH20 0xFFFFFFFFFFFFFFFFFFFFFFFFFFFFFFFFFFFFFFFF AND PUSH20 0xFFFFFFFFFFFFFFFFFFFFFFFFFFFFFFFFFFFFFFFF AND DUP2 MSTORE PUSH1 0x20 ADD SWAP1 DUP2 MSTORE PUSH1 0x20 ADD PUSH0 KECCAK256 PUSH0 SWAP1 SLOAD SWAP1 PUSH2 0x100 EXP SWAP1 DIV PUSH1 0xFF AND SWAP1 POP PUSH1 0x1 ISZERO ISZERO DUP2 ISZERO ISZERO EQ PUSH2 0x27B JUMPI PUSH1 0x1 PUSH0 DUP1 DUP6 PUSH20 0xFFFFFFFFFFFFFFFFFFFFFFFFFFFFFFFFFFFFFFFF AND PUSH20 0xFFFFFFFFFFFFFFFFFFFFFFFFFFFFFFFFFFFFFFFF AND DUP2 MSTORE PUSH1 0x20 ADD SWAP1 DUP2 MSTORE PUSH1 0x20 ADD PUSH0 KECCAK256 PUSH0 PUSH2 0x100 EXP DUP2 SLOAD DUP2 PUSH1 0xFF MUL NOT AND SWAP1 DUP4 ISZERO ISZERO MUL OR SWAP1 SSTORE POP DUP2 PUSH1 0x1 PUSH0 DUP6 PUSH20 0xFFFFFFFFFFFFFFFFFFFFFFFFFFFFFFFFFFFFFFFF AND PUSH20 0xFFFFFFFFFFFFFFFFFFFFFFFFFFFFFFFFFFFFFFFF AND DUP2 MSTORE PUSH1 0x20 ADD SWAP1 DUP2 MSTORE PUSH1 0x20 ADD PUSH0 KECCAK256 DUP2 SWAP1 SSTORE POP PUSH2 0x2B6 JUMP JUMPDEST PUSH1 0x40 MLOAD PUSH32 0x8C379A000000000000000000000000000000000000000000000000000000000 DUP2 MSTORE PUSH1 0x4 ADD PUSH2 0x2AD SWAP1 PUSH2 0x49F JUMP JUMPDEST PUSH1 0x40 MLOAD DUP1 SWAP2 SUB SWAP1 REVERT JUMPDEST POP POP POP JUMP JUMPDEST PUSH0 DUP1 REVERT JUMPDEST PUSH0 PUSH20 0xFFFFFFFFFFFFFFFFFFFFFFFFFFFFFFFFFFFFFFFF DUP3 AND SWAP1 POP SWAP2 SWAP1 POP JUMP JUMPDEST PUSH0 PUSH2 0x2E8 DUP3 PUSH2 0x2BF JUMP JUMPDEST SWAP1 POP SWAP2 SWAP1 POP JUMP JUMPDEST PUSH2 0x2F8 DUP2 PUSH2 0x2DE JUMP JUMPDEST DUP2 EQ PUSH2 0x302 JUMPI PUSH0 DUP1 REVERT JUMPDEST POP JUMP JUMPDEST PUSH0 DUP2 CALLDATALOAD SWAP1 POP PUSH2 0x313 DUP2 PUSH2 0x2EF JUMP JUMPDEST SWAP3 SWAP2 POP POP JUMP JUMPDEST PUSH0 PUSH1 0x20 DUP3 DUP5 SUB SLT ISZERO PUSH2 0x32E JUMPI PUSH2 0x32D PUSH2 0x2BB JUMP JUMPDEST JUMPDEST PUSH0 PUSH2 0x33B DUP5 DUP3 DUP6 ADD PUSH2 0x305 JUMP JUMPDEST SWAP2 POP POP SWAP3 SWAP2 POP POP JUMP JUMPDEST PUSH0 DUP2 SWAP1 POP SWAP2 SWAP1 POP JUMP JUMPDEST PUSH2 0x356 DUP2 PUSH2 0x344 JUMP JUMPDEST DUP3 MSTORE POP POP JUMP JUMPDEST PUSH0 PUSH1 0x20 DUP3 ADD SWAP1 POP PUSH2 0x36F PUSH0 DUP4 ADD DUP5 PUSH2 0x34D JUMP JUMPDEST SWAP3 SWAP2 POP POP JUMP JUMPDEST PUSH2 0x37E DUP2 PUSH2 0x344 JUMP JUMPDEST DUP2 EQ PUSH2 0x388 JUMPI PUSH0 DUP1 REVERT JUMPDEST POP JUMP JUMPDEST PUSH0 DUP2 CALLDATALOAD SWAP1 POP PUSH2 0x399 DUP2 PUSH2 0x375 JUMP JUMPDEST SWAP3 SWAP2 POP POP JUMP JUMPDEST PUSH0 DUP1 PUSH1 0x40 DUP4 DUP6 SUB SLT ISZERO PUSH2 0x3B5 JUMPI PUSH2 0x3B4 PUSH2 0x2BB JUMP JUMPDEST JUMPDEST PUSH0 PUSH2 0x3C2 DUP6 DUP3 DUP7 ADD PUSH2 0x305 JUMP JUMPDEST SWAP3 POP POP PUSH1 0x20 PUSH2 0x3D3 DUP6 DUP3 DUP7 ADD PUSH2 0x38B JUMP JUMPDEST SWAP2 POP POP SWAP3 POP SWAP3 SWAP1 POP JUMP JUMPDEST PUSH0 DUP3 DUP3 MSTORE PUSH1 0x20 DUP3 ADD SWAP1 POP SWAP3 SWAP2 POP POP JUMP JUMPDEST PUSH32 0x596F75206D7573742073656E6420736F6D652045746865720000000000000000 PUSH0 DUP3 ADD MSTORE POP JUMP JUMPDEST PUSH0 PUSH2 0x421 PUSH1 0x18 DUP4 PUSH2 0x3DD JUMP JUMPDEST SWAP2 POP PUSH2 0x42C DUP3 PUSH2 0x3ED JUMP JUMPDEST PUSH1 0x20 DUP3 ADD SWAP1 POP SWAP2 SWAP1 POP JUMP JUMPDEST PUSH0 PUSH1 0x20 DUP3 ADD SWAP1 POP DUP2 DUP2 SUB PUSH0 DUP4 ADD MSTORE PUSH2 0x44E DUP2 PUSH2 0x415 JUMP JUMPDEST SWAP1 POP SWAP2 SWAP1 POP JUMP JUMPDEST PUSH32 0x7573657220697320616C72656164792070616964210000000000000000000000 PUSH0 DUP3 ADD MSTORE POP JUMP JUMPDEST PUSH0 PUSH2 0x489 PUSH1 0x15 DUP4 PUSH2 0x3DD JUMP JUMPDEST SWAP2 POP PUSH2 0x494 DUP3 PUSH2 0x455 JUMP JUMPDEST PUSH1 0x20 DUP3 ADD SWAP1 POP SWAP2 SWAP1 POP JUMP JUMPDEST PUSH0 PUSH1 0x20 DUP3 ADD SWAP1 POP DUP2 DUP2 SUB PUSH0 DUP4 ADD MSTORE PUSH2 0x4B6 DUP2 PUSH2 0x47D JUMP JUMPDEST SWAP1 POP SWAP2 SWAP1 POP JUMP INVALID LOG2 PUSH5 0x6970667358 0x22 SLT KECCAK256 AND XOR 0xFC NOT 0xE5 0xD7 0xE2 0xC5 DUP3 RETURNDATASIZE GASLIMIT 0x4B 0xC4 0xBB ADDRESS 0xA6 0x25 EXTCODECOPY STATICCALL 0xDD 0x23 PUSH18 0x9AA68A9A27A931C691D764736F6C63430008 AND STOP CALLER "
	},
	"abi": [
		{
			"inputs": [],
			"stateMutability": "nonpayable",
			"type": "constructor"
		},
		{
			"inputs": [],
			"name": "getBalance",
			"outputs": [
				{
					"internalType": "uint256",
					"name": "",
					"type": "uint256"
				}
			],
			"stateMutability": "view",
			"type": "function"
		},
		{
			"inputs": [
				{
					"internalType": "address",
					"name": "_receipent",
					"type": "address"
				}
			],
			"name": "pay",
			"outputs": [],
			"stateMutability": "payable",
			"type": "function"
		},
		{
			"inputs": [
				{
					"internalType": "address",
					"name": "usersAddress",
					"type": "address"
				},
				{
					"internalType": "uint256",
					"name": "_amount",
					"type": "uint256"
				}
			],
			"name": "paymentCheck",
			"outputs": [],
			"stateMutability": "nonpayable",
			"type": "function"
		},
		{
			"inputs": [
				{
					"internalType": "address",
					"name": "_receipent",
					"type": "address"
				}
			],
			"name": "userCheckStatus",
			"outputs": [
				{
					"internalType": "uint256",
					"name": "",
					"type": "uint256"
				}
			],
			"stateMutability": "view",
			"type": "function"
		}
	],
	"storageLayout": {
		"storage": [
			{
				"astId": 5,
				"contract": "users.sol:cryptoDoreaUsers",
				"label": "_paymentStatus",
				"offset": 0,
				"slot": "0",
				"type": "t_mapping(t_address,t_bool)"
			},
			{
				"astId": 9,
				"contract": "users.sol:cryptoDoreaUsers",
				"label": "_paymentAmount",
				"offset": 0,
				"slot": "1",
				"type": "t_mapping(t_address,t_uint256)"
			}
		],
		"types": {
			"t_address": {
				"encoding": "inplace",
				"label": "address",
				"numberOfBytes": "20"
			},
			"t_bool": {
				"encoding": "inplace",
				"label": "bool",
				"numberOfBytes": "1"
			},
			"t_mapping(t_address,t_bool)": {
				"encoding": "mapping",
				"key": "t_address",
				"label": "mapping(address => bool)",
				"numberOfBytes": "32",
				"value": "t_bool"
			},
			"t_mapping(t_address,t_uint256)": {
				"encoding": "mapping",
				"key": "t_address",
				"label": "mapping(address => uint256)",
				"numberOfBytes": "32",
				"value": "t_uint256"
			},
			"t_uint256": {
				"encoding": "inplace",
				"label": "uint256",
				"numberOfBytes": "32"
			}
		}
	},
	"web3Deploy": "var cryptodoreausersContract = new web3.eth.Contract([{\"inputs\":[],\"stateMutability\":\"nonpayable\",\"type\":\"constructor\"},{\"inputs\":[],\"name\":\"getBalance\",\"outputs\":[{\"internalType\":\"uint256\",\"name\":\"\",\"type\":\"uint256\"}],\"stateMutability\":\"view\",\"type\":\"function\"},{\"inputs\":[{\"internalType\":\"address\",\"name\":\"_receipent\",\"type\":\"address\"}],\"name\":\"pay\",\"outputs\":[],\"stateMutability\":\"payable\",\"type\":\"function\"},{\"inputs\":[{\"internalType\":\"address\",\"name\":\"usersAddress\",\"type\":\"address\"},{\"internalType\":\"uint256\",\"name\":\"_amount\",\"type\":\"uint256\"}],\"name\":\"paymentCheck\",\"outputs\":[],\"stateMutability\":\"nonpayable\",\"type\":\"function\"},{\"inputs\":[{\"internalType\":\"address\",\"name\":\"_receipent\",\"type\":\"address\"}],\"name\":\"userCheckStatus\",\"outputs\":[{\"internalType\":\"uint256\",\"name\":\"\",\"type\":\"uint256\"}],\"stateMutability\":\"view\",\"type\":\"function\"}]);\nvar cryptodoreausers = cryptodoreausersContract.deploy({\n     data: '0x608060405234801561000f575f80fd5b506104f38061001d5f395ff3fe60806040526004361061003e575f3560e01c80630c11dedd1461004257806312065fe01461005e578063669b680c14610088578063857cf24e146100c4575b5f80fd5b61005c60048036038101906100579190610319565b6100ec565b005b348015610069575f80fd5b5061007261013b565b60405161007f919061035c565b60405180910390f35b348015610093575f80fd5b506100ae60048036038101906100a99190610319565b610142565b6040516100bb919061035c565b60405180910390f35b3480156100cf575f80fd5b506100ea60048036038101906100e5919061039f565b610188565b005b5f341161012e576040517f08c379a000000000000000000000000000000000000000000000000000000000815260040161012590610437565b60405180910390fd5b6101388134610188565b50565b5f47905090565b5f60015f8373ffffffffffffffffffffffffffffffffffffffff1673ffffffffffffffffffffffffffffffffffffffff1681526020019081526020015f20549050919050565b5f805f8473ffffffffffffffffffffffffffffffffffffffff1673ffffffffffffffffffffffffffffffffffffffff1681526020019081526020015f205f9054906101000a900460ff169050600115158115151461027b5760015f808573ffffffffffffffffffffffffffffffffffffffff1673ffffffffffffffffffffffffffffffffffffffff1681526020019081526020015f205f6101000a81548160ff0219169083151502179055508160015f8573ffffffffffffffffffffffffffffffffffffffff1673ffffffffffffffffffffffffffffffffffffffff1681526020019081526020015f20819055506102b6565b6040517f08c379a00000000000000000000000000000000000000000000000000000000081526004016102ad9061049f565b60405180910390fd5b505050565b5f80fd5b5f73ffffffffffffffffffffffffffffffffffffffff82169050919050565b5f6102e8826102bf565b9050919050565b6102f8816102de565b8114610302575f80fd5b50565b5f81359050610313816102ef565b92915050565b5f6020828403121561032e5761032d6102bb565b5b5f61033b84828501610305565b91505092915050565b5f819050919050565b61035681610344565b82525050565b5f60208201905061036f5f83018461034d565b92915050565b61037e81610344565b8114610388575f80fd5b50565b5f8135905061039981610375565b92915050565b5f80604083850312156103b5576103b46102bb565b5b5f6103c285828601610305565b92505060206103d38582860161038b565b9150509250929050565b5f82825260208201905092915050565b7f596f75206d7573742073656e6420736f6d6520457468657200000000000000005f82015250565b5f6104216018836103dd565b915061042c826103ed565b602082019050919050565b5f6020820190508181035f83015261044e81610415565b9050919050565b7f7573657220697320616c726561647920706169642100000000000000000000005f82015250565b5f6104896015836103dd565b915061049482610455565b602082019050919050565b5f6020820190508181035f8301526104b68161047d565b905091905056fea26469706673582212201618fc19e5d7e2c5823d454bc4bb30a6253cfadd23719aa68a9a27a931c691d764736f6c63430008160033', \n     arguments: [\n     ]\n}).send({\n     from: web3.eth.accounts[0], \n     gas: '4700000'\n   }, function (e, contract){\n    console.log(e, contract);\n    if (typeof contract.address !== 'undefined') {\n         console.log('Contract mined! address: ' + contract.address + ' transactionHash: ' + contract.transactionHash);\n    }\n })",
	"functionHashes": {
		"12065fe0": "getBalance()",
		"0c11dedd": "pay(address)",
		"857cf24e": "paymentCheck(address,uint256)",
		"669b680c": "userCheckStatus(address)"
	},
	"gasEstimates": {
		"Creation": {
			"codeDepositCost": "253400",
			"executionCost": "292",
			"totalCost": "253692"
		},
		"External": {
			"getBalance()": "334",
			"pay(address)": "49294",
			"paymentCheck(address,uint256)": "49501",
			"userCheckStatus(address)": "2851"
		}
	},
	"devdoc": {
		"kind": "dev",
		"methods": {},
		"version": 1
	},
	"userdoc": {
		"kind": "user",
		"methods": {},
		"version": 1
	},
	"Runtime Bytecode": {
		"immutableReferences": {},
		"linkReferences": {},
		"object": "60806040526004361061003e575f3560e01c80630c11dedd1461004257806312065fe01461005e578063669b680c14610088578063857cf24e146100c4575b5f80fd5b61005c60048036038101906100579190610319565b6100ec565b005b348015610069575f80fd5b5061007261013b565b60405161007f919061035c565b60405180910390f35b348015610093575f80fd5b506100ae60048036038101906100a99190610319565b610142565b6040516100bb919061035c565b60405180910390f35b3480156100cf575f80fd5b506100ea60048036038101906100e5919061039f565b610188565b005b5f341161012e576040517f08c379a000000000000000000000000000000000000000000000000000000000815260040161012590610437565b60405180910390fd5b6101388134610188565b50565b5f47905090565b5f60015f8373ffffffffffffffffffffffffffffffffffffffff1673ffffffffffffffffffffffffffffffffffffffff1681526020019081526020015f20549050919050565b5f805f8473ffffffffffffffffffffffffffffffffffffffff1673ffffffffffffffffffffffffffffffffffffffff1681526020019081526020015f205f9054906101000a900460ff169050600115158115151461027b5760015f808573ffffffffffffffffffffffffffffffffffffffff1673ffffffffffffffffffffffffffffffffffffffff1681526020019081526020015f205f6101000a81548160ff0219169083151502179055508160015f8573ffffffffffffffffffffffffffffffffffffffff1673ffffffffffffffffffffffffffffffffffffffff1681526020019081526020015f20819055506102b6565b6040517f08c379a00000000000000000000000000000000000000000000000000000000081526004016102ad9061049f565b60405180910390fd5b505050565b5f80fd5b5f73ffffffffffffffffffffffffffffffffffffffff82169050919050565b5f6102e8826102bf565b9050919050565b6102f8816102de565b8114610302575f80fd5b50565b5f81359050610313816102ef565b92915050565b5f6020828403121561032e5761032d6102bb565b5b5f61033b84828501610305565b91505092915050565b5f819050919050565b61035681610344565b82525050565b5f60208201905061036f5f83018461034d565b92915050565b61037e81610344565b8114610388575f80fd5b50565b5f8135905061039981610375565b92915050565b5f80604083850312156103b5576103b46102bb565b5b5f6103c285828601610305565b92505060206103d38582860161038b565b9150509250929050565b5f82825260208201905092915050565b7f596f75206d7573742073656e6420736f6d6520457468657200000000000000005f82015250565b5f6104216018836103dd565b915061042c826103ed565b602082019050919050565b5f6020820190508181035f83015261044e81610415565b9050919050565b7f7573657220697320616c726561647920706169642100000000000000000000005f82015250565b5f6104896015836103dd565b915061049482610455565b602082019050919050565b5f6020820190508181035f8301526104b68161047d565b905091905056fea26469706673582212201618fc19e5d7e2c5823d454bc4bb30a6253cfadd23719aa68a9a27a931c691d764736f6c63430008160033",
		"opcodes": "PUSH1 0x80 PUSH1 0x40 MSTORE PUSH1 0x4 CALLDATASIZE LT PUSH2 0x3E JUMPI PUSH0 CALLDATALOAD PUSH1 0xE0 SHR DUP1 PUSH4 0xC11DEDD EQ PUSH2 0x42 JUMPI DUP1 PUSH4 0x12065FE0 EQ PUSH2 0x5E JUMPI DUP1 PUSH4 0x669B680C EQ PUSH2 0x88 JUMPI DUP1 PUSH4 0x857CF24E EQ PUSH2 0xC4 JUMPI JUMPDEST PUSH0 DUP1 REVERT JUMPDEST PUSH2 0x5C PUSH1 0x4 DUP1 CALLDATASIZE SUB DUP2 ADD SWAP1 PUSH2 0x57 SWAP2 SWAP1 PUSH2 0x319 JUMP JUMPDEST PUSH2 0xEC JUMP JUMPDEST STOP JUMPDEST CALLVALUE DUP1 ISZERO PUSH2 0x69 JUMPI PUSH0 DUP1 REVERT JUMPDEST POP PUSH2 0x72 PUSH2 0x13B JUMP JUMPDEST PUSH1 0x40 MLOAD PUSH2 0x7F SWAP2 SWAP1 PUSH2 0x35C JUMP JUMPDEST PUSH1 0x40 MLOAD DUP1 SWAP2 SUB SWAP1 RETURN JUMPDEST CALLVALUE DUP1 ISZERO PUSH2 0x93 JUMPI PUSH0 DUP1 REVERT JUMPDEST POP PUSH2 0xAE PUSH1 0x4 DUP1 CALLDATASIZE SUB DUP2 ADD SWAP1 PUSH2 0xA9 SWAP2 SWAP1 PUSH2 0x319 JUMP JUMPDEST PUSH2 0x142 JUMP JUMPDEST PUSH1 0x40 MLOAD PUSH2 0xBB SWAP2 SWAP1 PUSH2 0x35C JUMP JUMPDEST PUSH1 0x40 MLOAD DUP1 SWAP2 SUB SWAP1 RETURN JUMPDEST CALLVALUE DUP1 ISZERO PUSH2 0xCF JUMPI PUSH0 DUP1 REVERT JUMPDEST POP PUSH2 0xEA PUSH1 0x4 DUP1 CALLDATASIZE SUB DUP2 ADD SWAP1 PUSH2 0xE5 SWAP2 SWAP1 PUSH2 0x39F JUMP JUMPDEST PUSH2 0x188 JUMP JUMPDEST STOP JUMPDEST PUSH0 CALLVALUE GT PUSH2 0x12E JUMPI PUSH1 0x40 MLOAD PUSH32 0x8C379A000000000000000000000000000000000000000000000000000000000 DUP2 MSTORE PUSH1 0x4 ADD PUSH2 0x125 SWAP1 PUSH2 0x437 JUMP JUMPDEST PUSH1 0x40 MLOAD DUP1 SWAP2 SUB SWAP1 REVERT JUMPDEST PUSH2 0x138 DUP2 CALLVALUE PUSH2 0x188 JUMP JUMPDEST POP JUMP JUMPDEST PUSH0 SELFBALANCE SWAP1 POP SWAP1 JUMP JUMPDEST PUSH0 PUSH1 0x1 PUSH0 DUP4 PUSH20 0xFFFFFFFFFFFFFFFFFFFFFFFFFFFFFFFFFFFFFFFF AND PUSH20 0xFFFFFFFFFFFFFFFFFFFFFFFFFFFFFFFFFFFFFFFF AND DUP2 MSTORE PUSH1 0x20 ADD SWAP1 DUP2 MSTORE PUSH1 0x20 ADD PUSH0 KECCAK256 SLOAD SWAP1 POP SWAP2 SWAP1 POP JUMP JUMPDEST PUSH0 DUP1 PUSH0 DUP5 PUSH20 0xFFFFFFFFFFFFFFFFFFFFFFFFFFFFFFFFFFFFFFFF AND PUSH20 0xFFFFFFFFFFFFFFFFFFFFFFFFFFFFFFFFFFFFFFFF AND DUP2 MSTORE PUSH1 0x20 ADD SWAP1 DUP2 MSTORE PUSH1 0x20 ADD PUSH0 KECCAK256 PUSH0 SWAP1 SLOAD SWAP1 PUSH2 0x100 EXP SWAP1 DIV PUSH1 0xFF AND SWAP1 POP PUSH1 0x1 ISZERO ISZERO DUP2 ISZERO ISZERO EQ PUSH2 0x27B JUMPI PUSH1 0x1 PUSH0 DUP1 DUP6 PUSH20 0xFFFFFFFFFFFFFFFFFFFFFFFFFFFFFFFFFFFFFFFF AND PUSH20 0xFFFFFFFFFFFFFFFFFFFFFFFFFFFFFFFFFFFFFFFF AND DUP2 MSTORE PUSH1 0x20 ADD SWAP1 DUP2 MSTORE PUSH1 0x20 ADD PUSH0 KECCAK256 PUSH0 PUSH2 0x100 EXP DUP2 SLOAD DUP2 PUSH1 0xFF MUL NOT AND SWAP1 DUP4 ISZERO ISZERO MUL OR SWAP1 SSTORE POP DUP2 PUSH1 0x1 PUSH0 DUP6 PUSH20 0xFFFFFFFFFFFFFFFFFFFFFFFFFFFFFFFFFFFFFFFF AND PUSH20 0xFFFFFFFFFFFFFFFFFFFFFFFFFFFFFFFFFFFFFFFF AND DUP2 MSTORE PUSH1 0x20 ADD SWAP1 DUP2 MSTORE PUSH1 0x20 ADD PUSH0 KECCAK256 DUP2 SWAP1 SSTORE POP PUSH2 0x2B6 JUMP JUMPDEST PUSH1 0x40 MLOAD PUSH32 0x8C379A000000000000000000000000000000000000000000000000000000000 DUP2 MSTORE PUSH1 0x4 ADD PUSH2 0x2AD SWAP1 PUSH2 0x49F JUMP JUMPDEST PUSH1 0x40 MLOAD DUP1 SWAP2 SUB SWAP1 REVERT JUMPDEST POP POP POP JUMP JUMPDEST PUSH0 DUP1 REVERT JUMPDEST PUSH0 PUSH20 0xFFFFFFFFFFFFFFFFFFFFFFFFFFFFFFFFFFFFFFFF DUP3 AND SWAP1 POP SWAP2 SWAP1 POP JUMP JUMPDEST PUSH0 PUSH2 0x2E8 DUP3 PUSH2 0x2BF JUMP JUMPDEST SWAP1 POP SWAP2 SWAP1 POP JUMP JUMPDEST PUSH2 0x2F8 DUP2 PUSH2 0x2DE JUMP JUMPDEST DUP2 EQ PUSH2 0x302 JUMPI PUSH0 DUP1 REVERT JUMPDEST POP JUMP JUMPDEST PUSH0 DUP2 CALLDATALOAD SWAP1 POP PUSH2 0x313 DUP2 PUSH2 0x2EF JUMP JUMPDEST SWAP3 SWAP2 POP POP JUMP JUMPDEST PUSH0 PUSH1 0x20 DUP3 DUP5 SUB SLT ISZERO PUSH2 0x32E JUMPI PUSH2 0x32D PUSH2 0x2BB JUMP JUMPDEST JUMPDEST PUSH0 PUSH2 0x33B DUP5 DUP3 DUP6 ADD PUSH2 0x305 JUMP JUMPDEST SWAP2 POP POP SWAP3 SWAP2 POP POP JUMP JUMPDEST PUSH0 DUP2 SWAP1 POP SWAP2 SWAP1 POP JUMP JUMPDEST PUSH2 0x356 DUP2 PUSH2 0x344 JUMP JUMPDEST DUP3 MSTORE POP POP JUMP JUMPDEST PUSH0 PUSH1 0x20 DUP3 ADD SWAP1 POP PUSH2 0x36F PUSH0 DUP4 ADD DUP5 PUSH2 0x34D JUMP JUMPDEST SWAP3 SWAP2 POP POP JUMP JUMPDEST PUSH2 0x37E DUP2 PUSH2 0x344 JUMP JUMPDEST DUP2 EQ PUSH2 0x388 JUMPI PUSH0 DUP1 REVERT JUMPDEST POP JUMP JUMPDEST PUSH0 DUP2 CALLDATALOAD SWAP1 POP PUSH2 0x399 DUP2 PUSH2 0x375 JUMP JUMPDEST SWAP3 SWAP2 POP POP JUMP JUMPDEST PUSH0 DUP1 PUSH1 0x40 DUP4 DUP6 SUB SLT ISZERO PUSH2 0x3B5 JUMPI PUSH2 0x3B4 PUSH2 0x2BB JUMP JUMPDEST JUMPDEST PUSH0 PUSH2 0x3C2 DUP6 DUP3 DUP7 ADD PUSH2 0x305 JUMP JUMPDEST SWAP3 POP POP PUSH1 0x20 PUSH2 0x3D3 DUP6 DUP3 DUP7 ADD PUSH2 0x38B JUMP JUMPDEST SWAP2 POP POP SWAP3 POP SWAP3 SWAP1 POP JUMP JUMPDEST PUSH0 DUP3 DUP3 MSTORE PUSH1 0x20 DUP3 ADD SWAP1 POP SWAP3 SWAP2 POP POP JUMP JUMPDEST PUSH32 0x596F75206D7573742073656E6420736F6D652045746865720000000000000000 PUSH0 DUP3 ADD MSTORE POP JUMP JUMPDEST PUSH0 PUSH2 0x421 PUSH1 0x18 DUP4 PUSH2 0x3DD JUMP JUMPDEST SWAP2 POP PUSH2 0x42C DUP3 PUSH2 0x3ED JUMP JUMPDEST PUSH1 0x20 DUP3 ADD SWAP1 POP SWAP2 SWAP1 POP JUMP JUMPDEST PUSH0 PUSH1 0x20 DUP3 ADD SWAP1 POP DUP2 DUP2 SUB PUSH0 DUP4 ADD MSTORE PUSH2 0x44E DUP2 PUSH2 0x415 JUMP JUMPDEST SWAP1 POP SWAP2 SWAP1 POP JUMP JUMPDEST PUSH32 0x7573657220697320616C72656164792070616964210000000000000000000000 PUSH0 DUP3 ADD MSTORE POP JUMP JUMPDEST PUSH0 PUSH2 0x489 PUSH1 0x15 DUP4 PUSH2 0x3DD JUMP JUMPDEST SWAP2 POP PUSH2 0x494 DUP3 PUSH2 0x455 JUMP JUMPDEST PUSH1 0x20 DUP3 ADD SWAP1 POP SWAP2 SWAP1 POP JUMP JUMPDEST PUSH0 PUSH1 0x20 DUP3 ADD SWAP1 POP DUP2 DUP2 SUB PUSH0 DUP4 ADD MSTORE PUSH2 0x4B6 DUP2 PUSH2 0x47D JUMP JUMPDEST SWAP1 POP SWAP2 SWAP1 POP JUMP INVALID LOG2 PUSH5 0x6970667358 0x22 SLT KECCAK256 AND XOR 0xFC NOT 0xE5 0xD7 0xE2 0xC5 DUP3 RETURNDATASIZE GASLIMIT 0x4B 0xC4 0xBB ADDRESS 0xA6 0x25 EXTCODECOPY STATICCALL 0xDD 0x23 PUSH18 0x9AA68A9A27A931C691D764736F6C63430008 AND STOP CALLER "
	},
	"Assembly": ".code\n  PUSH 80\t\t\tcontract cryptoDoreaUsers {\\r\\...\n  PUSH 40\t\t\tcontract cryptoDoreaUsers {\\r\\...\n  MSTORE \t\t\tcontract cryptoDoreaUsers {\\r\\...\n  CALLVALUE \t\t\tconstructor()  {\\r\\n\\r\\n    }\n  DUP1 \t\t\tconstructor()  {\\r\\n\\r\\n    }\n  ISZERO \t\t\tconstructor()  {\\r\\n\\r\\n    }\n  PUSH [tag] 1\t\t\tconstructor()  {\\r\\n\\r\\n    }\n  JUMPI \t\t\tconstructor()  {\\r\\n\\r\\n    }\n  PUSH 0\t\t\tconstructor()  {\\r\\n\\r\\n    }\n  DUP1 \t\t\tconstructor()  {\\r\\n\\r\\n    }\n  REVERT \t\t\tconstructor()  {\\r\\n\\r\\n    }\ntag 1\t\t\tconstructor()  {\\r\\n\\r\\n    }\n  JUMPDEST \t\t\tconstructor()  {\\r\\n\\r\\n    }\n  POP \t\t\tconstructor()  {\\r\\n\\r\\n    }\n  PUSH #[$] 0000000000000000000000000000000000000000000000000000000000000000\t\t\tcontract cryptoDoreaUsers {\\r\\...\n  DUP1 \t\t\tcontract cryptoDoreaUsers {\\r\\...\n  PUSH [$] 0000000000000000000000000000000000000000000000000000000000000000\t\t\tcontract cryptoDoreaUsers {\\r\\...\n  PUSH 0\t\t\tcontract cryptoDoreaUsers {\\r\\...\n  CODECOPY \t\t\tcontract cryptoDoreaUsers {\\r\\...\n  PUSH 0\t\t\tcontract cryptoDoreaUsers {\\r\\...\n  RETURN \t\t\tcontract cryptoDoreaUsers {\\r\\...\n.data\n  0:\n    .code\n      PUSH 80\t\t\tcontract cryptoDoreaUsers {\\r\\...\n      PUSH 40\t\t\tcontract cryptoDoreaUsers {\\r\\...\n      MSTORE \t\t\tcontract cryptoDoreaUsers {\\r\\...\n      PUSH 4\t\t\tcontract cryptoDoreaUsers {\\r\\...\n      CALLDATASIZE \t\t\tcontract cryptoDoreaUsers {\\r\\...\n      LT \t\t\tcontract cryptoDoreaUsers {\\r\\...\n      PUSH [tag] 1\t\t\tcontract cryptoDoreaUsers {\\r\\...\n      JUMPI \t\t\tcontract cryptoDoreaUsers {\\r\\...\n      PUSH 0\t\t\tcontract cryptoDoreaUsers {\\r\\...\n      CALLDATALOAD \t\t\tcontract cryptoDoreaUsers {\\r\\...\n      PUSH E0\t\t\tcontract cryptoDoreaUsers {\\r\\...\n      SHR \t\t\tcontract cryptoDoreaUsers {\\r\\...\n      DUP1 \t\t\tcontract cryptoDoreaUsers {\\r\\...\n      PUSH C11DEDD\t\t\tcontract cryptoDoreaUsers {\\r\\...\n      EQ \t\t\tcontract cryptoDoreaUsers {\\r\\...\n      PUSH [tag] 2\t\t\tcontract cryptoDoreaUsers {\\r\\...\n      JUMPI \t\t\tcontract cryptoDoreaUsers {\\r\\...\n      DUP1 \t\t\tcontract cryptoDoreaUsers {\\r\\...\n      PUSH 12065FE0\t\t\tcontract cryptoDoreaUsers {\\r\\...\n      EQ \t\t\tcontract cryptoDoreaUsers {\\r\\...\n      PUSH [tag] 3\t\t\tcontract cryptoDoreaUsers {\\r\\...\n      JUMPI \t\t\tcontract cryptoDoreaUsers {\\r\\...\n      DUP1 \t\t\tcontract cryptoDoreaUsers {\\r\\...\n      PUSH 669B680C\t\t\tcontract cryptoDoreaUsers {\\r\\...\n      EQ \t\t\tcontract cryptoDoreaUsers {\\r\\...\n      PUSH [tag] 4\t\t\tcontract cryptoDoreaUsers {\\r\\...\n      JUMPI \t\t\tcontract cryptoDoreaUsers {\\r\\...\n      DUP1 \t\t\tcontract cryptoDoreaUsers {\\r\\...\n      PUSH 857CF24E\t\t\tcontract cryptoDoreaUsers {\\r\\...\n      EQ \t\t\tcontract cryptoDoreaUsers {\\r\\...\n      PUSH [tag] 5\t\t\tcontract cryptoDoreaUsers {\\r\\...\n      JUMPI \t\t\tcontract cryptoDoreaUsers {\\r\\...\n    tag 1\t\t\tcontract cryptoDoreaUsers {\\r\\...\n      JUMPDEST \t\t\tcontract cryptoDoreaUsers {\\r\\...\n      PUSH 0\t\t\tcontract cryptoDoreaUsers {\\r\\...\n      DUP1 \t\t\tcontract cryptoDoreaUsers {\\r\\...\n      REVERT \t\t\tcontract cryptoDoreaUsers {\\r\\...\n    tag 2\t\t\tfunction pay(address _receipen...\n      JUMPDEST \t\t\tfunction pay(address _receipen...\n      PUSH [tag] 6\t\t\tfunction pay(address _receipen...\n      PUSH 4\t\t\tfunction pay(address _receipen...\n      DUP1 \t\t\tfunction pay(address _receipen...\n      CALLDATASIZE \t\t\tfunction pay(address _receipen...\n      SUB \t\t\tfunction pay(address _receipen...\n      DUP2 \t\t\tfunction pay(address _receipen...\n      ADD \t\t\tfunction pay(address _receipen...\n      SWAP1 \t\t\tfunction pay(address _receipen...\n      PUSH [tag] 7\t\t\tfunction pay(address _receipen...\n      SWAP2 \t\t\tfunction pay(address _receipen...\n      SWAP1 \t\t\tfunction pay(address _receipen...\n      PUSH [tag] 8\t\t\tfunction pay(address _receipen...\n      JUMP \t\t\tfunction pay(address _receipen...\n    tag 7\t\t\tfunction pay(address _receipen...\n      JUMPDEST \t\t\tfunction pay(address _receipen...\n      PUSH [tag] 9\t\t\tfunction pay(address _receipen...\n      JUMP \t\t\tfunction pay(address _receipen...\n    tag 6\t\t\tfunction pay(address _receipen...\n      JUMPDEST \t\t\tfunction pay(address _receipen...\n      STOP \t\t\tfunction pay(address _receipen...\n    tag 3\t\t\tfunction getBalance() public v...\n      JUMPDEST \t\t\tfunction getBalance() public v...\n      CALLVALUE \t\t\tfunction getBalance() public v...\n      DUP1 \t\t\tfunction getBalance() public v...\n      ISZERO \t\t\tfunction getBalance() public v...\n      PUSH [tag] 10\t\t\tfunction getBalance() public v...\n      JUMPI \t\t\tfunction getBalance() public v...\n      PUSH 0\t\t\tfunction getBalance() public v...\n      DUP1 \t\t\tfunction getBalance() public v...\n      REVERT \t\t\tfunction getBalance() public v...\n    tag 10\t\t\tfunction getBalance() public v...\n      JUMPDEST \t\t\tfunction getBalance() public v...\n      POP \t\t\tfunction getBalance() public v...\n      PUSH [tag] 11\t\t\tfunction getBalance() public v...\n      PUSH [tag] 12\t\t\tfunction getBalance() public v...\n      JUMP \t\t\tfunction getBalance() public v...\n    tag 11\t\t\tfunction getBalance() public v...\n      JUMPDEST \t\t\tfunction getBalance() public v...\n      PUSH 40\t\t\tfunction getBalance() public v...\n      MLOAD \t\t\tfunction getBalance() public v...\n      PUSH [tag] 13\t\t\tfunction getBalance() public v...\n      SWAP2 \t\t\tfunction getBalance() public v...\n      SWAP1 \t\t\tfunction getBalance() public v...\n      PUSH [tag] 14\t\t\tfunction getBalance() public v...\n      JUMP \t\t\tfunction getBalance() public v...\n    tag 13\t\t\tfunction getBalance() public v...\n      JUMPDEST \t\t\tfunction getBalance() public v...\n      PUSH 40\t\t\tfunction getBalance() public v...\n      MLOAD \t\t\tfunction getBalance() public v...\n      DUP1 \t\t\tfunction getBalance() public v...\n      SWAP2 \t\t\tfunction getBalance() public v...\n      SUB \t\t\tfunction getBalance() public v...\n      SWAP1 \t\t\tfunction getBalance() public v...\n      RETURN \t\t\tfunction getBalance() public v...\n    tag 4\t\t\tfunction userCheckStatus(addre...\n      JUMPDEST \t\t\tfunction userCheckStatus(addre...\n      CALLVALUE \t\t\tfunction userCheckStatus(addre...\n      DUP1 \t\t\tfunction userCheckStatus(addre...\n      ISZERO \t\t\tfunction userCheckStatus(addre...\n      PUSH [tag] 15\t\t\tfunction userCheckStatus(addre...\n      JUMPI \t\t\tfunction userCheckStatus(addre...\n      PUSH 0\t\t\tfunction userCheckStatus(addre...\n      DUP1 \t\t\tfunction userCheckStatus(addre...\n      REVERT \t\t\tfunction userCheckStatus(addre...\n    tag 15\t\t\tfunction userCheckStatus(addre...\n      JUMPDEST \t\t\tfunction userCheckStatus(addre...\n      POP \t\t\tfunction userCheckStatus(addre...\n      PUSH [tag] 16\t\t\tfunction userCheckStatus(addre...\n      PUSH 4\t\t\tfunction userCheckStatus(addre...\n      DUP1 \t\t\tfunction userCheckStatus(addre...\n      CALLDATASIZE \t\t\tfunction userCheckStatus(addre...\n      SUB \t\t\tfunction userCheckStatus(addre...\n      DUP2 \t\t\tfunction userCheckStatus(addre...\n      ADD \t\t\tfunction userCheckStatus(addre...\n      SWAP1 \t\t\tfunction userCheckStatus(addre...\n      PUSH [tag] 17\t\t\tfunction userCheckStatus(addre...\n      SWAP2 \t\t\tfunction userCheckStatus(addre...\n      SWAP1 \t\t\tfunction userCheckStatus(addre...\n      PUSH [tag] 8\t\t\tfunction userCheckStatus(addre...\n      JUMP \t\t\tfunction userCheckStatus(addre...\n    tag 17\t\t\tfunction userCheckStatus(addre...\n      JUMPDEST \t\t\tfunction userCheckStatus(addre...\n      PUSH [tag] 18\t\t\tfunction userCheckStatus(addre...\n      JUMP \t\t\tfunction userCheckStatus(addre...\n    tag 16\t\t\tfunction userCheckStatus(addre...\n      JUMPDEST \t\t\tfunction userCheckStatus(addre...\n      PUSH 40\t\t\tfunction userCheckStatus(addre...\n      MLOAD \t\t\tfunction userCheckStatus(addre...\n      PUSH [tag] 19\t\t\tfunction userCheckStatus(addre...\n      SWAP2 \t\t\tfunction userCheckStatus(addre...\n      SWAP1 \t\t\tfunction userCheckStatus(addre...\n      PUSH [tag] 14\t\t\tfunction userCheckStatus(addre...\n      JUMP \t\t\tfunction userCheckStatus(addre...\n    tag 19\t\t\tfunction userCheckStatus(addre...\n      JUMPDEST \t\t\tfunction userCheckStatus(addre...\n      PUSH 40\t\t\tfunction userCheckStatus(addre...\n      MLOAD \t\t\tfunction userCheckStatus(addre...\n      DUP1 \t\t\tfunction userCheckStatus(addre...\n      SWAP2 \t\t\tfunction userCheckStatus(addre...\n      SUB \t\t\tfunction userCheckStatus(addre...\n      SWAP1 \t\t\tfunction userCheckStatus(addre...\n      RETURN \t\t\tfunction userCheckStatus(addre...\n    tag 5\t\t\tfunction paymentCheck(address ...\n      JUMPDEST \t\t\tfunction paymentCheck(address ...\n      CALLVALUE \t\t\tfunction paymentCheck(address ...\n      DUP1 \t\t\tfunction paymentCheck(address ...\n      ISZERO \t\t\tfunction paymentCheck(address ...\n      PUSH [tag] 20\t\t\tfunction paymentCheck(address ...\n      JUMPI \t\t\tfunction paymentCheck(address ...\n      PUSH 0\t\t\tfunction paymentCheck(address ...\n      DUP1 \t\t\tfunction paymentCheck(address ...\n      REVERT \t\t\tfunction paymentCheck(address ...\n    tag 20\t\t\tfunction paymentCheck(address ...\n      JUMPDEST \t\t\tfunction paymentCheck(address ...\n      POP \t\t\tfunction paymentCheck(address ...\n      PUSH [tag] 21\t\t\tfunction paymentCheck(address ...\n      PUSH 4\t\t\tfunction paymentCheck(address ...\n      DUP1 \t\t\tfunction paymentCheck(address ...\n      CALLDATASIZE \t\t\tfunction paymentCheck(address ...\n      SUB \t\t\tfunction paymentCheck(address ...\n      DUP2 \t\t\tfunction paymentCheck(address ...\n      ADD \t\t\tfunction paymentCheck(address ...\n      SWAP1 \t\t\tfunction paymentCheck(address ...\n      PUSH [tag] 22\t\t\tfunction paymentCheck(address ...\n      SWAP2 \t\t\tfunction paymentCheck(address ...\n      SWAP1 \t\t\tfunction paymentCheck(address ...\n      PUSH [tag] 23\t\t\tfunction paymentCheck(address ...\n      JUMP \t\t\tfunction paymentCheck(address ...\n    tag 22\t\t\tfunction paymentCheck(address ...\n      JUMPDEST \t\t\tfunction paymentCheck(address ...\n      PUSH [tag] 24\t\t\tfunction paymentCheck(address ...\n      JUMP \t\t\tfunction paymentCheck(address ...\n    tag 21\t\t\tfunction paymentCheck(address ...\n      JUMPDEST \t\t\tfunction paymentCheck(address ...\n      STOP \t\t\tfunction paymentCheck(address ...\n    tag 9\t\t\tfunction pay(address _receipen...\n      JUMPDEST \t\t\tfunction pay(address _receipen...\n      PUSH 0\t\t\t0\n      CALLVALUE \t\t\tmsg.value\n      GT \t\t\tmsg.value > 0\n      PUSH [tag] 26\t\t\trequire(msg.value > 0, \"You mu...\n      JUMPI \t\t\trequire(msg.value > 0, \"You mu...\n      PUSH 40\t\t\trequire(msg.value > 0, \"You mu...\n      MLOAD \t\t\trequire(msg.value > 0, \"You mu...\n      PUSH 8C379A000000000000000000000000000000000000000000000000000000000\t\t\trequire(msg.value > 0, \"You mu...\n      DUP2 \t\t\trequire(msg.value > 0, \"You mu...\n      MSTORE \t\t\trequire(msg.value > 0, \"You mu...\n      PUSH 4\t\t\trequire(msg.value > 0, \"You mu...\n      ADD \t\t\trequire(msg.value > 0, \"You mu...\n      PUSH [tag] 27\t\t\trequire(msg.value > 0, \"You mu...\n      SWAP1 \t\t\trequire(msg.value > 0, \"You mu...\n      PUSH [tag] 28\t\t\trequire(msg.value > 0, \"You mu...\n      JUMP \t\t\trequire(msg.value > 0, \"You mu...\n    tag 27\t\t\trequire(msg.value > 0, \"You mu...\n      JUMPDEST \t\t\trequire(msg.value > 0, \"You mu...\n      PUSH 40\t\t\trequire(msg.value > 0, \"You mu...\n      MLOAD \t\t\trequire(msg.value > 0, \"You mu...\n      DUP1 \t\t\trequire(msg.value > 0, \"You mu...\n      SWAP2 \t\t\trequire(msg.value > 0, \"You mu...\n      SUB \t\t\trequire(msg.value > 0, \"You mu...\n      SWAP1 \t\t\trequire(msg.value > 0, \"You mu...\n      REVERT \t\t\trequire(msg.value > 0, \"You mu...\n    tag 26\t\t\trequire(msg.value > 0, \"You mu...\n      JUMPDEST \t\t\trequire(msg.value > 0, \"You mu...\n      PUSH [tag] 29\t\t\tpaymentCheck(_receipent, msg.v...\n      DUP2 \t\t\t_receipent\n      CALLVALUE \t\t\tmsg.value\n      PUSH [tag] 24\t\t\tpaymentCheck\n      JUMP \t\t\tpaymentCheck(_receipent, msg.v...\n    tag 29\t\t\tpaymentCheck(_receipent, msg.v...\n      JUMPDEST \t\t\tpaymentCheck(_receipent, msg.v...\n      POP \t\t\tfunction pay(address _receipen...\n      JUMP \t\t\tfunction pay(address _receipen...\n    tag 12\t\t\tfunction getBalance() public v...\n      JUMPDEST \t\t\tfunction getBalance() public v...\n      PUSH 0\t\t\tuint256\n      SELFBALANCE \t\t\taddress(this).balance\n      SWAP1 \t\t\treturn address(this).balance\n      POP \t\t\treturn address(this).balance\n      SWAP1 \t\t\tfunction getBalance() public v...\n      JUMP \t\t\tfunction getBalance() public v...\n    tag 18\t\t\tfunction userCheckStatus(addre...\n      JUMPDEST \t\t\tfunction userCheckStatus(addre...\n      PUSH 0\t\t\tuint256\n      PUSH 1\t\t\t_paymentAmount\n      PUSH 0\t\t\t_paymentAmount[_receipent]\n      DUP4 \t\t\t_receipent\n      PUSH FFFFFFFFFFFFFFFFFFFFFFFFFFFFFFFFFFFFFFFF\t\t\t_paymentAmount[_receipent]\n      AND \t\t\t_paymentAmount[_receipent]\n      PUSH FFFFFFFFFFFFFFFFFFFFFFFFFFFFFFFFFFFFFFFF\t\t\t_paymentAmount[_receipent]\n      AND \t\t\t_paymentAmount[_receipent]\n      DUP2 \t\t\t_paymentAmount[_receipent]\n      MSTORE \t\t\t_paymentAmount[_receipent]\n      PUSH 20\t\t\t_paymentAmount[_receipent]\n      ADD \t\t\t_paymentAmount[_receipent]\n      SWAP1 \t\t\t_paymentAmount[_receipent]\n      DUP2 \t\t\t_paymentAmount[_receipent]\n      MSTORE \t\t\t_paymentAmount[_receipent]\n      PUSH 20\t\t\t_paymentAmount[_receipent]\n      ADD \t\t\t_paymentAmount[_receipent]\n      PUSH 0\t\t\t_paymentAmount[_receipent]\n      KECCAK256 \t\t\t_paymentAmount[_receipent]\n      SLOAD \t\t\t_paymentAmount[_receipent]\n      SWAP1 \t\t\treturn  _paymentAmount[_receip...\n      POP \t\t\treturn  _paymentAmount[_receip...\n      SWAP2 \t\t\tfunction userCheckStatus(addre...\n      SWAP1 \t\t\tfunction userCheckStatus(addre...\n      POP \t\t\tfunction userCheckStatus(addre...\n      JUMP \t\t\tfunction userCheckStatus(addre...\n    tag 24\t\t\tfunction paymentCheck(address ...\n      JUMPDEST \t\t\tfunction paymentCheck(address ...\n      PUSH 0\t\t\tbool payCheck\n      DUP1 \t\t\t_paymentStatus\n      PUSH 0\t\t\t_paymentStatus[usersAddress]\n      DUP5 \t\t\tusersAddress\n      PUSH FFFFFFFFFFFFFFFFFFFFFFFFFFFFFFFFFFFFFFFF\t\t\t_paymentStatus[usersAddress]\n      AND \t\t\t_paymentStatus[usersAddress]\n      PUSH FFFFFFFFFFFFFFFFFFFFFFFFFFFFFFFFFFFFFFFF\t\t\t_paymentStatus[usersAddress]\n      AND \t\t\t_paymentStatus[usersAddress]\n      DUP2 \t\t\t_paymentStatus[usersAddress]\n      MSTORE \t\t\t_paymentStatus[usersAddress]\n      PUSH 20\t\t\t_paymentStatus[usersAddress]\n      ADD \t\t\t_paymentStatus[usersAddress]\n      SWAP1 \t\t\t_paymentStatus[usersAddress]\n      DUP2 \t\t\t_paymentStatus[usersAddress]\n      MSTORE \t\t\t_paymentStatus[usersAddress]\n      PUSH 20\t\t\t_paymentStatus[usersAddress]\n      ADD \t\t\t_paymentStatus[usersAddress]\n      PUSH 0\t\t\t_paymentStatus[usersAddress]\n      KECCAK256 \t\t\t_paymentStatus[usersAddress]\n      PUSH 0\t\t\t_paymentStatus[usersAddress]\n      SWAP1 \t\t\t_paymentStatus[usersAddress]\n      SLOAD \t\t\t_paymentStatus[usersAddress]\n      SWAP1 \t\t\t_paymentStatus[usersAddress]\n      PUSH 100\t\t\t_paymentStatus[usersAddress]\n      EXP \t\t\t_paymentStatus[usersAddress]\n      SWAP1 \t\t\t_paymentStatus[usersAddress]\n      DIV \t\t\t_paymentStatus[usersAddress]\n      PUSH FF\t\t\t_paymentStatus[usersAddress]\n      AND \t\t\t_paymentStatus[usersAddress]\n      SWAP1 \t\t\tbool payCheck = _paymentStatus...\n      POP \t\t\tbool payCheck = _paymentStatus...\n      PUSH 1\t\t\ttrue\n      ISZERO \t\t\tpayCheck != true\n      ISZERO \t\t\tpayCheck != true\n      DUP2 \t\t\tpayCheck\n      ISZERO \t\t\tpayCheck != true\n      ISZERO \t\t\tpayCheck != true\n      EQ \t\t\tpayCheck != true\n      PUSH [tag] 33\t\t\tif(payCheck != true){\\r\\n\\r\\n ...\n      JUMPI \t\t\tif(payCheck != true){\\r\\n\\r\\n ...\n      PUSH 1\t\t\ttrue\n      PUSH 0\t\t\t_paymentStatus\n      DUP1 \t\t\t_paymentStatus[usersAddress]\n      DUP6 \t\t\tusersAddress\n      PUSH FFFFFFFFFFFFFFFFFFFFFFFFFFFFFFFFFFFFFFFF\t\t\t_paymentStatus[usersAddress]\n      AND \t\t\t_paymentStatus[usersAddress]\n      PUSH FFFFFFFFFFFFFFFFFFFFFFFFFFFFFFFFFFFFFFFF\t\t\t_paymentStatus[usersAddress]\n      AND \t\t\t_paymentStatus[usersAddress]\n      DUP2 \t\t\t_paymentStatus[usersAddress]\n      MSTORE \t\t\t_paymentStatus[usersAddress]\n      PUSH 20\t\t\t_paymentStatus[usersAddress]\n      ADD \t\t\t_paymentStatus[usersAddress]\n      SWAP1 \t\t\t_paymentStatus[usersAddress]\n      DUP2 \t\t\t_paymentStatus[usersAddress]\n      MSTORE \t\t\t_paymentStatus[usersAddress]\n      PUSH 20\t\t\t_paymentStatus[usersAddress]\n      ADD \t\t\t_paymentStatus[usersAddress]\n      PUSH 0\t\t\t_paymentStatus[usersAddress]\n      KECCAK256 \t\t\t_paymentStatus[usersAddress]\n      PUSH 0\t\t\t_paymentStatus[usersAddress]\n      PUSH 100\t\t\t_paymentStatus[usersAddress] =...\n      EXP \t\t\t_paymentStatus[usersAddress] =...\n      DUP2 \t\t\t_paymentStatus[usersAddress] =...\n      SLOAD \t\t\t_paymentStatus[usersAddress] =...\n      DUP2 \t\t\t_paymentStatus[usersAddress] =...\n      PUSH FF\t\t\t_paymentStatus[usersAddress] =...\n      MUL \t\t\t_paymentStatus[usersAddress] =...\n      NOT \t\t\t_paymentStatus[usersAddress] =...\n      AND \t\t\t_paymentStatus[usersAddress] =...\n      SWAP1 \t\t\t_paymentStatus[usersAddress] =...\n      DUP4 \t\t\t_paymentStatus[usersAddress] =...\n      ISZERO \t\t\t_paymentStatus[usersAddress] =...\n      ISZERO \t\t\t_paymentStatus[usersAddress] =...\n      MUL \t\t\t_paymentStatus[usersAddress] =...\n      OR \t\t\t_paymentStatus[usersAddress] =...\n      SWAP1 \t\t\t_paymentStatus[usersAddress] =...\n      SSTORE \t\t\t_paymentStatus[usersAddress] =...\n      POP \t\t\t_paymentStatus[usersAddress] =...\n      DUP2 \t\t\t_amount\n      PUSH 1\t\t\t_paymentAmount\n      PUSH 0\t\t\t_paymentAmount[usersAddress]\n      DUP6 \t\t\tusersAddress\n      PUSH FFFFFFFFFFFFFFFFFFFFFFFFFFFFFFFFFFFFFFFF\t\t\t_paymentAmount[usersAddress]\n      AND \t\t\t_paymentAmount[usersAddress]\n      PUSH FFFFFFFFFFFFFFFFFFFFFFFFFFFFFFFFFFFFFFFF\t\t\t_paymentAmount[usersAddress]\n      AND \t\t\t_paymentAmount[usersAddress]\n      DUP2 \t\t\t_paymentAmount[usersAddress]\n      MSTORE \t\t\t_paymentAmount[usersAddress]\n      PUSH 20\t\t\t_paymentAmount[usersAddress]\n      ADD \t\t\t_paymentAmount[usersAddress]\n      SWAP1 \t\t\t_paymentAmount[usersAddress]\n      DUP2 \t\t\t_paymentAmount[usersAddress]\n      MSTORE \t\t\t_paymentAmount[usersAddress]\n      PUSH 20\t\t\t_paymentAmount[usersAddress]\n      ADD \t\t\t_paymentAmount[usersAddress]\n      PUSH 0\t\t\t_paymentAmount[usersAddress]\n      KECCAK256 \t\t\t_paymentAmount[usersAddress]\n      DUP2 \t\t\t_paymentAmount[usersAddress] =...\n      SWAP1 \t\t\t_paymentAmount[usersAddress] =...\n      SSTORE \t\t\t_paymentAmount[usersAddress] =...\n      POP \t\t\t_paymentAmount[usersAddress] =...\n      PUSH [tag] 34\t\t\tif(payCheck != true){\\r\\n\\r\\n ...\n      JUMP \t\t\tif(payCheck != true){\\r\\n\\r\\n ...\n    tag 33\t\t\tif(payCheck != true){\\r\\n\\r\\n ...\n      JUMPDEST \t\t\tif(payCheck != true){\\r\\n\\r\\n ...\n      PUSH 40\t\t\trevert(\"user is already paid!\"...\n      MLOAD \t\t\trevert(\"user is already paid!\"...\n      PUSH 8C379A000000000000000000000000000000000000000000000000000000000\t\t\trevert(\"user is already paid!\"...\n      DUP2 \t\t\trevert(\"user is already paid!\"...\n      MSTORE \t\t\trevert(\"user is already paid!\"...\n      PUSH 4\t\t\trevert(\"user is already paid!\"...\n      ADD \t\t\trevert(\"user is already paid!\"...\n      PUSH [tag] 35\t\t\trevert(\"user is already paid!\"...\n      SWAP1 \t\t\trevert(\"user is already paid!\"...\n      PUSH [tag] 36\t\t\trevert(\"user is already paid!\"...\n      JUMP \t\t\trevert(\"user is already paid!\"...\n    tag 35\t\t\trevert(\"user is already paid!\"...\n      JUMPDEST \t\t\trevert(\"user is already paid!\"...\n      PUSH 40\t\t\trevert(\"user is already paid!\"...\n      MLOAD \t\t\trevert(\"user is already paid!\"...\n      DUP1 \t\t\trevert(\"user is already paid!\"...\n      SWAP2 \t\t\trevert(\"user is already paid!\"...\n      SUB \t\t\trevert(\"user is already paid!\"...\n      SWAP1 \t\t\trevert(\"user is already paid!\"...\n      REVERT \t\t\trevert(\"user is already paid!\"...\n    tag 34\t\t\tif(payCheck != true){\\r\\n\\r\\n ...\n      JUMPDEST \t\t\tif(payCheck != true){\\r\\n\\r\\n ...\n      POP \t\t\t{\\r\\n\\r\\n        bool payCheck...\n      POP \t\t\tfunction paymentCheck(address ...\n      POP \t\t\tfunction paymentCheck(address ...\n      JUMP \t\t\tfunction paymentCheck(address ...\n    tag 38\t\t\tDoreaUsers {\\r\\n\\r\\n    mappin...\n      JUMPDEST \t\t\tDoreaUsers {\\r\\n\\r\\n    mappin...\n      PUSH 0\t\t\ty\n      DUP1 \t\t\t_\n      REVERT \t\t\trivate _paym\n    tag 40\t\t\t public{\\r\\n\\r\\n        bool p...\n      JUMPDEST \t\t\t public{\\r\\n\\r\\n        bool p...\n      PUSH 0\t\t\tpayment\n      PUSH FFFFFFFFFFFFFFFFFFFFFFFFFFFFFFFFFFFFFFFF\t\t\tif(payCheck != true){\\r\\n\\r\\n ...\n      DUP3 \t\t\t     \n      AND \t\t\t\\n\\r\\n        if(payCheck != t...\n      SWAP1 \t\t\tsAddress];\\r\\n\\r\\n        if(p...\n      POP \t\t\tsAddress];\\r\\n\\r\\n        if(p...\n      SWAP2 \t\t\t public{\\r\\n\\r\\n        bool p...\n      SWAP1 \t\t\t public{\\r\\n\\r\\n        bool p...\n      POP \t\t\t public{\\r\\n\\r\\n        bool p...\n      JUMP \t\t\t public{\\r\\n\\r\\n        bool p...\n    tag 41\t\t\trsAddress] = true;\\r\\n        ...\n      JUMPDEST \t\t\trsAddress] = true;\\r\\n        ...\n      PUSH 0\t\t\tentAmou\n      PUSH [tag] 59\t\t\tount;\\r\\n\\r\\n        }else{\\r\n      DUP3 \t\t\telse{\n      PUSH [tag] 40\t\t\tount;\\r\\n\\r\\n        }else{\\r\n      JUMP \t\t\tount;\\r\\n\\r\\n        }else{\\r\n    tag 59\t\t\tount;\\r\\n\\r\\n        }else{\\r\n      JUMPDEST \t\t\tount;\\r\\n\\r\\n        }else{\\r\n      SWAP1 \t\t\tress] = _amount;\\r\\n\\r\\n      ...\n      POP \t\t\tress] = _amount;\\r\\n\\r\\n      ...\n      SWAP2 \t\t\trsAddress] = true;\\r\\n        ...\n      SWAP1 \t\t\trsAddress] = true;\\r\\n        ...\n      POP \t\t\trsAddress] = true;\\r\\n        ...\n      JUMP \t\t\trsAddress] = true;\\r\\n        ...\n    tag 42\t\t\t revert(\"user is already paid!...\n      JUMPDEST \t\t\t revert(\"user is already paid!...\n      PUSH [tag] 61\t\t\trCheckStatus(address _re\n      DUP2 \t\t\tss _r\n      PUSH [tag] 41\t\t\trCheckStatus(address _re\n      JUMP \t\t\trCheckStatus(address _re\n    tag 61\t\t\trCheckStatus(address _re\n      JUMPDEST \t\t\trCheckStatus(address _re\n      DUP2 \t\t\tion u\n      EQ \t\t\tnction userCheckStatus(address...\n      PUSH [tag] 62\t\t\t\\r\\n\\r\\n    function userCheck...\n      JUMPI \t\t\t\\r\\n\\r\\n    function userCheck...\n      PUSH 0\t\t\t \n      DUP1 \t\t\tl\n      REVERT \t\t\tnt) public v\n    tag 62\t\t\t\\r\\n\\r\\n    function userCheck...\n      JUMPDEST \t\t\t\\r\\n\\r\\n    function userCheck...\n      POP \t\t\t revert(\"user is already paid!...\n      JUMP \t\t\t revert(\"user is already paid!...\n    tag 43\t\t\tint256){\\r\\n\\r\\n        return...\n      JUMPDEST \t\t\tint256){\\r\\n\\r\\n        return...\n      PUSH 0\t\t\tceipe\n      DUP2 \t\t\tr Ethe\n      CALLDATALOAD \t\t\t   // Transfer Ether\n      SWAP1 \t\t\t }\\r\\n\\r\\n\\r\\n    // Transfer ...\n      POP \t\t\t }\\r\\n\\r\\n\\r\\n    // Transfer ...\n      PUSH [tag] 64\t\t\t Customers\\r\\n    function pay...\n      DUP2 \t\t\ty(add\n      PUSH [tag] 42\t\t\t Customers\\r\\n    function pay...\n      JUMP \t\t\t Customers\\r\\n    function pay...\n    tag 64\t\t\t Customers\\r\\n    function pay...\n      JUMPDEST \t\t\t Customers\\r\\n    function pay...\n      SWAP3 \t\t\tint256){\\r\\n\\r\\n        return...\n      SWAP2 \t\t\tint256){\\r\\n\\r\\n        return...\n      POP \t\t\tint256){\\r\\n\\r\\n        return...\n      POP \t\t\tint256){\\r\\n\\r\\n        return...\n      JUMP \t\t\tint256){\\r\\n\\r\\n        return...\n    tag 8\t\t\tnt) public payable{\\r\\n\\r\\n   ...\n      JUMPDEST \t\t\tnt) public payable{\\r\\n\\r\\n   ...\n      PUSH 0\t\t\tuser i\n      PUSH 20\t\t\t0,\n      DUP3 \t\t\tmsg.value\n      DUP5 \t\t\t requir\n      SUB \t\t\t     require(msg.value \n      SLT \t\t\t\\n        require(msg.value > ...\n      ISZERO \t\t\tot\\r\\n        require(msg.valu...\n      PUSH [tag] 66\t\t\tot\\r\\n        require(msg.valu...\n      JUMPI \t\t\tot\\r\\n        require(msg.valu...\n      PUSH [tag] 67\t\t\tu must send some Ether\");\\r\\n ...\n      PUSH [tag] 38\t\t\tu must send some Ether\");\\r\\n ...\n      JUMP \t\t\tu must send some Ether\");\\r\\n ...\n    tag 67\t\t\tu must send some Ether\");\\r\\n ...\n      JUMPDEST \t\t\tu must send some Ether\");\\r\\n ...\n    tag 66\t\t\tot\\r\\n        require(msg.valu...\n      JUMPDEST \t\t\tot\\r\\n        require(msg.valu...\n      PUSH 0\t\t\t \n      PUSH [tag] 68\t\t\ttBalance() public view returns...\n      DUP5 \t\t\t     re\n      DUP3 \t\t\t56){\\r\\n\n      DUP6 \t\t\tturns(uin\n      ADD \t\t\tw returns(uint256){\\r\\n \n      PUSH [tag] 43\t\t\ttBalance() public view returns...\n      JUMP \t\t\ttBalance() public view returns...\n    tag 68\t\t\ttBalance() public view returns...\n      JUMPDEST \t\t\ttBalance() public view returns...\n      SWAP2 \t\t\tunction getBalance() public vi...\n      POP \t\t\tunction getBalance() public vi...\n      POP \t\t\t   // get balance of contract ...\n      SWAP3 \t\t\tnt) public payable{\\r\\n\\r\\n   ...\n      SWAP2 \t\t\tnt) public payable{\\r\\n\\r\\n   ...\n      POP \t\t\tnt) public payable{\\r\\n\\r\\n   ...\n      POP \t\t\tnt) public payable{\\r\\n\\r\\n   ...\n      JUMP \t\t\tnt) public payable{\\r\\n\\r\\n   ...\n    tag 44\t\t\tce;\\r\\n    }\\r\\n\\r\\n}\n      JUMPDEST \t\t\tce;\\r\\n    }\\r\\n\\r\\n}\n      PUSH 0\t\t\t\n      DUP2 \t\t\t\n      SWAP1 \t\t\t\n      POP \t\t\t\n      SWAP2 \t\t\tce;\\r\\n    }\\r\\n\\r\\n}\n      SWAP1 \t\t\tce;\\r\\n    }\\r\\n\\r\\n}\n      POP \t\t\tce;\\r\\n    }\\r\\n\\r\\n}\n      JUMP \t\t\tce;\\r\\n    }\\r\\n\\r\\n}\n    tag 45\t\t\t\n      JUMPDEST \t\t\t\n      PUSH [tag] 71\t\t\t\n      DUP2 \t\t\t\n      PUSH [tag] 44\t\t\t\n      JUMP \t\t\t\n    tag 71\t\t\t\n      JUMPDEST \t\t\t\n      DUP3 \t\t\t\n      MSTORE \t\t\t\n      POP \t\t\t\n      POP \t\t\t\n      JUMP \t\t\t\n    tag 14\t\t\t\n      JUMPDEST \t\t\t\n      PUSH 0\t\t\t\n      PUSH 20\t\t\t\n      DUP3 \t\t\t\n      ADD \t\t\t\n      SWAP1 \t\t\t\n      POP \t\t\t\n      PUSH [tag] 73\t\t\t\n      PUSH 0\t\t\t\n      DUP4 \t\t\t\n      ADD \t\t\t\n      DUP5 \t\t\t\n      PUSH [tag] 45\t\t\t\n      JUMP \t\t\t\n    tag 73\t\t\t\n      JUMPDEST \t\t\t\n      SWAP3 \t\t\t\n      SWAP2 \t\t\t\n      POP \t\t\t\n      POP \t\t\t\n      JUMP \t\t\t\n    tag 46\t\t\t\n      JUMPDEST \t\t\t\n      PUSH [tag] 75\t\t\t\n      DUP2 \t\t\t\n      PUSH [tag] 44\t\t\t\n      JUMP \t\t\t\n    tag 75\t\t\t\n      JUMPDEST \t\t\t\n      DUP2 \t\t\t\n      EQ \t\t\t\n      PUSH [tag] 76\t\t\t\n      JUMPI \t\t\t\n      PUSH 0\t\t\t\n      DUP1 \t\t\t\n      REVERT \t\t\t\n    tag 76\t\t\t\n      JUMPDEST \t\t\t\n      POP \t\t\t\n      JUMP \t\t\t\n    tag 47\t\t\t\n      JUMPDEST \t\t\t\n      PUSH 0\t\t\t\n      DUP2 \t\t\t\n      CALLDATALOAD \t\t\t\n      SWAP1 \t\t\t\n      POP \t\t\t\n      PUSH [tag] 78\t\t\t\n      DUP2 \t\t\t\n      PUSH [tag] 46\t\t\t\n      JUMP \t\t\t\n    tag 78\t\t\t\n      JUMPDEST \t\t\t\n      SWAP3 \t\t\t\n      SWAP2 \t\t\t\n      POP \t\t\t\n      POP \t\t\t\n      JUMP \t\t\t\n    tag 23\t\t\t\n      JUMPDEST \t\t\t\n      PUSH 0\t\t\t\n      DUP1 \t\t\t\n      PUSH 40\t\t\t\n      DUP4 \t\t\t\n      DUP6 \t\t\t\n      SUB \t\t\t\n      SLT \t\t\t\n      ISZERO \t\t\t\n      PUSH [tag] 80\t\t\t\n      JUMPI \t\t\t\n      PUSH [tag] 81\t\t\t\n      PUSH [tag] 38\t\t\t\n      JUMP \t\t\t\n    tag 81\t\t\t\n      JUMPDEST \t\t\t\n    tag 80\t\t\t\n      JUMPDEST \t\t\t\n      PUSH 0\t\t\t\n      PUSH [tag] 82\t\t\t\n      DUP6 \t\t\t\n      DUP3 \t\t\t\n      DUP7 \t\t\t\n      ADD \t\t\t\n      PUSH [tag] 43\t\t\t\n      JUMP \t\t\t\n    tag 82\t\t\t\n      JUMPDEST \t\t\t\n      SWAP3 \t\t\t\n      POP \t\t\t\n      POP \t\t\t\n      PUSH 20\t\t\t\n      PUSH [tag] 83\t\t\t\n      DUP6 \t\t\t\n      DUP3 \t\t\t\n      DUP7 \t\t\t\n      ADD \t\t\t\n      PUSH [tag] 47\t\t\t\n      JUMP \t\t\t\n    tag 83\t\t\t\n      JUMPDEST \t\t\t\n      SWAP2 \t\t\t\n      POP \t\t\t\n      POP \t\t\t\n      SWAP3 \t\t\t\n      POP \t\t\t\n      SWAP3 \t\t\t\n      SWAP1 \t\t\t\n      POP \t\t\t\n      JUMP \t\t\t\n    tag 48\t\t\t\n      JUMPDEST \t\t\t\n      PUSH 0\t\t\t\n      DUP3 \t\t\t\n      DUP3 \t\t\t\n      MSTORE \t\t\t\n      PUSH 20\t\t\t\n      DUP3 \t\t\t\n      ADD \t\t\t\n      SWAP1 \t\t\t\n      POP \t\t\t\n      SWAP3 \t\t\t\n      SWAP2 \t\t\t\n      POP \t\t\t\n      POP \t\t\t\n      JUMP \t\t\t\n    tag 49\t\t\t\n      JUMPDEST \t\t\t\n      PUSH 596F75206D7573742073656E6420736F6D652045746865720000000000000000\t\t\t\n      PUSH 0\t\t\t\n      DUP3 \t\t\t\n      ADD \t\t\t\n      MSTORE \t\t\t\n      POP \t\t\t\n      JUMP \t\t\t\n    tag 50\t\t\t\n      JUMPDEST \t\t\t\n      PUSH 0\t\t\t\n      PUSH [tag] 87\t\t\t\n      PUSH 18\t\t\t\n      DUP4 \t\t\t\n      PUSH [tag] 48\t\t\t\n      JUMP \t\t\t\n    tag 87\t\t\t\n      JUMPDEST \t\t\t\n      SWAP2 \t\t\t\n      POP \t\t\t\n      PUSH [tag] 88\t\t\t\n      DUP3 \t\t\t\n      PUSH [tag] 49\t\t\t\n      JUMP \t\t\t\n    tag 88\t\t\t\n      JUMPDEST \t\t\t\n      PUSH 20\t\t\t\n      DUP3 \t\t\t\n      ADD \t\t\t\n      SWAP1 \t\t\t\n      POP \t\t\t\n      SWAP2 \t\t\t\n      SWAP1 \t\t\t\n      POP \t\t\t\n      JUMP \t\t\t\n    tag 28\t\t\t\n      JUMPDEST \t\t\t\n      PUSH 0\t\t\t\n      PUSH 20\t\t\t\n      DUP3 \t\t\t\n      ADD \t\t\t\n      SWAP1 \t\t\t\n      POP \t\t\t\n      DUP2 \t\t\t\n      DUP2 \t\t\t\n      SUB \t\t\t\n      PUSH 0\t\t\t\n      DUP4 \t\t\t\n      ADD \t\t\t\n      MSTORE \t\t\t\n      PUSH [tag] 90\t\t\t\n      DUP2 \t\t\t\n      PUSH [tag] 50\t\t\t\n      JUMP \t\t\t\n    tag 90\t\t\t\n      JUMPDEST \t\t\t\n      SWAP1 \t\t\t\n      POP \t\t\t\n      SWAP2 \t\t\t\n      SWAP1 \t\t\t\n      POP \t\t\t\n      JUMP \t\t\t\n    tag 51\t\t\t\n      JUMPDEST \t\t\t\n      PUSH 7573657220697320616C72656164792070616964210000000000000000000000\t\t\t\n      PUSH 0\t\t\t\n      DUP3 \t\t\t\n      ADD \t\t\t\n      MSTORE \t\t\t\n      POP \t\t\t\n      JUMP \t\t\t\n    tag 52\t\t\t\n      JUMPDEST \t\t\t\n      PUSH 0\t\t\t\n      PUSH [tag] 93\t\t\t\n      PUSH 15\t\t\t\n      DUP4 \t\t\t\n      PUSH [tag] 48\t\t\t\n      JUMP \t\t\t\n    tag 93\t\t\t\n      JUMPDEST \t\t\t\n      SWAP2 \t\t\t\n      POP \t\t\t\n      PUSH [tag] 94\t\t\t\n      DUP3 \t\t\t\n      PUSH [tag] 51\t\t\t\n      JUMP \t\t\t\n    tag 94\t\t\t\n      JUMPDEST \t\t\t\n      PUSH 20\t\t\t\n      DUP3 \t\t\t\n      ADD \t\t\t\n      SWAP1 \t\t\t\n      POP \t\t\t\n      SWAP2 \t\t\t\n      SWAP1 \t\t\t\n      POP \t\t\t\n      JUMP \t\t\t\n    tag 36\t\t\t\n      JUMPDEST \t\t\t\n      PUSH 0\t\t\t\n      PUSH 20\t\t\t\n      DUP3 \t\t\t\n      ADD \t\t\t\n      SWAP1 \t\t\t\n      POP \t\t\t\n      DUP2 \t\t\t\n      DUP2 \t\t\t\n      SUB \t\t\t\n      PUSH 0\t\t\t\n      DUP4 \t\t\t\n      ADD \t\t\t\n      MSTORE \t\t\t\n      PUSH [tag] 96\t\t\t\n      DUP2 \t\t\t\n      PUSH [tag] 52\t\t\t\n      JUMP \t\t\t\n    tag 96\t\t\t\n      JUMPDEST \t\t\t\n      SWAP1 \t\t\t\n      POP \t\t\t\n      SWAP2 \t\t\t\n      SWAP1 \t\t\t\n      POP \t\t\t\n      JUMP \t\t\t\n    .data\n"
}