{
	"compilerInput": "{\"language\":\"Solidity\",\"sources\":{\"loyalty.sol\":{\"content\":\"// SPDX-License-Identifier: GPL-3.0\\r\\npragma solidity >=0.4.20 <0.9.0;\\r\\n\\r\\ncontract cryptoDorea {\\r\\n\\r\\n    bytes32 private _secretHash;\\r\\n\\r\\n    mapping(address=>uint256) private _usersAddress;\\r\\n    mapping(address=>uint256[]) private _usersAuthToken;\\r\\n\\r\\n    // define constructor to get fund on deploy stage\\r\\n    constructor(string memory _secret) payable {\\r\\n\\r\\n        _secretHash = keccak256(abi.encodePacked(_secret));\\r\\n\\r\\n    }\\r\\n\\r\\n    // Transfer Ether to Loyal Customers\\r\\n    function pay(address recipient, uint256  amount, uint256 campaignCount, uint256 shoppingCount, string memory _secret, uint256 _encData, uint256 _decData, uint256 _saltHash) public payable{\\r\\n        \\r\\n\\r\\n        userAuthTokenCheck(recipient,_decData,_saltHash);\\r\\n\\r\\n        userAuthorized(_secret);\\r\\n        \\r\\n        require(amount <= address(this).balance, \\\"Insufficient balance\\\");\\r\\n\\r\\n        if(shoppingCount >= campaignCount){    \\r\\n\\r\\n            // Transfer Ether to the receipnt address\\r\\n            bool success = payable(recipient).send(amount);\\r\\n            require(success, \\\"Transfer failed\\\");\\r\\n\\r\\n            _usersAuthToken[recipient] = [_encData, _decData];\\r\\n\\r\\n        }else{\\r\\n\\r\\n            revert(\\\"User not Eligible!\\\");\\r\\n\\r\\n        }\\r\\n\\r\\n        \\r\\n    }\\r\\n\\r\\n    function userAuthorized(string memory _secret) private view {\\r\\n      \\r\\n        require(keccak256(abi.encodePacked(_secret)) == _secretHash, \\\"User not Authorized!\\\");\\r\\n      \\r\\n    }\\r\\n\\r\\n    function userAuthTokenCheck(address _userAddress, uint256 _decData, uint256 _saltHash) private view {\\r\\n\\r\\n        bytes32 authToken = keccak256(abi.encodePacked(_decData + _saltHash));\\r\\n        if (_usersAuthToken[_userAddress][0] != uint256(authToken)){\\r\\n            revert(\\\"not equal\\\");\\r\\n        }\\r\\n       // require(_usersAuthToken[_userAddress][0] == keccak256(abi.encodePacked(_decData + _saltHash)), \\\"User not Authorized!\\\");\\r\\n    \\r\\n    }\\r\\n\\r\\n\\r\\n    // get balance of contract address\\r\\n    function getBalance() public view returns(uint256){\\r\\n        return address(this).balance;\\r\\n    }\\r\\n\\r\\n    // for test: remove after production\\r\\n    function test(address _userAddress) public view returns (uint256[] memory){\\r\\n        \\r\\n        return _usersAuthToken[_userAddress];\\r\\n   \\r\\n    }\\r\\n\\r\\n  // for test: remove after production\\r\\n    function test2(bytes32 _decData, bytes32 _saltHash) public pure returns (bytes32){\\r\\n        \\r\\n       // return  keccak256(abi.encodePacked(_decData + _saltHash));\\r\\n   \\r\\n    }\\r\\n\\r\\n    \\r\\n}\"}},\"settings\":{\"optimizer\":{\"enabled\":false,\"runs\":200},\"outputSelection\":{\"*\":{\"\":[\"ast\"],\"*\":[\"abi\",\"metadata\",\"devdoc\",\"userdoc\",\"storageLayout\",\"evm.legacyAssembly\",\"evm.bytecode\",\"evm.deployedBytecode\",\"evm.methodIdentifiers\",\"evm.gasEstimates\",\"evm.assembly\"]}},\"remappings\":[]}}",
	"name": "cryptoDorea",
	"bytecode": {
		"linkReferences": {},
		"object": "608060405260405162000f6d38038062000f6d8339818101604052810190620000299190620001e3565b806040516020016200003c91906200027c565b604051602081830303815290604052805190602001205f819055505062000294565b5f604051905090565b5f80fd5b5f80fd5b5f80fd5b5f80fd5b5f601f19601f8301169050919050565b7f4e487b71000000000000000000000000000000000000000000000000000000005f52604160045260245ffd5b620000bf8262000077565b810181811067ffffffffffffffff82111715620000e157620000e062000087565b5b80604052505050565b5f620000f56200005e565b9050620001038282620000b4565b919050565b5f67ffffffffffffffff82111562000125576200012462000087565b5b620001308262000077565b9050602081019050919050565b5f5b838110156200015c5780820151818401526020810190506200013f565b5f8484015250505050565b5f6200017d620001778462000108565b620000ea565b9050828152602081018484840111156200019c576200019b62000073565b5b620001a98482856200013d565b509392505050565b5f82601f830112620001c857620001c76200006f565b5b8151620001da84826020860162000167565b91505092915050565b5f60208284031215620001fb57620001fa62000067565b5b5f82015167ffffffffffffffff8111156200021b576200021a6200006b565b5b6200022984828501620001b1565b91505092915050565b5f81519050919050565b5f81905092915050565b5f620002528262000232565b6200025e81856200023c565b9350620002708185602086016200013d565b80840191505092915050565b5f62000289828462000246565b915081905092915050565b610ccb80620002a25f395ff3fe60806040526004361061003e575f3560e01c806312065fe01461004257806321c669041461006c578063bb29998e14610088578063eb62e591146100c4575b5f80fd5b34801561004d575f80fd5b50610056610100565b60405161006391906104e2565b60405180910390f35b610086600480360381019061008191906106cc565b610107565b005b348015610093575f80fd5b506100ae60048036038101906100a99190610799565b610288565b6040516100bb919061087b565b60405180910390f35b3480156100cf575f80fd5b506100ea60048036038101906100e591906108ce565b61031b565b6040516100f7919061091b565b60405180910390f35b5f47905090565b610112888383610322565b61011b846103f8565b4787111561015e576040517f08c379a00000000000000000000000000000000000000000000000000000000081526004016101559061098e565b60405180910390fd5b858510610243575f8873ffffffffffffffffffffffffffffffffffffffff166108fc8990811502906040515f60405180830381858888f193505050509050806101dc576040517f08c379a00000000000000000000000000000000000000000000000000000000081526004016101d3906109f6565b60405180910390fd5b60405180604001604052808581526020018481525060025f8b73ffffffffffffffffffffffffffffffffffffffff1673ffffffffffffffffffffffffffffffffffffffff1681526020019081526020015f2090600261023c929190610464565b505061027e565b6040517f08c379a000000000000000000000000000000000000000000000000000000000815260040161027590610a5e565b60405180910390fd5b5050505050505050565b606060025f8373ffffffffffffffffffffffffffffffffffffffff1673ffffffffffffffffffffffffffffffffffffffff1681526020019081526020015f2080548060200260200160405190810160405280929190818152602001828054801561030f57602002820191905f5260205f20905b8154815260200190600101908083116102fb575b50505050509050919050565b5f92915050565b5f818361032f9190610aa9565b60405160200161033f9190610afc565b604051602081830303815290604052805190602001209050805f1c60025f8673ffffffffffffffffffffffffffffffffffffffff1673ffffffffffffffffffffffffffffffffffffffff1681526020019081526020015f205f815481106103a9576103a8610b16565b5b905f5260205f200154146103f2576040517f08c379a00000000000000000000000000000000000000000000000000000000081526004016103e990610b8d565b60405180910390fd5b50505050565b5f548160405160200161040b9190610c17565b6040516020818303038152906040528051906020012014610461576040517f08c379a000000000000000000000000000000000000000000000000000000000815260040161045890610c77565b60405180910390fd5b50565b828054828255905f5260205f2090810192821561049e579160200282015b8281111561049d578251825591602001919060010190610482565b5b5090506104ab91906104af565b5090565b5b808211156104c6575f815f9055506001016104b0565b5090565b5f819050919050565b6104dc816104ca565b82525050565b5f6020820190506104f55f8301846104d3565b92915050565b5f604051905090565b5f80fd5b5f80fd5b5f73ffffffffffffffffffffffffffffffffffffffff82169050919050565b5f6105358261050c565b9050919050565b6105458161052b565b811461054f575f80fd5b50565b5f813590506105608161053c565b92915050565b61056f816104ca565b8114610579575f80fd5b50565b5f8135905061058a81610566565b92915050565b5f80fd5b5f80fd5b5f601f19601f8301169050919050565b7f4e487b71000000000000000000000000000000000000000000000000000000005f52604160045260245ffd5b6105de82610598565b810181811067ffffffffffffffff821117156105fd576105fc6105a8565b5b80604052505050565b5f61060f6104fb565b905061061b82826105d5565b919050565b5f67ffffffffffffffff82111561063a576106396105a8565b5b61064382610598565b9050602081019050919050565b828183375f83830152505050565b5f61067061066b84610620565b610606565b90508281526020810184848401111561068c5761068b610594565b5b610697848285610650565b509392505050565b5f82601f8301126106b3576106b2610590565b5b81356106c384826020860161065e565b91505092915050565b5f805f805f805f80610100898b0312156106e9576106e8610504565b5b5f6106f68b828c01610552565b98505060206107078b828c0161057c565b97505060406107188b828c0161057c565b96505060606107298b828c0161057c565b955050608089013567ffffffffffffffff81111561074a57610749610508565b5b6107568b828c0161069f565b94505060a06107678b828c0161057c565b93505060c06107788b828c0161057c565b92505060e06107898b828c0161057c565b9150509295985092959890939650565b5f602082840312156107ae576107ad610504565b5b5f6107bb84828501610552565b91505092915050565b5f81519050919050565b5f82825260208201905092915050565b5f819050602082019050919050565b6107f6816104ca565b82525050565b5f61080783836107ed565b60208301905092915050565b5f602082019050919050565b5f610829826107c4565b61083381856107ce565b935061083e836107de565b805f5b8381101561086e57815161085588826107fc565b975061086083610813565b925050600181019050610841565b5085935050505092915050565b5f6020820190508181035f830152610893818461081f565b905092915050565b5f819050919050565b6108ad8161089b565b81146108b7575f80fd5b50565b5f813590506108c8816108a4565b92915050565b5f80604083850312156108e4576108e3610504565b5b5f6108f1858286016108ba565b9250506020610902858286016108ba565b9150509250929050565b6109158161089b565b82525050565b5f60208201905061092e5f83018461090c565b92915050565b5f82825260208201905092915050565b7f496e73756666696369656e742062616c616e63650000000000000000000000005f82015250565b5f610978601483610934565b915061098382610944565b602082019050919050565b5f6020820190508181035f8301526109a58161096c565b9050919050565b7f5472616e73666572206661696c656400000000000000000000000000000000005f82015250565b5f6109e0600f83610934565b91506109eb826109ac565b602082019050919050565b5f6020820190508181035f830152610a0d816109d4565b9050919050565b7f55736572206e6f7420456c696769626c652100000000000000000000000000005f82015250565b5f610a48601283610934565b9150610a5382610a14565b602082019050919050565b5f6020820190508181035f830152610a7581610a3c565b9050919050565b7f4e487b71000000000000000000000000000000000000000000000000000000005f52601160045260245ffd5b5f610ab3826104ca565b9150610abe836104ca565b9250828201905080821115610ad657610ad5610a7c565b5b92915050565b5f819050919050565b610af6610af1826104ca565b610adc565b82525050565b5f610b078284610ae5565b60208201915081905092915050565b7f4e487b71000000000000000000000000000000000000000000000000000000005f52603260045260245ffd5b7f6e6f7420657175616c00000000000000000000000000000000000000000000005f82015250565b5f610b77600983610934565b9150610b8282610b43565b602082019050919050565b5f6020820190508181035f830152610ba481610b6b565b9050919050565b5f81519050919050565b5f81905092915050565b5f5b83811015610bdc578082015181840152602081019050610bc1565b5f8484015250505050565b5f610bf182610bab565b610bfb8185610bb5565b9350610c0b818560208601610bbf565b80840191505092915050565b5f610c228284610be7565b915081905092915050565b7f55736572206e6f7420417574686f72697a6564210000000000000000000000005f82015250565b5f610c61601483610934565b9150610c6c82610c2d565b602082019050919050565b5f6020820190508181035f830152610c8e81610c55565b905091905056fea264697066735822122021b886d04dc1323eca6972752510b4d23eec6501ff4cbec9eff0d258394e0af164736f6c63430008160033",
		"opcodes": "PUSH1 0x80 PUSH1 0x40 MSTORE PUSH1 0x40 MLOAD PUSH3 0xF6D CODESIZE SUB DUP1 PUSH3 0xF6D DUP4 CODECOPY DUP2 DUP2 ADD PUSH1 0x40 MSTORE DUP2 ADD SWAP1 PUSH3 0x29 SWAP2 SWAP1 PUSH3 0x1E3 JUMP JUMPDEST DUP1 PUSH1 0x40 MLOAD PUSH1 0x20 ADD PUSH3 0x3C SWAP2 SWAP1 PUSH3 0x27C JUMP JUMPDEST PUSH1 0x40 MLOAD PUSH1 0x20 DUP2 DUP4 SUB SUB DUP2 MSTORE SWAP1 PUSH1 0x40 MSTORE DUP1 MLOAD SWAP1 PUSH1 0x20 ADD KECCAK256 PUSH0 DUP2 SWAP1 SSTORE POP POP PUSH3 0x294 JUMP JUMPDEST PUSH0 PUSH1 0x40 MLOAD SWAP1 POP SWAP1 JUMP JUMPDEST PUSH0 DUP1 REVERT JUMPDEST PUSH0 DUP1 REVERT JUMPDEST PUSH0 DUP1 REVERT JUMPDEST PUSH0 DUP1 REVERT JUMPDEST PUSH0 PUSH1 0x1F NOT PUSH1 0x1F DUP4 ADD AND SWAP1 POP SWAP2 SWAP1 POP JUMP JUMPDEST PUSH32 0x4E487B7100000000000000000000000000000000000000000000000000000000 PUSH0 MSTORE PUSH1 0x41 PUSH1 0x4 MSTORE PUSH1 0x24 PUSH0 REVERT JUMPDEST PUSH3 0xBF DUP3 PUSH3 0x77 JUMP JUMPDEST DUP2 ADD DUP2 DUP2 LT PUSH8 0xFFFFFFFFFFFFFFFF DUP3 GT OR ISZERO PUSH3 0xE1 JUMPI PUSH3 0xE0 PUSH3 0x87 JUMP JUMPDEST JUMPDEST DUP1 PUSH1 0x40 MSTORE POP POP POP JUMP JUMPDEST PUSH0 PUSH3 0xF5 PUSH3 0x5E JUMP JUMPDEST SWAP1 POP PUSH3 0x103 DUP3 DUP3 PUSH3 0xB4 JUMP JUMPDEST SWAP2 SWAP1 POP JUMP JUMPDEST PUSH0 PUSH8 0xFFFFFFFFFFFFFFFF DUP3 GT ISZERO PUSH3 0x125 JUMPI PUSH3 0x124 PUSH3 0x87 JUMP JUMPDEST JUMPDEST PUSH3 0x130 DUP3 PUSH3 0x77 JUMP JUMPDEST SWAP1 POP PUSH1 0x20 DUP2 ADD SWAP1 POP SWAP2 SWAP1 POP JUMP JUMPDEST PUSH0 JUMPDEST DUP4 DUP2 LT ISZERO PUSH3 0x15C JUMPI DUP1 DUP3 ADD MLOAD DUP2 DUP5 ADD MSTORE PUSH1 0x20 DUP2 ADD SWAP1 POP PUSH3 0x13F JUMP JUMPDEST PUSH0 DUP5 DUP5 ADD MSTORE POP POP POP POP JUMP JUMPDEST PUSH0 PUSH3 0x17D PUSH3 0x177 DUP5 PUSH3 0x108 JUMP JUMPDEST PUSH3 0xEA JUMP JUMPDEST SWAP1 POP DUP3 DUP2 MSTORE PUSH1 0x20 DUP2 ADD DUP5 DUP5 DUP5 ADD GT ISZERO PUSH3 0x19C JUMPI PUSH3 0x19B PUSH3 0x73 JUMP JUMPDEST JUMPDEST PUSH3 0x1A9 DUP5 DUP3 DUP6 PUSH3 0x13D JUMP JUMPDEST POP SWAP4 SWAP3 POP POP POP JUMP JUMPDEST PUSH0 DUP3 PUSH1 0x1F DUP4 ADD SLT PUSH3 0x1C8 JUMPI PUSH3 0x1C7 PUSH3 0x6F JUMP JUMPDEST JUMPDEST DUP2 MLOAD PUSH3 0x1DA DUP5 DUP3 PUSH1 0x20 DUP7 ADD PUSH3 0x167 JUMP JUMPDEST SWAP2 POP POP SWAP3 SWAP2 POP POP JUMP JUMPDEST PUSH0 PUSH1 0x20 DUP3 DUP5 SUB SLT ISZERO PUSH3 0x1FB JUMPI PUSH3 0x1FA PUSH3 0x67 JUMP JUMPDEST JUMPDEST PUSH0 DUP3 ADD MLOAD PUSH8 0xFFFFFFFFFFFFFFFF DUP2 GT ISZERO PUSH3 0x21B JUMPI PUSH3 0x21A PUSH3 0x6B JUMP JUMPDEST JUMPDEST PUSH3 0x229 DUP5 DUP3 DUP6 ADD PUSH3 0x1B1 JUMP JUMPDEST SWAP2 POP POP SWAP3 SWAP2 POP POP JUMP JUMPDEST PUSH0 DUP2 MLOAD SWAP1 POP SWAP2 SWAP1 POP JUMP JUMPDEST PUSH0 DUP2 SWAP1 POP SWAP3 SWAP2 POP POP JUMP JUMPDEST PUSH0 PUSH3 0x252 DUP3 PUSH3 0x232 JUMP JUMPDEST PUSH3 0x25E DUP2 DUP6 PUSH3 0x23C JUMP JUMPDEST SWAP4 POP PUSH3 0x270 DUP2 DUP6 PUSH1 0x20 DUP7 ADD PUSH3 0x13D JUMP JUMPDEST DUP1 DUP5 ADD SWAP2 POP POP SWAP3 SWAP2 POP POP JUMP JUMPDEST PUSH0 PUSH3 0x289 DUP3 DUP5 PUSH3 0x246 JUMP JUMPDEST SWAP2 POP DUP2 SWAP1 POP SWAP3 SWAP2 POP POP JUMP JUMPDEST PUSH2 0xCCB DUP1 PUSH3 0x2A2 PUSH0 CODECOPY PUSH0 RETURN INVALID PUSH1 0x80 PUSH1 0x40 MSTORE PUSH1 0x4 CALLDATASIZE LT PUSH2 0x3E JUMPI PUSH0 CALLDATALOAD PUSH1 0xE0 SHR DUP1 PUSH4 0x12065FE0 EQ PUSH2 0x42 JUMPI DUP1 PUSH4 0x21C66904 EQ PUSH2 0x6C JUMPI DUP1 PUSH4 0xBB29998E EQ PUSH2 0x88 JUMPI DUP1 PUSH4 0xEB62E591 EQ PUSH2 0xC4 JUMPI JUMPDEST PUSH0 DUP1 REVERT JUMPDEST CALLVALUE DUP1 ISZERO PUSH2 0x4D JUMPI PUSH0 DUP1 REVERT JUMPDEST POP PUSH2 0x56 PUSH2 0x100 JUMP JUMPDEST PUSH1 0x40 MLOAD PUSH2 0x63 SWAP2 SWAP1 PUSH2 0x4E2 JUMP JUMPDEST PUSH1 0x40 MLOAD DUP1 SWAP2 SUB SWAP1 RETURN JUMPDEST PUSH2 0x86 PUSH1 0x4 DUP1 CALLDATASIZE SUB DUP2 ADD SWAP1 PUSH2 0x81 SWAP2 SWAP1 PUSH2 0x6CC JUMP JUMPDEST PUSH2 0x107 JUMP JUMPDEST STOP JUMPDEST CALLVALUE DUP1 ISZERO PUSH2 0x93 JUMPI PUSH0 DUP1 REVERT JUMPDEST POP PUSH2 0xAE PUSH1 0x4 DUP1 CALLDATASIZE SUB DUP2 ADD SWAP1 PUSH2 0xA9 SWAP2 SWAP1 PUSH2 0x799 JUMP JUMPDEST PUSH2 0x288 JUMP JUMPDEST PUSH1 0x40 MLOAD PUSH2 0xBB SWAP2 SWAP1 PUSH2 0x87B JUMP JUMPDEST PUSH1 0x40 MLOAD DUP1 SWAP2 SUB SWAP1 RETURN JUMPDEST CALLVALUE DUP1 ISZERO PUSH2 0xCF JUMPI PUSH0 DUP1 REVERT JUMPDEST POP PUSH2 0xEA PUSH1 0x4 DUP1 CALLDATASIZE SUB DUP2 ADD SWAP1 PUSH2 0xE5 SWAP2 SWAP1 PUSH2 0x8CE JUMP JUMPDEST PUSH2 0x31B JUMP JUMPDEST PUSH1 0x40 MLOAD PUSH2 0xF7 SWAP2 SWAP1 PUSH2 0x91B JUMP JUMPDEST PUSH1 0x40 MLOAD DUP1 SWAP2 SUB SWAP1 RETURN JUMPDEST PUSH0 SELFBALANCE SWAP1 POP SWAP1 JUMP JUMPDEST PUSH2 0x112 DUP9 DUP4 DUP4 PUSH2 0x322 JUMP JUMPDEST PUSH2 0x11B DUP5 PUSH2 0x3F8 JUMP JUMPDEST SELFBALANCE DUP8 GT ISZERO PUSH2 0x15E JUMPI PUSH1 0x40 MLOAD PUSH32 0x8C379A000000000000000000000000000000000000000000000000000000000 DUP2 MSTORE PUSH1 0x4 ADD PUSH2 0x155 SWAP1 PUSH2 0x98E JUMP JUMPDEST PUSH1 0x40 MLOAD DUP1 SWAP2 SUB SWAP1 REVERT JUMPDEST DUP6 DUP6 LT PUSH2 0x243 JUMPI PUSH0 DUP9 PUSH20 0xFFFFFFFFFFFFFFFFFFFFFFFFFFFFFFFFFFFFFFFF AND PUSH2 0x8FC DUP10 SWAP1 DUP2 ISZERO MUL SWAP1 PUSH1 0x40 MLOAD PUSH0 PUSH1 0x40 MLOAD DUP1 DUP4 SUB DUP2 DUP6 DUP9 DUP9 CALL SWAP4 POP POP POP POP SWAP1 POP DUP1 PUSH2 0x1DC JUMPI PUSH1 0x40 MLOAD PUSH32 0x8C379A000000000000000000000000000000000000000000000000000000000 DUP2 MSTORE PUSH1 0x4 ADD PUSH2 0x1D3 SWAP1 PUSH2 0x9F6 JUMP JUMPDEST PUSH1 0x40 MLOAD DUP1 SWAP2 SUB SWAP1 REVERT JUMPDEST PUSH1 0x40 MLOAD DUP1 PUSH1 0x40 ADD PUSH1 0x40 MSTORE DUP1 DUP6 DUP2 MSTORE PUSH1 0x20 ADD DUP5 DUP2 MSTORE POP PUSH1 0x2 PUSH0 DUP12 PUSH20 0xFFFFFFFFFFFFFFFFFFFFFFFFFFFFFFFFFFFFFFFF AND PUSH20 0xFFFFFFFFFFFFFFFFFFFFFFFFFFFFFFFFFFFFFFFF AND DUP2 MSTORE PUSH1 0x20 ADD SWAP1 DUP2 MSTORE PUSH1 0x20 ADD PUSH0 KECCAK256 SWAP1 PUSH1 0x2 PUSH2 0x23C SWAP3 SWAP2 SWAP1 PUSH2 0x464 JUMP JUMPDEST POP POP PUSH2 0x27E JUMP JUMPDEST PUSH1 0x40 MLOAD PUSH32 0x8C379A000000000000000000000000000000000000000000000000000000000 DUP2 MSTORE PUSH1 0x4 ADD PUSH2 0x275 SWAP1 PUSH2 0xA5E JUMP JUMPDEST PUSH1 0x40 MLOAD DUP1 SWAP2 SUB SWAP1 REVERT JUMPDEST POP POP POP POP POP POP POP POP JUMP JUMPDEST PUSH1 0x60 PUSH1 0x2 PUSH0 DUP4 PUSH20 0xFFFFFFFFFFFFFFFFFFFFFFFFFFFFFFFFFFFFFFFF AND PUSH20 0xFFFFFFFFFFFFFFFFFFFFFFFFFFFFFFFFFFFFFFFF AND DUP2 MSTORE PUSH1 0x20 ADD SWAP1 DUP2 MSTORE PUSH1 0x20 ADD PUSH0 KECCAK256 DUP1 SLOAD DUP1 PUSH1 0x20 MUL PUSH1 0x20 ADD PUSH1 0x40 MLOAD SWAP1 DUP2 ADD PUSH1 0x40 MSTORE DUP1 SWAP3 SWAP2 SWAP1 DUP2 DUP2 MSTORE PUSH1 0x20 ADD DUP3 DUP1 SLOAD DUP1 ISZERO PUSH2 0x30F JUMPI PUSH1 0x20 MUL DUP3 ADD SWAP2 SWAP1 PUSH0 MSTORE PUSH1 0x20 PUSH0 KECCAK256 SWAP1 JUMPDEST DUP2 SLOAD DUP2 MSTORE PUSH1 0x20 ADD SWAP1 PUSH1 0x1 ADD SWAP1 DUP1 DUP4 GT PUSH2 0x2FB JUMPI JUMPDEST POP POP POP POP POP SWAP1 POP SWAP2 SWAP1 POP JUMP JUMPDEST PUSH0 SWAP3 SWAP2 POP POP JUMP JUMPDEST PUSH0 DUP2 DUP4 PUSH2 0x32F SWAP2 SWAP1 PUSH2 0xAA9 JUMP JUMPDEST PUSH1 0x40 MLOAD PUSH1 0x20 ADD PUSH2 0x33F SWAP2 SWAP1 PUSH2 0xAFC JUMP JUMPDEST PUSH1 0x40 MLOAD PUSH1 0x20 DUP2 DUP4 SUB SUB DUP2 MSTORE SWAP1 PUSH1 0x40 MSTORE DUP1 MLOAD SWAP1 PUSH1 0x20 ADD KECCAK256 SWAP1 POP DUP1 PUSH0 SHR PUSH1 0x2 PUSH0 DUP7 PUSH20 0xFFFFFFFFFFFFFFFFFFFFFFFFFFFFFFFFFFFFFFFF AND PUSH20 0xFFFFFFFFFFFFFFFFFFFFFFFFFFFFFFFFFFFFFFFF AND DUP2 MSTORE PUSH1 0x20 ADD SWAP1 DUP2 MSTORE PUSH1 0x20 ADD PUSH0 KECCAK256 PUSH0 DUP2 SLOAD DUP2 LT PUSH2 0x3A9 JUMPI PUSH2 0x3A8 PUSH2 0xB16 JUMP JUMPDEST JUMPDEST SWAP1 PUSH0 MSTORE PUSH1 0x20 PUSH0 KECCAK256 ADD SLOAD EQ PUSH2 0x3F2 JUMPI PUSH1 0x40 MLOAD PUSH32 0x8C379A000000000000000000000000000000000000000000000000000000000 DUP2 MSTORE PUSH1 0x4 ADD PUSH2 0x3E9 SWAP1 PUSH2 0xB8D JUMP JUMPDEST PUSH1 0x40 MLOAD DUP1 SWAP2 SUB SWAP1 REVERT JUMPDEST POP POP POP POP JUMP JUMPDEST PUSH0 SLOAD DUP2 PUSH1 0x40 MLOAD PUSH1 0x20 ADD PUSH2 0x40B SWAP2 SWAP1 PUSH2 0xC17 JUMP JUMPDEST PUSH1 0x40 MLOAD PUSH1 0x20 DUP2 DUP4 SUB SUB DUP2 MSTORE SWAP1 PUSH1 0x40 MSTORE DUP1 MLOAD SWAP1 PUSH1 0x20 ADD KECCAK256 EQ PUSH2 0x461 JUMPI PUSH1 0x40 MLOAD PUSH32 0x8C379A000000000000000000000000000000000000000000000000000000000 DUP2 MSTORE PUSH1 0x4 ADD PUSH2 0x458 SWAP1 PUSH2 0xC77 JUMP JUMPDEST PUSH1 0x40 MLOAD DUP1 SWAP2 SUB SWAP1 REVERT JUMPDEST POP JUMP JUMPDEST DUP3 DUP1 SLOAD DUP3 DUP3 SSTORE SWAP1 PUSH0 MSTORE PUSH1 0x20 PUSH0 KECCAK256 SWAP1 DUP2 ADD SWAP3 DUP3 ISZERO PUSH2 0x49E JUMPI SWAP2 PUSH1 0x20 MUL DUP3 ADD JUMPDEST DUP3 DUP2 GT ISZERO PUSH2 0x49D JUMPI DUP3 MLOAD DUP3 SSTORE SWAP2 PUSH1 0x20 ADD SWAP2 SWAP1 PUSH1 0x1 ADD SWAP1 PUSH2 0x482 JUMP JUMPDEST JUMPDEST POP SWAP1 POP PUSH2 0x4AB SWAP2 SWAP1 PUSH2 0x4AF JUMP JUMPDEST POP SWAP1 JUMP JUMPDEST JUMPDEST DUP1 DUP3 GT ISZERO PUSH2 0x4C6 JUMPI PUSH0 DUP2 PUSH0 SWAP1 SSTORE POP PUSH1 0x1 ADD PUSH2 0x4B0 JUMP JUMPDEST POP SWAP1 JUMP JUMPDEST PUSH0 DUP2 SWAP1 POP SWAP2 SWAP1 POP JUMP JUMPDEST PUSH2 0x4DC DUP2 PUSH2 0x4CA JUMP JUMPDEST DUP3 MSTORE POP POP JUMP JUMPDEST PUSH0 PUSH1 0x20 DUP3 ADD SWAP1 POP PUSH2 0x4F5 PUSH0 DUP4 ADD DUP5 PUSH2 0x4D3 JUMP JUMPDEST SWAP3 SWAP2 POP POP JUMP JUMPDEST PUSH0 PUSH1 0x40 MLOAD SWAP1 POP SWAP1 JUMP JUMPDEST PUSH0 DUP1 REVERT JUMPDEST PUSH0 DUP1 REVERT JUMPDEST PUSH0 PUSH20 0xFFFFFFFFFFFFFFFFFFFFFFFFFFFFFFFFFFFFFFFF DUP3 AND SWAP1 POP SWAP2 SWAP1 POP JUMP JUMPDEST PUSH0 PUSH2 0x535 DUP3 PUSH2 0x50C JUMP JUMPDEST SWAP1 POP SWAP2 SWAP1 POP JUMP JUMPDEST PUSH2 0x545 DUP2 PUSH2 0x52B JUMP JUMPDEST DUP2 EQ PUSH2 0x54F JUMPI PUSH0 DUP1 REVERT JUMPDEST POP JUMP JUMPDEST PUSH0 DUP2 CALLDATALOAD SWAP1 POP PUSH2 0x560 DUP2 PUSH2 0x53C JUMP JUMPDEST SWAP3 SWAP2 POP POP JUMP JUMPDEST PUSH2 0x56F DUP2 PUSH2 0x4CA JUMP JUMPDEST DUP2 EQ PUSH2 0x579 JUMPI PUSH0 DUP1 REVERT JUMPDEST POP JUMP JUMPDEST PUSH0 DUP2 CALLDATALOAD SWAP1 POP PUSH2 0x58A DUP2 PUSH2 0x566 JUMP JUMPDEST SWAP3 SWAP2 POP POP JUMP JUMPDEST PUSH0 DUP1 REVERT JUMPDEST PUSH0 DUP1 REVERT JUMPDEST PUSH0 PUSH1 0x1F NOT PUSH1 0x1F DUP4 ADD AND SWAP1 POP SWAP2 SWAP1 POP JUMP JUMPDEST PUSH32 0x4E487B7100000000000000000000000000000000000000000000000000000000 PUSH0 MSTORE PUSH1 0x41 PUSH1 0x4 MSTORE PUSH1 0x24 PUSH0 REVERT JUMPDEST PUSH2 0x5DE DUP3 PUSH2 0x598 JUMP JUMPDEST DUP2 ADD DUP2 DUP2 LT PUSH8 0xFFFFFFFFFFFFFFFF DUP3 GT OR ISZERO PUSH2 0x5FD JUMPI PUSH2 0x5FC PUSH2 0x5A8 JUMP JUMPDEST JUMPDEST DUP1 PUSH1 0x40 MSTORE POP POP POP JUMP JUMPDEST PUSH0 PUSH2 0x60F PUSH2 0x4FB JUMP JUMPDEST SWAP1 POP PUSH2 0x61B DUP3 DUP3 PUSH2 0x5D5 JUMP JUMPDEST SWAP2 SWAP1 POP JUMP JUMPDEST PUSH0 PUSH8 0xFFFFFFFFFFFFFFFF DUP3 GT ISZERO PUSH2 0x63A JUMPI PUSH2 0x639 PUSH2 0x5A8 JUMP JUMPDEST JUMPDEST PUSH2 0x643 DUP3 PUSH2 0x598 JUMP JUMPDEST SWAP1 POP PUSH1 0x20 DUP2 ADD SWAP1 POP SWAP2 SWAP1 POP JUMP JUMPDEST DUP3 DUP2 DUP4 CALLDATACOPY PUSH0 DUP4 DUP4 ADD MSTORE POP POP POP JUMP JUMPDEST PUSH0 PUSH2 0x670 PUSH2 0x66B DUP5 PUSH2 0x620 JUMP JUMPDEST PUSH2 0x606 JUMP JUMPDEST SWAP1 POP DUP3 DUP2 MSTORE PUSH1 0x20 DUP2 ADD DUP5 DUP5 DUP5 ADD GT ISZERO PUSH2 0x68C JUMPI PUSH2 0x68B PUSH2 0x594 JUMP JUMPDEST JUMPDEST PUSH2 0x697 DUP5 DUP3 DUP6 PUSH2 0x650 JUMP JUMPDEST POP SWAP4 SWAP3 POP POP POP JUMP JUMPDEST PUSH0 DUP3 PUSH1 0x1F DUP4 ADD SLT PUSH2 0x6B3 JUMPI PUSH2 0x6B2 PUSH2 0x590 JUMP JUMPDEST JUMPDEST DUP2 CALLDATALOAD PUSH2 0x6C3 DUP5 DUP3 PUSH1 0x20 DUP7 ADD PUSH2 0x65E JUMP JUMPDEST SWAP2 POP POP SWAP3 SWAP2 POP POP JUMP JUMPDEST PUSH0 DUP1 PUSH0 DUP1 PUSH0 DUP1 PUSH0 DUP1 PUSH2 0x100 DUP10 DUP12 SUB SLT ISZERO PUSH2 0x6E9 JUMPI PUSH2 0x6E8 PUSH2 0x504 JUMP JUMPDEST JUMPDEST PUSH0 PUSH2 0x6F6 DUP12 DUP3 DUP13 ADD PUSH2 0x552 JUMP JUMPDEST SWAP9 POP POP PUSH1 0x20 PUSH2 0x707 DUP12 DUP3 DUP13 ADD PUSH2 0x57C JUMP JUMPDEST SWAP8 POP POP PUSH1 0x40 PUSH2 0x718 DUP12 DUP3 DUP13 ADD PUSH2 0x57C JUMP JUMPDEST SWAP7 POP POP PUSH1 0x60 PUSH2 0x729 DUP12 DUP3 DUP13 ADD PUSH2 0x57C JUMP JUMPDEST SWAP6 POP POP PUSH1 0x80 DUP10 ADD CALLDATALOAD PUSH8 0xFFFFFFFFFFFFFFFF DUP2 GT ISZERO PUSH2 0x74A JUMPI PUSH2 0x749 PUSH2 0x508 JUMP JUMPDEST JUMPDEST PUSH2 0x756 DUP12 DUP3 DUP13 ADD PUSH2 0x69F JUMP JUMPDEST SWAP5 POP POP PUSH1 0xA0 PUSH2 0x767 DUP12 DUP3 DUP13 ADD PUSH2 0x57C JUMP JUMPDEST SWAP4 POP POP PUSH1 0xC0 PUSH2 0x778 DUP12 DUP3 DUP13 ADD PUSH2 0x57C JUMP JUMPDEST SWAP3 POP POP PUSH1 0xE0 PUSH2 0x789 DUP12 DUP3 DUP13 ADD PUSH2 0x57C JUMP JUMPDEST SWAP2 POP POP SWAP3 SWAP6 SWAP9 POP SWAP3 SWAP6 SWAP9 SWAP1 SWAP4 SWAP7 POP JUMP JUMPDEST PUSH0 PUSH1 0x20 DUP3 DUP5 SUB SLT ISZERO PUSH2 0x7AE JUMPI PUSH2 0x7AD PUSH2 0x504 JUMP JUMPDEST JUMPDEST PUSH0 PUSH2 0x7BB DUP5 DUP3 DUP6 ADD PUSH2 0x552 JUMP JUMPDEST SWAP2 POP POP SWAP3 SWAP2 POP POP JUMP JUMPDEST PUSH0 DUP2 MLOAD SWAP1 POP SWAP2 SWAP1 POP JUMP JUMPDEST PUSH0 DUP3 DUP3 MSTORE PUSH1 0x20 DUP3 ADD SWAP1 POP SWAP3 SWAP2 POP POP JUMP JUMPDEST PUSH0 DUP2 SWAP1 POP PUSH1 0x20 DUP3 ADD SWAP1 POP SWAP2 SWAP1 POP JUMP JUMPDEST PUSH2 0x7F6 DUP2 PUSH2 0x4CA JUMP JUMPDEST DUP3 MSTORE POP POP JUMP JUMPDEST PUSH0 PUSH2 0x807 DUP4 DUP4 PUSH2 0x7ED JUMP JUMPDEST PUSH1 0x20 DUP4 ADD SWAP1 POP SWAP3 SWAP2 POP POP JUMP JUMPDEST PUSH0 PUSH1 0x20 DUP3 ADD SWAP1 POP SWAP2 SWAP1 POP JUMP JUMPDEST PUSH0 PUSH2 0x829 DUP3 PUSH2 0x7C4 JUMP JUMPDEST PUSH2 0x833 DUP2 DUP6 PUSH2 0x7CE JUMP JUMPDEST SWAP4 POP PUSH2 0x83E DUP4 PUSH2 0x7DE JUMP JUMPDEST DUP1 PUSH0 JUMPDEST DUP4 DUP2 LT ISZERO PUSH2 0x86E JUMPI DUP2 MLOAD PUSH2 0x855 DUP9 DUP3 PUSH2 0x7FC JUMP JUMPDEST SWAP8 POP PUSH2 0x860 DUP4 PUSH2 0x813 JUMP JUMPDEST SWAP3 POP POP PUSH1 0x1 DUP2 ADD SWAP1 POP PUSH2 0x841 JUMP JUMPDEST POP DUP6 SWAP4 POP POP POP POP SWAP3 SWAP2 POP POP JUMP JUMPDEST PUSH0 PUSH1 0x20 DUP3 ADD SWAP1 POP DUP2 DUP2 SUB PUSH0 DUP4 ADD MSTORE PUSH2 0x893 DUP2 DUP5 PUSH2 0x81F JUMP JUMPDEST SWAP1 POP SWAP3 SWAP2 POP POP JUMP JUMPDEST PUSH0 DUP2 SWAP1 POP SWAP2 SWAP1 POP JUMP JUMPDEST PUSH2 0x8AD DUP2 PUSH2 0x89B JUMP JUMPDEST DUP2 EQ PUSH2 0x8B7 JUMPI PUSH0 DUP1 REVERT JUMPDEST POP JUMP JUMPDEST PUSH0 DUP2 CALLDATALOAD SWAP1 POP PUSH2 0x8C8 DUP2 PUSH2 0x8A4 JUMP JUMPDEST SWAP3 SWAP2 POP POP JUMP JUMPDEST PUSH0 DUP1 PUSH1 0x40 DUP4 DUP6 SUB SLT ISZERO PUSH2 0x8E4 JUMPI PUSH2 0x8E3 PUSH2 0x504 JUMP JUMPDEST JUMPDEST PUSH0 PUSH2 0x8F1 DUP6 DUP3 DUP7 ADD PUSH2 0x8BA JUMP JUMPDEST SWAP3 POP POP PUSH1 0x20 PUSH2 0x902 DUP6 DUP3 DUP7 ADD PUSH2 0x8BA JUMP JUMPDEST SWAP2 POP POP SWAP3 POP SWAP3 SWAP1 POP JUMP JUMPDEST PUSH2 0x915 DUP2 PUSH2 0x89B JUMP JUMPDEST DUP3 MSTORE POP POP JUMP JUMPDEST PUSH0 PUSH1 0x20 DUP3 ADD SWAP1 POP PUSH2 0x92E PUSH0 DUP4 ADD DUP5 PUSH2 0x90C JUMP JUMPDEST SWAP3 SWAP2 POP POP JUMP JUMPDEST PUSH0 DUP3 DUP3 MSTORE PUSH1 0x20 DUP3 ADD SWAP1 POP SWAP3 SWAP2 POP POP JUMP JUMPDEST PUSH32 0x496E73756666696369656E742062616C616E6365000000000000000000000000 PUSH0 DUP3 ADD MSTORE POP JUMP JUMPDEST PUSH0 PUSH2 0x978 PUSH1 0x14 DUP4 PUSH2 0x934 JUMP JUMPDEST SWAP2 POP PUSH2 0x983 DUP3 PUSH2 0x944 JUMP JUMPDEST PUSH1 0x20 DUP3 ADD SWAP1 POP SWAP2 SWAP1 POP JUMP JUMPDEST PUSH0 PUSH1 0x20 DUP3 ADD SWAP1 POP DUP2 DUP2 SUB PUSH0 DUP4 ADD MSTORE PUSH2 0x9A5 DUP2 PUSH2 0x96C JUMP JUMPDEST SWAP1 POP SWAP2 SWAP1 POP JUMP JUMPDEST PUSH32 0x5472616E73666572206661696C65640000000000000000000000000000000000 PUSH0 DUP3 ADD MSTORE POP JUMP JUMPDEST PUSH0 PUSH2 0x9E0 PUSH1 0xF DUP4 PUSH2 0x934 JUMP JUMPDEST SWAP2 POP PUSH2 0x9EB DUP3 PUSH2 0x9AC JUMP JUMPDEST PUSH1 0x20 DUP3 ADD SWAP1 POP SWAP2 SWAP1 POP JUMP JUMPDEST PUSH0 PUSH1 0x20 DUP3 ADD SWAP1 POP DUP2 DUP2 SUB PUSH0 DUP4 ADD MSTORE PUSH2 0xA0D DUP2 PUSH2 0x9D4 JUMP JUMPDEST SWAP1 POP SWAP2 SWAP1 POP JUMP JUMPDEST PUSH32 0x55736572206E6F7420456C696769626C65210000000000000000000000000000 PUSH0 DUP3 ADD MSTORE POP JUMP JUMPDEST PUSH0 PUSH2 0xA48 PUSH1 0x12 DUP4 PUSH2 0x934 JUMP JUMPDEST SWAP2 POP PUSH2 0xA53 DUP3 PUSH2 0xA14 JUMP JUMPDEST PUSH1 0x20 DUP3 ADD SWAP1 POP SWAP2 SWAP1 POP JUMP JUMPDEST PUSH0 PUSH1 0x20 DUP3 ADD SWAP1 POP DUP2 DUP2 SUB PUSH0 DUP4 ADD MSTORE PUSH2 0xA75 DUP2 PUSH2 0xA3C JUMP JUMPDEST SWAP1 POP SWAP2 SWAP1 POP JUMP JUMPDEST PUSH32 0x4E487B7100000000000000000000000000000000000000000000000000000000 PUSH0 MSTORE PUSH1 0x11 PUSH1 0x4 MSTORE PUSH1 0x24 PUSH0 REVERT JUMPDEST PUSH0 PUSH2 0xAB3 DUP3 PUSH2 0x4CA JUMP JUMPDEST SWAP2 POP PUSH2 0xABE DUP4 PUSH2 0x4CA JUMP JUMPDEST SWAP3 POP DUP3 DUP3 ADD SWAP1 POP DUP1 DUP3 GT ISZERO PUSH2 0xAD6 JUMPI PUSH2 0xAD5 PUSH2 0xA7C JUMP JUMPDEST JUMPDEST SWAP3 SWAP2 POP POP JUMP JUMPDEST PUSH0 DUP2 SWAP1 POP SWAP2 SWAP1 POP JUMP JUMPDEST PUSH2 0xAF6 PUSH2 0xAF1 DUP3 PUSH2 0x4CA JUMP JUMPDEST PUSH2 0xADC JUMP JUMPDEST DUP3 MSTORE POP POP JUMP JUMPDEST PUSH0 PUSH2 0xB07 DUP3 DUP5 PUSH2 0xAE5 JUMP JUMPDEST PUSH1 0x20 DUP3 ADD SWAP2 POP DUP2 SWAP1 POP SWAP3 SWAP2 POP POP JUMP JUMPDEST PUSH32 0x4E487B7100000000000000000000000000000000000000000000000000000000 PUSH0 MSTORE PUSH1 0x32 PUSH1 0x4 MSTORE PUSH1 0x24 PUSH0 REVERT JUMPDEST PUSH32 0x6E6F7420657175616C0000000000000000000000000000000000000000000000 PUSH0 DUP3 ADD MSTORE POP JUMP JUMPDEST PUSH0 PUSH2 0xB77 PUSH1 0x9 DUP4 PUSH2 0x934 JUMP JUMPDEST SWAP2 POP PUSH2 0xB82 DUP3 PUSH2 0xB43 JUMP JUMPDEST PUSH1 0x20 DUP3 ADD SWAP1 POP SWAP2 SWAP1 POP JUMP JUMPDEST PUSH0 PUSH1 0x20 DUP3 ADD SWAP1 POP DUP2 DUP2 SUB PUSH0 DUP4 ADD MSTORE PUSH2 0xBA4 DUP2 PUSH2 0xB6B JUMP JUMPDEST SWAP1 POP SWAP2 SWAP1 POP JUMP JUMPDEST PUSH0 DUP2 MLOAD SWAP1 POP SWAP2 SWAP1 POP JUMP JUMPDEST PUSH0 DUP2 SWAP1 POP SWAP3 SWAP2 POP POP JUMP JUMPDEST PUSH0 JUMPDEST DUP4 DUP2 LT ISZERO PUSH2 0xBDC JUMPI DUP1 DUP3 ADD MLOAD DUP2 DUP5 ADD MSTORE PUSH1 0x20 DUP2 ADD SWAP1 POP PUSH2 0xBC1 JUMP JUMPDEST PUSH0 DUP5 DUP5 ADD MSTORE POP POP POP POP JUMP JUMPDEST PUSH0 PUSH2 0xBF1 DUP3 PUSH2 0xBAB JUMP JUMPDEST PUSH2 0xBFB DUP2 DUP6 PUSH2 0xBB5 JUMP JUMPDEST SWAP4 POP PUSH2 0xC0B DUP2 DUP6 PUSH1 0x20 DUP7 ADD PUSH2 0xBBF JUMP JUMPDEST DUP1 DUP5 ADD SWAP2 POP POP SWAP3 SWAP2 POP POP JUMP JUMPDEST PUSH0 PUSH2 0xC22 DUP3 DUP5 PUSH2 0xBE7 JUMP JUMPDEST SWAP2 POP DUP2 SWAP1 POP SWAP3 SWAP2 POP POP JUMP JUMPDEST PUSH32 0x55736572206E6F7420417574686F72697A656421000000000000000000000000 PUSH0 DUP3 ADD MSTORE POP JUMP JUMPDEST PUSH0 PUSH2 0xC61 PUSH1 0x14 DUP4 PUSH2 0x934 JUMP JUMPDEST SWAP2 POP PUSH2 0xC6C DUP3 PUSH2 0xC2D JUMP JUMPDEST PUSH1 0x20 DUP3 ADD SWAP1 POP SWAP2 SWAP1 POP JUMP JUMPDEST PUSH0 PUSH1 0x20 DUP3 ADD SWAP1 POP DUP2 DUP2 SUB PUSH0 DUP4 ADD MSTORE PUSH2 0xC8E DUP2 PUSH2 0xC55 JUMP JUMPDEST SWAP1 POP SWAP2 SWAP1 POP JUMP INVALID LOG2 PUSH5 0x6970667358 0x22 SLT KECCAK256 0x21 0xB8 DUP7 0xD0 0x4D 0xC1 ORIGIN RETURNDATACOPY 0xCA PUSH10 0x72752510B4D23EEC6501 SELFDESTRUCT 0x4C 0xBE 0xC9 0xEF CREATE 0xD2 PC CODECOPY 0x4E EXP CALL PUSH5 0x736F6C6343 STOP ADDMOD AND STOP CALLER "
	},
	"abi": [
		{
			"inputs": [
				{
					"internalType": "string",
					"name": "_secret",
					"type": "string"
				}
			],
			"stateMutability": "payable",
			"type": "constructor"
		},
		{
			"inputs": [],
			"name": "getBalance",
			"outputs": [
				{
					"internalType": "uint256",
					"name": "",
					"type": "uint256"
				}
			],
			"stateMutability": "view",
			"type": "function"
		},
		{
			"inputs": [
				{
					"internalType": "address",
					"name": "recipient",
					"type": "address"
				},
				{
					"internalType": "uint256",
					"name": "amount",
					"type": "uint256"
				},
				{
					"internalType": "uint256",
					"name": "campaignCount",
					"type": "uint256"
				},
				{
					"internalType": "uint256",
					"name": "shoppingCount",
					"type": "uint256"
				},
				{
					"internalType": "string",
					"name": "_secret",
					"type": "string"
				},
				{
					"internalType": "uint256",
					"name": "_encData",
					"type": "uint256"
				},
				{
					"internalType": "uint256",
					"name": "_decData",
					"type": "uint256"
				},
				{
					"internalType": "uint256",
					"name": "_saltHash",
					"type": "uint256"
				}
			],
			"name": "pay",
			"outputs": [],
			"stateMutability": "payable",
			"type": "function"
		},
		{
			"inputs": [
				{
					"internalType": "address",
					"name": "_userAddress",
					"type": "address"
				}
			],
			"name": "test",
			"outputs": [
				{
					"internalType": "uint256[]",
					"name": "",
					"type": "uint256[]"
				}
			],
			"stateMutability": "view",
			"type": "function"
		},
		{
			"inputs": [
				{
					"internalType": "bytes32",
					"name": "_decData",
					"type": "bytes32"
				},
				{
					"internalType": "bytes32",
					"name": "_saltHash",
					"type": "bytes32"
				}
			],
			"name": "test2",
			"outputs": [
				{
					"internalType": "bytes32",
					"name": "",
					"type": "bytes32"
				}
			],
			"stateMutability": "pure",
			"type": "function"
		}
	],
	"storageLayout": {
		"storage": [
			{
				"astId": 3,
				"contract": "loyalty.sol:cryptoDorea",
				"label": "_secretHash",
				"offset": 0,
				"slot": "0",
				"type": "t_bytes32"
			},
			{
				"astId": 7,
				"contract": "loyalty.sol:cryptoDorea",
				"label": "_usersAddress",
				"offset": 0,
				"slot": "1",
				"type": "t_mapping(t_address,t_uint256)"
			},
			{
				"astId": 12,
				"contract": "loyalty.sol:cryptoDorea",
				"label": "_usersAuthToken",
				"offset": 0,
				"slot": "2",
				"type": "t_mapping(t_address,t_array(t_uint256)dyn_storage)"
			}
		],
		"types": {
			"t_address": {
				"encoding": "inplace",
				"label": "address",
				"numberOfBytes": "20"
			},
			"t_array(t_uint256)dyn_storage": {
				"base": "t_uint256",
				"encoding": "dynamic_array",
				"label": "uint256[]",
				"numberOfBytes": "32"
			},
			"t_bytes32": {
				"encoding": "inplace",
				"label": "bytes32",
				"numberOfBytes": "32"
			},
			"t_mapping(t_address,t_array(t_uint256)dyn_storage)": {
				"encoding": "mapping",
				"key": "t_address",
				"label": "mapping(address => uint256[])",
				"numberOfBytes": "32",
				"value": "t_array(t_uint256)dyn_storage"
			},
			"t_mapping(t_address,t_uint256)": {
				"encoding": "mapping",
				"key": "t_address",
				"label": "mapping(address => uint256)",
				"numberOfBytes": "32",
				"value": "t_uint256"
			},
			"t_uint256": {
				"encoding": "inplace",
				"label": "uint256",
				"numberOfBytes": "32"
			}
		}
	},
	"web3Deploy": "var _secret = /* var of type string here */ ;\nvar cryptodoreaContract = new web3.eth.Contract([{\"inputs\":[{\"internalType\":\"string\",\"name\":\"_secret\",\"type\":\"string\"}],\"stateMutability\":\"payable\",\"type\":\"constructor\"},{\"inputs\":[],\"name\":\"getBalance\",\"outputs\":[{\"internalType\":\"uint256\",\"name\":\"\",\"type\":\"uint256\"}],\"stateMutability\":\"view\",\"type\":\"function\"},{\"inputs\":[{\"internalType\":\"address\",\"name\":\"recipient\",\"type\":\"address\"},{\"internalType\":\"uint256\",\"name\":\"amount\",\"type\":\"uint256\"},{\"internalType\":\"uint256\",\"name\":\"campaignCount\",\"type\":\"uint256\"},{\"internalType\":\"uint256\",\"name\":\"shoppingCount\",\"type\":\"uint256\"},{\"internalType\":\"string\",\"name\":\"_secret\",\"type\":\"string\"},{\"internalType\":\"uint256\",\"name\":\"_encData\",\"type\":\"uint256\"},{\"internalType\":\"uint256\",\"name\":\"_decData\",\"type\":\"uint256\"},{\"internalType\":\"uint256\",\"name\":\"_saltHash\",\"type\":\"uint256\"}],\"name\":\"pay\",\"outputs\":[],\"stateMutability\":\"payable\",\"type\":\"function\"},{\"inputs\":[{\"internalType\":\"address\",\"name\":\"_userAddress\",\"type\":\"address\"}],\"name\":\"test\",\"outputs\":[{\"internalType\":\"uint256[]\",\"name\":\"\",\"type\":\"uint256[]\"}],\"stateMutability\":\"view\",\"type\":\"function\"},{\"inputs\":[{\"internalType\":\"bytes32\",\"name\":\"_decData\",\"type\":\"bytes32\"},{\"internalType\":\"bytes32\",\"name\":\"_saltHash\",\"type\":\"bytes32\"}],\"name\":\"test2\",\"outputs\":[{\"internalType\":\"bytes32\",\"name\":\"\",\"type\":\"bytes32\"}],\"stateMutability\":\"pure\",\"type\":\"function\"}]);\nvar cryptodorea = cryptodoreaContract.deploy({\n     data: '0x608060405260405162000f6d38038062000f6d8339818101604052810190620000299190620001e3565b806040516020016200003c91906200027c565b604051602081830303815290604052805190602001205f819055505062000294565b5f604051905090565b5f80fd5b5f80fd5b5f80fd5b5f80fd5b5f601f19601f8301169050919050565b7f4e487b71000000000000000000000000000000000000000000000000000000005f52604160045260245ffd5b620000bf8262000077565b810181811067ffffffffffffffff82111715620000e157620000e062000087565b5b80604052505050565b5f620000f56200005e565b9050620001038282620000b4565b919050565b5f67ffffffffffffffff82111562000125576200012462000087565b5b620001308262000077565b9050602081019050919050565b5f5b838110156200015c5780820151818401526020810190506200013f565b5f8484015250505050565b5f6200017d620001778462000108565b620000ea565b9050828152602081018484840111156200019c576200019b62000073565b5b620001a98482856200013d565b509392505050565b5f82601f830112620001c857620001c76200006f565b5b8151620001da84826020860162000167565b91505092915050565b5f60208284031215620001fb57620001fa62000067565b5b5f82015167ffffffffffffffff8111156200021b576200021a6200006b565b5b6200022984828501620001b1565b91505092915050565b5f81519050919050565b5f81905092915050565b5f620002528262000232565b6200025e81856200023c565b9350620002708185602086016200013d565b80840191505092915050565b5f62000289828462000246565b915081905092915050565b610ccb80620002a25f395ff3fe60806040526004361061003e575f3560e01c806312065fe01461004257806321c669041461006c578063bb29998e14610088578063eb62e591146100c4575b5f80fd5b34801561004d575f80fd5b50610056610100565b60405161006391906104e2565b60405180910390f35b610086600480360381019061008191906106cc565b610107565b005b348015610093575f80fd5b506100ae60048036038101906100a99190610799565b610288565b6040516100bb919061087b565b60405180910390f35b3480156100cf575f80fd5b506100ea60048036038101906100e591906108ce565b61031b565b6040516100f7919061091b565b60405180910390f35b5f47905090565b610112888383610322565b61011b846103f8565b4787111561015e576040517f08c379a00000000000000000000000000000000000000000000000000000000081526004016101559061098e565b60405180910390fd5b858510610243575f8873ffffffffffffffffffffffffffffffffffffffff166108fc8990811502906040515f60405180830381858888f193505050509050806101dc576040517f08c379a00000000000000000000000000000000000000000000000000000000081526004016101d3906109f6565b60405180910390fd5b60405180604001604052808581526020018481525060025f8b73ffffffffffffffffffffffffffffffffffffffff1673ffffffffffffffffffffffffffffffffffffffff1681526020019081526020015f2090600261023c929190610464565b505061027e565b6040517f08c379a000000000000000000000000000000000000000000000000000000000815260040161027590610a5e565b60405180910390fd5b5050505050505050565b606060025f8373ffffffffffffffffffffffffffffffffffffffff1673ffffffffffffffffffffffffffffffffffffffff1681526020019081526020015f2080548060200260200160405190810160405280929190818152602001828054801561030f57602002820191905f5260205f20905b8154815260200190600101908083116102fb575b50505050509050919050565b5f92915050565b5f818361032f9190610aa9565b60405160200161033f9190610afc565b604051602081830303815290604052805190602001209050805f1c60025f8673ffffffffffffffffffffffffffffffffffffffff1673ffffffffffffffffffffffffffffffffffffffff1681526020019081526020015f205f815481106103a9576103a8610b16565b5b905f5260205f200154146103f2576040517f08c379a00000000000000000000000000000000000000000000000000000000081526004016103e990610b8d565b60405180910390fd5b50505050565b5f548160405160200161040b9190610c17565b6040516020818303038152906040528051906020012014610461576040517f08c379a000000000000000000000000000000000000000000000000000000000815260040161045890610c77565b60405180910390fd5b50565b828054828255905f5260205f2090810192821561049e579160200282015b8281111561049d578251825591602001919060010190610482565b5b5090506104ab91906104af565b5090565b5b808211156104c6575f815f9055506001016104b0565b5090565b5f819050919050565b6104dc816104ca565b82525050565b5f6020820190506104f55f8301846104d3565b92915050565b5f604051905090565b5f80fd5b5f80fd5b5f73ffffffffffffffffffffffffffffffffffffffff82169050919050565b5f6105358261050c565b9050919050565b6105458161052b565b811461054f575f80fd5b50565b5f813590506105608161053c565b92915050565b61056f816104ca565b8114610579575f80fd5b50565b5f8135905061058a81610566565b92915050565b5f80fd5b5f80fd5b5f601f19601f8301169050919050565b7f4e487b71000000000000000000000000000000000000000000000000000000005f52604160045260245ffd5b6105de82610598565b810181811067ffffffffffffffff821117156105fd576105fc6105a8565b5b80604052505050565b5f61060f6104fb565b905061061b82826105d5565b919050565b5f67ffffffffffffffff82111561063a576106396105a8565b5b61064382610598565b9050602081019050919050565b828183375f83830152505050565b5f61067061066b84610620565b610606565b90508281526020810184848401111561068c5761068b610594565b5b610697848285610650565b509392505050565b5f82601f8301126106b3576106b2610590565b5b81356106c384826020860161065e565b91505092915050565b5f805f805f805f80610100898b0312156106e9576106e8610504565b5b5f6106f68b828c01610552565b98505060206107078b828c0161057c565b97505060406107188b828c0161057c565b96505060606107298b828c0161057c565b955050608089013567ffffffffffffffff81111561074a57610749610508565b5b6107568b828c0161069f565b94505060a06107678b828c0161057c565b93505060c06107788b828c0161057c565b92505060e06107898b828c0161057c565b9150509295985092959890939650565b5f602082840312156107ae576107ad610504565b5b5f6107bb84828501610552565b91505092915050565b5f81519050919050565b5f82825260208201905092915050565b5f819050602082019050919050565b6107f6816104ca565b82525050565b5f61080783836107ed565b60208301905092915050565b5f602082019050919050565b5f610829826107c4565b61083381856107ce565b935061083e836107de565b805f5b8381101561086e57815161085588826107fc565b975061086083610813565b925050600181019050610841565b5085935050505092915050565b5f6020820190508181035f830152610893818461081f565b905092915050565b5f819050919050565b6108ad8161089b565b81146108b7575f80fd5b50565b5f813590506108c8816108a4565b92915050565b5f80604083850312156108e4576108e3610504565b5b5f6108f1858286016108ba565b9250506020610902858286016108ba565b9150509250929050565b6109158161089b565b82525050565b5f60208201905061092e5f83018461090c565b92915050565b5f82825260208201905092915050565b7f496e73756666696369656e742062616c616e63650000000000000000000000005f82015250565b5f610978601483610934565b915061098382610944565b602082019050919050565b5f6020820190508181035f8301526109a58161096c565b9050919050565b7f5472616e73666572206661696c656400000000000000000000000000000000005f82015250565b5f6109e0600f83610934565b91506109eb826109ac565b602082019050919050565b5f6020820190508181035f830152610a0d816109d4565b9050919050565b7f55736572206e6f7420456c696769626c652100000000000000000000000000005f82015250565b5f610a48601283610934565b9150610a5382610a14565b602082019050919050565b5f6020820190508181035f830152610a7581610a3c565b9050919050565b7f4e487b71000000000000000000000000000000000000000000000000000000005f52601160045260245ffd5b5f610ab3826104ca565b9150610abe836104ca565b9250828201905080821115610ad657610ad5610a7c565b5b92915050565b5f819050919050565b610af6610af1826104ca565b610adc565b82525050565b5f610b078284610ae5565b60208201915081905092915050565b7f4e487b71000000000000000000000000000000000000000000000000000000005f52603260045260245ffd5b7f6e6f7420657175616c00000000000000000000000000000000000000000000005f82015250565b5f610b77600983610934565b9150610b8282610b43565b602082019050919050565b5f6020820190508181035f830152610ba481610b6b565b9050919050565b5f81519050919050565b5f81905092915050565b5f5b83811015610bdc578082015181840152602081019050610bc1565b5f8484015250505050565b5f610bf182610bab565b610bfb8185610bb5565b9350610c0b818560208601610bbf565b80840191505092915050565b5f610c228284610be7565b915081905092915050565b7f55736572206e6f7420417574686f72697a6564210000000000000000000000005f82015250565b5f610c61601483610934565b9150610c6c82610c2d565b602082019050919050565b5f6020820190508181035f830152610c8e81610c55565b905091905056fea264697066735822122021b886d04dc1323eca6972752510b4d23eec6501ff4cbec9eff0d258394e0af164736f6c63430008160033', \n     arguments: [\n          _secret,\n     ]\n}).send({\n     from: web3.eth.accounts[0], \n     gas: '4700000'\n   }, function (e, contract){\n    console.log(e, contract);\n    if (typeof contract.address !== 'undefined') {\n         console.log('Contract mined! address: ' + contract.address + ' transactionHash: ' + contract.transactionHash);\n    }\n })",
	"functionHashes": {
		"12065fe0": "getBalance()",
		"21c66904": "pay(address,uint256,uint256,uint256,string,uint256,uint256,uint256)",
		"bb29998e": "test(address)",
		"eb62e591": "test2(bytes32,bytes32)"
	},
	"gasEstimates": {
		"Creation": {
			"codeDepositCost": "655000",
			"executionCost": "infinite",
			"totalCost": "infinite"
		},
		"External": {
			"getBalance()": "312",
			"pay(address,uint256,uint256,uint256,string,uint256,uint256,uint256)": "infinite",
			"test(address)": "infinite",
			"test2(bytes32,bytes32)": "infinite"
		},
		"Internal": {
			"userAuthTokenCheck(address,uint256,uint256)": "infinite",
			"userAuthorized(string memory)": "infinite"
		}
	},
	"devdoc": {
		"kind": "dev",
		"methods": {},
		"version": 1
	},
	"userdoc": {
		"kind": "user",
		"methods": {},
		"version": 1
	},
	"Runtime Bytecode": {
		"immutableReferences": {},
		"linkReferences": {},
		"object": "60806040526004361061003e575f3560e01c806312065fe01461004257806321c669041461006c578063bb29998e14610088578063eb62e591146100c4575b5f80fd5b34801561004d575f80fd5b50610056610100565b60405161006391906104e2565b60405180910390f35b610086600480360381019061008191906106cc565b610107565b005b348015610093575f80fd5b506100ae60048036038101906100a99190610799565b610288565b6040516100bb919061087b565b60405180910390f35b3480156100cf575f80fd5b506100ea60048036038101906100e591906108ce565b61031b565b6040516100f7919061091b565b60405180910390f35b5f47905090565b610112888383610322565b61011b846103f8565b4787111561015e576040517f08c379a00000000000000000000000000000000000000000000000000000000081526004016101559061098e565b60405180910390fd5b858510610243575f8873ffffffffffffffffffffffffffffffffffffffff166108fc8990811502906040515f60405180830381858888f193505050509050806101dc576040517f08c379a00000000000000000000000000000000000000000000000000000000081526004016101d3906109f6565b60405180910390fd5b60405180604001604052808581526020018481525060025f8b73ffffffffffffffffffffffffffffffffffffffff1673ffffffffffffffffffffffffffffffffffffffff1681526020019081526020015f2090600261023c929190610464565b505061027e565b6040517f08c379a000000000000000000000000000000000000000000000000000000000815260040161027590610a5e565b60405180910390fd5b5050505050505050565b606060025f8373ffffffffffffffffffffffffffffffffffffffff1673ffffffffffffffffffffffffffffffffffffffff1681526020019081526020015f2080548060200260200160405190810160405280929190818152602001828054801561030f57602002820191905f5260205f20905b8154815260200190600101908083116102fb575b50505050509050919050565b5f92915050565b5f818361032f9190610aa9565b60405160200161033f9190610afc565b604051602081830303815290604052805190602001209050805f1c60025f8673ffffffffffffffffffffffffffffffffffffffff1673ffffffffffffffffffffffffffffffffffffffff1681526020019081526020015f205f815481106103a9576103a8610b16565b5b905f5260205f200154146103f2576040517f08c379a00000000000000000000000000000000000000000000000000000000081526004016103e990610b8d565b60405180910390fd5b50505050565b5f548160405160200161040b9190610c17565b6040516020818303038152906040528051906020012014610461576040517f08c379a000000000000000000000000000000000000000000000000000000000815260040161045890610c77565b60405180910390fd5b50565b828054828255905f5260205f2090810192821561049e579160200282015b8281111561049d578251825591602001919060010190610482565b5b5090506104ab91906104af565b5090565b5b808211156104c6575f815f9055506001016104b0565b5090565b5f819050919050565b6104dc816104ca565b82525050565b5f6020820190506104f55f8301846104d3565b92915050565b5f604051905090565b5f80fd5b5f80fd5b5f73ffffffffffffffffffffffffffffffffffffffff82169050919050565b5f6105358261050c565b9050919050565b6105458161052b565b811461054f575f80fd5b50565b5f813590506105608161053c565b92915050565b61056f816104ca565b8114610579575f80fd5b50565b5f8135905061058a81610566565b92915050565b5f80fd5b5f80fd5b5f601f19601f8301169050919050565b7f4e487b71000000000000000000000000000000000000000000000000000000005f52604160045260245ffd5b6105de82610598565b810181811067ffffffffffffffff821117156105fd576105fc6105a8565b5b80604052505050565b5f61060f6104fb565b905061061b82826105d5565b919050565b5f67ffffffffffffffff82111561063a576106396105a8565b5b61064382610598565b9050602081019050919050565b828183375f83830152505050565b5f61067061066b84610620565b610606565b90508281526020810184848401111561068c5761068b610594565b5b610697848285610650565b509392505050565b5f82601f8301126106b3576106b2610590565b5b81356106c384826020860161065e565b91505092915050565b5f805f805f805f80610100898b0312156106e9576106e8610504565b5b5f6106f68b828c01610552565b98505060206107078b828c0161057c565b97505060406107188b828c0161057c565b96505060606107298b828c0161057c565b955050608089013567ffffffffffffffff81111561074a57610749610508565b5b6107568b828c0161069f565b94505060a06107678b828c0161057c565b93505060c06107788b828c0161057c565b92505060e06107898b828c0161057c565b9150509295985092959890939650565b5f602082840312156107ae576107ad610504565b5b5f6107bb84828501610552565b91505092915050565b5f81519050919050565b5f82825260208201905092915050565b5f819050602082019050919050565b6107f6816104ca565b82525050565b5f61080783836107ed565b60208301905092915050565b5f602082019050919050565b5f610829826107c4565b61083381856107ce565b935061083e836107de565b805f5b8381101561086e57815161085588826107fc565b975061086083610813565b925050600181019050610841565b5085935050505092915050565b5f6020820190508181035f830152610893818461081f565b905092915050565b5f819050919050565b6108ad8161089b565b81146108b7575f80fd5b50565b5f813590506108c8816108a4565b92915050565b5f80604083850312156108e4576108e3610504565b5b5f6108f1858286016108ba565b9250506020610902858286016108ba565b9150509250929050565b6109158161089b565b82525050565b5f60208201905061092e5f83018461090c565b92915050565b5f82825260208201905092915050565b7f496e73756666696369656e742062616c616e63650000000000000000000000005f82015250565b5f610978601483610934565b915061098382610944565b602082019050919050565b5f6020820190508181035f8301526109a58161096c565b9050919050565b7f5472616e73666572206661696c656400000000000000000000000000000000005f82015250565b5f6109e0600f83610934565b91506109eb826109ac565b602082019050919050565b5f6020820190508181035f830152610a0d816109d4565b9050919050565b7f55736572206e6f7420456c696769626c652100000000000000000000000000005f82015250565b5f610a48601283610934565b9150610a5382610a14565b602082019050919050565b5f6020820190508181035f830152610a7581610a3c565b9050919050565b7f4e487b71000000000000000000000000000000000000000000000000000000005f52601160045260245ffd5b5f610ab3826104ca565b9150610abe836104ca565b9250828201905080821115610ad657610ad5610a7c565b5b92915050565b5f819050919050565b610af6610af1826104ca565b610adc565b82525050565b5f610b078284610ae5565b60208201915081905092915050565b7f4e487b71000000000000000000000000000000000000000000000000000000005f52603260045260245ffd5b7f6e6f7420657175616c00000000000000000000000000000000000000000000005f82015250565b5f610b77600983610934565b9150610b8282610b43565b602082019050919050565b5f6020820190508181035f830152610ba481610b6b565b9050919050565b5f81519050919050565b5f81905092915050565b5f5b83811015610bdc578082015181840152602081019050610bc1565b5f8484015250505050565b5f610bf182610bab565b610bfb8185610bb5565b9350610c0b818560208601610bbf565b80840191505092915050565b5f610c228284610be7565b915081905092915050565b7f55736572206e6f7420417574686f72697a6564210000000000000000000000005f82015250565b5f610c61601483610934565b9150610c6c82610c2d565b602082019050919050565b5f6020820190508181035f830152610c8e81610c55565b905091905056fea264697066735822122021b886d04dc1323eca6972752510b4d23eec6501ff4cbec9eff0d258394e0af164736f6c63430008160033",
		"opcodes": "PUSH1 0x80 PUSH1 0x40 MSTORE PUSH1 0x4 CALLDATASIZE LT PUSH2 0x3E JUMPI PUSH0 CALLDATALOAD PUSH1 0xE0 SHR DUP1 PUSH4 0x12065FE0 EQ PUSH2 0x42 JUMPI DUP1 PUSH4 0x21C66904 EQ PUSH2 0x6C JUMPI DUP1 PUSH4 0xBB29998E EQ PUSH2 0x88 JUMPI DUP1 PUSH4 0xEB62E591 EQ PUSH2 0xC4 JUMPI JUMPDEST PUSH0 DUP1 REVERT JUMPDEST CALLVALUE DUP1 ISZERO PUSH2 0x4D JUMPI PUSH0 DUP1 REVERT JUMPDEST POP PUSH2 0x56 PUSH2 0x100 JUMP JUMPDEST PUSH1 0x40 MLOAD PUSH2 0x63 SWAP2 SWAP1 PUSH2 0x4E2 JUMP JUMPDEST PUSH1 0x40 MLOAD DUP1 SWAP2 SUB SWAP1 RETURN JUMPDEST PUSH2 0x86 PUSH1 0x4 DUP1 CALLDATASIZE SUB DUP2 ADD SWAP1 PUSH2 0x81 SWAP2 SWAP1 PUSH2 0x6CC JUMP JUMPDEST PUSH2 0x107 JUMP JUMPDEST STOP JUMPDEST CALLVALUE DUP1 ISZERO PUSH2 0x93 JUMPI PUSH0 DUP1 REVERT JUMPDEST POP PUSH2 0xAE PUSH1 0x4 DUP1 CALLDATASIZE SUB DUP2 ADD SWAP1 PUSH2 0xA9 SWAP2 SWAP1 PUSH2 0x799 JUMP JUMPDEST PUSH2 0x288 JUMP JUMPDEST PUSH1 0x40 MLOAD PUSH2 0xBB SWAP2 SWAP1 PUSH2 0x87B JUMP JUMPDEST PUSH1 0x40 MLOAD DUP1 SWAP2 SUB SWAP1 RETURN JUMPDEST CALLVALUE DUP1 ISZERO PUSH2 0xCF JUMPI PUSH0 DUP1 REVERT JUMPDEST POP PUSH2 0xEA PUSH1 0x4 DUP1 CALLDATASIZE SUB DUP2 ADD SWAP1 PUSH2 0xE5 SWAP2 SWAP1 PUSH2 0x8CE JUMP JUMPDEST PUSH2 0x31B JUMP JUMPDEST PUSH1 0x40 MLOAD PUSH2 0xF7 SWAP2 SWAP1 PUSH2 0x91B JUMP JUMPDEST PUSH1 0x40 MLOAD DUP1 SWAP2 SUB SWAP1 RETURN JUMPDEST PUSH0 SELFBALANCE SWAP1 POP SWAP1 JUMP JUMPDEST PUSH2 0x112 DUP9 DUP4 DUP4 PUSH2 0x322 JUMP JUMPDEST PUSH2 0x11B DUP5 PUSH2 0x3F8 JUMP JUMPDEST SELFBALANCE DUP8 GT ISZERO PUSH2 0x15E JUMPI PUSH1 0x40 MLOAD PUSH32 0x8C379A000000000000000000000000000000000000000000000000000000000 DUP2 MSTORE PUSH1 0x4 ADD PUSH2 0x155 SWAP1 PUSH2 0x98E JUMP JUMPDEST PUSH1 0x40 MLOAD DUP1 SWAP2 SUB SWAP1 REVERT JUMPDEST DUP6 DUP6 LT PUSH2 0x243 JUMPI PUSH0 DUP9 PUSH20 0xFFFFFFFFFFFFFFFFFFFFFFFFFFFFFFFFFFFFFFFF AND PUSH2 0x8FC DUP10 SWAP1 DUP2 ISZERO MUL SWAP1 PUSH1 0x40 MLOAD PUSH0 PUSH1 0x40 MLOAD DUP1 DUP4 SUB DUP2 DUP6 DUP9 DUP9 CALL SWAP4 POP POP POP POP SWAP1 POP DUP1 PUSH2 0x1DC JUMPI PUSH1 0x40 MLOAD PUSH32 0x8C379A000000000000000000000000000000000000000000000000000000000 DUP2 MSTORE PUSH1 0x4 ADD PUSH2 0x1D3 SWAP1 PUSH2 0x9F6 JUMP JUMPDEST PUSH1 0x40 MLOAD DUP1 SWAP2 SUB SWAP1 REVERT JUMPDEST PUSH1 0x40 MLOAD DUP1 PUSH1 0x40 ADD PUSH1 0x40 MSTORE DUP1 DUP6 DUP2 MSTORE PUSH1 0x20 ADD DUP5 DUP2 MSTORE POP PUSH1 0x2 PUSH0 DUP12 PUSH20 0xFFFFFFFFFFFFFFFFFFFFFFFFFFFFFFFFFFFFFFFF AND PUSH20 0xFFFFFFFFFFFFFFFFFFFFFFFFFFFFFFFFFFFFFFFF AND DUP2 MSTORE PUSH1 0x20 ADD SWAP1 DUP2 MSTORE PUSH1 0x20 ADD PUSH0 KECCAK256 SWAP1 PUSH1 0x2 PUSH2 0x23C SWAP3 SWAP2 SWAP1 PUSH2 0x464 JUMP JUMPDEST POP POP PUSH2 0x27E JUMP JUMPDEST PUSH1 0x40 MLOAD PUSH32 0x8C379A000000000000000000000000000000000000000000000000000000000 DUP2 MSTORE PUSH1 0x4 ADD PUSH2 0x275 SWAP1 PUSH2 0xA5E JUMP JUMPDEST PUSH1 0x40 MLOAD DUP1 SWAP2 SUB SWAP1 REVERT JUMPDEST POP POP POP POP POP POP POP POP JUMP JUMPDEST PUSH1 0x60 PUSH1 0x2 PUSH0 DUP4 PUSH20 0xFFFFFFFFFFFFFFFFFFFFFFFFFFFFFFFFFFFFFFFF AND PUSH20 0xFFFFFFFFFFFFFFFFFFFFFFFFFFFFFFFFFFFFFFFF AND DUP2 MSTORE PUSH1 0x20 ADD SWAP1 DUP2 MSTORE PUSH1 0x20 ADD PUSH0 KECCAK256 DUP1 SLOAD DUP1 PUSH1 0x20 MUL PUSH1 0x20 ADD PUSH1 0x40 MLOAD SWAP1 DUP2 ADD PUSH1 0x40 MSTORE DUP1 SWAP3 SWAP2 SWAP1 DUP2 DUP2 MSTORE PUSH1 0x20 ADD DUP3 DUP1 SLOAD DUP1 ISZERO PUSH2 0x30F JUMPI PUSH1 0x20 MUL DUP3 ADD SWAP2 SWAP1 PUSH0 MSTORE PUSH1 0x20 PUSH0 KECCAK256 SWAP1 JUMPDEST DUP2 SLOAD DUP2 MSTORE PUSH1 0x20 ADD SWAP1 PUSH1 0x1 ADD SWAP1 DUP1 DUP4 GT PUSH2 0x2FB JUMPI JUMPDEST POP POP POP POP POP SWAP1 POP SWAP2 SWAP1 POP JUMP JUMPDEST PUSH0 SWAP3 SWAP2 POP POP JUMP JUMPDEST PUSH0 DUP2 DUP4 PUSH2 0x32F SWAP2 SWAP1 PUSH2 0xAA9 JUMP JUMPDEST PUSH1 0x40 MLOAD PUSH1 0x20 ADD PUSH2 0x33F SWAP2 SWAP1 PUSH2 0xAFC JUMP JUMPDEST PUSH1 0x40 MLOAD PUSH1 0x20 DUP2 DUP4 SUB SUB DUP2 MSTORE SWAP1 PUSH1 0x40 MSTORE DUP1 MLOAD SWAP1 PUSH1 0x20 ADD KECCAK256 SWAP1 POP DUP1 PUSH0 SHR PUSH1 0x2 PUSH0 DUP7 PUSH20 0xFFFFFFFFFFFFFFFFFFFFFFFFFFFFFFFFFFFFFFFF AND PUSH20 0xFFFFFFFFFFFFFFFFFFFFFFFFFFFFFFFFFFFFFFFF AND DUP2 MSTORE PUSH1 0x20 ADD SWAP1 DUP2 MSTORE PUSH1 0x20 ADD PUSH0 KECCAK256 PUSH0 DUP2 SLOAD DUP2 LT PUSH2 0x3A9 JUMPI PUSH2 0x3A8 PUSH2 0xB16 JUMP JUMPDEST JUMPDEST SWAP1 PUSH0 MSTORE PUSH1 0x20 PUSH0 KECCAK256 ADD SLOAD EQ PUSH2 0x3F2 JUMPI PUSH1 0x40 MLOAD PUSH32 0x8C379A000000000000000000000000000000000000000000000000000000000 DUP2 MSTORE PUSH1 0x4 ADD PUSH2 0x3E9 SWAP1 PUSH2 0xB8D JUMP JUMPDEST PUSH1 0x40 MLOAD DUP1 SWAP2 SUB SWAP1 REVERT JUMPDEST POP POP POP POP JUMP JUMPDEST PUSH0 SLOAD DUP2 PUSH1 0x40 MLOAD PUSH1 0x20 ADD PUSH2 0x40B SWAP2 SWAP1 PUSH2 0xC17 JUMP JUMPDEST PUSH1 0x40 MLOAD PUSH1 0x20 DUP2 DUP4 SUB SUB DUP2 MSTORE SWAP1 PUSH1 0x40 MSTORE DUP1 MLOAD SWAP1 PUSH1 0x20 ADD KECCAK256 EQ PUSH2 0x461 JUMPI PUSH1 0x40 MLOAD PUSH32 0x8C379A000000000000000000000000000000000000000000000000000000000 DUP2 MSTORE PUSH1 0x4 ADD PUSH2 0x458 SWAP1 PUSH2 0xC77 JUMP JUMPDEST PUSH1 0x40 MLOAD DUP1 SWAP2 SUB SWAP1 REVERT JUMPDEST POP JUMP JUMPDEST DUP3 DUP1 SLOAD DUP3 DUP3 SSTORE SWAP1 PUSH0 MSTORE PUSH1 0x20 PUSH0 KECCAK256 SWAP1 DUP2 ADD SWAP3 DUP3 ISZERO PUSH2 0x49E JUMPI SWAP2 PUSH1 0x20 MUL DUP3 ADD JUMPDEST DUP3 DUP2 GT ISZERO PUSH2 0x49D JUMPI DUP3 MLOAD DUP3 SSTORE SWAP2 PUSH1 0x20 ADD SWAP2 SWAP1 PUSH1 0x1 ADD SWAP1 PUSH2 0x482 JUMP JUMPDEST JUMPDEST POP SWAP1 POP PUSH2 0x4AB SWAP2 SWAP1 PUSH2 0x4AF JUMP JUMPDEST POP SWAP1 JUMP JUMPDEST JUMPDEST DUP1 DUP3 GT ISZERO PUSH2 0x4C6 JUMPI PUSH0 DUP2 PUSH0 SWAP1 SSTORE POP PUSH1 0x1 ADD PUSH2 0x4B0 JUMP JUMPDEST POP SWAP1 JUMP JUMPDEST PUSH0 DUP2 SWAP1 POP SWAP2 SWAP1 POP JUMP JUMPDEST PUSH2 0x4DC DUP2 PUSH2 0x4CA JUMP JUMPDEST DUP3 MSTORE POP POP JUMP JUMPDEST PUSH0 PUSH1 0x20 DUP3 ADD SWAP1 POP PUSH2 0x4F5 PUSH0 DUP4 ADD DUP5 PUSH2 0x4D3 JUMP JUMPDEST SWAP3 SWAP2 POP POP JUMP JUMPDEST PUSH0 PUSH1 0x40 MLOAD SWAP1 POP SWAP1 JUMP JUMPDEST PUSH0 DUP1 REVERT JUMPDEST PUSH0 DUP1 REVERT JUMPDEST PUSH0 PUSH20 0xFFFFFFFFFFFFFFFFFFFFFFFFFFFFFFFFFFFFFFFF DUP3 AND SWAP1 POP SWAP2 SWAP1 POP JUMP JUMPDEST PUSH0 PUSH2 0x535 DUP3 PUSH2 0x50C JUMP JUMPDEST SWAP1 POP SWAP2 SWAP1 POP JUMP JUMPDEST PUSH2 0x545 DUP2 PUSH2 0x52B JUMP JUMPDEST DUP2 EQ PUSH2 0x54F JUMPI PUSH0 DUP1 REVERT JUMPDEST POP JUMP JUMPDEST PUSH0 DUP2 CALLDATALOAD SWAP1 POP PUSH2 0x560 DUP2 PUSH2 0x53C JUMP JUMPDEST SWAP3 SWAP2 POP POP JUMP JUMPDEST PUSH2 0x56F DUP2 PUSH2 0x4CA JUMP JUMPDEST DUP2 EQ PUSH2 0x579 JUMPI PUSH0 DUP1 REVERT JUMPDEST POP JUMP JUMPDEST PUSH0 DUP2 CALLDATALOAD SWAP1 POP PUSH2 0x58A DUP2 PUSH2 0x566 JUMP JUMPDEST SWAP3 SWAP2 POP POP JUMP JUMPDEST PUSH0 DUP1 REVERT JUMPDEST PUSH0 DUP1 REVERT JUMPDEST PUSH0 PUSH1 0x1F NOT PUSH1 0x1F DUP4 ADD AND SWAP1 POP SWAP2 SWAP1 POP JUMP JUMPDEST PUSH32 0x4E487B7100000000000000000000000000000000000000000000000000000000 PUSH0 MSTORE PUSH1 0x41 PUSH1 0x4 MSTORE PUSH1 0x24 PUSH0 REVERT JUMPDEST PUSH2 0x5DE DUP3 PUSH2 0x598 JUMP JUMPDEST DUP2 ADD DUP2 DUP2 LT PUSH8 0xFFFFFFFFFFFFFFFF DUP3 GT OR ISZERO PUSH2 0x5FD JUMPI PUSH2 0x5FC PUSH2 0x5A8 JUMP JUMPDEST JUMPDEST DUP1 PUSH1 0x40 MSTORE POP POP POP JUMP JUMPDEST PUSH0 PUSH2 0x60F PUSH2 0x4FB JUMP JUMPDEST SWAP1 POP PUSH2 0x61B DUP3 DUP3 PUSH2 0x5D5 JUMP JUMPDEST SWAP2 SWAP1 POP JUMP JUMPDEST PUSH0 PUSH8 0xFFFFFFFFFFFFFFFF DUP3 GT ISZERO PUSH2 0x63A JUMPI PUSH2 0x639 PUSH2 0x5A8 JUMP JUMPDEST JUMPDEST PUSH2 0x643 DUP3 PUSH2 0x598 JUMP JUMPDEST SWAP1 POP PUSH1 0x20 DUP2 ADD SWAP1 POP SWAP2 SWAP1 POP JUMP JUMPDEST DUP3 DUP2 DUP4 CALLDATACOPY PUSH0 DUP4 DUP4 ADD MSTORE POP POP POP JUMP JUMPDEST PUSH0 PUSH2 0x670 PUSH2 0x66B DUP5 PUSH2 0x620 JUMP JUMPDEST PUSH2 0x606 JUMP JUMPDEST SWAP1 POP DUP3 DUP2 MSTORE PUSH1 0x20 DUP2 ADD DUP5 DUP5 DUP5 ADD GT ISZERO PUSH2 0x68C JUMPI PUSH2 0x68B PUSH2 0x594 JUMP JUMPDEST JUMPDEST PUSH2 0x697 DUP5 DUP3 DUP6 PUSH2 0x650 JUMP JUMPDEST POP SWAP4 SWAP3 POP POP POP JUMP JUMPDEST PUSH0 DUP3 PUSH1 0x1F DUP4 ADD SLT PUSH2 0x6B3 JUMPI PUSH2 0x6B2 PUSH2 0x590 JUMP JUMPDEST JUMPDEST DUP2 CALLDATALOAD PUSH2 0x6C3 DUP5 DUP3 PUSH1 0x20 DUP7 ADD PUSH2 0x65E JUMP JUMPDEST SWAP2 POP POP SWAP3 SWAP2 POP POP JUMP JUMPDEST PUSH0 DUP1 PUSH0 DUP1 PUSH0 DUP1 PUSH0 DUP1 PUSH2 0x100 DUP10 DUP12 SUB SLT ISZERO PUSH2 0x6E9 JUMPI PUSH2 0x6E8 PUSH2 0x504 JUMP JUMPDEST JUMPDEST PUSH0 PUSH2 0x6F6 DUP12 DUP3 DUP13 ADD PUSH2 0x552 JUMP JUMPDEST SWAP9 POP POP PUSH1 0x20 PUSH2 0x707 DUP12 DUP3 DUP13 ADD PUSH2 0x57C JUMP JUMPDEST SWAP8 POP POP PUSH1 0x40 PUSH2 0x718 DUP12 DUP3 DUP13 ADD PUSH2 0x57C JUMP JUMPDEST SWAP7 POP POP PUSH1 0x60 PUSH2 0x729 DUP12 DUP3 DUP13 ADD PUSH2 0x57C JUMP JUMPDEST SWAP6 POP POP PUSH1 0x80 DUP10 ADD CALLDATALOAD PUSH8 0xFFFFFFFFFFFFFFFF DUP2 GT ISZERO PUSH2 0x74A JUMPI PUSH2 0x749 PUSH2 0x508 JUMP JUMPDEST JUMPDEST PUSH2 0x756 DUP12 DUP3 DUP13 ADD PUSH2 0x69F JUMP JUMPDEST SWAP5 POP POP PUSH1 0xA0 PUSH2 0x767 DUP12 DUP3 DUP13 ADD PUSH2 0x57C JUMP JUMPDEST SWAP4 POP POP PUSH1 0xC0 PUSH2 0x778 DUP12 DUP3 DUP13 ADD PUSH2 0x57C JUMP JUMPDEST SWAP3 POP POP PUSH1 0xE0 PUSH2 0x789 DUP12 DUP3 DUP13 ADD PUSH2 0x57C JUMP JUMPDEST SWAP2 POP POP SWAP3 SWAP6 SWAP9 POP SWAP3 SWAP6 SWAP9 SWAP1 SWAP4 SWAP7 POP JUMP JUMPDEST PUSH0 PUSH1 0x20 DUP3 DUP5 SUB SLT ISZERO PUSH2 0x7AE JUMPI PUSH2 0x7AD PUSH2 0x504 JUMP JUMPDEST JUMPDEST PUSH0 PUSH2 0x7BB DUP5 DUP3 DUP6 ADD PUSH2 0x552 JUMP JUMPDEST SWAP2 POP POP SWAP3 SWAP2 POP POP JUMP JUMPDEST PUSH0 DUP2 MLOAD SWAP1 POP SWAP2 SWAP1 POP JUMP JUMPDEST PUSH0 DUP3 DUP3 MSTORE PUSH1 0x20 DUP3 ADD SWAP1 POP SWAP3 SWAP2 POP POP JUMP JUMPDEST PUSH0 DUP2 SWAP1 POP PUSH1 0x20 DUP3 ADD SWAP1 POP SWAP2 SWAP1 POP JUMP JUMPDEST PUSH2 0x7F6 DUP2 PUSH2 0x4CA JUMP JUMPDEST DUP3 MSTORE POP POP JUMP JUMPDEST PUSH0 PUSH2 0x807 DUP4 DUP4 PUSH2 0x7ED JUMP JUMPDEST PUSH1 0x20 DUP4 ADD SWAP1 POP SWAP3 SWAP2 POP POP JUMP JUMPDEST PUSH0 PUSH1 0x20 DUP3 ADD SWAP1 POP SWAP2 SWAP1 POP JUMP JUMPDEST PUSH0 PUSH2 0x829 DUP3 PUSH2 0x7C4 JUMP JUMPDEST PUSH2 0x833 DUP2 DUP6 PUSH2 0x7CE JUMP JUMPDEST SWAP4 POP PUSH2 0x83E DUP4 PUSH2 0x7DE JUMP JUMPDEST DUP1 PUSH0 JUMPDEST DUP4 DUP2 LT ISZERO PUSH2 0x86E JUMPI DUP2 MLOAD PUSH2 0x855 DUP9 DUP3 PUSH2 0x7FC JUMP JUMPDEST SWAP8 POP PUSH2 0x860 DUP4 PUSH2 0x813 JUMP JUMPDEST SWAP3 POP POP PUSH1 0x1 DUP2 ADD SWAP1 POP PUSH2 0x841 JUMP JUMPDEST POP DUP6 SWAP4 POP POP POP POP SWAP3 SWAP2 POP POP JUMP JUMPDEST PUSH0 PUSH1 0x20 DUP3 ADD SWAP1 POP DUP2 DUP2 SUB PUSH0 DUP4 ADD MSTORE PUSH2 0x893 DUP2 DUP5 PUSH2 0x81F JUMP JUMPDEST SWAP1 POP SWAP3 SWAP2 POP POP JUMP JUMPDEST PUSH0 DUP2 SWAP1 POP SWAP2 SWAP1 POP JUMP JUMPDEST PUSH2 0x8AD DUP2 PUSH2 0x89B JUMP JUMPDEST DUP2 EQ PUSH2 0x8B7 JUMPI PUSH0 DUP1 REVERT JUMPDEST POP JUMP JUMPDEST PUSH0 DUP2 CALLDATALOAD SWAP1 POP PUSH2 0x8C8 DUP2 PUSH2 0x8A4 JUMP JUMPDEST SWAP3 SWAP2 POP POP JUMP JUMPDEST PUSH0 DUP1 PUSH1 0x40 DUP4 DUP6 SUB SLT ISZERO PUSH2 0x8E4 JUMPI PUSH2 0x8E3 PUSH2 0x504 JUMP JUMPDEST JUMPDEST PUSH0 PUSH2 0x8F1 DUP6 DUP3 DUP7 ADD PUSH2 0x8BA JUMP JUMPDEST SWAP3 POP POP PUSH1 0x20 PUSH2 0x902 DUP6 DUP3 DUP7 ADD PUSH2 0x8BA JUMP JUMPDEST SWAP2 POP POP SWAP3 POP SWAP3 SWAP1 POP JUMP JUMPDEST PUSH2 0x915 DUP2 PUSH2 0x89B JUMP JUMPDEST DUP3 MSTORE POP POP JUMP JUMPDEST PUSH0 PUSH1 0x20 DUP3 ADD SWAP1 POP PUSH2 0x92E PUSH0 DUP4 ADD DUP5 PUSH2 0x90C JUMP JUMPDEST SWAP3 SWAP2 POP POP JUMP JUMPDEST PUSH0 DUP3 DUP3 MSTORE PUSH1 0x20 DUP3 ADD SWAP1 POP SWAP3 SWAP2 POP POP JUMP JUMPDEST PUSH32 0x496E73756666696369656E742062616C616E6365000000000000000000000000 PUSH0 DUP3 ADD MSTORE POP JUMP JUMPDEST PUSH0 PUSH2 0x978 PUSH1 0x14 DUP4 PUSH2 0x934 JUMP JUMPDEST SWAP2 POP PUSH2 0x983 DUP3 PUSH2 0x944 JUMP JUMPDEST PUSH1 0x20 DUP3 ADD SWAP1 POP SWAP2 SWAP1 POP JUMP JUMPDEST PUSH0 PUSH1 0x20 DUP3 ADD SWAP1 POP DUP2 DUP2 SUB PUSH0 DUP4 ADD MSTORE PUSH2 0x9A5 DUP2 PUSH2 0x96C JUMP JUMPDEST SWAP1 POP SWAP2 SWAP1 POP JUMP JUMPDEST PUSH32 0x5472616E73666572206661696C65640000000000000000000000000000000000 PUSH0 DUP3 ADD MSTORE POP JUMP JUMPDEST PUSH0 PUSH2 0x9E0 PUSH1 0xF DUP4 PUSH2 0x934 JUMP JUMPDEST SWAP2 POP PUSH2 0x9EB DUP3 PUSH2 0x9AC JUMP JUMPDEST PUSH1 0x20 DUP3 ADD SWAP1 POP SWAP2 SWAP1 POP JUMP JUMPDEST PUSH0 PUSH1 0x20 DUP3 ADD SWAP1 POP DUP2 DUP2 SUB PUSH0 DUP4 ADD MSTORE PUSH2 0xA0D DUP2 PUSH2 0x9D4 JUMP JUMPDEST SWAP1 POP SWAP2 SWAP1 POP JUMP JUMPDEST PUSH32 0x55736572206E6F7420456C696769626C65210000000000000000000000000000 PUSH0 DUP3 ADD MSTORE POP JUMP JUMPDEST PUSH0 PUSH2 0xA48 PUSH1 0x12 DUP4 PUSH2 0x934 JUMP JUMPDEST SWAP2 POP PUSH2 0xA53 DUP3 PUSH2 0xA14 JUMP JUMPDEST PUSH1 0x20 DUP3 ADD SWAP1 POP SWAP2 SWAP1 POP JUMP JUMPDEST PUSH0 PUSH1 0x20 DUP3 ADD SWAP1 POP DUP2 DUP2 SUB PUSH0 DUP4 ADD MSTORE PUSH2 0xA75 DUP2 PUSH2 0xA3C JUMP JUMPDEST SWAP1 POP SWAP2 SWAP1 POP JUMP JUMPDEST PUSH32 0x4E487B7100000000000000000000000000000000000000000000000000000000 PUSH0 MSTORE PUSH1 0x11 PUSH1 0x4 MSTORE PUSH1 0x24 PUSH0 REVERT JUMPDEST PUSH0 PUSH2 0xAB3 DUP3 PUSH2 0x4CA JUMP JUMPDEST SWAP2 POP PUSH2 0xABE DUP4 PUSH2 0x4CA JUMP JUMPDEST SWAP3 POP DUP3 DUP3 ADD SWAP1 POP DUP1 DUP3 GT ISZERO PUSH2 0xAD6 JUMPI PUSH2 0xAD5 PUSH2 0xA7C JUMP JUMPDEST JUMPDEST SWAP3 SWAP2 POP POP JUMP JUMPDEST PUSH0 DUP2 SWAP1 POP SWAP2 SWAP1 POP JUMP JUMPDEST PUSH2 0xAF6 PUSH2 0xAF1 DUP3 PUSH2 0x4CA JUMP JUMPDEST PUSH2 0xADC JUMP JUMPDEST DUP3 MSTORE POP POP JUMP JUMPDEST PUSH0 PUSH2 0xB07 DUP3 DUP5 PUSH2 0xAE5 JUMP JUMPDEST PUSH1 0x20 DUP3 ADD SWAP2 POP DUP2 SWAP1 POP SWAP3 SWAP2 POP POP JUMP JUMPDEST PUSH32 0x4E487B7100000000000000000000000000000000000000000000000000000000 PUSH0 MSTORE PUSH1 0x32 PUSH1 0x4 MSTORE PUSH1 0x24 PUSH0 REVERT JUMPDEST PUSH32 0x6E6F7420657175616C0000000000000000000000000000000000000000000000 PUSH0 DUP3 ADD MSTORE POP JUMP JUMPDEST PUSH0 PUSH2 0xB77 PUSH1 0x9 DUP4 PUSH2 0x934 JUMP JUMPDEST SWAP2 POP PUSH2 0xB82 DUP3 PUSH2 0xB43 JUMP JUMPDEST PUSH1 0x20 DUP3 ADD SWAP1 POP SWAP2 SWAP1 POP JUMP JUMPDEST PUSH0 PUSH1 0x20 DUP3 ADD SWAP1 POP DUP2 DUP2 SUB PUSH0 DUP4 ADD MSTORE PUSH2 0xBA4 DUP2 PUSH2 0xB6B JUMP JUMPDEST SWAP1 POP SWAP2 SWAP1 POP JUMP JUMPDEST PUSH0 DUP2 MLOAD SWAP1 POP SWAP2 SWAP1 POP JUMP JUMPDEST PUSH0 DUP2 SWAP1 POP SWAP3 SWAP2 POP POP JUMP JUMPDEST PUSH0 JUMPDEST DUP4 DUP2 LT ISZERO PUSH2 0xBDC JUMPI DUP1 DUP3 ADD MLOAD DUP2 DUP5 ADD MSTORE PUSH1 0x20 DUP2 ADD SWAP1 POP PUSH2 0xBC1 JUMP JUMPDEST PUSH0 DUP5 DUP5 ADD MSTORE POP POP POP POP JUMP JUMPDEST PUSH0 PUSH2 0xBF1 DUP3 PUSH2 0xBAB JUMP JUMPDEST PUSH2 0xBFB DUP2 DUP6 PUSH2 0xBB5 JUMP JUMPDEST SWAP4 POP PUSH2 0xC0B DUP2 DUP6 PUSH1 0x20 DUP7 ADD PUSH2 0xBBF JUMP JUMPDEST DUP1 DUP5 ADD SWAP2 POP POP SWAP3 SWAP2 POP POP JUMP JUMPDEST PUSH0 PUSH2 0xC22 DUP3 DUP5 PUSH2 0xBE7 JUMP JUMPDEST SWAP2 POP DUP2 SWAP1 POP SWAP3 SWAP2 POP POP JUMP JUMPDEST PUSH32 0x55736572206E6F7420417574686F72697A656421000000000000000000000000 PUSH0 DUP3 ADD MSTORE POP JUMP JUMPDEST PUSH0 PUSH2 0xC61 PUSH1 0x14 DUP4 PUSH2 0x934 JUMP JUMPDEST SWAP2 POP PUSH2 0xC6C DUP3 PUSH2 0xC2D JUMP JUMPDEST PUSH1 0x20 DUP3 ADD SWAP1 POP SWAP2 SWAP1 POP JUMP JUMPDEST PUSH0 PUSH1 0x20 DUP3 ADD SWAP1 POP DUP2 DUP2 SUB PUSH0 DUP4 ADD MSTORE PUSH2 0xC8E DUP2 PUSH2 0xC55 JUMP JUMPDEST SWAP1 POP SWAP2 SWAP1 POP JUMP INVALID LOG2 PUSH5 0x6970667358 0x22 SLT KECCAK256 0x21 0xB8 DUP7 0xD0 0x4D 0xC1 ORIGIN RETURNDATACOPY 0xCA PUSH10 0x72752510B4D23EEC6501 SELFDESTRUCT 0x4C 0xBE 0xC9 0xEF CREATE 0xD2 PC CODECOPY 0x4E EXP CALL PUSH5 0x736F6C6343 STOP ADDMOD AND STOP CALLER "
	},
	"Assembly": ".code\n  PUSH 80\t\t\tcontract cryptoDorea {\\r\\n\\r\\n...\n  PUSH 40\t\t\tcontract cryptoDorea {\\r\\n\\r\\n...\n  MSTORE \t\t\tcontract cryptoDorea {\\r\\n\\r\\n...\n  PUSH 40\t\t\tconstructor(string memory _sec...\n  MLOAD \t\t\tconstructor(string memory _sec...\n  PUSHSIZE \t\t\tconstructor(string memory _sec...\n  CODESIZE \t\t\tconstructor(string memory _sec...\n  SUB \t\t\tconstructor(string memory _sec...\n  DUP1 \t\t\tconstructor(string memory _sec...\n  PUSHSIZE \t\t\tconstructor(string memory _sec...\n  DUP4 \t\t\tconstructor(string memory _sec...\n  CODECOPY \t\t\tconstructor(string memory _sec...\n  DUP2 \t\t\tconstructor(string memory _sec...\n  DUP2 \t\t\tconstructor(string memory _sec...\n  ADD \t\t\tconstructor(string memory _sec...\n  PUSH 40\t\t\tconstructor(string memory _sec...\n  MSTORE \t\t\tconstructor(string memory _sec...\n  DUP2 \t\t\tconstructor(string memory _sec...\n  ADD \t\t\tconstructor(string memory _sec...\n  SWAP1 \t\t\tconstructor(string memory _sec...\n  PUSH [tag] 1\t\t\tconstructor(string memory _sec...\n  SWAP2 \t\t\tconstructor(string memory _sec...\n  SWAP1 \t\t\tconstructor(string memory _sec...\n  PUSH [tag] 2\t\t\tconstructor(string memory _sec...\n  JUMP \t\t\tconstructor(string memory _sec...\ntag 1\t\t\tconstructor(string memory _sec...\n  JUMPDEST \t\t\tconstructor(string memory _sec...\n  DUP1 \t\t\t_secret\n  PUSH 40\t\t\tabi.encodePacked(_secret)\n  MLOAD \t\t\tabi.encodePacked(_secret)\n  PUSH 20\t\t\tabi.encodePacked(_secret)\n  ADD \t\t\tabi.encodePacked(_secret)\n  PUSH [tag] 5\t\t\tabi.encodePacked(_secret)\n  SWAP2 \t\t\tabi.encodePacked(_secret)\n  SWAP1 \t\t\tabi.encodePacked(_secret)\n  PUSH [tag] 6\t\t\tabi.encodePacked(_secret)\n  JUMP \t\t\tabi.encodePacked(_secret)\ntag 5\t\t\tabi.encodePacked(_secret)\n  JUMPDEST \t\t\tabi.encodePacked(_secret)\n  PUSH 40\t\t\tabi.encodePacked(_secret)\n  MLOAD \t\t\tabi.encodePacked(_secret)\n  PUSH 20\t\t\tabi.encodePacked(_secret)\n  DUP2 \t\t\tabi.encodePacked(_secret)\n  DUP4 \t\t\tabi.encodePacked(_secret)\n  SUB \t\t\tabi.encodePacked(_secret)\n  SUB \t\t\tabi.encodePacked(_secret)\n  DUP2 \t\t\tabi.encodePacked(_secret)\n  MSTORE \t\t\tabi.encodePacked(_secret)\n  SWAP1 \t\t\tabi.encodePacked(_secret)\n  PUSH 40\t\t\tabi.encodePacked(_secret)\n  MSTORE \t\t\tabi.encodePacked(_secret)\n  DUP1 \t\t\tkeccak256(abi.encodePacked(_se...\n  MLOAD \t\t\tkeccak256(abi.encodePacked(_se...\n  SWAP1 \t\t\tkeccak256(abi.encodePacked(_se...\n  PUSH 20\t\t\tkeccak256(abi.encodePacked(_se...\n  ADD \t\t\tkeccak256(abi.encodePacked(_se...\n  KECCAK256 \t\t\tkeccak256(abi.encodePacked(_se...\n  PUSH 0\t\t\t_secretHash\n  DUP2 \t\t\t_secretHash = keccak256(abi.en...\n  SWAP1 \t\t\t_secretHash = keccak256(abi.en...\n  SSTORE \t\t\t_secretHash = keccak256(abi.en...\n  POP \t\t\t_secretHash = keccak256(abi.en...\n  POP \t\t\tconstructor(string memory _sec...\n  PUSH [tag] 7\t\t\tcontract cryptoDorea {\\r\\n\\r\\n...\n  JUMP \t\t\tcontract cryptoDorea {\\r\\n\\r\\n...\ntag 8\t\t\t-License-Identifier: GPL-3.0\\r...\n  JUMPDEST \t\t\t-License-Identifier: GPL-3.0\\r...\n  PUSH 0\t\t\tgma so\n  PUSH 40\t\t\tco\n  MLOAD \t\t\t0;\\r\\n\\r\\ncon\n  SWAP1 \t\t\t4.20 <0.9.0;\\r\\n\\r\\ncon\n  POP \t\t\t4.20 <0.9.0;\\r\\n\\r\\ncon\n  SWAP1 \t\t\t-License-Identifier: GPL-3.0\\r...\n  JUMP \t\t\t-License-Identifier: GPL-3.0\\r...\ntag 9\t\t\tDorea {\\r\\n\\r\\n    bytes32 pri...\n  JUMPDEST \t\t\tDorea {\\r\\n\\r\\n    bytes32 pri...\n  PUSH 0\t\t\ti\n  DUP1 \t\t\ta\n  REVERT \t\t\t\\r\\n    mappin\ntag 10\t\t\tint256[]) private _usersAuthTo...\n  JUMPDEST \t\t\tint256[]) private _usersAuthTo...\n  PUSH 0\t\t\ts\n  DUP1 \t\t\to\n  REVERT \t\t\tnstructor(st\ntag 11\t\t\t_secret) payable {\\r\\n\\r\\n    ...\n  JUMPDEST \t\t\t_secret) payable {\\r\\n\\r\\n    ...\n  PUSH 0\t\t\t \n  DUP1 \t\t\tf\n  REVERT \t\t\t/ Transfer E\ntag 12\t\t\tl Customers\\r\\n    function pa...\n  JUMPDEST \t\t\tl Customers\\r\\n    function pa...\n  PUSH 0\t\t\tt\n  DUP1 \t\t\to\n  REVERT \t\t\toppingCount,\ntag 13\t\t\try _secret, uint256 _encData, ...\n  JUMPDEST \t\t\try _secret, uint256 _encData, ...\n  PUSH 0\t\t\tcData,\n  PUSH 1F\t\t\t\\r\\n\n  NOT \t\t\t    \\r\\n\\r\n  PUSH 1F\t\t\t\\n \n  DUP4 \t\t\tyable\n  ADD \t\t\tc payable{\\r\\n  \n  AND \t\t\tublic payable{\\r\\n        \\r\\n...\n  SWAP1 \t\t\taltHash) public payable{\\r\\n  ...\n  POP \t\t\taltHash) public payable{\\r\\n  ...\n  SWAP2 \t\t\try _secret, uint256 _encData, ...\n  SWAP1 \t\t\try _secret, uint256 _encData, ...\n  POP \t\t\try _secret, uint256 _encData, ...\n  JUMP \t\t\try _secret, uint256 _encData, ...\ntag 14\t\t\tAuthTokenCheck(recipient,_decD...\n  JUMPDEST \t\t\tAuthTokenCheck(recipient,_decD...\n  PUSH 4E487B7100000000000000000000000000000000000000000000000000000000\t\t\t\\n        userAuthorized(_secr...\n  PUSH 0\t\t\t\\r\n  MSTORE \t\t\ttHash);\\r\\n\\r\\n        userAut...\n  PUSH 41\t\t\tsuff\n  PUSH 4\t\t\t\"\n  MSTORE \t\t\tlance, \"Insuffi\n  PUSH 24\t\t\t\\n   \n  PUSH 0\t\t\t\\r\n  REVERT \t\t\tance\");\\r\\n\\r\\n    \ntag 15\t\t\tingCount >= campaignCount){   ...\n  JUMPDEST \t\t\tingCount >= campaignCount){   ...\n  PUSH [tag] 33\t\t\tdress\\r\\n            bool suc\n  DUP3 \t\t\tl su\n  PUSH [tag] 13\t\t\tdress\\r\\n            bool suc\n  JUMP \t\t\tdress\\r\\n            bool suc\ntag 33\t\t\tdress\\r\\n            bool suc\n  JUMPDEST \t\t\tdress\\r\\n            bool suc\n  DUP2 \t\t\teipnt \n  ADD \t\t\t receipnt address\\r\\n         ...\n  DUP2 \t\t\t  _use\n  DUP2 \t\t\t\\r\\n        \n  LT \t\t\t;\\r\\n\\r\\n            _user\n  PUSH FFFFFFFFFFFFFFFF\t\t\ts, \"Transfer faile\n  DUP3 \t\t\tquire(succ\n  GT \t\t\t require(success, \"Transfer fa...\n  OR \t\t\t    require(success, \"Transfer...\n  ISZERO \t\t\t       require(success, \"Trans...\n  PUSH [tag] 34\t\t\t       require(success, \"Trans...\n  JUMPI \t\t\t       require(success, \"Trans...\n  PUSH [tag] 35\t\t\thToken[recipient] \n  PUSH [tag] 14\t\t\thToken[recipient] \n  JUMP \t\t\thToken[recipient] \ntag 35\t\t\thToken[recipient] \n  JUMPDEST \t\t\thToken[recipient] \ntag 34\t\t\t       require(success, \"Trans...\n  JUMPDEST \t\t\t       require(success, \"Trans...\n  DUP1 \t\t\t;\\r\\n\\r\\n     \n  PUSH 40\t\t\tat\n  MSTORE \t\t\t, _decData];\\r\\n\\r\\n      \n  POP \t\t\t    // Transfer Ether to the r...\n  POP \t\t\tingCount >= campaignCount){   ...\n  POP \t\t\tingCount >= campaignCount){   ...\n  JUMP \t\t\tingCount >= campaignCount){   ...\ntag 16\t\t\t            revert(\"User not E...\n  JUMPDEST \t\t\t            revert(\"User not E...\n  PUSH 0\t\t\tble!\")\n  PUSH [tag] 37\t\t\t     \\r\\n    }\\r\\n\\r\\n    \n  PUSH [tag] 8\t\t\t     \\r\\n    }\\r\\n\\r\\n    \n  JUMP \t\t\t     \\r\\n    }\\r\\n\\r\\n    \ntag 37\t\t\t     \\r\\n    }\\r\\n\\r\\n    \n  JUMPDEST \t\t\t     \\r\\n    }\\r\\n\\r\\n    \n  SWAP1 \t\t\t  }\\r\\n\\r\\n        \\r\\n    }\\r...\n  POP \t\t\t  }\\r\\n\\r\\n        \\r\\n    }\\r...\n  PUSH [tag] 38\t\t\tuserAuthorized(string memory _...\n  DUP3 \t\t\t _se\n  DUP3 \t\t\tg memo\n  PUSH [tag] 15\t\t\tuserAuthorized(string memory _...\n  JUMP \t\t\tuserAuthorized(string memory _...\ntag 38\t\t\tuserAuthorized(string memory _...\n  JUMPDEST \t\t\tuserAuthorized(string memory _...\n  SWAP2 \t\t\t            revert(\"User not E...\n  SWAP1 \t\t\t            revert(\"User not E...\n  POP \t\t\t            revert(\"User not E...\n  JUMP \t\t\t            revert(\"User not E...\ntag 17\t\t\t view {\\r\\n      \\r\\n        r...\n  JUMPDEST \t\t\t view {\\r\\n      \\r\\n        r...\n  PUSH 0\t\t\tecre\n  PUSH FFFFFFFFFFFFFFFF\t\t\tkenCheck(address _\n  DUP3 \t\t\terAuth\n  GT \t\t\t userAuthTokenCheck(address _u\n  ISZERO \t\t\tion userAuthTokenCheck(address...\n  PUSH [tag] 40\t\t\tion userAuthTokenCheck(address...\n  JUMPI \t\t\tion userAuthTokenCheck(address...\n  PUSH [tag] 41\t\t\tAddress, uint256 _\n  PUSH [tag] 14\t\t\tAddress, uint256 _\n  JUMP \t\t\tAddress, uint256 _\ntag 41\t\t\tAddress, uint256 _\n  JUMPDEST \t\t\tAddress, uint256 _\ntag 40\t\t\tion userAuthTokenCheck(address...\n  JUMPDEST \t\t\tion userAuthTokenCheck(address...\n  PUSH [tag] 42\t\t\tltHash) private view {\\r\\n\\r\\n...\n  DUP3 \t\t\t\\r\\n\\r\\n  \n  PUSH [tag] 13\t\t\tltHash) private view {\\r\\n\\r\\n...\n  JUMP \t\t\tltHash) private view {\\r\\n\\r\\n...\ntag 42\t\t\tltHash) private view {\\r\\n\\r\\n...\n  JUMPDEST \t\t\tltHash) private view {\\r\\n\\r\\n...\n  SWAP1 \t\t\tt256 _saltHash) private view {...\n  POP \t\t\tt256 _saltHash) private view {...\n  PUSH 20\t\t\tcDat\n  DUP2 \t\t\ted(_\n  ADD \t\t\tPacked(_decData\n  SWAP1 \t\t\ti.encodePacked(_decData\n  POP \t\t\ti.encodePacked(_decData\n  SWAP2 \t\t\t view {\\r\\n      \\r\\n        r...\n  SWAP1 \t\t\t view {\\r\\n      \\r\\n        r...\n  POP \t\t\t view {\\r\\n      \\r\\n        r...\n  JUMP \t\t\t view {\\r\\n      \\r\\n        r...\ntag 18\t\t\t);\\r\\n        if (_usersAuthTo...\n  JUMPDEST \t\t\t);\\r\\n        if (_usersAuthTo...\n  PUSH 0\t\t\t \ntag 44\t\t\tt(\"not equal\");\\r\\n        }\\r...\n  JUMPDEST \t\t\tt(\"not equal\");\\r\\n        }\\r...\n  DUP4 \t\t\t;\\r\\n   \n  DUP2 \t\t\tl\n  LT \t\t\tqual\");\\r\\n    \n  ISZERO \t\t\tt(\"not equal\");\\r\\n        }\\r...\n  PUSH [tag] 46\t\t\tt(\"not equal\");\\r\\n        }\\r...\n  JUMPI \t\t\tt(\"not equal\");\\r\\n        }\\r...\n  DUP1 \t\t\to\n  DUP3 \t\t\ti.e\n  ADD \t\t\t6(abi.encod\n  MLOAD \t\t\tccak256(abi.encode\n  DUP2 \t\t\t=\n  DUP5 \t\t\t[0]\n  ADD \t\t\tess][0] == \n  MSTORE \t\t\tserAddress][0] == keccak256(ab...\n  PUSH 20\t\t\t/ \n  DUP2 \t\t\t \n  ADD \t\t\t      // r\n  SWAP1 \t\t\t }\\r\\n       // r\n  POP \t\t\t }\\r\\n       // r\n  PUSH [tag] 44\t\t\tt(\"not equal\");\\r\\n        }\\r...\n  JUMP \t\t\tt(\"not equal\");\\r\\n        }\\r...\ntag 46\t\t\tt(\"not equal\");\\r\\n        }\\r...\n  JUMPDEST \t\t\tt(\"not equal\");\\r\\n        }\\r...\n  PUSH 0\t\t\to\n  DUP5 \t\t\t not A\n  DUP5 \t\t\t\"Us\n  ADD \t\t\t)), \"User not Au\n  MSTORE \t\t\taltHash)), \"User not Author\n  POP \t\t\tthToken)){\\r\\n            reve...\n  POP \t\t\t);\\r\\n        if (_usersAuthTo...\n  POP \t\t\t);\\r\\n        if (_usersAuthTo...\n  POP \t\t\t);\\r\\n        if (_usersAuthTo...\n  JUMP \t\t\t);\\r\\n        if (_usersAuthTo...\ntag 19\t\t\t  \\r\\n    }\\r\\n\\r\\n\\r\\n    // ...\n  JUMPDEST \t\t\t  \\r\\n    }\\r\\n\\r\\n\\r\\n    // ...\n  PUSH 0\t\t\tiew r\n  PUSH [tag] 48\t\t\t      return address(this).bal...\n  PUSH [tag] 49\t\t\tress(this).balance;\\r\\n    }\\r...\n  DUP5 \t\t\test: r\n  PUSH [tag] 17\t\t\tress(this).balance;\\r\\n    }\\r...\n  JUMP \t\t\tress(this).balance;\\r\\n    }\\r...\ntag 49\t\t\tress(this).balance;\\r\\n    }\\r...\n  JUMPDEST \t\t\tress(this).balance;\\r\\n    }\\r...\n  PUSH [tag] 16\t\t\t      return address(this).bal...\n  JUMP \t\t\t      return address(this).bal...\ntag 48\t\t\t      return address(this).bal...\n  JUMPDEST \t\t\t      return address(this).bal...\n  SWAP1 \t\t\t256){\\r\\n        return addres...\n  POP \t\t\t256){\\r\\n        return addres...\n  DUP3 \t\t\t   fun\n  DUP2 \t\t\ttion\\r\n  MSTORE \t\t\t production\\r\\n    func\n  PUSH 20\t\t\t pub\n  DUP2 \t\t\tddres\n  ADD \t\t\tserAddress) publ\n  DUP5 \t\t\t){\\r\n  DUP5 \t\t\t[] mem\n  DUP5 \t\t\tnt2\n  ADD \t\t\t (uint256[] memo\n  GT \t\t\trns (uint256[] memory){\\r\\n\n  ISZERO \t\t\teturns (uint256[] memory){\\r\\n...\n  PUSH [tag] 50\t\t\teturns (uint256[] memory){\\r\\n...\n  JUMPI \t\t\teturns (uint256[] memory){\\r\\n...\n  PUSH [tag] 51\t\t\t     \\r\\n        return _users...\n  PUSH [tag] 12\t\t\t     \\r\\n        return _users...\n  JUMP \t\t\t     \\r\\n        return _users...\ntag 51\t\t\t     \\r\\n        return _users...\n  JUMPDEST \t\t\t     \\r\\n        return _users...\ntag 50\t\t\teturns (uint256[] memory){\\r\\n...\n  JUMPDEST \t\t\teturns (uint256[] memory){\\r\\n...\n  PUSH [tag] 52\t\t\tafter production\\r\\n    functi...\n  DUP5 \t\t\t_decDa\n  DUP3 \t\t\tes3\n  DUP6 \t\t\t2(b\n  PUSH [tag] 18\t\t\tafter production\\r\\n    functi...\n  JUMP \t\t\tafter production\\r\\n    functi...\ntag 52\t\t\tafter production\\r\\n    functi...\n  JUMPDEST \t\t\tafter production\\r\\n    functi...\n  POP \t\t\tturns(uint256){\\r\\n        ret...\n  SWAP4 \t\t\t  \\r\\n    }\\r\\n\\r\\n\\r\\n    // ...\n  SWAP3 \t\t\t  \\r\\n    }\\r\\n\\r\\n\\r\\n    // ...\n  POP \t\t\t  \\r\\n    }\\r\\n\\r\\n\\r\\n    // ...\n  POP \t\t\t  \\r\\n    }\\r\\n\\r\\n\\r\\n    // ...\n  POP \t\t\t  \\r\\n    }\\r\\n\\r\\n\\r\\n    // ...\n  JUMP \t\t\t  \\r\\n    }\\r\\n\\r\\n\\r\\n    // ...\ntag 20\t\t\tic pure returns (bytes32){\\r\\n...\n  JUMPDEST \t\t\tic pure returns (bytes32){\\r\\n...\n  PUSH 0\t\t\tbi.en\n  DUP3 \t\t\t }\\r\n  PUSH 1F\t\t\t  \\r\\n\n  DUP4 \t\t\tsh));\\r\n  ADD \t\t\tltHash));\\r\\n   \\r\\n \n  SLT \t\t\t _saltHash));\\r\\n   \\r\\n    }\\...\n  PUSH [tag] 54\t\t\t_decData + _saltHash));\\r\\n   ...\n  JUMPI \t\t\t_decData + _saltHash));\\r\\n   ...\n  PUSH [tag] 55\t\t\t  \\r\\n}\n  PUSH [tag] 11\t\t\t  \\r\\n}\n  JUMP \t\t\t  \\r\\n}\ntag 55\t\t\t  \\r\\n}\n  JUMPDEST \t\t\t  \\r\\n}\ntag 54\t\t\t_decData + _saltHash));\\r\\n   ...\n  JUMPDEST \t\t\t_decData + _saltHash));\\r\\n   ...\n  DUP2 \t\t\t\n  MLOAD \t\t\t\n  PUSH [tag] 56\t\t\t\n  DUP5 \t\t\t\n  DUP3 \t\t\t\n  PUSH 20\t\t\t\n  DUP7 \t\t\t\n  ADD \t\t\t\n  PUSH [tag] 19\t\t\t\n  JUMP \t\t\t\ntag 56\t\t\t\n  JUMPDEST \t\t\t\n  SWAP2 \t\t\t\n  POP \t\t\t\n  POP \t\t\todePacked(_decData + _saltHash...\n  SWAP3 \t\t\tic pure returns (bytes32){\\r\\n...\n  SWAP2 \t\t\tic pure returns (bytes32){\\r\\n...\n  POP \t\t\tic pure returns (bytes32){\\r\\n...\n  POP \t\t\tic pure returns (bytes32){\\r\\n...\n  JUMP \t\t\tic pure returns (bytes32){\\r\\n...\ntag 2\t\t\t\n  JUMPDEST \t\t\t\n  PUSH 0\t\t\t\n  PUSH 20\t\t\t\n  DUP3 \t\t\t\n  DUP5 \t\t\t\n  SUB \t\t\t\n  SLT \t\t\t\n  ISZERO \t\t\t\n  PUSH [tag] 58\t\t\t\n  JUMPI \t\t\t\n  PUSH [tag] 59\t\t\t\n  PUSH [tag] 9\t\t\t\n  JUMP \t\t\t\ntag 59\t\t\t\n  JUMPDEST \t\t\t\ntag 58\t\t\t\n  JUMPDEST \t\t\t\n  PUSH 0\t\t\t\n  DUP3 \t\t\t\n  ADD \t\t\t\n  MLOAD \t\t\t\n  PUSH FFFFFFFFFFFFFFFF\t\t\t\n  DUP2 \t\t\t\n  GT \t\t\t\n  ISZERO \t\t\t\n  PUSH [tag] 60\t\t\t\n  JUMPI \t\t\t\n  PUSH [tag] 61\t\t\t\n  PUSH [tag] 10\t\t\t\n  JUMP \t\t\t\ntag 61\t\t\t\n  JUMPDEST \t\t\t\ntag 60\t\t\t\n  JUMPDEST \t\t\t\n  PUSH [tag] 62\t\t\t\n  DUP5 \t\t\t\n  DUP3 \t\t\t\n  DUP6 \t\t\t\n  ADD \t\t\t\n  PUSH [tag] 20\t\t\t\n  JUMP \t\t\t\ntag 62\t\t\t\n  JUMPDEST \t\t\t\n  SWAP2 \t\t\t\n  POP \t\t\t\n  POP \t\t\t\n  SWAP3 \t\t\t\n  SWAP2 \t\t\t\n  POP \t\t\t\n  POP \t\t\t\n  JUMP \t\t\t\ntag 21\t\t\t\n  JUMPDEST \t\t\t\n  PUSH 0\t\t\t\n  DUP2 \t\t\t\n  MLOAD \t\t\t\n  SWAP1 \t\t\t\n  POP \t\t\t\n  SWAP2 \t\t\t\n  SWAP1 \t\t\t\n  POP \t\t\t\n  JUMP \t\t\t\ntag 22\t\t\t\n  JUMPDEST \t\t\t\n  PUSH 0\t\t\t\n  DUP2 \t\t\t\n  SWAP1 \t\t\t\n  POP \t\t\t\n  SWAP3 \t\t\t\n  SWAP2 \t\t\t\n  POP \t\t\t\n  POP \t\t\t\n  JUMP \t\t\t\ntag 23\t\t\t\n  JUMPDEST \t\t\t\n  PUSH 0\t\t\t\n  PUSH [tag] 66\t\t\t\n  DUP3 \t\t\t\n  PUSH [tag] 21\t\t\t\n  JUMP \t\t\t\ntag 66\t\t\t\n  JUMPDEST \t\t\t\n  PUSH [tag] 67\t\t\t\n  DUP2 \t\t\t\n  DUP6 \t\t\t\n  PUSH [tag] 22\t\t\t\n  JUMP \t\t\t\ntag 67\t\t\t\n  JUMPDEST \t\t\t\n  SWAP4 \t\t\t\n  POP \t\t\t\n  PUSH [tag] 68\t\t\t\n  DUP2 \t\t\t\n  DUP6 \t\t\t\n  PUSH 20\t\t\t\n  DUP7 \t\t\t\n  ADD \t\t\t\n  PUSH [tag] 18\t\t\t\n  JUMP \t\t\t\ntag 68\t\t\t\n  JUMPDEST \t\t\t\n  DUP1 \t\t\t\n  DUP5 \t\t\t\n  ADD \t\t\t\n  SWAP2 \t\t\t\n  POP \t\t\t\n  POP \t\t\t\n  SWAP3 \t\t\t\n  SWAP2 \t\t\t\n  POP \t\t\t\n  POP \t\t\t\n  JUMP \t\t\t\ntag 6\t\t\t\n  JUMPDEST \t\t\t\n  PUSH 0\t\t\t\n  PUSH [tag] 70\t\t\t\n  DUP3 \t\t\t\n  DUP5 \t\t\t\n  PUSH [tag] 23\t\t\t\n  JUMP \t\t\t\ntag 70\t\t\t\n  JUMPDEST \t\t\t\n  SWAP2 \t\t\t\n  POP \t\t\t\n  DUP2 \t\t\t\n  SWAP1 \t\t\t\n  POP \t\t\t\n  SWAP3 \t\t\t\n  SWAP2 \t\t\t\n  POP \t\t\t\n  POP \t\t\t\n  JUMP \t\t\t\ntag 7\t\t\tcontract cryptoDorea {\\r\\n\\r\\n...\n  JUMPDEST \t\t\tcontract cryptoDorea {\\r\\n\\r\\n...\n  PUSH #[$] 0000000000000000000000000000000000000000000000000000000000000000\t\t\tcontract cryptoDorea {\\r\\n\\r\\n...\n  DUP1 \t\t\tcontract cryptoDorea {\\r\\n\\r\\n...\n  PUSH [$] 0000000000000000000000000000000000000000000000000000000000000000\t\t\tcontract cryptoDorea {\\r\\n\\r\\n...\n  PUSH 0\t\t\tcontract cryptoDorea {\\r\\n\\r\\n...\n  CODECOPY \t\t\tcontract cryptoDorea {\\r\\n\\r\\n...\n  PUSH 0\t\t\tcontract cryptoDorea {\\r\\n\\r\\n...\n  RETURN \t\t\tcontract cryptoDorea {\\r\\n\\r\\n...\n.data\n  0:\n    .code\n      PUSH 80\t\t\tcontract cryptoDorea {\\r\\n\\r\\n...\n      PUSH 40\t\t\tcontract cryptoDorea {\\r\\n\\r\\n...\n      MSTORE \t\t\tcontract cryptoDorea {\\r\\n\\r\\n...\n      PUSH 4\t\t\tcontract cryptoDorea {\\r\\n\\r\\n...\n      CALLDATASIZE \t\t\tcontract cryptoDorea {\\r\\n\\r\\n...\n      LT \t\t\tcontract cryptoDorea {\\r\\n\\r\\n...\n      PUSH [tag] 1\t\t\tcontract cryptoDorea {\\r\\n\\r\\n...\n      JUMPI \t\t\tcontract cryptoDorea {\\r\\n\\r\\n...\n      PUSH 0\t\t\tcontract cryptoDorea {\\r\\n\\r\\n...\n      CALLDATALOAD \t\t\tcontract cryptoDorea {\\r\\n\\r\\n...\n      PUSH E0\t\t\tcontract cryptoDorea {\\r\\n\\r\\n...\n      SHR \t\t\tcontract cryptoDorea {\\r\\n\\r\\n...\n      DUP1 \t\t\tcontract cryptoDorea {\\r\\n\\r\\n...\n      PUSH 12065FE0\t\t\tcontract cryptoDorea {\\r\\n\\r\\n...\n      EQ \t\t\tcontract cryptoDorea {\\r\\n\\r\\n...\n      PUSH [tag] 2\t\t\tcontract cryptoDorea {\\r\\n\\r\\n...\n      JUMPI \t\t\tcontract cryptoDorea {\\r\\n\\r\\n...\n      DUP1 \t\t\tcontract cryptoDorea {\\r\\n\\r\\n...\n      PUSH 21C66904\t\t\tcontract cryptoDorea {\\r\\n\\r\\n...\n      EQ \t\t\tcontract cryptoDorea {\\r\\n\\r\\n...\n      PUSH [tag] 3\t\t\tcontract cryptoDorea {\\r\\n\\r\\n...\n      JUMPI \t\t\tcontract cryptoDorea {\\r\\n\\r\\n...\n      DUP1 \t\t\tcontract cryptoDorea {\\r\\n\\r\\n...\n      PUSH BB29998E\t\t\tcontract cryptoDorea {\\r\\n\\r\\n...\n      EQ \t\t\tcontract cryptoDorea {\\r\\n\\r\\n...\n      PUSH [tag] 4\t\t\tcontract cryptoDorea {\\r\\n\\r\\n...\n      JUMPI \t\t\tcontract cryptoDorea {\\r\\n\\r\\n...\n      DUP1 \t\t\tcontract cryptoDorea {\\r\\n\\r\\n...\n      PUSH EB62E591\t\t\tcontract cryptoDorea {\\r\\n\\r\\n...\n      EQ \t\t\tcontract cryptoDorea {\\r\\n\\r\\n...\n      PUSH [tag] 5\t\t\tcontract cryptoDorea {\\r\\n\\r\\n...\n      JUMPI \t\t\tcontract cryptoDorea {\\r\\n\\r\\n...\n    tag 1\t\t\tcontract cryptoDorea {\\r\\n\\r\\n...\n      JUMPDEST \t\t\tcontract cryptoDorea {\\r\\n\\r\\n...\n      PUSH 0\t\t\tcontract cryptoDorea {\\r\\n\\r\\n...\n      DUP1 \t\t\tcontract cryptoDorea {\\r\\n\\r\\n...\n      REVERT \t\t\tcontract cryptoDorea {\\r\\n\\r\\n...\n    tag 2\t\t\tfunction getBalance() public v...\n      JUMPDEST \t\t\tfunction getBalance() public v...\n      CALLVALUE \t\t\tfunction getBalance() public v...\n      DUP1 \t\t\tfunction getBalance() public v...\n      ISZERO \t\t\tfunction getBalance() public v...\n      PUSH [tag] 6\t\t\tfunction getBalance() public v...\n      JUMPI \t\t\tfunction getBalance() public v...\n      PUSH 0\t\t\tfunction getBalance() public v...\n      DUP1 \t\t\tfunction getBalance() public v...\n      REVERT \t\t\tfunction getBalance() public v...\n    tag 6\t\t\tfunction getBalance() public v...\n      JUMPDEST \t\t\tfunction getBalance() public v...\n      POP \t\t\tfunction getBalance() public v...\n      PUSH [tag] 7\t\t\tfunction getBalance() public v...\n      PUSH [tag] 8\t\t\tfunction getBalance() public v...\n      JUMP \t\t\tfunction getBalance() public v...\n    tag 7\t\t\tfunction getBalance() public v...\n      JUMPDEST \t\t\tfunction getBalance() public v...\n      PUSH 40\t\t\tfunction getBalance() public v...\n      MLOAD \t\t\tfunction getBalance() public v...\n      PUSH [tag] 9\t\t\tfunction getBalance() public v...\n      SWAP2 \t\t\tfunction getBalance() public v...\n      SWAP1 \t\t\tfunction getBalance() public v...\n      PUSH [tag] 10\t\t\tfunction getBalance() public v...\n      JUMP \t\t\tfunction getBalance() public v...\n    tag 9\t\t\tfunction getBalance() public v...\n      JUMPDEST \t\t\tfunction getBalance() public v...\n      PUSH 40\t\t\tfunction getBalance() public v...\n      MLOAD \t\t\tfunction getBalance() public v...\n      DUP1 \t\t\tfunction getBalance() public v...\n      SWAP2 \t\t\tfunction getBalance() public v...\n      SUB \t\t\tfunction getBalance() public v...\n      SWAP1 \t\t\tfunction getBalance() public v...\n      RETURN \t\t\tfunction getBalance() public v...\n    tag 3\t\t\tfunction pay(address recipient...\n      JUMPDEST \t\t\tfunction pay(address recipient...\n      PUSH [tag] 11\t\t\tfunction pay(address recipient...\n      PUSH 4\t\t\tfunction pay(address recipient...\n      DUP1 \t\t\tfunction pay(address recipient...\n      CALLDATASIZE \t\t\tfunction pay(address recipient...\n      SUB \t\t\tfunction pay(address recipient...\n      DUP2 \t\t\tfunction pay(address recipient...\n      ADD \t\t\tfunction pay(address recipient...\n      SWAP1 \t\t\tfunction pay(address recipient...\n      PUSH [tag] 12\t\t\tfunction pay(address recipient...\n      SWAP2 \t\t\tfunction pay(address recipient...\n      SWAP1 \t\t\tfunction pay(address recipient...\n      PUSH [tag] 13\t\t\tfunction pay(address recipient...\n      JUMP \t\t\tfunction pay(address recipient...\n    tag 12\t\t\tfunction pay(address recipient...\n      JUMPDEST \t\t\tfunction pay(address recipient...\n      PUSH [tag] 14\t\t\tfunction pay(address recipient...\n      JUMP \t\t\tfunction pay(address recipient...\n    tag 11\t\t\tfunction pay(address recipient...\n      JUMPDEST \t\t\tfunction pay(address recipient...\n      STOP \t\t\tfunction pay(address recipient...\n    tag 4\t\t\tfunction test(address _userAdd...\n      JUMPDEST \t\t\tfunction test(address _userAdd...\n      CALLVALUE \t\t\tfunction test(address _userAdd...\n      DUP1 \t\t\tfunction test(address _userAdd...\n      ISZERO \t\t\tfunction test(address _userAdd...\n      PUSH [tag] 15\t\t\tfunction test(address _userAdd...\n      JUMPI \t\t\tfunction test(address _userAdd...\n      PUSH 0\t\t\tfunction test(address _userAdd...\n      DUP1 \t\t\tfunction test(address _userAdd...\n      REVERT \t\t\tfunction test(address _userAdd...\n    tag 15\t\t\tfunction test(address _userAdd...\n      JUMPDEST \t\t\tfunction test(address _userAdd...\n      POP \t\t\tfunction test(address _userAdd...\n      PUSH [tag] 16\t\t\tfunction test(address _userAdd...\n      PUSH 4\t\t\tfunction test(address _userAdd...\n      DUP1 \t\t\tfunction test(address _userAdd...\n      CALLDATASIZE \t\t\tfunction test(address _userAdd...\n      SUB \t\t\tfunction test(address _userAdd...\n      DUP2 \t\t\tfunction test(address _userAdd...\n      ADD \t\t\tfunction test(address _userAdd...\n      SWAP1 \t\t\tfunction test(address _userAdd...\n      PUSH [tag] 17\t\t\tfunction test(address _userAdd...\n      SWAP2 \t\t\tfunction test(address _userAdd...\n      SWAP1 \t\t\tfunction test(address _userAdd...\n      PUSH [tag] 18\t\t\tfunction test(address _userAdd...\n      JUMP \t\t\tfunction test(address _userAdd...\n    tag 17\t\t\tfunction test(address _userAdd...\n      JUMPDEST \t\t\tfunction test(address _userAdd...\n      PUSH [tag] 19\t\t\tfunction test(address _userAdd...\n      JUMP \t\t\tfunction test(address _userAdd...\n    tag 16\t\t\tfunction test(address _userAdd...\n      JUMPDEST \t\t\tfunction test(address _userAdd...\n      PUSH 40\t\t\tfunction test(address _userAdd...\n      MLOAD \t\t\tfunction test(address _userAdd...\n      PUSH [tag] 20\t\t\tfunction test(address _userAdd...\n      SWAP2 \t\t\tfunction test(address _userAdd...\n      SWAP1 \t\t\tfunction test(address _userAdd...\n      PUSH [tag] 21\t\t\tfunction test(address _userAdd...\n      JUMP \t\t\tfunction test(address _userAdd...\n    tag 20\t\t\tfunction test(address _userAdd...\n      JUMPDEST \t\t\tfunction test(address _userAdd...\n      PUSH 40\t\t\tfunction test(address _userAdd...\n      MLOAD \t\t\tfunction test(address _userAdd...\n      DUP1 \t\t\tfunction test(address _userAdd...\n      SWAP2 \t\t\tfunction test(address _userAdd...\n      SUB \t\t\tfunction test(address _userAdd...\n      SWAP1 \t\t\tfunction test(address _userAdd...\n      RETURN \t\t\tfunction test(address _userAdd...\n    tag 5\t\t\tfunction test2(bytes32 _decDat...\n      JUMPDEST \t\t\tfunction test2(bytes32 _decDat...\n      CALLVALUE \t\t\tfunction test2(bytes32 _decDat...\n      DUP1 \t\t\tfunction test2(bytes32 _decDat...\n      ISZERO \t\t\tfunction test2(bytes32 _decDat...\n      PUSH [tag] 22\t\t\tfunction test2(bytes32 _decDat...\n      JUMPI \t\t\tfunction test2(bytes32 _decDat...\n      PUSH 0\t\t\tfunction test2(bytes32 _decDat...\n      DUP1 \t\t\tfunction test2(bytes32 _decDat...\n      REVERT \t\t\tfunction test2(bytes32 _decDat...\n    tag 22\t\t\tfunction test2(bytes32 _decDat...\n      JUMPDEST \t\t\tfunction test2(bytes32 _decDat...\n      POP \t\t\tfunction test2(bytes32 _decDat...\n      PUSH [tag] 23\t\t\tfunction test2(bytes32 _decDat...\n      PUSH 4\t\t\tfunction test2(bytes32 _decDat...\n      DUP1 \t\t\tfunction test2(bytes32 _decDat...\n      CALLDATASIZE \t\t\tfunction test2(bytes32 _decDat...\n      SUB \t\t\tfunction test2(bytes32 _decDat...\n      DUP2 \t\t\tfunction test2(bytes32 _decDat...\n      ADD \t\t\tfunction test2(bytes32 _decDat...\n      SWAP1 \t\t\tfunction test2(bytes32 _decDat...\n      PUSH [tag] 24\t\t\tfunction test2(bytes32 _decDat...\n      SWAP2 \t\t\tfunction test2(bytes32 _decDat...\n      SWAP1 \t\t\tfunction test2(bytes32 _decDat...\n      PUSH [tag] 25\t\t\tfunction test2(bytes32 _decDat...\n      JUMP \t\t\tfunction test2(bytes32 _decDat...\n    tag 24\t\t\tfunction test2(bytes32 _decDat...\n      JUMPDEST \t\t\tfunction test2(bytes32 _decDat...\n      PUSH [tag] 26\t\t\tfunction test2(bytes32 _decDat...\n      JUMP \t\t\tfunction test2(bytes32 _decDat...\n    tag 23\t\t\tfunction test2(bytes32 _decDat...\n      JUMPDEST \t\t\tfunction test2(bytes32 _decDat...\n      PUSH 40\t\t\tfunction test2(bytes32 _decDat...\n      MLOAD \t\t\tfunction test2(bytes32 _decDat...\n      PUSH [tag] 27\t\t\tfunction test2(bytes32 _decDat...\n      SWAP2 \t\t\tfunction test2(bytes32 _decDat...\n      SWAP1 \t\t\tfunction test2(bytes32 _decDat...\n      PUSH [tag] 28\t\t\tfunction test2(bytes32 _decDat...\n      JUMP \t\t\tfunction test2(bytes32 _decDat...\n    tag 27\t\t\tfunction test2(bytes32 _decDat...\n      JUMPDEST \t\t\tfunction test2(bytes32 _decDat...\n      PUSH 40\t\t\tfunction test2(bytes32 _decDat...\n      MLOAD \t\t\tfunction test2(bytes32 _decDat...\n      DUP1 \t\t\tfunction test2(bytes32 _decDat...\n      SWAP2 \t\t\tfunction test2(bytes32 _decDat...\n      SUB \t\t\tfunction test2(bytes32 _decDat...\n      SWAP1 \t\t\tfunction test2(bytes32 _decDat...\n      RETURN \t\t\tfunction test2(bytes32 _decDat...\n    tag 8\t\t\tfunction getBalance() public v...\n      JUMPDEST \t\t\tfunction getBalance() public v...\n      PUSH 0\t\t\tuint256\n      SELFBALANCE \t\t\taddress(this).balance\n      SWAP1 \t\t\treturn address(this).balance\n      POP \t\t\treturn address(this).balance\n      SWAP1 \t\t\tfunction getBalance() public v...\n      JUMP \t\t\tfunction getBalance() public v...\n    tag 14\t\t\tfunction pay(address recipient...\n      JUMPDEST \t\t\tfunction pay(address recipient...\n      PUSH [tag] 31\t\t\tuserAuthTokenCheck(recipient,_...\n      DUP9 \t\t\trecipient\n      DUP4 \t\t\t_decData\n      DUP4 \t\t\t_saltHash\n      PUSH [tag] 32\t\t\tuserAuthTokenCheck\n      JUMP \t\t\tuserAuthTokenCheck(recipient,_...\n    tag 31\t\t\tuserAuthTokenCheck(recipient,_...\n      JUMPDEST \t\t\tuserAuthTokenCheck(recipient,_...\n      PUSH [tag] 33\t\t\tuserAuthorized(_secret)\n      DUP5 \t\t\t_secret\n      PUSH [tag] 34\t\t\tuserAuthorized\n      JUMP \t\t\tuserAuthorized(_secret)\n    tag 33\t\t\tuserAuthorized(_secret)\n      JUMPDEST \t\t\tuserAuthorized(_secret)\n      SELFBALANCE \t\t\taddress(this).balance\n      DUP8 \t\t\tamount\n      GT \t\t\tamount <= address(this).balanc...\n      ISZERO \t\t\tamount <= address(this).balanc...\n      PUSH [tag] 35\t\t\trequire(amount <= address(this...\n      JUMPI \t\t\trequire(amount <= address(this...\n      PUSH 40\t\t\trequire(amount <= address(this...\n      MLOAD \t\t\trequire(amount <= address(this...\n      PUSH 8C379A000000000000000000000000000000000000000000000000000000000\t\t\trequire(amount <= address(this...\n      DUP2 \t\t\trequire(amount <= address(this...\n      MSTORE \t\t\trequire(amount <= address(this...\n      PUSH 4\t\t\trequire(amount <= address(this...\n      ADD \t\t\trequire(amount <= address(this...\n      PUSH [tag] 36\t\t\trequire(amount <= address(this...\n      SWAP1 \t\t\trequire(amount <= address(this...\n      PUSH [tag] 37\t\t\trequire(amount <= address(this...\n      JUMP \t\t\trequire(amount <= address(this...\n    tag 36\t\t\trequire(amount <= address(this...\n      JUMPDEST \t\t\trequire(amount <= address(this...\n      PUSH 40\t\t\trequire(amount <= address(this...\n      MLOAD \t\t\trequire(amount <= address(this...\n      DUP1 \t\t\trequire(amount <= address(this...\n      SWAP2 \t\t\trequire(amount <= address(this...\n      SUB \t\t\trequire(amount <= address(this...\n      SWAP1 \t\t\trequire(amount <= address(this...\n      REVERT \t\t\trequire(amount <= address(this...\n    tag 35\t\t\trequire(amount <= address(this...\n      JUMPDEST \t\t\trequire(amount <= address(this...\n      DUP6 \t\t\tcampaignCount\n      DUP6 \t\t\tshoppingCount\n      LT \t\t\tshoppingCount >= campaignCount\n      PUSH [tag] 38\t\t\tif(shoppingCount >= campaignCo...\n      JUMPI \t\t\tif(shoppingCount >= campaignCo...\n      PUSH 0\t\t\tbool success\n      DUP9 \t\t\trecipient\n      PUSH FFFFFFFFFFFFFFFFFFFFFFFFFFFFFFFFFFFFFFFF\t\t\tpayable(recipient).send\n      AND \t\t\tpayable(recipient).send\n      PUSH 8FC\t\t\tpayable(recipient).send(amount...\n      DUP10 \t\t\tamount\n      SWAP1 \t\t\tpayable(recipient).send(amount...\n      DUP2 \t\t\tpayable(recipient).send(amount...\n      ISZERO \t\t\tpayable(recipient).send(amount...\n      MUL \t\t\tpayable(recipient).send(amount...\n      SWAP1 \t\t\tpayable(recipient).send(amount...\n      PUSH 40\t\t\tpayable(recipient).send(amount...\n      MLOAD \t\t\tpayable(recipient).send(amount...\n      PUSH 0\t\t\tpayable(recipient).send(amount...\n      PUSH 40\t\t\tpayable(recipient).send(amount...\n      MLOAD \t\t\tpayable(recipient).send(amount...\n      DUP1 \t\t\tpayable(recipient).send(amount...\n      DUP4 \t\t\tpayable(recipient).send(amount...\n      SUB \t\t\tpayable(recipient).send(amount...\n      DUP2 \t\t\tpayable(recipient).send(amount...\n      DUP6 \t\t\tpayable(recipient).send(amount...\n      DUP9 \t\t\tpayable(recipient).send(amount...\n      DUP9 \t\t\tpayable(recipient).send(amount...\n      CALL \t\t\tpayable(recipient).send(amount...\n      SWAP4 \t\t\tpayable(recipient).send(amount...\n      POP \t\t\tpayable(recipient).send(amount...\n      POP \t\t\tpayable(recipient).send(amount...\n      POP \t\t\tpayable(recipient).send(amount...\n      POP \t\t\tpayable(recipient).send(amount...\n      SWAP1 \t\t\tbool success = payable(recipie...\n      POP \t\t\tbool success = payable(recipie...\n      DUP1 \t\t\tsuccess\n      PUSH [tag] 40\t\t\trequire(success, \"Transfer fai...\n      JUMPI \t\t\trequire(success, \"Transfer fai...\n      PUSH 40\t\t\trequire(success, \"Transfer fai...\n      MLOAD \t\t\trequire(success, \"Transfer fai...\n      PUSH 8C379A000000000000000000000000000000000000000000000000000000000\t\t\trequire(success, \"Transfer fai...\n      DUP2 \t\t\trequire(success, \"Transfer fai...\n      MSTORE \t\t\trequire(success, \"Transfer fai...\n      PUSH 4\t\t\trequire(success, \"Transfer fai...\n      ADD \t\t\trequire(success, \"Transfer fai...\n      PUSH [tag] 41\t\t\trequire(success, \"Transfer fai...\n      SWAP1 \t\t\trequire(success, \"Transfer fai...\n      PUSH [tag] 42\t\t\trequire(success, \"Transfer fai...\n      JUMP \t\t\trequire(success, \"Transfer fai...\n    tag 41\t\t\trequire(success, \"Transfer fai...\n      JUMPDEST \t\t\trequire(success, \"Transfer fai...\n      PUSH 40\t\t\trequire(success, \"Transfer fai...\n      MLOAD \t\t\trequire(success, \"Transfer fai...\n      DUP1 \t\t\trequire(success, \"Transfer fai...\n      SWAP2 \t\t\trequire(success, \"Transfer fai...\n      SUB \t\t\trequire(success, \"Transfer fai...\n      SWAP1 \t\t\trequire(success, \"Transfer fai...\n      REVERT \t\t\trequire(success, \"Transfer fai...\n    tag 40\t\t\trequire(success, \"Transfer fai...\n      JUMPDEST \t\t\trequire(success, \"Transfer fai...\n      PUSH 40\t\t\t_usersAuthToken[recipient] = [...\n      MLOAD \t\t\t_usersAuthToken[recipient] = [...\n      DUP1 \t\t\t_usersAuthToken[recipient] = [...\n      PUSH 40\t\t\t_usersAuthToken[recipient] = [...\n      ADD \t\t\t_usersAuthToken[recipient] = [...\n      PUSH 40\t\t\t_usersAuthToken[recipient] = [...\n      MSTORE \t\t\t_usersAuthToken[recipient] = [...\n      DUP1 \t\t\t_usersAuthToken[recipient] = [...\n      DUP6 \t\t\t_encData\n      DUP2 \t\t\t_usersAuthToken[recipient] = [...\n      MSTORE \t\t\t_usersAuthToken[recipient] = [...\n      PUSH 20\t\t\t_usersAuthToken[recipient] = [...\n      ADD \t\t\t_usersAuthToken[recipient] = [...\n      DUP5 \t\t\t_decData\n      DUP2 \t\t\t_usersAuthToken[recipient] = [...\n      MSTORE \t\t\t_usersAuthToken[recipient] = [...\n      POP \t\t\t_usersAuthToken[recipient] = [...\n      PUSH 2\t\t\t_usersAuthToken\n      PUSH 0\t\t\t_usersAuthToken[recipient]\n      DUP12 \t\t\trecipient\n      PUSH FFFFFFFFFFFFFFFFFFFFFFFFFFFFFFFFFFFFFFFF\t\t\t_usersAuthToken[recipient]\n      AND \t\t\t_usersAuthToken[recipient]\n      PUSH FFFFFFFFFFFFFFFFFFFFFFFFFFFFFFFFFFFFFFFF\t\t\t_usersAuthToken[recipient]\n      AND \t\t\t_usersAuthToken[recipient]\n      DUP2 \t\t\t_usersAuthToken[recipient]\n      MSTORE \t\t\t_usersAuthToken[recipient]\n      PUSH 20\t\t\t_usersAuthToken[recipient]\n      ADD \t\t\t_usersAuthToken[recipient]\n      SWAP1 \t\t\t_usersAuthToken[recipient]\n      DUP2 \t\t\t_usersAuthToken[recipient]\n      MSTORE \t\t\t_usersAuthToken[recipient]\n      PUSH 20\t\t\t_usersAuthToken[recipient]\n      ADD \t\t\t_usersAuthToken[recipient]\n      PUSH 0\t\t\t_usersAuthToken[recipient]\n      KECCAK256 \t\t\t_usersAuthToken[recipient]\n      SWAP1 \t\t\t_usersAuthToken[recipient] = [...\n      PUSH 2\t\t\t_usersAuthToken[recipient] = [...\n      PUSH [tag] 43\t\t\t_usersAuthToken[recipient] = [...\n      SWAP3 \t\t\t_usersAuthToken[recipient] = [...\n      SWAP2 \t\t\t_usersAuthToken[recipient] = [...\n      SWAP1 \t\t\t_usersAuthToken[recipient] = [...\n      PUSH [tag] 44\t\t\t_usersAuthToken[recipient] = [...\n      JUMP \t\t\t_usersAuthToken[recipient] = [...\n    tag 43\t\t\t_usersAuthToken[recipient] = [...\n      JUMPDEST \t\t\t_usersAuthToken[recipient] = [...\n      POP \t\t\t_usersAuthToken[recipient] = [...\n      POP \t\t\t{    \\r\\n\\r\\n            // Tr...\n      PUSH [tag] 45\t\t\tif(shoppingCount >= campaignCo...\n      JUMP \t\t\tif(shoppingCount >= campaignCo...\n    tag 38\t\t\tif(shoppingCount >= campaignCo...\n      JUMPDEST \t\t\tif(shoppingCount >= campaignCo...\n      PUSH 40\t\t\trevert(\"User not Eligible!\")\n      MLOAD \t\t\trevert(\"User not Eligible!\")\n      PUSH 8C379A000000000000000000000000000000000000000000000000000000000\t\t\trevert(\"User not Eligible!\")\n      DUP2 \t\t\trevert(\"User not Eligible!\")\n      MSTORE \t\t\trevert(\"User not Eligible!\")\n      PUSH 4\t\t\trevert(\"User not Eligible!\")\n      ADD \t\t\trevert(\"User not Eligible!\")\n      PUSH [tag] 46\t\t\trevert(\"User not Eligible!\")\n      SWAP1 \t\t\trevert(\"User not Eligible!\")\n      PUSH [tag] 47\t\t\trevert(\"User not Eligible!\")\n      JUMP \t\t\trevert(\"User not Eligible!\")\n    tag 46\t\t\trevert(\"User not Eligible!\")\n      JUMPDEST \t\t\trevert(\"User not Eligible!\")\n      PUSH 40\t\t\trevert(\"User not Eligible!\")\n      MLOAD \t\t\trevert(\"User not Eligible!\")\n      DUP1 \t\t\trevert(\"User not Eligible!\")\n      SWAP2 \t\t\trevert(\"User not Eligible!\")\n      SUB \t\t\trevert(\"User not Eligible!\")\n      SWAP1 \t\t\trevert(\"User not Eligible!\")\n      REVERT \t\t\trevert(\"User not Eligible!\")\n    tag 45\t\t\tif(shoppingCount >= campaignCo...\n      JUMPDEST \t\t\tif(shoppingCount >= campaignCo...\n      POP \t\t\tfunction pay(address recipient...\n      POP \t\t\tfunction pay(address recipient...\n      POP \t\t\tfunction pay(address recipient...\n      POP \t\t\tfunction pay(address recipient...\n      POP \t\t\tfunction pay(address recipient...\n      POP \t\t\tfunction pay(address recipient...\n      POP \t\t\tfunction pay(address recipient...\n      POP \t\t\tfunction pay(address recipient...\n      JUMP \t\t\tfunction pay(address recipient...\n    tag 19\t\t\tfunction test(address _userAdd...\n      JUMPDEST \t\t\tfunction test(address _userAdd...\n      PUSH 60\t\t\tuint256[] memory\n      PUSH 2\t\t\t_usersAuthToken\n      PUSH 0\t\t\t_usersAuthToken[_userAddress]\n      DUP4 \t\t\t_userAddress\n      PUSH FFFFFFFFFFFFFFFFFFFFFFFFFFFFFFFFFFFFFFFF\t\t\t_usersAuthToken[_userAddress]\n      AND \t\t\t_usersAuthToken[_userAddress]\n      PUSH FFFFFFFFFFFFFFFFFFFFFFFFFFFFFFFFFFFFFFFF\t\t\t_usersAuthToken[_userAddress]\n      AND \t\t\t_usersAuthToken[_userAddress]\n      DUP2 \t\t\t_usersAuthToken[_userAddress]\n      MSTORE \t\t\t_usersAuthToken[_userAddress]\n      PUSH 20\t\t\t_usersAuthToken[_userAddress]\n      ADD \t\t\t_usersAuthToken[_userAddress]\n      SWAP1 \t\t\t_usersAuthToken[_userAddress]\n      DUP2 \t\t\t_usersAuthToken[_userAddress]\n      MSTORE \t\t\t_usersAuthToken[_userAddress]\n      PUSH 20\t\t\t_usersAuthToken[_userAddress]\n      ADD \t\t\t_usersAuthToken[_userAddress]\n      PUSH 0\t\t\t_usersAuthToken[_userAddress]\n      KECCAK256 \t\t\t_usersAuthToken[_userAddress]\n      DUP1 \t\t\treturn _usersAuthToken[_userAd...\n      SLOAD \t\t\treturn _usersAuthToken[_userAd...\n      DUP1 \t\t\treturn _usersAuthToken[_userAd...\n      PUSH 20\t\t\treturn _usersAuthToken[_userAd...\n      MUL \t\t\treturn _usersAuthToken[_userAd...\n      PUSH 20\t\t\treturn _usersAuthToken[_userAd...\n      ADD \t\t\treturn _usersAuthToken[_userAd...\n      PUSH 40\t\t\treturn _usersAuthToken[_userAd...\n      MLOAD \t\t\treturn _usersAuthToken[_userAd...\n      SWAP1 \t\t\treturn _usersAuthToken[_userAd...\n      DUP2 \t\t\treturn _usersAuthToken[_userAd...\n      ADD \t\t\treturn _usersAuthToken[_userAd...\n      PUSH 40\t\t\treturn _usersAuthToken[_userAd...\n      MSTORE \t\t\treturn _usersAuthToken[_userAd...\n      DUP1 \t\t\treturn _usersAuthToken[_userAd...\n      SWAP3 \t\t\treturn _usersAuthToken[_userAd...\n      SWAP2 \t\t\treturn _usersAuthToken[_userAd...\n      SWAP1 \t\t\treturn _usersAuthToken[_userAd...\n      DUP2 \t\t\treturn _usersAuthToken[_userAd...\n      DUP2 \t\t\treturn _usersAuthToken[_userAd...\n      MSTORE \t\t\treturn _usersAuthToken[_userAd...\n      PUSH 20\t\t\treturn _usersAuthToken[_userAd...\n      ADD \t\t\treturn _usersAuthToken[_userAd...\n      DUP3 \t\t\treturn _usersAuthToken[_userAd...\n      DUP1 \t\t\treturn _usersAuthToken[_userAd...\n      SLOAD \t\t\treturn _usersAuthToken[_userAd...\n      DUP1 \t\t\treturn _usersAuthToken[_userAd...\n      ISZERO \t\t\treturn _usersAuthToken[_userAd...\n      PUSH [tag] 49\t\t\treturn _usersAuthToken[_userAd...\n      JUMPI \t\t\treturn _usersAuthToken[_userAd...\n      PUSH 20\t\t\treturn _usersAuthToken[_userAd...\n      MUL \t\t\treturn _usersAuthToken[_userAd...\n      DUP3 \t\t\treturn _usersAuthToken[_userAd...\n      ADD \t\t\treturn _usersAuthToken[_userAd...\n      SWAP2 \t\t\treturn _usersAuthToken[_userAd...\n      SWAP1 \t\t\treturn _usersAuthToken[_userAd...\n      PUSH 0\t\t\treturn _usersAuthToken[_userAd...\n      MSTORE \t\t\treturn _usersAuthToken[_userAd...\n      PUSH 20\t\t\treturn _usersAuthToken[_userAd...\n      PUSH 0\t\t\treturn _usersAuthToken[_userAd...\n      KECCAK256 \t\t\treturn _usersAuthToken[_userAd...\n      SWAP1 \t\t\treturn _usersAuthToken[_userAd...\n    tag 50\t\t\treturn _usersAuthToken[_userAd...\n      JUMPDEST \t\t\treturn _usersAuthToken[_userAd...\n      DUP2 \t\t\treturn _usersAuthToken[_userAd...\n      SLOAD \t\t\treturn _usersAuthToken[_userAd...\n      DUP2 \t\t\treturn _usersAuthToken[_userAd...\n      MSTORE \t\t\treturn _usersAuthToken[_userAd...\n      PUSH 20\t\t\treturn _usersAuthToken[_userAd...\n      ADD \t\t\treturn _usersAuthToken[_userAd...\n      SWAP1 \t\t\treturn _usersAuthToken[_userAd...\n      PUSH 1\t\t\treturn _usersAuthToken[_userAd...\n      ADD \t\t\treturn _usersAuthToken[_userAd...\n      SWAP1 \t\t\treturn _usersAuthToken[_userAd...\n      DUP1 \t\t\treturn _usersAuthToken[_userAd...\n      DUP4 \t\t\treturn _usersAuthToken[_userAd...\n      GT \t\t\treturn _usersAuthToken[_userAd...\n      PUSH [tag] 50\t\t\treturn _usersAuthToken[_userAd...\n      JUMPI \t\t\treturn _usersAuthToken[_userAd...\n    tag 49\t\t\treturn _usersAuthToken[_userAd...\n      JUMPDEST \t\t\treturn _usersAuthToken[_userAd...\n      POP \t\t\treturn _usersAuthToken[_userAd...\n      POP \t\t\treturn _usersAuthToken[_userAd...\n      POP \t\t\treturn _usersAuthToken[_userAd...\n      POP \t\t\treturn _usersAuthToken[_userAd...\n      POP \t\t\treturn _usersAuthToken[_userAd...\n      SWAP1 \t\t\treturn _usersAuthToken[_userAd...\n      POP \t\t\treturn _usersAuthToken[_userAd...\n      SWAP2 \t\t\tfunction test(address _userAdd...\n      SWAP1 \t\t\tfunction test(address _userAdd...\n      POP \t\t\tfunction test(address _userAdd...\n      JUMP \t\t\tfunction test(address _userAdd...\n    tag 26\t\t\tfunction test2(bytes32 _decDat...\n      JUMPDEST \t\t\tfunction test2(bytes32 _decDat...\n      PUSH 0\t\t\tbytes32\n      SWAP3 \t\t\tfunction test2(bytes32 _decDat...\n      SWAP2 \t\t\tfunction test2(bytes32 _decDat...\n      POP \t\t\tfunction test2(bytes32 _decDat...\n      POP \t\t\tfunction test2(bytes32 _decDat...\n      JUMP \t\t\tfunction test2(bytes32 _decDat...\n    tag 32\t\t\tfunction userAuthTokenCheck(ad...\n      JUMPDEST \t\t\tfunction userAuthTokenCheck(ad...\n      PUSH 0\t\t\tbytes32 authToken\n      DUP2 \t\t\t_saltHash\n      DUP4 \t\t\t_decData\n      PUSH [tag] 53\t\t\t_decData + _saltHash\n      SWAP2 \t\t\t_decData + _saltHash\n      SWAP1 \t\t\t_decData + _saltHash\n      PUSH [tag] 54\t\t\t_decData + _saltHash\n      JUMP \t\t\t_decData + _saltHash\n    tag 53\t\t\t_decData + _saltHash\n      JUMPDEST \t\t\t_decData + _saltHash\n      PUSH 40\t\t\tabi.encodePacked(_decData + _s...\n      MLOAD \t\t\tabi.encodePacked(_decData + _s...\n      PUSH 20\t\t\tabi.encodePacked(_decData + _s...\n      ADD \t\t\tabi.encodePacked(_decData + _s...\n      PUSH [tag] 55\t\t\tabi.encodePacked(_decData + _s...\n      SWAP2 \t\t\tabi.encodePacked(_decData + _s...\n      SWAP1 \t\t\tabi.encodePacked(_decData + _s...\n      PUSH [tag] 56\t\t\tabi.encodePacked(_decData + _s...\n      JUMP \t\t\tabi.encodePacked(_decData + _s...\n    tag 55\t\t\tabi.encodePacked(_decData + _s...\n      JUMPDEST \t\t\tabi.encodePacked(_decData + _s...\n      PUSH 40\t\t\tabi.encodePacked(_decData + _s...\n      MLOAD \t\t\tabi.encodePacked(_decData + _s...\n      PUSH 20\t\t\tabi.encodePacked(_decData + _s...\n      DUP2 \t\t\tabi.encodePacked(_decData + _s...\n      DUP4 \t\t\tabi.encodePacked(_decData + _s...\n      SUB \t\t\tabi.encodePacked(_decData + _s...\n      SUB \t\t\tabi.encodePacked(_decData + _s...\n      DUP2 \t\t\tabi.encodePacked(_decData + _s...\n      MSTORE \t\t\tabi.encodePacked(_decData + _s...\n      SWAP1 \t\t\tabi.encodePacked(_decData + _s...\n      PUSH 40\t\t\tabi.encodePacked(_decData + _s...\n      MSTORE \t\t\tabi.encodePacked(_decData + _s...\n      DUP1 \t\t\tkeccak256(abi.encodePacked(_de...\n      MLOAD \t\t\tkeccak256(abi.encodePacked(_de...\n      SWAP1 \t\t\tkeccak256(abi.encodePacked(_de...\n      PUSH 20\t\t\tkeccak256(abi.encodePacked(_de...\n      ADD \t\t\tkeccak256(abi.encodePacked(_de...\n      KECCAK256 \t\t\tkeccak256(abi.encodePacked(_de...\n      SWAP1 \t\t\tbytes32 authToken = keccak256(...\n      POP \t\t\tbytes32 authToken = keccak256(...\n      DUP1 \t\t\tauthToken\n      PUSH 0\t\t\tuint256(authToken)\n      SHR \t\t\tuint256(authToken)\n      PUSH 2\t\t\t_usersAuthToken\n      PUSH 0\t\t\t_usersAuthToken[_userAddress]\n      DUP7 \t\t\t_userAddress\n      PUSH FFFFFFFFFFFFFFFFFFFFFFFFFFFFFFFFFFFFFFFF\t\t\t_usersAuthToken[_userAddress]\n      AND \t\t\t_usersAuthToken[_userAddress]\n      PUSH FFFFFFFFFFFFFFFFFFFFFFFFFFFFFFFFFFFFFFFF\t\t\t_usersAuthToken[_userAddress]\n      AND \t\t\t_usersAuthToken[_userAddress]\n      DUP2 \t\t\t_usersAuthToken[_userAddress]\n      MSTORE \t\t\t_usersAuthToken[_userAddress]\n      PUSH 20\t\t\t_usersAuthToken[_userAddress]\n      ADD \t\t\t_usersAuthToken[_userAddress]\n      SWAP1 \t\t\t_usersAuthToken[_userAddress]\n      DUP2 \t\t\t_usersAuthToken[_userAddress]\n      MSTORE \t\t\t_usersAuthToken[_userAddress]\n      PUSH 20\t\t\t_usersAuthToken[_userAddress]\n      ADD \t\t\t_usersAuthToken[_userAddress]\n      PUSH 0\t\t\t_usersAuthToken[_userAddress]\n      KECCAK256 \t\t\t_usersAuthToken[_userAddress]\n      PUSH 0\t\t\t0\n      DUP2 \t\t\t_usersAuthToken[_userAddress][...\n      SLOAD \t\t\t_usersAuthToken[_userAddress][...\n      DUP2 \t\t\t_usersAuthToken[_userAddress][...\n      LT \t\t\t_usersAuthToken[_userAddress][...\n      PUSH [tag] 57\t\t\t_usersAuthToken[_userAddress][...\n      JUMPI \t\t\t_usersAuthToken[_userAddress][...\n      PUSH [tag] 58\t\t\t_usersAuthToken[_userAddress][...\n      PUSH [tag] 59\t\t\t_usersAuthToken[_userAddress][...\n      JUMP \t\t\t_usersAuthToken[_userAddress][...\n    tag 58\t\t\t_usersAuthToken[_userAddress][...\n      JUMPDEST \t\t\t_usersAuthToken[_userAddress][...\n    tag 57\t\t\t_usersAuthToken[_userAddress][...\n      JUMPDEST \t\t\t_usersAuthToken[_userAddress][...\n      SWAP1 \t\t\t_usersAuthToken[_userAddress][...\n      PUSH 0\t\t\t_usersAuthToken[_userAddress][...\n      MSTORE \t\t\t_usersAuthToken[_userAddress][...\n      PUSH 20\t\t\t_usersAuthToken[_userAddress][...\n      PUSH 0\t\t\t_usersAuthToken[_userAddress][...\n      KECCAK256 \t\t\t_usersAuthToken[_userAddress][...\n      ADD \t\t\t_usersAuthToken[_userAddress][...\n      SLOAD \t\t\t_usersAuthToken[_userAddress][...\n      EQ \t\t\t_usersAuthToken[_userAddress][...\n      PUSH [tag] 61\t\t\tif (_usersAuthToken[_userAddre...\n      JUMPI \t\t\tif (_usersAuthToken[_userAddre...\n      PUSH 40\t\t\trevert(\"not equal\")\n      MLOAD \t\t\trevert(\"not equal\")\n      PUSH 8C379A000000000000000000000000000000000000000000000000000000000\t\t\trevert(\"not equal\")\n      DUP2 \t\t\trevert(\"not equal\")\n      MSTORE \t\t\trevert(\"not equal\")\n      PUSH 4\t\t\trevert(\"not equal\")\n      ADD \t\t\trevert(\"not equal\")\n      PUSH [tag] 62\t\t\trevert(\"not equal\")\n      SWAP1 \t\t\trevert(\"not equal\")\n      PUSH [tag] 63\t\t\trevert(\"not equal\")\n      JUMP \t\t\trevert(\"not equal\")\n    tag 62\t\t\trevert(\"not equal\")\n      JUMPDEST \t\t\trevert(\"not equal\")\n      PUSH 40\t\t\trevert(\"not equal\")\n      MLOAD \t\t\trevert(\"not equal\")\n      DUP1 \t\t\trevert(\"not equal\")\n      SWAP2 \t\t\trevert(\"not equal\")\n      SUB \t\t\trevert(\"not equal\")\n      SWAP1 \t\t\trevert(\"not equal\")\n      REVERT \t\t\trevert(\"not equal\")\n    tag 61\t\t\tif (_usersAuthToken[_userAddre...\n      JUMPDEST \t\t\tif (_usersAuthToken[_userAddre...\n      POP \t\t\t{\\r\\n\\r\\n        bytes32 authT...\n      POP \t\t\tfunction userAuthTokenCheck(ad...\n      POP \t\t\tfunction userAuthTokenCheck(ad...\n      POP \t\t\tfunction userAuthTokenCheck(ad...\n      JUMP \t\t\tfunction userAuthTokenCheck(ad...\n    tag 34\t\t\tfunction userAuthorized(string...\n      JUMPDEST \t\t\tfunction userAuthorized(string...\n      PUSH 0\t\t\t_secretHash\n      SLOAD \t\t\t_secretHash\n      DUP2 \t\t\t_secret\n      PUSH 40\t\t\tabi.encodePacked(_secret)\n      MLOAD \t\t\tabi.encodePacked(_secret)\n      PUSH 20\t\t\tabi.encodePacked(_secret)\n      ADD \t\t\tabi.encodePacked(_secret)\n      PUSH [tag] 65\t\t\tabi.encodePacked(_secret)\n      SWAP2 \t\t\tabi.encodePacked(_secret)\n      SWAP1 \t\t\tabi.encodePacked(_secret)\n      PUSH [tag] 66\t\t\tabi.encodePacked(_secret)\n      JUMP \t\t\tabi.encodePacked(_secret)\n    tag 65\t\t\tabi.encodePacked(_secret)\n      JUMPDEST \t\t\tabi.encodePacked(_secret)\n      PUSH 40\t\t\tabi.encodePacked(_secret)\n      MLOAD \t\t\tabi.encodePacked(_secret)\n      PUSH 20\t\t\tabi.encodePacked(_secret)\n      DUP2 \t\t\tabi.encodePacked(_secret)\n      DUP4 \t\t\tabi.encodePacked(_secret)\n      SUB \t\t\tabi.encodePacked(_secret)\n      SUB \t\t\tabi.encodePacked(_secret)\n      DUP2 \t\t\tabi.encodePacked(_secret)\n      MSTORE \t\t\tabi.encodePacked(_secret)\n      SWAP1 \t\t\tabi.encodePacked(_secret)\n      PUSH 40\t\t\tabi.encodePacked(_secret)\n      MSTORE \t\t\tabi.encodePacked(_secret)\n      DUP1 \t\t\tkeccak256(abi.encodePacked(_se...\n      MLOAD \t\t\tkeccak256(abi.encodePacked(_se...\n      SWAP1 \t\t\tkeccak256(abi.encodePacked(_se...\n      PUSH 20\t\t\tkeccak256(abi.encodePacked(_se...\n      ADD \t\t\tkeccak256(abi.encodePacked(_se...\n      KECCAK256 \t\t\tkeccak256(abi.encodePacked(_se...\n      EQ \t\t\tkeccak256(abi.encodePacked(_se...\n      PUSH [tag] 67\t\t\trequire(keccak256(abi.encodePa...\n      JUMPI \t\t\trequire(keccak256(abi.encodePa...\n      PUSH 40\t\t\trequire(keccak256(abi.encodePa...\n      MLOAD \t\t\trequire(keccak256(abi.encodePa...\n      PUSH 8C379A000000000000000000000000000000000000000000000000000000000\t\t\trequire(keccak256(abi.encodePa...\n      DUP2 \t\t\trequire(keccak256(abi.encodePa...\n      MSTORE \t\t\trequire(keccak256(abi.encodePa...\n      PUSH 4\t\t\trequire(keccak256(abi.encodePa...\n      ADD \t\t\trequire(keccak256(abi.encodePa...\n      PUSH [tag] 68\t\t\trequire(keccak256(abi.encodePa...\n      SWAP1 \t\t\trequire(keccak256(abi.encodePa...\n      PUSH [tag] 69\t\t\trequire(keccak256(abi.encodePa...\n      JUMP \t\t\trequire(keccak256(abi.encodePa...\n    tag 68\t\t\trequire(keccak256(abi.encodePa...\n      JUMPDEST \t\t\trequire(keccak256(abi.encodePa...\n      PUSH 40\t\t\trequire(keccak256(abi.encodePa...\n      MLOAD \t\t\trequire(keccak256(abi.encodePa...\n      DUP1 \t\t\trequire(keccak256(abi.encodePa...\n      SWAP2 \t\t\trequire(keccak256(abi.encodePa...\n      SUB \t\t\trequire(keccak256(abi.encodePa...\n      SWAP1 \t\t\trequire(keccak256(abi.encodePa...\n      REVERT \t\t\trequire(keccak256(abi.encodePa...\n    tag 67\t\t\trequire(keccak256(abi.encodePa...\n      JUMPDEST \t\t\trequire(keccak256(abi.encodePa...\n      POP \t\t\tfunction userAuthorized(string...\n      JUMP \t\t\tfunction userAuthorized(string...\n    tag 44\t\t\t\n      JUMPDEST \t\t\t\n      DUP3 \t\t\t\n      DUP1 \t\t\t\n      SLOAD \t\t\t\n      DUP3 \t\t\t\n      DUP3 \t\t\t\n      SSTORE \t\t\t\n      SWAP1 \t\t\t\n      PUSH 0\t\t\t\n      MSTORE \t\t\t\n      PUSH 20\t\t\t\n      PUSH 0\t\t\t\n      KECCAK256 \t\t\t\n      SWAP1 \t\t\t\n      DUP2 \t\t\t\n      ADD \t\t\t\n      SWAP3 \t\t\t\n      DUP3 \t\t\t\n      ISZERO \t\t\t\n      PUSH [tag] 70\t\t\t\n      JUMPI \t\t\t\n      SWAP2 \t\t\t\n      PUSH 20\t\t\t\n      MUL \t\t\t\n      DUP3 \t\t\t\n      ADD \t\t\t\n    tag 71\t\t\t\n      JUMPDEST \t\t\t\n      DUP3 \t\t\t\n      DUP2 \t\t\t\n      GT \t\t\t\n      ISZERO \t\t\t\n      PUSH [tag] 72\t\t\t\n      JUMPI \t\t\t\n      DUP3 \t\t\t\n      MLOAD \t\t\t\n      DUP3 \t\t\t\n      SSTORE \t\t\t\n      SWAP2 \t\t\t\n      PUSH 20\t\t\t\n      ADD \t\t\t\n      SWAP2 \t\t\t\n      SWAP1 \t\t\t\n      PUSH 1\t\t\t\n      ADD \t\t\t\n      SWAP1 \t\t\t\n      PUSH [tag] 71\t\t\t\n      JUMP \t\t\t\n    tag 72\t\t\t\n      JUMPDEST \t\t\t\n    tag 70\t\t\t\n      JUMPDEST \t\t\t\n      POP \t\t\t\n      SWAP1 \t\t\t\n      POP \t\t\t\n      PUSH [tag] 73\t\t\t\n      SWAP2 \t\t\t\n      SWAP1 \t\t\t\n      PUSH [tag] 74\t\t\t\n      JUMP \t\t\t\n    tag 73\t\t\t\n      JUMPDEST \t\t\t\n      POP \t\t\t\n      SWAP1 \t\t\t\n      JUMP \t\t\t\n    tag 74\t\t\t\n      JUMPDEST \t\t\t\n    tag 75\t\t\t\n      JUMPDEST \t\t\t\n      DUP1 \t\t\t\n      DUP3 \t\t\t\n      GT \t\t\t\n      ISZERO \t\t\t\n      PUSH [tag] 76\t\t\t\n      JUMPI \t\t\t\n      PUSH 0\t\t\t\n      DUP2 \t\t\t\n      PUSH 0\t\t\t\n      SWAP1 \t\t\t\n      SSTORE \t\t\t\n      POP \t\t\t\n      PUSH 1\t\t\t\n      ADD \t\t\t\n      PUSH [tag] 75\t\t\t\n      JUMP \t\t\t\n    tag 76\t\t\t\n      JUMPDEST \t\t\t\n      POP \t\t\t\n      SWAP1 \t\t\t\n      JUMP \t\t\t\n    tag 77\t\t\t-License-Identifier: GPL-3.0\\r...\n      JUMPDEST \t\t\t-License-Identifier: GPL-3.0\\r...\n      PUSH 0\t\t\tsolidit\n      DUP2 \t\t\tcontr\n      SWAP1 \t\t\t<0.9.0;\\r\\n\\r\\ncontr\n      POP \t\t\t<0.9.0;\\r\\n\\r\\ncontr\n      SWAP2 \t\t\t-License-Identifier: GPL-3.0\\r...\n      SWAP1 \t\t\t-License-Identifier: GPL-3.0\\r...\n      POP \t\t\t-License-Identifier: GPL-3.0\\r...\n      JUMP \t\t\t-License-Identifier: GPL-3.0\\r...\n    tag 78\t\t\trea {\\r\\n\\r\\n    bytes32 priva...\n      JUMPDEST \t\t\trea {\\r\\n\\r\\n    bytes32 priva...\n      PUSH [tag] 130\t\t\trsAddress;\\r\\n    mapping(\n      DUP2 \t\t\tpping\n      PUSH [tag] 77\t\t\trsAddress;\\r\\n    mapping(\n      JUMP \t\t\trsAddress;\\r\\n    mapping(\n    tag 130\t\t\trsAddress;\\r\\n    mapping(\n      JUMPDEST \t\t\trsAddress;\\r\\n    mapping(\n      DUP3 \t\t\t _u\n      MSTORE \t\t\tprivate _usersAddress;\\r\\n    ...\n      POP \t\t\trea {\\r\\n\\r\\n    bytes32 priva...\n      POP \t\t\trea {\\r\\n\\r\\n    bytes32 priva...\n      JUMP \t\t\trea {\\r\\n\\r\\n    bytes32 priva...\n    tag 10\t\t\t256[]) private _usersAuthToken...\n      JUMPDEST \t\t\t256[]) private _usersAuthToken...\n      PUSH 0\t\t\t con\n      PUSH 20\t\t\tya\n      DUP3 \t\t\t_secret) \n      ADD \t\t\tory _secret) payab\n      SWAP1 \t\t\tring memory _secret) payab\n      POP \t\t\tring memory _secret) payab\n      PUSH [tag] 132\t\t\t      _secretHash = keccak256(...\n      PUSH 0\t\t\t\\r\n      DUP4 \t\t\t\\r\\n\\r\\n    }\n      ADD \t\t\tt));\\r\\n\\r\\n    }\\r\\n\\r\\n\n      DUP5 \t\t\ted(_se\n      PUSH [tag] 78\t\t\t      _secretHash = keccak256(...\n      JUMP \t\t\t      _secretHash = keccak256(...\n    tag 132\t\t\t      _secretHash = keccak256(...\n      JUMPDEST \t\t\t      _secretHash = keccak256(...\n      SWAP3 \t\t\t256[]) private _usersAuthToken...\n      SWAP2 \t\t\t256[]) private _usersAuthToken...\n      POP \t\t\t256[]) private _usersAuthToken...\n      POP \t\t\t256[]) private _usersAuthToken...\n      JUMP \t\t\t256[]) private _usersAuthToken...\n    tag 79\t\t\tr Ether to Loyal Customers\\r\\n...\n      JUMPDEST \t\t\tr Ether to Loyal Customers\\r\\n...\n      PUSH 0\t\t\tunctio\n      PUSH 40\t\t\tnt\n      MLOAD \t\t\tnt, uint2\n      SWAP1 \t\t\tss recipient, uint2\n      POP \t\t\tss recipient, uint2\n      SWAP1 \t\t\tr Ether to Loyal Customers\\r\\n...\n      JUMP \t\t\tr Ether to Loyal Customers\\r\\n...\n    tag 80\t\t\tuint256 campaignCount, uint256...\n      JUMPDEST \t\t\tuint256 campaignCount, uint256...\n      PUSH 0\t\t\t2\n      DUP1 \t\t\ti\n      REVERT \t\t\tData, uint25\n    tag 81\t\t\t public payable{\\r\\n        \\r...\n      JUMPDEST \t\t\t public payable{\\r\\n        \\r...\n      PUSH 0\t\t\ti\n      DUP1 \t\t\th\n      REVERT \t\t\tuserAuthoriz\n    tag 82\t\t\t\\r\\n        \\r\\n        requir...\n      JUMPDEST \t\t\t\\r\\n        \\r\\n        requir...\n      PUSH 0\t\t\t addres\n      PUSH FFFFFFFFFFFFFFFFFFFFFFFFFFFFFFFFFFFFFFFF\t\t\tlance\");\\r\\n\\r\\n        if(sho...\n      DUP3 \t\t\tient \n      AND \t\t\tfficient balance\");\\r\\n\\r\\n   ...\n      SWAP1 \t\t\tance, \"Insufficient balance\");...\n      POP \t\t\tance, \"Insufficient balance\");...\n      SWAP2 \t\t\t\\r\\n        \\r\\n        requir...\n      SWAP1 \t\t\t\\r\\n        \\r\\n        requir...\n      POP \t\t\t\\r\\n        \\r\\n        requir...\n      JUMP \t\t\t\\r\\n        \\r\\n        requir...\n    tag 83\t\t\t    \\r\\n\\r\\n            // Tra...\n      JUMPDEST \t\t\t    \\r\\n\\r\\n            // Tra...\n      PUSH 0\t\t\t to the\n      PUSH [tag] 138\t\t\t         bool success = \n      DUP3 \t\t\tess =\n      PUSH [tag] 82\t\t\t         bool success = \n      JUMP \t\t\t         bool success = \n    tag 138\t\t\t         bool success = \n      JUMPDEST \t\t\t         bool success = \n      SWAP1 \t\t\tddress\\r\\n            bool suc...\n      POP \t\t\tddress\\r\\n            bool suc...\n      SWAP2 \t\t\t    \\r\\n\\r\\n            // Tra...\n      SWAP1 \t\t\t    \\r\\n\\r\\n            // Tra...\n      POP \t\t\t    \\r\\n\\r\\n            // Tra...\n      JUMP \t\t\t    \\r\\n\\r\\n            // Tra...\n    tag 84\t\t\tpient).send(amount);\\r\\n      ...\n      JUMPDEST \t\t\tpient).send(amount);\\r\\n      ...\n      PUSH [tag] 140\t\t\t\\n            _usersAuthT\n      DUP2 \t\t\tsAuth\n      PUSH [tag] 83\t\t\t\\n            _usersAuthT\n      JUMP \t\t\t\\n            _usersAuthT\n    tag 140\t\t\t\\n            _usersAuthT\n      JUMPDEST \t\t\t\\n            _usersAuthT\n      DUP2 \t\t\td\");\\r\n      EQ \t\t\tiled\");\\r\\n\\r\\n            _us...\n      PUSH [tag] 141\t\t\transfer failed\");\\r\\n\\r\\n     ...\n      JUMPI \t\t\transfer failed\");\\r\\n\\r\\n     ...\n      PUSH 0\t\t\t \n      DUP1 \t\t\tn\n      REVERT \t\t\trecipient] =\n    tag 141\t\t\transfer failed\");\\r\\n\\r\\n     ...\n      JUMPDEST \t\t\transfer failed\");\\r\\n\\r\\n     ...\n      POP \t\t\tpient).send(amount);\\r\\n      ...\n      JUMP \t\t\tpient).send(amount);\\r\\n      ...\n    tag 85\t\t\tecData];\\r\\n\\r\\n        }else{...\n      JUMPDEST \t\t\tecData];\\r\\n\\r\\n        }else{...\n      PUSH 0\t\t\trt(\"U\n      DUP2 \t\t\t\\r\\n\\r\\n  \n      CALLDATALOAD \t\t\t\\r\\n\\r\\n        }\\r\\n\\r\\n   \n      SWAP1 \t\t\tgible!\");\\r\\n\\r\\n        }\\r\\n...\n      POP \t\t\tgible!\");\\r\\n\\r\\n        }\\r\\n...\n      PUSH [tag] 143\t\t\t  }\\r\\n\\r\\n    function userAu...\n      DUP2 \t\t\thoriz\n      PUSH [tag] 84\t\t\t  }\\r\\n\\r\\n    function userAu...\n      JUMP \t\t\t  }\\r\\n\\r\\n    function userAu...\n    tag 143\t\t\t  }\\r\\n\\r\\n    function userAu...\n      JUMPDEST \t\t\t  }\\r\\n\\r\\n    function userAu...\n      SWAP3 \t\t\tecData];\\r\\n\\r\\n        }else{...\n      SWAP2 \t\t\tecData];\\r\\n\\r\\n        }else{...\n      POP \t\t\tecData];\\r\\n\\r\\n        }else{...\n      POP \t\t\tecData];\\r\\n\\r\\n        }else{...\n      JUMP \t\t\tecData];\\r\\n\\r\\n        }else{...\n    tag 86\t\t\tory _secret) private view {\\r\\...\n      JUMPDEST \t\t\tory _secret) private view {\\r\\...\n      PUSH [tag] 145\t\t\tPacked(_secret)) == _sec\n      DUP2 \t\t\t= _se\n      PUSH [tag] 77\t\t\tPacked(_secret)) == _sec\n      JUMP \t\t\tPacked(_secret)) == _sec\n    tag 145\t\t\tPacked(_secret)) == _sec\n      JUMPDEST \t\t\tPacked(_secret)) == _sec\n      DUP2 \t\t\t.enco\n      EQ \t\t\tabi.encodePacked(_secret)) == ...\n      PUSH [tag] 146\t\t\tkeccak256(abi.encodePacked(_se...\n      JUMPI \t\t\tkeccak256(abi.encodePacked(_se...\n      PUSH 0\t\t\tn\n      DUP1 \t\t\te\n      REVERT \t\t\tsh, \"User no\n    tag 146\t\t\tkeccak256(abi.encodePacked(_se...\n      JUMPDEST \t\t\tkeccak256(abi.encodePacked(_se...\n      POP \t\t\tory _secret) private view {\\r\\...\n      JUMP \t\t\tory _secret) private view {\\r\\...\n    tag 87\t\t\t);\\r\\n      \\r\\n    }\\r\\n\\r\\n ...\n      JUMPDEST \t\t\t);\\r\\n      \\r\\n    }\\r\\n\\r\\n ...\n      PUSH 0\t\t\tnChec\n      DUP2 \t\t\tdecDat\n      CALLDATALOAD \t\t\tss, uint256 _decData\n      SWAP1 \t\t\tuserAddress, uint256 _decData\n      POP \t\t\tuserAddress, uint256 _decData\n      PUSH [tag] 148\t\t\t _saltHash) private view {\\r\\n...\n      DUP2 \t\t\t\\n\\r\\n  \n      PUSH [tag] 86\t\t\t _saltHash) private view {\\r\\n...\n      JUMP \t\t\t _saltHash) private view {\\r\\n...\n    tag 148\t\t\t _saltHash) private view {\\r\\n...\n      JUMPDEST \t\t\t _saltHash) private view {\\r\\n...\n      SWAP3 \t\t\t);\\r\\n      \\r\\n    }\\r\\n\\r\\n ...\n      SWAP2 \t\t\t);\\r\\n      \\r\\n    }\\r\\n\\r\\n ...\n      POP \t\t\t);\\r\\n      \\r\\n    }\\r\\n\\r\\n ...\n      POP \t\t\t);\\r\\n      \\r\\n    }\\r\\n\\r\\n ...\n      JUMP \t\t\t);\\r\\n      \\r\\n    }\\r\\n\\r\\n ...\n    tag 88\t\t\t authToken = keccak256(abi.enc...\n      JUMPDEST \t\t\t authToken = keccak256(abi.enc...\n      PUSH 0\t\t\t \n      DUP1 \t\t\t[\n      REVERT \t\t\tddress][0] !\n    tag 89\t\t\tthToken)){\\r\\n            reve...\n      JUMPDEST \t\t\tthToken)){\\r\\n            reve...\n      PUSH 0\t\t\t=\n      DUP1 \t\t\t]\n      REVERT \t\t\tress][0] == \n    tag 90\t\t\ti.encodePacked(_decData + _sal...\n      JUMPDEST \t\t\ti.encodePacked(_decData + _sal...\n      PUSH 0\t\t\tser no\n      PUSH 1F\t\t\t b\n      NOT \t\t\t get ba\n      PUSH 1F\t\t\t  \n      DUP4 \t\t\t\\r\\n\\r\\n\\r\n      ADD \t\t\t   }\\r\\n\\r\\n\\r\\n    \n      AND \t\t\t \\r\\n    }\\r\\n\\r\\n\\r\\n    // g...\n      SWAP1 \t\t\td!\");\\r\\n    \\r\\n    }\\r\\n\\r\\n...\n      POP \t\t\td!\");\\r\\n    \\r\\n    }\\r\\n\\r\\n...\n      SWAP2 \t\t\ti.encodePacked(_decData + _sal...\n      SWAP1 \t\t\ti.encodePacked(_decData + _sal...\n      POP \t\t\ti.encodePacked(_decData + _sal...\n      JUMP \t\t\ti.encodePacked(_decData + _sal...\n    tag 91\t\t\tract address\\r\\n    function g...\n      JUMPDEST \t\t\tract address\\r\\n    function g...\n      PUSH 4E487B7100000000000000000000000000000000000000000000000000000000\t\t\tiew returns(uint256){\\r\\n     ...\n      PUSH 0\t\t\tc\n      MSTORE \t\t\t) public view returns(uint256)...\n      PUSH 41\t\t\tter \n      PUSH 4\t\t\t \n      MSTORE \t\t\t remove after p\n      PUSH 24\t\t\ttion\n      PUSH 0\t\t\tu\n      REVERT \t\t\t\\r\\n    function \n    tag 92\t\t\t _userAddress) public view ret...\n      JUMPDEST \t\t\t _userAddress) public view ret...\n      PUSH [tag] 154\t\t\tsersAuthToken[_userAddress]\n      DUP3 \t\t\tress\n      PUSH [tag] 90\t\t\tsersAuthToken[_userAddress]\n      JUMP \t\t\tsersAuthToken[_userAddress]\n    tag 154\t\t\tsersAuthToken[_userAddress]\n      JUMPDEST \t\t\tsersAuthToken[_userAddress]\n      DUP2 \t\t\teturn \n      ADD \t\t\t   return _usersAuthToken[_use...\n      DUP2 \t\t\tsaltHa\n      DUP2 \t\t\ta, bytes32\n      LT \t\t\tData, bytes32 _saltHas\n      PUSH FFFFFFFFFFFFFFFF\t\t\ton test2(bytes32 _\n      DUP3 \t\t\t\\r\\n    func\n      GT \t\t\tion\\r\\n    function test2(byte...\n      OR \t\t\tuction\\r\\n    function test2(b...\n      ISZERO \t\t\troduction\\r\\n    function test...\n      PUSH [tag] 155\t\t\troduction\\r\\n    function test...\n      JUMPI \t\t\troduction\\r\\n    function test...\n      PUSH [tag] 156\t\t\tublic pure returns\n      PUSH [tag] 91\t\t\tublic pure returns\n      JUMP \t\t\tublic pure returns\n    tag 156\t\t\tublic pure returns\n      JUMPDEST \t\t\tublic pure returns\n    tag 155\t\t\troduction\\r\\n    function test...\n      JUMPDEST \t\t\troduction\\r\\n    function test...\n      DUP1 \t\t\t\\n       //\n      PUSH 40\t\t\t  \n      MSTORE \t\t\t\\r\\n        \\r\\n       // \n      POP \t\t\t[] memory){\\r\\n        \\r\\n   ...\n      POP \t\t\t _userAddress) public view ret...\n      POP \t\t\t _userAddress) public view ret...\n      JUMP \t\t\t _userAddress) public view ret...\n    tag 93\t\t\tak256(abi.encodePacked(_decDat...\n      JUMPDEST \t\t\tak256(abi.encodePacked(_decDat...\n      PUSH 0\t\t\t_saltH\n      PUSH [tag] 158\t\t\t\\n    \\r\\n}\n      PUSH [tag] 79\t\t\t\\n    \\r\\n}\n      JUMP \t\t\t\\n    \\r\\n}\n    tag 158\t\t\t\\n    \\r\\n}\n      JUMPDEST \t\t\t\\n    \\r\\n}\n      SWAP1 \t\t\t\\r\\n    }\\r\\n\\r\\n    \\r\\n}\n      POP \t\t\t\\r\\n    }\\r\\n\\r\\n    \\r\\n}\n      PUSH [tag] 159\t\t\t\n      DUP3 \t\t\t\n      DUP3 \t\t\t\n      PUSH [tag] 92\t\t\t\n      JUMP \t\t\t\n    tag 159\t\t\t\n      JUMPDEST \t\t\t\n      SWAP2 \t\t\tak256(abi.encodePacked(_decDat...\n      SWAP1 \t\t\tak256(abi.encodePacked(_decDat...\n      POP \t\t\tak256(abi.encodePacked(_decDat...\n      JUMP \t\t\tak256(abi.encodePacked(_decDat...\n    tag 94\t\t\t\n      JUMPDEST \t\t\t\n      PUSH 0\t\t\t\n      PUSH FFFFFFFFFFFFFFFF\t\t\t\n      DUP3 \t\t\t\n      GT \t\t\t\n      ISZERO \t\t\t\n      PUSH [tag] 161\t\t\t\n      JUMPI \t\t\t\n      PUSH [tag] 162\t\t\t\n      PUSH [tag] 91\t\t\t\n      JUMP \t\t\t\n    tag 162\t\t\t\n      JUMPDEST \t\t\t\n    tag 161\t\t\t\n      JUMPDEST \t\t\t\n      PUSH [tag] 163\t\t\t\n      DUP3 \t\t\t\n      PUSH [tag] 90\t\t\t\n      JUMP \t\t\t\n    tag 163\t\t\t\n      JUMPDEST \t\t\t\n      SWAP1 \t\t\t\n      POP \t\t\t\n      PUSH 20\t\t\t\n      DUP2 \t\t\t\n      ADD \t\t\t\n      SWAP1 \t\t\t\n      POP \t\t\t\n      SWAP2 \t\t\t\n      SWAP1 \t\t\t\n      POP \t\t\t\n      JUMP \t\t\t\n    tag 95\t\t\t\n      JUMPDEST \t\t\t\n      DUP3 \t\t\t\n      DUP2 \t\t\t\n      DUP4 \t\t\t\n      CALLDATACOPY \t\t\t\n      PUSH 0\t\t\t\n      DUP4 \t\t\t\n      DUP4 \t\t\t\n      ADD \t\t\t\n      MSTORE \t\t\t\n      POP \t\t\t\n      POP \t\t\t\n      POP \t\t\t\n      JUMP \t\t\t\n    tag 96\t\t\t\n      JUMPDEST \t\t\t\n      PUSH 0\t\t\t\n      PUSH [tag] 166\t\t\t\n      PUSH [tag] 167\t\t\t\n      DUP5 \t\t\t\n      PUSH [tag] 94\t\t\t\n      JUMP \t\t\t\n    tag 167\t\t\t\n      JUMPDEST \t\t\t\n      PUSH [tag] 93\t\t\t\n      JUMP \t\t\t\n    tag 166\t\t\t\n      JUMPDEST \t\t\t\n      SWAP1 \t\t\t\n      POP \t\t\t\n      DUP3 \t\t\t\n      DUP2 \t\t\t\n      MSTORE \t\t\t\n      PUSH 20\t\t\t\n      DUP2 \t\t\t\n      ADD \t\t\t\n      DUP5 \t\t\t\n      DUP5 \t\t\t\n      DUP5 \t\t\t\n      ADD \t\t\t\n      GT \t\t\t\n      ISZERO \t\t\t\n      PUSH [tag] 168\t\t\t\n      JUMPI \t\t\t\n      PUSH [tag] 169\t\t\t\n      PUSH [tag] 89\t\t\t\n      JUMP \t\t\t\n    tag 169\t\t\t\n      JUMPDEST \t\t\t\n    tag 168\t\t\t\n      JUMPDEST \t\t\t\n      PUSH [tag] 170\t\t\t\n      DUP5 \t\t\t\n      DUP3 \t\t\t\n      DUP6 \t\t\t\n      PUSH [tag] 95\t\t\t\n      JUMP \t\t\t\n    tag 170\t\t\t\n      JUMPDEST \t\t\t\n      POP \t\t\t\n      SWAP4 \t\t\t\n      SWAP3 \t\t\t\n      POP \t\t\t\n      POP \t\t\t\n      POP \t\t\t\n      JUMP \t\t\t\n    tag 97\t\t\t\n      JUMPDEST \t\t\t\n      PUSH 0\t\t\t\n      DUP3 \t\t\t\n      PUSH 1F\t\t\t\n      DUP4 \t\t\t\n      ADD \t\t\t\n      SLT \t\t\t\n      PUSH [tag] 172\t\t\t\n      JUMPI \t\t\t\n      PUSH [tag] 173\t\t\t\n      PUSH [tag] 88\t\t\t\n      JUMP \t\t\t\n    tag 173\t\t\t\n      JUMPDEST \t\t\t\n    tag 172\t\t\t\n      JUMPDEST \t\t\t\n      DUP2 \t\t\t\n      CALLDATALOAD \t\t\t\n      PUSH [tag] 174\t\t\t\n      DUP5 \t\t\t\n      DUP3 \t\t\t\n      PUSH 20\t\t\t\n      DUP7 \t\t\t\n      ADD \t\t\t\n      PUSH [tag] 96\t\t\t\n      JUMP \t\t\t\n    tag 174\t\t\t\n      JUMPDEST \t\t\t\n      SWAP2 \t\t\t\n      POP \t\t\t\n      POP \t\t\t\n      SWAP3 \t\t\t\n      SWAP2 \t\t\t\n      POP \t\t\t\n      POP \t\t\t\n      JUMP \t\t\t\n    tag 13\t\t\t\n      JUMPDEST \t\t\t\n      PUSH 0\t\t\t\n      DUP1 \t\t\t\n      PUSH 0\t\t\t\n      DUP1 \t\t\t\n      PUSH 0\t\t\t\n      DUP1 \t\t\t\n      PUSH 0\t\t\t\n      DUP1 \t\t\t\n      PUSH 100\t\t\t\n      DUP10 \t\t\t\n      DUP12 \t\t\t\n      SUB \t\t\t\n      SLT \t\t\t\n      ISZERO \t\t\t\n      PUSH [tag] 176\t\t\t\n      JUMPI \t\t\t\n      PUSH [tag] 177\t\t\t\n      PUSH [tag] 80\t\t\t\n      JUMP \t\t\t\n    tag 177\t\t\t\n      JUMPDEST \t\t\t\n    tag 176\t\t\t\n      JUMPDEST \t\t\t\n      PUSH 0\t\t\t\n      PUSH [tag] 178\t\t\t\n      DUP12 \t\t\t\n      DUP3 \t\t\t\n      DUP13 \t\t\t\n      ADD \t\t\t\n      PUSH [tag] 85\t\t\t\n      JUMP \t\t\t\n    tag 178\t\t\t\n      JUMPDEST \t\t\t\n      SWAP9 \t\t\t\n      POP \t\t\t\n      POP \t\t\t\n      PUSH 20\t\t\t\n      PUSH [tag] 179\t\t\t\n      DUP12 \t\t\t\n      DUP3 \t\t\t\n      DUP13 \t\t\t\n      ADD \t\t\t\n      PUSH [tag] 87\t\t\t\n      JUMP \t\t\t\n    tag 179\t\t\t\n      JUMPDEST \t\t\t\n      SWAP8 \t\t\t\n      POP \t\t\t\n      POP \t\t\t\n      PUSH 40\t\t\t\n      PUSH [tag] 180\t\t\t\n      DUP12 \t\t\t\n      DUP3 \t\t\t\n      DUP13 \t\t\t\n      ADD \t\t\t\n      PUSH [tag] 87\t\t\t\n      JUMP \t\t\t\n    tag 180\t\t\t\n      JUMPDEST \t\t\t\n      SWAP7 \t\t\t\n      POP \t\t\t\n      POP \t\t\t\n      PUSH 60\t\t\t\n      PUSH [tag] 181\t\t\t\n      DUP12 \t\t\t\n      DUP3 \t\t\t\n      DUP13 \t\t\t\n      ADD \t\t\t\n      PUSH [tag] 87\t\t\t\n      JUMP \t\t\t\n    tag 181\t\t\t\n      JUMPDEST \t\t\t\n      SWAP6 \t\t\t\n      POP \t\t\t\n      POP \t\t\t\n      PUSH 80\t\t\t\n      DUP10 \t\t\t\n      ADD \t\t\t\n      CALLDATALOAD \t\t\t\n      PUSH FFFFFFFFFFFFFFFF\t\t\t\n      DUP2 \t\t\t\n      GT \t\t\t\n      ISZERO \t\t\t\n      PUSH [tag] 182\t\t\t\n      JUMPI \t\t\t\n      PUSH [tag] 183\t\t\t\n      PUSH [tag] 81\t\t\t\n      JUMP \t\t\t\n    tag 183\t\t\t\n      JUMPDEST \t\t\t\n    tag 182\t\t\t\n      JUMPDEST \t\t\t\n      PUSH [tag] 184\t\t\t\n      DUP12 \t\t\t\n      DUP3 \t\t\t\n      DUP13 \t\t\t\n      ADD \t\t\t\n      PUSH [tag] 97\t\t\t\n      JUMP \t\t\t\n    tag 184\t\t\t\n      JUMPDEST \t\t\t\n      SWAP5 \t\t\t\n      POP \t\t\t\n      POP \t\t\t\n      PUSH A0\t\t\t\n      PUSH [tag] 185\t\t\t\n      DUP12 \t\t\t\n      DUP3 \t\t\t\n      DUP13 \t\t\t\n      ADD \t\t\t\n      PUSH [tag] 87\t\t\t\n      JUMP \t\t\t\n    tag 185\t\t\t\n      JUMPDEST \t\t\t\n      SWAP4 \t\t\t\n      POP \t\t\t\n      POP \t\t\t\n      PUSH C0\t\t\t\n      PUSH [tag] 186\t\t\t\n      DUP12 \t\t\t\n      DUP3 \t\t\t\n      DUP13 \t\t\t\n      ADD \t\t\t\n      PUSH [tag] 87\t\t\t\n      JUMP \t\t\t\n    tag 186\t\t\t\n      JUMPDEST \t\t\t\n      SWAP3 \t\t\t\n      POP \t\t\t\n      POP \t\t\t\n      PUSH E0\t\t\t\n      PUSH [tag] 187\t\t\t\n      DUP12 \t\t\t\n      DUP3 \t\t\t\n      DUP13 \t\t\t\n      ADD \t\t\t\n      PUSH [tag] 87\t\t\t\n      JUMP \t\t\t\n    tag 187\t\t\t\n      JUMPDEST \t\t\t\n      SWAP2 \t\t\t\n      POP \t\t\t\n      POP \t\t\t\n      SWAP3 \t\t\t\n      SWAP6 \t\t\t\n      SWAP9 \t\t\t\n      POP \t\t\t\n      SWAP3 \t\t\t\n      SWAP6 \t\t\t\n      SWAP9 \t\t\t\n      SWAP1 \t\t\t\n      SWAP4 \t\t\t\n      SWAP7 \t\t\t\n      POP \t\t\t\n      JUMP \t\t\t\n    tag 18\t\t\t\n      JUMPDEST \t\t\t\n      PUSH 0\t\t\t\n      PUSH 20\t\t\t\n      DUP3 \t\t\t\n      DUP5 \t\t\t\n      SUB \t\t\t\n      SLT \t\t\t\n      ISZERO \t\t\t\n      PUSH [tag] 189\t\t\t\n      JUMPI \t\t\t\n      PUSH [tag] 190\t\t\t\n      PUSH [tag] 80\t\t\t\n      JUMP \t\t\t\n    tag 190\t\t\t\n      JUMPDEST \t\t\t\n    tag 189\t\t\t\n      JUMPDEST \t\t\t\n      PUSH 0\t\t\t\n      PUSH [tag] 191\t\t\t\n      DUP5 \t\t\t\n      DUP3 \t\t\t\n      DUP6 \t\t\t\n      ADD \t\t\t\n      PUSH [tag] 85\t\t\t\n      JUMP \t\t\t\n    tag 191\t\t\t\n      JUMPDEST \t\t\t\n      SWAP2 \t\t\t\n      POP \t\t\t\n      POP \t\t\t\n      SWAP3 \t\t\t\n      SWAP2 \t\t\t\n      POP \t\t\t\n      POP \t\t\t\n      JUMP \t\t\t\n    tag 98\t\t\t\n      JUMPDEST \t\t\t\n      PUSH 0\t\t\t\n      DUP2 \t\t\t\n      MLOAD \t\t\t\n      SWAP1 \t\t\t\n      POP \t\t\t\n      SWAP2 \t\t\t\n      SWAP1 \t\t\t\n      POP \t\t\t\n      JUMP \t\t\t\n    tag 99\t\t\t\n      JUMPDEST \t\t\t\n      PUSH 0\t\t\t\n      DUP3 \t\t\t\n      DUP3 \t\t\t\n      MSTORE \t\t\t\n      PUSH 20\t\t\t\n      DUP3 \t\t\t\n      ADD \t\t\t\n      SWAP1 \t\t\t\n      POP \t\t\t\n      SWAP3 \t\t\t\n      SWAP2 \t\t\t\n      POP \t\t\t\n      POP \t\t\t\n      JUMP \t\t\t\n    tag 100\t\t\t\n      JUMPDEST \t\t\t\n      PUSH 0\t\t\t\n      DUP2 \t\t\t\n      SWAP1 \t\t\t\n      POP \t\t\t\n      PUSH 20\t\t\t\n      DUP3 \t\t\t\n      ADD \t\t\t\n      SWAP1 \t\t\t\n      POP \t\t\t\n      SWAP2 \t\t\t\n      SWAP1 \t\t\t\n      POP \t\t\t\n      JUMP \t\t\t\n    tag 101\t\t\t\n      JUMPDEST \t\t\t\n      PUSH [tag] 196\t\t\t\n      DUP2 \t\t\t\n      PUSH [tag] 77\t\t\t\n      JUMP \t\t\t\n    tag 196\t\t\t\n      JUMPDEST \t\t\t\n      DUP3 \t\t\t\n      MSTORE \t\t\t\n      POP \t\t\t\n      POP \t\t\t\n      JUMP \t\t\t\n    tag 102\t\t\t\n      JUMPDEST \t\t\t\n      PUSH 0\t\t\t\n      PUSH [tag] 198\t\t\t\n      DUP4 \t\t\t\n      DUP4 \t\t\t\n      PUSH [tag] 101\t\t\t\n      JUMP \t\t\t\n    tag 198\t\t\t\n      JUMPDEST \t\t\t\n      PUSH 20\t\t\t\n      DUP4 \t\t\t\n      ADD \t\t\t\n      SWAP1 \t\t\t\n      POP \t\t\t\n      SWAP3 \t\t\t\n      SWAP2 \t\t\t\n      POP \t\t\t\n      POP \t\t\t\n      JUMP \t\t\t\n    tag 103\t\t\t\n      JUMPDEST \t\t\t\n      PUSH 0\t\t\t\n      PUSH 20\t\t\t\n      DUP3 \t\t\t\n      ADD \t\t\t\n      SWAP1 \t\t\t\n      POP \t\t\t\n      SWAP2 \t\t\t\n      SWAP1 \t\t\t\n      POP \t\t\t\n      JUMP \t\t\t\n    tag 104\t\t\t\n      JUMPDEST \t\t\t\n      PUSH 0\t\t\t\n      PUSH [tag] 201\t\t\t\n      DUP3 \t\t\t\n      PUSH [tag] 98\t\t\t\n      JUMP \t\t\t\n    tag 201\t\t\t\n      JUMPDEST \t\t\t\n      PUSH [tag] 202\t\t\t\n      DUP2 \t\t\t\n      DUP6 \t\t\t\n      PUSH [tag] 99\t\t\t\n      JUMP \t\t\t\n    tag 202\t\t\t\n      JUMPDEST \t\t\t\n      SWAP4 \t\t\t\n      POP \t\t\t\n      PUSH [tag] 203\t\t\t\n      DUP4 \t\t\t\n      PUSH [tag] 100\t\t\t\n      JUMP \t\t\t\n    tag 203\t\t\t\n      JUMPDEST \t\t\t\n      DUP1 \t\t\t\n      PUSH 0\t\t\t\n    tag 204\t\t\t\n      JUMPDEST \t\t\t\n      DUP4 \t\t\t\n      DUP2 \t\t\t\n      LT \t\t\t\n      ISZERO \t\t\t\n      PUSH [tag] 206\t\t\t\n      JUMPI \t\t\t\n      DUP2 \t\t\t\n      MLOAD \t\t\t\n      PUSH [tag] 207\t\t\t\n      DUP9 \t\t\t\n      DUP3 \t\t\t\n      PUSH [tag] 102\t\t\t\n      JUMP \t\t\t\n    tag 207\t\t\t\n      JUMPDEST \t\t\t\n      SWAP8 \t\t\t\n      POP \t\t\t\n      PUSH [tag] 208\t\t\t\n      DUP4 \t\t\t\n      PUSH [tag] 103\t\t\t\n      JUMP \t\t\t\n    tag 208\t\t\t\n      JUMPDEST \t\t\t\n      SWAP3 \t\t\t\n      POP \t\t\t\n      POP \t\t\t\n      PUSH 1\t\t\t\n      DUP2 \t\t\t\n      ADD \t\t\t\n      SWAP1 \t\t\t\n      POP \t\t\t\n      PUSH [tag] 204\t\t\t\n      JUMP \t\t\t\n    tag 206\t\t\t\n      JUMPDEST \t\t\t\n      POP \t\t\t\n      DUP6 \t\t\t\n      SWAP4 \t\t\t\n      POP \t\t\t\n      POP \t\t\t\n      POP \t\t\t\n      POP \t\t\t\n      SWAP3 \t\t\t\n      SWAP2 \t\t\t\n      POP \t\t\t\n      POP \t\t\t\n      JUMP \t\t\t\n    tag 21\t\t\t\n      JUMPDEST \t\t\t\n      PUSH 0\t\t\t\n      PUSH 20\t\t\t\n      DUP3 \t\t\t\n      ADD \t\t\t\n      SWAP1 \t\t\t\n      POP \t\t\t\n      DUP2 \t\t\t\n      DUP2 \t\t\t\n      SUB \t\t\t\n      PUSH 0\t\t\t\n      DUP4 \t\t\t\n      ADD \t\t\t\n      MSTORE \t\t\t\n      PUSH [tag] 210\t\t\t\n      DUP2 \t\t\t\n      DUP5 \t\t\t\n      PUSH [tag] 104\t\t\t\n      JUMP \t\t\t\n    tag 210\t\t\t\n      JUMPDEST \t\t\t\n      SWAP1 \t\t\t\n      POP \t\t\t\n      SWAP3 \t\t\t\n      SWAP2 \t\t\t\n      POP \t\t\t\n      POP \t\t\t\n      JUMP \t\t\t\n    tag 105\t\t\t\n      JUMPDEST \t\t\t\n      PUSH 0\t\t\t\n      DUP2 \t\t\t\n      SWAP1 \t\t\t\n      POP \t\t\t\n      SWAP2 \t\t\t\n      SWAP1 \t\t\t\n      POP \t\t\t\n      JUMP \t\t\t\n    tag 106\t\t\t\n      JUMPDEST \t\t\t\n      PUSH [tag] 213\t\t\t\n      DUP2 \t\t\t\n      PUSH [tag] 105\t\t\t\n      JUMP \t\t\t\n    tag 213\t\t\t\n      JUMPDEST \t\t\t\n      DUP2 \t\t\t\n      EQ \t\t\t\n      PUSH [tag] 214\t\t\t\n      JUMPI \t\t\t\n      PUSH 0\t\t\t\n      DUP1 \t\t\t\n      REVERT \t\t\t\n    tag 214\t\t\t\n      JUMPDEST \t\t\t\n      POP \t\t\t\n      JUMP \t\t\t\n    tag 107\t\t\t\n      JUMPDEST \t\t\t\n      PUSH 0\t\t\t\n      DUP2 \t\t\t\n      CALLDATALOAD \t\t\t\n      SWAP1 \t\t\t\n      POP \t\t\t\n      PUSH [tag] 216\t\t\t\n      DUP2 \t\t\t\n      PUSH [tag] 106\t\t\t\n      JUMP \t\t\t\n    tag 216\t\t\t\n      JUMPDEST \t\t\t\n      SWAP3 \t\t\t\n      SWAP2 \t\t\t\n      POP \t\t\t\n      POP \t\t\t\n      JUMP \t\t\t\n    tag 25\t\t\t\n      JUMPDEST \t\t\t\n      PUSH 0\t\t\t\n      DUP1 \t\t\t\n      PUSH 40\t\t\t\n      DUP4 \t\t\t\n      DUP6 \t\t\t\n      SUB \t\t\t\n      SLT \t\t\t\n      ISZERO \t\t\t\n      PUSH [tag] 218\t\t\t\n      JUMPI \t\t\t\n      PUSH [tag] 219\t\t\t\n      PUSH [tag] 80\t\t\t\n      JUMP \t\t\t\n    tag 219\t\t\t\n      JUMPDEST \t\t\t\n    tag 218\t\t\t\n      JUMPDEST \t\t\t\n      PUSH 0\t\t\t\n      PUSH [tag] 220\t\t\t\n      DUP6 \t\t\t\n      DUP3 \t\t\t\n      DUP7 \t\t\t\n      ADD \t\t\t\n      PUSH [tag] 107\t\t\t\n      JUMP \t\t\t\n    tag 220\t\t\t\n      JUMPDEST \t\t\t\n      SWAP3 \t\t\t\n      POP \t\t\t\n      POP \t\t\t\n      PUSH 20\t\t\t\n      PUSH [tag] 221\t\t\t\n      DUP6 \t\t\t\n      DUP3 \t\t\t\n      DUP7 \t\t\t\n      ADD \t\t\t\n      PUSH [tag] 107\t\t\t\n      JUMP \t\t\t\n    tag 221\t\t\t\n      JUMPDEST \t\t\t\n      SWAP2 \t\t\t\n      POP \t\t\t\n      POP \t\t\t\n      SWAP3 \t\t\t\n      POP \t\t\t\n      SWAP3 \t\t\t\n      SWAP1 \t\t\t\n      POP \t\t\t\n      JUMP \t\t\t\n    tag 108\t\t\t\n      JUMPDEST \t\t\t\n      PUSH [tag] 223\t\t\t\n      DUP2 \t\t\t\n      PUSH [tag] 105\t\t\t\n      JUMP \t\t\t\n    tag 223\t\t\t\n      JUMPDEST \t\t\t\n      DUP3 \t\t\t\n      MSTORE \t\t\t\n      POP \t\t\t\n      POP \t\t\t\n      JUMP \t\t\t\n    tag 28\t\t\t\n      JUMPDEST \t\t\t\n      PUSH 0\t\t\t\n      PUSH 20\t\t\t\n      DUP3 \t\t\t\n      ADD \t\t\t\n      SWAP1 \t\t\t\n      POP \t\t\t\n      PUSH [tag] 225\t\t\t\n      PUSH 0\t\t\t\n      DUP4 \t\t\t\n      ADD \t\t\t\n      DUP5 \t\t\t\n      PUSH [tag] 108\t\t\t\n      JUMP \t\t\t\n    tag 225\t\t\t\n      JUMPDEST \t\t\t\n      SWAP3 \t\t\t\n      SWAP2 \t\t\t\n      POP \t\t\t\n      POP \t\t\t\n      JUMP \t\t\t\n    tag 109\t\t\t\n      JUMPDEST \t\t\t\n      PUSH 0\t\t\t\n      DUP3 \t\t\t\n      DUP3 \t\t\t\n      MSTORE \t\t\t\n      PUSH 20\t\t\t\n      DUP3 \t\t\t\n      ADD \t\t\t\n      SWAP1 \t\t\t\n      POP \t\t\t\n      SWAP3 \t\t\t\n      SWAP2 \t\t\t\n      POP \t\t\t\n      POP \t\t\t\n      JUMP \t\t\t\n    tag 110\t\t\t\n      JUMPDEST \t\t\t\n      PUSH 496E73756666696369656E742062616C616E6365000000000000000000000000\t\t\t\n      PUSH 0\t\t\t\n      DUP3 \t\t\t\n      ADD \t\t\t\n      MSTORE \t\t\t\n      POP \t\t\t\n      JUMP \t\t\t\n    tag 111\t\t\t\n      JUMPDEST \t\t\t\n      PUSH 0\t\t\t\n      PUSH [tag] 229\t\t\t\n      PUSH 14\t\t\t\n      DUP4 \t\t\t\n      PUSH [tag] 109\t\t\t\n      JUMP \t\t\t\n    tag 229\t\t\t\n      JUMPDEST \t\t\t\n      SWAP2 \t\t\t\n      POP \t\t\t\n      PUSH [tag] 230\t\t\t\n      DUP3 \t\t\t\n      PUSH [tag] 110\t\t\t\n      JUMP \t\t\t\n    tag 230\t\t\t\n      JUMPDEST \t\t\t\n      PUSH 20\t\t\t\n      DUP3 \t\t\t\n      ADD \t\t\t\n      SWAP1 \t\t\t\n      POP \t\t\t\n      SWAP2 \t\t\t\n      SWAP1 \t\t\t\n      POP \t\t\t\n      JUMP \t\t\t\n    tag 37\t\t\t\n      JUMPDEST \t\t\t\n      PUSH 0\t\t\t\n      PUSH 20\t\t\t\n      DUP3 \t\t\t\n      ADD \t\t\t\n      SWAP1 \t\t\t\n      POP \t\t\t\n      DUP2 \t\t\t\n      DUP2 \t\t\t\n      SUB \t\t\t\n      PUSH 0\t\t\t\n      DUP4 \t\t\t\n      ADD \t\t\t\n      MSTORE \t\t\t\n      PUSH [tag] 232\t\t\t\n      DUP2 \t\t\t\n      PUSH [tag] 111\t\t\t\n      JUMP \t\t\t\n    tag 232\t\t\t\n      JUMPDEST \t\t\t\n      SWAP1 \t\t\t\n      POP \t\t\t\n      SWAP2 \t\t\t\n      SWAP1 \t\t\t\n      POP \t\t\t\n      JUMP \t\t\t\n    tag 112\t\t\t\n      JUMPDEST \t\t\t\n      PUSH 5472616E73666572206661696C65640000000000000000000000000000000000\t\t\t\n      PUSH 0\t\t\t\n      DUP3 \t\t\t\n      ADD \t\t\t\n      MSTORE \t\t\t\n      POP \t\t\t\n      JUMP \t\t\t\n    tag 113\t\t\t\n      JUMPDEST \t\t\t\n      PUSH 0\t\t\t\n      PUSH [tag] 235\t\t\t\n      PUSH F\t\t\t\n      DUP4 \t\t\t\n      PUSH [tag] 109\t\t\t\n      JUMP \t\t\t\n    tag 235\t\t\t\n      JUMPDEST \t\t\t\n      SWAP2 \t\t\t\n      POP \t\t\t\n      PUSH [tag] 236\t\t\t\n      DUP3 \t\t\t\n      PUSH [tag] 112\t\t\t\n      JUMP \t\t\t\n    tag 236\t\t\t\n      JUMPDEST \t\t\t\n      PUSH 20\t\t\t\n      DUP3 \t\t\t\n      ADD \t\t\t\n      SWAP1 \t\t\t\n      POP \t\t\t\n      SWAP2 \t\t\t\n      SWAP1 \t\t\t\n      POP \t\t\t\n      JUMP \t\t\t\n    tag 42\t\t\t\n      JUMPDEST \t\t\t\n      PUSH 0\t\t\t\n      PUSH 20\t\t\t\n      DUP3 \t\t\t\n      ADD \t\t\t\n      SWAP1 \t\t\t\n      POP \t\t\t\n      DUP2 \t\t\t\n      DUP2 \t\t\t\n      SUB \t\t\t\n      PUSH 0\t\t\t\n      DUP4 \t\t\t\n      ADD \t\t\t\n      MSTORE \t\t\t\n      PUSH [tag] 238\t\t\t\n      DUP2 \t\t\t\n      PUSH [tag] 113\t\t\t\n      JUMP \t\t\t\n    tag 238\t\t\t\n      JUMPDEST \t\t\t\n      SWAP1 \t\t\t\n      POP \t\t\t\n      SWAP2 \t\t\t\n      SWAP1 \t\t\t\n      POP \t\t\t\n      JUMP \t\t\t\n    tag 114\t\t\t\n      JUMPDEST \t\t\t\n      PUSH 55736572206E6F7420456C696769626C65210000000000000000000000000000\t\t\t\n      PUSH 0\t\t\t\n      DUP3 \t\t\t\n      ADD \t\t\t\n      MSTORE \t\t\t\n      POP \t\t\t\n      JUMP \t\t\t\n    tag 115\t\t\t\n      JUMPDEST \t\t\t\n      PUSH 0\t\t\t\n      PUSH [tag] 241\t\t\t\n      PUSH 12\t\t\t\n      DUP4 \t\t\t\n      PUSH [tag] 109\t\t\t\n      JUMP \t\t\t\n    tag 241\t\t\t\n      JUMPDEST \t\t\t\n      SWAP2 \t\t\t\n      POP \t\t\t\n      PUSH [tag] 242\t\t\t\n      DUP3 \t\t\t\n      PUSH [tag] 114\t\t\t\n      JUMP \t\t\t\n    tag 242\t\t\t\n      JUMPDEST \t\t\t\n      PUSH 20\t\t\t\n      DUP3 \t\t\t\n      ADD \t\t\t\n      SWAP1 \t\t\t\n      POP \t\t\t\n      SWAP2 \t\t\t\n      SWAP1 \t\t\t\n      POP \t\t\t\n      JUMP \t\t\t\n    tag 47\t\t\t\n      JUMPDEST \t\t\t\n      PUSH 0\t\t\t\n      PUSH 20\t\t\t\n      DUP3 \t\t\t\n      ADD \t\t\t\n      SWAP1 \t\t\t\n      POP \t\t\t\n      DUP2 \t\t\t\n      DUP2 \t\t\t\n      SUB \t\t\t\n      PUSH 0\t\t\t\n      DUP4 \t\t\t\n      ADD \t\t\t\n      MSTORE \t\t\t\n      PUSH [tag] 244\t\t\t\n      DUP2 \t\t\t\n      PUSH [tag] 115\t\t\t\n      JUMP \t\t\t\n    tag 244\t\t\t\n      JUMPDEST \t\t\t\n      SWAP1 \t\t\t\n      POP \t\t\t\n      SWAP2 \t\t\t\n      SWAP1 \t\t\t\n      POP \t\t\t\n      JUMP \t\t\t\n    tag 116\t\t\t\n      JUMPDEST \t\t\t\n      PUSH 4E487B7100000000000000000000000000000000000000000000000000000000\t\t\t\n      PUSH 0\t\t\t\n      MSTORE \t\t\t\n      PUSH 11\t\t\t\n      PUSH 4\t\t\t\n      MSTORE \t\t\t\n      PUSH 24\t\t\t\n      PUSH 0\t\t\t\n      REVERT \t\t\t\n    tag 54\t\t\t\n      JUMPDEST \t\t\t\n      PUSH 0\t\t\t\n      PUSH [tag] 247\t\t\t\n      DUP3 \t\t\t\n      PUSH [tag] 77\t\t\t\n      JUMP \t\t\t\n    tag 247\t\t\t\n      JUMPDEST \t\t\t\n      SWAP2 \t\t\t\n      POP \t\t\t\n      PUSH [tag] 248\t\t\t\n      DUP4 \t\t\t\n      PUSH [tag] 77\t\t\t\n      JUMP \t\t\t\n    tag 248\t\t\t\n      JUMPDEST \t\t\t\n      SWAP3 \t\t\t\n      POP \t\t\t\n      DUP3 \t\t\t\n      DUP3 \t\t\t\n      ADD \t\t\t\n      SWAP1 \t\t\t\n      POP \t\t\t\n      DUP1 \t\t\t\n      DUP3 \t\t\t\n      GT \t\t\t\n      ISZERO \t\t\t\n      PUSH [tag] 249\t\t\t\n      JUMPI \t\t\t\n      PUSH [tag] 250\t\t\t\n      PUSH [tag] 116\t\t\t\n      JUMP \t\t\t\n    tag 250\t\t\t\n      JUMPDEST \t\t\t\n    tag 249\t\t\t\n      JUMPDEST \t\t\t\n      SWAP3 \t\t\t\n      SWAP2 \t\t\t\n      POP \t\t\t\n      POP \t\t\t\n      JUMP \t\t\t\n    tag 117\t\t\t\n      JUMPDEST \t\t\t\n      PUSH 0\t\t\t\n      DUP2 \t\t\t\n      SWAP1 \t\t\t\n      POP \t\t\t\n      SWAP2 \t\t\t\n      SWAP1 \t\t\t\n      POP \t\t\t\n      JUMP \t\t\t\n    tag 118\t\t\t\n      JUMPDEST \t\t\t\n      PUSH [tag] 253\t\t\t\n      PUSH [tag] 254\t\t\t\n      DUP3 \t\t\t\n      PUSH [tag] 77\t\t\t\n      JUMP \t\t\t\n    tag 254\t\t\t\n      JUMPDEST \t\t\t\n      PUSH [tag] 117\t\t\t\n      JUMP \t\t\t\n    tag 253\t\t\t\n      JUMPDEST \t\t\t\n      DUP3 \t\t\t\n      MSTORE \t\t\t\n      POP \t\t\t\n      POP \t\t\t\n      JUMP \t\t\t\n    tag 56\t\t\t\n      JUMPDEST \t\t\t\n      PUSH 0\t\t\t\n      PUSH [tag] 256\t\t\t\n      DUP3 \t\t\t\n      DUP5 \t\t\t\n      PUSH [tag] 118\t\t\t\n      JUMP \t\t\t\n    tag 256\t\t\t\n      JUMPDEST \t\t\t\n      PUSH 20\t\t\t\n      DUP3 \t\t\t\n      ADD \t\t\t\n      SWAP2 \t\t\t\n      POP \t\t\t\n      DUP2 \t\t\t\n      SWAP1 \t\t\t\n      POP \t\t\t\n      SWAP3 \t\t\t\n      SWAP2 \t\t\t\n      POP \t\t\t\n      POP \t\t\t\n      JUMP \t\t\t\n    tag 59\t\t\t\n      JUMPDEST \t\t\t\n      PUSH 4E487B7100000000000000000000000000000000000000000000000000000000\t\t\t\n      PUSH 0\t\t\t\n      MSTORE \t\t\t\n      PUSH 32\t\t\t\n      PUSH 4\t\t\t\n      MSTORE \t\t\t\n      PUSH 24\t\t\t\n      PUSH 0\t\t\t\n      REVERT \t\t\t\n    tag 119\t\t\t\n      JUMPDEST \t\t\t\n      PUSH 6E6F7420657175616C0000000000000000000000000000000000000000000000\t\t\t\n      PUSH 0\t\t\t\n      DUP3 \t\t\t\n      ADD \t\t\t\n      MSTORE \t\t\t\n      POP \t\t\t\n      JUMP \t\t\t\n    tag 120\t\t\t\n      JUMPDEST \t\t\t\n      PUSH 0\t\t\t\n      PUSH [tag] 260\t\t\t\n      PUSH 9\t\t\t\n      DUP4 \t\t\t\n      PUSH [tag] 109\t\t\t\n      JUMP \t\t\t\n    tag 260\t\t\t\n      JUMPDEST \t\t\t\n      SWAP2 \t\t\t\n      POP \t\t\t\n      PUSH [tag] 261\t\t\t\n      DUP3 \t\t\t\n      PUSH [tag] 119\t\t\t\n      JUMP \t\t\t\n    tag 261\t\t\t\n      JUMPDEST \t\t\t\n      PUSH 20\t\t\t\n      DUP3 \t\t\t\n      ADD \t\t\t\n      SWAP1 \t\t\t\n      POP \t\t\t\n      SWAP2 \t\t\t\n      SWAP1 \t\t\t\n      POP \t\t\t\n      JUMP \t\t\t\n    tag 63\t\t\t\n      JUMPDEST \t\t\t\n      PUSH 0\t\t\t\n      PUSH 20\t\t\t\n      DUP3 \t\t\t\n      ADD \t\t\t\n      SWAP1 \t\t\t\n      POP \t\t\t\n      DUP2 \t\t\t\n      DUP2 \t\t\t\n      SUB \t\t\t\n      PUSH 0\t\t\t\n      DUP4 \t\t\t\n      ADD \t\t\t\n      MSTORE \t\t\t\n      PUSH [tag] 263\t\t\t\n      DUP2 \t\t\t\n      PUSH [tag] 120\t\t\t\n      JUMP \t\t\t\n    tag 263\t\t\t\n      JUMPDEST \t\t\t\n      SWAP1 \t\t\t\n      POP \t\t\t\n      SWAP2 \t\t\t\n      SWAP1 \t\t\t\n      POP \t\t\t\n      JUMP \t\t\t\n    tag 121\t\t\t\n      JUMPDEST \t\t\t\n      PUSH 0\t\t\t\n      DUP2 \t\t\t\n      MLOAD \t\t\t\n      SWAP1 \t\t\t\n      POP \t\t\t\n      SWAP2 \t\t\t\n      SWAP1 \t\t\t\n      POP \t\t\t\n      JUMP \t\t\t\n    tag 122\t\t\t\n      JUMPDEST \t\t\t\n      PUSH 0\t\t\t\n      DUP2 \t\t\t\n      SWAP1 \t\t\t\n      POP \t\t\t\n      SWAP3 \t\t\t\n      SWAP2 \t\t\t\n      POP \t\t\t\n      POP \t\t\t\n      JUMP \t\t\t\n    tag 123\t\t\t\n      JUMPDEST \t\t\t\n      PUSH 0\t\t\t\n    tag 267\t\t\t\n      JUMPDEST \t\t\t\n      DUP4 \t\t\t\n      DUP2 \t\t\t\n      LT \t\t\t\n      ISZERO \t\t\t\n      PUSH [tag] 269\t\t\t\n      JUMPI \t\t\t\n      DUP1 \t\t\t\n      DUP3 \t\t\t\n      ADD \t\t\t\n      MLOAD \t\t\t\n      DUP2 \t\t\t\n      DUP5 \t\t\t\n      ADD \t\t\t\n      MSTORE \t\t\t\n      PUSH 20\t\t\t\n      DUP2 \t\t\t\n      ADD \t\t\t\n      SWAP1 \t\t\t\n      POP \t\t\t\n      PUSH [tag] 267\t\t\t\n      JUMP \t\t\t\n    tag 269\t\t\t\n      JUMPDEST \t\t\t\n      PUSH 0\t\t\t\n      DUP5 \t\t\t\n      DUP5 \t\t\t\n      ADD \t\t\t\n      MSTORE \t\t\t\n      POP \t\t\t\n      POP \t\t\t\n      POP \t\t\t\n      POP \t\t\t\n      JUMP \t\t\t\n    tag 124\t\t\t\n      JUMPDEST \t\t\t\n      PUSH 0\t\t\t\n      PUSH [tag] 271\t\t\t\n      DUP3 \t\t\t\n      PUSH [tag] 121\t\t\t\n      JUMP \t\t\t\n    tag 271\t\t\t\n      JUMPDEST \t\t\t\n      PUSH [tag] 272\t\t\t\n      DUP2 \t\t\t\n      DUP6 \t\t\t\n      PUSH [tag] 122\t\t\t\n      JUMP \t\t\t\n    tag 272\t\t\t\n      JUMPDEST \t\t\t\n      SWAP4 \t\t\t\n      POP \t\t\t\n      PUSH [tag] 273\t\t\t\n      DUP2 \t\t\t\n      DUP6 \t\t\t\n      PUSH 20\t\t\t\n      DUP7 \t\t\t\n      ADD \t\t\t\n      PUSH [tag] 123\t\t\t\n      JUMP \t\t\t\n    tag 273\t\t\t\n      JUMPDEST \t\t\t\n      DUP1 \t\t\t\n      DUP5 \t\t\t\n      ADD \t\t\t\n      SWAP2 \t\t\t\n      POP \t\t\t\n      POP \t\t\t\n      SWAP3 \t\t\t\n      SWAP2 \t\t\t\n      POP \t\t\t\n      POP \t\t\t\n      JUMP \t\t\t\n    tag 66\t\t\t\n      JUMPDEST \t\t\t\n      PUSH 0\t\t\t\n      PUSH [tag] 275\t\t\t\n      DUP3 \t\t\t\n      DUP5 \t\t\t\n      PUSH [tag] 124\t\t\t\n      JUMP \t\t\t\n    tag 275\t\t\t\n      JUMPDEST \t\t\t\n      SWAP2 \t\t\t\n      POP \t\t\t\n      DUP2 \t\t\t\n      SWAP1 \t\t\t\n      POP \t\t\t\n      SWAP3 \t\t\t\n      SWAP2 \t\t\t\n      POP \t\t\t\n      POP \t\t\t\n      JUMP \t\t\t\n    tag 125\t\t\t\n      JUMPDEST \t\t\t\n      PUSH 55736572206E6F7420417574686F72697A656421000000000000000000000000\t\t\t\n      PUSH 0\t\t\t\n      DUP3 \t\t\t\n      ADD \t\t\t\n      MSTORE \t\t\t\n      POP \t\t\t\n      JUMP \t\t\t\n    tag 126\t\t\t\n      JUMPDEST \t\t\t\n      PUSH 0\t\t\t\n      PUSH [tag] 278\t\t\t\n      PUSH 14\t\t\t\n      DUP4 \t\t\t\n      PUSH [tag] 109\t\t\t\n      JUMP \t\t\t\n    tag 278\t\t\t\n      JUMPDEST \t\t\t\n      SWAP2 \t\t\t\n      POP \t\t\t\n      PUSH [tag] 279\t\t\t\n      DUP3 \t\t\t\n      PUSH [tag] 125\t\t\t\n      JUMP \t\t\t\n    tag 279\t\t\t\n      JUMPDEST \t\t\t\n      PUSH 20\t\t\t\n      DUP3 \t\t\t\n      ADD \t\t\t\n      SWAP1 \t\t\t\n      POP \t\t\t\n      SWAP2 \t\t\t\n      SWAP1 \t\t\t\n      POP \t\t\t\n      JUMP \t\t\t\n    tag 69\t\t\t\n      JUMPDEST \t\t\t\n      PUSH 0\t\t\t\n      PUSH 20\t\t\t\n      DUP3 \t\t\t\n      ADD \t\t\t\n      SWAP1 \t\t\t\n      POP \t\t\t\n      DUP2 \t\t\t\n      DUP2 \t\t\t\n      SUB \t\t\t\n      PUSH 0\t\t\t\n      DUP4 \t\t\t\n      ADD \t\t\t\n      MSTORE \t\t\t\n      PUSH [tag] 281\t\t\t\n      DUP2 \t\t\t\n      PUSH [tag] 126\t\t\t\n      JUMP \t\t\t\n    tag 281\t\t\t\n      JUMPDEST \t\t\t\n      SWAP1 \t\t\t\n      POP \t\t\t\n      SWAP2 \t\t\t\n      SWAP1 \t\t\t\n      POP \t\t\t\n      JUMP \t\t\t\n    .data\n"
}