{
	"compilerInput": "{\"language\":\"Solidity\",\"sources\":{\"users.sol\":{\"content\":\"// SPDX-License-Identifier: GPL-3.0\\r\\npragma solidity >=0.4.20 <0.9.0;\\r\\n\\r\\ncontract cryptoDoreaUsers {\\r\\n\\r\\n    mapping(address=>bool) private _paymentStatus;\\r\\n    mapping(address=>uint256) private _paymentAmount;\\r\\n    mapping(address=>uint256) private _paymentDate;\\r\\n    uint256 private _expDate;\\r\\n    uint256[] private _userStatus;\\r\\n\\r\\n    constructor()  {\\r\\n\\r\\n    }\\r\\n\\r\\n    /**\\r\\n    *\\r\\n    */\\r\\n    function paymentCheck(address usersAddress, uint256 _amount, string memory planType) public{\\r\\n\\r\\n        bool payCheck = _paymentStatus[usersAddress];\\r\\n\\r\\n        if(payCheck != true){\\r\\n\\r\\n            _paymentStatus[usersAddress] = true;\\r\\n            _paymentAmount[usersAddress] = _amount;\\r\\n\\r\\n            if(keccak256(bytes(planType)) == keccak256(bytes(\\\"Monthly\\\"))){\\r\\n                _expDate = (30 * 86400);\\r\\n            }else if(keccak256(bytes(planType)) == keccak256(bytes(\\\"halfYearly\\\"))){\\r\\n                _expDate = (180 * 86400);\\r\\n            }else if(keccak256(bytes(planType)) == keccak256(bytes(\\\"Yearly\\\"))){\\r\\n                _expDate = (365 * 86400);\\r\\n            }\\r\\n\\r\\n            _paymentDate[usersAddress]   = block.timestamp + _expDate;\\r\\n\\r\\n        }else{\\r\\n            revert(\\\"user is already paid!\\\");\\r\\n        }\\r\\n\\r\\n    }\\r\\n\\r\\n    function userCheckStatus(address _receipent) public view returns (uint256[3] memory){\\r\\n        \\r\\n        uint256 paymentStatus = _paymentStatus[_receipent] ? 1 : 0;\\r\\n\\r\\n        return  [paymentStatus,_paymentAmount[_receipent], _paymentDate[_receipent]];\\r\\n\\r\\n    }\\r\\n\\r\\n\\r\\n    // Transfer Ether to Loyal Customers\\r\\n    function pay(address _receipent, string memory _planType) public payable{\\r\\n\\r\\n        // add function to check if user is paid or not\\r\\n        require(msg.value > 0, \\\"You must send some Ether\\\");\\r\\n        paymentCheck(_receipent, msg.value, _planType);\\r\\n\\r\\n    }\\r\\n\\r\\n    \\r\\n    // get balance of contract address\\r\\n    function getBalance() public view returns(uint256){\\r\\n        return address(this).balance;\\r\\n    }\\r\\n\\r\\n}\"}},\"settings\":{\"optimizer\":{\"enabled\":false,\"runs\":200},\"outputSelection\":{\"*\":{\"\":[\"ast\"],\"*\":[\"abi\",\"metadata\",\"devdoc\",\"userdoc\",\"storageLayout\",\"evm.legacyAssembly\",\"evm.bytecode\",\"evm.deployedBytecode\",\"evm.methodIdentifiers\",\"evm.gasEstimates\",\"evm.assembly\"]}},\"remappings\":[]}}",
	"name": "cryptoDoreaUsers",
	"bytecode": {
		"linkReferences": {},
		"object": "608060405234801561000f575f80fd5b50610a1b8061001d5f395ff3fe60806040526004361061003e575f3560e01c806312065fe01461004257806344c7c1171461006c578063669b680c14610094578063fb4da5b7146100d0575b5f80fd5b34801561004d575f80fd5b506100566100ec565b604051610063919061050c565b60405180910390f35b348015610077575f80fd5b50610092600480360381019061008d91906106f6565b6100f3565b005b34801561009f575f80fd5b506100ba60048036038101906100b59190610762565b610380565b6040516100c79190610832565b60405180910390f35b6100ea60048036038101906100e5919061084b565b610481565b005b5f47905090565b5f805f8573ffffffffffffffffffffffffffffffffffffffff1673ffffffffffffffffffffffffffffffffffffffff1681526020019081526020015f205f9054906101000a900460ff169050600115158115151461033f5760015f808673ffffffffffffffffffffffffffffffffffffffff1673ffffffffffffffffffffffffffffffffffffffff1681526020019081526020015f205f6101000a81548160ff0219169083151502179055508260015f8673ffffffffffffffffffffffffffffffffffffffff1673ffffffffffffffffffffffffffffffffffffffff1681526020019081526020015f20819055506040518060400160405280600781526020017f4d6f6e74686c79000000000000000000000000000000000000000000000000008152508051906020012082805190602001200361023a5762278d006003819055506102eb565b6040518060400160405280600a81526020017f68616c66596561726c7900000000000000000000000000000000000000000000815250805190602001208280519060200120036102935762ed4e006003819055506102ea565b6040518060400160405280600681526020017f596561726c790000000000000000000000000000000000000000000000000000815250805190602001208280519060200120036102e9576301e133806003819055505b5b5b600354426102f991906108d2565b60025f8673ffffffffffffffffffffffffffffffffffffffff1673ffffffffffffffffffffffffffffffffffffffff1681526020019081526020015f208190555061037a565b6040517f08c379a00000000000000000000000000000000000000000000000000000000081526004016103719061095f565b60405180910390fd5b50505050565b6103886104d2565b5f805f8473ffffffffffffffffffffffffffffffffffffffff1673ffffffffffffffffffffffffffffffffffffffff1681526020019081526020015f205f9054906101000a900460ff166103dc575f6103df565b60015b60ff169050604051806060016040528082815260200160015f8673ffffffffffffffffffffffffffffffffffffffff1673ffffffffffffffffffffffffffffffffffffffff1681526020019081526020015f2054815260200160025f8673ffffffffffffffffffffffffffffffffffffffff1673ffffffffffffffffffffffffffffffffffffffff1681526020019081526020015f2054815250915050919050565b5f34116104c3576040517f08c379a00000000000000000000000000000000000000000000000000000000081526004016104ba906109c7565b60405180910390fd5b6104ce8234836100f3565b5050565b6040518060600160405280600390602082028036833780820191505090505090565b5f819050919050565b610506816104f4565b82525050565b5f60208201905061051f5f8301846104fd565b92915050565b5f604051905090565b5f80fd5b5f80fd5b5f73ffffffffffffffffffffffffffffffffffffffff82169050919050565b5f61055f82610536565b9050919050565b61056f81610555565b8114610579575f80fd5b50565b5f8135905061058a81610566565b92915050565b610599816104f4565b81146105a3575f80fd5b50565b5f813590506105b481610590565b92915050565b5f80fd5b5f80fd5b5f601f19601f8301169050919050565b7f4e487b71000000000000000000000000000000000000000000000000000000005f52604160045260245ffd5b610608826105c2565b810181811067ffffffffffffffff82111715610627576106266105d2565b5b80604052505050565b5f610639610525565b905061064582826105ff565b919050565b5f67ffffffffffffffff821115610664576106636105d2565b5b61066d826105c2565b9050602081019050919050565b828183375f83830152505050565b5f61069a6106958461064a565b610630565b9050828152602081018484840111156106b6576106b56105be565b5b6106c184828561067a565b509392505050565b5f82601f8301126106dd576106dc6105ba565b5b81356106ed848260208601610688565b91505092915050565b5f805f6060848603121561070d5761070c61052e565b5b5f61071a8682870161057c565b935050602061072b868287016105a6565b925050604084013567ffffffffffffffff81111561074c5761074b610532565b5b610758868287016106c9565b9150509250925092565b5f602082840312156107775761077661052e565b5b5f6107848482850161057c565b91505092915050565b5f60039050919050565b5f81905092915050565b5f819050919050565b6107b3816104f4565b82525050565b5f6107c483836107aa565b60208301905092915050565b5f602082019050919050565b6107e58161078d565b6107ef8184610797565b92506107fa826107a1565b805f5b8381101561082a57815161081187826107b9565b965061081c836107d0565b9250506001810190506107fd565b505050505050565b5f6060820190506108455f8301846107dc565b92915050565b5f80604083850312156108615761086061052e565b5b5f61086e8582860161057c565b925050602083013567ffffffffffffffff81111561088f5761088e610532565b5b61089b858286016106c9565b9150509250929050565b7f4e487b71000000000000000000000000000000000000000000000000000000005f52601160045260245ffd5b5f6108dc826104f4565b91506108e7836104f4565b92508282019050808211156108ff576108fe6108a5565b5b92915050565b5f82825260208201905092915050565b7f7573657220697320616c726561647920706169642100000000000000000000005f82015250565b5f610949601583610905565b915061095482610915565b602082019050919050565b5f6020820190508181035f8301526109768161093d565b9050919050565b7f596f75206d7573742073656e6420736f6d6520457468657200000000000000005f82015250565b5f6109b1601883610905565b91506109bc8261097d565b602082019050919050565b5f6020820190508181035f8301526109de816109a5565b905091905056fea2646970667358221220143328c0f7ed2d59b437737d3eb549ab6053589372f596f6ee45573510adaa1b64736f6c63430008160033",
		"opcodes": "PUSH1 0x80 PUSH1 0x40 MSTORE CALLVALUE DUP1 ISZERO PUSH2 0xF JUMPI PUSH0 DUP1 REVERT JUMPDEST POP PUSH2 0xA1B DUP1 PUSH2 0x1D PUSH0 CODECOPY PUSH0 RETURN INVALID PUSH1 0x80 PUSH1 0x40 MSTORE PUSH1 0x4 CALLDATASIZE LT PUSH2 0x3E JUMPI PUSH0 CALLDATALOAD PUSH1 0xE0 SHR DUP1 PUSH4 0x12065FE0 EQ PUSH2 0x42 JUMPI DUP1 PUSH4 0x44C7C117 EQ PUSH2 0x6C JUMPI DUP1 PUSH4 0x669B680C EQ PUSH2 0x94 JUMPI DUP1 PUSH4 0xFB4DA5B7 EQ PUSH2 0xD0 JUMPI JUMPDEST PUSH0 DUP1 REVERT JUMPDEST CALLVALUE DUP1 ISZERO PUSH2 0x4D JUMPI PUSH0 DUP1 REVERT JUMPDEST POP PUSH2 0x56 PUSH2 0xEC JUMP JUMPDEST PUSH1 0x40 MLOAD PUSH2 0x63 SWAP2 SWAP1 PUSH2 0x50C JUMP JUMPDEST PUSH1 0x40 MLOAD DUP1 SWAP2 SUB SWAP1 RETURN JUMPDEST CALLVALUE DUP1 ISZERO PUSH2 0x77 JUMPI PUSH0 DUP1 REVERT JUMPDEST POP PUSH2 0x92 PUSH1 0x4 DUP1 CALLDATASIZE SUB DUP2 ADD SWAP1 PUSH2 0x8D SWAP2 SWAP1 PUSH2 0x6F6 JUMP JUMPDEST PUSH2 0xF3 JUMP JUMPDEST STOP JUMPDEST CALLVALUE DUP1 ISZERO PUSH2 0x9F JUMPI PUSH0 DUP1 REVERT JUMPDEST POP PUSH2 0xBA PUSH1 0x4 DUP1 CALLDATASIZE SUB DUP2 ADD SWAP1 PUSH2 0xB5 SWAP2 SWAP1 PUSH2 0x762 JUMP JUMPDEST PUSH2 0x380 JUMP JUMPDEST PUSH1 0x40 MLOAD PUSH2 0xC7 SWAP2 SWAP1 PUSH2 0x832 JUMP JUMPDEST PUSH1 0x40 MLOAD DUP1 SWAP2 SUB SWAP1 RETURN JUMPDEST PUSH2 0xEA PUSH1 0x4 DUP1 CALLDATASIZE SUB DUP2 ADD SWAP1 PUSH2 0xE5 SWAP2 SWAP1 PUSH2 0x84B JUMP JUMPDEST PUSH2 0x481 JUMP JUMPDEST STOP JUMPDEST PUSH0 SELFBALANCE SWAP1 POP SWAP1 JUMP JUMPDEST PUSH0 DUP1 PUSH0 DUP6 PUSH20 0xFFFFFFFFFFFFFFFFFFFFFFFFFFFFFFFFFFFFFFFF AND PUSH20 0xFFFFFFFFFFFFFFFFFFFFFFFFFFFFFFFFFFFFFFFF AND DUP2 MSTORE PUSH1 0x20 ADD SWAP1 DUP2 MSTORE PUSH1 0x20 ADD PUSH0 KECCAK256 PUSH0 SWAP1 SLOAD SWAP1 PUSH2 0x100 EXP SWAP1 DIV PUSH1 0xFF AND SWAP1 POP PUSH1 0x1 ISZERO ISZERO DUP2 ISZERO ISZERO EQ PUSH2 0x33F JUMPI PUSH1 0x1 PUSH0 DUP1 DUP7 PUSH20 0xFFFFFFFFFFFFFFFFFFFFFFFFFFFFFFFFFFFFFFFF AND PUSH20 0xFFFFFFFFFFFFFFFFFFFFFFFFFFFFFFFFFFFFFFFF AND DUP2 MSTORE PUSH1 0x20 ADD SWAP1 DUP2 MSTORE PUSH1 0x20 ADD PUSH0 KECCAK256 PUSH0 PUSH2 0x100 EXP DUP2 SLOAD DUP2 PUSH1 0xFF MUL NOT AND SWAP1 DUP4 ISZERO ISZERO MUL OR SWAP1 SSTORE POP DUP3 PUSH1 0x1 PUSH0 DUP7 PUSH20 0xFFFFFFFFFFFFFFFFFFFFFFFFFFFFFFFFFFFFFFFF AND PUSH20 0xFFFFFFFFFFFFFFFFFFFFFFFFFFFFFFFFFFFFFFFF AND DUP2 MSTORE PUSH1 0x20 ADD SWAP1 DUP2 MSTORE PUSH1 0x20 ADD PUSH0 KECCAK256 DUP2 SWAP1 SSTORE POP PUSH1 0x40 MLOAD DUP1 PUSH1 0x40 ADD PUSH1 0x40 MSTORE DUP1 PUSH1 0x7 DUP2 MSTORE PUSH1 0x20 ADD PUSH32 0x4D6F6E74686C7900000000000000000000000000000000000000000000000000 DUP2 MSTORE POP DUP1 MLOAD SWAP1 PUSH1 0x20 ADD KECCAK256 DUP3 DUP1 MLOAD SWAP1 PUSH1 0x20 ADD KECCAK256 SUB PUSH2 0x23A JUMPI PUSH3 0x278D00 PUSH1 0x3 DUP2 SWAP1 SSTORE POP PUSH2 0x2EB JUMP JUMPDEST PUSH1 0x40 MLOAD DUP1 PUSH1 0x40 ADD PUSH1 0x40 MSTORE DUP1 PUSH1 0xA DUP2 MSTORE PUSH1 0x20 ADD PUSH32 0x68616C66596561726C7900000000000000000000000000000000000000000000 DUP2 MSTORE POP DUP1 MLOAD SWAP1 PUSH1 0x20 ADD KECCAK256 DUP3 DUP1 MLOAD SWAP1 PUSH1 0x20 ADD KECCAK256 SUB PUSH2 0x293 JUMPI PUSH3 0xED4E00 PUSH1 0x3 DUP2 SWAP1 SSTORE POP PUSH2 0x2EA JUMP JUMPDEST PUSH1 0x40 MLOAD DUP1 PUSH1 0x40 ADD PUSH1 0x40 MSTORE DUP1 PUSH1 0x6 DUP2 MSTORE PUSH1 0x20 ADD PUSH32 0x596561726C790000000000000000000000000000000000000000000000000000 DUP2 MSTORE POP DUP1 MLOAD SWAP1 PUSH1 0x20 ADD KECCAK256 DUP3 DUP1 MLOAD SWAP1 PUSH1 0x20 ADD KECCAK256 SUB PUSH2 0x2E9 JUMPI PUSH4 0x1E13380 PUSH1 0x3 DUP2 SWAP1 SSTORE POP JUMPDEST JUMPDEST JUMPDEST PUSH1 0x3 SLOAD TIMESTAMP PUSH2 0x2F9 SWAP2 SWAP1 PUSH2 0x8D2 JUMP JUMPDEST PUSH1 0x2 PUSH0 DUP7 PUSH20 0xFFFFFFFFFFFFFFFFFFFFFFFFFFFFFFFFFFFFFFFF AND PUSH20 0xFFFFFFFFFFFFFFFFFFFFFFFFFFFFFFFFFFFFFFFF AND DUP2 MSTORE PUSH1 0x20 ADD SWAP1 DUP2 MSTORE PUSH1 0x20 ADD PUSH0 KECCAK256 DUP2 SWAP1 SSTORE POP PUSH2 0x37A JUMP JUMPDEST PUSH1 0x40 MLOAD PUSH32 0x8C379A000000000000000000000000000000000000000000000000000000000 DUP2 MSTORE PUSH1 0x4 ADD PUSH2 0x371 SWAP1 PUSH2 0x95F JUMP JUMPDEST PUSH1 0x40 MLOAD DUP1 SWAP2 SUB SWAP1 REVERT JUMPDEST POP POP POP POP JUMP JUMPDEST PUSH2 0x388 PUSH2 0x4D2 JUMP JUMPDEST PUSH0 DUP1 PUSH0 DUP5 PUSH20 0xFFFFFFFFFFFFFFFFFFFFFFFFFFFFFFFFFFFFFFFF AND PUSH20 0xFFFFFFFFFFFFFFFFFFFFFFFFFFFFFFFFFFFFFFFF AND DUP2 MSTORE PUSH1 0x20 ADD SWAP1 DUP2 MSTORE PUSH1 0x20 ADD PUSH0 KECCAK256 PUSH0 SWAP1 SLOAD SWAP1 PUSH2 0x100 EXP SWAP1 DIV PUSH1 0xFF AND PUSH2 0x3DC JUMPI PUSH0 PUSH2 0x3DF JUMP JUMPDEST PUSH1 0x1 JUMPDEST PUSH1 0xFF AND SWAP1 POP PUSH1 0x40 MLOAD DUP1 PUSH1 0x60 ADD PUSH1 0x40 MSTORE DUP1 DUP3 DUP2 MSTORE PUSH1 0x20 ADD PUSH1 0x1 PUSH0 DUP7 PUSH20 0xFFFFFFFFFFFFFFFFFFFFFFFFFFFFFFFFFFFFFFFF AND PUSH20 0xFFFFFFFFFFFFFFFFFFFFFFFFFFFFFFFFFFFFFFFF AND DUP2 MSTORE PUSH1 0x20 ADD SWAP1 DUP2 MSTORE PUSH1 0x20 ADD PUSH0 KECCAK256 SLOAD DUP2 MSTORE PUSH1 0x20 ADD PUSH1 0x2 PUSH0 DUP7 PUSH20 0xFFFFFFFFFFFFFFFFFFFFFFFFFFFFFFFFFFFFFFFF AND PUSH20 0xFFFFFFFFFFFFFFFFFFFFFFFFFFFFFFFFFFFFFFFF AND DUP2 MSTORE PUSH1 0x20 ADD SWAP1 DUP2 MSTORE PUSH1 0x20 ADD PUSH0 KECCAK256 SLOAD DUP2 MSTORE POP SWAP2 POP POP SWAP2 SWAP1 POP JUMP JUMPDEST PUSH0 CALLVALUE GT PUSH2 0x4C3 JUMPI PUSH1 0x40 MLOAD PUSH32 0x8C379A000000000000000000000000000000000000000000000000000000000 DUP2 MSTORE PUSH1 0x4 ADD PUSH2 0x4BA SWAP1 PUSH2 0x9C7 JUMP JUMPDEST PUSH1 0x40 MLOAD DUP1 SWAP2 SUB SWAP1 REVERT JUMPDEST PUSH2 0x4CE DUP3 CALLVALUE DUP4 PUSH2 0xF3 JUMP JUMPDEST POP POP JUMP JUMPDEST PUSH1 0x40 MLOAD DUP1 PUSH1 0x60 ADD PUSH1 0x40 MSTORE DUP1 PUSH1 0x3 SWAP1 PUSH1 0x20 DUP3 MUL DUP1 CALLDATASIZE DUP4 CALLDATACOPY DUP1 DUP3 ADD SWAP2 POP POP SWAP1 POP POP SWAP1 JUMP JUMPDEST PUSH0 DUP2 SWAP1 POP SWAP2 SWAP1 POP JUMP JUMPDEST PUSH2 0x506 DUP2 PUSH2 0x4F4 JUMP JUMPDEST DUP3 MSTORE POP POP JUMP JUMPDEST PUSH0 PUSH1 0x20 DUP3 ADD SWAP1 POP PUSH2 0x51F PUSH0 DUP4 ADD DUP5 PUSH2 0x4FD JUMP JUMPDEST SWAP3 SWAP2 POP POP JUMP JUMPDEST PUSH0 PUSH1 0x40 MLOAD SWAP1 POP SWAP1 JUMP JUMPDEST PUSH0 DUP1 REVERT JUMPDEST PUSH0 DUP1 REVERT JUMPDEST PUSH0 PUSH20 0xFFFFFFFFFFFFFFFFFFFFFFFFFFFFFFFFFFFFFFFF DUP3 AND SWAP1 POP SWAP2 SWAP1 POP JUMP JUMPDEST PUSH0 PUSH2 0x55F DUP3 PUSH2 0x536 JUMP JUMPDEST SWAP1 POP SWAP2 SWAP1 POP JUMP JUMPDEST PUSH2 0x56F DUP2 PUSH2 0x555 JUMP JUMPDEST DUP2 EQ PUSH2 0x579 JUMPI PUSH0 DUP1 REVERT JUMPDEST POP JUMP JUMPDEST PUSH0 DUP2 CALLDATALOAD SWAP1 POP PUSH2 0x58A DUP2 PUSH2 0x566 JUMP JUMPDEST SWAP3 SWAP2 POP POP JUMP JUMPDEST PUSH2 0x599 DUP2 PUSH2 0x4F4 JUMP JUMPDEST DUP2 EQ PUSH2 0x5A3 JUMPI PUSH0 DUP1 REVERT JUMPDEST POP JUMP JUMPDEST PUSH0 DUP2 CALLDATALOAD SWAP1 POP PUSH2 0x5B4 DUP2 PUSH2 0x590 JUMP JUMPDEST SWAP3 SWAP2 POP POP JUMP JUMPDEST PUSH0 DUP1 REVERT JUMPDEST PUSH0 DUP1 REVERT JUMPDEST PUSH0 PUSH1 0x1F NOT PUSH1 0x1F DUP4 ADD AND SWAP1 POP SWAP2 SWAP1 POP JUMP JUMPDEST PUSH32 0x4E487B7100000000000000000000000000000000000000000000000000000000 PUSH0 MSTORE PUSH1 0x41 PUSH1 0x4 MSTORE PUSH1 0x24 PUSH0 REVERT JUMPDEST PUSH2 0x608 DUP3 PUSH2 0x5C2 JUMP JUMPDEST DUP2 ADD DUP2 DUP2 LT PUSH8 0xFFFFFFFFFFFFFFFF DUP3 GT OR ISZERO PUSH2 0x627 JUMPI PUSH2 0x626 PUSH2 0x5D2 JUMP JUMPDEST JUMPDEST DUP1 PUSH1 0x40 MSTORE POP POP POP JUMP JUMPDEST PUSH0 PUSH2 0x639 PUSH2 0x525 JUMP JUMPDEST SWAP1 POP PUSH2 0x645 DUP3 DUP3 PUSH2 0x5FF JUMP JUMPDEST SWAP2 SWAP1 POP JUMP JUMPDEST PUSH0 PUSH8 0xFFFFFFFFFFFFFFFF DUP3 GT ISZERO PUSH2 0x664 JUMPI PUSH2 0x663 PUSH2 0x5D2 JUMP JUMPDEST JUMPDEST PUSH2 0x66D DUP3 PUSH2 0x5C2 JUMP JUMPDEST SWAP1 POP PUSH1 0x20 DUP2 ADD SWAP1 POP SWAP2 SWAP1 POP JUMP JUMPDEST DUP3 DUP2 DUP4 CALLDATACOPY PUSH0 DUP4 DUP4 ADD MSTORE POP POP POP JUMP JUMPDEST PUSH0 PUSH2 0x69A PUSH2 0x695 DUP5 PUSH2 0x64A JUMP JUMPDEST PUSH2 0x630 JUMP JUMPDEST SWAP1 POP DUP3 DUP2 MSTORE PUSH1 0x20 DUP2 ADD DUP5 DUP5 DUP5 ADD GT ISZERO PUSH2 0x6B6 JUMPI PUSH2 0x6B5 PUSH2 0x5BE JUMP JUMPDEST JUMPDEST PUSH2 0x6C1 DUP5 DUP3 DUP6 PUSH2 0x67A JUMP JUMPDEST POP SWAP4 SWAP3 POP POP POP JUMP JUMPDEST PUSH0 DUP3 PUSH1 0x1F DUP4 ADD SLT PUSH2 0x6DD JUMPI PUSH2 0x6DC PUSH2 0x5BA JUMP JUMPDEST JUMPDEST DUP2 CALLDATALOAD PUSH2 0x6ED DUP5 DUP3 PUSH1 0x20 DUP7 ADD PUSH2 0x688 JUMP JUMPDEST SWAP2 POP POP SWAP3 SWAP2 POP POP JUMP JUMPDEST PUSH0 DUP1 PUSH0 PUSH1 0x60 DUP5 DUP7 SUB SLT ISZERO PUSH2 0x70D JUMPI PUSH2 0x70C PUSH2 0x52E JUMP JUMPDEST JUMPDEST PUSH0 PUSH2 0x71A DUP7 DUP3 DUP8 ADD PUSH2 0x57C JUMP JUMPDEST SWAP4 POP POP PUSH1 0x20 PUSH2 0x72B DUP7 DUP3 DUP8 ADD PUSH2 0x5A6 JUMP JUMPDEST SWAP3 POP POP PUSH1 0x40 DUP5 ADD CALLDATALOAD PUSH8 0xFFFFFFFFFFFFFFFF DUP2 GT ISZERO PUSH2 0x74C JUMPI PUSH2 0x74B PUSH2 0x532 JUMP JUMPDEST JUMPDEST PUSH2 0x758 DUP7 DUP3 DUP8 ADD PUSH2 0x6C9 JUMP JUMPDEST SWAP2 POP POP SWAP3 POP SWAP3 POP SWAP3 JUMP JUMPDEST PUSH0 PUSH1 0x20 DUP3 DUP5 SUB SLT ISZERO PUSH2 0x777 JUMPI PUSH2 0x776 PUSH2 0x52E JUMP JUMPDEST JUMPDEST PUSH0 PUSH2 0x784 DUP5 DUP3 DUP6 ADD PUSH2 0x57C JUMP JUMPDEST SWAP2 POP POP SWAP3 SWAP2 POP POP JUMP JUMPDEST PUSH0 PUSH1 0x3 SWAP1 POP SWAP2 SWAP1 POP JUMP JUMPDEST PUSH0 DUP2 SWAP1 POP SWAP3 SWAP2 POP POP JUMP JUMPDEST PUSH0 DUP2 SWAP1 POP SWAP2 SWAP1 POP JUMP JUMPDEST PUSH2 0x7B3 DUP2 PUSH2 0x4F4 JUMP JUMPDEST DUP3 MSTORE POP POP JUMP JUMPDEST PUSH0 PUSH2 0x7C4 DUP4 DUP4 PUSH2 0x7AA JUMP JUMPDEST PUSH1 0x20 DUP4 ADD SWAP1 POP SWAP3 SWAP2 POP POP JUMP JUMPDEST PUSH0 PUSH1 0x20 DUP3 ADD SWAP1 POP SWAP2 SWAP1 POP JUMP JUMPDEST PUSH2 0x7E5 DUP2 PUSH2 0x78D JUMP JUMPDEST PUSH2 0x7EF DUP2 DUP5 PUSH2 0x797 JUMP JUMPDEST SWAP3 POP PUSH2 0x7FA DUP3 PUSH2 0x7A1 JUMP JUMPDEST DUP1 PUSH0 JUMPDEST DUP4 DUP2 LT ISZERO PUSH2 0x82A JUMPI DUP2 MLOAD PUSH2 0x811 DUP8 DUP3 PUSH2 0x7B9 JUMP JUMPDEST SWAP7 POP PUSH2 0x81C DUP4 PUSH2 0x7D0 JUMP JUMPDEST SWAP3 POP POP PUSH1 0x1 DUP2 ADD SWAP1 POP PUSH2 0x7FD JUMP JUMPDEST POP POP POP POP POP POP JUMP JUMPDEST PUSH0 PUSH1 0x60 DUP3 ADD SWAP1 POP PUSH2 0x845 PUSH0 DUP4 ADD DUP5 PUSH2 0x7DC JUMP JUMPDEST SWAP3 SWAP2 POP POP JUMP JUMPDEST PUSH0 DUP1 PUSH1 0x40 DUP4 DUP6 SUB SLT ISZERO PUSH2 0x861 JUMPI PUSH2 0x860 PUSH2 0x52E JUMP JUMPDEST JUMPDEST PUSH0 PUSH2 0x86E DUP6 DUP3 DUP7 ADD PUSH2 0x57C JUMP JUMPDEST SWAP3 POP POP PUSH1 0x20 DUP4 ADD CALLDATALOAD PUSH8 0xFFFFFFFFFFFFFFFF DUP2 GT ISZERO PUSH2 0x88F JUMPI PUSH2 0x88E PUSH2 0x532 JUMP JUMPDEST JUMPDEST PUSH2 0x89B DUP6 DUP3 DUP7 ADD PUSH2 0x6C9 JUMP JUMPDEST SWAP2 POP POP SWAP3 POP SWAP3 SWAP1 POP JUMP JUMPDEST PUSH32 0x4E487B7100000000000000000000000000000000000000000000000000000000 PUSH0 MSTORE PUSH1 0x11 PUSH1 0x4 MSTORE PUSH1 0x24 PUSH0 REVERT JUMPDEST PUSH0 PUSH2 0x8DC DUP3 PUSH2 0x4F4 JUMP JUMPDEST SWAP2 POP PUSH2 0x8E7 DUP4 PUSH2 0x4F4 JUMP JUMPDEST SWAP3 POP DUP3 DUP3 ADD SWAP1 POP DUP1 DUP3 GT ISZERO PUSH2 0x8FF JUMPI PUSH2 0x8FE PUSH2 0x8A5 JUMP JUMPDEST JUMPDEST SWAP3 SWAP2 POP POP JUMP JUMPDEST PUSH0 DUP3 DUP3 MSTORE PUSH1 0x20 DUP3 ADD SWAP1 POP SWAP3 SWAP2 POP POP JUMP JUMPDEST PUSH32 0x7573657220697320616C72656164792070616964210000000000000000000000 PUSH0 DUP3 ADD MSTORE POP JUMP JUMPDEST PUSH0 PUSH2 0x949 PUSH1 0x15 DUP4 PUSH2 0x905 JUMP JUMPDEST SWAP2 POP PUSH2 0x954 DUP3 PUSH2 0x915 JUMP JUMPDEST PUSH1 0x20 DUP3 ADD SWAP1 POP SWAP2 SWAP1 POP JUMP JUMPDEST PUSH0 PUSH1 0x20 DUP3 ADD SWAP1 POP DUP2 DUP2 SUB PUSH0 DUP4 ADD MSTORE PUSH2 0x976 DUP2 PUSH2 0x93D JUMP JUMPDEST SWAP1 POP SWAP2 SWAP1 POP JUMP JUMPDEST PUSH32 0x596F75206D7573742073656E6420736F6D652045746865720000000000000000 PUSH0 DUP3 ADD MSTORE POP JUMP JUMPDEST PUSH0 PUSH2 0x9B1 PUSH1 0x18 DUP4 PUSH2 0x905 JUMP JUMPDEST SWAP2 POP PUSH2 0x9BC DUP3 PUSH2 0x97D JUMP JUMPDEST PUSH1 0x20 DUP3 ADD SWAP1 POP SWAP2 SWAP1 POP JUMP JUMPDEST PUSH0 PUSH1 0x20 DUP3 ADD SWAP1 POP DUP2 DUP2 SUB PUSH0 DUP4 ADD MSTORE PUSH2 0x9DE DUP2 PUSH2 0x9A5 JUMP JUMPDEST SWAP1 POP SWAP2 SWAP1 POP JUMP INVALID LOG2 PUSH5 0x6970667358 0x22 SLT KECCAK256 EQ CALLER 0x28 0xC0 0xF7 0xED 0x2D MSIZE 0xB4 CALLDATACOPY PUSH20 0x7D3EB549AB6053589372F596F6EE45573510ADAA SHL PUSH5 0x736F6C6343 STOP ADDMOD AND STOP CALLER "
	},
	"abi": [
		{
			"inputs": [],
			"stateMutability": "nonpayable",
			"type": "constructor"
		},
		{
			"inputs": [],
			"name": "getBalance",
			"outputs": [
				{
					"internalType": "uint256",
					"name": "",
					"type": "uint256"
				}
			],
			"stateMutability": "view",
			"type": "function"
		},
		{
			"inputs": [
				{
					"internalType": "address",
					"name": "_receipent",
					"type": "address"
				},
				{
					"internalType": "string",
					"name": "_planType",
					"type": "string"
				}
			],
			"name": "pay",
			"outputs": [],
			"stateMutability": "payable",
			"type": "function"
		},
		{
			"inputs": [
				{
					"internalType": "address",
					"name": "usersAddress",
					"type": "address"
				},
				{
					"internalType": "uint256",
					"name": "_amount",
					"type": "uint256"
				},
				{
					"internalType": "string",
					"name": "planType",
					"type": "string"
				}
			],
			"name": "paymentCheck",
			"outputs": [],
			"stateMutability": "nonpayable",
			"type": "function"
		},
		{
			"inputs": [
				{
					"internalType": "address",
					"name": "_receipent",
					"type": "address"
				}
			],
			"name": "userCheckStatus",
			"outputs": [
				{
					"internalType": "uint256[3]",
					"name": "",
					"type": "uint256[3]"
				}
			],
			"stateMutability": "view",
			"type": "function"
		}
	],
	"storageLayout": {
		"storage": [
			{
				"astId": 5,
				"contract": "users.sol:cryptoDoreaUsers",
				"label": "_paymentStatus",
				"offset": 0,
				"slot": "0",
				"type": "t_mapping(t_address,t_bool)"
			},
			{
				"astId": 9,
				"contract": "users.sol:cryptoDoreaUsers",
				"label": "_paymentAmount",
				"offset": 0,
				"slot": "1",
				"type": "t_mapping(t_address,t_uint256)"
			},
			{
				"astId": 13,
				"contract": "users.sol:cryptoDoreaUsers",
				"label": "_paymentDate",
				"offset": 0,
				"slot": "2",
				"type": "t_mapping(t_address,t_uint256)"
			},
			{
				"astId": 15,
				"contract": "users.sol:cryptoDoreaUsers",
				"label": "_expDate",
				"offset": 0,
				"slot": "3",
				"type": "t_uint256"
			},
			{
				"astId": 18,
				"contract": "users.sol:cryptoDoreaUsers",
				"label": "_userStatus",
				"offset": 0,
				"slot": "4",
				"type": "t_array(t_uint256)dyn_storage"
			}
		],
		"types": {
			"t_address": {
				"encoding": "inplace",
				"label": "address",
				"numberOfBytes": "20"
			},
			"t_array(t_uint256)dyn_storage": {
				"base": "t_uint256",
				"encoding": "dynamic_array",
				"label": "uint256[]",
				"numberOfBytes": "32"
			},
			"t_bool": {
				"encoding": "inplace",
				"label": "bool",
				"numberOfBytes": "1"
			},
			"t_mapping(t_address,t_bool)": {
				"encoding": "mapping",
				"key": "t_address",
				"label": "mapping(address => bool)",
				"numberOfBytes": "32",
				"value": "t_bool"
			},
			"t_mapping(t_address,t_uint256)": {
				"encoding": "mapping",
				"key": "t_address",
				"label": "mapping(address => uint256)",
				"numberOfBytes": "32",
				"value": "t_uint256"
			},
			"t_uint256": {
				"encoding": "inplace",
				"label": "uint256",
				"numberOfBytes": "32"
			}
		}
	},
	"web3Deploy": "var cryptodoreausersContract = new web3.eth.Contract([{\"inputs\":[],\"stateMutability\":\"nonpayable\",\"type\":\"constructor\"},{\"inputs\":[],\"name\":\"getBalance\",\"outputs\":[{\"internalType\":\"uint256\",\"name\":\"\",\"type\":\"uint256\"}],\"stateMutability\":\"view\",\"type\":\"function\"},{\"inputs\":[{\"internalType\":\"address\",\"name\":\"_receipent\",\"type\":\"address\"},{\"internalType\":\"string\",\"name\":\"_planType\",\"type\":\"string\"}],\"name\":\"pay\",\"outputs\":[],\"stateMutability\":\"payable\",\"type\":\"function\"},{\"inputs\":[{\"internalType\":\"address\",\"name\":\"usersAddress\",\"type\":\"address\"},{\"internalType\":\"uint256\",\"name\":\"_amount\",\"type\":\"uint256\"},{\"internalType\":\"string\",\"name\":\"planType\",\"type\":\"string\"}],\"name\":\"paymentCheck\",\"outputs\":[],\"stateMutability\":\"nonpayable\",\"type\":\"function\"},{\"inputs\":[{\"internalType\":\"address\",\"name\":\"_receipent\",\"type\":\"address\"}],\"name\":\"userCheckStatus\",\"outputs\":[{\"internalType\":\"uint256[3]\",\"name\":\"\",\"type\":\"uint256[3]\"}],\"stateMutability\":\"view\",\"type\":\"function\"}]);\nvar cryptodoreausers = cryptodoreausersContract.deploy({\n     data: '0x608060405234801561000f575f80fd5b50610a1b8061001d5f395ff3fe60806040526004361061003e575f3560e01c806312065fe01461004257806344c7c1171461006c578063669b680c14610094578063fb4da5b7146100d0575b5f80fd5b34801561004d575f80fd5b506100566100ec565b604051610063919061050c565b60405180910390f35b348015610077575f80fd5b50610092600480360381019061008d91906106f6565b6100f3565b005b34801561009f575f80fd5b506100ba60048036038101906100b59190610762565b610380565b6040516100c79190610832565b60405180910390f35b6100ea60048036038101906100e5919061084b565b610481565b005b5f47905090565b5f805f8573ffffffffffffffffffffffffffffffffffffffff1673ffffffffffffffffffffffffffffffffffffffff1681526020019081526020015f205f9054906101000a900460ff169050600115158115151461033f5760015f808673ffffffffffffffffffffffffffffffffffffffff1673ffffffffffffffffffffffffffffffffffffffff1681526020019081526020015f205f6101000a81548160ff0219169083151502179055508260015f8673ffffffffffffffffffffffffffffffffffffffff1673ffffffffffffffffffffffffffffffffffffffff1681526020019081526020015f20819055506040518060400160405280600781526020017f4d6f6e74686c79000000000000000000000000000000000000000000000000008152508051906020012082805190602001200361023a5762278d006003819055506102eb565b6040518060400160405280600a81526020017f68616c66596561726c7900000000000000000000000000000000000000000000815250805190602001208280519060200120036102935762ed4e006003819055506102ea565b6040518060400160405280600681526020017f596561726c790000000000000000000000000000000000000000000000000000815250805190602001208280519060200120036102e9576301e133806003819055505b5b5b600354426102f991906108d2565b60025f8673ffffffffffffffffffffffffffffffffffffffff1673ffffffffffffffffffffffffffffffffffffffff1681526020019081526020015f208190555061037a565b6040517f08c379a00000000000000000000000000000000000000000000000000000000081526004016103719061095f565b60405180910390fd5b50505050565b6103886104d2565b5f805f8473ffffffffffffffffffffffffffffffffffffffff1673ffffffffffffffffffffffffffffffffffffffff1681526020019081526020015f205f9054906101000a900460ff166103dc575f6103df565b60015b60ff169050604051806060016040528082815260200160015f8673ffffffffffffffffffffffffffffffffffffffff1673ffffffffffffffffffffffffffffffffffffffff1681526020019081526020015f2054815260200160025f8673ffffffffffffffffffffffffffffffffffffffff1673ffffffffffffffffffffffffffffffffffffffff1681526020019081526020015f2054815250915050919050565b5f34116104c3576040517f08c379a00000000000000000000000000000000000000000000000000000000081526004016104ba906109c7565b60405180910390fd5b6104ce8234836100f3565b5050565b6040518060600160405280600390602082028036833780820191505090505090565b5f819050919050565b610506816104f4565b82525050565b5f60208201905061051f5f8301846104fd565b92915050565b5f604051905090565b5f80fd5b5f80fd5b5f73ffffffffffffffffffffffffffffffffffffffff82169050919050565b5f61055f82610536565b9050919050565b61056f81610555565b8114610579575f80fd5b50565b5f8135905061058a81610566565b92915050565b610599816104f4565b81146105a3575f80fd5b50565b5f813590506105b481610590565b92915050565b5f80fd5b5f80fd5b5f601f19601f8301169050919050565b7f4e487b71000000000000000000000000000000000000000000000000000000005f52604160045260245ffd5b610608826105c2565b810181811067ffffffffffffffff82111715610627576106266105d2565b5b80604052505050565b5f610639610525565b905061064582826105ff565b919050565b5f67ffffffffffffffff821115610664576106636105d2565b5b61066d826105c2565b9050602081019050919050565b828183375f83830152505050565b5f61069a6106958461064a565b610630565b9050828152602081018484840111156106b6576106b56105be565b5b6106c184828561067a565b509392505050565b5f82601f8301126106dd576106dc6105ba565b5b81356106ed848260208601610688565b91505092915050565b5f805f6060848603121561070d5761070c61052e565b5b5f61071a8682870161057c565b935050602061072b868287016105a6565b925050604084013567ffffffffffffffff81111561074c5761074b610532565b5b610758868287016106c9565b9150509250925092565b5f602082840312156107775761077661052e565b5b5f6107848482850161057c565b91505092915050565b5f60039050919050565b5f81905092915050565b5f819050919050565b6107b3816104f4565b82525050565b5f6107c483836107aa565b60208301905092915050565b5f602082019050919050565b6107e58161078d565b6107ef8184610797565b92506107fa826107a1565b805f5b8381101561082a57815161081187826107b9565b965061081c836107d0565b9250506001810190506107fd565b505050505050565b5f6060820190506108455f8301846107dc565b92915050565b5f80604083850312156108615761086061052e565b5b5f61086e8582860161057c565b925050602083013567ffffffffffffffff81111561088f5761088e610532565b5b61089b858286016106c9565b9150509250929050565b7f4e487b71000000000000000000000000000000000000000000000000000000005f52601160045260245ffd5b5f6108dc826104f4565b91506108e7836104f4565b92508282019050808211156108ff576108fe6108a5565b5b92915050565b5f82825260208201905092915050565b7f7573657220697320616c726561647920706169642100000000000000000000005f82015250565b5f610949601583610905565b915061095482610915565b602082019050919050565b5f6020820190508181035f8301526109768161093d565b9050919050565b7f596f75206d7573742073656e6420736f6d6520457468657200000000000000005f82015250565b5f6109b1601883610905565b91506109bc8261097d565b602082019050919050565b5f6020820190508181035f8301526109de816109a5565b905091905056fea2646970667358221220143328c0f7ed2d59b437737d3eb549ab6053589372f596f6ee45573510adaa1b64736f6c63430008160033', \n     arguments: [\n     ]\n}).send({\n     from: web3.eth.accounts[0], \n     gas: '4700000'\n   }, function (e, contract){\n    console.log(e, contract);\n    if (typeof contract.address !== 'undefined') {\n         console.log('Contract mined! address: ' + contract.address + ' transactionHash: ' + contract.transactionHash);\n    }\n })",
	"functionHashes": {
		"12065fe0": "getBalance()",
		"fb4da5b7": "pay(address,string)",
		"44c7c117": "paymentCheck(address,uint256,string)",
		"669b680c": "userCheckStatus(address)"
	},
	"gasEstimates": {
		"Creation": {
			"codeDepositCost": "517400",
			"executionCost": "547",
			"totalCost": "517947"
		},
		"External": {
			"getBalance()": "312",
			"pay(address,string)": "infinite",
			"paymentCheck(address,uint256,string)": "infinite",
			"userCheckStatus(address)": "infinite"
		}
	},
	"devdoc": {
		"kind": "dev",
		"methods": {},
		"version": 1
	},
	"userdoc": {
		"kind": "user",
		"methods": {},
		"version": 1
	},
	"Runtime Bytecode": {
		"immutableReferences": {},
		"linkReferences": {},
		"object": "60806040526004361061003e575f3560e01c806312065fe01461004257806344c7c1171461006c578063669b680c14610094578063fb4da5b7146100d0575b5f80fd5b34801561004d575f80fd5b506100566100ec565b604051610063919061050c565b60405180910390f35b348015610077575f80fd5b50610092600480360381019061008d91906106f6565b6100f3565b005b34801561009f575f80fd5b506100ba60048036038101906100b59190610762565b610380565b6040516100c79190610832565b60405180910390f35b6100ea60048036038101906100e5919061084b565b610481565b005b5f47905090565b5f805f8573ffffffffffffffffffffffffffffffffffffffff1673ffffffffffffffffffffffffffffffffffffffff1681526020019081526020015f205f9054906101000a900460ff169050600115158115151461033f5760015f808673ffffffffffffffffffffffffffffffffffffffff1673ffffffffffffffffffffffffffffffffffffffff1681526020019081526020015f205f6101000a81548160ff0219169083151502179055508260015f8673ffffffffffffffffffffffffffffffffffffffff1673ffffffffffffffffffffffffffffffffffffffff1681526020019081526020015f20819055506040518060400160405280600781526020017f4d6f6e74686c79000000000000000000000000000000000000000000000000008152508051906020012082805190602001200361023a5762278d006003819055506102eb565b6040518060400160405280600a81526020017f68616c66596561726c7900000000000000000000000000000000000000000000815250805190602001208280519060200120036102935762ed4e006003819055506102ea565b6040518060400160405280600681526020017f596561726c790000000000000000000000000000000000000000000000000000815250805190602001208280519060200120036102e9576301e133806003819055505b5b5b600354426102f991906108d2565b60025f8673ffffffffffffffffffffffffffffffffffffffff1673ffffffffffffffffffffffffffffffffffffffff1681526020019081526020015f208190555061037a565b6040517f08c379a00000000000000000000000000000000000000000000000000000000081526004016103719061095f565b60405180910390fd5b50505050565b6103886104d2565b5f805f8473ffffffffffffffffffffffffffffffffffffffff1673ffffffffffffffffffffffffffffffffffffffff1681526020019081526020015f205f9054906101000a900460ff166103dc575f6103df565b60015b60ff169050604051806060016040528082815260200160015f8673ffffffffffffffffffffffffffffffffffffffff1673ffffffffffffffffffffffffffffffffffffffff1681526020019081526020015f2054815260200160025f8673ffffffffffffffffffffffffffffffffffffffff1673ffffffffffffffffffffffffffffffffffffffff1681526020019081526020015f2054815250915050919050565b5f34116104c3576040517f08c379a00000000000000000000000000000000000000000000000000000000081526004016104ba906109c7565b60405180910390fd5b6104ce8234836100f3565b5050565b6040518060600160405280600390602082028036833780820191505090505090565b5f819050919050565b610506816104f4565b82525050565b5f60208201905061051f5f8301846104fd565b92915050565b5f604051905090565b5f80fd5b5f80fd5b5f73ffffffffffffffffffffffffffffffffffffffff82169050919050565b5f61055f82610536565b9050919050565b61056f81610555565b8114610579575f80fd5b50565b5f8135905061058a81610566565b92915050565b610599816104f4565b81146105a3575f80fd5b50565b5f813590506105b481610590565b92915050565b5f80fd5b5f80fd5b5f601f19601f8301169050919050565b7f4e487b71000000000000000000000000000000000000000000000000000000005f52604160045260245ffd5b610608826105c2565b810181811067ffffffffffffffff82111715610627576106266105d2565b5b80604052505050565b5f610639610525565b905061064582826105ff565b919050565b5f67ffffffffffffffff821115610664576106636105d2565b5b61066d826105c2565b9050602081019050919050565b828183375f83830152505050565b5f61069a6106958461064a565b610630565b9050828152602081018484840111156106b6576106b56105be565b5b6106c184828561067a565b509392505050565b5f82601f8301126106dd576106dc6105ba565b5b81356106ed848260208601610688565b91505092915050565b5f805f6060848603121561070d5761070c61052e565b5b5f61071a8682870161057c565b935050602061072b868287016105a6565b925050604084013567ffffffffffffffff81111561074c5761074b610532565b5b610758868287016106c9565b9150509250925092565b5f602082840312156107775761077661052e565b5b5f6107848482850161057c565b91505092915050565b5f60039050919050565b5f81905092915050565b5f819050919050565b6107b3816104f4565b82525050565b5f6107c483836107aa565b60208301905092915050565b5f602082019050919050565b6107e58161078d565b6107ef8184610797565b92506107fa826107a1565b805f5b8381101561082a57815161081187826107b9565b965061081c836107d0565b9250506001810190506107fd565b505050505050565b5f6060820190506108455f8301846107dc565b92915050565b5f80604083850312156108615761086061052e565b5b5f61086e8582860161057c565b925050602083013567ffffffffffffffff81111561088f5761088e610532565b5b61089b858286016106c9565b9150509250929050565b7f4e487b71000000000000000000000000000000000000000000000000000000005f52601160045260245ffd5b5f6108dc826104f4565b91506108e7836104f4565b92508282019050808211156108ff576108fe6108a5565b5b92915050565b5f82825260208201905092915050565b7f7573657220697320616c726561647920706169642100000000000000000000005f82015250565b5f610949601583610905565b915061095482610915565b602082019050919050565b5f6020820190508181035f8301526109768161093d565b9050919050565b7f596f75206d7573742073656e6420736f6d6520457468657200000000000000005f82015250565b5f6109b1601883610905565b91506109bc8261097d565b602082019050919050565b5f6020820190508181035f8301526109de816109a5565b905091905056fea2646970667358221220143328c0f7ed2d59b437737d3eb549ab6053589372f596f6ee45573510adaa1b64736f6c63430008160033",
		"opcodes": "PUSH1 0x80 PUSH1 0x40 MSTORE PUSH1 0x4 CALLDATASIZE LT PUSH2 0x3E JUMPI PUSH0 CALLDATALOAD PUSH1 0xE0 SHR DUP1 PUSH4 0x12065FE0 EQ PUSH2 0x42 JUMPI DUP1 PUSH4 0x44C7C117 EQ PUSH2 0x6C JUMPI DUP1 PUSH4 0x669B680C EQ PUSH2 0x94 JUMPI DUP1 PUSH4 0xFB4DA5B7 EQ PUSH2 0xD0 JUMPI JUMPDEST PUSH0 DUP1 REVERT JUMPDEST CALLVALUE DUP1 ISZERO PUSH2 0x4D JUMPI PUSH0 DUP1 REVERT JUMPDEST POP PUSH2 0x56 PUSH2 0xEC JUMP JUMPDEST PUSH1 0x40 MLOAD PUSH2 0x63 SWAP2 SWAP1 PUSH2 0x50C JUMP JUMPDEST PUSH1 0x40 MLOAD DUP1 SWAP2 SUB SWAP1 RETURN JUMPDEST CALLVALUE DUP1 ISZERO PUSH2 0x77 JUMPI PUSH0 DUP1 REVERT JUMPDEST POP PUSH2 0x92 PUSH1 0x4 DUP1 CALLDATASIZE SUB DUP2 ADD SWAP1 PUSH2 0x8D SWAP2 SWAP1 PUSH2 0x6F6 JUMP JUMPDEST PUSH2 0xF3 JUMP JUMPDEST STOP JUMPDEST CALLVALUE DUP1 ISZERO PUSH2 0x9F JUMPI PUSH0 DUP1 REVERT JUMPDEST POP PUSH2 0xBA PUSH1 0x4 DUP1 CALLDATASIZE SUB DUP2 ADD SWAP1 PUSH2 0xB5 SWAP2 SWAP1 PUSH2 0x762 JUMP JUMPDEST PUSH2 0x380 JUMP JUMPDEST PUSH1 0x40 MLOAD PUSH2 0xC7 SWAP2 SWAP1 PUSH2 0x832 JUMP JUMPDEST PUSH1 0x40 MLOAD DUP1 SWAP2 SUB SWAP1 RETURN JUMPDEST PUSH2 0xEA PUSH1 0x4 DUP1 CALLDATASIZE SUB DUP2 ADD SWAP1 PUSH2 0xE5 SWAP2 SWAP1 PUSH2 0x84B JUMP JUMPDEST PUSH2 0x481 JUMP JUMPDEST STOP JUMPDEST PUSH0 SELFBALANCE SWAP1 POP SWAP1 JUMP JUMPDEST PUSH0 DUP1 PUSH0 DUP6 PUSH20 0xFFFFFFFFFFFFFFFFFFFFFFFFFFFFFFFFFFFFFFFF AND PUSH20 0xFFFFFFFFFFFFFFFFFFFFFFFFFFFFFFFFFFFFFFFF AND DUP2 MSTORE PUSH1 0x20 ADD SWAP1 DUP2 MSTORE PUSH1 0x20 ADD PUSH0 KECCAK256 PUSH0 SWAP1 SLOAD SWAP1 PUSH2 0x100 EXP SWAP1 DIV PUSH1 0xFF AND SWAP1 POP PUSH1 0x1 ISZERO ISZERO DUP2 ISZERO ISZERO EQ PUSH2 0x33F JUMPI PUSH1 0x1 PUSH0 DUP1 DUP7 PUSH20 0xFFFFFFFFFFFFFFFFFFFFFFFFFFFFFFFFFFFFFFFF AND PUSH20 0xFFFFFFFFFFFFFFFFFFFFFFFFFFFFFFFFFFFFFFFF AND DUP2 MSTORE PUSH1 0x20 ADD SWAP1 DUP2 MSTORE PUSH1 0x20 ADD PUSH0 KECCAK256 PUSH0 PUSH2 0x100 EXP DUP2 SLOAD DUP2 PUSH1 0xFF MUL NOT AND SWAP1 DUP4 ISZERO ISZERO MUL OR SWAP1 SSTORE POP DUP3 PUSH1 0x1 PUSH0 DUP7 PUSH20 0xFFFFFFFFFFFFFFFFFFFFFFFFFFFFFFFFFFFFFFFF AND PUSH20 0xFFFFFFFFFFFFFFFFFFFFFFFFFFFFFFFFFFFFFFFF AND DUP2 MSTORE PUSH1 0x20 ADD SWAP1 DUP2 MSTORE PUSH1 0x20 ADD PUSH0 KECCAK256 DUP2 SWAP1 SSTORE POP PUSH1 0x40 MLOAD DUP1 PUSH1 0x40 ADD PUSH1 0x40 MSTORE DUP1 PUSH1 0x7 DUP2 MSTORE PUSH1 0x20 ADD PUSH32 0x4D6F6E74686C7900000000000000000000000000000000000000000000000000 DUP2 MSTORE POP DUP1 MLOAD SWAP1 PUSH1 0x20 ADD KECCAK256 DUP3 DUP1 MLOAD SWAP1 PUSH1 0x20 ADD KECCAK256 SUB PUSH2 0x23A JUMPI PUSH3 0x278D00 PUSH1 0x3 DUP2 SWAP1 SSTORE POP PUSH2 0x2EB JUMP JUMPDEST PUSH1 0x40 MLOAD DUP1 PUSH1 0x40 ADD PUSH1 0x40 MSTORE DUP1 PUSH1 0xA DUP2 MSTORE PUSH1 0x20 ADD PUSH32 0x68616C66596561726C7900000000000000000000000000000000000000000000 DUP2 MSTORE POP DUP1 MLOAD SWAP1 PUSH1 0x20 ADD KECCAK256 DUP3 DUP1 MLOAD SWAP1 PUSH1 0x20 ADD KECCAK256 SUB PUSH2 0x293 JUMPI PUSH3 0xED4E00 PUSH1 0x3 DUP2 SWAP1 SSTORE POP PUSH2 0x2EA JUMP JUMPDEST PUSH1 0x40 MLOAD DUP1 PUSH1 0x40 ADD PUSH1 0x40 MSTORE DUP1 PUSH1 0x6 DUP2 MSTORE PUSH1 0x20 ADD PUSH32 0x596561726C790000000000000000000000000000000000000000000000000000 DUP2 MSTORE POP DUP1 MLOAD SWAP1 PUSH1 0x20 ADD KECCAK256 DUP3 DUP1 MLOAD SWAP1 PUSH1 0x20 ADD KECCAK256 SUB PUSH2 0x2E9 JUMPI PUSH4 0x1E13380 PUSH1 0x3 DUP2 SWAP1 SSTORE POP JUMPDEST JUMPDEST JUMPDEST PUSH1 0x3 SLOAD TIMESTAMP PUSH2 0x2F9 SWAP2 SWAP1 PUSH2 0x8D2 JUMP JUMPDEST PUSH1 0x2 PUSH0 DUP7 PUSH20 0xFFFFFFFFFFFFFFFFFFFFFFFFFFFFFFFFFFFFFFFF AND PUSH20 0xFFFFFFFFFFFFFFFFFFFFFFFFFFFFFFFFFFFFFFFF AND DUP2 MSTORE PUSH1 0x20 ADD SWAP1 DUP2 MSTORE PUSH1 0x20 ADD PUSH0 KECCAK256 DUP2 SWAP1 SSTORE POP PUSH2 0x37A JUMP JUMPDEST PUSH1 0x40 MLOAD PUSH32 0x8C379A000000000000000000000000000000000000000000000000000000000 DUP2 MSTORE PUSH1 0x4 ADD PUSH2 0x371 SWAP1 PUSH2 0x95F JUMP JUMPDEST PUSH1 0x40 MLOAD DUP1 SWAP2 SUB SWAP1 REVERT JUMPDEST POP POP POP POP JUMP JUMPDEST PUSH2 0x388 PUSH2 0x4D2 JUMP JUMPDEST PUSH0 DUP1 PUSH0 DUP5 PUSH20 0xFFFFFFFFFFFFFFFFFFFFFFFFFFFFFFFFFFFFFFFF AND PUSH20 0xFFFFFFFFFFFFFFFFFFFFFFFFFFFFFFFFFFFFFFFF AND DUP2 MSTORE PUSH1 0x20 ADD SWAP1 DUP2 MSTORE PUSH1 0x20 ADD PUSH0 KECCAK256 PUSH0 SWAP1 SLOAD SWAP1 PUSH2 0x100 EXP SWAP1 DIV PUSH1 0xFF AND PUSH2 0x3DC JUMPI PUSH0 PUSH2 0x3DF JUMP JUMPDEST PUSH1 0x1 JUMPDEST PUSH1 0xFF AND SWAP1 POP PUSH1 0x40 MLOAD DUP1 PUSH1 0x60 ADD PUSH1 0x40 MSTORE DUP1 DUP3 DUP2 MSTORE PUSH1 0x20 ADD PUSH1 0x1 PUSH0 DUP7 PUSH20 0xFFFFFFFFFFFFFFFFFFFFFFFFFFFFFFFFFFFFFFFF AND PUSH20 0xFFFFFFFFFFFFFFFFFFFFFFFFFFFFFFFFFFFFFFFF AND DUP2 MSTORE PUSH1 0x20 ADD SWAP1 DUP2 MSTORE PUSH1 0x20 ADD PUSH0 KECCAK256 SLOAD DUP2 MSTORE PUSH1 0x20 ADD PUSH1 0x2 PUSH0 DUP7 PUSH20 0xFFFFFFFFFFFFFFFFFFFFFFFFFFFFFFFFFFFFFFFF AND PUSH20 0xFFFFFFFFFFFFFFFFFFFFFFFFFFFFFFFFFFFFFFFF AND DUP2 MSTORE PUSH1 0x20 ADD SWAP1 DUP2 MSTORE PUSH1 0x20 ADD PUSH0 KECCAK256 SLOAD DUP2 MSTORE POP SWAP2 POP POP SWAP2 SWAP1 POP JUMP JUMPDEST PUSH0 CALLVALUE GT PUSH2 0x4C3 JUMPI PUSH1 0x40 MLOAD PUSH32 0x8C379A000000000000000000000000000000000000000000000000000000000 DUP2 MSTORE PUSH1 0x4 ADD PUSH2 0x4BA SWAP1 PUSH2 0x9C7 JUMP JUMPDEST PUSH1 0x40 MLOAD DUP1 SWAP2 SUB SWAP1 REVERT JUMPDEST PUSH2 0x4CE DUP3 CALLVALUE DUP4 PUSH2 0xF3 JUMP JUMPDEST POP POP JUMP JUMPDEST PUSH1 0x40 MLOAD DUP1 PUSH1 0x60 ADD PUSH1 0x40 MSTORE DUP1 PUSH1 0x3 SWAP1 PUSH1 0x20 DUP3 MUL DUP1 CALLDATASIZE DUP4 CALLDATACOPY DUP1 DUP3 ADD SWAP2 POP POP SWAP1 POP POP SWAP1 JUMP JUMPDEST PUSH0 DUP2 SWAP1 POP SWAP2 SWAP1 POP JUMP JUMPDEST PUSH2 0x506 DUP2 PUSH2 0x4F4 JUMP JUMPDEST DUP3 MSTORE POP POP JUMP JUMPDEST PUSH0 PUSH1 0x20 DUP3 ADD SWAP1 POP PUSH2 0x51F PUSH0 DUP4 ADD DUP5 PUSH2 0x4FD JUMP JUMPDEST SWAP3 SWAP2 POP POP JUMP JUMPDEST PUSH0 PUSH1 0x40 MLOAD SWAP1 POP SWAP1 JUMP JUMPDEST PUSH0 DUP1 REVERT JUMPDEST PUSH0 DUP1 REVERT JUMPDEST PUSH0 PUSH20 0xFFFFFFFFFFFFFFFFFFFFFFFFFFFFFFFFFFFFFFFF DUP3 AND SWAP1 POP SWAP2 SWAP1 POP JUMP JUMPDEST PUSH0 PUSH2 0x55F DUP3 PUSH2 0x536 JUMP JUMPDEST SWAP1 POP SWAP2 SWAP1 POP JUMP JUMPDEST PUSH2 0x56F DUP2 PUSH2 0x555 JUMP JUMPDEST DUP2 EQ PUSH2 0x579 JUMPI PUSH0 DUP1 REVERT JUMPDEST POP JUMP JUMPDEST PUSH0 DUP2 CALLDATALOAD SWAP1 POP PUSH2 0x58A DUP2 PUSH2 0x566 JUMP JUMPDEST SWAP3 SWAP2 POP POP JUMP JUMPDEST PUSH2 0x599 DUP2 PUSH2 0x4F4 JUMP JUMPDEST DUP2 EQ PUSH2 0x5A3 JUMPI PUSH0 DUP1 REVERT JUMPDEST POP JUMP JUMPDEST PUSH0 DUP2 CALLDATALOAD SWAP1 POP PUSH2 0x5B4 DUP2 PUSH2 0x590 JUMP JUMPDEST SWAP3 SWAP2 POP POP JUMP JUMPDEST PUSH0 DUP1 REVERT JUMPDEST PUSH0 DUP1 REVERT JUMPDEST PUSH0 PUSH1 0x1F NOT PUSH1 0x1F DUP4 ADD AND SWAP1 POP SWAP2 SWAP1 POP JUMP JUMPDEST PUSH32 0x4E487B7100000000000000000000000000000000000000000000000000000000 PUSH0 MSTORE PUSH1 0x41 PUSH1 0x4 MSTORE PUSH1 0x24 PUSH0 REVERT JUMPDEST PUSH2 0x608 DUP3 PUSH2 0x5C2 JUMP JUMPDEST DUP2 ADD DUP2 DUP2 LT PUSH8 0xFFFFFFFFFFFFFFFF DUP3 GT OR ISZERO PUSH2 0x627 JUMPI PUSH2 0x626 PUSH2 0x5D2 JUMP JUMPDEST JUMPDEST DUP1 PUSH1 0x40 MSTORE POP POP POP JUMP JUMPDEST PUSH0 PUSH2 0x639 PUSH2 0x525 JUMP JUMPDEST SWAP1 POP PUSH2 0x645 DUP3 DUP3 PUSH2 0x5FF JUMP JUMPDEST SWAP2 SWAP1 POP JUMP JUMPDEST PUSH0 PUSH8 0xFFFFFFFFFFFFFFFF DUP3 GT ISZERO PUSH2 0x664 JUMPI PUSH2 0x663 PUSH2 0x5D2 JUMP JUMPDEST JUMPDEST PUSH2 0x66D DUP3 PUSH2 0x5C2 JUMP JUMPDEST SWAP1 POP PUSH1 0x20 DUP2 ADD SWAP1 POP SWAP2 SWAP1 POP JUMP JUMPDEST DUP3 DUP2 DUP4 CALLDATACOPY PUSH0 DUP4 DUP4 ADD MSTORE POP POP POP JUMP JUMPDEST PUSH0 PUSH2 0x69A PUSH2 0x695 DUP5 PUSH2 0x64A JUMP JUMPDEST PUSH2 0x630 JUMP JUMPDEST SWAP1 POP DUP3 DUP2 MSTORE PUSH1 0x20 DUP2 ADD DUP5 DUP5 DUP5 ADD GT ISZERO PUSH2 0x6B6 JUMPI PUSH2 0x6B5 PUSH2 0x5BE JUMP JUMPDEST JUMPDEST PUSH2 0x6C1 DUP5 DUP3 DUP6 PUSH2 0x67A JUMP JUMPDEST POP SWAP4 SWAP3 POP POP POP JUMP JUMPDEST PUSH0 DUP3 PUSH1 0x1F DUP4 ADD SLT PUSH2 0x6DD JUMPI PUSH2 0x6DC PUSH2 0x5BA JUMP JUMPDEST JUMPDEST DUP2 CALLDATALOAD PUSH2 0x6ED DUP5 DUP3 PUSH1 0x20 DUP7 ADD PUSH2 0x688 JUMP JUMPDEST SWAP2 POP POP SWAP3 SWAP2 POP POP JUMP JUMPDEST PUSH0 DUP1 PUSH0 PUSH1 0x60 DUP5 DUP7 SUB SLT ISZERO PUSH2 0x70D JUMPI PUSH2 0x70C PUSH2 0x52E JUMP JUMPDEST JUMPDEST PUSH0 PUSH2 0x71A DUP7 DUP3 DUP8 ADD PUSH2 0x57C JUMP JUMPDEST SWAP4 POP POP PUSH1 0x20 PUSH2 0x72B DUP7 DUP3 DUP8 ADD PUSH2 0x5A6 JUMP JUMPDEST SWAP3 POP POP PUSH1 0x40 DUP5 ADD CALLDATALOAD PUSH8 0xFFFFFFFFFFFFFFFF DUP2 GT ISZERO PUSH2 0x74C JUMPI PUSH2 0x74B PUSH2 0x532 JUMP JUMPDEST JUMPDEST PUSH2 0x758 DUP7 DUP3 DUP8 ADD PUSH2 0x6C9 JUMP JUMPDEST SWAP2 POP POP SWAP3 POP SWAP3 POP SWAP3 JUMP JUMPDEST PUSH0 PUSH1 0x20 DUP3 DUP5 SUB SLT ISZERO PUSH2 0x777 JUMPI PUSH2 0x776 PUSH2 0x52E JUMP JUMPDEST JUMPDEST PUSH0 PUSH2 0x784 DUP5 DUP3 DUP6 ADD PUSH2 0x57C JUMP JUMPDEST SWAP2 POP POP SWAP3 SWAP2 POP POP JUMP JUMPDEST PUSH0 PUSH1 0x3 SWAP1 POP SWAP2 SWAP1 POP JUMP JUMPDEST PUSH0 DUP2 SWAP1 POP SWAP3 SWAP2 POP POP JUMP JUMPDEST PUSH0 DUP2 SWAP1 POP SWAP2 SWAP1 POP JUMP JUMPDEST PUSH2 0x7B3 DUP2 PUSH2 0x4F4 JUMP JUMPDEST DUP3 MSTORE POP POP JUMP JUMPDEST PUSH0 PUSH2 0x7C4 DUP4 DUP4 PUSH2 0x7AA JUMP JUMPDEST PUSH1 0x20 DUP4 ADD SWAP1 POP SWAP3 SWAP2 POP POP JUMP JUMPDEST PUSH0 PUSH1 0x20 DUP3 ADD SWAP1 POP SWAP2 SWAP1 POP JUMP JUMPDEST PUSH2 0x7E5 DUP2 PUSH2 0x78D JUMP JUMPDEST PUSH2 0x7EF DUP2 DUP5 PUSH2 0x797 JUMP JUMPDEST SWAP3 POP PUSH2 0x7FA DUP3 PUSH2 0x7A1 JUMP JUMPDEST DUP1 PUSH0 JUMPDEST DUP4 DUP2 LT ISZERO PUSH2 0x82A JUMPI DUP2 MLOAD PUSH2 0x811 DUP8 DUP3 PUSH2 0x7B9 JUMP JUMPDEST SWAP7 POP PUSH2 0x81C DUP4 PUSH2 0x7D0 JUMP JUMPDEST SWAP3 POP POP PUSH1 0x1 DUP2 ADD SWAP1 POP PUSH2 0x7FD JUMP JUMPDEST POP POP POP POP POP POP JUMP JUMPDEST PUSH0 PUSH1 0x60 DUP3 ADD SWAP1 POP PUSH2 0x845 PUSH0 DUP4 ADD DUP5 PUSH2 0x7DC JUMP JUMPDEST SWAP3 SWAP2 POP POP JUMP JUMPDEST PUSH0 DUP1 PUSH1 0x40 DUP4 DUP6 SUB SLT ISZERO PUSH2 0x861 JUMPI PUSH2 0x860 PUSH2 0x52E JUMP JUMPDEST JUMPDEST PUSH0 PUSH2 0x86E DUP6 DUP3 DUP7 ADD PUSH2 0x57C JUMP JUMPDEST SWAP3 POP POP PUSH1 0x20 DUP4 ADD CALLDATALOAD PUSH8 0xFFFFFFFFFFFFFFFF DUP2 GT ISZERO PUSH2 0x88F JUMPI PUSH2 0x88E PUSH2 0x532 JUMP JUMPDEST JUMPDEST PUSH2 0x89B DUP6 DUP3 DUP7 ADD PUSH2 0x6C9 JUMP JUMPDEST SWAP2 POP POP SWAP3 POP SWAP3 SWAP1 POP JUMP JUMPDEST PUSH32 0x4E487B7100000000000000000000000000000000000000000000000000000000 PUSH0 MSTORE PUSH1 0x11 PUSH1 0x4 MSTORE PUSH1 0x24 PUSH0 REVERT JUMPDEST PUSH0 PUSH2 0x8DC DUP3 PUSH2 0x4F4 JUMP JUMPDEST SWAP2 POP PUSH2 0x8E7 DUP4 PUSH2 0x4F4 JUMP JUMPDEST SWAP3 POP DUP3 DUP3 ADD SWAP1 POP DUP1 DUP3 GT ISZERO PUSH2 0x8FF JUMPI PUSH2 0x8FE PUSH2 0x8A5 JUMP JUMPDEST JUMPDEST SWAP3 SWAP2 POP POP JUMP JUMPDEST PUSH0 DUP3 DUP3 MSTORE PUSH1 0x20 DUP3 ADD SWAP1 POP SWAP3 SWAP2 POP POP JUMP JUMPDEST PUSH32 0x7573657220697320616C72656164792070616964210000000000000000000000 PUSH0 DUP3 ADD MSTORE POP JUMP JUMPDEST PUSH0 PUSH2 0x949 PUSH1 0x15 DUP4 PUSH2 0x905 JUMP JUMPDEST SWAP2 POP PUSH2 0x954 DUP3 PUSH2 0x915 JUMP JUMPDEST PUSH1 0x20 DUP3 ADD SWAP1 POP SWAP2 SWAP1 POP JUMP JUMPDEST PUSH0 PUSH1 0x20 DUP3 ADD SWAP1 POP DUP2 DUP2 SUB PUSH0 DUP4 ADD MSTORE PUSH2 0x976 DUP2 PUSH2 0x93D JUMP JUMPDEST SWAP1 POP SWAP2 SWAP1 POP JUMP JUMPDEST PUSH32 0x596F75206D7573742073656E6420736F6D652045746865720000000000000000 PUSH0 DUP3 ADD MSTORE POP JUMP JUMPDEST PUSH0 PUSH2 0x9B1 PUSH1 0x18 DUP4 PUSH2 0x905 JUMP JUMPDEST SWAP2 POP PUSH2 0x9BC DUP3 PUSH2 0x97D JUMP JUMPDEST PUSH1 0x20 DUP3 ADD SWAP1 POP SWAP2 SWAP1 POP JUMP JUMPDEST PUSH0 PUSH1 0x20 DUP3 ADD SWAP1 POP DUP2 DUP2 SUB PUSH0 DUP4 ADD MSTORE PUSH2 0x9DE DUP2 PUSH2 0x9A5 JUMP JUMPDEST SWAP1 POP SWAP2 SWAP1 POP JUMP INVALID LOG2 PUSH5 0x6970667358 0x22 SLT KECCAK256 EQ CALLER 0x28 0xC0 0xF7 0xED 0x2D MSIZE 0xB4 CALLDATACOPY PUSH20 0x7D3EB549AB6053589372F596F6EE45573510ADAA SHL PUSH5 0x736F6C6343 STOP ADDMOD AND STOP CALLER "
	},
	"Assembly": ".code\n  PUSH 80\t\t\tcontract cryptoDoreaUsers {\\r\\...\n  PUSH 40\t\t\tcontract cryptoDoreaUsers {\\r\\...\n  MSTORE \t\t\tcontract cryptoDoreaUsers {\\r\\...\n  CALLVALUE \t\t\tconstructor()  {\\r\\n\\r\\n    }\n  DUP1 \t\t\tconstructor()  {\\r\\n\\r\\n    }\n  ISZERO \t\t\tconstructor()  {\\r\\n\\r\\n    }\n  PUSH [tag] 1\t\t\tconstructor()  {\\r\\n\\r\\n    }\n  JUMPI \t\t\tconstructor()  {\\r\\n\\r\\n    }\n  PUSH 0\t\t\tconstructor()  {\\r\\n\\r\\n    }\n  DUP1 \t\t\tconstructor()  {\\r\\n\\r\\n    }\n  REVERT \t\t\tconstructor()  {\\r\\n\\r\\n    }\ntag 1\t\t\tconstructor()  {\\r\\n\\r\\n    }\n  JUMPDEST \t\t\tconstructor()  {\\r\\n\\r\\n    }\n  POP \t\t\tconstructor()  {\\r\\n\\r\\n    }\n  PUSH #[$] 0000000000000000000000000000000000000000000000000000000000000000\t\t\tcontract cryptoDoreaUsers {\\r\\...\n  DUP1 \t\t\tcontract cryptoDoreaUsers {\\r\\...\n  PUSH [$] 0000000000000000000000000000000000000000000000000000000000000000\t\t\tcontract cryptoDoreaUsers {\\r\\...\n  PUSH 0\t\t\tcontract cryptoDoreaUsers {\\r\\...\n  CODECOPY \t\t\tcontract cryptoDoreaUsers {\\r\\...\n  PUSH 0\t\t\tcontract cryptoDoreaUsers {\\r\\...\n  RETURN \t\t\tcontract cryptoDoreaUsers {\\r\\...\n.data\n  0:\n    .code\n      PUSH 80\t\t\tcontract cryptoDoreaUsers {\\r\\...\n      PUSH 40\t\t\tcontract cryptoDoreaUsers {\\r\\...\n      MSTORE \t\t\tcontract cryptoDoreaUsers {\\r\\...\n      PUSH 4\t\t\tcontract cryptoDoreaUsers {\\r\\...\n      CALLDATASIZE \t\t\tcontract cryptoDoreaUsers {\\r\\...\n      LT \t\t\tcontract cryptoDoreaUsers {\\r\\...\n      PUSH [tag] 1\t\t\tcontract cryptoDoreaUsers {\\r\\...\n      JUMPI \t\t\tcontract cryptoDoreaUsers {\\r\\...\n      PUSH 0\t\t\tcontract cryptoDoreaUsers {\\r\\...\n      CALLDATALOAD \t\t\tcontract cryptoDoreaUsers {\\r\\...\n      PUSH E0\t\t\tcontract cryptoDoreaUsers {\\r\\...\n      SHR \t\t\tcontract cryptoDoreaUsers {\\r\\...\n      DUP1 \t\t\tcontract cryptoDoreaUsers {\\r\\...\n      PUSH 12065FE0\t\t\tcontract cryptoDoreaUsers {\\r\\...\n      EQ \t\t\tcontract cryptoDoreaUsers {\\r\\...\n      PUSH [tag] 2\t\t\tcontract cryptoDoreaUsers {\\r\\...\n      JUMPI \t\t\tcontract cryptoDoreaUsers {\\r\\...\n      DUP1 \t\t\tcontract cryptoDoreaUsers {\\r\\...\n      PUSH 44C7C117\t\t\tcontract cryptoDoreaUsers {\\r\\...\n      EQ \t\t\tcontract cryptoDoreaUsers {\\r\\...\n      PUSH [tag] 3\t\t\tcontract cryptoDoreaUsers {\\r\\...\n      JUMPI \t\t\tcontract cryptoDoreaUsers {\\r\\...\n      DUP1 \t\t\tcontract cryptoDoreaUsers {\\r\\...\n      PUSH 669B680C\t\t\tcontract cryptoDoreaUsers {\\r\\...\n      EQ \t\t\tcontract cryptoDoreaUsers {\\r\\...\n      PUSH [tag] 4\t\t\tcontract cryptoDoreaUsers {\\r\\...\n      JUMPI \t\t\tcontract cryptoDoreaUsers {\\r\\...\n      DUP1 \t\t\tcontract cryptoDoreaUsers {\\r\\...\n      PUSH FB4DA5B7\t\t\tcontract cryptoDoreaUsers {\\r\\...\n      EQ \t\t\tcontract cryptoDoreaUsers {\\r\\...\n      PUSH [tag] 5\t\t\tcontract cryptoDoreaUsers {\\r\\...\n      JUMPI \t\t\tcontract cryptoDoreaUsers {\\r\\...\n    tag 1\t\t\tcontract cryptoDoreaUsers {\\r\\...\n      JUMPDEST \t\t\tcontract cryptoDoreaUsers {\\r\\...\n      PUSH 0\t\t\tcontract cryptoDoreaUsers {\\r\\...\n      DUP1 \t\t\tcontract cryptoDoreaUsers {\\r\\...\n      REVERT \t\t\tcontract cryptoDoreaUsers {\\r\\...\n    tag 2\t\t\tfunction getBalance() public v...\n      JUMPDEST \t\t\tfunction getBalance() public v...\n      CALLVALUE \t\t\tfunction getBalance() public v...\n      DUP1 \t\t\tfunction getBalance() public v...\n      ISZERO \t\t\tfunction getBalance() public v...\n      PUSH [tag] 6\t\t\tfunction getBalance() public v...\n      JUMPI \t\t\tfunction getBalance() public v...\n      PUSH 0\t\t\tfunction getBalance() public v...\n      DUP1 \t\t\tfunction getBalance() public v...\n      REVERT \t\t\tfunction getBalance() public v...\n    tag 6\t\t\tfunction getBalance() public v...\n      JUMPDEST \t\t\tfunction getBalance() public v...\n      POP \t\t\tfunction getBalance() public v...\n      PUSH [tag] 7\t\t\tfunction getBalance() public v...\n      PUSH [tag] 8\t\t\tfunction getBalance() public v...\n      JUMP \t\t\tfunction getBalance() public v...\n    tag 7\t\t\tfunction getBalance() public v...\n      JUMPDEST \t\t\tfunction getBalance() public v...\n      PUSH 40\t\t\tfunction getBalance() public v...\n      MLOAD \t\t\tfunction getBalance() public v...\n      PUSH [tag] 9\t\t\tfunction getBalance() public v...\n      SWAP2 \t\t\tfunction getBalance() public v...\n      SWAP1 \t\t\tfunction getBalance() public v...\n      PUSH [tag] 10\t\t\tfunction getBalance() public v...\n      JUMP \t\t\tfunction getBalance() public v...\n    tag 9\t\t\tfunction getBalance() public v...\n      JUMPDEST \t\t\tfunction getBalance() public v...\n      PUSH 40\t\t\tfunction getBalance() public v...\n      MLOAD \t\t\tfunction getBalance() public v...\n      DUP1 \t\t\tfunction getBalance() public v...\n      SWAP2 \t\t\tfunction getBalance() public v...\n      SUB \t\t\tfunction getBalance() public v...\n      SWAP1 \t\t\tfunction getBalance() public v...\n      RETURN \t\t\tfunction getBalance() public v...\n    tag 3\t\t\tfunction paymentCheck(address ...\n      JUMPDEST \t\t\tfunction paymentCheck(address ...\n      CALLVALUE \t\t\tfunction paymentCheck(address ...\n      DUP1 \t\t\tfunction paymentCheck(address ...\n      ISZERO \t\t\tfunction paymentCheck(address ...\n      PUSH [tag] 11\t\t\tfunction paymentCheck(address ...\n      JUMPI \t\t\tfunction paymentCheck(address ...\n      PUSH 0\t\t\tfunction paymentCheck(address ...\n      DUP1 \t\t\tfunction paymentCheck(address ...\n      REVERT \t\t\tfunction paymentCheck(address ...\n    tag 11\t\t\tfunction paymentCheck(address ...\n      JUMPDEST \t\t\tfunction paymentCheck(address ...\n      POP \t\t\tfunction paymentCheck(address ...\n      PUSH [tag] 12\t\t\tfunction paymentCheck(address ...\n      PUSH 4\t\t\tfunction paymentCheck(address ...\n      DUP1 \t\t\tfunction paymentCheck(address ...\n      CALLDATASIZE \t\t\tfunction paymentCheck(address ...\n      SUB \t\t\tfunction paymentCheck(address ...\n      DUP2 \t\t\tfunction paymentCheck(address ...\n      ADD \t\t\tfunction paymentCheck(address ...\n      SWAP1 \t\t\tfunction paymentCheck(address ...\n      PUSH [tag] 13\t\t\tfunction paymentCheck(address ...\n      SWAP2 \t\t\tfunction paymentCheck(address ...\n      SWAP1 \t\t\tfunction paymentCheck(address ...\n      PUSH [tag] 14\t\t\tfunction paymentCheck(address ...\n      JUMP \t\t\tfunction paymentCheck(address ...\n    tag 13\t\t\tfunction paymentCheck(address ...\n      JUMPDEST \t\t\tfunction paymentCheck(address ...\n      PUSH [tag] 15\t\t\tfunction paymentCheck(address ...\n      JUMP \t\t\tfunction paymentCheck(address ...\n    tag 12\t\t\tfunction paymentCheck(address ...\n      JUMPDEST \t\t\tfunction paymentCheck(address ...\n      STOP \t\t\tfunction paymentCheck(address ...\n    tag 4\t\t\tfunction userCheckStatus(addre...\n      JUMPDEST \t\t\tfunction userCheckStatus(addre...\n      CALLVALUE \t\t\tfunction userCheckStatus(addre...\n      DUP1 \t\t\tfunction userCheckStatus(addre...\n      ISZERO \t\t\tfunction userCheckStatus(addre...\n      PUSH [tag] 16\t\t\tfunction userCheckStatus(addre...\n      JUMPI \t\t\tfunction userCheckStatus(addre...\n      PUSH 0\t\t\tfunction userCheckStatus(addre...\n      DUP1 \t\t\tfunction userCheckStatus(addre...\n      REVERT \t\t\tfunction userCheckStatus(addre...\n    tag 16\t\t\tfunction userCheckStatus(addre...\n      JUMPDEST \t\t\tfunction userCheckStatus(addre...\n      POP \t\t\tfunction userCheckStatus(addre...\n      PUSH [tag] 17\t\t\tfunction userCheckStatus(addre...\n      PUSH 4\t\t\tfunction userCheckStatus(addre...\n      DUP1 \t\t\tfunction userCheckStatus(addre...\n      CALLDATASIZE \t\t\tfunction userCheckStatus(addre...\n      SUB \t\t\tfunction userCheckStatus(addre...\n      DUP2 \t\t\tfunction userCheckStatus(addre...\n      ADD \t\t\tfunction userCheckStatus(addre...\n      SWAP1 \t\t\tfunction userCheckStatus(addre...\n      PUSH [tag] 18\t\t\tfunction userCheckStatus(addre...\n      SWAP2 \t\t\tfunction userCheckStatus(addre...\n      SWAP1 \t\t\tfunction userCheckStatus(addre...\n      PUSH [tag] 19\t\t\tfunction userCheckStatus(addre...\n      JUMP \t\t\tfunction userCheckStatus(addre...\n    tag 18\t\t\tfunction userCheckStatus(addre...\n      JUMPDEST \t\t\tfunction userCheckStatus(addre...\n      PUSH [tag] 20\t\t\tfunction userCheckStatus(addre...\n      JUMP \t\t\tfunction userCheckStatus(addre...\n    tag 17\t\t\tfunction userCheckStatus(addre...\n      JUMPDEST \t\t\tfunction userCheckStatus(addre...\n      PUSH 40\t\t\tfunction userCheckStatus(addre...\n      MLOAD \t\t\tfunction userCheckStatus(addre...\n      PUSH [tag] 21\t\t\tfunction userCheckStatus(addre...\n      SWAP2 \t\t\tfunction userCheckStatus(addre...\n      SWAP1 \t\t\tfunction userCheckStatus(addre...\n      PUSH [tag] 22\t\t\tfunction userCheckStatus(addre...\n      JUMP \t\t\tfunction userCheckStatus(addre...\n    tag 21\t\t\tfunction userCheckStatus(addre...\n      JUMPDEST \t\t\tfunction userCheckStatus(addre...\n      PUSH 40\t\t\tfunction userCheckStatus(addre...\n      MLOAD \t\t\tfunction userCheckStatus(addre...\n      DUP1 \t\t\tfunction userCheckStatus(addre...\n      SWAP2 \t\t\tfunction userCheckStatus(addre...\n      SUB \t\t\tfunction userCheckStatus(addre...\n      SWAP1 \t\t\tfunction userCheckStatus(addre...\n      RETURN \t\t\tfunction userCheckStatus(addre...\n    tag 5\t\t\tfunction pay(address _receipen...\n      JUMPDEST \t\t\tfunction pay(address _receipen...\n      PUSH [tag] 23\t\t\tfunction pay(address _receipen...\n      PUSH 4\t\t\tfunction pay(address _receipen...\n      DUP1 \t\t\tfunction pay(address _receipen...\n      CALLDATASIZE \t\t\tfunction pay(address _receipen...\n      SUB \t\t\tfunction pay(address _receipen...\n      DUP2 \t\t\tfunction pay(address _receipen...\n      ADD \t\t\tfunction pay(address _receipen...\n      SWAP1 \t\t\tfunction pay(address _receipen...\n      PUSH [tag] 24\t\t\tfunction pay(address _receipen...\n      SWAP2 \t\t\tfunction pay(address _receipen...\n      SWAP1 \t\t\tfunction pay(address _receipen...\n      PUSH [tag] 25\t\t\tfunction pay(address _receipen...\n      JUMP \t\t\tfunction pay(address _receipen...\n    tag 24\t\t\tfunction pay(address _receipen...\n      JUMPDEST \t\t\tfunction pay(address _receipen...\n      PUSH [tag] 26\t\t\tfunction pay(address _receipen...\n      JUMP \t\t\tfunction pay(address _receipen...\n    tag 23\t\t\tfunction pay(address _receipen...\n      JUMPDEST \t\t\tfunction pay(address _receipen...\n      STOP \t\t\tfunction pay(address _receipen...\n    tag 8\t\t\tfunction getBalance() public v...\n      JUMPDEST \t\t\tfunction getBalance() public v...\n      PUSH 0\t\t\tuint256\n      SELFBALANCE \t\t\taddress(this).balance\n      SWAP1 \t\t\treturn address(this).balance\n      POP \t\t\treturn address(this).balance\n      SWAP1 \t\t\tfunction getBalance() public v...\n      JUMP \t\t\tfunction getBalance() public v...\n    tag 15\t\t\tfunction paymentCheck(address ...\n      JUMPDEST \t\t\tfunction paymentCheck(address ...\n      PUSH 0\t\t\tbool payCheck\n      DUP1 \t\t\t_paymentStatus\n      PUSH 0\t\t\t_paymentStatus[usersAddress]\n      DUP6 \t\t\tusersAddress\n      PUSH FFFFFFFFFFFFFFFFFFFFFFFFFFFFFFFFFFFFFFFF\t\t\t_paymentStatus[usersAddress]\n      AND \t\t\t_paymentStatus[usersAddress]\n      PUSH FFFFFFFFFFFFFFFFFFFFFFFFFFFFFFFFFFFFFFFF\t\t\t_paymentStatus[usersAddress]\n      AND \t\t\t_paymentStatus[usersAddress]\n      DUP2 \t\t\t_paymentStatus[usersAddress]\n      MSTORE \t\t\t_paymentStatus[usersAddress]\n      PUSH 20\t\t\t_paymentStatus[usersAddress]\n      ADD \t\t\t_paymentStatus[usersAddress]\n      SWAP1 \t\t\t_paymentStatus[usersAddress]\n      DUP2 \t\t\t_paymentStatus[usersAddress]\n      MSTORE \t\t\t_paymentStatus[usersAddress]\n      PUSH 20\t\t\t_paymentStatus[usersAddress]\n      ADD \t\t\t_paymentStatus[usersAddress]\n      PUSH 0\t\t\t_paymentStatus[usersAddress]\n      KECCAK256 \t\t\t_paymentStatus[usersAddress]\n      PUSH 0\t\t\t_paymentStatus[usersAddress]\n      SWAP1 \t\t\t_paymentStatus[usersAddress]\n      SLOAD \t\t\t_paymentStatus[usersAddress]\n      SWAP1 \t\t\t_paymentStatus[usersAddress]\n      PUSH 100\t\t\t_paymentStatus[usersAddress]\n      EXP \t\t\t_paymentStatus[usersAddress]\n      SWAP1 \t\t\t_paymentStatus[usersAddress]\n      DIV \t\t\t_paymentStatus[usersAddress]\n      PUSH FF\t\t\t_paymentStatus[usersAddress]\n      AND \t\t\t_paymentStatus[usersAddress]\n      SWAP1 \t\t\tbool payCheck = _paymentStatus...\n      POP \t\t\tbool payCheck = _paymentStatus...\n      PUSH 1\t\t\ttrue\n      ISZERO \t\t\tpayCheck != true\n      ISZERO \t\t\tpayCheck != true\n      DUP2 \t\t\tpayCheck\n      ISZERO \t\t\tpayCheck != true\n      ISZERO \t\t\tpayCheck != true\n      EQ \t\t\tpayCheck != true\n      PUSH [tag] 29\t\t\tif(payCheck != true){\\r\\n\\r\\n ...\n      JUMPI \t\t\tif(payCheck != true){\\r\\n\\r\\n ...\n      PUSH 1\t\t\ttrue\n      PUSH 0\t\t\t_paymentStatus\n      DUP1 \t\t\t_paymentStatus[usersAddress]\n      DUP7 \t\t\tusersAddress\n      PUSH FFFFFFFFFFFFFFFFFFFFFFFFFFFFFFFFFFFFFFFF\t\t\t_paymentStatus[usersAddress]\n      AND \t\t\t_paymentStatus[usersAddress]\n      PUSH FFFFFFFFFFFFFFFFFFFFFFFFFFFFFFFFFFFFFFFF\t\t\t_paymentStatus[usersAddress]\n      AND \t\t\t_paymentStatus[usersAddress]\n      DUP2 \t\t\t_paymentStatus[usersAddress]\n      MSTORE \t\t\t_paymentStatus[usersAddress]\n      PUSH 20\t\t\t_paymentStatus[usersAddress]\n      ADD \t\t\t_paymentStatus[usersAddress]\n      SWAP1 \t\t\t_paymentStatus[usersAddress]\n      DUP2 \t\t\t_paymentStatus[usersAddress]\n      MSTORE \t\t\t_paymentStatus[usersAddress]\n      PUSH 20\t\t\t_paymentStatus[usersAddress]\n      ADD \t\t\t_paymentStatus[usersAddress]\n      PUSH 0\t\t\t_paymentStatus[usersAddress]\n      KECCAK256 \t\t\t_paymentStatus[usersAddress]\n      PUSH 0\t\t\t_paymentStatus[usersAddress]\n      PUSH 100\t\t\t_paymentStatus[usersAddress] =...\n      EXP \t\t\t_paymentStatus[usersAddress] =...\n      DUP2 \t\t\t_paymentStatus[usersAddress] =...\n      SLOAD \t\t\t_paymentStatus[usersAddress] =...\n      DUP2 \t\t\t_paymentStatus[usersAddress] =...\n      PUSH FF\t\t\t_paymentStatus[usersAddress] =...\n      MUL \t\t\t_paymentStatus[usersAddress] =...\n      NOT \t\t\t_paymentStatus[usersAddress] =...\n      AND \t\t\t_paymentStatus[usersAddress] =...\n      SWAP1 \t\t\t_paymentStatus[usersAddress] =...\n      DUP4 \t\t\t_paymentStatus[usersAddress] =...\n      ISZERO \t\t\t_paymentStatus[usersAddress] =...\n      ISZERO \t\t\t_paymentStatus[usersAddress] =...\n      MUL \t\t\t_paymentStatus[usersAddress] =...\n      OR \t\t\t_paymentStatus[usersAddress] =...\n      SWAP1 \t\t\t_paymentStatus[usersAddress] =...\n      SSTORE \t\t\t_paymentStatus[usersAddress] =...\n      POP \t\t\t_paymentStatus[usersAddress] =...\n      DUP3 \t\t\t_amount\n      PUSH 1\t\t\t_paymentAmount\n      PUSH 0\t\t\t_paymentAmount[usersAddress]\n      DUP7 \t\t\tusersAddress\n      PUSH FFFFFFFFFFFFFFFFFFFFFFFFFFFFFFFFFFFFFFFF\t\t\t_paymentAmount[usersAddress]\n      AND \t\t\t_paymentAmount[usersAddress]\n      PUSH FFFFFFFFFFFFFFFFFFFFFFFFFFFFFFFFFFFFFFFF\t\t\t_paymentAmount[usersAddress]\n      AND \t\t\t_paymentAmount[usersAddress]\n      DUP2 \t\t\t_paymentAmount[usersAddress]\n      MSTORE \t\t\t_paymentAmount[usersAddress]\n      PUSH 20\t\t\t_paymentAmount[usersAddress]\n      ADD \t\t\t_paymentAmount[usersAddress]\n      SWAP1 \t\t\t_paymentAmount[usersAddress]\n      DUP2 \t\t\t_paymentAmount[usersAddress]\n      MSTORE \t\t\t_paymentAmount[usersAddress]\n      PUSH 20\t\t\t_paymentAmount[usersAddress]\n      ADD \t\t\t_paymentAmount[usersAddress]\n      PUSH 0\t\t\t_paymentAmount[usersAddress]\n      KECCAK256 \t\t\t_paymentAmount[usersAddress]\n      DUP2 \t\t\t_paymentAmount[usersAddress] =...\n      SWAP1 \t\t\t_paymentAmount[usersAddress] =...\n      SSTORE \t\t\t_paymentAmount[usersAddress] =...\n      POP \t\t\t_paymentAmount[usersAddress] =...\n      PUSH 40\t\t\tbytes(\"Monthly\")\n      MLOAD \t\t\tbytes(\"Monthly\")\n      DUP1 \t\t\tbytes(\"Monthly\")\n      PUSH 40\t\t\tbytes(\"Monthly\")\n      ADD \t\t\tbytes(\"Monthly\")\n      PUSH 40\t\t\tbytes(\"Monthly\")\n      MSTORE \t\t\tbytes(\"Monthly\")\n      DUP1 \t\t\tbytes(\"Monthly\")\n      PUSH 7\t\t\tbytes(\"Monthly\")\n      DUP2 \t\t\tbytes(\"Monthly\")\n      MSTORE \t\t\tbytes(\"Monthly\")\n      PUSH 20\t\t\tbytes(\"Monthly\")\n      ADD \t\t\tbytes(\"Monthly\")\n      PUSH 4D6F6E74686C7900000000000000000000000000000000000000000000000000\t\t\tbytes(\"Monthly\")\n      DUP2 \t\t\tbytes(\"Monthly\")\n      MSTORE \t\t\tbytes(\"Monthly\")\n      POP \t\t\tbytes(\"Monthly\")\n      DUP1 \t\t\tkeccak256(bytes(\"Monthly\"))\n      MLOAD \t\t\tkeccak256(bytes(\"Monthly\"))\n      SWAP1 \t\t\tkeccak256(bytes(\"Monthly\"))\n      PUSH 20\t\t\tkeccak256(bytes(\"Monthly\"))\n      ADD \t\t\tkeccak256(bytes(\"Monthly\"))\n      KECCAK256 \t\t\tkeccak256(bytes(\"Monthly\"))\n      DUP3 \t\t\tplanType\n      DUP1 \t\t\tkeccak256(bytes(planType))\n      MLOAD \t\t\tkeccak256(bytes(planType))\n      SWAP1 \t\t\tkeccak256(bytes(planType))\n      PUSH 20\t\t\tkeccak256(bytes(planType))\n      ADD \t\t\tkeccak256(bytes(planType))\n      KECCAK256 \t\t\tkeccak256(bytes(planType))\n      SUB \t\t\tkeccak256(bytes(planType)) == ...\n      PUSH [tag] 30\t\t\tif(keccak256(bytes(planType)) ...\n      JUMPI \t\t\tif(keccak256(bytes(planType)) ...\n      PUSH 278D00\t\t\t30 * 86400\n      PUSH 3\t\t\t_expDate\n      DUP2 \t\t\t_expDate = (30 * 86400)\n      SWAP1 \t\t\t_expDate = (30 * 86400)\n      SSTORE \t\t\t_expDate = (30 * 86400)\n      POP \t\t\t_expDate = (30 * 86400)\n      PUSH [tag] 31\t\t\tif(keccak256(bytes(planType)) ...\n      JUMP \t\t\tif(keccak256(bytes(planType)) ...\n    tag 30\t\t\tif(keccak256(bytes(planType)) ...\n      JUMPDEST \t\t\tif(keccak256(bytes(planType)) ...\n      PUSH 40\t\t\tbytes(\"halfYearly\")\n      MLOAD \t\t\tbytes(\"halfYearly\")\n      DUP1 \t\t\tbytes(\"halfYearly\")\n      PUSH 40\t\t\tbytes(\"halfYearly\")\n      ADD \t\t\tbytes(\"halfYearly\")\n      PUSH 40\t\t\tbytes(\"halfYearly\")\n      MSTORE \t\t\tbytes(\"halfYearly\")\n      DUP1 \t\t\tbytes(\"halfYearly\")\n      PUSH A\t\t\tbytes(\"halfYearly\")\n      DUP2 \t\t\tbytes(\"halfYearly\")\n      MSTORE \t\t\tbytes(\"halfYearly\")\n      PUSH 20\t\t\tbytes(\"halfYearly\")\n      ADD \t\t\tbytes(\"halfYearly\")\n      PUSH 68616C66596561726C7900000000000000000000000000000000000000000000\t\t\tbytes(\"halfYearly\")\n      DUP2 \t\t\tbytes(\"halfYearly\")\n      MSTORE \t\t\tbytes(\"halfYearly\")\n      POP \t\t\tbytes(\"halfYearly\")\n      DUP1 \t\t\tkeccak256(bytes(\"halfYearly\"))\n      MLOAD \t\t\tkeccak256(bytes(\"halfYearly\"))\n      SWAP1 \t\t\tkeccak256(bytes(\"halfYearly\"))\n      PUSH 20\t\t\tkeccak256(bytes(\"halfYearly\"))\n      ADD \t\t\tkeccak256(bytes(\"halfYearly\"))\n      KECCAK256 \t\t\tkeccak256(bytes(\"halfYearly\"))\n      DUP3 \t\t\tplanType\n      DUP1 \t\t\tkeccak256(bytes(planType))\n      MLOAD \t\t\tkeccak256(bytes(planType))\n      SWAP1 \t\t\tkeccak256(bytes(planType))\n      PUSH 20\t\t\tkeccak256(bytes(planType))\n      ADD \t\t\tkeccak256(bytes(planType))\n      KECCAK256 \t\t\tkeccak256(bytes(planType))\n      SUB \t\t\tkeccak256(bytes(planType)) == ...\n      PUSH [tag] 32\t\t\tif(keccak256(bytes(planType)) ...\n      JUMPI \t\t\tif(keccak256(bytes(planType)) ...\n      PUSH ED4E00\t\t\t180 * 86400\n      PUSH 3\t\t\t_expDate\n      DUP2 \t\t\t_expDate = (180 * 86400)\n      SWAP1 \t\t\t_expDate = (180 * 86400)\n      SSTORE \t\t\t_expDate = (180 * 86400)\n      POP \t\t\t_expDate = (180 * 86400)\n      PUSH [tag] 33\t\t\tif(keccak256(bytes(planType)) ...\n      JUMP \t\t\tif(keccak256(bytes(planType)) ...\n    tag 32\t\t\tif(keccak256(bytes(planType)) ...\n      JUMPDEST \t\t\tif(keccak256(bytes(planType)) ...\n      PUSH 40\t\t\tbytes(\"Yearly\")\n      MLOAD \t\t\tbytes(\"Yearly\")\n      DUP1 \t\t\tbytes(\"Yearly\")\n      PUSH 40\t\t\tbytes(\"Yearly\")\n      ADD \t\t\tbytes(\"Yearly\")\n      PUSH 40\t\t\tbytes(\"Yearly\")\n      MSTORE \t\t\tbytes(\"Yearly\")\n      DUP1 \t\t\tbytes(\"Yearly\")\n      PUSH 6\t\t\tbytes(\"Yearly\")\n      DUP2 \t\t\tbytes(\"Yearly\")\n      MSTORE \t\t\tbytes(\"Yearly\")\n      PUSH 20\t\t\tbytes(\"Yearly\")\n      ADD \t\t\tbytes(\"Yearly\")\n      PUSH 596561726C790000000000000000000000000000000000000000000000000000\t\t\tbytes(\"Yearly\")\n      DUP2 \t\t\tbytes(\"Yearly\")\n      MSTORE \t\t\tbytes(\"Yearly\")\n      POP \t\t\tbytes(\"Yearly\")\n      DUP1 \t\t\tkeccak256(bytes(\"Yearly\"))\n      MLOAD \t\t\tkeccak256(bytes(\"Yearly\"))\n      SWAP1 \t\t\tkeccak256(bytes(\"Yearly\"))\n      PUSH 20\t\t\tkeccak256(bytes(\"Yearly\"))\n      ADD \t\t\tkeccak256(bytes(\"Yearly\"))\n      KECCAK256 \t\t\tkeccak256(bytes(\"Yearly\"))\n      DUP3 \t\t\tplanType\n      DUP1 \t\t\tkeccak256(bytes(planType))\n      MLOAD \t\t\tkeccak256(bytes(planType))\n      SWAP1 \t\t\tkeccak256(bytes(planType))\n      PUSH 20\t\t\tkeccak256(bytes(planType))\n      ADD \t\t\tkeccak256(bytes(planType))\n      KECCAK256 \t\t\tkeccak256(bytes(planType))\n      SUB \t\t\tkeccak256(bytes(planType)) == ...\n      PUSH [tag] 34\t\t\tif(keccak256(bytes(planType)) ...\n      JUMPI \t\t\tif(keccak256(bytes(planType)) ...\n      PUSH 1E13380\t\t\t365 * 86400\n      PUSH 3\t\t\t_expDate\n      DUP2 \t\t\t_expDate = (365 * 86400)\n      SWAP1 \t\t\t_expDate = (365 * 86400)\n      SSTORE \t\t\t_expDate = (365 * 86400)\n      POP \t\t\t_expDate = (365 * 86400)\n    tag 34\t\t\tif(keccak256(bytes(planType)) ...\n      JUMPDEST \t\t\tif(keccak256(bytes(planType)) ...\n    tag 33\t\t\tif(keccak256(bytes(planType)) ...\n      JUMPDEST \t\t\tif(keccak256(bytes(planType)) ...\n    tag 31\t\t\tif(keccak256(bytes(planType)) ...\n      JUMPDEST \t\t\tif(keccak256(bytes(planType)) ...\n      PUSH 3\t\t\t_expDate\n      SLOAD \t\t\t_expDate\n      TIMESTAMP \t\t\tblock.timestamp\n      PUSH [tag] 35\t\t\tblock.timestamp + _expDate\n      SWAP2 \t\t\tblock.timestamp + _expDate\n      SWAP1 \t\t\tblock.timestamp + _expDate\n      PUSH [tag] 36\t\t\tblock.timestamp + _expDate\n      JUMP \t\t\tblock.timestamp + _expDate\n    tag 35\t\t\tblock.timestamp + _expDate\n      JUMPDEST \t\t\tblock.timestamp + _expDate\n      PUSH 2\t\t\t_paymentDate\n      PUSH 0\t\t\t_paymentDate[usersAddress]\n      DUP7 \t\t\tusersAddress\n      PUSH FFFFFFFFFFFFFFFFFFFFFFFFFFFFFFFFFFFFFFFF\t\t\t_paymentDate[usersAddress]\n      AND \t\t\t_paymentDate[usersAddress]\n      PUSH FFFFFFFFFFFFFFFFFFFFFFFFFFFFFFFFFFFFFFFF\t\t\t_paymentDate[usersAddress]\n      AND \t\t\t_paymentDate[usersAddress]\n      DUP2 \t\t\t_paymentDate[usersAddress]\n      MSTORE \t\t\t_paymentDate[usersAddress]\n      PUSH 20\t\t\t_paymentDate[usersAddress]\n      ADD \t\t\t_paymentDate[usersAddress]\n      SWAP1 \t\t\t_paymentDate[usersAddress]\n      DUP2 \t\t\t_paymentDate[usersAddress]\n      MSTORE \t\t\t_paymentDate[usersAddress]\n      PUSH 20\t\t\t_paymentDate[usersAddress]\n      ADD \t\t\t_paymentDate[usersAddress]\n      PUSH 0\t\t\t_paymentDate[usersAddress]\n      KECCAK256 \t\t\t_paymentDate[usersAddress]\n      DUP2 \t\t\t_paymentDate[usersAddress]   =...\n      SWAP1 \t\t\t_paymentDate[usersAddress]   =...\n      SSTORE \t\t\t_paymentDate[usersAddress]   =...\n      POP \t\t\t_paymentDate[usersAddress]   =...\n      PUSH [tag] 37\t\t\tif(payCheck != true){\\r\\n\\r\\n ...\n      JUMP \t\t\tif(payCheck != true){\\r\\n\\r\\n ...\n    tag 29\t\t\tif(payCheck != true){\\r\\n\\r\\n ...\n      JUMPDEST \t\t\tif(payCheck != true){\\r\\n\\r\\n ...\n      PUSH 40\t\t\trevert(\"user is already paid!\"...\n      MLOAD \t\t\trevert(\"user is already paid!\"...\n      PUSH 8C379A000000000000000000000000000000000000000000000000000000000\t\t\trevert(\"user is already paid!\"...\n      DUP2 \t\t\trevert(\"user is already paid!\"...\n      MSTORE \t\t\trevert(\"user is already paid!\"...\n      PUSH 4\t\t\trevert(\"user is already paid!\"...\n      ADD \t\t\trevert(\"user is already paid!\"...\n      PUSH [tag] 38\t\t\trevert(\"user is already paid!\"...\n      SWAP1 \t\t\trevert(\"user is already paid!\"...\n      PUSH [tag] 39\t\t\trevert(\"user is already paid!\"...\n      JUMP \t\t\trevert(\"user is already paid!\"...\n    tag 38\t\t\trevert(\"user is already paid!\"...\n      JUMPDEST \t\t\trevert(\"user is already paid!\"...\n      PUSH 40\t\t\trevert(\"user is already paid!\"...\n      MLOAD \t\t\trevert(\"user is already paid!\"...\n      DUP1 \t\t\trevert(\"user is already paid!\"...\n      SWAP2 \t\t\trevert(\"user is already paid!\"...\n      SUB \t\t\trevert(\"user is already paid!\"...\n      SWAP1 \t\t\trevert(\"user is already paid!\"...\n      REVERT \t\t\trevert(\"user is already paid!\"...\n    tag 37\t\t\tif(payCheck != true){\\r\\n\\r\\n ...\n      JUMPDEST \t\t\tif(payCheck != true){\\r\\n\\r\\n ...\n      POP \t\t\t{\\r\\n\\r\\n        bool payCheck...\n      POP \t\t\tfunction paymentCheck(address ...\n      POP \t\t\tfunction paymentCheck(address ...\n      POP \t\t\tfunction paymentCheck(address ...\n      JUMP \t\t\tfunction paymentCheck(address ...\n    tag 20\t\t\tfunction userCheckStatus(addre...\n      JUMPDEST \t\t\tfunction userCheckStatus(addre...\n      PUSH [tag] 40\t\t\tuint256[3] memory\n      PUSH [tag] 41\t\t\tuint256[3] memory\n      JUMP \t\t\tuint256[3] memory\n    tag 40\t\t\tuint256[3] memory\n      JUMPDEST \t\t\tuint256[3] memory\n      PUSH 0\t\t\tuint256 paymentStatus\n      DUP1 \t\t\t_paymentStatus\n      PUSH 0\t\t\t_paymentStatus[_receipent]\n      DUP5 \t\t\t_receipent\n      PUSH FFFFFFFFFFFFFFFFFFFFFFFFFFFFFFFFFFFFFFFF\t\t\t_paymentStatus[_receipent]\n      AND \t\t\t_paymentStatus[_receipent]\n      PUSH FFFFFFFFFFFFFFFFFFFFFFFFFFFFFFFFFFFFFFFF\t\t\t_paymentStatus[_receipent]\n      AND \t\t\t_paymentStatus[_receipent]\n      DUP2 \t\t\t_paymentStatus[_receipent]\n      MSTORE \t\t\t_paymentStatus[_receipent]\n      PUSH 20\t\t\t_paymentStatus[_receipent]\n      ADD \t\t\t_paymentStatus[_receipent]\n      SWAP1 \t\t\t_paymentStatus[_receipent]\n      DUP2 \t\t\t_paymentStatus[_receipent]\n      MSTORE \t\t\t_paymentStatus[_receipent]\n      PUSH 20\t\t\t_paymentStatus[_receipent]\n      ADD \t\t\t_paymentStatus[_receipent]\n      PUSH 0\t\t\t_paymentStatus[_receipent]\n      KECCAK256 \t\t\t_paymentStatus[_receipent]\n      PUSH 0\t\t\t_paymentStatus[_receipent]\n      SWAP1 \t\t\t_paymentStatus[_receipent]\n      SLOAD \t\t\t_paymentStatus[_receipent]\n      SWAP1 \t\t\t_paymentStatus[_receipent]\n      PUSH 100\t\t\t_paymentStatus[_receipent]\n      EXP \t\t\t_paymentStatus[_receipent]\n      SWAP1 \t\t\t_paymentStatus[_receipent]\n      DIV \t\t\t_paymentStatus[_receipent]\n      PUSH FF\t\t\t_paymentStatus[_receipent]\n      AND \t\t\t_paymentStatus[_receipent]\n      PUSH [tag] 43\t\t\t_paymentStatus[_receipent] ? 1...\n      JUMPI \t\t\t_paymentStatus[_receipent] ? 1...\n      PUSH 0\t\t\t0\n      PUSH [tag] 44\t\t\t_paymentStatus[_receipent] ? 1...\n      JUMP \t\t\t_paymentStatus[_receipent] ? 1...\n    tag 43\t\t\t_paymentStatus[_receipent] ? 1...\n      JUMPDEST \t\t\t_paymentStatus[_receipent] ? 1...\n      PUSH 1\t\t\t1\n    tag 44\t\t\t_paymentStatus[_receipent] ? 1...\n      JUMPDEST \t\t\t_paymentStatus[_receipent] ? 1...\n      PUSH FF\t\t\tuint256 paymentStatus = _payme...\n      AND \t\t\tuint256 paymentStatus = _payme...\n      SWAP1 \t\t\tuint256 paymentStatus = _payme...\n      POP \t\t\tuint256 paymentStatus = _payme...\n      PUSH 40\t\t\treturn  [paymentStatus,_paymen...\n      MLOAD \t\t\treturn  [paymentStatus,_paymen...\n      DUP1 \t\t\treturn  [paymentStatus,_paymen...\n      PUSH 60\t\t\treturn  [paymentStatus,_paymen...\n      ADD \t\t\treturn  [paymentStatus,_paymen...\n      PUSH 40\t\t\treturn  [paymentStatus,_paymen...\n      MSTORE \t\t\treturn  [paymentStatus,_paymen...\n      DUP1 \t\t\treturn  [paymentStatus,_paymen...\n      DUP3 \t\t\tpaymentStatus\n      DUP2 \t\t\treturn  [paymentStatus,_paymen...\n      MSTORE \t\t\treturn  [paymentStatus,_paymen...\n      PUSH 20\t\t\treturn  [paymentStatus,_paymen...\n      ADD \t\t\treturn  [paymentStatus,_paymen...\n      PUSH 1\t\t\t_paymentAmount\n      PUSH 0\t\t\t_paymentAmount[_receipent]\n      DUP7 \t\t\t_receipent\n      PUSH FFFFFFFFFFFFFFFFFFFFFFFFFFFFFFFFFFFFFFFF\t\t\t_paymentAmount[_receipent]\n      AND \t\t\t_paymentAmount[_receipent]\n      PUSH FFFFFFFFFFFFFFFFFFFFFFFFFFFFFFFFFFFFFFFF\t\t\t_paymentAmount[_receipent]\n      AND \t\t\t_paymentAmount[_receipent]\n      DUP2 \t\t\t_paymentAmount[_receipent]\n      MSTORE \t\t\t_paymentAmount[_receipent]\n      PUSH 20\t\t\t_paymentAmount[_receipent]\n      ADD \t\t\t_paymentAmount[_receipent]\n      SWAP1 \t\t\t_paymentAmount[_receipent]\n      DUP2 \t\t\t_paymentAmount[_receipent]\n      MSTORE \t\t\t_paymentAmount[_receipent]\n      PUSH 20\t\t\t_paymentAmount[_receipent]\n      ADD \t\t\t_paymentAmount[_receipent]\n      PUSH 0\t\t\t_paymentAmount[_receipent]\n      KECCAK256 \t\t\t_paymentAmount[_receipent]\n      SLOAD \t\t\t_paymentAmount[_receipent]\n      DUP2 \t\t\treturn  [paymentStatus,_paymen...\n      MSTORE \t\t\treturn  [paymentStatus,_paymen...\n      PUSH 20\t\t\treturn  [paymentStatus,_paymen...\n      ADD \t\t\treturn  [paymentStatus,_paymen...\n      PUSH 2\t\t\t_paymentDate\n      PUSH 0\t\t\t_paymentDate[_receipent]\n      DUP7 \t\t\t_receipent\n      PUSH FFFFFFFFFFFFFFFFFFFFFFFFFFFFFFFFFFFFFFFF\t\t\t_paymentDate[_receipent]\n      AND \t\t\t_paymentDate[_receipent]\n      PUSH FFFFFFFFFFFFFFFFFFFFFFFFFFFFFFFFFFFFFFFF\t\t\t_paymentDate[_receipent]\n      AND \t\t\t_paymentDate[_receipent]\n      DUP2 \t\t\t_paymentDate[_receipent]\n      MSTORE \t\t\t_paymentDate[_receipent]\n      PUSH 20\t\t\t_paymentDate[_receipent]\n      ADD \t\t\t_paymentDate[_receipent]\n      SWAP1 \t\t\t_paymentDate[_receipent]\n      DUP2 \t\t\t_paymentDate[_receipent]\n      MSTORE \t\t\t_paymentDate[_receipent]\n      PUSH 20\t\t\t_paymentDate[_receipent]\n      ADD \t\t\t_paymentDate[_receipent]\n      PUSH 0\t\t\t_paymentDate[_receipent]\n      KECCAK256 \t\t\t_paymentDate[_receipent]\n      SLOAD \t\t\t_paymentDate[_receipent]\n      DUP2 \t\t\treturn  [paymentStatus,_paymen...\n      MSTORE \t\t\treturn  [paymentStatus,_paymen...\n      POP \t\t\treturn  [paymentStatus,_paymen...\n      SWAP2 \t\t\treturn  [paymentStatus,_paymen...\n      POP \t\t\treturn  [paymentStatus,_paymen...\n      POP \t\t\treturn  [paymentStatus,_paymen...\n      SWAP2 \t\t\tfunction userCheckStatus(addre...\n      SWAP1 \t\t\tfunction userCheckStatus(addre...\n      POP \t\t\tfunction userCheckStatus(addre...\n      JUMP \t\t\tfunction userCheckStatus(addre...\n    tag 26\t\t\tfunction pay(address _receipen...\n      JUMPDEST \t\t\tfunction pay(address _receipen...\n      PUSH 0\t\t\t0\n      CALLVALUE \t\t\tmsg.value\n      GT \t\t\tmsg.value > 0\n      PUSH [tag] 46\t\t\trequire(msg.value > 0, \"You mu...\n      JUMPI \t\t\trequire(msg.value > 0, \"You mu...\n      PUSH 40\t\t\trequire(msg.value > 0, \"You mu...\n      MLOAD \t\t\trequire(msg.value > 0, \"You mu...\n      PUSH 8C379A000000000000000000000000000000000000000000000000000000000\t\t\trequire(msg.value > 0, \"You mu...\n      DUP2 \t\t\trequire(msg.value > 0, \"You mu...\n      MSTORE \t\t\trequire(msg.value > 0, \"You mu...\n      PUSH 4\t\t\trequire(msg.value > 0, \"You mu...\n      ADD \t\t\trequire(msg.value > 0, \"You mu...\n      PUSH [tag] 47\t\t\trequire(msg.value > 0, \"You mu...\n      SWAP1 \t\t\trequire(msg.value > 0, \"You mu...\n      PUSH [tag] 48\t\t\trequire(msg.value > 0, \"You mu...\n      JUMP \t\t\trequire(msg.value > 0, \"You mu...\n    tag 47\t\t\trequire(msg.value > 0, \"You mu...\n      JUMPDEST \t\t\trequire(msg.value > 0, \"You mu...\n      PUSH 40\t\t\trequire(msg.value > 0, \"You mu...\n      MLOAD \t\t\trequire(msg.value > 0, \"You mu...\n      DUP1 \t\t\trequire(msg.value > 0, \"You mu...\n      SWAP2 \t\t\trequire(msg.value > 0, \"You mu...\n      SUB \t\t\trequire(msg.value > 0, \"You mu...\n      SWAP1 \t\t\trequire(msg.value > 0, \"You mu...\n      REVERT \t\t\trequire(msg.value > 0, \"You mu...\n    tag 46\t\t\trequire(msg.value > 0, \"You mu...\n      JUMPDEST \t\t\trequire(msg.value > 0, \"You mu...\n      PUSH [tag] 49\t\t\tpaymentCheck(_receipent, msg.v...\n      DUP3 \t\t\t_receipent\n      CALLVALUE \t\t\tmsg.value\n      DUP4 \t\t\t_planType\n      PUSH [tag] 15\t\t\tpaymentCheck\n      JUMP \t\t\tpaymentCheck(_receipent, msg.v...\n    tag 49\t\t\tpaymentCheck(_receipent, msg.v...\n      JUMPDEST \t\t\tpaymentCheck(_receipent, msg.v...\n      POP \t\t\tfunction pay(address _receipen...\n      POP \t\t\tfunction pay(address _receipen...\n      JUMP \t\t\tfunction pay(address _receipen...\n    tag 41\t\t\t\n      JUMPDEST \t\t\t\n      PUSH 40\t\t\t\n      MLOAD \t\t\t\n      DUP1 \t\t\t\n      PUSH 60\t\t\t\n      ADD \t\t\t\n      PUSH 40\t\t\t\n      MSTORE \t\t\t\n      DUP1 \t\t\t\n      PUSH 3\t\t\t\n      SWAP1 \t\t\t\n      PUSH 20\t\t\t\n      DUP3 \t\t\t\n      MUL \t\t\t\n      DUP1 \t\t\t\n      CALLDATASIZE \t\t\t\n      DUP4 \t\t\t\n      CALLDATACOPY \t\t\t\n      DUP1 \t\t\t\n      DUP3 \t\t\t\n      ADD \t\t\t\n      SWAP2 \t\t\t\n      POP \t\t\t\n      POP \t\t\t\n      SWAP1 \t\t\t\n      POP \t\t\t\n      POP \t\t\t\n      SWAP1 \t\t\t\n      JUMP \t\t\t\n    tag 50\t\t\t-License-Identifier: GPL-3.0\\r...\n      JUMPDEST \t\t\t-License-Identifier: GPL-3.0\\r...\n      PUSH 0\t\t\tsolidit\n      DUP2 \t\t\tcontr\n      SWAP1 \t\t\t<0.9.0;\\r\\n\\r\\ncontr\n      POP \t\t\t<0.9.0;\\r\\n\\r\\ncontr\n      SWAP2 \t\t\t-License-Identifier: GPL-3.0\\r...\n      SWAP1 \t\t\t-License-Identifier: GPL-3.0\\r...\n      POP \t\t\t-License-Identifier: GPL-3.0\\r...\n      JUMP \t\t\t-License-Identifier: GPL-3.0\\r...\n    tag 51\t\t\treaUsers {\\r\\n\\r\\n    mapping(...\n      JUMPDEST \t\t\treaUsers {\\r\\n\\r\\n    mapping(...\n      PUSH [tag] 87\t\t\tuint256) private _paymen\n      DUP2 \t\t\tpayme\n      PUSH [tag] 50\t\t\tuint256) private _paymen\n      JUMP \t\t\tuint256) private _paymen\n    tag 87\t\t\tuint256) private _paymen\n      JUMPDEST \t\t\tuint256) private _paymen\n      DUP3 \t\t\tess\n      MSTORE \t\t\tng(address=>uint256) private _...\n      POP \t\t\treaUsers {\\r\\n\\r\\n    mapping(...\n      POP \t\t\treaUsers {\\r\\n\\r\\n    mapping(...\n      JUMP \t\t\treaUsers {\\r\\n\\r\\n    mapping(...\n    tag 10\t\t\t mapping(address=>uint256) pri...\n      JUMPDEST \t\t\t mapping(address=>uint256) pri...\n      PUSH 0\t\t\t] pr\n      PUSH 20\t\t\tto\n      DUP3 \t\t\t   constr\n      ADD \t\t\t\\n\\r\\n    constructor\n      SWAP1 \t\t\tStatus;\\r\\n\\r\\n    constructor\n      POP \t\t\tStatus;\\r\\n\\r\\n    constructor\n      PUSH [tag] 89\t\t\t   }\\r\\n\\r\\n    /**\\r\\n    *\\r...\n      PUSH 0\t\t\te\n      DUP4 \t\t\t(address \n      ADD \t\t\theck(address user\n      DUP5 \t\t\t payme\n      PUSH [tag] 51\t\t\t   }\\r\\n\\r\\n    /**\\r\\n    *\\r...\n      JUMP \t\t\t   }\\r\\n\\r\\n    /**\\r\\n    *\\r...\n    tag 89\t\t\t   }\\r\\n\\r\\n    /**\\r\\n    *\\r...\n      JUMPDEST \t\t\t   }\\r\\n\\r\\n    /**\\r\\n    *\\r...\n      SWAP3 \t\t\t mapping(address=>uint256) pri...\n      SWAP2 \t\t\t mapping(address=>uint256) pri...\n      POP \t\t\t mapping(address=>uint256) pri...\n      POP \t\t\t mapping(address=>uint256) pri...\n      JUMP \t\t\t mapping(address=>uint256) pri...\n    tag 52\t\t\t256 _amount, string memory pla...\n      JUMPDEST \t\t\t256 _amount, string memory pla...\n      PUSH 0\t\t\tpe) pu\n      PUSH 40\t\t\tec\n      MLOAD \t\t\t payCheck\n      SWAP1 \t\t\t      bool payCheck\n      POP \t\t\t      bool payCheck\n      SWAP1 \t\t\t256 _amount, string memory pla...\n      JUMP \t\t\t256 _amount, string memory pla...\n    tag 53\t\t\ttatus[usersAddress];\\r\\n\\r\\n  ...\n      JUMPDEST \t\t\ttatus[usersAddress];\\r\\n\\r\\n  ...\n      PUSH 0\t\t\t \n      DUP1 \t\t\t\\n\n      REVERT \t\t\t true;\\r\\n    \n    tag 54\t\t\tmentAmount[usersAddress] = _am...\n      JUMPDEST \t\t\tmentAmount[usersAddress] = _am...\n      PUSH 0\t\t\t)\n      DUP1 \t\t\tl\n      REVERT \t\t\t(\"Monthly\"))\n    tag 55\t\t\t        _expDate = (30 * 86400...\n      JUMPDEST \t\t\t        _expDate = (30 * 86400...\n      PUSH 0\t\t\t       \n      PUSH FFFFFFFFFFFFFFFFFFFFFFFFFFFFFFFFFFFFFFFF\t\t\tpe)) == keccak256(bytes(\"halfY...\n      DUP3 \t\t\t(plan\n      AND \t\t\tytes(planType)) == keccak256(b...\n      SWAP1 \t\t\tkeccak256(bytes(planType)) == ...\n      POP \t\t\tkeccak256(bytes(planType)) == ...\n      SWAP2 \t\t\t        _expDate = (30 * 86400...\n      SWAP1 \t\t\t        _expDate = (30 * 86400...\n      POP \t\t\t        _expDate = (30 * 86400...\n      JUMP \t\t\t        _expDate = (30 * 86400...\n    tag 56\t\t\t   _expDate = (180 * 86400);\\r...\n      JUMPDEST \t\t\t   _expDate = (180 * 86400);\\r...\n      PUSH 0\t\t\t     }e\n      PUSH [tag] 95\t\t\t(planType)) == keccak256\n      DUP3 \t\t\tcak25\n      PUSH [tag] 55\t\t\t(planType)) == keccak256\n      JUMP \t\t\t(planType)) == keccak256\n    tag 95\t\t\t(planType)) == keccak256\n      JUMPDEST \t\t\t(planType)) == keccak256\n      SWAP1 \t\t\tak256(bytes(planType)) == kecc...\n      POP \t\t\tak256(bytes(planType)) == kecc...\n      SWAP2 \t\t\t   _expDate = (180 * 86400);\\r...\n      SWAP1 \t\t\t   _expDate = (180 * 86400);\\r...\n      POP \t\t\t   _expDate = (180 * 86400);\\r...\n      JUMP \t\t\t   _expDate = (180 * 86400);\\r...\n    tag 57\t\t\tly\"))){\\r\\n                _ex...\n      JUMPDEST \t\t\tly\"))){\\r\\n                _ex...\n      PUSH [tag] 97\t\t\t        _paymentDate[use\n      DUP2 \t\t\tte[us\n      PUSH [tag] 56\t\t\t        _paymentDate[use\n      JUMP \t\t\t        _paymentDate[use\n    tag 97\t\t\t        _paymentDate[use\n      JUMPDEST \t\t\t        _paymentDate[use\n      DUP2 \t\t\t\\n\\r\\n  \n      EQ \t\t\t }\\r\\n\\r\\n            _payment...\n      PUSH [tag] 98\t\t\t           }\\r\\n\\r\\n          ...\n      JUMPI \t\t\t           }\\r\\n\\r\\n          ...\n      PUSH 0\t\t\tb\n      DUP1 \t\t\t \n      REVERT \t\t\tress]   = bl\n    tag 98\t\t\t           }\\r\\n\\r\\n          ...\n      JUMPDEST \t\t\t           }\\r\\n\\r\\n          ...\n      POP \t\t\tly\"))){\\r\\n                _ex...\n      JUMP \t\t\tly\"))){\\r\\n                _ex...\n    tag 58\t\t\t+ _expDate;\\r\\n\\r\\n        }el...\n      JUMPDEST \t\t\t+ _expDate;\\r\\n\\r\\n        }el...\n      PUSH 0\t\t\tert(\"\n      DUP2 \t\t\t }\\r\\n\\r\\n\n      CALLDATALOAD \t\t\t!\");\\r\\n        }\\r\\n\\r\\n \n      SWAP1 \t\t\teady paid!\");\\r\\n        }\\r\\n...\n      POP \t\t\teady paid!\");\\r\\n        }\\r\\n...\n      PUSH [tag] 100\t\t\t   function userCheckStatus(ad...\n      DUP2 \t\t\t(addr\n      PUSH [tag] 57\t\t\t   function userCheckStatus(ad...\n      JUMP \t\t\t   function userCheckStatus(ad...\n    tag 100\t\t\t   function userCheckStatus(ad...\n      JUMPDEST \t\t\t   function userCheckStatus(ad...\n      SWAP3 \t\t\t+ _expDate;\\r\\n\\r\\n        }el...\n      SWAP2 \t\t\t+ _expDate;\\r\\n\\r\\n        }el...\n      POP \t\t\t+ _expDate;\\r\\n\\r\\n        }el...\n      POP \t\t\t+ _expDate;\\r\\n\\r\\n        }el...\n      JUMP \t\t\t+ _expDate;\\r\\n\\r\\n        }el...\n    tag 59\t\t\tt) public view returns (uint25...\n      JUMPDEST \t\t\tt) public view returns (uint25...\n      PUSH [tag] 102\t\t\tymentStatus = _paymentSt\n      DUP2 \t\t\tmentS\n      PUSH [tag] 50\t\t\tymentStatus = _paymentSt\n      JUMP \t\t\tymentStatus = _paymentSt\n    tag 102\t\t\tymentStatus = _paymentSt\n      JUMPDEST \t\t\tymentStatus = _paymentSt\n      DUP2 \t\t\tt256 \n      EQ \t\t\tuint256 paymentStatus = _payme...\n      PUSH [tag] 103\t\t\t\\r\\n        uint256 paymentSta...\n      JUMPI \t\t\t\\r\\n        uint256 paymentSta...\n      PUSH 0\t\t\t]\n      DUP1 \t\t\te\n      REVERT \t\t\t_receipent] \n    tag 103\t\t\t\\r\\n        uint256 paymentSta...\n      JUMPDEST \t\t\t\\r\\n        uint256 paymentSta...\n      POP \t\t\tt) public view returns (uint25...\n      JUMP \t\t\tt) public view returns (uint25...\n    tag 60\t\t\t      return  [paymentStatus,_...\n      JUMPDEST \t\t\t      return  [paymentStatus,_...\n      PUSH 0\t\t\teceip\n      DUP2 \t\t\t\\n\\r\\n   \n      CALLDATALOAD \t\t\treceipent]];\\r\\n\\r\\n    \n      SWAP1 \t\t\tentDate[_receipent]];\\r\\n\\r\\n ...\n      POP \t\t\tentDate[_receipent]];\\r\\n\\r\\n ...\n      PUSH [tag] 105\t\t\t  // Transfer Ether to Loyal C...\n      DUP2 \t\t\tl Cus\n      PUSH [tag] 59\t\t\t  // Transfer Ether to Loyal C...\n      JUMP \t\t\t  // Transfer Ether to Loyal C...\n    tag 105\t\t\t  // Transfer Ether to Loyal C...\n      JUMPDEST \t\t\t  // Transfer Ether to Loyal C...\n      SWAP3 \t\t\t      return  [paymentStatus,_...\n      SWAP2 \t\t\t      return  [paymentStatus,_...\n      POP \t\t\t      return  [paymentStatus,_...\n      POP \t\t\t      return  [paymentStatus,_...\n      JUMP \t\t\t      return  [paymentStatus,_...\n    tag 61\t\t\tunction pay(address _receipent...\n      JUMPDEST \t\t\tunction pay(address _receipent...\n      PUSH 0\t\t\ti\n      DUP1 \t\t\tc\n      REVERT \t\t\t to check if\n    tag 62\t\t\td or not\\r\\n        require(ms...\n      JUMPDEST \t\t\td or not\\r\\n        require(ms...\n      PUSH 0\t\t\ta\n      DUP1 \t\t\tg\n      REVERT \t\t\tent, msg.val\n    tag 63\t\t\te);\\r\\n\\r\\n    }\\r\\n\\r\\n    \\r...\n      JUMPDEST \t\t\te);\\r\\n\\r\\n    }\\r\\n\\r\\n    \\r...\n      PUSH 0\t\t\tof con\n      PUSH 1F\t\t\tic\n      NOT \t\t\tpublic \n      PUSH 1F\t\t\tce\n      DUP4 \t\t\tetBal\n      ADD \t\t\ton getBalance(\n      AND \t\t\tnction getBalance() public v\n      SWAP1 \t\t\tss\\r\\n    function getBalance(...\n      POP \t\t\tss\\r\\n    function getBalance(...\n      SWAP2 \t\t\te);\\r\\n\\r\\n    }\\r\\n\\r\\n    \\r...\n      SWAP1 \t\t\te);\\r\\n\\r\\n    }\\r\\n\\r\\n    \\r...\n      POP \t\t\te);\\r\\n\\r\\n    }\\r\\n\\r\\n    \\r...\n      JUMP \t\t\te);\\r\\n\\r\\n    }\\r\\n\\r\\n    \\r...\n    tag 64\t\t\tuint256){\\r\\n        return ad...\n      JUMPDEST \t\t\tuint256){\\r\\n        return ad...\n      PUSH 4E487B7100000000000000000000000000000000000000000000000000000000\t\t\t\\r\\n    }\\r\\n\\r\\n}\n      PUSH 0\t\t\tc\n      MSTORE \t\t\t).balance;\\r\\n    }\\r\\n\\r\\n}\n      PUSH 41\t\t\t\n      PUSH 4\t\t\t\n      MSTORE \t\t\t\n      PUSH 24\t\t\t\n      PUSH 0\t\t\t\n      REVERT \t\t\t\n    tag 65\t\t\t\n      JUMPDEST \t\t\t\n      PUSH [tag] 111\t\t\t\n      DUP3 \t\t\t\n      PUSH [tag] 63\t\t\t\n      JUMP \t\t\t\n    tag 111\t\t\t\n      JUMPDEST \t\t\t\n      DUP2 \t\t\t\n      ADD \t\t\t\n      DUP2 \t\t\t\n      DUP2 \t\t\t\n      LT \t\t\t\n      PUSH FFFFFFFFFFFFFFFF\t\t\t\n      DUP3 \t\t\t\n      GT \t\t\t\n      OR \t\t\t\n      ISZERO \t\t\t\n      PUSH [tag] 112\t\t\t\n      JUMPI \t\t\t\n      PUSH [tag] 113\t\t\t\n      PUSH [tag] 64\t\t\t\n      JUMP \t\t\t\n    tag 113\t\t\t\n      JUMPDEST \t\t\t\n    tag 112\t\t\t\n      JUMPDEST \t\t\t\n      DUP1 \t\t\t\n      PUSH 40\t\t\t\n      MSTORE \t\t\t\n      POP \t\t\t\n      POP \t\t\t\n      POP \t\t\t\n      JUMP \t\t\t\n    tag 66\t\t\t\n      JUMPDEST \t\t\t\n      PUSH 0\t\t\t\n      PUSH [tag] 115\t\t\t\n      PUSH [tag] 52\t\t\t\n      JUMP \t\t\t\n    tag 115\t\t\t\n      JUMPDEST \t\t\t\n      SWAP1 \t\t\t\n      POP \t\t\t\n      PUSH [tag] 116\t\t\t\n      DUP3 \t\t\t\n      DUP3 \t\t\t\n      PUSH [tag] 65\t\t\t\n      JUMP \t\t\t\n    tag 116\t\t\t\n      JUMPDEST \t\t\t\n      SWAP2 \t\t\t\n      SWAP1 \t\t\t\n      POP \t\t\t\n      JUMP \t\t\t\n    tag 67\t\t\t\n      JUMPDEST \t\t\t\n      PUSH 0\t\t\t\n      PUSH FFFFFFFFFFFFFFFF\t\t\t\n      DUP3 \t\t\t\n      GT \t\t\t\n      ISZERO \t\t\t\n      PUSH [tag] 118\t\t\t\n      JUMPI \t\t\t\n      PUSH [tag] 119\t\t\t\n      PUSH [tag] 64\t\t\t\n      JUMP \t\t\t\n    tag 119\t\t\t\n      JUMPDEST \t\t\t\n    tag 118\t\t\t\n      JUMPDEST \t\t\t\n      PUSH [tag] 120\t\t\t\n      DUP3 \t\t\t\n      PUSH [tag] 63\t\t\t\n      JUMP \t\t\t\n    tag 120\t\t\t\n      JUMPDEST \t\t\t\n      SWAP1 \t\t\t\n      POP \t\t\t\n      PUSH 20\t\t\t\n      DUP2 \t\t\t\n      ADD \t\t\t\n      SWAP1 \t\t\t\n      POP \t\t\t\n      SWAP2 \t\t\t\n      SWAP1 \t\t\t\n      POP \t\t\t\n      JUMP \t\t\t\n    tag 68\t\t\t\n      JUMPDEST \t\t\t\n      DUP3 \t\t\t\n      DUP2 \t\t\t\n      DUP4 \t\t\t\n      CALLDATACOPY \t\t\t\n      PUSH 0\t\t\t\n      DUP4 \t\t\t\n      DUP4 \t\t\t\n      ADD \t\t\t\n      MSTORE \t\t\t\n      POP \t\t\t\n      POP \t\t\t\n      POP \t\t\t\n      JUMP \t\t\t\n    tag 69\t\t\t\n      JUMPDEST \t\t\t\n      PUSH 0\t\t\t\n      PUSH [tag] 123\t\t\t\n      PUSH [tag] 124\t\t\t\n      DUP5 \t\t\t\n      PUSH [tag] 67\t\t\t\n      JUMP \t\t\t\n    tag 124\t\t\t\n      JUMPDEST \t\t\t\n      PUSH [tag] 66\t\t\t\n      JUMP \t\t\t\n    tag 123\t\t\t\n      JUMPDEST \t\t\t\n      SWAP1 \t\t\t\n      POP \t\t\t\n      DUP3 \t\t\t\n      DUP2 \t\t\t\n      MSTORE \t\t\t\n      PUSH 20\t\t\t\n      DUP2 \t\t\t\n      ADD \t\t\t\n      DUP5 \t\t\t\n      DUP5 \t\t\t\n      DUP5 \t\t\t\n      ADD \t\t\t\n      GT \t\t\t\n      ISZERO \t\t\t\n      PUSH [tag] 125\t\t\t\n      JUMPI \t\t\t\n      PUSH [tag] 126\t\t\t\n      PUSH [tag] 62\t\t\t\n      JUMP \t\t\t\n    tag 126\t\t\t\n      JUMPDEST \t\t\t\n    tag 125\t\t\t\n      JUMPDEST \t\t\t\n      PUSH [tag] 127\t\t\t\n      DUP5 \t\t\t\n      DUP3 \t\t\t\n      DUP6 \t\t\t\n      PUSH [tag] 68\t\t\t\n      JUMP \t\t\t\n    tag 127\t\t\t\n      JUMPDEST \t\t\t\n      POP \t\t\t\n      SWAP4 \t\t\t\n      SWAP3 \t\t\t\n      POP \t\t\t\n      POP \t\t\t\n      POP \t\t\t\n      JUMP \t\t\t\n    tag 70\t\t\t\n      JUMPDEST \t\t\t\n      PUSH 0\t\t\t\n      DUP3 \t\t\t\n      PUSH 1F\t\t\t\n      DUP4 \t\t\t\n      ADD \t\t\t\n      SLT \t\t\t\n      PUSH [tag] 129\t\t\t\n      JUMPI \t\t\t\n      PUSH [tag] 130\t\t\t\n      PUSH [tag] 61\t\t\t\n      JUMP \t\t\t\n    tag 130\t\t\t\n      JUMPDEST \t\t\t\n    tag 129\t\t\t\n      JUMPDEST \t\t\t\n      DUP2 \t\t\t\n      CALLDATALOAD \t\t\t\n      PUSH [tag] 131\t\t\t\n      DUP5 \t\t\t\n      DUP3 \t\t\t\n      PUSH 20\t\t\t\n      DUP7 \t\t\t\n      ADD \t\t\t\n      PUSH [tag] 69\t\t\t\n      JUMP \t\t\t\n    tag 131\t\t\t\n      JUMPDEST \t\t\t\n      SWAP2 \t\t\t\n      POP \t\t\t\n      POP \t\t\t\n      SWAP3 \t\t\t\n      SWAP2 \t\t\t\n      POP \t\t\t\n      POP \t\t\t\n      JUMP \t\t\t\n    tag 14\t\t\t\n      JUMPDEST \t\t\t\n      PUSH 0\t\t\t\n      DUP1 \t\t\t\n      PUSH 0\t\t\t\n      PUSH 60\t\t\t\n      DUP5 \t\t\t\n      DUP7 \t\t\t\n      SUB \t\t\t\n      SLT \t\t\t\n      ISZERO \t\t\t\n      PUSH [tag] 133\t\t\t\n      JUMPI \t\t\t\n      PUSH [tag] 134\t\t\t\n      PUSH [tag] 53\t\t\t\n      JUMP \t\t\t\n    tag 134\t\t\t\n      JUMPDEST \t\t\t\n    tag 133\t\t\t\n      JUMPDEST \t\t\t\n      PUSH 0\t\t\t\n      PUSH [tag] 135\t\t\t\n      DUP7 \t\t\t\n      DUP3 \t\t\t\n      DUP8 \t\t\t\n      ADD \t\t\t\n      PUSH [tag] 58\t\t\t\n      JUMP \t\t\t\n    tag 135\t\t\t\n      JUMPDEST \t\t\t\n      SWAP4 \t\t\t\n      POP \t\t\t\n      POP \t\t\t\n      PUSH 20\t\t\t\n      PUSH [tag] 136\t\t\t\n      DUP7 \t\t\t\n      DUP3 \t\t\t\n      DUP8 \t\t\t\n      ADD \t\t\t\n      PUSH [tag] 60\t\t\t\n      JUMP \t\t\t\n    tag 136\t\t\t\n      JUMPDEST \t\t\t\n      SWAP3 \t\t\t\n      POP \t\t\t\n      POP \t\t\t\n      PUSH 40\t\t\t\n      DUP5 \t\t\t\n      ADD \t\t\t\n      CALLDATALOAD \t\t\t\n      PUSH FFFFFFFFFFFFFFFF\t\t\t\n      DUP2 \t\t\t\n      GT \t\t\t\n      ISZERO \t\t\t\n      PUSH [tag] 137\t\t\t\n      JUMPI \t\t\t\n      PUSH [tag] 138\t\t\t\n      PUSH [tag] 54\t\t\t\n      JUMP \t\t\t\n    tag 138\t\t\t\n      JUMPDEST \t\t\t\n    tag 137\t\t\t\n      JUMPDEST \t\t\t\n      PUSH [tag] 139\t\t\t\n      DUP7 \t\t\t\n      DUP3 \t\t\t\n      DUP8 \t\t\t\n      ADD \t\t\t\n      PUSH [tag] 70\t\t\t\n      JUMP \t\t\t\n    tag 139\t\t\t\n      JUMPDEST \t\t\t\n      SWAP2 \t\t\t\n      POP \t\t\t\n      POP \t\t\t\n      SWAP3 \t\t\t\n      POP \t\t\t\n      SWAP3 \t\t\t\n      POP \t\t\t\n      SWAP3 \t\t\t\n      JUMP \t\t\t\n    tag 19\t\t\t\n      JUMPDEST \t\t\t\n      PUSH 0\t\t\t\n      PUSH 20\t\t\t\n      DUP3 \t\t\t\n      DUP5 \t\t\t\n      SUB \t\t\t\n      SLT \t\t\t\n      ISZERO \t\t\t\n      PUSH [tag] 141\t\t\t\n      JUMPI \t\t\t\n      PUSH [tag] 142\t\t\t\n      PUSH [tag] 53\t\t\t\n      JUMP \t\t\t\n    tag 142\t\t\t\n      JUMPDEST \t\t\t\n    tag 141\t\t\t\n      JUMPDEST \t\t\t\n      PUSH 0\t\t\t\n      PUSH [tag] 143\t\t\t\n      DUP5 \t\t\t\n      DUP3 \t\t\t\n      DUP6 \t\t\t\n      ADD \t\t\t\n      PUSH [tag] 58\t\t\t\n      JUMP \t\t\t\n    tag 143\t\t\t\n      JUMPDEST \t\t\t\n      SWAP2 \t\t\t\n      POP \t\t\t\n      POP \t\t\t\n      SWAP3 \t\t\t\n      SWAP2 \t\t\t\n      POP \t\t\t\n      POP \t\t\t\n      JUMP \t\t\t\n    tag 71\t\t\t\n      JUMPDEST \t\t\t\n      PUSH 0\t\t\t\n      PUSH 3\t\t\t\n      SWAP1 \t\t\t\n      POP \t\t\t\n      SWAP2 \t\t\t\n      SWAP1 \t\t\t\n      POP \t\t\t\n      JUMP \t\t\t\n    tag 72\t\t\t\n      JUMPDEST \t\t\t\n      PUSH 0\t\t\t\n      DUP2 \t\t\t\n      SWAP1 \t\t\t\n      POP \t\t\t\n      SWAP3 \t\t\t\n      SWAP2 \t\t\t\n      POP \t\t\t\n      POP \t\t\t\n      JUMP \t\t\t\n    tag 73\t\t\t\n      JUMPDEST \t\t\t\n      PUSH 0\t\t\t\n      DUP2 \t\t\t\n      SWAP1 \t\t\t\n      POP \t\t\t\n      SWAP2 \t\t\t\n      SWAP1 \t\t\t\n      POP \t\t\t\n      JUMP \t\t\t\n    tag 74\t\t\t\n      JUMPDEST \t\t\t\n      PUSH [tag] 148\t\t\t\n      DUP2 \t\t\t\n      PUSH [tag] 50\t\t\t\n      JUMP \t\t\t\n    tag 148\t\t\t\n      JUMPDEST \t\t\t\n      DUP3 \t\t\t\n      MSTORE \t\t\t\n      POP \t\t\t\n      POP \t\t\t\n      JUMP \t\t\t\n    tag 75\t\t\t\n      JUMPDEST \t\t\t\n      PUSH 0\t\t\t\n      PUSH [tag] 150\t\t\t\n      DUP4 \t\t\t\n      DUP4 \t\t\t\n      PUSH [tag] 74\t\t\t\n      JUMP \t\t\t\n    tag 150\t\t\t\n      JUMPDEST \t\t\t\n      PUSH 20\t\t\t\n      DUP4 \t\t\t\n      ADD \t\t\t\n      SWAP1 \t\t\t\n      POP \t\t\t\n      SWAP3 \t\t\t\n      SWAP2 \t\t\t\n      POP \t\t\t\n      POP \t\t\t\n      JUMP \t\t\t\n    tag 76\t\t\t\n      JUMPDEST \t\t\t\n      PUSH 0\t\t\t\n      PUSH 20\t\t\t\n      DUP3 \t\t\t\n      ADD \t\t\t\n      SWAP1 \t\t\t\n      POP \t\t\t\n      SWAP2 \t\t\t\n      SWAP1 \t\t\t\n      POP \t\t\t\n      JUMP \t\t\t\n    tag 77\t\t\t\n      JUMPDEST \t\t\t\n      PUSH [tag] 153\t\t\t\n      DUP2 \t\t\t\n      PUSH [tag] 71\t\t\t\n      JUMP \t\t\t\n    tag 153\t\t\t\n      JUMPDEST \t\t\t\n      PUSH [tag] 154\t\t\t\n      DUP2 \t\t\t\n      DUP5 \t\t\t\n      PUSH [tag] 72\t\t\t\n      JUMP \t\t\t\n    tag 154\t\t\t\n      JUMPDEST \t\t\t\n      SWAP3 \t\t\t\n      POP \t\t\t\n      PUSH [tag] 155\t\t\t\n      DUP3 \t\t\t\n      PUSH [tag] 73\t\t\t\n      JUMP \t\t\t\n    tag 155\t\t\t\n      JUMPDEST \t\t\t\n      DUP1 \t\t\t\n      PUSH 0\t\t\t\n    tag 156\t\t\t\n      JUMPDEST \t\t\t\n      DUP4 \t\t\t\n      DUP2 \t\t\t\n      LT \t\t\t\n      ISZERO \t\t\t\n      PUSH [tag] 158\t\t\t\n      JUMPI \t\t\t\n      DUP2 \t\t\t\n      MLOAD \t\t\t\n      PUSH [tag] 159\t\t\t\n      DUP8 \t\t\t\n      DUP3 \t\t\t\n      PUSH [tag] 75\t\t\t\n      JUMP \t\t\t\n    tag 159\t\t\t\n      JUMPDEST \t\t\t\n      SWAP7 \t\t\t\n      POP \t\t\t\n      PUSH [tag] 160\t\t\t\n      DUP4 \t\t\t\n      PUSH [tag] 76\t\t\t\n      JUMP \t\t\t\n    tag 160\t\t\t\n      JUMPDEST \t\t\t\n      SWAP3 \t\t\t\n      POP \t\t\t\n      POP \t\t\t\n      PUSH 1\t\t\t\n      DUP2 \t\t\t\n      ADD \t\t\t\n      SWAP1 \t\t\t\n      POP \t\t\t\n      PUSH [tag] 156\t\t\t\n      JUMP \t\t\t\n    tag 158\t\t\t\n      JUMPDEST \t\t\t\n      POP \t\t\t\n      POP \t\t\t\n      POP \t\t\t\n      POP \t\t\t\n      POP \t\t\t\n      POP \t\t\t\n      JUMP \t\t\t\n    tag 22\t\t\t\n      JUMPDEST \t\t\t\n      PUSH 0\t\t\t\n      PUSH 60\t\t\t\n      DUP3 \t\t\t\n      ADD \t\t\t\n      SWAP1 \t\t\t\n      POP \t\t\t\n      PUSH [tag] 162\t\t\t\n      PUSH 0\t\t\t\n      DUP4 \t\t\t\n      ADD \t\t\t\n      DUP5 \t\t\t\n      PUSH [tag] 77\t\t\t\n      JUMP \t\t\t\n    tag 162\t\t\t\n      JUMPDEST \t\t\t\n      SWAP3 \t\t\t\n      SWAP2 \t\t\t\n      POP \t\t\t\n      POP \t\t\t\n      JUMP \t\t\t\n    tag 25\t\t\t\n      JUMPDEST \t\t\t\n      PUSH 0\t\t\t\n      DUP1 \t\t\t\n      PUSH 40\t\t\t\n      DUP4 \t\t\t\n      DUP6 \t\t\t\n      SUB \t\t\t\n      SLT \t\t\t\n      ISZERO \t\t\t\n      PUSH [tag] 164\t\t\t\n      JUMPI \t\t\t\n      PUSH [tag] 165\t\t\t\n      PUSH [tag] 53\t\t\t\n      JUMP \t\t\t\n    tag 165\t\t\t\n      JUMPDEST \t\t\t\n    tag 164\t\t\t\n      JUMPDEST \t\t\t\n      PUSH 0\t\t\t\n      PUSH [tag] 166\t\t\t\n      DUP6 \t\t\t\n      DUP3 \t\t\t\n      DUP7 \t\t\t\n      ADD \t\t\t\n      PUSH [tag] 58\t\t\t\n      JUMP \t\t\t\n    tag 166\t\t\t\n      JUMPDEST \t\t\t\n      SWAP3 \t\t\t\n      POP \t\t\t\n      POP \t\t\t\n      PUSH 20\t\t\t\n      DUP4 \t\t\t\n      ADD \t\t\t\n      CALLDATALOAD \t\t\t\n      PUSH FFFFFFFFFFFFFFFF\t\t\t\n      DUP2 \t\t\t\n      GT \t\t\t\n      ISZERO \t\t\t\n      PUSH [tag] 167\t\t\t\n      JUMPI \t\t\t\n      PUSH [tag] 168\t\t\t\n      PUSH [tag] 54\t\t\t\n      JUMP \t\t\t\n    tag 168\t\t\t\n      JUMPDEST \t\t\t\n    tag 167\t\t\t\n      JUMPDEST \t\t\t\n      PUSH [tag] 169\t\t\t\n      DUP6 \t\t\t\n      DUP3 \t\t\t\n      DUP7 \t\t\t\n      ADD \t\t\t\n      PUSH [tag] 70\t\t\t\n      JUMP \t\t\t\n    tag 169\t\t\t\n      JUMPDEST \t\t\t\n      SWAP2 \t\t\t\n      POP \t\t\t\n      POP \t\t\t\n      SWAP3 \t\t\t\n      POP \t\t\t\n      SWAP3 \t\t\t\n      SWAP1 \t\t\t\n      POP \t\t\t\n      JUMP \t\t\t\n    tag 78\t\t\t\n      JUMPDEST \t\t\t\n      PUSH 4E487B7100000000000000000000000000000000000000000000000000000000\t\t\t\n      PUSH 0\t\t\t\n      MSTORE \t\t\t\n      PUSH 11\t\t\t\n      PUSH 4\t\t\t\n      MSTORE \t\t\t\n      PUSH 24\t\t\t\n      PUSH 0\t\t\t\n      REVERT \t\t\t\n    tag 36\t\t\t\n      JUMPDEST \t\t\t\n      PUSH 0\t\t\t\n      PUSH [tag] 172\t\t\t\n      DUP3 \t\t\t\n      PUSH [tag] 50\t\t\t\n      JUMP \t\t\t\n    tag 172\t\t\t\n      JUMPDEST \t\t\t\n      SWAP2 \t\t\t\n      POP \t\t\t\n      PUSH [tag] 173\t\t\t\n      DUP4 \t\t\t\n      PUSH [tag] 50\t\t\t\n      JUMP \t\t\t\n    tag 173\t\t\t\n      JUMPDEST \t\t\t\n      SWAP3 \t\t\t\n      POP \t\t\t\n      DUP3 \t\t\t\n      DUP3 \t\t\t\n      ADD \t\t\t\n      SWAP1 \t\t\t\n      POP \t\t\t\n      DUP1 \t\t\t\n      DUP3 \t\t\t\n      GT \t\t\t\n      ISZERO \t\t\t\n      PUSH [tag] 174\t\t\t\n      JUMPI \t\t\t\n      PUSH [tag] 175\t\t\t\n      PUSH [tag] 78\t\t\t\n      JUMP \t\t\t\n    tag 175\t\t\t\n      JUMPDEST \t\t\t\n    tag 174\t\t\t\n      JUMPDEST \t\t\t\n      SWAP3 \t\t\t\n      SWAP2 \t\t\t\n      POP \t\t\t\n      POP \t\t\t\n      JUMP \t\t\t\n    tag 79\t\t\t\n      JUMPDEST \t\t\t\n      PUSH 0\t\t\t\n      DUP3 \t\t\t\n      DUP3 \t\t\t\n      MSTORE \t\t\t\n      PUSH 20\t\t\t\n      DUP3 \t\t\t\n      ADD \t\t\t\n      SWAP1 \t\t\t\n      POP \t\t\t\n      SWAP3 \t\t\t\n      SWAP2 \t\t\t\n      POP \t\t\t\n      POP \t\t\t\n      JUMP \t\t\t\n    tag 80\t\t\t\n      JUMPDEST \t\t\t\n      PUSH 7573657220697320616C72656164792070616964210000000000000000000000\t\t\t\n      PUSH 0\t\t\t\n      DUP3 \t\t\t\n      ADD \t\t\t\n      MSTORE \t\t\t\n      POP \t\t\t\n      JUMP \t\t\t\n    tag 81\t\t\t\n      JUMPDEST \t\t\t\n      PUSH 0\t\t\t\n      PUSH [tag] 179\t\t\t\n      PUSH 15\t\t\t\n      DUP4 \t\t\t\n      PUSH [tag] 79\t\t\t\n      JUMP \t\t\t\n    tag 179\t\t\t\n      JUMPDEST \t\t\t\n      SWAP2 \t\t\t\n      POP \t\t\t\n      PUSH [tag] 180\t\t\t\n      DUP3 \t\t\t\n      PUSH [tag] 80\t\t\t\n      JUMP \t\t\t\n    tag 180\t\t\t\n      JUMPDEST \t\t\t\n      PUSH 20\t\t\t\n      DUP3 \t\t\t\n      ADD \t\t\t\n      SWAP1 \t\t\t\n      POP \t\t\t\n      SWAP2 \t\t\t\n      SWAP1 \t\t\t\n      POP \t\t\t\n      JUMP \t\t\t\n    tag 39\t\t\t\n      JUMPDEST \t\t\t\n      PUSH 0\t\t\t\n      PUSH 20\t\t\t\n      DUP3 \t\t\t\n      ADD \t\t\t\n      SWAP1 \t\t\t\n      POP \t\t\t\n      DUP2 \t\t\t\n      DUP2 \t\t\t\n      SUB \t\t\t\n      PUSH 0\t\t\t\n      DUP4 \t\t\t\n      ADD \t\t\t\n      MSTORE \t\t\t\n      PUSH [tag] 182\t\t\t\n      DUP2 \t\t\t\n      PUSH [tag] 81\t\t\t\n      JUMP \t\t\t\n    tag 182\t\t\t\n      JUMPDEST \t\t\t\n      SWAP1 \t\t\t\n      POP \t\t\t\n      SWAP2 \t\t\t\n      SWAP1 \t\t\t\n      POP \t\t\t\n      JUMP \t\t\t\n    tag 82\t\t\t\n      JUMPDEST \t\t\t\n      PUSH 596F75206D7573742073656E6420736F6D652045746865720000000000000000\t\t\t\n      PUSH 0\t\t\t\n      DUP3 \t\t\t\n      ADD \t\t\t\n      MSTORE \t\t\t\n      POP \t\t\t\n      JUMP \t\t\t\n    tag 83\t\t\t\n      JUMPDEST \t\t\t\n      PUSH 0\t\t\t\n      PUSH [tag] 185\t\t\t\n      PUSH 18\t\t\t\n      DUP4 \t\t\t\n      PUSH [tag] 79\t\t\t\n      JUMP \t\t\t\n    tag 185\t\t\t\n      JUMPDEST \t\t\t\n      SWAP2 \t\t\t\n      POP \t\t\t\n      PUSH [tag] 186\t\t\t\n      DUP3 \t\t\t\n      PUSH [tag] 82\t\t\t\n      JUMP \t\t\t\n    tag 186\t\t\t\n      JUMPDEST \t\t\t\n      PUSH 20\t\t\t\n      DUP3 \t\t\t\n      ADD \t\t\t\n      SWAP1 \t\t\t\n      POP \t\t\t\n      SWAP2 \t\t\t\n      SWAP1 \t\t\t\n      POP \t\t\t\n      JUMP \t\t\t\n    tag 48\t\t\t\n      JUMPDEST \t\t\t\n      PUSH 0\t\t\t\n      PUSH 20\t\t\t\n      DUP3 \t\t\t\n      ADD \t\t\t\n      SWAP1 \t\t\t\n      POP \t\t\t\n      DUP2 \t\t\t\n      DUP2 \t\t\t\n      SUB \t\t\t\n      PUSH 0\t\t\t\n      DUP4 \t\t\t\n      ADD \t\t\t\n      MSTORE \t\t\t\n      PUSH [tag] 188\t\t\t\n      DUP2 \t\t\t\n      PUSH [tag] 83\t\t\t\n      JUMP \t\t\t\n    tag 188\t\t\t\n      JUMPDEST \t\t\t\n      SWAP1 \t\t\t\n      POP \t\t\t\n      SWAP2 \t\t\t\n      SWAP1 \t\t\t\n      POP \t\t\t\n      JUMP \t\t\t\n    .data\n"
}